{"contracts/Proposal.sol":{"Proposal":{"abi":[{"inputs":[{"internalType":"address","name":"admin","type":"address"}],"stateMutability":"nonpayable","type":"constructor"},{"inputs":[],"name":"AccessControlBadConfirmation","type":"error"},{"inputs":[{"internalType":"address","name":"account","type":"address"},{"internalType":"bytes32","name":"neededRole","type":"bytes32"}],"name":"AccessControlUnauthorizedAccount","type":"error"},{"anonymous":false,"inputs":[{"indexed":true,"internalType":"address","name":"member","type":"address"},{"indexed":false,"internalType":"uint256","name":"newScore","type":"uint256"}],"name":"GlassScoreChanged","type":"event"},{"anonymous":false,"inputs":[{"indexed":true,"internalType":"uint256","name":"id","type":"uint256"},{"indexed":true,"internalType":"address","name":"proposer","type":"address"}],"name":"ProposalCreated","type":"event"},{"anonymous":false,"inputs":[{"indexed":true,"internalType":"uint256","name":"id","type":"uint256"},{"indexed":false,"internalType":"enum Proposal.Status","name":"status","type":"uint8"}],"name":"ProposalStatusChanged","type":"event"},{"anonymous":false,"inputs":[{"indexed":true,"internalType":"bytes32","name":"role","type":"bytes32"},{"indexed":true,"internalType":"bytes32","name":"previousAdminRole","type":"bytes32"},{"indexed":true,"internalType":"bytes32","name":"newAdminRole","type":"bytes32"}],"name":"RoleAdminChanged","type":"event"},{"anonymous":false,"inputs":[{"indexed":true,"internalType":"bytes32","name":"role","type":"bytes32"},{"indexed":true,"internalType":"address","name":"account","type":"address"},{"indexed":true,"internalType":"address","name":"sender","type":"address"}],"name":"RoleGranted","type":"event"},{"anonymous":false,"inputs":[{"indexed":true,"internalType":"bytes32","name":"role","type":"bytes32"},{"indexed":true,"internalType":"address","name":"account","type":"address"},{"indexed":true,"internalType":"address","name":"sender","type":"address"}],"name":"RoleRevoked","type":"event"},{"anonymous":false,"inputs":[{"indexed":true,"internalType":"uint256","name":"proposalId","type":"uint256"},{"indexed":true,"internalType":"address","name":"voter","type":"address"},{"indexed":false,"internalType":"uint8","name":"choice","type":"uint8"}],"name":"Voted","type":"event"},{"inputs":[],"name":"DAO_ROLE","outputs":[{"internalType":"bytes32","name":"","type":"bytes32"}],"stateMutability":"view","type":"function"},{"inputs":[],"name":"DEFAULT_ADMIN_ROLE","outputs":[{"internalType":"bytes32","name":"","type":"bytes32"}],"stateMutability":"view","type":"function"},{"inputs":[],"name":"MEMBER_ROLE","outputs":[{"internalType":"bytes32","name":"","type":"bytes32"}],"stateMutability":"view","type":"function"},{"inputs":[{"internalType":"address","name":"member","type":"address"},{"internalType":"uint256","name":"amount","type":"uint256"}],"name":"addGlassScore","outputs":[],"stateMutability":"nonpayable","type":"function"},{"inputs":[{"internalType":"address","name":"member","type":"address"}],"name":"addPenaltyAndExpel","outputs":[],"stateMutability":"nonpayable","type":"function"},{"inputs":[{"components":[{"internalType":"string","name":"title","type":"string"},{"internalType":"string","name":"description","type":"string"},{"internalType":"uint256","name":"amount","type":"uint256"},{"internalType":"address payable","name":"recipient","type":"address"},{"internalType":"bool","name":"requireVote","type":"bool"},{"internalType":"string","name":"sanctionType","type":"string"},{"internalType":"uint256","name":"beforeValue","type":"uint256"},{"internalType":"uint256","name":"afterValue","type":"uint256"},{"internalType":"address","name":"targetMember","type":"address"}],"internalType":"struct Proposal.ProposalInput","name":"input","type":"tuple"},{"internalType":"address","name":"proposer","type":"address"}],"name":"createProposal","outputs":[{"internalType":"uint256","name":"","type":"uint256"}],"stateMutability":"nonpayable","type":"function"},{"inputs":[],"name":"daoAddress","outputs":[{"internalType":"address","name":"","type":"address"}],"stateMutability":"view","type":"function"},{"inputs":[{"internalType":"uint256","name":"proposalId","type":"uint256"},{"internalType":"address","name":"member","type":"address"}],"name":"forceAbstain","outputs":[],"stateMutability":"nonpayable","type":"function"},{"inputs":[],"name":"getAllMembers","outputs":[{"internalType":"address[]","name":"","type":"address[]"}],"stateMutability":"view","type":"function"},{"inputs":[],"name":"getAllProposals","outputs":[{"components":[{"internalType":"string","name":"title","type":"string"},{"internalType":"string","name":"description","type":"string"},{"internalType":"uint256","name":"amount","type":"uint256"},{"internalType":"address payable","name":"recipient","type":"address"},{"internalType":"enum Proposal.Status","name":"status","type":"uint8"},{"internalType":"uint256","name":"votesFor","type":"uint256"},{"internalType":"uint256","name":"votesAgainst","type":"uint256"},{"internalType":"uint256","name":"votesAbstain","type":"uint256"},{"internalType":"uint256","name":"startTime","type":"uint256"},{"internalType":"address","name":"proposer","type":"address"},{"internalType":"bool","name":"requireVote","type":"bool"},{"internalType":"string","name":"sanctionType","type":"string"},{"internalType":"uint256","name":"beforeValue","type":"uint256"},{"internalType":"uint256","name":"afterValue","type":"uint256"},{"internalType":"address","name":"targetMember","type":"address"}],"internalType":"struct Proposal.ProposalData[]","name":"","type":"tuple[]"}],"stateMutability":"view","type":"function"},{"inputs":[],"name":"getMemberCount","outputs":[{"internalType":"uint256","name":"","type":"uint256"}],"stateMutability":"view","type":"function"},{"inputs":[{"internalType":"uint256","name":"id","type":"uint256"}],"name":"getProposal","outputs":[{"components":[{"internalType":"string","name":"title","type":"string"},{"internalType":"string","name":"description","type":"string"},{"internalType":"uint256","name":"amount","type":"uint256"},{"internalType":"address payable","name":"recipient","type":"address"},{"internalType":"enum Proposal.Status","name":"status","type":"uint8"},{"internalType":"uint256","name":"votesFor","type":"uint256"},{"internalType":"uint256","name":"votesAgainst","type":"uint256"},{"internalType":"uint256","name":"votesAbstain","type":"uint256"},{"internalType":"uint256","name":"startTime","type":"uint256"},{"internalType":"address","name":"proposer","type":"address"},{"internalType":"bool","name":"requireVote","type":"bool"},{"internalType":"string","name":"sanctionType","type":"string"},{"internalType":"uint256","name":"beforeValue","type":"uint256"},{"internalType":"uint256","name":"afterValue","type":"uint256"},{"internalType":"address","name":"targetMember","type":"address"}],"internalType":"struct Proposal.ProposalData","name":"","type":"tuple"}],"stateMutability":"view","type":"function"},{"inputs":[{"internalType":"bytes32","name":"role","type":"bytes32"}],"name":"getRoleAdmin","outputs":[{"internalType":"bytes32","name":"","type":"bytes32"}],"stateMutability":"view","type":"function"},{"inputs":[{"internalType":"address","name":"","type":"address"}],"name":"glassScore","outputs":[{"internalType":"uint256","name":"","type":"uint256"}],"stateMutability":"view","type":"function"},{"inputs":[{"internalType":"bytes32","name":"role","type":"bytes32"},{"internalType":"address","name":"account","type":"address"}],"name":"grantRole","outputs":[],"stateMutability":"nonpayable","type":"function"},{"inputs":[{"internalType":"bytes32","name":"role","type":"bytes32"},{"internalType":"address","name":"account","type":"address"}],"name":"hasRole","outputs":[{"internalType":"bool","name":"","type":"bool"}],"stateMutability":"view","type":"function"},{"inputs":[{"internalType":"uint256","name":"","type":"uint256"},{"internalType":"address","name":"","type":"address"}],"name":"hasVoted","outputs":[{"internalType":"bool","name":"","type":"bool"}],"stateMutability":"view","type":"function"},{"inputs":[{"internalType":"uint256","name":"proposalId","type":"uint256"},{"internalType":"address","name":"voter","type":"address"}],"name":"hasVotedForProposal","outputs":[{"internalType":"bool","name":"","type":"bool"}],"stateMutability":"view","type":"function"},{"inputs":[{"internalType":"address","name":"","type":"address"}],"name":"isMember","outputs":[{"internalType":"bool","name":"","type":"bool"}],"stateMutability":"view","type":"function"},{"inputs":[{"internalType":"uint256","name":"","type":"uint256"}],"name":"members","outputs":[{"internalType":"address","name":"","type":"address"}],"stateMutability":"view","type":"function"},{"inputs":[{"internalType":"address","name":"","type":"address"}],"name":"penaltyCount","outputs":[{"internalType":"uint256","name":"","type":"uint256"}],"stateMutability":"view","type":"function"},{"inputs":[{"internalType":"uint256","name":"","type":"uint256"}],"name":"proposals","outputs":[{"internalType":"string","name":"title","type":"string"},{"internalType":"string","name":"description","type":"string"},{"internalType":"uint256","name":"amount","type":"uint256"},{"internalType":"address payable","name":"recipient","type":"address"},{"internalType":"enum Proposal.Status","name":"status","type":"uint8"},{"internalType":"uint256","name":"votesFor","type":"uint256"},{"internalType":"uint256","name":"votesAgainst","type":"uint256"},{"internalType":"uint256","name":"votesAbstain","type":"uint256"},{"internalType":"uint256","name":"startTime","type":"uint256"},{"internalType":"address","name":"proposer","type":"address"},{"internalType":"bool","name":"requireVote","type":"bool"},{"internalType":"string","name":"sanctionType","type":"string"},{"internalType":"uint256","name":"beforeValue","type":"uint256"},{"internalType":"uint256","name":"afterValue","type":"uint256"},{"internalType":"address","name":"targetMember","type":"address"}],"stateMutability":"view","type":"function"},{"inputs":[{"internalType":"bytes32","name":"role","type":"bytes32"},{"internalType":"address","name":"callerConfirmation","type":"address"}],"name":"renounceRole","outputs":[],"stateMutability":"nonpayable","type":"function"},{"inputs":[{"internalType":"bytes32","name":"role","type":"bytes32"},{"internalType":"address","name":"account","type":"address"}],"name":"revokeRole","outputs":[],"stateMutability":"nonpayable","type":"function"},{"inputs":[{"internalType":"address","name":"_dao","type":"address"}],"name":"setDaoAddress","outputs":[],"stateMutability":"nonpayable","type":"function"},{"inputs":[{"internalType":"uint256","name":"id","type":"uint256"},{"internalType":"enum Proposal.Status","name":"status","type":"uint8"}],"name":"setProposalStatus","outputs":[],"stateMutability":"nonpayable","type":"function"},{"inputs":[{"internalType":"address","name":"member","type":"address"},{"internalType":"uint256","name":"amount","type":"uint256"}],"name":"subGlassScore","outputs":[],"stateMutability":"nonpayable","type":"function"},{"inputs":[{"internalType":"bytes4","name":"interfaceId","type":"bytes4"}],"name":"supportsInterface","outputs":[{"internalType":"bool","name":"","type":"bool"}],"stateMutability":"view","type":"function"},{"inputs":[{"internalType":"uint256","name":"proposalId","type":"uint256"},{"internalType":"uint8","name":"choice","type":"uint8"},{"internalType":"address","name":"voter","type":"address"}],"name":"vote","outputs":[],"stateMutability":"nonpayable","type":"function"}],"evm":{"bytecode":{"linkReferences":{},"object":"608034620001aa57601f6200233d38819003918201601f19168301916001600160401b03831184841017620001af57808492602094604052833981010312620001aa57516001600160a01b03811690818103620001aa5780620000666200006d92620001c5565b5062000245565b506000805160206200231d833981519152600081815260208190527f30710e496c9a8631e387d1ff5062c226d4ce9c9e008bff1f22ae157290ccbd6380547f3b5d4cc60d3ec3516ee8ae083bd60934f6eb2a6c54b1229985c41bfb092b2603918290556040519492937fbd79b86ffe0ab8e8776151514217cd7cacd52c909f66475c3af44e129f0b00ff8580a4600654680100000000000000008110156200019657600181018060065581101562000182577ff652222313e28459528d920b65115c16c04f3efc82aaedc97be59f3f377c0d3f0180546001600160a01b031916821790558152600760209081526040808320805460ff1916600117905560049091529020603290556120269081620002d78239f35b634e487b7160e01b83526032600452602483fd5b634e487b7160e01b83526041600452602483fd5b600080fd5b634e487b7160e01b600052604160045260246000fd5b6001600160a01b031660008181527fad3228b676f7d3cd4284a5443f17f1962b36e491b30a40b2405849e597ba5fb5602052604081205490919060ff166200024157818052816020526040822081835260205260408220600160ff198254161790553391600080516020620022fd8339815191528180a4600190565b5090565b6001600160a01b031660008181527f30710e496c9a8631e387d1ff5062c226d4ce9c9e008bff1f22ae157290ccbd6260205260408120549091906000805160206200231d8339815191529060ff16620002d157808352826020526040832082845260205260408320600160ff19825416179055600080516020620022fd833981519152339380a4600190565b50509056fe6080604052600436101561001257600080fd5b60003560e01c8063013cf08b146115ec57806301ffc9a71461159657806319cff706146113c75780631f56d1261461138d5780632131c68c14611364578063248a9ca3146113355780632b72ee51146112325780632f2ff15d1461113357806336568abe146110ec5780634385963214610fc9578063488cba40146110585780635daf08ca1461101657806362d4f89314610fc95780637c0f6b3514610f0157806391d1485414610eb4578063997072f714610e965780639a3cac6a14610e03578063a10f469e14610dda578063a217fddf14610dbe578063a230c52414610d7f578063a462e50f14610cd1578063a9330b0e14610c97578063ba86f70a14610bc5578063c7f758a814610b18578063cbe9461414610aa6578063cc9aa9ea1461045a578063cceb68f51461034a578063d547741f1461019b5763e9c265181461015b57600080fd5b346101965760003660031901126101965760206040517f3b5d4cc60d3ec3516ee8ae083bd60934f6eb2a6c54b1229985c41bfb092b26038152f35b600080fd5b34610196576040366003190112610196576004356101b76118f3565b90806000526000602052600080516020611fb18339815191526001916101e38360406000200154611ba6565b6101ed8482611ab7565b501480610328575b6101fb57005b6001600160a01b039182166000818152600760205260408120805460ff19169055909290825b61023a575b505050600090815260036020526040812055005b60068054808310156103215783908661025285611909565b939054600394851b1c16146102735750505061026d90611cf2565b82610221565b90929194506000199384820191821161030b576102c1936102966102a293611909565b9054911b1c1691611909565b90919082549060031b9160018060a01b03809116831b921b1916179055565b815480156102f55701906102ec6102d783611909565b81549060018060a01b039060031b1b19169055565b55818080610226565b634e487b7160e01b600052603160045260246000fd5b634e487b7160e01b600052601160045260246000fd5b5050610226565b506001600160a01b03821660009081526007602052604090205460ff166101f5565b34610196576000366003190112610196576001805467ffffffffffffffff81116104445790604051906020610384818560051b01846117c8565b8383528083019384836000527fb10e2d527612073b26eecdfd717e6a320cf44b4afac2b0732d9fcbe2b7fa0cf66000915b83831061041d5750505050604051928184019082855251809152604084019160408260051b86010195926000905b8382106103f05786880387f35b9091929394838061040c839a603f198b82030186528951611940565b9997019594939190910191016103e3565b94600d85829997610430859a989a611ed5565b8152019201920191909694969593956103b5565b634e487b7160e01b600052604160045260246000fd5b34610196576003196040368201126101965767ffffffffffffffff600435116101965761012060043560040191600435360301126101965761049a6118f3565b906104a3611b2c565b6104ad8180611e37565b91906104be60246004350183611e37565b909290919060043560640135906001600160a01b03821682036101965760846004350135908115158203610196576104fc9060a46004350190611e37565b60043561010401359691949093916001600160a01b03881688036101965761059d96610539610542936040519b6105328d6117ab565b3691611e6a565b8a523691611e6a565b60208801526004356044013560408801526001600160a01b03908116606088015260006080880181905260a0880181905260c0880181905260e088015242610100880152871661012087015215156101408601523691611e6a565b61016083015260043560c481013561018084015260e401356101a08301526001600160a01b03166101c0820152600154600160401b811015610444578060016105e99201600155611720565b610a9057815192835167ffffffffffffffff81116104445761060b8354611771565b601f8111610a4c575b506020601f82116001146109e35781929394956000926109d8575b50508160011b916000199060031b1c19161782555b602083015192835167ffffffffffffffff8111610444576106686001850154611771565b601f8111610991575b506020601f8211600114610922578192939495600092610917575b50508160011b916000199060031b1c19161760018401555b6040810151600284015560608101516003840180546001600160a01b0319166001600160a01b039290921691909117905560808101516004811015610901576106f09060038501611eb1565b60a0810151600484015560c0810151600584015560e0810151600684015561010081015160078401556008830160018060a01b036101208301511681549060ff60a01b610140850151151560a01b16916affffffffffffffffffffff60a81b161717905561016081015192835167ffffffffffffffff8111610444576107796009830154611771565b601f81116108ba575b506020601f8211600114610849578190600c94959660009261083e575b50508160011b916000199060031b1c19161760098201555b610180830151600a8201556101a0830151600b82015501906101c060018060a01b03910151166bffffffffffffffffffffffff60a01b82541617905560015490600019820191821161030b5760405160209290916001600160a01b0316817fcd423cc1203c0af96b9b3d68d73b3064a69de2d14450bb7181c5e5df2132b358600080a38152f35b01519050868061079f565b601f198216956009840160005260206000209660005b8181106108a2575091600c95969791846001959410610889575b505050811b0160098201556107b7565b015160001960f88460031b161c19169055868080610879565b8383015189556001909801976020938401930161085f565b600983016000526020600020601f830160051c8101602084106108fa575b601f830160051c820181106108ee575050610782565b600081556001016108d8565b50806108d8565b634e487b7160e01b600052602160045260246000fd5b01519050858061068c565b6001850160005260206000209060005b601f1984168110610979575060019394959683601f19811610610960575b505050811b0160018401556106a4565b015160001960f88460031b161c19169055858080610950565b9091602060018192858b015181550193019101610932565b600185016000526020600020601f830160051c8101602084106109d1575b601f830160051c820181106109c5575050610671565b600081556001016109af565b50806109af565b01519050858061062f565b8360005260206000209060005b601f1984168110610a34575060019394959683601f19811610610a1b575b505050811b018255610644565b015160001960f88460031b161c19169055858080610a0e565b9091602060018192858b0151815501930191016109f0565b836000526020600020601f830160051c810160208410610a89575b601f830160051c82018110610a7d575050610614565b60008155600101610a67565b5080610a67565b634e487b7160e01b600052600060045260246000fd5b346101965760403660031901126101965760043560243560048110156101965760207f3346abf262ac5179e9052765fb72484e0baab1f356f08442bb7a3054147631de91610af2611b2c565b610b08816003610b0187611720565b5001611eb1565b610b1560405180926118d0565ba2005b346101965760203660031901126101965760006101c0604051610b3a816117ab565b60608152606060208201528260408201528260608201528260808201528260a08201528260c08201528260e0820152826101008201528261012082015282610140820152606061016082015282610180820152826101a08201520152610bc1610bad610ba7600435611720565b50611ed5565b604051918291602083526020830190611940565b0390f35b346101965760208060031936011261019657610bdf6118dd565b90610be8611b2c565b6001600160a01b03828116600081815260038452604090208054600181019190821061030b575560005260038252600482604060002054926005541660405192838092639f1f43af60e01b82525afa928315610c8b57600093610c5b575b50501015610c5057005b610c5990611d01565b005b9080929350813d8311610c84575b610c7381836117c8565b810103126101965751908380610c46565b503d610c69565b6040513d6000823e3d90fd5b34610196576020366003190112610196576001600160a01b03610cb86118dd565b1660005260036020526020604060002054604051908152f35b3461019657604036600319011261019657600435610ced6118f3565b90610cf6611b2c565b610cff81611720565b5081600052600260205260406000209260018060a01b0316928360005260205260ff6040600020541615610d2f57005b6006908260005260026020526040600020846000526020526040600020600160ff1982541617905501610d628154611cf2565b9055600080516020611fd1833981519152602060405160028152a3005b34610196576020366003190112610196576001600160a01b03610da06118dd565b166000526007602052602060ff604060002054166040519015158152f35b3461019657600036600319011261019657602060405160008152f35b34610196576000366003190112610196576020604051600080516020611fb18339815191528152f35b3461019657602036600319011261019657610e1c6118dd565b3360009081527fad3228b676f7d3cd4284a5443f17f1962b36e491b30a40b2405849e597ba5fb5602052604090205460ff1615610e7757600580546001600160a01b0319166001600160a01b038316179055610c5990611bcc565b60405163e2517d3f60e01b815233600482015260006024820152604490fd5b34610196576000366003190112610196576020600654604051908152f35b3461019657604036600319011261019657610ecd6118f3565b600435600052600060205260406000209060018060a01b0316600052602052602060ff604060002054166040519015158152f35b3461019657600036600319011261019657604051806006548083526020809301809160066000527ff652222313e28459528d920b65115c16c04f3efc82aaedc97be59f3f377c0d3f9060005b86828210610fac578686610f63828803836117c8565b604051928392818401908285525180915260408401929160005b828110610f8c57505050500390f35b83516001600160a01b031685528695509381019392810192600101610f7d565b83546001600160a01b031685529093019260019283019201610f4d565b3461019657604036600319011261019657610fe26118f3565b600435600052600260205260406000209060018060a01b0316600052602052602060ff604060002054166040519015158152f35b34610196576020366003190112610196576004356006548110156101965761103f602091611909565b905460405160039290921b1c6001600160a01b03168152f35b34610196576040366003190112610196576110716118dd565b611079611b2c565b6001600160a01b0316600081815260046020526040902054602435810190811061030b5760207fdb51946147af8f68f24b69cdb99d868cc4b53b75dce4e05d8f590bcf5281051c91606481116000146110e65760645b8460005260048352604060002055604051908152a2005b806110cf565b34610196576040366003190112610196576111056118f3565b336001600160a01b0382160361112157610c5990600435611ab7565b60405163334bd91960e11b8152600490fd5b3461019657604036600319011261019657600435600080516020611fb183398151915261115e6118f3565b91806000526000602052611179600160406000200154611ba6565b6111838382611c79565b50148061120f575b61119157005b600654600160401b81101561044457816102a28260016111b49401600655611909565b60018060a01b03168060005260076020526040600020600160ff19825416179055600460205260326040600020557fdb51946147af8f68f24b69cdb99d868cc4b53b75dce4e05d8f590bcf5281051c602060405160328152a2005b506001600160a01b03811660009081526007602052604090205460ff161561118b565b346101965760403660031901126101965761124b6118dd565b602435611256611b2c565b6001600160a01b038281166000818152600460209081526040909120549093919291848183106113275750810390811161030b576004918491935b80600052838352846040600020557fdb51946147af8f68f24b69cdb99d868cc4b53b75dce4e05d8f590bcf5281051c83604051878152a2600554166040519283809263295e4f4160e11b82525afa928315610c8b576000936112f7575b505010610c5057005b9080929350813d8311611320575b61130f81836117c8565b8101031261019657519083806112ee565b503d611305565b915050600491600093611291565b346101965760203660031901126101965760043560005260006020526020600160406000200154604051908152f35b34610196576000366003190112610196576005546040516001600160a01b039091168152602090f35b34610196576020366003190112610196576001600160a01b036113ae6118dd565b1660005260046020526020604060002054604051908152f35b34610196576060366003190112610196576004356024359060ff8216809203610196576044356001600160a01b038116929083900361019657611408611b2c565b61141182611720565b509060ff600883015460a01c161561155b578260005260209160028352604060002085600052835260ff6040600020541661152657600084815260028452604080822087835285529020805460ff191660011790558161149657906004600080516020611fd183398151915293920161148a8154611cf2565b90555b604051908152a3005b600182036114c457906005600080516020611fd18339815191529392016114bd8154611cf2565b905561148d565b600282036114eb57906006600080516020611fd18339815191529392016114bd8154611cf2565b60405162461bcd60e51b8152600481018490526013602482015272496e76616c696420766f74652063686f69636560681b6044820152606490fd5b60405162461bcd60e51b815260048101849052600d60248201526c105b1c9958591e481d9bdd1959609a1b6044820152606490fd5b60405162461bcd60e51b8152602060048201526013602482015272159bdd1a5b99c81b9bdd081c995c5d5a5c9959606a1b6044820152606490fd5b346101965760203660031901126101965760043563ffffffff60e01b811680910361019657602090637965db0b60e01b81149081156115db575b506040519015158152f35b6301ffc9a760e01b149050826115d0565b34610196576020366003190112610196576004356001548110156101965761161390611720565b5061161d816117ea565b611629600183016117ea565b9060028301549260038101549060048101549060058101549360068201549160078101549060088101549160098201611661906117ea565b94600a83015498600b84015497600160a01b60019003600c8196015416996040519d8e9d8e996101e0808c528b0161169891611890565b8a810360208c01526116a991611890565b98604001528c868216906060015260808d019060a01c60ff16906116cc916118d0565b60a08c015260c08b015260e08a0152610100890152811661012088015260a01c60ff16151561014087015285810361016087015261170991611890565b926101808501526101a08401526101c08301520390f35b60015481101561175b57600d906001600052027fb10e2d527612073b26eecdfd717e6a320cf44b4afac2b0732d9fcbe2b7fa0cf60190600090565b634e487b7160e01b600052603260045260246000fd5b90600182811c921680156117a1575b602083101461178b57565b634e487b7160e01b600052602260045260246000fd5b91607f1691611780565b6101e0810190811067ffffffffffffffff82111761044457604052565b90601f8019910116810190811067ffffffffffffffff82111761044457604052565b90604051918260008254926117fe84611771565b90818452600194858116908160001461186d575060011461182a575b5050611828925003836117c8565b565b9093915060005260209081600020936000915b8183106118555750506118289350820101388061181a565b8554888401850152948501948794509183019161183d565b91505061182894506020925060ff191682840152151560051b820101388061181a565b919082519283825260005b8481106118bc575050826000602080949584010152601f8019910116010190565b60208183018101518483018201520161189b565b9060048210156109015752565b600435906001600160a01b038216820361019657565b602435906001600160a01b038216820361019657565b60065481101561175b5760066000527ff652222313e28459528d920b65115c16c04f3efc82aaedc97be59f3f377c0d3f0190600090565b9061196961195783516101e0808552840190611890565b60208401518382036020850152611890565b91604081015160408301526119f460018060a01b039384606084015116606085015261199d608084015160808601906118d0565b60a083015160a085015260c083015160c085015260e083015160e085015261010080840151908501526101208581850151169085015261014080840151151590850152610160808401519085830390860152611890565b9261018080830151908401526101a080830151908401526101c0809201511691015290565b6001600160a01b031660008181527f30710e496c9a8631e387d1ff5062c226d4ce9c9e008bff1f22ae157290ccbd626020526040812054909190600080516020611fb18339815191529060ff1615611ab25780835282602052604083208284526020526040832060ff1981541690557ff6391f5c32d9c69d2a47ea670b442974b53935d1edc7fd64eb21e047a839171b339380a4600190565b505090565b9060009180835282602052604083209160018060a01b03169182845260205260ff604084205416600014611ab25780835282602052604083208284526020526040832060ff1981541690557ff6391f5c32d9c69d2a47ea670b442974b53935d1edc7fd64eb21e047a839171b339380a4600190565b3360009081527fc39f11a9300b508470eaed31f5842ba08c93181bcbe6a7fe34039aa7f2b8074260205260409020547f3b5d4cc60d3ec3516ee8ae083bd60934f6eb2a6c54b1229985c41bfb092b26039060ff1615611b885750565b6044906040519063e2517d3f60e01b82523360048301526024820152fd5b80600052600060205260406000203360005260205260ff6040600020541615611b885750565b6001600160a01b031660008181527fc39f11a9300b508470eaed31f5842ba08c93181bcbe6a7fe34039aa7f2b8074260205260408120549091907f3b5d4cc60d3ec3516ee8ae083bd60934f6eb2a6c54b1229985c41bfb092b26039060ff16611ab257808352826020526040832082845260205260408320600160ff198254161790557f2f8788117e7eff1d82e926ec794901d17c78024a50270940304540a733656f0d339380a4600190565b9060009180835282602052604083209160018060a01b03169182845260205260ff60408420541615600014611ab257808352826020526040832082845260205260408320600160ff198254161790557f2f8788117e7eff1d82e926ec794901d17c78024a50270940304540a733656f0d339380a4600190565b600019811461030b5760010190565b6000600080516020611fb1833981519152815280602052600191611d2a83604084200154611ba6565b611d3381611a19565b506001600160a01b03908116808352600760205260408320805491929160ff8116611d61575b505050505050565b60ff1916905582845b611d89575b505081526003602052604081205550388080808080611d59565b6006805480831015611e30578385611da085611909565b929054600393841b1c1614611dc157505050611dbb90611cf2565b84611d6a565b9093919495965060001993848101908111611e1c57916102a291610296611de89594611909565b81548015611e08570190611dfe6102d783611909565b5581903880611d6f565b634e487b7160e01b85526031600452602485fd5b634e487b7160e01b88526011600452602488fd5b5050611d6f565b903590601e1981360301821215610196570180359067ffffffffffffffff82116101965760200191813603831361019657565b92919267ffffffffffffffff82116104445760405191611e94601f8201601f1916602001846117c8565b829481845281830111610196578281602093846000960137010152565b90600481101561090157815460ff60a01b191660a09190911b60ff60a01b16179055565b90604051611ee2816117ab565b8092611eed816117ea565b8252611efb600182016117ea565b60208301526002810154604083015260038101546001600160a01b0380821660608501529060a01c60ff166004811015610901576101c092600c916080860152600481015460a0860152600581015460c0860152600681015460e0860152600781015461010086015260ff600882015484811661012088015260a01c161515610140860152611f8c600982016117ea565b610160860152600a810154610180860152600b8101546101a086015201541691015256fe829b824e2329e205435d941c9f13baf578548505283d29261236d8e6596d4636094f80829c509370abb2d421a078ba5926755d3de25d021dacf7bbd19853f7a2a2646970667358221220c4cb852a98243c55d0895d0106f7528333c7e094f320b8b53b1fb66bc4f2b1f464736f6c634300081400332f8788117e7eff1d82e926ec794901d17c78024a50270940304540a733656f0d829b824e2329e205435d941c9f13baf578548505283d29261236d8e6596d4636","opcodes":"PUSH1 0x80 CALLVALUE PUSH3 0x1AA JUMPI PUSH1 0x1F PUSH3 0x233D CODESIZE DUP2 SWAP1 SUB SWAP2 DUP3 ADD PUSH1 0x1F NOT AND DUP4 ADD SWAP2 PUSH1 0x1 PUSH1 0x1 PUSH1 0x40 SHL SUB DUP4 GT DUP5 DUP5 LT OR PUSH3 0x1AF JUMPI DUP1 DUP5 SWAP3 PUSH1 0x20 SWAP5 PUSH1 0x40 MSTORE DUP4 CODECOPY DUP2 ADD SUB SLT PUSH3 0x1AA JUMPI MLOAD PUSH1 0x1 PUSH1 0x1 PUSH1 0xA0 SHL SUB DUP2 AND SWAP1 DUP2 DUP2 SUB PUSH3 0x1AA JUMPI DUP1 PUSH3 0x66 PUSH3 0x6D SWAP3 PUSH3 0x1C5 JUMP JUMPDEST POP PUSH3 0x245 JUMP JUMPDEST POP PUSH1 0x0 DUP1 MLOAD PUSH1 0x20 PUSH3 0x231D DUP4 CODECOPY DUP2 MLOAD SWAP2 MSTORE PUSH1 0x0 DUP2 DUP2 MSTORE PUSH1 0x20 DUP2 SWAP1 MSTORE PUSH32 0x30710E496C9A8631E387D1FF5062C226D4CE9C9E008BFF1F22AE157290CCBD63 DUP1 SLOAD PUSH32 0x3B5D4CC60D3EC3516EE8AE083BD60934F6EB2A6C54B1229985C41BFB092B2603 SWAP2 DUP3 SWAP1 SSTORE PUSH1 0x40 MLOAD SWAP5 SWAP3 SWAP4 PUSH32 0xBD79B86FFE0AB8E8776151514217CD7CACD52C909F66475C3AF44E129F0B00FF DUP6 DUP1 LOG4 PUSH1 0x6 SLOAD PUSH9 0x10000000000000000 DUP2 LT ISZERO PUSH3 0x196 JUMPI PUSH1 0x1 DUP2 ADD DUP1 PUSH1 0x6 SSTORE DUP2 LT ISZERO PUSH3 0x182 JUMPI PUSH32 0xF652222313E28459528D920B65115C16C04F3EFC82AAEDC97BE59F3F377C0D3F ADD DUP1 SLOAD PUSH1 0x1 PUSH1 0x1 PUSH1 0xA0 SHL SUB NOT AND DUP3 OR SWAP1 SSTORE DUP2 MSTORE PUSH1 0x7 PUSH1 0x20 SWAP1 DUP2 MSTORE PUSH1 0x40 DUP1 DUP4 KECCAK256 DUP1 SLOAD PUSH1 0xFF NOT AND PUSH1 0x1 OR SWAP1 SSTORE PUSH1 0x4 SWAP1 SWAP2 MSTORE SWAP1 KECCAK256 PUSH1 0x32 SWAP1 SSTORE PUSH2 0x2026 SWAP1 DUP2 PUSH3 0x2D7 DUP3 CODECOPY RETURN JUMPDEST PUSH4 0x4E487B71 PUSH1 0xE0 SHL DUP4 MSTORE PUSH1 0x32 PUSH1 0x4 MSTORE PUSH1 0x24 DUP4 REVERT JUMPDEST PUSH4 0x4E487B71 PUSH1 0xE0 SHL DUP4 MSTORE PUSH1 0x41 PUSH1 0x4 MSTORE PUSH1 0x24 DUP4 REVERT JUMPDEST PUSH1 0x0 DUP1 REVERT JUMPDEST PUSH4 0x4E487B71 PUSH1 0xE0 SHL PUSH1 0x0 MSTORE PUSH1 0x41 PUSH1 0x4 MSTORE PUSH1 0x24 PUSH1 0x0 REVERT JUMPDEST PUSH1 0x1 PUSH1 0x1 PUSH1 0xA0 SHL SUB AND PUSH1 0x0 DUP2 DUP2 MSTORE PUSH32 0xAD3228B676F7D3CD4284A5443F17F1962B36E491B30A40B2405849E597BA5FB5 PUSH1 0x20 MSTORE PUSH1 0x40 DUP2 KECCAK256 SLOAD SWAP1 SWAP2 SWAP1 PUSH1 0xFF AND PUSH3 0x241 JUMPI DUP2 DUP1 MSTORE DUP2 PUSH1 0x20 MSTORE PUSH1 0x40 DUP3 KECCAK256 DUP2 DUP4 MSTORE PUSH1 0x20 MSTORE PUSH1 0x40 DUP3 KECCAK256 PUSH1 0x1 PUSH1 0xFF NOT DUP3 SLOAD AND OR SWAP1 SSTORE CALLER SWAP2 PUSH1 0x0 DUP1 MLOAD PUSH1 0x20 PUSH3 0x22FD DUP4 CODECOPY DUP2 MLOAD SWAP2 MSTORE DUP2 DUP1 LOG4 PUSH1 0x1 SWAP1 JUMP JUMPDEST POP SWAP1 JUMP JUMPDEST PUSH1 0x1 PUSH1 0x1 PUSH1 0xA0 SHL SUB AND PUSH1 0x0 DUP2 DUP2 MSTORE PUSH32 0x30710E496C9A8631E387D1FF5062C226D4CE9C9E008BFF1F22AE157290CCBD62 PUSH1 0x20 MSTORE PUSH1 0x40 DUP2 KECCAK256 SLOAD SWAP1 SWAP2 SWAP1 PUSH1 0x0 DUP1 MLOAD PUSH1 0x20 PUSH3 0x231D DUP4 CODECOPY DUP2 MLOAD SWAP2 MSTORE SWAP1 PUSH1 0xFF AND PUSH3 0x2D1 JUMPI DUP1 DUP4 MSTORE DUP3 PUSH1 0x20 MSTORE PUSH1 0x40 DUP4 KECCAK256 DUP3 DUP5 MSTORE PUSH1 0x20 MSTORE PUSH1 0x40 DUP4 KECCAK256 PUSH1 0x1 PUSH1 0xFF NOT DUP3 SLOAD AND OR SWAP1 SSTORE PUSH1 0x0 DUP1 MLOAD PUSH1 0x20 PUSH3 0x22FD DUP4 CODECOPY DUP2 MLOAD SWAP2 MSTORE CALLER SWAP4 DUP1 LOG4 PUSH1 0x1 SWAP1 JUMP JUMPDEST POP POP SWAP1 JUMP INVALID PUSH1 0x80 PUSH1 0x40 MSTORE PUSH1 0x4 CALLDATASIZE LT ISZERO PUSH2 0x12 JUMPI PUSH1 0x0 DUP1 REVERT JUMPDEST PUSH1 0x0 CALLDATALOAD PUSH1 0xE0 SHR DUP1 PUSH4 0x13CF08B EQ PUSH2 0x15EC JUMPI DUP1 PUSH4 0x1FFC9A7 EQ PUSH2 0x1596 JUMPI DUP1 PUSH4 0x19CFF706 EQ PUSH2 0x13C7 JUMPI DUP1 PUSH4 0x1F56D126 EQ PUSH2 0x138D JUMPI DUP1 PUSH4 0x2131C68C EQ PUSH2 0x1364 JUMPI DUP1 PUSH4 0x248A9CA3 EQ PUSH2 0x1335 JUMPI DUP1 PUSH4 0x2B72EE51 EQ PUSH2 0x1232 JUMPI DUP1 PUSH4 0x2F2FF15D EQ PUSH2 0x1133 JUMPI DUP1 PUSH4 0x36568ABE EQ PUSH2 0x10EC JUMPI DUP1 PUSH4 0x43859632 EQ PUSH2 0xFC9 JUMPI DUP1 PUSH4 0x488CBA40 EQ PUSH2 0x1058 JUMPI DUP1 PUSH4 0x5DAF08CA EQ PUSH2 0x1016 JUMPI DUP1 PUSH4 0x62D4F893 EQ PUSH2 0xFC9 JUMPI DUP1 PUSH4 0x7C0F6B35 EQ PUSH2 0xF01 JUMPI DUP1 PUSH4 0x91D14854 EQ PUSH2 0xEB4 JUMPI DUP1 PUSH4 0x997072F7 EQ PUSH2 0xE96 JUMPI DUP1 PUSH4 0x9A3CAC6A EQ PUSH2 0xE03 JUMPI DUP1 PUSH4 0xA10F469E EQ PUSH2 0xDDA JUMPI DUP1 PUSH4 0xA217FDDF EQ PUSH2 0xDBE JUMPI DUP1 PUSH4 0xA230C524 EQ PUSH2 0xD7F JUMPI DUP1 PUSH4 0xA462E50F EQ PUSH2 0xCD1 JUMPI DUP1 PUSH4 0xA9330B0E EQ PUSH2 0xC97 JUMPI DUP1 PUSH4 0xBA86F70A EQ PUSH2 0xBC5 JUMPI DUP1 PUSH4 0xC7F758A8 EQ PUSH2 0xB18 JUMPI DUP1 PUSH4 0xCBE94614 EQ PUSH2 0xAA6 JUMPI DUP1 PUSH4 0xCC9AA9EA EQ PUSH2 0x45A JUMPI DUP1 PUSH4 0xCCEB68F5 EQ PUSH2 0x34A JUMPI DUP1 PUSH4 0xD547741F EQ PUSH2 0x19B JUMPI PUSH4 0xE9C26518 EQ PUSH2 0x15B JUMPI PUSH1 0x0 DUP1 REVERT JUMPDEST CALLVALUE PUSH2 0x196 JUMPI PUSH1 0x0 CALLDATASIZE PUSH1 0x3 NOT ADD SLT PUSH2 0x196 JUMPI PUSH1 0x20 PUSH1 0x40 MLOAD PUSH32 0x3B5D4CC60D3EC3516EE8AE083BD60934F6EB2A6C54B1229985C41BFB092B2603 DUP2 MSTORE RETURN JUMPDEST PUSH1 0x0 DUP1 REVERT JUMPDEST CALLVALUE PUSH2 0x196 JUMPI PUSH1 0x40 CALLDATASIZE PUSH1 0x3 NOT ADD SLT PUSH2 0x196 JUMPI PUSH1 0x4 CALLDATALOAD PUSH2 0x1B7 PUSH2 0x18F3 JUMP JUMPDEST SWAP1 DUP1 PUSH1 0x0 MSTORE PUSH1 0x0 PUSH1 0x20 MSTORE PUSH1 0x0 DUP1 MLOAD PUSH1 0x20 PUSH2 0x1FB1 DUP4 CODECOPY DUP2 MLOAD SWAP2 MSTORE PUSH1 0x1 SWAP2 PUSH2 0x1E3 DUP4 PUSH1 0x40 PUSH1 0x0 KECCAK256 ADD SLOAD PUSH2 0x1BA6 JUMP JUMPDEST PUSH2 0x1ED DUP5 DUP3 PUSH2 0x1AB7 JUMP JUMPDEST POP EQ DUP1 PUSH2 0x328 JUMPI JUMPDEST PUSH2 0x1FB JUMPI STOP JUMPDEST PUSH1 0x1 PUSH1 0x1 PUSH1 0xA0 SHL SUB SWAP2 DUP3 AND PUSH1 0x0 DUP2 DUP2 MSTORE PUSH1 0x7 PUSH1 0x20 MSTORE PUSH1 0x40 DUP2 KECCAK256 DUP1 SLOAD PUSH1 0xFF NOT AND SWAP1 SSTORE SWAP1 SWAP3 SWAP1 DUP3 JUMPDEST PUSH2 0x23A JUMPI JUMPDEST POP POP POP PUSH1 0x0 SWAP1 DUP2 MSTORE PUSH1 0x3 PUSH1 0x20 MSTORE PUSH1 0x40 DUP2 KECCAK256 SSTORE STOP JUMPDEST PUSH1 0x6 DUP1 SLOAD DUP1 DUP4 LT ISZERO PUSH2 0x321 JUMPI DUP4 SWAP1 DUP7 PUSH2 0x252 DUP6 PUSH2 0x1909 JUMP JUMPDEST SWAP4 SWAP1 SLOAD PUSH1 0x3 SWAP5 DUP6 SHL SHR AND EQ PUSH2 0x273 JUMPI POP POP POP PUSH2 0x26D SWAP1 PUSH2 0x1CF2 JUMP JUMPDEST DUP3 PUSH2 0x221 JUMP JUMPDEST SWAP1 SWAP3 SWAP2 SWAP5 POP PUSH1 0x0 NOT SWAP4 DUP5 DUP3 ADD SWAP2 DUP3 GT PUSH2 0x30B JUMPI PUSH2 0x2C1 SWAP4 PUSH2 0x296 PUSH2 0x2A2 SWAP4 PUSH2 0x1909 JUMP JUMPDEST SWAP1 SLOAD SWAP2 SHL SHR AND SWAP2 PUSH2 0x1909 JUMP JUMPDEST SWAP1 SWAP2 SWAP1 DUP3 SLOAD SWAP1 PUSH1 0x3 SHL SWAP2 PUSH1 0x1 DUP1 PUSH1 0xA0 SHL SUB DUP1 SWAP2 AND DUP4 SHL SWAP3 SHL NOT AND OR SWAP1 SSTORE JUMP JUMPDEST DUP2 SLOAD DUP1 ISZERO PUSH2 0x2F5 JUMPI ADD SWAP1 PUSH2 0x2EC PUSH2 0x2D7 DUP4 PUSH2 0x1909 JUMP JUMPDEST DUP2 SLOAD SWAP1 PUSH1 0x1 DUP1 PUSH1 0xA0 SHL SUB SWAP1 PUSH1 0x3 SHL SHL NOT AND SWAP1 SSTORE JUMP JUMPDEST SSTORE DUP2 DUP1 DUP1 PUSH2 0x226 JUMP JUMPDEST PUSH4 0x4E487B71 PUSH1 0xE0 SHL PUSH1 0x0 MSTORE PUSH1 0x31 PUSH1 0x4 MSTORE PUSH1 0x24 PUSH1 0x0 REVERT JUMPDEST PUSH4 0x4E487B71 PUSH1 0xE0 SHL PUSH1 0x0 MSTORE PUSH1 0x11 PUSH1 0x4 MSTORE PUSH1 0x24 PUSH1 0x0 REVERT JUMPDEST POP POP PUSH2 0x226 JUMP JUMPDEST POP PUSH1 0x1 PUSH1 0x1 PUSH1 0xA0 SHL SUB DUP3 AND PUSH1 0x0 SWAP1 DUP2 MSTORE PUSH1 0x7 PUSH1 0x20 MSTORE PUSH1 0x40 SWAP1 KECCAK256 SLOAD PUSH1 0xFF AND PUSH2 0x1F5 JUMP JUMPDEST CALLVALUE PUSH2 0x196 JUMPI PUSH1 0x0 CALLDATASIZE PUSH1 0x3 NOT ADD SLT PUSH2 0x196 JUMPI PUSH1 0x1 DUP1 SLOAD PUSH8 0xFFFFFFFFFFFFFFFF DUP2 GT PUSH2 0x444 JUMPI SWAP1 PUSH1 0x40 MLOAD SWAP1 PUSH1 0x20 PUSH2 0x384 DUP2 DUP6 PUSH1 0x5 SHL ADD DUP5 PUSH2 0x17C8 JUMP JUMPDEST DUP4 DUP4 MSTORE DUP1 DUP4 ADD SWAP4 DUP5 DUP4 PUSH1 0x0 MSTORE PUSH32 0xB10E2D527612073B26EECDFD717E6A320CF44B4AFAC2B0732D9FCBE2B7FA0CF6 PUSH1 0x0 SWAP2 JUMPDEST DUP4 DUP4 LT PUSH2 0x41D JUMPI POP POP POP POP PUSH1 0x40 MLOAD SWAP3 DUP2 DUP5 ADD SWAP1 DUP3 DUP6 MSTORE MLOAD DUP1 SWAP2 MSTORE PUSH1 0x40 DUP5 ADD SWAP2 PUSH1 0x40 DUP3 PUSH1 0x5 SHL DUP7 ADD ADD SWAP6 SWAP3 PUSH1 0x0 SWAP1 JUMPDEST DUP4 DUP3 LT PUSH2 0x3F0 JUMPI DUP7 DUP9 SUB DUP8 RETURN JUMPDEST SWAP1 SWAP2 SWAP3 SWAP4 SWAP5 DUP4 DUP1 PUSH2 0x40C DUP4 SWAP11 PUSH1 0x3F NOT DUP12 DUP3 SUB ADD DUP7 MSTORE DUP10 MLOAD PUSH2 0x1940 JUMP JUMPDEST SWAP10 SWAP8 ADD SWAP6 SWAP5 SWAP4 SWAP2 SWAP1 SWAP2 ADD SWAP2 ADD PUSH2 0x3E3 JUMP JUMPDEST SWAP5 PUSH1 0xD DUP6 DUP3 SWAP10 SWAP8 PUSH2 0x430 DUP6 SWAP11 SWAP9 SWAP11 PUSH2 0x1ED5 JUMP JUMPDEST DUP2 MSTORE ADD SWAP3 ADD SWAP3 ADD SWAP2 SWAP1 SWAP7 SWAP5 SWAP7 SWAP6 SWAP4 SWAP6 PUSH2 0x3B5 JUMP JUMPDEST PUSH4 0x4E487B71 PUSH1 0xE0 SHL PUSH1 0x0 MSTORE PUSH1 0x41 PUSH1 0x4 MSTORE PUSH1 0x24 PUSH1 0x0 REVERT JUMPDEST CALLVALUE PUSH2 0x196 JUMPI PUSH1 0x3 NOT PUSH1 0x40 CALLDATASIZE DUP3 ADD SLT PUSH2 0x196 JUMPI PUSH8 0xFFFFFFFFFFFFFFFF PUSH1 0x4 CALLDATALOAD GT PUSH2 0x196 JUMPI PUSH2 0x120 PUSH1 0x4 CALLDATALOAD PUSH1 0x4 ADD SWAP2 PUSH1 0x4 CALLDATALOAD CALLDATASIZE SUB ADD SLT PUSH2 0x196 JUMPI PUSH2 0x49A PUSH2 0x18F3 JUMP JUMPDEST SWAP1 PUSH2 0x4A3 PUSH2 0x1B2C JUMP JUMPDEST PUSH2 0x4AD DUP2 DUP1 PUSH2 0x1E37 JUMP JUMPDEST SWAP2 SWAP1 PUSH2 0x4BE PUSH1 0x24 PUSH1 0x4 CALLDATALOAD ADD DUP4 PUSH2 0x1E37 JUMP JUMPDEST SWAP1 SWAP3 SWAP1 SWAP2 SWAP1 PUSH1 0x4 CALLDATALOAD PUSH1 0x64 ADD CALLDATALOAD SWAP1 PUSH1 0x1 PUSH1 0x1 PUSH1 0xA0 SHL SUB DUP3 AND DUP3 SUB PUSH2 0x196 JUMPI PUSH1 0x84 PUSH1 0x4 CALLDATALOAD ADD CALLDATALOAD SWAP1 DUP2 ISZERO ISZERO DUP3 SUB PUSH2 0x196 JUMPI PUSH2 0x4FC SWAP1 PUSH1 0xA4 PUSH1 0x4 CALLDATALOAD ADD SWAP1 PUSH2 0x1E37 JUMP JUMPDEST PUSH1 0x4 CALLDATALOAD PUSH2 0x104 ADD CALLDATALOAD SWAP7 SWAP2 SWAP5 SWAP1 SWAP4 SWAP2 PUSH1 0x1 PUSH1 0x1 PUSH1 0xA0 SHL SUB DUP9 AND DUP9 SUB PUSH2 0x196 JUMPI PUSH2 0x59D SWAP7 PUSH2 0x539 PUSH2 0x542 SWAP4 PUSH1 0x40 MLOAD SWAP12 PUSH2 0x532 DUP14 PUSH2 0x17AB JUMP JUMPDEST CALLDATASIZE SWAP2 PUSH2 0x1E6A JUMP JUMPDEST DUP11 MSTORE CALLDATASIZE SWAP2 PUSH2 0x1E6A JUMP JUMPDEST PUSH1 0x20 DUP9 ADD MSTORE PUSH1 0x4 CALLDATALOAD PUSH1 0x44 ADD CALLDATALOAD PUSH1 0x40 DUP9 ADD MSTORE PUSH1 0x1 PUSH1 0x1 PUSH1 0xA0 SHL SUB SWAP1 DUP2 AND PUSH1 0x60 DUP9 ADD MSTORE PUSH1 0x0 PUSH1 0x80 DUP9 ADD DUP2 SWAP1 MSTORE PUSH1 0xA0 DUP9 ADD DUP2 SWAP1 MSTORE PUSH1 0xC0 DUP9 ADD DUP2 SWAP1 MSTORE PUSH1 0xE0 DUP9 ADD MSTORE TIMESTAMP PUSH2 0x100 DUP9 ADD MSTORE DUP8 AND PUSH2 0x120 DUP8 ADD MSTORE ISZERO ISZERO PUSH2 0x140 DUP7 ADD MSTORE CALLDATASIZE SWAP2 PUSH2 0x1E6A JUMP JUMPDEST PUSH2 0x160 DUP4 ADD MSTORE PUSH1 0x4 CALLDATALOAD PUSH1 0xC4 DUP2 ADD CALLDATALOAD PUSH2 0x180 DUP5 ADD MSTORE PUSH1 0xE4 ADD CALLDATALOAD PUSH2 0x1A0 DUP4 ADD MSTORE PUSH1 0x1 PUSH1 0x1 PUSH1 0xA0 SHL SUB AND PUSH2 0x1C0 DUP3 ADD MSTORE PUSH1 0x1 SLOAD PUSH1 0x1 PUSH1 0x40 SHL DUP2 LT ISZERO PUSH2 0x444 JUMPI DUP1 PUSH1 0x1 PUSH2 0x5E9 SWAP3 ADD PUSH1 0x1 SSTORE PUSH2 0x1720 JUMP JUMPDEST PUSH2 0xA90 JUMPI DUP2 MLOAD SWAP3 DUP4 MLOAD PUSH8 0xFFFFFFFFFFFFFFFF DUP2 GT PUSH2 0x444 JUMPI PUSH2 0x60B DUP4 SLOAD PUSH2 0x1771 JUMP JUMPDEST PUSH1 0x1F DUP2 GT PUSH2 0xA4C JUMPI JUMPDEST POP PUSH1 0x20 PUSH1 0x1F DUP3 GT PUSH1 0x1 EQ PUSH2 0x9E3 JUMPI DUP2 SWAP3 SWAP4 SWAP5 SWAP6 PUSH1 0x0 SWAP3 PUSH2 0x9D8 JUMPI JUMPDEST POP POP DUP2 PUSH1 0x1 SHL SWAP2 PUSH1 0x0 NOT SWAP1 PUSH1 0x3 SHL SHR NOT AND OR DUP3 SSTORE JUMPDEST PUSH1 0x20 DUP4 ADD MLOAD SWAP3 DUP4 MLOAD PUSH8 0xFFFFFFFFFFFFFFFF DUP2 GT PUSH2 0x444 JUMPI PUSH2 0x668 PUSH1 0x1 DUP6 ADD SLOAD PUSH2 0x1771 JUMP JUMPDEST PUSH1 0x1F DUP2 GT PUSH2 0x991 JUMPI JUMPDEST POP PUSH1 0x20 PUSH1 0x1F DUP3 GT PUSH1 0x1 EQ PUSH2 0x922 JUMPI DUP2 SWAP3 SWAP4 SWAP5 SWAP6 PUSH1 0x0 SWAP3 PUSH2 0x917 JUMPI JUMPDEST POP POP DUP2 PUSH1 0x1 SHL SWAP2 PUSH1 0x0 NOT SWAP1 PUSH1 0x3 SHL SHR NOT AND OR PUSH1 0x1 DUP5 ADD SSTORE JUMPDEST PUSH1 0x40 DUP2 ADD MLOAD PUSH1 0x2 DUP5 ADD SSTORE PUSH1 0x60 DUP2 ADD MLOAD PUSH1 0x3 DUP5 ADD DUP1 SLOAD PUSH1 0x1 PUSH1 0x1 PUSH1 0xA0 SHL SUB NOT AND PUSH1 0x1 PUSH1 0x1 PUSH1 0xA0 SHL SUB SWAP3 SWAP1 SWAP3 AND SWAP2 SWAP1 SWAP2 OR SWAP1 SSTORE PUSH1 0x80 DUP2 ADD MLOAD PUSH1 0x4 DUP2 LT ISZERO PUSH2 0x901 JUMPI PUSH2 0x6F0 SWAP1 PUSH1 0x3 DUP6 ADD PUSH2 0x1EB1 JUMP JUMPDEST PUSH1 0xA0 DUP2 ADD MLOAD PUSH1 0x4 DUP5 ADD SSTORE PUSH1 0xC0 DUP2 ADD MLOAD PUSH1 0x5 DUP5 ADD SSTORE PUSH1 0xE0 DUP2 ADD MLOAD PUSH1 0x6 DUP5 ADD SSTORE PUSH2 0x100 DUP2 ADD MLOAD PUSH1 0x7 DUP5 ADD SSTORE PUSH1 0x8 DUP4 ADD PUSH1 0x1 DUP1 PUSH1 0xA0 SHL SUB PUSH2 0x120 DUP4 ADD MLOAD AND DUP2 SLOAD SWAP1 PUSH1 0xFF PUSH1 0xA0 SHL PUSH2 0x140 DUP6 ADD MLOAD ISZERO ISZERO PUSH1 0xA0 SHL AND SWAP2 PUSH11 0xFFFFFFFFFFFFFFFFFFFFFF PUSH1 0xA8 SHL AND OR OR SWAP1 SSTORE PUSH2 0x160 DUP2 ADD MLOAD SWAP3 DUP4 MLOAD PUSH8 0xFFFFFFFFFFFFFFFF DUP2 GT PUSH2 0x444 JUMPI PUSH2 0x779 PUSH1 0x9 DUP4 ADD SLOAD PUSH2 0x1771 JUMP JUMPDEST PUSH1 0x1F DUP2 GT PUSH2 0x8BA JUMPI JUMPDEST POP PUSH1 0x20 PUSH1 0x1F DUP3 GT PUSH1 0x1 EQ PUSH2 0x849 JUMPI DUP2 SWAP1 PUSH1 0xC SWAP5 SWAP6 SWAP7 PUSH1 0x0 SWAP3 PUSH2 0x83E JUMPI JUMPDEST POP POP DUP2 PUSH1 0x1 SHL SWAP2 PUSH1 0x0 NOT SWAP1 PUSH1 0x3 SHL SHR NOT AND OR PUSH1 0x9 DUP3 ADD SSTORE JUMPDEST PUSH2 0x180 DUP4 ADD MLOAD PUSH1 0xA DUP3 ADD SSTORE PUSH2 0x1A0 DUP4 ADD MLOAD PUSH1 0xB DUP3 ADD SSTORE ADD SWAP1 PUSH2 0x1C0 PUSH1 0x1 DUP1 PUSH1 0xA0 SHL SUB SWAP2 ADD MLOAD AND PUSH12 0xFFFFFFFFFFFFFFFFFFFFFFFF PUSH1 0xA0 SHL DUP3 SLOAD AND OR SWAP1 SSTORE PUSH1 0x1 SLOAD SWAP1 PUSH1 0x0 NOT DUP3 ADD SWAP2 DUP3 GT PUSH2 0x30B JUMPI PUSH1 0x40 MLOAD PUSH1 0x20 SWAP3 SWAP1 SWAP2 PUSH1 0x1 PUSH1 0x1 PUSH1 0xA0 SHL SUB AND DUP2 PUSH32 0xCD423CC1203C0AF96B9B3D68D73B3064A69DE2D14450BB7181C5E5DF2132B358 PUSH1 0x0 DUP1 LOG3 DUP2 MSTORE RETURN JUMPDEST ADD MLOAD SWAP1 POP DUP7 DUP1 PUSH2 0x79F JUMP JUMPDEST PUSH1 0x1F NOT DUP3 AND SWAP6 PUSH1 0x9 DUP5 ADD PUSH1 0x0 MSTORE PUSH1 0x20 PUSH1 0x0 KECCAK256 SWAP7 PUSH1 0x0 JUMPDEST DUP2 DUP2 LT PUSH2 0x8A2 JUMPI POP SWAP2 PUSH1 0xC SWAP6 SWAP7 SWAP8 SWAP2 DUP5 PUSH1 0x1 SWAP6 SWAP5 LT PUSH2 0x889 JUMPI JUMPDEST POP POP POP DUP2 SHL ADD PUSH1 0x9 DUP3 ADD SSTORE PUSH2 0x7B7 JUMP JUMPDEST ADD MLOAD PUSH1 0x0 NOT PUSH1 0xF8 DUP5 PUSH1 0x3 SHL AND SHR NOT AND SWAP1 SSTORE DUP7 DUP1 DUP1 PUSH2 0x879 JUMP JUMPDEST DUP4 DUP4 ADD MLOAD DUP10 SSTORE PUSH1 0x1 SWAP1 SWAP9 ADD SWAP8 PUSH1 0x20 SWAP4 DUP5 ADD SWAP4 ADD PUSH2 0x85F JUMP JUMPDEST PUSH1 0x9 DUP4 ADD PUSH1 0x0 MSTORE PUSH1 0x20 PUSH1 0x0 KECCAK256 PUSH1 0x1F DUP4 ADD PUSH1 0x5 SHR DUP2 ADD PUSH1 0x20 DUP5 LT PUSH2 0x8FA JUMPI JUMPDEST PUSH1 0x1F DUP4 ADD PUSH1 0x5 SHR DUP3 ADD DUP2 LT PUSH2 0x8EE JUMPI POP POP PUSH2 0x782 JUMP JUMPDEST PUSH1 0x0 DUP2 SSTORE PUSH1 0x1 ADD PUSH2 0x8D8 JUMP JUMPDEST POP DUP1 PUSH2 0x8D8 JUMP JUMPDEST PUSH4 0x4E487B71 PUSH1 0xE0 SHL PUSH1 0x0 MSTORE PUSH1 0x21 PUSH1 0x4 MSTORE PUSH1 0x24 PUSH1 0x0 REVERT JUMPDEST ADD MLOAD SWAP1 POP DUP6 DUP1 PUSH2 0x68C JUMP JUMPDEST PUSH1 0x1 DUP6 ADD PUSH1 0x0 MSTORE PUSH1 0x20 PUSH1 0x0 KECCAK256 SWAP1 PUSH1 0x0 JUMPDEST PUSH1 0x1F NOT DUP5 AND DUP2 LT PUSH2 0x979 JUMPI POP PUSH1 0x1 SWAP4 SWAP5 SWAP6 SWAP7 DUP4 PUSH1 0x1F NOT DUP2 AND LT PUSH2 0x960 JUMPI JUMPDEST POP POP POP DUP2 SHL ADD PUSH1 0x1 DUP5 ADD SSTORE PUSH2 0x6A4 JUMP JUMPDEST ADD MLOAD PUSH1 0x0 NOT PUSH1 0xF8 DUP5 PUSH1 0x3 SHL AND SHR NOT AND SWAP1 SSTORE DUP6 DUP1 DUP1 PUSH2 0x950 JUMP JUMPDEST SWAP1 SWAP2 PUSH1 0x20 PUSH1 0x1 DUP2 SWAP3 DUP6 DUP12 ADD MLOAD DUP2 SSTORE ADD SWAP4 ADD SWAP2 ADD PUSH2 0x932 JUMP JUMPDEST PUSH1 0x1 DUP6 ADD PUSH1 0x0 MSTORE PUSH1 0x20 PUSH1 0x0 KECCAK256 PUSH1 0x1F DUP4 ADD PUSH1 0x5 SHR DUP2 ADD PUSH1 0x20 DUP5 LT PUSH2 0x9D1 JUMPI JUMPDEST PUSH1 0x1F DUP4 ADD PUSH1 0x5 SHR DUP3 ADD DUP2 LT PUSH2 0x9C5 JUMPI POP POP PUSH2 0x671 JUMP JUMPDEST PUSH1 0x0 DUP2 SSTORE PUSH1 0x1 ADD PUSH2 0x9AF JUMP JUMPDEST POP DUP1 PUSH2 0x9AF JUMP JUMPDEST ADD MLOAD SWAP1 POP DUP6 DUP1 PUSH2 0x62F JUMP JUMPDEST DUP4 PUSH1 0x0 MSTORE PUSH1 0x20 PUSH1 0x0 KECCAK256 SWAP1 PUSH1 0x0 JUMPDEST PUSH1 0x1F NOT DUP5 AND DUP2 LT PUSH2 0xA34 JUMPI POP PUSH1 0x1 SWAP4 SWAP5 SWAP6 SWAP7 DUP4 PUSH1 0x1F NOT DUP2 AND LT PUSH2 0xA1B JUMPI JUMPDEST POP POP POP DUP2 SHL ADD DUP3 SSTORE PUSH2 0x644 JUMP JUMPDEST ADD MLOAD PUSH1 0x0 NOT PUSH1 0xF8 DUP5 PUSH1 0x3 SHL AND SHR NOT AND SWAP1 SSTORE DUP6 DUP1 DUP1 PUSH2 0xA0E JUMP JUMPDEST SWAP1 SWAP2 PUSH1 0x20 PUSH1 0x1 DUP2 SWAP3 DUP6 DUP12 ADD MLOAD DUP2 SSTORE ADD SWAP4 ADD SWAP2 ADD PUSH2 0x9F0 JUMP JUMPDEST DUP4 PUSH1 0x0 MSTORE PUSH1 0x20 PUSH1 0x0 KECCAK256 PUSH1 0x1F DUP4 ADD PUSH1 0x5 SHR DUP2 ADD PUSH1 0x20 DUP5 LT PUSH2 0xA89 JUMPI JUMPDEST PUSH1 0x1F DUP4 ADD PUSH1 0x5 SHR DUP3 ADD DUP2 LT PUSH2 0xA7D JUMPI POP POP PUSH2 0x614 JUMP JUMPDEST PUSH1 0x0 DUP2 SSTORE PUSH1 0x1 ADD PUSH2 0xA67 JUMP JUMPDEST POP DUP1 PUSH2 0xA67 JUMP JUMPDEST PUSH4 0x4E487B71 PUSH1 0xE0 SHL PUSH1 0x0 MSTORE PUSH1 0x0 PUSH1 0x4 MSTORE PUSH1 0x24 PUSH1 0x0 REVERT JUMPDEST CALLVALUE PUSH2 0x196 JUMPI PUSH1 0x40 CALLDATASIZE PUSH1 0x3 NOT ADD SLT PUSH2 0x196 JUMPI PUSH1 0x4 CALLDATALOAD PUSH1 0x24 CALLDATALOAD PUSH1 0x4 DUP2 LT ISZERO PUSH2 0x196 JUMPI PUSH1 0x20 PUSH32 0x3346ABF262AC5179E9052765FB72484E0BAAB1F356F08442BB7A3054147631DE SWAP2 PUSH2 0xAF2 PUSH2 0x1B2C JUMP JUMPDEST PUSH2 0xB08 DUP2 PUSH1 0x3 PUSH2 0xB01 DUP8 PUSH2 0x1720 JUMP JUMPDEST POP ADD PUSH2 0x1EB1 JUMP JUMPDEST PUSH2 0xB15 PUSH1 0x40 MLOAD DUP1 SWAP3 PUSH2 0x18D0 JUMP JUMPDEST LOG2 STOP JUMPDEST CALLVALUE PUSH2 0x196 JUMPI PUSH1 0x20 CALLDATASIZE PUSH1 0x3 NOT ADD SLT PUSH2 0x196 JUMPI PUSH1 0x0 PUSH2 0x1C0 PUSH1 0x40 MLOAD PUSH2 0xB3A DUP2 PUSH2 0x17AB JUMP JUMPDEST PUSH1 0x60 DUP2 MSTORE PUSH1 0x60 PUSH1 0x20 DUP3 ADD MSTORE DUP3 PUSH1 0x40 DUP3 ADD MSTORE DUP3 PUSH1 0x60 DUP3 ADD MSTORE DUP3 PUSH1 0x80 DUP3 ADD MSTORE DUP3 PUSH1 0xA0 DUP3 ADD MSTORE DUP3 PUSH1 0xC0 DUP3 ADD MSTORE DUP3 PUSH1 0xE0 DUP3 ADD MSTORE DUP3 PUSH2 0x100 DUP3 ADD MSTORE DUP3 PUSH2 0x120 DUP3 ADD MSTORE DUP3 PUSH2 0x140 DUP3 ADD MSTORE PUSH1 0x60 PUSH2 0x160 DUP3 ADD MSTORE DUP3 PUSH2 0x180 DUP3 ADD MSTORE DUP3 PUSH2 0x1A0 DUP3 ADD MSTORE ADD MSTORE PUSH2 0xBC1 PUSH2 0xBAD PUSH2 0xBA7 PUSH1 0x4 CALLDATALOAD PUSH2 0x1720 JUMP JUMPDEST POP PUSH2 0x1ED5 JUMP JUMPDEST PUSH1 0x40 MLOAD SWAP2 DUP3 SWAP2 PUSH1 0x20 DUP4 MSTORE PUSH1 0x20 DUP4 ADD SWAP1 PUSH2 0x1940 JUMP JUMPDEST SUB SWAP1 RETURN JUMPDEST CALLVALUE PUSH2 0x196 JUMPI PUSH1 0x20 DUP1 PUSH1 0x3 NOT CALLDATASIZE ADD SLT PUSH2 0x196 JUMPI PUSH2 0xBDF PUSH2 0x18DD JUMP JUMPDEST SWAP1 PUSH2 0xBE8 PUSH2 0x1B2C JUMP JUMPDEST PUSH1 0x1 PUSH1 0x1 PUSH1 0xA0 SHL SUB DUP3 DUP2 AND PUSH1 0x0 DUP2 DUP2 MSTORE PUSH1 0x3 DUP5 MSTORE PUSH1 0x40 SWAP1 KECCAK256 DUP1 SLOAD PUSH1 0x1 DUP2 ADD SWAP2 SWAP1 DUP3 LT PUSH2 0x30B JUMPI SSTORE PUSH1 0x0 MSTORE PUSH1 0x3 DUP3 MSTORE PUSH1 0x4 DUP3 PUSH1 0x40 PUSH1 0x0 KECCAK256 SLOAD SWAP3 PUSH1 0x5 SLOAD AND PUSH1 0x40 MLOAD SWAP3 DUP4 DUP1 SWAP3 PUSH4 0x9F1F43AF PUSH1 0xE0 SHL DUP3 MSTORE GAS STATICCALL SWAP3 DUP4 ISZERO PUSH2 0xC8B JUMPI PUSH1 0x0 SWAP4 PUSH2 0xC5B JUMPI JUMPDEST POP POP LT ISZERO PUSH2 0xC50 JUMPI STOP JUMPDEST PUSH2 0xC59 SWAP1 PUSH2 0x1D01 JUMP JUMPDEST STOP JUMPDEST SWAP1 DUP1 SWAP3 SWAP4 POP DUP2 RETURNDATASIZE DUP4 GT PUSH2 0xC84 JUMPI JUMPDEST PUSH2 0xC73 DUP2 DUP4 PUSH2 0x17C8 JUMP JUMPDEST DUP2 ADD SUB SLT PUSH2 0x196 JUMPI MLOAD SWAP1 DUP4 DUP1 PUSH2 0xC46 JUMP JUMPDEST POP RETURNDATASIZE PUSH2 0xC69 JUMP JUMPDEST PUSH1 0x40 MLOAD RETURNDATASIZE PUSH1 0x0 DUP3 RETURNDATACOPY RETURNDATASIZE SWAP1 REVERT JUMPDEST CALLVALUE PUSH2 0x196 JUMPI PUSH1 0x20 CALLDATASIZE PUSH1 0x3 NOT ADD SLT PUSH2 0x196 JUMPI PUSH1 0x1 PUSH1 0x1 PUSH1 0xA0 SHL SUB PUSH2 0xCB8 PUSH2 0x18DD JUMP JUMPDEST AND PUSH1 0x0 MSTORE PUSH1 0x3 PUSH1 0x20 MSTORE PUSH1 0x20 PUSH1 0x40 PUSH1 0x0 KECCAK256 SLOAD PUSH1 0x40 MLOAD SWAP1 DUP2 MSTORE RETURN JUMPDEST CALLVALUE PUSH2 0x196 JUMPI PUSH1 0x40 CALLDATASIZE PUSH1 0x3 NOT ADD SLT PUSH2 0x196 JUMPI PUSH1 0x4 CALLDATALOAD PUSH2 0xCED PUSH2 0x18F3 JUMP JUMPDEST SWAP1 PUSH2 0xCF6 PUSH2 0x1B2C JUMP JUMPDEST PUSH2 0xCFF DUP2 PUSH2 0x1720 JUMP JUMPDEST POP DUP2 PUSH1 0x0 MSTORE PUSH1 0x2 PUSH1 0x20 MSTORE PUSH1 0x40 PUSH1 0x0 KECCAK256 SWAP3 PUSH1 0x1 DUP1 PUSH1 0xA0 SHL SUB AND SWAP3 DUP4 PUSH1 0x0 MSTORE PUSH1 0x20 MSTORE PUSH1 0xFF PUSH1 0x40 PUSH1 0x0 KECCAK256 SLOAD AND ISZERO PUSH2 0xD2F JUMPI STOP JUMPDEST PUSH1 0x6 SWAP1 DUP3 PUSH1 0x0 MSTORE PUSH1 0x2 PUSH1 0x20 MSTORE PUSH1 0x40 PUSH1 0x0 KECCAK256 DUP5 PUSH1 0x0 MSTORE PUSH1 0x20 MSTORE PUSH1 0x40 PUSH1 0x0 KECCAK256 PUSH1 0x1 PUSH1 0xFF NOT DUP3 SLOAD AND OR SWAP1 SSTORE ADD PUSH2 0xD62 DUP2 SLOAD PUSH2 0x1CF2 JUMP JUMPDEST SWAP1 SSTORE PUSH1 0x0 DUP1 MLOAD PUSH1 0x20 PUSH2 0x1FD1 DUP4 CODECOPY DUP2 MLOAD SWAP2 MSTORE PUSH1 0x20 PUSH1 0x40 MLOAD PUSH1 0x2 DUP2 MSTORE LOG3 STOP JUMPDEST CALLVALUE PUSH2 0x196 JUMPI PUSH1 0x20 CALLDATASIZE PUSH1 0x3 NOT ADD SLT PUSH2 0x196 JUMPI PUSH1 0x1 PUSH1 0x1 PUSH1 0xA0 SHL SUB PUSH2 0xDA0 PUSH2 0x18DD JUMP JUMPDEST AND PUSH1 0x0 MSTORE PUSH1 0x7 PUSH1 0x20 MSTORE PUSH1 0x20 PUSH1 0xFF PUSH1 0x40 PUSH1 0x0 KECCAK256 SLOAD AND PUSH1 0x40 MLOAD SWAP1 ISZERO ISZERO DUP2 MSTORE RETURN JUMPDEST CALLVALUE PUSH2 0x196 JUMPI PUSH1 0x0 CALLDATASIZE PUSH1 0x3 NOT ADD SLT PUSH2 0x196 JUMPI PUSH1 0x20 PUSH1 0x40 MLOAD PUSH1 0x0 DUP2 MSTORE RETURN JUMPDEST CALLVALUE PUSH2 0x196 JUMPI PUSH1 0x0 CALLDATASIZE PUSH1 0x3 NOT ADD SLT PUSH2 0x196 JUMPI PUSH1 0x20 PUSH1 0x40 MLOAD PUSH1 0x0 DUP1 MLOAD PUSH1 0x20 PUSH2 0x1FB1 DUP4 CODECOPY DUP2 MLOAD SWAP2 MSTORE DUP2 MSTORE RETURN JUMPDEST CALLVALUE PUSH2 0x196 JUMPI PUSH1 0x20 CALLDATASIZE PUSH1 0x3 NOT ADD SLT PUSH2 0x196 JUMPI PUSH2 0xE1C PUSH2 0x18DD JUMP JUMPDEST CALLER PUSH1 0x0 SWAP1 DUP2 MSTORE PUSH32 0xAD3228B676F7D3CD4284A5443F17F1962B36E491B30A40B2405849E597BA5FB5 PUSH1 0x20 MSTORE PUSH1 0x40 SWAP1 KECCAK256 SLOAD PUSH1 0xFF AND ISZERO PUSH2 0xE77 JUMPI PUSH1 0x5 DUP1 SLOAD PUSH1 0x1 PUSH1 0x1 PUSH1 0xA0 SHL SUB NOT AND PUSH1 0x1 PUSH1 0x1 PUSH1 0xA0 SHL SUB DUP4 AND OR SWAP1 SSTORE PUSH2 0xC59 SWAP1 PUSH2 0x1BCC JUMP JUMPDEST PUSH1 0x40 MLOAD PUSH4 0xE2517D3F PUSH1 0xE0 SHL DUP2 MSTORE CALLER PUSH1 0x4 DUP3 ADD MSTORE PUSH1 0x0 PUSH1 0x24 DUP3 ADD MSTORE PUSH1 0x44 SWAP1 REVERT JUMPDEST CALLVALUE PUSH2 0x196 JUMPI PUSH1 0x0 CALLDATASIZE PUSH1 0x3 NOT ADD SLT PUSH2 0x196 JUMPI PUSH1 0x20 PUSH1 0x6 SLOAD PUSH1 0x40 MLOAD SWAP1 DUP2 MSTORE RETURN JUMPDEST CALLVALUE PUSH2 0x196 JUMPI PUSH1 0x40 CALLDATASIZE PUSH1 0x3 NOT ADD SLT PUSH2 0x196 JUMPI PUSH2 0xECD PUSH2 0x18F3 JUMP JUMPDEST PUSH1 0x4 CALLDATALOAD PUSH1 0x0 MSTORE PUSH1 0x0 PUSH1 0x20 MSTORE PUSH1 0x40 PUSH1 0x0 KECCAK256 SWAP1 PUSH1 0x1 DUP1 PUSH1 0xA0 SHL SUB AND PUSH1 0x0 MSTORE PUSH1 0x20 MSTORE PUSH1 0x20 PUSH1 0xFF PUSH1 0x40 PUSH1 0x0 KECCAK256 SLOAD AND PUSH1 0x40 MLOAD SWAP1 ISZERO ISZERO DUP2 MSTORE RETURN JUMPDEST CALLVALUE PUSH2 0x196 JUMPI PUSH1 0x0 CALLDATASIZE PUSH1 0x3 NOT ADD SLT PUSH2 0x196 JUMPI PUSH1 0x40 MLOAD DUP1 PUSH1 0x6 SLOAD DUP1 DUP4 MSTORE PUSH1 0x20 DUP1 SWAP4 ADD DUP1 SWAP2 PUSH1 0x6 PUSH1 0x0 MSTORE PUSH32 0xF652222313E28459528D920B65115C16C04F3EFC82AAEDC97BE59F3F377C0D3F SWAP1 PUSH1 0x0 JUMPDEST DUP7 DUP3 DUP3 LT PUSH2 0xFAC JUMPI DUP7 DUP7 PUSH2 0xF63 DUP3 DUP9 SUB DUP4 PUSH2 0x17C8 JUMP JUMPDEST PUSH1 0x40 MLOAD SWAP3 DUP4 SWAP3 DUP2 DUP5 ADD SWAP1 DUP3 DUP6 MSTORE MLOAD DUP1 SWAP2 MSTORE PUSH1 0x40 DUP5 ADD SWAP3 SWAP2 PUSH1 0x0 JUMPDEST DUP3 DUP2 LT PUSH2 0xF8C JUMPI POP POP POP POP SUB SWAP1 RETURN JUMPDEST DUP4 MLOAD PUSH1 0x1 PUSH1 0x1 PUSH1 0xA0 SHL SUB AND DUP6 MSTORE DUP7 SWAP6 POP SWAP4 DUP2 ADD SWAP4 SWAP3 DUP2 ADD SWAP3 PUSH1 0x1 ADD PUSH2 0xF7D JUMP JUMPDEST DUP4 SLOAD PUSH1 0x1 PUSH1 0x1 PUSH1 0xA0 SHL SUB AND DUP6 MSTORE SWAP1 SWAP4 ADD SWAP3 PUSH1 0x1 SWAP3 DUP4 ADD SWAP3 ADD PUSH2 0xF4D JUMP JUMPDEST CALLVALUE PUSH2 0x196 JUMPI PUSH1 0x40 CALLDATASIZE PUSH1 0x3 NOT ADD SLT PUSH2 0x196 JUMPI PUSH2 0xFE2 PUSH2 0x18F3 JUMP JUMPDEST PUSH1 0x4 CALLDATALOAD PUSH1 0x0 MSTORE PUSH1 0x2 PUSH1 0x20 MSTORE PUSH1 0x40 PUSH1 0x0 KECCAK256 SWAP1 PUSH1 0x1 DUP1 PUSH1 0xA0 SHL SUB AND PUSH1 0x0 MSTORE PUSH1 0x20 MSTORE PUSH1 0x20 PUSH1 0xFF PUSH1 0x40 PUSH1 0x0 KECCAK256 SLOAD AND PUSH1 0x40 MLOAD SWAP1 ISZERO ISZERO DUP2 MSTORE RETURN JUMPDEST CALLVALUE PUSH2 0x196 JUMPI PUSH1 0x20 CALLDATASIZE PUSH1 0x3 NOT ADD SLT PUSH2 0x196 JUMPI PUSH1 0x4 CALLDATALOAD PUSH1 0x6 SLOAD DUP2 LT ISZERO PUSH2 0x196 JUMPI PUSH2 0x103F PUSH1 0x20 SWAP2 PUSH2 0x1909 JUMP JUMPDEST SWAP1 SLOAD PUSH1 0x40 MLOAD PUSH1 0x3 SWAP3 SWAP1 SWAP3 SHL SHR PUSH1 0x1 PUSH1 0x1 PUSH1 0xA0 SHL SUB AND DUP2 MSTORE RETURN JUMPDEST CALLVALUE PUSH2 0x196 JUMPI PUSH1 0x40 CALLDATASIZE PUSH1 0x3 NOT ADD SLT PUSH2 0x196 JUMPI PUSH2 0x1071 PUSH2 0x18DD JUMP JUMPDEST PUSH2 0x1079 PUSH2 0x1B2C JUMP JUMPDEST PUSH1 0x1 PUSH1 0x1 PUSH1 0xA0 SHL SUB AND PUSH1 0x0 DUP2 DUP2 MSTORE PUSH1 0x4 PUSH1 0x20 MSTORE PUSH1 0x40 SWAP1 KECCAK256 SLOAD PUSH1 0x24 CALLDATALOAD DUP2 ADD SWAP1 DUP2 LT PUSH2 0x30B JUMPI PUSH1 0x20 PUSH32 0xDB51946147AF8F68F24B69CDB99D868CC4B53B75DCE4E05D8F590BCF5281051C SWAP2 PUSH1 0x64 DUP2 GT PUSH1 0x0 EQ PUSH2 0x10E6 JUMPI PUSH1 0x64 JUMPDEST DUP5 PUSH1 0x0 MSTORE PUSH1 0x4 DUP4 MSTORE PUSH1 0x40 PUSH1 0x0 KECCAK256 SSTORE PUSH1 0x40 MLOAD SWAP1 DUP2 MSTORE LOG2 STOP JUMPDEST DUP1 PUSH2 0x10CF JUMP JUMPDEST CALLVALUE PUSH2 0x196 JUMPI PUSH1 0x40 CALLDATASIZE PUSH1 0x3 NOT ADD SLT PUSH2 0x196 JUMPI PUSH2 0x1105 PUSH2 0x18F3 JUMP JUMPDEST CALLER PUSH1 0x1 PUSH1 0x1 PUSH1 0xA0 SHL SUB DUP3 AND SUB PUSH2 0x1121 JUMPI PUSH2 0xC59 SWAP1 PUSH1 0x4 CALLDATALOAD PUSH2 0x1AB7 JUMP JUMPDEST PUSH1 0x40 MLOAD PUSH4 0x334BD919 PUSH1 0xE1 SHL DUP2 MSTORE PUSH1 0x4 SWAP1 REVERT JUMPDEST CALLVALUE PUSH2 0x196 JUMPI PUSH1 0x40 CALLDATASIZE PUSH1 0x3 NOT ADD SLT PUSH2 0x196 JUMPI PUSH1 0x4 CALLDATALOAD PUSH1 0x0 DUP1 MLOAD PUSH1 0x20 PUSH2 0x1FB1 DUP4 CODECOPY DUP2 MLOAD SWAP2 MSTORE PUSH2 0x115E PUSH2 0x18F3 JUMP JUMPDEST SWAP2 DUP1 PUSH1 0x0 MSTORE PUSH1 0x0 PUSH1 0x20 MSTORE PUSH2 0x1179 PUSH1 0x1 PUSH1 0x40 PUSH1 0x0 KECCAK256 ADD SLOAD PUSH2 0x1BA6 JUMP JUMPDEST PUSH2 0x1183 DUP4 DUP3 PUSH2 0x1C79 JUMP JUMPDEST POP EQ DUP1 PUSH2 0x120F JUMPI JUMPDEST PUSH2 0x1191 JUMPI STOP JUMPDEST PUSH1 0x6 SLOAD PUSH1 0x1 PUSH1 0x40 SHL DUP2 LT ISZERO PUSH2 0x444 JUMPI DUP2 PUSH2 0x2A2 DUP3 PUSH1 0x1 PUSH2 0x11B4 SWAP5 ADD PUSH1 0x6 SSTORE PUSH2 0x1909 JUMP JUMPDEST PUSH1 0x1 DUP1 PUSH1 0xA0 SHL SUB AND DUP1 PUSH1 0x0 MSTORE PUSH1 0x7 PUSH1 0x20 MSTORE PUSH1 0x40 PUSH1 0x0 KECCAK256 PUSH1 0x1 PUSH1 0xFF NOT DUP3 SLOAD AND OR SWAP1 SSTORE PUSH1 0x4 PUSH1 0x20 MSTORE PUSH1 0x32 PUSH1 0x40 PUSH1 0x0 KECCAK256 SSTORE PUSH32 0xDB51946147AF8F68F24B69CDB99D868CC4B53B75DCE4E05D8F590BCF5281051C PUSH1 0x20 PUSH1 0x40 MLOAD PUSH1 0x32 DUP2 MSTORE LOG2 STOP JUMPDEST POP PUSH1 0x1 PUSH1 0x1 PUSH1 0xA0 SHL SUB DUP2 AND PUSH1 0x0 SWAP1 DUP2 MSTORE PUSH1 0x7 PUSH1 0x20 MSTORE PUSH1 0x40 SWAP1 KECCAK256 SLOAD PUSH1 0xFF AND ISZERO PUSH2 0x118B JUMP JUMPDEST CALLVALUE PUSH2 0x196 JUMPI PUSH1 0x40 CALLDATASIZE PUSH1 0x3 NOT ADD SLT PUSH2 0x196 JUMPI PUSH2 0x124B PUSH2 0x18DD JUMP JUMPDEST PUSH1 0x24 CALLDATALOAD PUSH2 0x1256 PUSH2 0x1B2C JUMP JUMPDEST PUSH1 0x1 PUSH1 0x1 PUSH1 0xA0 SHL SUB DUP3 DUP2 AND PUSH1 0x0 DUP2 DUP2 MSTORE PUSH1 0x4 PUSH1 0x20 SWAP1 DUP2 MSTORE PUSH1 0x40 SWAP1 SWAP2 KECCAK256 SLOAD SWAP1 SWAP4 SWAP2 SWAP3 SWAP2 DUP5 DUP2 DUP4 LT PUSH2 0x1327 JUMPI POP DUP2 SUB SWAP1 DUP2 GT PUSH2 0x30B JUMPI PUSH1 0x4 SWAP2 DUP5 SWAP2 SWAP4 JUMPDEST DUP1 PUSH1 0x0 MSTORE DUP4 DUP4 MSTORE DUP5 PUSH1 0x40 PUSH1 0x0 KECCAK256 SSTORE PUSH32 0xDB51946147AF8F68F24B69CDB99D868CC4B53B75DCE4E05D8F590BCF5281051C DUP4 PUSH1 0x40 MLOAD DUP8 DUP2 MSTORE LOG2 PUSH1 0x5 SLOAD AND PUSH1 0x40 MLOAD SWAP3 DUP4 DUP1 SWAP3 PUSH4 0x295E4F41 PUSH1 0xE1 SHL DUP3 MSTORE GAS STATICCALL SWAP3 DUP4 ISZERO PUSH2 0xC8B JUMPI PUSH1 0x0 SWAP4 PUSH2 0x12F7 JUMPI JUMPDEST POP POP LT PUSH2 0xC50 JUMPI STOP JUMPDEST SWAP1 DUP1 SWAP3 SWAP4 POP DUP2 RETURNDATASIZE DUP4 GT PUSH2 0x1320 JUMPI JUMPDEST PUSH2 0x130F DUP2 DUP4 PUSH2 0x17C8 JUMP JUMPDEST DUP2 ADD SUB SLT PUSH2 0x196 JUMPI MLOAD SWAP1 DUP4 DUP1 PUSH2 0x12EE JUMP JUMPDEST POP RETURNDATASIZE PUSH2 0x1305 JUMP JUMPDEST SWAP2 POP POP PUSH1 0x4 SWAP2 PUSH1 0x0 SWAP4 PUSH2 0x1291 JUMP JUMPDEST CALLVALUE PUSH2 0x196 JUMPI PUSH1 0x20 CALLDATASIZE PUSH1 0x3 NOT ADD SLT PUSH2 0x196 JUMPI PUSH1 0x4 CALLDATALOAD PUSH1 0x0 MSTORE PUSH1 0x0 PUSH1 0x20 MSTORE PUSH1 0x20 PUSH1 0x1 PUSH1 0x40 PUSH1 0x0 KECCAK256 ADD SLOAD PUSH1 0x40 MLOAD SWAP1 DUP2 MSTORE RETURN JUMPDEST CALLVALUE PUSH2 0x196 JUMPI PUSH1 0x0 CALLDATASIZE PUSH1 0x3 NOT ADD SLT PUSH2 0x196 JUMPI PUSH1 0x5 SLOAD PUSH1 0x40 MLOAD PUSH1 0x1 PUSH1 0x1 PUSH1 0xA0 SHL SUB SWAP1 SWAP2 AND DUP2 MSTORE PUSH1 0x20 SWAP1 RETURN JUMPDEST CALLVALUE PUSH2 0x196 JUMPI PUSH1 0x20 CALLDATASIZE PUSH1 0x3 NOT ADD SLT PUSH2 0x196 JUMPI PUSH1 0x1 PUSH1 0x1 PUSH1 0xA0 SHL SUB PUSH2 0x13AE PUSH2 0x18DD JUMP JUMPDEST AND PUSH1 0x0 MSTORE PUSH1 0x4 PUSH1 0x20 MSTORE PUSH1 0x20 PUSH1 0x40 PUSH1 0x0 KECCAK256 SLOAD PUSH1 0x40 MLOAD SWAP1 DUP2 MSTORE RETURN JUMPDEST CALLVALUE PUSH2 0x196 JUMPI PUSH1 0x60 CALLDATASIZE PUSH1 0x3 NOT ADD SLT PUSH2 0x196 JUMPI PUSH1 0x4 CALLDATALOAD PUSH1 0x24 CALLDATALOAD SWAP1 PUSH1 0xFF DUP3 AND DUP1 SWAP3 SUB PUSH2 0x196 JUMPI PUSH1 0x44 CALLDATALOAD PUSH1 0x1 PUSH1 0x1 PUSH1 0xA0 SHL SUB DUP2 AND SWAP3 SWAP1 DUP4 SWAP1 SUB PUSH2 0x196 JUMPI PUSH2 0x1408 PUSH2 0x1B2C JUMP JUMPDEST PUSH2 0x1411 DUP3 PUSH2 0x1720 JUMP JUMPDEST POP SWAP1 PUSH1 0xFF PUSH1 0x8 DUP4 ADD SLOAD PUSH1 0xA0 SHR AND ISZERO PUSH2 0x155B JUMPI DUP3 PUSH1 0x0 MSTORE PUSH1 0x20 SWAP2 PUSH1 0x2 DUP4 MSTORE PUSH1 0x40 PUSH1 0x0 KECCAK256 DUP6 PUSH1 0x0 MSTORE DUP4 MSTORE PUSH1 0xFF PUSH1 0x40 PUSH1 0x0 KECCAK256 SLOAD AND PUSH2 0x1526 JUMPI PUSH1 0x0 DUP5 DUP2 MSTORE PUSH1 0x2 DUP5 MSTORE PUSH1 0x40 DUP1 DUP3 KECCAK256 DUP8 DUP4 MSTORE DUP6 MSTORE SWAP1 KECCAK256 DUP1 SLOAD PUSH1 0xFF NOT AND PUSH1 0x1 OR SWAP1 SSTORE DUP2 PUSH2 0x1496 JUMPI SWAP1 PUSH1 0x4 PUSH1 0x0 DUP1 MLOAD PUSH1 0x20 PUSH2 0x1FD1 DUP4 CODECOPY DUP2 MLOAD SWAP2 MSTORE SWAP4 SWAP3 ADD PUSH2 0x148A DUP2 SLOAD PUSH2 0x1CF2 JUMP JUMPDEST SWAP1 SSTORE JUMPDEST PUSH1 0x40 MLOAD SWAP1 DUP2 MSTORE LOG3 STOP JUMPDEST PUSH1 0x1 DUP3 SUB PUSH2 0x14C4 JUMPI SWAP1 PUSH1 0x5 PUSH1 0x0 DUP1 MLOAD PUSH1 0x20 PUSH2 0x1FD1 DUP4 CODECOPY DUP2 MLOAD SWAP2 MSTORE SWAP4 SWAP3 ADD PUSH2 0x14BD DUP2 SLOAD PUSH2 0x1CF2 JUMP JUMPDEST SWAP1 SSTORE PUSH2 0x148D JUMP JUMPDEST PUSH1 0x2 DUP3 SUB PUSH2 0x14EB JUMPI SWAP1 PUSH1 0x6 PUSH1 0x0 DUP1 MLOAD PUSH1 0x20 PUSH2 0x1FD1 DUP4 CODECOPY DUP2 MLOAD SWAP2 MSTORE SWAP4 SWAP3 ADD PUSH2 0x14BD DUP2 SLOAD PUSH2 0x1CF2 JUMP JUMPDEST PUSH1 0x40 MLOAD PUSH3 0x461BCD PUSH1 0xE5 SHL DUP2 MSTORE PUSH1 0x4 DUP2 ADD DUP5 SWAP1 MSTORE PUSH1 0x13 PUSH1 0x24 DUP3 ADD MSTORE PUSH19 0x496E76616C696420766F74652063686F696365 PUSH1 0x68 SHL PUSH1 0x44 DUP3 ADD MSTORE PUSH1 0x64 SWAP1 REVERT JUMPDEST PUSH1 0x40 MLOAD PUSH3 0x461BCD PUSH1 0xE5 SHL DUP2 MSTORE PUSH1 0x4 DUP2 ADD DUP5 SWAP1 MSTORE PUSH1 0xD PUSH1 0x24 DUP3 ADD MSTORE PUSH13 0x105B1C9958591E481D9BDD1959 PUSH1 0x9A SHL PUSH1 0x44 DUP3 ADD MSTORE PUSH1 0x64 SWAP1 REVERT JUMPDEST PUSH1 0x40 MLOAD PUSH3 0x461BCD PUSH1 0xE5 SHL DUP2 MSTORE PUSH1 0x20 PUSH1 0x4 DUP3 ADD MSTORE PUSH1 0x13 PUSH1 0x24 DUP3 ADD MSTORE PUSH19 0x159BDD1A5B99C81B9BDD081C995C5D5A5C9959 PUSH1 0x6A SHL PUSH1 0x44 DUP3 ADD MSTORE PUSH1 0x64 SWAP1 REVERT JUMPDEST CALLVALUE PUSH2 0x196 JUMPI PUSH1 0x20 CALLDATASIZE PUSH1 0x3 NOT ADD SLT PUSH2 0x196 JUMPI PUSH1 0x4 CALLDATALOAD PUSH4 0xFFFFFFFF PUSH1 0xE0 SHL DUP2 AND DUP1 SWAP2 SUB PUSH2 0x196 JUMPI PUSH1 0x20 SWAP1 PUSH4 0x7965DB0B PUSH1 0xE0 SHL DUP2 EQ SWAP1 DUP2 ISZERO PUSH2 0x15DB JUMPI JUMPDEST POP PUSH1 0x40 MLOAD SWAP1 ISZERO ISZERO DUP2 MSTORE RETURN JUMPDEST PUSH4 0x1FFC9A7 PUSH1 0xE0 SHL EQ SWAP1 POP DUP3 PUSH2 0x15D0 JUMP JUMPDEST CALLVALUE PUSH2 0x196 JUMPI PUSH1 0x20 CALLDATASIZE PUSH1 0x3 NOT ADD SLT PUSH2 0x196 JUMPI PUSH1 0x4 CALLDATALOAD PUSH1 0x1 SLOAD DUP2 LT ISZERO PUSH2 0x196 JUMPI PUSH2 0x1613 SWAP1 PUSH2 0x1720 JUMP JUMPDEST POP PUSH2 0x161D DUP2 PUSH2 0x17EA JUMP JUMPDEST PUSH2 0x1629 PUSH1 0x1 DUP4 ADD PUSH2 0x17EA JUMP JUMPDEST SWAP1 PUSH1 0x2 DUP4 ADD SLOAD SWAP3 PUSH1 0x3 DUP2 ADD SLOAD SWAP1 PUSH1 0x4 DUP2 ADD SLOAD SWAP1 PUSH1 0x5 DUP2 ADD SLOAD SWAP4 PUSH1 0x6 DUP3 ADD SLOAD SWAP2 PUSH1 0x7 DUP2 ADD SLOAD SWAP1 PUSH1 0x8 DUP2 ADD SLOAD SWAP2 PUSH1 0x9 DUP3 ADD PUSH2 0x1661 SWAP1 PUSH2 0x17EA JUMP JUMPDEST SWAP5 PUSH1 0xA DUP4 ADD SLOAD SWAP9 PUSH1 0xB DUP5 ADD SLOAD SWAP8 PUSH1 0x1 PUSH1 0xA0 SHL PUSH1 0x1 SWAP1 SUB PUSH1 0xC DUP2 SWAP7 ADD SLOAD AND SWAP10 PUSH1 0x40 MLOAD SWAP14 DUP15 SWAP14 DUP15 SWAP10 PUSH2 0x1E0 DUP1 DUP13 MSTORE DUP12 ADD PUSH2 0x1698 SWAP2 PUSH2 0x1890 JUMP JUMPDEST DUP11 DUP2 SUB PUSH1 0x20 DUP13 ADD MSTORE PUSH2 0x16A9 SWAP2 PUSH2 0x1890 JUMP JUMPDEST SWAP9 PUSH1 0x40 ADD MSTORE DUP13 DUP7 DUP3 AND SWAP1 PUSH1 0x60 ADD MSTORE PUSH1 0x80 DUP14 ADD SWAP1 PUSH1 0xA0 SHR PUSH1 0xFF AND SWAP1 PUSH2 0x16CC SWAP2 PUSH2 0x18D0 JUMP JUMPDEST PUSH1 0xA0 DUP13 ADD MSTORE PUSH1 0xC0 DUP12 ADD MSTORE PUSH1 0xE0 DUP11 ADD MSTORE PUSH2 0x100 DUP10 ADD MSTORE DUP2 AND PUSH2 0x120 DUP9 ADD MSTORE PUSH1 0xA0 SHR PUSH1 0xFF AND ISZERO ISZERO PUSH2 0x140 DUP8 ADD MSTORE DUP6 DUP2 SUB PUSH2 0x160 DUP8 ADD MSTORE PUSH2 0x1709 SWAP2 PUSH2 0x1890 JUMP JUMPDEST SWAP3 PUSH2 0x180 DUP6 ADD MSTORE PUSH2 0x1A0 DUP5 ADD MSTORE PUSH2 0x1C0 DUP4 ADD MSTORE SUB SWAP1 RETURN JUMPDEST PUSH1 0x1 SLOAD DUP2 LT ISZERO PUSH2 0x175B JUMPI PUSH1 0xD SWAP1 PUSH1 0x1 PUSH1 0x0 MSTORE MUL PUSH32 0xB10E2D527612073B26EECDFD717E6A320CF44B4AFAC2B0732D9FCBE2B7FA0CF6 ADD SWAP1 PUSH1 0x0 SWAP1 JUMP JUMPDEST PUSH4 0x4E487B71 PUSH1 0xE0 SHL PUSH1 0x0 MSTORE PUSH1 0x32 PUSH1 0x4 MSTORE PUSH1 0x24 PUSH1 0x0 REVERT JUMPDEST SWAP1 PUSH1 0x1 DUP3 DUP2 SHR SWAP3 AND DUP1 ISZERO PUSH2 0x17A1 JUMPI JUMPDEST PUSH1 0x20 DUP4 LT EQ PUSH2 0x178B JUMPI JUMP JUMPDEST PUSH4 0x4E487B71 PUSH1 0xE0 SHL PUSH1 0x0 MSTORE PUSH1 0x22 PUSH1 0x4 MSTORE PUSH1 0x24 PUSH1 0x0 REVERT JUMPDEST SWAP2 PUSH1 0x7F AND SWAP2 PUSH2 0x1780 JUMP JUMPDEST PUSH2 0x1E0 DUP2 ADD SWAP1 DUP2 LT PUSH8 0xFFFFFFFFFFFFFFFF DUP3 GT OR PUSH2 0x444 JUMPI PUSH1 0x40 MSTORE JUMP JUMPDEST SWAP1 PUSH1 0x1F DUP1 NOT SWAP2 ADD AND DUP2 ADD SWAP1 DUP2 LT PUSH8 0xFFFFFFFFFFFFFFFF DUP3 GT OR PUSH2 0x444 JUMPI PUSH1 0x40 MSTORE JUMP JUMPDEST SWAP1 PUSH1 0x40 MLOAD SWAP2 DUP3 PUSH1 0x0 DUP3 SLOAD SWAP3 PUSH2 0x17FE DUP5 PUSH2 0x1771 JUMP JUMPDEST SWAP1 DUP2 DUP5 MSTORE PUSH1 0x1 SWAP5 DUP6 DUP2 AND SWAP1 DUP2 PUSH1 0x0 EQ PUSH2 0x186D JUMPI POP PUSH1 0x1 EQ PUSH2 0x182A JUMPI JUMPDEST POP POP PUSH2 0x1828 SWAP3 POP SUB DUP4 PUSH2 0x17C8 JUMP JUMPDEST JUMP JUMPDEST SWAP1 SWAP4 SWAP2 POP PUSH1 0x0 MSTORE PUSH1 0x20 SWAP1 DUP2 PUSH1 0x0 KECCAK256 SWAP4 PUSH1 0x0 SWAP2 JUMPDEST DUP2 DUP4 LT PUSH2 0x1855 JUMPI POP POP PUSH2 0x1828 SWAP4 POP DUP3 ADD ADD CODESIZE DUP1 PUSH2 0x181A JUMP JUMPDEST DUP6 SLOAD DUP9 DUP5 ADD DUP6 ADD MSTORE SWAP5 DUP6 ADD SWAP5 DUP8 SWAP5 POP SWAP2 DUP4 ADD SWAP2 PUSH2 0x183D JUMP JUMPDEST SWAP2 POP POP PUSH2 0x1828 SWAP5 POP PUSH1 0x20 SWAP3 POP PUSH1 0xFF NOT AND DUP3 DUP5 ADD MSTORE ISZERO ISZERO PUSH1 0x5 SHL DUP3 ADD ADD CODESIZE DUP1 PUSH2 0x181A JUMP JUMPDEST SWAP2 SWAP1 DUP3 MLOAD SWAP3 DUP4 DUP3 MSTORE PUSH1 0x0 JUMPDEST DUP5 DUP2 LT PUSH2 0x18BC JUMPI POP POP DUP3 PUSH1 0x0 PUSH1 0x20 DUP1 SWAP5 SWAP6 DUP5 ADD ADD MSTORE PUSH1 0x1F DUP1 NOT SWAP2 ADD AND ADD ADD SWAP1 JUMP JUMPDEST PUSH1 0x20 DUP2 DUP4 ADD DUP2 ADD MLOAD DUP5 DUP4 ADD DUP3 ADD MSTORE ADD PUSH2 0x189B JUMP JUMPDEST SWAP1 PUSH1 0x4 DUP3 LT ISZERO PUSH2 0x901 JUMPI MSTORE JUMP JUMPDEST PUSH1 0x4 CALLDATALOAD SWAP1 PUSH1 0x1 PUSH1 0x1 PUSH1 0xA0 SHL SUB DUP3 AND DUP3 SUB PUSH2 0x196 JUMPI JUMP JUMPDEST PUSH1 0x24 CALLDATALOAD SWAP1 PUSH1 0x1 PUSH1 0x1 PUSH1 0xA0 SHL SUB DUP3 AND DUP3 SUB PUSH2 0x196 JUMPI JUMP JUMPDEST PUSH1 0x6 SLOAD DUP2 LT ISZERO PUSH2 0x175B JUMPI PUSH1 0x6 PUSH1 0x0 MSTORE PUSH32 0xF652222313E28459528D920B65115C16C04F3EFC82AAEDC97BE59F3F377C0D3F ADD SWAP1 PUSH1 0x0 SWAP1 JUMP JUMPDEST SWAP1 PUSH2 0x1969 PUSH2 0x1957 DUP4 MLOAD PUSH2 0x1E0 DUP1 DUP6 MSTORE DUP5 ADD SWAP1 PUSH2 0x1890 JUMP JUMPDEST PUSH1 0x20 DUP5 ADD MLOAD DUP4 DUP3 SUB PUSH1 0x20 DUP6 ADD MSTORE PUSH2 0x1890 JUMP JUMPDEST SWAP2 PUSH1 0x40 DUP2 ADD MLOAD PUSH1 0x40 DUP4 ADD MSTORE PUSH2 0x19F4 PUSH1 0x1 DUP1 PUSH1 0xA0 SHL SUB SWAP4 DUP5 PUSH1 0x60 DUP5 ADD MLOAD AND PUSH1 0x60 DUP6 ADD MSTORE PUSH2 0x199D PUSH1 0x80 DUP5 ADD MLOAD PUSH1 0x80 DUP7 ADD SWAP1 PUSH2 0x18D0 JUMP JUMPDEST PUSH1 0xA0 DUP4 ADD MLOAD PUSH1 0xA0 DUP6 ADD MSTORE PUSH1 0xC0 DUP4 ADD MLOAD PUSH1 0xC0 DUP6 ADD MSTORE PUSH1 0xE0 DUP4 ADD MLOAD PUSH1 0xE0 DUP6 ADD MSTORE PUSH2 0x100 DUP1 DUP5 ADD MLOAD SWAP1 DUP6 ADD MSTORE PUSH2 0x120 DUP6 DUP2 DUP6 ADD MLOAD AND SWAP1 DUP6 ADD MSTORE PUSH2 0x140 DUP1 DUP5 ADD MLOAD ISZERO ISZERO SWAP1 DUP6 ADD MSTORE PUSH2 0x160 DUP1 DUP5 ADD MLOAD SWAP1 DUP6 DUP4 SUB SWAP1 DUP7 ADD MSTORE PUSH2 0x1890 JUMP JUMPDEST SWAP3 PUSH2 0x180 DUP1 DUP4 ADD MLOAD SWAP1 DUP5 ADD MSTORE PUSH2 0x1A0 DUP1 DUP4 ADD MLOAD SWAP1 DUP5 ADD MSTORE PUSH2 0x1C0 DUP1 SWAP3 ADD MLOAD AND SWAP2 ADD MSTORE SWAP1 JUMP JUMPDEST PUSH1 0x1 PUSH1 0x1 PUSH1 0xA0 SHL SUB AND PUSH1 0x0 DUP2 DUP2 MSTORE PUSH32 0x30710E496C9A8631E387D1FF5062C226D4CE9C9E008BFF1F22AE157290CCBD62 PUSH1 0x20 MSTORE PUSH1 0x40 DUP2 KECCAK256 SLOAD SWAP1 SWAP2 SWAP1 PUSH1 0x0 DUP1 MLOAD PUSH1 0x20 PUSH2 0x1FB1 DUP4 CODECOPY DUP2 MLOAD SWAP2 MSTORE SWAP1 PUSH1 0xFF AND ISZERO PUSH2 0x1AB2 JUMPI DUP1 DUP4 MSTORE DUP3 PUSH1 0x20 MSTORE PUSH1 0x40 DUP4 KECCAK256 DUP3 DUP5 MSTORE PUSH1 0x20 MSTORE PUSH1 0x40 DUP4 KECCAK256 PUSH1 0xFF NOT DUP2 SLOAD AND SWAP1 SSTORE PUSH32 0xF6391F5C32D9C69D2A47EA670B442974B53935D1EDC7FD64EB21E047A839171B CALLER SWAP4 DUP1 LOG4 PUSH1 0x1 SWAP1 JUMP JUMPDEST POP POP SWAP1 JUMP JUMPDEST SWAP1 PUSH1 0x0 SWAP2 DUP1 DUP4 MSTORE DUP3 PUSH1 0x20 MSTORE PUSH1 0x40 DUP4 KECCAK256 SWAP2 PUSH1 0x1 DUP1 PUSH1 0xA0 SHL SUB AND SWAP2 DUP3 DUP5 MSTORE PUSH1 0x20 MSTORE PUSH1 0xFF PUSH1 0x40 DUP5 KECCAK256 SLOAD AND PUSH1 0x0 EQ PUSH2 0x1AB2 JUMPI DUP1 DUP4 MSTORE DUP3 PUSH1 0x20 MSTORE PUSH1 0x40 DUP4 KECCAK256 DUP3 DUP5 MSTORE PUSH1 0x20 MSTORE PUSH1 0x40 DUP4 KECCAK256 PUSH1 0xFF NOT DUP2 SLOAD AND SWAP1 SSTORE PUSH32 0xF6391F5C32D9C69D2A47EA670B442974B53935D1EDC7FD64EB21E047A839171B CALLER SWAP4 DUP1 LOG4 PUSH1 0x1 SWAP1 JUMP JUMPDEST CALLER PUSH1 0x0 SWAP1 DUP2 MSTORE PUSH32 0xC39F11A9300B508470EAED31F5842BA08C93181BCBE6A7FE34039AA7F2B80742 PUSH1 0x20 MSTORE PUSH1 0x40 SWAP1 KECCAK256 SLOAD PUSH32 0x3B5D4CC60D3EC3516EE8AE083BD60934F6EB2A6C54B1229985C41BFB092B2603 SWAP1 PUSH1 0xFF AND ISZERO PUSH2 0x1B88 JUMPI POP JUMP JUMPDEST PUSH1 0x44 SWAP1 PUSH1 0x40 MLOAD SWAP1 PUSH4 0xE2517D3F PUSH1 0xE0 SHL DUP3 MSTORE CALLER PUSH1 0x4 DUP4 ADD MSTORE PUSH1 0x24 DUP3 ADD MSTORE REVERT JUMPDEST DUP1 PUSH1 0x0 MSTORE PUSH1 0x0 PUSH1 0x20 MSTORE PUSH1 0x40 PUSH1 0x0 KECCAK256 CALLER PUSH1 0x0 MSTORE PUSH1 0x20 MSTORE PUSH1 0xFF PUSH1 0x40 PUSH1 0x0 KECCAK256 SLOAD AND ISZERO PUSH2 0x1B88 JUMPI POP JUMP JUMPDEST PUSH1 0x1 PUSH1 0x1 PUSH1 0xA0 SHL SUB AND PUSH1 0x0 DUP2 DUP2 MSTORE PUSH32 0xC39F11A9300B508470EAED31F5842BA08C93181BCBE6A7FE34039AA7F2B80742 PUSH1 0x20 MSTORE PUSH1 0x40 DUP2 KECCAK256 SLOAD SWAP1 SWAP2 SWAP1 PUSH32 0x3B5D4CC60D3EC3516EE8AE083BD60934F6EB2A6C54B1229985C41BFB092B2603 SWAP1 PUSH1 0xFF AND PUSH2 0x1AB2 JUMPI DUP1 DUP4 MSTORE DUP3 PUSH1 0x20 MSTORE PUSH1 0x40 DUP4 KECCAK256 DUP3 DUP5 MSTORE PUSH1 0x20 MSTORE PUSH1 0x40 DUP4 KECCAK256 PUSH1 0x1 PUSH1 0xFF NOT DUP3 SLOAD AND OR SWAP1 SSTORE PUSH32 0x2F8788117E7EFF1D82E926EC794901D17C78024A50270940304540A733656F0D CALLER SWAP4 DUP1 LOG4 PUSH1 0x1 SWAP1 JUMP JUMPDEST SWAP1 PUSH1 0x0 SWAP2 DUP1 DUP4 MSTORE DUP3 PUSH1 0x20 MSTORE PUSH1 0x40 DUP4 KECCAK256 SWAP2 PUSH1 0x1 DUP1 PUSH1 0xA0 SHL SUB AND SWAP2 DUP3 DUP5 MSTORE PUSH1 0x20 MSTORE PUSH1 0xFF PUSH1 0x40 DUP5 KECCAK256 SLOAD AND ISZERO PUSH1 0x0 EQ PUSH2 0x1AB2 JUMPI DUP1 DUP4 MSTORE DUP3 PUSH1 0x20 MSTORE PUSH1 0x40 DUP4 KECCAK256 DUP3 DUP5 MSTORE PUSH1 0x20 MSTORE PUSH1 0x40 DUP4 KECCAK256 PUSH1 0x1 PUSH1 0xFF NOT DUP3 SLOAD AND OR SWAP1 SSTORE PUSH32 0x2F8788117E7EFF1D82E926EC794901D17C78024A50270940304540A733656F0D CALLER SWAP4 DUP1 LOG4 PUSH1 0x1 SWAP1 JUMP JUMPDEST PUSH1 0x0 NOT DUP2 EQ PUSH2 0x30B JUMPI PUSH1 0x1 ADD SWAP1 JUMP JUMPDEST PUSH1 0x0 PUSH1 0x0 DUP1 MLOAD PUSH1 0x20 PUSH2 0x1FB1 DUP4 CODECOPY DUP2 MLOAD SWAP2 MSTORE DUP2 MSTORE DUP1 PUSH1 0x20 MSTORE PUSH1 0x1 SWAP2 PUSH2 0x1D2A DUP4 PUSH1 0x40 DUP5 KECCAK256 ADD SLOAD PUSH2 0x1BA6 JUMP JUMPDEST PUSH2 0x1D33 DUP2 PUSH2 0x1A19 JUMP JUMPDEST POP PUSH1 0x1 PUSH1 0x1 PUSH1 0xA0 SHL SUB SWAP1 DUP2 AND DUP1 DUP4 MSTORE PUSH1 0x7 PUSH1 0x20 MSTORE PUSH1 0x40 DUP4 KECCAK256 DUP1 SLOAD SWAP2 SWAP3 SWAP2 PUSH1 0xFF DUP2 AND PUSH2 0x1D61 JUMPI JUMPDEST POP POP POP POP POP POP JUMP JUMPDEST PUSH1 0xFF NOT AND SWAP1 SSTORE DUP3 DUP5 JUMPDEST PUSH2 0x1D89 JUMPI JUMPDEST POP POP DUP2 MSTORE PUSH1 0x3 PUSH1 0x20 MSTORE PUSH1 0x40 DUP2 KECCAK256 SSTORE POP CODESIZE DUP1 DUP1 DUP1 DUP1 DUP1 PUSH2 0x1D59 JUMP JUMPDEST PUSH1 0x6 DUP1 SLOAD DUP1 DUP4 LT ISZERO PUSH2 0x1E30 JUMPI DUP4 DUP6 PUSH2 0x1DA0 DUP6 PUSH2 0x1909 JUMP JUMPDEST SWAP3 SWAP1 SLOAD PUSH1 0x3 SWAP4 DUP5 SHL SHR AND EQ PUSH2 0x1DC1 JUMPI POP POP POP PUSH2 0x1DBB SWAP1 PUSH2 0x1CF2 JUMP JUMPDEST DUP5 PUSH2 0x1D6A JUMP JUMPDEST SWAP1 SWAP4 SWAP2 SWAP5 SWAP6 SWAP7 POP PUSH1 0x0 NOT SWAP4 DUP5 DUP2 ADD SWAP1 DUP2 GT PUSH2 0x1E1C JUMPI SWAP2 PUSH2 0x2A2 SWAP2 PUSH2 0x296 PUSH2 0x1DE8 SWAP6 SWAP5 PUSH2 0x1909 JUMP JUMPDEST DUP2 SLOAD DUP1 ISZERO PUSH2 0x1E08 JUMPI ADD SWAP1 PUSH2 0x1DFE PUSH2 0x2D7 DUP4 PUSH2 0x1909 JUMP JUMPDEST SSTORE DUP2 SWAP1 CODESIZE DUP1 PUSH2 0x1D6F JUMP JUMPDEST PUSH4 0x4E487B71 PUSH1 0xE0 SHL DUP6 MSTORE PUSH1 0x31 PUSH1 0x4 MSTORE PUSH1 0x24 DUP6 REVERT JUMPDEST PUSH4 0x4E487B71 PUSH1 0xE0 SHL DUP9 MSTORE PUSH1 0x11 PUSH1 0x4 MSTORE PUSH1 0x24 DUP9 REVERT JUMPDEST POP POP PUSH2 0x1D6F JUMP JUMPDEST SWAP1 CALLDATALOAD SWAP1 PUSH1 0x1E NOT DUP2 CALLDATASIZE SUB ADD DUP3 SLT ISZERO PUSH2 0x196 JUMPI ADD DUP1 CALLDATALOAD SWAP1 PUSH8 0xFFFFFFFFFFFFFFFF DUP3 GT PUSH2 0x196 JUMPI PUSH1 0x20 ADD SWAP2 DUP2 CALLDATASIZE SUB DUP4 SGT PUSH2 0x196 JUMPI JUMP JUMPDEST SWAP3 SWAP2 SWAP3 PUSH8 0xFFFFFFFFFFFFFFFF DUP3 GT PUSH2 0x444 JUMPI PUSH1 0x40 MLOAD SWAP2 PUSH2 0x1E94 PUSH1 0x1F DUP3 ADD PUSH1 0x1F NOT AND PUSH1 0x20 ADD DUP5 PUSH2 0x17C8 JUMP JUMPDEST DUP3 SWAP5 DUP2 DUP5 MSTORE DUP2 DUP4 ADD GT PUSH2 0x196 JUMPI DUP3 DUP2 PUSH1 0x20 SWAP4 DUP5 PUSH1 0x0 SWAP7 ADD CALLDATACOPY ADD ADD MSTORE JUMP JUMPDEST SWAP1 PUSH1 0x4 DUP2 LT ISZERO PUSH2 0x901 JUMPI DUP2 SLOAD PUSH1 0xFF PUSH1 0xA0 SHL NOT AND PUSH1 0xA0 SWAP2 SWAP1 SWAP2 SHL PUSH1 0xFF PUSH1 0xA0 SHL AND OR SWAP1 SSTORE JUMP JUMPDEST SWAP1 PUSH1 0x40 MLOAD PUSH2 0x1EE2 DUP2 PUSH2 0x17AB JUMP JUMPDEST DUP1 SWAP3 PUSH2 0x1EED DUP2 PUSH2 0x17EA JUMP JUMPDEST DUP3 MSTORE PUSH2 0x1EFB PUSH1 0x1 DUP3 ADD PUSH2 0x17EA JUMP JUMPDEST PUSH1 0x20 DUP4 ADD MSTORE PUSH1 0x2 DUP2 ADD SLOAD PUSH1 0x40 DUP4 ADD MSTORE PUSH1 0x3 DUP2 ADD SLOAD PUSH1 0x1 PUSH1 0x1 PUSH1 0xA0 SHL SUB DUP1 DUP3 AND PUSH1 0x60 DUP6 ADD MSTORE SWAP1 PUSH1 0xA0 SHR PUSH1 0xFF AND PUSH1 0x4 DUP2 LT ISZERO PUSH2 0x901 JUMPI PUSH2 0x1C0 SWAP3 PUSH1 0xC SWAP2 PUSH1 0x80 DUP7 ADD MSTORE PUSH1 0x4 DUP2 ADD SLOAD PUSH1 0xA0 DUP7 ADD MSTORE PUSH1 0x5 DUP2 ADD SLOAD PUSH1 0xC0 DUP7 ADD MSTORE PUSH1 0x6 DUP2 ADD SLOAD PUSH1 0xE0 DUP7 ADD MSTORE PUSH1 0x7 DUP2 ADD SLOAD PUSH2 0x100 DUP7 ADD MSTORE PUSH1 0xFF PUSH1 0x8 DUP3 ADD SLOAD DUP5 DUP2 AND PUSH2 0x120 DUP9 ADD MSTORE PUSH1 0xA0 SHR AND ISZERO ISZERO PUSH2 0x140 DUP7 ADD MSTORE PUSH2 0x1F8C PUSH1 0x9 DUP3 ADD PUSH2 0x17EA JUMP JUMPDEST PUSH2 0x160 DUP7 ADD MSTORE PUSH1 0xA DUP2 ADD SLOAD PUSH2 0x180 DUP7 ADD MSTORE PUSH1 0xB DUP2 ADD SLOAD PUSH2 0x1A0 DUP7 ADD MSTORE ADD SLOAD AND SWAP2 ADD MSTORE JUMP INVALID DUP3 SWAP12 DUP3 0x4E 0x23 0x29 0xE2 SDIV NUMBER 0x5D SWAP5 SHR SWAP16 SGT 0xBA CREATE2 PUSH25 0x548505283D29261236D8E6596D4636094F80829C509370ABB2 0xD4 0x21 LOG0 PUSH25 0xBA5926755D3DE25D021DACF7BBD19853F7A2A2646970667358 0x22 SLT KECCAK256 0xC4 0xCB DUP6 0x2A SWAP9 0x24 EXTCODECOPY SSTORE 0xD0 DUP10 0x5D ADD MOD 0xF7 MSTORE DUP4 CALLER 0xC7 0xE0 SWAP5 RETURN KECCAK256 0xB8 0xB5 EXTCODESIZE 0x1F 0xB6 PUSH12 0xC4F2B1F464736F6C63430008 EQ STOP CALLER 0x2F DUP8 DUP9 GT PUSH31 0x7EFF1D82E926EC794901D17C78024A50270940304540A733656F0D829B824E 0x23 0x29 0xE2 SDIV NUMBER 0x5D SWAP5 SHR SWAP16 SGT 0xBA CREATE2 PUSH25 0x548505283D29261236D8E6596D463600000000000000000000 "},"methodIdentifiers":{"DAO_ROLE()":"e9c26518","DEFAULT_ADMIN_ROLE()":"a217fddf","MEMBER_ROLE()":"a10f469e","addGlassScore(address,uint256)":"488cba40","addPenaltyAndExpel(address)":"ba86f70a","createProposal((string,string,uint256,address,bool,string,uint256,uint256,address),address)":"cc9aa9ea","daoAddress()":"2131c68c","forceAbstain(uint256,address)":"a462e50f","getAllMembers()":"7c0f6b35","getAllProposals()":"cceb68f5","getMemberCount()":"997072f7","getProposal(uint256)":"c7f758a8","getRoleAdmin(bytes32)":"248a9ca3","glassScore(address)":"1f56d126","grantRole(bytes32,address)":"2f2ff15d","hasRole(bytes32,address)":"91d14854","hasVoted(uint256,address)":"43859632","hasVotedForProposal(uint256,address)":"62d4f893","isMember(address)":"a230c524","members(uint256)":"5daf08ca","penaltyCount(address)":"a9330b0e","proposals(uint256)":"013cf08b","renounceRole(bytes32,address)":"36568abe","revokeRole(bytes32,address)":"d547741f","setDaoAddress(address)":"9a3cac6a","setProposalStatus(uint256,uint8)":"cbe94614","subGlassScore(address,uint256)":"2b72ee51","supportsInterface(bytes4)":"01ffc9a7","vote(uint256,uint8,address)":"19cff706"}}}}}