{"contracts/DAO.sol":{"DAO":{"abi":[{"inputs":[{"internalType":"address","name":"_proposal","type":"address"},{"internalType":"address","name":"_vault","type":"address"},{"internalType":"address","name":"_execution","type":"address"}],"stateMutability":"nonpayable","type":"constructor"},{"anonymous":false,"inputs":[{"indexed":true,"internalType":"uint256","name":"proposalId","type":"uint256"}],"name":"ProposalPassed","type":"event"},{"anonymous":false,"inputs":[{"indexed":true,"internalType":"uint256","name":"proposalId","type":"uint256"}],"name":"ProposalRejected","type":"event"},{"inputs":[],"name":"absentPenalty","outputs":[{"internalType":"uint256","name":"","type":"uint256"}],"stateMutability":"view","type":"function"},{"inputs":[{"internalType":"address","name":"member","type":"address"},{"internalType":"uint256","name":"amount","type":"uint256"}],"name":"adminSubGlassScore","outputs":[],"stateMutability":"nonpayable","type":"function"},{"inputs":[],"name":"countToExpel","outputs":[{"internalType":"uint256","name":"","type":"uint256"}],"stateMutability":"view","type":"function"},{"inputs":[{"internalType":"string","name":"title","type":"string"},{"internalType":"string","name":"description","type":"string"},{"internalType":"uint256","name":"amount","type":"uint256"},{"internalType":"address payable","name":"recipient","type":"address"},{"internalType":"bool","name":"requireVote","type":"bool"},{"internalType":"string","name":"sanctionType","type":"string"},{"internalType":"uint256","name":"beforeValue","type":"uint256"},{"internalType":"uint256","name":"afterValue","type":"uint256"},{"internalType":"address","name":"targetMember","type":"address"}],"name":"createProposal","outputs":[{"internalType":"uint256","name":"","type":"uint256"}],"stateMutability":"nonpayable","type":"function"},{"inputs":[],"name":"entryFee","outputs":[{"internalType":"uint256","name":"","type":"uint256"}],"stateMutability":"view","type":"function"},{"inputs":[],"name":"executionContract","outputs":[{"internalType":"contract Execution","name":"","type":"address"}],"stateMutability":"view","type":"function"},{"inputs":[{"internalType":"uint256","name":"proposalId","type":"uint256"}],"name":"finalizeProposal","outputs":[],"stateMutability":"nonpayable","type":"function"},{"inputs":[],"name":"getAllMembers","outputs":[{"internalType":"address[]","name":"","type":"address[]"}],"stateMutability":"view","type":"function"},{"inputs":[],"name":"getMemberCount","outputs":[{"internalType":"uint256","name":"","type":"uint256"}],"stateMutability":"view","type":"function"},{"inputs":[],"name":"getTreasuryBalance","outputs":[{"internalType":"uint256","name":"","type":"uint256"}],"stateMutability":"view","type":"function"},{"inputs":[{"internalType":"address","name":"user","type":"address"}],"name":"isMember","outputs":[{"internalType":"bool","name":"","type":"bool"}],"stateMutability":"view","type":"function"},{"inputs":[],"name":"joinDAO","outputs":[],"stateMutability":"payable","type":"function"},{"inputs":[],"name":"leaveDAO","outputs":[],"stateMutability":"nonpayable","type":"function"},{"inputs":[],"name":"passCriteria","outputs":[{"internalType":"uint256","name":"","type":"uint256"}],"stateMutability":"view","type":"function"},{"inputs":[],"name":"proposalContract","outputs":[{"internalType":"contract Proposal","name":"","type":"address"}],"stateMutability":"view","type":"function"},{"inputs":[{"internalType":"uint256","name":"","type":"uint256"}],"name":"proposalDeadline","outputs":[{"internalType":"uint256","name":"","type":"uint256"}],"stateMutability":"view","type":"function"},{"inputs":[{"internalType":"uint256","name":"","type":"uint256"}],"name":"proposalExecuted","outputs":[{"internalType":"bool","name":"","type":"bool"}],"stateMutability":"view","type":"function"},{"inputs":[],"name":"scoreToExpel","outputs":[{"internalType":"uint256","name":"","type":"uint256"}],"stateMutability":"view","type":"function"},{"inputs":[],"name":"vaultContract","outputs":[{"internalType":"contract Vault","name":"","type":"address"}],"stateMutability":"view","type":"function"},{"inputs":[{"internalType":"uint256","name":"proposalId","type":"uint256"},{"internalType":"uint8","name":"choice","type":"uint8"}],"name":"vote","outputs":[],"stateMutability":"nonpayable","type":"function"},{"inputs":[],"name":"votingDuration","outputs":[{"internalType":"uint256","name":"","type":"uint256"}],"stateMutability":"view","type":"function"},{"stateMutability":"payable","type":"receive"}],"evm":{"bytecode":{"linkReferences":{},"object":"608034620000d757601f6200232b38819003918201601f19168301916001600160401b03831184841017620000dc57808492606094604052833981010312620000d7576200004d81620000f2565b906200006a60406200006260208401620000f2565b9201620000f2565b60326003556203f48060045566038d7ea4c680006005556005600655601460075566071afd498d000060085560018060a01b0380928160018060a01b0319951685600054161760005516836001541617600155169060025416176002556040516122239081620001088239f35b600080fd5b634e487b7160e01b600052604160045260246000fd5b51906001600160a01b0382168203620000d75756fe608080604052600436101561001d575b50361561001b57600080fd5b005b600090813560e01c908163072ea61c14611836575080630fd2e6f914611818578063103616e8146117e9578063132002fc146117cb5780631de7df41146116185780632274346b146115ef5780633aef3900146115c857806352bc9e82146115aa5780635652077c14610d1557806357cce7d414610bb35780637c0f6b3514610b0d578063943e82161461096a578063997072f71461091c5780639b5655dc1461089b5780639f1f43af1461087d578063a230c52414610766578063bc2914b514610414578063bdf91db5146103f6578063c01f9e37146103cc578063e0e93244146103a35763f63d13d70361000f5780600319360112610222578054604051635087a34f60e11b8082526001600160a01b039392602092908516908381600481855afa908115610398579084918691610367575b50604051632474521560e21b815260048101919091523360248201529182908180604481015b03915afa90811561026c57849161032e575b506102f65760085434036102bc57828080803488600154165af16101ac611944565b5015610277578293835416906040519081528281600481855afa92831561026c578493610234575b5050803b1561023057604051632f2ff15d60e01b8152600481019290925233602483015282908290604490829084905af18015610225576102125750f35b61021b90611896565b6102225780f35b80fd5b6040513d84823e3d90fd5b5050fd5b819450809293503d8311610265575b61024d81836118f9565b81010312610260578291519038806101d4565b600080fd5b503d610243565b6040513d86823e3d90fd5b60405162461bcd60e51b815260048101839052601d60248201527f4661696c656420746f2073656e6420457468657220746f207661756c740000006044820152606490fd5b60405162461bcd60e51b8152600481018390526012602482015271496e636f7272656374206a6f696e2066656560701b6044820152606490fd5b60405162461bcd60e51b815260048101839052601060248201526f20b63932b0b23c90309036b2b6b132b960811b6044820152606490fd5b90508281813d8311610360575b61034581836118f9565b8101031261035c576103569061191b565b3861018a565b8380fd5b503d61033b565b82819392503d8311610391575b61037e81836118f9565b8101031261026057518390610178610152565b503d610374565b6040513d87823e3d90fd5b50346102225780600319360112610222576002546040516001600160a01b039091168152602090f35b50346102225760203660031901126102225760406020916004358152600983522054604051908152f35b50346102225780600319360112610222576020600554604051908152f35b5034610222576101203660031901126102225767ffffffffffffffff60043581811161076257610448903690600401611868565b919060243582811161075e57610462903690600401611868565b939092606435906001600160a01b038216820361075a5760843515156084350361075a5760a43590811161075a5761049e903690600401611868565b61010435926001600160a01b0384168403610260578854604051635087a34f60e11b81528a996001600160a01b0390921697906020816004818c5afa908115610717578b91610722575b50604051632474521560e21b815260048101919091523360248201526020816044818c5afa908115610717578b916106af575b5060209961058495936105506105c89b9a9998969461053c61055995611974565b6040519a6105498c6118c0565b36916119c0565b895236916119c0565b868a015260443560408701526001600160a01b031660608601526084351515608086015236916119c0565b60a083015260c43560c083015260e43560e08301526001600160a01b031661010082015260405163664d54f560e11b81529485938492839190339060048401611a3f565b03925af190811561022557829161067d575b50815482906001600160a01b0316803b1561066e57819060446040518094819363012232e960e61b8352336004840152600360248401525af180156106725761065a575b506020916084351561064b57604061063860045442611aec565b918381526009855220555b604051908152f35b5061065581611d83565b610643565b6106648391611896565b61066e573861061e565b5080fd5b6040513d85823e3d90fd5b90506020813d6020116106a7575b81610698602093836118f9565b810103126102605751386105da565b3d915061068b565b949298979695939190506020853d60201161070f575b816106d2602093836118f9565b8101031261070b576020996105c8996105506105599361053c6106f76105849a61191b565b955050949698999a9b50509395509961051b565b8a80fd5b3d91506106c5565b6040513d8d823e3d90fd5b9a505060208a3d602011610752575b8161073e602093836118f9565b810103126102605798518a999060206104e8565b3d9150610731565b8680fd5b8480fd5b8280fd5b5034610222576020908160031936011261022257610782611852565b8154604051635087a34f60e11b81526001600160a01b0390911691908481600481865afa90811561026c5790859291859161084a575b50604051632474521560e21b815260048101919091526001600160a01b0390911660248201529182908180604481015b03915afa91821561083e578092610806575b50506040519015158152f35b9091508282813d8311610837575b61081e81836118f9565b8101031261022257506108309061191b565b38806107fa565b503d610814565b604051903d90823e3d90fd5b83819492503d8311610876575b61086181836118f9565b810103126102605790518491906107e86107b8565b503d610857565b50346102225780600319360112610222576020600654604051908152f35b5034610222578060031936011261022257600154604051629032ff60e51b81529190602090839060049082906001600160a01b03165afa90811561083e57906108ea575b602090604051908152f35b506020813d8211610914575b81610903602093836118f9565b8101031261026057602090516108df565b3d91506108f6565b5034610222578060031936011261022257805460405163997072f760e01b81529190602090839060049082906001600160a01b03165afa90811561083e57906108ea57602090604051908152f35b5034610222576040366003190112610222578060243560ff8116809103610b0a578154604051635087a34f60e11b81526001600160a01b03918216906020908181600481865afa908115610acc578691610ad7575b50604051632474521560e21b81526004810191909152336024820152908082604481865afa908115610acc578691610a95575b506109fd9150611974565b803b15610a905783809160446040518094819363012232e960e61b8352336004840152600160248401525af190811561026c578491610a7c575b50541690813b15610230578291606483926040519485938492630ce7fb8360e11b8452600435600485015260248401523360448401525af18015610225576102125750f35b610a8590611896565b610230578238610a37565b505050fd5b905081813d8311610ac5575b610aab81836118f9565b8101031261075e57610abf6109fd9161191b565b386109f2565b503d610aa1565b6040513d88823e3d90fd5b82809750819392503d8311610b03575b610af181836118f9565b810103126102605751859490816109bf565b503d610ae7565b50fd5b50346102225780600319360112610222578054604051637c0f6b3560e01b81526001600160a01b03929182908290600490829087165afa908115610225578291610b91575b5060405191602080840190808552835180925280604086019401925b828110610b7b5785850386f35b8351871685529381019392810192600101610b6e565b610bad91503d8084833e610ba581836118f9565b810190611caa565b38610b52565b503461022257604036600319011261022257610bcd611852565b815460405163a217fddf60e01b8152602093926001600160a01b039283169290918581600481875afa80156103985786908690610ce6575b604051632474521560e21b8152600481019190915233602482015291508180604481015b0381875afa908115610398578591610cb1575b5015610c8057839450823b15610a905760448492836040519586948593632b72ee5160e01b855216600484015260243560248401525af18015610225576102125750f35b60405162461bcd60e51b81526004810186905260096024820152682737ba1030b236b4b760b91b6044820152606490fd5b90508581813d8311610cdf575b610cc881836118f9565b8101031261075e57610cd99061191b565b38610c3c565b503d610cbe565b5081813d8311610d0e575b610cfb81836118f9565b810103126102605785610c299151610c05565b503d610cf1565b50346102225760208060031936011261066e5781546040516318feeb1560e31b808252600480359083018190526024959194919391926001600160a01b039283169085818981855afa908115610acc5790610140918791611590575b500151156115545781855260098452604085205442111561151057818552600a845260ff6040862054166114cc57908460049260405193848092637c0f6b3560e01b82525afa9182156103985785926114b0575b50845b82518110156110275783865416610e158686610de48588611d2e565b516040516362d4f89360e01b81526004810188905291166001600160a01b0316602482015291829081906044820190565b0381855afa908115610fac578891610ff2575b5015610e54575b506000198114610e4157600101610dc8565b634e487b7160e01b865260116004528786fd5b84610e5f8386611d2e565b5116813b15610fb75787918a83926040519485938492635d437b8560e11b845260048401525af18015610fd357908791610fde575b5054841684610ea38386611d2e565b5116813b15610fb75760405163a462e50f60e01b8152600481018590526001600160a01b039190911660248201529087908290604490829084905af18015610fd357908791610fbb575b5054841684610efc8386611d2e565b5116813b15610fb75790878092604051928391632b72ee5160e01b8352600483015260038d8301528160449586925af18015610fac57908891610f98575b508080808860015416600554905af1610f51611944565b50610e2f57857f4661696c656420746f2073656e642070656e616c747920746f207661756c7400606492601f8c6040519462461bcd60e51b86526004860152840152820152fd5b610fa190611896565b61075a578638610f3a565b6040513d8a823e3d90fd5b8780fd5b610fc490611896565b610fcf578538610eed565b8580fd5b6040513d89823e3d90fd5b610fe790611896565b610fcf578538610e94565b90508681813d8311611020575b61100981836118f9565b81010312610fb75761101a9061191b565b38610e28565b503d610fff565b508486888587818554169060405194855286600486015285858581855afa948515610acc57869561148c575b5060a0850161107661106b825160c089015190611aec565b60e088015190611aec565b908161145e57505085915b60035483106113e3575082865416803b1561075a578680916044604051809481936332fa518560e21b83528d600484015260018b8401525af18015610fd3579087916113cf575b507fe36f8b7448daff4a52e2945db0d1d7a436279cc1d527a45c27835dcbd27f336d818992a26110f787611d83565b61016085015181815191012061110b611d58565b82815191012003611218575b85965b8652600a815260408620805460ff1916600117905561016085015180519082012090611144611d58565b805191012014611152578480f35b600354116111bb576101c0818554169301511690823b15610a90576044849283600495604051968795869463012232e960e61b8652828601528401525af18015610225576111a7575b50505b80828080808480f35b6111b090611896565b61022257808261119b565b6101c0818554169301511690823b15610a90576044849283600a956040519687958694632b72ee5160e01b865260048601528401525af1801561022557611204575b505061119e565b61120d90611896565b6102225780826111fd565b8451966112606031604051809a70022bc32b1baba34b7b71021b432b1b59d1607d1b86830152611250815180928886860191016119f7565b810103601181018b5201896118f9565b604051976080890189811067ffffffffffffffff8211176113ba57611357899a8a938693604052604782527f566f74652059455320696620746865206f726967696e616c2070726f706f7361848301527f6c2077617320657865637574656420636f72726563746c792c204e4f206f746860408301526632b93bb4b9b29760c91b60608301528885541691896101208d0151169060405192611301846118c0565b83528583015285604083015285606083015260016080830152611322611d58565b60a08301528560c08301528560e083015261010082015260405194858094819363664d54f560e11b8352309060048401611a3f565b03925af1908115610fac578891611389575b5061137660045442611aec565b9088526009835260408820559650611117565b809850838092503d83116113b3575b6113a281836118f9565b810103126102605787965189611369565b503d611398565b86634e487b7160e01b60005260416004526000fd5b6113d890611896565b610fcf5785886110c8565b968787983b15610fb7578780916044604051809481936332fa518560e21b835287600484015260028c8401525af1908115610fac57889161144a575b507fd92fba445edb3153b571e6df782d7a66fd0ce668519273670820ee3a86da0ef4818392a261111a565b61145390611896565b61075a57868961141f565b51606481029080820460641490151715611479570491611081565b634e487b7160e01b885260116004528588fd5b6114a99195503d8088833e6114a181836118f9565b810190611b68565b9387611053565b6114c59192503d8087833e610ba581836118f9565b9038610dc5565b60405162461bcd60e51b815260048101859052601a818901527f50726f706f73616c20616c72656164792066696e616c697a65640000000000006044820152606490fd5b60405162461bcd60e51b8152600481018590526017818901527f566f74696e6720706572696f64206e6f7420656e6465640000000000000000006044820152606490fd5b60405162461bcd60e51b81526004810185905260158189015274139bdd0818481d9bdd1a5b99c81c1c9bdc1bdcd85b605a1b6044820152606490fd5b6115a491503d8089833e6114a181836118f9565b38610d71565b50346102225780600319360112610222576020600754604051908152f35b5034610222578060031936011261022257546040516001600160a01b039091168152602090f35b50346102225780600319360112610222576001546040516001600160a01b039091168152602090f35b50346102225780600319360112610222578054604051635087a34f60e11b808252602093926001600160a01b0316918481600481865afa801561026c578590859061179c575b604051632474521560e21b8152600481019190915233602482015291508180604481015b0381865afa90811561026c578491611767575b5015611733579282936040519081528181600481865afa91821561026c578492611705575b5050813b156102305760405163d547741f60e01b8152600481019190915233602482015291908290604490829084905af18015610225576116f9575080f35b61170290611896565b80f35b90809250813d831161172c575b61171c81836118f9565b81010312610230575138806116ba565b503d611712565b60405162461bcd60e51b815260048101859052600c60248201526b2737ba10309036b2b6b132b960a11b6044820152606490fd5b90508481813d8311611795575b61177e81836118f9565b8101031261035c5761178f9061191b565b38611695565b503d611774565b5081813d83116117c4575b6117b181836118f9565b8101031261035c5784611682915161165e565b503d6117a7565b50346102225780600319360112610222576020600454604051908152f35b50346102225760203660031901126102225760ff60406020926004358152600a84522054166040519015158152f35b50346102225780600319360112610222576020600354604051908152f35b90503461066e578160031936011261066e576020906008548152f35b600435906001600160a01b038216820361026057565b9181601f840112156102605782359167ffffffffffffffff8311610260576020838186019501011161026057565b67ffffffffffffffff81116118aa57604052565b634e487b7160e01b600052604160045260246000fd5b610120810190811067ffffffffffffffff8211176118aa57604052565b6040810190811067ffffffffffffffff8211176118aa57604052565b90601f8019910116810190811067ffffffffffffffff8211176118aa57604052565b5190811515820361026057565b67ffffffffffffffff81116118aa57601f01601f191660200190565b3d1561196f573d9061195582611928565b9161196360405193846118f9565b82523d6000602084013e565b606090565b1561197b57565b60405162461bcd60e51b815260206004820152601b60248201527f44414f3a2043616c6c6572206973206e6f742061206d656d62657200000000006044820152606490fd5b9291926119cc82611928565b916119da60405193846118f9565b829481845281830111610260578281602093846000960137010152565b60005b838110611a0a5750506000910152565b81810151838201526020016119fa565b90602091611a33815180928185528580860191016119f7565b601f01601f1916010190565b9060209093929360408352805190611a6561012092836040870152610160860190611a1a565b611a808483015191603f199283888303016060890152611a1a565b9260408301516080870152611ac460018060a01b039485938460608701511660a08a01526080860151151560c08a015260a0860151908983030160e08a0152611a1a565b9260c081015191610100928389015260e0820151908801520151166101408501529416910152565b91908201809211611af957565b634e487b7160e01b600052601160045260246000fd5b81601f82011215610260578051611b2581611928565b92611b3360405194856118f9565b8184526020828401011161026057611b5191602080850191016119f7565b90565b51906001600160a01b038216820361026057565b9060208282031261026057815167ffffffffffffffff928382116102605701906101e092838383031261026057604051938401848110828211176118aa5760405282518181116102605782611bbe918501611b0f565b845260208301518181116102605782611bd8918501611b0f565b60208501526040838101519085015260608301516001600160a01b03811681036102605760608501526080830151600481101561026057608085015260a083015160a085015260c083015160c085015260e083015160e08501526101008084015190850152610120611c4b818501611b54565b90850152610140611c5d81850161191b565b90850152610160918284015191821161026057611c7b918401611b0f565b9083015261018080820151908301526101a08082015190830152611ca36101c0809201611b54565b9082015290565b90602090818382031261026057825167ffffffffffffffff93848211610260570181601f820112156102605780519384116118aa578360051b9060405194611cf4858401876118f9565b85528380860192820101928311610260578301905b828210611d17575050505090565b838091611d2384611b54565b815201910190611d09565b8051821015611d425760209160051b010190565b634e487b7160e01b600052603260045260246000fd5b60405190611d65826118dd565b600f82526e657865637574696f6e2d636865636b60881b6020830152565b60018060a01b0360009181835416916024846040948551928380926318feeb1560e31b82528760048301525afa9081156121e35785916121c9575b506101608101518051906020917f064209fe56a5ba1791fac474c27dc1b9a6a4977f861d5d2396f722fcf844be9f8383019182206b1d1c99585cdd5c9e4b5bdd5d60a21b858a51611e0e816118dd565b600c8152015203611e6c57505050506002541690813b1561035c578391602483928551968793849263021814f960e41b845260048401525af1918215611e62575050611e575750565b611e6090611896565b565b51903d90823e3d90fd5b7f407aa5060640b5b11bd7a646d2a67db16d0d8062f0162ee0107d6c4df9647d0b825182206a3a3932b0b9bab93c96b4b760a91b858a51611eac816118dd565b600b8152015203611ef557505050506002541690813b1561035c5783916024839285519687938492637026e9fd60e01b845260048401525af1918215611e62575050611e575750565b7f3263cae112f9b06c4fe976e1e563a8899e0058acad03a56562786e4496d29f6b915190206a72756c652d6368616e676560a81b838851611f35816118dd565b600b8152015214611f49575b505050505050565b81518051907f8d7cbff25736090ef6444f570ee8941e761e0637e76a2b77e283ff85ec26489d8382019283206b70617373437269746572696160a01b858a51611f91816118dd565b600c8152015203611ff9575050506101a001516003555b6002541690813b1561035c5783916024839285519687938492636f0d949d60e11b845260048401525af1918215611e62575050611fea575b8080808080611f41565b611ff390611896565b38611fe0565b7fabbfab0bf365e6c544c4bdc8c27846b398ef85deeb99659a1bd1cbbfddbc69a1815183206d3b37ba34b733a23ab930ba34b7b760911b858a5161203c816118dd565b600e8152015203612057575050506101a00151600455611fa8565b7f5b1a74ca49fc06542ef79783aa6db8771703259f73767276192f168bbdfaf8cb815183206c616273656e7450656e616c747960981b858a51612099816118dd565b600d81520152036120b4575050506101a00151600555611fa8565b7f343f1cee2704e73b1859bb1bdd73f8fce853b1f06ea40bd99f16c5c103e913188151832067656e74727946656560c01b858a516120f1816118dd565b6008815201520361210c575050506101a00151600855611fa8565b7f806b2ce9432a34cfc9fdab6b94db5bfcfdd69b0eaa656d83bea17439bebe142d815183206b18dbdd5b9d151bd15e1c195b60a21b858a5161214d816118dd565b600c8152015203612168575050506101a00151600655611fa8565b51902085517f7433394719dfd8fcf3f7ef7662d3d256ff5523945834c1c05aad0d14d49b75b4926b1cd8dbdc99551bd15e1c195b60a21b916121a9816118dd565b600c81520152146121bb575b50611fa8565b6101a00151600755386121b5565b6121dd91503d8087833e6114a181836118f9565b38611dbe565b84513d87823e3d90fdfea2646970667358221220d794925d69d849f5db4a3699f15f4de7b37294dd90871dd5ae83ca4c7f7a68ca64736f6c63430008140033","opcodes":"PUSH1 0x80 CALLVALUE PUSH3 0xD7 JUMPI PUSH1 0x1F PUSH3 0x232B CODESIZE DUP2 SWAP1 SUB SWAP2 DUP3 ADD PUSH1 0x1F NOT AND DUP4 ADD SWAP2 PUSH1 0x1 PUSH1 0x1 PUSH1 0x40 SHL SUB DUP4 GT DUP5 DUP5 LT OR PUSH3 0xDC JUMPI DUP1 DUP5 SWAP3 PUSH1 0x60 SWAP5 PUSH1 0x40 MSTORE DUP4 CODECOPY DUP2 ADD SUB SLT PUSH3 0xD7 JUMPI PUSH3 0x4D DUP2 PUSH3 0xF2 JUMP JUMPDEST SWAP1 PUSH3 0x6A PUSH1 0x40 PUSH3 0x62 PUSH1 0x20 DUP5 ADD PUSH3 0xF2 JUMP JUMPDEST SWAP3 ADD PUSH3 0xF2 JUMP JUMPDEST PUSH1 0x32 PUSH1 0x3 SSTORE PUSH3 0x3F480 PUSH1 0x4 SSTORE PUSH7 0x38D7EA4C68000 PUSH1 0x5 SSTORE PUSH1 0x5 PUSH1 0x6 SSTORE PUSH1 0x14 PUSH1 0x7 SSTORE PUSH7 0x71AFD498D0000 PUSH1 0x8 SSTORE PUSH1 0x1 DUP1 PUSH1 0xA0 SHL SUB DUP1 SWAP3 DUP2 PUSH1 0x1 DUP1 PUSH1 0xA0 SHL SUB NOT SWAP6 AND DUP6 PUSH1 0x0 SLOAD AND OR PUSH1 0x0 SSTORE AND DUP4 PUSH1 0x1 SLOAD AND OR PUSH1 0x1 SSTORE AND SWAP1 PUSH1 0x2 SLOAD AND OR PUSH1 0x2 SSTORE PUSH1 0x40 MLOAD PUSH2 0x2223 SWAP1 DUP2 PUSH3 0x108 DUP3 CODECOPY RETURN JUMPDEST PUSH1 0x0 DUP1 REVERT JUMPDEST PUSH4 0x4E487B71 PUSH1 0xE0 SHL PUSH1 0x0 MSTORE PUSH1 0x41 PUSH1 0x4 MSTORE PUSH1 0x24 PUSH1 0x0 REVERT JUMPDEST MLOAD SWAP1 PUSH1 0x1 PUSH1 0x1 PUSH1 0xA0 SHL SUB DUP3 AND DUP3 SUB PUSH3 0xD7 JUMPI JUMP INVALID PUSH1 0x80 DUP1 PUSH1 0x40 MSTORE PUSH1 0x4 CALLDATASIZE LT ISZERO PUSH2 0x1D JUMPI JUMPDEST POP CALLDATASIZE ISZERO PUSH2 0x1B JUMPI PUSH1 0x0 DUP1 REVERT JUMPDEST STOP JUMPDEST PUSH1 0x0 SWAP1 DUP2 CALLDATALOAD PUSH1 0xE0 SHR SWAP1 DUP2 PUSH4 0x72EA61C EQ PUSH2 0x1836 JUMPI POP DUP1 PUSH4 0xFD2E6F9 EQ PUSH2 0x1818 JUMPI DUP1 PUSH4 0x103616E8 EQ PUSH2 0x17E9 JUMPI DUP1 PUSH4 0x132002FC EQ PUSH2 0x17CB JUMPI DUP1 PUSH4 0x1DE7DF41 EQ PUSH2 0x1618 JUMPI DUP1 PUSH4 0x2274346B EQ PUSH2 0x15EF JUMPI DUP1 PUSH4 0x3AEF3900 EQ PUSH2 0x15C8 JUMPI DUP1 PUSH4 0x52BC9E82 EQ PUSH2 0x15AA JUMPI DUP1 PUSH4 0x5652077C EQ PUSH2 0xD15 JUMPI DUP1 PUSH4 0x57CCE7D4 EQ PUSH2 0xBB3 JUMPI DUP1 PUSH4 0x7C0F6B35 EQ PUSH2 0xB0D JUMPI DUP1 PUSH4 0x943E8216 EQ PUSH2 0x96A JUMPI DUP1 PUSH4 0x997072F7 EQ PUSH2 0x91C JUMPI DUP1 PUSH4 0x9B5655DC EQ PUSH2 0x89B JUMPI DUP1 PUSH4 0x9F1F43AF EQ PUSH2 0x87D JUMPI DUP1 PUSH4 0xA230C524 EQ PUSH2 0x766 JUMPI DUP1 PUSH4 0xBC2914B5 EQ PUSH2 0x414 JUMPI DUP1 PUSH4 0xBDF91DB5 EQ PUSH2 0x3F6 JUMPI DUP1 PUSH4 0xC01F9E37 EQ PUSH2 0x3CC JUMPI DUP1 PUSH4 0xE0E93244 EQ PUSH2 0x3A3 JUMPI PUSH4 0xF63D13D7 SUB PUSH2 0xF JUMPI DUP1 PUSH1 0x3 NOT CALLDATASIZE ADD SLT PUSH2 0x222 JUMPI DUP1 SLOAD PUSH1 0x40 MLOAD PUSH4 0x5087A34F PUSH1 0xE1 SHL DUP1 DUP3 MSTORE PUSH1 0x1 PUSH1 0x1 PUSH1 0xA0 SHL SUB SWAP4 SWAP3 PUSH1 0x20 SWAP3 SWAP1 DUP6 AND SWAP1 DUP4 DUP2 PUSH1 0x4 DUP2 DUP6 GAS STATICCALL SWAP1 DUP2 ISZERO PUSH2 0x398 JUMPI SWAP1 DUP5 SWAP2 DUP7 SWAP2 PUSH2 0x367 JUMPI JUMPDEST POP PUSH1 0x40 MLOAD PUSH4 0x24745215 PUSH1 0xE2 SHL DUP2 MSTORE PUSH1 0x4 DUP2 ADD SWAP2 SWAP1 SWAP2 MSTORE CALLER PUSH1 0x24 DUP3 ADD MSTORE SWAP2 DUP3 SWAP1 DUP2 DUP1 PUSH1 0x44 DUP2 ADD JUMPDEST SUB SWAP2 GAS STATICCALL SWAP1 DUP2 ISZERO PUSH2 0x26C JUMPI DUP5 SWAP2 PUSH2 0x32E JUMPI JUMPDEST POP PUSH2 0x2F6 JUMPI PUSH1 0x8 SLOAD CALLVALUE SUB PUSH2 0x2BC JUMPI DUP3 DUP1 DUP1 DUP1 CALLVALUE DUP9 PUSH1 0x1 SLOAD AND GAS CALL PUSH2 0x1AC PUSH2 0x1944 JUMP JUMPDEST POP ISZERO PUSH2 0x277 JUMPI DUP3 SWAP4 DUP4 SLOAD AND SWAP1 PUSH1 0x40 MLOAD SWAP1 DUP2 MSTORE DUP3 DUP2 PUSH1 0x4 DUP2 DUP6 GAS STATICCALL SWAP3 DUP4 ISZERO PUSH2 0x26C JUMPI DUP5 SWAP4 PUSH2 0x234 JUMPI JUMPDEST POP POP DUP1 EXTCODESIZE ISZERO PUSH2 0x230 JUMPI PUSH1 0x40 MLOAD PUSH4 0x2F2FF15D PUSH1 0xE0 SHL DUP2 MSTORE PUSH1 0x4 DUP2 ADD SWAP3 SWAP1 SWAP3 MSTORE CALLER PUSH1 0x24 DUP4 ADD MSTORE DUP3 SWAP1 DUP3 SWAP1 PUSH1 0x44 SWAP1 DUP3 SWAP1 DUP5 SWAP1 GAS CALL DUP1 ISZERO PUSH2 0x225 JUMPI PUSH2 0x212 JUMPI POP RETURN JUMPDEST PUSH2 0x21B SWAP1 PUSH2 0x1896 JUMP JUMPDEST PUSH2 0x222 JUMPI DUP1 RETURN JUMPDEST DUP1 REVERT JUMPDEST PUSH1 0x40 MLOAD RETURNDATASIZE DUP5 DUP3 RETURNDATACOPY RETURNDATASIZE SWAP1 REVERT JUMPDEST POP POP REVERT JUMPDEST DUP2 SWAP5 POP DUP1 SWAP3 SWAP4 POP RETURNDATASIZE DUP4 GT PUSH2 0x265 JUMPI JUMPDEST PUSH2 0x24D DUP2 DUP4 PUSH2 0x18F9 JUMP JUMPDEST DUP2 ADD SUB SLT PUSH2 0x260 JUMPI DUP3 SWAP2 MLOAD SWAP1 CODESIZE DUP1 PUSH2 0x1D4 JUMP JUMPDEST PUSH1 0x0 DUP1 REVERT JUMPDEST POP RETURNDATASIZE PUSH2 0x243 JUMP JUMPDEST PUSH1 0x40 MLOAD RETURNDATASIZE DUP7 DUP3 RETURNDATACOPY RETURNDATASIZE SWAP1 REVERT JUMPDEST PUSH1 0x40 MLOAD PUSH3 0x461BCD PUSH1 0xE5 SHL DUP2 MSTORE PUSH1 0x4 DUP2 ADD DUP4 SWAP1 MSTORE PUSH1 0x1D PUSH1 0x24 DUP3 ADD MSTORE PUSH32 0x4661696C656420746F2073656E6420457468657220746F207661756C74000000 PUSH1 0x44 DUP3 ADD MSTORE PUSH1 0x64 SWAP1 REVERT JUMPDEST PUSH1 0x40 MLOAD PUSH3 0x461BCD PUSH1 0xE5 SHL DUP2 MSTORE PUSH1 0x4 DUP2 ADD DUP4 SWAP1 MSTORE PUSH1 0x12 PUSH1 0x24 DUP3 ADD MSTORE PUSH18 0x496E636F7272656374206A6F696E20666565 PUSH1 0x70 SHL PUSH1 0x44 DUP3 ADD MSTORE PUSH1 0x64 SWAP1 REVERT JUMPDEST PUSH1 0x40 MLOAD PUSH3 0x461BCD PUSH1 0xE5 SHL DUP2 MSTORE PUSH1 0x4 DUP2 ADD DUP4 SWAP1 MSTORE PUSH1 0x10 PUSH1 0x24 DUP3 ADD MSTORE PUSH16 0x20B63932B0B23C90309036B2B6B132B9 PUSH1 0x81 SHL PUSH1 0x44 DUP3 ADD MSTORE PUSH1 0x64 SWAP1 REVERT JUMPDEST SWAP1 POP DUP3 DUP2 DUP2 RETURNDATASIZE DUP4 GT PUSH2 0x360 JUMPI JUMPDEST PUSH2 0x345 DUP2 DUP4 PUSH2 0x18F9 JUMP JUMPDEST DUP2 ADD SUB SLT PUSH2 0x35C JUMPI PUSH2 0x356 SWAP1 PUSH2 0x191B JUMP JUMPDEST CODESIZE PUSH2 0x18A JUMP JUMPDEST DUP4 DUP1 REVERT JUMPDEST POP RETURNDATASIZE PUSH2 0x33B JUMP JUMPDEST DUP3 DUP2 SWAP4 SWAP3 POP RETURNDATASIZE DUP4 GT PUSH2 0x391 JUMPI JUMPDEST PUSH2 0x37E DUP2 DUP4 PUSH2 0x18F9 JUMP JUMPDEST DUP2 ADD SUB SLT PUSH2 0x260 JUMPI MLOAD DUP4 SWAP1 PUSH2 0x178 PUSH2 0x152 JUMP JUMPDEST POP RETURNDATASIZE PUSH2 0x374 JUMP JUMPDEST PUSH1 0x40 MLOAD RETURNDATASIZE DUP8 DUP3 RETURNDATACOPY RETURNDATASIZE SWAP1 REVERT JUMPDEST POP CALLVALUE PUSH2 0x222 JUMPI DUP1 PUSH1 0x3 NOT CALLDATASIZE ADD SLT PUSH2 0x222 JUMPI PUSH1 0x2 SLOAD PUSH1 0x40 MLOAD PUSH1 0x1 PUSH1 0x1 PUSH1 0xA0 SHL SUB SWAP1 SWAP2 AND DUP2 MSTORE PUSH1 0x20 SWAP1 RETURN JUMPDEST POP CALLVALUE PUSH2 0x222 JUMPI PUSH1 0x20 CALLDATASIZE PUSH1 0x3 NOT ADD SLT PUSH2 0x222 JUMPI PUSH1 0x40 PUSH1 0x20 SWAP2 PUSH1 0x4 CALLDATALOAD DUP2 MSTORE PUSH1 0x9 DUP4 MSTORE KECCAK256 SLOAD PUSH1 0x40 MLOAD SWAP1 DUP2 MSTORE RETURN JUMPDEST POP CALLVALUE PUSH2 0x222 JUMPI DUP1 PUSH1 0x3 NOT CALLDATASIZE ADD SLT PUSH2 0x222 JUMPI PUSH1 0x20 PUSH1 0x5 SLOAD PUSH1 0x40 MLOAD SWAP1 DUP2 MSTORE RETURN JUMPDEST POP CALLVALUE PUSH2 0x222 JUMPI PUSH2 0x120 CALLDATASIZE PUSH1 0x3 NOT ADD SLT PUSH2 0x222 JUMPI PUSH8 0xFFFFFFFFFFFFFFFF PUSH1 0x4 CALLDATALOAD DUP2 DUP2 GT PUSH2 0x762 JUMPI PUSH2 0x448 SWAP1 CALLDATASIZE SWAP1 PUSH1 0x4 ADD PUSH2 0x1868 JUMP JUMPDEST SWAP2 SWAP1 PUSH1 0x24 CALLDATALOAD DUP3 DUP2 GT PUSH2 0x75E JUMPI PUSH2 0x462 SWAP1 CALLDATASIZE SWAP1 PUSH1 0x4 ADD PUSH2 0x1868 JUMP JUMPDEST SWAP4 SWAP1 SWAP3 PUSH1 0x64 CALLDATALOAD SWAP1 PUSH1 0x1 PUSH1 0x1 PUSH1 0xA0 SHL SUB DUP3 AND DUP3 SUB PUSH2 0x75A JUMPI PUSH1 0x84 CALLDATALOAD ISZERO ISZERO PUSH1 0x84 CALLDATALOAD SUB PUSH2 0x75A JUMPI PUSH1 0xA4 CALLDATALOAD SWAP1 DUP2 GT PUSH2 0x75A JUMPI PUSH2 0x49E SWAP1 CALLDATASIZE SWAP1 PUSH1 0x4 ADD PUSH2 0x1868 JUMP JUMPDEST PUSH2 0x104 CALLDATALOAD SWAP3 PUSH1 0x1 PUSH1 0x1 PUSH1 0xA0 SHL SUB DUP5 AND DUP5 SUB PUSH2 0x260 JUMPI DUP9 SLOAD PUSH1 0x40 MLOAD PUSH4 0x5087A34F PUSH1 0xE1 SHL DUP2 MSTORE DUP11 SWAP10 PUSH1 0x1 PUSH1 0x1 PUSH1 0xA0 SHL SUB SWAP1 SWAP3 AND SWAP8 SWAP1 PUSH1 0x20 DUP2 PUSH1 0x4 DUP2 DUP13 GAS STATICCALL SWAP1 DUP2 ISZERO PUSH2 0x717 JUMPI DUP12 SWAP2 PUSH2 0x722 JUMPI JUMPDEST POP PUSH1 0x40 MLOAD PUSH4 0x24745215 PUSH1 0xE2 SHL DUP2 MSTORE PUSH1 0x4 DUP2 ADD SWAP2 SWAP1 SWAP2 MSTORE CALLER PUSH1 0x24 DUP3 ADD MSTORE PUSH1 0x20 DUP2 PUSH1 0x44 DUP2 DUP13 GAS STATICCALL SWAP1 DUP2 ISZERO PUSH2 0x717 JUMPI DUP12 SWAP2 PUSH2 0x6AF JUMPI JUMPDEST POP PUSH1 0x20 SWAP10 PUSH2 0x584 SWAP6 SWAP4 PUSH2 0x550 PUSH2 0x5C8 SWAP12 SWAP11 SWAP10 SWAP9 SWAP7 SWAP5 PUSH2 0x53C PUSH2 0x559 SWAP6 PUSH2 0x1974 JUMP JUMPDEST PUSH1 0x40 MLOAD SWAP11 PUSH2 0x549 DUP13 PUSH2 0x18C0 JUMP JUMPDEST CALLDATASIZE SWAP2 PUSH2 0x19C0 JUMP JUMPDEST DUP10 MSTORE CALLDATASIZE SWAP2 PUSH2 0x19C0 JUMP JUMPDEST DUP7 DUP11 ADD MSTORE PUSH1 0x44 CALLDATALOAD PUSH1 0x40 DUP8 ADD MSTORE PUSH1 0x1 PUSH1 0x1 PUSH1 0xA0 SHL SUB AND PUSH1 0x60 DUP7 ADD MSTORE PUSH1 0x84 CALLDATALOAD ISZERO ISZERO PUSH1 0x80 DUP7 ADD MSTORE CALLDATASIZE SWAP2 PUSH2 0x19C0 JUMP JUMPDEST PUSH1 0xA0 DUP4 ADD MSTORE PUSH1 0xC4 CALLDATALOAD PUSH1 0xC0 DUP4 ADD MSTORE PUSH1 0xE4 CALLDATALOAD PUSH1 0xE0 DUP4 ADD MSTORE PUSH1 0x1 PUSH1 0x1 PUSH1 0xA0 SHL SUB AND PUSH2 0x100 DUP3 ADD MSTORE PUSH1 0x40 MLOAD PUSH4 0x664D54F5 PUSH1 0xE1 SHL DUP2 MSTORE SWAP5 DUP6 SWAP4 DUP5 SWAP3 DUP4 SWAP2 SWAP1 CALLER SWAP1 PUSH1 0x4 DUP5 ADD PUSH2 0x1A3F JUMP JUMPDEST SUB SWAP3 GAS CALL SWAP1 DUP2 ISZERO PUSH2 0x225 JUMPI DUP3 SWAP2 PUSH2 0x67D JUMPI JUMPDEST POP DUP2 SLOAD DUP3 SWAP1 PUSH1 0x1 PUSH1 0x1 PUSH1 0xA0 SHL SUB AND DUP1 EXTCODESIZE ISZERO PUSH2 0x66E JUMPI DUP2 SWAP1 PUSH1 0x44 PUSH1 0x40 MLOAD DUP1 SWAP5 DUP2 SWAP4 PUSH4 0x12232E9 PUSH1 0xE6 SHL DUP4 MSTORE CALLER PUSH1 0x4 DUP5 ADD MSTORE PUSH1 0x3 PUSH1 0x24 DUP5 ADD MSTORE GAS CALL DUP1 ISZERO PUSH2 0x672 JUMPI PUSH2 0x65A JUMPI JUMPDEST POP PUSH1 0x20 SWAP2 PUSH1 0x84 CALLDATALOAD ISZERO PUSH2 0x64B JUMPI PUSH1 0x40 PUSH2 0x638 PUSH1 0x4 SLOAD TIMESTAMP PUSH2 0x1AEC JUMP JUMPDEST SWAP2 DUP4 DUP2 MSTORE PUSH1 0x9 DUP6 MSTORE KECCAK256 SSTORE JUMPDEST PUSH1 0x40 MLOAD SWAP1 DUP2 MSTORE RETURN JUMPDEST POP PUSH2 0x655 DUP2 PUSH2 0x1D83 JUMP JUMPDEST PUSH2 0x643 JUMP JUMPDEST PUSH2 0x664 DUP4 SWAP2 PUSH2 0x1896 JUMP JUMPDEST PUSH2 0x66E JUMPI CODESIZE PUSH2 0x61E JUMP JUMPDEST POP DUP1 REVERT JUMPDEST PUSH1 0x40 MLOAD RETURNDATASIZE DUP6 DUP3 RETURNDATACOPY RETURNDATASIZE SWAP1 REVERT JUMPDEST SWAP1 POP PUSH1 0x20 DUP2 RETURNDATASIZE PUSH1 0x20 GT PUSH2 0x6A7 JUMPI JUMPDEST DUP2 PUSH2 0x698 PUSH1 0x20 SWAP4 DUP4 PUSH2 0x18F9 JUMP JUMPDEST DUP2 ADD SUB SLT PUSH2 0x260 JUMPI MLOAD CODESIZE PUSH2 0x5DA JUMP JUMPDEST RETURNDATASIZE SWAP2 POP PUSH2 0x68B JUMP JUMPDEST SWAP5 SWAP3 SWAP9 SWAP8 SWAP7 SWAP6 SWAP4 SWAP2 SWAP1 POP PUSH1 0x20 DUP6 RETURNDATASIZE PUSH1 0x20 GT PUSH2 0x70F JUMPI JUMPDEST DUP2 PUSH2 0x6D2 PUSH1 0x20 SWAP4 DUP4 PUSH2 0x18F9 JUMP JUMPDEST DUP2 ADD SUB SLT PUSH2 0x70B JUMPI PUSH1 0x20 SWAP10 PUSH2 0x5C8 SWAP10 PUSH2 0x550 PUSH2 0x559 SWAP4 PUSH2 0x53C PUSH2 0x6F7 PUSH2 0x584 SWAP11 PUSH2 0x191B JUMP JUMPDEST SWAP6 POP POP SWAP5 SWAP7 SWAP9 SWAP10 SWAP11 SWAP12 POP POP SWAP4 SWAP6 POP SWAP10 PUSH2 0x51B JUMP JUMPDEST DUP11 DUP1 REVERT JUMPDEST RETURNDATASIZE SWAP2 POP PUSH2 0x6C5 JUMP JUMPDEST PUSH1 0x40 MLOAD RETURNDATASIZE DUP14 DUP3 RETURNDATACOPY RETURNDATASIZE SWAP1 REVERT JUMPDEST SWAP11 POP POP PUSH1 0x20 DUP11 RETURNDATASIZE PUSH1 0x20 GT PUSH2 0x752 JUMPI JUMPDEST DUP2 PUSH2 0x73E PUSH1 0x20 SWAP4 DUP4 PUSH2 0x18F9 JUMP JUMPDEST DUP2 ADD SUB SLT PUSH2 0x260 JUMPI SWAP9 MLOAD DUP11 SWAP10 SWAP1 PUSH1 0x20 PUSH2 0x4E8 JUMP JUMPDEST RETURNDATASIZE SWAP2 POP PUSH2 0x731 JUMP JUMPDEST DUP7 DUP1 REVERT JUMPDEST DUP5 DUP1 REVERT JUMPDEST DUP3 DUP1 REVERT JUMPDEST POP CALLVALUE PUSH2 0x222 JUMPI PUSH1 0x20 SWAP1 DUP2 PUSH1 0x3 NOT CALLDATASIZE ADD SLT PUSH2 0x222 JUMPI PUSH2 0x782 PUSH2 0x1852 JUMP JUMPDEST DUP2 SLOAD PUSH1 0x40 MLOAD PUSH4 0x5087A34F PUSH1 0xE1 SHL DUP2 MSTORE PUSH1 0x1 PUSH1 0x1 PUSH1 0xA0 SHL SUB SWAP1 SWAP2 AND SWAP2 SWAP1 DUP5 DUP2 PUSH1 0x4 DUP2 DUP7 GAS STATICCALL SWAP1 DUP2 ISZERO PUSH2 0x26C JUMPI SWAP1 DUP6 SWAP3 SWAP2 DUP6 SWAP2 PUSH2 0x84A JUMPI JUMPDEST POP PUSH1 0x40 MLOAD PUSH4 0x24745215 PUSH1 0xE2 SHL DUP2 MSTORE PUSH1 0x4 DUP2 ADD SWAP2 SWAP1 SWAP2 MSTORE PUSH1 0x1 PUSH1 0x1 PUSH1 0xA0 SHL SUB SWAP1 SWAP2 AND PUSH1 0x24 DUP3 ADD MSTORE SWAP2 DUP3 SWAP1 DUP2 DUP1 PUSH1 0x44 DUP2 ADD JUMPDEST SUB SWAP2 GAS STATICCALL SWAP2 DUP3 ISZERO PUSH2 0x83E JUMPI DUP1 SWAP3 PUSH2 0x806 JUMPI JUMPDEST POP POP PUSH1 0x40 MLOAD SWAP1 ISZERO ISZERO DUP2 MSTORE RETURN JUMPDEST SWAP1 SWAP2 POP DUP3 DUP3 DUP2 RETURNDATASIZE DUP4 GT PUSH2 0x837 JUMPI JUMPDEST PUSH2 0x81E DUP2 DUP4 PUSH2 0x18F9 JUMP JUMPDEST DUP2 ADD SUB SLT PUSH2 0x222 JUMPI POP PUSH2 0x830 SWAP1 PUSH2 0x191B JUMP JUMPDEST CODESIZE DUP1 PUSH2 0x7FA JUMP JUMPDEST POP RETURNDATASIZE PUSH2 0x814 JUMP JUMPDEST PUSH1 0x40 MLOAD SWAP1 RETURNDATASIZE SWAP1 DUP3 RETURNDATACOPY RETURNDATASIZE SWAP1 REVERT JUMPDEST DUP4 DUP2 SWAP5 SWAP3 POP RETURNDATASIZE DUP4 GT PUSH2 0x876 JUMPI JUMPDEST PUSH2 0x861 DUP2 DUP4 PUSH2 0x18F9 JUMP JUMPDEST DUP2 ADD SUB SLT PUSH2 0x260 JUMPI SWAP1 MLOAD DUP5 SWAP2 SWAP1 PUSH2 0x7E8 PUSH2 0x7B8 JUMP JUMPDEST POP RETURNDATASIZE PUSH2 0x857 JUMP JUMPDEST POP CALLVALUE PUSH2 0x222 JUMPI DUP1 PUSH1 0x3 NOT CALLDATASIZE ADD SLT PUSH2 0x222 JUMPI PUSH1 0x20 PUSH1 0x6 SLOAD PUSH1 0x40 MLOAD SWAP1 DUP2 MSTORE RETURN JUMPDEST POP CALLVALUE PUSH2 0x222 JUMPI DUP1 PUSH1 0x3 NOT CALLDATASIZE ADD SLT PUSH2 0x222 JUMPI PUSH1 0x1 SLOAD PUSH1 0x40 MLOAD PUSH3 0x9032FF PUSH1 0xE5 SHL DUP2 MSTORE SWAP2 SWAP1 PUSH1 0x20 SWAP1 DUP4 SWAP1 PUSH1 0x4 SWAP1 DUP3 SWAP1 PUSH1 0x1 PUSH1 0x1 PUSH1 0xA0 SHL SUB AND GAS STATICCALL SWAP1 DUP2 ISZERO PUSH2 0x83E JUMPI SWAP1 PUSH2 0x8EA JUMPI JUMPDEST PUSH1 0x20 SWAP1 PUSH1 0x40 MLOAD SWAP1 DUP2 MSTORE RETURN JUMPDEST POP PUSH1 0x20 DUP2 RETURNDATASIZE DUP3 GT PUSH2 0x914 JUMPI JUMPDEST DUP2 PUSH2 0x903 PUSH1 0x20 SWAP4 DUP4 PUSH2 0x18F9 JUMP JUMPDEST DUP2 ADD SUB SLT PUSH2 0x260 JUMPI PUSH1 0x20 SWAP1 MLOAD PUSH2 0x8DF JUMP JUMPDEST RETURNDATASIZE SWAP2 POP PUSH2 0x8F6 JUMP JUMPDEST POP CALLVALUE PUSH2 0x222 JUMPI DUP1 PUSH1 0x3 NOT CALLDATASIZE ADD SLT PUSH2 0x222 JUMPI DUP1 SLOAD PUSH1 0x40 MLOAD PUSH4 0x997072F7 PUSH1 0xE0 SHL DUP2 MSTORE SWAP2 SWAP1 PUSH1 0x20 SWAP1 DUP4 SWAP1 PUSH1 0x4 SWAP1 DUP3 SWAP1 PUSH1 0x1 PUSH1 0x1 PUSH1 0xA0 SHL SUB AND GAS STATICCALL SWAP1 DUP2 ISZERO PUSH2 0x83E JUMPI SWAP1 PUSH2 0x8EA JUMPI PUSH1 0x20 SWAP1 PUSH1 0x40 MLOAD SWAP1 DUP2 MSTORE RETURN JUMPDEST POP CALLVALUE PUSH2 0x222 JUMPI PUSH1 0x40 CALLDATASIZE PUSH1 0x3 NOT ADD SLT PUSH2 0x222 JUMPI DUP1 PUSH1 0x24 CALLDATALOAD PUSH1 0xFF DUP2 AND DUP1 SWAP2 SUB PUSH2 0xB0A JUMPI DUP2 SLOAD PUSH1 0x40 MLOAD PUSH4 0x5087A34F PUSH1 0xE1 SHL DUP2 MSTORE PUSH1 0x1 PUSH1 0x1 PUSH1 0xA0 SHL SUB SWAP2 DUP3 AND SWAP1 PUSH1 0x20 SWAP1 DUP2 DUP2 PUSH1 0x4 DUP2 DUP7 GAS STATICCALL SWAP1 DUP2 ISZERO PUSH2 0xACC JUMPI DUP7 SWAP2 PUSH2 0xAD7 JUMPI JUMPDEST POP PUSH1 0x40 MLOAD PUSH4 0x24745215 PUSH1 0xE2 SHL DUP2 MSTORE PUSH1 0x4 DUP2 ADD SWAP2 SWAP1 SWAP2 MSTORE CALLER PUSH1 0x24 DUP3 ADD MSTORE SWAP1 DUP1 DUP3 PUSH1 0x44 DUP2 DUP7 GAS STATICCALL SWAP1 DUP2 ISZERO PUSH2 0xACC JUMPI DUP7 SWAP2 PUSH2 0xA95 JUMPI JUMPDEST POP PUSH2 0x9FD SWAP2 POP PUSH2 0x1974 JUMP JUMPDEST DUP1 EXTCODESIZE ISZERO PUSH2 0xA90 JUMPI DUP4 DUP1 SWAP2 PUSH1 0x44 PUSH1 0x40 MLOAD DUP1 SWAP5 DUP2 SWAP4 PUSH4 0x12232E9 PUSH1 0xE6 SHL DUP4 MSTORE CALLER PUSH1 0x4 DUP5 ADD MSTORE PUSH1 0x1 PUSH1 0x24 DUP5 ADD MSTORE GAS CALL SWAP1 DUP2 ISZERO PUSH2 0x26C JUMPI DUP5 SWAP2 PUSH2 0xA7C JUMPI JUMPDEST POP SLOAD AND SWAP1 DUP2 EXTCODESIZE ISZERO PUSH2 0x230 JUMPI DUP3 SWAP2 PUSH1 0x64 DUP4 SWAP3 PUSH1 0x40 MLOAD SWAP5 DUP6 SWAP4 DUP5 SWAP3 PUSH4 0xCE7FB83 PUSH1 0xE1 SHL DUP5 MSTORE PUSH1 0x4 CALLDATALOAD PUSH1 0x4 DUP6 ADD MSTORE PUSH1 0x24 DUP5 ADD MSTORE CALLER PUSH1 0x44 DUP5 ADD MSTORE GAS CALL DUP1 ISZERO PUSH2 0x225 JUMPI PUSH2 0x212 JUMPI POP RETURN JUMPDEST PUSH2 0xA85 SWAP1 PUSH2 0x1896 JUMP JUMPDEST PUSH2 0x230 JUMPI DUP3 CODESIZE PUSH2 0xA37 JUMP JUMPDEST POP POP POP REVERT JUMPDEST SWAP1 POP DUP2 DUP2 RETURNDATASIZE DUP4 GT PUSH2 0xAC5 JUMPI JUMPDEST PUSH2 0xAAB DUP2 DUP4 PUSH2 0x18F9 JUMP JUMPDEST DUP2 ADD SUB SLT PUSH2 0x75E JUMPI PUSH2 0xABF PUSH2 0x9FD SWAP2 PUSH2 0x191B JUMP JUMPDEST CODESIZE PUSH2 0x9F2 JUMP JUMPDEST POP RETURNDATASIZE PUSH2 0xAA1 JUMP JUMPDEST PUSH1 0x40 MLOAD RETURNDATASIZE DUP9 DUP3 RETURNDATACOPY RETURNDATASIZE SWAP1 REVERT JUMPDEST DUP3 DUP1 SWAP8 POP DUP2 SWAP4 SWAP3 POP RETURNDATASIZE DUP4 GT PUSH2 0xB03 JUMPI JUMPDEST PUSH2 0xAF1 DUP2 DUP4 PUSH2 0x18F9 JUMP JUMPDEST DUP2 ADD SUB SLT PUSH2 0x260 JUMPI MLOAD DUP6 SWAP5 SWAP1 DUP2 PUSH2 0x9BF JUMP JUMPDEST POP RETURNDATASIZE PUSH2 0xAE7 JUMP JUMPDEST POP REVERT JUMPDEST POP CALLVALUE PUSH2 0x222 JUMPI DUP1 PUSH1 0x3 NOT CALLDATASIZE ADD SLT PUSH2 0x222 JUMPI DUP1 SLOAD PUSH1 0x40 MLOAD PUSH4 0x7C0F6B35 PUSH1 0xE0 SHL DUP2 MSTORE PUSH1 0x1 PUSH1 0x1 PUSH1 0xA0 SHL SUB SWAP3 SWAP2 DUP3 SWAP1 DUP3 SWAP1 PUSH1 0x4 SWAP1 DUP3 SWAP1 DUP8 AND GAS STATICCALL SWAP1 DUP2 ISZERO PUSH2 0x225 JUMPI DUP3 SWAP2 PUSH2 0xB91 JUMPI JUMPDEST POP PUSH1 0x40 MLOAD SWAP2 PUSH1 0x20 DUP1 DUP5 ADD SWAP1 DUP1 DUP6 MSTORE DUP4 MLOAD DUP1 SWAP3 MSTORE DUP1 PUSH1 0x40 DUP7 ADD SWAP5 ADD SWAP3 JUMPDEST DUP3 DUP2 LT PUSH2 0xB7B JUMPI DUP6 DUP6 SUB DUP7 RETURN JUMPDEST DUP4 MLOAD DUP8 AND DUP6 MSTORE SWAP4 DUP2 ADD SWAP4 SWAP3 DUP2 ADD SWAP3 PUSH1 0x1 ADD PUSH2 0xB6E JUMP JUMPDEST PUSH2 0xBAD SWAP2 POP RETURNDATASIZE DUP1 DUP5 DUP4 RETURNDATACOPY PUSH2 0xBA5 DUP2 DUP4 PUSH2 0x18F9 JUMP JUMPDEST DUP2 ADD SWAP1 PUSH2 0x1CAA JUMP JUMPDEST CODESIZE PUSH2 0xB52 JUMP JUMPDEST POP CALLVALUE PUSH2 0x222 JUMPI PUSH1 0x40 CALLDATASIZE PUSH1 0x3 NOT ADD SLT PUSH2 0x222 JUMPI PUSH2 0xBCD PUSH2 0x1852 JUMP JUMPDEST DUP2 SLOAD PUSH1 0x40 MLOAD PUSH4 0xA217FDDF PUSH1 0xE0 SHL DUP2 MSTORE PUSH1 0x20 SWAP4 SWAP3 PUSH1 0x1 PUSH1 0x1 PUSH1 0xA0 SHL SUB SWAP3 DUP4 AND SWAP3 SWAP1 SWAP2 DUP6 DUP2 PUSH1 0x4 DUP2 DUP8 GAS STATICCALL DUP1 ISZERO PUSH2 0x398 JUMPI DUP7 SWAP1 DUP7 SWAP1 PUSH2 0xCE6 JUMPI JUMPDEST PUSH1 0x40 MLOAD PUSH4 0x24745215 PUSH1 0xE2 SHL DUP2 MSTORE PUSH1 0x4 DUP2 ADD SWAP2 SWAP1 SWAP2 MSTORE CALLER PUSH1 0x24 DUP3 ADD MSTORE SWAP2 POP DUP2 DUP1 PUSH1 0x44 DUP2 ADD JUMPDEST SUB DUP2 DUP8 GAS STATICCALL SWAP1 DUP2 ISZERO PUSH2 0x398 JUMPI DUP6 SWAP2 PUSH2 0xCB1 JUMPI JUMPDEST POP ISZERO PUSH2 0xC80 JUMPI DUP4 SWAP5 POP DUP3 EXTCODESIZE ISZERO PUSH2 0xA90 JUMPI PUSH1 0x44 DUP5 SWAP3 DUP4 PUSH1 0x40 MLOAD SWAP6 DUP7 SWAP5 DUP6 SWAP4 PUSH4 0x2B72EE51 PUSH1 0xE0 SHL DUP6 MSTORE AND PUSH1 0x4 DUP5 ADD MSTORE PUSH1 0x24 CALLDATALOAD PUSH1 0x24 DUP5 ADD MSTORE GAS CALL DUP1 ISZERO PUSH2 0x225 JUMPI PUSH2 0x212 JUMPI POP RETURN JUMPDEST PUSH1 0x40 MLOAD PUSH3 0x461BCD PUSH1 0xE5 SHL DUP2 MSTORE PUSH1 0x4 DUP2 ADD DUP7 SWAP1 MSTORE PUSH1 0x9 PUSH1 0x24 DUP3 ADD MSTORE PUSH9 0x2737BA1030B236B4B7 PUSH1 0xB9 SHL PUSH1 0x44 DUP3 ADD MSTORE PUSH1 0x64 SWAP1 REVERT JUMPDEST SWAP1 POP DUP6 DUP2 DUP2 RETURNDATASIZE DUP4 GT PUSH2 0xCDF JUMPI JUMPDEST PUSH2 0xCC8 DUP2 DUP4 PUSH2 0x18F9 JUMP JUMPDEST DUP2 ADD SUB SLT PUSH2 0x75E JUMPI PUSH2 0xCD9 SWAP1 PUSH2 0x191B JUMP JUMPDEST CODESIZE PUSH2 0xC3C JUMP JUMPDEST POP RETURNDATASIZE PUSH2 0xCBE JUMP JUMPDEST POP DUP2 DUP2 RETURNDATASIZE DUP4 GT PUSH2 0xD0E JUMPI JUMPDEST PUSH2 0xCFB DUP2 DUP4 PUSH2 0x18F9 JUMP JUMPDEST DUP2 ADD SUB SLT PUSH2 0x260 JUMPI DUP6 PUSH2 0xC29 SWAP2 MLOAD PUSH2 0xC05 JUMP JUMPDEST POP RETURNDATASIZE PUSH2 0xCF1 JUMP JUMPDEST POP CALLVALUE PUSH2 0x222 JUMPI PUSH1 0x20 DUP1 PUSH1 0x3 NOT CALLDATASIZE ADD SLT PUSH2 0x66E JUMPI DUP2 SLOAD PUSH1 0x40 MLOAD PUSH4 0x18FEEB15 PUSH1 0xE3 SHL DUP1 DUP3 MSTORE PUSH1 0x4 DUP1 CALLDATALOAD SWAP1 DUP4 ADD DUP2 SWAP1 MSTORE PUSH1 0x24 SWAP6 SWAP2 SWAP5 SWAP2 SWAP4 SWAP2 SWAP3 PUSH1 0x1 PUSH1 0x1 PUSH1 0xA0 SHL SUB SWAP3 DUP4 AND SWAP1 DUP6 DUP2 DUP10 DUP2 DUP6 GAS STATICCALL SWAP1 DUP2 ISZERO PUSH2 0xACC JUMPI SWAP1 PUSH2 0x140 SWAP2 DUP8 SWAP2 PUSH2 0x1590 JUMPI JUMPDEST POP ADD MLOAD ISZERO PUSH2 0x1554 JUMPI DUP2 DUP6 MSTORE PUSH1 0x9 DUP5 MSTORE PUSH1 0x40 DUP6 KECCAK256 SLOAD TIMESTAMP GT ISZERO PUSH2 0x1510 JUMPI DUP2 DUP6 MSTORE PUSH1 0xA DUP5 MSTORE PUSH1 0xFF PUSH1 0x40 DUP7 KECCAK256 SLOAD AND PUSH2 0x14CC JUMPI SWAP1 DUP5 PUSH1 0x4 SWAP3 PUSH1 0x40 MLOAD SWAP4 DUP5 DUP1 SWAP3 PUSH4 0x7C0F6B35 PUSH1 0xE0 SHL DUP3 MSTORE GAS STATICCALL SWAP2 DUP3 ISZERO PUSH2 0x398 JUMPI DUP6 SWAP3 PUSH2 0x14B0 JUMPI JUMPDEST POP DUP5 JUMPDEST DUP3 MLOAD DUP2 LT ISZERO PUSH2 0x1027 JUMPI DUP4 DUP7 SLOAD AND PUSH2 0xE15 DUP7 DUP7 PUSH2 0xDE4 DUP6 DUP9 PUSH2 0x1D2E JUMP JUMPDEST MLOAD PUSH1 0x40 MLOAD PUSH4 0x62D4F893 PUSH1 0xE0 SHL DUP2 MSTORE PUSH1 0x4 DUP2 ADD DUP9 SWAP1 MSTORE SWAP2 AND PUSH1 0x1 PUSH1 0x1 PUSH1 0xA0 SHL SUB AND PUSH1 0x24 DUP3 ADD MSTORE SWAP2 DUP3 SWAP1 DUP2 SWAP1 PUSH1 0x44 DUP3 ADD SWAP1 JUMP JUMPDEST SUB DUP2 DUP6 GAS STATICCALL SWAP1 DUP2 ISZERO PUSH2 0xFAC JUMPI DUP9 SWAP2 PUSH2 0xFF2 JUMPI JUMPDEST POP ISZERO PUSH2 0xE54 JUMPI JUMPDEST POP PUSH1 0x0 NOT DUP2 EQ PUSH2 0xE41 JUMPI PUSH1 0x1 ADD PUSH2 0xDC8 JUMP JUMPDEST PUSH4 0x4E487B71 PUSH1 0xE0 SHL DUP7 MSTORE PUSH1 0x11 PUSH1 0x4 MSTORE DUP8 DUP7 REVERT JUMPDEST DUP5 PUSH2 0xE5F DUP4 DUP7 PUSH2 0x1D2E JUMP JUMPDEST MLOAD AND DUP2 EXTCODESIZE ISZERO PUSH2 0xFB7 JUMPI DUP8 SWAP2 DUP11 DUP4 SWAP3 PUSH1 0x40 MLOAD SWAP5 DUP6 SWAP4 DUP5 SWAP3 PUSH4 0x5D437B85 PUSH1 0xE1 SHL DUP5 MSTORE PUSH1 0x4 DUP5 ADD MSTORE GAS CALL DUP1 ISZERO PUSH2 0xFD3 JUMPI SWAP1 DUP8 SWAP2 PUSH2 0xFDE JUMPI JUMPDEST POP SLOAD DUP5 AND DUP5 PUSH2 0xEA3 DUP4 DUP7 PUSH2 0x1D2E JUMP JUMPDEST MLOAD AND DUP2 EXTCODESIZE ISZERO PUSH2 0xFB7 JUMPI PUSH1 0x40 MLOAD PUSH4 0xA462E50F PUSH1 0xE0 SHL DUP2 MSTORE PUSH1 0x4 DUP2 ADD DUP6 SWAP1 MSTORE PUSH1 0x1 PUSH1 0x1 PUSH1 0xA0 SHL SUB SWAP2 SWAP1 SWAP2 AND PUSH1 0x24 DUP3 ADD MSTORE SWAP1 DUP8 SWAP1 DUP3 SWAP1 PUSH1 0x44 SWAP1 DUP3 SWAP1 DUP5 SWAP1 GAS CALL DUP1 ISZERO PUSH2 0xFD3 JUMPI SWAP1 DUP8 SWAP2 PUSH2 0xFBB JUMPI JUMPDEST POP SLOAD DUP5 AND DUP5 PUSH2 0xEFC DUP4 DUP7 PUSH2 0x1D2E JUMP JUMPDEST MLOAD AND DUP2 EXTCODESIZE ISZERO PUSH2 0xFB7 JUMPI SWAP1 DUP8 DUP1 SWAP3 PUSH1 0x40 MLOAD SWAP3 DUP4 SWAP2 PUSH4 0x2B72EE51 PUSH1 0xE0 SHL DUP4 MSTORE PUSH1 0x4 DUP4 ADD MSTORE PUSH1 0x3 DUP14 DUP4 ADD MSTORE DUP2 PUSH1 0x44 SWAP6 DUP7 SWAP3 GAS CALL DUP1 ISZERO PUSH2 0xFAC JUMPI SWAP1 DUP9 SWAP2 PUSH2 0xF98 JUMPI JUMPDEST POP DUP1 DUP1 DUP1 DUP9 PUSH1 0x1 SLOAD AND PUSH1 0x5 SLOAD SWAP1 GAS CALL PUSH2 0xF51 PUSH2 0x1944 JUMP JUMPDEST POP PUSH2 0xE2F JUMPI DUP6 PUSH32 0x4661696C656420746F2073656E642070656E616C747920746F207661756C7400 PUSH1 0x64 SWAP3 PUSH1 0x1F DUP13 PUSH1 0x40 MLOAD SWAP5 PUSH3 0x461BCD PUSH1 0xE5 SHL DUP7 MSTORE PUSH1 0x4 DUP7 ADD MSTORE DUP5 ADD MSTORE DUP3 ADD MSTORE REVERT JUMPDEST PUSH2 0xFA1 SWAP1 PUSH2 0x1896 JUMP JUMPDEST PUSH2 0x75A JUMPI DUP7 CODESIZE PUSH2 0xF3A JUMP JUMPDEST PUSH1 0x40 MLOAD RETURNDATASIZE DUP11 DUP3 RETURNDATACOPY RETURNDATASIZE SWAP1 REVERT JUMPDEST DUP8 DUP1 REVERT JUMPDEST PUSH2 0xFC4 SWAP1 PUSH2 0x1896 JUMP JUMPDEST PUSH2 0xFCF JUMPI DUP6 CODESIZE PUSH2 0xEED JUMP JUMPDEST DUP6 DUP1 REVERT JUMPDEST PUSH1 0x40 MLOAD RETURNDATASIZE DUP10 DUP3 RETURNDATACOPY RETURNDATASIZE SWAP1 REVERT JUMPDEST PUSH2 0xFE7 SWAP1 PUSH2 0x1896 JUMP JUMPDEST PUSH2 0xFCF JUMPI DUP6 CODESIZE PUSH2 0xE94 JUMP JUMPDEST SWAP1 POP DUP7 DUP2 DUP2 RETURNDATASIZE DUP4 GT PUSH2 0x1020 JUMPI JUMPDEST PUSH2 0x1009 DUP2 DUP4 PUSH2 0x18F9 JUMP JUMPDEST DUP2 ADD SUB SLT PUSH2 0xFB7 JUMPI PUSH2 0x101A SWAP1 PUSH2 0x191B JUMP JUMPDEST CODESIZE PUSH2 0xE28 JUMP JUMPDEST POP RETURNDATASIZE PUSH2 0xFFF JUMP JUMPDEST POP DUP5 DUP7 DUP9 DUP6 DUP8 DUP2 DUP6 SLOAD AND SWAP1 PUSH1 0x40 MLOAD SWAP5 DUP6 MSTORE DUP7 PUSH1 0x4 DUP7 ADD MSTORE DUP6 DUP6 DUP6 DUP2 DUP6 GAS STATICCALL SWAP5 DUP6 ISZERO PUSH2 0xACC JUMPI DUP7 SWAP6 PUSH2 0x148C JUMPI JUMPDEST POP PUSH1 0xA0 DUP6 ADD PUSH2 0x1076 PUSH2 0x106B DUP3 MLOAD PUSH1 0xC0 DUP10 ADD MLOAD SWAP1 PUSH2 0x1AEC JUMP JUMPDEST PUSH1 0xE0 DUP9 ADD MLOAD SWAP1 PUSH2 0x1AEC JUMP JUMPDEST SWAP1 DUP2 PUSH2 0x145E JUMPI POP POP DUP6 SWAP2 JUMPDEST PUSH1 0x3 SLOAD DUP4 LT PUSH2 0x13E3 JUMPI POP DUP3 DUP7 SLOAD AND DUP1 EXTCODESIZE ISZERO PUSH2 0x75A JUMPI DUP7 DUP1 SWAP2 PUSH1 0x44 PUSH1 0x40 MLOAD DUP1 SWAP5 DUP2 SWAP4 PUSH4 0x32FA5185 PUSH1 0xE2 SHL DUP4 MSTORE DUP14 PUSH1 0x4 DUP5 ADD MSTORE PUSH1 0x1 DUP12 DUP5 ADD MSTORE GAS CALL DUP1 ISZERO PUSH2 0xFD3 JUMPI SWAP1 DUP8 SWAP2 PUSH2 0x13CF JUMPI JUMPDEST POP PUSH32 0xE36F8B7448DAFF4A52E2945DB0D1D7A436279CC1D527A45C27835DCBD27F336D DUP2 DUP10 SWAP3 LOG2 PUSH2 0x10F7 DUP8 PUSH2 0x1D83 JUMP JUMPDEST PUSH2 0x160 DUP6 ADD MLOAD DUP2 DUP2 MLOAD SWAP2 ADD KECCAK256 PUSH2 0x110B PUSH2 0x1D58 JUMP JUMPDEST DUP3 DUP2 MLOAD SWAP2 ADD KECCAK256 SUB PUSH2 0x1218 JUMPI JUMPDEST DUP6 SWAP7 JUMPDEST DUP7 MSTORE PUSH1 0xA DUP2 MSTORE PUSH1 0x40 DUP7 KECCAK256 DUP1 SLOAD PUSH1 0xFF NOT AND PUSH1 0x1 OR SWAP1 SSTORE PUSH2 0x160 DUP6 ADD MLOAD DUP1 MLOAD SWAP1 DUP3 ADD KECCAK256 SWAP1 PUSH2 0x1144 PUSH2 0x1D58 JUMP JUMPDEST DUP1 MLOAD SWAP2 ADD KECCAK256 EQ PUSH2 0x1152 JUMPI DUP5 DUP1 RETURN JUMPDEST PUSH1 0x3 SLOAD GT PUSH2 0x11BB JUMPI PUSH2 0x1C0 DUP2 DUP6 SLOAD AND SWAP4 ADD MLOAD AND SWAP1 DUP3 EXTCODESIZE ISZERO PUSH2 0xA90 JUMPI PUSH1 0x44 DUP5 SWAP3 DUP4 PUSH1 0x4 SWAP6 PUSH1 0x40 MLOAD SWAP7 DUP8 SWAP6 DUP7 SWAP5 PUSH4 0x12232E9 PUSH1 0xE6 SHL DUP7 MSTORE DUP3 DUP7 ADD MSTORE DUP5 ADD MSTORE GAS CALL DUP1 ISZERO PUSH2 0x225 JUMPI PUSH2 0x11A7 JUMPI JUMPDEST POP POP JUMPDEST DUP1 DUP3 DUP1 DUP1 DUP1 DUP5 DUP1 RETURN JUMPDEST PUSH2 0x11B0 SWAP1 PUSH2 0x1896 JUMP JUMPDEST PUSH2 0x222 JUMPI DUP1 DUP3 PUSH2 0x119B JUMP JUMPDEST PUSH2 0x1C0 DUP2 DUP6 SLOAD AND SWAP4 ADD MLOAD AND SWAP1 DUP3 EXTCODESIZE ISZERO PUSH2 0xA90 JUMPI PUSH1 0x44 DUP5 SWAP3 DUP4 PUSH1 0xA SWAP6 PUSH1 0x40 MLOAD SWAP7 DUP8 SWAP6 DUP7 SWAP5 PUSH4 0x2B72EE51 PUSH1 0xE0 SHL DUP7 MSTORE PUSH1 0x4 DUP7 ADD MSTORE DUP5 ADD MSTORE GAS CALL DUP1 ISZERO PUSH2 0x225 JUMPI PUSH2 0x1204 JUMPI JUMPDEST POP POP PUSH2 0x119E JUMP JUMPDEST PUSH2 0x120D SWAP1 PUSH2 0x1896 JUMP JUMPDEST PUSH2 0x222 JUMPI DUP1 DUP3 PUSH2 0x11FD JUMP JUMPDEST DUP5 MLOAD SWAP7 PUSH2 0x1260 PUSH1 0x31 PUSH1 0x40 MLOAD DUP1 SWAP11 PUSH17 0x22BC32B1BABA34B7B71021B432B1B59D1 PUSH1 0x7D SHL DUP7 DUP4 ADD MSTORE PUSH2 0x1250 DUP2 MLOAD DUP1 SWAP3 DUP9 DUP7 DUP7 ADD SWAP2 ADD PUSH2 0x19F7 JUMP JUMPDEST DUP2 ADD SUB PUSH1 0x11 DUP2 ADD DUP12 MSTORE ADD DUP10 PUSH2 0x18F9 JUMP JUMPDEST PUSH1 0x40 MLOAD SWAP8 PUSH1 0x80 DUP10 ADD DUP10 DUP2 LT PUSH8 0xFFFFFFFFFFFFFFFF DUP3 GT OR PUSH2 0x13BA JUMPI PUSH2 0x1357 DUP10 SWAP11 DUP11 SWAP4 DUP7 SWAP4 PUSH1 0x40 MSTORE PUSH1 0x47 DUP3 MSTORE PUSH32 0x566F74652059455320696620746865206F726967696E616C2070726F706F7361 DUP5 DUP4 ADD MSTORE PUSH32 0x6C2077617320657865637574656420636F72726563746C792C204E4F206F7468 PUSH1 0x40 DUP4 ADD MSTORE PUSH7 0x32B93BB4B9B297 PUSH1 0xC9 SHL PUSH1 0x60 DUP4 ADD MSTORE DUP9 DUP6 SLOAD AND SWAP2 DUP10 PUSH2 0x120 DUP14 ADD MLOAD AND SWAP1 PUSH1 0x40 MLOAD SWAP3 PUSH2 0x1301 DUP5 PUSH2 0x18C0 JUMP JUMPDEST DUP4 MSTORE DUP6 DUP4 ADD MSTORE DUP6 PUSH1 0x40 DUP4 ADD MSTORE DUP6 PUSH1 0x60 DUP4 ADD MSTORE PUSH1 0x1 PUSH1 0x80 DUP4 ADD MSTORE PUSH2 0x1322 PUSH2 0x1D58 JUMP JUMPDEST PUSH1 0xA0 DUP4 ADD MSTORE DUP6 PUSH1 0xC0 DUP4 ADD MSTORE DUP6 PUSH1 0xE0 DUP4 ADD MSTORE PUSH2 0x100 DUP3 ADD MSTORE PUSH1 0x40 MLOAD SWAP5 DUP6 DUP1 SWAP5 DUP2 SWAP4 PUSH4 0x664D54F5 PUSH1 0xE1 SHL DUP4 MSTORE ADDRESS SWAP1 PUSH1 0x4 DUP5 ADD PUSH2 0x1A3F JUMP JUMPDEST SUB SWAP3 GAS CALL SWAP1 DUP2 ISZERO PUSH2 0xFAC JUMPI DUP9 SWAP2 PUSH2 0x1389 JUMPI JUMPDEST POP PUSH2 0x1376 PUSH1 0x4 SLOAD TIMESTAMP PUSH2 0x1AEC JUMP JUMPDEST SWAP1 DUP9 MSTORE PUSH1 0x9 DUP4 MSTORE PUSH1 0x40 DUP9 KECCAK256 SSTORE SWAP7 POP PUSH2 0x1117 JUMP JUMPDEST DUP1 SWAP9 POP DUP4 DUP1 SWAP3 POP RETURNDATASIZE DUP4 GT PUSH2 0x13B3 JUMPI JUMPDEST PUSH2 0x13A2 DUP2 DUP4 PUSH2 0x18F9 JUMP JUMPDEST DUP2 ADD SUB SLT PUSH2 0x260 JUMPI DUP8 SWAP7 MLOAD DUP10 PUSH2 0x1369 JUMP JUMPDEST POP RETURNDATASIZE PUSH2 0x1398 JUMP JUMPDEST DUP7 PUSH4 0x4E487B71 PUSH1 0xE0 SHL PUSH1 0x0 MSTORE PUSH1 0x41 PUSH1 0x4 MSTORE PUSH1 0x0 REVERT JUMPDEST PUSH2 0x13D8 SWAP1 PUSH2 0x1896 JUMP JUMPDEST PUSH2 0xFCF JUMPI DUP6 DUP9 PUSH2 0x10C8 JUMP JUMPDEST SWAP7 DUP8 DUP8 SWAP9 EXTCODESIZE ISZERO PUSH2 0xFB7 JUMPI DUP8 DUP1 SWAP2 PUSH1 0x44 PUSH1 0x40 MLOAD DUP1 SWAP5 DUP2 SWAP4 PUSH4 0x32FA5185 PUSH1 0xE2 SHL DUP4 MSTORE DUP8 PUSH1 0x4 DUP5 ADD MSTORE PUSH1 0x2 DUP13 DUP5 ADD MSTORE GAS CALL SWAP1 DUP2 ISZERO PUSH2 0xFAC JUMPI DUP9 SWAP2 PUSH2 0x144A JUMPI JUMPDEST POP PUSH32 0xD92FBA445EDB3153B571E6DF782D7A66FD0CE668519273670820EE3A86DA0EF4 DUP2 DUP4 SWAP3 LOG2 PUSH2 0x111A JUMP JUMPDEST PUSH2 0x1453 SWAP1 PUSH2 0x1896 JUMP JUMPDEST PUSH2 0x75A JUMPI DUP7 DUP10 PUSH2 0x141F JUMP JUMPDEST MLOAD PUSH1 0x64 DUP2 MUL SWAP1 DUP1 DUP3 DIV PUSH1 0x64 EQ SWAP1 ISZERO OR ISZERO PUSH2 0x1479 JUMPI DIV SWAP2 PUSH2 0x1081 JUMP JUMPDEST PUSH4 0x4E487B71 PUSH1 0xE0 SHL DUP9 MSTORE PUSH1 0x11 PUSH1 0x4 MSTORE DUP6 DUP9 REVERT JUMPDEST PUSH2 0x14A9 SWAP2 SWAP6 POP RETURNDATASIZE DUP1 DUP9 DUP4 RETURNDATACOPY PUSH2 0x14A1 DUP2 DUP4 PUSH2 0x18F9 JUMP JUMPDEST DUP2 ADD SWAP1 PUSH2 0x1B68 JUMP JUMPDEST SWAP4 DUP8 PUSH2 0x1053 JUMP JUMPDEST PUSH2 0x14C5 SWAP2 SWAP3 POP RETURNDATASIZE DUP1 DUP8 DUP4 RETURNDATACOPY PUSH2 0xBA5 DUP2 DUP4 PUSH2 0x18F9 JUMP JUMPDEST SWAP1 CODESIZE PUSH2 0xDC5 JUMP JUMPDEST PUSH1 0x40 MLOAD PUSH3 0x461BCD PUSH1 0xE5 SHL DUP2 MSTORE PUSH1 0x4 DUP2 ADD DUP6 SWAP1 MSTORE PUSH1 0x1A DUP2 DUP10 ADD MSTORE PUSH32 0x50726F706F73616C20616C72656164792066696E616C697A6564000000000000 PUSH1 0x44 DUP3 ADD MSTORE PUSH1 0x64 SWAP1 REVERT JUMPDEST PUSH1 0x40 MLOAD PUSH3 0x461BCD PUSH1 0xE5 SHL DUP2 MSTORE PUSH1 0x4 DUP2 ADD DUP6 SWAP1 MSTORE PUSH1 0x17 DUP2 DUP10 ADD MSTORE PUSH32 0x566F74696E6720706572696F64206E6F7420656E646564000000000000000000 PUSH1 0x44 DUP3 ADD MSTORE PUSH1 0x64 SWAP1 REVERT JUMPDEST PUSH1 0x40 MLOAD PUSH3 0x461BCD PUSH1 0xE5 SHL DUP2 MSTORE PUSH1 0x4 DUP2 ADD DUP6 SWAP1 MSTORE PUSH1 0x15 DUP2 DUP10 ADD MSTORE PUSH21 0x139BDD0818481D9BDD1A5B99C81C1C9BDC1BDCD85B PUSH1 0x5A SHL PUSH1 0x44 DUP3 ADD MSTORE PUSH1 0x64 SWAP1 REVERT JUMPDEST PUSH2 0x15A4 SWAP2 POP RETURNDATASIZE DUP1 DUP10 DUP4 RETURNDATACOPY PUSH2 0x14A1 DUP2 DUP4 PUSH2 0x18F9 JUMP JUMPDEST CODESIZE PUSH2 0xD71 JUMP JUMPDEST POP CALLVALUE PUSH2 0x222 JUMPI DUP1 PUSH1 0x3 NOT CALLDATASIZE ADD SLT PUSH2 0x222 JUMPI PUSH1 0x20 PUSH1 0x7 SLOAD PUSH1 0x40 MLOAD SWAP1 DUP2 MSTORE RETURN JUMPDEST POP CALLVALUE PUSH2 0x222 JUMPI DUP1 PUSH1 0x3 NOT CALLDATASIZE ADD SLT PUSH2 0x222 JUMPI SLOAD PUSH1 0x40 MLOAD PUSH1 0x1 PUSH1 0x1 PUSH1 0xA0 SHL SUB SWAP1 SWAP2 AND DUP2 MSTORE PUSH1 0x20 SWAP1 RETURN JUMPDEST POP CALLVALUE PUSH2 0x222 JUMPI DUP1 PUSH1 0x3 NOT CALLDATASIZE ADD SLT PUSH2 0x222 JUMPI PUSH1 0x1 SLOAD PUSH1 0x40 MLOAD PUSH1 0x1 PUSH1 0x1 PUSH1 0xA0 SHL SUB SWAP1 SWAP2 AND DUP2 MSTORE PUSH1 0x20 SWAP1 RETURN JUMPDEST POP CALLVALUE PUSH2 0x222 JUMPI DUP1 PUSH1 0x3 NOT CALLDATASIZE ADD SLT PUSH2 0x222 JUMPI DUP1 SLOAD PUSH1 0x40 MLOAD PUSH4 0x5087A34F PUSH1 0xE1 SHL DUP1 DUP3 MSTORE PUSH1 0x20 SWAP4 SWAP3 PUSH1 0x1 PUSH1 0x1 PUSH1 0xA0 SHL SUB AND SWAP2 DUP5 DUP2 PUSH1 0x4 DUP2 DUP7 GAS STATICCALL DUP1 ISZERO PUSH2 0x26C JUMPI DUP6 SWAP1 DUP6 SWAP1 PUSH2 0x179C JUMPI JUMPDEST PUSH1 0x40 MLOAD PUSH4 0x24745215 PUSH1 0xE2 SHL DUP2 MSTORE PUSH1 0x4 DUP2 ADD SWAP2 SWAP1 SWAP2 MSTORE CALLER PUSH1 0x24 DUP3 ADD MSTORE SWAP2 POP DUP2 DUP1 PUSH1 0x44 DUP2 ADD JUMPDEST SUB DUP2 DUP7 GAS STATICCALL SWAP1 DUP2 ISZERO PUSH2 0x26C JUMPI DUP5 SWAP2 PUSH2 0x1767 JUMPI JUMPDEST POP ISZERO PUSH2 0x1733 JUMPI SWAP3 DUP3 SWAP4 PUSH1 0x40 MLOAD SWAP1 DUP2 MSTORE DUP2 DUP2 PUSH1 0x4 DUP2 DUP7 GAS STATICCALL SWAP2 DUP3 ISZERO PUSH2 0x26C JUMPI DUP5 SWAP3 PUSH2 0x1705 JUMPI JUMPDEST POP POP DUP2 EXTCODESIZE ISZERO PUSH2 0x230 JUMPI PUSH1 0x40 MLOAD PUSH4 0xD547741F PUSH1 0xE0 SHL DUP2 MSTORE PUSH1 0x4 DUP2 ADD SWAP2 SWAP1 SWAP2 MSTORE CALLER PUSH1 0x24 DUP3 ADD MSTORE SWAP2 SWAP1 DUP3 SWAP1 PUSH1 0x44 SWAP1 DUP3 SWAP1 DUP5 SWAP1 GAS CALL DUP1 ISZERO PUSH2 0x225 JUMPI PUSH2 0x16F9 JUMPI POP DUP1 RETURN JUMPDEST PUSH2 0x1702 SWAP1 PUSH2 0x1896 JUMP JUMPDEST DUP1 RETURN JUMPDEST SWAP1 DUP1 SWAP3 POP DUP2 RETURNDATASIZE DUP4 GT PUSH2 0x172C JUMPI JUMPDEST PUSH2 0x171C DUP2 DUP4 PUSH2 0x18F9 JUMP JUMPDEST DUP2 ADD SUB SLT PUSH2 0x230 JUMPI MLOAD CODESIZE DUP1 PUSH2 0x16BA JUMP JUMPDEST POP RETURNDATASIZE PUSH2 0x1712 JUMP JUMPDEST PUSH1 0x40 MLOAD PUSH3 0x461BCD PUSH1 0xE5 SHL DUP2 MSTORE PUSH1 0x4 DUP2 ADD DUP6 SWAP1 MSTORE PUSH1 0xC PUSH1 0x24 DUP3 ADD MSTORE PUSH12 0x2737BA10309036B2B6B132B9 PUSH1 0xA1 SHL PUSH1 0x44 DUP3 ADD MSTORE PUSH1 0x64 SWAP1 REVERT JUMPDEST SWAP1 POP DUP5 DUP2 DUP2 RETURNDATASIZE DUP4 GT PUSH2 0x1795 JUMPI JUMPDEST PUSH2 0x177E DUP2 DUP4 PUSH2 0x18F9 JUMP JUMPDEST DUP2 ADD SUB SLT PUSH2 0x35C JUMPI PUSH2 0x178F SWAP1 PUSH2 0x191B JUMP JUMPDEST CODESIZE PUSH2 0x1695 JUMP JUMPDEST POP RETURNDATASIZE PUSH2 0x1774 JUMP JUMPDEST POP DUP2 DUP2 RETURNDATASIZE DUP4 GT PUSH2 0x17C4 JUMPI JUMPDEST PUSH2 0x17B1 DUP2 DUP4 PUSH2 0x18F9 JUMP JUMPDEST DUP2 ADD SUB SLT PUSH2 0x35C JUMPI DUP5 PUSH2 0x1682 SWAP2 MLOAD PUSH2 0x165E JUMP JUMPDEST POP RETURNDATASIZE PUSH2 0x17A7 JUMP JUMPDEST POP CALLVALUE PUSH2 0x222 JUMPI DUP1 PUSH1 0x3 NOT CALLDATASIZE ADD SLT PUSH2 0x222 JUMPI PUSH1 0x20 PUSH1 0x4 SLOAD PUSH1 0x40 MLOAD SWAP1 DUP2 MSTORE RETURN JUMPDEST POP CALLVALUE PUSH2 0x222 JUMPI PUSH1 0x20 CALLDATASIZE PUSH1 0x3 NOT ADD SLT PUSH2 0x222 JUMPI PUSH1 0xFF PUSH1 0x40 PUSH1 0x20 SWAP3 PUSH1 0x4 CALLDATALOAD DUP2 MSTORE PUSH1 0xA DUP5 MSTORE KECCAK256 SLOAD AND PUSH1 0x40 MLOAD SWAP1 ISZERO ISZERO DUP2 MSTORE RETURN JUMPDEST POP CALLVALUE PUSH2 0x222 JUMPI DUP1 PUSH1 0x3 NOT CALLDATASIZE ADD SLT PUSH2 0x222 JUMPI PUSH1 0x20 PUSH1 0x3 SLOAD PUSH1 0x40 MLOAD SWAP1 DUP2 MSTORE RETURN JUMPDEST SWAP1 POP CALLVALUE PUSH2 0x66E JUMPI DUP2 PUSH1 0x3 NOT CALLDATASIZE ADD SLT PUSH2 0x66E JUMPI PUSH1 0x20 SWAP1 PUSH1 0x8 SLOAD DUP2 MSTORE RETURN JUMPDEST PUSH1 0x4 CALLDATALOAD SWAP1 PUSH1 0x1 PUSH1 0x1 PUSH1 0xA0 SHL SUB DUP3 AND DUP3 SUB PUSH2 0x260 JUMPI JUMP JUMPDEST SWAP2 DUP2 PUSH1 0x1F DUP5 ADD SLT ISZERO PUSH2 0x260 JUMPI DUP3 CALLDATALOAD SWAP2 PUSH8 0xFFFFFFFFFFFFFFFF DUP4 GT PUSH2 0x260 JUMPI PUSH1 0x20 DUP4 DUP2 DUP7 ADD SWAP6 ADD ADD GT PUSH2 0x260 JUMPI JUMP JUMPDEST PUSH8 0xFFFFFFFFFFFFFFFF DUP2 GT PUSH2 0x18AA JUMPI PUSH1 0x40 MSTORE JUMP JUMPDEST PUSH4 0x4E487B71 PUSH1 0xE0 SHL PUSH1 0x0 MSTORE PUSH1 0x41 PUSH1 0x4 MSTORE PUSH1 0x24 PUSH1 0x0 REVERT JUMPDEST PUSH2 0x120 DUP2 ADD SWAP1 DUP2 LT PUSH8 0xFFFFFFFFFFFFFFFF DUP3 GT OR PUSH2 0x18AA JUMPI PUSH1 0x40 MSTORE JUMP JUMPDEST PUSH1 0x40 DUP2 ADD SWAP1 DUP2 LT PUSH8 0xFFFFFFFFFFFFFFFF DUP3 GT OR PUSH2 0x18AA JUMPI PUSH1 0x40 MSTORE JUMP JUMPDEST SWAP1 PUSH1 0x1F DUP1 NOT SWAP2 ADD AND DUP2 ADD SWAP1 DUP2 LT PUSH8 0xFFFFFFFFFFFFFFFF DUP3 GT OR PUSH2 0x18AA JUMPI PUSH1 0x40 MSTORE JUMP JUMPDEST MLOAD SWAP1 DUP2 ISZERO ISZERO DUP3 SUB PUSH2 0x260 JUMPI JUMP JUMPDEST PUSH8 0xFFFFFFFFFFFFFFFF DUP2 GT PUSH2 0x18AA JUMPI PUSH1 0x1F ADD PUSH1 0x1F NOT AND PUSH1 0x20 ADD SWAP1 JUMP JUMPDEST RETURNDATASIZE ISZERO PUSH2 0x196F JUMPI RETURNDATASIZE SWAP1 PUSH2 0x1955 DUP3 PUSH2 0x1928 JUMP JUMPDEST SWAP2 PUSH2 0x1963 PUSH1 0x40 MLOAD SWAP4 DUP5 PUSH2 0x18F9 JUMP JUMPDEST DUP3 MSTORE RETURNDATASIZE PUSH1 0x0 PUSH1 0x20 DUP5 ADD RETURNDATACOPY JUMP JUMPDEST PUSH1 0x60 SWAP1 JUMP JUMPDEST ISZERO PUSH2 0x197B JUMPI JUMP JUMPDEST PUSH1 0x40 MLOAD PUSH3 0x461BCD PUSH1 0xE5 SHL DUP2 MSTORE PUSH1 0x20 PUSH1 0x4 DUP3 ADD MSTORE PUSH1 0x1B PUSH1 0x24 DUP3 ADD MSTORE PUSH32 0x44414F3A2043616C6C6572206973206E6F742061206D656D6265720000000000 PUSH1 0x44 DUP3 ADD MSTORE PUSH1 0x64 SWAP1 REVERT JUMPDEST SWAP3 SWAP2 SWAP3 PUSH2 0x19CC DUP3 PUSH2 0x1928 JUMP JUMPDEST SWAP2 PUSH2 0x19DA PUSH1 0x40 MLOAD SWAP4 DUP5 PUSH2 0x18F9 JUMP JUMPDEST DUP3 SWAP5 DUP2 DUP5 MSTORE DUP2 DUP4 ADD GT PUSH2 0x260 JUMPI DUP3 DUP2 PUSH1 0x20 SWAP4 DUP5 PUSH1 0x0 SWAP7 ADD CALLDATACOPY ADD ADD MSTORE JUMP JUMPDEST PUSH1 0x0 JUMPDEST DUP4 DUP2 LT PUSH2 0x1A0A JUMPI POP POP PUSH1 0x0 SWAP2 ADD MSTORE JUMP JUMPDEST DUP2 DUP2 ADD MLOAD DUP4 DUP3 ADD MSTORE PUSH1 0x20 ADD PUSH2 0x19FA JUMP JUMPDEST SWAP1 PUSH1 0x20 SWAP2 PUSH2 0x1A33 DUP2 MLOAD DUP1 SWAP3 DUP2 DUP6 MSTORE DUP6 DUP1 DUP7 ADD SWAP2 ADD PUSH2 0x19F7 JUMP JUMPDEST PUSH1 0x1F ADD PUSH1 0x1F NOT AND ADD ADD SWAP1 JUMP JUMPDEST SWAP1 PUSH1 0x20 SWAP1 SWAP4 SWAP3 SWAP4 PUSH1 0x40 DUP4 MSTORE DUP1 MLOAD SWAP1 PUSH2 0x1A65 PUSH2 0x120 SWAP3 DUP4 PUSH1 0x40 DUP8 ADD MSTORE PUSH2 0x160 DUP7 ADD SWAP1 PUSH2 0x1A1A JUMP JUMPDEST PUSH2 0x1A80 DUP5 DUP4 ADD MLOAD SWAP2 PUSH1 0x3F NOT SWAP3 DUP4 DUP9 DUP4 SUB ADD PUSH1 0x60 DUP10 ADD MSTORE PUSH2 0x1A1A JUMP JUMPDEST SWAP3 PUSH1 0x40 DUP4 ADD MLOAD PUSH1 0x80 DUP8 ADD MSTORE PUSH2 0x1AC4 PUSH1 0x1 DUP1 PUSH1 0xA0 SHL SUB SWAP5 DUP6 SWAP4 DUP5 PUSH1 0x60 DUP8 ADD MLOAD AND PUSH1 0xA0 DUP11 ADD MSTORE PUSH1 0x80 DUP7 ADD MLOAD ISZERO ISZERO PUSH1 0xC0 DUP11 ADD MSTORE PUSH1 0xA0 DUP7 ADD MLOAD SWAP1 DUP10 DUP4 SUB ADD PUSH1 0xE0 DUP11 ADD MSTORE PUSH2 0x1A1A JUMP JUMPDEST SWAP3 PUSH1 0xC0 DUP2 ADD MLOAD SWAP2 PUSH2 0x100 SWAP3 DUP4 DUP10 ADD MSTORE PUSH1 0xE0 DUP3 ADD MLOAD SWAP1 DUP9 ADD MSTORE ADD MLOAD AND PUSH2 0x140 DUP6 ADD MSTORE SWAP5 AND SWAP2 ADD MSTORE JUMP JUMPDEST SWAP2 SWAP1 DUP3 ADD DUP1 SWAP3 GT PUSH2 0x1AF9 JUMPI JUMP JUMPDEST PUSH4 0x4E487B71 PUSH1 0xE0 SHL PUSH1 0x0 MSTORE PUSH1 0x11 PUSH1 0x4 MSTORE PUSH1 0x24 PUSH1 0x0 REVERT JUMPDEST DUP2 PUSH1 0x1F DUP3 ADD SLT ISZERO PUSH2 0x260 JUMPI DUP1 MLOAD PUSH2 0x1B25 DUP2 PUSH2 0x1928 JUMP JUMPDEST SWAP3 PUSH2 0x1B33 PUSH1 0x40 MLOAD SWAP5 DUP6 PUSH2 0x18F9 JUMP JUMPDEST DUP2 DUP5 MSTORE PUSH1 0x20 DUP3 DUP5 ADD ADD GT PUSH2 0x260 JUMPI PUSH2 0x1B51 SWAP2 PUSH1 0x20 DUP1 DUP6 ADD SWAP2 ADD PUSH2 0x19F7 JUMP JUMPDEST SWAP1 JUMP JUMPDEST MLOAD SWAP1 PUSH1 0x1 PUSH1 0x1 PUSH1 0xA0 SHL SUB DUP3 AND DUP3 SUB PUSH2 0x260 JUMPI JUMP JUMPDEST SWAP1 PUSH1 0x20 DUP3 DUP3 SUB SLT PUSH2 0x260 JUMPI DUP2 MLOAD PUSH8 0xFFFFFFFFFFFFFFFF SWAP3 DUP4 DUP3 GT PUSH2 0x260 JUMPI ADD SWAP1 PUSH2 0x1E0 SWAP3 DUP4 DUP4 DUP4 SUB SLT PUSH2 0x260 JUMPI PUSH1 0x40 MLOAD SWAP4 DUP5 ADD DUP5 DUP2 LT DUP3 DUP3 GT OR PUSH2 0x18AA JUMPI PUSH1 0x40 MSTORE DUP3 MLOAD DUP2 DUP2 GT PUSH2 0x260 JUMPI DUP3 PUSH2 0x1BBE SWAP2 DUP6 ADD PUSH2 0x1B0F JUMP JUMPDEST DUP5 MSTORE PUSH1 0x20 DUP4 ADD MLOAD DUP2 DUP2 GT PUSH2 0x260 JUMPI DUP3 PUSH2 0x1BD8 SWAP2 DUP6 ADD PUSH2 0x1B0F JUMP JUMPDEST PUSH1 0x20 DUP6 ADD MSTORE PUSH1 0x40 DUP4 DUP2 ADD MLOAD SWAP1 DUP6 ADD MSTORE PUSH1 0x60 DUP4 ADD MLOAD PUSH1 0x1 PUSH1 0x1 PUSH1 0xA0 SHL SUB DUP2 AND DUP2 SUB PUSH2 0x260 JUMPI PUSH1 0x60 DUP6 ADD MSTORE PUSH1 0x80 DUP4 ADD MLOAD PUSH1 0x4 DUP2 LT ISZERO PUSH2 0x260 JUMPI PUSH1 0x80 DUP6 ADD MSTORE PUSH1 0xA0 DUP4 ADD MLOAD PUSH1 0xA0 DUP6 ADD MSTORE PUSH1 0xC0 DUP4 ADD MLOAD PUSH1 0xC0 DUP6 ADD MSTORE PUSH1 0xE0 DUP4 ADD MLOAD PUSH1 0xE0 DUP6 ADD MSTORE PUSH2 0x100 DUP1 DUP5 ADD MLOAD SWAP1 DUP6 ADD MSTORE PUSH2 0x120 PUSH2 0x1C4B DUP2 DUP6 ADD PUSH2 0x1B54 JUMP JUMPDEST SWAP1 DUP6 ADD MSTORE PUSH2 0x140 PUSH2 0x1C5D DUP2 DUP6 ADD PUSH2 0x191B JUMP JUMPDEST SWAP1 DUP6 ADD MSTORE PUSH2 0x160 SWAP2 DUP3 DUP5 ADD MLOAD SWAP2 DUP3 GT PUSH2 0x260 JUMPI PUSH2 0x1C7B SWAP2 DUP5 ADD PUSH2 0x1B0F JUMP JUMPDEST SWAP1 DUP4 ADD MSTORE PUSH2 0x180 DUP1 DUP3 ADD MLOAD SWAP1 DUP4 ADD MSTORE PUSH2 0x1A0 DUP1 DUP3 ADD MLOAD SWAP1 DUP4 ADD MSTORE PUSH2 0x1CA3 PUSH2 0x1C0 DUP1 SWAP3 ADD PUSH2 0x1B54 JUMP JUMPDEST SWAP1 DUP3 ADD MSTORE SWAP1 JUMP JUMPDEST SWAP1 PUSH1 0x20 SWAP1 DUP2 DUP4 DUP3 SUB SLT PUSH2 0x260 JUMPI DUP3 MLOAD PUSH8 0xFFFFFFFFFFFFFFFF SWAP4 DUP5 DUP3 GT PUSH2 0x260 JUMPI ADD DUP2 PUSH1 0x1F DUP3 ADD SLT ISZERO PUSH2 0x260 JUMPI DUP1 MLOAD SWAP4 DUP5 GT PUSH2 0x18AA JUMPI DUP4 PUSH1 0x5 SHL SWAP1 PUSH1 0x40 MLOAD SWAP5 PUSH2 0x1CF4 DUP6 DUP5 ADD DUP8 PUSH2 0x18F9 JUMP JUMPDEST DUP6 MSTORE DUP4 DUP1 DUP7 ADD SWAP3 DUP3 ADD ADD SWAP3 DUP4 GT PUSH2 0x260 JUMPI DUP4 ADD SWAP1 JUMPDEST DUP3 DUP3 LT PUSH2 0x1D17 JUMPI POP POP POP POP SWAP1 JUMP JUMPDEST DUP4 DUP1 SWAP2 PUSH2 0x1D23 DUP5 PUSH2 0x1B54 JUMP JUMPDEST DUP2 MSTORE ADD SWAP2 ADD SWAP1 PUSH2 0x1D09 JUMP JUMPDEST DUP1 MLOAD DUP3 LT ISZERO PUSH2 0x1D42 JUMPI PUSH1 0x20 SWAP2 PUSH1 0x5 SHL ADD ADD SWAP1 JUMP JUMPDEST PUSH4 0x4E487B71 PUSH1 0xE0 SHL PUSH1 0x0 MSTORE PUSH1 0x32 PUSH1 0x4 MSTORE PUSH1 0x24 PUSH1 0x0 REVERT JUMPDEST PUSH1 0x40 MLOAD SWAP1 PUSH2 0x1D65 DUP3 PUSH2 0x18DD JUMP JUMPDEST PUSH1 0xF DUP3 MSTORE PUSH15 0x657865637574696F6E2D636865636B PUSH1 0x88 SHL PUSH1 0x20 DUP4 ADD MSTORE JUMP JUMPDEST PUSH1 0x1 DUP1 PUSH1 0xA0 SHL SUB PUSH1 0x0 SWAP2 DUP2 DUP4 SLOAD AND SWAP2 PUSH1 0x24 DUP5 PUSH1 0x40 SWAP5 DUP6 MLOAD SWAP3 DUP4 DUP1 SWAP3 PUSH4 0x18FEEB15 PUSH1 0xE3 SHL DUP3 MSTORE DUP8 PUSH1 0x4 DUP4 ADD MSTORE GAS STATICCALL SWAP1 DUP2 ISZERO PUSH2 0x21E3 JUMPI DUP6 SWAP2 PUSH2 0x21C9 JUMPI JUMPDEST POP PUSH2 0x160 DUP2 ADD MLOAD DUP1 MLOAD SWAP1 PUSH1 0x20 SWAP2 PUSH32 0x64209FE56A5BA1791FAC474C27DC1B9A6A4977F861D5D2396F722FCF844BE9F DUP4 DUP4 ADD SWAP2 DUP3 KECCAK256 PUSH12 0x1D1C99585CDD5C9E4B5BDD5D PUSH1 0xA2 SHL DUP6 DUP11 MLOAD PUSH2 0x1E0E DUP2 PUSH2 0x18DD JUMP JUMPDEST PUSH1 0xC DUP2 MSTORE ADD MSTORE SUB PUSH2 0x1E6C JUMPI POP POP POP POP PUSH1 0x2 SLOAD AND SWAP1 DUP2 EXTCODESIZE ISZERO PUSH2 0x35C JUMPI DUP4 SWAP2 PUSH1 0x24 DUP4 SWAP3 DUP6 MLOAD SWAP7 DUP8 SWAP4 DUP5 SWAP3 PUSH4 0x21814F9 PUSH1 0xE4 SHL DUP5 MSTORE PUSH1 0x4 DUP5 ADD MSTORE GAS CALL SWAP2 DUP3 ISZERO PUSH2 0x1E62 JUMPI POP POP PUSH2 0x1E57 JUMPI POP JUMP JUMPDEST PUSH2 0x1E60 SWAP1 PUSH2 0x1896 JUMP JUMPDEST JUMP JUMPDEST MLOAD SWAP1 RETURNDATASIZE SWAP1 DUP3 RETURNDATACOPY RETURNDATASIZE SWAP1 REVERT JUMPDEST PUSH32 0x407AA5060640B5B11BD7A646D2A67DB16D0D8062F0162EE0107D6C4DF9647D0B DUP3 MLOAD DUP3 KECCAK256 PUSH11 0x3A3932B0B9BAB93C96B4B7 PUSH1 0xA9 SHL DUP6 DUP11 MLOAD PUSH2 0x1EAC DUP2 PUSH2 0x18DD JUMP JUMPDEST PUSH1 0xB DUP2 MSTORE ADD MSTORE SUB PUSH2 0x1EF5 JUMPI POP POP POP POP PUSH1 0x2 SLOAD AND SWAP1 DUP2 EXTCODESIZE ISZERO PUSH2 0x35C JUMPI DUP4 SWAP2 PUSH1 0x24 DUP4 SWAP3 DUP6 MLOAD SWAP7 DUP8 SWAP4 DUP5 SWAP3 PUSH4 0x7026E9FD PUSH1 0xE0 SHL DUP5 MSTORE PUSH1 0x4 DUP5 ADD MSTORE GAS CALL SWAP2 DUP3 ISZERO PUSH2 0x1E62 JUMPI POP POP PUSH2 0x1E57 JUMPI POP JUMP JUMPDEST PUSH32 0x3263CAE112F9B06C4FE976E1E563A8899E0058ACAD03A56562786E4496D29F6B SWAP2 MLOAD SWAP1 KECCAK256 PUSH11 0x72756C652D6368616E6765 PUSH1 0xA8 SHL DUP4 DUP9 MLOAD PUSH2 0x1F35 DUP2 PUSH2 0x18DD JUMP JUMPDEST PUSH1 0xB DUP2 MSTORE ADD MSTORE EQ PUSH2 0x1F49 JUMPI JUMPDEST POP POP POP POP POP POP JUMP JUMPDEST DUP2 MLOAD DUP1 MLOAD SWAP1 PUSH32 0x8D7CBFF25736090EF6444F570EE8941E761E0637E76A2B77E283FF85EC26489D DUP4 DUP3 ADD SWAP3 DUP4 KECCAK256 PUSH12 0x706173734372697465726961 PUSH1 0xA0 SHL DUP6 DUP11 MLOAD PUSH2 0x1F91 DUP2 PUSH2 0x18DD JUMP JUMPDEST PUSH1 0xC DUP2 MSTORE ADD MSTORE SUB PUSH2 0x1FF9 JUMPI POP POP POP PUSH2 0x1A0 ADD MLOAD PUSH1 0x3 SSTORE JUMPDEST PUSH1 0x2 SLOAD AND SWAP1 DUP2 EXTCODESIZE ISZERO PUSH2 0x35C JUMPI DUP4 SWAP2 PUSH1 0x24 DUP4 SWAP3 DUP6 MLOAD SWAP7 DUP8 SWAP4 DUP5 SWAP3 PUSH4 0x6F0D949D PUSH1 0xE1 SHL DUP5 MSTORE PUSH1 0x4 DUP5 ADD MSTORE GAS CALL SWAP2 DUP3 ISZERO PUSH2 0x1E62 JUMPI POP POP PUSH2 0x1FEA JUMPI JUMPDEST DUP1 DUP1 DUP1 DUP1 DUP1 PUSH2 0x1F41 JUMP JUMPDEST PUSH2 0x1FF3 SWAP1 PUSH2 0x1896 JUMP JUMPDEST CODESIZE PUSH2 0x1FE0 JUMP JUMPDEST PUSH32 0xABBFAB0BF365E6C544C4BDC8C27846B398EF85DEEB99659A1BD1CBBFDDBC69A1 DUP2 MLOAD DUP4 KECCAK256 PUSH14 0x3B37BA34B733A23AB930BA34B7B7 PUSH1 0x91 SHL DUP6 DUP11 MLOAD PUSH2 0x203C DUP2 PUSH2 0x18DD JUMP JUMPDEST PUSH1 0xE DUP2 MSTORE ADD MSTORE SUB PUSH2 0x2057 JUMPI POP POP POP PUSH2 0x1A0 ADD MLOAD PUSH1 0x4 SSTORE PUSH2 0x1FA8 JUMP JUMPDEST PUSH32 0x5B1A74CA49FC06542EF79783AA6DB8771703259F73767276192F168BBDFAF8CB DUP2 MLOAD DUP4 KECCAK256 PUSH13 0x616273656E7450656E616C7479 PUSH1 0x98 SHL DUP6 DUP11 MLOAD PUSH2 0x2099 DUP2 PUSH2 0x18DD JUMP JUMPDEST PUSH1 0xD DUP2 MSTORE ADD MSTORE SUB PUSH2 0x20B4 JUMPI POP POP POP PUSH2 0x1A0 ADD MLOAD PUSH1 0x5 SSTORE PUSH2 0x1FA8 JUMP JUMPDEST PUSH32 0x343F1CEE2704E73B1859BB1BDD73F8FCE853B1F06EA40BD99F16C5C103E91318 DUP2 MLOAD DUP4 KECCAK256 PUSH8 0x656E747279466565 PUSH1 0xC0 SHL DUP6 DUP11 MLOAD PUSH2 0x20F1 DUP2 PUSH2 0x18DD JUMP JUMPDEST PUSH1 0x8 DUP2 MSTORE ADD MSTORE SUB PUSH2 0x210C JUMPI POP POP POP PUSH2 0x1A0 ADD MLOAD PUSH1 0x8 SSTORE PUSH2 0x1FA8 JUMP JUMPDEST PUSH32 0x806B2CE9432A34CFC9FDAB6B94DB5BFCFDD69B0EAA656D83BEA17439BEBE142D DUP2 MLOAD DUP4 KECCAK256 PUSH12 0x18DBDD5B9D151BD15E1C195B PUSH1 0xA2 SHL DUP6 DUP11 MLOAD PUSH2 0x214D DUP2 PUSH2 0x18DD JUMP JUMPDEST PUSH1 0xC DUP2 MSTORE ADD MSTORE SUB PUSH2 0x2168 JUMPI POP POP POP PUSH2 0x1A0 ADD MLOAD PUSH1 0x6 SSTORE PUSH2 0x1FA8 JUMP JUMPDEST MLOAD SWAP1 KECCAK256 DUP6 MLOAD PUSH32 0x7433394719DFD8FCF3F7EF7662D3D256FF5523945834C1C05AAD0D14D49B75B4 SWAP3 PUSH12 0x1CD8DBDC99551BD15E1C195B PUSH1 0xA2 SHL SWAP2 PUSH2 0x21A9 DUP2 PUSH2 0x18DD JUMP JUMPDEST PUSH1 0xC DUP2 MSTORE ADD MSTORE EQ PUSH2 0x21BB JUMPI JUMPDEST POP PUSH2 0x1FA8 JUMP JUMPDEST PUSH2 0x1A0 ADD MLOAD PUSH1 0x7 SSTORE CODESIZE PUSH2 0x21B5 JUMP JUMPDEST PUSH2 0x21DD SWAP2 POP RETURNDATASIZE DUP1 DUP8 DUP4 RETURNDATACOPY PUSH2 0x14A1 DUP2 DUP4 PUSH2 0x18F9 JUMP JUMPDEST CODESIZE PUSH2 0x1DBE JUMP JUMPDEST DUP5 MLOAD RETURNDATASIZE DUP8 DUP3 RETURNDATACOPY RETURNDATASIZE SWAP1 REVERT INVALID LOG2 PUSH5 0x6970667358 0x22 SLT KECCAK256 0xD7 SWAP5 SWAP3 0x5D PUSH10 0xD849F5DB4A3699F15F4D 0xE7 0xB3 PUSH19 0x94DD90871DD5AE83CA4C7F7A68CA64736F6C63 NUMBER STOP ADDMOD EQ STOP CALLER "},"methodIdentifiers":{"absentPenalty()":"bdf91db5","adminSubGlassScore(address,uint256)":"57cce7d4","countToExpel()":"9f1f43af","createProposal(string,string,uint256,address,bool,string,uint256,uint256,address)":"bc2914b5","entryFee()":"072ea61c","executionContract()":"e0e93244","finalizeProposal(uint256)":"5652077c","getAllMembers()":"7c0f6b35","getMemberCount()":"997072f7","getTreasuryBalance()":"9b5655dc","isMember(address)":"a230c524","joinDAO()":"f63d13d7","leaveDAO()":"1de7df41","passCriteria()":"0fd2e6f9","proposalContract()":"3aef3900","proposalDeadline(uint256)":"c01f9e37","proposalExecuted(uint256)":"103616e8","scoreToExpel()":"52bc9e82","vaultContract()":"2274346b","vote(uint256,uint8)":"943e8216","votingDuration()":"132002fc"}}}}}