{"contracts/CorruptionMonitor.sol":{"CorruptionMonitor":{"abi":[{"anonymous":false,"inputs":[{"indexed":false,"internalType":"uint256","name":"index","type":"uint256"}],"name":"CorruptionIndexUpdated","type":"event"},{"inputs":[],"name":"getCorruptionIndex","outputs":[{"internalType":"uint256","name":"","type":"uint256"}],"stateMutability":"view","type":"function"},{"inputs":[],"name":"metrics","outputs":[{"internalType":"uint256","name":"emergencyTransfers","type":"uint256"},{"internalType":"uint256","name":"lowParticipation","type":"uint256"},{"internalType":"uint256","name":"dominantActions","type":"uint256"},{"internalType":"uint256","name":"untrackedTransfers","type":"uint256"},{"internalType":"uint256","name":"gasWaste","type":"uint256"},{"internalType":"uint256","name":"proposalConcentration","type":"uint256"}],"stateMutability":"view","type":"function"},{"inputs":[{"internalType":"uint256","name":"emergency","type":"uint256"},{"internalType":"uint256","name":"lowPart","type":"uint256"},{"internalType":"uint256","name":"dominant","type":"uint256"},{"internalType":"uint256","name":"untracked","type":"uint256"},{"internalType":"uint256","name":"gas","type":"uint256"},{"internalType":"uint256","name":"concentration","type":"uint256"}],"name":"updateMetrics","outputs":[],"stateMutability":"nonpayable","type":"function"}],"evm":{"bytecode":{"linkReferences":{},"object":"60808060405234610016576102ac908161001c8239f35b600080fdfe604060808152600436101561001357600080fd5b600090813560e01c80630e77131c1461014c5780631c264aa11461008a5763a04748f61461004057600080fd5b3461008657816003193601126100865760c091549060015490600254600354906004549260055494815196875260208701528501526060840152608083015260a0820152f35b5080fd5b50346100865760c036600319011261008657600435602435604435606435906084359260a43594865160c0810181811067ffffffffffffffff82111761013857918760a06020999795938b9997957f73a4a1a7dbf979b2a2f805e29c116bad6194fa512960adcd09f532e2dad608989c52838152848b820152858a8201528660608201528760808201520152895560015560025560035560045560055561012f610192565b9051908152a180f35b634e487b7160e01b8a52604160045260248afd5b5034610086578160031936011261008657602090610168610192565b9051908152f35b9190820180921161017c57565b634e487b7160e01b600052601160045260246000fd5b60009081548060011b9080820460021490151715610262576001549060038202918083046003149015171561024e57906101cb9161016f565b600254908160011b918083046002149015171561024e57906101ec9161016f565b600354908160021b918083046004149015171561024e579061020d9161016f565b600454908180046001148215171561024e57906102299161016f565b6005549060038202918083046003149015171561024e5761024b92935061016f565b90565b634e487b7160e01b84526011600452602484fd5b634e487b7160e01b83526011600452602483fdfea26469706673582212208084a1e4cff1bc923625580e5b68aee6d2133ece3ded6e0ba8d3ab830fce261764736f6c63430008140033","opcodes":"PUSH1 0x80 DUP1 PUSH1 0x40 MSTORE CALLVALUE PUSH2 0x16 JUMPI PUSH2 0x2AC SWAP1 DUP2 PUSH2 0x1C DUP3 CODECOPY RETURN JUMPDEST PUSH1 0x0 DUP1 REVERT INVALID PUSH1 0x40 PUSH1 0x80 DUP2 MSTORE PUSH1 0x4 CALLDATASIZE LT ISZERO PUSH2 0x13 JUMPI PUSH1 0x0 DUP1 REVERT JUMPDEST PUSH1 0x0 SWAP1 DUP2 CALLDATALOAD PUSH1 0xE0 SHR DUP1 PUSH4 0xE77131C EQ PUSH2 0x14C JUMPI DUP1 PUSH4 0x1C264AA1 EQ PUSH2 0x8A JUMPI PUSH4 0xA04748F6 EQ PUSH2 0x40 JUMPI PUSH1 0x0 DUP1 REVERT JUMPDEST CALLVALUE PUSH2 0x86 JUMPI DUP2 PUSH1 0x3 NOT CALLDATASIZE ADD SLT PUSH2 0x86 JUMPI PUSH1 0xC0 SWAP2 SLOAD SWAP1 PUSH1 0x1 SLOAD SWAP1 PUSH1 0x2 SLOAD PUSH1 0x3 SLOAD SWAP1 PUSH1 0x4 SLOAD SWAP3 PUSH1 0x5 SLOAD SWAP5 DUP2 MLOAD SWAP7 DUP8 MSTORE PUSH1 0x20 DUP8 ADD MSTORE DUP6 ADD MSTORE PUSH1 0x60 DUP5 ADD MSTORE PUSH1 0x80 DUP4 ADD MSTORE PUSH1 0xA0 DUP3 ADD MSTORE RETURN JUMPDEST POP DUP1 REVERT JUMPDEST POP CALLVALUE PUSH2 0x86 JUMPI PUSH1 0xC0 CALLDATASIZE PUSH1 0x3 NOT ADD SLT PUSH2 0x86 JUMPI PUSH1 0x4 CALLDATALOAD PUSH1 0x24 CALLDATALOAD PUSH1 0x44 CALLDATALOAD PUSH1 0x64 CALLDATALOAD SWAP1 PUSH1 0x84 CALLDATALOAD SWAP3 PUSH1 0xA4 CALLDATALOAD SWAP5 DUP7 MLOAD PUSH1 0xC0 DUP2 ADD DUP2 DUP2 LT PUSH8 0xFFFFFFFFFFFFFFFF DUP3 GT OR PUSH2 0x138 JUMPI SWAP2 DUP8 PUSH1 0xA0 PUSH1 0x20 SWAP10 SWAP8 SWAP6 SWAP4 DUP12 SWAP10 SWAP8 SWAP6 PUSH32 0x73A4A1A7DBF979B2A2F805E29C116BAD6194FA512960ADCD09F532E2DAD60898 SWAP13 MSTORE DUP4 DUP2 MSTORE DUP5 DUP12 DUP3 ADD MSTORE DUP6 DUP11 DUP3 ADD MSTORE DUP7 PUSH1 0x60 DUP3 ADD MSTORE DUP8 PUSH1 0x80 DUP3 ADD MSTORE ADD MSTORE DUP10 SSTORE PUSH1 0x1 SSTORE PUSH1 0x2 SSTORE PUSH1 0x3 SSTORE PUSH1 0x4 SSTORE PUSH1 0x5 SSTORE PUSH2 0x12F PUSH2 0x192 JUMP JUMPDEST SWAP1 MLOAD SWAP1 DUP2 MSTORE LOG1 DUP1 RETURN JUMPDEST PUSH4 0x4E487B71 PUSH1 0xE0 SHL DUP11 MSTORE PUSH1 0x41 PUSH1 0x4 MSTORE PUSH1 0x24 DUP11 REVERT JUMPDEST POP CALLVALUE PUSH2 0x86 JUMPI DUP2 PUSH1 0x3 NOT CALLDATASIZE ADD SLT PUSH2 0x86 JUMPI PUSH1 0x20 SWAP1 PUSH2 0x168 PUSH2 0x192 JUMP JUMPDEST SWAP1 MLOAD SWAP1 DUP2 MSTORE RETURN JUMPDEST SWAP2 SWAP1 DUP3 ADD DUP1 SWAP3 GT PUSH2 0x17C JUMPI JUMP JUMPDEST PUSH4 0x4E487B71 PUSH1 0xE0 SHL PUSH1 0x0 MSTORE PUSH1 0x11 PUSH1 0x4 MSTORE PUSH1 0x24 PUSH1 0x0 REVERT JUMPDEST PUSH1 0x0 SWAP1 DUP2 SLOAD DUP1 PUSH1 0x1 SHL SWAP1 DUP1 DUP3 DIV PUSH1 0x2 EQ SWAP1 ISZERO OR ISZERO PUSH2 0x262 JUMPI PUSH1 0x1 SLOAD SWAP1 PUSH1 0x3 DUP3 MUL SWAP2 DUP1 DUP4 DIV PUSH1 0x3 EQ SWAP1 ISZERO OR ISZERO PUSH2 0x24E JUMPI SWAP1 PUSH2 0x1CB SWAP2 PUSH2 0x16F JUMP JUMPDEST PUSH1 0x2 SLOAD SWAP1 DUP2 PUSH1 0x1 SHL SWAP2 DUP1 DUP4 DIV PUSH1 0x2 EQ SWAP1 ISZERO OR ISZERO PUSH2 0x24E JUMPI SWAP1 PUSH2 0x1EC SWAP2 PUSH2 0x16F JUMP JUMPDEST PUSH1 0x3 SLOAD SWAP1 DUP2 PUSH1 0x2 SHL SWAP2 DUP1 DUP4 DIV PUSH1 0x4 EQ SWAP1 ISZERO OR ISZERO PUSH2 0x24E JUMPI SWAP1 PUSH2 0x20D SWAP2 PUSH2 0x16F JUMP JUMPDEST PUSH1 0x4 SLOAD SWAP1 DUP2 DUP1 DIV PUSH1 0x1 EQ DUP3 ISZERO OR ISZERO PUSH2 0x24E JUMPI SWAP1 PUSH2 0x229 SWAP2 PUSH2 0x16F JUMP JUMPDEST PUSH1 0x5 SLOAD SWAP1 PUSH1 0x3 DUP3 MUL SWAP2 DUP1 DUP4 DIV PUSH1 0x3 EQ SWAP1 ISZERO OR ISZERO PUSH2 0x24E JUMPI PUSH2 0x24B SWAP3 SWAP4 POP PUSH2 0x16F JUMP JUMPDEST SWAP1 JUMP JUMPDEST PUSH4 0x4E487B71 PUSH1 0xE0 SHL DUP5 MSTORE PUSH1 0x11 PUSH1 0x4 MSTORE PUSH1 0x24 DUP5 REVERT JUMPDEST PUSH4 0x4E487B71 PUSH1 0xE0 SHL DUP4 MSTORE PUSH1 0x11 PUSH1 0x4 MSTORE PUSH1 0x24 DUP4 REVERT INVALID LOG2 PUSH5 0x6970667358 0x22 SLT KECCAK256 DUP1 DUP5 LOG1 0xE4 0xCF CALL 0xBC SWAP3 CALLDATASIZE 0x25 PC 0xE JUMPDEST PUSH9 0xAEE6D2133ECE3DED6E SIGNEXTEND 0xA8 0xD3 0xAB DUP4 0xF 0xCE 0x26 OR PUSH5 0x736F6C6343 STOP ADDMOD EQ STOP CALLER "},"methodIdentifiers":{"getCorruptionIndex()":"0e77131c","metrics()":"a04748f6","updateMetrics(uint256,uint256,uint256,uint256,uint256,uint256)":"1c264aa1"}}}}}