{"contracts/Proposal.sol":{"Proposal":{"abi":[{"inputs":[{"internalType":"address","name":"admin","type":"address"}],"stateMutability":"nonpayable","type":"constructor"},{"inputs":[],"name":"AccessControlBadConfirmation","type":"error"},{"inputs":[{"internalType":"address","name":"account","type":"address"},{"internalType":"bytes32","name":"neededRole","type":"bytes32"}],"name":"AccessControlUnauthorizedAccount","type":"error"},{"anonymous":false,"inputs":[{"indexed":true,"internalType":"uint256","name":"id","type":"uint256"},{"indexed":true,"internalType":"address","name":"proposer","type":"address"}],"name":"ProposalCreated","type":"event"},{"anonymous":false,"inputs":[{"indexed":true,"internalType":"uint256","name":"id","type":"uint256"},{"indexed":false,"internalType":"enum Proposal.Status","name":"status","type":"uint8"}],"name":"ProposalStatusChanged","type":"event"},{"anonymous":false,"inputs":[{"indexed":true,"internalType":"bytes32","name":"role","type":"bytes32"},{"indexed":true,"internalType":"bytes32","name":"previousAdminRole","type":"bytes32"},{"indexed":true,"internalType":"bytes32","name":"newAdminRole","type":"bytes32"}],"name":"RoleAdminChanged","type":"event"},{"anonymous":false,"inputs":[{"indexed":true,"internalType":"bytes32","name":"role","type":"bytes32"},{"indexed":true,"internalType":"address","name":"account","type":"address"},{"indexed":true,"internalType":"address","name":"sender","type":"address"}],"name":"RoleGranted","type":"event"},{"anonymous":false,"inputs":[{"indexed":true,"internalType":"bytes32","name":"role","type":"bytes32"},{"indexed":true,"internalType":"address","name":"account","type":"address"},{"indexed":true,"internalType":"address","name":"sender","type":"address"}],"name":"RoleRevoked","type":"event"},{"inputs":[],"name":"DEFAULT_ADMIN_ROLE","outputs":[{"internalType":"bytes32","name":"","type":"bytes32"}],"stateMutability":"view","type":"function"},{"inputs":[],"name":"MEMBER_ROLE","outputs":[{"internalType":"bytes32","name":"","type":"bytes32"}],"stateMutability":"view","type":"function"},{"inputs":[{"internalType":"string","name":"title","type":"string"},{"internalType":"string","name":"description","type":"string"},{"internalType":"uint256","name":"amount","type":"uint256"},{"internalType":"address payable","name":"recipient","type":"address"}],"name":"createProposal","outputs":[{"internalType":"uint256","name":"","type":"uint256"}],"stateMutability":"nonpayable","type":"function"},{"inputs":[],"name":"getAllProposals","outputs":[{"components":[{"internalType":"string","name":"title","type":"string"},{"internalType":"string","name":"description","type":"string"},{"internalType":"uint256","name":"amount","type":"uint256"},{"internalType":"address payable","name":"recipient","type":"address"},{"internalType":"enum Proposal.Status","name":"status","type":"uint8"},{"internalType":"uint256","name":"votesFor","type":"uint256"},{"internalType":"uint256","name":"votesAgainst","type":"uint256"},{"internalType":"uint256","name":"startTime","type":"uint256"}],"internalType":"struct Proposal.ProposalData[]","name":"","type":"tuple[]"}],"stateMutability":"view","type":"function"},{"inputs":[{"internalType":"uint256","name":"id","type":"uint256"}],"name":"getProposal","outputs":[{"components":[{"internalType":"string","name":"title","type":"string"},{"internalType":"string","name":"description","type":"string"},{"internalType":"uint256","name":"amount","type":"uint256"},{"internalType":"address payable","name":"recipient","type":"address"},{"internalType":"enum Proposal.Status","name":"status","type":"uint8"},{"internalType":"uint256","name":"votesFor","type":"uint256"},{"internalType":"uint256","name":"votesAgainst","type":"uint256"},{"internalType":"uint256","name":"startTime","type":"uint256"}],"internalType":"struct Proposal.ProposalData","name":"","type":"tuple"}],"stateMutability":"view","type":"function"},{"inputs":[{"internalType":"bytes32","name":"role","type":"bytes32"}],"name":"getRoleAdmin","outputs":[{"internalType":"bytes32","name":"","type":"bytes32"}],"stateMutability":"view","type":"function"},{"inputs":[{"internalType":"bytes32","name":"role","type":"bytes32"},{"internalType":"address","name":"account","type":"address"}],"name":"grantRole","outputs":[],"stateMutability":"nonpayable","type":"function"},{"inputs":[{"internalType":"bytes32","name":"role","type":"bytes32"},{"internalType":"address","name":"account","type":"address"}],"name":"hasRole","outputs":[{"internalType":"bool","name":"","type":"bool"}],"stateMutability":"view","type":"function"},{"inputs":[{"internalType":"uint256","name":"","type":"uint256"}],"name":"proposals","outputs":[{"internalType":"string","name":"title","type":"string"},{"internalType":"string","name":"description","type":"string"},{"internalType":"uint256","name":"amount","type":"uint256"},{"internalType":"address payable","name":"recipient","type":"address"},{"internalType":"enum Proposal.Status","name":"status","type":"uint8"},{"internalType":"uint256","name":"votesFor","type":"uint256"},{"internalType":"uint256","name":"votesAgainst","type":"uint256"},{"internalType":"uint256","name":"startTime","type":"uint256"}],"stateMutability":"view","type":"function"},{"inputs":[{"internalType":"bytes32","name":"role","type":"bytes32"},{"internalType":"address","name":"callerConfirmation","type":"address"}],"name":"renounceRole","outputs":[],"stateMutability":"nonpayable","type":"function"},{"inputs":[{"internalType":"bytes32","name":"role","type":"bytes32"},{"internalType":"address","name":"account","type":"address"}],"name":"revokeRole","outputs":[],"stateMutability":"nonpayable","type":"function"},{"inputs":[{"internalType":"uint256","name":"id","type":"uint256"},{"internalType":"enum Proposal.Status","name":"status","type":"uint8"}],"name":"setProposalStatus","outputs":[],"stateMutability":"nonpayable","type":"function"},{"inputs":[{"internalType":"bytes4","name":"interfaceId","type":"bytes4"}],"name":"supportsInterface","outputs":[{"internalType":"bool","name":"","type":"bool"}],"stateMutability":"view","type":"function"}],"evm":{"bytecode":{"linkReferences":{},"object":"60803461007257601f61107338819003918201601f19168301916001600160401b038311848410176100775780849260209460405283398101031261007257516001600160a01b0381168103610072578061005c6100629261008d565b5061010b565b50604051610ea790816101ac8239f35b600080fd5b634e487b7160e01b600052604160045260246000fd5b6001600160a01b031660008181527fad3228b676f7d3cd4284a5443f17f1962b36e491b30a40b2405849e597ba5fb5602052604081205490919060ff1661010757818052816020526040822081835260205260408220600160ff1982541617905533916000805160206110538339815191528180a4600190565b5090565b6001600160a01b031660008181527f30710e496c9a8631e387d1ff5062c226d4ce9c9e008bff1f22ae157290ccbd6260205260408120549091907f829b824e2329e205435d941c9f13baf578548505283d29261236d8e6596d46369060ff166101a657808352826020526040832082845260205260408320600160ff19825416179055600080516020611053833981519152339380a4600190565b50509056fe6080604052600436101561001257600080fd5b60003560e01c8063013cf08b1461092857806301ffc9a7146108d2578063248a9ca3146108a35780632f2ff15d1461087257806336568abe1461083957806391d14854146107f9578063a10f469e146107be578063a217fddf146107a2578063c7f758a814610727578063cbe9461414610667578063cceb68f51461056d578063d547741f1461053a5763e5ee89cc146100ab57600080fd5b346105355760803660031901126105355760043567ffffffffffffffff8111610535576100dc903690600401610c41565b9060243567ffffffffffffffff8111610535576100fd903690600401610c41565b6064356001600160a01b0381169390849003610535573360009081527f30710e496c9a8631e387d1ff5062c226d4ce9c9e008bff1f22ae157290ccbd6260205260409020547f829b824e2329e205435d941c9f13baf578548505283d29261236d8e6596d46369060ff161561051757509061018a61019393926040519661018388610a72565b3691610d88565b85523691610d88565b60208301526044356040830152606082015260006080820152600060a0820152600060c08201524260e082015260015468010000000000000000811015610434578060016101e492016001556109e7565b91909161050157805191825167ffffffffffffffff8111610434576102098254610a38565b601f81116104bd575b506020601f8211600114610455578192939460009261044a575b50508160011b916000199060031b1c19161781555b602082015191825167ffffffffffffffff8111610434576102656001840154610a38565b601f81116103ed575b506020601f821160011461037f5781929394600092610374575b50508160011b916000199060031b1c19161760018301555b60408101516002830155600382019060018060a01b036060820151166bffffffffffffffffffffffff60a01b835416178255608081015190600482101561035e576102ef60e092600694610dcf565b60a0810151600485015560c08101516005850155015191015560015460001981019081116103485760405160209133817fcd423cc1203c0af96b9b3d68d73b3064a69de2d14450bb7181c5e5df2132b358600080a38152f35b634e487b7160e01b600052601160045260246000fd5b634e487b7160e01b600052602160045260246000fd5b015190503880610288565b6001840160005260206000209060005b601f19841681106103d55750600193949583601f198116106103bc575b505050811b0160018301556102a0565b015160001960f88460031b161c191690553880806103ac565b9091602060018192858a01518155019301910161038f565b600184016000526020600020601f830160051c81016020841061042d575b601f830160051c8201811061042157505061026e565b6000815560010161040b565b508061040b565b634e487b7160e01b600052604160045260246000fd5b01519050388061022c565b8260005260206000209060005b601f19841681106104a55750600193949583601f1981161061048c575b505050811b018155610241565b015160001960f88460031b161c1916905538808061047f565b9091602060018192858a015181550193019101610462565b826000526020600020601f830160051c8101602084106104fa575b601f830160051c820181106104ee575050610212565b600081556001016104d8565b50806104d8565b634e487b7160e01b600052600060045260246000fd5b6044906040519063e2517d3f60e01b82523360048301526024820152fd5b600080fd5b346105355761056b61054b36610ba4565b90806000526000602052610566600160406000200154610c6f565b610d13565b005b34610535576000366003190112610535576001805467ffffffffffffffff811161043457906040519060206105a7818560051b0184610a8f565b8383528083019384836000527fb10e2d527612073b26eecdfd717e6a320cf44b4afac2b0732d9fcbe2b7fa0cf66000915b8383106106405750505050604051928184019082855251809152604084019160408260051b86010195926000905b8382106106135786880387f35b9091929394838061062f839a603f198b82030186528951610bca565b999701959493919091019101610606565b94600785829997610653859a989a610df3565b8152019201920191909694969593956105d8565b34610535576040366003190112610535576004356024356004811015610535573360009081527fad3228b676f7d3cd4284a5443f17f1962b36e491b30a40b2405849e597ba5fb5602052604090205460ff1615610708576020816106f87f3346abf262ac5179e9052765fb72484e0baab1f356f08442bb7a3054147631de9360036106f1876109e7565b5001610dcf565b6107056040518092610b97565ba2005b60405163e2517d3f60e01b815233600482015260006024820152604490fd5b3461053557602036600319011261053557600060e060405161074881610a72565b60608152606060208201528260408201528260608201528260808201528260a08201528260c0820152015261079e61078a6107846004356109e7565b50610df3565b604051918291602083526020830190610bca565b0390f35b3461053557600036600319011261053557602060405160008152f35b346105355760003660031901126105355760206040517f829b824e2329e205435d941c9f13baf578548505283d29261236d8e6596d46368152f35b346105355761080736610ba4565b90600052600060205260406000209060018060a01b0316600052602052602060ff604060002054166040519015158152f35b346105355761084736610ba4565b336001600160a01b038216036108605761056b91610d13565b60405163334bd91960e11b8152600490fd5b346105355761056b61088336610ba4565b9080600052600060205261089e600160406000200154610c6f565b610c95565b346105355760203660031901126105355760043560005260006020526020600160406000200154604051908152f35b346105355760203660031901126105355760043563ffffffff60e01b811680910361053557602090637965db0b60e01b8114908115610917575b506040519015158152f35b6301ffc9a760e01b1490508261090c565b34610535576020366003190112610535576004356001548110156105355761095261099f916109e7565b5061095c81610ab1565b9061096960018201610ab1565b60028201549160038101546109d46004830154916109ad6006600586015495015495604051998a99610100808c528b0190610b57565b9089820360208b0152610b57565b60408801969096526001600160a01b0381166060880152608087019060a01c60ff16610b97565b60a085015260c084015260e08301520390f35b600154811015610a22576007906001600052027fb10e2d527612073b26eecdfd717e6a320cf44b4afac2b0732d9fcbe2b7fa0cf60190600090565b634e487b7160e01b600052603260045260246000fd5b90600182811c92168015610a68575b6020831014610a5257565b634e487b7160e01b600052602260045260246000fd5b91607f1691610a47565b610100810190811067ffffffffffffffff82111761043457604052565b90601f8019910116810190811067ffffffffffffffff82111761043457604052565b9060405191826000825492610ac584610a38565b908184526001948581169081600014610b345750600114610af1575b5050610aef92500383610a8f565b565b9093915060005260209081600020936000915b818310610b1c575050610aef93508201013880610ae1565b85548884018501529485019487945091830191610b04565b915050610aef94506020925060ff191682840152151560051b8201013880610ae1565b919082519283825260005b848110610b83575050826000602080949584010152601f8019910116010190565b602081830181015184830182015201610b62565b90600482101561035e5752565b604090600319011261053557600435906024356001600160a01b03811681036105355790565b9060e080610bf6610be48551610100808752860190610b57565b60208601518582036020870152610b57565b936040810151604085015260018060a01b036060820151166060850152610c2560808201516080860190610b97565b60a081015160a085015260c081015160c0850152015191015290565b9181601f840112156105355782359167ffffffffffffffff8311610535576020838186019501011161053557565b80600052600060205260406000203360005260205260ff60406000205416156105175750565b9060009180835282602052604083209160018060a01b03169182845260205260ff60408420541615600014610d0e57808352826020526040832082845260205260408320600160ff198254161790557f2f8788117e7eff1d82e926ec794901d17c78024a50270940304540a733656f0d339380a4600190565b505090565b9060009180835282602052604083209160018060a01b03169182845260205260ff604084205416600014610d0e5780835282602052604083208284526020526040832060ff1981541690557ff6391f5c32d9c69d2a47ea670b442974b53935d1edc7fd64eb21e047a839171b339380a4600190565b92919267ffffffffffffffff82116104345760405191610db2601f8201601f191660200184610a8f565b829481845281830111610535578281602093846000960137010152565b90600481101561035e57815460ff60a01b191660a09190911b60ff60a01b16179055565b90604051610e0081610a72565b8092610e0b81610ab1565b8252610e1960018201610ab1565b60208301526002810154604083015260038101546001600160a01b038116606084015260a01c60ff16600481101561035e5760e0916006916080850152600481015460a0850152600581015460c0850152015491015256fea26469706673582212209bac03192fb3b6156c1713ca4f1cb5345c9f6006d809d76478001fc16cace1e664736f6c634300081400332f8788117e7eff1d82e926ec794901d17c78024a50270940304540a733656f0d","opcodes":"PUSH1 0x80 CALLVALUE PUSH2 0x72 JUMPI PUSH1 0x1F PUSH2 0x1073 CODESIZE DUP2 SWAP1 SUB SWAP2 DUP3 ADD PUSH1 0x1F NOT AND DUP4 ADD SWAP2 PUSH1 0x1 PUSH1 0x1 PUSH1 0x40 SHL SUB DUP4 GT DUP5 DUP5 LT OR PUSH2 0x77 JUMPI DUP1 DUP5 SWAP3 PUSH1 0x20 SWAP5 PUSH1 0x40 MSTORE DUP4 CODECOPY DUP2 ADD SUB SLT PUSH2 0x72 JUMPI MLOAD PUSH1 0x1 PUSH1 0x1 PUSH1 0xA0 SHL SUB DUP2 AND DUP2 SUB PUSH2 0x72 JUMPI DUP1 PUSH2 0x5C PUSH2 0x62 SWAP3 PUSH2 0x8D JUMP JUMPDEST POP PUSH2 0x10B JUMP JUMPDEST POP PUSH1 0x40 MLOAD PUSH2 0xEA7 SWAP1 DUP2 PUSH2 0x1AC DUP3 CODECOPY RETURN JUMPDEST PUSH1 0x0 DUP1 REVERT JUMPDEST PUSH4 0x4E487B71 PUSH1 0xE0 SHL PUSH1 0x0 MSTORE PUSH1 0x41 PUSH1 0x4 MSTORE PUSH1 0x24 PUSH1 0x0 REVERT JUMPDEST PUSH1 0x1 PUSH1 0x1 PUSH1 0xA0 SHL SUB AND PUSH1 0x0 DUP2 DUP2 MSTORE PUSH32 0xAD3228B676F7D3CD4284A5443F17F1962B36E491B30A40B2405849E597BA5FB5 PUSH1 0x20 MSTORE PUSH1 0x40 DUP2 KECCAK256 SLOAD SWAP1 SWAP2 SWAP1 PUSH1 0xFF AND PUSH2 0x107 JUMPI DUP2 DUP1 MSTORE DUP2 PUSH1 0x20 MSTORE PUSH1 0x40 DUP3 KECCAK256 DUP2 DUP4 MSTORE PUSH1 0x20 MSTORE PUSH1 0x40 DUP3 KECCAK256 PUSH1 0x1 PUSH1 0xFF NOT DUP3 SLOAD AND OR SWAP1 SSTORE CALLER SWAP2 PUSH1 0x0 DUP1 MLOAD PUSH1 0x20 PUSH2 0x1053 DUP4 CODECOPY DUP2 MLOAD SWAP2 MSTORE DUP2 DUP1 LOG4 PUSH1 0x1 SWAP1 JUMP JUMPDEST POP SWAP1 JUMP JUMPDEST PUSH1 0x1 PUSH1 0x1 PUSH1 0xA0 SHL SUB AND PUSH1 0x0 DUP2 DUP2 MSTORE PUSH32 0x30710E496C9A8631E387D1FF5062C226D4CE9C9E008BFF1F22AE157290CCBD62 PUSH1 0x20 MSTORE PUSH1 0x40 DUP2 KECCAK256 SLOAD SWAP1 SWAP2 SWAP1 PUSH32 0x829B824E2329E205435D941C9F13BAF578548505283D29261236D8E6596D4636 SWAP1 PUSH1 0xFF AND PUSH2 0x1A6 JUMPI DUP1 DUP4 MSTORE DUP3 PUSH1 0x20 MSTORE PUSH1 0x40 DUP4 KECCAK256 DUP3 DUP5 MSTORE PUSH1 0x20 MSTORE PUSH1 0x40 DUP4 KECCAK256 PUSH1 0x1 PUSH1 0xFF NOT DUP3 SLOAD AND OR SWAP1 SSTORE PUSH1 0x0 DUP1 MLOAD PUSH1 0x20 PUSH2 0x1053 DUP4 CODECOPY DUP2 MLOAD SWAP2 MSTORE CALLER SWAP4 DUP1 LOG4 PUSH1 0x1 SWAP1 JUMP JUMPDEST POP POP SWAP1 JUMP INVALID PUSH1 0x80 PUSH1 0x40 MSTORE PUSH1 0x4 CALLDATASIZE LT ISZERO PUSH2 0x12 JUMPI PUSH1 0x0 DUP1 REVERT JUMPDEST PUSH1 0x0 CALLDATALOAD PUSH1 0xE0 SHR DUP1 PUSH4 0x13CF08B EQ PUSH2 0x928 JUMPI DUP1 PUSH4 0x1FFC9A7 EQ PUSH2 0x8D2 JUMPI DUP1 PUSH4 0x248A9CA3 EQ PUSH2 0x8A3 JUMPI DUP1 PUSH4 0x2F2FF15D EQ PUSH2 0x872 JUMPI DUP1 PUSH4 0x36568ABE EQ PUSH2 0x839 JUMPI DUP1 PUSH4 0x91D14854 EQ PUSH2 0x7F9 JUMPI DUP1 PUSH4 0xA10F469E EQ PUSH2 0x7BE JUMPI DUP1 PUSH4 0xA217FDDF EQ PUSH2 0x7A2 JUMPI DUP1 PUSH4 0xC7F758A8 EQ PUSH2 0x727 JUMPI DUP1 PUSH4 0xCBE94614 EQ PUSH2 0x667 JUMPI DUP1 PUSH4 0xCCEB68F5 EQ PUSH2 0x56D JUMPI DUP1 PUSH4 0xD547741F EQ PUSH2 0x53A JUMPI PUSH4 0xE5EE89CC EQ PUSH2 0xAB JUMPI PUSH1 0x0 DUP1 REVERT JUMPDEST CALLVALUE PUSH2 0x535 JUMPI PUSH1 0x80 CALLDATASIZE PUSH1 0x3 NOT ADD SLT PUSH2 0x535 JUMPI PUSH1 0x4 CALLDATALOAD PUSH8 0xFFFFFFFFFFFFFFFF DUP2 GT PUSH2 0x535 JUMPI PUSH2 0xDC SWAP1 CALLDATASIZE SWAP1 PUSH1 0x4 ADD PUSH2 0xC41 JUMP JUMPDEST SWAP1 PUSH1 0x24 CALLDATALOAD PUSH8 0xFFFFFFFFFFFFFFFF DUP2 GT PUSH2 0x535 JUMPI PUSH2 0xFD SWAP1 CALLDATASIZE SWAP1 PUSH1 0x4 ADD PUSH2 0xC41 JUMP JUMPDEST PUSH1 0x64 CALLDATALOAD PUSH1 0x1 PUSH1 0x1 PUSH1 0xA0 SHL SUB DUP2 AND SWAP4 SWAP1 DUP5 SWAP1 SUB PUSH2 0x535 JUMPI CALLER PUSH1 0x0 SWAP1 DUP2 MSTORE PUSH32 0x30710E496C9A8631E387D1FF5062C226D4CE9C9E008BFF1F22AE157290CCBD62 PUSH1 0x20 MSTORE PUSH1 0x40 SWAP1 KECCAK256 SLOAD PUSH32 0x829B824E2329E205435D941C9F13BAF578548505283D29261236D8E6596D4636 SWAP1 PUSH1 0xFF AND ISZERO PUSH2 0x517 JUMPI POP SWAP1 PUSH2 0x18A PUSH2 0x193 SWAP4 SWAP3 PUSH1 0x40 MLOAD SWAP7 PUSH2 0x183 DUP9 PUSH2 0xA72 JUMP JUMPDEST CALLDATASIZE SWAP2 PUSH2 0xD88 JUMP JUMPDEST DUP6 MSTORE CALLDATASIZE SWAP2 PUSH2 0xD88 JUMP JUMPDEST PUSH1 0x20 DUP4 ADD MSTORE PUSH1 0x44 CALLDATALOAD PUSH1 0x40 DUP4 ADD MSTORE PUSH1 0x60 DUP3 ADD MSTORE PUSH1 0x0 PUSH1 0x80 DUP3 ADD MSTORE PUSH1 0x0 PUSH1 0xA0 DUP3 ADD MSTORE PUSH1 0x0 PUSH1 0xC0 DUP3 ADD MSTORE TIMESTAMP PUSH1 0xE0 DUP3 ADD MSTORE PUSH1 0x1 SLOAD PUSH9 0x10000000000000000 DUP2 LT ISZERO PUSH2 0x434 JUMPI DUP1 PUSH1 0x1 PUSH2 0x1E4 SWAP3 ADD PUSH1 0x1 SSTORE PUSH2 0x9E7 JUMP JUMPDEST SWAP2 SWAP1 SWAP2 PUSH2 0x501 JUMPI DUP1 MLOAD SWAP2 DUP3 MLOAD PUSH8 0xFFFFFFFFFFFFFFFF DUP2 GT PUSH2 0x434 JUMPI PUSH2 0x209 DUP3 SLOAD PUSH2 0xA38 JUMP JUMPDEST PUSH1 0x1F DUP2 GT PUSH2 0x4BD JUMPI JUMPDEST POP PUSH1 0x20 PUSH1 0x1F DUP3 GT PUSH1 0x1 EQ PUSH2 0x455 JUMPI DUP2 SWAP3 SWAP4 SWAP5 PUSH1 0x0 SWAP3 PUSH2 0x44A JUMPI JUMPDEST POP POP DUP2 PUSH1 0x1 SHL SWAP2 PUSH1 0x0 NOT SWAP1 PUSH1 0x3 SHL SHR NOT AND OR DUP2 SSTORE JUMPDEST PUSH1 0x20 DUP3 ADD MLOAD SWAP2 DUP3 MLOAD PUSH8 0xFFFFFFFFFFFFFFFF DUP2 GT PUSH2 0x434 JUMPI PUSH2 0x265 PUSH1 0x1 DUP5 ADD SLOAD PUSH2 0xA38 JUMP JUMPDEST PUSH1 0x1F DUP2 GT PUSH2 0x3ED JUMPI JUMPDEST POP PUSH1 0x20 PUSH1 0x1F DUP3 GT PUSH1 0x1 EQ PUSH2 0x37F JUMPI DUP2 SWAP3 SWAP4 SWAP5 PUSH1 0x0 SWAP3 PUSH2 0x374 JUMPI JUMPDEST POP POP DUP2 PUSH1 0x1 SHL SWAP2 PUSH1 0x0 NOT SWAP1 PUSH1 0x3 SHL SHR NOT AND OR PUSH1 0x1 DUP4 ADD SSTORE JUMPDEST PUSH1 0x40 DUP2 ADD MLOAD PUSH1 0x2 DUP4 ADD SSTORE PUSH1 0x3 DUP3 ADD SWAP1 PUSH1 0x1 DUP1 PUSH1 0xA0 SHL SUB PUSH1 0x60 DUP3 ADD MLOAD AND PUSH12 0xFFFFFFFFFFFFFFFFFFFFFFFF PUSH1 0xA0 SHL DUP4 SLOAD AND OR DUP3 SSTORE PUSH1 0x80 DUP2 ADD MLOAD SWAP1 PUSH1 0x4 DUP3 LT ISZERO PUSH2 0x35E JUMPI PUSH2 0x2EF PUSH1 0xE0 SWAP3 PUSH1 0x6 SWAP5 PUSH2 0xDCF JUMP JUMPDEST PUSH1 0xA0 DUP2 ADD MLOAD PUSH1 0x4 DUP6 ADD SSTORE PUSH1 0xC0 DUP2 ADD MLOAD PUSH1 0x5 DUP6 ADD SSTORE ADD MLOAD SWAP2 ADD SSTORE PUSH1 0x1 SLOAD PUSH1 0x0 NOT DUP2 ADD SWAP1 DUP2 GT PUSH2 0x348 JUMPI PUSH1 0x40 MLOAD PUSH1 0x20 SWAP2 CALLER DUP2 PUSH32 0xCD423CC1203C0AF96B9B3D68D73B3064A69DE2D14450BB7181C5E5DF2132B358 PUSH1 0x0 DUP1 LOG3 DUP2 MSTORE RETURN JUMPDEST PUSH4 0x4E487B71 PUSH1 0xE0 SHL PUSH1 0x0 MSTORE PUSH1 0x11 PUSH1 0x4 MSTORE PUSH1 0x24 PUSH1 0x0 REVERT JUMPDEST PUSH4 0x4E487B71 PUSH1 0xE0 SHL PUSH1 0x0 MSTORE PUSH1 0x21 PUSH1 0x4 MSTORE PUSH1 0x24 PUSH1 0x0 REVERT JUMPDEST ADD MLOAD SWAP1 POP CODESIZE DUP1 PUSH2 0x288 JUMP JUMPDEST PUSH1 0x1 DUP5 ADD PUSH1 0x0 MSTORE PUSH1 0x20 PUSH1 0x0 KECCAK256 SWAP1 PUSH1 0x0 JUMPDEST PUSH1 0x1F NOT DUP5 AND DUP2 LT PUSH2 0x3D5 JUMPI POP PUSH1 0x1 SWAP4 SWAP5 SWAP6 DUP4 PUSH1 0x1F NOT DUP2 AND LT PUSH2 0x3BC JUMPI JUMPDEST POP POP POP DUP2 SHL ADD PUSH1 0x1 DUP4 ADD SSTORE PUSH2 0x2A0 JUMP JUMPDEST ADD MLOAD PUSH1 0x0 NOT PUSH1 0xF8 DUP5 PUSH1 0x3 SHL AND SHR NOT AND SWAP1 SSTORE CODESIZE DUP1 DUP1 PUSH2 0x3AC JUMP JUMPDEST SWAP1 SWAP2 PUSH1 0x20 PUSH1 0x1 DUP2 SWAP3 DUP6 DUP11 ADD MLOAD DUP2 SSTORE ADD SWAP4 ADD SWAP2 ADD PUSH2 0x38F JUMP JUMPDEST PUSH1 0x1 DUP5 ADD PUSH1 0x0 MSTORE PUSH1 0x20 PUSH1 0x0 KECCAK256 PUSH1 0x1F DUP4 ADD PUSH1 0x5 SHR DUP2 ADD PUSH1 0x20 DUP5 LT PUSH2 0x42D JUMPI JUMPDEST PUSH1 0x1F DUP4 ADD PUSH1 0x5 SHR DUP3 ADD DUP2 LT PUSH2 0x421 JUMPI POP POP PUSH2 0x26E JUMP JUMPDEST PUSH1 0x0 DUP2 SSTORE PUSH1 0x1 ADD PUSH2 0x40B JUMP JUMPDEST POP DUP1 PUSH2 0x40B JUMP JUMPDEST PUSH4 0x4E487B71 PUSH1 0xE0 SHL PUSH1 0x0 MSTORE PUSH1 0x41 PUSH1 0x4 MSTORE PUSH1 0x24 PUSH1 0x0 REVERT JUMPDEST ADD MLOAD SWAP1 POP CODESIZE DUP1 PUSH2 0x22C JUMP JUMPDEST DUP3 PUSH1 0x0 MSTORE PUSH1 0x20 PUSH1 0x0 KECCAK256 SWAP1 PUSH1 0x0 JUMPDEST PUSH1 0x1F NOT DUP5 AND DUP2 LT PUSH2 0x4A5 JUMPI POP PUSH1 0x1 SWAP4 SWAP5 SWAP6 DUP4 PUSH1 0x1F NOT DUP2 AND LT PUSH2 0x48C JUMPI JUMPDEST POP POP POP DUP2 SHL ADD DUP2 SSTORE PUSH2 0x241 JUMP JUMPDEST ADD MLOAD PUSH1 0x0 NOT PUSH1 0xF8 DUP5 PUSH1 0x3 SHL AND SHR NOT AND SWAP1 SSTORE CODESIZE DUP1 DUP1 PUSH2 0x47F JUMP JUMPDEST SWAP1 SWAP2 PUSH1 0x20 PUSH1 0x1 DUP2 SWAP3 DUP6 DUP11 ADD MLOAD DUP2 SSTORE ADD SWAP4 ADD SWAP2 ADD PUSH2 0x462 JUMP JUMPDEST DUP3 PUSH1 0x0 MSTORE PUSH1 0x20 PUSH1 0x0 KECCAK256 PUSH1 0x1F DUP4 ADD PUSH1 0x5 SHR DUP2 ADD PUSH1 0x20 DUP5 LT PUSH2 0x4FA JUMPI JUMPDEST PUSH1 0x1F DUP4 ADD PUSH1 0x5 SHR DUP3 ADD DUP2 LT PUSH2 0x4EE JUMPI POP POP PUSH2 0x212 JUMP JUMPDEST PUSH1 0x0 DUP2 SSTORE PUSH1 0x1 ADD PUSH2 0x4D8 JUMP JUMPDEST POP DUP1 PUSH2 0x4D8 JUMP JUMPDEST PUSH4 0x4E487B71 PUSH1 0xE0 SHL PUSH1 0x0 MSTORE PUSH1 0x0 PUSH1 0x4 MSTORE PUSH1 0x24 PUSH1 0x0 REVERT JUMPDEST PUSH1 0x44 SWAP1 PUSH1 0x40 MLOAD SWAP1 PUSH4 0xE2517D3F PUSH1 0xE0 SHL DUP3 MSTORE CALLER PUSH1 0x4 DUP4 ADD MSTORE PUSH1 0x24 DUP3 ADD MSTORE REVERT JUMPDEST PUSH1 0x0 DUP1 REVERT JUMPDEST CALLVALUE PUSH2 0x535 JUMPI PUSH2 0x56B PUSH2 0x54B CALLDATASIZE PUSH2 0xBA4 JUMP JUMPDEST SWAP1 DUP1 PUSH1 0x0 MSTORE PUSH1 0x0 PUSH1 0x20 MSTORE PUSH2 0x566 PUSH1 0x1 PUSH1 0x40 PUSH1 0x0 KECCAK256 ADD SLOAD PUSH2 0xC6F JUMP JUMPDEST PUSH2 0xD13 JUMP JUMPDEST STOP JUMPDEST CALLVALUE PUSH2 0x535 JUMPI PUSH1 0x0 CALLDATASIZE PUSH1 0x3 NOT ADD SLT PUSH2 0x535 JUMPI PUSH1 0x1 DUP1 SLOAD PUSH8 0xFFFFFFFFFFFFFFFF DUP2 GT PUSH2 0x434 JUMPI SWAP1 PUSH1 0x40 MLOAD SWAP1 PUSH1 0x20 PUSH2 0x5A7 DUP2 DUP6 PUSH1 0x5 SHL ADD DUP5 PUSH2 0xA8F JUMP JUMPDEST DUP4 DUP4 MSTORE DUP1 DUP4 ADD SWAP4 DUP5 DUP4 PUSH1 0x0 MSTORE PUSH32 0xB10E2D527612073B26EECDFD717E6A320CF44B4AFAC2B0732D9FCBE2B7FA0CF6 PUSH1 0x0 SWAP2 JUMPDEST DUP4 DUP4 LT PUSH2 0x640 JUMPI POP POP POP POP PUSH1 0x40 MLOAD SWAP3 DUP2 DUP5 ADD SWAP1 DUP3 DUP6 MSTORE MLOAD DUP1 SWAP2 MSTORE PUSH1 0x40 DUP5 ADD SWAP2 PUSH1 0x40 DUP3 PUSH1 0x5 SHL DUP7 ADD ADD SWAP6 SWAP3 PUSH1 0x0 SWAP1 JUMPDEST DUP4 DUP3 LT PUSH2 0x613 JUMPI DUP7 DUP9 SUB DUP8 RETURN JUMPDEST SWAP1 SWAP2 SWAP3 SWAP4 SWAP5 DUP4 DUP1 PUSH2 0x62F DUP4 SWAP11 PUSH1 0x3F NOT DUP12 DUP3 SUB ADD DUP7 MSTORE DUP10 MLOAD PUSH2 0xBCA JUMP JUMPDEST SWAP10 SWAP8 ADD SWAP6 SWAP5 SWAP4 SWAP2 SWAP1 SWAP2 ADD SWAP2 ADD PUSH2 0x606 JUMP JUMPDEST SWAP5 PUSH1 0x7 DUP6 DUP3 SWAP10 SWAP8 PUSH2 0x653 DUP6 SWAP11 SWAP9 SWAP11 PUSH2 0xDF3 JUMP JUMPDEST DUP2 MSTORE ADD SWAP3 ADD SWAP3 ADD SWAP2 SWAP1 SWAP7 SWAP5 SWAP7 SWAP6 SWAP4 SWAP6 PUSH2 0x5D8 JUMP JUMPDEST CALLVALUE PUSH2 0x535 JUMPI PUSH1 0x40 CALLDATASIZE PUSH1 0x3 NOT ADD SLT PUSH2 0x535 JUMPI PUSH1 0x4 CALLDATALOAD PUSH1 0x24 CALLDATALOAD PUSH1 0x4 DUP2 LT ISZERO PUSH2 0x535 JUMPI CALLER PUSH1 0x0 SWAP1 DUP2 MSTORE PUSH32 0xAD3228B676F7D3CD4284A5443F17F1962B36E491B30A40B2405849E597BA5FB5 PUSH1 0x20 MSTORE PUSH1 0x40 SWAP1 KECCAK256 SLOAD PUSH1 0xFF AND ISZERO PUSH2 0x708 JUMPI PUSH1 0x20 DUP2 PUSH2 0x6F8 PUSH32 0x3346ABF262AC5179E9052765FB72484E0BAAB1F356F08442BB7A3054147631DE SWAP4 PUSH1 0x3 PUSH2 0x6F1 DUP8 PUSH2 0x9E7 JUMP JUMPDEST POP ADD PUSH2 0xDCF JUMP JUMPDEST PUSH2 0x705 PUSH1 0x40 MLOAD DUP1 SWAP3 PUSH2 0xB97 JUMP JUMPDEST LOG2 STOP JUMPDEST PUSH1 0x40 MLOAD PUSH4 0xE2517D3F PUSH1 0xE0 SHL DUP2 MSTORE CALLER PUSH1 0x4 DUP3 ADD MSTORE PUSH1 0x0 PUSH1 0x24 DUP3 ADD MSTORE PUSH1 0x44 SWAP1 REVERT JUMPDEST CALLVALUE PUSH2 0x535 JUMPI PUSH1 0x20 CALLDATASIZE PUSH1 0x3 NOT ADD SLT PUSH2 0x535 JUMPI PUSH1 0x0 PUSH1 0xE0 PUSH1 0x40 MLOAD PUSH2 0x748 DUP2 PUSH2 0xA72 JUMP JUMPDEST PUSH1 0x60 DUP2 MSTORE PUSH1 0x60 PUSH1 0x20 DUP3 ADD MSTORE DUP3 PUSH1 0x40 DUP3 ADD MSTORE DUP3 PUSH1 0x60 DUP3 ADD MSTORE DUP3 PUSH1 0x80 DUP3 ADD MSTORE DUP3 PUSH1 0xA0 DUP3 ADD MSTORE DUP3 PUSH1 0xC0 DUP3 ADD MSTORE ADD MSTORE PUSH2 0x79E PUSH2 0x78A PUSH2 0x784 PUSH1 0x4 CALLDATALOAD PUSH2 0x9E7 JUMP JUMPDEST POP PUSH2 0xDF3 JUMP JUMPDEST PUSH1 0x40 MLOAD SWAP2 DUP3 SWAP2 PUSH1 0x20 DUP4 MSTORE PUSH1 0x20 DUP4 ADD SWAP1 PUSH2 0xBCA JUMP JUMPDEST SUB SWAP1 RETURN JUMPDEST CALLVALUE PUSH2 0x535 JUMPI PUSH1 0x0 CALLDATASIZE PUSH1 0x3 NOT ADD SLT PUSH2 0x535 JUMPI PUSH1 0x20 PUSH1 0x40 MLOAD PUSH1 0x0 DUP2 MSTORE RETURN JUMPDEST CALLVALUE PUSH2 0x535 JUMPI PUSH1 0x0 CALLDATASIZE PUSH1 0x3 NOT ADD SLT PUSH2 0x535 JUMPI PUSH1 0x20 PUSH1 0x40 MLOAD PUSH32 0x829B824E2329E205435D941C9F13BAF578548505283D29261236D8E6596D4636 DUP2 MSTORE RETURN JUMPDEST CALLVALUE PUSH2 0x535 JUMPI PUSH2 0x807 CALLDATASIZE PUSH2 0xBA4 JUMP JUMPDEST SWAP1 PUSH1 0x0 MSTORE PUSH1 0x0 PUSH1 0x20 MSTORE PUSH1 0x40 PUSH1 0x0 KECCAK256 SWAP1 PUSH1 0x1 DUP1 PUSH1 0xA0 SHL SUB AND PUSH1 0x0 MSTORE PUSH1 0x20 MSTORE PUSH1 0x20 PUSH1 0xFF PUSH1 0x40 PUSH1 0x0 KECCAK256 SLOAD AND PUSH1 0x40 MLOAD SWAP1 ISZERO ISZERO DUP2 MSTORE RETURN JUMPDEST CALLVALUE PUSH2 0x535 JUMPI PUSH2 0x847 CALLDATASIZE PUSH2 0xBA4 JUMP JUMPDEST CALLER PUSH1 0x1 PUSH1 0x1 PUSH1 0xA0 SHL SUB DUP3 AND SUB PUSH2 0x860 JUMPI PUSH2 0x56B SWAP2 PUSH2 0xD13 JUMP JUMPDEST PUSH1 0x40 MLOAD PUSH4 0x334BD919 PUSH1 0xE1 SHL DUP2 MSTORE PUSH1 0x4 SWAP1 REVERT JUMPDEST CALLVALUE PUSH2 0x535 JUMPI PUSH2 0x56B PUSH2 0x883 CALLDATASIZE PUSH2 0xBA4 JUMP JUMPDEST SWAP1 DUP1 PUSH1 0x0 MSTORE PUSH1 0x0 PUSH1 0x20 MSTORE PUSH2 0x89E PUSH1 0x1 PUSH1 0x40 PUSH1 0x0 KECCAK256 ADD SLOAD PUSH2 0xC6F JUMP JUMPDEST PUSH2 0xC95 JUMP JUMPDEST CALLVALUE PUSH2 0x535 JUMPI PUSH1 0x20 CALLDATASIZE PUSH1 0x3 NOT ADD SLT PUSH2 0x535 JUMPI PUSH1 0x4 CALLDATALOAD PUSH1 0x0 MSTORE PUSH1 0x0 PUSH1 0x20 MSTORE PUSH1 0x20 PUSH1 0x1 PUSH1 0x40 PUSH1 0x0 KECCAK256 ADD SLOAD PUSH1 0x40 MLOAD SWAP1 DUP2 MSTORE RETURN JUMPDEST CALLVALUE PUSH2 0x535 JUMPI PUSH1 0x20 CALLDATASIZE PUSH1 0x3 NOT ADD SLT PUSH2 0x535 JUMPI PUSH1 0x4 CALLDATALOAD PUSH4 0xFFFFFFFF PUSH1 0xE0 SHL DUP2 AND DUP1 SWAP2 SUB PUSH2 0x535 JUMPI PUSH1 0x20 SWAP1 PUSH4 0x7965DB0B PUSH1 0xE0 SHL DUP2 EQ SWAP1 DUP2 ISZERO PUSH2 0x917 JUMPI JUMPDEST POP PUSH1 0x40 MLOAD SWAP1 ISZERO ISZERO DUP2 MSTORE RETURN JUMPDEST PUSH4 0x1FFC9A7 PUSH1 0xE0 SHL EQ SWAP1 POP DUP3 PUSH2 0x90C JUMP JUMPDEST CALLVALUE PUSH2 0x535 JUMPI PUSH1 0x20 CALLDATASIZE PUSH1 0x3 NOT ADD SLT PUSH2 0x535 JUMPI PUSH1 0x4 CALLDATALOAD PUSH1 0x1 SLOAD DUP2 LT ISZERO PUSH2 0x535 JUMPI PUSH2 0x952 PUSH2 0x99F SWAP2 PUSH2 0x9E7 JUMP JUMPDEST POP PUSH2 0x95C DUP2 PUSH2 0xAB1 JUMP JUMPDEST SWAP1 PUSH2 0x969 PUSH1 0x1 DUP3 ADD PUSH2 0xAB1 JUMP JUMPDEST PUSH1 0x2 DUP3 ADD SLOAD SWAP2 PUSH1 0x3 DUP2 ADD SLOAD PUSH2 0x9D4 PUSH1 0x4 DUP4 ADD SLOAD SWAP2 PUSH2 0x9AD PUSH1 0x6 PUSH1 0x5 DUP7 ADD SLOAD SWAP6 ADD SLOAD SWAP6 PUSH1 0x40 MLOAD SWAP10 DUP11 SWAP10 PUSH2 0x100 DUP1 DUP13 MSTORE DUP12 ADD SWAP1 PUSH2 0xB57 JUMP JUMPDEST SWAP1 DUP10 DUP3 SUB PUSH1 0x20 DUP12 ADD MSTORE PUSH2 0xB57 JUMP JUMPDEST PUSH1 0x40 DUP9 ADD SWAP7 SWAP1 SWAP7 MSTORE PUSH1 0x1 PUSH1 0x1 PUSH1 0xA0 SHL SUB DUP2 AND PUSH1 0x60 DUP9 ADD MSTORE PUSH1 0x80 DUP8 ADD SWAP1 PUSH1 0xA0 SHR PUSH1 0xFF AND PUSH2 0xB97 JUMP JUMPDEST PUSH1 0xA0 DUP6 ADD MSTORE PUSH1 0xC0 DUP5 ADD MSTORE PUSH1 0xE0 DUP4 ADD MSTORE SUB SWAP1 RETURN JUMPDEST PUSH1 0x1 SLOAD DUP2 LT ISZERO PUSH2 0xA22 JUMPI PUSH1 0x7 SWAP1 PUSH1 0x1 PUSH1 0x0 MSTORE MUL PUSH32 0xB10E2D527612073B26EECDFD717E6A320CF44B4AFAC2B0732D9FCBE2B7FA0CF6 ADD SWAP1 PUSH1 0x0 SWAP1 JUMP JUMPDEST PUSH4 0x4E487B71 PUSH1 0xE0 SHL PUSH1 0x0 MSTORE PUSH1 0x32 PUSH1 0x4 MSTORE PUSH1 0x24 PUSH1 0x0 REVERT JUMPDEST SWAP1 PUSH1 0x1 DUP3 DUP2 SHR SWAP3 AND DUP1 ISZERO PUSH2 0xA68 JUMPI JUMPDEST PUSH1 0x20 DUP4 LT EQ PUSH2 0xA52 JUMPI JUMP JUMPDEST PUSH4 0x4E487B71 PUSH1 0xE0 SHL PUSH1 0x0 MSTORE PUSH1 0x22 PUSH1 0x4 MSTORE PUSH1 0x24 PUSH1 0x0 REVERT JUMPDEST SWAP2 PUSH1 0x7F AND SWAP2 PUSH2 0xA47 JUMP JUMPDEST PUSH2 0x100 DUP2 ADD SWAP1 DUP2 LT PUSH8 0xFFFFFFFFFFFFFFFF DUP3 GT OR PUSH2 0x434 JUMPI PUSH1 0x40 MSTORE JUMP JUMPDEST SWAP1 PUSH1 0x1F DUP1 NOT SWAP2 ADD AND DUP2 ADD SWAP1 DUP2 LT PUSH8 0xFFFFFFFFFFFFFFFF DUP3 GT OR PUSH2 0x434 JUMPI PUSH1 0x40 MSTORE JUMP JUMPDEST SWAP1 PUSH1 0x40 MLOAD SWAP2 DUP3 PUSH1 0x0 DUP3 SLOAD SWAP3 PUSH2 0xAC5 DUP5 PUSH2 0xA38 JUMP JUMPDEST SWAP1 DUP2 DUP5 MSTORE PUSH1 0x1 SWAP5 DUP6 DUP2 AND SWAP1 DUP2 PUSH1 0x0 EQ PUSH2 0xB34 JUMPI POP PUSH1 0x1 EQ PUSH2 0xAF1 JUMPI JUMPDEST POP POP PUSH2 0xAEF SWAP3 POP SUB DUP4 PUSH2 0xA8F JUMP JUMPDEST JUMP JUMPDEST SWAP1 SWAP4 SWAP2 POP PUSH1 0x0 MSTORE PUSH1 0x20 SWAP1 DUP2 PUSH1 0x0 KECCAK256 SWAP4 PUSH1 0x0 SWAP2 JUMPDEST DUP2 DUP4 LT PUSH2 0xB1C JUMPI POP POP PUSH2 0xAEF SWAP4 POP DUP3 ADD ADD CODESIZE DUP1 PUSH2 0xAE1 JUMP JUMPDEST DUP6 SLOAD DUP9 DUP5 ADD DUP6 ADD MSTORE SWAP5 DUP6 ADD SWAP5 DUP8 SWAP5 POP SWAP2 DUP4 ADD SWAP2 PUSH2 0xB04 JUMP JUMPDEST SWAP2 POP POP PUSH2 0xAEF SWAP5 POP PUSH1 0x20 SWAP3 POP PUSH1 0xFF NOT AND DUP3 DUP5 ADD MSTORE ISZERO ISZERO PUSH1 0x5 SHL DUP3 ADD ADD CODESIZE DUP1 PUSH2 0xAE1 JUMP JUMPDEST SWAP2 SWAP1 DUP3 MLOAD SWAP3 DUP4 DUP3 MSTORE PUSH1 0x0 JUMPDEST DUP5 DUP2 LT PUSH2 0xB83 JUMPI POP POP DUP3 PUSH1 0x0 PUSH1 0x20 DUP1 SWAP5 SWAP6 DUP5 ADD ADD MSTORE PUSH1 0x1F DUP1 NOT SWAP2 ADD AND ADD ADD SWAP1 JUMP JUMPDEST PUSH1 0x20 DUP2 DUP4 ADD DUP2 ADD MLOAD DUP5 DUP4 ADD DUP3 ADD MSTORE ADD PUSH2 0xB62 JUMP JUMPDEST SWAP1 PUSH1 0x4 DUP3 LT ISZERO PUSH2 0x35E JUMPI MSTORE JUMP JUMPDEST PUSH1 0x40 SWAP1 PUSH1 0x3 NOT ADD SLT PUSH2 0x535 JUMPI PUSH1 0x4 CALLDATALOAD SWAP1 PUSH1 0x24 CALLDATALOAD PUSH1 0x1 PUSH1 0x1 PUSH1 0xA0 SHL SUB DUP2 AND DUP2 SUB PUSH2 0x535 JUMPI SWAP1 JUMP JUMPDEST SWAP1 PUSH1 0xE0 DUP1 PUSH2 0xBF6 PUSH2 0xBE4 DUP6 MLOAD PUSH2 0x100 DUP1 DUP8 MSTORE DUP7 ADD SWAP1 PUSH2 0xB57 JUMP JUMPDEST PUSH1 0x20 DUP7 ADD MLOAD DUP6 DUP3 SUB PUSH1 0x20 DUP8 ADD MSTORE PUSH2 0xB57 JUMP JUMPDEST SWAP4 PUSH1 0x40 DUP2 ADD MLOAD PUSH1 0x40 DUP6 ADD MSTORE PUSH1 0x1 DUP1 PUSH1 0xA0 SHL SUB PUSH1 0x60 DUP3 ADD MLOAD AND PUSH1 0x60 DUP6 ADD MSTORE PUSH2 0xC25 PUSH1 0x80 DUP3 ADD MLOAD PUSH1 0x80 DUP7 ADD SWAP1 PUSH2 0xB97 JUMP JUMPDEST PUSH1 0xA0 DUP2 ADD MLOAD PUSH1 0xA0 DUP6 ADD MSTORE PUSH1 0xC0 DUP2 ADD MLOAD PUSH1 0xC0 DUP6 ADD MSTORE ADD MLOAD SWAP2 ADD MSTORE SWAP1 JUMP JUMPDEST SWAP2 DUP2 PUSH1 0x1F DUP5 ADD SLT ISZERO PUSH2 0x535 JUMPI DUP3 CALLDATALOAD SWAP2 PUSH8 0xFFFFFFFFFFFFFFFF DUP4 GT PUSH2 0x535 JUMPI PUSH1 0x20 DUP4 DUP2 DUP7 ADD SWAP6 ADD ADD GT PUSH2 0x535 JUMPI JUMP JUMPDEST DUP1 PUSH1 0x0 MSTORE PUSH1 0x0 PUSH1 0x20 MSTORE PUSH1 0x40 PUSH1 0x0 KECCAK256 CALLER PUSH1 0x0 MSTORE PUSH1 0x20 MSTORE PUSH1 0xFF PUSH1 0x40 PUSH1 0x0 KECCAK256 SLOAD AND ISZERO PUSH2 0x517 JUMPI POP JUMP JUMPDEST SWAP1 PUSH1 0x0 SWAP2 DUP1 DUP4 MSTORE DUP3 PUSH1 0x20 MSTORE PUSH1 0x40 DUP4 KECCAK256 SWAP2 PUSH1 0x1 DUP1 PUSH1 0xA0 SHL SUB AND SWAP2 DUP3 DUP5 MSTORE PUSH1 0x20 MSTORE PUSH1 0xFF PUSH1 0x40 DUP5 KECCAK256 SLOAD AND ISZERO PUSH1 0x0 EQ PUSH2 0xD0E JUMPI DUP1 DUP4 MSTORE DUP3 PUSH1 0x20 MSTORE PUSH1 0x40 DUP4 KECCAK256 DUP3 DUP5 MSTORE PUSH1 0x20 MSTORE PUSH1 0x40 DUP4 KECCAK256 PUSH1 0x1 PUSH1 0xFF NOT DUP3 SLOAD AND OR SWAP1 SSTORE PUSH32 0x2F8788117E7EFF1D82E926EC794901D17C78024A50270940304540A733656F0D CALLER SWAP4 DUP1 LOG4 PUSH1 0x1 SWAP1 JUMP JUMPDEST POP POP SWAP1 JUMP JUMPDEST SWAP1 PUSH1 0x0 SWAP2 DUP1 DUP4 MSTORE DUP3 PUSH1 0x20 MSTORE PUSH1 0x40 DUP4 KECCAK256 SWAP2 PUSH1 0x1 DUP1 PUSH1 0xA0 SHL SUB AND SWAP2 DUP3 DUP5 MSTORE PUSH1 0x20 MSTORE PUSH1 0xFF PUSH1 0x40 DUP5 KECCAK256 SLOAD AND PUSH1 0x0 EQ PUSH2 0xD0E JUMPI DUP1 DUP4 MSTORE DUP3 PUSH1 0x20 MSTORE PUSH1 0x40 DUP4 KECCAK256 DUP3 DUP5 MSTORE PUSH1 0x20 MSTORE PUSH1 0x40 DUP4 KECCAK256 PUSH1 0xFF NOT DUP2 SLOAD AND SWAP1 SSTORE PUSH32 0xF6391F5C32D9C69D2A47EA670B442974B53935D1EDC7FD64EB21E047A839171B CALLER SWAP4 DUP1 LOG4 PUSH1 0x1 SWAP1 JUMP JUMPDEST SWAP3 SWAP2 SWAP3 PUSH8 0xFFFFFFFFFFFFFFFF DUP3 GT PUSH2 0x434 JUMPI PUSH1 0x40 MLOAD SWAP2 PUSH2 0xDB2 PUSH1 0x1F DUP3 ADD PUSH1 0x1F NOT AND PUSH1 0x20 ADD DUP5 PUSH2 0xA8F JUMP JUMPDEST DUP3 SWAP5 DUP2 DUP5 MSTORE DUP2 DUP4 ADD GT PUSH2 0x535 JUMPI DUP3 DUP2 PUSH1 0x20 SWAP4 DUP5 PUSH1 0x0 SWAP7 ADD CALLDATACOPY ADD ADD MSTORE JUMP JUMPDEST SWAP1 PUSH1 0x4 DUP2 LT ISZERO PUSH2 0x35E JUMPI DUP2 SLOAD PUSH1 0xFF PUSH1 0xA0 SHL NOT AND PUSH1 0xA0 SWAP2 SWAP1 SWAP2 SHL PUSH1 0xFF PUSH1 0xA0 SHL AND OR SWAP1 SSTORE JUMP JUMPDEST SWAP1 PUSH1 0x40 MLOAD PUSH2 0xE00 DUP2 PUSH2 0xA72 JUMP JUMPDEST DUP1 SWAP3 PUSH2 0xE0B DUP2 PUSH2 0xAB1 JUMP JUMPDEST DUP3 MSTORE PUSH2 0xE19 PUSH1 0x1 DUP3 ADD PUSH2 0xAB1 JUMP JUMPDEST PUSH1 0x20 DUP4 ADD MSTORE PUSH1 0x2 DUP2 ADD SLOAD PUSH1 0x40 DUP4 ADD MSTORE PUSH1 0x3 DUP2 ADD SLOAD PUSH1 0x1 PUSH1 0x1 PUSH1 0xA0 SHL SUB DUP2 AND PUSH1 0x60 DUP5 ADD MSTORE PUSH1 0xA0 SHR PUSH1 0xFF AND PUSH1 0x4 DUP2 LT ISZERO PUSH2 0x35E JUMPI PUSH1 0xE0 SWAP2 PUSH1 0x6 SWAP2 PUSH1 0x80 DUP6 ADD MSTORE PUSH1 0x4 DUP2 ADD SLOAD PUSH1 0xA0 DUP6 ADD MSTORE PUSH1 0x5 DUP2 ADD SLOAD PUSH1 0xC0 DUP6 ADD MSTORE ADD SLOAD SWAP2 ADD MSTORE JUMP INVALID LOG2 PUSH5 0x6970667358 0x22 SLT KECCAK256 SWAP12 0xAC SUB NOT 0x2F 0xB3 0xB6 ISZERO PUSH13 0x1713CA4F1CB5345C9F6006D809 0xD7 PUSH5 0x78001FC16C 0xAC 0xE1 0xE6 PUSH5 0x736F6C6343 STOP ADDMOD EQ STOP CALLER 0x2F DUP8 DUP9 GT PUSH31 0x7EFF1D82E926EC794901D17C78024A50270940304540A733656F0D00000000 "},"methodIdentifiers":{"DEFAULT_ADMIN_ROLE()":"a217fddf","MEMBER_ROLE()":"a10f469e","createProposal(string,string,uint256,address)":"e5ee89cc","getAllProposals()":"cceb68f5","getProposal(uint256)":"c7f758a8","getRoleAdmin(bytes32)":"248a9ca3","grantRole(bytes32,address)":"2f2ff15d","hasRole(bytes32,address)":"91d14854","proposals(uint256)":"013cf08b","renounceRole(bytes32,address)":"36568abe","revokeRole(bytes32,address)":"d547741f","setProposalStatus(uint256,uint8)":"cbe94614","supportsInterface(bytes4)":"01ffc9a7"}}}}}