{"contracts/EnhancedProposal.sol":{"EnhancedProposal":{"abi":[{"inputs":[{"internalType":"address","name":"_governanceToken","type":"address"},{"internalType":"address","name":"admin","type":"address"}],"stateMutability":"nonpayable","type":"constructor"},{"inputs":[],"name":"AccessControlBadConfirmation","type":"error"},{"inputs":[{"internalType":"address","name":"account","type":"address"},{"internalType":"bytes32","name":"neededRole","type":"bytes32"}],"name":"AccessControlUnauthorizedAccount","type":"error"},{"anonymous":false,"inputs":[{"indexed":false,"internalType":"enum EnhancedProposal.Category","name":"category","type":"uint8"},{"indexed":false,"internalType":"uint256","name":"votingDuration","type":"uint256"},{"indexed":false,"internalType":"uint256","name":"quorumPercent","type":"uint256"}],"name":"CategoryConfigUpdated","type":"event"},{"anonymous":false,"inputs":[{"indexed":true,"internalType":"uint256","name":"id","type":"uint256"},{"indexed":true,"internalType":"address","name":"proposer","type":"address"}],"name":"EmergencyProposalCreated","type":"event"},{"anonymous":false,"inputs":[{"indexed":true,"internalType":"uint256","name":"id","type":"uint256"},{"indexed":true,"internalType":"address","name":"canceller","type":"address"}],"name":"ProposalCancelled","type":"event"},{"anonymous":false,"inputs":[{"indexed":true,"internalType":"uint256","name":"id","type":"uint256"},{"indexed":true,"internalType":"address","name":"proposer","type":"address"},{"indexed":false,"internalType":"enum EnhancedProposal.Category","name":"category","type":"uint8"}],"name":"ProposalCreated","type":"event"},{"anonymous":false,"inputs":[{"indexed":true,"internalType":"uint256","name":"id","type":"uint256"},{"indexed":true,"internalType":"address","name":"modifierAddress","type":"address"},{"indexed":false,"internalType":"uint256","name":"version","type":"uint256"}],"name":"ProposalModified","type":"event"},{"anonymous":false,"inputs":[{"indexed":true,"internalType":"bytes32","name":"role","type":"bytes32"},{"indexed":true,"internalType":"bytes32","name":"previousAdminRole","type":"bytes32"},{"indexed":true,"internalType":"bytes32","name":"newAdminRole","type":"bytes32"}],"name":"RoleAdminChanged","type":"event"},{"anonymous":false,"inputs":[{"indexed":true,"internalType":"bytes32","name":"role","type":"bytes32"},{"indexed":true,"internalType":"address","name":"account","type":"address"},{"indexed":true,"internalType":"address","name":"sender","type":"address"}],"name":"RoleGranted","type":"event"},{"anonymous":false,"inputs":[{"indexed":true,"internalType":"bytes32","name":"role","type":"bytes32"},{"indexed":true,"internalType":"address","name":"account","type":"address"},{"indexed":true,"internalType":"address","name":"sender","type":"address"}],"name":"RoleRevoked","type":"event"},{"inputs":[],"name":"DEFAULT_ADMIN_ROLE","outputs":[{"internalType":"bytes32","name":"","type":"bytes32"}],"stateMutability":"view","type":"function"},{"inputs":[],"name":"EMERGENCY_ROLE","outputs":[{"internalType":"bytes32","name":"","type":"bytes32"}],"stateMutability":"view","type":"function"},{"inputs":[],"name":"MEMBER_ROLE","outputs":[{"internalType":"bytes32","name":"","type":"bytes32"}],"stateMutability":"view","type":"function"},{"inputs":[{"internalType":"uint256","name":"proposalId","type":"uint256"}],"name":"activateProposal","outputs":[],"stateMutability":"nonpayable","type":"function"},{"inputs":[{"internalType":"uint256","name":"proposalId","type":"uint256"}],"name":"cancelProposal","outputs":[],"stateMutability":"nonpayable","type":"function"},{"inputs":[{"internalType":"enum EnhancedProposal.Category","name":"","type":"uint8"}],"name":"categoryConfigs","outputs":[{"internalType":"uint256","name":"votingDuration","type":"uint256"},{"internalType":"uint256","name":"quorumPercent","type":"uint256"},{"internalType":"uint256","name":"minVotingPower","type":"uint256"},{"internalType":"bool","name":"isActive","type":"bool"}],"stateMutability":"view","type":"function"},{"inputs":[{"internalType":"string","name":"title","type":"string"},{"internalType":"string","name":"description","type":"string"},{"internalType":"uint256","name":"amount","type":"uint256"},{"internalType":"address payable","name":"recipient","type":"address"},{"internalType":"uint256","name":"emergencyThreshold","type":"uint256"}],"name":"createEmergencyProposal","outputs":[{"internalType":"uint256","name":"","type":"uint256"}],"stateMutability":"nonpayable","type":"function"},{"inputs":[{"internalType":"string","name":"title","type":"string"},{"internalType":"string","name":"description","type":"string"},{"internalType":"uint256","name":"amount","type":"uint256"},{"internalType":"address payable","name":"recipient","type":"address"},{"internalType":"enum EnhancedProposal.Category","name":"category","type":"uint8"}],"name":"createProposal","outputs":[{"internalType":"uint256","name":"","type":"uint256"}],"stateMutability":"nonpayable","type":"function"},{"inputs":[{"internalType":"enum EnhancedProposal.Category","name":"category","type":"uint8"}],"name":"getCategoryConfig","outputs":[{"components":[{"internalType":"uint256","name":"votingDuration","type":"uint256"},{"internalType":"uint256","name":"quorumPercent","type":"uint256"},{"internalType":"uint256","name":"minVotingPower","type":"uint256"},{"internalType":"bool","name":"isActive","type":"bool"}],"internalType":"struct EnhancedProposal.CategoryConfig","name":"","type":"tuple"}],"stateMutability":"view","type":"function"},{"inputs":[],"name":"getEmergencyProposals","outputs":[{"internalType":"uint256[]","name":"","type":"uint256[]"}],"stateMutability":"view","type":"function"},{"inputs":[{"internalType":"uint256","name":"proposalId","type":"uint256"}],"name":"getProposal","outputs":[{"components":[{"internalType":"string","name":"title","type":"string"},{"internalType":"string","name":"description","type":"string"},{"internalType":"uint256","name":"amount","type":"uint256"},{"internalType":"address payable","name":"recipient","type":"address"},{"internalType":"enum EnhancedProposal.Category","name":"category","type":"uint8"},{"internalType":"enum EnhancedProposal.Status","name":"status","type":"uint8"},{"internalType":"uint256","name":"votesFor","type":"uint256"},{"internalType":"uint256","name":"votesAgainst","type":"uint256"},{"internalType":"uint256","name":"startTime","type":"uint256"},{"internalType":"uint256","name":"endTime","type":"uint256"},{"internalType":"address","name":"proposer","type":"address"},{"internalType":"uint256","name":"version","type":"uint256"},{"internalType":"bool","name":"isEmergency","type":"bool"},{"internalType":"uint256","name":"emergencyThreshold","type":"uint256"}],"internalType":"struct EnhancedProposal.ProposalData","name":"","type":"tuple"}],"stateMutability":"view","type":"function"},{"inputs":[{"internalType":"uint256","name":"proposalId","type":"uint256"},{"internalType":"uint256","name":"version","type":"uint256"}],"name":"getProposalHistory","outputs":[{"components":[{"internalType":"uint256","name":"timestamp","type":"uint256"},{"internalType":"string","name":"title","type":"string"},{"internalType":"string","name":"description","type":"string"},{"internalType":"uint256","name":"amount","type":"uint256"},{"internalType":"address payable","name":"recipient","type":"address"},{"internalType":"uint256","name":"version","type":"uint256"}],"internalType":"struct EnhancedProposal.ProposalHistory","name":"","type":"tuple"}],"stateMutability":"view","type":"function"},{"inputs":[{"internalType":"enum EnhancedProposal.Category","name":"category","type":"uint8"}],"name":"getProposalsByCategory","outputs":[{"internalType":"uint256[]","name":"","type":"uint256[]"}],"stateMutability":"view","type":"function"},{"inputs":[{"internalType":"bytes32","name":"role","type":"bytes32"}],"name":"getRoleAdmin","outputs":[{"internalType":"bytes32","name":"","type":"bytes32"}],"stateMutability":"view","type":"function"},{"inputs":[],"name":"governanceToken","outputs":[{"internalType":"contract GovernanceToken","name":"","type":"address"}],"stateMutability":"view","type":"function"},{"inputs":[{"internalType":"bytes32","name":"role","type":"bytes32"},{"internalType":"address","name":"account","type":"address"}],"name":"grantRole","outputs":[],"stateMutability":"nonpayable","type":"function"},{"inputs":[{"internalType":"bytes32","name":"role","type":"bytes32"},{"internalType":"address","name":"account","type":"address"}],"name":"hasRole","outputs":[{"internalType":"bool","name":"","type":"bool"}],"stateMutability":"view","type":"function"},{"inputs":[{"internalType":"uint256","name":"proposalId","type":"uint256"},{"internalType":"string","name":"title","type":"string"},{"internalType":"string","name":"description","type":"string"},{"internalType":"uint256","name":"amount","type":"uint256"},{"internalType":"address payable","name":"recipient","type":"address"}],"name":"modifyProposal","outputs":[],"stateMutability":"nonpayable","type":"function"},{"inputs":[],"name":"proposalCount","outputs":[{"internalType":"uint256","name":"","type":"uint256"}],"stateMutability":"view","type":"function"},{"inputs":[{"internalType":"uint256","name":"","type":"uint256"},{"internalType":"uint256","name":"","type":"uint256"}],"name":"proposalHistory","outputs":[{"internalType":"uint256","name":"timestamp","type":"uint256"},{"internalType":"string","name":"title","type":"string"},{"internalType":"string","name":"description","type":"string"},{"internalType":"uint256","name":"amount","type":"uint256"},{"internalType":"address payable","name":"recipient","type":"address"},{"internalType":"uint256","name":"version","type":"uint256"}],"stateMutability":"view","type":"function"},{"inputs":[{"internalType":"uint256","name":"","type":"uint256"}],"name":"proposals","outputs":[{"internalType":"string","name":"title","type":"string"},{"internalType":"string","name":"description","type":"string"},{"internalType":"uint256","name":"amount","type":"uint256"},{"internalType":"address payable","name":"recipient","type":"address"},{"internalType":"enum EnhancedProposal.Category","name":"category","type":"uint8"},{"internalType":"enum EnhancedProposal.Status","name":"status","type":"uint8"},{"internalType":"uint256","name":"votesFor","type":"uint256"},{"internalType":"uint256","name":"votesAgainst","type":"uint256"},{"internalType":"uint256","name":"startTime","type":"uint256"},{"internalType":"uint256","name":"endTime","type":"uint256"},{"internalType":"address","name":"proposer","type":"address"},{"internalType":"uint256","name":"version","type":"uint256"},{"internalType":"bool","name":"isEmergency","type":"bool"},{"internalType":"uint256","name":"emergencyThreshold","type":"uint256"}],"stateMutability":"view","type":"function"},{"inputs":[{"internalType":"bytes32","name":"role","type":"bytes32"},{"internalType":"address","name":"callerConfirmation","type":"address"}],"name":"renounceRole","outputs":[],"stateMutability":"nonpayable","type":"function"},{"inputs":[{"internalType":"bytes32","name":"role","type":"bytes32"},{"internalType":"address","name":"account","type":"address"}],"name":"revokeRole","outputs":[],"stateMutability":"nonpayable","type":"function"},{"inputs":[{"internalType":"uint256","name":"proposalId","type":"uint256"},{"internalType":"enum EnhancedProposal.Status","name":"status","type":"uint8"}],"name":"setProposalStatus","outputs":[],"stateMutability":"nonpayable","type":"function"},{"inputs":[{"internalType":"bytes4","name":"interfaceId","type":"bytes4"}],"name":"supportsInterface","outputs":[{"internalType":"bool","name":"","type":"bool"}],"stateMutability":"view","type":"function"},{"inputs":[{"internalType":"enum EnhancedProposal.Category","name":"category","type":"uint8"},{"internalType":"uint256","name":"votingDuration","type":"uint256"},{"internalType":"uint256","name":"quorumPercent","type":"uint256"},{"internalType":"uint256","name":"minVotingPower","type":"uint256"}],"name":"updateCategoryConfig","outputs":[],"stateMutability":"nonpayable","type":"function"}],"evm":{"bytecode":{"linkReferences":{},"object":"6080346200028f57620027b890601f38839003908101601f19168201906001600160401b038211838310176200029457808391604095869485528339810103126200028f5780620000546200028192620002ca565b90620000a5620000686020809301620002ca565b600180546001600160a01b0319166001600160a01b039095169490941784556200009281620002df565b506200009e816200035f565b5062000401565b50620000b0620002aa565b906203f480808352818301603281528684019468056bc75e2d6310000091828752620001cf60608701948386526200011b6000998a8052600494858a528d8c209a518b5551868b01555196600297888b01555115156003809a019060ff801983541691151516179055565b6200017e8b89898c6200012d620002aa565b9362069780855282850190603c825280860192681b1ae4d6e2ef50000084528a60608801958d87528d83525220945185555189850155518a84015551151591019060ff801983541691151516179055565b62000188620002aa565b90815287898c89840160328152818501918983528a60608701948a865252878c528d20945185555187850155518884015551151591019060ff801983541691151516179055565b62000230620001dd620002aa565b62093a80815287898c8984016046815281850191683635c9adc5dea0000083528460608701948a865252878c528d20945185555187850155518884015551151591019060ff801983541691151516179055565b886200023b620002aa565b976201518089528689019260288452828a0195865260608a01978589528183525220965187555190860155519084015551151591019060ff801983541691151516179055565b516122f990816200049f8239f35b600080fd5b634e487b7160e01b600052604160045260246000fd5b60405190608082016001600160401b038111838210176200029457604052565b51906001600160a01b03821682036200028f57565b6001600160a01b031660008181527fad3228b676f7d3cd4284a5443f17f1962b36e491b30a40b2405849e597ba5fb5602052604081205490919060ff166200035b57818052816020526040822081835260205260408220600160ff198254161790553391600080516020620027988339815191528180a4600190565b5090565b6001600160a01b031660008181527f30710e496c9a8631e387d1ff5062c226d4ce9c9e008bff1f22ae157290ccbd6260205260408120549091907f829b824e2329e205435d941c9f13baf578548505283d29261236d8e6596d46369060ff16620003fc57808352826020526040832082845260205260408320600160ff1982541617905560008051602062002798833981519152339380a4600190565b505090565b6001600160a01b031660008181527f3c1b1854ab1360abbb06c8d4c6b2672d4b8cedc5eff522ab19e51d5cb8fdbd4660205260408120549091907fbf233dd2aafeb4d50879c4aa5c81e96d92f6e6945c906a58f9f2d1c1631b4b269060ff16620003fc57808352826020526040832082845260205260408320600160ff1982541617905560008051602062002798833981519152339380a460019056fe6080604052600436101561001257600080fd5b60003560e01c8063013cf08b14611c2157806301ffc9a714611bcb578063084b060114611b2b5780630924e86714611a6457806320df435914611a29578063248a9ca3146119fa5780632f2ff15d146119c957806336568abe1461199057806345ac5955146118e2578063586a19601461188a578063617722301461148a5780636f6dce931461137b5780638b2f812614610dc457806391d1485414610d84578063a10f469e14610d49578063a217fddf14610d2d578063a929023014610c73578063ba68d4bb14610680578063c4896724146105e3578063c7f758a8146103a1578063cbe9461414610360578063d547741f1461032d578063da35c6641461030f578063e0a8f6f5146101fb578063f96dae0a146101d25763f9a5f3b81461013a57600080fd5b346101cd5760803660031901126101cd5760043560058110156101cd5760607fbcb0c1c474ca5c5c7d8e5584e09a6476fcacd9dbeb79604f88a756acae9095fa916024356044359061018a611fb5565b8061019484611f43565b558160016101a185611f43565b015560643560026101b185611f43565b01556101c06040518094611ec8565b60208301526040820152a1005b600080fd5b346101cd5760003660031901126101cd576001546040516001600160a01b039091168152602090f35b346101cd5760203660031901126101cd576004358060005260026020526003604060002061023660018060a01b036008830154163314612204565b01805460ff8160a81c1660078110156102f95780159081156102ee575b50156102915760ff60a81b1916600560a81b17905533907f74c34a008ce735d9fcf0bd03a9b238d212ad4c441c020661f4ffbb6442645b85600080a3005b60405162461bcd60e51b815260206004820152602f60248201527f456e68616e63656450726f706f73616c3a2063616e6e6f742063616e63656c2060448201526e1858dd1a5d99481c1c9bdc1bdcd85b608a1b6064820152608490fd5b600691501484610253565b634e487b7160e01b600052602160045260246000fd5b346101cd5760003660031901126101cd576020600554604051908152f35b346101cd5761035e61033e36611f1d565b90806000526000602052610359600160406000200154611fef565b612093565b005b346101cd5760403660031901126101cd5760243560078110156101cd5761035e90610389611fb5565b600435600052600260205260036040600020016121e0565b346101cd5760203660031901126101cd5760006101a06040516103c381611d8a565b60608152606060208201528260408201528260608201528260808201528260a08201528260c08201528260e082015282610100820152826101208201528261014082015282610160820152826101808201520152600435600052600260205260406000206040519061043482611d8a565b61043d81611de2565b825261044b60018201611de2565b60208301526002810154604083015260038101546001600160a01b03811660608401529061048360a083901c60ff1660808501612180565b600760ff8360a81c1610156102f95760ff600b9260a81c1660a0840152600481015460c0840152600581015460e08401526006810154610100840152600781015461012084015260018060a01b03600882015416610140840152600981015461016084015260ff600a82015416151561018084015201546101a08201526040518091602082526101a061053d61052783516101c060208701526101e0860190611e88565b6020840151858203601f19016040870152611e88565b916040810151606085015260018060a01b03606082015116608085015261056c608082015160a0860190611ec8565b61057e60a082015160c0860190611ed5565b60c081015160e085015260e081015161010085015261010081015161012085015261012081015161014085015260018060a01b036101408201511661016085015261016081015161018085015261018081015115158285015201516101c08301520390f35b346101cd576105f136611f9f565b9060005260036020526040600020906000526020526040600020805461061960018301611de2565b9161062660028201611de2565b60038201549161066c600560018060a01b036004840154169201549261065e604051978897885260c0602089015260c0880190611e88565b908682036040880152611e88565b926060850152608084015260a08301520390f35b346101cd5760a03660031901126101cd576024356001600160401b0381116101cd576106b0903690600401611f5c565b906044356001600160401b0381116101cd576106d0903690600401611f5c565b608435939091906001600160a01b03851685036101cd57600435600052600260205260406000209361070f60018060a01b036008870154163314612204565b600385015460ff8160a81c1660078110156102f957610c16576007860154421015610bc0576002860154906009870154906040519261074d84611da6565b42845261075989611de2565b602085015261076a60018a01611de2565b6040850152606084015260018060a01b031660808301528060a083015260043560005260036020526040600020906000526020526040600020908051825560208101518051906001600160401b038211610a3a5781906107da826107d16001880154611d35565b6001880161218c565b602090601f8311600114610b4e57600092610b43575b50508160011b916000199060031b1c19161760018301555b60408101518051906001600160401b038211610a3a576108388261082f6002870154611d35565b6002870161218c565b602090601f8311600114610ace5791806005949260a094600092610ac3575b50508160011b916000199060031b1c19161760028501555b6060810151600385015560048401600180841b036080830151166001600160601b03841b82541617905501519101556001600160401b038211610a3a5781906108c2826108bc8854611d35565b8861218c565b600090601f8311600114610a5b57600092610a50575b50508160011b916000199060031b1c19161783555b6001600160401b038211610a3a5781906109178261090e6001870154611d35565b6001870161218c565b600090601f83116001146109c9576000926109be575b50508160011b916000199060031b1c19161760018201555b6064356002820155600380820154926109616009840154612108565b60098401819055600161ff0160a01b03199094166001600160a01b039091161760a982901b179101556040519081523390600435907f092f9620658197c247cf92f615ef3ca4efbf8742ffc0f0f1191df73f446d84dc90602090a3005b01359050848061092d565b909250600184016000526020600020906000935b601f1984168510610a22576001945083601f19811610610a08575b505050811b016001820155610945565b0135600019600384901b60f8161c191690558480806109f8565b818101358355602094850194600190930192016109dd565b634e487b7160e01b600052604160045260246000fd5b0135905086806108d8565b600087815260208120909450915b601f1984168510610aab576001945083601f19811610610a91575b505050811b0183556108ed565b0135600019600384901b60f8161c19169055868080610a84565b81810135835560209485019460019093019201610a69565b015190508c80610857565b906002850160005260206000209160005b601f1985168110610b2b5750926005949260019260a09583601f19811610610b12575b505050811b01600285015561086f565b015160001960f88460031b161c191690558c8080610b02565b91926020600181928685015181550194019201610adf565b015190508a806107f0565b9250600185016000526020600020906000935b601f1984168510610ba5576001945083601f19811610610b8c575b505050811b016001830155610808565b015160001960f88460031b161c191690558a8080610b7c565b81810151835560209485019460019093019290910190610b61565b60405162461bcd60e51b815260206004820152602860248201527f456e68616e63656450726f706f73616c3a20766f74696e6720616c7265616479604482015267081cdd185c9d195960c21b6064820152608490fd5b60405162461bcd60e51b815260206004820152602f60248201527f456e68616e63656450726f706f73616c3a2063616e6e6f74206d6f646966792060448201526e1858dd1a5d99481c1c9bdc1bdcd85b608a1b6064820152608490fd5b346101cd5760003660031901126101cd57600554610c9081612267565b9060009060005b818110610cea575050610ca981612267565b9160005b828110610cc65760405180610cc28682611ee2565b0390f35b80610cd4610ce59284612299565b51610cdf8287612299565b52612108565b610cad565b80600052600260205260ff600a6040600020015416610d12575b610d0d90612108565b610c97565b91610d258184610cdf610d0d9488612299565b929050610d04565b346101cd5760003660031901126101cd57602060405160008152f35b346101cd5760003660031901126101cd5760206040517f829b824e2329e205435d941c9f13baf578548505283d29261236d8e6596d46368152f35b346101cd57610d9236611f1d565b90600052600060205260406000209060018060a01b0316600052602052602060ff604060002054166040519015158152f35b346101cd5760a03660031901126101cd576004356001600160401b0381116101cd57610df4903690600401611f5c565b6024356001600160401b0381116101cd57610e13903690600401611f5c565b9290610e1d611f89565b90600560843510156101cd573360009081527f30710e496c9a8631e387d1ff5062c226d4ce9c9e008bff1f22ae157290ccbd6260205260409020547f829b824e2329e205435d941c9f13baf578548505283d29261236d8e6596d46369060ff161561135d575060ff6003610e92608435611f43565b0154161561130a57600154604051635da6a21b60e11b815233600482015290602090829060249082906001600160a01b03165afa9081156112fe576000916112cc575b506002610ee3608435611f43565b01541161127357610f349060055495610efb87612108565b600555610f2b610f16610f0f608435611f43565b544261212d565b9560405197610f2489611d8a565b369161213a565b8652369161213a565b602084015260443560408401526001600160a01b03166060830152610f5e60843560808401612180565b600060a0830152600060c0830152600060e083015242610100830152610120820152336101408201526001610160820152600061018082015260006101a082015281600052600260205260406000209080519283516001600160401b038111610a3a57610fd581610fcf8654611d35565b8661218c565b6020601f821160011461120a5781929394956000926111ff575b50508160011b916000199060031b1c19161783555b60208201519283516001600160401b038111610a3a576110348161102b6001850154611d35565b6001850161218c565b6020601f8211600114611190578192939495600092611185575b50508160011b916000199060031b1c19161760018201555b604083015160028201556003810160018060a01b03606085015116815490608086015160058110156102f9576001600160a81b03199092161760a091821b60ff60a01b1617825584015160078110156102f9576020946110cb6101a092600b946121e0565b60c0810151600485015560e08101516005850155610100810151600685015561012081015160078501556008840160018060a01b03610140830151166001600160601b0360a01b82541617905561016081015160098501556111436101808201511515600a86019060ff801983541691151516179055565b015191015560405161115781608435611ec8565b817f876b000c101c27e7aaff6a3254ea503d0e9bf516112d43803bd82989b1355235843393a3604051908152f35b01519050858061104e565b6001830160005260206000209060005b601f19841681106111e7575060019394959683601f198116106111ce575b505050811b016001820155611066565b015160001960f88460031b161c191690558580806111be565b9091602060018192858b0151815501930191016111a0565b015190508580610fef565b8460005260206000209060005b601f198416811061125b575060019394959683601f19811610611242575b505050811b018355611004565b015160001960f88460031b161c19169055858080611235565b9091602060018192858b015181550193019101611217565b60405162461bcd60e51b815260206004820152602b60248201527f456e68616e63656450726f706f73616c3a20696e73756666696369656e74207660448201526a37ba34b733903837bbb2b960a91b6064820152608490fd5b90506020813d6020116112f6575b816112e760209383611dc1565b810103126101cd575186610ed5565b3d91506112da565b6040513d6000823e3d90fd5b60405162461bcd60e51b815260206004820152602560248201527f456e68616e63656450726f706f73616c3a2063617465676f7279206e6f742061604482015264637469766560d81b6064820152608490fd5b6044906040519063e2517d3f60e01b82523360048301526024820152fd5b346101cd5761138936611f9f565b6040519161139683611da6565b60008352600060a06020946060868201526060604082015282606082015282608082015201526000526003825260406000209060005281526040600020604051906113e082611da6565b805482526113f060018201611de2565b83830190815261140260028301611de2565b604084019081526003830154926060850193845261147260018060a01b039261145f6005856004860154169460808a0195865201549560a08901968752604051998a99818b5251908a01525160c060408a015260e0890190611e88565b9051878203601f19016060890152611e88565b93516080860152511660a08401525160c08301520390f35b346101cd5760a03660031901126101cd576004356001600160401b0381116101cd576114ba903690600401611f5c565b6024356001600160401b0381116101cd576114d9903690600401611f5c565b92906114e3611f89565b3360009081527f3c1b1854ab1360abbb06c8d4c6b2672d4b8cedc5eff522ab19e51d5cb8fdbd4660205260409020549091907fbf233dd2aafeb4d50879c4aa5c81e96d92f6e6945c906a58f9f2d1c1631b4b269060ff161561135d5750611570906005549561155187612108565b60055560046000526004602052610f2b610f166040600020544261212d565b6020840152604435604084015260018060a01b0316606083015260046080830152600060a0830152600060c0830152600060e08301524261010083015261012082015233610140820152600161016082015260016101808201526084356101a082015281600052600260205260406000209080519283516001600160401b038111610a3a5761160381610fcf8654611d35565b6020601f8211600114611821578192939495600092611816575b50508160011b916000199060031b1c19161783555b60208201519283516001600160401b038111610a3a576116598161102b6001850154611d35565b6020601f82116001146117a757819293949560009261179c575b50508160011b916000199060031b1c19161760018201555b604083015160028201556003810160018060a01b03606085015116815490608086015160058110156102f9576001600160a81b03199092161760a091821b60ff60a01b1617825584015160078110156102f9576020946116f06101a092600b946121e0565b60c0810151600485015560e08101516005850155610100810151600685015561012081015160078501556008840160018060a01b03610140830151166001600160601b0360a01b82541617905561016081015160098501556117686101808201511515600a86019060ff801983541691151516179055565b01519101556040519033817ff7af0edb3983950019cb0e467cc28b8f1f4262acd2dfce724d1a9913bfeab05f600080a38152f35b015190508580611673565b6001830160005260206000209060005b601f19841681106117fe575060019394959683601f198116106117e5575b505050811b01600182015561168b565b015160001960f88460031b161c191690558580806117d5565b9091602060018192858b0151815501930191016117b7565b01519050858061161d565b8460005260206000209060005b601f1984168110611872575060019394959683601f19811610611859575b505050811b018355611632565b015160001960f88460031b161c1916905585808061184c565b9091602060018192858b01518155019301910161182e565b346101cd5760203660031901126101cd5760043560058110156101cd576118b2608091611f43565b80549060018101549060ff6003600283015492015416916040519384526020840152604083015215156060820152f35b346101cd5760203660031901126101cd576118fb611fb5565b60043560005260026020526003604060002001805460ff8160a81c1660078110156102f9578015908115611985575b50156119415760ff60a81b1916600160a81b179055005b606460405162461bcd60e51b815260206004820152602060248201527f456e68616e63656450726f706f73616c3a20696e76616c6964207374617475736044820152fd5b60069150148361192a565b346101cd5761199e36611f1d565b336001600160a01b038216036119b75761035e91612093565b60405163334bd91960e11b8152600490fd5b346101cd5761035e6119da36611f1d565b908060005260006020526119f5600160406000200154611fef565b612015565b346101cd5760203660031901126101cd5760043560005260006020526020600160406000200154604051908152f35b346101cd5760003660031901126101cd5760206040517fbf233dd2aafeb4d50879c4aa5c81e96d92f6e6945c906a58f9f2d1c1631b4b268152f35b346101cd576020806003193601126101cd5760059060043582811015806101cd57835490611a9182612267565b9460009460005b848110611ad6578787611aaa81612267565b9160005b828110611ac35760405180610cc28682611ee2565b80610cd4611ad19284612299565b611aae565b80600052600282528360ff60036040600020015460a01c16906102f957838110156102f9578614611b10575b611b0b90612108565b611a98565b95611b238188610cdf611b0b948c612299565b969050611b02565b346101cd5760203660031901126101cd5760043560058110156101cd57611b7460809160006060604051611b5e81611d6f565b8281528260208201528260408201520152611f43565b604051611b8081611d6f565b815491828252600181015460208301908152606060ff600360028501549460408701958652015416930192151583526040519384525160208401525160408301525115156060820152f35b346101cd5760203660031901126101cd5760043563ffffffff60e01b81168091036101cd57602090637965db0b60e01b8114908115611c10575b506040519015158152f35b6301ffc9a760e01b14905082611c05565b346101cd5760203660031901126101cd5760043560005260026020526040600020611c4b81611de2565b611c5760018301611de2565b916002810154906003810154906004810154916005820154926006830154600784015490600160a01b60019003958660088701541693600987015495600a88015460ff1697600b0154986040519c8d9c8d6101c09081815201611cb991611e88565b8d810360208f0152611cca91611e88565b9a60408d0152811660608c015260808b018160a01c60ff1690611cec91611ec8565b60a08b019060a81c60ff1690611d0191611ed5565b60c08a015260e089015261010088015261012087015261014086015261016085015215156101808401526101a08301520390f35b90600182811c92168015611d65575b6020831014611d4f57565b634e487b7160e01b600052602260045260246000fd5b91607f1691611d44565b608081019081106001600160401b03821117610a3a57604052565b6101c081019081106001600160401b03821117610a3a57604052565b60c081019081106001600160401b03821117610a3a57604052565b90601f801991011681019081106001600160401b03821117610a3a57604052565b9060405191826000825492611df684611d35565b908184526001948581169081600014611e655750600114611e22575b5050611e2092500383611dc1565b565b9093915060005260209081600020936000915b818310611e4d575050611e2093508201013880611e12565b85548884018501529485019487945091830191611e35565b915050611e2094506020925060ff191682840152151560051b8201013880611e12565b919082519283825260005b848110611eb4575050826000602080949584010152601f8019910116010190565b602081830181015184830182015201611e93565b9060058210156102f95752565b9060078210156102f95752565b6020908160408183019282815285518094520193019160005b828110611f09575050505090565b835185529381019392810192600101611efb565b60409060031901126101cd57600435906024356001600160a01b03811681036101cd5790565b60058110156102f9576000526004602052604060002090565b9181601f840112156101cd578235916001600160401b0383116101cd57602083818601950101116101cd57565b606435906001600160a01b03821682036101cd57565b60409060031901126101cd576004359060243590565b3360009081527fad3228b676f7d3cd4284a5443f17f1962b36e491b30a40b2405849e597ba5fb5602052604081205460ff161561135d5750565b80600052600060205260406000203360005260205260ff604060002054161561135d5750565b9060009180835282602052604083209160018060a01b03169182845260205260ff6040842054161560001461208e57808352826020526040832082845260205260408320600160ff198254161790557f2f8788117e7eff1d82e926ec794901d17c78024a50270940304540a733656f0d339380a4600190565b505090565b9060009180835282602052604083209160018060a01b03169182845260205260ff60408420541660001461208e5780835282602052604083208284526020526040832060ff1981541690557ff6391f5c32d9c69d2a47ea670b442974b53935d1edc7fd64eb21e047a839171b339380a4600190565b60001981146121175760010190565b634e487b7160e01b600052601160045260246000fd5b9190820180921161211757565b9291926001600160401b038211610a3a5760405191612163601f8201601f191660200184611dc1565b8294818452818301116101cd578281602093846000960137010152565b60058210156102f95752565b90601f811161219a57505050565b600091825260208220906020601f850160051c830194106121d6575b601f0160051c01915b8281106121cb57505050565b8181556001016121bf565b90925082906121b6565b9060078110156102f957815460ff60a81b191660a89190911b60ff60a81b16179055565b1561220b57565b60405162461bcd60e51b815260206004820152601e60248201527f456e68616e63656450726f706f73616c3a206e6f742070726f706f73657200006044820152606490fd5b6001600160401b038111610a3a5760051b60200190565b9061227182612250565b61227e6040519182611dc1565b828152809261228f601f1991612250565b0190602036910137565b80518210156122ad5760209160051b010190565b634e487b7160e01b600052603260045260246000fdfea2646970667358221220b385a24135ee9e82c200c763141f9a81d6ec89c1d9c78882a5c6b9888682b70264736f6c634300081400332f8788117e7eff1d82e926ec794901d17c78024a50270940304540a733656f0d","opcodes":"PUSH1 0x80 CALLVALUE PUSH3 0x28F JUMPI PUSH3 0x27B8 SWAP1 PUSH1 0x1F CODESIZE DUP4 SWAP1 SUB SWAP1 DUP2 ADD PUSH1 0x1F NOT AND DUP3 ADD SWAP1 PUSH1 0x1 PUSH1 0x1 PUSH1 0x40 SHL SUB DUP3 GT DUP4 DUP4 LT OR PUSH3 0x294 JUMPI DUP1 DUP4 SWAP2 PUSH1 0x40 SWAP6 DUP7 SWAP5 DUP6 MSTORE DUP4 CODECOPY DUP2 ADD SUB SLT PUSH3 0x28F JUMPI DUP1 PUSH3 0x54 PUSH3 0x281 SWAP3 PUSH3 0x2CA JUMP JUMPDEST SWAP1 PUSH3 0xA5 PUSH3 0x68 PUSH1 0x20 DUP1 SWAP4 ADD PUSH3 0x2CA JUMP JUMPDEST PUSH1 0x1 DUP1 SLOAD PUSH1 0x1 PUSH1 0x1 PUSH1 0xA0 SHL SUB NOT AND PUSH1 0x1 PUSH1 0x1 PUSH1 0xA0 SHL SUB SWAP1 SWAP6 AND SWAP5 SWAP1 SWAP5 OR DUP5 SSTORE PUSH3 0x92 DUP2 PUSH3 0x2DF JUMP JUMPDEST POP PUSH3 0x9E DUP2 PUSH3 0x35F JUMP JUMPDEST POP PUSH3 0x401 JUMP JUMPDEST POP PUSH3 0xB0 PUSH3 0x2AA JUMP JUMPDEST SWAP1 PUSH3 0x3F480 DUP1 DUP4 MSTORE DUP2 DUP4 ADD PUSH1 0x32 DUP2 MSTORE DUP7 DUP5 ADD SWAP5 PUSH9 0x56BC75E2D63100000 SWAP2 DUP3 DUP8 MSTORE PUSH3 0x1CF PUSH1 0x60 DUP8 ADD SWAP5 DUP4 DUP7 MSTORE PUSH3 0x11B PUSH1 0x0 SWAP10 DUP11 DUP1 MSTORE PUSH1 0x4 SWAP5 DUP6 DUP11 MSTORE DUP14 DUP13 KECCAK256 SWAP11 MLOAD DUP12 SSTORE MLOAD DUP7 DUP12 ADD SSTORE MLOAD SWAP7 PUSH1 0x2 SWAP8 DUP9 DUP12 ADD SSTORE MLOAD ISZERO ISZERO PUSH1 0x3 DUP1 SWAP11 ADD SWAP1 PUSH1 0xFF DUP1 NOT DUP4 SLOAD AND SWAP2 ISZERO ISZERO AND OR SWAP1 SSTORE JUMP JUMPDEST PUSH3 0x17E DUP12 DUP10 DUP10 DUP13 PUSH3 0x12D PUSH3 0x2AA JUMP JUMPDEST SWAP4 PUSH3 0x69780 DUP6 MSTORE DUP3 DUP6 ADD SWAP1 PUSH1 0x3C DUP3 MSTORE DUP1 DUP7 ADD SWAP3 PUSH9 0x1B1AE4D6E2EF500000 DUP5 MSTORE DUP11 PUSH1 0x60 DUP9 ADD SWAP6 DUP14 DUP8 MSTORE DUP14 DUP4 MSTORE MSTORE KECCAK256 SWAP5 MLOAD DUP6 SSTORE MLOAD DUP10 DUP6 ADD SSTORE MLOAD DUP11 DUP5 ADD SSTORE MLOAD ISZERO ISZERO SWAP2 ADD SWAP1 PUSH1 0xFF DUP1 NOT DUP4 SLOAD AND SWAP2 ISZERO ISZERO AND OR SWAP1 SSTORE JUMP JUMPDEST PUSH3 0x188 PUSH3 0x2AA JUMP JUMPDEST SWAP1 DUP2 MSTORE DUP8 DUP10 DUP13 DUP10 DUP5 ADD PUSH1 0x32 DUP2 MSTORE DUP2 DUP6 ADD SWAP2 DUP10 DUP4 MSTORE DUP11 PUSH1 0x60 DUP8 ADD SWAP5 DUP11 DUP7 MSTORE MSTORE DUP8 DUP13 MSTORE DUP14 KECCAK256 SWAP5 MLOAD DUP6 SSTORE MLOAD DUP8 DUP6 ADD SSTORE MLOAD DUP9 DUP5 ADD SSTORE MLOAD ISZERO ISZERO SWAP2 ADD SWAP1 PUSH1 0xFF DUP1 NOT DUP4 SLOAD AND SWAP2 ISZERO ISZERO AND OR SWAP1 SSTORE JUMP JUMPDEST PUSH3 0x230 PUSH3 0x1DD PUSH3 0x2AA JUMP JUMPDEST PUSH3 0x93A80 DUP2 MSTORE DUP8 DUP10 DUP13 DUP10 DUP5 ADD PUSH1 0x46 DUP2 MSTORE DUP2 DUP6 ADD SWAP2 PUSH9 0x3635C9ADC5DEA00000 DUP4 MSTORE DUP5 PUSH1 0x60 DUP8 ADD SWAP5 DUP11 DUP7 MSTORE MSTORE DUP8 DUP13 MSTORE DUP14 KECCAK256 SWAP5 MLOAD DUP6 SSTORE MLOAD DUP8 DUP6 ADD SSTORE MLOAD DUP9 DUP5 ADD SSTORE MLOAD ISZERO ISZERO SWAP2 ADD SWAP1 PUSH1 0xFF DUP1 NOT DUP4 SLOAD AND SWAP2 ISZERO ISZERO AND OR SWAP1 SSTORE JUMP JUMPDEST DUP9 PUSH3 0x23B PUSH3 0x2AA JUMP JUMPDEST SWAP8 PUSH3 0x15180 DUP10 MSTORE DUP7 DUP10 ADD SWAP3 PUSH1 0x28 DUP5 MSTORE DUP3 DUP11 ADD SWAP6 DUP7 MSTORE PUSH1 0x60 DUP11 ADD SWAP8 DUP6 DUP10 MSTORE DUP2 DUP4 MSTORE MSTORE KECCAK256 SWAP7 MLOAD DUP8 SSTORE MLOAD SWAP1 DUP7 ADD SSTORE MLOAD SWAP1 DUP5 ADD SSTORE MLOAD ISZERO ISZERO SWAP2 ADD SWAP1 PUSH1 0xFF DUP1 NOT DUP4 SLOAD AND SWAP2 ISZERO ISZERO AND OR SWAP1 SSTORE JUMP JUMPDEST MLOAD PUSH2 0x22F9 SWAP1 DUP2 PUSH3 0x49F DUP3 CODECOPY RETURN JUMPDEST PUSH1 0x0 DUP1 REVERT JUMPDEST PUSH4 0x4E487B71 PUSH1 0xE0 SHL PUSH1 0x0 MSTORE PUSH1 0x41 PUSH1 0x4 MSTORE PUSH1 0x24 PUSH1 0x0 REVERT JUMPDEST PUSH1 0x40 MLOAD SWAP1 PUSH1 0x80 DUP3 ADD PUSH1 0x1 PUSH1 0x1 PUSH1 0x40 SHL SUB DUP2 GT DUP4 DUP3 LT OR PUSH3 0x294 JUMPI PUSH1 0x40 MSTORE JUMP JUMPDEST MLOAD SWAP1 PUSH1 0x1 PUSH1 0x1 PUSH1 0xA0 SHL SUB DUP3 AND DUP3 SUB PUSH3 0x28F JUMPI JUMP JUMPDEST PUSH1 0x1 PUSH1 0x1 PUSH1 0xA0 SHL SUB AND PUSH1 0x0 DUP2 DUP2 MSTORE PUSH32 0xAD3228B676F7D3CD4284A5443F17F1962B36E491B30A40B2405849E597BA5FB5 PUSH1 0x20 MSTORE PUSH1 0x40 DUP2 KECCAK256 SLOAD SWAP1 SWAP2 SWAP1 PUSH1 0xFF AND PUSH3 0x35B JUMPI DUP2 DUP1 MSTORE DUP2 PUSH1 0x20 MSTORE PUSH1 0x40 DUP3 KECCAK256 DUP2 DUP4 MSTORE PUSH1 0x20 MSTORE PUSH1 0x40 DUP3 KECCAK256 PUSH1 0x1 PUSH1 0xFF NOT DUP3 SLOAD AND OR SWAP1 SSTORE CALLER SWAP2 PUSH1 0x0 DUP1 MLOAD PUSH1 0x20 PUSH3 0x2798 DUP4 CODECOPY DUP2 MLOAD SWAP2 MSTORE DUP2 DUP1 LOG4 PUSH1 0x1 SWAP1 JUMP JUMPDEST POP SWAP1 JUMP JUMPDEST PUSH1 0x1 PUSH1 0x1 PUSH1 0xA0 SHL SUB AND PUSH1 0x0 DUP2 DUP2 MSTORE PUSH32 0x30710E496C9A8631E387D1FF5062C226D4CE9C9E008BFF1F22AE157290CCBD62 PUSH1 0x20 MSTORE PUSH1 0x40 DUP2 KECCAK256 SLOAD SWAP1 SWAP2 SWAP1 PUSH32 0x829B824E2329E205435D941C9F13BAF578548505283D29261236D8E6596D4636 SWAP1 PUSH1 0xFF AND PUSH3 0x3FC JUMPI DUP1 DUP4 MSTORE DUP3 PUSH1 0x20 MSTORE PUSH1 0x40 DUP4 KECCAK256 DUP3 DUP5 MSTORE PUSH1 0x20 MSTORE PUSH1 0x40 DUP4 KECCAK256 PUSH1 0x1 PUSH1 0xFF NOT DUP3 SLOAD AND OR SWAP1 SSTORE PUSH1 0x0 DUP1 MLOAD PUSH1 0x20 PUSH3 0x2798 DUP4 CODECOPY DUP2 MLOAD SWAP2 MSTORE CALLER SWAP4 DUP1 LOG4 PUSH1 0x1 SWAP1 JUMP JUMPDEST POP POP SWAP1 JUMP JUMPDEST PUSH1 0x1 PUSH1 0x1 PUSH1 0xA0 SHL SUB AND PUSH1 0x0 DUP2 DUP2 MSTORE PUSH32 0x3C1B1854AB1360ABBB06C8D4C6B2672D4B8CEDC5EFF522AB19E51D5CB8FDBD46 PUSH1 0x20 MSTORE PUSH1 0x40 DUP2 KECCAK256 SLOAD SWAP1 SWAP2 SWAP1 PUSH32 0xBF233DD2AAFEB4D50879C4AA5C81E96D92F6E6945C906A58F9F2D1C1631B4B26 SWAP1 PUSH1 0xFF AND PUSH3 0x3FC JUMPI DUP1 DUP4 MSTORE DUP3 PUSH1 0x20 MSTORE PUSH1 0x40 DUP4 KECCAK256 DUP3 DUP5 MSTORE PUSH1 0x20 MSTORE PUSH1 0x40 DUP4 KECCAK256 PUSH1 0x1 PUSH1 0xFF NOT DUP3 SLOAD AND OR SWAP1 SSTORE PUSH1 0x0 DUP1 MLOAD PUSH1 0x20 PUSH3 0x2798 DUP4 CODECOPY DUP2 MLOAD SWAP2 MSTORE CALLER SWAP4 DUP1 LOG4 PUSH1 0x1 SWAP1 JUMP INVALID PUSH1 0x80 PUSH1 0x40 MSTORE PUSH1 0x4 CALLDATASIZE LT ISZERO PUSH2 0x12 JUMPI PUSH1 0x0 DUP1 REVERT JUMPDEST PUSH1 0x0 CALLDATALOAD PUSH1 0xE0 SHR DUP1 PUSH4 0x13CF08B EQ PUSH2 0x1C21 JUMPI DUP1 PUSH4 0x1FFC9A7 EQ PUSH2 0x1BCB JUMPI DUP1 PUSH4 0x84B0601 EQ PUSH2 0x1B2B JUMPI DUP1 PUSH4 0x924E867 EQ PUSH2 0x1A64 JUMPI DUP1 PUSH4 0x20DF4359 EQ PUSH2 0x1A29 JUMPI DUP1 PUSH4 0x248A9CA3 EQ PUSH2 0x19FA JUMPI DUP1 PUSH4 0x2F2FF15D EQ PUSH2 0x19C9 JUMPI DUP1 PUSH4 0x36568ABE EQ PUSH2 0x1990 JUMPI DUP1 PUSH4 0x45AC5955 EQ PUSH2 0x18E2 JUMPI DUP1 PUSH4 0x586A1960 EQ PUSH2 0x188A JUMPI DUP1 PUSH4 0x61772230 EQ PUSH2 0x148A JUMPI DUP1 PUSH4 0x6F6DCE93 EQ PUSH2 0x137B JUMPI DUP1 PUSH4 0x8B2F8126 EQ PUSH2 0xDC4 JUMPI DUP1 PUSH4 0x91D14854 EQ PUSH2 0xD84 JUMPI DUP1 PUSH4 0xA10F469E EQ PUSH2 0xD49 JUMPI DUP1 PUSH4 0xA217FDDF EQ PUSH2 0xD2D JUMPI DUP1 PUSH4 0xA9290230 EQ PUSH2 0xC73 JUMPI DUP1 PUSH4 0xBA68D4BB EQ PUSH2 0x680 JUMPI DUP1 PUSH4 0xC4896724 EQ PUSH2 0x5E3 JUMPI DUP1 PUSH4 0xC7F758A8 EQ PUSH2 0x3A1 JUMPI DUP1 PUSH4 0xCBE94614 EQ PUSH2 0x360 JUMPI DUP1 PUSH4 0xD547741F EQ PUSH2 0x32D JUMPI DUP1 PUSH4 0xDA35C664 EQ PUSH2 0x30F JUMPI DUP1 PUSH4 0xE0A8F6F5 EQ PUSH2 0x1FB JUMPI DUP1 PUSH4 0xF96DAE0A EQ PUSH2 0x1D2 JUMPI PUSH4 0xF9A5F3B8 EQ PUSH2 0x13A JUMPI PUSH1 0x0 DUP1 REVERT JUMPDEST CALLVALUE PUSH2 0x1CD JUMPI PUSH1 0x80 CALLDATASIZE PUSH1 0x3 NOT ADD SLT PUSH2 0x1CD JUMPI PUSH1 0x4 CALLDATALOAD PUSH1 0x5 DUP2 LT ISZERO PUSH2 0x1CD JUMPI PUSH1 0x60 PUSH32 0xBCB0C1C474CA5C5C7D8E5584E09A6476FCACD9DBEB79604F88A756ACAE9095FA SWAP2 PUSH1 0x24 CALLDATALOAD PUSH1 0x44 CALLDATALOAD SWAP1 PUSH2 0x18A PUSH2 0x1FB5 JUMP JUMPDEST DUP1 PUSH2 0x194 DUP5 PUSH2 0x1F43 JUMP JUMPDEST SSTORE DUP2 PUSH1 0x1 PUSH2 0x1A1 DUP6 PUSH2 0x1F43 JUMP JUMPDEST ADD SSTORE PUSH1 0x64 CALLDATALOAD PUSH1 0x2 PUSH2 0x1B1 DUP6 PUSH2 0x1F43 JUMP JUMPDEST ADD SSTORE PUSH2 0x1C0 PUSH1 0x40 MLOAD DUP1 SWAP5 PUSH2 0x1EC8 JUMP JUMPDEST PUSH1 0x20 DUP4 ADD MSTORE PUSH1 0x40 DUP3 ADD MSTORE LOG1 STOP JUMPDEST PUSH1 0x0 DUP1 REVERT JUMPDEST CALLVALUE PUSH2 0x1CD JUMPI PUSH1 0x0 CALLDATASIZE PUSH1 0x3 NOT ADD SLT PUSH2 0x1CD JUMPI PUSH1 0x1 SLOAD PUSH1 0x40 MLOAD PUSH1 0x1 PUSH1 0x1 PUSH1 0xA0 SHL SUB SWAP1 SWAP2 AND DUP2 MSTORE PUSH1 0x20 SWAP1 RETURN JUMPDEST CALLVALUE PUSH2 0x1CD JUMPI PUSH1 0x20 CALLDATASIZE PUSH1 0x3 NOT ADD SLT PUSH2 0x1CD JUMPI PUSH1 0x4 CALLDATALOAD DUP1 PUSH1 0x0 MSTORE PUSH1 0x2 PUSH1 0x20 MSTORE PUSH1 0x3 PUSH1 0x40 PUSH1 0x0 KECCAK256 PUSH2 0x236 PUSH1 0x1 DUP1 PUSH1 0xA0 SHL SUB PUSH1 0x8 DUP4 ADD SLOAD AND CALLER EQ PUSH2 0x2204 JUMP JUMPDEST ADD DUP1 SLOAD PUSH1 0xFF DUP2 PUSH1 0xA8 SHR AND PUSH1 0x7 DUP2 LT ISZERO PUSH2 0x2F9 JUMPI DUP1 ISZERO SWAP1 DUP2 ISZERO PUSH2 0x2EE JUMPI JUMPDEST POP ISZERO PUSH2 0x291 JUMPI PUSH1 0xFF PUSH1 0xA8 SHL NOT AND PUSH1 0x5 PUSH1 0xA8 SHL OR SWAP1 SSTORE CALLER SWAP1 PUSH32 0x74C34A008CE735D9FCF0BD03A9B238D212AD4C441C020661F4FFBB6442645B85 PUSH1 0x0 DUP1 LOG3 STOP JUMPDEST PUSH1 0x40 MLOAD PUSH3 0x461BCD PUSH1 0xE5 SHL DUP2 MSTORE PUSH1 0x20 PUSH1 0x4 DUP3 ADD MSTORE PUSH1 0x2F PUSH1 0x24 DUP3 ADD MSTORE PUSH32 0x456E68616E63656450726F706F73616C3A2063616E6E6F742063616E63656C20 PUSH1 0x44 DUP3 ADD MSTORE PUSH15 0x1858DD1A5D99481C1C9BDC1BDCD85B PUSH1 0x8A SHL PUSH1 0x64 DUP3 ADD MSTORE PUSH1 0x84 SWAP1 REVERT JUMPDEST PUSH1 0x6 SWAP2 POP EQ DUP5 PUSH2 0x253 JUMP JUMPDEST PUSH4 0x4E487B71 PUSH1 0xE0 SHL PUSH1 0x0 MSTORE PUSH1 0x21 PUSH1 0x4 MSTORE PUSH1 0x24 PUSH1 0x0 REVERT JUMPDEST CALLVALUE PUSH2 0x1CD JUMPI PUSH1 0x0 CALLDATASIZE PUSH1 0x3 NOT ADD SLT PUSH2 0x1CD JUMPI PUSH1 0x20 PUSH1 0x5 SLOAD PUSH1 0x40 MLOAD SWAP1 DUP2 MSTORE RETURN JUMPDEST CALLVALUE PUSH2 0x1CD JUMPI PUSH2 0x35E PUSH2 0x33E CALLDATASIZE PUSH2 0x1F1D JUMP JUMPDEST SWAP1 DUP1 PUSH1 0x0 MSTORE PUSH1 0x0 PUSH1 0x20 MSTORE PUSH2 0x359 PUSH1 0x1 PUSH1 0x40 PUSH1 0x0 KECCAK256 ADD SLOAD PUSH2 0x1FEF JUMP JUMPDEST PUSH2 0x2093 JUMP JUMPDEST STOP JUMPDEST CALLVALUE PUSH2 0x1CD JUMPI PUSH1 0x40 CALLDATASIZE PUSH1 0x3 NOT ADD SLT PUSH2 0x1CD JUMPI PUSH1 0x24 CALLDATALOAD PUSH1 0x7 DUP2 LT ISZERO PUSH2 0x1CD JUMPI PUSH2 0x35E SWAP1 PUSH2 0x389 PUSH2 0x1FB5 JUMP JUMPDEST PUSH1 0x4 CALLDATALOAD PUSH1 0x0 MSTORE PUSH1 0x2 PUSH1 0x20 MSTORE PUSH1 0x3 PUSH1 0x40 PUSH1 0x0 KECCAK256 ADD PUSH2 0x21E0 JUMP JUMPDEST CALLVALUE PUSH2 0x1CD JUMPI PUSH1 0x20 CALLDATASIZE PUSH1 0x3 NOT ADD SLT PUSH2 0x1CD JUMPI PUSH1 0x0 PUSH2 0x1A0 PUSH1 0x40 MLOAD PUSH2 0x3C3 DUP2 PUSH2 0x1D8A JUMP JUMPDEST PUSH1 0x60 DUP2 MSTORE PUSH1 0x60 PUSH1 0x20 DUP3 ADD MSTORE DUP3 PUSH1 0x40 DUP3 ADD MSTORE DUP3 PUSH1 0x60 DUP3 ADD MSTORE DUP3 PUSH1 0x80 DUP3 ADD MSTORE DUP3 PUSH1 0xA0 DUP3 ADD MSTORE DUP3 PUSH1 0xC0 DUP3 ADD MSTORE DUP3 PUSH1 0xE0 DUP3 ADD MSTORE DUP3 PUSH2 0x100 DUP3 ADD MSTORE DUP3 PUSH2 0x120 DUP3 ADD MSTORE DUP3 PUSH2 0x140 DUP3 ADD MSTORE DUP3 PUSH2 0x160 DUP3 ADD MSTORE DUP3 PUSH2 0x180 DUP3 ADD MSTORE ADD MSTORE PUSH1 0x4 CALLDATALOAD PUSH1 0x0 MSTORE PUSH1 0x2 PUSH1 0x20 MSTORE PUSH1 0x40 PUSH1 0x0 KECCAK256 PUSH1 0x40 MLOAD SWAP1 PUSH2 0x434 DUP3 PUSH2 0x1D8A JUMP JUMPDEST PUSH2 0x43D DUP2 PUSH2 0x1DE2 JUMP JUMPDEST DUP3 MSTORE PUSH2 0x44B PUSH1 0x1 DUP3 ADD PUSH2 0x1DE2 JUMP JUMPDEST PUSH1 0x20 DUP4 ADD MSTORE PUSH1 0x2 DUP2 ADD SLOAD PUSH1 0x40 DUP4 ADD MSTORE PUSH1 0x3 DUP2 ADD SLOAD PUSH1 0x1 PUSH1 0x1 PUSH1 0xA0 SHL SUB DUP2 AND PUSH1 0x60 DUP5 ADD MSTORE SWAP1 PUSH2 0x483 PUSH1 0xA0 DUP4 SWAP1 SHR PUSH1 0xFF AND PUSH1 0x80 DUP6 ADD PUSH2 0x2180 JUMP JUMPDEST PUSH1 0x7 PUSH1 0xFF DUP4 PUSH1 0xA8 SHR AND LT ISZERO PUSH2 0x2F9 JUMPI PUSH1 0xFF PUSH1 0xB SWAP3 PUSH1 0xA8 SHR AND PUSH1 0xA0 DUP5 ADD MSTORE PUSH1 0x4 DUP2 ADD SLOAD PUSH1 0xC0 DUP5 ADD MSTORE PUSH1 0x5 DUP2 ADD SLOAD PUSH1 0xE0 DUP5 ADD MSTORE PUSH1 0x6 DUP2 ADD SLOAD PUSH2 0x100 DUP5 ADD MSTORE PUSH1 0x7 DUP2 ADD SLOAD PUSH2 0x120 DUP5 ADD MSTORE PUSH1 0x1 DUP1 PUSH1 0xA0 SHL SUB PUSH1 0x8 DUP3 ADD SLOAD AND PUSH2 0x140 DUP5 ADD MSTORE PUSH1 0x9 DUP2 ADD SLOAD PUSH2 0x160 DUP5 ADD MSTORE PUSH1 0xFF PUSH1 0xA DUP3 ADD SLOAD AND ISZERO ISZERO PUSH2 0x180 DUP5 ADD MSTORE ADD SLOAD PUSH2 0x1A0 DUP3 ADD MSTORE PUSH1 0x40 MLOAD DUP1 SWAP2 PUSH1 0x20 DUP3 MSTORE PUSH2 0x1A0 PUSH2 0x53D PUSH2 0x527 DUP4 MLOAD PUSH2 0x1C0 PUSH1 0x20 DUP8 ADD MSTORE PUSH2 0x1E0 DUP7 ADD SWAP1 PUSH2 0x1E88 JUMP JUMPDEST PUSH1 0x20 DUP5 ADD MLOAD DUP6 DUP3 SUB PUSH1 0x1F NOT ADD PUSH1 0x40 DUP8 ADD MSTORE PUSH2 0x1E88 JUMP JUMPDEST SWAP2 PUSH1 0x40 DUP2 ADD MLOAD PUSH1 0x60 DUP6 ADD MSTORE PUSH1 0x1 DUP1 PUSH1 0xA0 SHL SUB PUSH1 0x60 DUP3 ADD MLOAD AND PUSH1 0x80 DUP6 ADD MSTORE PUSH2 0x56C PUSH1 0x80 DUP3 ADD MLOAD PUSH1 0xA0 DUP7 ADD SWAP1 PUSH2 0x1EC8 JUMP JUMPDEST PUSH2 0x57E PUSH1 0xA0 DUP3 ADD MLOAD PUSH1 0xC0 DUP7 ADD SWAP1 PUSH2 0x1ED5 JUMP JUMPDEST PUSH1 0xC0 DUP2 ADD MLOAD PUSH1 0xE0 DUP6 ADD MSTORE PUSH1 0xE0 DUP2 ADD MLOAD PUSH2 0x100 DUP6 ADD MSTORE PUSH2 0x100 DUP2 ADD MLOAD PUSH2 0x120 DUP6 ADD MSTORE PUSH2 0x120 DUP2 ADD MLOAD PUSH2 0x140 DUP6 ADD MSTORE PUSH1 0x1 DUP1 PUSH1 0xA0 SHL SUB PUSH2 0x140 DUP3 ADD MLOAD AND PUSH2 0x160 DUP6 ADD MSTORE PUSH2 0x160 DUP2 ADD MLOAD PUSH2 0x180 DUP6 ADD MSTORE PUSH2 0x180 DUP2 ADD MLOAD ISZERO ISZERO DUP3 DUP6 ADD MSTORE ADD MLOAD PUSH2 0x1C0 DUP4 ADD MSTORE SUB SWAP1 RETURN JUMPDEST CALLVALUE PUSH2 0x1CD JUMPI PUSH2 0x5F1 CALLDATASIZE PUSH2 0x1F9F JUMP JUMPDEST SWAP1 PUSH1 0x0 MSTORE PUSH1 0x3 PUSH1 0x20 MSTORE PUSH1 0x40 PUSH1 0x0 KECCAK256 SWAP1 PUSH1 0x0 MSTORE PUSH1 0x20 MSTORE PUSH1 0x40 PUSH1 0x0 KECCAK256 DUP1 SLOAD PUSH2 0x619 PUSH1 0x1 DUP4 ADD PUSH2 0x1DE2 JUMP JUMPDEST SWAP2 PUSH2 0x626 PUSH1 0x2 DUP3 ADD PUSH2 0x1DE2 JUMP JUMPDEST PUSH1 0x3 DUP3 ADD SLOAD SWAP2 PUSH2 0x66C PUSH1 0x5 PUSH1 0x1 DUP1 PUSH1 0xA0 SHL SUB PUSH1 0x4 DUP5 ADD SLOAD AND SWAP3 ADD SLOAD SWAP3 PUSH2 0x65E PUSH1 0x40 MLOAD SWAP8 DUP9 SWAP8 DUP9 MSTORE PUSH1 0xC0 PUSH1 0x20 DUP10 ADD MSTORE PUSH1 0xC0 DUP9 ADD SWAP1 PUSH2 0x1E88 JUMP JUMPDEST SWAP1 DUP7 DUP3 SUB PUSH1 0x40 DUP9 ADD MSTORE PUSH2 0x1E88 JUMP JUMPDEST SWAP3 PUSH1 0x60 DUP6 ADD MSTORE PUSH1 0x80 DUP5 ADD MSTORE PUSH1 0xA0 DUP4 ADD MSTORE SUB SWAP1 RETURN JUMPDEST CALLVALUE PUSH2 0x1CD JUMPI PUSH1 0xA0 CALLDATASIZE PUSH1 0x3 NOT ADD SLT PUSH2 0x1CD JUMPI PUSH1 0x24 CALLDATALOAD PUSH1 0x1 PUSH1 0x1 PUSH1 0x40 SHL SUB DUP2 GT PUSH2 0x1CD JUMPI PUSH2 0x6B0 SWAP1 CALLDATASIZE SWAP1 PUSH1 0x4 ADD PUSH2 0x1F5C JUMP JUMPDEST SWAP1 PUSH1 0x44 CALLDATALOAD PUSH1 0x1 PUSH1 0x1 PUSH1 0x40 SHL SUB DUP2 GT PUSH2 0x1CD JUMPI PUSH2 0x6D0 SWAP1 CALLDATASIZE SWAP1 PUSH1 0x4 ADD PUSH2 0x1F5C JUMP JUMPDEST PUSH1 0x84 CALLDATALOAD SWAP4 SWAP1 SWAP2 SWAP1 PUSH1 0x1 PUSH1 0x1 PUSH1 0xA0 SHL SUB DUP6 AND DUP6 SUB PUSH2 0x1CD JUMPI PUSH1 0x4 CALLDATALOAD PUSH1 0x0 MSTORE PUSH1 0x2 PUSH1 0x20 MSTORE PUSH1 0x40 PUSH1 0x0 KECCAK256 SWAP4 PUSH2 0x70F PUSH1 0x1 DUP1 PUSH1 0xA0 SHL SUB PUSH1 0x8 DUP8 ADD SLOAD AND CALLER EQ PUSH2 0x2204 JUMP JUMPDEST PUSH1 0x3 DUP6 ADD SLOAD PUSH1 0xFF DUP2 PUSH1 0xA8 SHR AND PUSH1 0x7 DUP2 LT ISZERO PUSH2 0x2F9 JUMPI PUSH2 0xC16 JUMPI PUSH1 0x7 DUP7 ADD SLOAD TIMESTAMP LT ISZERO PUSH2 0xBC0 JUMPI PUSH1 0x2 DUP7 ADD SLOAD SWAP1 PUSH1 0x9 DUP8 ADD SLOAD SWAP1 PUSH1 0x40 MLOAD SWAP3 PUSH2 0x74D DUP5 PUSH2 0x1DA6 JUMP JUMPDEST TIMESTAMP DUP5 MSTORE PUSH2 0x759 DUP10 PUSH2 0x1DE2 JUMP JUMPDEST PUSH1 0x20 DUP6 ADD MSTORE PUSH2 0x76A PUSH1 0x1 DUP11 ADD PUSH2 0x1DE2 JUMP JUMPDEST PUSH1 0x40 DUP6 ADD MSTORE PUSH1 0x60 DUP5 ADD MSTORE PUSH1 0x1 DUP1 PUSH1 0xA0 SHL SUB AND PUSH1 0x80 DUP4 ADD MSTORE DUP1 PUSH1 0xA0 DUP4 ADD MSTORE PUSH1 0x4 CALLDATALOAD PUSH1 0x0 MSTORE PUSH1 0x3 PUSH1 0x20 MSTORE PUSH1 0x40 PUSH1 0x0 KECCAK256 SWAP1 PUSH1 0x0 MSTORE PUSH1 0x20 MSTORE PUSH1 0x40 PUSH1 0x0 KECCAK256 SWAP1 DUP1 MLOAD DUP3 SSTORE PUSH1 0x20 DUP2 ADD MLOAD DUP1 MLOAD SWAP1 PUSH1 0x1 PUSH1 0x1 PUSH1 0x40 SHL SUB DUP3 GT PUSH2 0xA3A JUMPI DUP2 SWAP1 PUSH2 0x7DA DUP3 PUSH2 0x7D1 PUSH1 0x1 DUP9 ADD SLOAD PUSH2 0x1D35 JUMP JUMPDEST PUSH1 0x1 DUP9 ADD PUSH2 0x218C JUMP JUMPDEST PUSH1 0x20 SWAP1 PUSH1 0x1F DUP4 GT PUSH1 0x1 EQ PUSH2 0xB4E JUMPI PUSH1 0x0 SWAP3 PUSH2 0xB43 JUMPI JUMPDEST POP POP DUP2 PUSH1 0x1 SHL SWAP2 PUSH1 0x0 NOT SWAP1 PUSH1 0x3 SHL SHR NOT AND OR PUSH1 0x1 DUP4 ADD SSTORE JUMPDEST PUSH1 0x40 DUP2 ADD MLOAD DUP1 MLOAD SWAP1 PUSH1 0x1 PUSH1 0x1 PUSH1 0x40 SHL SUB DUP3 GT PUSH2 0xA3A JUMPI PUSH2 0x838 DUP3 PUSH2 0x82F PUSH1 0x2 DUP8 ADD SLOAD PUSH2 0x1D35 JUMP JUMPDEST PUSH1 0x2 DUP8 ADD PUSH2 0x218C JUMP JUMPDEST PUSH1 0x20 SWAP1 PUSH1 0x1F DUP4 GT PUSH1 0x1 EQ PUSH2 0xACE JUMPI SWAP2 DUP1 PUSH1 0x5 SWAP5 SWAP3 PUSH1 0xA0 SWAP5 PUSH1 0x0 SWAP3 PUSH2 0xAC3 JUMPI JUMPDEST POP POP DUP2 PUSH1 0x1 SHL SWAP2 PUSH1 0x0 NOT SWAP1 PUSH1 0x3 SHL SHR NOT AND OR PUSH1 0x2 DUP6 ADD SSTORE JUMPDEST PUSH1 0x60 DUP2 ADD MLOAD PUSH1 0x3 DUP6 ADD SSTORE PUSH1 0x4 DUP5 ADD PUSH1 0x1 DUP1 DUP5 SHL SUB PUSH1 0x80 DUP4 ADD MLOAD AND PUSH1 0x1 PUSH1 0x1 PUSH1 0x60 SHL SUB DUP5 SHL DUP3 SLOAD AND OR SWAP1 SSTORE ADD MLOAD SWAP2 ADD SSTORE PUSH1 0x1 PUSH1 0x1 PUSH1 0x40 SHL SUB DUP3 GT PUSH2 0xA3A JUMPI DUP2 SWAP1 PUSH2 0x8C2 DUP3 PUSH2 0x8BC DUP9 SLOAD PUSH2 0x1D35 JUMP JUMPDEST DUP9 PUSH2 0x218C JUMP JUMPDEST PUSH1 0x0 SWAP1 PUSH1 0x1F DUP4 GT PUSH1 0x1 EQ PUSH2 0xA5B JUMPI PUSH1 0x0 SWAP3 PUSH2 0xA50 JUMPI JUMPDEST POP POP DUP2 PUSH1 0x1 SHL SWAP2 PUSH1 0x0 NOT SWAP1 PUSH1 0x3 SHL SHR NOT AND OR DUP4 SSTORE JUMPDEST PUSH1 0x1 PUSH1 0x1 PUSH1 0x40 SHL SUB DUP3 GT PUSH2 0xA3A JUMPI DUP2 SWAP1 PUSH2 0x917 DUP3 PUSH2 0x90E PUSH1 0x1 DUP8 ADD SLOAD PUSH2 0x1D35 JUMP JUMPDEST PUSH1 0x1 DUP8 ADD PUSH2 0x218C JUMP JUMPDEST PUSH1 0x0 SWAP1 PUSH1 0x1F DUP4 GT PUSH1 0x1 EQ PUSH2 0x9C9 JUMPI PUSH1 0x0 SWAP3 PUSH2 0x9BE JUMPI JUMPDEST POP POP DUP2 PUSH1 0x1 SHL SWAP2 PUSH1 0x0 NOT SWAP1 PUSH1 0x3 SHL SHR NOT AND OR PUSH1 0x1 DUP3 ADD SSTORE JUMPDEST PUSH1 0x64 CALLDATALOAD PUSH1 0x2 DUP3 ADD SSTORE PUSH1 0x3 DUP1 DUP3 ADD SLOAD SWAP3 PUSH2 0x961 PUSH1 0x9 DUP5 ADD SLOAD PUSH2 0x2108 JUMP JUMPDEST PUSH1 0x9 DUP5 ADD DUP2 SWAP1 SSTORE PUSH1 0x1 PUSH2 0xFF01 PUSH1 0xA0 SHL SUB NOT SWAP1 SWAP5 AND PUSH1 0x1 PUSH1 0x1 PUSH1 0xA0 SHL SUB SWAP1 SWAP2 AND OR PUSH1 0xA9 DUP3 SWAP1 SHL OR SWAP2 ADD SSTORE PUSH1 0x40 MLOAD SWAP1 DUP2 MSTORE CALLER SWAP1 PUSH1 0x4 CALLDATALOAD SWAP1 PUSH32 0x92F9620658197C247CF92F615EF3CA4EFBF8742FFC0F0F1191DF73F446D84DC SWAP1 PUSH1 0x20 SWAP1 LOG3 STOP JUMPDEST ADD CALLDATALOAD SWAP1 POP DUP5 DUP1 PUSH2 0x92D JUMP JUMPDEST SWAP1 SWAP3 POP PUSH1 0x1 DUP5 ADD PUSH1 0x0 MSTORE PUSH1 0x20 PUSH1 0x0 KECCAK256 SWAP1 PUSH1 0x0 SWAP4 JUMPDEST PUSH1 0x1F NOT DUP5 AND DUP6 LT PUSH2 0xA22 JUMPI PUSH1 0x1 SWAP5 POP DUP4 PUSH1 0x1F NOT DUP2 AND LT PUSH2 0xA08 JUMPI JUMPDEST POP POP POP DUP2 SHL ADD PUSH1 0x1 DUP3 ADD SSTORE PUSH2 0x945 JUMP JUMPDEST ADD CALLDATALOAD PUSH1 0x0 NOT PUSH1 0x3 DUP5 SWAP1 SHL PUSH1 0xF8 AND SHR NOT AND SWAP1 SSTORE DUP5 DUP1 DUP1 PUSH2 0x9F8 JUMP JUMPDEST DUP2 DUP2 ADD CALLDATALOAD DUP4 SSTORE PUSH1 0x20 SWAP5 DUP6 ADD SWAP5 PUSH1 0x1 SWAP1 SWAP4 ADD SWAP3 ADD PUSH2 0x9DD JUMP JUMPDEST PUSH4 0x4E487B71 PUSH1 0xE0 SHL PUSH1 0x0 MSTORE PUSH1 0x41 PUSH1 0x4 MSTORE PUSH1 0x24 PUSH1 0x0 REVERT JUMPDEST ADD CALLDATALOAD SWAP1 POP DUP7 DUP1 PUSH2 0x8D8 JUMP JUMPDEST PUSH1 0x0 DUP8 DUP2 MSTORE PUSH1 0x20 DUP2 KECCAK256 SWAP1 SWAP5 POP SWAP2 JUMPDEST PUSH1 0x1F NOT DUP5 AND DUP6 LT PUSH2 0xAAB JUMPI PUSH1 0x1 SWAP5 POP DUP4 PUSH1 0x1F NOT DUP2 AND LT PUSH2 0xA91 JUMPI JUMPDEST POP POP POP DUP2 SHL ADD DUP4 SSTORE PUSH2 0x8ED JUMP JUMPDEST ADD CALLDATALOAD PUSH1 0x0 NOT PUSH1 0x3 DUP5 SWAP1 SHL PUSH1 0xF8 AND SHR NOT AND SWAP1 SSTORE DUP7 DUP1 DUP1 PUSH2 0xA84 JUMP JUMPDEST DUP2 DUP2 ADD CALLDATALOAD DUP4 SSTORE PUSH1 0x20 SWAP5 DUP6 ADD SWAP5 PUSH1 0x1 SWAP1 SWAP4 ADD SWAP3 ADD PUSH2 0xA69 JUMP JUMPDEST ADD MLOAD SWAP1 POP DUP13 DUP1 PUSH2 0x857 JUMP JUMPDEST SWAP1 PUSH1 0x2 DUP6 ADD PUSH1 0x0 MSTORE PUSH1 0x20 PUSH1 0x0 KECCAK256 SWAP2 PUSH1 0x0 JUMPDEST PUSH1 0x1F NOT DUP6 AND DUP2 LT PUSH2 0xB2B JUMPI POP SWAP3 PUSH1 0x5 SWAP5 SWAP3 PUSH1 0x1 SWAP3 PUSH1 0xA0 SWAP6 DUP4 PUSH1 0x1F NOT DUP2 AND LT PUSH2 0xB12 JUMPI JUMPDEST POP POP POP DUP2 SHL ADD PUSH1 0x2 DUP6 ADD SSTORE PUSH2 0x86F JUMP JUMPDEST ADD MLOAD PUSH1 0x0 NOT PUSH1 0xF8 DUP5 PUSH1 0x3 SHL AND SHR NOT AND SWAP1 SSTORE DUP13 DUP1 DUP1 PUSH2 0xB02 JUMP JUMPDEST SWAP2 SWAP3 PUSH1 0x20 PUSH1 0x1 DUP2 SWAP3 DUP7 DUP6 ADD MLOAD DUP2 SSTORE ADD SWAP5 ADD SWAP3 ADD PUSH2 0xADF JUMP JUMPDEST ADD MLOAD SWAP1 POP DUP11 DUP1 PUSH2 0x7F0 JUMP JUMPDEST SWAP3 POP PUSH1 0x1 DUP6 ADD PUSH1 0x0 MSTORE PUSH1 0x20 PUSH1 0x0 KECCAK256 SWAP1 PUSH1 0x0 SWAP4 JUMPDEST PUSH1 0x1F NOT DUP5 AND DUP6 LT PUSH2 0xBA5 JUMPI PUSH1 0x1 SWAP5 POP DUP4 PUSH1 0x1F NOT DUP2 AND LT PUSH2 0xB8C JUMPI JUMPDEST POP POP POP DUP2 SHL ADD PUSH1 0x1 DUP4 ADD SSTORE PUSH2 0x808 JUMP JUMPDEST ADD MLOAD PUSH1 0x0 NOT PUSH1 0xF8 DUP5 PUSH1 0x3 SHL AND SHR NOT AND SWAP1 SSTORE DUP11 DUP1 DUP1 PUSH2 0xB7C JUMP JUMPDEST DUP2 DUP2 ADD MLOAD DUP4 SSTORE PUSH1 0x20 SWAP5 DUP6 ADD SWAP5 PUSH1 0x1 SWAP1 SWAP4 ADD SWAP3 SWAP1 SWAP2 ADD SWAP1 PUSH2 0xB61 JUMP JUMPDEST PUSH1 0x40 MLOAD PUSH3 0x461BCD PUSH1 0xE5 SHL DUP2 MSTORE PUSH1 0x20 PUSH1 0x4 DUP3 ADD MSTORE PUSH1 0x28 PUSH1 0x24 DUP3 ADD MSTORE PUSH32 0x456E68616E63656450726F706F73616C3A20766F74696E6720616C7265616479 PUSH1 0x44 DUP3 ADD MSTORE PUSH8 0x81CDD185C9D1959 PUSH1 0xC2 SHL PUSH1 0x64 DUP3 ADD MSTORE PUSH1 0x84 SWAP1 REVERT JUMPDEST PUSH1 0x40 MLOAD PUSH3 0x461BCD PUSH1 0xE5 SHL DUP2 MSTORE PUSH1 0x20 PUSH1 0x4 DUP3 ADD MSTORE PUSH1 0x2F PUSH1 0x24 DUP3 ADD MSTORE PUSH32 0x456E68616E63656450726F706F73616C3A2063616E6E6F74206D6F6469667920 PUSH1 0x44 DUP3 ADD MSTORE PUSH15 0x1858DD1A5D99481C1C9BDC1BDCD85B PUSH1 0x8A SHL PUSH1 0x64 DUP3 ADD MSTORE PUSH1 0x84 SWAP1 REVERT JUMPDEST CALLVALUE PUSH2 0x1CD JUMPI PUSH1 0x0 CALLDATASIZE PUSH1 0x3 NOT ADD SLT PUSH2 0x1CD JUMPI PUSH1 0x5 SLOAD PUSH2 0xC90 DUP2 PUSH2 0x2267 JUMP JUMPDEST SWAP1 PUSH1 0x0 SWAP1 PUSH1 0x0 JUMPDEST DUP2 DUP2 LT PUSH2 0xCEA JUMPI POP POP PUSH2 0xCA9 DUP2 PUSH2 0x2267 JUMP JUMPDEST SWAP2 PUSH1 0x0 JUMPDEST DUP3 DUP2 LT PUSH2 0xCC6 JUMPI PUSH1 0x40 MLOAD DUP1 PUSH2 0xCC2 DUP7 DUP3 PUSH2 0x1EE2 JUMP JUMPDEST SUB SWAP1 RETURN JUMPDEST DUP1 PUSH2 0xCD4 PUSH2 0xCE5 SWAP3 DUP5 PUSH2 0x2299 JUMP JUMPDEST MLOAD PUSH2 0xCDF DUP3 DUP8 PUSH2 0x2299 JUMP JUMPDEST MSTORE PUSH2 0x2108 JUMP JUMPDEST PUSH2 0xCAD JUMP JUMPDEST DUP1 PUSH1 0x0 MSTORE PUSH1 0x2 PUSH1 0x20 MSTORE PUSH1 0xFF PUSH1 0xA PUSH1 0x40 PUSH1 0x0 KECCAK256 ADD SLOAD AND PUSH2 0xD12 JUMPI JUMPDEST PUSH2 0xD0D SWAP1 PUSH2 0x2108 JUMP JUMPDEST PUSH2 0xC97 JUMP JUMPDEST SWAP2 PUSH2 0xD25 DUP2 DUP5 PUSH2 0xCDF PUSH2 0xD0D SWAP5 DUP9 PUSH2 0x2299 JUMP JUMPDEST SWAP3 SWAP1 POP PUSH2 0xD04 JUMP JUMPDEST CALLVALUE PUSH2 0x1CD JUMPI PUSH1 0x0 CALLDATASIZE PUSH1 0x3 NOT ADD SLT PUSH2 0x1CD JUMPI PUSH1 0x20 PUSH1 0x40 MLOAD PUSH1 0x0 DUP2 MSTORE RETURN JUMPDEST CALLVALUE PUSH2 0x1CD JUMPI PUSH1 0x0 CALLDATASIZE PUSH1 0x3 NOT ADD SLT PUSH2 0x1CD JUMPI PUSH1 0x20 PUSH1 0x40 MLOAD PUSH32 0x829B824E2329E205435D941C9F13BAF578548505283D29261236D8E6596D4636 DUP2 MSTORE RETURN JUMPDEST CALLVALUE PUSH2 0x1CD JUMPI PUSH2 0xD92 CALLDATASIZE PUSH2 0x1F1D JUMP JUMPDEST SWAP1 PUSH1 0x0 MSTORE PUSH1 0x0 PUSH1 0x20 MSTORE PUSH1 0x40 PUSH1 0x0 KECCAK256 SWAP1 PUSH1 0x1 DUP1 PUSH1 0xA0 SHL SUB AND PUSH1 0x0 MSTORE PUSH1 0x20 MSTORE PUSH1 0x20 PUSH1 0xFF PUSH1 0x40 PUSH1 0x0 KECCAK256 SLOAD AND PUSH1 0x40 MLOAD SWAP1 ISZERO ISZERO DUP2 MSTORE RETURN JUMPDEST CALLVALUE PUSH2 0x1CD JUMPI PUSH1 0xA0 CALLDATASIZE PUSH1 0x3 NOT ADD SLT PUSH2 0x1CD JUMPI PUSH1 0x4 CALLDATALOAD PUSH1 0x1 PUSH1 0x1 PUSH1 0x40 SHL SUB DUP2 GT PUSH2 0x1CD JUMPI PUSH2 0xDF4 SWAP1 CALLDATASIZE SWAP1 PUSH1 0x4 ADD PUSH2 0x1F5C JUMP JUMPDEST PUSH1 0x24 CALLDATALOAD PUSH1 0x1 PUSH1 0x1 PUSH1 0x40 SHL SUB DUP2 GT PUSH2 0x1CD JUMPI PUSH2 0xE13 SWAP1 CALLDATASIZE SWAP1 PUSH1 0x4 ADD PUSH2 0x1F5C JUMP JUMPDEST SWAP3 SWAP1 PUSH2 0xE1D PUSH2 0x1F89 JUMP JUMPDEST SWAP1 PUSH1 0x5 PUSH1 0x84 CALLDATALOAD LT ISZERO PUSH2 0x1CD JUMPI CALLER PUSH1 0x0 SWAP1 DUP2 MSTORE PUSH32 0x30710E496C9A8631E387D1FF5062C226D4CE9C9E008BFF1F22AE157290CCBD62 PUSH1 0x20 MSTORE PUSH1 0x40 SWAP1 KECCAK256 SLOAD PUSH32 0x829B824E2329E205435D941C9F13BAF578548505283D29261236D8E6596D4636 SWAP1 PUSH1 0xFF AND ISZERO PUSH2 0x135D JUMPI POP PUSH1 0xFF PUSH1 0x3 PUSH2 0xE92 PUSH1 0x84 CALLDATALOAD PUSH2 0x1F43 JUMP JUMPDEST ADD SLOAD AND ISZERO PUSH2 0x130A JUMPI PUSH1 0x1 SLOAD PUSH1 0x40 MLOAD PUSH4 0x5DA6A21B PUSH1 0xE1 SHL DUP2 MSTORE CALLER PUSH1 0x4 DUP3 ADD MSTORE SWAP1 PUSH1 0x20 SWAP1 DUP3 SWAP1 PUSH1 0x24 SWAP1 DUP3 SWAP1 PUSH1 0x1 PUSH1 0x1 PUSH1 0xA0 SHL SUB AND GAS STATICCALL SWAP1 DUP2 ISZERO PUSH2 0x12FE JUMPI PUSH1 0x0 SWAP2 PUSH2 0x12CC JUMPI JUMPDEST POP PUSH1 0x2 PUSH2 0xEE3 PUSH1 0x84 CALLDATALOAD PUSH2 0x1F43 JUMP JUMPDEST ADD SLOAD GT PUSH2 0x1273 JUMPI PUSH2 0xF34 SWAP1 PUSH1 0x5 SLOAD SWAP6 PUSH2 0xEFB DUP8 PUSH2 0x2108 JUMP JUMPDEST PUSH1 0x5 SSTORE PUSH2 0xF2B PUSH2 0xF16 PUSH2 0xF0F PUSH1 0x84 CALLDATALOAD PUSH2 0x1F43 JUMP JUMPDEST SLOAD TIMESTAMP PUSH2 0x212D JUMP JUMPDEST SWAP6 PUSH1 0x40 MLOAD SWAP8 PUSH2 0xF24 DUP10 PUSH2 0x1D8A JUMP JUMPDEST CALLDATASIZE SWAP2 PUSH2 0x213A JUMP JUMPDEST DUP7 MSTORE CALLDATASIZE SWAP2 PUSH2 0x213A JUMP JUMPDEST PUSH1 0x20 DUP5 ADD MSTORE PUSH1 0x44 CALLDATALOAD PUSH1 0x40 DUP5 ADD MSTORE PUSH1 0x1 PUSH1 0x1 PUSH1 0xA0 SHL SUB AND PUSH1 0x60 DUP4 ADD MSTORE PUSH2 0xF5E PUSH1 0x84 CALLDATALOAD PUSH1 0x80 DUP5 ADD PUSH2 0x2180 JUMP JUMPDEST PUSH1 0x0 PUSH1 0xA0 DUP4 ADD MSTORE PUSH1 0x0 PUSH1 0xC0 DUP4 ADD MSTORE PUSH1 0x0 PUSH1 0xE0 DUP4 ADD MSTORE TIMESTAMP PUSH2 0x100 DUP4 ADD MSTORE PUSH2 0x120 DUP3 ADD MSTORE CALLER PUSH2 0x140 DUP3 ADD MSTORE PUSH1 0x1 PUSH2 0x160 DUP3 ADD MSTORE PUSH1 0x0 PUSH2 0x180 DUP3 ADD MSTORE PUSH1 0x0 PUSH2 0x1A0 DUP3 ADD MSTORE DUP2 PUSH1 0x0 MSTORE PUSH1 0x2 PUSH1 0x20 MSTORE PUSH1 0x40 PUSH1 0x0 KECCAK256 SWAP1 DUP1 MLOAD SWAP3 DUP4 MLOAD PUSH1 0x1 PUSH1 0x1 PUSH1 0x40 SHL SUB DUP2 GT PUSH2 0xA3A JUMPI PUSH2 0xFD5 DUP2 PUSH2 0xFCF DUP7 SLOAD PUSH2 0x1D35 JUMP JUMPDEST DUP7 PUSH2 0x218C JUMP JUMPDEST PUSH1 0x20 PUSH1 0x1F DUP3 GT PUSH1 0x1 EQ PUSH2 0x120A JUMPI DUP2 SWAP3 SWAP4 SWAP5 SWAP6 PUSH1 0x0 SWAP3 PUSH2 0x11FF JUMPI JUMPDEST POP POP DUP2 PUSH1 0x1 SHL SWAP2 PUSH1 0x0 NOT SWAP1 PUSH1 0x3 SHL SHR NOT AND OR DUP4 SSTORE JUMPDEST PUSH1 0x20 DUP3 ADD MLOAD SWAP3 DUP4 MLOAD PUSH1 0x1 PUSH1 0x1 PUSH1 0x40 SHL SUB DUP2 GT PUSH2 0xA3A JUMPI PUSH2 0x1034 DUP2 PUSH2 0x102B PUSH1 0x1 DUP6 ADD SLOAD PUSH2 0x1D35 JUMP JUMPDEST PUSH1 0x1 DUP6 ADD PUSH2 0x218C JUMP JUMPDEST PUSH1 0x20 PUSH1 0x1F DUP3 GT PUSH1 0x1 EQ PUSH2 0x1190 JUMPI DUP2 SWAP3 SWAP4 SWAP5 SWAP6 PUSH1 0x0 SWAP3 PUSH2 0x1185 JUMPI JUMPDEST POP POP DUP2 PUSH1 0x1 SHL SWAP2 PUSH1 0x0 NOT SWAP1 PUSH1 0x3 SHL SHR NOT AND OR PUSH1 0x1 DUP3 ADD SSTORE JUMPDEST PUSH1 0x40 DUP4 ADD MLOAD PUSH1 0x2 DUP3 ADD SSTORE PUSH1 0x3 DUP2 ADD PUSH1 0x1 DUP1 PUSH1 0xA0 SHL SUB PUSH1 0x60 DUP6 ADD MLOAD AND DUP2 SLOAD SWAP1 PUSH1 0x80 DUP7 ADD MLOAD PUSH1 0x5 DUP2 LT ISZERO PUSH2 0x2F9 JUMPI PUSH1 0x1 PUSH1 0x1 PUSH1 0xA8 SHL SUB NOT SWAP1 SWAP3 AND OR PUSH1 0xA0 SWAP2 DUP3 SHL PUSH1 0xFF PUSH1 0xA0 SHL AND OR DUP3 SSTORE DUP5 ADD MLOAD PUSH1 0x7 DUP2 LT ISZERO PUSH2 0x2F9 JUMPI PUSH1 0x20 SWAP5 PUSH2 0x10CB PUSH2 0x1A0 SWAP3 PUSH1 0xB SWAP5 PUSH2 0x21E0 JUMP JUMPDEST PUSH1 0xC0 DUP2 ADD MLOAD PUSH1 0x4 DUP6 ADD SSTORE PUSH1 0xE0 DUP2 ADD MLOAD PUSH1 0x5 DUP6 ADD SSTORE PUSH2 0x100 DUP2 ADD MLOAD PUSH1 0x6 DUP6 ADD SSTORE PUSH2 0x120 DUP2 ADD MLOAD PUSH1 0x7 DUP6 ADD SSTORE PUSH1 0x8 DUP5 ADD PUSH1 0x1 DUP1 PUSH1 0xA0 SHL SUB PUSH2 0x140 DUP4 ADD MLOAD AND PUSH1 0x1 PUSH1 0x1 PUSH1 0x60 SHL SUB PUSH1 0xA0 SHL DUP3 SLOAD AND OR SWAP1 SSTORE PUSH2 0x160 DUP2 ADD MLOAD PUSH1 0x9 DUP6 ADD SSTORE PUSH2 0x1143 PUSH2 0x180 DUP3 ADD MLOAD ISZERO ISZERO PUSH1 0xA DUP7 ADD SWAP1 PUSH1 0xFF DUP1 NOT DUP4 SLOAD AND SWAP2 ISZERO ISZERO AND OR SWAP1 SSTORE JUMP JUMPDEST ADD MLOAD SWAP2 ADD SSTORE PUSH1 0x40 MLOAD PUSH2 0x1157 DUP2 PUSH1 0x84 CALLDATALOAD PUSH2 0x1EC8 JUMP JUMPDEST DUP2 PUSH32 0x876B000C101C27E7AAFF6A3254EA503D0E9BF516112D43803BD82989B1355235 DUP5 CALLER SWAP4 LOG3 PUSH1 0x40 MLOAD SWAP1 DUP2 MSTORE RETURN JUMPDEST ADD MLOAD SWAP1 POP DUP6 DUP1 PUSH2 0x104E JUMP JUMPDEST PUSH1 0x1 DUP4 ADD PUSH1 0x0 MSTORE PUSH1 0x20 PUSH1 0x0 KECCAK256 SWAP1 PUSH1 0x0 JUMPDEST PUSH1 0x1F NOT DUP5 AND DUP2 LT PUSH2 0x11E7 JUMPI POP PUSH1 0x1 SWAP4 SWAP5 SWAP6 SWAP7 DUP4 PUSH1 0x1F NOT DUP2 AND LT PUSH2 0x11CE JUMPI JUMPDEST POP POP POP DUP2 SHL ADD PUSH1 0x1 DUP3 ADD SSTORE PUSH2 0x1066 JUMP JUMPDEST ADD MLOAD PUSH1 0x0 NOT PUSH1 0xF8 DUP5 PUSH1 0x3 SHL AND SHR NOT AND SWAP1 SSTORE DUP6 DUP1 DUP1 PUSH2 0x11BE JUMP JUMPDEST SWAP1 SWAP2 PUSH1 0x20 PUSH1 0x1 DUP2 SWAP3 DUP6 DUP12 ADD MLOAD DUP2 SSTORE ADD SWAP4 ADD SWAP2 ADD PUSH2 0x11A0 JUMP JUMPDEST ADD MLOAD SWAP1 POP DUP6 DUP1 PUSH2 0xFEF JUMP JUMPDEST DUP5 PUSH1 0x0 MSTORE PUSH1 0x20 PUSH1 0x0 KECCAK256 SWAP1 PUSH1 0x0 JUMPDEST PUSH1 0x1F NOT DUP5 AND DUP2 LT PUSH2 0x125B JUMPI POP PUSH1 0x1 SWAP4 SWAP5 SWAP6 SWAP7 DUP4 PUSH1 0x1F NOT DUP2 AND LT PUSH2 0x1242 JUMPI JUMPDEST POP POP POP DUP2 SHL ADD DUP4 SSTORE PUSH2 0x1004 JUMP JUMPDEST ADD MLOAD PUSH1 0x0 NOT PUSH1 0xF8 DUP5 PUSH1 0x3 SHL AND SHR NOT AND SWAP1 SSTORE DUP6 DUP1 DUP1 PUSH2 0x1235 JUMP JUMPDEST SWAP1 SWAP2 PUSH1 0x20 PUSH1 0x1 DUP2 SWAP3 DUP6 DUP12 ADD MLOAD DUP2 SSTORE ADD SWAP4 ADD SWAP2 ADD PUSH2 0x1217 JUMP JUMPDEST PUSH1 0x40 MLOAD PUSH3 0x461BCD PUSH1 0xE5 SHL DUP2 MSTORE PUSH1 0x20 PUSH1 0x4 DUP3 ADD MSTORE PUSH1 0x2B PUSH1 0x24 DUP3 ADD MSTORE PUSH32 0x456E68616E63656450726F706F73616C3A20696E73756666696369656E742076 PUSH1 0x44 DUP3 ADD MSTORE PUSH11 0x37BA34B733903837BBB2B9 PUSH1 0xA9 SHL PUSH1 0x64 DUP3 ADD MSTORE PUSH1 0x84 SWAP1 REVERT JUMPDEST SWAP1 POP PUSH1 0x20 DUP2 RETURNDATASIZE PUSH1 0x20 GT PUSH2 0x12F6 JUMPI JUMPDEST DUP2 PUSH2 0x12E7 PUSH1 0x20 SWAP4 DUP4 PUSH2 0x1DC1 JUMP JUMPDEST DUP2 ADD SUB SLT PUSH2 0x1CD JUMPI MLOAD DUP7 PUSH2 0xED5 JUMP JUMPDEST RETURNDATASIZE SWAP2 POP PUSH2 0x12DA JUMP JUMPDEST PUSH1 0x40 MLOAD RETURNDATASIZE PUSH1 0x0 DUP3 RETURNDATACOPY RETURNDATASIZE SWAP1 REVERT JUMPDEST PUSH1 0x40 MLOAD PUSH3 0x461BCD PUSH1 0xE5 SHL DUP2 MSTORE PUSH1 0x20 PUSH1 0x4 DUP3 ADD MSTORE PUSH1 0x25 PUSH1 0x24 DUP3 ADD MSTORE PUSH32 0x456E68616E63656450726F706F73616C3A2063617465676F7279206E6F742061 PUSH1 0x44 DUP3 ADD MSTORE PUSH5 0x6374697665 PUSH1 0xD8 SHL PUSH1 0x64 DUP3 ADD MSTORE PUSH1 0x84 SWAP1 REVERT JUMPDEST PUSH1 0x44 SWAP1 PUSH1 0x40 MLOAD SWAP1 PUSH4 0xE2517D3F PUSH1 0xE0 SHL DUP3 MSTORE CALLER PUSH1 0x4 DUP4 ADD MSTORE PUSH1 0x24 DUP3 ADD MSTORE REVERT JUMPDEST CALLVALUE PUSH2 0x1CD JUMPI PUSH2 0x1389 CALLDATASIZE PUSH2 0x1F9F JUMP JUMPDEST PUSH1 0x40 MLOAD SWAP2 PUSH2 0x1396 DUP4 PUSH2 0x1DA6 JUMP JUMPDEST PUSH1 0x0 DUP4 MSTORE PUSH1 0x0 PUSH1 0xA0 PUSH1 0x20 SWAP5 PUSH1 0x60 DUP7 DUP3 ADD MSTORE PUSH1 0x60 PUSH1 0x40 DUP3 ADD MSTORE DUP3 PUSH1 0x60 DUP3 ADD MSTORE DUP3 PUSH1 0x80 DUP3 ADD MSTORE ADD MSTORE PUSH1 0x0 MSTORE PUSH1 0x3 DUP3 MSTORE PUSH1 0x40 PUSH1 0x0 KECCAK256 SWAP1 PUSH1 0x0 MSTORE DUP2 MSTORE PUSH1 0x40 PUSH1 0x0 KECCAK256 PUSH1 0x40 MLOAD SWAP1 PUSH2 0x13E0 DUP3 PUSH2 0x1DA6 JUMP JUMPDEST DUP1 SLOAD DUP3 MSTORE PUSH2 0x13F0 PUSH1 0x1 DUP3 ADD PUSH2 0x1DE2 JUMP JUMPDEST DUP4 DUP4 ADD SWAP1 DUP2 MSTORE PUSH2 0x1402 PUSH1 0x2 DUP4 ADD PUSH2 0x1DE2 JUMP JUMPDEST PUSH1 0x40 DUP5 ADD SWAP1 DUP2 MSTORE PUSH1 0x3 DUP4 ADD SLOAD SWAP3 PUSH1 0x60 DUP6 ADD SWAP4 DUP5 MSTORE PUSH2 0x1472 PUSH1 0x1 DUP1 PUSH1 0xA0 SHL SUB SWAP3 PUSH2 0x145F PUSH1 0x5 DUP6 PUSH1 0x4 DUP7 ADD SLOAD AND SWAP5 PUSH1 0x80 DUP11 ADD SWAP6 DUP7 MSTORE ADD SLOAD SWAP6 PUSH1 0xA0 DUP10 ADD SWAP7 DUP8 MSTORE PUSH1 0x40 MLOAD SWAP10 DUP11 SWAP10 DUP2 DUP12 MSTORE MLOAD SWAP1 DUP11 ADD MSTORE MLOAD PUSH1 0xC0 PUSH1 0x40 DUP11 ADD MSTORE PUSH1 0xE0 DUP10 ADD SWAP1 PUSH2 0x1E88 JUMP JUMPDEST SWAP1 MLOAD DUP8 DUP3 SUB PUSH1 0x1F NOT ADD PUSH1 0x60 DUP10 ADD MSTORE PUSH2 0x1E88 JUMP JUMPDEST SWAP4 MLOAD PUSH1 0x80 DUP7 ADD MSTORE MLOAD AND PUSH1 0xA0 DUP5 ADD MSTORE MLOAD PUSH1 0xC0 DUP4 ADD MSTORE SUB SWAP1 RETURN JUMPDEST CALLVALUE PUSH2 0x1CD JUMPI PUSH1 0xA0 CALLDATASIZE PUSH1 0x3 NOT ADD SLT PUSH2 0x1CD JUMPI PUSH1 0x4 CALLDATALOAD PUSH1 0x1 PUSH1 0x1 PUSH1 0x40 SHL SUB DUP2 GT PUSH2 0x1CD JUMPI PUSH2 0x14BA SWAP1 CALLDATASIZE SWAP1 PUSH1 0x4 ADD PUSH2 0x1F5C JUMP JUMPDEST PUSH1 0x24 CALLDATALOAD PUSH1 0x1 PUSH1 0x1 PUSH1 0x40 SHL SUB DUP2 GT PUSH2 0x1CD JUMPI PUSH2 0x14D9 SWAP1 CALLDATASIZE SWAP1 PUSH1 0x4 ADD PUSH2 0x1F5C JUMP JUMPDEST SWAP3 SWAP1 PUSH2 0x14E3 PUSH2 0x1F89 JUMP JUMPDEST CALLER PUSH1 0x0 SWAP1 DUP2 MSTORE PUSH32 0x3C1B1854AB1360ABBB06C8D4C6B2672D4B8CEDC5EFF522AB19E51D5CB8FDBD46 PUSH1 0x20 MSTORE PUSH1 0x40 SWAP1 KECCAK256 SLOAD SWAP1 SWAP2 SWAP1 PUSH32 0xBF233DD2AAFEB4D50879C4AA5C81E96D92F6E6945C906A58F9F2D1C1631B4B26 SWAP1 PUSH1 0xFF AND ISZERO PUSH2 0x135D JUMPI POP PUSH2 0x1570 SWAP1 PUSH1 0x5 SLOAD SWAP6 PUSH2 0x1551 DUP8 PUSH2 0x2108 JUMP JUMPDEST PUSH1 0x5 SSTORE PUSH1 0x4 PUSH1 0x0 MSTORE PUSH1 0x4 PUSH1 0x20 MSTORE PUSH2 0xF2B PUSH2 0xF16 PUSH1 0x40 PUSH1 0x0 KECCAK256 SLOAD TIMESTAMP PUSH2 0x212D JUMP JUMPDEST PUSH1 0x20 DUP5 ADD MSTORE PUSH1 0x44 CALLDATALOAD PUSH1 0x40 DUP5 ADD MSTORE PUSH1 0x1 DUP1 PUSH1 0xA0 SHL SUB AND PUSH1 0x60 DUP4 ADD MSTORE PUSH1 0x4 PUSH1 0x80 DUP4 ADD MSTORE PUSH1 0x0 PUSH1 0xA0 DUP4 ADD MSTORE PUSH1 0x0 PUSH1 0xC0 DUP4 ADD MSTORE PUSH1 0x0 PUSH1 0xE0 DUP4 ADD MSTORE TIMESTAMP PUSH2 0x100 DUP4 ADD MSTORE PUSH2 0x120 DUP3 ADD MSTORE CALLER PUSH2 0x140 DUP3 ADD MSTORE PUSH1 0x1 PUSH2 0x160 DUP3 ADD MSTORE PUSH1 0x1 PUSH2 0x180 DUP3 ADD MSTORE PUSH1 0x84 CALLDATALOAD PUSH2 0x1A0 DUP3 ADD MSTORE DUP2 PUSH1 0x0 MSTORE PUSH1 0x2 PUSH1 0x20 MSTORE PUSH1 0x40 PUSH1 0x0 KECCAK256 SWAP1 DUP1 MLOAD SWAP3 DUP4 MLOAD PUSH1 0x1 PUSH1 0x1 PUSH1 0x40 SHL SUB DUP2 GT PUSH2 0xA3A JUMPI PUSH2 0x1603 DUP2 PUSH2 0xFCF DUP7 SLOAD PUSH2 0x1D35 JUMP JUMPDEST PUSH1 0x20 PUSH1 0x1F DUP3 GT PUSH1 0x1 EQ PUSH2 0x1821 JUMPI DUP2 SWAP3 SWAP4 SWAP5 SWAP6 PUSH1 0x0 SWAP3 PUSH2 0x1816 JUMPI JUMPDEST POP POP DUP2 PUSH1 0x1 SHL SWAP2 PUSH1 0x0 NOT SWAP1 PUSH1 0x3 SHL SHR NOT AND OR DUP4 SSTORE JUMPDEST PUSH1 0x20 DUP3 ADD MLOAD SWAP3 DUP4 MLOAD PUSH1 0x1 PUSH1 0x1 PUSH1 0x40 SHL SUB DUP2 GT PUSH2 0xA3A JUMPI PUSH2 0x1659 DUP2 PUSH2 0x102B PUSH1 0x1 DUP6 ADD SLOAD PUSH2 0x1D35 JUMP JUMPDEST PUSH1 0x20 PUSH1 0x1F DUP3 GT PUSH1 0x1 EQ PUSH2 0x17A7 JUMPI DUP2 SWAP3 SWAP4 SWAP5 SWAP6 PUSH1 0x0 SWAP3 PUSH2 0x179C JUMPI JUMPDEST POP POP DUP2 PUSH1 0x1 SHL SWAP2 PUSH1 0x0 NOT SWAP1 PUSH1 0x3 SHL SHR NOT AND OR PUSH1 0x1 DUP3 ADD SSTORE JUMPDEST PUSH1 0x40 DUP4 ADD MLOAD PUSH1 0x2 DUP3 ADD SSTORE PUSH1 0x3 DUP2 ADD PUSH1 0x1 DUP1 PUSH1 0xA0 SHL SUB PUSH1 0x60 DUP6 ADD MLOAD AND DUP2 SLOAD SWAP1 PUSH1 0x80 DUP7 ADD MLOAD PUSH1 0x5 DUP2 LT ISZERO PUSH2 0x2F9 JUMPI PUSH1 0x1 PUSH1 0x1 PUSH1 0xA8 SHL SUB NOT SWAP1 SWAP3 AND OR PUSH1 0xA0 SWAP2 DUP3 SHL PUSH1 0xFF PUSH1 0xA0 SHL AND OR DUP3 SSTORE DUP5 ADD MLOAD PUSH1 0x7 DUP2 LT ISZERO PUSH2 0x2F9 JUMPI PUSH1 0x20 SWAP5 PUSH2 0x16F0 PUSH2 0x1A0 SWAP3 PUSH1 0xB SWAP5 PUSH2 0x21E0 JUMP JUMPDEST PUSH1 0xC0 DUP2 ADD MLOAD PUSH1 0x4 DUP6 ADD SSTORE PUSH1 0xE0 DUP2 ADD MLOAD PUSH1 0x5 DUP6 ADD SSTORE PUSH2 0x100 DUP2 ADD MLOAD PUSH1 0x6 DUP6 ADD SSTORE PUSH2 0x120 DUP2 ADD MLOAD PUSH1 0x7 DUP6 ADD SSTORE PUSH1 0x8 DUP5 ADD PUSH1 0x1 DUP1 PUSH1 0xA0 SHL SUB PUSH2 0x140 DUP4 ADD MLOAD AND PUSH1 0x1 PUSH1 0x1 PUSH1 0x60 SHL SUB PUSH1 0xA0 SHL DUP3 SLOAD AND OR SWAP1 SSTORE PUSH2 0x160 DUP2 ADD MLOAD PUSH1 0x9 DUP6 ADD SSTORE PUSH2 0x1768 PUSH2 0x180 DUP3 ADD MLOAD ISZERO ISZERO PUSH1 0xA DUP7 ADD SWAP1 PUSH1 0xFF DUP1 NOT DUP4 SLOAD AND SWAP2 ISZERO ISZERO AND OR SWAP1 SSTORE JUMP JUMPDEST ADD MLOAD SWAP2 ADD SSTORE PUSH1 0x40 MLOAD SWAP1 CALLER DUP2 PUSH32 0xF7AF0EDB3983950019CB0E467CC28B8F1F4262ACD2DFCE724D1A9913BFEAB05F PUSH1 0x0 DUP1 LOG3 DUP2 MSTORE RETURN JUMPDEST ADD MLOAD SWAP1 POP DUP6 DUP1 PUSH2 0x1673 JUMP JUMPDEST PUSH1 0x1 DUP4 ADD PUSH1 0x0 MSTORE PUSH1 0x20 PUSH1 0x0 KECCAK256 SWAP1 PUSH1 0x0 JUMPDEST PUSH1 0x1F NOT DUP5 AND DUP2 LT PUSH2 0x17FE JUMPI POP PUSH1 0x1 SWAP4 SWAP5 SWAP6 SWAP7 DUP4 PUSH1 0x1F NOT DUP2 AND LT PUSH2 0x17E5 JUMPI JUMPDEST POP POP POP DUP2 SHL ADD PUSH1 0x1 DUP3 ADD SSTORE PUSH2 0x168B JUMP JUMPDEST ADD MLOAD PUSH1 0x0 NOT PUSH1 0xF8 DUP5 PUSH1 0x3 SHL AND SHR NOT AND SWAP1 SSTORE DUP6 DUP1 DUP1 PUSH2 0x17D5 JUMP JUMPDEST SWAP1 SWAP2 PUSH1 0x20 PUSH1 0x1 DUP2 SWAP3 DUP6 DUP12 ADD MLOAD DUP2 SSTORE ADD SWAP4 ADD SWAP2 ADD PUSH2 0x17B7 JUMP JUMPDEST ADD MLOAD SWAP1 POP DUP6 DUP1 PUSH2 0x161D JUMP JUMPDEST DUP5 PUSH1 0x0 MSTORE PUSH1 0x20 PUSH1 0x0 KECCAK256 SWAP1 PUSH1 0x0 JUMPDEST PUSH1 0x1F NOT DUP5 AND DUP2 LT PUSH2 0x1872 JUMPI POP PUSH1 0x1 SWAP4 SWAP5 SWAP6 SWAP7 DUP4 PUSH1 0x1F NOT DUP2 AND LT PUSH2 0x1859 JUMPI JUMPDEST POP POP POP DUP2 SHL ADD DUP4 SSTORE PUSH2 0x1632 JUMP JUMPDEST ADD MLOAD PUSH1 0x0 NOT PUSH1 0xF8 DUP5 PUSH1 0x3 SHL AND SHR NOT AND SWAP1 SSTORE DUP6 DUP1 DUP1 PUSH2 0x184C JUMP JUMPDEST SWAP1 SWAP2 PUSH1 0x20 PUSH1 0x1 DUP2 SWAP3 DUP6 DUP12 ADD MLOAD DUP2 SSTORE ADD SWAP4 ADD SWAP2 ADD PUSH2 0x182E JUMP JUMPDEST CALLVALUE PUSH2 0x1CD JUMPI PUSH1 0x20 CALLDATASIZE PUSH1 0x3 NOT ADD SLT PUSH2 0x1CD JUMPI PUSH1 0x4 CALLDATALOAD PUSH1 0x5 DUP2 LT ISZERO PUSH2 0x1CD JUMPI PUSH2 0x18B2 PUSH1 0x80 SWAP2 PUSH2 0x1F43 JUMP JUMPDEST DUP1 SLOAD SWAP1 PUSH1 0x1 DUP2 ADD SLOAD SWAP1 PUSH1 0xFF PUSH1 0x3 PUSH1 0x2 DUP4 ADD SLOAD SWAP3 ADD SLOAD AND SWAP2 PUSH1 0x40 MLOAD SWAP4 DUP5 MSTORE PUSH1 0x20 DUP5 ADD MSTORE PUSH1 0x40 DUP4 ADD MSTORE ISZERO ISZERO PUSH1 0x60 DUP3 ADD MSTORE RETURN JUMPDEST CALLVALUE PUSH2 0x1CD JUMPI PUSH1 0x20 CALLDATASIZE PUSH1 0x3 NOT ADD SLT PUSH2 0x1CD JUMPI PUSH2 0x18FB PUSH2 0x1FB5 JUMP JUMPDEST PUSH1 0x4 CALLDATALOAD PUSH1 0x0 MSTORE PUSH1 0x2 PUSH1 0x20 MSTORE PUSH1 0x3 PUSH1 0x40 PUSH1 0x0 KECCAK256 ADD DUP1 SLOAD PUSH1 0xFF DUP2 PUSH1 0xA8 SHR AND PUSH1 0x7 DUP2 LT ISZERO PUSH2 0x2F9 JUMPI DUP1 ISZERO SWAP1 DUP2 ISZERO PUSH2 0x1985 JUMPI JUMPDEST POP ISZERO PUSH2 0x1941 JUMPI PUSH1 0xFF PUSH1 0xA8 SHL NOT AND PUSH1 0x1 PUSH1 0xA8 SHL OR SWAP1 SSTORE STOP JUMPDEST PUSH1 0x64 PUSH1 0x40 MLOAD PUSH3 0x461BCD PUSH1 0xE5 SHL DUP2 MSTORE PUSH1 0x20 PUSH1 0x4 DUP3 ADD MSTORE PUSH1 0x20 PUSH1 0x24 DUP3 ADD MSTORE PUSH32 0x456E68616E63656450726F706F73616C3A20696E76616C696420737461747573 PUSH1 0x44 DUP3 ADD MSTORE REVERT JUMPDEST PUSH1 0x6 SWAP2 POP EQ DUP4 PUSH2 0x192A JUMP JUMPDEST CALLVALUE PUSH2 0x1CD JUMPI PUSH2 0x199E CALLDATASIZE PUSH2 0x1F1D JUMP JUMPDEST CALLER PUSH1 0x1 PUSH1 0x1 PUSH1 0xA0 SHL SUB DUP3 AND SUB PUSH2 0x19B7 JUMPI PUSH2 0x35E SWAP2 PUSH2 0x2093 JUMP JUMPDEST PUSH1 0x40 MLOAD PUSH4 0x334BD919 PUSH1 0xE1 SHL DUP2 MSTORE PUSH1 0x4 SWAP1 REVERT JUMPDEST CALLVALUE PUSH2 0x1CD JUMPI PUSH2 0x35E PUSH2 0x19DA CALLDATASIZE PUSH2 0x1F1D JUMP JUMPDEST SWAP1 DUP1 PUSH1 0x0 MSTORE PUSH1 0x0 PUSH1 0x20 MSTORE PUSH2 0x19F5 PUSH1 0x1 PUSH1 0x40 PUSH1 0x0 KECCAK256 ADD SLOAD PUSH2 0x1FEF JUMP JUMPDEST PUSH2 0x2015 JUMP JUMPDEST CALLVALUE PUSH2 0x1CD JUMPI PUSH1 0x20 CALLDATASIZE PUSH1 0x3 NOT ADD SLT PUSH2 0x1CD JUMPI PUSH1 0x4 CALLDATALOAD PUSH1 0x0 MSTORE PUSH1 0x0 PUSH1 0x20 MSTORE PUSH1 0x20 PUSH1 0x1 PUSH1 0x40 PUSH1 0x0 KECCAK256 ADD SLOAD PUSH1 0x40 MLOAD SWAP1 DUP2 MSTORE RETURN JUMPDEST CALLVALUE PUSH2 0x1CD JUMPI PUSH1 0x0 CALLDATASIZE PUSH1 0x3 NOT ADD SLT PUSH2 0x1CD JUMPI PUSH1 0x20 PUSH1 0x40 MLOAD PUSH32 0xBF233DD2AAFEB4D50879C4AA5C81E96D92F6E6945C906A58F9F2D1C1631B4B26 DUP2 MSTORE RETURN JUMPDEST CALLVALUE PUSH2 0x1CD JUMPI PUSH1 0x20 DUP1 PUSH1 0x3 NOT CALLDATASIZE ADD SLT PUSH2 0x1CD JUMPI PUSH1 0x5 SWAP1 PUSH1 0x4 CALLDATALOAD DUP3 DUP2 LT ISZERO DUP1 PUSH2 0x1CD JUMPI DUP4 SLOAD SWAP1 PUSH2 0x1A91 DUP3 PUSH2 0x2267 JUMP JUMPDEST SWAP5 PUSH1 0x0 SWAP5 PUSH1 0x0 JUMPDEST DUP5 DUP2 LT PUSH2 0x1AD6 JUMPI DUP8 DUP8 PUSH2 0x1AAA DUP2 PUSH2 0x2267 JUMP JUMPDEST SWAP2 PUSH1 0x0 JUMPDEST DUP3 DUP2 LT PUSH2 0x1AC3 JUMPI PUSH1 0x40 MLOAD DUP1 PUSH2 0xCC2 DUP7 DUP3 PUSH2 0x1EE2 JUMP JUMPDEST DUP1 PUSH2 0xCD4 PUSH2 0x1AD1 SWAP3 DUP5 PUSH2 0x2299 JUMP JUMPDEST PUSH2 0x1AAE JUMP JUMPDEST DUP1 PUSH1 0x0 MSTORE PUSH1 0x2 DUP3 MSTORE DUP4 PUSH1 0xFF PUSH1 0x3 PUSH1 0x40 PUSH1 0x0 KECCAK256 ADD SLOAD PUSH1 0xA0 SHR AND SWAP1 PUSH2 0x2F9 JUMPI DUP4 DUP2 LT ISZERO PUSH2 0x2F9 JUMPI DUP7 EQ PUSH2 0x1B10 JUMPI JUMPDEST PUSH2 0x1B0B SWAP1 PUSH2 0x2108 JUMP JUMPDEST PUSH2 0x1A98 JUMP JUMPDEST SWAP6 PUSH2 0x1B23 DUP2 DUP9 PUSH2 0xCDF PUSH2 0x1B0B SWAP5 DUP13 PUSH2 0x2299 JUMP JUMPDEST SWAP7 SWAP1 POP PUSH2 0x1B02 JUMP JUMPDEST CALLVALUE PUSH2 0x1CD JUMPI PUSH1 0x20 CALLDATASIZE PUSH1 0x3 NOT ADD SLT PUSH2 0x1CD JUMPI PUSH1 0x4 CALLDATALOAD PUSH1 0x5 DUP2 LT ISZERO PUSH2 0x1CD JUMPI PUSH2 0x1B74 PUSH1 0x80 SWAP2 PUSH1 0x0 PUSH1 0x60 PUSH1 0x40 MLOAD PUSH2 0x1B5E DUP2 PUSH2 0x1D6F JUMP JUMPDEST DUP3 DUP2 MSTORE DUP3 PUSH1 0x20 DUP3 ADD MSTORE DUP3 PUSH1 0x40 DUP3 ADD MSTORE ADD MSTORE PUSH2 0x1F43 JUMP JUMPDEST PUSH1 0x40 MLOAD PUSH2 0x1B80 DUP2 PUSH2 0x1D6F JUMP JUMPDEST DUP2 SLOAD SWAP2 DUP3 DUP3 MSTORE PUSH1 0x1 DUP2 ADD SLOAD PUSH1 0x20 DUP4 ADD SWAP1 DUP2 MSTORE PUSH1 0x60 PUSH1 0xFF PUSH1 0x3 PUSH1 0x2 DUP6 ADD SLOAD SWAP5 PUSH1 0x40 DUP8 ADD SWAP6 DUP7 MSTORE ADD SLOAD AND SWAP4 ADD SWAP3 ISZERO ISZERO DUP4 MSTORE PUSH1 0x40 MLOAD SWAP4 DUP5 MSTORE MLOAD PUSH1 0x20 DUP5 ADD MSTORE MLOAD PUSH1 0x40 DUP4 ADD MSTORE MLOAD ISZERO ISZERO PUSH1 0x60 DUP3 ADD MSTORE RETURN JUMPDEST CALLVALUE PUSH2 0x1CD JUMPI PUSH1 0x20 CALLDATASIZE PUSH1 0x3 NOT ADD SLT PUSH2 0x1CD JUMPI PUSH1 0x4 CALLDATALOAD PUSH4 0xFFFFFFFF PUSH1 0xE0 SHL DUP2 AND DUP1 SWAP2 SUB PUSH2 0x1CD JUMPI PUSH1 0x20 SWAP1 PUSH4 0x7965DB0B PUSH1 0xE0 SHL DUP2 EQ SWAP1 DUP2 ISZERO PUSH2 0x1C10 JUMPI JUMPDEST POP PUSH1 0x40 MLOAD SWAP1 ISZERO ISZERO DUP2 MSTORE RETURN JUMPDEST PUSH4 0x1FFC9A7 PUSH1 0xE0 SHL EQ SWAP1 POP DUP3 PUSH2 0x1C05 JUMP JUMPDEST CALLVALUE PUSH2 0x1CD JUMPI PUSH1 0x20 CALLDATASIZE PUSH1 0x3 NOT ADD SLT PUSH2 0x1CD JUMPI PUSH1 0x4 CALLDATALOAD PUSH1 0x0 MSTORE PUSH1 0x2 PUSH1 0x20 MSTORE PUSH1 0x40 PUSH1 0x0 KECCAK256 PUSH2 0x1C4B DUP2 PUSH2 0x1DE2 JUMP JUMPDEST PUSH2 0x1C57 PUSH1 0x1 DUP4 ADD PUSH2 0x1DE2 JUMP JUMPDEST SWAP2 PUSH1 0x2 DUP2 ADD SLOAD SWAP1 PUSH1 0x3 DUP2 ADD SLOAD SWAP1 PUSH1 0x4 DUP2 ADD SLOAD SWAP2 PUSH1 0x5 DUP3 ADD SLOAD SWAP3 PUSH1 0x6 DUP4 ADD SLOAD PUSH1 0x7 DUP5 ADD SLOAD SWAP1 PUSH1 0x1 PUSH1 0xA0 SHL PUSH1 0x1 SWAP1 SUB SWAP6 DUP7 PUSH1 0x8 DUP8 ADD SLOAD AND SWAP4 PUSH1 0x9 DUP8 ADD SLOAD SWAP6 PUSH1 0xA DUP9 ADD SLOAD PUSH1 0xFF AND SWAP8 PUSH1 0xB ADD SLOAD SWAP9 PUSH1 0x40 MLOAD SWAP13 DUP14 SWAP13 DUP14 PUSH2 0x1C0 SWAP1 DUP2 DUP2 MSTORE ADD PUSH2 0x1CB9 SWAP2 PUSH2 0x1E88 JUMP JUMPDEST DUP14 DUP2 SUB PUSH1 0x20 DUP16 ADD MSTORE PUSH2 0x1CCA SWAP2 PUSH2 0x1E88 JUMP JUMPDEST SWAP11 PUSH1 0x40 DUP14 ADD MSTORE DUP2 AND PUSH1 0x60 DUP13 ADD MSTORE PUSH1 0x80 DUP12 ADD DUP2 PUSH1 0xA0 SHR PUSH1 0xFF AND SWAP1 PUSH2 0x1CEC SWAP2 PUSH2 0x1EC8 JUMP JUMPDEST PUSH1 0xA0 DUP12 ADD SWAP1 PUSH1 0xA8 SHR PUSH1 0xFF AND SWAP1 PUSH2 0x1D01 SWAP2 PUSH2 0x1ED5 JUMP JUMPDEST PUSH1 0xC0 DUP11 ADD MSTORE PUSH1 0xE0 DUP10 ADD MSTORE PUSH2 0x100 DUP9 ADD MSTORE PUSH2 0x120 DUP8 ADD MSTORE PUSH2 0x140 DUP7 ADD MSTORE PUSH2 0x160 DUP6 ADD MSTORE ISZERO ISZERO PUSH2 0x180 DUP5 ADD MSTORE PUSH2 0x1A0 DUP4 ADD MSTORE SUB SWAP1 RETURN JUMPDEST SWAP1 PUSH1 0x1 DUP3 DUP2 SHR SWAP3 AND DUP1 ISZERO PUSH2 0x1D65 JUMPI JUMPDEST PUSH1 0x20 DUP4 LT EQ PUSH2 0x1D4F JUMPI JUMP JUMPDEST PUSH4 0x4E487B71 PUSH1 0xE0 SHL PUSH1 0x0 MSTORE PUSH1 0x22 PUSH1 0x4 MSTORE PUSH1 0x24 PUSH1 0x0 REVERT JUMPDEST SWAP2 PUSH1 0x7F AND SWAP2 PUSH2 0x1D44 JUMP JUMPDEST PUSH1 0x80 DUP2 ADD SWAP1 DUP2 LT PUSH1 0x1 PUSH1 0x1 PUSH1 0x40 SHL SUB DUP3 GT OR PUSH2 0xA3A JUMPI PUSH1 0x40 MSTORE JUMP JUMPDEST PUSH2 0x1C0 DUP2 ADD SWAP1 DUP2 LT PUSH1 0x1 PUSH1 0x1 PUSH1 0x40 SHL SUB DUP3 GT OR PUSH2 0xA3A JUMPI PUSH1 0x40 MSTORE JUMP JUMPDEST PUSH1 0xC0 DUP2 ADD SWAP1 DUP2 LT PUSH1 0x1 PUSH1 0x1 PUSH1 0x40 SHL SUB DUP3 GT OR PUSH2 0xA3A JUMPI PUSH1 0x40 MSTORE JUMP JUMPDEST SWAP1 PUSH1 0x1F DUP1 NOT SWAP2 ADD AND DUP2 ADD SWAP1 DUP2 LT PUSH1 0x1 PUSH1 0x1 PUSH1 0x40 SHL SUB DUP3 GT OR PUSH2 0xA3A JUMPI PUSH1 0x40 MSTORE JUMP JUMPDEST SWAP1 PUSH1 0x40 MLOAD SWAP2 DUP3 PUSH1 0x0 DUP3 SLOAD SWAP3 PUSH2 0x1DF6 DUP5 PUSH2 0x1D35 JUMP JUMPDEST SWAP1 DUP2 DUP5 MSTORE PUSH1 0x1 SWAP5 DUP6 DUP2 AND SWAP1 DUP2 PUSH1 0x0 EQ PUSH2 0x1E65 JUMPI POP PUSH1 0x1 EQ PUSH2 0x1E22 JUMPI JUMPDEST POP POP PUSH2 0x1E20 SWAP3 POP SUB DUP4 PUSH2 0x1DC1 JUMP JUMPDEST JUMP JUMPDEST SWAP1 SWAP4 SWAP2 POP PUSH1 0x0 MSTORE PUSH1 0x20 SWAP1 DUP2 PUSH1 0x0 KECCAK256 SWAP4 PUSH1 0x0 SWAP2 JUMPDEST DUP2 DUP4 LT PUSH2 0x1E4D JUMPI POP POP PUSH2 0x1E20 SWAP4 POP DUP3 ADD ADD CODESIZE DUP1 PUSH2 0x1E12 JUMP JUMPDEST DUP6 SLOAD DUP9 DUP5 ADD DUP6 ADD MSTORE SWAP5 DUP6 ADD SWAP5 DUP8 SWAP5 POP SWAP2 DUP4 ADD SWAP2 PUSH2 0x1E35 JUMP JUMPDEST SWAP2 POP POP PUSH2 0x1E20 SWAP5 POP PUSH1 0x20 SWAP3 POP PUSH1 0xFF NOT AND DUP3 DUP5 ADD MSTORE ISZERO ISZERO PUSH1 0x5 SHL DUP3 ADD ADD CODESIZE DUP1 PUSH2 0x1E12 JUMP JUMPDEST SWAP2 SWAP1 DUP3 MLOAD SWAP3 DUP4 DUP3 MSTORE PUSH1 0x0 JUMPDEST DUP5 DUP2 LT PUSH2 0x1EB4 JUMPI POP POP DUP3 PUSH1 0x0 PUSH1 0x20 DUP1 SWAP5 SWAP6 DUP5 ADD ADD MSTORE PUSH1 0x1F DUP1 NOT SWAP2 ADD AND ADD ADD SWAP1 JUMP JUMPDEST PUSH1 0x20 DUP2 DUP4 ADD DUP2 ADD MLOAD DUP5 DUP4 ADD DUP3 ADD MSTORE ADD PUSH2 0x1E93 JUMP JUMPDEST SWAP1 PUSH1 0x5 DUP3 LT ISZERO PUSH2 0x2F9 JUMPI MSTORE JUMP JUMPDEST SWAP1 PUSH1 0x7 DUP3 LT ISZERO PUSH2 0x2F9 JUMPI MSTORE JUMP JUMPDEST PUSH1 0x20 SWAP1 DUP2 PUSH1 0x40 DUP2 DUP4 ADD SWAP3 DUP3 DUP2 MSTORE DUP6 MLOAD DUP1 SWAP5 MSTORE ADD SWAP4 ADD SWAP2 PUSH1 0x0 JUMPDEST DUP3 DUP2 LT PUSH2 0x1F09 JUMPI POP POP POP POP SWAP1 JUMP JUMPDEST DUP4 MLOAD DUP6 MSTORE SWAP4 DUP2 ADD SWAP4 SWAP3 DUP2 ADD SWAP3 PUSH1 0x1 ADD PUSH2 0x1EFB JUMP JUMPDEST PUSH1 0x40 SWAP1 PUSH1 0x3 NOT ADD SLT PUSH2 0x1CD JUMPI PUSH1 0x4 CALLDATALOAD SWAP1 PUSH1 0x24 CALLDATALOAD PUSH1 0x1 PUSH1 0x1 PUSH1 0xA0 SHL SUB DUP2 AND DUP2 SUB PUSH2 0x1CD JUMPI SWAP1 JUMP JUMPDEST PUSH1 0x5 DUP2 LT ISZERO PUSH2 0x2F9 JUMPI PUSH1 0x0 MSTORE PUSH1 0x4 PUSH1 0x20 MSTORE PUSH1 0x40 PUSH1 0x0 KECCAK256 SWAP1 JUMP JUMPDEST SWAP2 DUP2 PUSH1 0x1F DUP5 ADD SLT ISZERO PUSH2 0x1CD JUMPI DUP3 CALLDATALOAD SWAP2 PUSH1 0x1 PUSH1 0x1 PUSH1 0x40 SHL SUB DUP4 GT PUSH2 0x1CD JUMPI PUSH1 0x20 DUP4 DUP2 DUP7 ADD SWAP6 ADD ADD GT PUSH2 0x1CD JUMPI JUMP JUMPDEST PUSH1 0x64 CALLDATALOAD SWAP1 PUSH1 0x1 PUSH1 0x1 PUSH1 0xA0 SHL SUB DUP3 AND DUP3 SUB PUSH2 0x1CD JUMPI JUMP JUMPDEST PUSH1 0x40 SWAP1 PUSH1 0x3 NOT ADD SLT PUSH2 0x1CD JUMPI PUSH1 0x4 CALLDATALOAD SWAP1 PUSH1 0x24 CALLDATALOAD SWAP1 JUMP JUMPDEST CALLER PUSH1 0x0 SWAP1 DUP2 MSTORE PUSH32 0xAD3228B676F7D3CD4284A5443F17F1962B36E491B30A40B2405849E597BA5FB5 PUSH1 0x20 MSTORE PUSH1 0x40 DUP2 KECCAK256 SLOAD PUSH1 0xFF AND ISZERO PUSH2 0x135D JUMPI POP JUMP JUMPDEST DUP1 PUSH1 0x0 MSTORE PUSH1 0x0 PUSH1 0x20 MSTORE PUSH1 0x40 PUSH1 0x0 KECCAK256 CALLER PUSH1 0x0 MSTORE PUSH1 0x20 MSTORE PUSH1 0xFF PUSH1 0x40 PUSH1 0x0 KECCAK256 SLOAD AND ISZERO PUSH2 0x135D JUMPI POP JUMP JUMPDEST SWAP1 PUSH1 0x0 SWAP2 DUP1 DUP4 MSTORE DUP3 PUSH1 0x20 MSTORE PUSH1 0x40 DUP4 KECCAK256 SWAP2 PUSH1 0x1 DUP1 PUSH1 0xA0 SHL SUB AND SWAP2 DUP3 DUP5 MSTORE PUSH1 0x20 MSTORE PUSH1 0xFF PUSH1 0x40 DUP5 KECCAK256 SLOAD AND ISZERO PUSH1 0x0 EQ PUSH2 0x208E JUMPI DUP1 DUP4 MSTORE DUP3 PUSH1 0x20 MSTORE PUSH1 0x40 DUP4 KECCAK256 DUP3 DUP5 MSTORE PUSH1 0x20 MSTORE PUSH1 0x40 DUP4 KECCAK256 PUSH1 0x1 PUSH1 0xFF NOT DUP3 SLOAD AND OR SWAP1 SSTORE PUSH32 0x2F8788117E7EFF1D82E926EC794901D17C78024A50270940304540A733656F0D CALLER SWAP4 DUP1 LOG4 PUSH1 0x1 SWAP1 JUMP JUMPDEST POP POP SWAP1 JUMP JUMPDEST SWAP1 PUSH1 0x0 SWAP2 DUP1 DUP4 MSTORE DUP3 PUSH1 0x20 MSTORE PUSH1 0x40 DUP4 KECCAK256 SWAP2 PUSH1 0x1 DUP1 PUSH1 0xA0 SHL SUB AND SWAP2 DUP3 DUP5 MSTORE PUSH1 0x20 MSTORE PUSH1 0xFF PUSH1 0x40 DUP5 KECCAK256 SLOAD AND PUSH1 0x0 EQ PUSH2 0x208E JUMPI DUP1 DUP4 MSTORE DUP3 PUSH1 0x20 MSTORE PUSH1 0x40 DUP4 KECCAK256 DUP3 DUP5 MSTORE PUSH1 0x20 MSTORE PUSH1 0x40 DUP4 KECCAK256 PUSH1 0xFF NOT DUP2 SLOAD AND SWAP1 SSTORE PUSH32 0xF6391F5C32D9C69D2A47EA670B442974B53935D1EDC7FD64EB21E047A839171B CALLER SWAP4 DUP1 LOG4 PUSH1 0x1 SWAP1 JUMP JUMPDEST PUSH1 0x0 NOT DUP2 EQ PUSH2 0x2117 JUMPI PUSH1 0x1 ADD SWAP1 JUMP JUMPDEST PUSH4 0x4E487B71 PUSH1 0xE0 SHL PUSH1 0x0 MSTORE PUSH1 0x11 PUSH1 0x4 MSTORE PUSH1 0x24 PUSH1 0x0 REVERT JUMPDEST SWAP2 SWAP1 DUP3 ADD DUP1 SWAP3 GT PUSH2 0x2117 JUMPI JUMP JUMPDEST SWAP3 SWAP2 SWAP3 PUSH1 0x1 PUSH1 0x1 PUSH1 0x40 SHL SUB DUP3 GT PUSH2 0xA3A JUMPI PUSH1 0x40 MLOAD SWAP2 PUSH2 0x2163 PUSH1 0x1F DUP3 ADD PUSH1 0x1F NOT AND PUSH1 0x20 ADD DUP5 PUSH2 0x1DC1 JUMP JUMPDEST DUP3 SWAP5 DUP2 DUP5 MSTORE DUP2 DUP4 ADD GT PUSH2 0x1CD JUMPI DUP3 DUP2 PUSH1 0x20 SWAP4 DUP5 PUSH1 0x0 SWAP7 ADD CALLDATACOPY ADD ADD MSTORE JUMP JUMPDEST PUSH1 0x5 DUP3 LT ISZERO PUSH2 0x2F9 JUMPI MSTORE JUMP JUMPDEST SWAP1 PUSH1 0x1F DUP2 GT PUSH2 0x219A JUMPI POP POP POP JUMP JUMPDEST PUSH1 0x0 SWAP2 DUP3 MSTORE PUSH1 0x20 DUP3 KECCAK256 SWAP1 PUSH1 0x20 PUSH1 0x1F DUP6 ADD PUSH1 0x5 SHR DUP4 ADD SWAP5 LT PUSH2 0x21D6 JUMPI JUMPDEST PUSH1 0x1F ADD PUSH1 0x5 SHR ADD SWAP2 JUMPDEST DUP3 DUP2 LT PUSH2 0x21CB JUMPI POP POP POP JUMP JUMPDEST DUP2 DUP2 SSTORE PUSH1 0x1 ADD PUSH2 0x21BF JUMP JUMPDEST SWAP1 SWAP3 POP DUP3 SWAP1 PUSH2 0x21B6 JUMP JUMPDEST SWAP1 PUSH1 0x7 DUP2 LT ISZERO PUSH2 0x2F9 JUMPI DUP2 SLOAD PUSH1 0xFF PUSH1 0xA8 SHL NOT AND PUSH1 0xA8 SWAP2 SWAP1 SWAP2 SHL PUSH1 0xFF PUSH1 0xA8 SHL AND OR SWAP1 SSTORE JUMP JUMPDEST ISZERO PUSH2 0x220B JUMPI JUMP JUMPDEST PUSH1 0x40 MLOAD PUSH3 0x461BCD PUSH1 0xE5 SHL DUP2 MSTORE PUSH1 0x20 PUSH1 0x4 DUP3 ADD MSTORE PUSH1 0x1E PUSH1 0x24 DUP3 ADD MSTORE PUSH32 0x456E68616E63656450726F706F73616C3A206E6F742070726F706F7365720000 PUSH1 0x44 DUP3 ADD MSTORE PUSH1 0x64 SWAP1 REVERT JUMPDEST PUSH1 0x1 PUSH1 0x1 PUSH1 0x40 SHL SUB DUP2 GT PUSH2 0xA3A JUMPI PUSH1 0x5 SHL PUSH1 0x20 ADD SWAP1 JUMP JUMPDEST SWAP1 PUSH2 0x2271 DUP3 PUSH2 0x2250 JUMP JUMPDEST PUSH2 0x227E PUSH1 0x40 MLOAD SWAP2 DUP3 PUSH2 0x1DC1 JUMP JUMPDEST DUP3 DUP2 MSTORE DUP1 SWAP3 PUSH2 0x228F PUSH1 0x1F NOT SWAP2 PUSH2 0x2250 JUMP JUMPDEST ADD SWAP1 PUSH1 0x20 CALLDATASIZE SWAP2 ADD CALLDATACOPY JUMP JUMPDEST DUP1 MLOAD DUP3 LT ISZERO PUSH2 0x22AD JUMPI PUSH1 0x20 SWAP2 PUSH1 0x5 SHL ADD ADD SWAP1 JUMP JUMPDEST PUSH4 0x4E487B71 PUSH1 0xE0 SHL PUSH1 0x0 MSTORE PUSH1 0x32 PUSH1 0x4 MSTORE PUSH1 0x24 PUSH1 0x0 REVERT INVALID LOG2 PUSH5 0x6970667358 0x22 SLT KECCAK256 0xB3 DUP6 LOG2 COINBASE CALLDATALOAD 0xEE SWAP15 DUP3 0xC2 STOP 0xC7 PUSH4 0x141F9A81 0xD6 0xEC DUP10 0xC1 0xD9 0xC7 DUP9 DUP3 0xA5 0xC6 0xB9 DUP9 DUP7 DUP3 0xB7 MUL PUSH5 0x736F6C6343 STOP ADDMOD EQ STOP CALLER 0x2F DUP8 DUP9 GT PUSH31 0x7EFF1D82E926EC794901D17C78024A50270940304540A733656F0D00000000 "},"methodIdentifiers":{"DEFAULT_ADMIN_ROLE()":"a217fddf","EMERGENCY_ROLE()":"20df4359","MEMBER_ROLE()":"a10f469e","activateProposal(uint256)":"45ac5955","cancelProposal(uint256)":"e0a8f6f5","categoryConfigs(uint8)":"586a1960","createEmergencyProposal(string,string,uint256,address,uint256)":"61772230","createProposal(string,string,uint256,address,uint8)":"8b2f8126","getCategoryConfig(uint8)":"084b0601","getEmergencyProposals()":"a9290230","getProposal(uint256)":"c7f758a8","getProposalHistory(uint256,uint256)":"6f6dce93","getProposalsByCategory(uint8)":"0924e867","getRoleAdmin(bytes32)":"248a9ca3","governanceToken()":"f96dae0a","grantRole(bytes32,address)":"2f2ff15d","hasRole(bytes32,address)":"91d14854","modifyProposal(uint256,string,string,uint256,address)":"ba68d4bb","proposalCount()":"da35c664","proposalHistory(uint256,uint256)":"c4896724","proposals(uint256)":"013cf08b","renounceRole(bytes32,address)":"36568abe","revokeRole(bytes32,address)":"d547741f","setProposalStatus(uint256,uint8)":"cbe94614","supportsInterface(bytes4)":"01ffc9a7","updateCategoryConfig(uint8,uint256,uint256,uint256)":"f9a5f3b8"}}}}}