{"contracts/Execution.sol":{"Execution":{"abi":[{"inputs":[{"internalType":"address","name":"_proposal","type":"address"},{"internalType":"address","name":"_voting","type":"address"},{"internalType":"address payable","name":"_vault","type":"address"}],"stateMutability":"nonpayable","type":"constructor"},{"anonymous":false,"inputs":[{"indexed":true,"internalType":"uint256","name":"proposalId","type":"uint256"}],"name":"ProposalExecuted","type":"event"},{"inputs":[{"internalType":"uint256","name":"proposalId","type":"uint256"}],"name":"executeProposal","outputs":[],"stateMutability":"nonpayable","type":"function"},{"inputs":[{"internalType":"uint256","name":"proposalId","type":"uint256"}],"name":"isExecutable","outputs":[{"internalType":"bool","name":"","type":"bool"}],"stateMutability":"view","type":"function"},{"inputs":[],"name":"proposalContract","outputs":[{"internalType":"contract Proposal","name":"","type":"address"}],"stateMutability":"view","type":"function"},{"inputs":[],"name":"quorumPercent","outputs":[{"internalType":"uint256","name":"","type":"uint256"}],"stateMutability":"view","type":"function"},{"inputs":[],"name":"vaultContract","outputs":[{"internalType":"contract Vault","name":"","type":"address"}],"stateMutability":"view","type":"function"},{"inputs":[],"name":"votingContract","outputs":[{"internalType":"contract Voting","name":"","type":"address"}],"stateMutability":"view","type":"function"}],"evm":{"bytecode":{"linkReferences":{},"object":"6080346100a757601f6106be38819003918201601f19168301916001600160401b038311848410176100ac578084926060946040528339810103126100a757610047816100c2565b6040610055602084016100c2565b9201516001600160a01b038082169390918490036100a75760326003558160018060a01b031993168360005416176000551681600154161760015560025416176002556040516105e790816100d78239f35b600080fd5b634e487b7160e01b600052604160045260246000fd5b51906001600160a01b03821682036100a75756fe6040608081526004908136101561001557600080fd5b600091823560e01c9081630d61b5191461012b5781632274346b146101025781633aef3900146100da5781634e395e2a146100ae57508063c1fc006a146100865763f81cbd261461006557600080fd5b346100825781600319360112610082576020906003549051908152f35b5080fd5b503461008257816003193601126100825760015490516001600160a01b039091168152602090f35b8284346100d75760203660031901126100d757506100ce60209235610476565b90519015158152f35b80fd5b505034610082578160031936011261008257905490516001600160a01b039091168152602090f35b50503461008257816003193601126100825760025490516001600160a01b039091168152602090f35b83915034610082576020806003193601126104265781359161014c83610476565b156103e557835485516318feeb1560e31b8152808301859052956024939092916001600160a01b039190879089908790829086165afa9788156103db5787986102e7575b506080880151838110156102d5576102945750806002541696838260608301511691015190883b156102905790604488928387519b8c94859363a9059cbb60e01b8552898501528a8401525af1801561028657610270575b858097509495541690813b1561026c57604486918680946003875198899687956332fa518560e21b87528601528401525af1908115610263575061024f575b50807f712ae1383f79ac853f8d882153778e0260ef8f03b504e2866e0593e04d2b291f91a280f35b6102589061042a565b610082578183610227565b513d84823e3d90fd5b8480fd5b9394909561027d9061042a565b939285906101e8565b83513d88823e3d90fd5b8780fd5b8260198660649387519362461bcd60e51b85528401528201527f457865637574696f6e3a20696e76616c696420737461747573000000000000006044820152fd5b634e487b7160e01b8852602184528588fd5b9097503d8088833e6102f98183610454565b8101888282031261029057815167ffffffffffffffff928382116103c15701906101009283838303126103c1578651938401848110828211176103c957875282518181116103c5578261034d91850161053b565b84528a8301519081116103c1579061036691830161053b565b898301528481015185830152606081015183811681036103bd5760608301526080810151848110156103bd579060e091608084015260a081015160a084015260c081015160c0840152015160e08201529688610190565b8880fd5b8980fd5b8a80fd5b634e487b7160e01b8b5260418752888bfd5b84513d89823e3d90fd5b60649185519162461bcd60e51b8352820152601d60248201527f457865637574696f6e3a2071756f72756d206e6f7420726561636865640000006044820152fd5b8280fd5b67ffffffffffffffff811161043e57604052565b634e487b7160e01b600052604160045260246000fd5b90601f8019910116810190811067ffffffffffffffff82111761043e57604052565b60018060a01b036001541660408092602482518094819363ff98109960e01b835260048301525afa9081156105305760009283926104fa575b505081018082116104dd5780156104f3576064820291808304606414901517156104dd576003549104101590565b634e487b7160e01b600052601160045260246000fd5b5050600090565b9080939250813d8311610529575b6105128183610454565b810103126100d757506020815191015138806104af565b503d610508565b82513d6000823e3d90fd5b919080601f840112156105ac5782519067ffffffffffffffff821161043e5760405191602091610574601f8301601f1916840185610454565b8184528282870101116105ac5760005b81811061059957508260009394955001015290565b8581018301518482018401528201610584565b600080fdfea2646970667358221220561a5f3278df18e7d79172419ec04214f8a4a90bfbe2429e1f18664fdc5c8acf64736f6c63430008140033","opcodes":"PUSH1 0x80 CALLVALUE PUSH2 0xA7 JUMPI PUSH1 0x1F PUSH2 0x6BE CODESIZE DUP2 SWAP1 SUB SWAP2 DUP3 ADD PUSH1 0x1F NOT AND DUP4 ADD SWAP2 PUSH1 0x1 PUSH1 0x1 PUSH1 0x40 SHL SUB DUP4 GT DUP5 DUP5 LT OR PUSH2 0xAC JUMPI DUP1 DUP5 SWAP3 PUSH1 0x60 SWAP5 PUSH1 0x40 MSTORE DUP4 CODECOPY DUP2 ADD SUB SLT PUSH2 0xA7 JUMPI PUSH2 0x47 DUP2 PUSH2 0xC2 JUMP JUMPDEST PUSH1 0x40 PUSH2 0x55 PUSH1 0x20 DUP5 ADD PUSH2 0xC2 JUMP JUMPDEST SWAP3 ADD MLOAD PUSH1 0x1 PUSH1 0x1 PUSH1 0xA0 SHL SUB DUP1 DUP3 AND SWAP4 SWAP1 SWAP2 DUP5 SWAP1 SUB PUSH2 0xA7 JUMPI PUSH1 0x32 PUSH1 0x3 SSTORE DUP2 PUSH1 0x1 DUP1 PUSH1 0xA0 SHL SUB NOT SWAP4 AND DUP4 PUSH1 0x0 SLOAD AND OR PUSH1 0x0 SSTORE AND DUP2 PUSH1 0x1 SLOAD AND OR PUSH1 0x1 SSTORE PUSH1 0x2 SLOAD AND OR PUSH1 0x2 SSTORE PUSH1 0x40 MLOAD PUSH2 0x5E7 SWAP1 DUP2 PUSH2 0xD7 DUP3 CODECOPY RETURN JUMPDEST PUSH1 0x0 DUP1 REVERT JUMPDEST PUSH4 0x4E487B71 PUSH1 0xE0 SHL PUSH1 0x0 MSTORE PUSH1 0x41 PUSH1 0x4 MSTORE PUSH1 0x24 PUSH1 0x0 REVERT JUMPDEST MLOAD SWAP1 PUSH1 0x1 PUSH1 0x1 PUSH1 0xA0 SHL SUB DUP3 AND DUP3 SUB PUSH2 0xA7 JUMPI JUMP INVALID PUSH1 0x40 PUSH1 0x80 DUP2 MSTORE PUSH1 0x4 SWAP1 DUP2 CALLDATASIZE LT ISZERO PUSH2 0x15 JUMPI PUSH1 0x0 DUP1 REVERT JUMPDEST PUSH1 0x0 SWAP2 DUP3 CALLDATALOAD PUSH1 0xE0 SHR SWAP1 DUP2 PUSH4 0xD61B519 EQ PUSH2 0x12B JUMPI DUP2 PUSH4 0x2274346B EQ PUSH2 0x102 JUMPI DUP2 PUSH4 0x3AEF3900 EQ PUSH2 0xDA JUMPI DUP2 PUSH4 0x4E395E2A EQ PUSH2 0xAE JUMPI POP DUP1 PUSH4 0xC1FC006A EQ PUSH2 0x86 JUMPI PUSH4 0xF81CBD26 EQ PUSH2 0x65 JUMPI PUSH1 0x0 DUP1 REVERT JUMPDEST CALLVALUE PUSH2 0x82 JUMPI DUP2 PUSH1 0x3 NOT CALLDATASIZE ADD SLT PUSH2 0x82 JUMPI PUSH1 0x20 SWAP1 PUSH1 0x3 SLOAD SWAP1 MLOAD SWAP1 DUP2 MSTORE RETURN JUMPDEST POP DUP1 REVERT JUMPDEST POP CALLVALUE PUSH2 0x82 JUMPI DUP2 PUSH1 0x3 NOT CALLDATASIZE ADD SLT PUSH2 0x82 JUMPI PUSH1 0x1 SLOAD SWAP1 MLOAD PUSH1 0x1 PUSH1 0x1 PUSH1 0xA0 SHL SUB SWAP1 SWAP2 AND DUP2 MSTORE PUSH1 0x20 SWAP1 RETURN JUMPDEST DUP3 DUP5 CALLVALUE PUSH2 0xD7 JUMPI PUSH1 0x20 CALLDATASIZE PUSH1 0x3 NOT ADD SLT PUSH2 0xD7 JUMPI POP PUSH2 0xCE PUSH1 0x20 SWAP3 CALLDATALOAD PUSH2 0x476 JUMP JUMPDEST SWAP1 MLOAD SWAP1 ISZERO ISZERO DUP2 MSTORE RETURN JUMPDEST DUP1 REVERT JUMPDEST POP POP CALLVALUE PUSH2 0x82 JUMPI DUP2 PUSH1 0x3 NOT CALLDATASIZE ADD SLT PUSH2 0x82 JUMPI SWAP1 SLOAD SWAP1 MLOAD PUSH1 0x1 PUSH1 0x1 PUSH1 0xA0 SHL SUB SWAP1 SWAP2 AND DUP2 MSTORE PUSH1 0x20 SWAP1 RETURN JUMPDEST POP POP CALLVALUE PUSH2 0x82 JUMPI DUP2 PUSH1 0x3 NOT CALLDATASIZE ADD SLT PUSH2 0x82 JUMPI PUSH1 0x2 SLOAD SWAP1 MLOAD PUSH1 0x1 PUSH1 0x1 PUSH1 0xA0 SHL SUB SWAP1 SWAP2 AND DUP2 MSTORE PUSH1 0x20 SWAP1 RETURN JUMPDEST DUP4 SWAP2 POP CALLVALUE PUSH2 0x82 JUMPI PUSH1 0x20 DUP1 PUSH1 0x3 NOT CALLDATASIZE ADD SLT PUSH2 0x426 JUMPI DUP2 CALLDATALOAD SWAP2 PUSH2 0x14C DUP4 PUSH2 0x476 JUMP JUMPDEST ISZERO PUSH2 0x3E5 JUMPI DUP4 SLOAD DUP6 MLOAD PUSH4 0x18FEEB15 PUSH1 0xE3 SHL DUP2 MSTORE DUP1 DUP4 ADD DUP6 SWAP1 MSTORE SWAP6 PUSH1 0x24 SWAP4 SWAP1 SWAP3 SWAP2 PUSH1 0x1 PUSH1 0x1 PUSH1 0xA0 SHL SUB SWAP2 SWAP1 DUP8 SWAP1 DUP10 SWAP1 DUP8 SWAP1 DUP3 SWAP1 DUP7 AND GAS STATICCALL SWAP8 DUP9 ISZERO PUSH2 0x3DB JUMPI DUP8 SWAP9 PUSH2 0x2E7 JUMPI JUMPDEST POP PUSH1 0x80 DUP9 ADD MLOAD DUP4 DUP2 LT ISZERO PUSH2 0x2D5 JUMPI PUSH2 0x294 JUMPI POP DUP1 PUSH1 0x2 SLOAD AND SWAP7 DUP4 DUP3 PUSH1 0x60 DUP4 ADD MLOAD AND SWAP2 ADD MLOAD SWAP1 DUP9 EXTCODESIZE ISZERO PUSH2 0x290 JUMPI SWAP1 PUSH1 0x44 DUP9 SWAP3 DUP4 DUP8 MLOAD SWAP12 DUP13 SWAP5 DUP6 SWAP4 PUSH4 0xA9059CBB PUSH1 0xE0 SHL DUP6 MSTORE DUP10 DUP6 ADD MSTORE DUP11 DUP5 ADD MSTORE GAS CALL DUP1 ISZERO PUSH2 0x286 JUMPI PUSH2 0x270 JUMPI JUMPDEST DUP6 DUP1 SWAP8 POP SWAP5 SWAP6 SLOAD AND SWAP1 DUP2 EXTCODESIZE ISZERO PUSH2 0x26C JUMPI PUSH1 0x44 DUP7 SWAP2 DUP7 DUP1 SWAP5 PUSH1 0x3 DUP8 MLOAD SWAP9 DUP10 SWAP7 DUP8 SWAP6 PUSH4 0x32FA5185 PUSH1 0xE2 SHL DUP8 MSTORE DUP7 ADD MSTORE DUP5 ADD MSTORE GAS CALL SWAP1 DUP2 ISZERO PUSH2 0x263 JUMPI POP PUSH2 0x24F JUMPI JUMPDEST POP DUP1 PUSH32 0x712AE1383F79AC853F8D882153778E0260EF8F03B504E2866E0593E04D2B291F SWAP2 LOG2 DUP1 RETURN JUMPDEST PUSH2 0x258 SWAP1 PUSH2 0x42A JUMP JUMPDEST PUSH2 0x82 JUMPI DUP2 DUP4 PUSH2 0x227 JUMP JUMPDEST MLOAD RETURNDATASIZE DUP5 DUP3 RETURNDATACOPY RETURNDATASIZE SWAP1 REVERT JUMPDEST DUP5 DUP1 REVERT JUMPDEST SWAP4 SWAP5 SWAP1 SWAP6 PUSH2 0x27D SWAP1 PUSH2 0x42A JUMP JUMPDEST SWAP4 SWAP3 DUP6 SWAP1 PUSH2 0x1E8 JUMP JUMPDEST DUP4 MLOAD RETURNDATASIZE DUP9 DUP3 RETURNDATACOPY RETURNDATASIZE SWAP1 REVERT JUMPDEST DUP8 DUP1 REVERT JUMPDEST DUP3 PUSH1 0x19 DUP7 PUSH1 0x64 SWAP4 DUP8 MLOAD SWAP4 PUSH3 0x461BCD PUSH1 0xE5 SHL DUP6 MSTORE DUP5 ADD MSTORE DUP3 ADD MSTORE PUSH32 0x457865637574696F6E3A20696E76616C69642073746174757300000000000000 PUSH1 0x44 DUP3 ADD MSTORE REVERT JUMPDEST PUSH4 0x4E487B71 PUSH1 0xE0 SHL DUP9 MSTORE PUSH1 0x21 DUP5 MSTORE DUP6 DUP9 REVERT JUMPDEST SWAP1 SWAP8 POP RETURNDATASIZE DUP1 DUP9 DUP4 RETURNDATACOPY PUSH2 0x2F9 DUP2 DUP4 PUSH2 0x454 JUMP JUMPDEST DUP2 ADD DUP9 DUP3 DUP3 SUB SLT PUSH2 0x290 JUMPI DUP2 MLOAD PUSH8 0xFFFFFFFFFFFFFFFF SWAP3 DUP4 DUP3 GT PUSH2 0x3C1 JUMPI ADD SWAP1 PUSH2 0x100 SWAP3 DUP4 DUP4 DUP4 SUB SLT PUSH2 0x3C1 JUMPI DUP7 MLOAD SWAP4 DUP5 ADD DUP5 DUP2 LT DUP3 DUP3 GT OR PUSH2 0x3C9 JUMPI DUP8 MSTORE DUP3 MLOAD DUP2 DUP2 GT PUSH2 0x3C5 JUMPI DUP3 PUSH2 0x34D SWAP2 DUP6 ADD PUSH2 0x53B JUMP JUMPDEST DUP5 MSTORE DUP11 DUP4 ADD MLOAD SWAP1 DUP2 GT PUSH2 0x3C1 JUMPI SWAP1 PUSH2 0x366 SWAP2 DUP4 ADD PUSH2 0x53B JUMP JUMPDEST DUP10 DUP4 ADD MSTORE DUP5 DUP2 ADD MLOAD DUP6 DUP4 ADD MSTORE PUSH1 0x60 DUP2 ADD MLOAD DUP4 DUP2 AND DUP2 SUB PUSH2 0x3BD JUMPI PUSH1 0x60 DUP4 ADD MSTORE PUSH1 0x80 DUP2 ADD MLOAD DUP5 DUP2 LT ISZERO PUSH2 0x3BD JUMPI SWAP1 PUSH1 0xE0 SWAP2 PUSH1 0x80 DUP5 ADD MSTORE PUSH1 0xA0 DUP2 ADD MLOAD PUSH1 0xA0 DUP5 ADD MSTORE PUSH1 0xC0 DUP2 ADD MLOAD PUSH1 0xC0 DUP5 ADD MSTORE ADD MLOAD PUSH1 0xE0 DUP3 ADD MSTORE SWAP7 DUP9 PUSH2 0x190 JUMP JUMPDEST DUP9 DUP1 REVERT JUMPDEST DUP10 DUP1 REVERT JUMPDEST DUP11 DUP1 REVERT JUMPDEST PUSH4 0x4E487B71 PUSH1 0xE0 SHL DUP12 MSTORE PUSH1 0x41 DUP8 MSTORE DUP9 DUP12 REVERT JUMPDEST DUP5 MLOAD RETURNDATASIZE DUP10 DUP3 RETURNDATACOPY RETURNDATASIZE SWAP1 REVERT JUMPDEST PUSH1 0x64 SWAP2 DUP6 MLOAD SWAP2 PUSH3 0x461BCD PUSH1 0xE5 SHL DUP4 MSTORE DUP3 ADD MSTORE PUSH1 0x1D PUSH1 0x24 DUP3 ADD MSTORE PUSH32 0x457865637574696F6E3A2071756F72756D206E6F742072656163686564000000 PUSH1 0x44 DUP3 ADD MSTORE REVERT JUMPDEST DUP3 DUP1 REVERT JUMPDEST PUSH8 0xFFFFFFFFFFFFFFFF DUP2 GT PUSH2 0x43E JUMPI PUSH1 0x40 MSTORE JUMP JUMPDEST PUSH4 0x4E487B71 PUSH1 0xE0 SHL PUSH1 0x0 MSTORE PUSH1 0x41 PUSH1 0x4 MSTORE PUSH1 0x24 PUSH1 0x0 REVERT JUMPDEST SWAP1 PUSH1 0x1F DUP1 NOT SWAP2 ADD AND DUP2 ADD SWAP1 DUP2 LT PUSH8 0xFFFFFFFFFFFFFFFF DUP3 GT OR PUSH2 0x43E JUMPI PUSH1 0x40 MSTORE JUMP JUMPDEST PUSH1 0x1 DUP1 PUSH1 0xA0 SHL SUB PUSH1 0x1 SLOAD AND PUSH1 0x40 DUP1 SWAP3 PUSH1 0x24 DUP3 MLOAD DUP1 SWAP5 DUP2 SWAP4 PUSH4 0xFF981099 PUSH1 0xE0 SHL DUP4 MSTORE PUSH1 0x4 DUP4 ADD MSTORE GAS STATICCALL SWAP1 DUP2 ISZERO PUSH2 0x530 JUMPI PUSH1 0x0 SWAP3 DUP4 SWAP3 PUSH2 0x4FA JUMPI JUMPDEST POP POP DUP2 ADD DUP1 DUP3 GT PUSH2 0x4DD JUMPI DUP1 ISZERO PUSH2 0x4F3 JUMPI PUSH1 0x64 DUP3 MUL SWAP2 DUP1 DUP4 DIV PUSH1 0x64 EQ SWAP1 ISZERO OR ISZERO PUSH2 0x4DD JUMPI PUSH1 0x3 SLOAD SWAP2 DIV LT ISZERO SWAP1 JUMP JUMPDEST PUSH4 0x4E487B71 PUSH1 0xE0 SHL PUSH1 0x0 MSTORE PUSH1 0x11 PUSH1 0x4 MSTORE PUSH1 0x24 PUSH1 0x0 REVERT JUMPDEST POP POP PUSH1 0x0 SWAP1 JUMP JUMPDEST SWAP1 DUP1 SWAP4 SWAP3 POP DUP2 RETURNDATASIZE DUP4 GT PUSH2 0x529 JUMPI JUMPDEST PUSH2 0x512 DUP2 DUP4 PUSH2 0x454 JUMP JUMPDEST DUP2 ADD SUB SLT PUSH2 0xD7 JUMPI POP PUSH1 0x20 DUP2 MLOAD SWAP2 ADD MLOAD CODESIZE DUP1 PUSH2 0x4AF JUMP JUMPDEST POP RETURNDATASIZE PUSH2 0x508 JUMP JUMPDEST DUP3 MLOAD RETURNDATASIZE PUSH1 0x0 DUP3 RETURNDATACOPY RETURNDATASIZE SWAP1 REVERT JUMPDEST SWAP2 SWAP1 DUP1 PUSH1 0x1F DUP5 ADD SLT ISZERO PUSH2 0x5AC JUMPI DUP3 MLOAD SWAP1 PUSH8 0xFFFFFFFFFFFFFFFF DUP3 GT PUSH2 0x43E JUMPI PUSH1 0x40 MLOAD SWAP2 PUSH1 0x20 SWAP2 PUSH2 0x574 PUSH1 0x1F DUP4 ADD PUSH1 0x1F NOT AND DUP5 ADD DUP6 PUSH2 0x454 JUMP JUMPDEST DUP2 DUP5 MSTORE DUP3 DUP3 DUP8 ADD ADD GT PUSH2 0x5AC JUMPI PUSH1 0x0 JUMPDEST DUP2 DUP2 LT PUSH2 0x599 JUMPI POP DUP3 PUSH1 0x0 SWAP4 SWAP5 SWAP6 POP ADD ADD MSTORE SWAP1 JUMP JUMPDEST DUP6 DUP2 ADD DUP4 ADD MLOAD DUP5 DUP3 ADD DUP5 ADD MSTORE DUP3 ADD PUSH2 0x584 JUMP JUMPDEST PUSH1 0x0 DUP1 REVERT INVALID LOG2 PUSH5 0x6970667358 0x22 SLT KECCAK256 JUMP BYTE PUSH0 ORIGIN PUSH25 0xDF18E7D79172419EC04214F8A4A90BFBE2429E1F18664FDC5C DUP11 0xCF PUSH5 0x736F6C6343 STOP ADDMOD EQ STOP CALLER "},"methodIdentifiers":{"executeProposal(uint256)":"0d61b519","isExecutable(uint256)":"4e395e2a","proposalContract()":"3aef3900","quorumPercent()":"f81cbd26","vaultContract()":"2274346b","votingContract()":"c1fc006a"}}}}}