{"contracts/AutoExecution.sol":{"AutoExecution":{"abi":[{"inputs":[{"internalType":"address","name":"_proposalContract","type":"address"},{"internalType":"address payable","name":"_vaultContract","type":"address"},{"internalType":"address","name":"_governanceToken","type":"address"},{"internalType":"address","name":"admin","type":"address"}],"stateMutability":"nonpayable","type":"constructor"},{"inputs":[],"name":"AccessControlBadConfirmation","type":"error"},{"inputs":[{"internalType":"address","name":"account","type":"address"},{"internalType":"bytes32","name":"neededRole","type":"bytes32"}],"name":"AccessControlUnauthorizedAccount","type":"error"},{"inputs":[],"name":"ReentrancyGuardReentrantCall","type":"error"},{"anonymous":false,"inputs":[{"indexed":true,"internalType":"uint256","name":"proposalId","type":"uint256"},{"indexed":true,"internalType":"address","name":"canceller","type":"address"}],"name":"ExecutionCancelled","type":"event"},{"anonymous":false,"inputs":[{"indexed":true,"internalType":"uint256","name":"proposalId","type":"uint256"},{"indexed":true,"internalType":"address","name":"executor","type":"address"}],"name":"ExecutionExecuted","type":"event"},{"anonymous":false,"inputs":[{"indexed":true,"internalType":"uint256","name":"proposalId","type":"uint256"},{"indexed":false,"internalType":"uint256","name":"scheduledTime","type":"uint256"}],"name":"ExecutionScheduled","type":"event"},{"anonymous":false,"inputs":[{"indexed":false,"internalType":"uint256","name":"requiredSignatures","type":"uint256"},{"indexed":false,"internalType":"uint256","name":"executionDelay","type":"uint256"}],"name":"MultiSigConfigUpdated","type":"event"},{"anonymous":false,"inputs":[{"indexed":true,"internalType":"uint256","name":"proposalId","type":"uint256"},{"indexed":true,"internalType":"address","name":"signer","type":"address"}],"name":"MultiSigSignatureAdded","type":"event"},{"anonymous":false,"inputs":[{"indexed":true,"internalType":"bytes32","name":"role","type":"bytes32"},{"indexed":true,"internalType":"bytes32","name":"previousAdminRole","type":"bytes32"},{"indexed":true,"internalType":"bytes32","name":"newAdminRole","type":"bytes32"}],"name":"RoleAdminChanged","type":"event"},{"anonymous":false,"inputs":[{"indexed":true,"internalType":"bytes32","name":"role","type":"bytes32"},{"indexed":true,"internalType":"address","name":"account","type":"address"},{"indexed":true,"internalType":"address","name":"sender","type":"address"}],"name":"RoleGranted","type":"event"},{"anonymous":false,"inputs":[{"indexed":true,"internalType":"bytes32","name":"role","type":"bytes32"},{"indexed":true,"internalType":"address","name":"account","type":"address"},{"indexed":true,"internalType":"address","name":"sender","type":"address"}],"name":"RoleRevoked","type":"event"},{"inputs":[],"name":"DEFAULT_ADMIN_ROLE","outputs":[{"internalType":"bytes32","name":"","type":"bytes32"}],"stateMutability":"view","type":"function"},{"inputs":[],"name":"EMERGENCY_ROLE","outputs":[{"internalType":"bytes32","name":"","type":"bytes32"}],"stateMutability":"view","type":"function"},{"inputs":[],"name":"EXECUTOR_ROLE","outputs":[{"internalType":"bytes32","name":"","type":"bytes32"}],"stateMutability":"view","type":"function"},{"inputs":[],"name":"MAX_EXECUTION_DELAY","outputs":[{"internalType":"uint256","name":"","type":"uint256"}],"stateMutability":"view","type":"function"},{"inputs":[],"name":"MIN_EXECUTION_DELAY","outputs":[{"internalType":"uint256","name":"","type":"uint256"}],"stateMutability":"view","type":"function"},{"inputs":[{"internalType":"address","name":"signer","type":"address"}],"name":"addMultiSigSigner","outputs":[],"stateMutability":"nonpayable","type":"function"},{"inputs":[{"internalType":"uint256","name":"proposalId","type":"uint256"}],"name":"addSignature","outputs":[],"stateMutability":"nonpayable","type":"function"},{"inputs":[{"internalType":"uint256","name":"proposalId","type":"uint256"}],"name":"cancelExecution","outputs":[],"stateMutability":"nonpayable","type":"function"},{"inputs":[{"internalType":"uint256","name":"proposalId","type":"uint256"}],"name":"emergencyExecute","outputs":[],"stateMutability":"nonpayable","type":"function"},{"inputs":[],"name":"executeScheduledProposals","outputs":[],"stateMutability":"nonpayable","type":"function"},{"inputs":[{"internalType":"uint256","name":"","type":"uint256"}],"name":"executionQueue","outputs":[{"internalType":"uint256","name":"proposalId","type":"uint256"},{"internalType":"uint256","name":"scheduledTime","type":"uint256"},{"internalType":"bool","name":"isExecuted","type":"bool"},{"internalType":"address","name":"executor","type":"address"}],"stateMutability":"view","type":"function"},{"inputs":[{"internalType":"uint256","name":"index","type":"uint256"}],"name":"getExecutionQueue","outputs":[{"components":[{"internalType":"uint256","name":"proposalId","type":"uint256"},{"internalType":"uint256","name":"scheduledTime","type":"uint256"},{"internalType":"bool","name":"isExecuted","type":"bool"},{"internalType":"address","name":"executor","type":"address"}],"internalType":"struct AutoExecution.ExecutionQueue","name":"","type":"tuple"}],"stateMutability":"view","type":"function"},{"inputs":[],"name":"getMultiSigConfig","outputs":[{"internalType":"uint256","name":"requiredSignatures","type":"uint256"},{"internalType":"uint256","name":"executionDelay","type":"uint256"}],"stateMutability":"view","type":"function"},{"inputs":[{"internalType":"uint256","name":"proposalId","type":"uint256"}],"name":"getProposalSignatures","outputs":[{"internalType":"uint256","name":"","type":"uint256"}],"stateMutability":"view","type":"function"},{"inputs":[{"internalType":"bytes32","name":"role","type":"bytes32"}],"name":"getRoleAdmin","outputs":[{"internalType":"bytes32","name":"","type":"bytes32"}],"stateMutability":"view","type":"function"},{"inputs":[],"name":"governanceToken","outputs":[{"internalType":"contract GovernanceToken","name":"","type":"address"}],"stateMutability":"view","type":"function"},{"inputs":[{"internalType":"bytes32","name":"role","type":"bytes32"},{"internalType":"address","name":"account","type":"address"}],"name":"grantRole","outputs":[],"stateMutability":"nonpayable","type":"function"},{"inputs":[{"internalType":"bytes32","name":"role","type":"bytes32"},{"internalType":"address","name":"account","type":"address"}],"name":"hasRole","outputs":[{"internalType":"bool","name":"","type":"bool"}],"stateMutability":"view","type":"function"},{"inputs":[{"internalType":"uint256","name":"proposalId","type":"uint256"}],"name":"isExecutable","outputs":[{"internalType":"bool","name":"","type":"bool"}],"stateMutability":"view","type":"function"},{"inputs":[{"internalType":"address","name":"signer","type":"address"}],"name":"isSigner","outputs":[{"internalType":"bool","name":"","type":"bool"}],"stateMutability":"view","type":"function"},{"inputs":[],"name":"multiSigConfig","outputs":[{"internalType":"uint256","name":"requiredSignatures","type":"uint256"},{"internalType":"uint256","name":"executionDelay","type":"uint256"}],"stateMutability":"view","type":"function"},{"inputs":[],"name":"proposalContract","outputs":[{"internalType":"contract EnhancedProposal","name":"","type":"address"}],"stateMutability":"view","type":"function"},{"inputs":[{"internalType":"uint256","name":"","type":"uint256"}],"name":"proposalSignatureCount","outputs":[{"internalType":"uint256","name":"","type":"uint256"}],"stateMutability":"view","type":"function"},{"inputs":[{"internalType":"uint256","name":"","type":"uint256"},{"internalType":"address","name":"","type":"address"}],"name":"proposalSignatures","outputs":[{"internalType":"bool","name":"","type":"bool"}],"stateMutability":"view","type":"function"},{"inputs":[],"name":"queueCount","outputs":[{"internalType":"uint256","name":"","type":"uint256"}],"stateMutability":"view","type":"function"},{"inputs":[{"internalType":"address","name":"signer","type":"address"}],"name":"removeMultiSigSigner","outputs":[],"stateMutability":"nonpayable","type":"function"},{"inputs":[{"internalType":"bytes32","name":"role","type":"bytes32"},{"internalType":"address","name":"callerConfirmation","type":"address"}],"name":"renounceRole","outputs":[],"stateMutability":"nonpayable","type":"function"},{"inputs":[{"internalType":"bytes32","name":"role","type":"bytes32"},{"internalType":"address","name":"account","type":"address"}],"name":"revokeRole","outputs":[],"stateMutability":"nonpayable","type":"function"},{"inputs":[{"internalType":"uint256","name":"proposalId","type":"uint256"},{"internalType":"uint256","name":"delay","type":"uint256"}],"name":"scheduleExecution","outputs":[],"stateMutability":"nonpayable","type":"function"},{"inputs":[{"internalType":"bytes4","name":"interfaceId","type":"bytes4"}],"name":"supportsInterface","outputs":[{"internalType":"bool","name":"","type":"bool"}],"stateMutability":"view","type":"function"},{"inputs":[{"internalType":"uint256","name":"requiredSignatures","type":"uint256"},{"internalType":"uint256","name":"executionDelay","type":"uint256"}],"name":"updateMultiSigConfig","outputs":[],"stateMutability":"nonpayable","type":"function"},{"inputs":[],"name":"vaultContract","outputs":[{"internalType":"contract Vault","name":"","type":"address"}],"stateMutability":"view","type":"function"}],"evm":{"bytecode":{"linkReferences":{},"object":"6080346200010b57601f62001b3838819003918201601f19168301916001600160401b0383118484101762000110578084926080946040528339810103126200010b576200004d8162000126565b60208201516001600160a01b039283821692918390036200010b57806200008660606200007e604088950162000126565b920162000126565b93600180558260018060a01b0319941684600254161760025583600354161760035516906004541617600455620000bd816200013b565b50620000c981620001bb565b50620000d5816200025d565b5060026008556201518060095516600052600a6020526040600020600160ff1982541617905560405161181d9081620002fb8239f35b600080fd5b634e487b7160e01b600052604160045260246000fd5b51906001600160a01b03821682036200010b57565b6001600160a01b031660008181527fad3228b676f7d3cd4284a5443f17f1962b36e491b30a40b2405849e597ba5fb5602052604081205490919060ff16620001b757818052816020526040822081835260205260408220600160ff19825416179055339160008051602062001b188339815191528180a4600190565b5090565b6001600160a01b031660008181527fdae2aa361dfd1ca020a396615627d436107c35eff9fe7738a3512819782d706960205260408120549091907fd8aa0f3194971a2a116679f7c2090f6939c8d4e01a2a8d7e41d55e5351469e639060ff166200025857808352826020526040832082845260205260408320600160ff1982541617905560008051602062001b18833981519152339380a4600190565b505090565b6001600160a01b031660008181527f3c1b1854ab1360abbb06c8d4c6b2672d4b8cedc5eff522ab19e51d5cb8fdbd4660205260408120549091907fbf233dd2aafeb4d50879c4aa5c81e96d92f6e6945c906a58f9f2d1c1631b4b269060ff166200025857808352826020526040832082845260205260408320600160ff1982541617905560008051602062001b18833981519152339380a460019056fe6080604081815260048036101561001557600080fd5b600092833560e01c90816301ffc9a714610d645750806307bd026514610d295780630faaa3c814610cd457806316f2d7c0146105835780631a3dd6531461070e5780631f55f75314610c9157806320df435914610c565780632274346b14610c2d578063248a9ca314610c045780632f2ff15d14610bdb5780632f8d0cd0146109b9578063307d5c5d1461091d57806336568abe146108d65780633aef3900146108ad5780633c3453351461075f5780634e395e2a14610736578063568d9c2e1461070e5780637df73e27146106d057806391d148541461068b5780639ef36bd11461066c578063a217fddf14610651578063a2d8a997146105aa578063a3fe6cb814610583578063b6877b7914610543578063bc03d28014610525578063bcbde21214610508578063c78682b71461047f578063d547741f14610441578063dcf24fb114610374578063e8d9510a146101f3578063f96dae0a146101cc5763fdf6b9111461018357600080fd5b346101c857816003193601126101c8578160209360ff926101a2610dd3565b90358252600686528282206001600160a01b039091168252855220549151911615158152f35b8280fd5b50346101c857826003193601126101c8575490516001600160a01b03909116815260209150f35b50919034610370576020366003190112610370578235907fbf233dd2aafeb4d50879c4aa5c81e96d92f6e6945c906a58f9f2d1c1631b4b268084528360205281842033855260205260ff828520541615610352575060249061025361129e565b60025481516318feeb1560e31b815286810185905292859184919082906001600160a01b03165afa918215610348578492610324575b50610180820151156102d4575060a001519260078410156102c157506102b560026102ba939414611215565b61134d565b6001805580f35b634e487b7160e01b835260219052602482fd5b5162461bcd60e51b8152602081860152602560248201527f4175746f457865637574696f6e3a206e6f7420656d657267656e63792070726f6044820152641c1bdcd85b60da1b6064820152608490fd5b6103419192503d8086833e610339818361104e565b8101906110ee565b9038610289565b81513d86823e3d90fd5b905163e2517d3f60e01b815233818601526024810191909152604490fd5b5080fd5b509190346103705761038536610de9565b9361038e610dff565b81156103eb5750836103c6610e107f7f40c2fd33df3c3cc0624908bc87b6a333ba84d7678ed839f9f57b4306b128dd95961015610f70565b6103d562093a80821115610fbc565b816008558060095582519182526020820152a180f35b608490602084519162461bcd60e51b8352820152602a60248201527f4175746f457865637574696f6e3a20696e76616c6964207265717569726564206044820152697369676e61747572657360b01b6064820152fd5b5090346101c857806003193601126101c85761047b91356104766001610465610dd3565b938387528660205286200154610e57565b610efb565b5080f35b50503461037057816003193601126103705761049961129e565b815b600b5481101561050057806104d19184526005602052828420600281019060ff82541615806104f2575b6104d6575b505061128f565b61049b565b6104e0905461134d565b805460ff1916600117905538806104ca565b5060018101544210156104c5565b826001805580f35b50503461037057816003193601126103705760209051610e108152f35b5050346103705781600319360112610370576020905162093a808152f35b5050346103705760203660031901126103705761055e610db8565b610566610dff565b6001600160a01b03168252600a6020528120805460ff1916905580f35b50346101c85760203660031901126101c85760209282913581526007845220549051908152f35b5090346101c8576020918260031936011261064d5735906105c9610dff565b835b600b5481101561064657808552600584528185208381541480610637575b6105fc57506105f79061128f565b6105cb565b600201805460ff19166001179055503392507fb3561580f18bc98b1b1bc1bc05c5da8eaf05dc833173eb5924b7eec2a3cc50f990508380a380f35b5060ff600282015416156105e9565b5050505080f35b8380fd5b50503461037057816003193601126103705751908152602090f35b505034610370578160031936011261037057602090600b549051908152f35b50346101c857816003193601126101c8578160209360ff926106ab610dd3565b903582528186528282206001600160a01b039091168252855220549151911615158152f35b5050346103705760203660031901126103705760209160ff9082906001600160a01b036106fb610db8565b168152600a855220541690519015158152f35b8284346107335780600319360112610733575060085460095482519182526020820152f35b80fd5b509134610733576020366003190112610733575061075660209235611691565b90519015158152f35b5090346101c85760208060031936011261064d57823592338552600a825260ff8386205416156108605783855260068252828520338652825260ff838620541661081f5750600790838552600681528285203386528152828520600160ff198254161790558385528181528285206107d7815461128f565b905533847ff85734e96c43975e5e4ac2dc156acb47126a8a56e5b1963e6d5e78b3f39e1c3f8780a3838552528220546008541115610813575080f35b61081c9061134d565b80f35b915162461bcd60e51b815291820152601d60248201527f4175746f457865637574696f6e3a20616c7265616479207369676e65640000006044820152606490fd5b915162461bcd60e51b8152918201526024808201527f4175746f457865637574696f6e3a206e6f7420617574686f72697a656420736960448201526333b732b960e11b6064820152608490fd5b50503461037057816003193601126103705760025490516001600160a01b039091168152602090f35b509190346103705780600319360112610370576108f1610dd3565b90336001600160a01b0383160361090e575061047b919235610efb565b5163334bd91960e11b81528390fd5b50346101c85760203660031901126101c8578282916080946060845161094281611008565b8281528260208201528286820152015235815260056020522081519061096782611008565b80549283835260026001830154926020850193845201549260608282019160ff861615158352019260018060a01b03809560081c16845282519586525160208601525115159084015251166060820152f35b50346101c8576109c836610de9565b7fd8aa0f3194971a2a116679f7c2090f6939c8d4e01a2a8d7e41d55e5351469e6393919392838652602093868552838720338852855260ff848820541615610bbe5750610a1361129e565b60025483516318feeb1560e31b8152828101879052908790829060249082906001600160a01b03165afa908115610bb4578791610b9a575b5060a08101516007811015610b875790610a6a60026101209314611215565b01514210610b44575090610abd82610aa8610e107fb955d14fc889e8b8eb0ae7dd49e70e8e9982b7eb46e72f4b74917c8581fff7e696951015610f70565b610ab762093a80821115610fbc565b4261126c565b908051610ac981611008565b8581528381018381526002838301928984526060810192338452600b548b5260058852858b209151825551600182015501915115159060ff835491610100600160a81b03905160081b169216906affffffffffffffffffffff60a81b161717905551908152a2610b3a600b5461128f565b600b556001805580f35b825162461bcd60e51b8152908101849052601f60248201527f4175746f457865637574696f6e3a20766f74696e67206e6f7420656e646564006044820152606490fd5b634e487b7160e01b885260218352602488fd5b610bae91503d8089833e610339818361104e565b38610a4b565b84513d89823e3d90fd5b6044925083519163e2517d3f60e01b835233908301526024820152fd5b5090346101c857806003193601126101c85761047b9135610bff6001610465610dd3565b610e7d565b50346101c85760203660031901126101c857816020936001923581528085522001549051908152f35b50503461037057816003193601126103705760035490516001600160a01b039091168152602090f35b505034610370578160031936011261037057602090517fbf233dd2aafeb4d50879c4aa5c81e96d92f6e6945c906a58f9f2d1c1631b4b268152f35b50503461037057602036600319011261037057610cac610db8565b610cb4610dff565b6001600160a01b03168252600a6020528120805460ff1916600117905580f35b50346101c85760203660031901126101c857608092829135815260056020522080549160026001830154920154918151938452602084015260ff821615159083015260018060a01b039060081c166060820152f35b505034610370578160031936011261037057602090517fd8aa0f3194971a2a116679f7c2090f6939c8d4e01a2a8d7e41d55e5351469e638152f35b925050346101c85760203660031901126101c8573563ffffffff60e01b81168091036101c85760209250637965db0b60e01b8114908115610da7575b5015158152f35b6301ffc9a760e01b14905038610da0565b600435906001600160a01b0382168203610dce57565b600080fd5b602435906001600160a01b0382168203610dce57565b6040906003190112610dce576004359060243590565b3360009081527fad3228b676f7d3cd4284a5443f17f1962b36e491b30a40b2405849e597ba5fb5602052604081205460ff1615610e395750565b6044906040519063e2517d3f60e01b82523360048301526024820152fd5b80600052600060205260406000203360005260205260ff6040600020541615610e395750565b9060009180835282602052604083209160018060a01b03169182845260205260ff60408420541615600014610ef657808352826020526040832082845260205260408320600160ff198254161790557f2f8788117e7eff1d82e926ec794901d17c78024a50270940304540a733656f0d339380a4600190565b505090565b9060009180835282602052604083209160018060a01b03169182845260205260ff604084205416600014610ef65780835282602052604083208284526020526040832060ff1981541690557ff6391f5c32d9c69d2a47ea670b442974b53935d1edc7fd64eb21e047a839171b339380a4600190565b15610f7757565b60405162461bcd60e51b815260206004820152601e60248201527f4175746f457865637574696f6e3a2064656c617920746f6f2073686f727400006044820152606490fd5b15610fc357565b60405162461bcd60e51b815260206004820152601d60248201527f4175746f457865637574696f6e3a2064656c617920746f6f206c6f6e670000006044820152606490fd5b6080810190811067ffffffffffffffff82111761102457604052565b634e487b7160e01b600052604160045260246000fd5b67ffffffffffffffff811161102457604052565b90601f8019910116810190811067ffffffffffffffff82111761102457604052565b919080601f84011215610dce5782519067ffffffffffffffff821161102457604051916020916110a9601f8301601f191684018561104e565b818452828287010111610dce5760005b8181106110ce57508260009394955001015290565b85810183015184820184015282016110b9565b51908115158203610dce57565b602081830312610dce57805167ffffffffffffffff91828211610dce5701906101c0928383820312610dce5760405193840184811083821117611024576040528251828111610dce5781611143918501611070565b84526020830151918211610dce5761115c918301611070565b60208301526040818101519083015260608101516001600160a01b03908181168103610dce57606084015260808201516005811015610dce57608084015260a08201516007811015610dce5760a084015260c082015160c084015260e082015160e084015261010080830151908401526101208083015190840152610140808301519182168203610dce5783015261016080820151908301526101806112038183016110e1565b908301526101a0809101519082015290565b1561121c57565b60405162461bcd60e51b815260206004820152602260248201527f4175746f457865637574696f6e3a2070726f706f73616c206e6f742070617373604482015261195960f21b6064820152608490fd5b9190820180921161127957565b634e487b7160e01b600052601160045260246000fd5b60001981146112795760010190565b6002600154146112af576002600155565b604051633ee5aeb560e01b8152600490fd5b81156112cb570490565b634e487b7160e01b600052601260045260246000fd5b90816080910312610dce5761131c6060604051926112fe84611008565b805184526020810151602085015260408101516040850152016110e1565b606082015290565b9190602083019260058210156113375752565b634e487b7160e01b600052602160045260246000fd5b600254604080516318feeb1560e31b81526004808201859052919491936024936000926001600160a01b0391821684828881845afa91821561168757859261166b575b5060a082015160078110156116595760026113ab9114611215565b60c08201805160e08401908151101561160a57815190516113cb9161126c565b90516064810290808204606414901517156115f857906113ea916112c1565b9060808301519060058210156115e65761141b916080918b8d5180958194829363084b060160e01b84528301611324565b03915afa9081156115dc579060209187916115ae575b5001511161156257816003541690888360608301511691015191803b1561154b57906044898780948d51968795869463a9059cbb60e01b86528501528c8401525af1908161154f575b506114c157865162461bcd60e51b8152602081880152601e818701527f4175746f457865637574696f6e3a207472616e73666572206661696c656400006044820152606490fd5b600296929591949396541692833b1561154b57906044869283855196879485936332fa518560e21b85528a828601528401525af1908115611542575090839161152e575b50507f6de04e7e88d1ae6758aee584436259c87078a026a033ca9b79411d119d985f52339280a3565b6115379061103a565b610370578138611505565b513d85823e3d90fd5b8580fd5b61155b9094919461103a565b923861147a565b875162461bcd60e51b81526020818901526021818801527f4175746f457865637574696f6e3a2071756f72756d206e6f74207265616368656044820152601960fa1b6064820152608490fd5b6115cf915060803d81116115d5575b6115c7818361104e565b8101906112e1565b38611431565b503d6115bd565b8a513d88823e3d90fd5b634e487b7160e01b875260218a528887fd5b634e487b7160e01b875260118a528887fd5b8a5162461bcd60e51b81526020818c0152808a018a90527f4175746f457865637574696f6e3a2070726f706f73616c206e6f7420617070726044820152631bdd995960e21b6064820152608490fd5b634e487b7160e01b8652602189528786fd5b6116809192503d8087833e610339818361104e565b9038611390565b89513d87823e3d90fd5b6002546040516318feeb1560e31b8152600481019290925260009291906001600160a01b03168382602481845afa91821561178d5784926117cb575b5060a08201516007811015611798576002036117c75760c08201805160e084015190818111156117c057906117019161126c565b90516064810290808204606414901517156117ac57608091611722916112c1565b9201519060058210156117985761175191608091604051808095819463084b060160e01b835260048301611324565b03915afa90811561178d5760209293949161176f575b500151111590565b611787915060803d81116115d5576115c7818361104e565b38611767565b6040513d86823e3d90fd5b634e487b7160e01b85526021600452602485fd5b634e487b7160e01b86526011600452602486fd5b5050505050565b5050565b6117e09192503d8086833e610339818361104e565b90386116cd56fea26469706673582212204ffc985a4e7f052beba61bb9d249747558230cb3f9547d55f6ccb56ba3b1d80f64736f6c634300081400332f8788117e7eff1d82e926ec794901d17c78024a50270940304540a733656f0d","opcodes":"PUSH1 0x80 CALLVALUE PUSH3 0x10B JUMPI PUSH1 0x1F PUSH3 0x1B38 CODESIZE DUP2 SWAP1 SUB SWAP2 DUP3 ADD PUSH1 0x1F NOT AND DUP4 ADD SWAP2 PUSH1 0x1 PUSH1 0x1 PUSH1 0x40 SHL SUB DUP4 GT DUP5 DUP5 LT OR PUSH3 0x110 JUMPI DUP1 DUP5 SWAP3 PUSH1 0x80 SWAP5 PUSH1 0x40 MSTORE DUP4 CODECOPY DUP2 ADD SUB SLT PUSH3 0x10B JUMPI PUSH3 0x4D DUP2 PUSH3 0x126 JUMP JUMPDEST PUSH1 0x20 DUP3 ADD MLOAD PUSH1 0x1 PUSH1 0x1 PUSH1 0xA0 SHL SUB SWAP3 DUP4 DUP3 AND SWAP3 SWAP2 DUP4 SWAP1 SUB PUSH3 0x10B JUMPI DUP1 PUSH3 0x86 PUSH1 0x60 PUSH3 0x7E PUSH1 0x40 DUP9 SWAP6 ADD PUSH3 0x126 JUMP JUMPDEST SWAP3 ADD PUSH3 0x126 JUMP JUMPDEST SWAP4 PUSH1 0x1 DUP1 SSTORE DUP3 PUSH1 0x1 DUP1 PUSH1 0xA0 SHL SUB NOT SWAP5 AND DUP5 PUSH1 0x2 SLOAD AND OR PUSH1 0x2 SSTORE DUP4 PUSH1 0x3 SLOAD AND OR PUSH1 0x3 SSTORE AND SWAP1 PUSH1 0x4 SLOAD AND OR PUSH1 0x4 SSTORE PUSH3 0xBD DUP2 PUSH3 0x13B JUMP JUMPDEST POP PUSH3 0xC9 DUP2 PUSH3 0x1BB JUMP JUMPDEST POP PUSH3 0xD5 DUP2 PUSH3 0x25D JUMP JUMPDEST POP PUSH1 0x2 PUSH1 0x8 SSTORE PUSH3 0x15180 PUSH1 0x9 SSTORE AND PUSH1 0x0 MSTORE PUSH1 0xA PUSH1 0x20 MSTORE PUSH1 0x40 PUSH1 0x0 KECCAK256 PUSH1 0x1 PUSH1 0xFF NOT DUP3 SLOAD AND OR SWAP1 SSTORE PUSH1 0x40 MLOAD PUSH2 0x181D SWAP1 DUP2 PUSH3 0x2FB DUP3 CODECOPY RETURN JUMPDEST PUSH1 0x0 DUP1 REVERT JUMPDEST PUSH4 0x4E487B71 PUSH1 0xE0 SHL PUSH1 0x0 MSTORE PUSH1 0x41 PUSH1 0x4 MSTORE PUSH1 0x24 PUSH1 0x0 REVERT JUMPDEST MLOAD SWAP1 PUSH1 0x1 PUSH1 0x1 PUSH1 0xA0 SHL SUB DUP3 AND DUP3 SUB PUSH3 0x10B JUMPI JUMP JUMPDEST PUSH1 0x1 PUSH1 0x1 PUSH1 0xA0 SHL SUB AND PUSH1 0x0 DUP2 DUP2 MSTORE PUSH32 0xAD3228B676F7D3CD4284A5443F17F1962B36E491B30A40B2405849E597BA5FB5 PUSH1 0x20 MSTORE PUSH1 0x40 DUP2 KECCAK256 SLOAD SWAP1 SWAP2 SWAP1 PUSH1 0xFF AND PUSH3 0x1B7 JUMPI DUP2 DUP1 MSTORE DUP2 PUSH1 0x20 MSTORE PUSH1 0x40 DUP3 KECCAK256 DUP2 DUP4 MSTORE PUSH1 0x20 MSTORE PUSH1 0x40 DUP3 KECCAK256 PUSH1 0x1 PUSH1 0xFF NOT DUP3 SLOAD AND OR SWAP1 SSTORE CALLER SWAP2 PUSH1 0x0 DUP1 MLOAD PUSH1 0x20 PUSH3 0x1B18 DUP4 CODECOPY DUP2 MLOAD SWAP2 MSTORE DUP2 DUP1 LOG4 PUSH1 0x1 SWAP1 JUMP JUMPDEST POP SWAP1 JUMP JUMPDEST PUSH1 0x1 PUSH1 0x1 PUSH1 0xA0 SHL SUB AND PUSH1 0x0 DUP2 DUP2 MSTORE PUSH32 0xDAE2AA361DFD1CA020A396615627D436107C35EFF9FE7738A3512819782D7069 PUSH1 0x20 MSTORE PUSH1 0x40 DUP2 KECCAK256 SLOAD SWAP1 SWAP2 SWAP1 PUSH32 0xD8AA0F3194971A2A116679F7C2090F6939C8D4E01A2A8D7E41D55E5351469E63 SWAP1 PUSH1 0xFF AND PUSH3 0x258 JUMPI DUP1 DUP4 MSTORE DUP3 PUSH1 0x20 MSTORE PUSH1 0x40 DUP4 KECCAK256 DUP3 DUP5 MSTORE PUSH1 0x20 MSTORE PUSH1 0x40 DUP4 KECCAK256 PUSH1 0x1 PUSH1 0xFF NOT DUP3 SLOAD AND OR SWAP1 SSTORE PUSH1 0x0 DUP1 MLOAD PUSH1 0x20 PUSH3 0x1B18 DUP4 CODECOPY DUP2 MLOAD SWAP2 MSTORE CALLER SWAP4 DUP1 LOG4 PUSH1 0x1 SWAP1 JUMP JUMPDEST POP POP SWAP1 JUMP JUMPDEST PUSH1 0x1 PUSH1 0x1 PUSH1 0xA0 SHL SUB AND PUSH1 0x0 DUP2 DUP2 MSTORE PUSH32 0x3C1B1854AB1360ABBB06C8D4C6B2672D4B8CEDC5EFF522AB19E51D5CB8FDBD46 PUSH1 0x20 MSTORE PUSH1 0x40 DUP2 KECCAK256 SLOAD SWAP1 SWAP2 SWAP1 PUSH32 0xBF233DD2AAFEB4D50879C4AA5C81E96D92F6E6945C906A58F9F2D1C1631B4B26 SWAP1 PUSH1 0xFF AND PUSH3 0x258 JUMPI DUP1 DUP4 MSTORE DUP3 PUSH1 0x20 MSTORE PUSH1 0x40 DUP4 KECCAK256 DUP3 DUP5 MSTORE PUSH1 0x20 MSTORE PUSH1 0x40 DUP4 KECCAK256 PUSH1 0x1 PUSH1 0xFF NOT DUP3 SLOAD AND OR SWAP1 SSTORE PUSH1 0x0 DUP1 MLOAD PUSH1 0x20 PUSH3 0x1B18 DUP4 CODECOPY DUP2 MLOAD SWAP2 MSTORE CALLER SWAP4 DUP1 LOG4 PUSH1 0x1 SWAP1 JUMP INVALID PUSH1 0x80 PUSH1 0x40 DUP2 DUP2 MSTORE PUSH1 0x4 DUP1 CALLDATASIZE LT ISZERO PUSH2 0x15 JUMPI PUSH1 0x0 DUP1 REVERT JUMPDEST PUSH1 0x0 SWAP3 DUP4 CALLDATALOAD PUSH1 0xE0 SHR SWAP1 DUP2 PUSH4 0x1FFC9A7 EQ PUSH2 0xD64 JUMPI POP DUP1 PUSH4 0x7BD0265 EQ PUSH2 0xD29 JUMPI DUP1 PUSH4 0xFAAA3C8 EQ PUSH2 0xCD4 JUMPI DUP1 PUSH4 0x16F2D7C0 EQ PUSH2 0x583 JUMPI DUP1 PUSH4 0x1A3DD653 EQ PUSH2 0x70E JUMPI DUP1 PUSH4 0x1F55F753 EQ PUSH2 0xC91 JUMPI DUP1 PUSH4 0x20DF4359 EQ PUSH2 0xC56 JUMPI DUP1 PUSH4 0x2274346B EQ PUSH2 0xC2D JUMPI DUP1 PUSH4 0x248A9CA3 EQ PUSH2 0xC04 JUMPI DUP1 PUSH4 0x2F2FF15D EQ PUSH2 0xBDB JUMPI DUP1 PUSH4 0x2F8D0CD0 EQ PUSH2 0x9B9 JUMPI DUP1 PUSH4 0x307D5C5D EQ PUSH2 0x91D JUMPI DUP1 PUSH4 0x36568ABE EQ PUSH2 0x8D6 JUMPI DUP1 PUSH4 0x3AEF3900 EQ PUSH2 0x8AD JUMPI DUP1 PUSH4 0x3C345335 EQ PUSH2 0x75F JUMPI DUP1 PUSH4 0x4E395E2A EQ PUSH2 0x736 JUMPI DUP1 PUSH4 0x568D9C2E EQ PUSH2 0x70E JUMPI DUP1 PUSH4 0x7DF73E27 EQ PUSH2 0x6D0 JUMPI DUP1 PUSH4 0x91D14854 EQ PUSH2 0x68B JUMPI DUP1 PUSH4 0x9EF36BD1 EQ PUSH2 0x66C JUMPI DUP1 PUSH4 0xA217FDDF EQ PUSH2 0x651 JUMPI DUP1 PUSH4 0xA2D8A997 EQ PUSH2 0x5AA JUMPI DUP1 PUSH4 0xA3FE6CB8 EQ PUSH2 0x583 JUMPI DUP1 PUSH4 0xB6877B79 EQ PUSH2 0x543 JUMPI DUP1 PUSH4 0xBC03D280 EQ PUSH2 0x525 JUMPI DUP1 PUSH4 0xBCBDE212 EQ PUSH2 0x508 JUMPI DUP1 PUSH4 0xC78682B7 EQ PUSH2 0x47F JUMPI DUP1 PUSH4 0xD547741F EQ PUSH2 0x441 JUMPI DUP1 PUSH4 0xDCF24FB1 EQ PUSH2 0x374 JUMPI DUP1 PUSH4 0xE8D9510A EQ PUSH2 0x1F3 JUMPI DUP1 PUSH4 0xF96DAE0A EQ PUSH2 0x1CC JUMPI PUSH4 0xFDF6B911 EQ PUSH2 0x183 JUMPI PUSH1 0x0 DUP1 REVERT JUMPDEST CALLVALUE PUSH2 0x1C8 JUMPI DUP2 PUSH1 0x3 NOT CALLDATASIZE ADD SLT PUSH2 0x1C8 JUMPI DUP2 PUSH1 0x20 SWAP4 PUSH1 0xFF SWAP3 PUSH2 0x1A2 PUSH2 0xDD3 JUMP JUMPDEST SWAP1 CALLDATALOAD DUP3 MSTORE PUSH1 0x6 DUP7 MSTORE DUP3 DUP3 KECCAK256 PUSH1 0x1 PUSH1 0x1 PUSH1 0xA0 SHL SUB SWAP1 SWAP2 AND DUP3 MSTORE DUP6 MSTORE KECCAK256 SLOAD SWAP2 MLOAD SWAP2 AND ISZERO ISZERO DUP2 MSTORE RETURN JUMPDEST DUP3 DUP1 REVERT JUMPDEST POP CALLVALUE PUSH2 0x1C8 JUMPI DUP3 PUSH1 0x3 NOT CALLDATASIZE ADD SLT PUSH2 0x1C8 JUMPI SLOAD SWAP1 MLOAD PUSH1 0x1 PUSH1 0x1 PUSH1 0xA0 SHL SUB SWAP1 SWAP2 AND DUP2 MSTORE PUSH1 0x20 SWAP2 POP RETURN JUMPDEST POP SWAP2 SWAP1 CALLVALUE PUSH2 0x370 JUMPI PUSH1 0x20 CALLDATASIZE PUSH1 0x3 NOT ADD SLT PUSH2 0x370 JUMPI DUP3 CALLDATALOAD SWAP1 PUSH32 0xBF233DD2AAFEB4D50879C4AA5C81E96D92F6E6945C906A58F9F2D1C1631B4B26 DUP1 DUP5 MSTORE DUP4 PUSH1 0x20 MSTORE DUP2 DUP5 KECCAK256 CALLER DUP6 MSTORE PUSH1 0x20 MSTORE PUSH1 0xFF DUP3 DUP6 KECCAK256 SLOAD AND ISZERO PUSH2 0x352 JUMPI POP PUSH1 0x24 SWAP1 PUSH2 0x253 PUSH2 0x129E JUMP JUMPDEST PUSH1 0x2 SLOAD DUP2 MLOAD PUSH4 0x18FEEB15 PUSH1 0xE3 SHL DUP2 MSTORE DUP7 DUP2 ADD DUP6 SWAP1 MSTORE SWAP3 DUP6 SWAP2 DUP5 SWAP2 SWAP1 DUP3 SWAP1 PUSH1 0x1 PUSH1 0x1 PUSH1 0xA0 SHL SUB AND GAS STATICCALL SWAP2 DUP3 ISZERO PUSH2 0x348 JUMPI DUP5 SWAP3 PUSH2 0x324 JUMPI JUMPDEST POP PUSH2 0x180 DUP3 ADD MLOAD ISZERO PUSH2 0x2D4 JUMPI POP PUSH1 0xA0 ADD MLOAD SWAP3 PUSH1 0x7 DUP5 LT ISZERO PUSH2 0x2C1 JUMPI POP PUSH2 0x2B5 PUSH1 0x2 PUSH2 0x2BA SWAP4 SWAP5 EQ PUSH2 0x1215 JUMP JUMPDEST PUSH2 0x134D JUMP JUMPDEST PUSH1 0x1 DUP1 SSTORE DUP1 RETURN JUMPDEST PUSH4 0x4E487B71 PUSH1 0xE0 SHL DUP4 MSTORE PUSH1 0x21 SWAP1 MSTORE PUSH1 0x24 DUP3 REVERT JUMPDEST MLOAD PUSH3 0x461BCD PUSH1 0xE5 SHL DUP2 MSTORE PUSH1 0x20 DUP2 DUP7 ADD MSTORE PUSH1 0x25 PUSH1 0x24 DUP3 ADD MSTORE PUSH32 0x4175746F457865637574696F6E3A206E6F7420656D657267656E63792070726F PUSH1 0x44 DUP3 ADD MSTORE PUSH5 0x1C1BDCD85B PUSH1 0xDA SHL PUSH1 0x64 DUP3 ADD MSTORE PUSH1 0x84 SWAP1 REVERT JUMPDEST PUSH2 0x341 SWAP2 SWAP3 POP RETURNDATASIZE DUP1 DUP7 DUP4 RETURNDATACOPY PUSH2 0x339 DUP2 DUP4 PUSH2 0x104E JUMP JUMPDEST DUP2 ADD SWAP1 PUSH2 0x10EE JUMP JUMPDEST SWAP1 CODESIZE PUSH2 0x289 JUMP JUMPDEST DUP2 MLOAD RETURNDATASIZE DUP7 DUP3 RETURNDATACOPY RETURNDATASIZE SWAP1 REVERT JUMPDEST SWAP1 MLOAD PUSH4 0xE2517D3F PUSH1 0xE0 SHL DUP2 MSTORE CALLER DUP2 DUP7 ADD MSTORE PUSH1 0x24 DUP2 ADD SWAP2 SWAP1 SWAP2 MSTORE PUSH1 0x44 SWAP1 REVERT JUMPDEST POP DUP1 REVERT JUMPDEST POP SWAP2 SWAP1 CALLVALUE PUSH2 0x370 JUMPI PUSH2 0x385 CALLDATASIZE PUSH2 0xDE9 JUMP JUMPDEST SWAP4 PUSH2 0x38E PUSH2 0xDFF JUMP JUMPDEST DUP2 ISZERO PUSH2 0x3EB JUMPI POP DUP4 PUSH2 0x3C6 PUSH2 0xE10 PUSH32 0x7F40C2FD33DF3C3CC0624908BC87B6A333BA84D7678ED839F9F57B4306B128DD SWAP6 SWAP7 LT ISZERO PUSH2 0xF70 JUMP JUMPDEST PUSH2 0x3D5 PUSH3 0x93A80 DUP3 GT ISZERO PUSH2 0xFBC JUMP JUMPDEST DUP2 PUSH1 0x8 SSTORE DUP1 PUSH1 0x9 SSTORE DUP3 MLOAD SWAP2 DUP3 MSTORE PUSH1 0x20 DUP3 ADD MSTORE LOG1 DUP1 RETURN JUMPDEST PUSH1 0x84 SWAP1 PUSH1 0x20 DUP5 MLOAD SWAP2 PUSH3 0x461BCD PUSH1 0xE5 SHL DUP4 MSTORE DUP3 ADD MSTORE PUSH1 0x2A PUSH1 0x24 DUP3 ADD MSTORE PUSH32 0x4175746F457865637574696F6E3A20696E76616C696420726571756972656420 PUSH1 0x44 DUP3 ADD MSTORE PUSH10 0x7369676E617475726573 PUSH1 0xB0 SHL PUSH1 0x64 DUP3 ADD MSTORE REVERT JUMPDEST POP SWAP1 CALLVALUE PUSH2 0x1C8 JUMPI DUP1 PUSH1 0x3 NOT CALLDATASIZE ADD SLT PUSH2 0x1C8 JUMPI PUSH2 0x47B SWAP2 CALLDATALOAD PUSH2 0x476 PUSH1 0x1 PUSH2 0x465 PUSH2 0xDD3 JUMP JUMPDEST SWAP4 DUP4 DUP8 MSTORE DUP7 PUSH1 0x20 MSTORE DUP7 KECCAK256 ADD SLOAD PUSH2 0xE57 JUMP JUMPDEST PUSH2 0xEFB JUMP JUMPDEST POP DUP1 RETURN JUMPDEST POP POP CALLVALUE PUSH2 0x370 JUMPI DUP2 PUSH1 0x3 NOT CALLDATASIZE ADD SLT PUSH2 0x370 JUMPI PUSH2 0x499 PUSH2 0x129E JUMP JUMPDEST DUP2 JUMPDEST PUSH1 0xB SLOAD DUP2 LT ISZERO PUSH2 0x500 JUMPI DUP1 PUSH2 0x4D1 SWAP2 DUP5 MSTORE PUSH1 0x5 PUSH1 0x20 MSTORE DUP3 DUP5 KECCAK256 PUSH1 0x2 DUP2 ADD SWAP1 PUSH1 0xFF DUP3 SLOAD AND ISZERO DUP1 PUSH2 0x4F2 JUMPI JUMPDEST PUSH2 0x4D6 JUMPI JUMPDEST POP POP PUSH2 0x128F JUMP JUMPDEST PUSH2 0x49B JUMP JUMPDEST PUSH2 0x4E0 SWAP1 SLOAD PUSH2 0x134D JUMP JUMPDEST DUP1 SLOAD PUSH1 0xFF NOT AND PUSH1 0x1 OR SWAP1 SSTORE CODESIZE DUP1 PUSH2 0x4CA JUMP JUMPDEST POP PUSH1 0x1 DUP2 ADD SLOAD TIMESTAMP LT ISZERO PUSH2 0x4C5 JUMP JUMPDEST DUP3 PUSH1 0x1 DUP1 SSTORE DUP1 RETURN JUMPDEST POP POP CALLVALUE PUSH2 0x370 JUMPI DUP2 PUSH1 0x3 NOT CALLDATASIZE ADD SLT PUSH2 0x370 JUMPI PUSH1 0x20 SWAP1 MLOAD PUSH2 0xE10 DUP2 MSTORE RETURN JUMPDEST POP POP CALLVALUE PUSH2 0x370 JUMPI DUP2 PUSH1 0x3 NOT CALLDATASIZE ADD SLT PUSH2 0x370 JUMPI PUSH1 0x20 SWAP1 MLOAD PUSH3 0x93A80 DUP2 MSTORE RETURN JUMPDEST POP POP CALLVALUE PUSH2 0x370 JUMPI PUSH1 0x20 CALLDATASIZE PUSH1 0x3 NOT ADD SLT PUSH2 0x370 JUMPI PUSH2 0x55E PUSH2 0xDB8 JUMP JUMPDEST PUSH2 0x566 PUSH2 0xDFF JUMP JUMPDEST PUSH1 0x1 PUSH1 0x1 PUSH1 0xA0 SHL SUB AND DUP3 MSTORE PUSH1 0xA PUSH1 0x20 MSTORE DUP2 KECCAK256 DUP1 SLOAD PUSH1 0xFF NOT AND SWAP1 SSTORE DUP1 RETURN JUMPDEST POP CALLVALUE PUSH2 0x1C8 JUMPI PUSH1 0x20 CALLDATASIZE PUSH1 0x3 NOT ADD SLT PUSH2 0x1C8 JUMPI PUSH1 0x20 SWAP3 DUP3 SWAP2 CALLDATALOAD DUP2 MSTORE PUSH1 0x7 DUP5 MSTORE KECCAK256 SLOAD SWAP1 MLOAD SWAP1 DUP2 MSTORE RETURN JUMPDEST POP SWAP1 CALLVALUE PUSH2 0x1C8 JUMPI PUSH1 0x20 SWAP2 DUP3 PUSH1 0x3 NOT CALLDATASIZE ADD SLT PUSH2 0x64D JUMPI CALLDATALOAD SWAP1 PUSH2 0x5C9 PUSH2 0xDFF JUMP JUMPDEST DUP4 JUMPDEST PUSH1 0xB SLOAD DUP2 LT ISZERO PUSH2 0x646 JUMPI DUP1 DUP6 MSTORE PUSH1 0x5 DUP5 MSTORE DUP2 DUP6 KECCAK256 DUP4 DUP2 SLOAD EQ DUP1 PUSH2 0x637 JUMPI JUMPDEST PUSH2 0x5FC JUMPI POP PUSH2 0x5F7 SWAP1 PUSH2 0x128F JUMP JUMPDEST PUSH2 0x5CB JUMP JUMPDEST PUSH1 0x2 ADD DUP1 SLOAD PUSH1 0xFF NOT AND PUSH1 0x1 OR SWAP1 SSTORE POP CALLER SWAP3 POP PUSH32 0xB3561580F18BC98B1B1BC1BC05C5DA8EAF05DC833173EB5924B7EEC2A3CC50F9 SWAP1 POP DUP4 DUP1 LOG3 DUP1 RETURN JUMPDEST POP PUSH1 0xFF PUSH1 0x2 DUP3 ADD SLOAD AND ISZERO PUSH2 0x5E9 JUMP JUMPDEST POP POP POP POP DUP1 RETURN JUMPDEST DUP4 DUP1 REVERT JUMPDEST POP POP CALLVALUE PUSH2 0x370 JUMPI DUP2 PUSH1 0x3 NOT CALLDATASIZE ADD SLT PUSH2 0x370 JUMPI MLOAD SWAP1 DUP2 MSTORE PUSH1 0x20 SWAP1 RETURN JUMPDEST POP POP CALLVALUE PUSH2 0x370 JUMPI DUP2 PUSH1 0x3 NOT CALLDATASIZE ADD SLT PUSH2 0x370 JUMPI PUSH1 0x20 SWAP1 PUSH1 0xB SLOAD SWAP1 MLOAD SWAP1 DUP2 MSTORE RETURN JUMPDEST POP CALLVALUE PUSH2 0x1C8 JUMPI DUP2 PUSH1 0x3 NOT CALLDATASIZE ADD SLT PUSH2 0x1C8 JUMPI DUP2 PUSH1 0x20 SWAP4 PUSH1 0xFF SWAP3 PUSH2 0x6AB PUSH2 0xDD3 JUMP JUMPDEST SWAP1 CALLDATALOAD DUP3 MSTORE DUP2 DUP7 MSTORE DUP3 DUP3 KECCAK256 PUSH1 0x1 PUSH1 0x1 PUSH1 0xA0 SHL SUB SWAP1 SWAP2 AND DUP3 MSTORE DUP6 MSTORE KECCAK256 SLOAD SWAP2 MLOAD SWAP2 AND ISZERO ISZERO DUP2 MSTORE RETURN JUMPDEST POP POP CALLVALUE PUSH2 0x370 JUMPI PUSH1 0x20 CALLDATASIZE PUSH1 0x3 NOT ADD SLT PUSH2 0x370 JUMPI PUSH1 0x20 SWAP2 PUSH1 0xFF SWAP1 DUP3 SWAP1 PUSH1 0x1 PUSH1 0x1 PUSH1 0xA0 SHL SUB PUSH2 0x6FB PUSH2 0xDB8 JUMP JUMPDEST AND DUP2 MSTORE PUSH1 0xA DUP6 MSTORE KECCAK256 SLOAD AND SWAP1 MLOAD SWAP1 ISZERO ISZERO DUP2 MSTORE RETURN JUMPDEST DUP3 DUP5 CALLVALUE PUSH2 0x733 JUMPI DUP1 PUSH1 0x3 NOT CALLDATASIZE ADD SLT PUSH2 0x733 JUMPI POP PUSH1 0x8 SLOAD PUSH1 0x9 SLOAD DUP3 MLOAD SWAP2 DUP3 MSTORE PUSH1 0x20 DUP3 ADD MSTORE RETURN JUMPDEST DUP1 REVERT JUMPDEST POP SWAP2 CALLVALUE PUSH2 0x733 JUMPI PUSH1 0x20 CALLDATASIZE PUSH1 0x3 NOT ADD SLT PUSH2 0x733 JUMPI POP PUSH2 0x756 PUSH1 0x20 SWAP3 CALLDATALOAD PUSH2 0x1691 JUMP JUMPDEST SWAP1 MLOAD SWAP1 ISZERO ISZERO DUP2 MSTORE RETURN JUMPDEST POP SWAP1 CALLVALUE PUSH2 0x1C8 JUMPI PUSH1 0x20 DUP1 PUSH1 0x3 NOT CALLDATASIZE ADD SLT PUSH2 0x64D JUMPI DUP3 CALLDATALOAD SWAP3 CALLER DUP6 MSTORE PUSH1 0xA DUP3 MSTORE PUSH1 0xFF DUP4 DUP7 KECCAK256 SLOAD AND ISZERO PUSH2 0x860 JUMPI DUP4 DUP6 MSTORE PUSH1 0x6 DUP3 MSTORE DUP3 DUP6 KECCAK256 CALLER DUP7 MSTORE DUP3 MSTORE PUSH1 0xFF DUP4 DUP7 KECCAK256 SLOAD AND PUSH2 0x81F JUMPI POP PUSH1 0x7 SWAP1 DUP4 DUP6 MSTORE PUSH1 0x6 DUP2 MSTORE DUP3 DUP6 KECCAK256 CALLER DUP7 MSTORE DUP2 MSTORE DUP3 DUP6 KECCAK256 PUSH1 0x1 PUSH1 0xFF NOT DUP3 SLOAD AND OR SWAP1 SSTORE DUP4 DUP6 MSTORE DUP2 DUP2 MSTORE DUP3 DUP6 KECCAK256 PUSH2 0x7D7 DUP2 SLOAD PUSH2 0x128F JUMP JUMPDEST SWAP1 SSTORE CALLER DUP5 PUSH32 0xF85734E96C43975E5E4AC2DC156ACB47126A8A56E5B1963E6D5E78B3F39E1C3F DUP8 DUP1 LOG3 DUP4 DUP6 MSTORE MSTORE DUP3 KECCAK256 SLOAD PUSH1 0x8 SLOAD GT ISZERO PUSH2 0x813 JUMPI POP DUP1 RETURN JUMPDEST PUSH2 0x81C SWAP1 PUSH2 0x134D JUMP JUMPDEST DUP1 RETURN JUMPDEST SWAP2 MLOAD PUSH3 0x461BCD PUSH1 0xE5 SHL DUP2 MSTORE SWAP2 DUP3 ADD MSTORE PUSH1 0x1D PUSH1 0x24 DUP3 ADD MSTORE PUSH32 0x4175746F457865637574696F6E3A20616C7265616479207369676E6564000000 PUSH1 0x44 DUP3 ADD MSTORE PUSH1 0x64 SWAP1 REVERT JUMPDEST SWAP2 MLOAD PUSH3 0x461BCD PUSH1 0xE5 SHL DUP2 MSTORE SWAP2 DUP3 ADD MSTORE PUSH1 0x24 DUP1 DUP3 ADD MSTORE PUSH32 0x4175746F457865637574696F6E3A206E6F7420617574686F72697A6564207369 PUSH1 0x44 DUP3 ADD MSTORE PUSH4 0x33B732B9 PUSH1 0xE1 SHL PUSH1 0x64 DUP3 ADD MSTORE PUSH1 0x84 SWAP1 REVERT JUMPDEST POP POP CALLVALUE PUSH2 0x370 JUMPI DUP2 PUSH1 0x3 NOT CALLDATASIZE ADD SLT PUSH2 0x370 JUMPI PUSH1 0x2 SLOAD SWAP1 MLOAD PUSH1 0x1 PUSH1 0x1 PUSH1 0xA0 SHL SUB SWAP1 SWAP2 AND DUP2 MSTORE PUSH1 0x20 SWAP1 RETURN JUMPDEST POP SWAP2 SWAP1 CALLVALUE PUSH2 0x370 JUMPI DUP1 PUSH1 0x3 NOT CALLDATASIZE ADD SLT PUSH2 0x370 JUMPI PUSH2 0x8F1 PUSH2 0xDD3 JUMP JUMPDEST SWAP1 CALLER PUSH1 0x1 PUSH1 0x1 PUSH1 0xA0 SHL SUB DUP4 AND SUB PUSH2 0x90E JUMPI POP PUSH2 0x47B SWAP2 SWAP3 CALLDATALOAD PUSH2 0xEFB JUMP JUMPDEST MLOAD PUSH4 0x334BD919 PUSH1 0xE1 SHL DUP2 MSTORE DUP4 SWAP1 REVERT JUMPDEST POP CALLVALUE PUSH2 0x1C8 JUMPI PUSH1 0x20 CALLDATASIZE PUSH1 0x3 NOT ADD SLT PUSH2 0x1C8 JUMPI DUP3 DUP3 SWAP2 PUSH1 0x80 SWAP5 PUSH1 0x60 DUP5 MLOAD PUSH2 0x942 DUP2 PUSH2 0x1008 JUMP JUMPDEST DUP3 DUP2 MSTORE DUP3 PUSH1 0x20 DUP3 ADD MSTORE DUP3 DUP7 DUP3 ADD MSTORE ADD MSTORE CALLDATALOAD DUP2 MSTORE PUSH1 0x5 PUSH1 0x20 MSTORE KECCAK256 DUP2 MLOAD SWAP1 PUSH2 0x967 DUP3 PUSH2 0x1008 JUMP JUMPDEST DUP1 SLOAD SWAP3 DUP4 DUP4 MSTORE PUSH1 0x2 PUSH1 0x1 DUP4 ADD SLOAD SWAP3 PUSH1 0x20 DUP6 ADD SWAP4 DUP5 MSTORE ADD SLOAD SWAP3 PUSH1 0x60 DUP3 DUP3 ADD SWAP2 PUSH1 0xFF DUP7 AND ISZERO ISZERO DUP4 MSTORE ADD SWAP3 PUSH1 0x1 DUP1 PUSH1 0xA0 SHL SUB DUP1 SWAP6 PUSH1 0x8 SHR AND DUP5 MSTORE DUP3 MLOAD SWAP6 DUP7 MSTORE MLOAD PUSH1 0x20 DUP7 ADD MSTORE MLOAD ISZERO ISZERO SWAP1 DUP5 ADD MSTORE MLOAD AND PUSH1 0x60 DUP3 ADD MSTORE RETURN JUMPDEST POP CALLVALUE PUSH2 0x1C8 JUMPI PUSH2 0x9C8 CALLDATASIZE PUSH2 0xDE9 JUMP JUMPDEST PUSH32 0xD8AA0F3194971A2A116679F7C2090F6939C8D4E01A2A8D7E41D55E5351469E63 SWAP4 SWAP2 SWAP4 SWAP3 DUP4 DUP7 MSTORE PUSH1 0x20 SWAP4 DUP7 DUP6 MSTORE DUP4 DUP8 KECCAK256 CALLER DUP9 MSTORE DUP6 MSTORE PUSH1 0xFF DUP5 DUP9 KECCAK256 SLOAD AND ISZERO PUSH2 0xBBE JUMPI POP PUSH2 0xA13 PUSH2 0x129E JUMP JUMPDEST PUSH1 0x2 SLOAD DUP4 MLOAD PUSH4 0x18FEEB15 PUSH1 0xE3 SHL DUP2 MSTORE DUP3 DUP2 ADD DUP8 SWAP1 MSTORE SWAP1 DUP8 SWAP1 DUP3 SWAP1 PUSH1 0x24 SWAP1 DUP3 SWAP1 PUSH1 0x1 PUSH1 0x1 PUSH1 0xA0 SHL SUB AND GAS STATICCALL SWAP1 DUP2 ISZERO PUSH2 0xBB4 JUMPI DUP8 SWAP2 PUSH2 0xB9A JUMPI JUMPDEST POP PUSH1 0xA0 DUP2 ADD MLOAD PUSH1 0x7 DUP2 LT ISZERO PUSH2 0xB87 JUMPI SWAP1 PUSH2 0xA6A PUSH1 0x2 PUSH2 0x120 SWAP4 EQ PUSH2 0x1215 JUMP JUMPDEST ADD MLOAD TIMESTAMP LT PUSH2 0xB44 JUMPI POP SWAP1 PUSH2 0xABD DUP3 PUSH2 0xAA8 PUSH2 0xE10 PUSH32 0xB955D14FC889E8B8EB0AE7DD49E70E8E9982B7EB46E72F4B74917C8581FFF7E6 SWAP7 SWAP6 LT ISZERO PUSH2 0xF70 JUMP JUMPDEST PUSH2 0xAB7 PUSH3 0x93A80 DUP3 GT ISZERO PUSH2 0xFBC JUMP JUMPDEST TIMESTAMP PUSH2 0x126C JUMP JUMPDEST SWAP1 DUP1 MLOAD PUSH2 0xAC9 DUP2 PUSH2 0x1008 JUMP JUMPDEST DUP6 DUP2 MSTORE DUP4 DUP2 ADD DUP4 DUP2 MSTORE PUSH1 0x2 DUP4 DUP4 ADD SWAP3 DUP10 DUP5 MSTORE PUSH1 0x60 DUP2 ADD SWAP3 CALLER DUP5 MSTORE PUSH1 0xB SLOAD DUP12 MSTORE PUSH1 0x5 DUP9 MSTORE DUP6 DUP12 KECCAK256 SWAP2 MLOAD DUP3 SSTORE MLOAD PUSH1 0x1 DUP3 ADD SSTORE ADD SWAP2 MLOAD ISZERO ISZERO SWAP1 PUSH1 0xFF DUP4 SLOAD SWAP2 PUSH2 0x100 PUSH1 0x1 PUSH1 0xA8 SHL SUB SWAP1 MLOAD PUSH1 0x8 SHL AND SWAP3 AND SWAP1 PUSH11 0xFFFFFFFFFFFFFFFFFFFFFF PUSH1 0xA8 SHL AND OR OR SWAP1 SSTORE MLOAD SWAP1 DUP2 MSTORE LOG2 PUSH2 0xB3A PUSH1 0xB SLOAD PUSH2 0x128F JUMP JUMPDEST PUSH1 0xB SSTORE PUSH1 0x1 DUP1 SSTORE DUP1 RETURN JUMPDEST DUP3 MLOAD PUSH3 0x461BCD PUSH1 0xE5 SHL DUP2 MSTORE SWAP1 DUP2 ADD DUP5 SWAP1 MSTORE PUSH1 0x1F PUSH1 0x24 DUP3 ADD MSTORE PUSH32 0x4175746F457865637574696F6E3A20766F74696E67206E6F7420656E64656400 PUSH1 0x44 DUP3 ADD MSTORE PUSH1 0x64 SWAP1 REVERT JUMPDEST PUSH4 0x4E487B71 PUSH1 0xE0 SHL DUP9 MSTORE PUSH1 0x21 DUP4 MSTORE PUSH1 0x24 DUP9 REVERT JUMPDEST PUSH2 0xBAE SWAP2 POP RETURNDATASIZE DUP1 DUP10 DUP4 RETURNDATACOPY PUSH2 0x339 DUP2 DUP4 PUSH2 0x104E JUMP JUMPDEST CODESIZE PUSH2 0xA4B JUMP JUMPDEST DUP5 MLOAD RETURNDATASIZE DUP10 DUP3 RETURNDATACOPY RETURNDATASIZE SWAP1 REVERT JUMPDEST PUSH1 0x44 SWAP3 POP DUP4 MLOAD SWAP2 PUSH4 0xE2517D3F PUSH1 0xE0 SHL DUP4 MSTORE CALLER SWAP1 DUP4 ADD MSTORE PUSH1 0x24 DUP3 ADD MSTORE REVERT JUMPDEST POP SWAP1 CALLVALUE PUSH2 0x1C8 JUMPI DUP1 PUSH1 0x3 NOT CALLDATASIZE ADD SLT PUSH2 0x1C8 JUMPI PUSH2 0x47B SWAP2 CALLDATALOAD PUSH2 0xBFF PUSH1 0x1 PUSH2 0x465 PUSH2 0xDD3 JUMP JUMPDEST PUSH2 0xE7D JUMP JUMPDEST POP CALLVALUE PUSH2 0x1C8 JUMPI PUSH1 0x20 CALLDATASIZE PUSH1 0x3 NOT ADD SLT PUSH2 0x1C8 JUMPI DUP2 PUSH1 0x20 SWAP4 PUSH1 0x1 SWAP3 CALLDATALOAD DUP2 MSTORE DUP1 DUP6 MSTORE KECCAK256 ADD SLOAD SWAP1 MLOAD SWAP1 DUP2 MSTORE RETURN JUMPDEST POP POP CALLVALUE PUSH2 0x370 JUMPI DUP2 PUSH1 0x3 NOT CALLDATASIZE ADD SLT PUSH2 0x370 JUMPI PUSH1 0x3 SLOAD SWAP1 MLOAD PUSH1 0x1 PUSH1 0x1 PUSH1 0xA0 SHL SUB SWAP1 SWAP2 AND DUP2 MSTORE PUSH1 0x20 SWAP1 RETURN JUMPDEST POP POP CALLVALUE PUSH2 0x370 JUMPI DUP2 PUSH1 0x3 NOT CALLDATASIZE ADD SLT PUSH2 0x370 JUMPI PUSH1 0x20 SWAP1 MLOAD PUSH32 0xBF233DD2AAFEB4D50879C4AA5C81E96D92F6E6945C906A58F9F2D1C1631B4B26 DUP2 MSTORE RETURN JUMPDEST POP POP CALLVALUE PUSH2 0x370 JUMPI PUSH1 0x20 CALLDATASIZE PUSH1 0x3 NOT ADD SLT PUSH2 0x370 JUMPI PUSH2 0xCAC PUSH2 0xDB8 JUMP JUMPDEST PUSH2 0xCB4 PUSH2 0xDFF JUMP JUMPDEST PUSH1 0x1 PUSH1 0x1 PUSH1 0xA0 SHL SUB AND DUP3 MSTORE PUSH1 0xA PUSH1 0x20 MSTORE DUP2 KECCAK256 DUP1 SLOAD PUSH1 0xFF NOT AND PUSH1 0x1 OR SWAP1 SSTORE DUP1 RETURN JUMPDEST POP CALLVALUE PUSH2 0x1C8 JUMPI PUSH1 0x20 CALLDATASIZE PUSH1 0x3 NOT ADD SLT PUSH2 0x1C8 JUMPI PUSH1 0x80 SWAP3 DUP3 SWAP2 CALLDATALOAD DUP2 MSTORE PUSH1 0x5 PUSH1 0x20 MSTORE KECCAK256 DUP1 SLOAD SWAP2 PUSH1 0x2 PUSH1 0x1 DUP4 ADD SLOAD SWAP3 ADD SLOAD SWAP2 DUP2 MLOAD SWAP4 DUP5 MSTORE PUSH1 0x20 DUP5 ADD MSTORE PUSH1 0xFF DUP3 AND ISZERO ISZERO SWAP1 DUP4 ADD MSTORE PUSH1 0x1 DUP1 PUSH1 0xA0 SHL SUB SWAP1 PUSH1 0x8 SHR AND PUSH1 0x60 DUP3 ADD MSTORE RETURN JUMPDEST POP POP CALLVALUE PUSH2 0x370 JUMPI DUP2 PUSH1 0x3 NOT CALLDATASIZE ADD SLT PUSH2 0x370 JUMPI PUSH1 0x20 SWAP1 MLOAD PUSH32 0xD8AA0F3194971A2A116679F7C2090F6939C8D4E01A2A8D7E41D55E5351469E63 DUP2 MSTORE RETURN JUMPDEST SWAP3 POP POP CALLVALUE PUSH2 0x1C8 JUMPI PUSH1 0x20 CALLDATASIZE PUSH1 0x3 NOT ADD SLT PUSH2 0x1C8 JUMPI CALLDATALOAD PUSH4 0xFFFFFFFF PUSH1 0xE0 SHL DUP2 AND DUP1 SWAP2 SUB PUSH2 0x1C8 JUMPI PUSH1 0x20 SWAP3 POP PUSH4 0x7965DB0B PUSH1 0xE0 SHL DUP2 EQ SWAP1 DUP2 ISZERO PUSH2 0xDA7 JUMPI JUMPDEST POP ISZERO ISZERO DUP2 MSTORE RETURN JUMPDEST PUSH4 0x1FFC9A7 PUSH1 0xE0 SHL EQ SWAP1 POP CODESIZE PUSH2 0xDA0 JUMP JUMPDEST PUSH1 0x4 CALLDATALOAD SWAP1 PUSH1 0x1 PUSH1 0x1 PUSH1 0xA0 SHL SUB DUP3 AND DUP3 SUB PUSH2 0xDCE JUMPI JUMP JUMPDEST PUSH1 0x0 DUP1 REVERT JUMPDEST PUSH1 0x24 CALLDATALOAD SWAP1 PUSH1 0x1 PUSH1 0x1 PUSH1 0xA0 SHL SUB DUP3 AND DUP3 SUB PUSH2 0xDCE JUMPI JUMP JUMPDEST PUSH1 0x40 SWAP1 PUSH1 0x3 NOT ADD SLT PUSH2 0xDCE JUMPI PUSH1 0x4 CALLDATALOAD SWAP1 PUSH1 0x24 CALLDATALOAD SWAP1 JUMP JUMPDEST CALLER PUSH1 0x0 SWAP1 DUP2 MSTORE PUSH32 0xAD3228B676F7D3CD4284A5443F17F1962B36E491B30A40B2405849E597BA5FB5 PUSH1 0x20 MSTORE PUSH1 0x40 DUP2 KECCAK256 SLOAD PUSH1 0xFF AND ISZERO PUSH2 0xE39 JUMPI POP JUMP JUMPDEST PUSH1 0x44 SWAP1 PUSH1 0x40 MLOAD SWAP1 PUSH4 0xE2517D3F PUSH1 0xE0 SHL DUP3 MSTORE CALLER PUSH1 0x4 DUP4 ADD MSTORE PUSH1 0x24 DUP3 ADD MSTORE REVERT JUMPDEST DUP1 PUSH1 0x0 MSTORE PUSH1 0x0 PUSH1 0x20 MSTORE PUSH1 0x40 PUSH1 0x0 KECCAK256 CALLER PUSH1 0x0 MSTORE PUSH1 0x20 MSTORE PUSH1 0xFF PUSH1 0x40 PUSH1 0x0 KECCAK256 SLOAD AND ISZERO PUSH2 0xE39 JUMPI POP JUMP JUMPDEST SWAP1 PUSH1 0x0 SWAP2 DUP1 DUP4 MSTORE DUP3 PUSH1 0x20 MSTORE PUSH1 0x40 DUP4 KECCAK256 SWAP2 PUSH1 0x1 DUP1 PUSH1 0xA0 SHL SUB AND SWAP2 DUP3 DUP5 MSTORE PUSH1 0x20 MSTORE PUSH1 0xFF PUSH1 0x40 DUP5 KECCAK256 SLOAD AND ISZERO PUSH1 0x0 EQ PUSH2 0xEF6 JUMPI DUP1 DUP4 MSTORE DUP3 PUSH1 0x20 MSTORE PUSH1 0x40 DUP4 KECCAK256 DUP3 DUP5 MSTORE PUSH1 0x20 MSTORE PUSH1 0x40 DUP4 KECCAK256 PUSH1 0x1 PUSH1 0xFF NOT DUP3 SLOAD AND OR SWAP1 SSTORE PUSH32 0x2F8788117E7EFF1D82E926EC794901D17C78024A50270940304540A733656F0D CALLER SWAP4 DUP1 LOG4 PUSH1 0x1 SWAP1 JUMP JUMPDEST POP POP SWAP1 JUMP JUMPDEST SWAP1 PUSH1 0x0 SWAP2 DUP1 DUP4 MSTORE DUP3 PUSH1 0x20 MSTORE PUSH1 0x40 DUP4 KECCAK256 SWAP2 PUSH1 0x1 DUP1 PUSH1 0xA0 SHL SUB AND SWAP2 DUP3 DUP5 MSTORE PUSH1 0x20 MSTORE PUSH1 0xFF PUSH1 0x40 DUP5 KECCAK256 SLOAD AND PUSH1 0x0 EQ PUSH2 0xEF6 JUMPI DUP1 DUP4 MSTORE DUP3 PUSH1 0x20 MSTORE PUSH1 0x40 DUP4 KECCAK256 DUP3 DUP5 MSTORE PUSH1 0x20 MSTORE PUSH1 0x40 DUP4 KECCAK256 PUSH1 0xFF NOT DUP2 SLOAD AND SWAP1 SSTORE PUSH32 0xF6391F5C32D9C69D2A47EA670B442974B53935D1EDC7FD64EB21E047A839171B CALLER SWAP4 DUP1 LOG4 PUSH1 0x1 SWAP1 JUMP JUMPDEST ISZERO PUSH2 0xF77 JUMPI JUMP JUMPDEST PUSH1 0x40 MLOAD PUSH3 0x461BCD PUSH1 0xE5 SHL DUP2 MSTORE PUSH1 0x20 PUSH1 0x4 DUP3 ADD MSTORE PUSH1 0x1E PUSH1 0x24 DUP3 ADD MSTORE PUSH32 0x4175746F457865637574696F6E3A2064656C617920746F6F2073686F72740000 PUSH1 0x44 DUP3 ADD MSTORE PUSH1 0x64 SWAP1 REVERT JUMPDEST ISZERO PUSH2 0xFC3 JUMPI JUMP JUMPDEST PUSH1 0x40 MLOAD PUSH3 0x461BCD PUSH1 0xE5 SHL DUP2 MSTORE PUSH1 0x20 PUSH1 0x4 DUP3 ADD MSTORE PUSH1 0x1D PUSH1 0x24 DUP3 ADD MSTORE PUSH32 0x4175746F457865637574696F6E3A2064656C617920746F6F206C6F6E67000000 PUSH1 0x44 DUP3 ADD MSTORE PUSH1 0x64 SWAP1 REVERT JUMPDEST PUSH1 0x80 DUP2 ADD SWAP1 DUP2 LT PUSH8 0xFFFFFFFFFFFFFFFF DUP3 GT OR PUSH2 0x1024 JUMPI PUSH1 0x40 MSTORE JUMP JUMPDEST PUSH4 0x4E487B71 PUSH1 0xE0 SHL PUSH1 0x0 MSTORE PUSH1 0x41 PUSH1 0x4 MSTORE PUSH1 0x24 PUSH1 0x0 REVERT JUMPDEST PUSH8 0xFFFFFFFFFFFFFFFF DUP2 GT PUSH2 0x1024 JUMPI PUSH1 0x40 MSTORE JUMP JUMPDEST SWAP1 PUSH1 0x1F DUP1 NOT SWAP2 ADD AND DUP2 ADD SWAP1 DUP2 LT PUSH8 0xFFFFFFFFFFFFFFFF DUP3 GT OR PUSH2 0x1024 JUMPI PUSH1 0x40 MSTORE JUMP JUMPDEST SWAP2 SWAP1 DUP1 PUSH1 0x1F DUP5 ADD SLT ISZERO PUSH2 0xDCE JUMPI DUP3 MLOAD SWAP1 PUSH8 0xFFFFFFFFFFFFFFFF DUP3 GT PUSH2 0x1024 JUMPI PUSH1 0x40 MLOAD SWAP2 PUSH1 0x20 SWAP2 PUSH2 0x10A9 PUSH1 0x1F DUP4 ADD PUSH1 0x1F NOT AND DUP5 ADD DUP6 PUSH2 0x104E JUMP JUMPDEST DUP2 DUP5 MSTORE DUP3 DUP3 DUP8 ADD ADD GT PUSH2 0xDCE JUMPI PUSH1 0x0 JUMPDEST DUP2 DUP2 LT PUSH2 0x10CE JUMPI POP DUP3 PUSH1 0x0 SWAP4 SWAP5 SWAP6 POP ADD ADD MSTORE SWAP1 JUMP JUMPDEST DUP6 DUP2 ADD DUP4 ADD MLOAD DUP5 DUP3 ADD DUP5 ADD MSTORE DUP3 ADD PUSH2 0x10B9 JUMP JUMPDEST MLOAD SWAP1 DUP2 ISZERO ISZERO DUP3 SUB PUSH2 0xDCE JUMPI JUMP JUMPDEST PUSH1 0x20 DUP2 DUP4 SUB SLT PUSH2 0xDCE JUMPI DUP1 MLOAD PUSH8 0xFFFFFFFFFFFFFFFF SWAP2 DUP3 DUP3 GT PUSH2 0xDCE JUMPI ADD SWAP1 PUSH2 0x1C0 SWAP3 DUP4 DUP4 DUP3 SUB SLT PUSH2 0xDCE JUMPI PUSH1 0x40 MLOAD SWAP4 DUP5 ADD DUP5 DUP2 LT DUP4 DUP3 GT OR PUSH2 0x1024 JUMPI PUSH1 0x40 MSTORE DUP3 MLOAD DUP3 DUP2 GT PUSH2 0xDCE JUMPI DUP2 PUSH2 0x1143 SWAP2 DUP6 ADD PUSH2 0x1070 JUMP JUMPDEST DUP5 MSTORE PUSH1 0x20 DUP4 ADD MLOAD SWAP2 DUP3 GT PUSH2 0xDCE JUMPI PUSH2 0x115C SWAP2 DUP4 ADD PUSH2 0x1070 JUMP JUMPDEST PUSH1 0x20 DUP4 ADD MSTORE PUSH1 0x40 DUP2 DUP2 ADD MLOAD SWAP1 DUP4 ADD MSTORE PUSH1 0x60 DUP2 ADD MLOAD PUSH1 0x1 PUSH1 0x1 PUSH1 0xA0 SHL SUB SWAP1 DUP2 DUP2 AND DUP2 SUB PUSH2 0xDCE JUMPI PUSH1 0x60 DUP5 ADD MSTORE PUSH1 0x80 DUP3 ADD MLOAD PUSH1 0x5 DUP2 LT ISZERO PUSH2 0xDCE JUMPI PUSH1 0x80 DUP5 ADD MSTORE PUSH1 0xA0 DUP3 ADD MLOAD PUSH1 0x7 DUP2 LT ISZERO PUSH2 0xDCE JUMPI PUSH1 0xA0 DUP5 ADD MSTORE PUSH1 0xC0 DUP3 ADD MLOAD PUSH1 0xC0 DUP5 ADD MSTORE PUSH1 0xE0 DUP3 ADD MLOAD PUSH1 0xE0 DUP5 ADD MSTORE PUSH2 0x100 DUP1 DUP4 ADD MLOAD SWAP1 DUP5 ADD MSTORE PUSH2 0x120 DUP1 DUP4 ADD MLOAD SWAP1 DUP5 ADD MSTORE PUSH2 0x140 DUP1 DUP4 ADD MLOAD SWAP2 DUP3 AND DUP3 SUB PUSH2 0xDCE JUMPI DUP4 ADD MSTORE PUSH2 0x160 DUP1 DUP3 ADD MLOAD SWAP1 DUP4 ADD MSTORE PUSH2 0x180 PUSH2 0x1203 DUP2 DUP4 ADD PUSH2 0x10E1 JUMP JUMPDEST SWAP1 DUP4 ADD MSTORE PUSH2 0x1A0 DUP1 SWAP2 ADD MLOAD SWAP1 DUP3 ADD MSTORE SWAP1 JUMP JUMPDEST ISZERO PUSH2 0x121C JUMPI JUMP JUMPDEST PUSH1 0x40 MLOAD PUSH3 0x461BCD PUSH1 0xE5 SHL DUP2 MSTORE PUSH1 0x20 PUSH1 0x4 DUP3 ADD MSTORE PUSH1 0x22 PUSH1 0x24 DUP3 ADD MSTORE PUSH32 0x4175746F457865637574696F6E3A2070726F706F73616C206E6F742070617373 PUSH1 0x44 DUP3 ADD MSTORE PUSH2 0x1959 PUSH1 0xF2 SHL PUSH1 0x64 DUP3 ADD MSTORE PUSH1 0x84 SWAP1 REVERT JUMPDEST SWAP2 SWAP1 DUP3 ADD DUP1 SWAP3 GT PUSH2 0x1279 JUMPI JUMP JUMPDEST PUSH4 0x4E487B71 PUSH1 0xE0 SHL PUSH1 0x0 MSTORE PUSH1 0x11 PUSH1 0x4 MSTORE PUSH1 0x24 PUSH1 0x0 REVERT JUMPDEST PUSH1 0x0 NOT DUP2 EQ PUSH2 0x1279 JUMPI PUSH1 0x1 ADD SWAP1 JUMP JUMPDEST PUSH1 0x2 PUSH1 0x1 SLOAD EQ PUSH2 0x12AF JUMPI PUSH1 0x2 PUSH1 0x1 SSTORE JUMP JUMPDEST PUSH1 0x40 MLOAD PUSH4 0x3EE5AEB5 PUSH1 0xE0 SHL DUP2 MSTORE PUSH1 0x4 SWAP1 REVERT JUMPDEST DUP2 ISZERO PUSH2 0x12CB JUMPI DIV SWAP1 JUMP JUMPDEST PUSH4 0x4E487B71 PUSH1 0xE0 SHL PUSH1 0x0 MSTORE PUSH1 0x12 PUSH1 0x4 MSTORE PUSH1 0x24 PUSH1 0x0 REVERT JUMPDEST SWAP1 DUP2 PUSH1 0x80 SWAP2 SUB SLT PUSH2 0xDCE JUMPI PUSH2 0x131C PUSH1 0x60 PUSH1 0x40 MLOAD SWAP3 PUSH2 0x12FE DUP5 PUSH2 0x1008 JUMP JUMPDEST DUP1 MLOAD DUP5 MSTORE PUSH1 0x20 DUP2 ADD MLOAD PUSH1 0x20 DUP6 ADD MSTORE PUSH1 0x40 DUP2 ADD MLOAD PUSH1 0x40 DUP6 ADD MSTORE ADD PUSH2 0x10E1 JUMP JUMPDEST PUSH1 0x60 DUP3 ADD MSTORE SWAP1 JUMP JUMPDEST SWAP2 SWAP1 PUSH1 0x20 DUP4 ADD SWAP3 PUSH1 0x5 DUP3 LT ISZERO PUSH2 0x1337 JUMPI MSTORE JUMP JUMPDEST PUSH4 0x4E487B71 PUSH1 0xE0 SHL PUSH1 0x0 MSTORE PUSH1 0x21 PUSH1 0x4 MSTORE PUSH1 0x24 PUSH1 0x0 REVERT JUMPDEST PUSH1 0x2 SLOAD PUSH1 0x40 DUP1 MLOAD PUSH4 0x18FEEB15 PUSH1 0xE3 SHL DUP2 MSTORE PUSH1 0x4 DUP1 DUP3 ADD DUP6 SWAP1 MSTORE SWAP2 SWAP5 SWAP2 SWAP4 PUSH1 0x24 SWAP4 PUSH1 0x0 SWAP3 PUSH1 0x1 PUSH1 0x1 PUSH1 0xA0 SHL SUB SWAP2 DUP3 AND DUP5 DUP3 DUP9 DUP2 DUP5 GAS STATICCALL SWAP2 DUP3 ISZERO PUSH2 0x1687 JUMPI DUP6 SWAP3 PUSH2 0x166B JUMPI JUMPDEST POP PUSH1 0xA0 DUP3 ADD MLOAD PUSH1 0x7 DUP2 LT ISZERO PUSH2 0x1659 JUMPI PUSH1 0x2 PUSH2 0x13AB SWAP2 EQ PUSH2 0x1215 JUMP JUMPDEST PUSH1 0xC0 DUP3 ADD DUP1 MLOAD PUSH1 0xE0 DUP5 ADD SWAP1 DUP2 MLOAD LT ISZERO PUSH2 0x160A JUMPI DUP2 MLOAD SWAP1 MLOAD PUSH2 0x13CB SWAP2 PUSH2 0x126C JUMP JUMPDEST SWAP1 MLOAD PUSH1 0x64 DUP2 MUL SWAP1 DUP1 DUP3 DIV PUSH1 0x64 EQ SWAP1 ISZERO OR ISZERO PUSH2 0x15F8 JUMPI SWAP1 PUSH2 0x13EA SWAP2 PUSH2 0x12C1 JUMP JUMPDEST SWAP1 PUSH1 0x80 DUP4 ADD MLOAD SWAP1 PUSH1 0x5 DUP3 LT ISZERO PUSH2 0x15E6 JUMPI PUSH2 0x141B SWAP2 PUSH1 0x80 SWAP2 DUP12 DUP14 MLOAD DUP1 SWAP6 DUP2 SWAP5 DUP3 SWAP4 PUSH4 0x84B0601 PUSH1 0xE0 SHL DUP5 MSTORE DUP4 ADD PUSH2 0x1324 JUMP JUMPDEST SUB SWAP2 GAS STATICCALL SWAP1 DUP2 ISZERO PUSH2 0x15DC JUMPI SWAP1 PUSH1 0x20 SWAP2 DUP8 SWAP2 PUSH2 0x15AE JUMPI JUMPDEST POP ADD MLOAD GT PUSH2 0x1562 JUMPI DUP2 PUSH1 0x3 SLOAD AND SWAP1 DUP9 DUP4 PUSH1 0x60 DUP4 ADD MLOAD AND SWAP2 ADD MLOAD SWAP2 DUP1 EXTCODESIZE ISZERO PUSH2 0x154B JUMPI SWAP1 PUSH1 0x44 DUP10 DUP8 DUP1 SWAP5 DUP14 MLOAD SWAP7 DUP8 SWAP6 DUP7 SWAP5 PUSH4 0xA9059CBB PUSH1 0xE0 SHL DUP7 MSTORE DUP6 ADD MSTORE DUP13 DUP5 ADD MSTORE GAS CALL SWAP1 DUP2 PUSH2 0x154F JUMPI JUMPDEST POP PUSH2 0x14C1 JUMPI DUP7 MLOAD PUSH3 0x461BCD PUSH1 0xE5 SHL DUP2 MSTORE PUSH1 0x20 DUP2 DUP9 ADD MSTORE PUSH1 0x1E DUP2 DUP8 ADD MSTORE PUSH32 0x4175746F457865637574696F6E3A207472616E73666572206661696C65640000 PUSH1 0x44 DUP3 ADD MSTORE PUSH1 0x64 SWAP1 REVERT JUMPDEST PUSH1 0x2 SWAP7 SWAP3 SWAP6 SWAP2 SWAP5 SWAP4 SWAP7 SLOAD AND SWAP3 DUP4 EXTCODESIZE ISZERO PUSH2 0x154B JUMPI SWAP1 PUSH1 0x44 DUP7 SWAP3 DUP4 DUP6 MLOAD SWAP7 DUP8 SWAP5 DUP6 SWAP4 PUSH4 0x32FA5185 PUSH1 0xE2 SHL DUP6 MSTORE DUP11 DUP3 DUP7 ADD MSTORE DUP5 ADD MSTORE GAS CALL SWAP1 DUP2 ISZERO PUSH2 0x1542 JUMPI POP SWAP1 DUP4 SWAP2 PUSH2 0x152E JUMPI JUMPDEST POP POP PUSH32 0x6DE04E7E88D1AE6758AEE584436259C87078A026A033CA9B79411D119D985F52 CALLER SWAP3 DUP1 LOG3 JUMP JUMPDEST PUSH2 0x1537 SWAP1 PUSH2 0x103A JUMP JUMPDEST PUSH2 0x370 JUMPI DUP2 CODESIZE PUSH2 0x1505 JUMP JUMPDEST MLOAD RETURNDATASIZE DUP6 DUP3 RETURNDATACOPY RETURNDATASIZE SWAP1 REVERT JUMPDEST DUP6 DUP1 REVERT JUMPDEST PUSH2 0x155B SWAP1 SWAP5 SWAP2 SWAP5 PUSH2 0x103A JUMP JUMPDEST SWAP3 CODESIZE PUSH2 0x147A JUMP JUMPDEST DUP8 MLOAD PUSH3 0x461BCD PUSH1 0xE5 SHL DUP2 MSTORE PUSH1 0x20 DUP2 DUP10 ADD MSTORE PUSH1 0x21 DUP2 DUP9 ADD MSTORE PUSH32 0x4175746F457865637574696F6E3A2071756F72756D206E6F7420726561636865 PUSH1 0x44 DUP3 ADD MSTORE PUSH1 0x19 PUSH1 0xFA SHL PUSH1 0x64 DUP3 ADD MSTORE PUSH1 0x84 SWAP1 REVERT JUMPDEST PUSH2 0x15CF SWAP2 POP PUSH1 0x80 RETURNDATASIZE DUP2 GT PUSH2 0x15D5 JUMPI JUMPDEST PUSH2 0x15C7 DUP2 DUP4 PUSH2 0x104E JUMP JUMPDEST DUP2 ADD SWAP1 PUSH2 0x12E1 JUMP JUMPDEST CODESIZE PUSH2 0x1431 JUMP JUMPDEST POP RETURNDATASIZE PUSH2 0x15BD JUMP JUMPDEST DUP11 MLOAD RETURNDATASIZE DUP9 DUP3 RETURNDATACOPY RETURNDATASIZE SWAP1 REVERT JUMPDEST PUSH4 0x4E487B71 PUSH1 0xE0 SHL DUP8 MSTORE PUSH1 0x21 DUP11 MSTORE DUP9 DUP8 REVERT JUMPDEST PUSH4 0x4E487B71 PUSH1 0xE0 SHL DUP8 MSTORE PUSH1 0x11 DUP11 MSTORE DUP9 DUP8 REVERT JUMPDEST DUP11 MLOAD PUSH3 0x461BCD PUSH1 0xE5 SHL DUP2 MSTORE PUSH1 0x20 DUP2 DUP13 ADD MSTORE DUP1 DUP11 ADD DUP11 SWAP1 MSTORE PUSH32 0x4175746F457865637574696F6E3A2070726F706F73616C206E6F742061707072 PUSH1 0x44 DUP3 ADD MSTORE PUSH4 0x1BDD9959 PUSH1 0xE2 SHL PUSH1 0x64 DUP3 ADD MSTORE PUSH1 0x84 SWAP1 REVERT JUMPDEST PUSH4 0x4E487B71 PUSH1 0xE0 SHL DUP7 MSTORE PUSH1 0x21 DUP10 MSTORE DUP8 DUP7 REVERT JUMPDEST PUSH2 0x1680 SWAP2 SWAP3 POP RETURNDATASIZE DUP1 DUP8 DUP4 RETURNDATACOPY PUSH2 0x339 DUP2 DUP4 PUSH2 0x104E JUMP JUMPDEST SWAP1 CODESIZE PUSH2 0x1390 JUMP JUMPDEST DUP10 MLOAD RETURNDATASIZE DUP8 DUP3 RETURNDATACOPY RETURNDATASIZE SWAP1 REVERT JUMPDEST PUSH1 0x2 SLOAD PUSH1 0x40 MLOAD PUSH4 0x18FEEB15 PUSH1 0xE3 SHL DUP2 MSTORE PUSH1 0x4 DUP2 ADD SWAP3 SWAP1 SWAP3 MSTORE PUSH1 0x0 SWAP3 SWAP2 SWAP1 PUSH1 0x1 PUSH1 0x1 PUSH1 0xA0 SHL SUB AND DUP4 DUP3 PUSH1 0x24 DUP2 DUP5 GAS STATICCALL SWAP2 DUP3 ISZERO PUSH2 0x178D JUMPI DUP5 SWAP3 PUSH2 0x17CB JUMPI JUMPDEST POP PUSH1 0xA0 DUP3 ADD MLOAD PUSH1 0x7 DUP2 LT ISZERO PUSH2 0x1798 JUMPI PUSH1 0x2 SUB PUSH2 0x17C7 JUMPI PUSH1 0xC0 DUP3 ADD DUP1 MLOAD PUSH1 0xE0 DUP5 ADD MLOAD SWAP1 DUP2 DUP2 GT ISZERO PUSH2 0x17C0 JUMPI SWAP1 PUSH2 0x1701 SWAP2 PUSH2 0x126C JUMP JUMPDEST SWAP1 MLOAD PUSH1 0x64 DUP2 MUL SWAP1 DUP1 DUP3 DIV PUSH1 0x64 EQ SWAP1 ISZERO OR ISZERO PUSH2 0x17AC JUMPI PUSH1 0x80 SWAP2 PUSH2 0x1722 SWAP2 PUSH2 0x12C1 JUMP JUMPDEST SWAP3 ADD MLOAD SWAP1 PUSH1 0x5 DUP3 LT ISZERO PUSH2 0x1798 JUMPI PUSH2 0x1751 SWAP2 PUSH1 0x80 SWAP2 PUSH1 0x40 MLOAD DUP1 DUP1 SWAP6 DUP2 SWAP5 PUSH4 0x84B0601 PUSH1 0xE0 SHL DUP4 MSTORE PUSH1 0x4 DUP4 ADD PUSH2 0x1324 JUMP JUMPDEST SUB SWAP2 GAS STATICCALL SWAP1 DUP2 ISZERO PUSH2 0x178D JUMPI PUSH1 0x20 SWAP3 SWAP4 SWAP5 SWAP2 PUSH2 0x176F JUMPI JUMPDEST POP ADD MLOAD GT ISZERO SWAP1 JUMP JUMPDEST PUSH2 0x1787 SWAP2 POP PUSH1 0x80 RETURNDATASIZE DUP2 GT PUSH2 0x15D5 JUMPI PUSH2 0x15C7 DUP2 DUP4 PUSH2 0x104E JUMP JUMPDEST CODESIZE PUSH2 0x1767 JUMP JUMPDEST PUSH1 0x40 MLOAD RETURNDATASIZE DUP7 DUP3 RETURNDATACOPY RETURNDATASIZE SWAP1 REVERT JUMPDEST PUSH4 0x4E487B71 PUSH1 0xE0 SHL DUP6 MSTORE PUSH1 0x21 PUSH1 0x4 MSTORE PUSH1 0x24 DUP6 REVERT JUMPDEST PUSH4 0x4E487B71 PUSH1 0xE0 SHL DUP7 MSTORE PUSH1 0x11 PUSH1 0x4 MSTORE PUSH1 0x24 DUP7 REVERT JUMPDEST POP POP POP POP POP JUMP JUMPDEST POP POP JUMP JUMPDEST PUSH2 0x17E0 SWAP2 SWAP3 POP RETURNDATASIZE DUP1 DUP7 DUP4 RETURNDATACOPY PUSH2 0x339 DUP2 DUP4 PUSH2 0x104E JUMP JUMPDEST SWAP1 CODESIZE PUSH2 0x16CD JUMP INVALID LOG2 PUSH5 0x6970667358 0x22 SLT KECCAK256 0x4F 0xFC SWAP9 GAS 0x4E PUSH32 0x52BEBA61BB9D249747558230CB3F9547D55F6CCB56BA3B1D80F64736F6C6343 STOP ADDMOD EQ STOP CALLER 0x2F DUP8 DUP9 GT PUSH31 0x7EFF1D82E926EC794901D17C78024A50270940304540A733656F0D00000000 "},"methodIdentifiers":{"DEFAULT_ADMIN_ROLE()":"a217fddf","EMERGENCY_ROLE()":"20df4359","EXECUTOR_ROLE()":"07bd0265","MAX_EXECUTION_DELAY()":"bc03d280","MIN_EXECUTION_DELAY()":"bcbde212","addMultiSigSigner(address)":"1f55f753","addSignature(uint256)":"3c345335","cancelExecution(uint256)":"a2d8a997","emergencyExecute(uint256)":"e8d9510a","executeScheduledProposals()":"c78682b7","executionQueue(uint256)":"0faaa3c8","getExecutionQueue(uint256)":"307d5c5d","getMultiSigConfig()":"568d9c2e","getProposalSignatures(uint256)":"16f2d7c0","getRoleAdmin(bytes32)":"248a9ca3","governanceToken()":"f96dae0a","grantRole(bytes32,address)":"2f2ff15d","hasRole(bytes32,address)":"91d14854","isExecutable(uint256)":"4e395e2a","isSigner(address)":"7df73e27","multiSigConfig()":"1a3dd653","proposalContract()":"3aef3900","proposalSignatureCount(uint256)":"a3fe6cb8","proposalSignatures(uint256,address)":"fdf6b911","queueCount()":"9ef36bd1","removeMultiSigSigner(address)":"b6877b79","renounceRole(bytes32,address)":"36568abe","revokeRole(bytes32,address)":"d547741f","scheduleExecution(uint256,uint256)":"2f8d0cd0","supportsInterface(bytes4)":"01ffc9a7","updateMultiSigConfig(uint256,uint256)":"dcf24fb1","vaultContract()":"2274346b"}}}}}