{"contracts/GovernanceToken.sol":{"GovernanceToken":{"abi":[{"inputs":[{"internalType":"string","name":"name","type":"string"},{"internalType":"string","name":"symbol","type":"string"},{"internalType":"address","name":"admin","type":"address"}],"stateMutability":"nonpayable","type":"constructor"},{"inputs":[],"name":"AccessControlBadConfirmation","type":"error"},{"inputs":[{"internalType":"address","name":"account","type":"address"},{"internalType":"bytes32","name":"neededRole","type":"bytes32"}],"name":"AccessControlUnauthorizedAccount","type":"error"},{"inputs":[{"internalType":"address","name":"spender","type":"address"},{"internalType":"uint256","name":"allowance","type":"uint256"},{"internalType":"uint256","name":"needed","type":"uint256"}],"name":"ERC20InsufficientAllowance","type":"error"},{"inputs":[{"internalType":"address","name":"sender","type":"address"},{"internalType":"uint256","name":"balance","type":"uint256"},{"internalType":"uint256","name":"needed","type":"uint256"}],"name":"ERC20InsufficientBalance","type":"error"},{"inputs":[{"internalType":"address","name":"approver","type":"address"}],"name":"ERC20InvalidApprover","type":"error"},{"inputs":[{"internalType":"address","name":"receiver","type":"address"}],"name":"ERC20InvalidReceiver","type":"error"},{"inputs":[{"internalType":"address","name":"sender","type":"address"}],"name":"ERC20InvalidSender","type":"error"},{"inputs":[{"internalType":"address","name":"spender","type":"address"}],"name":"ERC20InvalidSpender","type":"error"},{"anonymous":false,"inputs":[{"indexed":true,"internalType":"address","name":"owner","type":"address"},{"indexed":true,"internalType":"address","name":"spender","type":"address"},{"indexed":false,"internalType":"uint256","name":"value","type":"uint256"}],"name":"Approval","type":"event"},{"anonymous":false,"inputs":[{"indexed":false,"internalType":"uint8","name":"tier","type":"uint8"},{"indexed":false,"internalType":"uint256","name":"minAmount","type":"uint256"}],"name":"MemberTierUpdated","type":"event"},{"anonymous":false,"inputs":[{"indexed":true,"internalType":"address","name":"user","type":"address"},{"indexed":false,"internalType":"uint256","name":"amount","type":"uint256"}],"name":"RewardsClaimed","type":"event"},{"anonymous":false,"inputs":[{"indexed":true,"internalType":"bytes32","name":"role","type":"bytes32"},{"indexed":true,"internalType":"bytes32","name":"previousAdminRole","type":"bytes32"},{"indexed":true,"internalType":"bytes32","name":"newAdminRole","type":"bytes32"}],"name":"RoleAdminChanged","type":"event"},{"anonymous":false,"inputs":[{"indexed":true,"internalType":"bytes32","name":"role","type":"bytes32"},{"indexed":true,"internalType":"address","name":"account","type":"address"},{"indexed":true,"internalType":"address","name":"sender","type":"address"}],"name":"RoleGranted","type":"event"},{"anonymous":false,"inputs":[{"indexed":true,"internalType":"bytes32","name":"role","type":"bytes32"},{"indexed":true,"internalType":"address","name":"account","type":"address"},{"indexed":true,"internalType":"address","name":"sender","type":"address"}],"name":"RoleRevoked","type":"event"},{"anonymous":false,"inputs":[{"indexed":true,"internalType":"address","name":"user","type":"address"},{"indexed":false,"internalType":"uint256","name":"amount","type":"uint256"}],"name":"TokensStaked","type":"event"},{"anonymous":false,"inputs":[{"indexed":true,"internalType":"address","name":"user","type":"address"},{"indexed":false,"internalType":"uint256","name":"amount","type":"uint256"}],"name":"TokensUnstaked","type":"event"},{"anonymous":false,"inputs":[{"indexed":true,"internalType":"address","name":"from","type":"address"},{"indexed":true,"internalType":"address","name":"to","type":"address"},{"indexed":false,"internalType":"uint256","name":"value","type":"uint256"}],"name":"Transfer","type":"event"},{"inputs":[],"name":"DEFAULT_ADMIN_ROLE","outputs":[{"internalType":"bytes32","name":"","type":"bytes32"}],"stateMutability":"view","type":"function"},{"inputs":[],"name":"GOVERNANCE_ROLE","outputs":[{"internalType":"bytes32","name":"","type":"bytes32"}],"stateMutability":"view","type":"function"},{"inputs":[],"name":"LOCK_PERIOD","outputs":[{"internalType":"uint256","name":"","type":"uint256"}],"stateMutability":"view","type":"function"},{"inputs":[],"name":"MINTER_ROLE","outputs":[{"internalType":"bytes32","name":"","type":"bytes32"}],"stateMutability":"view","type":"function"},{"inputs":[],"name":"MIN_STAKE_AMOUNT","outputs":[{"internalType":"uint256","name":"","type":"uint256"}],"stateMutability":"view","type":"function"},{"inputs":[],"name":"REWARD_RATE","outputs":[{"internalType":"uint256","name":"","type":"uint256"}],"stateMutability":"view","type":"function"},{"inputs":[{"internalType":"address","name":"owner","type":"address"},{"internalType":"address","name":"spender","type":"address"}],"name":"allowance","outputs":[{"internalType":"uint256","name":"","type":"uint256"}],"stateMutability":"view","type":"function"},{"inputs":[{"internalType":"address","name":"spender","type":"address"},{"internalType":"uint256","name":"value","type":"uint256"}],"name":"approve","outputs":[{"internalType":"bool","name":"","type":"bool"}],"stateMutability":"nonpayable","type":"function"},{"inputs":[{"internalType":"address","name":"account","type":"address"}],"name":"balanceOf","outputs":[{"internalType":"uint256","name":"","type":"uint256"}],"stateMutability":"view","type":"function"},{"inputs":[{"internalType":"address","name":"user","type":"address"}],"name":"calculateRewards","outputs":[{"internalType":"uint256","name":"","type":"uint256"}],"stateMutability":"view","type":"function"},{"inputs":[],"name":"claimRewards","outputs":[],"stateMutability":"nonpayable","type":"function"},{"inputs":[],"name":"decimals","outputs":[{"internalType":"uint8","name":"","type":"uint8"}],"stateMutability":"view","type":"function"},{"inputs":[{"internalType":"address","name":"user","type":"address"}],"name":"getMemberTier","outputs":[{"internalType":"uint8","name":"","type":"uint8"}],"stateMutability":"view","type":"function"},{"inputs":[{"internalType":"bytes32","name":"role","type":"bytes32"}],"name":"getRoleAdmin","outputs":[{"internalType":"bytes32","name":"","type":"bytes32"}],"stateMutability":"view","type":"function"},{"inputs":[{"internalType":"address","name":"user","type":"address"}],"name":"getStakingStartTime","outputs":[{"internalType":"uint256","name":"","type":"uint256"}],"stateMutability":"view","type":"function"},{"inputs":[{"internalType":"address","name":"user","type":"address"}],"name":"getVotingPower","outputs":[{"internalType":"uint256","name":"","type":"uint256"}],"stateMutability":"view","type":"function"},{"inputs":[{"internalType":"bytes32","name":"role","type":"bytes32"},{"internalType":"address","name":"account","type":"address"}],"name":"grantRole","outputs":[],"stateMutability":"nonpayable","type":"function"},{"inputs":[{"internalType":"bytes32","name":"role","type":"bytes32"},{"internalType":"address","name":"account","type":"address"}],"name":"hasRole","outputs":[{"internalType":"bool","name":"","type":"bool"}],"stateMutability":"view","type":"function"},{"inputs":[{"internalType":"uint8","name":"","type":"uint8"}],"name":"memberTiers","outputs":[{"internalType":"uint256","name":"","type":"uint256"}],"stateMutability":"view","type":"function"},{"inputs":[{"internalType":"address","name":"to","type":"address"},{"internalType":"uint256","name":"amount","type":"uint256"}],"name":"mint","outputs":[],"stateMutability":"nonpayable","type":"function"},{"inputs":[],"name":"name","outputs":[{"internalType":"string","name":"","type":"string"}],"stateMutability":"view","type":"function"},{"inputs":[{"internalType":"bytes32","name":"role","type":"bytes32"},{"internalType":"address","name":"callerConfirmation","type":"address"}],"name":"renounceRole","outputs":[],"stateMutability":"nonpayable","type":"function"},{"inputs":[{"internalType":"bytes32","name":"role","type":"bytes32"},{"internalType":"address","name":"account","type":"address"}],"name":"revokeRole","outputs":[],"stateMutability":"nonpayable","type":"function"},{"inputs":[{"internalType":"uint8","name":"tier","type":"uint8"},{"internalType":"uint256","name":"minAmount","type":"uint256"}],"name":"setMemberTier","outputs":[],"stateMutability":"nonpayable","type":"function"},{"inputs":[{"internalType":"uint256","name":"amount","type":"uint256"}],"name":"stake","outputs":[],"stateMutability":"nonpayable","type":"function"},{"inputs":[{"internalType":"address","name":"user","type":"address"}],"name":"stakedBalanceOf","outputs":[{"internalType":"uint256","name":"","type":"uint256"}],"stateMutability":"view","type":"function"},{"inputs":[{"internalType":"address","name":"","type":"address"}],"name":"stakingInfo","outputs":[{"internalType":"uint256","name":"stakedAmount","type":"uint256"},{"internalType":"uint256","name":"stakingStartTime","type":"uint256"},{"internalType":"uint256","name":"lastRewardTime","type":"uint256"}],"stateMutability":"view","type":"function"},{"inputs":[{"internalType":"bytes4","name":"interfaceId","type":"bytes4"}],"name":"supportsInterface","outputs":[{"internalType":"bool","name":"","type":"bool"}],"stateMutability":"view","type":"function"},{"inputs":[],"name":"symbol","outputs":[{"internalType":"string","name":"","type":"string"}],"stateMutability":"view","type":"function"},{"inputs":[],"name":"totalSupply","outputs":[{"internalType":"uint256","name":"","type":"uint256"}],"stateMutability":"view","type":"function"},{"inputs":[{"internalType":"address","name":"to","type":"address"},{"internalType":"uint256","name":"value","type":"uint256"}],"name":"transfer","outputs":[{"internalType":"bool","name":"","type":"bool"}],"stateMutability":"nonpayable","type":"function"},{"inputs":[{"internalType":"address","name":"from","type":"address"},{"internalType":"address","name":"to","type":"address"},{"internalType":"uint256","name":"value","type":"uint256"}],"name":"transferFrom","outputs":[{"internalType":"bool","name":"","type":"bool"}],"stateMutability":"nonpayable","type":"function"},{"inputs":[{"internalType":"uint256","name":"amount","type":"uint256"}],"name":"unstake","outputs":[],"stateMutability":"nonpayable","type":"function"}],"evm":{"bytecode":{"linkReferences":{},"object":"60406080815234620003a9576200199c803803806200001e81620003ae565b9283398101606082820312620003a95781516001600160401b039190828111620003a9578162000050918501620003d4565b60209182850151848111620003a95786916200006e918701620003d4565b9401516001600160a01b0381168103620003a957815193808511620002a9576003948554906001948583811c931680156200039e575b8784101462000388578190601f9384811162000332575b508790848311600114620002cb57600092620002bf575b505060001982891b1c191690851b1786555b8651918211620002a95760049687548581811c911680156200029e575b8782101462000289578281116200023e575b5085918311600114620001cd5791806006969594926200016694600092620001c1575b505060001982891b1c191690841b1787555b620001538162000446565b506200015f81620004c7565b506200056a565b506000525268056bc75e2d6310000083600020556002600052681b1ae4d6e2ef5000008360002055600052683635c9adc5dea00000826000205560005269010f0cf064dd592000008160002055516113739081620006098239f35b01519050388062000136565b90601f1983169188600052866000209260005b81811062000228575092869593928592620001669660069a9995106200020f575b505050811b01875562000148565b0151600019838b1b60f8161c1916905538808062000201565b82840151855593870193928801928801620001e0565b88600052866000208380860160051c8201928987106200027f575b0160051c019086905b8281106200027257505062000113565b6000815501869062000262565b9250819262000259565b602289634e487b7160e01b6000525260246000fd5b90607f169062000101565b634e487b7160e01b600052604160045260246000fd5b015190503880620000d2565b90879350601f198316918a600052896000209260005b8b8282106200031b575050841162000302575b505050811b018655620000e4565b0151600019838b1b60f8161c19169055388080620002f4565b8385015186558b97909501949384019301620002e1565b90915088600052876000208480850160051c8201928a86106200037e575b918991869594930160051c01915b8281106200036e575050620000bb565b600081558594508991016200035e565b9250819262000350565b634e487b7160e01b600052602260045260246000fd5b92607f1692620000a4565b600080fd5b6040519190601f01601f191682016001600160401b03811183821017620002a957604052565b919080601f84011215620003a95782516001600160401b038111620002a9576020906200040a601f8201601f19168301620003ae565b92818452828287010111620003a95760005b8181106200043257508260009394955001015290565b85810183015184820184015282016200041c565b6001600160a01b031660008181527f05b8ccbb9d4d8fb16ea74ce3c29a41f1b461fbdaff4714a0d9a8eb05499746bc602052604081205490919060ff16620004c35781805260056020526040822081835260205260408220600160ff1982541617905533916000805160206200197c8339815191528180a4600190565b5090565b6001600160a01b031660008181527f15a28d26fa1bf736cf7edc9922607171ccb09c3c73b808e7772a3013e068a52260205260408120549091907f9f2df0fed2c77648de5860a4cc508cd0818c85b8b8a1ab4ceeef8d981c8956a69060ff16620005655780835260056020526040832082845260205260408320600160ff198254161790556000805160206200197c833981519152339380a4600190565b505090565b6001600160a01b031660008181527fa102ac9d4b71019c4c6719b27c9397e050b8ff78c88a44788b9e59eee4b9718160205260408120549091907f71840dc4906352362b0cdaf79870196c8e42acafade72d5d5a6d59291253ceb19060ff16620005655780835260056020526040832082845260205260408320600160ff198254161790556000805160206200197c833981519152339380a460019056fe608060408181526004918236101561001657600080fd5b600092833560e01c91826301ffc9a714610e1c5750816306fdde0314610d27578163095ea7b314610c7d5781631676539114610c4557816318160ddd14610c265781631820cabb14610c0857816323b872dd14610b14578163248a9ca314610ae957816327ed718814610ac55781632e17de78146109d75781632f2ff15d146109ad578163313ce5671461099157816336568abe1461094b578163372500ab1461089157816340c10f191461080b5781635997bb37146107ef5781635d8648fb146107be57816364ab86751461079857816370a08231146107615781638b3e97071461073157816391d14854146106ea57816394eecb501461069c57816395d89b4114610599578163a217fddf1461057e578163a694fc3a14610416578163a9059cbb146103e5578163b89d8144146103a9578163bb4d443614610330578163c3f601dc14610294578163d539139314610259578163d547741f1461021557508063dd62ed3e146101cd5763f36c8f5c1461019057600080fd5b346101c957816003193601126101c957602090517f71840dc4906352362b0cdaf79870196c8e42acafade72d5d5a6d59291253ceb18152f35b5080fd5b50346101c957806003193601126101c957806020926101ea610eb8565b6101f2610ed3565b6001600160a01b0391821683526001865283832091168252845220549051908152f35b91905034610255578060031936011261025557610251913561024c600161023a610ed3565b93838752600560205286200154610ef9565b610fbd565b5080f35b8280fd5b5050346101c957816003193601126101c957602090517f9f2df0fed2c77648de5860a4cc508cd0818c85b8b8a1ab4ceeef8d981c8956a68152f35b8383346101c957806003193601126101c9576102ae610ee9565b9260243590838052600560205282842033855260205260ff838520541615610313575060ff7fe133a88b3f4dd1c3ccf825c638c3c70fbbaa1adcd2e17942f77ba2d45c313c16939416908185526006602052808386205582519182526020820152a180f35b6044908484519163e2517d3f60e01b835233908301526024820152fd5b8284346103a65760203660031901126103a6576001600160a01b03610353610eb8565b16815280602052818120549060076020528281205490600f820291808304600f14901517156103935760208461038c600a85048661114a565b9051908152f35b634e487b7160e01b815260118552602490fd5b80fd5b5050346101c95760203660031901126101c95760209160019082906001600160a01b036103d4610eb8565b168152600785522001549051908152f35b5050346101c957806003193601126101c95760209061040f610405610eb8565b602435903361106c565b5160018152f35b91905034610255576020908160031936011261057a5782359268056bc75e2d631000008410610526573385528483528382862054106104d75750907fb539ca1e5c8d398ddf1c41c30166f33404941683be4683319b57669a93dad4ef913385526007825280852080546104ac575b61048f85303361106c565b61049a85825461114a565b8155600142910155519283523392a280f35b6104b5336111d8565b806104c1575b50610484565b6104cb903361116d565b426002820155386104bb565b82608492519162461bcd60e51b8352820152602560248201527f476f7665726e616e6365546f6b656e3a20696e73756666696369656e742062616044820152646c616e636560d81b6064820152fd5b82608492519162461bcd60e51b8352820152602a60248201527f476f7665726e616e6365546f6b656e3a20696e73756666696369656e74207374604482015269185ad948185b5bdd5b9d60b21b6064820152fd5b8380fd5b5050346101c957816003193601126101c95751908152602090f35b8383346101c957816003193601126101c957805191809380549160019083821c92828516948515610692575b602095868610811461067f5785895290811561065b5750600114610603575b6105ff87876105f5828c0383611034565b5191829182610e6f565b0390f35b81529295507f8a35acfbc15ff81a39ae7d344fd709f28e8600b4aa8c65c6b64bfe7fe36bd19b5b82841061064857505050826105ff946105f5928201019486806105e4565b805486850188015292860192810161062a565b60ff19168887015250505050151560051b83010192506105f5826105ff86806105e4565b634e487b7160e01b845260228352602484fd5b93607f16936105c5565b5050346101c95760203660031901126101c95760609181906001600160a01b036106c4610eb8565b168152600760205220805491600260018301549201549181519384526020840152820152f35b9050346102555781600319360112610255578160209360ff9261070b610ed3565b90358252600586528282206001600160a01b039091168252855220549151911615158152f35b5050346101c95760203660031901126101c95760209060ff610759610754610eb8565b611262565b915191168152f35b5050346101c95760203660031901126101c95760209181906001600160a01b03610789610eb8565b16815280845220549051908152f35b5050346101c95760203660031901126101c95760209061038c6107b9610eb8565b6111d8565b5050346101c95760203660031901126101c9578060209260ff6107df610ee9565b1681526006845220549051908152f35b5050346101c957816003193601126101c9576020905160058152f35b905034610255578160031936011261025557610825610eb8565b917f9f2df0fed2c77648de5860a4cc508cd0818c85b8b8a1ab4ceeef8d981c8956a690818552600560205280852033865260205260ff81862054161561087557846108726024358661116d565b80f35b60449350519163e2517d3f60e01b835233908301526024820152fd5b919050346102555782600319360112610255576108ad336111d8565b9182156108fd575033835260076020528083206002429101556108d0823361116d565b519081527ffc30cddea38e2bf4d6ea7d3f9ed3b6ad7f176419f4963bd81318067a4aee73fe60203392a280f35b6020608492519162461bcd60e51b83528201526024808201527f476f7665726e616e6365546f6b656e3a206e6f207265776172647320746f20636044820152636c61696d60e01b6064820152fd5b8383346101c957806003193601126101c957610965610ed3565b90336001600160a01b038316036109825750610251919235610fbd565b5163334bd91960e11b81528390fd5b5050346101c957816003193601126101c9576020905160128152f35b9190503461025557806003193601126102555761025191356109d2600161023a610ed3565b610f3d565b919050346102555760203660031901126102555781359133845260076020528184209083825410610a6e5750610a0c336111d8565b80610a58575b50610a1e8382546111cb565b9055610a2b82333061106c565b519081527f9845e367b683334e5c0b12d7b81721ac518e649376fa65e3d68324e8f34f267960203392a280f35b610a62903361116d565b42600282015538610a12565b608490602084519162461bcd60e51b8352820152602b60248201527f476f7665726e616e6365546f6b656e3a20696e73756666696369656e7420737460448201526a185ad95908185b5bdd5b9d60aa1b6064820152fd5b5050346101c957816003193601126101c9576020905168056bc75e2d631000008152f35b9050346102555760203660031901126102555781602093600192358152600585522001549051908152f35b905082346103a65760603660031901126103a657610b30610eb8565b610b38610ed3565b916044359360018060a01b038316808352600160205286832033845260205286832054916000198310610b74575b60208861040f89898961106c565b868310610bdc578115610bc5573315610bae5750825260016020908152868320338452815291869020908590039055829061040f87610b66565b8751634a1406b160e11b8152908101849052602490fd5b875163e602df0560e01b8152908101849052602490fd5b8751637dc7a0d960e11b8152339181019182526020820193909352604081018790528291506060010390fd5b5050346101c957816003193601126101c9576020905162278d008152f35b5050346101c957816003193601126101c9576020906002549051908152f35b5050346101c95760203660031901126101c95760209181906001600160a01b03610c6d610eb8565b1681526007845220549051908152f35b905034610255578160031936011261025557610c97610eb8565b602435903315610d10576001600160a01b0316918215610cf957508083602095338152600187528181208582528752205582519081527f8c5be1e5ebec7d5bd14f71427d1e84f3dd0314c0f7b2291e5b200ac8c7c3b925843392a35160018152f35b8351634a1406b160e11b8152908101859052602490fd5b835163e602df0560e01b8152808401869052602490fd5b91905034610255578260031936011261025557805191836003549060019082821c928281168015610e12575b6020958686108214610dff5750848852908115610ddd5750600114610d84575b6105ff86866105f5828b0383611034565b929550600383527fc2575a0e9e593c00f959f8c92f12db2869c3395a3b0502d05e2516446f71f85b5b828410610dca57505050826105ff946105f5928201019438610d73565b8054868501880152928601928101610dad565b60ff191687860152505050151560051b83010192506105f5826105ff38610d73565b634e487b7160e01b845260229052602483fd5b93607f1693610d53565b849134610255576020366003190112610255573563ffffffff60e01b81168091036102555760209250637965db0b60e01b8114908115610e5e575b5015158152f35b6301ffc9a760e01b14905083610e57565b6020808252825181830181905290939260005b828110610ea457505060409293506000838284010152601f8019910116010190565b818101860151848201604001528501610e82565b600435906001600160a01b0382168203610ece57565b600080fd5b602435906001600160a01b0382168203610ece57565b6004359060ff82168203610ece57565b80600052600560205260406000203360005260205260ff6040600020541615610f1f5750565b6044906040519063e2517d3f60e01b82523360048301526024820152fd5b906000918083526005602052604083209160018060a01b03169182845260205260ff60408420541615600014610fb85780835260056020526040832082845260205260408320600160ff198254161790557f2f8788117e7eff1d82e926ec794901d17c78024a50270940304540a733656f0d339380a4600190565b505090565b906000918083526005602052604083209160018060a01b03169182845260205260ff604084205416600014610fb8578083526005602052604083208284526020526040832060ff1981541690557ff6391f5c32d9c69d2a47ea670b442974b53935d1edc7fd64eb21e047a839171b339380a4600190565b90601f8019910116810190811067ffffffffffffffff82111761105657604052565b634e487b7160e01b600052604160045260246000fd5b916001600160a01b03808416928315611131571692831561111857600090838252816020526040822054908382106110e6575091604082827fddf252ad1be2c89b69c2b068fc378daa952ba7f163c4a11628f55a4df523b3ef958760209652828652038282205586815220818154019055604051908152a3565b60405163391434e360e21b81526001600160a01b03919091166004820152602481019190915260448101839052606490fd5b60405163ec442f0560e01b815260006004820152602490fd5b604051634b637e8f60e11b815260006004820152602490fd5b9190820180921161115757565b634e487b7160e01b600052601160045260246000fd5b6001600160a01b0316908115611118577fddf252ad1be2c89b69c2b068fc378daa952ba7f163c4a11628f55a4df523b3ef6020826111af60009460025461114a565b60025584845283825260408420818154019055604051908152a3565b9190820391821161115757565b6001600160a01b0316600090815260076020526040812080549190821561125c576002611207910154426111cb565b916005810290808204600503611248578302600502928115918404141715611234575063bbf81e00900490565b634e487b7160e01b81526011600452602490fd5b634e487b7160e01b83526011600452602483fd5b50905090565b60408051635da6a21b60e11b81526001600160a01b039092166004830152602082602481305afa918215611332576000926112ff575b506004600052600660205280600020548210156112f857600360005280600020548210156112f157600260005280600020548210156112ea5760016000526000205411156112e557600090565b600190565b5050600290565b5050600390565b5050600490565b90916020823d821161132a575b8161131960209383611034565b810103126103a65750519038611298565b3d915061130c565b50513d6000823e3d90fdfea2646970667358221220b8ac8523e60848ab37925f4e6511978cebb53f48c19405fb5eb214a3e84bfa6164736f6c634300081400332f8788117e7eff1d82e926ec794901d17c78024a50270940304540a733656f0d","opcodes":"PUSH1 0x40 PUSH1 0x80 DUP2 MSTORE CALLVALUE PUSH3 0x3A9 JUMPI PUSH3 0x199C DUP1 CODESIZE SUB DUP1 PUSH3 0x1E DUP2 PUSH3 0x3AE JUMP JUMPDEST SWAP3 DUP4 CODECOPY DUP2 ADD PUSH1 0x60 DUP3 DUP3 SUB SLT PUSH3 0x3A9 JUMPI DUP2 MLOAD PUSH1 0x1 PUSH1 0x1 PUSH1 0x40 SHL SUB SWAP2 SWAP1 DUP3 DUP2 GT PUSH3 0x3A9 JUMPI DUP2 PUSH3 0x50 SWAP2 DUP6 ADD PUSH3 0x3D4 JUMP JUMPDEST PUSH1 0x20 SWAP2 DUP3 DUP6 ADD MLOAD DUP5 DUP2 GT PUSH3 0x3A9 JUMPI DUP7 SWAP2 PUSH3 0x6E SWAP2 DUP8 ADD PUSH3 0x3D4 JUMP JUMPDEST SWAP5 ADD MLOAD PUSH1 0x1 PUSH1 0x1 PUSH1 0xA0 SHL SUB DUP2 AND DUP2 SUB PUSH3 0x3A9 JUMPI DUP2 MLOAD SWAP4 DUP1 DUP6 GT PUSH3 0x2A9 JUMPI PUSH1 0x3 SWAP5 DUP6 SLOAD SWAP1 PUSH1 0x1 SWAP5 DUP6 DUP4 DUP2 SHR SWAP4 AND DUP1 ISZERO PUSH3 0x39E JUMPI JUMPDEST DUP8 DUP5 LT EQ PUSH3 0x388 JUMPI DUP2 SWAP1 PUSH1 0x1F SWAP4 DUP5 DUP2 GT PUSH3 0x332 JUMPI JUMPDEST POP DUP8 SWAP1 DUP5 DUP4 GT PUSH1 0x1 EQ PUSH3 0x2CB JUMPI PUSH1 0x0 SWAP3 PUSH3 0x2BF JUMPI JUMPDEST POP POP PUSH1 0x0 NOT DUP3 DUP10 SHL SHR NOT AND SWAP1 DUP6 SHL OR DUP7 SSTORE JUMPDEST DUP7 MLOAD SWAP2 DUP3 GT PUSH3 0x2A9 JUMPI PUSH1 0x4 SWAP7 DUP8 SLOAD DUP6 DUP2 DUP2 SHR SWAP2 AND DUP1 ISZERO PUSH3 0x29E JUMPI JUMPDEST DUP8 DUP3 LT EQ PUSH3 0x289 JUMPI DUP3 DUP2 GT PUSH3 0x23E JUMPI JUMPDEST POP DUP6 SWAP2 DUP4 GT PUSH1 0x1 EQ PUSH3 0x1CD JUMPI SWAP2 DUP1 PUSH1 0x6 SWAP7 SWAP6 SWAP5 SWAP3 PUSH3 0x166 SWAP5 PUSH1 0x0 SWAP3 PUSH3 0x1C1 JUMPI JUMPDEST POP POP PUSH1 0x0 NOT DUP3 DUP10 SHL SHR NOT AND SWAP1 DUP5 SHL OR DUP8 SSTORE JUMPDEST PUSH3 0x153 DUP2 PUSH3 0x446 JUMP JUMPDEST POP PUSH3 0x15F DUP2 PUSH3 0x4C7 JUMP JUMPDEST POP PUSH3 0x56A JUMP JUMPDEST POP PUSH1 0x0 MSTORE MSTORE PUSH9 0x56BC75E2D63100000 DUP4 PUSH1 0x0 KECCAK256 SSTORE PUSH1 0x2 PUSH1 0x0 MSTORE PUSH9 0x1B1AE4D6E2EF500000 DUP4 PUSH1 0x0 KECCAK256 SSTORE PUSH1 0x0 MSTORE PUSH9 0x3635C9ADC5DEA00000 DUP3 PUSH1 0x0 KECCAK256 SSTORE PUSH1 0x0 MSTORE PUSH10 0x10F0CF064DD59200000 DUP2 PUSH1 0x0 KECCAK256 SSTORE MLOAD PUSH2 0x1373 SWAP1 DUP2 PUSH3 0x609 DUP3 CODECOPY RETURN JUMPDEST ADD MLOAD SWAP1 POP CODESIZE DUP1 PUSH3 0x136 JUMP JUMPDEST SWAP1 PUSH1 0x1F NOT DUP4 AND SWAP2 DUP9 PUSH1 0x0 MSTORE DUP7 PUSH1 0x0 KECCAK256 SWAP3 PUSH1 0x0 JUMPDEST DUP2 DUP2 LT PUSH3 0x228 JUMPI POP SWAP3 DUP7 SWAP6 SWAP4 SWAP3 DUP6 SWAP3 PUSH3 0x166 SWAP7 PUSH1 0x6 SWAP11 SWAP10 SWAP6 LT PUSH3 0x20F JUMPI JUMPDEST POP POP POP DUP2 SHL ADD DUP8 SSTORE PUSH3 0x148 JUMP JUMPDEST ADD MLOAD PUSH1 0x0 NOT DUP4 DUP12 SHL PUSH1 0xF8 AND SHR NOT AND SWAP1 SSTORE CODESIZE DUP1 DUP1 PUSH3 0x201 JUMP JUMPDEST DUP3 DUP5 ADD MLOAD DUP6 SSTORE SWAP4 DUP8 ADD SWAP4 SWAP3 DUP9 ADD SWAP3 DUP9 ADD PUSH3 0x1E0 JUMP JUMPDEST DUP9 PUSH1 0x0 MSTORE DUP7 PUSH1 0x0 KECCAK256 DUP4 DUP1 DUP7 ADD PUSH1 0x5 SHR DUP3 ADD SWAP3 DUP10 DUP8 LT PUSH3 0x27F JUMPI JUMPDEST ADD PUSH1 0x5 SHR ADD SWAP1 DUP7 SWAP1 JUMPDEST DUP3 DUP2 LT PUSH3 0x272 JUMPI POP POP PUSH3 0x113 JUMP JUMPDEST PUSH1 0x0 DUP2 SSTORE ADD DUP7 SWAP1 PUSH3 0x262 JUMP JUMPDEST SWAP3 POP DUP2 SWAP3 PUSH3 0x259 JUMP JUMPDEST PUSH1 0x22 DUP10 PUSH4 0x4E487B71 PUSH1 0xE0 SHL PUSH1 0x0 MSTORE MSTORE PUSH1 0x24 PUSH1 0x0 REVERT JUMPDEST SWAP1 PUSH1 0x7F AND SWAP1 PUSH3 0x101 JUMP JUMPDEST PUSH4 0x4E487B71 PUSH1 0xE0 SHL PUSH1 0x0 MSTORE PUSH1 0x41 PUSH1 0x4 MSTORE PUSH1 0x24 PUSH1 0x0 REVERT JUMPDEST ADD MLOAD SWAP1 POP CODESIZE DUP1 PUSH3 0xD2 JUMP JUMPDEST SWAP1 DUP8 SWAP4 POP PUSH1 0x1F NOT DUP4 AND SWAP2 DUP11 PUSH1 0x0 MSTORE DUP10 PUSH1 0x0 KECCAK256 SWAP3 PUSH1 0x0 JUMPDEST DUP12 DUP3 DUP3 LT PUSH3 0x31B JUMPI POP POP DUP5 GT PUSH3 0x302 JUMPI JUMPDEST POP POP POP DUP2 SHL ADD DUP7 SSTORE PUSH3 0xE4 JUMP JUMPDEST ADD MLOAD PUSH1 0x0 NOT DUP4 DUP12 SHL PUSH1 0xF8 AND SHR NOT AND SWAP1 SSTORE CODESIZE DUP1 DUP1 PUSH3 0x2F4 JUMP JUMPDEST DUP4 DUP6 ADD MLOAD DUP7 SSTORE DUP12 SWAP8 SWAP1 SWAP6 ADD SWAP5 SWAP4 DUP5 ADD SWAP4 ADD PUSH3 0x2E1 JUMP JUMPDEST SWAP1 SWAP2 POP DUP9 PUSH1 0x0 MSTORE DUP8 PUSH1 0x0 KECCAK256 DUP5 DUP1 DUP6 ADD PUSH1 0x5 SHR DUP3 ADD SWAP3 DUP11 DUP7 LT PUSH3 0x37E JUMPI JUMPDEST SWAP2 DUP10 SWAP2 DUP7 SWAP6 SWAP5 SWAP4 ADD PUSH1 0x5 SHR ADD SWAP2 JUMPDEST DUP3 DUP2 LT PUSH3 0x36E JUMPI POP POP PUSH3 0xBB JUMP JUMPDEST PUSH1 0x0 DUP2 SSTORE DUP6 SWAP5 POP DUP10 SWAP2 ADD PUSH3 0x35E JUMP JUMPDEST SWAP3 POP DUP2 SWAP3 PUSH3 0x350 JUMP JUMPDEST PUSH4 0x4E487B71 PUSH1 0xE0 SHL PUSH1 0x0 MSTORE PUSH1 0x22 PUSH1 0x4 MSTORE PUSH1 0x24 PUSH1 0x0 REVERT JUMPDEST SWAP3 PUSH1 0x7F AND SWAP3 PUSH3 0xA4 JUMP JUMPDEST PUSH1 0x0 DUP1 REVERT JUMPDEST PUSH1 0x40 MLOAD SWAP2 SWAP1 PUSH1 0x1F ADD PUSH1 0x1F NOT AND DUP3 ADD PUSH1 0x1 PUSH1 0x1 PUSH1 0x40 SHL SUB DUP2 GT DUP4 DUP3 LT OR PUSH3 0x2A9 JUMPI PUSH1 0x40 MSTORE JUMP JUMPDEST SWAP2 SWAP1 DUP1 PUSH1 0x1F DUP5 ADD SLT ISZERO PUSH3 0x3A9 JUMPI DUP3 MLOAD PUSH1 0x1 PUSH1 0x1 PUSH1 0x40 SHL SUB DUP2 GT PUSH3 0x2A9 JUMPI PUSH1 0x20 SWAP1 PUSH3 0x40A PUSH1 0x1F DUP3 ADD PUSH1 0x1F NOT AND DUP4 ADD PUSH3 0x3AE JUMP JUMPDEST SWAP3 DUP2 DUP5 MSTORE DUP3 DUP3 DUP8 ADD ADD GT PUSH3 0x3A9 JUMPI PUSH1 0x0 JUMPDEST DUP2 DUP2 LT PUSH3 0x432 JUMPI POP DUP3 PUSH1 0x0 SWAP4 SWAP5 SWAP6 POP ADD ADD MSTORE SWAP1 JUMP JUMPDEST DUP6 DUP2 ADD DUP4 ADD MLOAD DUP5 DUP3 ADD DUP5 ADD MSTORE DUP3 ADD PUSH3 0x41C JUMP JUMPDEST PUSH1 0x1 PUSH1 0x1 PUSH1 0xA0 SHL SUB AND PUSH1 0x0 DUP2 DUP2 MSTORE PUSH32 0x5B8CCBB9D4D8FB16EA74CE3C29A41F1B461FBDAFF4714A0D9A8EB05499746BC PUSH1 0x20 MSTORE PUSH1 0x40 DUP2 KECCAK256 SLOAD SWAP1 SWAP2 SWAP1 PUSH1 0xFF AND PUSH3 0x4C3 JUMPI DUP2 DUP1 MSTORE PUSH1 0x5 PUSH1 0x20 MSTORE PUSH1 0x40 DUP3 KECCAK256 DUP2 DUP4 MSTORE PUSH1 0x20 MSTORE PUSH1 0x40 DUP3 KECCAK256 PUSH1 0x1 PUSH1 0xFF NOT DUP3 SLOAD AND OR SWAP1 SSTORE CALLER SWAP2 PUSH1 0x0 DUP1 MLOAD PUSH1 0x20 PUSH3 0x197C DUP4 CODECOPY DUP2 MLOAD SWAP2 MSTORE DUP2 DUP1 LOG4 PUSH1 0x1 SWAP1 JUMP JUMPDEST POP SWAP1 JUMP JUMPDEST PUSH1 0x1 PUSH1 0x1 PUSH1 0xA0 SHL SUB AND PUSH1 0x0 DUP2 DUP2 MSTORE PUSH32 0x15A28D26FA1BF736CF7EDC9922607171CCB09C3C73B808E7772A3013E068A522 PUSH1 0x20 MSTORE PUSH1 0x40 DUP2 KECCAK256 SLOAD SWAP1 SWAP2 SWAP1 PUSH32 0x9F2DF0FED2C77648DE5860A4CC508CD0818C85B8B8A1AB4CEEEF8D981C8956A6 SWAP1 PUSH1 0xFF AND PUSH3 0x565 JUMPI DUP1 DUP4 MSTORE PUSH1 0x5 PUSH1 0x20 MSTORE PUSH1 0x40 DUP4 KECCAK256 DUP3 DUP5 MSTORE PUSH1 0x20 MSTORE PUSH1 0x40 DUP4 KECCAK256 PUSH1 0x1 PUSH1 0xFF NOT DUP3 SLOAD AND OR SWAP1 SSTORE PUSH1 0x0 DUP1 MLOAD PUSH1 0x20 PUSH3 0x197C DUP4 CODECOPY DUP2 MLOAD SWAP2 MSTORE CALLER SWAP4 DUP1 LOG4 PUSH1 0x1 SWAP1 JUMP JUMPDEST POP POP SWAP1 JUMP JUMPDEST PUSH1 0x1 PUSH1 0x1 PUSH1 0xA0 SHL SUB AND PUSH1 0x0 DUP2 DUP2 MSTORE PUSH32 0xA102AC9D4B71019C4C6719B27C9397E050B8FF78C88A44788B9E59EEE4B97181 PUSH1 0x20 MSTORE PUSH1 0x40 DUP2 KECCAK256 SLOAD SWAP1 SWAP2 SWAP1 PUSH32 0x71840DC4906352362B0CDAF79870196C8E42ACAFADE72D5D5A6D59291253CEB1 SWAP1 PUSH1 0xFF AND PUSH3 0x565 JUMPI DUP1 DUP4 MSTORE PUSH1 0x5 PUSH1 0x20 MSTORE PUSH1 0x40 DUP4 KECCAK256 DUP3 DUP5 MSTORE PUSH1 0x20 MSTORE PUSH1 0x40 DUP4 KECCAK256 PUSH1 0x1 PUSH1 0xFF NOT DUP3 SLOAD AND OR SWAP1 SSTORE PUSH1 0x0 DUP1 MLOAD PUSH1 0x20 PUSH3 0x197C DUP4 CODECOPY DUP2 MLOAD SWAP2 MSTORE CALLER SWAP4 DUP1 LOG4 PUSH1 0x1 SWAP1 JUMP INVALID PUSH1 0x80 PUSH1 0x40 DUP2 DUP2 MSTORE PUSH1 0x4 SWAP2 DUP3 CALLDATASIZE LT ISZERO PUSH2 0x16 JUMPI PUSH1 0x0 DUP1 REVERT JUMPDEST PUSH1 0x0 SWAP3 DUP4 CALLDATALOAD PUSH1 0xE0 SHR SWAP2 DUP3 PUSH4 0x1FFC9A7 EQ PUSH2 0xE1C JUMPI POP DUP2 PUSH4 0x6FDDE03 EQ PUSH2 0xD27 JUMPI DUP2 PUSH4 0x95EA7B3 EQ PUSH2 0xC7D JUMPI DUP2 PUSH4 0x16765391 EQ PUSH2 0xC45 JUMPI DUP2 PUSH4 0x18160DDD EQ PUSH2 0xC26 JUMPI DUP2 PUSH4 0x1820CABB EQ PUSH2 0xC08 JUMPI DUP2 PUSH4 0x23B872DD EQ PUSH2 0xB14 JUMPI DUP2 PUSH4 0x248A9CA3 EQ PUSH2 0xAE9 JUMPI DUP2 PUSH4 0x27ED7188 EQ PUSH2 0xAC5 JUMPI DUP2 PUSH4 0x2E17DE78 EQ PUSH2 0x9D7 JUMPI DUP2 PUSH4 0x2F2FF15D EQ PUSH2 0x9AD JUMPI DUP2 PUSH4 0x313CE567 EQ PUSH2 0x991 JUMPI DUP2 PUSH4 0x36568ABE EQ PUSH2 0x94B JUMPI DUP2 PUSH4 0x372500AB EQ PUSH2 0x891 JUMPI DUP2 PUSH4 0x40C10F19 EQ PUSH2 0x80B JUMPI DUP2 PUSH4 0x5997BB37 EQ PUSH2 0x7EF JUMPI DUP2 PUSH4 0x5D8648FB EQ PUSH2 0x7BE JUMPI DUP2 PUSH4 0x64AB8675 EQ PUSH2 0x798 JUMPI DUP2 PUSH4 0x70A08231 EQ PUSH2 0x761 JUMPI DUP2 PUSH4 0x8B3E9707 EQ PUSH2 0x731 JUMPI DUP2 PUSH4 0x91D14854 EQ PUSH2 0x6EA JUMPI DUP2 PUSH4 0x94EECB50 EQ PUSH2 0x69C JUMPI DUP2 PUSH4 0x95D89B41 EQ PUSH2 0x599 JUMPI DUP2 PUSH4 0xA217FDDF EQ PUSH2 0x57E JUMPI DUP2 PUSH4 0xA694FC3A EQ PUSH2 0x416 JUMPI DUP2 PUSH4 0xA9059CBB EQ PUSH2 0x3E5 JUMPI DUP2 PUSH4 0xB89D8144 EQ PUSH2 0x3A9 JUMPI DUP2 PUSH4 0xBB4D4436 EQ PUSH2 0x330 JUMPI DUP2 PUSH4 0xC3F601DC EQ PUSH2 0x294 JUMPI DUP2 PUSH4 0xD5391393 EQ PUSH2 0x259 JUMPI DUP2 PUSH4 0xD547741F EQ PUSH2 0x215 JUMPI POP DUP1 PUSH4 0xDD62ED3E EQ PUSH2 0x1CD JUMPI PUSH4 0xF36C8F5C EQ PUSH2 0x190 JUMPI PUSH1 0x0 DUP1 REVERT JUMPDEST CALLVALUE PUSH2 0x1C9 JUMPI DUP2 PUSH1 0x3 NOT CALLDATASIZE ADD SLT PUSH2 0x1C9 JUMPI PUSH1 0x20 SWAP1 MLOAD PUSH32 0x71840DC4906352362B0CDAF79870196C8E42ACAFADE72D5D5A6D59291253CEB1 DUP2 MSTORE RETURN JUMPDEST POP DUP1 REVERT JUMPDEST POP CALLVALUE PUSH2 0x1C9 JUMPI DUP1 PUSH1 0x3 NOT CALLDATASIZE ADD SLT PUSH2 0x1C9 JUMPI DUP1 PUSH1 0x20 SWAP3 PUSH2 0x1EA PUSH2 0xEB8 JUMP JUMPDEST PUSH2 0x1F2 PUSH2 0xED3 JUMP JUMPDEST PUSH1 0x1 PUSH1 0x1 PUSH1 0xA0 SHL SUB SWAP2 DUP3 AND DUP4 MSTORE PUSH1 0x1 DUP7 MSTORE DUP4 DUP4 KECCAK256 SWAP2 AND DUP3 MSTORE DUP5 MSTORE KECCAK256 SLOAD SWAP1 MLOAD SWAP1 DUP2 MSTORE RETURN JUMPDEST SWAP2 SWAP1 POP CALLVALUE PUSH2 0x255 JUMPI DUP1 PUSH1 0x3 NOT CALLDATASIZE ADD SLT PUSH2 0x255 JUMPI PUSH2 0x251 SWAP2 CALLDATALOAD PUSH2 0x24C PUSH1 0x1 PUSH2 0x23A PUSH2 0xED3 JUMP JUMPDEST SWAP4 DUP4 DUP8 MSTORE PUSH1 0x5 PUSH1 0x20 MSTORE DUP7 KECCAK256 ADD SLOAD PUSH2 0xEF9 JUMP JUMPDEST PUSH2 0xFBD JUMP JUMPDEST POP DUP1 RETURN JUMPDEST DUP3 DUP1 REVERT JUMPDEST POP POP CALLVALUE PUSH2 0x1C9 JUMPI DUP2 PUSH1 0x3 NOT CALLDATASIZE ADD SLT PUSH2 0x1C9 JUMPI PUSH1 0x20 SWAP1 MLOAD PUSH32 0x9F2DF0FED2C77648DE5860A4CC508CD0818C85B8B8A1AB4CEEEF8D981C8956A6 DUP2 MSTORE RETURN JUMPDEST DUP4 DUP4 CALLVALUE PUSH2 0x1C9 JUMPI DUP1 PUSH1 0x3 NOT CALLDATASIZE ADD SLT PUSH2 0x1C9 JUMPI PUSH2 0x2AE PUSH2 0xEE9 JUMP JUMPDEST SWAP3 PUSH1 0x24 CALLDATALOAD SWAP1 DUP4 DUP1 MSTORE PUSH1 0x5 PUSH1 0x20 MSTORE DUP3 DUP5 KECCAK256 CALLER DUP6 MSTORE PUSH1 0x20 MSTORE PUSH1 0xFF DUP4 DUP6 KECCAK256 SLOAD AND ISZERO PUSH2 0x313 JUMPI POP PUSH1 0xFF PUSH32 0xE133A88B3F4DD1C3CCF825C638C3C70FBBAA1ADCD2E17942F77BA2D45C313C16 SWAP4 SWAP5 AND SWAP1 DUP2 DUP6 MSTORE PUSH1 0x6 PUSH1 0x20 MSTORE DUP1 DUP4 DUP7 KECCAK256 SSTORE DUP3 MLOAD SWAP2 DUP3 MSTORE PUSH1 0x20 DUP3 ADD MSTORE LOG1 DUP1 RETURN JUMPDEST PUSH1 0x44 SWAP1 DUP5 DUP5 MLOAD SWAP2 PUSH4 0xE2517D3F PUSH1 0xE0 SHL DUP4 MSTORE CALLER SWAP1 DUP4 ADD MSTORE PUSH1 0x24 DUP3 ADD MSTORE REVERT JUMPDEST DUP3 DUP5 CALLVALUE PUSH2 0x3A6 JUMPI PUSH1 0x20 CALLDATASIZE PUSH1 0x3 NOT ADD SLT PUSH2 0x3A6 JUMPI PUSH1 0x1 PUSH1 0x1 PUSH1 0xA0 SHL SUB PUSH2 0x353 PUSH2 0xEB8 JUMP JUMPDEST AND DUP2 MSTORE DUP1 PUSH1 0x20 MSTORE DUP2 DUP2 KECCAK256 SLOAD SWAP1 PUSH1 0x7 PUSH1 0x20 MSTORE DUP3 DUP2 KECCAK256 SLOAD SWAP1 PUSH1 0xF DUP3 MUL SWAP2 DUP1 DUP4 DIV PUSH1 0xF EQ SWAP1 ISZERO OR ISZERO PUSH2 0x393 JUMPI PUSH1 0x20 DUP5 PUSH2 0x38C PUSH1 0xA DUP6 DIV DUP7 PUSH2 0x114A JUMP JUMPDEST SWAP1 MLOAD SWAP1 DUP2 MSTORE RETURN JUMPDEST PUSH4 0x4E487B71 PUSH1 0xE0 SHL DUP2 MSTORE PUSH1 0x11 DUP6 MSTORE PUSH1 0x24 SWAP1 REVERT JUMPDEST DUP1 REVERT JUMPDEST POP POP CALLVALUE PUSH2 0x1C9 JUMPI PUSH1 0x20 CALLDATASIZE PUSH1 0x3 NOT ADD SLT PUSH2 0x1C9 JUMPI PUSH1 0x20 SWAP2 PUSH1 0x1 SWAP1 DUP3 SWAP1 PUSH1 0x1 PUSH1 0x1 PUSH1 0xA0 SHL SUB PUSH2 0x3D4 PUSH2 0xEB8 JUMP JUMPDEST AND DUP2 MSTORE PUSH1 0x7 DUP6 MSTORE KECCAK256 ADD SLOAD SWAP1 MLOAD SWAP1 DUP2 MSTORE RETURN JUMPDEST POP POP CALLVALUE PUSH2 0x1C9 JUMPI DUP1 PUSH1 0x3 NOT CALLDATASIZE ADD SLT PUSH2 0x1C9 JUMPI PUSH1 0x20 SWAP1 PUSH2 0x40F PUSH2 0x405 PUSH2 0xEB8 JUMP JUMPDEST PUSH1 0x24 CALLDATALOAD SWAP1 CALLER PUSH2 0x106C JUMP JUMPDEST MLOAD PUSH1 0x1 DUP2 MSTORE RETURN JUMPDEST SWAP2 SWAP1 POP CALLVALUE PUSH2 0x255 JUMPI PUSH1 0x20 SWAP1 DUP2 PUSH1 0x3 NOT CALLDATASIZE ADD SLT PUSH2 0x57A JUMPI DUP3 CALLDATALOAD SWAP3 PUSH9 0x56BC75E2D63100000 DUP5 LT PUSH2 0x526 JUMPI CALLER DUP6 MSTORE DUP5 DUP4 MSTORE DUP4 DUP3 DUP7 KECCAK256 SLOAD LT PUSH2 0x4D7 JUMPI POP SWAP1 PUSH32 0xB539CA1E5C8D398DDF1C41C30166F33404941683BE4683319B57669A93DAD4EF SWAP2 CALLER DUP6 MSTORE PUSH1 0x7 DUP3 MSTORE DUP1 DUP6 KECCAK256 DUP1 SLOAD PUSH2 0x4AC JUMPI JUMPDEST PUSH2 0x48F DUP6 ADDRESS CALLER PUSH2 0x106C JUMP JUMPDEST PUSH2 0x49A DUP6 DUP3 SLOAD PUSH2 0x114A JUMP JUMPDEST DUP2 SSTORE PUSH1 0x1 TIMESTAMP SWAP2 ADD SSTORE MLOAD SWAP3 DUP4 MSTORE CALLER SWAP3 LOG2 DUP1 RETURN JUMPDEST PUSH2 0x4B5 CALLER PUSH2 0x11D8 JUMP JUMPDEST DUP1 PUSH2 0x4C1 JUMPI JUMPDEST POP PUSH2 0x484 JUMP JUMPDEST PUSH2 0x4CB SWAP1 CALLER PUSH2 0x116D JUMP JUMPDEST TIMESTAMP PUSH1 0x2 DUP3 ADD SSTORE CODESIZE PUSH2 0x4BB JUMP JUMPDEST DUP3 PUSH1 0x84 SWAP3 MLOAD SWAP2 PUSH3 0x461BCD PUSH1 0xE5 SHL DUP4 MSTORE DUP3 ADD MSTORE PUSH1 0x25 PUSH1 0x24 DUP3 ADD MSTORE PUSH32 0x476F7665726E616E6365546F6B656E3A20696E73756666696369656E74206261 PUSH1 0x44 DUP3 ADD MSTORE PUSH5 0x6C616E6365 PUSH1 0xD8 SHL PUSH1 0x64 DUP3 ADD MSTORE REVERT JUMPDEST DUP3 PUSH1 0x84 SWAP3 MLOAD SWAP2 PUSH3 0x461BCD PUSH1 0xE5 SHL DUP4 MSTORE DUP3 ADD MSTORE PUSH1 0x2A PUSH1 0x24 DUP3 ADD MSTORE PUSH32 0x476F7665726E616E6365546F6B656E3A20696E73756666696369656E74207374 PUSH1 0x44 DUP3 ADD MSTORE PUSH10 0x185AD948185B5BDD5B9D PUSH1 0xB2 SHL PUSH1 0x64 DUP3 ADD MSTORE REVERT JUMPDEST DUP4 DUP1 REVERT JUMPDEST POP POP CALLVALUE PUSH2 0x1C9 JUMPI DUP2 PUSH1 0x3 NOT CALLDATASIZE ADD SLT PUSH2 0x1C9 JUMPI MLOAD SWAP1 DUP2 MSTORE PUSH1 0x20 SWAP1 RETURN JUMPDEST DUP4 DUP4 CALLVALUE PUSH2 0x1C9 JUMPI DUP2 PUSH1 0x3 NOT CALLDATASIZE ADD SLT PUSH2 0x1C9 JUMPI DUP1 MLOAD SWAP2 DUP1 SWAP4 DUP1 SLOAD SWAP2 PUSH1 0x1 SWAP1 DUP4 DUP3 SHR SWAP3 DUP3 DUP6 AND SWAP5 DUP6 ISZERO PUSH2 0x692 JUMPI JUMPDEST PUSH1 0x20 SWAP6 DUP7 DUP7 LT DUP2 EQ PUSH2 0x67F JUMPI DUP6 DUP10 MSTORE SWAP1 DUP2 ISZERO PUSH2 0x65B JUMPI POP PUSH1 0x1 EQ PUSH2 0x603 JUMPI JUMPDEST PUSH2 0x5FF DUP8 DUP8 PUSH2 0x5F5 DUP3 DUP13 SUB DUP4 PUSH2 0x1034 JUMP JUMPDEST MLOAD SWAP2 DUP3 SWAP2 DUP3 PUSH2 0xE6F JUMP JUMPDEST SUB SWAP1 RETURN JUMPDEST DUP2 MSTORE SWAP3 SWAP6 POP PUSH32 0x8A35ACFBC15FF81A39AE7D344FD709F28E8600B4AA8C65C6B64BFE7FE36BD19B JUMPDEST DUP3 DUP5 LT PUSH2 0x648 JUMPI POP POP POP DUP3 PUSH2 0x5FF SWAP5 PUSH2 0x5F5 SWAP3 DUP3 ADD ADD SWAP5 DUP7 DUP1 PUSH2 0x5E4 JUMP JUMPDEST DUP1 SLOAD DUP7 DUP6 ADD DUP9 ADD MSTORE SWAP3 DUP7 ADD SWAP3 DUP2 ADD PUSH2 0x62A JUMP JUMPDEST PUSH1 0xFF NOT AND DUP9 DUP8 ADD MSTORE POP POP POP POP ISZERO ISZERO PUSH1 0x5 SHL DUP4 ADD ADD SWAP3 POP PUSH2 0x5F5 DUP3 PUSH2 0x5FF DUP7 DUP1 PUSH2 0x5E4 JUMP JUMPDEST PUSH4 0x4E487B71 PUSH1 0xE0 SHL DUP5 MSTORE PUSH1 0x22 DUP4 MSTORE PUSH1 0x24 DUP5 REVERT JUMPDEST SWAP4 PUSH1 0x7F AND SWAP4 PUSH2 0x5C5 JUMP JUMPDEST POP POP CALLVALUE PUSH2 0x1C9 JUMPI PUSH1 0x20 CALLDATASIZE PUSH1 0x3 NOT ADD SLT PUSH2 0x1C9 JUMPI PUSH1 0x60 SWAP2 DUP2 SWAP1 PUSH1 0x1 PUSH1 0x1 PUSH1 0xA0 SHL SUB PUSH2 0x6C4 PUSH2 0xEB8 JUMP JUMPDEST AND DUP2 MSTORE PUSH1 0x7 PUSH1 0x20 MSTORE KECCAK256 DUP1 SLOAD SWAP2 PUSH1 0x2 PUSH1 0x1 DUP4 ADD SLOAD SWAP3 ADD SLOAD SWAP2 DUP2 MLOAD SWAP4 DUP5 MSTORE PUSH1 0x20 DUP5 ADD MSTORE DUP3 ADD MSTORE RETURN JUMPDEST SWAP1 POP CALLVALUE PUSH2 0x255 JUMPI DUP2 PUSH1 0x3 NOT CALLDATASIZE ADD SLT PUSH2 0x255 JUMPI DUP2 PUSH1 0x20 SWAP4 PUSH1 0xFF SWAP3 PUSH2 0x70B PUSH2 0xED3 JUMP JUMPDEST SWAP1 CALLDATALOAD DUP3 MSTORE PUSH1 0x5 DUP7 MSTORE DUP3 DUP3 KECCAK256 PUSH1 0x1 PUSH1 0x1 PUSH1 0xA0 SHL SUB SWAP1 SWAP2 AND DUP3 MSTORE DUP6 MSTORE KECCAK256 SLOAD SWAP2 MLOAD SWAP2 AND ISZERO ISZERO DUP2 MSTORE RETURN JUMPDEST POP POP CALLVALUE PUSH2 0x1C9 JUMPI PUSH1 0x20 CALLDATASIZE PUSH1 0x3 NOT ADD SLT PUSH2 0x1C9 JUMPI PUSH1 0x20 SWAP1 PUSH1 0xFF PUSH2 0x759 PUSH2 0x754 PUSH2 0xEB8 JUMP JUMPDEST PUSH2 0x1262 JUMP JUMPDEST SWAP2 MLOAD SWAP2 AND DUP2 MSTORE RETURN JUMPDEST POP POP CALLVALUE PUSH2 0x1C9 JUMPI PUSH1 0x20 CALLDATASIZE PUSH1 0x3 NOT ADD SLT PUSH2 0x1C9 JUMPI PUSH1 0x20 SWAP2 DUP2 SWAP1 PUSH1 0x1 PUSH1 0x1 PUSH1 0xA0 SHL SUB PUSH2 0x789 PUSH2 0xEB8 JUMP JUMPDEST AND DUP2 MSTORE DUP1 DUP5 MSTORE KECCAK256 SLOAD SWAP1 MLOAD SWAP1 DUP2 MSTORE RETURN JUMPDEST POP POP CALLVALUE PUSH2 0x1C9 JUMPI PUSH1 0x20 CALLDATASIZE PUSH1 0x3 NOT ADD SLT PUSH2 0x1C9 JUMPI PUSH1 0x20 SWAP1 PUSH2 0x38C PUSH2 0x7B9 PUSH2 0xEB8 JUMP JUMPDEST PUSH2 0x11D8 JUMP JUMPDEST POP POP CALLVALUE PUSH2 0x1C9 JUMPI PUSH1 0x20 CALLDATASIZE PUSH1 0x3 NOT ADD SLT PUSH2 0x1C9 JUMPI DUP1 PUSH1 0x20 SWAP3 PUSH1 0xFF PUSH2 0x7DF PUSH2 0xEE9 JUMP JUMPDEST AND DUP2 MSTORE PUSH1 0x6 DUP5 MSTORE KECCAK256 SLOAD SWAP1 MLOAD SWAP1 DUP2 MSTORE RETURN JUMPDEST POP POP CALLVALUE PUSH2 0x1C9 JUMPI DUP2 PUSH1 0x3 NOT CALLDATASIZE ADD SLT PUSH2 0x1C9 JUMPI PUSH1 0x20 SWAP1 MLOAD PUSH1 0x5 DUP2 MSTORE RETURN JUMPDEST SWAP1 POP CALLVALUE PUSH2 0x255 JUMPI DUP2 PUSH1 0x3 NOT CALLDATASIZE ADD SLT PUSH2 0x255 JUMPI PUSH2 0x825 PUSH2 0xEB8 JUMP JUMPDEST SWAP2 PUSH32 0x9F2DF0FED2C77648DE5860A4CC508CD0818C85B8B8A1AB4CEEEF8D981C8956A6 SWAP1 DUP2 DUP6 MSTORE PUSH1 0x5 PUSH1 0x20 MSTORE DUP1 DUP6 KECCAK256 CALLER DUP7 MSTORE PUSH1 0x20 MSTORE PUSH1 0xFF DUP2 DUP7 KECCAK256 SLOAD AND ISZERO PUSH2 0x875 JUMPI DUP5 PUSH2 0x872 PUSH1 0x24 CALLDATALOAD DUP7 PUSH2 0x116D JUMP JUMPDEST DUP1 RETURN JUMPDEST PUSH1 0x44 SWAP4 POP MLOAD SWAP2 PUSH4 0xE2517D3F PUSH1 0xE0 SHL DUP4 MSTORE CALLER SWAP1 DUP4 ADD MSTORE PUSH1 0x24 DUP3 ADD MSTORE REVERT JUMPDEST SWAP2 SWAP1 POP CALLVALUE PUSH2 0x255 JUMPI DUP3 PUSH1 0x3 NOT CALLDATASIZE ADD SLT PUSH2 0x255 JUMPI PUSH2 0x8AD CALLER PUSH2 0x11D8 JUMP JUMPDEST SWAP2 DUP3 ISZERO PUSH2 0x8FD JUMPI POP CALLER DUP4 MSTORE PUSH1 0x7 PUSH1 0x20 MSTORE DUP1 DUP4 KECCAK256 PUSH1 0x2 TIMESTAMP SWAP2 ADD SSTORE PUSH2 0x8D0 DUP3 CALLER PUSH2 0x116D JUMP JUMPDEST MLOAD SWAP1 DUP2 MSTORE PUSH32 0xFC30CDDEA38E2BF4D6EA7D3F9ED3B6AD7F176419F4963BD81318067A4AEE73FE PUSH1 0x20 CALLER SWAP3 LOG2 DUP1 RETURN JUMPDEST PUSH1 0x20 PUSH1 0x84 SWAP3 MLOAD SWAP2 PUSH3 0x461BCD PUSH1 0xE5 SHL DUP4 MSTORE DUP3 ADD MSTORE PUSH1 0x24 DUP1 DUP3 ADD MSTORE PUSH32 0x476F7665726E616E6365546F6B656E3A206E6F207265776172647320746F2063 PUSH1 0x44 DUP3 ADD MSTORE PUSH4 0x6C61696D PUSH1 0xE0 SHL PUSH1 0x64 DUP3 ADD MSTORE REVERT JUMPDEST DUP4 DUP4 CALLVALUE PUSH2 0x1C9 JUMPI DUP1 PUSH1 0x3 NOT CALLDATASIZE ADD SLT PUSH2 0x1C9 JUMPI PUSH2 0x965 PUSH2 0xED3 JUMP JUMPDEST SWAP1 CALLER PUSH1 0x1 PUSH1 0x1 PUSH1 0xA0 SHL SUB DUP4 AND SUB PUSH2 0x982 JUMPI POP PUSH2 0x251 SWAP2 SWAP3 CALLDATALOAD PUSH2 0xFBD JUMP JUMPDEST MLOAD PUSH4 0x334BD919 PUSH1 0xE1 SHL DUP2 MSTORE DUP4 SWAP1 REVERT JUMPDEST POP POP CALLVALUE PUSH2 0x1C9 JUMPI DUP2 PUSH1 0x3 NOT CALLDATASIZE ADD SLT PUSH2 0x1C9 JUMPI PUSH1 0x20 SWAP1 MLOAD PUSH1 0x12 DUP2 MSTORE RETURN JUMPDEST SWAP2 SWAP1 POP CALLVALUE PUSH2 0x255 JUMPI DUP1 PUSH1 0x3 NOT CALLDATASIZE ADD SLT PUSH2 0x255 JUMPI PUSH2 0x251 SWAP2 CALLDATALOAD PUSH2 0x9D2 PUSH1 0x1 PUSH2 0x23A PUSH2 0xED3 JUMP JUMPDEST PUSH2 0xF3D JUMP JUMPDEST SWAP2 SWAP1 POP CALLVALUE PUSH2 0x255 JUMPI PUSH1 0x20 CALLDATASIZE PUSH1 0x3 NOT ADD SLT PUSH2 0x255 JUMPI DUP2 CALLDATALOAD SWAP2 CALLER DUP5 MSTORE PUSH1 0x7 PUSH1 0x20 MSTORE DUP2 DUP5 KECCAK256 SWAP1 DUP4 DUP3 SLOAD LT PUSH2 0xA6E JUMPI POP PUSH2 0xA0C CALLER PUSH2 0x11D8 JUMP JUMPDEST DUP1 PUSH2 0xA58 JUMPI JUMPDEST POP PUSH2 0xA1E DUP4 DUP3 SLOAD PUSH2 0x11CB JUMP JUMPDEST SWAP1 SSTORE PUSH2 0xA2B DUP3 CALLER ADDRESS PUSH2 0x106C JUMP JUMPDEST MLOAD SWAP1 DUP2 MSTORE PUSH32 0x9845E367B683334E5C0B12D7B81721AC518E649376FA65E3D68324E8F34F2679 PUSH1 0x20 CALLER SWAP3 LOG2 DUP1 RETURN JUMPDEST PUSH2 0xA62 SWAP1 CALLER PUSH2 0x116D JUMP JUMPDEST TIMESTAMP PUSH1 0x2 DUP3 ADD SSTORE CODESIZE PUSH2 0xA12 JUMP JUMPDEST PUSH1 0x84 SWAP1 PUSH1 0x20 DUP5 MLOAD SWAP2 PUSH3 0x461BCD PUSH1 0xE5 SHL DUP4 MSTORE DUP3 ADD MSTORE PUSH1 0x2B PUSH1 0x24 DUP3 ADD MSTORE PUSH32 0x476F7665726E616E6365546F6B656E3A20696E73756666696369656E74207374 PUSH1 0x44 DUP3 ADD MSTORE PUSH11 0x185AD95908185B5BDD5B9D PUSH1 0xAA SHL PUSH1 0x64 DUP3 ADD MSTORE REVERT JUMPDEST POP POP CALLVALUE PUSH2 0x1C9 JUMPI DUP2 PUSH1 0x3 NOT CALLDATASIZE ADD SLT PUSH2 0x1C9 JUMPI PUSH1 0x20 SWAP1 MLOAD PUSH9 0x56BC75E2D63100000 DUP2 MSTORE RETURN JUMPDEST SWAP1 POP CALLVALUE PUSH2 0x255 JUMPI PUSH1 0x20 CALLDATASIZE PUSH1 0x3 NOT ADD SLT PUSH2 0x255 JUMPI DUP2 PUSH1 0x20 SWAP4 PUSH1 0x1 SWAP3 CALLDATALOAD DUP2 MSTORE PUSH1 0x5 DUP6 MSTORE KECCAK256 ADD SLOAD SWAP1 MLOAD SWAP1 DUP2 MSTORE RETURN JUMPDEST SWAP1 POP DUP3 CALLVALUE PUSH2 0x3A6 JUMPI PUSH1 0x60 CALLDATASIZE PUSH1 0x3 NOT ADD SLT PUSH2 0x3A6 JUMPI PUSH2 0xB30 PUSH2 0xEB8 JUMP JUMPDEST PUSH2 0xB38 PUSH2 0xED3 JUMP JUMPDEST SWAP2 PUSH1 0x44 CALLDATALOAD SWAP4 PUSH1 0x1 DUP1 PUSH1 0xA0 SHL SUB DUP4 AND DUP1 DUP4 MSTORE PUSH1 0x1 PUSH1 0x20 MSTORE DUP7 DUP4 KECCAK256 CALLER DUP5 MSTORE PUSH1 0x20 MSTORE DUP7 DUP4 KECCAK256 SLOAD SWAP2 PUSH1 0x0 NOT DUP4 LT PUSH2 0xB74 JUMPI JUMPDEST PUSH1 0x20 DUP9 PUSH2 0x40F DUP10 DUP10 DUP10 PUSH2 0x106C JUMP JUMPDEST DUP7 DUP4 LT PUSH2 0xBDC JUMPI DUP2 ISZERO PUSH2 0xBC5 JUMPI CALLER ISZERO PUSH2 0xBAE JUMPI POP DUP3 MSTORE PUSH1 0x1 PUSH1 0x20 SWAP1 DUP2 MSTORE DUP7 DUP4 KECCAK256 CALLER DUP5 MSTORE DUP2 MSTORE SWAP2 DUP7 SWAP1 KECCAK256 SWAP1 DUP6 SWAP1 SUB SWAP1 SSTORE DUP3 SWAP1 PUSH2 0x40F DUP8 PUSH2 0xB66 JUMP JUMPDEST DUP8 MLOAD PUSH4 0x4A1406B1 PUSH1 0xE1 SHL DUP2 MSTORE SWAP1 DUP2 ADD DUP5 SWAP1 MSTORE PUSH1 0x24 SWAP1 REVERT JUMPDEST DUP8 MLOAD PUSH4 0xE602DF05 PUSH1 0xE0 SHL DUP2 MSTORE SWAP1 DUP2 ADD DUP5 SWAP1 MSTORE PUSH1 0x24 SWAP1 REVERT JUMPDEST DUP8 MLOAD PUSH4 0x7DC7A0D9 PUSH1 0xE1 SHL DUP2 MSTORE CALLER SWAP2 DUP2 ADD SWAP2 DUP3 MSTORE PUSH1 0x20 DUP3 ADD SWAP4 SWAP1 SWAP4 MSTORE PUSH1 0x40 DUP2 ADD DUP8 SWAP1 MSTORE DUP3 SWAP2 POP PUSH1 0x60 ADD SUB SWAP1 REVERT JUMPDEST POP POP CALLVALUE PUSH2 0x1C9 JUMPI DUP2 PUSH1 0x3 NOT CALLDATASIZE ADD SLT PUSH2 0x1C9 JUMPI PUSH1 0x20 SWAP1 MLOAD PUSH3 0x278D00 DUP2 MSTORE RETURN JUMPDEST POP POP CALLVALUE PUSH2 0x1C9 JUMPI DUP2 PUSH1 0x3 NOT CALLDATASIZE ADD SLT PUSH2 0x1C9 JUMPI PUSH1 0x20 SWAP1 PUSH1 0x2 SLOAD SWAP1 MLOAD SWAP1 DUP2 MSTORE RETURN JUMPDEST POP POP CALLVALUE PUSH2 0x1C9 JUMPI PUSH1 0x20 CALLDATASIZE PUSH1 0x3 NOT ADD SLT PUSH2 0x1C9 JUMPI PUSH1 0x20 SWAP2 DUP2 SWAP1 PUSH1 0x1 PUSH1 0x1 PUSH1 0xA0 SHL SUB PUSH2 0xC6D PUSH2 0xEB8 JUMP JUMPDEST AND DUP2 MSTORE PUSH1 0x7 DUP5 MSTORE KECCAK256 SLOAD SWAP1 MLOAD SWAP1 DUP2 MSTORE RETURN JUMPDEST SWAP1 POP CALLVALUE PUSH2 0x255 JUMPI DUP2 PUSH1 0x3 NOT CALLDATASIZE ADD SLT PUSH2 0x255 JUMPI PUSH2 0xC97 PUSH2 0xEB8 JUMP JUMPDEST PUSH1 0x24 CALLDATALOAD SWAP1 CALLER ISZERO PUSH2 0xD10 JUMPI PUSH1 0x1 PUSH1 0x1 PUSH1 0xA0 SHL SUB AND SWAP2 DUP3 ISZERO PUSH2 0xCF9 JUMPI POP DUP1 DUP4 PUSH1 0x20 SWAP6 CALLER DUP2 MSTORE PUSH1 0x1 DUP8 MSTORE DUP2 DUP2 KECCAK256 DUP6 DUP3 MSTORE DUP8 MSTORE KECCAK256 SSTORE DUP3 MLOAD SWAP1 DUP2 MSTORE PUSH32 0x8C5BE1E5EBEC7D5BD14F71427D1E84F3DD0314C0F7B2291E5B200AC8C7C3B925 DUP5 CALLER SWAP3 LOG3 MLOAD PUSH1 0x1 DUP2 MSTORE RETURN JUMPDEST DUP4 MLOAD PUSH4 0x4A1406B1 PUSH1 0xE1 SHL DUP2 MSTORE SWAP1 DUP2 ADD DUP6 SWAP1 MSTORE PUSH1 0x24 SWAP1 REVERT JUMPDEST DUP4 MLOAD PUSH4 0xE602DF05 PUSH1 0xE0 SHL DUP2 MSTORE DUP1 DUP5 ADD DUP7 SWAP1 MSTORE PUSH1 0x24 SWAP1 REVERT JUMPDEST SWAP2 SWAP1 POP CALLVALUE PUSH2 0x255 JUMPI DUP3 PUSH1 0x3 NOT CALLDATASIZE ADD SLT PUSH2 0x255 JUMPI DUP1 MLOAD SWAP2 DUP4 PUSH1 0x3 SLOAD SWAP1 PUSH1 0x1 SWAP1 DUP3 DUP3 SHR SWAP3 DUP3 DUP2 AND DUP1 ISZERO PUSH2 0xE12 JUMPI JUMPDEST PUSH1 0x20 SWAP6 DUP7 DUP7 LT DUP3 EQ PUSH2 0xDFF JUMPI POP DUP5 DUP9 MSTORE SWAP1 DUP2 ISZERO PUSH2 0xDDD JUMPI POP PUSH1 0x1 EQ PUSH2 0xD84 JUMPI JUMPDEST PUSH2 0x5FF DUP7 DUP7 PUSH2 0x5F5 DUP3 DUP12 SUB DUP4 PUSH2 0x1034 JUMP JUMPDEST SWAP3 SWAP6 POP PUSH1 0x3 DUP4 MSTORE PUSH32 0xC2575A0E9E593C00F959F8C92F12DB2869C3395A3B0502D05E2516446F71F85B JUMPDEST DUP3 DUP5 LT PUSH2 0xDCA JUMPI POP POP POP DUP3 PUSH2 0x5FF SWAP5 PUSH2 0x5F5 SWAP3 DUP3 ADD ADD SWAP5 CODESIZE PUSH2 0xD73 JUMP JUMPDEST DUP1 SLOAD DUP7 DUP6 ADD DUP9 ADD MSTORE SWAP3 DUP7 ADD SWAP3 DUP2 ADD PUSH2 0xDAD JUMP JUMPDEST PUSH1 0xFF NOT AND DUP8 DUP7 ADD MSTORE POP POP POP ISZERO ISZERO PUSH1 0x5 SHL DUP4 ADD ADD SWAP3 POP PUSH2 0x5F5 DUP3 PUSH2 0x5FF CODESIZE PUSH2 0xD73 JUMP JUMPDEST PUSH4 0x4E487B71 PUSH1 0xE0 SHL DUP5 MSTORE PUSH1 0x22 SWAP1 MSTORE PUSH1 0x24 DUP4 REVERT JUMPDEST SWAP4 PUSH1 0x7F AND SWAP4 PUSH2 0xD53 JUMP JUMPDEST DUP5 SWAP2 CALLVALUE PUSH2 0x255 JUMPI PUSH1 0x20 CALLDATASIZE PUSH1 0x3 NOT ADD SLT PUSH2 0x255 JUMPI CALLDATALOAD PUSH4 0xFFFFFFFF PUSH1 0xE0 SHL DUP2 AND DUP1 SWAP2 SUB PUSH2 0x255 JUMPI PUSH1 0x20 SWAP3 POP PUSH4 0x7965DB0B PUSH1 0xE0 SHL DUP2 EQ SWAP1 DUP2 ISZERO PUSH2 0xE5E JUMPI JUMPDEST POP ISZERO ISZERO DUP2 MSTORE RETURN JUMPDEST PUSH4 0x1FFC9A7 PUSH1 0xE0 SHL EQ SWAP1 POP DUP4 PUSH2 0xE57 JUMP JUMPDEST PUSH1 0x20 DUP1 DUP3 MSTORE DUP3 MLOAD DUP2 DUP4 ADD DUP2 SWAP1 MSTORE SWAP1 SWAP4 SWAP3 PUSH1 0x0 JUMPDEST DUP3 DUP2 LT PUSH2 0xEA4 JUMPI POP POP PUSH1 0x40 SWAP3 SWAP4 POP PUSH1 0x0 DUP4 DUP3 DUP5 ADD ADD MSTORE PUSH1 0x1F DUP1 NOT SWAP2 ADD AND ADD ADD SWAP1 JUMP JUMPDEST DUP2 DUP2 ADD DUP7 ADD MLOAD DUP5 DUP3 ADD PUSH1 0x40 ADD MSTORE DUP6 ADD PUSH2 0xE82 JUMP JUMPDEST PUSH1 0x4 CALLDATALOAD SWAP1 PUSH1 0x1 PUSH1 0x1 PUSH1 0xA0 SHL SUB DUP3 AND DUP3 SUB PUSH2 0xECE JUMPI JUMP JUMPDEST PUSH1 0x0 DUP1 REVERT JUMPDEST PUSH1 0x24 CALLDATALOAD SWAP1 PUSH1 0x1 PUSH1 0x1 PUSH1 0xA0 SHL SUB DUP3 AND DUP3 SUB PUSH2 0xECE JUMPI JUMP JUMPDEST PUSH1 0x4 CALLDATALOAD SWAP1 PUSH1 0xFF DUP3 AND DUP3 SUB PUSH2 0xECE JUMPI JUMP JUMPDEST DUP1 PUSH1 0x0 MSTORE PUSH1 0x5 PUSH1 0x20 MSTORE PUSH1 0x40 PUSH1 0x0 KECCAK256 CALLER PUSH1 0x0 MSTORE PUSH1 0x20 MSTORE PUSH1 0xFF PUSH1 0x40 PUSH1 0x0 KECCAK256 SLOAD AND ISZERO PUSH2 0xF1F JUMPI POP JUMP JUMPDEST PUSH1 0x44 SWAP1 PUSH1 0x40 MLOAD SWAP1 PUSH4 0xE2517D3F PUSH1 0xE0 SHL DUP3 MSTORE CALLER PUSH1 0x4 DUP4 ADD MSTORE PUSH1 0x24 DUP3 ADD MSTORE REVERT JUMPDEST SWAP1 PUSH1 0x0 SWAP2 DUP1 DUP4 MSTORE PUSH1 0x5 PUSH1 0x20 MSTORE PUSH1 0x40 DUP4 KECCAK256 SWAP2 PUSH1 0x1 DUP1 PUSH1 0xA0 SHL SUB AND SWAP2 DUP3 DUP5 MSTORE PUSH1 0x20 MSTORE PUSH1 0xFF PUSH1 0x40 DUP5 KECCAK256 SLOAD AND ISZERO PUSH1 0x0 EQ PUSH2 0xFB8 JUMPI DUP1 DUP4 MSTORE PUSH1 0x5 PUSH1 0x20 MSTORE PUSH1 0x40 DUP4 KECCAK256 DUP3 DUP5 MSTORE PUSH1 0x20 MSTORE PUSH1 0x40 DUP4 KECCAK256 PUSH1 0x1 PUSH1 0xFF NOT DUP3 SLOAD AND OR SWAP1 SSTORE PUSH32 0x2F8788117E7EFF1D82E926EC794901D17C78024A50270940304540A733656F0D CALLER SWAP4 DUP1 LOG4 PUSH1 0x1 SWAP1 JUMP JUMPDEST POP POP SWAP1 JUMP JUMPDEST SWAP1 PUSH1 0x0 SWAP2 DUP1 DUP4 MSTORE PUSH1 0x5 PUSH1 0x20 MSTORE PUSH1 0x40 DUP4 KECCAK256 SWAP2 PUSH1 0x1 DUP1 PUSH1 0xA0 SHL SUB AND SWAP2 DUP3 DUP5 MSTORE PUSH1 0x20 MSTORE PUSH1 0xFF PUSH1 0x40 DUP5 KECCAK256 SLOAD AND PUSH1 0x0 EQ PUSH2 0xFB8 JUMPI DUP1 DUP4 MSTORE PUSH1 0x5 PUSH1 0x20 MSTORE PUSH1 0x40 DUP4 KECCAK256 DUP3 DUP5 MSTORE PUSH1 0x20 MSTORE PUSH1 0x40 DUP4 KECCAK256 PUSH1 0xFF NOT DUP2 SLOAD AND SWAP1 SSTORE PUSH32 0xF6391F5C32D9C69D2A47EA670B442974B53935D1EDC7FD64EB21E047A839171B CALLER SWAP4 DUP1 LOG4 PUSH1 0x1 SWAP1 JUMP JUMPDEST SWAP1 PUSH1 0x1F DUP1 NOT SWAP2 ADD AND DUP2 ADD SWAP1 DUP2 LT PUSH8 0xFFFFFFFFFFFFFFFF DUP3 GT OR PUSH2 0x1056 JUMPI PUSH1 0x40 MSTORE JUMP JUMPDEST PUSH4 0x4E487B71 PUSH1 0xE0 SHL PUSH1 0x0 MSTORE PUSH1 0x41 PUSH1 0x4 MSTORE PUSH1 0x24 PUSH1 0x0 REVERT JUMPDEST SWAP2 PUSH1 0x1 PUSH1 0x1 PUSH1 0xA0 SHL SUB DUP1 DUP5 AND SWAP3 DUP4 ISZERO PUSH2 0x1131 JUMPI AND SWAP3 DUP4 ISZERO PUSH2 0x1118 JUMPI PUSH1 0x0 SWAP1 DUP4 DUP3 MSTORE DUP2 PUSH1 0x20 MSTORE PUSH1 0x40 DUP3 KECCAK256 SLOAD SWAP1 DUP4 DUP3 LT PUSH2 0x10E6 JUMPI POP SWAP2 PUSH1 0x40 DUP3 DUP3 PUSH32 0xDDF252AD1BE2C89B69C2B068FC378DAA952BA7F163C4A11628F55A4DF523B3EF SWAP6 DUP8 PUSH1 0x20 SWAP7 MSTORE DUP3 DUP7 MSTORE SUB DUP3 DUP3 KECCAK256 SSTORE DUP7 DUP2 MSTORE KECCAK256 DUP2 DUP2 SLOAD ADD SWAP1 SSTORE PUSH1 0x40 MLOAD SWAP1 DUP2 MSTORE LOG3 JUMP JUMPDEST PUSH1 0x40 MLOAD PUSH4 0x391434E3 PUSH1 0xE2 SHL DUP2 MSTORE PUSH1 0x1 PUSH1 0x1 PUSH1 0xA0 SHL SUB SWAP2 SWAP1 SWAP2 AND PUSH1 0x4 DUP3 ADD MSTORE PUSH1 0x24 DUP2 ADD SWAP2 SWAP1 SWAP2 MSTORE PUSH1 0x44 DUP2 ADD DUP4 SWAP1 MSTORE PUSH1 0x64 SWAP1 REVERT JUMPDEST PUSH1 0x40 MLOAD PUSH4 0xEC442F05 PUSH1 0xE0 SHL DUP2 MSTORE PUSH1 0x0 PUSH1 0x4 DUP3 ADD MSTORE PUSH1 0x24 SWAP1 REVERT JUMPDEST PUSH1 0x40 MLOAD PUSH4 0x4B637E8F PUSH1 0xE1 SHL DUP2 MSTORE PUSH1 0x0 PUSH1 0x4 DUP3 ADD MSTORE PUSH1 0x24 SWAP1 REVERT JUMPDEST SWAP2 SWAP1 DUP3 ADD DUP1 SWAP3 GT PUSH2 0x1157 JUMPI JUMP JUMPDEST PUSH4 0x4E487B71 PUSH1 0xE0 SHL PUSH1 0x0 MSTORE PUSH1 0x11 PUSH1 0x4 MSTORE PUSH1 0x24 PUSH1 0x0 REVERT JUMPDEST PUSH1 0x1 PUSH1 0x1 PUSH1 0xA0 SHL SUB AND SWAP1 DUP2 ISZERO PUSH2 0x1118 JUMPI PUSH32 0xDDF252AD1BE2C89B69C2B068FC378DAA952BA7F163C4A11628F55A4DF523B3EF PUSH1 0x20 DUP3 PUSH2 0x11AF PUSH1 0x0 SWAP5 PUSH1 0x2 SLOAD PUSH2 0x114A JUMP JUMPDEST PUSH1 0x2 SSTORE DUP5 DUP5 MSTORE DUP4 DUP3 MSTORE PUSH1 0x40 DUP5 KECCAK256 DUP2 DUP2 SLOAD ADD SWAP1 SSTORE PUSH1 0x40 MLOAD SWAP1 DUP2 MSTORE LOG3 JUMP JUMPDEST SWAP2 SWAP1 DUP3 SUB SWAP2 DUP3 GT PUSH2 0x1157 JUMPI JUMP JUMPDEST PUSH1 0x1 PUSH1 0x1 PUSH1 0xA0 SHL SUB AND PUSH1 0x0 SWAP1 DUP2 MSTORE PUSH1 0x7 PUSH1 0x20 MSTORE PUSH1 0x40 DUP2 KECCAK256 DUP1 SLOAD SWAP2 SWAP1 DUP3 ISZERO PUSH2 0x125C JUMPI PUSH1 0x2 PUSH2 0x1207 SWAP2 ADD SLOAD TIMESTAMP PUSH2 0x11CB JUMP JUMPDEST SWAP2 PUSH1 0x5 DUP2 MUL SWAP1 DUP1 DUP3 DIV PUSH1 0x5 SUB PUSH2 0x1248 JUMPI DUP4 MUL PUSH1 0x5 MUL SWAP3 DUP2 ISZERO SWAP2 DUP5 DIV EQ OR ISZERO PUSH2 0x1234 JUMPI POP PUSH4 0xBBF81E00 SWAP1 DIV SWAP1 JUMP JUMPDEST PUSH4 0x4E487B71 PUSH1 0xE0 SHL DUP2 MSTORE PUSH1 0x11 PUSH1 0x4 MSTORE PUSH1 0x24 SWAP1 REVERT JUMPDEST PUSH4 0x4E487B71 PUSH1 0xE0 SHL DUP4 MSTORE PUSH1 0x11 PUSH1 0x4 MSTORE PUSH1 0x24 DUP4 REVERT JUMPDEST POP SWAP1 POP SWAP1 JUMP JUMPDEST PUSH1 0x40 DUP1 MLOAD PUSH4 0x5DA6A21B PUSH1 0xE1 SHL DUP2 MSTORE PUSH1 0x1 PUSH1 0x1 PUSH1 0xA0 SHL SUB SWAP1 SWAP3 AND PUSH1 0x4 DUP4 ADD MSTORE PUSH1 0x20 DUP3 PUSH1 0x24 DUP2 ADDRESS GAS STATICCALL SWAP2 DUP3 ISZERO PUSH2 0x1332 JUMPI PUSH1 0x0 SWAP3 PUSH2 0x12FF JUMPI JUMPDEST POP PUSH1 0x4 PUSH1 0x0 MSTORE PUSH1 0x6 PUSH1 0x20 MSTORE DUP1 PUSH1 0x0 KECCAK256 SLOAD DUP3 LT ISZERO PUSH2 0x12F8 JUMPI PUSH1 0x3 PUSH1 0x0 MSTORE DUP1 PUSH1 0x0 KECCAK256 SLOAD DUP3 LT ISZERO PUSH2 0x12F1 JUMPI PUSH1 0x2 PUSH1 0x0 MSTORE DUP1 PUSH1 0x0 KECCAK256 SLOAD DUP3 LT ISZERO PUSH2 0x12EA JUMPI PUSH1 0x1 PUSH1 0x0 MSTORE PUSH1 0x0 KECCAK256 SLOAD GT ISZERO PUSH2 0x12E5 JUMPI PUSH1 0x0 SWAP1 JUMP JUMPDEST PUSH1 0x1 SWAP1 JUMP JUMPDEST POP POP PUSH1 0x2 SWAP1 JUMP JUMPDEST POP POP PUSH1 0x3 SWAP1 JUMP JUMPDEST POP POP PUSH1 0x4 SWAP1 JUMP JUMPDEST SWAP1 SWAP2 PUSH1 0x20 DUP3 RETURNDATASIZE DUP3 GT PUSH2 0x132A JUMPI JUMPDEST DUP2 PUSH2 0x1319 PUSH1 0x20 SWAP4 DUP4 PUSH2 0x1034 JUMP JUMPDEST DUP2 ADD SUB SLT PUSH2 0x3A6 JUMPI POP MLOAD SWAP1 CODESIZE PUSH2 0x1298 JUMP JUMPDEST RETURNDATASIZE SWAP2 POP PUSH2 0x130C JUMP JUMPDEST POP MLOAD RETURNDATASIZE PUSH1 0x0 DUP3 RETURNDATACOPY RETURNDATASIZE SWAP1 REVERT INVALID LOG2 PUSH5 0x6970667358 0x22 SLT KECCAK256 0xB8 0xAC DUP6 0x23 0xE6 ADDMOD BASEFEE 0xAB CALLDATACOPY SWAP3 PUSH0 0x4E PUSH6 0x11978CEBB53F BASEFEE 0xC1 SWAP5 SDIV 0xFB 0x5E 0xB2 EQ LOG3 0xE8 0x4B STATICCALL PUSH2 0x6473 PUSH16 0x6C634300081400332F8788117E7EFF1D DUP3 0xE9 0x26 0xEC PUSH26 0x4901D17C78024A50270940304540A733656F0D00000000000000 "},"methodIdentifiers":{"DEFAULT_ADMIN_ROLE()":"a217fddf","GOVERNANCE_ROLE()":"f36c8f5c","LOCK_PERIOD()":"1820cabb","MINTER_ROLE()":"d5391393","MIN_STAKE_AMOUNT()":"27ed7188","REWARD_RATE()":"5997bb37","allowance(address,address)":"dd62ed3e","approve(address,uint256)":"095ea7b3","balanceOf(address)":"70a08231","calculateRewards(address)":"64ab8675","claimRewards()":"372500ab","decimals()":"313ce567","getMemberTier(address)":"8b3e9707","getRoleAdmin(bytes32)":"248a9ca3","getStakingStartTime(address)":"b89d8144","getVotingPower(address)":"bb4d4436","grantRole(bytes32,address)":"2f2ff15d","hasRole(bytes32,address)":"91d14854","memberTiers(uint8)":"5d8648fb","mint(address,uint256)":"40c10f19","name()":"06fdde03","renounceRole(bytes32,address)":"36568abe","revokeRole(bytes32,address)":"d547741f","setMemberTier(uint8,uint256)":"c3f601dc","stake(uint256)":"a694fc3a","stakedBalanceOf(address)":"16765391","stakingInfo(address)":"94eecb50","supportsInterface(bytes4)":"01ffc9a7","symbol()":"95d89b41","totalSupply()":"18160ddd","transfer(address,uint256)":"a9059cbb","transferFrom(address,address,uint256)":"23b872dd","unstake(uint256)":"2e17de78"}}}}}