{"contracts/DAO.sol":{"DAO":{"abi":[{"inputs":[{"internalType":"address","name":"_proposal","type":"address"},{"internalType":"address","name":"_vault","type":"address"},{"internalType":"address","name":"_execution","type":"address"}],"stateMutability":"nonpayable","type":"constructor"},{"anonymous":false,"inputs":[{"indexed":true,"internalType":"uint256","name":"proposalId","type":"uint256"}],"name":"ProposalPassed","type":"event"},{"anonymous":false,"inputs":[{"indexed":true,"internalType":"uint256","name":"proposalId","type":"uint256"}],"name":"ProposalRejected","type":"event"},{"inputs":[],"name":"absentPenalty","outputs":[{"internalType":"uint256","name":"","type":"uint256"}],"stateMutability":"view","type":"function"},{"inputs":[],"name":"countToExpel","outputs":[{"internalType":"uint256","name":"","type":"uint256"}],"stateMutability":"view","type":"function"},{"inputs":[{"internalType":"string","name":"title","type":"string"},{"internalType":"string","name":"description","type":"string"},{"internalType":"uint256","name":"amount","type":"uint256"},{"internalType":"address payable","name":"recipient","type":"address"},{"internalType":"bool","name":"requireVote","type":"bool"},{"internalType":"string","name":"sanctionType","type":"string"},{"internalType":"uint256","name":"beforeValue","type":"uint256"},{"internalType":"uint256","name":"afterValue","type":"uint256"},{"internalType":"address","name":"targetMember","type":"address"}],"name":"createProposal","outputs":[{"internalType":"uint256","name":"","type":"uint256"}],"stateMutability":"nonpayable","type":"function"},{"inputs":[],"name":"entryFee","outputs":[{"internalType":"uint256","name":"","type":"uint256"}],"stateMutability":"view","type":"function"},{"inputs":[],"name":"executionContract","outputs":[{"internalType":"contract Execution","name":"","type":"address"}],"stateMutability":"view","type":"function"},{"inputs":[{"internalType":"uint256","name":"proposalId","type":"uint256"}],"name":"finalizeProposal","outputs":[],"stateMutability":"nonpayable","type":"function"},{"inputs":[],"name":"getAllMembers","outputs":[{"internalType":"address[]","name":"","type":"address[]"}],"stateMutability":"view","type":"function"},{"inputs":[],"name":"getMemberCount","outputs":[{"internalType":"uint256","name":"","type":"uint256"}],"stateMutability":"view","type":"function"},{"inputs":[],"name":"getTreasuryBalance","outputs":[{"internalType":"uint256","name":"","type":"uint256"}],"stateMutability":"view","type":"function"},{"inputs":[],"name":"joinDAO","outputs":[],"stateMutability":"payable","type":"function"},{"inputs":[],"name":"passCriteria","outputs":[{"internalType":"uint256","name":"","type":"uint256"}],"stateMutability":"view","type":"function"},{"inputs":[],"name":"proposalContract","outputs":[{"internalType":"contract Proposal","name":"","type":"address"}],"stateMutability":"view","type":"function"},{"inputs":[{"internalType":"uint256","name":"","type":"uint256"}],"name":"proposalDeadline","outputs":[{"internalType":"uint256","name":"","type":"uint256"}],"stateMutability":"view","type":"function"},{"inputs":[{"internalType":"uint256","name":"","type":"uint256"}],"name":"proposalExecuted","outputs":[{"internalType":"bool","name":"","type":"bool"}],"stateMutability":"view","type":"function"},{"inputs":[{"internalType":"uint256","name":"","type":"uint256"}],"name":"proposalVoters","outputs":[{"internalType":"uint256","name":"","type":"uint256"}],"stateMutability":"view","type":"function"},{"inputs":[],"name":"scoreToExpel","outputs":[{"internalType":"uint256","name":"","type":"uint256"}],"stateMutability":"view","type":"function"},{"inputs":[],"name":"vaultContract","outputs":[{"internalType":"contract Vault","name":"","type":"address"}],"stateMutability":"view","type":"function"},{"inputs":[{"internalType":"uint256","name":"proposalId","type":"uint256"},{"internalType":"uint8","name":"choice","type":"uint8"}],"name":"vote","outputs":[],"stateMutability":"nonpayable","type":"function"},{"inputs":[],"name":"voteQuorum","outputs":[{"internalType":"uint256","name":"","type":"uint256"}],"stateMutability":"view","type":"function"},{"inputs":[],"name":"votingDuration","outputs":[{"internalType":"uint256","name":"","type":"uint256"}],"stateMutability":"view","type":"function"}],"evm":{"bytecode":{"linkReferences":{},"object":"608034620000dc57601f62001e8c38819003918201601f19168301916001600160401b03831184841017620000e157808492606094604052833981010312620000dc576200004d81620000f7565b906200006a60406200006260208401620000f7565b9201620000f7565b603260035560326004556203f48060055566038d7ea4c680006006556005600755601460085566b1a2bc2ec5000060095560018060a01b0380928160018060a01b031995168560005416176000551683600154161760015516906002541617600255604051611d7f90816200010d8239f35b600080fd5b634e487b7160e01b600052604160045260246000fd5b51906001600160a01b0382168203620000dc5756fe608060408181526004908136101561001657600080fd5b600092833560e01c908163072ea61c146112c2575080630fd2e6f9146112a4578063103616e814611277578063132002fc146112585780632274346b1461122f5780633aef3900146112075780634d421401146111e857806352bc9e82146111c9578381635652077c14610a3e575080637c0f6b35146109db578063943e82161461072b578063997072f7146106e15780639b5655dc146106555780639f1f43af14610636578063bc2914b51461042b578063bdf91db51461040c578063c01f9e37146103e4578063d23910bf146103bc578063e0e932441461038f5763f63d13d71461010257600080fd5b8260031936011261021e5782548151635087a34f60e11b8082526020949290916001600160a01b039182169086818681855afa908115610385579087918991610350575b508651632474521560e21b8152868101918252336020830152928391829081906040015b03915afa90811561034657879161030d575b506102d757600954340361029f57858080803485600154165af161019e6113bf565b501561025c579085929183541690845190815285818481855afa958615610252578496610222575b5050803b1561021e578351632f2ff15d60e01b8152918201948552336020860152909384919082908490829060400103925af19081156102155750610209575080f35b61021290611311565b80f35b513d84823e3d90fd5b8280fd5b9080929650813d831161024b575b61023a8183611374565b8101031261021e57519338806101c6565b503d610230565b85513d86823e3d90fd5b835162461bcd60e51b8152808401869052601d60248201527f4661696c656420746f2073656e6420457468657220746f207661756c740000006044820152606490fd5b835162461bcd60e51b81528084018690526012602482015271496e636f7272656374206a6f696e2066656560701b6044820152606490fd5b835162461bcd60e51b8152808401869052601060248201526f20b63932b0b23c90309036b2b6b132b960811b6044820152606490fd5b90508581813d831161033f575b6103248183611374565b8101031261033b5761033590611396565b3861017c565b8680fd5b503d61031a565b85513d89823e3d90fd5b82819392503d831161037e575b6103678183611374565b8101031261037a5751869061016a610146565b8780fd5b503d61035d565b86513d8a823e3d90fd5b8382346103b857816003193601126103b85760025490516001600160a01b039091168152602090f35b5080fd5b50903461021e57602036600319011261021e576020928291358152600b845220549051908152f35b50903461021e57602036600319011261021e576020928291358152600a845220549051908152f35b8382346103b857816003193601126103b8576020906006549051908152f35b509134610633576101203660031901126106335767ffffffffffffffff92823584811161021e5761045f90369085016112de565b94909360243582811161062f5761047990369083016112de565b90926064359660018060a01b039283891680990361037a57608435958615159384880361062b5760a43590811161062b576104b790369088016112de565b919092610104359487861680960361062757926104fd610520938d9e9f96936104f48e9f9e9761055a9a9851996104ed8b61133b565b36916113ef565b885236916113ef565b9660209e8f98898801528d604435908801526060870152608086015236916113ef565b60a083015260c43560c083015260e43560e083015261010082015283875416908851998a8094819363a7a36b4f60e01b835289830161146e565b03925af19586156102525784966105f8575b5083541690813b156105f4578391604483928751948593849263012232e960e61b84523390840152600360248401525af180156105ea576105db575b50156105cc57816105bb6005544261150b565b91848152600a865220555b51908152f35b506105d68261171e565b6105c6565b6105e490611311565b386105a8565b84513d85823e3d90fd5b8380fd5b9095508681813d8311610620575b6106108183611374565b810103126105f45751943861056c565b503d610606565b8b80fd5b8980fd5b8480fd5b80fd5b8382346103b857816003193601126103b8576020906007549051908152f35b503461021e578260031936011261021e576001548151629032ff60e51b81529260209184919082906001600160a01b03165afa9182156106d75783926106a0575b6020838351908152f35b9091506020813d82116106cf575b816106bb60209383611374565b8101031261021e5760209250519038610696565b3d91506106ae565b81513d85823e3d90fd5b503461021e578260031936011261021e578254815163997072f760e01b81529260209184919082906001600160a01b03165afa9182156106d75783926106a0576020838351908152f35b503461021e578060031936011261021e5781359060249182359060ff82168092036109d757855483516318feeb1560e31b81528681018390526001600160a01b03918216939088818881885afa9081156109cd5790610140918a916109ab575b5001511561095b57828852602093600a85528589205442116109235785516362d4f89360e01b81528881018581523360208201528690829081906040010381855afa908115610919578a916108e4575b506108b25790818993923b156105f4578460448a8680948b519687958694634a1f410b60e11b86528501528d8401525af180156108a857610899575b50815416803b156103b8578190604486518094819363012232e960e61b8352338c84015260018b8401525af1801561088f5790600b939291610880575b508652528320908154926001840180941161086f5750505580f35b634e487b7160e01b85526011905283fd5b61088990611311565b38610854565b84513d89823e3d90fd5b6108a290611311565b38610817565b86513d85823e3d90fd5b855162461bcd60e51b8152808901869052600d818901526c105b1c9958591e481d9bdd1959609a1b6044820152606490fd5b90508581813d8311610912575b6108fb8183611374565b8101031261062b5761090c90611396565b386107db565b503d6108f1565b87513d8c823e3d90fd5b855162461bcd60e51b815280890186905260138189015272159bdd1a5b99c81c195c9a5bd908195b991959606a1b6044820152606490fd5b845162461bcd60e51b81526020818901526025818801527f546869732070726f706f73616c20646f6573206e6f74207265717569726520766044820152646f74696e6760d81b6064820152608490fd5b6109c791503d808c833e6109bf8183611374565b810190611587565b3861078b565b86513d8b823e3d90fd5b8580fd5b8382346103b857816003193601126103b8576109f5611c59565b815192839260208080860192818752855180945286019401925b828110610a1e57505050500390f35b83516001600160a01b031685528695509381019392810192600101610a0f565b828185346103b85760208060031936011261021e57825484516318feeb1560e31b815283358185018190526024979196926001600160a01b03929088908a90829086165afa9687156111bf5786976111a3575b506101408701511561116957808652600a84528286205442111561112757808652600c845260ff83872054166110f257610ac9611c59565b90865b8251811015610d43578388541684610ae483866116c9565b5187516362d4f89360e01b81528a8101868152929091166001600160a01b03166020830152908890829081906040010381855afa908115610919578a91610d0e575b5015610b51575b506000198114610b3f57600101610acc565b634e487b7160e01b8852601187528988fd5b84610b5c83866116c9565b5116813b1561062b5789908c8a838a519586948593635d437b8560e11b85528401525af180156109cd57610cff575b508388541684610b9b83866116c9565b511690803b1561062b57865163a462e50f60e01b8152808a018581526001600160a01b039093166020840152918a91839182908490829060400103925af180156109cd57610cf0575b508388541684610bf483866116c9565b511690803b1561062b57908989819360038f8b51958694632b72ee5160e01b86528501528301528160449586925af1801561091957610ce1575b5084610c3a83866116c9565b511631600654809110610ca057898080809389600154165af1610c5b6113bf565b50610b2d57877f4661696c656420746f2073656e642070656e616c747920746f207661756c7400606492601f8e8b8b519562461bcd60e51b8752860152840152820152fd5b50877f4e6f7420656e6f7567682045544820666f722070656e616c7479000000000000606492601a8e8b8b519562461bcd60e51b8752860152840152820152fd5b610cea90611311565b8b610c2e565b610cf990611311565b8a610be4565b610d0890611311565b8a610b8b565b90508781813d8311610d3c575b610d258183611374565b8101031261062b57610d3690611396565b8c610b26565b503d610d1b565b509688939492915060a08101610d5f815160c08401519061150b565b90816110c557505086925b8654841061104e5782885416803b1561104a57888a60448a838b5195869485936332fa518560e21b855284015260018c8401525af1801561104057611031575b50887fe36f8b7448daff4a52e2945db0d1d7a436279cc1d527a45c27835dcbd27f336d8980a2610dd98961171e565b8288541698825199610e2660318951809d70022bc32b1baba34b7b71021b432b1b59d1607d1b87830152610e1581518092898686019101611426565b8101038d601182019052018c611374565b846101208501511688519b610e3a8d61133b565b8c52885180606081011067ffffffffffffffff60608301111761101f579b610eee9285928e8e9f8d9e9f9d6060637465643f60e01b920181528d83527f57617320746869732070726f706f73616c2070726f7065726c7920657865637587840152820152848401528b8d8401528b606084015260016080840152610ebc6116f3565b60a08401528b60c08401528b60e08401526101008301528c8b8d5180968195829463a7a36b4f60e01b8452830161146e565b03925af1801561101557908391610fec575b50505b8652600c8152868620805460ff1916600117905561016082015180519082012090610f2c6116f3565b805191012014610f3a578480f35b6101c0015186549082169210610f9c5783541690813b156105f457836044928651978895869463012232e960e61b8652828601528401525af19081156102155750610f8d575b505b818082818080808480f35b610f9690611311565b81610f80565b8395919295541690813b156105f45783604492600a87519889968795632b72ee5160e01b87528601528401525af19081156102155750610fdd575b50610f82565b610fe690611311565b81610fd7565b813d831161100e575b610fff8183611374565b8101031261033b57818b610f00565b503d610ff5565b89513d8a823e3d90fd5b634e487b7160e01b8c5260418b52888cfd5b61103a90611311565b89610daa565b87513d8b823e3d90fd5b8880fd5b879883899798995416803b1561037a57878260448c838d5195869485936332fa518560e21b855284015260028d8401525af18015611015576110b6575b50807fd92fba445edb3153b571e6df782d7a66fd0ce668519273670820ee3a86da0ef48880a2610f03565b6110bf90611311565b8a61108b565b516064810290808204606414901517156110e0570492610d6a565b634e487b7160e01b8952601188528589fd5b825162461bcd60e51b81528086018590526010818a01526f105b1c9958591e48195e1958dd5d195960821b6044820152606490fd5b825162461bcd60e51b81528086018590526017818a01527f566f74696e6720706572696f64206e6f7420656e6465640000000000000000006044820152606490fd5b825162461bcd60e51b81528086018590526015818a015274139bdd0818481d9bdd1a5b99c81c1c9bdc1bdcd85b605a1b6044820152606490fd5b6111b89197503d8088833e6109bf8183611374565b9588610a91565b83513d88823e3d90fd5b8382346103b857816003193601126103b8576020906008549051908152f35b8382346103b857816003193601126103b8576020906003549051908152f35b8382346103b857816003193601126103b857905490516001600160a01b039091168152602090f35b8382346103b857816003193601126103b85760015490516001600160a01b039091168152602090f35b8382346103b857816003193601126103b8576020906005549051908152f35b50903461021e57602036600319011261021e578160209360ff92358152600c855220541690519015158152f35b50903461021e578260031936011261021e5760209250549051908152f35b8490346103b857816003193601126103b8576020906009548152f35b9181601f8401121561130c5782359167ffffffffffffffff831161130c576020838186019501011161130c57565b600080fd5b67ffffffffffffffff811161132557604052565b634e487b7160e01b600052604160045260246000fd5b610120810190811067ffffffffffffffff82111761132557604052565b6040810190811067ffffffffffffffff82111761132557604052565b90601f8019910116810190811067ffffffffffffffff82111761132557604052565b5190811515820361130c57565b67ffffffffffffffff811161132557601f01601f191660200190565b3d156113ea573d906113d0826113a3565b916113de6040519384611374565b82523d6000602084013e565b606090565b9291926113fb826113a3565b916114096040519384611374565b82948184528183011161130c578281602093846000960137010152565b60005b8381106114395750506000910152565b8181015183820152602001611429565b9060209161146281518092818552858086019101611426565b601f01601f1916010190565b60208152815161148c61012091826020850152610140840190611449565b6114e96114ab602086015192601f199384878303016040880152611449565b6040860151606086015260018060a01b03928360608801511660808701526080870151151560a087015260a0870151908683030160c0870152611449565b9360c081015160e085015260e081015190610100918286015201511691015290565b9190820180921161151857565b634e487b7160e01b600052601160045260246000fd5b81601f8201121561130c578051611544816113a3565b926115526040519485611374565b8184526020828401011161130c576115709160208085019101611426565b90565b51906001600160a01b038216820361130c57565b9060208282031261130c57815167ffffffffffffffff9283821161130c5701906101e092838383031261130c576040519384018481108282111761132557604052825181811161130c57826115dd91850161152e565b8452602083015181811161130c57826115f791850161152e565b60208501526040838101519085015260608301516001600160a01b038116810361130c5760608501526080830151600481101561130c57608085015260a083015160a085015260c083015160c085015260e083015160e0850152610100808401519085015261012061166a818501611573565b9085015261014061167c818501611396565b90850152610160918284015191821161130c5761169a91840161152e565b9083015261018080820151908301526101a080820151908301526116c26101c0809201611573565b9082015290565b80518210156116dd5760209160051b010190565b634e487b7160e01b600052603260045260246000fd5b6040519061170082611358565b600f82526e657865637574696f6e2d636865636b60881b6020830152565b60008054604080516318feeb1560e31b81526004808201869052939491926001600160a01b03919082168682602481845afa918215610346578792611c3d575b506101608201908151917f064209fe56a5ba1791fac474c27dc1b9a6a4977f861d5d2396f722fcf844be9f83516020809501206b1d1c99585cdd5c9e4b5bdd5d60a21b858a516117ad81611358565b600c815201520361180557505050506002541692833b1561062f579060248592838551968794859363021814f960e41b85528401525af190811561021557506117f4575050565b6117fe8291611311565b6106335750565b7f3263cae112f9b06c4fe976e1e563a8899e0058acad03a56562786e4496d29f6b81518481519101206a72756c652d6368616e676560a81b858a5161184981611358565b600b8152015203611ac25750507f9b01c2212638b995654bf3d584befbb3576184e03cd1a9ae5693a18a1f559878825182815191012069766f746551756f72756d60b01b83885161189981611358565b600a81520152036118e657506101a001516003555b6002541692833b1561062f5790602485928385519687948593636f0d949d60e11b85528401525af190811561021557506117f4575050565b7f8d7cbff25736090ef6444f570ee8941e761e0637e76a2b77e283ff85ec26489d82518281519101206b70617373437269746572696160a01b83885161192b81611358565b600c815201520361194357506101a0015184556118ae565b7fabbfab0bf365e6c544c4bdc8c27846b398ef85deeb99659a1bd1cbbfddbc69a182518281519101206d3b37ba34b733a23ab930ba34b7b760911b83885161198a81611358565b600e81520152036119a357506101a001516005556118ae565b7f5b1a74ca49fc06542ef79783aa6db8771703259f73767276192f168bbdfaf8cb82518281519101206c616273656e7450656e616c747960981b8388516119e981611358565b600d8152015203611a0257506101a001516006556118ae565b7f343f1cee2704e73b1859bb1bdd73f8fce853b1f06ea40bd99f16c5c103e91318825182815191012067656e74727946656560c01b838851611a4381611358565b60088152015203611a5c57506101a001516009556118ae565b7f806b2ce9432a34cfc9fdab6b94db5bfcfdd69b0eaa656d83bea17439bebe142d906b18dbdd5b9d151bd15e1c195b60a21b8351828151910120918751611aa281611358565b600c8152015214611ab4575b506118ae565b6101a0015160075538611aae565b7f18adef32d755a9af096e2ee4ff599735880e4759405d7d958148850ad4749a659093919293518481519101206b1b595b58995c8b595e1c195b60a21b858951611b0b81611358565b600c8152015203611c14578551635087a34f60e11b815283818981865afa93841561104057908592918a95611bdf575b50506101c001511691813b1561037a57855163d547741f60e01b81528781019182526001600160a01b0390931660208201528791839182908490829060400103925af18015611bd557611bc2575b506002541692833b1561062f579060248592838551968794859363e8ce772d60e01b85528401525af190811561021557506117f4575050565b611bce90959195611311565b9338611b89565b84513d88823e3d90fd5b809295508193503d8311611c0d575b611bf88183611374565b8101031261037a57519183906101c038611b3b565b503d611bee565b5050935050506a3a3932b0b9bab93c96b4b760a91b925051611c3581611358565b600b81520152565b611c529192503d8089833e6109bf8183611374565b903861175e565b60008054604051637c0f6b3560e01b8152908290829060049082906001600160a01b03165afa918215611d3d578092611c9157505090565b9091503d8082843e611ca38184611374565b8201602091828483031261063357835167ffffffffffffffff9485821161021e570182601f820112156103b8578051948511611d29578460051b9160405195611cee86850188611374565b8652848087019383010193841161063357508301905b828210611d12575050505090565b838091611d1e84611573565b815201910190611d04565b634e487b7160e01b82526041600452602482fd5b604051903d90823e3d90fdfea264697066735822122022067543c4c8b0bdf9ddd88a2170d5d7a6e9f40f38cfab3c0a9e8ac8f2026af464736f6c63430008140033","opcodes":"PUSH1 0x80 CALLVALUE PUSH3 0xDC JUMPI PUSH1 0x1F PUSH3 0x1E8C CODESIZE DUP2 SWAP1 SUB SWAP2 DUP3 ADD PUSH1 0x1F NOT AND DUP4 ADD SWAP2 PUSH1 0x1 PUSH1 0x1 PUSH1 0x40 SHL SUB DUP4 GT DUP5 DUP5 LT OR PUSH3 0xE1 JUMPI DUP1 DUP5 SWAP3 PUSH1 0x60 SWAP5 PUSH1 0x40 MSTORE DUP4 CODECOPY DUP2 ADD SUB SLT PUSH3 0xDC JUMPI PUSH3 0x4D DUP2 PUSH3 0xF7 JUMP JUMPDEST SWAP1 PUSH3 0x6A PUSH1 0x40 PUSH3 0x62 PUSH1 0x20 DUP5 ADD PUSH3 0xF7 JUMP JUMPDEST SWAP3 ADD PUSH3 0xF7 JUMP JUMPDEST PUSH1 0x32 PUSH1 0x3 SSTORE PUSH1 0x32 PUSH1 0x4 SSTORE PUSH3 0x3F480 PUSH1 0x5 SSTORE PUSH7 0x38D7EA4C68000 PUSH1 0x6 SSTORE PUSH1 0x5 PUSH1 0x7 SSTORE PUSH1 0x14 PUSH1 0x8 SSTORE PUSH7 0xB1A2BC2EC50000 PUSH1 0x9 SSTORE PUSH1 0x1 DUP1 PUSH1 0xA0 SHL SUB DUP1 SWAP3 DUP2 PUSH1 0x1 DUP1 PUSH1 0xA0 SHL SUB NOT SWAP6 AND DUP6 PUSH1 0x0 SLOAD AND OR PUSH1 0x0 SSTORE AND DUP4 PUSH1 0x1 SLOAD AND OR PUSH1 0x1 SSTORE AND SWAP1 PUSH1 0x2 SLOAD AND OR PUSH1 0x2 SSTORE PUSH1 0x40 MLOAD PUSH2 0x1D7F SWAP1 DUP2 PUSH3 0x10D DUP3 CODECOPY RETURN JUMPDEST PUSH1 0x0 DUP1 REVERT JUMPDEST PUSH4 0x4E487B71 PUSH1 0xE0 SHL PUSH1 0x0 MSTORE PUSH1 0x41 PUSH1 0x4 MSTORE PUSH1 0x24 PUSH1 0x0 REVERT JUMPDEST MLOAD SWAP1 PUSH1 0x1 PUSH1 0x1 PUSH1 0xA0 SHL SUB DUP3 AND DUP3 SUB PUSH3 0xDC JUMPI JUMP INVALID PUSH1 0x80 PUSH1 0x40 DUP2 DUP2 MSTORE PUSH1 0x4 SWAP1 DUP2 CALLDATASIZE LT ISZERO PUSH2 0x16 JUMPI PUSH1 0x0 DUP1 REVERT JUMPDEST PUSH1 0x0 SWAP3 DUP4 CALLDATALOAD PUSH1 0xE0 SHR SWAP1 DUP2 PUSH4 0x72EA61C EQ PUSH2 0x12C2 JUMPI POP DUP1 PUSH4 0xFD2E6F9 EQ PUSH2 0x12A4 JUMPI DUP1 PUSH4 0x103616E8 EQ PUSH2 0x1277 JUMPI DUP1 PUSH4 0x132002FC EQ PUSH2 0x1258 JUMPI DUP1 PUSH4 0x2274346B EQ PUSH2 0x122F JUMPI DUP1 PUSH4 0x3AEF3900 EQ PUSH2 0x1207 JUMPI DUP1 PUSH4 0x4D421401 EQ PUSH2 0x11E8 JUMPI DUP1 PUSH4 0x52BC9E82 EQ PUSH2 0x11C9 JUMPI DUP4 DUP2 PUSH4 0x5652077C EQ PUSH2 0xA3E JUMPI POP DUP1 PUSH4 0x7C0F6B35 EQ PUSH2 0x9DB JUMPI DUP1 PUSH4 0x943E8216 EQ PUSH2 0x72B JUMPI DUP1 PUSH4 0x997072F7 EQ PUSH2 0x6E1 JUMPI DUP1 PUSH4 0x9B5655DC EQ PUSH2 0x655 JUMPI DUP1 PUSH4 0x9F1F43AF EQ PUSH2 0x636 JUMPI DUP1 PUSH4 0xBC2914B5 EQ PUSH2 0x42B JUMPI DUP1 PUSH4 0xBDF91DB5 EQ PUSH2 0x40C JUMPI DUP1 PUSH4 0xC01F9E37 EQ PUSH2 0x3E4 JUMPI DUP1 PUSH4 0xD23910BF EQ PUSH2 0x3BC JUMPI DUP1 PUSH4 0xE0E93244 EQ PUSH2 0x38F JUMPI PUSH4 0xF63D13D7 EQ PUSH2 0x102 JUMPI PUSH1 0x0 DUP1 REVERT JUMPDEST DUP3 PUSH1 0x3 NOT CALLDATASIZE ADD SLT PUSH2 0x21E JUMPI DUP3 SLOAD DUP2 MLOAD PUSH4 0x5087A34F PUSH1 0xE1 SHL DUP1 DUP3 MSTORE PUSH1 0x20 SWAP5 SWAP3 SWAP1 SWAP2 PUSH1 0x1 PUSH1 0x1 PUSH1 0xA0 SHL SUB SWAP2 DUP3 AND SWAP1 DUP7 DUP2 DUP7 DUP2 DUP6 GAS STATICCALL SWAP1 DUP2 ISZERO PUSH2 0x385 JUMPI SWAP1 DUP8 SWAP2 DUP10 SWAP2 PUSH2 0x350 JUMPI JUMPDEST POP DUP7 MLOAD PUSH4 0x24745215 PUSH1 0xE2 SHL DUP2 MSTORE DUP7 DUP2 ADD SWAP2 DUP3 MSTORE CALLER PUSH1 0x20 DUP4 ADD MSTORE SWAP3 DUP4 SWAP2 DUP3 SWAP1 DUP2 SWAP1 PUSH1 0x40 ADD JUMPDEST SUB SWAP2 GAS STATICCALL SWAP1 DUP2 ISZERO PUSH2 0x346 JUMPI DUP8 SWAP2 PUSH2 0x30D JUMPI JUMPDEST POP PUSH2 0x2D7 JUMPI PUSH1 0x9 SLOAD CALLVALUE SUB PUSH2 0x29F JUMPI DUP6 DUP1 DUP1 DUP1 CALLVALUE DUP6 PUSH1 0x1 SLOAD AND GAS CALL PUSH2 0x19E PUSH2 0x13BF JUMP JUMPDEST POP ISZERO PUSH2 0x25C JUMPI SWAP1 DUP6 SWAP3 SWAP2 DUP4 SLOAD AND SWAP1 DUP5 MLOAD SWAP1 DUP2 MSTORE DUP6 DUP2 DUP5 DUP2 DUP6 GAS STATICCALL SWAP6 DUP7 ISZERO PUSH2 0x252 JUMPI DUP5 SWAP7 PUSH2 0x222 JUMPI JUMPDEST POP POP DUP1 EXTCODESIZE ISZERO PUSH2 0x21E JUMPI DUP4 MLOAD PUSH4 0x2F2FF15D PUSH1 0xE0 SHL DUP2 MSTORE SWAP2 DUP3 ADD SWAP5 DUP6 MSTORE CALLER PUSH1 0x20 DUP7 ADD MSTORE SWAP1 SWAP4 DUP5 SWAP2 SWAP1 DUP3 SWAP1 DUP5 SWAP1 DUP3 SWAP1 PUSH1 0x40 ADD SUB SWAP3 GAS CALL SWAP1 DUP2 ISZERO PUSH2 0x215 JUMPI POP PUSH2 0x209 JUMPI POP DUP1 RETURN JUMPDEST PUSH2 0x212 SWAP1 PUSH2 0x1311 JUMP JUMPDEST DUP1 RETURN JUMPDEST MLOAD RETURNDATASIZE DUP5 DUP3 RETURNDATACOPY RETURNDATASIZE SWAP1 REVERT JUMPDEST DUP3 DUP1 REVERT JUMPDEST SWAP1 DUP1 SWAP3 SWAP7 POP DUP2 RETURNDATASIZE DUP4 GT PUSH2 0x24B JUMPI JUMPDEST PUSH2 0x23A DUP2 DUP4 PUSH2 0x1374 JUMP JUMPDEST DUP2 ADD SUB SLT PUSH2 0x21E JUMPI MLOAD SWAP4 CODESIZE DUP1 PUSH2 0x1C6 JUMP JUMPDEST POP RETURNDATASIZE PUSH2 0x230 JUMP JUMPDEST DUP6 MLOAD RETURNDATASIZE DUP7 DUP3 RETURNDATACOPY RETURNDATASIZE SWAP1 REVERT JUMPDEST DUP4 MLOAD PUSH3 0x461BCD PUSH1 0xE5 SHL DUP2 MSTORE DUP1 DUP5 ADD DUP7 SWAP1 MSTORE PUSH1 0x1D PUSH1 0x24 DUP3 ADD MSTORE PUSH32 0x4661696C656420746F2073656E6420457468657220746F207661756C74000000 PUSH1 0x44 DUP3 ADD MSTORE PUSH1 0x64 SWAP1 REVERT JUMPDEST DUP4 MLOAD PUSH3 0x461BCD PUSH1 0xE5 SHL DUP2 MSTORE DUP1 DUP5 ADD DUP7 SWAP1 MSTORE PUSH1 0x12 PUSH1 0x24 DUP3 ADD MSTORE PUSH18 0x496E636F7272656374206A6F696E20666565 PUSH1 0x70 SHL PUSH1 0x44 DUP3 ADD MSTORE PUSH1 0x64 SWAP1 REVERT JUMPDEST DUP4 MLOAD PUSH3 0x461BCD PUSH1 0xE5 SHL DUP2 MSTORE DUP1 DUP5 ADD DUP7 SWAP1 MSTORE PUSH1 0x10 PUSH1 0x24 DUP3 ADD MSTORE PUSH16 0x20B63932B0B23C90309036B2B6B132B9 PUSH1 0x81 SHL PUSH1 0x44 DUP3 ADD MSTORE PUSH1 0x64 SWAP1 REVERT JUMPDEST SWAP1 POP DUP6 DUP2 DUP2 RETURNDATASIZE DUP4 GT PUSH2 0x33F JUMPI JUMPDEST PUSH2 0x324 DUP2 DUP4 PUSH2 0x1374 JUMP JUMPDEST DUP2 ADD SUB SLT PUSH2 0x33B JUMPI PUSH2 0x335 SWAP1 PUSH2 0x1396 JUMP JUMPDEST CODESIZE PUSH2 0x17C JUMP JUMPDEST DUP7 DUP1 REVERT JUMPDEST POP RETURNDATASIZE PUSH2 0x31A JUMP JUMPDEST DUP6 MLOAD RETURNDATASIZE DUP10 DUP3 RETURNDATACOPY RETURNDATASIZE SWAP1 REVERT JUMPDEST DUP3 DUP2 SWAP4 SWAP3 POP RETURNDATASIZE DUP4 GT PUSH2 0x37E JUMPI JUMPDEST PUSH2 0x367 DUP2 DUP4 PUSH2 0x1374 JUMP JUMPDEST DUP2 ADD SUB SLT PUSH2 0x37A JUMPI MLOAD DUP7 SWAP1 PUSH2 0x16A PUSH2 0x146 JUMP JUMPDEST DUP8 DUP1 REVERT JUMPDEST POP RETURNDATASIZE PUSH2 0x35D JUMP JUMPDEST DUP7 MLOAD RETURNDATASIZE DUP11 DUP3 RETURNDATACOPY RETURNDATASIZE SWAP1 REVERT JUMPDEST DUP4 DUP3 CALLVALUE PUSH2 0x3B8 JUMPI DUP2 PUSH1 0x3 NOT CALLDATASIZE ADD SLT PUSH2 0x3B8 JUMPI PUSH1 0x2 SLOAD SWAP1 MLOAD PUSH1 0x1 PUSH1 0x1 PUSH1 0xA0 SHL SUB SWAP1 SWAP2 AND DUP2 MSTORE PUSH1 0x20 SWAP1 RETURN JUMPDEST POP DUP1 REVERT JUMPDEST POP SWAP1 CALLVALUE PUSH2 0x21E JUMPI PUSH1 0x20 CALLDATASIZE PUSH1 0x3 NOT ADD SLT PUSH2 0x21E JUMPI PUSH1 0x20 SWAP3 DUP3 SWAP2 CALLDATALOAD DUP2 MSTORE PUSH1 0xB DUP5 MSTORE KECCAK256 SLOAD SWAP1 MLOAD SWAP1 DUP2 MSTORE RETURN JUMPDEST POP SWAP1 CALLVALUE PUSH2 0x21E JUMPI PUSH1 0x20 CALLDATASIZE PUSH1 0x3 NOT ADD SLT PUSH2 0x21E JUMPI PUSH1 0x20 SWAP3 DUP3 SWAP2 CALLDATALOAD DUP2 MSTORE PUSH1 0xA DUP5 MSTORE KECCAK256 SLOAD SWAP1 MLOAD SWAP1 DUP2 MSTORE RETURN JUMPDEST DUP4 DUP3 CALLVALUE PUSH2 0x3B8 JUMPI DUP2 PUSH1 0x3 NOT CALLDATASIZE ADD SLT PUSH2 0x3B8 JUMPI PUSH1 0x20 SWAP1 PUSH1 0x6 SLOAD SWAP1 MLOAD SWAP1 DUP2 MSTORE RETURN JUMPDEST POP SWAP2 CALLVALUE PUSH2 0x633 JUMPI PUSH2 0x120 CALLDATASIZE PUSH1 0x3 NOT ADD SLT PUSH2 0x633 JUMPI PUSH8 0xFFFFFFFFFFFFFFFF SWAP3 DUP3 CALLDATALOAD DUP5 DUP2 GT PUSH2 0x21E JUMPI PUSH2 0x45F SWAP1 CALLDATASIZE SWAP1 DUP6 ADD PUSH2 0x12DE JUMP JUMPDEST SWAP5 SWAP1 SWAP4 PUSH1 0x24 CALLDATALOAD DUP3 DUP2 GT PUSH2 0x62F JUMPI PUSH2 0x479 SWAP1 CALLDATASIZE SWAP1 DUP4 ADD PUSH2 0x12DE JUMP JUMPDEST SWAP1 SWAP3 PUSH1 0x64 CALLDATALOAD SWAP7 PUSH1 0x1 DUP1 PUSH1 0xA0 SHL SUB SWAP3 DUP4 DUP10 AND DUP1 SWAP10 SUB PUSH2 0x37A JUMPI PUSH1 0x84 CALLDATALOAD SWAP6 DUP7 ISZERO ISZERO SWAP4 DUP5 DUP9 SUB PUSH2 0x62B JUMPI PUSH1 0xA4 CALLDATALOAD SWAP1 DUP2 GT PUSH2 0x62B JUMPI PUSH2 0x4B7 SWAP1 CALLDATASIZE SWAP1 DUP9 ADD PUSH2 0x12DE JUMP JUMPDEST SWAP2 SWAP1 SWAP3 PUSH2 0x104 CALLDATALOAD SWAP5 DUP8 DUP7 AND DUP1 SWAP7 SUB PUSH2 0x627 JUMPI SWAP3 PUSH2 0x4FD PUSH2 0x520 SWAP4 DUP14 SWAP15 SWAP16 SWAP7 SWAP4 PUSH2 0x4F4 DUP15 SWAP16 SWAP15 SWAP8 PUSH2 0x55A SWAP11 SWAP9 MLOAD SWAP10 PUSH2 0x4ED DUP12 PUSH2 0x133B JUMP JUMPDEST CALLDATASIZE SWAP2 PUSH2 0x13EF JUMP JUMPDEST DUP9 MSTORE CALLDATASIZE SWAP2 PUSH2 0x13EF JUMP JUMPDEST SWAP7 PUSH1 0x20 SWAP15 DUP16 SWAP9 DUP10 DUP9 ADD MSTORE DUP14 PUSH1 0x44 CALLDATALOAD SWAP1 DUP9 ADD MSTORE PUSH1 0x60 DUP8 ADD MSTORE PUSH1 0x80 DUP7 ADD MSTORE CALLDATASIZE SWAP2 PUSH2 0x13EF JUMP JUMPDEST PUSH1 0xA0 DUP4 ADD MSTORE PUSH1 0xC4 CALLDATALOAD PUSH1 0xC0 DUP4 ADD MSTORE PUSH1 0xE4 CALLDATALOAD PUSH1 0xE0 DUP4 ADD MSTORE PUSH2 0x100 DUP3 ADD MSTORE DUP4 DUP8 SLOAD AND SWAP1 DUP9 MLOAD SWAP10 DUP11 DUP1 SWAP5 DUP2 SWAP4 PUSH4 0xA7A36B4F PUSH1 0xE0 SHL DUP4 MSTORE DUP10 DUP4 ADD PUSH2 0x146E JUMP JUMPDEST SUB SWAP3 GAS CALL SWAP6 DUP7 ISZERO PUSH2 0x252 JUMPI DUP5 SWAP7 PUSH2 0x5F8 JUMPI JUMPDEST POP DUP4 SLOAD AND SWAP1 DUP2 EXTCODESIZE ISZERO PUSH2 0x5F4 JUMPI DUP4 SWAP2 PUSH1 0x44 DUP4 SWAP3 DUP8 MLOAD SWAP5 DUP6 SWAP4 DUP5 SWAP3 PUSH4 0x12232E9 PUSH1 0xE6 SHL DUP5 MSTORE CALLER SWAP1 DUP5 ADD MSTORE PUSH1 0x3 PUSH1 0x24 DUP5 ADD MSTORE GAS CALL DUP1 ISZERO PUSH2 0x5EA JUMPI PUSH2 0x5DB JUMPI JUMPDEST POP ISZERO PUSH2 0x5CC JUMPI DUP2 PUSH2 0x5BB PUSH1 0x5 SLOAD TIMESTAMP PUSH2 0x150B JUMP JUMPDEST SWAP2 DUP5 DUP2 MSTORE PUSH1 0xA DUP7 MSTORE KECCAK256 SSTORE JUMPDEST MLOAD SWAP1 DUP2 MSTORE RETURN JUMPDEST POP PUSH2 0x5D6 DUP3 PUSH2 0x171E JUMP JUMPDEST PUSH2 0x5C6 JUMP JUMPDEST PUSH2 0x5E4 SWAP1 PUSH2 0x1311 JUMP JUMPDEST CODESIZE PUSH2 0x5A8 JUMP JUMPDEST DUP5 MLOAD RETURNDATASIZE DUP6 DUP3 RETURNDATACOPY RETURNDATASIZE SWAP1 REVERT JUMPDEST DUP4 DUP1 REVERT JUMPDEST SWAP1 SWAP6 POP DUP7 DUP2 DUP2 RETURNDATASIZE DUP4 GT PUSH2 0x620 JUMPI JUMPDEST PUSH2 0x610 DUP2 DUP4 PUSH2 0x1374 JUMP JUMPDEST DUP2 ADD SUB SLT PUSH2 0x5F4 JUMPI MLOAD SWAP5 CODESIZE PUSH2 0x56C JUMP JUMPDEST POP RETURNDATASIZE PUSH2 0x606 JUMP JUMPDEST DUP12 DUP1 REVERT JUMPDEST DUP10 DUP1 REVERT JUMPDEST DUP5 DUP1 REVERT JUMPDEST DUP1 REVERT JUMPDEST DUP4 DUP3 CALLVALUE PUSH2 0x3B8 JUMPI DUP2 PUSH1 0x3 NOT CALLDATASIZE ADD SLT PUSH2 0x3B8 JUMPI PUSH1 0x20 SWAP1 PUSH1 0x7 SLOAD SWAP1 MLOAD SWAP1 DUP2 MSTORE RETURN JUMPDEST POP CALLVALUE PUSH2 0x21E JUMPI DUP3 PUSH1 0x3 NOT CALLDATASIZE ADD SLT PUSH2 0x21E JUMPI PUSH1 0x1 SLOAD DUP2 MLOAD PUSH3 0x9032FF PUSH1 0xE5 SHL DUP2 MSTORE SWAP3 PUSH1 0x20 SWAP2 DUP5 SWAP2 SWAP1 DUP3 SWAP1 PUSH1 0x1 PUSH1 0x1 PUSH1 0xA0 SHL SUB AND GAS STATICCALL SWAP2 DUP3 ISZERO PUSH2 0x6D7 JUMPI DUP4 SWAP3 PUSH2 0x6A0 JUMPI JUMPDEST PUSH1 0x20 DUP4 DUP4 MLOAD SWAP1 DUP2 MSTORE RETURN JUMPDEST SWAP1 SWAP2 POP PUSH1 0x20 DUP2 RETURNDATASIZE DUP3 GT PUSH2 0x6CF JUMPI JUMPDEST DUP2 PUSH2 0x6BB PUSH1 0x20 SWAP4 DUP4 PUSH2 0x1374 JUMP JUMPDEST DUP2 ADD SUB SLT PUSH2 0x21E JUMPI PUSH1 0x20 SWAP3 POP MLOAD SWAP1 CODESIZE PUSH2 0x696 JUMP JUMPDEST RETURNDATASIZE SWAP2 POP PUSH2 0x6AE JUMP JUMPDEST DUP2 MLOAD RETURNDATASIZE DUP6 DUP3 RETURNDATACOPY RETURNDATASIZE SWAP1 REVERT JUMPDEST POP CALLVALUE PUSH2 0x21E JUMPI DUP3 PUSH1 0x3 NOT CALLDATASIZE ADD SLT PUSH2 0x21E JUMPI DUP3 SLOAD DUP2 MLOAD PUSH4 0x997072F7 PUSH1 0xE0 SHL DUP2 MSTORE SWAP3 PUSH1 0x20 SWAP2 DUP5 SWAP2 SWAP1 DUP3 SWAP1 PUSH1 0x1 PUSH1 0x1 PUSH1 0xA0 SHL SUB AND GAS STATICCALL SWAP2 DUP3 ISZERO PUSH2 0x6D7 JUMPI DUP4 SWAP3 PUSH2 0x6A0 JUMPI PUSH1 0x20 DUP4 DUP4 MLOAD SWAP1 DUP2 MSTORE RETURN JUMPDEST POP CALLVALUE PUSH2 0x21E JUMPI DUP1 PUSH1 0x3 NOT CALLDATASIZE ADD SLT PUSH2 0x21E JUMPI DUP2 CALLDATALOAD SWAP1 PUSH1 0x24 SWAP2 DUP3 CALLDATALOAD SWAP1 PUSH1 0xFF DUP3 AND DUP1 SWAP3 SUB PUSH2 0x9D7 JUMPI DUP6 SLOAD DUP4 MLOAD PUSH4 0x18FEEB15 PUSH1 0xE3 SHL DUP2 MSTORE DUP7 DUP2 ADD DUP4 SWAP1 MSTORE PUSH1 0x1 PUSH1 0x1 PUSH1 0xA0 SHL SUB SWAP2 DUP3 AND SWAP4 SWAP1 DUP9 DUP2 DUP9 DUP2 DUP9 GAS STATICCALL SWAP1 DUP2 ISZERO PUSH2 0x9CD JUMPI SWAP1 PUSH2 0x140 SWAP2 DUP11 SWAP2 PUSH2 0x9AB JUMPI JUMPDEST POP ADD MLOAD ISZERO PUSH2 0x95B JUMPI DUP3 DUP9 MSTORE PUSH1 0x20 SWAP4 PUSH1 0xA DUP6 MSTORE DUP6 DUP10 KECCAK256 SLOAD TIMESTAMP GT PUSH2 0x923 JUMPI DUP6 MLOAD PUSH4 0x62D4F893 PUSH1 0xE0 SHL DUP2 MSTORE DUP9 DUP2 ADD DUP6 DUP2 MSTORE CALLER PUSH1 0x20 DUP3 ADD MSTORE DUP7 SWAP1 DUP3 SWAP1 DUP2 SWAP1 PUSH1 0x40 ADD SUB DUP2 DUP6 GAS STATICCALL SWAP1 DUP2 ISZERO PUSH2 0x919 JUMPI DUP11 SWAP2 PUSH2 0x8E4 JUMPI JUMPDEST POP PUSH2 0x8B2 JUMPI SWAP1 DUP2 DUP10 SWAP4 SWAP3 EXTCODESIZE ISZERO PUSH2 0x5F4 JUMPI DUP5 PUSH1 0x44 DUP11 DUP7 DUP1 SWAP5 DUP12 MLOAD SWAP7 DUP8 SWAP6 DUP7 SWAP5 PUSH4 0x4A1F410B PUSH1 0xE1 SHL DUP7 MSTORE DUP6 ADD MSTORE DUP14 DUP5 ADD MSTORE GAS CALL DUP1 ISZERO PUSH2 0x8A8 JUMPI PUSH2 0x899 JUMPI JUMPDEST POP DUP2 SLOAD AND DUP1 EXTCODESIZE ISZERO PUSH2 0x3B8 JUMPI DUP2 SWAP1 PUSH1 0x44 DUP7 MLOAD DUP1 SWAP5 DUP2 SWAP4 PUSH4 0x12232E9 PUSH1 0xE6 SHL DUP4 MSTORE CALLER DUP13 DUP5 ADD MSTORE PUSH1 0x1 DUP12 DUP5 ADD MSTORE GAS CALL DUP1 ISZERO PUSH2 0x88F JUMPI SWAP1 PUSH1 0xB SWAP4 SWAP3 SWAP2 PUSH2 0x880 JUMPI JUMPDEST POP DUP7 MSTORE MSTORE DUP4 KECCAK256 SWAP1 DUP2 SLOAD SWAP3 PUSH1 0x1 DUP5 ADD DUP1 SWAP5 GT PUSH2 0x86F JUMPI POP POP SSTORE DUP1 RETURN JUMPDEST PUSH4 0x4E487B71 PUSH1 0xE0 SHL DUP6 MSTORE PUSH1 0x11 SWAP1 MSTORE DUP4 REVERT JUMPDEST PUSH2 0x889 SWAP1 PUSH2 0x1311 JUMP JUMPDEST CODESIZE PUSH2 0x854 JUMP JUMPDEST DUP5 MLOAD RETURNDATASIZE DUP10 DUP3 RETURNDATACOPY RETURNDATASIZE SWAP1 REVERT JUMPDEST PUSH2 0x8A2 SWAP1 PUSH2 0x1311 JUMP JUMPDEST CODESIZE PUSH2 0x817 JUMP JUMPDEST DUP7 MLOAD RETURNDATASIZE DUP6 DUP3 RETURNDATACOPY RETURNDATASIZE SWAP1 REVERT JUMPDEST DUP6 MLOAD PUSH3 0x461BCD PUSH1 0xE5 SHL DUP2 MSTORE DUP1 DUP10 ADD DUP7 SWAP1 MSTORE PUSH1 0xD DUP2 DUP10 ADD MSTORE PUSH13 0x105B1C9958591E481D9BDD1959 PUSH1 0x9A SHL PUSH1 0x44 DUP3 ADD MSTORE PUSH1 0x64 SWAP1 REVERT JUMPDEST SWAP1 POP DUP6 DUP2 DUP2 RETURNDATASIZE DUP4 GT PUSH2 0x912 JUMPI JUMPDEST PUSH2 0x8FB DUP2 DUP4 PUSH2 0x1374 JUMP JUMPDEST DUP2 ADD SUB SLT PUSH2 0x62B JUMPI PUSH2 0x90C SWAP1 PUSH2 0x1396 JUMP JUMPDEST CODESIZE PUSH2 0x7DB JUMP JUMPDEST POP RETURNDATASIZE PUSH2 0x8F1 JUMP JUMPDEST DUP8 MLOAD RETURNDATASIZE DUP13 DUP3 RETURNDATACOPY RETURNDATASIZE SWAP1 REVERT JUMPDEST DUP6 MLOAD PUSH3 0x461BCD PUSH1 0xE5 SHL DUP2 MSTORE DUP1 DUP10 ADD DUP7 SWAP1 MSTORE PUSH1 0x13 DUP2 DUP10 ADD MSTORE PUSH19 0x159BDD1A5B99C81C195C9A5BD908195B991959 PUSH1 0x6A SHL PUSH1 0x44 DUP3 ADD MSTORE PUSH1 0x64 SWAP1 REVERT JUMPDEST DUP5 MLOAD PUSH3 0x461BCD PUSH1 0xE5 SHL DUP2 MSTORE PUSH1 0x20 DUP2 DUP10 ADD MSTORE PUSH1 0x25 DUP2 DUP9 ADD MSTORE PUSH32 0x546869732070726F706F73616C20646F6573206E6F7420726571756972652076 PUSH1 0x44 DUP3 ADD MSTORE PUSH5 0x6F74696E67 PUSH1 0xD8 SHL PUSH1 0x64 DUP3 ADD MSTORE PUSH1 0x84 SWAP1 REVERT JUMPDEST PUSH2 0x9C7 SWAP2 POP RETURNDATASIZE DUP1 DUP13 DUP4 RETURNDATACOPY PUSH2 0x9BF DUP2 DUP4 PUSH2 0x1374 JUMP JUMPDEST DUP2 ADD SWAP1 PUSH2 0x1587 JUMP JUMPDEST CODESIZE PUSH2 0x78B JUMP JUMPDEST DUP7 MLOAD RETURNDATASIZE DUP12 DUP3 RETURNDATACOPY RETURNDATASIZE SWAP1 REVERT JUMPDEST DUP6 DUP1 REVERT JUMPDEST DUP4 DUP3 CALLVALUE PUSH2 0x3B8 JUMPI DUP2 PUSH1 0x3 NOT CALLDATASIZE ADD SLT PUSH2 0x3B8 JUMPI PUSH2 0x9F5 PUSH2 0x1C59 JUMP JUMPDEST DUP2 MLOAD SWAP3 DUP4 SWAP3 PUSH1 0x20 DUP1 DUP1 DUP7 ADD SWAP3 DUP2 DUP8 MSTORE DUP6 MLOAD DUP1 SWAP5 MSTORE DUP7 ADD SWAP5 ADD SWAP3 JUMPDEST DUP3 DUP2 LT PUSH2 0xA1E JUMPI POP POP POP POP SUB SWAP1 RETURN JUMPDEST DUP4 MLOAD PUSH1 0x1 PUSH1 0x1 PUSH1 0xA0 SHL SUB AND DUP6 MSTORE DUP7 SWAP6 POP SWAP4 DUP2 ADD SWAP4 SWAP3 DUP2 ADD SWAP3 PUSH1 0x1 ADD PUSH2 0xA0F JUMP JUMPDEST DUP3 DUP2 DUP6 CALLVALUE PUSH2 0x3B8 JUMPI PUSH1 0x20 DUP1 PUSH1 0x3 NOT CALLDATASIZE ADD SLT PUSH2 0x21E JUMPI DUP3 SLOAD DUP5 MLOAD PUSH4 0x18FEEB15 PUSH1 0xE3 SHL DUP2 MSTORE DUP4 CALLDATALOAD DUP2 DUP6 ADD DUP2 SWAP1 MSTORE PUSH1 0x24 SWAP8 SWAP2 SWAP7 SWAP3 PUSH1 0x1 PUSH1 0x1 PUSH1 0xA0 SHL SUB SWAP3 SWAP1 DUP9 SWAP1 DUP11 SWAP1 DUP3 SWAP1 DUP7 AND GAS STATICCALL SWAP7 DUP8 ISZERO PUSH2 0x11BF JUMPI DUP7 SWAP8 PUSH2 0x11A3 JUMPI JUMPDEST POP PUSH2 0x140 DUP8 ADD MLOAD ISZERO PUSH2 0x1169 JUMPI DUP1 DUP7 MSTORE PUSH1 0xA DUP5 MSTORE DUP3 DUP7 KECCAK256 SLOAD TIMESTAMP GT ISZERO PUSH2 0x1127 JUMPI DUP1 DUP7 MSTORE PUSH1 0xC DUP5 MSTORE PUSH1 0xFF DUP4 DUP8 KECCAK256 SLOAD AND PUSH2 0x10F2 JUMPI PUSH2 0xAC9 PUSH2 0x1C59 JUMP JUMPDEST SWAP1 DUP7 JUMPDEST DUP3 MLOAD DUP2 LT ISZERO PUSH2 0xD43 JUMPI DUP4 DUP9 SLOAD AND DUP5 PUSH2 0xAE4 DUP4 DUP7 PUSH2 0x16C9 JUMP JUMPDEST MLOAD DUP8 MLOAD PUSH4 0x62D4F893 PUSH1 0xE0 SHL DUP2 MSTORE DUP11 DUP2 ADD DUP7 DUP2 MSTORE SWAP3 SWAP1 SWAP2 AND PUSH1 0x1 PUSH1 0x1 PUSH1 0xA0 SHL SUB AND PUSH1 0x20 DUP4 ADD MSTORE SWAP1 DUP9 SWAP1 DUP3 SWAP1 DUP2 SWAP1 PUSH1 0x40 ADD SUB DUP2 DUP6 GAS STATICCALL SWAP1 DUP2 ISZERO PUSH2 0x919 JUMPI DUP11 SWAP2 PUSH2 0xD0E JUMPI JUMPDEST POP ISZERO PUSH2 0xB51 JUMPI JUMPDEST POP PUSH1 0x0 NOT DUP2 EQ PUSH2 0xB3F JUMPI PUSH1 0x1 ADD PUSH2 0xACC JUMP JUMPDEST PUSH4 0x4E487B71 PUSH1 0xE0 SHL DUP9 MSTORE PUSH1 0x11 DUP8 MSTORE DUP10 DUP9 REVERT JUMPDEST DUP5 PUSH2 0xB5C DUP4 DUP7 PUSH2 0x16C9 JUMP JUMPDEST MLOAD AND DUP2 EXTCODESIZE ISZERO PUSH2 0x62B JUMPI DUP10 SWAP1 DUP13 DUP11 DUP4 DUP11 MLOAD SWAP6 DUP7 SWAP5 DUP6 SWAP4 PUSH4 0x5D437B85 PUSH1 0xE1 SHL DUP6 MSTORE DUP5 ADD MSTORE GAS CALL DUP1 ISZERO PUSH2 0x9CD JUMPI PUSH2 0xCFF JUMPI JUMPDEST POP DUP4 DUP9 SLOAD AND DUP5 PUSH2 0xB9B DUP4 DUP7 PUSH2 0x16C9 JUMP JUMPDEST MLOAD AND SWAP1 DUP1 EXTCODESIZE ISZERO PUSH2 0x62B JUMPI DUP7 MLOAD PUSH4 0xA462E50F PUSH1 0xE0 SHL DUP2 MSTORE DUP1 DUP11 ADD DUP6 DUP2 MSTORE PUSH1 0x1 PUSH1 0x1 PUSH1 0xA0 SHL SUB SWAP1 SWAP4 AND PUSH1 0x20 DUP5 ADD MSTORE SWAP2 DUP11 SWAP2 DUP4 SWAP2 DUP3 SWAP1 DUP5 SWAP1 DUP3 SWAP1 PUSH1 0x40 ADD SUB SWAP3 GAS CALL DUP1 ISZERO PUSH2 0x9CD JUMPI PUSH2 0xCF0 JUMPI JUMPDEST POP DUP4 DUP9 SLOAD AND DUP5 PUSH2 0xBF4 DUP4 DUP7 PUSH2 0x16C9 JUMP JUMPDEST MLOAD AND SWAP1 DUP1 EXTCODESIZE ISZERO PUSH2 0x62B JUMPI SWAP1 DUP10 DUP10 DUP2 SWAP4 PUSH1 0x3 DUP16 DUP12 MLOAD SWAP6 DUP7 SWAP5 PUSH4 0x2B72EE51 PUSH1 0xE0 SHL DUP7 MSTORE DUP6 ADD MSTORE DUP4 ADD MSTORE DUP2 PUSH1 0x44 SWAP6 DUP7 SWAP3 GAS CALL DUP1 ISZERO PUSH2 0x919 JUMPI PUSH2 0xCE1 JUMPI JUMPDEST POP DUP5 PUSH2 0xC3A DUP4 DUP7 PUSH2 0x16C9 JUMP JUMPDEST MLOAD AND BALANCE PUSH1 0x6 SLOAD DUP1 SWAP2 LT PUSH2 0xCA0 JUMPI DUP10 DUP1 DUP1 DUP1 SWAP4 DUP10 PUSH1 0x1 SLOAD AND GAS CALL PUSH2 0xC5B PUSH2 0x13BF JUMP JUMPDEST POP PUSH2 0xB2D JUMPI DUP8 PUSH32 0x4661696C656420746F2073656E642070656E616C747920746F207661756C7400 PUSH1 0x64 SWAP3 PUSH1 0x1F DUP15 DUP12 DUP12 MLOAD SWAP6 PUSH3 0x461BCD PUSH1 0xE5 SHL DUP8 MSTORE DUP7 ADD MSTORE DUP5 ADD MSTORE DUP3 ADD MSTORE REVERT JUMPDEST POP DUP8 PUSH32 0x4E6F7420656E6F7567682045544820666F722070656E616C7479000000000000 PUSH1 0x64 SWAP3 PUSH1 0x1A DUP15 DUP12 DUP12 MLOAD SWAP6 PUSH3 0x461BCD PUSH1 0xE5 SHL DUP8 MSTORE DUP7 ADD MSTORE DUP5 ADD MSTORE DUP3 ADD MSTORE REVERT JUMPDEST PUSH2 0xCEA SWAP1 PUSH2 0x1311 JUMP JUMPDEST DUP12 PUSH2 0xC2E JUMP JUMPDEST PUSH2 0xCF9 SWAP1 PUSH2 0x1311 JUMP JUMPDEST DUP11 PUSH2 0xBE4 JUMP JUMPDEST PUSH2 0xD08 SWAP1 PUSH2 0x1311 JUMP JUMPDEST DUP11 PUSH2 0xB8B JUMP JUMPDEST SWAP1 POP DUP8 DUP2 DUP2 RETURNDATASIZE DUP4 GT PUSH2 0xD3C JUMPI JUMPDEST PUSH2 0xD25 DUP2 DUP4 PUSH2 0x1374 JUMP JUMPDEST DUP2 ADD SUB SLT PUSH2 0x62B JUMPI PUSH2 0xD36 SWAP1 PUSH2 0x1396 JUMP JUMPDEST DUP13 PUSH2 0xB26 JUMP JUMPDEST POP RETURNDATASIZE PUSH2 0xD1B JUMP JUMPDEST POP SWAP7 DUP9 SWAP4 SWAP5 SWAP3 SWAP2 POP PUSH1 0xA0 DUP2 ADD PUSH2 0xD5F DUP2 MLOAD PUSH1 0xC0 DUP5 ADD MLOAD SWAP1 PUSH2 0x150B JUMP JUMPDEST SWAP1 DUP2 PUSH2 0x10C5 JUMPI POP POP DUP7 SWAP3 JUMPDEST DUP7 SLOAD DUP5 LT PUSH2 0x104E JUMPI DUP3 DUP9 SLOAD AND DUP1 EXTCODESIZE ISZERO PUSH2 0x104A JUMPI DUP9 DUP11 PUSH1 0x44 DUP11 DUP4 DUP12 MLOAD SWAP6 DUP7 SWAP5 DUP6 SWAP4 PUSH4 0x32FA5185 PUSH1 0xE2 SHL DUP6 MSTORE DUP5 ADD MSTORE PUSH1 0x1 DUP13 DUP5 ADD MSTORE GAS CALL DUP1 ISZERO PUSH2 0x1040 JUMPI PUSH2 0x1031 JUMPI JUMPDEST POP DUP9 PUSH32 0xE36F8B7448DAFF4A52E2945DB0D1D7A436279CC1D527A45C27835DCBD27F336D DUP10 DUP1 LOG2 PUSH2 0xDD9 DUP10 PUSH2 0x171E JUMP JUMPDEST DUP3 DUP9 SLOAD AND SWAP9 DUP3 MLOAD SWAP10 PUSH2 0xE26 PUSH1 0x31 DUP10 MLOAD DUP1 SWAP14 PUSH17 0x22BC32B1BABA34B7B71021B432B1B59D1 PUSH1 0x7D SHL DUP8 DUP4 ADD MSTORE PUSH2 0xE15 DUP2 MLOAD DUP1 SWAP3 DUP10 DUP7 DUP7 ADD SWAP2 ADD PUSH2 0x1426 JUMP JUMPDEST DUP2 ADD SUB DUP14 PUSH1 0x11 DUP3 ADD SWAP1 MSTORE ADD DUP13 PUSH2 0x1374 JUMP JUMPDEST DUP5 PUSH2 0x120 DUP6 ADD MLOAD AND DUP9 MLOAD SWAP12 PUSH2 0xE3A DUP14 PUSH2 0x133B JUMP JUMPDEST DUP13 MSTORE DUP9 MLOAD DUP1 PUSH1 0x60 DUP2 ADD LT PUSH8 0xFFFFFFFFFFFFFFFF PUSH1 0x60 DUP4 ADD GT OR PUSH2 0x101F JUMPI SWAP12 PUSH2 0xEEE SWAP3 DUP6 SWAP3 DUP15 DUP15 SWAP16 DUP14 SWAP15 SWAP16 SWAP14 PUSH1 0x60 PUSH4 0x7465643F PUSH1 0xE0 SHL SWAP3 ADD DUP2 MSTORE DUP14 DUP4 MSTORE PUSH32 0x57617320746869732070726F706F73616C2070726F7065726C79206578656375 DUP8 DUP5 ADD MSTORE DUP3 ADD MSTORE DUP5 DUP5 ADD MSTORE DUP12 DUP14 DUP5 ADD MSTORE DUP12 PUSH1 0x60 DUP5 ADD MSTORE PUSH1 0x1 PUSH1 0x80 DUP5 ADD MSTORE PUSH2 0xEBC PUSH2 0x16F3 JUMP JUMPDEST PUSH1 0xA0 DUP5 ADD MSTORE DUP12 PUSH1 0xC0 DUP5 ADD MSTORE DUP12 PUSH1 0xE0 DUP5 ADD MSTORE PUSH2 0x100 DUP4 ADD MSTORE DUP13 DUP12 DUP14 MLOAD DUP1 SWAP7 DUP2 SWAP6 DUP3 SWAP5 PUSH4 0xA7A36B4F PUSH1 0xE0 SHL DUP5 MSTORE DUP4 ADD PUSH2 0x146E JUMP JUMPDEST SUB SWAP3 GAS CALL DUP1 ISZERO PUSH2 0x1015 JUMPI SWAP1 DUP4 SWAP2 PUSH2 0xFEC JUMPI JUMPDEST POP POP JUMPDEST DUP7 MSTORE PUSH1 0xC DUP2 MSTORE DUP7 DUP7 KECCAK256 DUP1 SLOAD PUSH1 0xFF NOT AND PUSH1 0x1 OR SWAP1 SSTORE PUSH2 0x160 DUP3 ADD MLOAD DUP1 MLOAD SWAP1 DUP3 ADD KECCAK256 SWAP1 PUSH2 0xF2C PUSH2 0x16F3 JUMP JUMPDEST DUP1 MLOAD SWAP2 ADD KECCAK256 EQ PUSH2 0xF3A JUMPI DUP5 DUP1 RETURN JUMPDEST PUSH2 0x1C0 ADD MLOAD DUP7 SLOAD SWAP1 DUP3 AND SWAP3 LT PUSH2 0xF9C JUMPI DUP4 SLOAD AND SWAP1 DUP2 EXTCODESIZE ISZERO PUSH2 0x5F4 JUMPI DUP4 PUSH1 0x44 SWAP3 DUP7 MLOAD SWAP8 DUP9 SWAP6 DUP7 SWAP5 PUSH4 0x12232E9 PUSH1 0xE6 SHL DUP7 MSTORE DUP3 DUP7 ADD MSTORE DUP5 ADD MSTORE GAS CALL SWAP1 DUP2 ISZERO PUSH2 0x215 JUMPI POP PUSH2 0xF8D JUMPI JUMPDEST POP JUMPDEST DUP2 DUP1 DUP3 DUP2 DUP1 DUP1 DUP1 DUP5 DUP1 RETURN JUMPDEST PUSH2 0xF96 SWAP1 PUSH2 0x1311 JUMP JUMPDEST DUP2 PUSH2 0xF80 JUMP JUMPDEST DUP4 SWAP6 SWAP2 SWAP3 SWAP6 SLOAD AND SWAP1 DUP2 EXTCODESIZE ISZERO PUSH2 0x5F4 JUMPI DUP4 PUSH1 0x44 SWAP3 PUSH1 0xA DUP8 MLOAD SWAP9 DUP10 SWAP7 DUP8 SWAP6 PUSH4 0x2B72EE51 PUSH1 0xE0 SHL DUP8 MSTORE DUP7 ADD MSTORE DUP5 ADD MSTORE GAS CALL SWAP1 DUP2 ISZERO PUSH2 0x215 JUMPI POP PUSH2 0xFDD JUMPI JUMPDEST POP PUSH2 0xF82 JUMP JUMPDEST PUSH2 0xFE6 SWAP1 PUSH2 0x1311 JUMP JUMPDEST DUP2 PUSH2 0xFD7 JUMP JUMPDEST DUP2 RETURNDATASIZE DUP4 GT PUSH2 0x100E JUMPI JUMPDEST PUSH2 0xFFF DUP2 DUP4 PUSH2 0x1374 JUMP JUMPDEST DUP2 ADD SUB SLT PUSH2 0x33B JUMPI DUP2 DUP12 PUSH2 0xF00 JUMP JUMPDEST POP RETURNDATASIZE PUSH2 0xFF5 JUMP JUMPDEST DUP10 MLOAD RETURNDATASIZE DUP11 DUP3 RETURNDATACOPY RETURNDATASIZE SWAP1 REVERT JUMPDEST PUSH4 0x4E487B71 PUSH1 0xE0 SHL DUP13 MSTORE PUSH1 0x41 DUP12 MSTORE DUP9 DUP13 REVERT JUMPDEST PUSH2 0x103A SWAP1 PUSH2 0x1311 JUMP JUMPDEST DUP10 PUSH2 0xDAA JUMP JUMPDEST DUP8 MLOAD RETURNDATASIZE DUP12 DUP3 RETURNDATACOPY RETURNDATASIZE SWAP1 REVERT JUMPDEST DUP9 DUP1 REVERT JUMPDEST DUP8 SWAP9 DUP4 DUP10 SWAP8 SWAP9 SWAP10 SLOAD AND DUP1 EXTCODESIZE ISZERO PUSH2 0x37A JUMPI DUP8 DUP3 PUSH1 0x44 DUP13 DUP4 DUP14 MLOAD SWAP6 DUP7 SWAP5 DUP6 SWAP4 PUSH4 0x32FA5185 PUSH1 0xE2 SHL DUP6 MSTORE DUP5 ADD MSTORE PUSH1 0x2 DUP14 DUP5 ADD MSTORE GAS CALL DUP1 ISZERO PUSH2 0x1015 JUMPI PUSH2 0x10B6 JUMPI JUMPDEST POP DUP1 PUSH32 0xD92FBA445EDB3153B571E6DF782D7A66FD0CE668519273670820EE3A86DA0EF4 DUP9 DUP1 LOG2 PUSH2 0xF03 JUMP JUMPDEST PUSH2 0x10BF SWAP1 PUSH2 0x1311 JUMP JUMPDEST DUP11 PUSH2 0x108B JUMP JUMPDEST MLOAD PUSH1 0x64 DUP2 MUL SWAP1 DUP1 DUP3 DIV PUSH1 0x64 EQ SWAP1 ISZERO OR ISZERO PUSH2 0x10E0 JUMPI DIV SWAP3 PUSH2 0xD6A JUMP JUMPDEST PUSH4 0x4E487B71 PUSH1 0xE0 SHL DUP10 MSTORE PUSH1 0x11 DUP9 MSTORE DUP6 DUP10 REVERT JUMPDEST DUP3 MLOAD PUSH3 0x461BCD PUSH1 0xE5 SHL DUP2 MSTORE DUP1 DUP7 ADD DUP6 SWAP1 MSTORE PUSH1 0x10 DUP2 DUP11 ADD MSTORE PUSH16 0x105B1C9958591E48195E1958DD5D1959 PUSH1 0x82 SHL PUSH1 0x44 DUP3 ADD MSTORE PUSH1 0x64 SWAP1 REVERT JUMPDEST DUP3 MLOAD PUSH3 0x461BCD PUSH1 0xE5 SHL DUP2 MSTORE DUP1 DUP7 ADD DUP6 SWAP1 MSTORE PUSH1 0x17 DUP2 DUP11 ADD MSTORE PUSH32 0x566F74696E6720706572696F64206E6F7420656E646564000000000000000000 PUSH1 0x44 DUP3 ADD MSTORE PUSH1 0x64 SWAP1 REVERT JUMPDEST DUP3 MLOAD PUSH3 0x461BCD PUSH1 0xE5 SHL DUP2 MSTORE DUP1 DUP7 ADD DUP6 SWAP1 MSTORE PUSH1 0x15 DUP2 DUP11 ADD MSTORE PUSH21 0x139BDD0818481D9BDD1A5B99C81C1C9BDC1BDCD85B PUSH1 0x5A SHL PUSH1 0x44 DUP3 ADD MSTORE PUSH1 0x64 SWAP1 REVERT JUMPDEST PUSH2 0x11B8 SWAP2 SWAP8 POP RETURNDATASIZE DUP1 DUP9 DUP4 RETURNDATACOPY PUSH2 0x9BF DUP2 DUP4 PUSH2 0x1374 JUMP JUMPDEST SWAP6 DUP9 PUSH2 0xA91 JUMP JUMPDEST DUP4 MLOAD RETURNDATASIZE DUP9 DUP3 RETURNDATACOPY RETURNDATASIZE SWAP1 REVERT JUMPDEST DUP4 DUP3 CALLVALUE PUSH2 0x3B8 JUMPI DUP2 PUSH1 0x3 NOT CALLDATASIZE ADD SLT PUSH2 0x3B8 JUMPI PUSH1 0x20 SWAP1 PUSH1 0x8 SLOAD SWAP1 MLOAD SWAP1 DUP2 MSTORE RETURN JUMPDEST DUP4 DUP3 CALLVALUE PUSH2 0x3B8 JUMPI DUP2 PUSH1 0x3 NOT CALLDATASIZE ADD SLT PUSH2 0x3B8 JUMPI PUSH1 0x20 SWAP1 PUSH1 0x3 SLOAD SWAP1 MLOAD SWAP1 DUP2 MSTORE RETURN JUMPDEST DUP4 DUP3 CALLVALUE PUSH2 0x3B8 JUMPI DUP2 PUSH1 0x3 NOT CALLDATASIZE ADD SLT PUSH2 0x3B8 JUMPI SWAP1 SLOAD SWAP1 MLOAD PUSH1 0x1 PUSH1 0x1 PUSH1 0xA0 SHL SUB SWAP1 SWAP2 AND DUP2 MSTORE PUSH1 0x20 SWAP1 RETURN JUMPDEST DUP4 DUP3 CALLVALUE PUSH2 0x3B8 JUMPI DUP2 PUSH1 0x3 NOT CALLDATASIZE ADD SLT PUSH2 0x3B8 JUMPI PUSH1 0x1 SLOAD SWAP1 MLOAD PUSH1 0x1 PUSH1 0x1 PUSH1 0xA0 SHL SUB SWAP1 SWAP2 AND DUP2 MSTORE PUSH1 0x20 SWAP1 RETURN JUMPDEST DUP4 DUP3 CALLVALUE PUSH2 0x3B8 JUMPI DUP2 PUSH1 0x3 NOT CALLDATASIZE ADD SLT PUSH2 0x3B8 JUMPI PUSH1 0x20 SWAP1 PUSH1 0x5 SLOAD SWAP1 MLOAD SWAP1 DUP2 MSTORE RETURN JUMPDEST POP SWAP1 CALLVALUE PUSH2 0x21E JUMPI PUSH1 0x20 CALLDATASIZE PUSH1 0x3 NOT ADD SLT PUSH2 0x21E JUMPI DUP2 PUSH1 0x20 SWAP4 PUSH1 0xFF SWAP3 CALLDATALOAD DUP2 MSTORE PUSH1 0xC DUP6 MSTORE KECCAK256 SLOAD AND SWAP1 MLOAD SWAP1 ISZERO ISZERO DUP2 MSTORE RETURN JUMPDEST POP SWAP1 CALLVALUE PUSH2 0x21E JUMPI DUP3 PUSH1 0x3 NOT CALLDATASIZE ADD SLT PUSH2 0x21E JUMPI PUSH1 0x20 SWAP3 POP SLOAD SWAP1 MLOAD SWAP1 DUP2 MSTORE RETURN JUMPDEST DUP5 SWAP1 CALLVALUE PUSH2 0x3B8 JUMPI DUP2 PUSH1 0x3 NOT CALLDATASIZE ADD SLT PUSH2 0x3B8 JUMPI PUSH1 0x20 SWAP1 PUSH1 0x9 SLOAD DUP2 MSTORE RETURN JUMPDEST SWAP2 DUP2 PUSH1 0x1F DUP5 ADD SLT ISZERO PUSH2 0x130C JUMPI DUP3 CALLDATALOAD SWAP2 PUSH8 0xFFFFFFFFFFFFFFFF DUP4 GT PUSH2 0x130C JUMPI PUSH1 0x20 DUP4 DUP2 DUP7 ADD SWAP6 ADD ADD GT PUSH2 0x130C JUMPI JUMP JUMPDEST PUSH1 0x0 DUP1 REVERT JUMPDEST PUSH8 0xFFFFFFFFFFFFFFFF DUP2 GT PUSH2 0x1325 JUMPI PUSH1 0x40 MSTORE JUMP JUMPDEST PUSH4 0x4E487B71 PUSH1 0xE0 SHL PUSH1 0x0 MSTORE PUSH1 0x41 PUSH1 0x4 MSTORE PUSH1 0x24 PUSH1 0x0 REVERT JUMPDEST PUSH2 0x120 DUP2 ADD SWAP1 DUP2 LT PUSH8 0xFFFFFFFFFFFFFFFF DUP3 GT OR PUSH2 0x1325 JUMPI PUSH1 0x40 MSTORE JUMP JUMPDEST PUSH1 0x40 DUP2 ADD SWAP1 DUP2 LT PUSH8 0xFFFFFFFFFFFFFFFF DUP3 GT OR PUSH2 0x1325 JUMPI PUSH1 0x40 MSTORE JUMP JUMPDEST SWAP1 PUSH1 0x1F DUP1 NOT SWAP2 ADD AND DUP2 ADD SWAP1 DUP2 LT PUSH8 0xFFFFFFFFFFFFFFFF DUP3 GT OR PUSH2 0x1325 JUMPI PUSH1 0x40 MSTORE JUMP JUMPDEST MLOAD SWAP1 DUP2 ISZERO ISZERO DUP3 SUB PUSH2 0x130C JUMPI JUMP JUMPDEST PUSH8 0xFFFFFFFFFFFFFFFF DUP2 GT PUSH2 0x1325 JUMPI PUSH1 0x1F ADD PUSH1 0x1F NOT AND PUSH1 0x20 ADD SWAP1 JUMP JUMPDEST RETURNDATASIZE ISZERO PUSH2 0x13EA JUMPI RETURNDATASIZE SWAP1 PUSH2 0x13D0 DUP3 PUSH2 0x13A3 JUMP JUMPDEST SWAP2 PUSH2 0x13DE PUSH1 0x40 MLOAD SWAP4 DUP5 PUSH2 0x1374 JUMP JUMPDEST DUP3 MSTORE RETURNDATASIZE PUSH1 0x0 PUSH1 0x20 DUP5 ADD RETURNDATACOPY JUMP JUMPDEST PUSH1 0x60 SWAP1 JUMP JUMPDEST SWAP3 SWAP2 SWAP3 PUSH2 0x13FB DUP3 PUSH2 0x13A3 JUMP JUMPDEST SWAP2 PUSH2 0x1409 PUSH1 0x40 MLOAD SWAP4 DUP5 PUSH2 0x1374 JUMP JUMPDEST DUP3 SWAP5 DUP2 DUP5 MSTORE DUP2 DUP4 ADD GT PUSH2 0x130C JUMPI DUP3 DUP2 PUSH1 0x20 SWAP4 DUP5 PUSH1 0x0 SWAP7 ADD CALLDATACOPY ADD ADD MSTORE JUMP JUMPDEST PUSH1 0x0 JUMPDEST DUP4 DUP2 LT PUSH2 0x1439 JUMPI POP POP PUSH1 0x0 SWAP2 ADD MSTORE JUMP JUMPDEST DUP2 DUP2 ADD MLOAD DUP4 DUP3 ADD MSTORE PUSH1 0x20 ADD PUSH2 0x1429 JUMP JUMPDEST SWAP1 PUSH1 0x20 SWAP2 PUSH2 0x1462 DUP2 MLOAD DUP1 SWAP3 DUP2 DUP6 MSTORE DUP6 DUP1 DUP7 ADD SWAP2 ADD PUSH2 0x1426 JUMP JUMPDEST PUSH1 0x1F ADD PUSH1 0x1F NOT AND ADD ADD SWAP1 JUMP JUMPDEST PUSH1 0x20 DUP2 MSTORE DUP2 MLOAD PUSH2 0x148C PUSH2 0x120 SWAP2 DUP3 PUSH1 0x20 DUP6 ADD MSTORE PUSH2 0x140 DUP5 ADD SWAP1 PUSH2 0x1449 JUMP JUMPDEST PUSH2 0x14E9 PUSH2 0x14AB PUSH1 0x20 DUP7 ADD MLOAD SWAP3 PUSH1 0x1F NOT SWAP4 DUP5 DUP8 DUP4 SUB ADD PUSH1 0x40 DUP9 ADD MSTORE PUSH2 0x1449 JUMP JUMPDEST PUSH1 0x40 DUP7 ADD MLOAD PUSH1 0x60 DUP7 ADD MSTORE PUSH1 0x1 DUP1 PUSH1 0xA0 SHL SUB SWAP3 DUP4 PUSH1 0x60 DUP9 ADD MLOAD AND PUSH1 0x80 DUP8 ADD MSTORE PUSH1 0x80 DUP8 ADD MLOAD ISZERO ISZERO PUSH1 0xA0 DUP8 ADD MSTORE PUSH1 0xA0 DUP8 ADD MLOAD SWAP1 DUP7 DUP4 SUB ADD PUSH1 0xC0 DUP8 ADD MSTORE PUSH2 0x1449 JUMP JUMPDEST SWAP4 PUSH1 0xC0 DUP2 ADD MLOAD PUSH1 0xE0 DUP6 ADD MSTORE PUSH1 0xE0 DUP2 ADD MLOAD SWAP1 PUSH2 0x100 SWAP2 DUP3 DUP7 ADD MSTORE ADD MLOAD AND SWAP2 ADD MSTORE SWAP1 JUMP JUMPDEST SWAP2 SWAP1 DUP3 ADD DUP1 SWAP3 GT PUSH2 0x1518 JUMPI JUMP JUMPDEST PUSH4 0x4E487B71 PUSH1 0xE0 SHL PUSH1 0x0 MSTORE PUSH1 0x11 PUSH1 0x4 MSTORE PUSH1 0x24 PUSH1 0x0 REVERT JUMPDEST DUP2 PUSH1 0x1F DUP3 ADD SLT ISZERO PUSH2 0x130C JUMPI DUP1 MLOAD PUSH2 0x1544 DUP2 PUSH2 0x13A3 JUMP JUMPDEST SWAP3 PUSH2 0x1552 PUSH1 0x40 MLOAD SWAP5 DUP6 PUSH2 0x1374 JUMP JUMPDEST DUP2 DUP5 MSTORE PUSH1 0x20 DUP3 DUP5 ADD ADD GT PUSH2 0x130C JUMPI PUSH2 0x1570 SWAP2 PUSH1 0x20 DUP1 DUP6 ADD SWAP2 ADD PUSH2 0x1426 JUMP JUMPDEST SWAP1 JUMP JUMPDEST MLOAD SWAP1 PUSH1 0x1 PUSH1 0x1 PUSH1 0xA0 SHL SUB DUP3 AND DUP3 SUB PUSH2 0x130C JUMPI JUMP JUMPDEST SWAP1 PUSH1 0x20 DUP3 DUP3 SUB SLT PUSH2 0x130C JUMPI DUP2 MLOAD PUSH8 0xFFFFFFFFFFFFFFFF SWAP3 DUP4 DUP3 GT PUSH2 0x130C JUMPI ADD SWAP1 PUSH2 0x1E0 SWAP3 DUP4 DUP4 DUP4 SUB SLT PUSH2 0x130C JUMPI PUSH1 0x40 MLOAD SWAP4 DUP5 ADD DUP5 DUP2 LT DUP3 DUP3 GT OR PUSH2 0x1325 JUMPI PUSH1 0x40 MSTORE DUP3 MLOAD DUP2 DUP2 GT PUSH2 0x130C JUMPI DUP3 PUSH2 0x15DD SWAP2 DUP6 ADD PUSH2 0x152E JUMP JUMPDEST DUP5 MSTORE PUSH1 0x20 DUP4 ADD MLOAD DUP2 DUP2 GT PUSH2 0x130C JUMPI DUP3 PUSH2 0x15F7 SWAP2 DUP6 ADD PUSH2 0x152E JUMP JUMPDEST PUSH1 0x20 DUP6 ADD MSTORE PUSH1 0x40 DUP4 DUP2 ADD MLOAD SWAP1 DUP6 ADD MSTORE PUSH1 0x60 DUP4 ADD MLOAD PUSH1 0x1 PUSH1 0x1 PUSH1 0xA0 SHL SUB DUP2 AND DUP2 SUB PUSH2 0x130C JUMPI PUSH1 0x60 DUP6 ADD MSTORE PUSH1 0x80 DUP4 ADD MLOAD PUSH1 0x4 DUP2 LT ISZERO PUSH2 0x130C JUMPI PUSH1 0x80 DUP6 ADD MSTORE PUSH1 0xA0 DUP4 ADD MLOAD PUSH1 0xA0 DUP6 ADD MSTORE PUSH1 0xC0 DUP4 ADD MLOAD PUSH1 0xC0 DUP6 ADD MSTORE PUSH1 0xE0 DUP4 ADD MLOAD PUSH1 0xE0 DUP6 ADD MSTORE PUSH2 0x100 DUP1 DUP5 ADD MLOAD SWAP1 DUP6 ADD MSTORE PUSH2 0x120 PUSH2 0x166A DUP2 DUP6 ADD PUSH2 0x1573 JUMP JUMPDEST SWAP1 DUP6 ADD MSTORE PUSH2 0x140 PUSH2 0x167C DUP2 DUP6 ADD PUSH2 0x1396 JUMP JUMPDEST SWAP1 DUP6 ADD MSTORE PUSH2 0x160 SWAP2 DUP3 DUP5 ADD MLOAD SWAP2 DUP3 GT PUSH2 0x130C JUMPI PUSH2 0x169A SWAP2 DUP5 ADD PUSH2 0x152E JUMP JUMPDEST SWAP1 DUP4 ADD MSTORE PUSH2 0x180 DUP1 DUP3 ADD MLOAD SWAP1 DUP4 ADD MSTORE PUSH2 0x1A0 DUP1 DUP3 ADD MLOAD SWAP1 DUP4 ADD MSTORE PUSH2 0x16C2 PUSH2 0x1C0 DUP1 SWAP3 ADD PUSH2 0x1573 JUMP JUMPDEST SWAP1 DUP3 ADD MSTORE SWAP1 JUMP JUMPDEST DUP1 MLOAD DUP3 LT ISZERO PUSH2 0x16DD JUMPI PUSH1 0x20 SWAP2 PUSH1 0x5 SHL ADD ADD SWAP1 JUMP JUMPDEST PUSH4 0x4E487B71 PUSH1 0xE0 SHL PUSH1 0x0 MSTORE PUSH1 0x32 PUSH1 0x4 MSTORE PUSH1 0x24 PUSH1 0x0 REVERT JUMPDEST PUSH1 0x40 MLOAD SWAP1 PUSH2 0x1700 DUP3 PUSH2 0x1358 JUMP JUMPDEST PUSH1 0xF DUP3 MSTORE PUSH15 0x657865637574696F6E2D636865636B PUSH1 0x88 SHL PUSH1 0x20 DUP4 ADD MSTORE JUMP JUMPDEST PUSH1 0x0 DUP1 SLOAD PUSH1 0x40 DUP1 MLOAD PUSH4 0x18FEEB15 PUSH1 0xE3 SHL DUP2 MSTORE PUSH1 0x4 DUP1 DUP3 ADD DUP7 SWAP1 MSTORE SWAP4 SWAP5 SWAP2 SWAP3 PUSH1 0x1 PUSH1 0x1 PUSH1 0xA0 SHL SUB SWAP2 SWAP1 DUP3 AND DUP7 DUP3 PUSH1 0x24 DUP2 DUP5 GAS STATICCALL SWAP2 DUP3 ISZERO PUSH2 0x346 JUMPI DUP8 SWAP3 PUSH2 0x1C3D JUMPI JUMPDEST POP PUSH2 0x160 DUP3 ADD SWAP1 DUP2 MLOAD SWAP2 PUSH32 0x64209FE56A5BA1791FAC474C27DC1B9A6A4977F861D5D2396F722FCF844BE9F DUP4 MLOAD PUSH1 0x20 DUP1 SWAP6 ADD KECCAK256 PUSH12 0x1D1C99585CDD5C9E4B5BDD5D PUSH1 0xA2 SHL DUP6 DUP11 MLOAD PUSH2 0x17AD DUP2 PUSH2 0x1358 JUMP JUMPDEST PUSH1 0xC DUP2 MSTORE ADD MSTORE SUB PUSH2 0x1805 JUMPI POP POP POP POP PUSH1 0x2 SLOAD AND SWAP3 DUP4 EXTCODESIZE ISZERO PUSH2 0x62F JUMPI SWAP1 PUSH1 0x24 DUP6 SWAP3 DUP4 DUP6 MLOAD SWAP7 DUP8 SWAP5 DUP6 SWAP4 PUSH4 0x21814F9 PUSH1 0xE4 SHL DUP6 MSTORE DUP5 ADD MSTORE GAS CALL SWAP1 DUP2 ISZERO PUSH2 0x215 JUMPI POP PUSH2 0x17F4 JUMPI POP POP JUMP JUMPDEST PUSH2 0x17FE DUP3 SWAP2 PUSH2 0x1311 JUMP JUMPDEST PUSH2 0x633 JUMPI POP JUMP JUMPDEST PUSH32 0x3263CAE112F9B06C4FE976E1E563A8899E0058ACAD03A56562786E4496D29F6B DUP2 MLOAD DUP5 DUP2 MLOAD SWAP2 ADD KECCAK256 PUSH11 0x72756C652D6368616E6765 PUSH1 0xA8 SHL DUP6 DUP11 MLOAD PUSH2 0x1849 DUP2 PUSH2 0x1358 JUMP JUMPDEST PUSH1 0xB DUP2 MSTORE ADD MSTORE SUB PUSH2 0x1AC2 JUMPI POP POP PUSH32 0x9B01C2212638B995654BF3D584BEFBB3576184E03CD1A9AE5693A18A1F559878 DUP3 MLOAD DUP3 DUP2 MLOAD SWAP2 ADD KECCAK256 PUSH10 0x766F746551756F72756D PUSH1 0xB0 SHL DUP4 DUP9 MLOAD PUSH2 0x1899 DUP2 PUSH2 0x1358 JUMP JUMPDEST PUSH1 0xA DUP2 MSTORE ADD MSTORE SUB PUSH2 0x18E6 JUMPI POP PUSH2 0x1A0 ADD MLOAD PUSH1 0x3 SSTORE JUMPDEST PUSH1 0x2 SLOAD AND SWAP3 DUP4 EXTCODESIZE ISZERO PUSH2 0x62F JUMPI SWAP1 PUSH1 0x24 DUP6 SWAP3 DUP4 DUP6 MLOAD SWAP7 DUP8 SWAP5 DUP6 SWAP4 PUSH4 0x6F0D949D PUSH1 0xE1 SHL DUP6 MSTORE DUP5 ADD MSTORE GAS CALL SWAP1 DUP2 ISZERO PUSH2 0x215 JUMPI POP PUSH2 0x17F4 JUMPI POP POP JUMP JUMPDEST PUSH32 0x8D7CBFF25736090EF6444F570EE8941E761E0637E76A2B77E283FF85EC26489D DUP3 MLOAD DUP3 DUP2 MLOAD SWAP2 ADD KECCAK256 PUSH12 0x706173734372697465726961 PUSH1 0xA0 SHL DUP4 DUP9 MLOAD PUSH2 0x192B DUP2 PUSH2 0x1358 JUMP JUMPDEST PUSH1 0xC DUP2 MSTORE ADD MSTORE SUB PUSH2 0x1943 JUMPI POP PUSH2 0x1A0 ADD MLOAD DUP5 SSTORE PUSH2 0x18AE JUMP JUMPDEST PUSH32 0xABBFAB0BF365E6C544C4BDC8C27846B398EF85DEEB99659A1BD1CBBFDDBC69A1 DUP3 MLOAD DUP3 DUP2 MLOAD SWAP2 ADD KECCAK256 PUSH14 0x3B37BA34B733A23AB930BA34B7B7 PUSH1 0x91 SHL DUP4 DUP9 MLOAD PUSH2 0x198A DUP2 PUSH2 0x1358 JUMP JUMPDEST PUSH1 0xE DUP2 MSTORE ADD MSTORE SUB PUSH2 0x19A3 JUMPI POP PUSH2 0x1A0 ADD MLOAD PUSH1 0x5 SSTORE PUSH2 0x18AE JUMP JUMPDEST PUSH32 0x5B1A74CA49FC06542EF79783AA6DB8771703259F73767276192F168BBDFAF8CB DUP3 MLOAD DUP3 DUP2 MLOAD SWAP2 ADD KECCAK256 PUSH13 0x616273656E7450656E616C7479 PUSH1 0x98 SHL DUP4 DUP9 MLOAD PUSH2 0x19E9 DUP2 PUSH2 0x1358 JUMP JUMPDEST PUSH1 0xD DUP2 MSTORE ADD MSTORE SUB PUSH2 0x1A02 JUMPI POP PUSH2 0x1A0 ADD MLOAD PUSH1 0x6 SSTORE PUSH2 0x18AE JUMP JUMPDEST PUSH32 0x343F1CEE2704E73B1859BB1BDD73F8FCE853B1F06EA40BD99F16C5C103E91318 DUP3 MLOAD DUP3 DUP2 MLOAD SWAP2 ADD KECCAK256 PUSH8 0x656E747279466565 PUSH1 0xC0 SHL DUP4 DUP9 MLOAD PUSH2 0x1A43 DUP2 PUSH2 0x1358 JUMP JUMPDEST PUSH1 0x8 DUP2 MSTORE ADD MSTORE SUB PUSH2 0x1A5C JUMPI POP PUSH2 0x1A0 ADD MLOAD PUSH1 0x9 SSTORE PUSH2 0x18AE JUMP JUMPDEST PUSH32 0x806B2CE9432A34CFC9FDAB6B94DB5BFCFDD69B0EAA656D83BEA17439BEBE142D SWAP1 PUSH12 0x18DBDD5B9D151BD15E1C195B PUSH1 0xA2 SHL DUP4 MLOAD DUP3 DUP2 MLOAD SWAP2 ADD KECCAK256 SWAP2 DUP8 MLOAD PUSH2 0x1AA2 DUP2 PUSH2 0x1358 JUMP JUMPDEST PUSH1 0xC DUP2 MSTORE ADD MSTORE EQ PUSH2 0x1AB4 JUMPI JUMPDEST POP PUSH2 0x18AE JUMP JUMPDEST PUSH2 0x1A0 ADD MLOAD PUSH1 0x7 SSTORE CODESIZE PUSH2 0x1AAE JUMP JUMPDEST PUSH32 0x18ADEF32D755A9AF096E2EE4FF599735880E4759405D7D958148850AD4749A65 SWAP1 SWAP4 SWAP2 SWAP3 SWAP4 MLOAD DUP5 DUP2 MLOAD SWAP2 ADD KECCAK256 PUSH12 0x1B595B58995C8B595E1C195B PUSH1 0xA2 SHL DUP6 DUP10 MLOAD PUSH2 0x1B0B DUP2 PUSH2 0x1358 JUMP JUMPDEST PUSH1 0xC DUP2 MSTORE ADD MSTORE SUB PUSH2 0x1C14 JUMPI DUP6 MLOAD PUSH4 0x5087A34F PUSH1 0xE1 SHL DUP2 MSTORE DUP4 DUP2 DUP10 DUP2 DUP7 GAS STATICCALL SWAP4 DUP5 ISZERO PUSH2 0x1040 JUMPI SWAP1 DUP6 SWAP3 SWAP2 DUP11 SWAP6 PUSH2 0x1BDF JUMPI JUMPDEST POP POP PUSH2 0x1C0 ADD MLOAD AND SWAP2 DUP2 EXTCODESIZE ISZERO PUSH2 0x37A JUMPI DUP6 MLOAD PUSH4 0xD547741F PUSH1 0xE0 SHL DUP2 MSTORE DUP8 DUP2 ADD SWAP2 DUP3 MSTORE PUSH1 0x1 PUSH1 0x1 PUSH1 0xA0 SHL SUB SWAP1 SWAP4 AND PUSH1 0x20 DUP3 ADD MSTORE DUP8 SWAP2 DUP4 SWAP2 DUP3 SWAP1 DUP5 SWAP1 DUP3 SWAP1 PUSH1 0x40 ADD SUB SWAP3 GAS CALL DUP1 ISZERO PUSH2 0x1BD5 JUMPI PUSH2 0x1BC2 JUMPI JUMPDEST POP PUSH1 0x2 SLOAD AND SWAP3 DUP4 EXTCODESIZE ISZERO PUSH2 0x62F JUMPI SWAP1 PUSH1 0x24 DUP6 SWAP3 DUP4 DUP6 MLOAD SWAP7 DUP8 SWAP5 DUP6 SWAP4 PUSH4 0xE8CE772D PUSH1 0xE0 SHL DUP6 MSTORE DUP5 ADD MSTORE GAS CALL SWAP1 DUP2 ISZERO PUSH2 0x215 JUMPI POP PUSH2 0x17F4 JUMPI POP POP JUMP JUMPDEST PUSH2 0x1BCE SWAP1 SWAP6 SWAP2 SWAP6 PUSH2 0x1311 JUMP JUMPDEST SWAP4 CODESIZE PUSH2 0x1B89 JUMP JUMPDEST DUP5 MLOAD RETURNDATASIZE DUP9 DUP3 RETURNDATACOPY RETURNDATASIZE SWAP1 REVERT JUMPDEST DUP1 SWAP3 SWAP6 POP DUP2 SWAP4 POP RETURNDATASIZE DUP4 GT PUSH2 0x1C0D JUMPI JUMPDEST PUSH2 0x1BF8 DUP2 DUP4 PUSH2 0x1374 JUMP JUMPDEST DUP2 ADD SUB SLT PUSH2 0x37A JUMPI MLOAD SWAP2 DUP4 SWAP1 PUSH2 0x1C0 CODESIZE PUSH2 0x1B3B JUMP JUMPDEST POP RETURNDATASIZE PUSH2 0x1BEE JUMP JUMPDEST POP POP SWAP4 POP POP POP PUSH11 0x3A3932B0B9BAB93C96B4B7 PUSH1 0xA9 SHL SWAP3 POP MLOAD PUSH2 0x1C35 DUP2 PUSH2 0x1358 JUMP JUMPDEST PUSH1 0xB DUP2 MSTORE ADD MSTORE JUMP JUMPDEST PUSH2 0x1C52 SWAP2 SWAP3 POP RETURNDATASIZE DUP1 DUP10 DUP4 RETURNDATACOPY PUSH2 0x9BF DUP2 DUP4 PUSH2 0x1374 JUMP JUMPDEST SWAP1 CODESIZE PUSH2 0x175E JUMP JUMPDEST PUSH1 0x0 DUP1 SLOAD PUSH1 0x40 MLOAD PUSH4 0x7C0F6B35 PUSH1 0xE0 SHL DUP2 MSTORE SWAP1 DUP3 SWAP1 DUP3 SWAP1 PUSH1 0x4 SWAP1 DUP3 SWAP1 PUSH1 0x1 PUSH1 0x1 PUSH1 0xA0 SHL SUB AND GAS STATICCALL SWAP2 DUP3 ISZERO PUSH2 0x1D3D JUMPI DUP1 SWAP3 PUSH2 0x1C91 JUMPI POP POP SWAP1 JUMP JUMPDEST SWAP1 SWAP2 POP RETURNDATASIZE DUP1 DUP3 DUP5 RETURNDATACOPY PUSH2 0x1CA3 DUP2 DUP5 PUSH2 0x1374 JUMP JUMPDEST DUP3 ADD PUSH1 0x20 SWAP2 DUP3 DUP5 DUP4 SUB SLT PUSH2 0x633 JUMPI DUP4 MLOAD PUSH8 0xFFFFFFFFFFFFFFFF SWAP5 DUP6 DUP3 GT PUSH2 0x21E JUMPI ADD DUP3 PUSH1 0x1F DUP3 ADD SLT ISZERO PUSH2 0x3B8 JUMPI DUP1 MLOAD SWAP5 DUP6 GT PUSH2 0x1D29 JUMPI DUP5 PUSH1 0x5 SHL SWAP2 PUSH1 0x40 MLOAD SWAP6 PUSH2 0x1CEE DUP7 DUP6 ADD DUP9 PUSH2 0x1374 JUMP JUMPDEST DUP7 MSTORE DUP5 DUP1 DUP8 ADD SWAP4 DUP4 ADD ADD SWAP4 DUP5 GT PUSH2 0x633 JUMPI POP DUP4 ADD SWAP1 JUMPDEST DUP3 DUP3 LT PUSH2 0x1D12 JUMPI POP POP POP POP SWAP1 JUMP JUMPDEST DUP4 DUP1 SWAP2 PUSH2 0x1D1E DUP5 PUSH2 0x1573 JUMP JUMPDEST DUP2 MSTORE ADD SWAP2 ADD SWAP1 PUSH2 0x1D04 JUMP JUMPDEST PUSH4 0x4E487B71 PUSH1 0xE0 SHL DUP3 MSTORE PUSH1 0x41 PUSH1 0x4 MSTORE PUSH1 0x24 DUP3 REVERT JUMPDEST PUSH1 0x40 MLOAD SWAP1 RETURNDATASIZE SWAP1 DUP3 RETURNDATACOPY RETURNDATASIZE SWAP1 REVERT INVALID LOG2 PUSH5 0x6970667358 0x22 SLT KECCAK256 0x22 MOD PUSH22 0x43C4C8B0BDF9DDD88A2170D5D7A6E9F40F38CFAB3C0A SWAP15 DUP11 0xC8 CALLCODE MUL PUSH11 0xF464736F6C634300081400 CALLER "},"methodIdentifiers":{"absentPenalty()":"bdf91db5","countToExpel()":"9f1f43af","createProposal(string,string,uint256,address,bool,string,uint256,uint256,address)":"bc2914b5","entryFee()":"072ea61c","executionContract()":"e0e93244","finalizeProposal(uint256)":"5652077c","getAllMembers()":"7c0f6b35","getMemberCount()":"997072f7","getTreasuryBalance()":"9b5655dc","joinDAO()":"f63d13d7","passCriteria()":"0fd2e6f9","proposalContract()":"3aef3900","proposalDeadline(uint256)":"c01f9e37","proposalExecuted(uint256)":"103616e8","proposalVoters(uint256)":"d23910bf","scoreToExpel()":"52bc9e82","vaultContract()":"2274346b","vote(uint256,uint8)":"943e8216","voteQuorum()":"4d421401","votingDuration()":"132002fc"}}}}}