{"contracts/Proposal.sol":{"Proposal":{"abi":[{"inputs":[{"internalType":"address","name":"admin","type":"address"},{"internalType":"address","name":"dao","type":"address"}],"stateMutability":"nonpayable","type":"constructor"},{"inputs":[],"name":"AccessControlBadConfirmation","type":"error"},{"inputs":[{"internalType":"address","name":"account","type":"address"},{"internalType":"bytes32","name":"neededRole","type":"bytes32"}],"name":"AccessControlUnauthorizedAccount","type":"error"},{"anonymous":false,"inputs":[{"indexed":true,"internalType":"address","name":"member","type":"address"},{"indexed":false,"internalType":"uint256","name":"newScore","type":"uint256"}],"name":"GlassScoreChanged","type":"event"},{"anonymous":false,"inputs":[{"indexed":true,"internalType":"uint256","name":"id","type":"uint256"},{"indexed":true,"internalType":"address","name":"proposer","type":"address"}],"name":"ProposalCreated","type":"event"},{"anonymous":false,"inputs":[{"indexed":true,"internalType":"uint256","name":"id","type":"uint256"},{"indexed":false,"internalType":"enum Proposal.Status","name":"status","type":"uint8"}],"name":"ProposalStatusChanged","type":"event"},{"anonymous":false,"inputs":[{"indexed":true,"internalType":"bytes32","name":"role","type":"bytes32"},{"indexed":true,"internalType":"bytes32","name":"previousAdminRole","type":"bytes32"},{"indexed":true,"internalType":"bytes32","name":"newAdminRole","type":"bytes32"}],"name":"RoleAdminChanged","type":"event"},{"anonymous":false,"inputs":[{"indexed":true,"internalType":"bytes32","name":"role","type":"bytes32"},{"indexed":true,"internalType":"address","name":"account","type":"address"},{"indexed":true,"internalType":"address","name":"sender","type":"address"}],"name":"RoleGranted","type":"event"},{"anonymous":false,"inputs":[{"indexed":true,"internalType":"bytes32","name":"role","type":"bytes32"},{"indexed":true,"internalType":"address","name":"account","type":"address"},{"indexed":true,"internalType":"address","name":"sender","type":"address"}],"name":"RoleRevoked","type":"event"},{"anonymous":false,"inputs":[{"indexed":true,"internalType":"uint256","name":"proposalId","type":"uint256"},{"indexed":true,"internalType":"address","name":"voter","type":"address"},{"indexed":false,"internalType":"uint8","name":"choice","type":"uint8"}],"name":"Voted","type":"event"},{"inputs":[],"name":"DAO_ROLE","outputs":[{"internalType":"bytes32","name":"","type":"bytes32"}],"stateMutability":"view","type":"function"},{"inputs":[],"name":"DEFAULT_ADMIN_ROLE","outputs":[{"internalType":"bytes32","name":"","type":"bytes32"}],"stateMutability":"view","type":"function"},{"inputs":[],"name":"MEMBER_ROLE","outputs":[{"internalType":"bytes32","name":"","type":"bytes32"}],"stateMutability":"view","type":"function"},{"inputs":[{"internalType":"address","name":"member","type":"address"},{"internalType":"uint256","name":"amount","type":"uint256"}],"name":"addGlassScore","outputs":[],"stateMutability":"nonpayable","type":"function"},{"inputs":[{"internalType":"address","name":"member","type":"address"}],"name":"addPenaltyAndExpel","outputs":[],"stateMutability":"nonpayable","type":"function"},{"inputs":[{"components":[{"internalType":"string","name":"title","type":"string"},{"internalType":"string","name":"description","type":"string"},{"internalType":"uint256","name":"amount","type":"uint256"},{"internalType":"address payable","name":"recipient","type":"address"},{"internalType":"bool","name":"requireVote","type":"bool"},{"internalType":"string","name":"sanctionType","type":"string"},{"internalType":"uint256","name":"beforeValue","type":"uint256"},{"internalType":"uint256","name":"afterValue","type":"uint256"},{"internalType":"address","name":"targetMember","type":"address"}],"internalType":"struct Proposal.ProposalInput","name":"input","type":"tuple"}],"name":"createProposal","outputs":[{"internalType":"uint256","name":"","type":"uint256"}],"stateMutability":"nonpayable","type":"function"},{"inputs":[],"name":"daoAddress","outputs":[{"internalType":"address","name":"","type":"address"}],"stateMutability":"view","type":"function"},{"inputs":[{"internalType":"uint256","name":"proposalId","type":"uint256"},{"internalType":"address","name":"member","type":"address"}],"name":"forceAbstain","outputs":[],"stateMutability":"nonpayable","type":"function"},{"inputs":[],"name":"getAllMembers","outputs":[{"internalType":"address[]","name":"","type":"address[]"}],"stateMutability":"view","type":"function"},{"inputs":[],"name":"getAllProposals","outputs":[{"components":[{"internalType":"string","name":"title","type":"string"},{"internalType":"string","name":"description","type":"string"},{"internalType":"uint256","name":"amount","type":"uint256"},{"internalType":"address payable","name":"recipient","type":"address"},{"internalType":"enum Proposal.Status","name":"status","type":"uint8"},{"internalType":"uint256","name":"votesFor","type":"uint256"},{"internalType":"uint256","name":"votesAgainst","type":"uint256"},{"internalType":"uint256","name":"votesAbstain","type":"uint256"},{"internalType":"uint256","name":"startTime","type":"uint256"},{"internalType":"address","name":"proposer","type":"address"},{"internalType":"bool","name":"requireVote","type":"bool"},{"internalType":"string","name":"sanctionType","type":"string"},{"internalType":"uint256","name":"beforeValue","type":"uint256"},{"internalType":"uint256","name":"afterValue","type":"uint256"},{"internalType":"address","name":"targetMember","type":"address"}],"internalType":"struct Proposal.ProposalData[]","name":"","type":"tuple[]"}],"stateMutability":"view","type":"function"},{"inputs":[],"name":"getMemberCount","outputs":[{"internalType":"uint256","name":"","type":"uint256"}],"stateMutability":"view","type":"function"},{"inputs":[{"internalType":"uint256","name":"id","type":"uint256"}],"name":"getProposal","outputs":[{"components":[{"internalType":"string","name":"title","type":"string"},{"internalType":"string","name":"description","type":"string"},{"internalType":"uint256","name":"amount","type":"uint256"},{"internalType":"address payable","name":"recipient","type":"address"},{"internalType":"enum Proposal.Status","name":"status","type":"uint8"},{"internalType":"uint256","name":"votesFor","type":"uint256"},{"internalType":"uint256","name":"votesAgainst","type":"uint256"},{"internalType":"uint256","name":"votesAbstain","type":"uint256"},{"internalType":"uint256","name":"startTime","type":"uint256"},{"internalType":"address","name":"proposer","type":"address"},{"internalType":"bool","name":"requireVote","type":"bool"},{"internalType":"string","name":"sanctionType","type":"string"},{"internalType":"uint256","name":"beforeValue","type":"uint256"},{"internalType":"uint256","name":"afterValue","type":"uint256"},{"internalType":"address","name":"targetMember","type":"address"}],"internalType":"struct Proposal.ProposalData","name":"","type":"tuple"}],"stateMutability":"view","type":"function"},{"inputs":[{"internalType":"bytes32","name":"role","type":"bytes32"}],"name":"getRoleAdmin","outputs":[{"internalType":"bytes32","name":"","type":"bytes32"}],"stateMutability":"view","type":"function"},{"inputs":[{"internalType":"uint256","name":"proposalId","type":"uint256"}],"name":"getVotes","outputs":[{"internalType":"uint256","name":"forVotes","type":"uint256"},{"internalType":"uint256","name":"againstVotes","type":"uint256"},{"internalType":"uint256","name":"abstainVotes","type":"uint256"}],"stateMutability":"view","type":"function"},{"inputs":[{"internalType":"address","name":"","type":"address"}],"name":"glassScore","outputs":[{"internalType":"uint256","name":"","type":"uint256"}],"stateMutability":"view","type":"function"},{"inputs":[{"internalType":"bytes32","name":"role","type":"bytes32"},{"internalType":"address","name":"account","type":"address"}],"name":"grantRole","outputs":[],"stateMutability":"nonpayable","type":"function"},{"inputs":[{"internalType":"bytes32","name":"role","type":"bytes32"},{"internalType":"address","name":"account","type":"address"}],"name":"hasRole","outputs":[{"internalType":"bool","name":"","type":"bool"}],"stateMutability":"view","type":"function"},{"inputs":[{"internalType":"uint256","name":"","type":"uint256"},{"internalType":"address","name":"","type":"address"}],"name":"hasVoted","outputs":[{"internalType":"bool","name":"","type":"bool"}],"stateMutability":"view","type":"function"},{"inputs":[{"internalType":"uint256","name":"proposalId","type":"uint256"},{"internalType":"address","name":"voter","type":"address"}],"name":"hasVotedForProposal","outputs":[{"internalType":"bool","name":"","type":"bool"}],"stateMutability":"view","type":"function"},{"inputs":[{"internalType":"address","name":"","type":"address"}],"name":"isMember","outputs":[{"internalType":"bool","name":"","type":"bool"}],"stateMutability":"view","type":"function"},{"inputs":[{"internalType":"uint256","name":"","type":"uint256"}],"name":"members","outputs":[{"internalType":"address","name":"","type":"address"}],"stateMutability":"view","type":"function"},{"inputs":[{"internalType":"address","name":"","type":"address"}],"name":"penaltyCount","outputs":[{"internalType":"uint256","name":"","type":"uint256"}],"stateMutability":"view","type":"function"},{"inputs":[{"internalType":"uint256","name":"","type":"uint256"}],"name":"proposals","outputs":[{"internalType":"string","name":"title","type":"string"},{"internalType":"string","name":"description","type":"string"},{"internalType":"uint256","name":"amount","type":"uint256"},{"internalType":"address payable","name":"recipient","type":"address"},{"internalType":"enum Proposal.Status","name":"status","type":"uint8"},{"internalType":"uint256","name":"votesFor","type":"uint256"},{"internalType":"uint256","name":"votesAgainst","type":"uint256"},{"internalType":"uint256","name":"votesAbstain","type":"uint256"},{"internalType":"uint256","name":"startTime","type":"uint256"},{"internalType":"address","name":"proposer","type":"address"},{"internalType":"bool","name":"requireVote","type":"bool"},{"internalType":"string","name":"sanctionType","type":"string"},{"internalType":"uint256","name":"beforeValue","type":"uint256"},{"internalType":"uint256","name":"afterValue","type":"uint256"},{"internalType":"address","name":"targetMember","type":"address"}],"stateMutability":"view","type":"function"},{"inputs":[{"internalType":"bytes32","name":"role","type":"bytes32"},{"internalType":"address","name":"callerConfirmation","type":"address"}],"name":"renounceRole","outputs":[],"stateMutability":"nonpayable","type":"function"},{"inputs":[{"internalType":"bytes32","name":"role","type":"bytes32"},{"internalType":"address","name":"account","type":"address"}],"name":"revokeRole","outputs":[],"stateMutability":"nonpayable","type":"function"},{"inputs":[{"internalType":"uint256","name":"id","type":"uint256"},{"internalType":"enum Proposal.Status","name":"status","type":"uint8"}],"name":"setProposalStatus","outputs":[],"stateMutability":"nonpayable","type":"function"},{"inputs":[{"internalType":"address","name":"member","type":"address"},{"internalType":"uint256","name":"amount","type":"uint256"}],"name":"subGlassScore","outputs":[],"stateMutability":"nonpayable","type":"function"},{"inputs":[{"internalType":"bytes4","name":"interfaceId","type":"bytes4"}],"name":"supportsInterface","outputs":[{"internalType":"bool","name":"","type":"bool"}],"stateMutability":"view","type":"function"},{"inputs":[{"internalType":"uint256","name":"proposalId","type":"uint256"},{"internalType":"uint8","name":"choice","type":"uint8"}],"name":"vote","outputs":[],"stateMutability":"nonpayable","type":"function"}],"evm":{"bytecode":{"linkReferences":{},"object":"6080346200013c57601f6200242938819003918201601f19168301916001600160401b03831184841017620001265780849260409485528339810103126200013c576200005a6020620000528362000141565b920162000141565b90620000668162000156565b506200007281620001d6565b506200007e8262000278565b50600580546001600160a01b03199081166001600160a01b03948516179091556006549092906801000000000000000081101562000126576001810180600655811015620001105760066000526020600020019116809282541617905560005260076020526040600020600160ff19825416179055600460205260326040600020556040516120f39081620003168239f35b634e487b7160e01b600052603260045260246000fd5b634e487b7160e01b600052604160045260246000fd5b600080fd5b51906001600160a01b03821682036200013c57565b6001600160a01b031660008181527fad3228b676f7d3cd4284a5443f17f1962b36e491b30a40b2405849e597ba5fb5602052604081205490919060ff16620001d257818052816020526040822081835260205260408220600160ff198254161790553391600080516020620024098339815191528180a4600190565b5090565b6001600160a01b031660008181527f30710e496c9a8631e387d1ff5062c226d4ce9c9e008bff1f22ae157290ccbd6260205260408120549091907f829b824e2329e205435d941c9f13baf578548505283d29261236d8e6596d46369060ff166200027357808352826020526040832082845260205260408320600160ff1982541617905560008051602062002409833981519152339380a4600190565b505090565b6001600160a01b031660008181527fc39f11a9300b508470eaed31f5842ba08c93181bcbe6a7fe34039aa7f2b8074260205260408120549091907f3b5d4cc60d3ec3516ee8ae083bd60934f6eb2a6c54b1229985c41bfb092b26039060ff166200027357808352826020526040832082845260205260408320600160ff1982541617905560008051602062002409833981519152339380a460019056fe6080604052600436101561001257600080fd5b60003560e01c8063013cf08b146117ee57806301ffc9a7146117985780631f56d1261461175e5780632131c68c14611735578063248a9ca3146117065780632b72ee51146114745780632f2ff15d1461137f57806336568abe146113385780634385963214611229578063488cba40146112b85780635daf08ca1461127657806362d4f893146112295780637c0f6b351461116157806391d1485414611114578063943e821614610f3d578063997072f714610f1f578063a10f469e14610ef6578063a217fddf14610eda578063a230c52414610e9b578063a462e50f14610ded578063a7a36b4f146107bc578063a9330b0e14610782578063ba86f70a14610562578063c7f758a8146104b5578063cbe9461414610443578063cceb68f514610333578063d547741f146101dd578063e9c26518146101a25763ff9810991461015b57600080fd5b3461019d57602036600319011261019d576060610179600435611922565b50600481015490600660058201549101549060405192835260208301526040820152f35b600080fd5b3461019d57600036600319011261019d5760206040517f3b5d4cc60d3ec3516ee8ae083bd60934f6eb2a6c54b1229985c41bfb092b26038152f35b3461019d57604036600319011261019d576004356101f9611af5565b90610202611d2e565b80600052600060205260008051602061207e83398151915260019161022d8360406000200154611df2565b6102378482611cb9565b501480610311575b61024557005b6001600160a01b039182166000818152600760205260408120805460ff19169055825b61026f575b005b6006548082101561026d5784908361028684611b0b565b939054600394851b1c16146102a65750506102a090611e91565b82610268565b90949193506000198101925082116102fb576102f3936102c86102d493611b0b565b9054911b1c1691611b0b565b90919082549060031b9160018060a01b03809116831b921b1916179055565b61026d611ea0565b634e487b7160e01b600052601160045260246000fd5b506001600160a01b03821660009081526007602052604090205460ff1661023f565b3461019d57600036600319011261019d576001805467ffffffffffffffff811161042d579060405190602061036d818560051b01846119ca565b8383528083019384836000527fb10e2d527612073b26eecdfd717e6a320cf44b4afac2b0732d9fcbe2b7fa0cf66000915b8383106104065750505050604051928184019082855251809152604084019160408260051b86010195926000905b8382106103d95786880387f35b909192939483806103f5839a603f198b82030186528951611b42565b9997019594939190910191016103cc565b94600d85829997610419859a989a611f82565b81520192019201919096949695939561039e565b634e487b7160e01b600052604160045260246000fd5b3461019d57604036600319011261019d57600435602435600481101561019d5760207f3346abf262ac5179e9052765fb72484e0baab1f356f08442bb7a3054147631de9161048f611d2e565b6104a581600361049e87611922565b5001611f5e565b6104b26040518092611ad2565ba2005b3461019d57602036600319011261019d5760006101c06040516104d7816119ad565b60608152606060208201528260408201528260608201528260808201528260a08201528260c08201528260e0820152826101008201528261012082015282610140820152606061016082015282610180820152826101a0820152015261055e61054a610544600435611922565b50611f82565b604051918291602083526020830190611b42565b0390f35b3461019d5760208060031936011261019d5761057c611adf565b9060018060a01b03918281168060005260039384845260406000209384546001958682018092116102fb5755600481836005541660405192838092639f1f43af60e01b82525afa90811561077657600091610749575b508360005286825260406000205410156105e857005b61062085946105f5611d2e565b60008051602061207e8339815191526000526000835261061b8660406000200154611df2565b611c1b565b5082600052600781526040600020805460ff81166106ba575b5050826007929394506000528581526000604081205552604060002060ff198154169055826000905b61066857005b6006548082101561026d57838361067e84611b0b565b905490891b1c161461069a575061069490611e91565b83610662565b9093506000198101925082116102fb576102f3936102c86102d493611b0b565b60ff191690556000845b6106cf575b80610639565b600654808210156107435784846106e584611b0b565b9054908b1b1c161461070157506106fb90611e91565b846106c4565b939450919260001981019081116102fb576007926102d48561072561073294611b0b565b9054908b1b1c1691611b0b565b61073a611ea0565b849392916106c9565b506106c9565b90508181813d831161076f575b61076081836119ca565b8101031261019d5751876105d2565b503d610756565b6040513d6000823e3d90fd5b3461019d57602036600319011261019d576001600160a01b036107a3611adf565b1660005260036020526020604060002054604051908152f35b3461019d5760031960203682011261019d5767ffffffffffffffff6004351161019d57610120600435600401916004353603011261019d576107fc611da8565b6108068180611ee4565b919061081760246004350183611ee4565b909290919060043560640135906001600160a01b038216820361019d576084600435013590811515820361019d576108559060a46004350190611ee4565b60043561010401359691949093916001600160a01b038816880361019d576108f39661089261089b936040519b61088b8d6119ad565b3691611f17565b8a523691611f17565b60208801526004356044013560408801526001600160a01b0316606087015260006080870181905260a0870181905260c0870181905260e0870152426101008701523361012087015215156101408601523691611f17565b61016083015260043560c481013561018084015260e401356101a08301526001600160a01b03166101c0820152600154600160401b81101561042d5780600161093f9201600155611922565b610dd757815191825167ffffffffffffffff811161042d576109618354611973565b601f8111610d93575b506020601f8211600114610d2b5781929394600092610d20575b50508160011b916000199060031b1c19161782555b602081015191825167ffffffffffffffff811161042d576109bd6001830154611973565b601f8111610cd9575b506020601f8211600114610c6b5781929394600092610c60575b50508160011b916000199060031b1c19161760018201555b6040820151600282015560608201516003820180546001600160a01b0319166001600160a01b039290921691909117905560808201516004811015610c4a57610a449060038301611f5e565b60a0820151600482015560c0820151600582015560e0820151600682015561010082015160078201556008810160018060a01b036101208401511681549060ff60a01b610140860151151560a01b16916affffffffffffffffffffff60a81b161717905561016082015180519067ffffffffffffffff821161042d57610acd6009840154611973565b601f8111610c03575b50602090601f8311600114610b9257600c93929160009183610b87575b50508160011b916000199060031b1c19161760098201555b610180830151600a8201556101a0830151600b82015501906101c060018060a01b03910151166bffffffffffffffffffffffff60a01b82541617905560015460001981019081116102fb5760405160209133817fcd423cc1203c0af96b9b3d68d73b3064a69de2d14450bb7181c5e5df2132b358600080a38152f35b015190508580610af3565b90601f198316916009850160005260206000209260005b818110610beb5750916001939185600c97969410610bd2575b505050811b016009820155610b0b565b015160001960f88460031b161c19169055858080610bc2565b92936020600181928786015181550195019301610ba9565b600984016000526020600020601f840160051c810160208510610c43575b601f830160051c82018110610c37575050610ad6565b60008155600101610c21565b5080610c21565b634e487b7160e01b600052602160045260246000fd5b0151905084806109e0565b6001830160005260206000209060005b601f1984168110610cc15750600193949583601f19811610610ca8575b505050811b0160018201556109f8565b015160001960f88460031b161c19169055848080610c98565b9091602060018192858a015181550193019101610c7b565b600183016000526020600020601f830160051c810160208410610d19575b601f830160051c82018110610d0d5750506109c6565b60008155600101610cf7565b5080610cf7565b015190508480610984565b8360005260206000209060005b601f1984168110610d7b5750600193949583601f19811610610d62575b505050811b018255610999565b015160001960f88460031b161c19169055848080610d55565b9091602060018192858a015181550193019101610d38565b836000526020600020601f830160051c810160208410610dd0575b601f830160051c82018110610dc457505061096a565b60008155600101610dae565b5080610dae565b634e487b7160e01b600052600060045260246000fd5b3461019d57604036600319011261019d57600435610e09611af5565b90610e12611d2e565b610e1b81611922565b5081600052600260205260406000209260018060a01b0316928360005260205260ff6040600020541615610e4b57005b6006908260005260026020526040600020846000526020526040600020600160ff1982541617905501610e7e8154611e91565b905560008051602061209e833981519152602060405160028152a3005b3461019d57602036600319011261019d576001600160a01b03610ebc611adf565b166000526007602052602060ff604060002054166040519015158152f35b3461019d57600036600319011261019d57602060405160008152f35b3461019d57600036600319011261019d57602060405160008051602061207e8339815191528152f35b3461019d57600036600319011261019d576020600654604051908152f35b3461019d57604036600319011261019d576004356024359060ff821680920361019d57610f68611da8565b610f7181611922565b5060ff600882015460a01c16156110c1578160005260209060028252604060002033600052825260ff6040600020541661108457600083815260028352604080822033835284529020805460ff1916600117905583610ff65790600460008051602061209e8339815191529201610fe88154611e91565b90555b6040519384523393a3005b600184036110235790600560008051602061209e833981519152920161101c8154611e91565b9055610feb565b600284036110495790600660008051602061209e833981519152920161101c8154611e91565b60405162461bcd60e51b8152600481018390526013602482015272496e76616c696420766f74652063686f69636560681b6044820152606490fd5b60405162461bcd60e51b8152600481018390526015602482015274159bdd1a5b99ce88185b1c9958591e481d9bdd1959605a1b6044820152606490fd5b60405162461bcd60e51b815260206004820152602560248201527f566f74696e67206e6f7420726571756972656420666f7220746869732070726f6044820152641c1bdcd85b60da1b6064820152608490fd5b3461019d57604036600319011261019d5761112d611af5565b600435600052600060205260406000209060018060a01b0316600052602052602060ff604060002054166040519015158152f35b3461019d57600036600319011261019d57604051806006548083526020809301809160066000527ff652222313e28459528d920b65115c16c04f3efc82aaedc97be59f3f377c0d3f9060005b8682821061120c5786866111c3828803836119ca565b604051928392818401908285525180915260408401929160005b8281106111ec57505050500390f35b83516001600160a01b0316855286955093810193928101926001016111dd565b83546001600160a01b0316855290930192600192830192016111ad565b3461019d57604036600319011261019d57611242611af5565b600435600052600260205260406000209060018060a01b0316600052602052602060ff604060002054166040519015158152f35b3461019d57602036600319011261019d5760043560065481101561019d5761129f602091611b0b565b905460405160039290921b1c6001600160a01b03168152f35b3461019d57604036600319011261019d576112d1611adf565b6112d9611d2e565b6001600160a01b031660008181526004602052604090205460243581019081106102fb5760648111611330575b602060008051602061205e83398151915291836000526004825280604060002055604051908152a2005b506064611306565b3461019d57604036600319011261019d57611351611af5565b336001600160a01b0382160361136d5761026d90600435611cb9565b60405163334bd91960e11b8152600490fd5b3461019d57604036600319011261019d5760043560008051602061207e8339815191526113aa611af5565b916113b3611d2e565b8060005260006020526113cd600160406000200154611df2565b6113d78382611e18565b501480611451575b6113e557005b600654600160401b81101561042d57816102d48260016114089401600655611b0b565b60018060a01b03168060005260076020526040600020600160ff198254161790556004602052603260406000205560008051602061205e833981519152602060405160328152a2005b506001600160a01b03811660009081526007602052604090205460ff16156113df565b3461019d57604036600319011261019d5761148d611adf565b602490813561149a611d2e565b60018060a01b0392838316908160005260209260048452604060002054908082116000146116ec5781039081116116d75760008051602061205e8339815191528484925b836000526004825280604060002055604051908152a260048386600554166040519283809263295e4f4160e11b82525afa908115610776576000916116aa575b5082600052600484526040600020541061153457005b61153c611d2e565b60008051602061207e8339815191526000526000835261156860019461061b8660406000200154611df2565b5081600052600783526040600020805460ff8116611617575b50508160005260076003938481526000604081205552604060002060ff198154169055836000905b6115af57005b6006548082101561026d5783876115c584611b0b565b905490881b1c16146115e157506115db90611e91565b846115a9565b9094506000198101925082116116035750926102d4916102c86102f395611b0b565b634e487b7160e01b60009081526011600452fd5b60ff19169055836000815b156115815786600654808310156116a3578561163d84611b0b565b939054600394851b1c161461165d57505061165790611e91565b81611622565b91925090600019810190811161168e578761167f93926102c86102d493611b0b565b611687611ea0565b8386611581565b83634e487b7160e01b60005260116004526000fd5b5050611581565b90508381813d83116116d0575b6116c181836119ca565b8101031261019d57518661151e565b503d6116b7565b50634e487b7160e01b60009081526011600452fd5b50508160008051602061205e8339815191528460006114de565b3461019d57602036600319011261019d5760043560005260006020526020600160406000200154604051908152f35b3461019d57600036600319011261019d576005546040516001600160a01b039091168152602090f35b3461019d57602036600319011261019d576001600160a01b0361177f611adf565b1660005260046020526020604060002054604051908152f35b3461019d57602036600319011261019d5760043563ffffffff60e01b811680910361019d57602090637965db0b60e01b81149081156117dd575b506040519015158152f35b6301ffc9a760e01b149050826117d2565b3461019d57602036600319011261019d5760043560015481101561019d5761181590611922565b5061181f816119ec565b61182b600183016119ec565b9060028301549260038101549060048101549060058101549360068201549160078101549060088101549160098201611863906119ec565b94600a83015498600b84015497600160a01b60019003600c8196015416996040519d8e9d8e996101e0808c528b0161189a91611a92565b8a810360208c01526118ab91611a92565b98604001528c868216906060015260808d019060a01c60ff16906118ce91611ad2565b60a08c015260c08b015260e08a0152610100890152811661012088015260a01c60ff16151561014087015285810361016087015261190b91611a92565b926101808501526101a08401526101c08301520390f35b60015481101561195d57600d906001600052027fb10e2d527612073b26eecdfd717e6a320cf44b4afac2b0732d9fcbe2b7fa0cf60190600090565b634e487b7160e01b600052603260045260246000fd5b90600182811c921680156119a3575b602083101461198d57565b634e487b7160e01b600052602260045260246000fd5b91607f1691611982565b6101e0810190811067ffffffffffffffff82111761042d57604052565b90601f8019910116810190811067ffffffffffffffff82111761042d57604052565b9060405191826000825492611a0084611973565b908184526001948581169081600014611a6f5750600114611a2c575b5050611a2a925003836119ca565b565b9093915060005260209081600020936000915b818310611a57575050611a2a93508201013880611a1c565b85548884018501529485019487945091830191611a3f565b915050611a2a94506020925060ff191682840152151560051b8201013880611a1c565b919082519283825260005b848110611abe575050826000602080949584010152601f8019910116010190565b602081830181015184830182015201611a9d565b906004821015610c4a5752565b600435906001600160a01b038216820361019d57565b602435906001600160a01b038216820361019d57565b60065481101561195d5760066000527ff652222313e28459528d920b65115c16c04f3efc82aaedc97be59f3f377c0d3f0190600090565b90611b6b611b5983516101e0808552840190611a92565b60208401518382036020850152611a92565b9160408101516040830152611bf660018060a01b0393846060840151166060850152611b9f60808401516080860190611ad2565b60a083015160a085015260c083015160c085015260e083015160e085015261010080840151908501526101208581850151169085015261014080840151151590850152610160808401519085830390860152611a92565b9261018080830151908401526101a080830151908401526101c0809201511691015290565b6001600160a01b031660008181527f30710e496c9a8631e387d1ff5062c226d4ce9c9e008bff1f22ae157290ccbd62602052604081205490919060008051602061207e8339815191529060ff1615611cb45780835282602052604083208284526020526040832060ff1981541690557ff6391f5c32d9c69d2a47ea670b442974b53935d1edc7fd64eb21e047a839171b339380a4600190565b505090565b9060009180835282602052604083209160018060a01b03169182845260205260ff604084205416600014611cb45780835282602052604083208284526020526040832060ff1981541690557ff6391f5c32d9c69d2a47ea670b442974b53935d1edc7fd64eb21e047a839171b339380a4600190565b3360009081527fc39f11a9300b508470eaed31f5842ba08c93181bcbe6a7fe34039aa7f2b8074260205260409020547f3b5d4cc60d3ec3516ee8ae083bd60934f6eb2a6c54b1229985c41bfb092b26039060ff1615611d8a5750565b6044906040519063e2517d3f60e01b82523360048301526024820152fd5b3360009081527f30710e496c9a8631e387d1ff5062c226d4ce9c9e008bff1f22ae157290ccbd62602052604090205460008051602061207e8339815191529060ff1615611d8a5750565b80600052600060205260406000203360005260205260ff6040600020541615611d8a5750565b9060009180835282602052604083209160018060a01b03169182845260205260ff60408420541615600014611cb457808352826020526040832082845260205260408320600160ff198254161790557f2f8788117e7eff1d82e926ec794901d17c78024a50270940304540a733656f0d339380a4600190565b60001981146102fb5760010190565b6006548015611ece5760001901611eb681611b0b565b81549060018060a01b039060031b1b19169055600655565b634e487b7160e01b600052603160045260246000fd5b903590601e198136030182121561019d570180359067ffffffffffffffff821161019d5760200191813603831361019d57565b92919267ffffffffffffffff821161042d5760405191611f41601f8201601f1916602001846119ca565b82948184528183011161019d578281602093846000960137010152565b906004811015610c4a57815460ff60a01b191660a09190911b60ff60a01b16179055565b90604051611f8f816119ad565b8092611f9a816119ec565b8252611fa8600182016119ec565b60208301526002810154604083015260038101546001600160a01b0380821660608501529060a01c60ff166004811015610c4a576101c092600c916080860152600481015460a0860152600581015460c0860152600681015460e0860152600781015461010086015260ff600882015484811661012088015260a01c161515610140860152612039600982016119ec565b610160860152600a810154610180860152600b8101546101a086015201541691015256fedb51946147af8f68f24b69cdb99d868cc4b53b75dce4e05d8f590bcf5281051c829b824e2329e205435d941c9f13baf578548505283d29261236d8e6596d4636094f80829c509370abb2d421a078ba5926755d3de25d021dacf7bbd19853f7a2a2646970667358221220fa6e534ff449c53fef7f7999a709eb39befd2fff4d3c7ef8384ffdf344e23b3664736f6c634300081400332f8788117e7eff1d82e926ec794901d17c78024a50270940304540a733656f0d","opcodes":"PUSH1 0x80 CALLVALUE PUSH3 0x13C JUMPI PUSH1 0x1F PUSH3 0x2429 CODESIZE DUP2 SWAP1 SUB SWAP2 DUP3 ADD PUSH1 0x1F NOT AND DUP4 ADD SWAP2 PUSH1 0x1 PUSH1 0x1 PUSH1 0x40 SHL SUB DUP4 GT DUP5 DUP5 LT OR PUSH3 0x126 JUMPI DUP1 DUP5 SWAP3 PUSH1 0x40 SWAP5 DUP6 MSTORE DUP4 CODECOPY DUP2 ADD SUB SLT PUSH3 0x13C JUMPI PUSH3 0x5A PUSH1 0x20 PUSH3 0x52 DUP4 PUSH3 0x141 JUMP JUMPDEST SWAP3 ADD PUSH3 0x141 JUMP JUMPDEST SWAP1 PUSH3 0x66 DUP2 PUSH3 0x156 JUMP JUMPDEST POP PUSH3 0x72 DUP2 PUSH3 0x1D6 JUMP JUMPDEST POP PUSH3 0x7E DUP3 PUSH3 0x278 JUMP JUMPDEST POP PUSH1 0x5 DUP1 SLOAD PUSH1 0x1 PUSH1 0x1 PUSH1 0xA0 SHL SUB NOT SWAP1 DUP2 AND PUSH1 0x1 PUSH1 0x1 PUSH1 0xA0 SHL SUB SWAP5 DUP6 AND OR SWAP1 SWAP2 SSTORE PUSH1 0x6 SLOAD SWAP1 SWAP3 SWAP1 PUSH9 0x10000000000000000 DUP2 LT ISZERO PUSH3 0x126 JUMPI PUSH1 0x1 DUP2 ADD DUP1 PUSH1 0x6 SSTORE DUP2 LT ISZERO PUSH3 0x110 JUMPI PUSH1 0x6 PUSH1 0x0 MSTORE PUSH1 0x20 PUSH1 0x0 KECCAK256 ADD SWAP2 AND DUP1 SWAP3 DUP3 SLOAD AND OR SWAP1 SSTORE PUSH1 0x0 MSTORE PUSH1 0x7 PUSH1 0x20 MSTORE PUSH1 0x40 PUSH1 0x0 KECCAK256 PUSH1 0x1 PUSH1 0xFF NOT DUP3 SLOAD AND OR SWAP1 SSTORE PUSH1 0x4 PUSH1 0x20 MSTORE PUSH1 0x32 PUSH1 0x40 PUSH1 0x0 KECCAK256 SSTORE PUSH1 0x40 MLOAD PUSH2 0x20F3 SWAP1 DUP2 PUSH3 0x316 DUP3 CODECOPY RETURN JUMPDEST PUSH4 0x4E487B71 PUSH1 0xE0 SHL PUSH1 0x0 MSTORE PUSH1 0x32 PUSH1 0x4 MSTORE PUSH1 0x24 PUSH1 0x0 REVERT JUMPDEST PUSH4 0x4E487B71 PUSH1 0xE0 SHL PUSH1 0x0 MSTORE PUSH1 0x41 PUSH1 0x4 MSTORE PUSH1 0x24 PUSH1 0x0 REVERT JUMPDEST PUSH1 0x0 DUP1 REVERT JUMPDEST MLOAD SWAP1 PUSH1 0x1 PUSH1 0x1 PUSH1 0xA0 SHL SUB DUP3 AND DUP3 SUB PUSH3 0x13C JUMPI JUMP JUMPDEST PUSH1 0x1 PUSH1 0x1 PUSH1 0xA0 SHL SUB AND PUSH1 0x0 DUP2 DUP2 MSTORE PUSH32 0xAD3228B676F7D3CD4284A5443F17F1962B36E491B30A40B2405849E597BA5FB5 PUSH1 0x20 MSTORE PUSH1 0x40 DUP2 KECCAK256 SLOAD SWAP1 SWAP2 SWAP1 PUSH1 0xFF AND PUSH3 0x1D2 JUMPI DUP2 DUP1 MSTORE DUP2 PUSH1 0x20 MSTORE PUSH1 0x40 DUP3 KECCAK256 DUP2 DUP4 MSTORE PUSH1 0x20 MSTORE PUSH1 0x40 DUP3 KECCAK256 PUSH1 0x1 PUSH1 0xFF NOT DUP3 SLOAD AND OR SWAP1 SSTORE CALLER SWAP2 PUSH1 0x0 DUP1 MLOAD PUSH1 0x20 PUSH3 0x2409 DUP4 CODECOPY DUP2 MLOAD SWAP2 MSTORE DUP2 DUP1 LOG4 PUSH1 0x1 SWAP1 JUMP JUMPDEST POP SWAP1 JUMP JUMPDEST PUSH1 0x1 PUSH1 0x1 PUSH1 0xA0 SHL SUB AND PUSH1 0x0 DUP2 DUP2 MSTORE PUSH32 0x30710E496C9A8631E387D1FF5062C226D4CE9C9E008BFF1F22AE157290CCBD62 PUSH1 0x20 MSTORE PUSH1 0x40 DUP2 KECCAK256 SLOAD SWAP1 SWAP2 SWAP1 PUSH32 0x829B824E2329E205435D941C9F13BAF578548505283D29261236D8E6596D4636 SWAP1 PUSH1 0xFF AND PUSH3 0x273 JUMPI DUP1 DUP4 MSTORE DUP3 PUSH1 0x20 MSTORE PUSH1 0x40 DUP4 KECCAK256 DUP3 DUP5 MSTORE PUSH1 0x20 MSTORE PUSH1 0x40 DUP4 KECCAK256 PUSH1 0x1 PUSH1 0xFF NOT DUP3 SLOAD AND OR SWAP1 SSTORE PUSH1 0x0 DUP1 MLOAD PUSH1 0x20 PUSH3 0x2409 DUP4 CODECOPY DUP2 MLOAD SWAP2 MSTORE CALLER SWAP4 DUP1 LOG4 PUSH1 0x1 SWAP1 JUMP JUMPDEST POP POP SWAP1 JUMP JUMPDEST PUSH1 0x1 PUSH1 0x1 PUSH1 0xA0 SHL SUB AND PUSH1 0x0 DUP2 DUP2 MSTORE PUSH32 0xC39F11A9300B508470EAED31F5842BA08C93181BCBE6A7FE34039AA7F2B80742 PUSH1 0x20 MSTORE PUSH1 0x40 DUP2 KECCAK256 SLOAD SWAP1 SWAP2 SWAP1 PUSH32 0x3B5D4CC60D3EC3516EE8AE083BD60934F6EB2A6C54B1229985C41BFB092B2603 SWAP1 PUSH1 0xFF AND PUSH3 0x273 JUMPI DUP1 DUP4 MSTORE DUP3 PUSH1 0x20 MSTORE PUSH1 0x40 DUP4 KECCAK256 DUP3 DUP5 MSTORE PUSH1 0x20 MSTORE PUSH1 0x40 DUP4 KECCAK256 PUSH1 0x1 PUSH1 0xFF NOT DUP3 SLOAD AND OR SWAP1 SSTORE PUSH1 0x0 DUP1 MLOAD PUSH1 0x20 PUSH3 0x2409 DUP4 CODECOPY DUP2 MLOAD SWAP2 MSTORE CALLER SWAP4 DUP1 LOG4 PUSH1 0x1 SWAP1 JUMP INVALID PUSH1 0x80 PUSH1 0x40 MSTORE PUSH1 0x4 CALLDATASIZE LT ISZERO PUSH2 0x12 JUMPI PUSH1 0x0 DUP1 REVERT JUMPDEST PUSH1 0x0 CALLDATALOAD PUSH1 0xE0 SHR DUP1 PUSH4 0x13CF08B EQ PUSH2 0x17EE JUMPI DUP1 PUSH4 0x1FFC9A7 EQ PUSH2 0x1798 JUMPI DUP1 PUSH4 0x1F56D126 EQ PUSH2 0x175E JUMPI DUP1 PUSH4 0x2131C68C EQ PUSH2 0x1735 JUMPI DUP1 PUSH4 0x248A9CA3 EQ PUSH2 0x1706 JUMPI DUP1 PUSH4 0x2B72EE51 EQ PUSH2 0x1474 JUMPI DUP1 PUSH4 0x2F2FF15D EQ PUSH2 0x137F JUMPI DUP1 PUSH4 0x36568ABE EQ PUSH2 0x1338 JUMPI DUP1 PUSH4 0x43859632 EQ PUSH2 0x1229 JUMPI DUP1 PUSH4 0x488CBA40 EQ PUSH2 0x12B8 JUMPI DUP1 PUSH4 0x5DAF08CA EQ PUSH2 0x1276 JUMPI DUP1 PUSH4 0x62D4F893 EQ PUSH2 0x1229 JUMPI DUP1 PUSH4 0x7C0F6B35 EQ PUSH2 0x1161 JUMPI DUP1 PUSH4 0x91D14854 EQ PUSH2 0x1114 JUMPI DUP1 PUSH4 0x943E8216 EQ PUSH2 0xF3D JUMPI DUP1 PUSH4 0x997072F7 EQ PUSH2 0xF1F JUMPI DUP1 PUSH4 0xA10F469E EQ PUSH2 0xEF6 JUMPI DUP1 PUSH4 0xA217FDDF EQ PUSH2 0xEDA JUMPI DUP1 PUSH4 0xA230C524 EQ PUSH2 0xE9B JUMPI DUP1 PUSH4 0xA462E50F EQ PUSH2 0xDED JUMPI DUP1 PUSH4 0xA7A36B4F EQ PUSH2 0x7BC JUMPI DUP1 PUSH4 0xA9330B0E EQ PUSH2 0x782 JUMPI DUP1 PUSH4 0xBA86F70A EQ PUSH2 0x562 JUMPI DUP1 PUSH4 0xC7F758A8 EQ PUSH2 0x4B5 JUMPI DUP1 PUSH4 0xCBE94614 EQ PUSH2 0x443 JUMPI DUP1 PUSH4 0xCCEB68F5 EQ PUSH2 0x333 JUMPI DUP1 PUSH4 0xD547741F EQ PUSH2 0x1DD JUMPI DUP1 PUSH4 0xE9C26518 EQ PUSH2 0x1A2 JUMPI PUSH4 0xFF981099 EQ PUSH2 0x15B JUMPI PUSH1 0x0 DUP1 REVERT JUMPDEST CALLVALUE PUSH2 0x19D JUMPI PUSH1 0x20 CALLDATASIZE PUSH1 0x3 NOT ADD SLT PUSH2 0x19D JUMPI PUSH1 0x60 PUSH2 0x179 PUSH1 0x4 CALLDATALOAD PUSH2 0x1922 JUMP JUMPDEST POP PUSH1 0x4 DUP2 ADD SLOAD SWAP1 PUSH1 0x6 PUSH1 0x5 DUP3 ADD SLOAD SWAP2 ADD SLOAD SWAP1 PUSH1 0x40 MLOAD SWAP3 DUP4 MSTORE PUSH1 0x20 DUP4 ADD MSTORE PUSH1 0x40 DUP3 ADD MSTORE RETURN JUMPDEST PUSH1 0x0 DUP1 REVERT JUMPDEST CALLVALUE PUSH2 0x19D JUMPI PUSH1 0x0 CALLDATASIZE PUSH1 0x3 NOT ADD SLT PUSH2 0x19D JUMPI PUSH1 0x20 PUSH1 0x40 MLOAD PUSH32 0x3B5D4CC60D3EC3516EE8AE083BD60934F6EB2A6C54B1229985C41BFB092B2603 DUP2 MSTORE RETURN JUMPDEST CALLVALUE PUSH2 0x19D JUMPI PUSH1 0x40 CALLDATASIZE PUSH1 0x3 NOT ADD SLT PUSH2 0x19D JUMPI PUSH1 0x4 CALLDATALOAD PUSH2 0x1F9 PUSH2 0x1AF5 JUMP JUMPDEST SWAP1 PUSH2 0x202 PUSH2 0x1D2E JUMP JUMPDEST DUP1 PUSH1 0x0 MSTORE PUSH1 0x0 PUSH1 0x20 MSTORE PUSH1 0x0 DUP1 MLOAD PUSH1 0x20 PUSH2 0x207E DUP4 CODECOPY DUP2 MLOAD SWAP2 MSTORE PUSH1 0x1 SWAP2 PUSH2 0x22D DUP4 PUSH1 0x40 PUSH1 0x0 KECCAK256 ADD SLOAD PUSH2 0x1DF2 JUMP JUMPDEST PUSH2 0x237 DUP5 DUP3 PUSH2 0x1CB9 JUMP JUMPDEST POP EQ DUP1 PUSH2 0x311 JUMPI JUMPDEST PUSH2 0x245 JUMPI STOP JUMPDEST PUSH1 0x1 PUSH1 0x1 PUSH1 0xA0 SHL SUB SWAP2 DUP3 AND PUSH1 0x0 DUP2 DUP2 MSTORE PUSH1 0x7 PUSH1 0x20 MSTORE PUSH1 0x40 DUP2 KECCAK256 DUP1 SLOAD PUSH1 0xFF NOT AND SWAP1 SSTORE DUP3 JUMPDEST PUSH2 0x26F JUMPI JUMPDEST STOP JUMPDEST PUSH1 0x6 SLOAD DUP1 DUP3 LT ISZERO PUSH2 0x26D JUMPI DUP5 SWAP1 DUP4 PUSH2 0x286 DUP5 PUSH2 0x1B0B JUMP JUMPDEST SWAP4 SWAP1 SLOAD PUSH1 0x3 SWAP5 DUP6 SHL SHR AND EQ PUSH2 0x2A6 JUMPI POP POP PUSH2 0x2A0 SWAP1 PUSH2 0x1E91 JUMP JUMPDEST DUP3 PUSH2 0x268 JUMP JUMPDEST SWAP1 SWAP5 SWAP2 SWAP4 POP PUSH1 0x0 NOT DUP2 ADD SWAP3 POP DUP3 GT PUSH2 0x2FB JUMPI PUSH2 0x2F3 SWAP4 PUSH2 0x2C8 PUSH2 0x2D4 SWAP4 PUSH2 0x1B0B JUMP JUMPDEST SWAP1 SLOAD SWAP2 SHL SHR AND SWAP2 PUSH2 0x1B0B JUMP JUMPDEST SWAP1 SWAP2 SWAP1 DUP3 SLOAD SWAP1 PUSH1 0x3 SHL SWAP2 PUSH1 0x1 DUP1 PUSH1 0xA0 SHL SUB DUP1 SWAP2 AND DUP4 SHL SWAP3 SHL NOT AND OR SWAP1 SSTORE JUMP JUMPDEST PUSH2 0x26D PUSH2 0x1EA0 JUMP JUMPDEST PUSH4 0x4E487B71 PUSH1 0xE0 SHL PUSH1 0x0 MSTORE PUSH1 0x11 PUSH1 0x4 MSTORE PUSH1 0x24 PUSH1 0x0 REVERT JUMPDEST POP PUSH1 0x1 PUSH1 0x1 PUSH1 0xA0 SHL SUB DUP3 AND PUSH1 0x0 SWAP1 DUP2 MSTORE PUSH1 0x7 PUSH1 0x20 MSTORE PUSH1 0x40 SWAP1 KECCAK256 SLOAD PUSH1 0xFF AND PUSH2 0x23F JUMP JUMPDEST CALLVALUE PUSH2 0x19D JUMPI PUSH1 0x0 CALLDATASIZE PUSH1 0x3 NOT ADD SLT PUSH2 0x19D JUMPI PUSH1 0x1 DUP1 SLOAD PUSH8 0xFFFFFFFFFFFFFFFF DUP2 GT PUSH2 0x42D JUMPI SWAP1 PUSH1 0x40 MLOAD SWAP1 PUSH1 0x20 PUSH2 0x36D DUP2 DUP6 PUSH1 0x5 SHL ADD DUP5 PUSH2 0x19CA JUMP JUMPDEST DUP4 DUP4 MSTORE DUP1 DUP4 ADD SWAP4 DUP5 DUP4 PUSH1 0x0 MSTORE PUSH32 0xB10E2D527612073B26EECDFD717E6A320CF44B4AFAC2B0732D9FCBE2B7FA0CF6 PUSH1 0x0 SWAP2 JUMPDEST DUP4 DUP4 LT PUSH2 0x406 JUMPI POP POP POP POP PUSH1 0x40 MLOAD SWAP3 DUP2 DUP5 ADD SWAP1 DUP3 DUP6 MSTORE MLOAD DUP1 SWAP2 MSTORE PUSH1 0x40 DUP5 ADD SWAP2 PUSH1 0x40 DUP3 PUSH1 0x5 SHL DUP7 ADD ADD SWAP6 SWAP3 PUSH1 0x0 SWAP1 JUMPDEST DUP4 DUP3 LT PUSH2 0x3D9 JUMPI DUP7 DUP9 SUB DUP8 RETURN JUMPDEST SWAP1 SWAP2 SWAP3 SWAP4 SWAP5 DUP4 DUP1 PUSH2 0x3F5 DUP4 SWAP11 PUSH1 0x3F NOT DUP12 DUP3 SUB ADD DUP7 MSTORE DUP10 MLOAD PUSH2 0x1B42 JUMP JUMPDEST SWAP10 SWAP8 ADD SWAP6 SWAP5 SWAP4 SWAP2 SWAP1 SWAP2 ADD SWAP2 ADD PUSH2 0x3CC JUMP JUMPDEST SWAP5 PUSH1 0xD DUP6 DUP3 SWAP10 SWAP8 PUSH2 0x419 DUP6 SWAP11 SWAP9 SWAP11 PUSH2 0x1F82 JUMP JUMPDEST DUP2 MSTORE ADD SWAP3 ADD SWAP3 ADD SWAP2 SWAP1 SWAP7 SWAP5 SWAP7 SWAP6 SWAP4 SWAP6 PUSH2 0x39E JUMP JUMPDEST PUSH4 0x4E487B71 PUSH1 0xE0 SHL PUSH1 0x0 MSTORE PUSH1 0x41 PUSH1 0x4 MSTORE PUSH1 0x24 PUSH1 0x0 REVERT JUMPDEST CALLVALUE PUSH2 0x19D JUMPI PUSH1 0x40 CALLDATASIZE PUSH1 0x3 NOT ADD SLT PUSH2 0x19D JUMPI PUSH1 0x4 CALLDATALOAD PUSH1 0x24 CALLDATALOAD PUSH1 0x4 DUP2 LT ISZERO PUSH2 0x19D JUMPI PUSH1 0x20 PUSH32 0x3346ABF262AC5179E9052765FB72484E0BAAB1F356F08442BB7A3054147631DE SWAP2 PUSH2 0x48F PUSH2 0x1D2E JUMP JUMPDEST PUSH2 0x4A5 DUP2 PUSH1 0x3 PUSH2 0x49E DUP8 PUSH2 0x1922 JUMP JUMPDEST POP ADD PUSH2 0x1F5E JUMP JUMPDEST PUSH2 0x4B2 PUSH1 0x40 MLOAD DUP1 SWAP3 PUSH2 0x1AD2 JUMP JUMPDEST LOG2 STOP JUMPDEST CALLVALUE PUSH2 0x19D JUMPI PUSH1 0x20 CALLDATASIZE PUSH1 0x3 NOT ADD SLT PUSH2 0x19D JUMPI PUSH1 0x0 PUSH2 0x1C0 PUSH1 0x40 MLOAD PUSH2 0x4D7 DUP2 PUSH2 0x19AD JUMP JUMPDEST PUSH1 0x60 DUP2 MSTORE PUSH1 0x60 PUSH1 0x20 DUP3 ADD MSTORE DUP3 PUSH1 0x40 DUP3 ADD MSTORE DUP3 PUSH1 0x60 DUP3 ADD MSTORE DUP3 PUSH1 0x80 DUP3 ADD MSTORE DUP3 PUSH1 0xA0 DUP3 ADD MSTORE DUP3 PUSH1 0xC0 DUP3 ADD MSTORE DUP3 PUSH1 0xE0 DUP3 ADD MSTORE DUP3 PUSH2 0x100 DUP3 ADD MSTORE DUP3 PUSH2 0x120 DUP3 ADD MSTORE DUP3 PUSH2 0x140 DUP3 ADD MSTORE PUSH1 0x60 PUSH2 0x160 DUP3 ADD MSTORE DUP3 PUSH2 0x180 DUP3 ADD MSTORE DUP3 PUSH2 0x1A0 DUP3 ADD MSTORE ADD MSTORE PUSH2 0x55E PUSH2 0x54A PUSH2 0x544 PUSH1 0x4 CALLDATALOAD PUSH2 0x1922 JUMP JUMPDEST POP PUSH2 0x1F82 JUMP JUMPDEST PUSH1 0x40 MLOAD SWAP2 DUP3 SWAP2 PUSH1 0x20 DUP4 MSTORE PUSH1 0x20 DUP4 ADD SWAP1 PUSH2 0x1B42 JUMP JUMPDEST SUB SWAP1 RETURN JUMPDEST CALLVALUE PUSH2 0x19D JUMPI PUSH1 0x20 DUP1 PUSH1 0x3 NOT CALLDATASIZE ADD SLT PUSH2 0x19D JUMPI PUSH2 0x57C PUSH2 0x1ADF JUMP JUMPDEST SWAP1 PUSH1 0x1 DUP1 PUSH1 0xA0 SHL SUB SWAP2 DUP3 DUP2 AND DUP1 PUSH1 0x0 MSTORE PUSH1 0x3 SWAP4 DUP5 DUP5 MSTORE PUSH1 0x40 PUSH1 0x0 KECCAK256 SWAP4 DUP5 SLOAD PUSH1 0x1 SWAP6 DUP7 DUP3 ADD DUP1 SWAP3 GT PUSH2 0x2FB JUMPI SSTORE PUSH1 0x4 DUP2 DUP4 PUSH1 0x5 SLOAD AND PUSH1 0x40 MLOAD SWAP3 DUP4 DUP1 SWAP3 PUSH4 0x9F1F43AF PUSH1 0xE0 SHL DUP3 MSTORE GAS STATICCALL SWAP1 DUP2 ISZERO PUSH2 0x776 JUMPI PUSH1 0x0 SWAP2 PUSH2 0x749 JUMPI JUMPDEST POP DUP4 PUSH1 0x0 MSTORE DUP7 DUP3 MSTORE PUSH1 0x40 PUSH1 0x0 KECCAK256 SLOAD LT ISZERO PUSH2 0x5E8 JUMPI STOP JUMPDEST PUSH2 0x620 DUP6 SWAP5 PUSH2 0x5F5 PUSH2 0x1D2E JUMP JUMPDEST PUSH1 0x0 DUP1 MLOAD PUSH1 0x20 PUSH2 0x207E DUP4 CODECOPY DUP2 MLOAD SWAP2 MSTORE PUSH1 0x0 MSTORE PUSH1 0x0 DUP4 MSTORE PUSH2 0x61B DUP7 PUSH1 0x40 PUSH1 0x0 KECCAK256 ADD SLOAD PUSH2 0x1DF2 JUMP JUMPDEST PUSH2 0x1C1B JUMP JUMPDEST POP DUP3 PUSH1 0x0 MSTORE PUSH1 0x7 DUP2 MSTORE PUSH1 0x40 PUSH1 0x0 KECCAK256 DUP1 SLOAD PUSH1 0xFF DUP2 AND PUSH2 0x6BA JUMPI JUMPDEST POP POP DUP3 PUSH1 0x7 SWAP3 SWAP4 SWAP5 POP PUSH1 0x0 MSTORE DUP6 DUP2 MSTORE PUSH1 0x0 PUSH1 0x40 DUP2 KECCAK256 SSTORE MSTORE PUSH1 0x40 PUSH1 0x0 KECCAK256 PUSH1 0xFF NOT DUP2 SLOAD AND SWAP1 SSTORE DUP3 PUSH1 0x0 SWAP1 JUMPDEST PUSH2 0x668 JUMPI STOP JUMPDEST PUSH1 0x6 SLOAD DUP1 DUP3 LT ISZERO PUSH2 0x26D JUMPI DUP4 DUP4 PUSH2 0x67E DUP5 PUSH2 0x1B0B JUMP JUMPDEST SWAP1 SLOAD SWAP1 DUP10 SHL SHR AND EQ PUSH2 0x69A JUMPI POP PUSH2 0x694 SWAP1 PUSH2 0x1E91 JUMP JUMPDEST DUP4 PUSH2 0x662 JUMP JUMPDEST SWAP1 SWAP4 POP PUSH1 0x0 NOT DUP2 ADD SWAP3 POP DUP3 GT PUSH2 0x2FB JUMPI PUSH2 0x2F3 SWAP4 PUSH2 0x2C8 PUSH2 0x2D4 SWAP4 PUSH2 0x1B0B JUMP JUMPDEST PUSH1 0xFF NOT AND SWAP1 SSTORE PUSH1 0x0 DUP5 JUMPDEST PUSH2 0x6CF JUMPI JUMPDEST DUP1 PUSH2 0x639 JUMP JUMPDEST PUSH1 0x6 SLOAD DUP1 DUP3 LT ISZERO PUSH2 0x743 JUMPI DUP5 DUP5 PUSH2 0x6E5 DUP5 PUSH2 0x1B0B JUMP JUMPDEST SWAP1 SLOAD SWAP1 DUP12 SHL SHR AND EQ PUSH2 0x701 JUMPI POP PUSH2 0x6FB SWAP1 PUSH2 0x1E91 JUMP JUMPDEST DUP5 PUSH2 0x6C4 JUMP JUMPDEST SWAP4 SWAP5 POP SWAP2 SWAP3 PUSH1 0x0 NOT DUP2 ADD SWAP1 DUP2 GT PUSH2 0x2FB JUMPI PUSH1 0x7 SWAP3 PUSH2 0x2D4 DUP6 PUSH2 0x725 PUSH2 0x732 SWAP5 PUSH2 0x1B0B JUMP JUMPDEST SWAP1 SLOAD SWAP1 DUP12 SHL SHR AND SWAP2 PUSH2 0x1B0B JUMP JUMPDEST PUSH2 0x73A PUSH2 0x1EA0 JUMP JUMPDEST DUP5 SWAP4 SWAP3 SWAP2 PUSH2 0x6C9 JUMP JUMPDEST POP PUSH2 0x6C9 JUMP JUMPDEST SWAP1 POP DUP2 DUP2 DUP2 RETURNDATASIZE DUP4 GT PUSH2 0x76F JUMPI JUMPDEST PUSH2 0x760 DUP2 DUP4 PUSH2 0x19CA JUMP JUMPDEST DUP2 ADD SUB SLT PUSH2 0x19D JUMPI MLOAD DUP8 PUSH2 0x5D2 JUMP JUMPDEST POP RETURNDATASIZE PUSH2 0x756 JUMP JUMPDEST PUSH1 0x40 MLOAD RETURNDATASIZE PUSH1 0x0 DUP3 RETURNDATACOPY RETURNDATASIZE SWAP1 REVERT JUMPDEST CALLVALUE PUSH2 0x19D JUMPI PUSH1 0x20 CALLDATASIZE PUSH1 0x3 NOT ADD SLT PUSH2 0x19D JUMPI PUSH1 0x1 PUSH1 0x1 PUSH1 0xA0 SHL SUB PUSH2 0x7A3 PUSH2 0x1ADF JUMP JUMPDEST AND PUSH1 0x0 MSTORE PUSH1 0x3 PUSH1 0x20 MSTORE PUSH1 0x20 PUSH1 0x40 PUSH1 0x0 KECCAK256 SLOAD PUSH1 0x40 MLOAD SWAP1 DUP2 MSTORE RETURN JUMPDEST CALLVALUE PUSH2 0x19D JUMPI PUSH1 0x3 NOT PUSH1 0x20 CALLDATASIZE DUP3 ADD SLT PUSH2 0x19D JUMPI PUSH8 0xFFFFFFFFFFFFFFFF PUSH1 0x4 CALLDATALOAD GT PUSH2 0x19D JUMPI PUSH2 0x120 PUSH1 0x4 CALLDATALOAD PUSH1 0x4 ADD SWAP2 PUSH1 0x4 CALLDATALOAD CALLDATASIZE SUB ADD SLT PUSH2 0x19D JUMPI PUSH2 0x7FC PUSH2 0x1DA8 JUMP JUMPDEST PUSH2 0x806 DUP2 DUP1 PUSH2 0x1EE4 JUMP JUMPDEST SWAP2 SWAP1 PUSH2 0x817 PUSH1 0x24 PUSH1 0x4 CALLDATALOAD ADD DUP4 PUSH2 0x1EE4 JUMP JUMPDEST SWAP1 SWAP3 SWAP1 SWAP2 SWAP1 PUSH1 0x4 CALLDATALOAD PUSH1 0x64 ADD CALLDATALOAD SWAP1 PUSH1 0x1 PUSH1 0x1 PUSH1 0xA0 SHL SUB DUP3 AND DUP3 SUB PUSH2 0x19D JUMPI PUSH1 0x84 PUSH1 0x4 CALLDATALOAD ADD CALLDATALOAD SWAP1 DUP2 ISZERO ISZERO DUP3 SUB PUSH2 0x19D JUMPI PUSH2 0x855 SWAP1 PUSH1 0xA4 PUSH1 0x4 CALLDATALOAD ADD SWAP1 PUSH2 0x1EE4 JUMP JUMPDEST PUSH1 0x4 CALLDATALOAD PUSH2 0x104 ADD CALLDATALOAD SWAP7 SWAP2 SWAP5 SWAP1 SWAP4 SWAP2 PUSH1 0x1 PUSH1 0x1 PUSH1 0xA0 SHL SUB DUP9 AND DUP9 SUB PUSH2 0x19D JUMPI PUSH2 0x8F3 SWAP7 PUSH2 0x892 PUSH2 0x89B SWAP4 PUSH1 0x40 MLOAD SWAP12 PUSH2 0x88B DUP14 PUSH2 0x19AD JUMP JUMPDEST CALLDATASIZE SWAP2 PUSH2 0x1F17 JUMP JUMPDEST DUP11 MSTORE CALLDATASIZE SWAP2 PUSH2 0x1F17 JUMP JUMPDEST PUSH1 0x20 DUP9 ADD MSTORE PUSH1 0x4 CALLDATALOAD PUSH1 0x44 ADD CALLDATALOAD PUSH1 0x40 DUP9 ADD MSTORE PUSH1 0x1 PUSH1 0x1 PUSH1 0xA0 SHL SUB AND PUSH1 0x60 DUP8 ADD MSTORE PUSH1 0x0 PUSH1 0x80 DUP8 ADD DUP2 SWAP1 MSTORE PUSH1 0xA0 DUP8 ADD DUP2 SWAP1 MSTORE PUSH1 0xC0 DUP8 ADD DUP2 SWAP1 MSTORE PUSH1 0xE0 DUP8 ADD MSTORE TIMESTAMP PUSH2 0x100 DUP8 ADD MSTORE CALLER PUSH2 0x120 DUP8 ADD MSTORE ISZERO ISZERO PUSH2 0x140 DUP7 ADD MSTORE CALLDATASIZE SWAP2 PUSH2 0x1F17 JUMP JUMPDEST PUSH2 0x160 DUP4 ADD MSTORE PUSH1 0x4 CALLDATALOAD PUSH1 0xC4 DUP2 ADD CALLDATALOAD PUSH2 0x180 DUP5 ADD MSTORE PUSH1 0xE4 ADD CALLDATALOAD PUSH2 0x1A0 DUP4 ADD MSTORE PUSH1 0x1 PUSH1 0x1 PUSH1 0xA0 SHL SUB AND PUSH2 0x1C0 DUP3 ADD MSTORE PUSH1 0x1 SLOAD PUSH1 0x1 PUSH1 0x40 SHL DUP2 LT ISZERO PUSH2 0x42D JUMPI DUP1 PUSH1 0x1 PUSH2 0x93F SWAP3 ADD PUSH1 0x1 SSTORE PUSH2 0x1922 JUMP JUMPDEST PUSH2 0xDD7 JUMPI DUP2 MLOAD SWAP2 DUP3 MLOAD PUSH8 0xFFFFFFFFFFFFFFFF DUP2 GT PUSH2 0x42D JUMPI PUSH2 0x961 DUP4 SLOAD PUSH2 0x1973 JUMP JUMPDEST PUSH1 0x1F DUP2 GT PUSH2 0xD93 JUMPI JUMPDEST POP PUSH1 0x20 PUSH1 0x1F DUP3 GT PUSH1 0x1 EQ PUSH2 0xD2B JUMPI DUP2 SWAP3 SWAP4 SWAP5 PUSH1 0x0 SWAP3 PUSH2 0xD20 JUMPI JUMPDEST POP POP DUP2 PUSH1 0x1 SHL SWAP2 PUSH1 0x0 NOT SWAP1 PUSH1 0x3 SHL SHR NOT AND OR DUP3 SSTORE JUMPDEST PUSH1 0x20 DUP2 ADD MLOAD SWAP2 DUP3 MLOAD PUSH8 0xFFFFFFFFFFFFFFFF DUP2 GT PUSH2 0x42D JUMPI PUSH2 0x9BD PUSH1 0x1 DUP4 ADD SLOAD PUSH2 0x1973 JUMP JUMPDEST PUSH1 0x1F DUP2 GT PUSH2 0xCD9 JUMPI JUMPDEST POP PUSH1 0x20 PUSH1 0x1F DUP3 GT PUSH1 0x1 EQ PUSH2 0xC6B JUMPI DUP2 SWAP3 SWAP4 SWAP5 PUSH1 0x0 SWAP3 PUSH2 0xC60 JUMPI JUMPDEST POP POP DUP2 PUSH1 0x1 SHL SWAP2 PUSH1 0x0 NOT SWAP1 PUSH1 0x3 SHL SHR NOT AND OR PUSH1 0x1 DUP3 ADD SSTORE JUMPDEST PUSH1 0x40 DUP3 ADD MLOAD PUSH1 0x2 DUP3 ADD SSTORE PUSH1 0x60 DUP3 ADD MLOAD PUSH1 0x3 DUP3 ADD DUP1 SLOAD PUSH1 0x1 PUSH1 0x1 PUSH1 0xA0 SHL SUB NOT AND PUSH1 0x1 PUSH1 0x1 PUSH1 0xA0 SHL SUB SWAP3 SWAP1 SWAP3 AND SWAP2 SWAP1 SWAP2 OR SWAP1 SSTORE PUSH1 0x80 DUP3 ADD MLOAD PUSH1 0x4 DUP2 LT ISZERO PUSH2 0xC4A JUMPI PUSH2 0xA44 SWAP1 PUSH1 0x3 DUP4 ADD PUSH2 0x1F5E JUMP JUMPDEST PUSH1 0xA0 DUP3 ADD MLOAD PUSH1 0x4 DUP3 ADD SSTORE PUSH1 0xC0 DUP3 ADD MLOAD PUSH1 0x5 DUP3 ADD SSTORE PUSH1 0xE0 DUP3 ADD MLOAD PUSH1 0x6 DUP3 ADD SSTORE PUSH2 0x100 DUP3 ADD MLOAD PUSH1 0x7 DUP3 ADD SSTORE PUSH1 0x8 DUP2 ADD PUSH1 0x1 DUP1 PUSH1 0xA0 SHL SUB PUSH2 0x120 DUP5 ADD MLOAD AND DUP2 SLOAD SWAP1 PUSH1 0xFF PUSH1 0xA0 SHL PUSH2 0x140 DUP7 ADD MLOAD ISZERO ISZERO PUSH1 0xA0 SHL AND SWAP2 PUSH11 0xFFFFFFFFFFFFFFFFFFFFFF PUSH1 0xA8 SHL AND OR OR SWAP1 SSTORE PUSH2 0x160 DUP3 ADD MLOAD DUP1 MLOAD SWAP1 PUSH8 0xFFFFFFFFFFFFFFFF DUP3 GT PUSH2 0x42D JUMPI PUSH2 0xACD PUSH1 0x9 DUP5 ADD SLOAD PUSH2 0x1973 JUMP JUMPDEST PUSH1 0x1F DUP2 GT PUSH2 0xC03 JUMPI JUMPDEST POP PUSH1 0x20 SWAP1 PUSH1 0x1F DUP4 GT PUSH1 0x1 EQ PUSH2 0xB92 JUMPI PUSH1 0xC SWAP4 SWAP3 SWAP2 PUSH1 0x0 SWAP2 DUP4 PUSH2 0xB87 JUMPI JUMPDEST POP POP DUP2 PUSH1 0x1 SHL SWAP2 PUSH1 0x0 NOT SWAP1 PUSH1 0x3 SHL SHR NOT AND OR PUSH1 0x9 DUP3 ADD SSTORE JUMPDEST PUSH2 0x180 DUP4 ADD MLOAD PUSH1 0xA DUP3 ADD SSTORE PUSH2 0x1A0 DUP4 ADD MLOAD PUSH1 0xB DUP3 ADD SSTORE ADD SWAP1 PUSH2 0x1C0 PUSH1 0x1 DUP1 PUSH1 0xA0 SHL SUB SWAP2 ADD MLOAD AND PUSH12 0xFFFFFFFFFFFFFFFFFFFFFFFF PUSH1 0xA0 SHL DUP3 SLOAD AND OR SWAP1 SSTORE PUSH1 0x1 SLOAD PUSH1 0x0 NOT DUP2 ADD SWAP1 DUP2 GT PUSH2 0x2FB JUMPI PUSH1 0x40 MLOAD PUSH1 0x20 SWAP2 CALLER DUP2 PUSH32 0xCD423CC1203C0AF96B9B3D68D73B3064A69DE2D14450BB7181C5E5DF2132B358 PUSH1 0x0 DUP1 LOG3 DUP2 MSTORE RETURN JUMPDEST ADD MLOAD SWAP1 POP DUP6 DUP1 PUSH2 0xAF3 JUMP JUMPDEST SWAP1 PUSH1 0x1F NOT DUP4 AND SWAP2 PUSH1 0x9 DUP6 ADD PUSH1 0x0 MSTORE PUSH1 0x20 PUSH1 0x0 KECCAK256 SWAP3 PUSH1 0x0 JUMPDEST DUP2 DUP2 LT PUSH2 0xBEB JUMPI POP SWAP2 PUSH1 0x1 SWAP4 SWAP2 DUP6 PUSH1 0xC SWAP8 SWAP7 SWAP5 LT PUSH2 0xBD2 JUMPI JUMPDEST POP POP POP DUP2 SHL ADD PUSH1 0x9 DUP3 ADD SSTORE PUSH2 0xB0B JUMP JUMPDEST ADD MLOAD PUSH1 0x0 NOT PUSH1 0xF8 DUP5 PUSH1 0x3 SHL AND SHR NOT AND SWAP1 SSTORE DUP6 DUP1 DUP1 PUSH2 0xBC2 JUMP JUMPDEST SWAP3 SWAP4 PUSH1 0x20 PUSH1 0x1 DUP2 SWAP3 DUP8 DUP7 ADD MLOAD DUP2 SSTORE ADD SWAP6 ADD SWAP4 ADD PUSH2 0xBA9 JUMP JUMPDEST PUSH1 0x9 DUP5 ADD PUSH1 0x0 MSTORE PUSH1 0x20 PUSH1 0x0 KECCAK256 PUSH1 0x1F DUP5 ADD PUSH1 0x5 SHR DUP2 ADD PUSH1 0x20 DUP6 LT PUSH2 0xC43 JUMPI JUMPDEST PUSH1 0x1F DUP4 ADD PUSH1 0x5 SHR DUP3 ADD DUP2 LT PUSH2 0xC37 JUMPI POP POP PUSH2 0xAD6 JUMP JUMPDEST PUSH1 0x0 DUP2 SSTORE PUSH1 0x1 ADD PUSH2 0xC21 JUMP JUMPDEST POP DUP1 PUSH2 0xC21 JUMP JUMPDEST PUSH4 0x4E487B71 PUSH1 0xE0 SHL PUSH1 0x0 MSTORE PUSH1 0x21 PUSH1 0x4 MSTORE PUSH1 0x24 PUSH1 0x0 REVERT JUMPDEST ADD MLOAD SWAP1 POP DUP5 DUP1 PUSH2 0x9E0 JUMP JUMPDEST PUSH1 0x1 DUP4 ADD PUSH1 0x0 MSTORE PUSH1 0x20 PUSH1 0x0 KECCAK256 SWAP1 PUSH1 0x0 JUMPDEST PUSH1 0x1F NOT DUP5 AND DUP2 LT PUSH2 0xCC1 JUMPI POP PUSH1 0x1 SWAP4 SWAP5 SWAP6 DUP4 PUSH1 0x1F NOT DUP2 AND LT PUSH2 0xCA8 JUMPI JUMPDEST POP POP POP DUP2 SHL ADD PUSH1 0x1 DUP3 ADD SSTORE PUSH2 0x9F8 JUMP JUMPDEST ADD MLOAD PUSH1 0x0 NOT PUSH1 0xF8 DUP5 PUSH1 0x3 SHL AND SHR NOT AND SWAP1 SSTORE DUP5 DUP1 DUP1 PUSH2 0xC98 JUMP JUMPDEST SWAP1 SWAP2 PUSH1 0x20 PUSH1 0x1 DUP2 SWAP3 DUP6 DUP11 ADD MLOAD DUP2 SSTORE ADD SWAP4 ADD SWAP2 ADD PUSH2 0xC7B JUMP JUMPDEST PUSH1 0x1 DUP4 ADD PUSH1 0x0 MSTORE PUSH1 0x20 PUSH1 0x0 KECCAK256 PUSH1 0x1F DUP4 ADD PUSH1 0x5 SHR DUP2 ADD PUSH1 0x20 DUP5 LT PUSH2 0xD19 JUMPI JUMPDEST PUSH1 0x1F DUP4 ADD PUSH1 0x5 SHR DUP3 ADD DUP2 LT PUSH2 0xD0D JUMPI POP POP PUSH2 0x9C6 JUMP JUMPDEST PUSH1 0x0 DUP2 SSTORE PUSH1 0x1 ADD PUSH2 0xCF7 JUMP JUMPDEST POP DUP1 PUSH2 0xCF7 JUMP JUMPDEST ADD MLOAD SWAP1 POP DUP5 DUP1 PUSH2 0x984 JUMP JUMPDEST DUP4 PUSH1 0x0 MSTORE PUSH1 0x20 PUSH1 0x0 KECCAK256 SWAP1 PUSH1 0x0 JUMPDEST PUSH1 0x1F NOT DUP5 AND DUP2 LT PUSH2 0xD7B JUMPI POP PUSH1 0x1 SWAP4 SWAP5 SWAP6 DUP4 PUSH1 0x1F NOT DUP2 AND LT PUSH2 0xD62 JUMPI JUMPDEST POP POP POP DUP2 SHL ADD DUP3 SSTORE PUSH2 0x999 JUMP JUMPDEST ADD MLOAD PUSH1 0x0 NOT PUSH1 0xF8 DUP5 PUSH1 0x3 SHL AND SHR NOT AND SWAP1 SSTORE DUP5 DUP1 DUP1 PUSH2 0xD55 JUMP JUMPDEST SWAP1 SWAP2 PUSH1 0x20 PUSH1 0x1 DUP2 SWAP3 DUP6 DUP11 ADD MLOAD DUP2 SSTORE ADD SWAP4 ADD SWAP2 ADD PUSH2 0xD38 JUMP JUMPDEST DUP4 PUSH1 0x0 MSTORE PUSH1 0x20 PUSH1 0x0 KECCAK256 PUSH1 0x1F DUP4 ADD PUSH1 0x5 SHR DUP2 ADD PUSH1 0x20 DUP5 LT PUSH2 0xDD0 JUMPI JUMPDEST PUSH1 0x1F DUP4 ADD PUSH1 0x5 SHR DUP3 ADD DUP2 LT PUSH2 0xDC4 JUMPI POP POP PUSH2 0x96A JUMP JUMPDEST PUSH1 0x0 DUP2 SSTORE PUSH1 0x1 ADD PUSH2 0xDAE JUMP JUMPDEST POP DUP1 PUSH2 0xDAE JUMP JUMPDEST PUSH4 0x4E487B71 PUSH1 0xE0 SHL PUSH1 0x0 MSTORE PUSH1 0x0 PUSH1 0x4 MSTORE PUSH1 0x24 PUSH1 0x0 REVERT JUMPDEST CALLVALUE PUSH2 0x19D JUMPI PUSH1 0x40 CALLDATASIZE PUSH1 0x3 NOT ADD SLT PUSH2 0x19D JUMPI PUSH1 0x4 CALLDATALOAD PUSH2 0xE09 PUSH2 0x1AF5 JUMP JUMPDEST SWAP1 PUSH2 0xE12 PUSH2 0x1D2E JUMP JUMPDEST PUSH2 0xE1B DUP2 PUSH2 0x1922 JUMP JUMPDEST POP DUP2 PUSH1 0x0 MSTORE PUSH1 0x2 PUSH1 0x20 MSTORE PUSH1 0x40 PUSH1 0x0 KECCAK256 SWAP3 PUSH1 0x1 DUP1 PUSH1 0xA0 SHL SUB AND SWAP3 DUP4 PUSH1 0x0 MSTORE PUSH1 0x20 MSTORE PUSH1 0xFF PUSH1 0x40 PUSH1 0x0 KECCAK256 SLOAD AND ISZERO PUSH2 0xE4B JUMPI STOP JUMPDEST PUSH1 0x6 SWAP1 DUP3 PUSH1 0x0 MSTORE PUSH1 0x2 PUSH1 0x20 MSTORE PUSH1 0x40 PUSH1 0x0 KECCAK256 DUP5 PUSH1 0x0 MSTORE PUSH1 0x20 MSTORE PUSH1 0x40 PUSH1 0x0 KECCAK256 PUSH1 0x1 PUSH1 0xFF NOT DUP3 SLOAD AND OR SWAP1 SSTORE ADD PUSH2 0xE7E DUP2 SLOAD PUSH2 0x1E91 JUMP JUMPDEST SWAP1 SSTORE PUSH1 0x0 DUP1 MLOAD PUSH1 0x20 PUSH2 0x209E DUP4 CODECOPY DUP2 MLOAD SWAP2 MSTORE PUSH1 0x20 PUSH1 0x40 MLOAD PUSH1 0x2 DUP2 MSTORE LOG3 STOP JUMPDEST CALLVALUE PUSH2 0x19D JUMPI PUSH1 0x20 CALLDATASIZE PUSH1 0x3 NOT ADD SLT PUSH2 0x19D JUMPI PUSH1 0x1 PUSH1 0x1 PUSH1 0xA0 SHL SUB PUSH2 0xEBC PUSH2 0x1ADF JUMP JUMPDEST AND PUSH1 0x0 MSTORE PUSH1 0x7 PUSH1 0x20 MSTORE PUSH1 0x20 PUSH1 0xFF PUSH1 0x40 PUSH1 0x0 KECCAK256 SLOAD AND PUSH1 0x40 MLOAD SWAP1 ISZERO ISZERO DUP2 MSTORE RETURN JUMPDEST CALLVALUE PUSH2 0x19D JUMPI PUSH1 0x0 CALLDATASIZE PUSH1 0x3 NOT ADD SLT PUSH2 0x19D JUMPI PUSH1 0x20 PUSH1 0x40 MLOAD PUSH1 0x0 DUP2 MSTORE RETURN JUMPDEST CALLVALUE PUSH2 0x19D JUMPI PUSH1 0x0 CALLDATASIZE PUSH1 0x3 NOT ADD SLT PUSH2 0x19D JUMPI PUSH1 0x20 PUSH1 0x40 MLOAD PUSH1 0x0 DUP1 MLOAD PUSH1 0x20 PUSH2 0x207E DUP4 CODECOPY DUP2 MLOAD SWAP2 MSTORE DUP2 MSTORE RETURN JUMPDEST CALLVALUE PUSH2 0x19D JUMPI PUSH1 0x0 CALLDATASIZE PUSH1 0x3 NOT ADD SLT PUSH2 0x19D JUMPI PUSH1 0x20 PUSH1 0x6 SLOAD PUSH1 0x40 MLOAD SWAP1 DUP2 MSTORE RETURN JUMPDEST CALLVALUE PUSH2 0x19D JUMPI PUSH1 0x40 CALLDATASIZE PUSH1 0x3 NOT ADD SLT PUSH2 0x19D JUMPI PUSH1 0x4 CALLDATALOAD PUSH1 0x24 CALLDATALOAD SWAP1 PUSH1 0xFF DUP3 AND DUP1 SWAP3 SUB PUSH2 0x19D JUMPI PUSH2 0xF68 PUSH2 0x1DA8 JUMP JUMPDEST PUSH2 0xF71 DUP2 PUSH2 0x1922 JUMP JUMPDEST POP PUSH1 0xFF PUSH1 0x8 DUP3 ADD SLOAD PUSH1 0xA0 SHR AND ISZERO PUSH2 0x10C1 JUMPI DUP2 PUSH1 0x0 MSTORE PUSH1 0x20 SWAP1 PUSH1 0x2 DUP3 MSTORE PUSH1 0x40 PUSH1 0x0 KECCAK256 CALLER PUSH1 0x0 MSTORE DUP3 MSTORE PUSH1 0xFF PUSH1 0x40 PUSH1 0x0 KECCAK256 SLOAD AND PUSH2 0x1084 JUMPI PUSH1 0x0 DUP4 DUP2 MSTORE PUSH1 0x2 DUP4 MSTORE PUSH1 0x40 DUP1 DUP3 KECCAK256 CALLER DUP4 MSTORE DUP5 MSTORE SWAP1 KECCAK256 DUP1 SLOAD PUSH1 0xFF NOT AND PUSH1 0x1 OR SWAP1 SSTORE DUP4 PUSH2 0xFF6 JUMPI SWAP1 PUSH1 0x4 PUSH1 0x0 DUP1 MLOAD PUSH1 0x20 PUSH2 0x209E DUP4 CODECOPY DUP2 MLOAD SWAP2 MSTORE SWAP3 ADD PUSH2 0xFE8 DUP2 SLOAD PUSH2 0x1E91 JUMP JUMPDEST SWAP1 SSTORE JUMPDEST PUSH1 0x40 MLOAD SWAP4 DUP5 MSTORE CALLER SWAP4 LOG3 STOP JUMPDEST PUSH1 0x1 DUP5 SUB PUSH2 0x1023 JUMPI SWAP1 PUSH1 0x5 PUSH1 0x0 DUP1 MLOAD PUSH1 0x20 PUSH2 0x209E DUP4 CODECOPY DUP2 MLOAD SWAP2 MSTORE SWAP3 ADD PUSH2 0x101C DUP2 SLOAD PUSH2 0x1E91 JUMP JUMPDEST SWAP1 SSTORE PUSH2 0xFEB JUMP JUMPDEST PUSH1 0x2 DUP5 SUB PUSH2 0x1049 JUMPI SWAP1 PUSH1 0x6 PUSH1 0x0 DUP1 MLOAD PUSH1 0x20 PUSH2 0x209E DUP4 CODECOPY DUP2 MLOAD SWAP2 MSTORE SWAP3 ADD PUSH2 0x101C DUP2 SLOAD PUSH2 0x1E91 JUMP JUMPDEST PUSH1 0x40 MLOAD PUSH3 0x461BCD PUSH1 0xE5 SHL DUP2 MSTORE PUSH1 0x4 DUP2 ADD DUP4 SWAP1 MSTORE PUSH1 0x13 PUSH1 0x24 DUP3 ADD MSTORE PUSH19 0x496E76616C696420766F74652063686F696365 PUSH1 0x68 SHL PUSH1 0x44 DUP3 ADD MSTORE PUSH1 0x64 SWAP1 REVERT JUMPDEST PUSH1 0x40 MLOAD PUSH3 0x461BCD PUSH1 0xE5 SHL DUP2 MSTORE PUSH1 0x4 DUP2 ADD DUP4 SWAP1 MSTORE PUSH1 0x15 PUSH1 0x24 DUP3 ADD MSTORE PUSH21 0x159BDD1A5B99CE88185B1C9958591E481D9BDD1959 PUSH1 0x5A SHL PUSH1 0x44 DUP3 ADD MSTORE PUSH1 0x64 SWAP1 REVERT JUMPDEST PUSH1 0x40 MLOAD PUSH3 0x461BCD PUSH1 0xE5 SHL DUP2 MSTORE PUSH1 0x20 PUSH1 0x4 DUP3 ADD MSTORE PUSH1 0x25 PUSH1 0x24 DUP3 ADD MSTORE PUSH32 0x566F74696E67206E6F7420726571756972656420666F7220746869732070726F PUSH1 0x44 DUP3 ADD MSTORE PUSH5 0x1C1BDCD85B PUSH1 0xDA SHL PUSH1 0x64 DUP3 ADD MSTORE PUSH1 0x84 SWAP1 REVERT JUMPDEST CALLVALUE PUSH2 0x19D JUMPI PUSH1 0x40 CALLDATASIZE PUSH1 0x3 NOT ADD SLT PUSH2 0x19D JUMPI PUSH2 0x112D PUSH2 0x1AF5 JUMP JUMPDEST PUSH1 0x4 CALLDATALOAD PUSH1 0x0 MSTORE PUSH1 0x0 PUSH1 0x20 MSTORE PUSH1 0x40 PUSH1 0x0 KECCAK256 SWAP1 PUSH1 0x1 DUP1 PUSH1 0xA0 SHL SUB AND PUSH1 0x0 MSTORE PUSH1 0x20 MSTORE PUSH1 0x20 PUSH1 0xFF PUSH1 0x40 PUSH1 0x0 KECCAK256 SLOAD AND PUSH1 0x40 MLOAD SWAP1 ISZERO ISZERO DUP2 MSTORE RETURN JUMPDEST CALLVALUE PUSH2 0x19D JUMPI PUSH1 0x0 CALLDATASIZE PUSH1 0x3 NOT ADD SLT PUSH2 0x19D JUMPI PUSH1 0x40 MLOAD DUP1 PUSH1 0x6 SLOAD DUP1 DUP4 MSTORE PUSH1 0x20 DUP1 SWAP4 ADD DUP1 SWAP2 PUSH1 0x6 PUSH1 0x0 MSTORE PUSH32 0xF652222313E28459528D920B65115C16C04F3EFC82AAEDC97BE59F3F377C0D3F SWAP1 PUSH1 0x0 JUMPDEST DUP7 DUP3 DUP3 LT PUSH2 0x120C JUMPI DUP7 DUP7 PUSH2 0x11C3 DUP3 DUP9 SUB DUP4 PUSH2 0x19CA JUMP JUMPDEST PUSH1 0x40 MLOAD SWAP3 DUP4 SWAP3 DUP2 DUP5 ADD SWAP1 DUP3 DUP6 MSTORE MLOAD DUP1 SWAP2 MSTORE PUSH1 0x40 DUP5 ADD SWAP3 SWAP2 PUSH1 0x0 JUMPDEST DUP3 DUP2 LT PUSH2 0x11EC JUMPI POP POP POP POP SUB SWAP1 RETURN JUMPDEST DUP4 MLOAD PUSH1 0x1 PUSH1 0x1 PUSH1 0xA0 SHL SUB AND DUP6 MSTORE DUP7 SWAP6 POP SWAP4 DUP2 ADD SWAP4 SWAP3 DUP2 ADD SWAP3 PUSH1 0x1 ADD PUSH2 0x11DD JUMP JUMPDEST DUP4 SLOAD PUSH1 0x1 PUSH1 0x1 PUSH1 0xA0 SHL SUB AND DUP6 MSTORE SWAP1 SWAP4 ADD SWAP3 PUSH1 0x1 SWAP3 DUP4 ADD SWAP3 ADD PUSH2 0x11AD JUMP JUMPDEST CALLVALUE PUSH2 0x19D JUMPI PUSH1 0x40 CALLDATASIZE PUSH1 0x3 NOT ADD SLT PUSH2 0x19D JUMPI PUSH2 0x1242 PUSH2 0x1AF5 JUMP JUMPDEST PUSH1 0x4 CALLDATALOAD PUSH1 0x0 MSTORE PUSH1 0x2 PUSH1 0x20 MSTORE PUSH1 0x40 PUSH1 0x0 KECCAK256 SWAP1 PUSH1 0x1 DUP1 PUSH1 0xA0 SHL SUB AND PUSH1 0x0 MSTORE PUSH1 0x20 MSTORE PUSH1 0x20 PUSH1 0xFF PUSH1 0x40 PUSH1 0x0 KECCAK256 SLOAD AND PUSH1 0x40 MLOAD SWAP1 ISZERO ISZERO DUP2 MSTORE RETURN JUMPDEST CALLVALUE PUSH2 0x19D JUMPI PUSH1 0x20 CALLDATASIZE PUSH1 0x3 NOT ADD SLT PUSH2 0x19D JUMPI PUSH1 0x4 CALLDATALOAD PUSH1 0x6 SLOAD DUP2 LT ISZERO PUSH2 0x19D JUMPI PUSH2 0x129F PUSH1 0x20 SWAP2 PUSH2 0x1B0B JUMP JUMPDEST SWAP1 SLOAD PUSH1 0x40 MLOAD PUSH1 0x3 SWAP3 SWAP1 SWAP3 SHL SHR PUSH1 0x1 PUSH1 0x1 PUSH1 0xA0 SHL SUB AND DUP2 MSTORE RETURN JUMPDEST CALLVALUE PUSH2 0x19D JUMPI PUSH1 0x40 CALLDATASIZE PUSH1 0x3 NOT ADD SLT PUSH2 0x19D JUMPI PUSH2 0x12D1 PUSH2 0x1ADF JUMP JUMPDEST PUSH2 0x12D9 PUSH2 0x1D2E JUMP JUMPDEST PUSH1 0x1 PUSH1 0x1 PUSH1 0xA0 SHL SUB AND PUSH1 0x0 DUP2 DUP2 MSTORE PUSH1 0x4 PUSH1 0x20 MSTORE PUSH1 0x40 SWAP1 KECCAK256 SLOAD PUSH1 0x24 CALLDATALOAD DUP2 ADD SWAP1 DUP2 LT PUSH2 0x2FB JUMPI PUSH1 0x64 DUP2 GT PUSH2 0x1330 JUMPI JUMPDEST PUSH1 0x20 PUSH1 0x0 DUP1 MLOAD PUSH1 0x20 PUSH2 0x205E DUP4 CODECOPY DUP2 MLOAD SWAP2 MSTORE SWAP2 DUP4 PUSH1 0x0 MSTORE PUSH1 0x4 DUP3 MSTORE DUP1 PUSH1 0x40 PUSH1 0x0 KECCAK256 SSTORE PUSH1 0x40 MLOAD SWAP1 DUP2 MSTORE LOG2 STOP JUMPDEST POP PUSH1 0x64 PUSH2 0x1306 JUMP JUMPDEST CALLVALUE PUSH2 0x19D JUMPI PUSH1 0x40 CALLDATASIZE PUSH1 0x3 NOT ADD SLT PUSH2 0x19D JUMPI PUSH2 0x1351 PUSH2 0x1AF5 JUMP JUMPDEST CALLER PUSH1 0x1 PUSH1 0x1 PUSH1 0xA0 SHL SUB DUP3 AND SUB PUSH2 0x136D JUMPI PUSH2 0x26D SWAP1 PUSH1 0x4 CALLDATALOAD PUSH2 0x1CB9 JUMP JUMPDEST PUSH1 0x40 MLOAD PUSH4 0x334BD919 PUSH1 0xE1 SHL DUP2 MSTORE PUSH1 0x4 SWAP1 REVERT JUMPDEST CALLVALUE PUSH2 0x19D JUMPI PUSH1 0x40 CALLDATASIZE PUSH1 0x3 NOT ADD SLT PUSH2 0x19D JUMPI PUSH1 0x4 CALLDATALOAD PUSH1 0x0 DUP1 MLOAD PUSH1 0x20 PUSH2 0x207E DUP4 CODECOPY DUP2 MLOAD SWAP2 MSTORE PUSH2 0x13AA PUSH2 0x1AF5 JUMP JUMPDEST SWAP2 PUSH2 0x13B3 PUSH2 0x1D2E JUMP JUMPDEST DUP1 PUSH1 0x0 MSTORE PUSH1 0x0 PUSH1 0x20 MSTORE PUSH2 0x13CD PUSH1 0x1 PUSH1 0x40 PUSH1 0x0 KECCAK256 ADD SLOAD PUSH2 0x1DF2 JUMP JUMPDEST PUSH2 0x13D7 DUP4 DUP3 PUSH2 0x1E18 JUMP JUMPDEST POP EQ DUP1 PUSH2 0x1451 JUMPI JUMPDEST PUSH2 0x13E5 JUMPI STOP JUMPDEST PUSH1 0x6 SLOAD PUSH1 0x1 PUSH1 0x40 SHL DUP2 LT ISZERO PUSH2 0x42D JUMPI DUP2 PUSH2 0x2D4 DUP3 PUSH1 0x1 PUSH2 0x1408 SWAP5 ADD PUSH1 0x6 SSTORE PUSH2 0x1B0B JUMP JUMPDEST PUSH1 0x1 DUP1 PUSH1 0xA0 SHL SUB AND DUP1 PUSH1 0x0 MSTORE PUSH1 0x7 PUSH1 0x20 MSTORE PUSH1 0x40 PUSH1 0x0 KECCAK256 PUSH1 0x1 PUSH1 0xFF NOT DUP3 SLOAD AND OR SWAP1 SSTORE PUSH1 0x4 PUSH1 0x20 MSTORE PUSH1 0x32 PUSH1 0x40 PUSH1 0x0 KECCAK256 SSTORE PUSH1 0x0 DUP1 MLOAD PUSH1 0x20 PUSH2 0x205E DUP4 CODECOPY DUP2 MLOAD SWAP2 MSTORE PUSH1 0x20 PUSH1 0x40 MLOAD PUSH1 0x32 DUP2 MSTORE LOG2 STOP JUMPDEST POP PUSH1 0x1 PUSH1 0x1 PUSH1 0xA0 SHL SUB DUP2 AND PUSH1 0x0 SWAP1 DUP2 MSTORE PUSH1 0x7 PUSH1 0x20 MSTORE PUSH1 0x40 SWAP1 KECCAK256 SLOAD PUSH1 0xFF AND ISZERO PUSH2 0x13DF JUMP JUMPDEST CALLVALUE PUSH2 0x19D JUMPI PUSH1 0x40 CALLDATASIZE PUSH1 0x3 NOT ADD SLT PUSH2 0x19D JUMPI PUSH2 0x148D PUSH2 0x1ADF JUMP JUMPDEST PUSH1 0x24 SWAP1 DUP2 CALLDATALOAD PUSH2 0x149A PUSH2 0x1D2E JUMP JUMPDEST PUSH1 0x1 DUP1 PUSH1 0xA0 SHL SUB SWAP3 DUP4 DUP4 AND SWAP1 DUP2 PUSH1 0x0 MSTORE PUSH1 0x20 SWAP3 PUSH1 0x4 DUP5 MSTORE PUSH1 0x40 PUSH1 0x0 KECCAK256 SLOAD SWAP1 DUP1 DUP3 GT PUSH1 0x0 EQ PUSH2 0x16EC JUMPI DUP2 SUB SWAP1 DUP2 GT PUSH2 0x16D7 JUMPI PUSH1 0x0 DUP1 MLOAD PUSH1 0x20 PUSH2 0x205E DUP4 CODECOPY DUP2 MLOAD SWAP2 MSTORE DUP5 DUP5 SWAP3 JUMPDEST DUP4 PUSH1 0x0 MSTORE PUSH1 0x4 DUP3 MSTORE DUP1 PUSH1 0x40 PUSH1 0x0 KECCAK256 SSTORE PUSH1 0x40 MLOAD SWAP1 DUP2 MSTORE LOG2 PUSH1 0x4 DUP4 DUP7 PUSH1 0x5 SLOAD AND PUSH1 0x40 MLOAD SWAP3 DUP4 DUP1 SWAP3 PUSH4 0x295E4F41 PUSH1 0xE1 SHL DUP3 MSTORE GAS STATICCALL SWAP1 DUP2 ISZERO PUSH2 0x776 JUMPI PUSH1 0x0 SWAP2 PUSH2 0x16AA JUMPI JUMPDEST POP DUP3 PUSH1 0x0 MSTORE PUSH1 0x4 DUP5 MSTORE PUSH1 0x40 PUSH1 0x0 KECCAK256 SLOAD LT PUSH2 0x1534 JUMPI STOP JUMPDEST PUSH2 0x153C PUSH2 0x1D2E JUMP JUMPDEST PUSH1 0x0 DUP1 MLOAD PUSH1 0x20 PUSH2 0x207E DUP4 CODECOPY DUP2 MLOAD SWAP2 MSTORE PUSH1 0x0 MSTORE PUSH1 0x0 DUP4 MSTORE PUSH2 0x1568 PUSH1 0x1 SWAP5 PUSH2 0x61B DUP7 PUSH1 0x40 PUSH1 0x0 KECCAK256 ADD SLOAD PUSH2 0x1DF2 JUMP JUMPDEST POP DUP2 PUSH1 0x0 MSTORE PUSH1 0x7 DUP4 MSTORE PUSH1 0x40 PUSH1 0x0 KECCAK256 DUP1 SLOAD PUSH1 0xFF DUP2 AND PUSH2 0x1617 JUMPI JUMPDEST POP POP DUP2 PUSH1 0x0 MSTORE PUSH1 0x7 PUSH1 0x3 SWAP4 DUP5 DUP2 MSTORE PUSH1 0x0 PUSH1 0x40 DUP2 KECCAK256 SSTORE MSTORE PUSH1 0x40 PUSH1 0x0 KECCAK256 PUSH1 0xFF NOT DUP2 SLOAD AND SWAP1 SSTORE DUP4 PUSH1 0x0 SWAP1 JUMPDEST PUSH2 0x15AF JUMPI STOP JUMPDEST PUSH1 0x6 SLOAD DUP1 DUP3 LT ISZERO PUSH2 0x26D JUMPI DUP4 DUP8 PUSH2 0x15C5 DUP5 PUSH2 0x1B0B JUMP JUMPDEST SWAP1 SLOAD SWAP1 DUP9 SHL SHR AND EQ PUSH2 0x15E1 JUMPI POP PUSH2 0x15DB SWAP1 PUSH2 0x1E91 JUMP JUMPDEST DUP5 PUSH2 0x15A9 JUMP JUMPDEST SWAP1 SWAP5 POP PUSH1 0x0 NOT DUP2 ADD SWAP3 POP DUP3 GT PUSH2 0x1603 JUMPI POP SWAP3 PUSH2 0x2D4 SWAP2 PUSH2 0x2C8 PUSH2 0x2F3 SWAP6 PUSH2 0x1B0B JUMP JUMPDEST PUSH4 0x4E487B71 PUSH1 0xE0 SHL PUSH1 0x0 SWAP1 DUP2 MSTORE PUSH1 0x11 PUSH1 0x4 MSTORE REVERT JUMPDEST PUSH1 0xFF NOT AND SWAP1 SSTORE DUP4 PUSH1 0x0 DUP2 JUMPDEST ISZERO PUSH2 0x1581 JUMPI DUP7 PUSH1 0x6 SLOAD DUP1 DUP4 LT ISZERO PUSH2 0x16A3 JUMPI DUP6 PUSH2 0x163D DUP5 PUSH2 0x1B0B JUMP JUMPDEST SWAP4 SWAP1 SLOAD PUSH1 0x3 SWAP5 DUP6 SHL SHR AND EQ PUSH2 0x165D JUMPI POP POP PUSH2 0x1657 SWAP1 PUSH2 0x1E91 JUMP JUMPDEST DUP2 PUSH2 0x1622 JUMP JUMPDEST SWAP2 SWAP3 POP SWAP1 PUSH1 0x0 NOT DUP2 ADD SWAP1 DUP2 GT PUSH2 0x168E JUMPI DUP8 PUSH2 0x167F SWAP4 SWAP3 PUSH2 0x2C8 PUSH2 0x2D4 SWAP4 PUSH2 0x1B0B JUMP JUMPDEST PUSH2 0x1687 PUSH2 0x1EA0 JUMP JUMPDEST DUP4 DUP7 PUSH2 0x1581 JUMP JUMPDEST DUP4 PUSH4 0x4E487B71 PUSH1 0xE0 SHL PUSH1 0x0 MSTORE PUSH1 0x11 PUSH1 0x4 MSTORE PUSH1 0x0 REVERT JUMPDEST POP POP PUSH2 0x1581 JUMP JUMPDEST SWAP1 POP DUP4 DUP2 DUP2 RETURNDATASIZE DUP4 GT PUSH2 0x16D0 JUMPI JUMPDEST PUSH2 0x16C1 DUP2 DUP4 PUSH2 0x19CA JUMP JUMPDEST DUP2 ADD SUB SLT PUSH2 0x19D JUMPI MLOAD DUP7 PUSH2 0x151E JUMP JUMPDEST POP RETURNDATASIZE PUSH2 0x16B7 JUMP JUMPDEST POP PUSH4 0x4E487B71 PUSH1 0xE0 SHL PUSH1 0x0 SWAP1 DUP2 MSTORE PUSH1 0x11 PUSH1 0x4 MSTORE REVERT JUMPDEST POP POP DUP2 PUSH1 0x0 DUP1 MLOAD PUSH1 0x20 PUSH2 0x205E DUP4 CODECOPY DUP2 MLOAD SWAP2 MSTORE DUP5 PUSH1 0x0 PUSH2 0x14DE JUMP JUMPDEST CALLVALUE PUSH2 0x19D JUMPI PUSH1 0x20 CALLDATASIZE PUSH1 0x3 NOT ADD SLT PUSH2 0x19D JUMPI PUSH1 0x4 CALLDATALOAD PUSH1 0x0 MSTORE PUSH1 0x0 PUSH1 0x20 MSTORE PUSH1 0x20 PUSH1 0x1 PUSH1 0x40 PUSH1 0x0 KECCAK256 ADD SLOAD PUSH1 0x40 MLOAD SWAP1 DUP2 MSTORE RETURN JUMPDEST CALLVALUE PUSH2 0x19D JUMPI PUSH1 0x0 CALLDATASIZE PUSH1 0x3 NOT ADD SLT PUSH2 0x19D JUMPI PUSH1 0x5 SLOAD PUSH1 0x40 MLOAD PUSH1 0x1 PUSH1 0x1 PUSH1 0xA0 SHL SUB SWAP1 SWAP2 AND DUP2 MSTORE PUSH1 0x20 SWAP1 RETURN JUMPDEST CALLVALUE PUSH2 0x19D JUMPI PUSH1 0x20 CALLDATASIZE PUSH1 0x3 NOT ADD SLT PUSH2 0x19D JUMPI PUSH1 0x1 PUSH1 0x1 PUSH1 0xA0 SHL SUB PUSH2 0x177F PUSH2 0x1ADF JUMP JUMPDEST AND PUSH1 0x0 MSTORE PUSH1 0x4 PUSH1 0x20 MSTORE PUSH1 0x20 PUSH1 0x40 PUSH1 0x0 KECCAK256 SLOAD PUSH1 0x40 MLOAD SWAP1 DUP2 MSTORE RETURN JUMPDEST CALLVALUE PUSH2 0x19D JUMPI PUSH1 0x20 CALLDATASIZE PUSH1 0x3 NOT ADD SLT PUSH2 0x19D JUMPI PUSH1 0x4 CALLDATALOAD PUSH4 0xFFFFFFFF PUSH1 0xE0 SHL DUP2 AND DUP1 SWAP2 SUB PUSH2 0x19D JUMPI PUSH1 0x20 SWAP1 PUSH4 0x7965DB0B PUSH1 0xE0 SHL DUP2 EQ SWAP1 DUP2 ISZERO PUSH2 0x17DD JUMPI JUMPDEST POP PUSH1 0x40 MLOAD SWAP1 ISZERO ISZERO DUP2 MSTORE RETURN JUMPDEST PUSH4 0x1FFC9A7 PUSH1 0xE0 SHL EQ SWAP1 POP DUP3 PUSH2 0x17D2 JUMP JUMPDEST CALLVALUE PUSH2 0x19D JUMPI PUSH1 0x20 CALLDATASIZE PUSH1 0x3 NOT ADD SLT PUSH2 0x19D JUMPI PUSH1 0x4 CALLDATALOAD PUSH1 0x1 SLOAD DUP2 LT ISZERO PUSH2 0x19D JUMPI PUSH2 0x1815 SWAP1 PUSH2 0x1922 JUMP JUMPDEST POP PUSH2 0x181F DUP2 PUSH2 0x19EC JUMP JUMPDEST PUSH2 0x182B PUSH1 0x1 DUP4 ADD PUSH2 0x19EC JUMP JUMPDEST SWAP1 PUSH1 0x2 DUP4 ADD SLOAD SWAP3 PUSH1 0x3 DUP2 ADD SLOAD SWAP1 PUSH1 0x4 DUP2 ADD SLOAD SWAP1 PUSH1 0x5 DUP2 ADD SLOAD SWAP4 PUSH1 0x6 DUP3 ADD SLOAD SWAP2 PUSH1 0x7 DUP2 ADD SLOAD SWAP1 PUSH1 0x8 DUP2 ADD SLOAD SWAP2 PUSH1 0x9 DUP3 ADD PUSH2 0x1863 SWAP1 PUSH2 0x19EC JUMP JUMPDEST SWAP5 PUSH1 0xA DUP4 ADD SLOAD SWAP9 PUSH1 0xB DUP5 ADD SLOAD SWAP8 PUSH1 0x1 PUSH1 0xA0 SHL PUSH1 0x1 SWAP1 SUB PUSH1 0xC DUP2 SWAP7 ADD SLOAD AND SWAP10 PUSH1 0x40 MLOAD SWAP14 DUP15 SWAP14 DUP15 SWAP10 PUSH2 0x1E0 DUP1 DUP13 MSTORE DUP12 ADD PUSH2 0x189A SWAP2 PUSH2 0x1A92 JUMP JUMPDEST DUP11 DUP2 SUB PUSH1 0x20 DUP13 ADD MSTORE PUSH2 0x18AB SWAP2 PUSH2 0x1A92 JUMP JUMPDEST SWAP9 PUSH1 0x40 ADD MSTORE DUP13 DUP7 DUP3 AND SWAP1 PUSH1 0x60 ADD MSTORE PUSH1 0x80 DUP14 ADD SWAP1 PUSH1 0xA0 SHR PUSH1 0xFF AND SWAP1 PUSH2 0x18CE SWAP2 PUSH2 0x1AD2 JUMP JUMPDEST PUSH1 0xA0 DUP13 ADD MSTORE PUSH1 0xC0 DUP12 ADD MSTORE PUSH1 0xE0 DUP11 ADD MSTORE PUSH2 0x100 DUP10 ADD MSTORE DUP2 AND PUSH2 0x120 DUP9 ADD MSTORE PUSH1 0xA0 SHR PUSH1 0xFF AND ISZERO ISZERO PUSH2 0x140 DUP8 ADD MSTORE DUP6 DUP2 SUB PUSH2 0x160 DUP8 ADD MSTORE PUSH2 0x190B SWAP2 PUSH2 0x1A92 JUMP JUMPDEST SWAP3 PUSH2 0x180 DUP6 ADD MSTORE PUSH2 0x1A0 DUP5 ADD MSTORE PUSH2 0x1C0 DUP4 ADD MSTORE SUB SWAP1 RETURN JUMPDEST PUSH1 0x1 SLOAD DUP2 LT ISZERO PUSH2 0x195D JUMPI PUSH1 0xD SWAP1 PUSH1 0x1 PUSH1 0x0 MSTORE MUL PUSH32 0xB10E2D527612073B26EECDFD717E6A320CF44B4AFAC2B0732D9FCBE2B7FA0CF6 ADD SWAP1 PUSH1 0x0 SWAP1 JUMP JUMPDEST PUSH4 0x4E487B71 PUSH1 0xE0 SHL PUSH1 0x0 MSTORE PUSH1 0x32 PUSH1 0x4 MSTORE PUSH1 0x24 PUSH1 0x0 REVERT JUMPDEST SWAP1 PUSH1 0x1 DUP3 DUP2 SHR SWAP3 AND DUP1 ISZERO PUSH2 0x19A3 JUMPI JUMPDEST PUSH1 0x20 DUP4 LT EQ PUSH2 0x198D JUMPI JUMP JUMPDEST PUSH4 0x4E487B71 PUSH1 0xE0 SHL PUSH1 0x0 MSTORE PUSH1 0x22 PUSH1 0x4 MSTORE PUSH1 0x24 PUSH1 0x0 REVERT JUMPDEST SWAP2 PUSH1 0x7F AND SWAP2 PUSH2 0x1982 JUMP JUMPDEST PUSH2 0x1E0 DUP2 ADD SWAP1 DUP2 LT PUSH8 0xFFFFFFFFFFFFFFFF DUP3 GT OR PUSH2 0x42D JUMPI PUSH1 0x40 MSTORE JUMP JUMPDEST SWAP1 PUSH1 0x1F DUP1 NOT SWAP2 ADD AND DUP2 ADD SWAP1 DUP2 LT PUSH8 0xFFFFFFFFFFFFFFFF DUP3 GT OR PUSH2 0x42D JUMPI PUSH1 0x40 MSTORE JUMP JUMPDEST SWAP1 PUSH1 0x40 MLOAD SWAP2 DUP3 PUSH1 0x0 DUP3 SLOAD SWAP3 PUSH2 0x1A00 DUP5 PUSH2 0x1973 JUMP JUMPDEST SWAP1 DUP2 DUP5 MSTORE PUSH1 0x1 SWAP5 DUP6 DUP2 AND SWAP1 DUP2 PUSH1 0x0 EQ PUSH2 0x1A6F JUMPI POP PUSH1 0x1 EQ PUSH2 0x1A2C JUMPI JUMPDEST POP POP PUSH2 0x1A2A SWAP3 POP SUB DUP4 PUSH2 0x19CA JUMP JUMPDEST JUMP JUMPDEST SWAP1 SWAP4 SWAP2 POP PUSH1 0x0 MSTORE PUSH1 0x20 SWAP1 DUP2 PUSH1 0x0 KECCAK256 SWAP4 PUSH1 0x0 SWAP2 JUMPDEST DUP2 DUP4 LT PUSH2 0x1A57 JUMPI POP POP PUSH2 0x1A2A SWAP4 POP DUP3 ADD ADD CODESIZE DUP1 PUSH2 0x1A1C JUMP JUMPDEST DUP6 SLOAD DUP9 DUP5 ADD DUP6 ADD MSTORE SWAP5 DUP6 ADD SWAP5 DUP8 SWAP5 POP SWAP2 DUP4 ADD SWAP2 PUSH2 0x1A3F JUMP JUMPDEST SWAP2 POP POP PUSH2 0x1A2A SWAP5 POP PUSH1 0x20 SWAP3 POP PUSH1 0xFF NOT AND DUP3 DUP5 ADD MSTORE ISZERO ISZERO PUSH1 0x5 SHL DUP3 ADD ADD CODESIZE DUP1 PUSH2 0x1A1C JUMP JUMPDEST SWAP2 SWAP1 DUP3 MLOAD SWAP3 DUP4 DUP3 MSTORE PUSH1 0x0 JUMPDEST DUP5 DUP2 LT PUSH2 0x1ABE JUMPI POP POP DUP3 PUSH1 0x0 PUSH1 0x20 DUP1 SWAP5 SWAP6 DUP5 ADD ADD MSTORE PUSH1 0x1F DUP1 NOT SWAP2 ADD AND ADD ADD SWAP1 JUMP JUMPDEST PUSH1 0x20 DUP2 DUP4 ADD DUP2 ADD MLOAD DUP5 DUP4 ADD DUP3 ADD MSTORE ADD PUSH2 0x1A9D JUMP JUMPDEST SWAP1 PUSH1 0x4 DUP3 LT ISZERO PUSH2 0xC4A JUMPI MSTORE JUMP JUMPDEST PUSH1 0x4 CALLDATALOAD SWAP1 PUSH1 0x1 PUSH1 0x1 PUSH1 0xA0 SHL SUB DUP3 AND DUP3 SUB PUSH2 0x19D JUMPI JUMP JUMPDEST PUSH1 0x24 CALLDATALOAD SWAP1 PUSH1 0x1 PUSH1 0x1 PUSH1 0xA0 SHL SUB DUP3 AND DUP3 SUB PUSH2 0x19D JUMPI JUMP JUMPDEST PUSH1 0x6 SLOAD DUP2 LT ISZERO PUSH2 0x195D JUMPI PUSH1 0x6 PUSH1 0x0 MSTORE PUSH32 0xF652222313E28459528D920B65115C16C04F3EFC82AAEDC97BE59F3F377C0D3F ADD SWAP1 PUSH1 0x0 SWAP1 JUMP JUMPDEST SWAP1 PUSH2 0x1B6B PUSH2 0x1B59 DUP4 MLOAD PUSH2 0x1E0 DUP1 DUP6 MSTORE DUP5 ADD SWAP1 PUSH2 0x1A92 JUMP JUMPDEST PUSH1 0x20 DUP5 ADD MLOAD DUP4 DUP3 SUB PUSH1 0x20 DUP6 ADD MSTORE PUSH2 0x1A92 JUMP JUMPDEST SWAP2 PUSH1 0x40 DUP2 ADD MLOAD PUSH1 0x40 DUP4 ADD MSTORE PUSH2 0x1BF6 PUSH1 0x1 DUP1 PUSH1 0xA0 SHL SUB SWAP4 DUP5 PUSH1 0x60 DUP5 ADD MLOAD AND PUSH1 0x60 DUP6 ADD MSTORE PUSH2 0x1B9F PUSH1 0x80 DUP5 ADD MLOAD PUSH1 0x80 DUP7 ADD SWAP1 PUSH2 0x1AD2 JUMP JUMPDEST PUSH1 0xA0 DUP4 ADD MLOAD PUSH1 0xA0 DUP6 ADD MSTORE PUSH1 0xC0 DUP4 ADD MLOAD PUSH1 0xC0 DUP6 ADD MSTORE PUSH1 0xE0 DUP4 ADD MLOAD PUSH1 0xE0 DUP6 ADD MSTORE PUSH2 0x100 DUP1 DUP5 ADD MLOAD SWAP1 DUP6 ADD MSTORE PUSH2 0x120 DUP6 DUP2 DUP6 ADD MLOAD AND SWAP1 DUP6 ADD MSTORE PUSH2 0x140 DUP1 DUP5 ADD MLOAD ISZERO ISZERO SWAP1 DUP6 ADD MSTORE PUSH2 0x160 DUP1 DUP5 ADD MLOAD SWAP1 DUP6 DUP4 SUB SWAP1 DUP7 ADD MSTORE PUSH2 0x1A92 JUMP JUMPDEST SWAP3 PUSH2 0x180 DUP1 DUP4 ADD MLOAD SWAP1 DUP5 ADD MSTORE PUSH2 0x1A0 DUP1 DUP4 ADD MLOAD SWAP1 DUP5 ADD MSTORE PUSH2 0x1C0 DUP1 SWAP3 ADD MLOAD AND SWAP2 ADD MSTORE SWAP1 JUMP JUMPDEST PUSH1 0x1 PUSH1 0x1 PUSH1 0xA0 SHL SUB AND PUSH1 0x0 DUP2 DUP2 MSTORE PUSH32 0x30710E496C9A8631E387D1FF5062C226D4CE9C9E008BFF1F22AE157290CCBD62 PUSH1 0x20 MSTORE PUSH1 0x40 DUP2 KECCAK256 SLOAD SWAP1 SWAP2 SWAP1 PUSH1 0x0 DUP1 MLOAD PUSH1 0x20 PUSH2 0x207E DUP4 CODECOPY DUP2 MLOAD SWAP2 MSTORE SWAP1 PUSH1 0xFF AND ISZERO PUSH2 0x1CB4 JUMPI DUP1 DUP4 MSTORE DUP3 PUSH1 0x20 MSTORE PUSH1 0x40 DUP4 KECCAK256 DUP3 DUP5 MSTORE PUSH1 0x20 MSTORE PUSH1 0x40 DUP4 KECCAK256 PUSH1 0xFF NOT DUP2 SLOAD AND SWAP1 SSTORE PUSH32 0xF6391F5C32D9C69D2A47EA670B442974B53935D1EDC7FD64EB21E047A839171B CALLER SWAP4 DUP1 LOG4 PUSH1 0x1 SWAP1 JUMP JUMPDEST POP POP SWAP1 JUMP JUMPDEST SWAP1 PUSH1 0x0 SWAP2 DUP1 DUP4 MSTORE DUP3 PUSH1 0x20 MSTORE PUSH1 0x40 DUP4 KECCAK256 SWAP2 PUSH1 0x1 DUP1 PUSH1 0xA0 SHL SUB AND SWAP2 DUP3 DUP5 MSTORE PUSH1 0x20 MSTORE PUSH1 0xFF PUSH1 0x40 DUP5 KECCAK256 SLOAD AND PUSH1 0x0 EQ PUSH2 0x1CB4 JUMPI DUP1 DUP4 MSTORE DUP3 PUSH1 0x20 MSTORE PUSH1 0x40 DUP4 KECCAK256 DUP3 DUP5 MSTORE PUSH1 0x20 MSTORE PUSH1 0x40 DUP4 KECCAK256 PUSH1 0xFF NOT DUP2 SLOAD AND SWAP1 SSTORE PUSH32 0xF6391F5C32D9C69D2A47EA670B442974B53935D1EDC7FD64EB21E047A839171B CALLER SWAP4 DUP1 LOG4 PUSH1 0x1 SWAP1 JUMP JUMPDEST CALLER PUSH1 0x0 SWAP1 DUP2 MSTORE PUSH32 0xC39F11A9300B508470EAED31F5842BA08C93181BCBE6A7FE34039AA7F2B80742 PUSH1 0x20 MSTORE PUSH1 0x40 SWAP1 KECCAK256 SLOAD PUSH32 0x3B5D4CC60D3EC3516EE8AE083BD60934F6EB2A6C54B1229985C41BFB092B2603 SWAP1 PUSH1 0xFF AND ISZERO PUSH2 0x1D8A JUMPI POP JUMP JUMPDEST PUSH1 0x44 SWAP1 PUSH1 0x40 MLOAD SWAP1 PUSH4 0xE2517D3F PUSH1 0xE0 SHL DUP3 MSTORE CALLER PUSH1 0x4 DUP4 ADD MSTORE PUSH1 0x24 DUP3 ADD MSTORE REVERT JUMPDEST CALLER PUSH1 0x0 SWAP1 DUP2 MSTORE PUSH32 0x30710E496C9A8631E387D1FF5062C226D4CE9C9E008BFF1F22AE157290CCBD62 PUSH1 0x20 MSTORE PUSH1 0x40 SWAP1 KECCAK256 SLOAD PUSH1 0x0 DUP1 MLOAD PUSH1 0x20 PUSH2 0x207E DUP4 CODECOPY DUP2 MLOAD SWAP2 MSTORE SWAP1 PUSH1 0xFF AND ISZERO PUSH2 0x1D8A JUMPI POP JUMP JUMPDEST DUP1 PUSH1 0x0 MSTORE PUSH1 0x0 PUSH1 0x20 MSTORE PUSH1 0x40 PUSH1 0x0 KECCAK256 CALLER PUSH1 0x0 MSTORE PUSH1 0x20 MSTORE PUSH1 0xFF PUSH1 0x40 PUSH1 0x0 KECCAK256 SLOAD AND ISZERO PUSH2 0x1D8A JUMPI POP JUMP JUMPDEST SWAP1 PUSH1 0x0 SWAP2 DUP1 DUP4 MSTORE DUP3 PUSH1 0x20 MSTORE PUSH1 0x40 DUP4 KECCAK256 SWAP2 PUSH1 0x1 DUP1 PUSH1 0xA0 SHL SUB AND SWAP2 DUP3 DUP5 MSTORE PUSH1 0x20 MSTORE PUSH1 0xFF PUSH1 0x40 DUP5 KECCAK256 SLOAD AND ISZERO PUSH1 0x0 EQ PUSH2 0x1CB4 JUMPI DUP1 DUP4 MSTORE DUP3 PUSH1 0x20 MSTORE PUSH1 0x40 DUP4 KECCAK256 DUP3 DUP5 MSTORE PUSH1 0x20 MSTORE PUSH1 0x40 DUP4 KECCAK256 PUSH1 0x1 PUSH1 0xFF NOT DUP3 SLOAD AND OR SWAP1 SSTORE PUSH32 0x2F8788117E7EFF1D82E926EC794901D17C78024A50270940304540A733656F0D CALLER SWAP4 DUP1 LOG4 PUSH1 0x1 SWAP1 JUMP JUMPDEST PUSH1 0x0 NOT DUP2 EQ PUSH2 0x2FB JUMPI PUSH1 0x1 ADD SWAP1 JUMP JUMPDEST PUSH1 0x6 SLOAD DUP1 ISZERO PUSH2 0x1ECE JUMPI PUSH1 0x0 NOT ADD PUSH2 0x1EB6 DUP2 PUSH2 0x1B0B JUMP JUMPDEST DUP2 SLOAD SWAP1 PUSH1 0x1 DUP1 PUSH1 0xA0 SHL SUB SWAP1 PUSH1 0x3 SHL SHL NOT AND SWAP1 SSTORE PUSH1 0x6 SSTORE JUMP JUMPDEST PUSH4 0x4E487B71 PUSH1 0xE0 SHL PUSH1 0x0 MSTORE PUSH1 0x31 PUSH1 0x4 MSTORE PUSH1 0x24 PUSH1 0x0 REVERT JUMPDEST SWAP1 CALLDATALOAD SWAP1 PUSH1 0x1E NOT DUP2 CALLDATASIZE SUB ADD DUP3 SLT ISZERO PUSH2 0x19D JUMPI ADD DUP1 CALLDATALOAD SWAP1 PUSH8 0xFFFFFFFFFFFFFFFF DUP3 GT PUSH2 0x19D JUMPI PUSH1 0x20 ADD SWAP2 DUP2 CALLDATASIZE SUB DUP4 SGT PUSH2 0x19D JUMPI JUMP JUMPDEST SWAP3 SWAP2 SWAP3 PUSH8 0xFFFFFFFFFFFFFFFF DUP3 GT PUSH2 0x42D JUMPI PUSH1 0x40 MLOAD SWAP2 PUSH2 0x1F41 PUSH1 0x1F DUP3 ADD PUSH1 0x1F NOT AND PUSH1 0x20 ADD DUP5 PUSH2 0x19CA JUMP JUMPDEST DUP3 SWAP5 DUP2 DUP5 MSTORE DUP2 DUP4 ADD GT PUSH2 0x19D JUMPI DUP3 DUP2 PUSH1 0x20 SWAP4 DUP5 PUSH1 0x0 SWAP7 ADD CALLDATACOPY ADD ADD MSTORE JUMP JUMPDEST SWAP1 PUSH1 0x4 DUP2 LT ISZERO PUSH2 0xC4A JUMPI DUP2 SLOAD PUSH1 0xFF PUSH1 0xA0 SHL NOT AND PUSH1 0xA0 SWAP2 SWAP1 SWAP2 SHL PUSH1 0xFF PUSH1 0xA0 SHL AND OR SWAP1 SSTORE JUMP JUMPDEST SWAP1 PUSH1 0x40 MLOAD PUSH2 0x1F8F DUP2 PUSH2 0x19AD JUMP JUMPDEST DUP1 SWAP3 PUSH2 0x1F9A DUP2 PUSH2 0x19EC JUMP JUMPDEST DUP3 MSTORE PUSH2 0x1FA8 PUSH1 0x1 DUP3 ADD PUSH2 0x19EC JUMP JUMPDEST PUSH1 0x20 DUP4 ADD MSTORE PUSH1 0x2 DUP2 ADD SLOAD PUSH1 0x40 DUP4 ADD MSTORE PUSH1 0x3 DUP2 ADD SLOAD PUSH1 0x1 PUSH1 0x1 PUSH1 0xA0 SHL SUB DUP1 DUP3 AND PUSH1 0x60 DUP6 ADD MSTORE SWAP1 PUSH1 0xA0 SHR PUSH1 0xFF AND PUSH1 0x4 DUP2 LT ISZERO PUSH2 0xC4A JUMPI PUSH2 0x1C0 SWAP3 PUSH1 0xC SWAP2 PUSH1 0x80 DUP7 ADD MSTORE PUSH1 0x4 DUP2 ADD SLOAD PUSH1 0xA0 DUP7 ADD MSTORE PUSH1 0x5 DUP2 ADD SLOAD PUSH1 0xC0 DUP7 ADD MSTORE PUSH1 0x6 DUP2 ADD SLOAD PUSH1 0xE0 DUP7 ADD MSTORE PUSH1 0x7 DUP2 ADD SLOAD PUSH2 0x100 DUP7 ADD MSTORE PUSH1 0xFF PUSH1 0x8 DUP3 ADD SLOAD DUP5 DUP2 AND PUSH2 0x120 DUP9 ADD MSTORE PUSH1 0xA0 SHR AND ISZERO ISZERO PUSH2 0x140 DUP7 ADD MSTORE PUSH2 0x2039 PUSH1 0x9 DUP3 ADD PUSH2 0x19EC JUMP JUMPDEST PUSH2 0x160 DUP7 ADD MSTORE PUSH1 0xA DUP2 ADD SLOAD PUSH2 0x180 DUP7 ADD MSTORE PUSH1 0xB DUP2 ADD SLOAD PUSH2 0x1A0 DUP7 ADD MSTORE ADD SLOAD AND SWAP2 ADD MSTORE JUMP INVALID 0xDB MLOAD SWAP5 PUSH2 0x47AF DUP16 PUSH9 0xF24B69CDB99D868CC4 0xB5 EXTCODESIZE PUSH22 0xDCE4E05D8F590BCF5281051C829B824E2329E205435D SWAP5 SHR SWAP16 SGT 0xBA CREATE2 PUSH25 0x548505283D29261236D8E6596D4636094F80829C509370ABB2 0xD4 0x21 LOG0 PUSH25 0xBA5926755D3DE25D021DACF7BBD19853F7A2A2646970667358 0x22 SLT KECCAK256 STATICCALL PUSH15 0x534FF449C53FEF7F7999A709EB39BE REVERT 0x2F SELFDESTRUCT 0x4D EXTCODECOPY PUSH31 0xF8384FFDF344E23B3664736F6C634300081400332F8788117E7EFF1D82E926 0xEC PUSH26 0x4901D17C78024A50270940304540A733656F0D00000000000000 "},"methodIdentifiers":{"DAO_ROLE()":"e9c26518","DEFAULT_ADMIN_ROLE()":"a217fddf","MEMBER_ROLE()":"a10f469e","addGlassScore(address,uint256)":"488cba40","addPenaltyAndExpel(address)":"ba86f70a","createProposal((string,string,uint256,address,bool,string,uint256,uint256,address))":"a7a36b4f","daoAddress()":"2131c68c","forceAbstain(uint256,address)":"a462e50f","getAllMembers()":"7c0f6b35","getAllProposals()":"cceb68f5","getMemberCount()":"997072f7","getProposal(uint256)":"c7f758a8","getRoleAdmin(bytes32)":"248a9ca3","getVotes(uint256)":"ff981099","glassScore(address)":"1f56d126","grantRole(bytes32,address)":"2f2ff15d","hasRole(bytes32,address)":"91d14854","hasVoted(uint256,address)":"43859632","hasVotedForProposal(uint256,address)":"62d4f893","isMember(address)":"a230c524","members(uint256)":"5daf08ca","penaltyCount(address)":"a9330b0e","proposals(uint256)":"013cf08b","renounceRole(bytes32,address)":"36568abe","revokeRole(bytes32,address)":"d547741f","setProposalStatus(uint256,uint8)":"cbe94614","subGlassScore(address,uint256)":"2b72ee51","supportsInterface(bytes4)":"01ffc9a7","vote(uint256,uint8)":"943e8216"}}}}}