{"contracts/Execution.sol":{"Execution":{"abi":[{"inputs":[{"internalType":"address","name":"_proposal","type":"address"},{"internalType":"address","name":"_vault","type":"address"},{"internalType":"address","name":"_dao","type":"address"}],"stateMutability":"nonpayable","type":"constructor"},{"anonymous":false,"inputs":[{"indexed":true,"internalType":"address","name":"member","type":"address"}],"name":"MemberExpelled","type":"event"},{"anonymous":false,"inputs":[{"indexed":true,"internalType":"uint256","name":"proposalId","type":"uint256"}],"name":"ProposalExecuted","type":"event"},{"anonymous":false,"inputs":[{"indexed":false,"internalType":"string","name":"rule","type":"string"},{"indexed":false,"internalType":"uint256","name":"beforeValue","type":"uint256"},{"indexed":false,"internalType":"uint256","name":"afterValue","type":"uint256"}],"name":"RuleChanged","type":"event"},{"inputs":[],"name":"daoAddress","outputs":[{"internalType":"address","name":"","type":"address"}],"stateMutability":"view","type":"function"},{"inputs":[{"internalType":"uint256","name":"proposalId","type":"uint256"}],"name":"executeMemberExpel","outputs":[],"stateMutability":"nonpayable","type":"function"},{"inputs":[{"internalType":"uint256","name":"proposalId","type":"uint256"}],"name":"executePayout","outputs":[],"stateMutability":"nonpayable","type":"function"},{"inputs":[{"internalType":"uint256","name":"proposalId","type":"uint256"}],"name":"executeRuleChange","outputs":[],"stateMutability":"nonpayable","type":"function"},{"inputs":[],"name":"proposalContract","outputs":[{"internalType":"contract Proposal","name":"","type":"address"}],"stateMutability":"view","type":"function"},{"inputs":[],"name":"vaultContract","outputs":[{"internalType":"contract Vault","name":"","type":"address"}],"stateMutability":"view","type":"function"}],"evm":{"bytecode":{"linkReferences":{},"object":"6080346100a057601f610af838819003918201601f19168301916001600160401b038311848410176100a5578084926060946040528339810103126100a057610047816100bb565b906100606040610059602084016100bb565b92016100bb565b60018060a01b0380928160018060a01b031995168560005416176000551683600154161760015516906002541617600255604051610a2890816100d08239f35b600080fd5b634e487b7160e01b600052604160045260246000fd5b51906001600160a01b03821682036100a05756fe6080604081815260048036101561001557600080fd5b600092833560e01c9081632131c68c146106ef575083816321814f90146104a7575080632274346b1461047e5780633aef390014610452578063de1b293a146102455763e8ce772d1461006757600080fd5b346101b05760203660031901126101b0576002546001600160a01b0392823592916100959085163314610714565b83855416918151936318feeb1560e31b855280828601528685602481875afa94851561023b578795610217575b506080850151828110156102045760016100dc91146109b0565b7f18adef32d755a9af096e2ee4ff599735880e4759405d7d958148850ad4749a65610160860151602081519101206b1b595b58995c8b595e1c195b60a21b602086516101278161079d565b600c81520152036101c1579083929187943b156101bd576044859283855196879485936332fa518560e21b8552840152600360248401525af19081156101b4575061019c575b50506101c00151167ff5002557509a1bb82b30f2c66eca02084534f87dd1e4c7f3c91739133e50a05b8280a280f35b6101a590610773565b6101b057823861016d565b8280fd5b513d84823e3d90fd5b8480fd5b506020606492519162461bcd60e51b8352820152601b60248201527f4e6f742061206d656d6265722d657870656c2070726f706f73616c00000000006044820152fd5b634e487b7160e01b885260218352602488fd5b6102349195503d8089833e61022c81836107b9565b81019061086c565b93386100c2565b83513d89823e3d90fd5b50346101b0576020806003193601126103d257813560018060a01b0361027081600254163314610714565b8554168451936318feeb1560e31b855282818601528685602481855afa94851561044857879561042c575b506080850151818110156104195760016102b591146109b0565b6101608501927f3263cae112f9b06c4fe976e1e563a8899e0058acad03a56562786e4496d29f6b84518681519101206a72756c652d6368616e676560a81b878a516102ff8161079d565b600b81520152036103d65790829188933b156103d25760448492838a5195869485936332fa518560e21b8552840152600360248401525af180156103c8576103b0575b5050907f0c607c5751c330dfb1b02e97a8c6b40995b7c37f1247cb3ba0baa9308f3747ff9360809251906101a06101808601519501519080519586946060865261039a855180968160608a0152838a8a0191016107db565b850152830152601f01601f19168101030190a180f35b6103bc90939293610773565b6101bd57908438610342565b86513d84823e3d90fd5b8380fd5b865162461bcd60e51b8152808301869052601a60248201527f4e6f7420612072756c652d6368616e67652070726f706f73616c0000000000006044820152606490fd5b634e487b7160e01b885260218252602488fd5b6104419195503d8089833e61022c81836107b9565b933861029b565b86513d89823e3d90fd5b50503461047a578160031936011261047a57905490516001600160a01b039091168152602090f35b5080fd5b50503461047a578160031936011261047a5760015490516001600160a01b039091168152602090f35b808484346106eb5760203660031901126106eb5780359160018060a01b03916104d583600254163314610714565b82855416928251968780956318feeb1560e31b8252878583015260249687915afa96871561060d5786976106cf575b506080870151828110156106bd57600161051e91146109b0565b82870180511561068557816001541697883182511161064c57606001828151161561061b57519051908216883b156106175790604488928387519b8c94859363a9059cbb60e01b8552898501528a8401525af1801561060d576105f7575b858097509495541690813b156101bd57604486918680946003875198899687956332fa518560e21b87528601528401525af19081156101b457506105e3575b50807f712ae1383f79ac853f8d882153778e0260ef8f03b504e2866e0593e04d2b291f91a280f35b6105ec90610773565b61047a5781836105bb565b9394909561060490610773565b9392859061057c565b83513d88823e3d90fd5b8780fd5b845162461bcd60e51b8152602081860152600c818801526b139bc81c9958da5c1a595b9d60a21b6044820152606490fd5b845162461bcd60e51b815260208186015260148188015273496e73756666696369656e742062616c616e636560601b6044820152606490fd5b835162461bcd60e51b815260208185015260138187015272139bc8185b5bdd5b9d081cdc1958da599a5959606a1b6044820152606490fd5b634e487b7160e01b8752602183528487fd5b6106e49197503d8088833e61022c81836107b9565b9587610504565b5050fd5b84903461047a578160031936011261047a576002546001600160a01b03168152602090f35b1561071b57565b60405162461bcd60e51b815260206004820152602a60248201527f457865637574696f6e3a206f6e6c792044414f2063616e2063616c6c207468696044820152693990333ab731ba34b7b760b11b6064820152608490fd5b67ffffffffffffffff811161078757604052565b634e487b7160e01b600052604160045260246000fd5b6040810190811067ffffffffffffffff82111761078757604052565b90601f8019910116810190811067ffffffffffffffff82111761078757604052565b60005b8381106107ee5750506000910152565b81810151838201526020016107de565b81601f8201121561085357805167ffffffffffffffff81116107875760405192610832601f8301601f1916602001856107b9565b818452602082840101116108535761085091602080850191016107db565b90565b600080fd5b51906001600160a01b038216820361085357565b9060208282031261085357815167ffffffffffffffff928382116108535701906101e0928383830312610853576040519384018481108282111761078757604052825181811161085357826108c29185016107fe565b8452602083015181811161085357826108dc9185016107fe565b60208501526040838101519085015260608301516001600160a01b03811681036108535760608501526080830151600481101561085357608085015260a083015160a085015260c083015160c085015260e083015160e0850152610100808401519085015261012061094f818501610858565b9085015261014080840151908115158203610853578501526101609182840151918211610853576109819184016107fe565b9083015261018080820151908301526101a080820151908301526109a96101c0809201610858565b9082015290565b156109b757565b60405162461bcd60e51b8152602060048201526013602482015272141c9bdc1bdcd85b081b9bdd081c185cdcd959606a1b6044820152606490fdfea2646970667358221220ac79514bdc6833de3ec360b0f87302e2f3202ff370ecb83b37b3b66654bdacfc64736f6c63430008140033","opcodes":"PUSH1 0x80 CALLVALUE PUSH2 0xA0 JUMPI PUSH1 0x1F PUSH2 0xAF8 CODESIZE DUP2 SWAP1 SUB SWAP2 DUP3 ADD PUSH1 0x1F NOT AND DUP4 ADD SWAP2 PUSH1 0x1 PUSH1 0x1 PUSH1 0x40 SHL SUB DUP4 GT DUP5 DUP5 LT OR PUSH2 0xA5 JUMPI DUP1 DUP5 SWAP3 PUSH1 0x60 SWAP5 PUSH1 0x40 MSTORE DUP4 CODECOPY DUP2 ADD SUB SLT PUSH2 0xA0 JUMPI PUSH2 0x47 DUP2 PUSH2 0xBB JUMP JUMPDEST SWAP1 PUSH2 0x60 PUSH1 0x40 PUSH2 0x59 PUSH1 0x20 DUP5 ADD PUSH2 0xBB JUMP JUMPDEST SWAP3 ADD PUSH2 0xBB JUMP JUMPDEST PUSH1 0x1 DUP1 PUSH1 0xA0 SHL SUB DUP1 SWAP3 DUP2 PUSH1 0x1 DUP1 PUSH1 0xA0 SHL SUB NOT SWAP6 AND DUP6 PUSH1 0x0 SLOAD AND OR PUSH1 0x0 SSTORE AND DUP4 PUSH1 0x1 SLOAD AND OR PUSH1 0x1 SSTORE AND SWAP1 PUSH1 0x2 SLOAD AND OR PUSH1 0x2 SSTORE PUSH1 0x40 MLOAD PUSH2 0xA28 SWAP1 DUP2 PUSH2 0xD0 DUP3 CODECOPY RETURN JUMPDEST PUSH1 0x0 DUP1 REVERT JUMPDEST PUSH4 0x4E487B71 PUSH1 0xE0 SHL PUSH1 0x0 MSTORE PUSH1 0x41 PUSH1 0x4 MSTORE PUSH1 0x24 PUSH1 0x0 REVERT JUMPDEST MLOAD SWAP1 PUSH1 0x1 PUSH1 0x1 PUSH1 0xA0 SHL SUB DUP3 AND DUP3 SUB PUSH2 0xA0 JUMPI JUMP INVALID PUSH1 0x80 PUSH1 0x40 DUP2 DUP2 MSTORE PUSH1 0x4 DUP1 CALLDATASIZE LT ISZERO PUSH2 0x15 JUMPI PUSH1 0x0 DUP1 REVERT JUMPDEST PUSH1 0x0 SWAP3 DUP4 CALLDATALOAD PUSH1 0xE0 SHR SWAP1 DUP2 PUSH4 0x2131C68C EQ PUSH2 0x6EF JUMPI POP DUP4 DUP2 PUSH4 0x21814F90 EQ PUSH2 0x4A7 JUMPI POP DUP1 PUSH4 0x2274346B EQ PUSH2 0x47E JUMPI DUP1 PUSH4 0x3AEF3900 EQ PUSH2 0x452 JUMPI DUP1 PUSH4 0xDE1B293A EQ PUSH2 0x245 JUMPI PUSH4 0xE8CE772D EQ PUSH2 0x67 JUMPI PUSH1 0x0 DUP1 REVERT JUMPDEST CALLVALUE PUSH2 0x1B0 JUMPI PUSH1 0x20 CALLDATASIZE PUSH1 0x3 NOT ADD SLT PUSH2 0x1B0 JUMPI PUSH1 0x2 SLOAD PUSH1 0x1 PUSH1 0x1 PUSH1 0xA0 SHL SUB SWAP3 DUP3 CALLDATALOAD SWAP3 SWAP2 PUSH2 0x95 SWAP1 DUP6 AND CALLER EQ PUSH2 0x714 JUMP JUMPDEST DUP4 DUP6 SLOAD AND SWAP2 DUP2 MLOAD SWAP4 PUSH4 0x18FEEB15 PUSH1 0xE3 SHL DUP6 MSTORE DUP1 DUP3 DUP7 ADD MSTORE DUP7 DUP6 PUSH1 0x24 DUP2 DUP8 GAS STATICCALL SWAP5 DUP6 ISZERO PUSH2 0x23B JUMPI DUP8 SWAP6 PUSH2 0x217 JUMPI JUMPDEST POP PUSH1 0x80 DUP6 ADD MLOAD DUP3 DUP2 LT ISZERO PUSH2 0x204 JUMPI PUSH1 0x1 PUSH2 0xDC SWAP2 EQ PUSH2 0x9B0 JUMP JUMPDEST PUSH32 0x18ADEF32D755A9AF096E2EE4FF599735880E4759405D7D958148850AD4749A65 PUSH2 0x160 DUP7 ADD MLOAD PUSH1 0x20 DUP2 MLOAD SWAP2 ADD KECCAK256 PUSH12 0x1B595B58995C8B595E1C195B PUSH1 0xA2 SHL PUSH1 0x20 DUP7 MLOAD PUSH2 0x127 DUP2 PUSH2 0x79D JUMP JUMPDEST PUSH1 0xC DUP2 MSTORE ADD MSTORE SUB PUSH2 0x1C1 JUMPI SWAP1 DUP4 SWAP3 SWAP2 DUP8 SWAP5 EXTCODESIZE ISZERO PUSH2 0x1BD JUMPI PUSH1 0x44 DUP6 SWAP3 DUP4 DUP6 MLOAD SWAP7 DUP8 SWAP5 DUP6 SWAP4 PUSH4 0x32FA5185 PUSH1 0xE2 SHL DUP6 MSTORE DUP5 ADD MSTORE PUSH1 0x3 PUSH1 0x24 DUP5 ADD MSTORE GAS CALL SWAP1 DUP2 ISZERO PUSH2 0x1B4 JUMPI POP PUSH2 0x19C JUMPI JUMPDEST POP POP PUSH2 0x1C0 ADD MLOAD AND PUSH32 0xF5002557509A1BB82B30F2C66ECA02084534F87DD1E4C7F3C91739133E50A05B DUP3 DUP1 LOG2 DUP1 RETURN JUMPDEST PUSH2 0x1A5 SWAP1 PUSH2 0x773 JUMP JUMPDEST PUSH2 0x1B0 JUMPI DUP3 CODESIZE PUSH2 0x16D JUMP JUMPDEST DUP3 DUP1 REVERT JUMPDEST MLOAD RETURNDATASIZE DUP5 DUP3 RETURNDATACOPY RETURNDATASIZE SWAP1 REVERT JUMPDEST DUP5 DUP1 REVERT JUMPDEST POP PUSH1 0x20 PUSH1 0x64 SWAP3 MLOAD SWAP2 PUSH3 0x461BCD PUSH1 0xE5 SHL DUP4 MSTORE DUP3 ADD MSTORE PUSH1 0x1B PUSH1 0x24 DUP3 ADD MSTORE PUSH32 0x4E6F742061206D656D6265722D657870656C2070726F706F73616C0000000000 PUSH1 0x44 DUP3 ADD MSTORE REVERT JUMPDEST PUSH4 0x4E487B71 PUSH1 0xE0 SHL DUP9 MSTORE PUSH1 0x21 DUP4 MSTORE PUSH1 0x24 DUP9 REVERT JUMPDEST PUSH2 0x234 SWAP2 SWAP6 POP RETURNDATASIZE DUP1 DUP10 DUP4 RETURNDATACOPY PUSH2 0x22C DUP2 DUP4 PUSH2 0x7B9 JUMP JUMPDEST DUP2 ADD SWAP1 PUSH2 0x86C JUMP JUMPDEST SWAP4 CODESIZE PUSH2 0xC2 JUMP JUMPDEST DUP4 MLOAD RETURNDATASIZE DUP10 DUP3 RETURNDATACOPY RETURNDATASIZE SWAP1 REVERT JUMPDEST POP CALLVALUE PUSH2 0x1B0 JUMPI PUSH1 0x20 DUP1 PUSH1 0x3 NOT CALLDATASIZE ADD SLT PUSH2 0x3D2 JUMPI DUP2 CALLDATALOAD PUSH1 0x1 DUP1 PUSH1 0xA0 SHL SUB PUSH2 0x270 DUP2 PUSH1 0x2 SLOAD AND CALLER EQ PUSH2 0x714 JUMP JUMPDEST DUP6 SLOAD AND DUP5 MLOAD SWAP4 PUSH4 0x18FEEB15 PUSH1 0xE3 SHL DUP6 MSTORE DUP3 DUP2 DUP7 ADD MSTORE DUP7 DUP6 PUSH1 0x24 DUP2 DUP6 GAS STATICCALL SWAP5 DUP6 ISZERO PUSH2 0x448 JUMPI DUP8 SWAP6 PUSH2 0x42C JUMPI JUMPDEST POP PUSH1 0x80 DUP6 ADD MLOAD DUP2 DUP2 LT ISZERO PUSH2 0x419 JUMPI PUSH1 0x1 PUSH2 0x2B5 SWAP2 EQ PUSH2 0x9B0 JUMP JUMPDEST PUSH2 0x160 DUP6 ADD SWAP3 PUSH32 0x3263CAE112F9B06C4FE976E1E563A8899E0058ACAD03A56562786E4496D29F6B DUP5 MLOAD DUP7 DUP2 MLOAD SWAP2 ADD KECCAK256 PUSH11 0x72756C652D6368616E6765 PUSH1 0xA8 SHL DUP8 DUP11 MLOAD PUSH2 0x2FF DUP2 PUSH2 0x79D JUMP JUMPDEST PUSH1 0xB DUP2 MSTORE ADD MSTORE SUB PUSH2 0x3D6 JUMPI SWAP1 DUP3 SWAP2 DUP9 SWAP4 EXTCODESIZE ISZERO PUSH2 0x3D2 JUMPI PUSH1 0x44 DUP5 SWAP3 DUP4 DUP11 MLOAD SWAP6 DUP7 SWAP5 DUP6 SWAP4 PUSH4 0x32FA5185 PUSH1 0xE2 SHL DUP6 MSTORE DUP5 ADD MSTORE PUSH1 0x3 PUSH1 0x24 DUP5 ADD MSTORE GAS CALL DUP1 ISZERO PUSH2 0x3C8 JUMPI PUSH2 0x3B0 JUMPI JUMPDEST POP POP SWAP1 PUSH32 0xC607C5751C330DFB1B02E97A8C6B40995B7C37F1247CB3BA0BAA9308F3747FF SWAP4 PUSH1 0x80 SWAP3 MLOAD SWAP1 PUSH2 0x1A0 PUSH2 0x180 DUP7 ADD MLOAD SWAP6 ADD MLOAD SWAP1 DUP1 MLOAD SWAP6 DUP7 SWAP5 PUSH1 0x60 DUP7 MSTORE PUSH2 0x39A DUP6 MLOAD DUP1 SWAP7 DUP2 PUSH1 0x60 DUP11 ADD MSTORE DUP4 DUP11 DUP11 ADD SWAP2 ADD PUSH2 0x7DB JUMP JUMPDEST DUP6 ADD MSTORE DUP4 ADD MSTORE PUSH1 0x1F ADD PUSH1 0x1F NOT AND DUP2 ADD SUB ADD SWAP1 LOG1 DUP1 RETURN JUMPDEST PUSH2 0x3BC SWAP1 SWAP4 SWAP3 SWAP4 PUSH2 0x773 JUMP JUMPDEST PUSH2 0x1BD JUMPI SWAP1 DUP5 CODESIZE PUSH2 0x342 JUMP JUMPDEST DUP7 MLOAD RETURNDATASIZE DUP5 DUP3 RETURNDATACOPY RETURNDATASIZE SWAP1 REVERT JUMPDEST DUP4 DUP1 REVERT JUMPDEST DUP7 MLOAD PUSH3 0x461BCD PUSH1 0xE5 SHL DUP2 MSTORE DUP1 DUP4 ADD DUP7 SWAP1 MSTORE PUSH1 0x1A PUSH1 0x24 DUP3 ADD MSTORE PUSH32 0x4E6F7420612072756C652D6368616E67652070726F706F73616C000000000000 PUSH1 0x44 DUP3 ADD MSTORE PUSH1 0x64 SWAP1 REVERT JUMPDEST PUSH4 0x4E487B71 PUSH1 0xE0 SHL DUP9 MSTORE PUSH1 0x21 DUP3 MSTORE PUSH1 0x24 DUP9 REVERT JUMPDEST PUSH2 0x441 SWAP2 SWAP6 POP RETURNDATASIZE DUP1 DUP10 DUP4 RETURNDATACOPY PUSH2 0x22C DUP2 DUP4 PUSH2 0x7B9 JUMP JUMPDEST SWAP4 CODESIZE PUSH2 0x29B JUMP JUMPDEST DUP7 MLOAD RETURNDATASIZE DUP10 DUP3 RETURNDATACOPY RETURNDATASIZE SWAP1 REVERT JUMPDEST POP POP CALLVALUE PUSH2 0x47A JUMPI DUP2 PUSH1 0x3 NOT CALLDATASIZE ADD SLT PUSH2 0x47A JUMPI SWAP1 SLOAD SWAP1 MLOAD PUSH1 0x1 PUSH1 0x1 PUSH1 0xA0 SHL SUB SWAP1 SWAP2 AND DUP2 MSTORE PUSH1 0x20 SWAP1 RETURN JUMPDEST POP DUP1 REVERT JUMPDEST POP POP CALLVALUE PUSH2 0x47A JUMPI DUP2 PUSH1 0x3 NOT CALLDATASIZE ADD SLT PUSH2 0x47A JUMPI PUSH1 0x1 SLOAD SWAP1 MLOAD PUSH1 0x1 PUSH1 0x1 PUSH1 0xA0 SHL SUB SWAP1 SWAP2 AND DUP2 MSTORE PUSH1 0x20 SWAP1 RETURN JUMPDEST DUP1 DUP5 DUP5 CALLVALUE PUSH2 0x6EB JUMPI PUSH1 0x20 CALLDATASIZE PUSH1 0x3 NOT ADD SLT PUSH2 0x6EB JUMPI DUP1 CALLDATALOAD SWAP2 PUSH1 0x1 DUP1 PUSH1 0xA0 SHL SUB SWAP2 PUSH2 0x4D5 DUP4 PUSH1 0x2 SLOAD AND CALLER EQ PUSH2 0x714 JUMP JUMPDEST DUP3 DUP6 SLOAD AND SWAP3 DUP3 MLOAD SWAP7 DUP8 DUP1 SWAP6 PUSH4 0x18FEEB15 PUSH1 0xE3 SHL DUP3 MSTORE DUP8 DUP6 DUP4 ADD MSTORE PUSH1 0x24 SWAP7 DUP8 SWAP2 GAS STATICCALL SWAP7 DUP8 ISZERO PUSH2 0x60D JUMPI DUP7 SWAP8 PUSH2 0x6CF JUMPI JUMPDEST POP PUSH1 0x80 DUP8 ADD MLOAD DUP3 DUP2 LT ISZERO PUSH2 0x6BD JUMPI PUSH1 0x1 PUSH2 0x51E SWAP2 EQ PUSH2 0x9B0 JUMP JUMPDEST DUP3 DUP8 ADD DUP1 MLOAD ISZERO PUSH2 0x685 JUMPI DUP2 PUSH1 0x1 SLOAD AND SWAP8 DUP9 BALANCE DUP3 MLOAD GT PUSH2 0x64C JUMPI PUSH1 0x60 ADD DUP3 DUP2 MLOAD AND ISZERO PUSH2 0x61B JUMPI MLOAD SWAP1 MLOAD SWAP1 DUP3 AND DUP9 EXTCODESIZE ISZERO PUSH2 0x617 JUMPI SWAP1 PUSH1 0x44 DUP9 SWAP3 DUP4 DUP8 MLOAD SWAP12 DUP13 SWAP5 DUP6 SWAP4 PUSH4 0xA9059CBB PUSH1 0xE0 SHL DUP6 MSTORE DUP10 DUP6 ADD MSTORE DUP11 DUP5 ADD MSTORE GAS CALL DUP1 ISZERO PUSH2 0x60D JUMPI PUSH2 0x5F7 JUMPI JUMPDEST DUP6 DUP1 SWAP8 POP SWAP5 SWAP6 SLOAD AND SWAP1 DUP2 EXTCODESIZE ISZERO PUSH2 0x1BD JUMPI PUSH1 0x44 DUP7 SWAP2 DUP7 DUP1 SWAP5 PUSH1 0x3 DUP8 MLOAD SWAP9 DUP10 SWAP7 DUP8 SWAP6 PUSH4 0x32FA5185 PUSH1 0xE2 SHL DUP8 MSTORE DUP7 ADD MSTORE DUP5 ADD MSTORE GAS CALL SWAP1 DUP2 ISZERO PUSH2 0x1B4 JUMPI POP PUSH2 0x5E3 JUMPI JUMPDEST POP DUP1 PUSH32 0x712AE1383F79AC853F8D882153778E0260EF8F03B504E2866E0593E04D2B291F SWAP2 LOG2 DUP1 RETURN JUMPDEST PUSH2 0x5EC SWAP1 PUSH2 0x773 JUMP JUMPDEST PUSH2 0x47A JUMPI DUP2 DUP4 PUSH2 0x5BB JUMP JUMPDEST SWAP4 SWAP5 SWAP1 SWAP6 PUSH2 0x604 SWAP1 PUSH2 0x773 JUMP JUMPDEST SWAP4 SWAP3 DUP6 SWAP1 PUSH2 0x57C JUMP JUMPDEST DUP4 MLOAD RETURNDATASIZE DUP9 DUP3 RETURNDATACOPY RETURNDATASIZE SWAP1 REVERT JUMPDEST DUP8 DUP1 REVERT JUMPDEST DUP5 MLOAD PUSH3 0x461BCD PUSH1 0xE5 SHL DUP2 MSTORE PUSH1 0x20 DUP2 DUP7 ADD MSTORE PUSH1 0xC DUP2 DUP9 ADD MSTORE PUSH12 0x139BC81C9958DA5C1A595B9D PUSH1 0xA2 SHL PUSH1 0x44 DUP3 ADD MSTORE PUSH1 0x64 SWAP1 REVERT JUMPDEST DUP5 MLOAD PUSH3 0x461BCD PUSH1 0xE5 SHL DUP2 MSTORE PUSH1 0x20 DUP2 DUP7 ADD MSTORE PUSH1 0x14 DUP2 DUP9 ADD MSTORE PUSH20 0x496E73756666696369656E742062616C616E6365 PUSH1 0x60 SHL PUSH1 0x44 DUP3 ADD MSTORE PUSH1 0x64 SWAP1 REVERT JUMPDEST DUP4 MLOAD PUSH3 0x461BCD PUSH1 0xE5 SHL DUP2 MSTORE PUSH1 0x20 DUP2 DUP6 ADD MSTORE PUSH1 0x13 DUP2 DUP8 ADD MSTORE PUSH19 0x139BC8185B5BDD5B9D081CDC1958DA599A5959 PUSH1 0x6A SHL PUSH1 0x44 DUP3 ADD MSTORE PUSH1 0x64 SWAP1 REVERT JUMPDEST PUSH4 0x4E487B71 PUSH1 0xE0 SHL DUP8 MSTORE PUSH1 0x21 DUP4 MSTORE DUP5 DUP8 REVERT JUMPDEST PUSH2 0x6E4 SWAP2 SWAP8 POP RETURNDATASIZE DUP1 DUP9 DUP4 RETURNDATACOPY PUSH2 0x22C DUP2 DUP4 PUSH2 0x7B9 JUMP JUMPDEST SWAP6 DUP8 PUSH2 0x504 JUMP JUMPDEST POP POP REVERT JUMPDEST DUP5 SWAP1 CALLVALUE PUSH2 0x47A JUMPI DUP2 PUSH1 0x3 NOT CALLDATASIZE ADD SLT PUSH2 0x47A JUMPI PUSH1 0x2 SLOAD PUSH1 0x1 PUSH1 0x1 PUSH1 0xA0 SHL SUB AND DUP2 MSTORE PUSH1 0x20 SWAP1 RETURN JUMPDEST ISZERO PUSH2 0x71B JUMPI JUMP JUMPDEST PUSH1 0x40 MLOAD PUSH3 0x461BCD PUSH1 0xE5 SHL DUP2 MSTORE PUSH1 0x20 PUSH1 0x4 DUP3 ADD MSTORE PUSH1 0x2A PUSH1 0x24 DUP3 ADD MSTORE PUSH32 0x457865637574696F6E3A206F6E6C792044414F2063616E2063616C6C20746869 PUSH1 0x44 DUP3 ADD MSTORE PUSH10 0x3990333AB731BA34B7B7 PUSH1 0xB1 SHL PUSH1 0x64 DUP3 ADD MSTORE PUSH1 0x84 SWAP1 REVERT JUMPDEST PUSH8 0xFFFFFFFFFFFFFFFF DUP2 GT PUSH2 0x787 JUMPI PUSH1 0x40 MSTORE JUMP JUMPDEST PUSH4 0x4E487B71 PUSH1 0xE0 SHL PUSH1 0x0 MSTORE PUSH1 0x41 PUSH1 0x4 MSTORE PUSH1 0x24 PUSH1 0x0 REVERT JUMPDEST PUSH1 0x40 DUP2 ADD SWAP1 DUP2 LT PUSH8 0xFFFFFFFFFFFFFFFF DUP3 GT OR PUSH2 0x787 JUMPI PUSH1 0x40 MSTORE JUMP JUMPDEST SWAP1 PUSH1 0x1F DUP1 NOT SWAP2 ADD AND DUP2 ADD SWAP1 DUP2 LT PUSH8 0xFFFFFFFFFFFFFFFF DUP3 GT OR PUSH2 0x787 JUMPI PUSH1 0x40 MSTORE JUMP JUMPDEST PUSH1 0x0 JUMPDEST DUP4 DUP2 LT PUSH2 0x7EE JUMPI POP POP PUSH1 0x0 SWAP2 ADD MSTORE JUMP JUMPDEST DUP2 DUP2 ADD MLOAD DUP4 DUP3 ADD MSTORE PUSH1 0x20 ADD PUSH2 0x7DE JUMP JUMPDEST DUP2 PUSH1 0x1F DUP3 ADD SLT ISZERO PUSH2 0x853 JUMPI DUP1 MLOAD PUSH8 0xFFFFFFFFFFFFFFFF DUP2 GT PUSH2 0x787 JUMPI PUSH1 0x40 MLOAD SWAP3 PUSH2 0x832 PUSH1 0x1F DUP4 ADD PUSH1 0x1F NOT AND PUSH1 0x20 ADD DUP6 PUSH2 0x7B9 JUMP JUMPDEST DUP2 DUP5 MSTORE PUSH1 0x20 DUP3 DUP5 ADD ADD GT PUSH2 0x853 JUMPI PUSH2 0x850 SWAP2 PUSH1 0x20 DUP1 DUP6 ADD SWAP2 ADD PUSH2 0x7DB JUMP JUMPDEST SWAP1 JUMP JUMPDEST PUSH1 0x0 DUP1 REVERT JUMPDEST MLOAD SWAP1 PUSH1 0x1 PUSH1 0x1 PUSH1 0xA0 SHL SUB DUP3 AND DUP3 SUB PUSH2 0x853 JUMPI JUMP JUMPDEST SWAP1 PUSH1 0x20 DUP3 DUP3 SUB SLT PUSH2 0x853 JUMPI DUP2 MLOAD PUSH8 0xFFFFFFFFFFFFFFFF SWAP3 DUP4 DUP3 GT PUSH2 0x853 JUMPI ADD SWAP1 PUSH2 0x1E0 SWAP3 DUP4 DUP4 DUP4 SUB SLT PUSH2 0x853 JUMPI PUSH1 0x40 MLOAD SWAP4 DUP5 ADD DUP5 DUP2 LT DUP3 DUP3 GT OR PUSH2 0x787 JUMPI PUSH1 0x40 MSTORE DUP3 MLOAD DUP2 DUP2 GT PUSH2 0x853 JUMPI DUP3 PUSH2 0x8C2 SWAP2 DUP6 ADD PUSH2 0x7FE JUMP JUMPDEST DUP5 MSTORE PUSH1 0x20 DUP4 ADD MLOAD DUP2 DUP2 GT PUSH2 0x853 JUMPI DUP3 PUSH2 0x8DC SWAP2 DUP6 ADD PUSH2 0x7FE JUMP JUMPDEST PUSH1 0x20 DUP6 ADD MSTORE PUSH1 0x40 DUP4 DUP2 ADD MLOAD SWAP1 DUP6 ADD MSTORE PUSH1 0x60 DUP4 ADD MLOAD PUSH1 0x1 PUSH1 0x1 PUSH1 0xA0 SHL SUB DUP2 AND DUP2 SUB PUSH2 0x853 JUMPI PUSH1 0x60 DUP6 ADD MSTORE PUSH1 0x80 DUP4 ADD MLOAD PUSH1 0x4 DUP2 LT ISZERO PUSH2 0x853 JUMPI PUSH1 0x80 DUP6 ADD MSTORE PUSH1 0xA0 DUP4 ADD MLOAD PUSH1 0xA0 DUP6 ADD MSTORE PUSH1 0xC0 DUP4 ADD MLOAD PUSH1 0xC0 DUP6 ADD MSTORE PUSH1 0xE0 DUP4 ADD MLOAD PUSH1 0xE0 DUP6 ADD MSTORE PUSH2 0x100 DUP1 DUP5 ADD MLOAD SWAP1 DUP6 ADD MSTORE PUSH2 0x120 PUSH2 0x94F DUP2 DUP6 ADD PUSH2 0x858 JUMP JUMPDEST SWAP1 DUP6 ADD MSTORE PUSH2 0x140 DUP1 DUP5 ADD MLOAD SWAP1 DUP2 ISZERO ISZERO DUP3 SUB PUSH2 0x853 JUMPI DUP6 ADD MSTORE PUSH2 0x160 SWAP2 DUP3 DUP5 ADD MLOAD SWAP2 DUP3 GT PUSH2 0x853 JUMPI PUSH2 0x981 SWAP2 DUP5 ADD PUSH2 0x7FE JUMP JUMPDEST SWAP1 DUP4 ADD MSTORE PUSH2 0x180 DUP1 DUP3 ADD MLOAD SWAP1 DUP4 ADD MSTORE PUSH2 0x1A0 DUP1 DUP3 ADD MLOAD SWAP1 DUP4 ADD MSTORE PUSH2 0x9A9 PUSH2 0x1C0 DUP1 SWAP3 ADD PUSH2 0x858 JUMP JUMPDEST SWAP1 DUP3 ADD MSTORE SWAP1 JUMP JUMPDEST ISZERO PUSH2 0x9B7 JUMPI JUMP JUMPDEST PUSH1 0x40 MLOAD PUSH3 0x461BCD PUSH1 0xE5 SHL DUP2 MSTORE PUSH1 0x20 PUSH1 0x4 DUP3 ADD MSTORE PUSH1 0x13 PUSH1 0x24 DUP3 ADD MSTORE PUSH19 0x141C9BDC1BDCD85B081B9BDD081C185CDCD959 PUSH1 0x6A SHL PUSH1 0x44 DUP3 ADD MSTORE PUSH1 0x64 SWAP1 REVERT INVALID LOG2 PUSH5 0x6970667358 0x22 SLT KECCAK256 0xAC PUSH26 0x514BDC6833DE3EC360B0F87302E2F3202FF370ECB83B37B3B666 SLOAD 0xBD 0xAC 0xFC PUSH5 0x736F6C6343 STOP ADDMOD EQ STOP CALLER "},"methodIdentifiers":{"daoAddress()":"2131c68c","executeMemberExpel(uint256)":"e8ce772d","executePayout(uint256)":"21814f90","executeRuleChange(uint256)":"de1b293a","proposalContract()":"3aef3900","vaultContract()":"2274346b"}}}}}