{"contracts/DAO.sol":{"DAO":{"abi":[{"inputs":[{"internalType":"address","name":"_proposal","type":"address"},{"internalType":"address","name":"_vault","type":"address"},{"internalType":"address","name":"_execution","type":"address"},{"internalType":"uint256","name":"_passCriteria","type":"uint256"},{"internalType":"uint256","name":"_votingDurationInSeconds","type":"uint256"},{"internalType":"uint256","name":"_absentPenaltyInWei","type":"uint256"},{"internalType":"uint256","name":"_countToExpel","type":"uint256"},{"internalType":"uint256","name":"_scoreToExpel","type":"uint256"},{"internalType":"uint256","name":"_entryFeeInWei","type":"uint256"},{"internalType":"bool","name":"_isPrivate","type":"bool"},{"internalType":"string","name":"_inviteCode","type":"string"}],"stateMutability":"nonpayable","type":"constructor"},{"anonymous":false,"inputs":[{"indexed":true,"internalType":"uint256","name":"proposalId","type":"uint256"}],"name":"ProposalPassed","type":"event"},{"anonymous":false,"inputs":[{"indexed":true,"internalType":"uint256","name":"proposalId","type":"uint256"}],"name":"ProposalRejected","type":"event"},{"inputs":[],"name":"absentPenalty","outputs":[{"internalType":"uint256","name":"","type":"uint256"}],"stateMutability":"view","type":"function"},{"inputs":[],"name":"countToExpel","outputs":[{"internalType":"uint256","name":"","type":"uint256"}],"stateMutability":"view","type":"function"},{"inputs":[{"internalType":"string","name":"title","type":"string"},{"internalType":"string","name":"description","type":"string"},{"internalType":"uint256","name":"amount","type":"uint256"},{"internalType":"address payable","name":"recipient","type":"address"},{"internalType":"bool","name":"requireVote","type":"bool"},{"internalType":"string","name":"sanctionType","type":"string"},{"internalType":"uint256","name":"beforeValue","type":"uint256"},{"internalType":"uint256","name":"afterValue","type":"uint256"},{"internalType":"address","name":"targetMember","type":"address"}],"name":"createProposal","outputs":[{"internalType":"uint256","name":"","type":"uint256"}],"stateMutability":"nonpayable","type":"function"},{"inputs":[],"name":"entryFee","outputs":[{"internalType":"uint256","name":"","type":"uint256"}],"stateMutability":"view","type":"function"},{"inputs":[],"name":"executionContract","outputs":[{"internalType":"contract Execution","name":"","type":"address"}],"stateMutability":"view","type":"function"},{"inputs":[{"internalType":"uint256","name":"proposalId","type":"uint256"}],"name":"finalizeProposal","outputs":[],"stateMutability":"nonpayable","type":"function"},{"inputs":[],"name":"getAllMembers","outputs":[{"internalType":"address[]","name":"","type":"address[]"}],"stateMutability":"view","type":"function"},{"inputs":[],"name":"getMemberCount","outputs":[{"internalType":"uint256","name":"","type":"uint256"}],"stateMutability":"view","type":"function"},{"inputs":[],"name":"getTreasuryBalance","outputs":[{"internalType":"uint256","name":"","type":"uint256"}],"stateMutability":"view","type":"function"},{"inputs":[],"name":"inviteCodeHash","outputs":[{"internalType":"bytes32","name":"","type":"bytes32"}],"stateMutability":"view","type":"function"},{"inputs":[{"internalType":"address","name":"user","type":"address"}],"name":"isMember","outputs":[{"internalType":"bool","name":"","type":"bool"}],"stateMutability":"view","type":"function"},{"inputs":[],"name":"isPrivate","outputs":[{"internalType":"bool","name":"","type":"bool"}],"stateMutability":"view","type":"function"},{"inputs":[],"name":"joinDAO","outputs":[],"stateMutability":"payable","type":"function"},{"inputs":[{"internalType":"string","name":"_inviteCode","type":"string"}],"name":"joinDAOWithCode","outputs":[],"stateMutability":"payable","type":"function"},{"inputs":[],"name":"passCriteria","outputs":[{"internalType":"uint256","name":"","type":"uint256"}],"stateMutability":"view","type":"function"},{"inputs":[],"name":"proposalContract","outputs":[{"internalType":"contract Proposal","name":"","type":"address"}],"stateMutability":"view","type":"function"},{"inputs":[{"internalType":"uint256","name":"","type":"uint256"}],"name":"proposalDeadline","outputs":[{"internalType":"uint256","name":"","type":"uint256"}],"stateMutability":"view","type":"function"},{"inputs":[{"internalType":"uint256","name":"","type":"uint256"}],"name":"proposalExecuted","outputs":[{"internalType":"bool","name":"","type":"bool"}],"stateMutability":"view","type":"function"},{"inputs":[],"name":"scoreToExpel","outputs":[{"internalType":"uint256","name":"","type":"uint256"}],"stateMutability":"view","type":"function"},{"inputs":[],"name":"vaultContract","outputs":[{"internalType":"contract Vault","name":"","type":"address"}],"stateMutability":"view","type":"function"},{"inputs":[{"internalType":"uint256","name":"proposalId","type":"uint256"},{"internalType":"uint8","name":"choice","type":"uint8"}],"name":"vote","outputs":[],"stateMutability":"nonpayable","type":"function"},{"inputs":[],"name":"votingDuration","outputs":[{"internalType":"uint256","name":"","type":"uint256"}],"stateMutability":"view","type":"function"},{"stateMutability":"payable","type":"receive"}],"evm":{"bytecode":{"linkReferences":{},"object":"60808060405234620001a75762001f3c908138038092620000218284620001c2565b8239610160818381010312620001a7576200003c81620001e6565b6200004a60208301620001e6565b6200005860408401620001e6565b916060840151608085015160a08601519060c08701519260e088015194610100890151966101208a0151988915158a03620001a7576101408b01519a6001600160401b03808d11620001a757818e01828e01601f011215620001a7578c820151908111620001ac576040519c60208e620000dc601f8501601f1916830182620001c2565b838152019e8301602083838601010111620001a75760208f9162000102940101620001fb565b60018060a01b0380928160018060a01b03199516856000541617600055168360015416176001551690600254161760025560035560045560055560065560075560085560ff196009541660ff82151516176009556200016c575b604051611d1b9081620002218239f35b62000199602060405180936200018b83830196879251928391620001fb565b8101038084520182620001c2565b519020600a5538806200015c565b600080fd5b634e487b7160e01b600052604160045260246000fd5b601f909101601f19168101906001600160401b03821190821017620001ac57604052565b51906001600160a01b0382168203620001a757565b60005b8381106200020f5750506000910152565b8181015183820152602001620001fe56fe6080604052600436101561001b575b361561001957600080fd5b005b60003560e01c806243b3d81461114a578063072ea61c1461112c5780630fd2e6f91461110e578063103616e8146110dd578063132002fc146110bf5780632274346b146110965780633aef39001461106d57806352bc9e821461104f5780635652077c14610a245780637c0f6b351461097a578063943e8216146107f7578063997072f7146107a85780639b5655dc146107275780639f1f43af14610709578063a230c52414610610578063bc2914b51461024a578063bdf91db51461022c578063c01f9e3714610200578063cf5cbd69146101e2578063e0e93244146101b9578063f63d13d7146101395763faff660e0361000e573461013457600036600319011261013457602060ff600954166040519015158152f35b600080fd5b60003660031901126101345760ff6009541661015857610019346113aa565b60405162461bcd60e51b815260206004820152603360248201527f54686973206973206120707269766174652044414f2e20557365206a6f696e4460448201527220a7abb4ba3421b7b2329034b739ba32b0b21760691b6064820152608490fd5b34610134576000366003190112610134576002546040516001600160a01b039091168152602090f35b34610134576000366003190112610134576020600a54604051908152f35b3461013457602036600319011261013457600435600052600b6020526020604060002054604051908152f35b34610134576000366003190112610134576020600554604051908152f35b3461013457610120366003190112610134576004356001600160401b0381116101345761027b903690600401611304565b906024356001600160401b0381116101345761029b903690600401611304565b9092909190606435906001600160a01b0382168203610134576084351515608435036101345760a4356001600160401b038111610134576102e0903690600401611304565b610104359291906001600160a01b038416840361013457600054604051635087a34f60e11b81526001600160a01b0390911695906020816004818a5afa90811561053e576000916105dd575b50602061034f9160405180938192632474521560e21b8352339060048401611361565b03818a5afa90811561053e576000916105a3575b501561056057604051966001600160401b0361012089019081119089111761054a576000996020996103a56103ae936103d9986101208d0160405236916112cd565b8a5236916112cd565b8789015260443560408801526001600160a01b031660608701526084351515608087015236916112cd565b60a084015260c43560c084015260e43560e084015260018060a01b0316610100830152604051809481809463664d54f560e11b82526040600483015261048a61043082516101206044860152610164850190611640565b61044b89840151916043199283878303016064880152611640565b6040840151608486015260608401516001600160a01b031660a48601526080840151151560c486015260a084015185820390920160e486015290611640565b60c082015161010484015260e0820151610124840152610100909101516001600160a01b031661014483015233602483015203925af1801561053e5760009061050b575b60209150608435156104fd576104e660045442611665565b81600052600b83526040600020555b604051908152f35b610506816118cf565b6104f5565b506020813d602011610536575b816105256020938361128f565b8101031261013457602090516104ce565b3d9150610518565b6040513d6000823e3d90fd5b634e487b7160e01b600052604160045260246000fd5b60405162461bcd60e51b815260206004820152601b60248201527a2220a79d1021b0b63632b91034b9903737ba10309036b2b6b132b960291b6044820152606490fd5b90506020813d6020116105d5575b816105be6020938361128f565b81010312610134576105cf90611354565b8a610363565b3d91506105b1565b90506020813d602011610608575b816105f86020938361128f565b810103126101345751602061032c565b3d91506105eb565b3461013457602080600319360112610134576004356001600160a01b03808216820361013457600054604051635087a34f60e11b81529116918382600481865afa801561053e5784926000916106d6575b509261068393604051809581948293632474521560e21b845260048401611361565b03915afa90811561053e576000916106a1575b506040519015158152f35b90508181813d83116106cf575b6106b8818361128f565b81010312610134576106c990611354565b82610696565b503d6106ae565b83819492503d8311610702575b6106ed818361128f565b81010312610134579051839190610683610661565b503d6106e3565b34610134576000366003190112610134576020600654604051908152f35b3461013457600036600319011261013457600154604051629032ff60e51b815290602090829060049082906001600160a01b03165afa801561053e57600090610776575b602090604051908152f35b506020813d82116107a0575b8161078f6020938361128f565b81010312610134576020905161076b565b3d9150610782565b346101345760003660031901126101345760005460405163997072f760e01b815290602090829060049082906001600160a01b03165afa801561053e5760009061077657602090604051908152f35b346101345760403660031901126101345760243560ff811680910361013457600054604051635087a34f60e11b81526001600160a01b0390911691906020908181600481875afa801561053e57829060009061094b575b604051632474521560e21b815292508290819061087090339060048401611361565b0381875afa90811561053e57600091610916575b50156108d55750813b1561013457600091606483926040519485938492630ce7fb8360e11b8452600435600485015260248401523360448401525af1801561053e576108cc57005b61001990611261565b6064906040519062461bcd60e51b82526004820152601a6024820152792220a79d21a0a62622a92fa4a9afa727aa2fa0afa6a2a6a122a960311b6044820152fd5b90508181813d8311610944575b61092d818361128f565b810103126101345761093e90611354565b84610884565b503d610923565b5081813d8311610973575b610960818361128f565b810103126101345781610870915161084e565b503d610956565b346101345760003660031901126101345760008054604051637c0f6b3560e01b81526001600160a01b039290918290600490829086165afa90811561053e57600091610a01575b506040519060208083018184528251809152816040850193019160005b8281106109eb5785850386f35b83518716855293810193928101926001016109de565b610a1e91503d806000833e610a16818361128f565b810190611822565b826109c1565b346101345760208060031936011261013457600080546040516318feeb1560e31b808252600480359083018190526024959490936001600160a01b0393908416929091828881865afa91821561053e57600092611032575b508161014081015115610ff65785600052600c875260ff60406000205416610fb5578060e0610ab760a0610ac094015160c084015190611665565b91015190611665565b9260405163997072f760e01b81528781600481855afa90811561053e57600091610f88575b508085109081159081610f7e575b508015610f55575b15610f1b5786600052600b8852604060002054908115159182610f11575b5081610f09575b50610c7f575b505081610c4d57505060005b60035411610bd2576000541692833b1561013457600160446000928360405197889485936332fa518560e21b85528860048601528401525af192831561053e57600c93610bc3575b50807fe36f8b7448daff4a52e2945db0d1d7a436279cc1d527a45c27835dcbd27f336d600080a2610baa816118cf565b600052526040600020600160ff19825416179055600080f35b610bcc90611261565b83610b7a565b6000541692833b1561013457600260446000928360405197889485936332fa518560e21b85528860048601528401525af192831561053e57600c93610c3e575b50807fd92fba445edb3153b571e6df782d7a66fd0ce668519273670820ee3a86da0ef4600080a2610baa565b610c4790611261565b83610c12565b60a00151606481029080820460641490151715610c6a5704610b32565b85634e487b7160e01b60005260116004526000fd5b60049493506000919695925060405194858092637c0f6b3560e01b82525afa92831561053e57600093610eec575b5060005b8351811015610e79578260005416610cec8685610cce85896118a5565b516040516362d4f89360e01b81529384928392168860048401611361565b0381855afa90811561053e57600091610e44575b5015610d2e575b506000198114610d1957600101610cb1565b86634e487b7160e01b60005260116004526000fd5b83610d3983876118a5565b5116813b15610134576000918983926040519485938492635d437b8560e11b845260048401525af1801561053e57610e35575b50826000541683610d7d83876118a5565b511690803b156101345760405163a462e50f60e01b8152916000918391829084908290610dae908a60048401611361565b03925af1801561053e57610e26575b5060008080808660015416600554905af1610dd661137a565b5015610de25787610d07565b60405162461bcd60e51b815260048101869052601f818901527f4661696c656420746f2073656e642070656e616c747920746f207661756c74006044820152606490fd5b610e2f90611261565b87610dbd565b610e3e90611261565b87610d6c565b90508681813d8311610e72575b610e5b818361128f565b8101031261013457610e6c90611354565b89610d00565b503d610e51565b50929390915060008281541691866040518094819382528760048301525afa90811561053e57600091610ec9575b50610ec18160e0610ab760a083015160c084015190611665565b908680610b26565b610ee691503d806000833e610ede818361128f565b8101906116e1565b85610ea7565b610f029193503d806000833e610a16818361128f565b9186610cad565b905089610b20565b421191508a610b19565b60405162461bcd60e51b8152600481018990526013818b01527210d85b9b9bdd08199a5b985b1a5e99481e595d606a1b6044820152606490fd5b5086600052600b88526040600020548015159081610f74575b50610afb565b905042118a610f6e565b905015158a610af3565b90508781813d8311610fae575b610f9f818361128f565b81010312610134575189610ae5565b503d610f95565b60405162461bcd60e51b815260048101889052601a818a015279141c9bdc1bdcd85b08185b1c9958591e48199a5b985b1a5e995960321b6044820152606490fd5b60405162461bcd60e51b8152600481018890526015818a015274139bdd0818481d9bdd1a5b99c81c1c9bdc1bdcd85b605a1b6044820152606490fd5b6110489192503d806000833e610ede818361128f565b9087610a7c565b34610134576000366003190112610134576020600754604051908152f35b34610134576000366003190112610134576000546040516001600160a01b039091168152602090f35b34610134576000366003190112610134576001546040516001600160a01b039091168152602090f35b34610134576000366003190112610134576020600454604051908152f35b3461013457602036600319011261013457600435600052600c602052602060ff604060002054166040519015158152f35b34610134576000366003190112610134576020600354604051908152f35b34610134576000366003190112610134576020600854604051908152f35b602080600319360112610134576004356001600160401b0381116101345736602382011215610134576111879036906024816004013591016112cd565b60ff6009541615611209576040516111bb8382816111ae8183019687815193849201611331565b810103808452018261128f565b519020600a54036111cf57610019346113aa565b6064906040519062461bcd60e51b825260048201526013602482015272496e76616c696420696e7669746520636f646560681b6044820152fd5b60405162461bcd60e51b815260048101839052602a60248201527f546869732069732061207075626c69632044414f2e20557365206a6f696e4441604482015269279034b739ba32b0b21760b11b6064820152608490fd5b6001600160401b03811161054a57604052565b604081019081106001600160401b0382111761054a57604052565b601f909101601f19168101906001600160401b0382119082101761054a57604052565b6001600160401b03811161054a57601f01601f191660200190565b9291926112d9826112b2565b916112e7604051938461128f565b829481845281830111610134578281602093846000960137010152565b9181601f84011215610134578235916001600160401b038311610134576020838186019501011161013457565b60005b8381106113445750506000910152565b8181015183820152602001611334565b5190811515820361013457565b9081526001600160a01b03909116602082015260400190565b3d156113a5573d9061138b826112b2565b91611399604051938461128f565b82523d6000602084013e565b606090565b906008548210611602576000805460408051635087a34f60e11b80825260049692949390926020926001600160a01b039283169084818b81855afa9081156115f85785918b9189916115bf575b5092611418938a51809581948293632474521560e21b845233918401611361565b03915afa9081156115b557869161157c575b5061154657848080809385600154165af161144361137a565b50156114f95783541691845190815281818881865afa9182156114ef5784926114c1575b5050813b156114bd579482916114949596838651809881958294632f2ff15d60e01b845233918401611361565b03925af19182156114b35750506114a85750565b6114b190611261565b565b51903d90823e3d90fd5b8280fd5b90809250813d83116114e8575b6114d8818361128f565b810103126114bd57513880611467565b503d6114ce565b85513d86823e3d90fd5b845162461bcd60e51b8152808801839052602160248201527f4661696c656420746f2073656e6420656e7472792066656520746f207661756c6044820152601d60fa1b6064820152608490fd5b855162461bcd60e51b8152808901849052601060248201526f20b63932b0b23c90309036b2b6b132b960811b6044820152606490fd5b90508381813d83116115ae575b611593818361128f565b810103126115aa576115a490611354565b3861142a565b8580fd5b503d611589565b87513d88823e3d90fd5b928092508391503d83116115f1575b6115d8818361128f565b810103126115ed575184908a906114186113f7565b8680fd5b503d6115ce565b88513d89823e3d90fd5b60405162461bcd60e51b8152602060048201526016602482015275496e73756666696369656e7420656e7472792066656560501b6044820152606490fd5b9060209161165981518092818552858086019101611331565b601f01601f1916010190565b9190820180921161167257565b634e487b7160e01b600052601160045260246000fd5b81601f8201121561013457805161169e816112b2565b926116ac604051948561128f565b81845260208284010111610134576116ca9160208085019101611331565b90565b51906001600160a01b038216820361013457565b906020828203126101345781516001600160401b03928382116101345701906101e0928383830312610134576040519384018481108282111761054a5760405282518181116101345782611736918501611688565b845260208301518181116101345782611750918501611688565b60208501526040838101519085015260608301516001600160a01b03811681036101345760608501526080830151600481101561013457608085015260a083015160a085015260c083015160c085015260e083015160e085015261010080840151908501526101206117c38185016116cd565b908501526101406117d5818501611354565b908501526101609182840151918211610134576117f3918401611688565b9083015261018080820151908301526101a0808201519083015261181b6101c08092016116cd565b9082015290565b9060209081838203126101345782516001600160401b0393848211610134570181601f8201121561013457805193841161054a578360051b906040519461186b8584018761128f565b85528380860192820101928311610134578301905b82821061188e575050505090565b83809161189a846116cd565b815201910190611880565b80518210156118b95760209160051b010190565b634e487b7160e01b600052603260045260246000fd5b60018060a01b0360009181835416916024846040948551928380926318feeb1560e31b82528760048301525afa908115611d04578591611cea575b5061016081018051908551916020926119328482816111ae8183019687815193849201611331565b5190208651838101906a3a3932b0b9bab93c96b4b760a91b8252600b815261195981611274565b519020036119a2575050506002541690813b1561199e5783916024839285519687938492637026e9fd60e01b845260048401525af19182156114b35750506114a85750565b8380fd5b805186516119bf8482816111ae8183019687815193849201611331565b5190208651838101906b1d1c99585cdd5c9e4b5bdd5d60a21b8252600c81526119e781611274565b51902003611a2c575050506002541690813b1561199e578391602483928551968793849263021814f960e41b845260048401525af19182156114b35750506114a85750565b959290939195518551611a4e8682816111ae8183019687815193849201611331565b5190208551858101906a72756c652d6368616e676560a81b8252600b8152611a7581611274565b51902014611a86575b505050505050565b6002541690813b156114bd5782916024839287519586938492636f0d949d60e11b845260048401525af1908115611cdf5750611cd0575b506101a0835193015192825190828201815192611ae48582818601966111ae81878a611331565b5190208451848101906b70617373437269746572696160a01b8252600c8152611b0c81611274565b51902003611b2757505050506003555b388080808080611a7e565b835183810190611b3f858285516111ae81878a611331565b5190208451848101906d3b37ba34b733a23ab930ba34b7b760911b8252600e8152611b6981611274565b51902003611b7d5750505050600455611b1c565b835183810190611b95858285516111ae81878a611331565b5190208451848101906c616273656e7450656e616c747960981b8252600d8152611bbe81611274565b51902003611bd25750505050600555611b1c565b835183810190611bea858285516111ae81878a611331565b5190208451848101906b18dbdd5b9d151bd15e1c195b60a21b8252600c8152611c1281611274565b51902003611c265750505050600655611b1c565b835183810190611c3e858285516111ae81878a611331565b5190208451848101906b1cd8dbdc99551bd15e1c195b60a21b8252600c8152611c6681611274565b51902003611c7a5750505050600755611b1c565b611c9483855180936111ae83830196879251928391611331565b51902091519081019067656e74727946656560c01b825260088152611cb881611274565b51902014611cc7575b50611b1c565b60085538611cc1565b611cd990611261565b38611abd565b8451903d90823e3d90fd5b611cfe91503d8087833e610ede818361128f565b3861190a565b84513d87823e3d90fdfea164736f6c6343000814000a","opcodes":"PUSH1 0x80 DUP1 PUSH1 0x40 MSTORE CALLVALUE PUSH3 0x1A7 JUMPI PUSH3 0x1F3C SWAP1 DUP2 CODESIZE SUB DUP1 SWAP3 PUSH3 0x21 DUP3 DUP5 PUSH3 0x1C2 JUMP JUMPDEST DUP3 CODECOPY PUSH2 0x160 DUP2 DUP4 DUP2 ADD SUB SLT PUSH3 0x1A7 JUMPI PUSH3 0x3C DUP2 PUSH3 0x1E6 JUMP JUMPDEST PUSH3 0x4A PUSH1 0x20 DUP4 ADD PUSH3 0x1E6 JUMP JUMPDEST PUSH3 0x58 PUSH1 0x40 DUP5 ADD PUSH3 0x1E6 JUMP JUMPDEST SWAP2 PUSH1 0x60 DUP5 ADD MLOAD PUSH1 0x80 DUP6 ADD MLOAD PUSH1 0xA0 DUP7 ADD MLOAD SWAP1 PUSH1 0xC0 DUP8 ADD MLOAD SWAP3 PUSH1 0xE0 DUP9 ADD MLOAD SWAP5 PUSH2 0x100 DUP10 ADD MLOAD SWAP7 PUSH2 0x120 DUP11 ADD MLOAD SWAP9 DUP10 ISZERO ISZERO DUP11 SUB PUSH3 0x1A7 JUMPI PUSH2 0x140 DUP12 ADD MLOAD SWAP11 PUSH1 0x1 PUSH1 0x1 PUSH1 0x40 SHL SUB DUP1 DUP14 GT PUSH3 0x1A7 JUMPI DUP2 DUP15 ADD DUP3 DUP15 ADD PUSH1 0x1F ADD SLT ISZERO PUSH3 0x1A7 JUMPI DUP13 DUP3 ADD MLOAD SWAP1 DUP2 GT PUSH3 0x1AC JUMPI PUSH1 0x40 MLOAD SWAP13 PUSH1 0x20 DUP15 PUSH3 0xDC PUSH1 0x1F DUP6 ADD PUSH1 0x1F NOT AND DUP4 ADD DUP3 PUSH3 0x1C2 JUMP JUMPDEST DUP4 DUP2 MSTORE ADD SWAP15 DUP4 ADD PUSH1 0x20 DUP4 DUP4 DUP7 ADD ADD ADD GT PUSH3 0x1A7 JUMPI PUSH1 0x20 DUP16 SWAP2 PUSH3 0x102 SWAP5 ADD ADD PUSH3 0x1FB JUMP JUMPDEST PUSH1 0x1 DUP1 PUSH1 0xA0 SHL SUB DUP1 SWAP3 DUP2 PUSH1 0x1 DUP1 PUSH1 0xA0 SHL SUB NOT SWAP6 AND DUP6 PUSH1 0x0 SLOAD AND OR PUSH1 0x0 SSTORE AND DUP4 PUSH1 0x1 SLOAD AND OR PUSH1 0x1 SSTORE AND SWAP1 PUSH1 0x2 SLOAD AND OR PUSH1 0x2 SSTORE PUSH1 0x3 SSTORE PUSH1 0x4 SSTORE PUSH1 0x5 SSTORE PUSH1 0x6 SSTORE PUSH1 0x7 SSTORE PUSH1 0x8 SSTORE PUSH1 0xFF NOT PUSH1 0x9 SLOAD AND PUSH1 0xFF DUP3 ISZERO ISZERO AND OR PUSH1 0x9 SSTORE PUSH3 0x16C JUMPI JUMPDEST PUSH1 0x40 MLOAD PUSH2 0x1D1B SWAP1 DUP2 PUSH3 0x221 DUP3 CODECOPY RETURN JUMPDEST PUSH3 0x199 PUSH1 0x20 PUSH1 0x40 MLOAD DUP1 SWAP4 PUSH3 0x18B DUP4 DUP4 ADD SWAP7 DUP8 SWAP3 MLOAD SWAP3 DUP4 SWAP2 PUSH3 0x1FB JUMP JUMPDEST DUP2 ADD SUB DUP1 DUP5 MSTORE ADD DUP3 PUSH3 0x1C2 JUMP JUMPDEST MLOAD SWAP1 KECCAK256 PUSH1 0xA SSTORE CODESIZE DUP1 PUSH3 0x15C JUMP JUMPDEST PUSH1 0x0 DUP1 REVERT JUMPDEST PUSH4 0x4E487B71 PUSH1 0xE0 SHL PUSH1 0x0 MSTORE PUSH1 0x41 PUSH1 0x4 MSTORE PUSH1 0x24 PUSH1 0x0 REVERT JUMPDEST PUSH1 0x1F SWAP1 SWAP2 ADD PUSH1 0x1F NOT AND DUP2 ADD SWAP1 PUSH1 0x1 PUSH1 0x1 PUSH1 0x40 SHL SUB DUP3 GT SWAP1 DUP3 LT OR PUSH3 0x1AC JUMPI PUSH1 0x40 MSTORE JUMP JUMPDEST MLOAD SWAP1 PUSH1 0x1 PUSH1 0x1 PUSH1 0xA0 SHL SUB DUP3 AND DUP3 SUB PUSH3 0x1A7 JUMPI JUMP JUMPDEST PUSH1 0x0 JUMPDEST DUP4 DUP2 LT PUSH3 0x20F JUMPI POP POP PUSH1 0x0 SWAP2 ADD MSTORE JUMP JUMPDEST DUP2 DUP2 ADD MLOAD DUP4 DUP3 ADD MSTORE PUSH1 0x20 ADD PUSH3 0x1FE JUMP INVALID PUSH1 0x80 PUSH1 0x40 MSTORE PUSH1 0x4 CALLDATASIZE LT ISZERO PUSH2 0x1B JUMPI JUMPDEST CALLDATASIZE ISZERO PUSH2 0x19 JUMPI PUSH1 0x0 DUP1 REVERT JUMPDEST STOP JUMPDEST PUSH1 0x0 CALLDATALOAD PUSH1 0xE0 SHR DUP1 PUSH3 0x43B3D8 EQ PUSH2 0x114A JUMPI DUP1 PUSH4 0x72EA61C EQ PUSH2 0x112C JUMPI DUP1 PUSH4 0xFD2E6F9 EQ PUSH2 0x110E JUMPI DUP1 PUSH4 0x103616E8 EQ PUSH2 0x10DD JUMPI DUP1 PUSH4 0x132002FC EQ PUSH2 0x10BF JUMPI DUP1 PUSH4 0x2274346B EQ PUSH2 0x1096 JUMPI DUP1 PUSH4 0x3AEF3900 EQ PUSH2 0x106D JUMPI DUP1 PUSH4 0x52BC9E82 EQ PUSH2 0x104F JUMPI DUP1 PUSH4 0x5652077C EQ PUSH2 0xA24 JUMPI DUP1 PUSH4 0x7C0F6B35 EQ PUSH2 0x97A JUMPI DUP1 PUSH4 0x943E8216 EQ PUSH2 0x7F7 JUMPI DUP1 PUSH4 0x997072F7 EQ PUSH2 0x7A8 JUMPI DUP1 PUSH4 0x9B5655DC EQ PUSH2 0x727 JUMPI DUP1 PUSH4 0x9F1F43AF EQ PUSH2 0x709 JUMPI DUP1 PUSH4 0xA230C524 EQ PUSH2 0x610 JUMPI DUP1 PUSH4 0xBC2914B5 EQ PUSH2 0x24A JUMPI DUP1 PUSH4 0xBDF91DB5 EQ PUSH2 0x22C JUMPI DUP1 PUSH4 0xC01F9E37 EQ PUSH2 0x200 JUMPI DUP1 PUSH4 0xCF5CBD69 EQ PUSH2 0x1E2 JUMPI DUP1 PUSH4 0xE0E93244 EQ PUSH2 0x1B9 JUMPI DUP1 PUSH4 0xF63D13D7 EQ PUSH2 0x139 JUMPI PUSH4 0xFAFF660E SUB PUSH2 0xE JUMPI CALLVALUE PUSH2 0x134 JUMPI PUSH1 0x0 CALLDATASIZE PUSH1 0x3 NOT ADD SLT PUSH2 0x134 JUMPI PUSH1 0x20 PUSH1 0xFF PUSH1 0x9 SLOAD AND PUSH1 0x40 MLOAD SWAP1 ISZERO ISZERO DUP2 MSTORE RETURN JUMPDEST PUSH1 0x0 DUP1 REVERT JUMPDEST PUSH1 0x0 CALLDATASIZE PUSH1 0x3 NOT ADD SLT PUSH2 0x134 JUMPI PUSH1 0xFF PUSH1 0x9 SLOAD AND PUSH2 0x158 JUMPI PUSH2 0x19 CALLVALUE PUSH2 0x13AA JUMP JUMPDEST PUSH1 0x40 MLOAD PUSH3 0x461BCD PUSH1 0xE5 SHL DUP2 MSTORE PUSH1 0x20 PUSH1 0x4 DUP3 ADD MSTORE PUSH1 0x33 PUSH1 0x24 DUP3 ADD MSTORE PUSH32 0x54686973206973206120707269766174652044414F2E20557365206A6F696E44 PUSH1 0x44 DUP3 ADD MSTORE PUSH19 0x20A7ABB4BA3421B7B2329034B739BA32B0B217 PUSH1 0x69 SHL PUSH1 0x64 DUP3 ADD MSTORE PUSH1 0x84 SWAP1 REVERT JUMPDEST CALLVALUE PUSH2 0x134 JUMPI PUSH1 0x0 CALLDATASIZE PUSH1 0x3 NOT ADD SLT PUSH2 0x134 JUMPI PUSH1 0x2 SLOAD PUSH1 0x40 MLOAD PUSH1 0x1 PUSH1 0x1 PUSH1 0xA0 SHL SUB SWAP1 SWAP2 AND DUP2 MSTORE PUSH1 0x20 SWAP1 RETURN JUMPDEST CALLVALUE PUSH2 0x134 JUMPI PUSH1 0x0 CALLDATASIZE PUSH1 0x3 NOT ADD SLT PUSH2 0x134 JUMPI PUSH1 0x20 PUSH1 0xA SLOAD PUSH1 0x40 MLOAD SWAP1 DUP2 MSTORE RETURN JUMPDEST CALLVALUE PUSH2 0x134 JUMPI PUSH1 0x20 CALLDATASIZE PUSH1 0x3 NOT ADD SLT PUSH2 0x134 JUMPI PUSH1 0x4 CALLDATALOAD PUSH1 0x0 MSTORE PUSH1 0xB PUSH1 0x20 MSTORE PUSH1 0x20 PUSH1 0x40 PUSH1 0x0 KECCAK256 SLOAD PUSH1 0x40 MLOAD SWAP1 DUP2 MSTORE RETURN JUMPDEST CALLVALUE PUSH2 0x134 JUMPI PUSH1 0x0 CALLDATASIZE PUSH1 0x3 NOT ADD SLT PUSH2 0x134 JUMPI PUSH1 0x20 PUSH1 0x5 SLOAD PUSH1 0x40 MLOAD SWAP1 DUP2 MSTORE RETURN JUMPDEST CALLVALUE PUSH2 0x134 JUMPI PUSH2 0x120 CALLDATASIZE PUSH1 0x3 NOT ADD SLT PUSH2 0x134 JUMPI PUSH1 0x4 CALLDATALOAD PUSH1 0x1 PUSH1 0x1 PUSH1 0x40 SHL SUB DUP2 GT PUSH2 0x134 JUMPI PUSH2 0x27B SWAP1 CALLDATASIZE SWAP1 PUSH1 0x4 ADD PUSH2 0x1304 JUMP JUMPDEST SWAP1 PUSH1 0x24 CALLDATALOAD PUSH1 0x1 PUSH1 0x1 PUSH1 0x40 SHL SUB DUP2 GT PUSH2 0x134 JUMPI PUSH2 0x29B SWAP1 CALLDATASIZE SWAP1 PUSH1 0x4 ADD PUSH2 0x1304 JUMP JUMPDEST SWAP1 SWAP3 SWAP1 SWAP2 SWAP1 PUSH1 0x64 CALLDATALOAD SWAP1 PUSH1 0x1 PUSH1 0x1 PUSH1 0xA0 SHL SUB DUP3 AND DUP3 SUB PUSH2 0x134 JUMPI PUSH1 0x84 CALLDATALOAD ISZERO ISZERO PUSH1 0x84 CALLDATALOAD SUB PUSH2 0x134 JUMPI PUSH1 0xA4 CALLDATALOAD PUSH1 0x1 PUSH1 0x1 PUSH1 0x40 SHL SUB DUP2 GT PUSH2 0x134 JUMPI PUSH2 0x2E0 SWAP1 CALLDATASIZE SWAP1 PUSH1 0x4 ADD PUSH2 0x1304 JUMP JUMPDEST PUSH2 0x104 CALLDATALOAD SWAP3 SWAP2 SWAP1 PUSH1 0x1 PUSH1 0x1 PUSH1 0xA0 SHL SUB DUP5 AND DUP5 SUB PUSH2 0x134 JUMPI PUSH1 0x0 SLOAD PUSH1 0x40 MLOAD PUSH4 0x5087A34F PUSH1 0xE1 SHL DUP2 MSTORE PUSH1 0x1 PUSH1 0x1 PUSH1 0xA0 SHL SUB SWAP1 SWAP2 AND SWAP6 SWAP1 PUSH1 0x20 DUP2 PUSH1 0x4 DUP2 DUP11 GAS STATICCALL SWAP1 DUP2 ISZERO PUSH2 0x53E JUMPI PUSH1 0x0 SWAP2 PUSH2 0x5DD JUMPI JUMPDEST POP PUSH1 0x20 PUSH2 0x34F SWAP2 PUSH1 0x40 MLOAD DUP1 SWAP4 DUP2 SWAP3 PUSH4 0x24745215 PUSH1 0xE2 SHL DUP4 MSTORE CALLER SWAP1 PUSH1 0x4 DUP5 ADD PUSH2 0x1361 JUMP JUMPDEST SUB DUP2 DUP11 GAS STATICCALL SWAP1 DUP2 ISZERO PUSH2 0x53E JUMPI PUSH1 0x0 SWAP2 PUSH2 0x5A3 JUMPI JUMPDEST POP ISZERO PUSH2 0x560 JUMPI PUSH1 0x40 MLOAD SWAP7 PUSH1 0x1 PUSH1 0x1 PUSH1 0x40 SHL SUB PUSH2 0x120 DUP10 ADD SWAP1 DUP2 GT SWAP1 DUP10 GT OR PUSH2 0x54A JUMPI PUSH1 0x0 SWAP10 PUSH1 0x20 SWAP10 PUSH2 0x3A5 PUSH2 0x3AE SWAP4 PUSH2 0x3D9 SWAP9 PUSH2 0x120 DUP14 ADD PUSH1 0x40 MSTORE CALLDATASIZE SWAP2 PUSH2 0x12CD JUMP JUMPDEST DUP11 MSTORE CALLDATASIZE SWAP2 PUSH2 0x12CD JUMP JUMPDEST DUP8 DUP10 ADD MSTORE PUSH1 0x44 CALLDATALOAD PUSH1 0x40 DUP9 ADD MSTORE PUSH1 0x1 PUSH1 0x1 PUSH1 0xA0 SHL SUB AND PUSH1 0x60 DUP8 ADD MSTORE PUSH1 0x84 CALLDATALOAD ISZERO ISZERO PUSH1 0x80 DUP8 ADD MSTORE CALLDATASIZE SWAP2 PUSH2 0x12CD JUMP JUMPDEST PUSH1 0xA0 DUP5 ADD MSTORE PUSH1 0xC4 CALLDATALOAD PUSH1 0xC0 DUP5 ADD MSTORE PUSH1 0xE4 CALLDATALOAD PUSH1 0xE0 DUP5 ADD MSTORE PUSH1 0x1 DUP1 PUSH1 0xA0 SHL SUB AND PUSH2 0x100 DUP4 ADD MSTORE PUSH1 0x40 MLOAD DUP1 SWAP5 DUP2 DUP1 SWAP5 PUSH4 0x664D54F5 PUSH1 0xE1 SHL DUP3 MSTORE PUSH1 0x40 PUSH1 0x4 DUP4 ADD MSTORE PUSH2 0x48A PUSH2 0x430 DUP3 MLOAD PUSH2 0x120 PUSH1 0x44 DUP7 ADD MSTORE PUSH2 0x164 DUP6 ADD SWAP1 PUSH2 0x1640 JUMP JUMPDEST PUSH2 0x44B DUP10 DUP5 ADD MLOAD SWAP2 PUSH1 0x43 NOT SWAP3 DUP4 DUP8 DUP4 SUB ADD PUSH1 0x64 DUP9 ADD MSTORE PUSH2 0x1640 JUMP JUMPDEST PUSH1 0x40 DUP5 ADD MLOAD PUSH1 0x84 DUP7 ADD MSTORE PUSH1 0x60 DUP5 ADD MLOAD PUSH1 0x1 PUSH1 0x1 PUSH1 0xA0 SHL SUB AND PUSH1 0xA4 DUP7 ADD MSTORE PUSH1 0x80 DUP5 ADD MLOAD ISZERO ISZERO PUSH1 0xC4 DUP7 ADD MSTORE PUSH1 0xA0 DUP5 ADD MLOAD DUP6 DUP3 SUB SWAP1 SWAP3 ADD PUSH1 0xE4 DUP7 ADD MSTORE SWAP1 PUSH2 0x1640 JUMP JUMPDEST PUSH1 0xC0 DUP3 ADD MLOAD PUSH2 0x104 DUP5 ADD MSTORE PUSH1 0xE0 DUP3 ADD MLOAD PUSH2 0x124 DUP5 ADD MSTORE PUSH2 0x100 SWAP1 SWAP2 ADD MLOAD PUSH1 0x1 PUSH1 0x1 PUSH1 0xA0 SHL SUB AND PUSH2 0x144 DUP4 ADD MSTORE CALLER PUSH1 0x24 DUP4 ADD MSTORE SUB SWAP3 GAS CALL DUP1 ISZERO PUSH2 0x53E JUMPI PUSH1 0x0 SWAP1 PUSH2 0x50B JUMPI JUMPDEST PUSH1 0x20 SWAP2 POP PUSH1 0x84 CALLDATALOAD ISZERO PUSH2 0x4FD JUMPI PUSH2 0x4E6 PUSH1 0x4 SLOAD TIMESTAMP PUSH2 0x1665 JUMP JUMPDEST DUP2 PUSH1 0x0 MSTORE PUSH1 0xB DUP4 MSTORE PUSH1 0x40 PUSH1 0x0 KECCAK256 SSTORE JUMPDEST PUSH1 0x40 MLOAD SWAP1 DUP2 MSTORE RETURN JUMPDEST PUSH2 0x506 DUP2 PUSH2 0x18CF JUMP JUMPDEST PUSH2 0x4F5 JUMP JUMPDEST POP PUSH1 0x20 DUP2 RETURNDATASIZE PUSH1 0x20 GT PUSH2 0x536 JUMPI JUMPDEST DUP2 PUSH2 0x525 PUSH1 0x20 SWAP4 DUP4 PUSH2 0x128F JUMP JUMPDEST DUP2 ADD SUB SLT PUSH2 0x134 JUMPI PUSH1 0x20 SWAP1 MLOAD PUSH2 0x4CE JUMP JUMPDEST RETURNDATASIZE SWAP2 POP PUSH2 0x518 JUMP JUMPDEST PUSH1 0x40 MLOAD RETURNDATASIZE PUSH1 0x0 DUP3 RETURNDATACOPY RETURNDATASIZE SWAP1 REVERT JUMPDEST PUSH4 0x4E487B71 PUSH1 0xE0 SHL PUSH1 0x0 MSTORE PUSH1 0x41 PUSH1 0x4 MSTORE PUSH1 0x24 PUSH1 0x0 REVERT JUMPDEST PUSH1 0x40 MLOAD PUSH3 0x461BCD PUSH1 0xE5 SHL DUP2 MSTORE PUSH1 0x20 PUSH1 0x4 DUP3 ADD MSTORE PUSH1 0x1B PUSH1 0x24 DUP3 ADD MSTORE PUSH27 0x2220A79D1021B0B63632B91034B9903737BA10309036B2B6B132B9 PUSH1 0x29 SHL PUSH1 0x44 DUP3 ADD MSTORE PUSH1 0x64 SWAP1 REVERT JUMPDEST SWAP1 POP PUSH1 0x20 DUP2 RETURNDATASIZE PUSH1 0x20 GT PUSH2 0x5D5 JUMPI JUMPDEST DUP2 PUSH2 0x5BE PUSH1 0x20 SWAP4 DUP4 PUSH2 0x128F JUMP JUMPDEST DUP2 ADD SUB SLT PUSH2 0x134 JUMPI PUSH2 0x5CF SWAP1 PUSH2 0x1354 JUMP JUMPDEST DUP11 PUSH2 0x363 JUMP JUMPDEST RETURNDATASIZE SWAP2 POP PUSH2 0x5B1 JUMP JUMPDEST SWAP1 POP PUSH1 0x20 DUP2 RETURNDATASIZE PUSH1 0x20 GT PUSH2 0x608 JUMPI JUMPDEST DUP2 PUSH2 0x5F8 PUSH1 0x20 SWAP4 DUP4 PUSH2 0x128F JUMP JUMPDEST DUP2 ADD SUB SLT PUSH2 0x134 JUMPI MLOAD PUSH1 0x20 PUSH2 0x32C JUMP JUMPDEST RETURNDATASIZE SWAP2 POP PUSH2 0x5EB JUMP JUMPDEST CALLVALUE PUSH2 0x134 JUMPI PUSH1 0x20 DUP1 PUSH1 0x3 NOT CALLDATASIZE ADD SLT PUSH2 0x134 JUMPI PUSH1 0x4 CALLDATALOAD PUSH1 0x1 PUSH1 0x1 PUSH1 0xA0 SHL SUB DUP1 DUP3 AND DUP3 SUB PUSH2 0x134 JUMPI PUSH1 0x0 SLOAD PUSH1 0x40 MLOAD PUSH4 0x5087A34F PUSH1 0xE1 SHL DUP2 MSTORE SWAP2 AND SWAP2 DUP4 DUP3 PUSH1 0x4 DUP2 DUP7 GAS STATICCALL DUP1 ISZERO PUSH2 0x53E JUMPI DUP5 SWAP3 PUSH1 0x0 SWAP2 PUSH2 0x6D6 JUMPI JUMPDEST POP SWAP3 PUSH2 0x683 SWAP4 PUSH1 0x40 MLOAD DUP1 SWAP6 DUP2 SWAP5 DUP3 SWAP4 PUSH4 0x24745215 PUSH1 0xE2 SHL DUP5 MSTORE PUSH1 0x4 DUP5 ADD PUSH2 0x1361 JUMP JUMPDEST SUB SWAP2 GAS STATICCALL SWAP1 DUP2 ISZERO PUSH2 0x53E JUMPI PUSH1 0x0 SWAP2 PUSH2 0x6A1 JUMPI JUMPDEST POP PUSH1 0x40 MLOAD SWAP1 ISZERO ISZERO DUP2 MSTORE RETURN JUMPDEST SWAP1 POP DUP2 DUP2 DUP2 RETURNDATASIZE DUP4 GT PUSH2 0x6CF JUMPI JUMPDEST PUSH2 0x6B8 DUP2 DUP4 PUSH2 0x128F JUMP JUMPDEST DUP2 ADD SUB SLT PUSH2 0x134 JUMPI PUSH2 0x6C9 SWAP1 PUSH2 0x1354 JUMP JUMPDEST DUP3 PUSH2 0x696 JUMP JUMPDEST POP RETURNDATASIZE PUSH2 0x6AE JUMP JUMPDEST DUP4 DUP2 SWAP5 SWAP3 POP RETURNDATASIZE DUP4 GT PUSH2 0x702 JUMPI JUMPDEST PUSH2 0x6ED DUP2 DUP4 PUSH2 0x128F JUMP JUMPDEST DUP2 ADD SUB SLT PUSH2 0x134 JUMPI SWAP1 MLOAD DUP4 SWAP2 SWAP1 PUSH2 0x683 PUSH2 0x661 JUMP JUMPDEST POP RETURNDATASIZE PUSH2 0x6E3 JUMP JUMPDEST CALLVALUE PUSH2 0x134 JUMPI PUSH1 0x0 CALLDATASIZE PUSH1 0x3 NOT ADD SLT PUSH2 0x134 JUMPI PUSH1 0x20 PUSH1 0x6 SLOAD PUSH1 0x40 MLOAD SWAP1 DUP2 MSTORE RETURN JUMPDEST CALLVALUE PUSH2 0x134 JUMPI PUSH1 0x0 CALLDATASIZE PUSH1 0x3 NOT ADD SLT PUSH2 0x134 JUMPI PUSH1 0x1 SLOAD PUSH1 0x40 MLOAD PUSH3 0x9032FF PUSH1 0xE5 SHL DUP2 MSTORE SWAP1 PUSH1 0x20 SWAP1 DUP3 SWAP1 PUSH1 0x4 SWAP1 DUP3 SWAP1 PUSH1 0x1 PUSH1 0x1 PUSH1 0xA0 SHL SUB AND GAS STATICCALL DUP1 ISZERO PUSH2 0x53E JUMPI PUSH1 0x0 SWAP1 PUSH2 0x776 JUMPI JUMPDEST PUSH1 0x20 SWAP1 PUSH1 0x40 MLOAD SWAP1 DUP2 MSTORE RETURN JUMPDEST POP PUSH1 0x20 DUP2 RETURNDATASIZE DUP3 GT PUSH2 0x7A0 JUMPI JUMPDEST DUP2 PUSH2 0x78F PUSH1 0x20 SWAP4 DUP4 PUSH2 0x128F JUMP JUMPDEST DUP2 ADD SUB SLT PUSH2 0x134 JUMPI PUSH1 0x20 SWAP1 MLOAD PUSH2 0x76B JUMP JUMPDEST RETURNDATASIZE SWAP2 POP PUSH2 0x782 JUMP JUMPDEST CALLVALUE PUSH2 0x134 JUMPI PUSH1 0x0 CALLDATASIZE PUSH1 0x3 NOT ADD SLT PUSH2 0x134 JUMPI PUSH1 0x0 SLOAD PUSH1 0x40 MLOAD PUSH4 0x997072F7 PUSH1 0xE0 SHL DUP2 MSTORE SWAP1 PUSH1 0x20 SWAP1 DUP3 SWAP1 PUSH1 0x4 SWAP1 DUP3 SWAP1 PUSH1 0x1 PUSH1 0x1 PUSH1 0xA0 SHL SUB AND GAS STATICCALL DUP1 ISZERO PUSH2 0x53E JUMPI PUSH1 0x0 SWAP1 PUSH2 0x776 JUMPI PUSH1 0x20 SWAP1 PUSH1 0x40 MLOAD SWAP1 DUP2 MSTORE RETURN JUMPDEST CALLVALUE PUSH2 0x134 JUMPI PUSH1 0x40 CALLDATASIZE PUSH1 0x3 NOT ADD SLT PUSH2 0x134 JUMPI PUSH1 0x24 CALLDATALOAD PUSH1 0xFF DUP2 AND DUP1 SWAP2 SUB PUSH2 0x134 JUMPI PUSH1 0x0 SLOAD PUSH1 0x40 MLOAD PUSH4 0x5087A34F PUSH1 0xE1 SHL DUP2 MSTORE PUSH1 0x1 PUSH1 0x1 PUSH1 0xA0 SHL SUB SWAP1 SWAP2 AND SWAP2 SWAP1 PUSH1 0x20 SWAP1 DUP2 DUP2 PUSH1 0x4 DUP2 DUP8 GAS STATICCALL DUP1 ISZERO PUSH2 0x53E JUMPI DUP3 SWAP1 PUSH1 0x0 SWAP1 PUSH2 0x94B JUMPI JUMPDEST PUSH1 0x40 MLOAD PUSH4 0x24745215 PUSH1 0xE2 SHL DUP2 MSTORE SWAP3 POP DUP3 SWAP1 DUP2 SWAP1 PUSH2 0x870 SWAP1 CALLER SWAP1 PUSH1 0x4 DUP5 ADD PUSH2 0x1361 JUMP JUMPDEST SUB DUP2 DUP8 GAS STATICCALL SWAP1 DUP2 ISZERO PUSH2 0x53E JUMPI PUSH1 0x0 SWAP2 PUSH2 0x916 JUMPI JUMPDEST POP ISZERO PUSH2 0x8D5 JUMPI POP DUP2 EXTCODESIZE ISZERO PUSH2 0x134 JUMPI PUSH1 0x0 SWAP2 PUSH1 0x64 DUP4 SWAP3 PUSH1 0x40 MLOAD SWAP5 DUP6 SWAP4 DUP5 SWAP3 PUSH4 0xCE7FB83 PUSH1 0xE1 SHL DUP5 MSTORE PUSH1 0x4 CALLDATALOAD PUSH1 0x4 DUP6 ADD MSTORE PUSH1 0x24 DUP5 ADD MSTORE CALLER PUSH1 0x44 DUP5 ADD MSTORE GAS CALL DUP1 ISZERO PUSH2 0x53E JUMPI PUSH2 0x8CC JUMPI STOP JUMPDEST PUSH2 0x19 SWAP1 PUSH2 0x1261 JUMP JUMPDEST PUSH1 0x64 SWAP1 PUSH1 0x40 MLOAD SWAP1 PUSH3 0x461BCD PUSH1 0xE5 SHL DUP3 MSTORE PUSH1 0x4 DUP3 ADD MSTORE PUSH1 0x1A PUSH1 0x24 DUP3 ADD MSTORE PUSH26 0x2220A79D21A0A62622A92FA4A9AFA727AA2FA0AFA6A2A6A122A9 PUSH1 0x31 SHL PUSH1 0x44 DUP3 ADD MSTORE REVERT JUMPDEST SWAP1 POP DUP2 DUP2 DUP2 RETURNDATASIZE DUP4 GT PUSH2 0x944 JUMPI JUMPDEST PUSH2 0x92D DUP2 DUP4 PUSH2 0x128F JUMP JUMPDEST DUP2 ADD SUB SLT PUSH2 0x134 JUMPI PUSH2 0x93E SWAP1 PUSH2 0x1354 JUMP JUMPDEST DUP5 PUSH2 0x884 JUMP JUMPDEST POP RETURNDATASIZE PUSH2 0x923 JUMP JUMPDEST POP DUP2 DUP2 RETURNDATASIZE DUP4 GT PUSH2 0x973 JUMPI JUMPDEST PUSH2 0x960 DUP2 DUP4 PUSH2 0x128F JUMP JUMPDEST DUP2 ADD SUB SLT PUSH2 0x134 JUMPI DUP2 PUSH2 0x870 SWAP2 MLOAD PUSH2 0x84E JUMP JUMPDEST POP RETURNDATASIZE PUSH2 0x956 JUMP JUMPDEST CALLVALUE PUSH2 0x134 JUMPI PUSH1 0x0 CALLDATASIZE PUSH1 0x3 NOT ADD SLT PUSH2 0x134 JUMPI PUSH1 0x0 DUP1 SLOAD PUSH1 0x40 MLOAD PUSH4 0x7C0F6B35 PUSH1 0xE0 SHL DUP2 MSTORE PUSH1 0x1 PUSH1 0x1 PUSH1 0xA0 SHL SUB SWAP3 SWAP1 SWAP2 DUP3 SWAP1 PUSH1 0x4 SWAP1 DUP3 SWAP1 DUP7 AND GAS STATICCALL SWAP1 DUP2 ISZERO PUSH2 0x53E JUMPI PUSH1 0x0 SWAP2 PUSH2 0xA01 JUMPI JUMPDEST POP PUSH1 0x40 MLOAD SWAP1 PUSH1 0x20 DUP1 DUP4 ADD DUP2 DUP5 MSTORE DUP3 MLOAD DUP1 SWAP2 MSTORE DUP2 PUSH1 0x40 DUP6 ADD SWAP4 ADD SWAP2 PUSH1 0x0 JUMPDEST DUP3 DUP2 LT PUSH2 0x9EB JUMPI DUP6 DUP6 SUB DUP7 RETURN JUMPDEST DUP4 MLOAD DUP8 AND DUP6 MSTORE SWAP4 DUP2 ADD SWAP4 SWAP3 DUP2 ADD SWAP3 PUSH1 0x1 ADD PUSH2 0x9DE JUMP JUMPDEST PUSH2 0xA1E SWAP2 POP RETURNDATASIZE DUP1 PUSH1 0x0 DUP4 RETURNDATACOPY PUSH2 0xA16 DUP2 DUP4 PUSH2 0x128F JUMP JUMPDEST DUP2 ADD SWAP1 PUSH2 0x1822 JUMP JUMPDEST DUP3 PUSH2 0x9C1 JUMP JUMPDEST CALLVALUE PUSH2 0x134 JUMPI PUSH1 0x20 DUP1 PUSH1 0x3 NOT CALLDATASIZE ADD SLT PUSH2 0x134 JUMPI PUSH1 0x0 DUP1 SLOAD PUSH1 0x40 MLOAD PUSH4 0x18FEEB15 PUSH1 0xE3 SHL DUP1 DUP3 MSTORE PUSH1 0x4 DUP1 CALLDATALOAD SWAP1 DUP4 ADD DUP2 SWAP1 MSTORE PUSH1 0x24 SWAP6 SWAP5 SWAP1 SWAP4 PUSH1 0x1 PUSH1 0x1 PUSH1 0xA0 SHL SUB SWAP4 SWAP1 DUP5 AND SWAP3 SWAP1 SWAP2 DUP3 DUP9 DUP2 DUP7 GAS STATICCALL SWAP2 DUP3 ISZERO PUSH2 0x53E JUMPI PUSH1 0x0 SWAP3 PUSH2 0x1032 JUMPI JUMPDEST POP DUP2 PUSH2 0x140 DUP2 ADD MLOAD ISZERO PUSH2 0xFF6 JUMPI DUP6 PUSH1 0x0 MSTORE PUSH1 0xC DUP8 MSTORE PUSH1 0xFF PUSH1 0x40 PUSH1 0x0 KECCAK256 SLOAD AND PUSH2 0xFB5 JUMPI DUP1 PUSH1 0xE0 PUSH2 0xAB7 PUSH1 0xA0 PUSH2 0xAC0 SWAP5 ADD MLOAD PUSH1 0xC0 DUP5 ADD MLOAD SWAP1 PUSH2 0x1665 JUMP JUMPDEST SWAP2 ADD MLOAD SWAP1 PUSH2 0x1665 JUMP JUMPDEST SWAP3 PUSH1 0x40 MLOAD PUSH4 0x997072F7 PUSH1 0xE0 SHL DUP2 MSTORE DUP8 DUP2 PUSH1 0x4 DUP2 DUP6 GAS STATICCALL SWAP1 DUP2 ISZERO PUSH2 0x53E JUMPI PUSH1 0x0 SWAP2 PUSH2 0xF88 JUMPI JUMPDEST POP DUP1 DUP6 LT SWAP1 DUP2 ISZERO SWAP1 DUP2 PUSH2 0xF7E JUMPI JUMPDEST POP DUP1 ISZERO PUSH2 0xF55 JUMPI JUMPDEST ISZERO PUSH2 0xF1B JUMPI DUP7 PUSH1 0x0 MSTORE PUSH1 0xB DUP9 MSTORE PUSH1 0x40 PUSH1 0x0 KECCAK256 SLOAD SWAP1 DUP2 ISZERO ISZERO SWAP2 DUP3 PUSH2 0xF11 JUMPI JUMPDEST POP DUP2 PUSH2 0xF09 JUMPI JUMPDEST POP PUSH2 0xC7F JUMPI JUMPDEST POP POP DUP2 PUSH2 0xC4D JUMPI POP POP PUSH1 0x0 JUMPDEST PUSH1 0x3 SLOAD GT PUSH2 0xBD2 JUMPI PUSH1 0x0 SLOAD AND SWAP3 DUP4 EXTCODESIZE ISZERO PUSH2 0x134 JUMPI PUSH1 0x1 PUSH1 0x44 PUSH1 0x0 SWAP3 DUP4 PUSH1 0x40 MLOAD SWAP8 DUP9 SWAP5 DUP6 SWAP4 PUSH4 0x32FA5185 PUSH1 0xE2 SHL DUP6 MSTORE DUP9 PUSH1 0x4 DUP7 ADD MSTORE DUP5 ADD MSTORE GAS CALL SWAP3 DUP4 ISZERO PUSH2 0x53E JUMPI PUSH1 0xC SWAP4 PUSH2 0xBC3 JUMPI JUMPDEST POP DUP1 PUSH32 0xE36F8B7448DAFF4A52E2945DB0D1D7A436279CC1D527A45C27835DCBD27F336D PUSH1 0x0 DUP1 LOG2 PUSH2 0xBAA DUP2 PUSH2 0x18CF JUMP JUMPDEST PUSH1 0x0 MSTORE MSTORE PUSH1 0x40 PUSH1 0x0 KECCAK256 PUSH1 0x1 PUSH1 0xFF NOT DUP3 SLOAD AND OR SWAP1 SSTORE PUSH1 0x0 DUP1 RETURN JUMPDEST PUSH2 0xBCC SWAP1 PUSH2 0x1261 JUMP JUMPDEST DUP4 PUSH2 0xB7A JUMP JUMPDEST PUSH1 0x0 SLOAD AND SWAP3 DUP4 EXTCODESIZE ISZERO PUSH2 0x134 JUMPI PUSH1 0x2 PUSH1 0x44 PUSH1 0x0 SWAP3 DUP4 PUSH1 0x40 MLOAD SWAP8 DUP9 SWAP5 DUP6 SWAP4 PUSH4 0x32FA5185 PUSH1 0xE2 SHL DUP6 MSTORE DUP9 PUSH1 0x4 DUP7 ADD MSTORE DUP5 ADD MSTORE GAS CALL SWAP3 DUP4 ISZERO PUSH2 0x53E JUMPI PUSH1 0xC SWAP4 PUSH2 0xC3E JUMPI JUMPDEST POP DUP1 PUSH32 0xD92FBA445EDB3153B571E6DF782D7A66FD0CE668519273670820EE3A86DA0EF4 PUSH1 0x0 DUP1 LOG2 PUSH2 0xBAA JUMP JUMPDEST PUSH2 0xC47 SWAP1 PUSH2 0x1261 JUMP JUMPDEST DUP4 PUSH2 0xC12 JUMP JUMPDEST PUSH1 0xA0 ADD MLOAD PUSH1 0x64 DUP2 MUL SWAP1 DUP1 DUP3 DIV PUSH1 0x64 EQ SWAP1 ISZERO OR ISZERO PUSH2 0xC6A JUMPI DIV PUSH2 0xB32 JUMP JUMPDEST DUP6 PUSH4 0x4E487B71 PUSH1 0xE0 SHL PUSH1 0x0 MSTORE PUSH1 0x11 PUSH1 0x4 MSTORE PUSH1 0x0 REVERT JUMPDEST PUSH1 0x4 SWAP5 SWAP4 POP PUSH1 0x0 SWAP2 SWAP7 SWAP6 SWAP3 POP PUSH1 0x40 MLOAD SWAP5 DUP6 DUP1 SWAP3 PUSH4 0x7C0F6B35 PUSH1 0xE0 SHL DUP3 MSTORE GAS STATICCALL SWAP3 DUP4 ISZERO PUSH2 0x53E JUMPI PUSH1 0x0 SWAP4 PUSH2 0xEEC JUMPI JUMPDEST POP PUSH1 0x0 JUMPDEST DUP4 MLOAD DUP2 LT ISZERO PUSH2 0xE79 JUMPI DUP3 PUSH1 0x0 SLOAD AND PUSH2 0xCEC DUP7 DUP6 PUSH2 0xCCE DUP6 DUP10 PUSH2 0x18A5 JUMP JUMPDEST MLOAD PUSH1 0x40 MLOAD PUSH4 0x62D4F893 PUSH1 0xE0 SHL DUP2 MSTORE SWAP4 DUP5 SWAP3 DUP4 SWAP3 AND DUP9 PUSH1 0x4 DUP5 ADD PUSH2 0x1361 JUMP JUMPDEST SUB DUP2 DUP6 GAS STATICCALL SWAP1 DUP2 ISZERO PUSH2 0x53E JUMPI PUSH1 0x0 SWAP2 PUSH2 0xE44 JUMPI JUMPDEST POP ISZERO PUSH2 0xD2E JUMPI JUMPDEST POP PUSH1 0x0 NOT DUP2 EQ PUSH2 0xD19 JUMPI PUSH1 0x1 ADD PUSH2 0xCB1 JUMP JUMPDEST DUP7 PUSH4 0x4E487B71 PUSH1 0xE0 SHL PUSH1 0x0 MSTORE PUSH1 0x11 PUSH1 0x4 MSTORE PUSH1 0x0 REVERT JUMPDEST DUP4 PUSH2 0xD39 DUP4 DUP8 PUSH2 0x18A5 JUMP JUMPDEST MLOAD AND DUP2 EXTCODESIZE ISZERO PUSH2 0x134 JUMPI PUSH1 0x0 SWAP2 DUP10 DUP4 SWAP3 PUSH1 0x40 MLOAD SWAP5 DUP6 SWAP4 DUP5 SWAP3 PUSH4 0x5D437B85 PUSH1 0xE1 SHL DUP5 MSTORE PUSH1 0x4 DUP5 ADD MSTORE GAS CALL DUP1 ISZERO PUSH2 0x53E JUMPI PUSH2 0xE35 JUMPI JUMPDEST POP DUP3 PUSH1 0x0 SLOAD AND DUP4 PUSH2 0xD7D DUP4 DUP8 PUSH2 0x18A5 JUMP JUMPDEST MLOAD AND SWAP1 DUP1 EXTCODESIZE ISZERO PUSH2 0x134 JUMPI PUSH1 0x40 MLOAD PUSH4 0xA462E50F PUSH1 0xE0 SHL DUP2 MSTORE SWAP2 PUSH1 0x0 SWAP2 DUP4 SWAP2 DUP3 SWAP1 DUP5 SWAP1 DUP3 SWAP1 PUSH2 0xDAE SWAP1 DUP11 PUSH1 0x4 DUP5 ADD PUSH2 0x1361 JUMP JUMPDEST SUB SWAP3 GAS CALL DUP1 ISZERO PUSH2 0x53E JUMPI PUSH2 0xE26 JUMPI JUMPDEST POP PUSH1 0x0 DUP1 DUP1 DUP1 DUP7 PUSH1 0x1 SLOAD AND PUSH1 0x5 SLOAD SWAP1 GAS CALL PUSH2 0xDD6 PUSH2 0x137A JUMP JUMPDEST POP ISZERO PUSH2 0xDE2 JUMPI DUP8 PUSH2 0xD07 JUMP JUMPDEST PUSH1 0x40 MLOAD PUSH3 0x461BCD PUSH1 0xE5 SHL DUP2 MSTORE PUSH1 0x4 DUP2 ADD DUP7 SWAP1 MSTORE PUSH1 0x1F DUP2 DUP10 ADD MSTORE PUSH32 0x4661696C656420746F2073656E642070656E616C747920746F207661756C7400 PUSH1 0x44 DUP3 ADD MSTORE PUSH1 0x64 SWAP1 REVERT JUMPDEST PUSH2 0xE2F SWAP1 PUSH2 0x1261 JUMP JUMPDEST DUP8 PUSH2 0xDBD JUMP JUMPDEST PUSH2 0xE3E SWAP1 PUSH2 0x1261 JUMP JUMPDEST DUP8 PUSH2 0xD6C JUMP JUMPDEST SWAP1 POP DUP7 DUP2 DUP2 RETURNDATASIZE DUP4 GT PUSH2 0xE72 JUMPI JUMPDEST PUSH2 0xE5B DUP2 DUP4 PUSH2 0x128F JUMP JUMPDEST DUP2 ADD SUB SLT PUSH2 0x134 JUMPI PUSH2 0xE6C SWAP1 PUSH2 0x1354 JUMP JUMPDEST DUP10 PUSH2 0xD00 JUMP JUMPDEST POP RETURNDATASIZE PUSH2 0xE51 JUMP JUMPDEST POP SWAP3 SWAP4 SWAP1 SWAP2 POP PUSH1 0x0 DUP3 DUP2 SLOAD AND SWAP2 DUP7 PUSH1 0x40 MLOAD DUP1 SWAP5 DUP2 SWAP4 DUP3 MSTORE DUP8 PUSH1 0x4 DUP4 ADD MSTORE GAS STATICCALL SWAP1 DUP2 ISZERO PUSH2 0x53E JUMPI PUSH1 0x0 SWAP2 PUSH2 0xEC9 JUMPI JUMPDEST POP PUSH2 0xEC1 DUP2 PUSH1 0xE0 PUSH2 0xAB7 PUSH1 0xA0 DUP4 ADD MLOAD PUSH1 0xC0 DUP5 ADD MLOAD SWAP1 PUSH2 0x1665 JUMP JUMPDEST SWAP1 DUP7 DUP1 PUSH2 0xB26 JUMP JUMPDEST PUSH2 0xEE6 SWAP2 POP RETURNDATASIZE DUP1 PUSH1 0x0 DUP4 RETURNDATACOPY PUSH2 0xEDE DUP2 DUP4 PUSH2 0x128F JUMP JUMPDEST DUP2 ADD SWAP1 PUSH2 0x16E1 JUMP JUMPDEST DUP6 PUSH2 0xEA7 JUMP JUMPDEST PUSH2 0xF02 SWAP2 SWAP4 POP RETURNDATASIZE DUP1 PUSH1 0x0 DUP4 RETURNDATACOPY PUSH2 0xA16 DUP2 DUP4 PUSH2 0x128F JUMP JUMPDEST SWAP2 DUP7 PUSH2 0xCAD JUMP JUMPDEST SWAP1 POP DUP10 PUSH2 0xB20 JUMP JUMPDEST TIMESTAMP GT SWAP2 POP DUP11 PUSH2 0xB19 JUMP JUMPDEST PUSH1 0x40 MLOAD PUSH3 0x461BCD PUSH1 0xE5 SHL DUP2 MSTORE PUSH1 0x4 DUP2 ADD DUP10 SWAP1 MSTORE PUSH1 0x13 DUP2 DUP12 ADD MSTORE PUSH19 0x10D85B9B9BDD08199A5B985B1A5E99481E595D PUSH1 0x6A SHL PUSH1 0x44 DUP3 ADD MSTORE PUSH1 0x64 SWAP1 REVERT JUMPDEST POP DUP7 PUSH1 0x0 MSTORE PUSH1 0xB DUP9 MSTORE PUSH1 0x40 PUSH1 0x0 KECCAK256 SLOAD DUP1 ISZERO ISZERO SWAP1 DUP2 PUSH2 0xF74 JUMPI JUMPDEST POP PUSH2 0xAFB JUMP JUMPDEST SWAP1 POP TIMESTAMP GT DUP11 PUSH2 0xF6E JUMP JUMPDEST SWAP1 POP ISZERO ISZERO DUP11 PUSH2 0xAF3 JUMP JUMPDEST SWAP1 POP DUP8 DUP2 DUP2 RETURNDATASIZE DUP4 GT PUSH2 0xFAE JUMPI JUMPDEST PUSH2 0xF9F DUP2 DUP4 PUSH2 0x128F JUMP JUMPDEST DUP2 ADD SUB SLT PUSH2 0x134 JUMPI MLOAD DUP10 PUSH2 0xAE5 JUMP JUMPDEST POP RETURNDATASIZE PUSH2 0xF95 JUMP JUMPDEST PUSH1 0x40 MLOAD PUSH3 0x461BCD PUSH1 0xE5 SHL DUP2 MSTORE PUSH1 0x4 DUP2 ADD DUP9 SWAP1 MSTORE PUSH1 0x1A DUP2 DUP11 ADD MSTORE PUSH26 0x141C9BDC1BDCD85B08185B1C9958591E48199A5B985B1A5E9959 PUSH1 0x32 SHL PUSH1 0x44 DUP3 ADD MSTORE PUSH1 0x64 SWAP1 REVERT JUMPDEST PUSH1 0x40 MLOAD PUSH3 0x461BCD PUSH1 0xE5 SHL DUP2 MSTORE PUSH1 0x4 DUP2 ADD DUP9 SWAP1 MSTORE PUSH1 0x15 DUP2 DUP11 ADD MSTORE PUSH21 0x139BDD0818481D9BDD1A5B99C81C1C9BDC1BDCD85B PUSH1 0x5A SHL PUSH1 0x44 DUP3 ADD MSTORE PUSH1 0x64 SWAP1 REVERT JUMPDEST PUSH2 0x1048 SWAP2 SWAP3 POP RETURNDATASIZE DUP1 PUSH1 0x0 DUP4 RETURNDATACOPY PUSH2 0xEDE DUP2 DUP4 PUSH2 0x128F JUMP JUMPDEST SWAP1 DUP8 PUSH2 0xA7C JUMP JUMPDEST CALLVALUE PUSH2 0x134 JUMPI PUSH1 0x0 CALLDATASIZE PUSH1 0x3 NOT ADD SLT PUSH2 0x134 JUMPI PUSH1 0x20 PUSH1 0x7 SLOAD PUSH1 0x40 MLOAD SWAP1 DUP2 MSTORE RETURN JUMPDEST CALLVALUE PUSH2 0x134 JUMPI PUSH1 0x0 CALLDATASIZE PUSH1 0x3 NOT ADD SLT PUSH2 0x134 JUMPI PUSH1 0x0 SLOAD PUSH1 0x40 MLOAD PUSH1 0x1 PUSH1 0x1 PUSH1 0xA0 SHL SUB SWAP1 SWAP2 AND DUP2 MSTORE PUSH1 0x20 SWAP1 RETURN JUMPDEST CALLVALUE PUSH2 0x134 JUMPI PUSH1 0x0 CALLDATASIZE PUSH1 0x3 NOT ADD SLT PUSH2 0x134 JUMPI PUSH1 0x1 SLOAD PUSH1 0x40 MLOAD PUSH1 0x1 PUSH1 0x1 PUSH1 0xA0 SHL SUB SWAP1 SWAP2 AND DUP2 MSTORE PUSH1 0x20 SWAP1 RETURN JUMPDEST CALLVALUE PUSH2 0x134 JUMPI PUSH1 0x0 CALLDATASIZE PUSH1 0x3 NOT ADD SLT PUSH2 0x134 JUMPI PUSH1 0x20 PUSH1 0x4 SLOAD PUSH1 0x40 MLOAD SWAP1 DUP2 MSTORE RETURN JUMPDEST CALLVALUE PUSH2 0x134 JUMPI PUSH1 0x20 CALLDATASIZE PUSH1 0x3 NOT ADD SLT PUSH2 0x134 JUMPI PUSH1 0x4 CALLDATALOAD PUSH1 0x0 MSTORE PUSH1 0xC PUSH1 0x20 MSTORE PUSH1 0x20 PUSH1 0xFF PUSH1 0x40 PUSH1 0x0 KECCAK256 SLOAD AND PUSH1 0x40 MLOAD SWAP1 ISZERO ISZERO DUP2 MSTORE RETURN JUMPDEST CALLVALUE PUSH2 0x134 JUMPI PUSH1 0x0 CALLDATASIZE PUSH1 0x3 NOT ADD SLT PUSH2 0x134 JUMPI PUSH1 0x20 PUSH1 0x3 SLOAD PUSH1 0x40 MLOAD SWAP1 DUP2 MSTORE RETURN JUMPDEST CALLVALUE PUSH2 0x134 JUMPI PUSH1 0x0 CALLDATASIZE PUSH1 0x3 NOT ADD SLT PUSH2 0x134 JUMPI PUSH1 0x20 PUSH1 0x8 SLOAD PUSH1 0x40 MLOAD SWAP1 DUP2 MSTORE RETURN JUMPDEST PUSH1 0x20 DUP1 PUSH1 0x3 NOT CALLDATASIZE ADD SLT PUSH2 0x134 JUMPI PUSH1 0x4 CALLDATALOAD PUSH1 0x1 PUSH1 0x1 PUSH1 0x40 SHL SUB DUP2 GT PUSH2 0x134 JUMPI CALLDATASIZE PUSH1 0x23 DUP3 ADD SLT ISZERO PUSH2 0x134 JUMPI PUSH2 0x1187 SWAP1 CALLDATASIZE SWAP1 PUSH1 0x24 DUP2 PUSH1 0x4 ADD CALLDATALOAD SWAP2 ADD PUSH2 0x12CD JUMP JUMPDEST PUSH1 0xFF PUSH1 0x9 SLOAD AND ISZERO PUSH2 0x1209 JUMPI PUSH1 0x40 MLOAD PUSH2 0x11BB DUP4 DUP3 DUP2 PUSH2 0x11AE DUP2 DUP4 ADD SWAP7 DUP8 DUP2 MLOAD SWAP4 DUP5 SWAP3 ADD PUSH2 0x1331 JUMP JUMPDEST DUP2 ADD SUB DUP1 DUP5 MSTORE ADD DUP3 PUSH2 0x128F JUMP JUMPDEST MLOAD SWAP1 KECCAK256 PUSH1 0xA SLOAD SUB PUSH2 0x11CF JUMPI PUSH2 0x19 CALLVALUE PUSH2 0x13AA JUMP JUMPDEST PUSH1 0x64 SWAP1 PUSH1 0x40 MLOAD SWAP1 PUSH3 0x461BCD PUSH1 0xE5 SHL DUP3 MSTORE PUSH1 0x4 DUP3 ADD MSTORE PUSH1 0x13 PUSH1 0x24 DUP3 ADD MSTORE PUSH19 0x496E76616C696420696E7669746520636F6465 PUSH1 0x68 SHL PUSH1 0x44 DUP3 ADD MSTORE REVERT JUMPDEST PUSH1 0x40 MLOAD PUSH3 0x461BCD PUSH1 0xE5 SHL DUP2 MSTORE PUSH1 0x4 DUP2 ADD DUP4 SWAP1 MSTORE PUSH1 0x2A PUSH1 0x24 DUP3 ADD MSTORE PUSH32 0x546869732069732061207075626C69632044414F2E20557365206A6F696E4441 PUSH1 0x44 DUP3 ADD MSTORE PUSH10 0x279034B739BA32B0B217 PUSH1 0xB1 SHL PUSH1 0x64 DUP3 ADD MSTORE PUSH1 0x84 SWAP1 REVERT JUMPDEST PUSH1 0x1 PUSH1 0x1 PUSH1 0x40 SHL SUB DUP2 GT PUSH2 0x54A JUMPI PUSH1 0x40 MSTORE JUMP JUMPDEST PUSH1 0x40 DUP2 ADD SWAP1 DUP2 LT PUSH1 0x1 PUSH1 0x1 PUSH1 0x40 SHL SUB DUP3 GT OR PUSH2 0x54A JUMPI PUSH1 0x40 MSTORE JUMP JUMPDEST PUSH1 0x1F SWAP1 SWAP2 ADD PUSH1 0x1F NOT AND DUP2 ADD SWAP1 PUSH1 0x1 PUSH1 0x1 PUSH1 0x40 SHL SUB DUP3 GT SWAP1 DUP3 LT OR PUSH2 0x54A JUMPI PUSH1 0x40 MSTORE JUMP JUMPDEST PUSH1 0x1 PUSH1 0x1 PUSH1 0x40 SHL SUB DUP2 GT PUSH2 0x54A JUMPI PUSH1 0x1F ADD PUSH1 0x1F NOT AND PUSH1 0x20 ADD SWAP1 JUMP JUMPDEST SWAP3 SWAP2 SWAP3 PUSH2 0x12D9 DUP3 PUSH2 0x12B2 JUMP JUMPDEST SWAP2 PUSH2 0x12E7 PUSH1 0x40 MLOAD SWAP4 DUP5 PUSH2 0x128F JUMP JUMPDEST DUP3 SWAP5 DUP2 DUP5 MSTORE DUP2 DUP4 ADD GT PUSH2 0x134 JUMPI DUP3 DUP2 PUSH1 0x20 SWAP4 DUP5 PUSH1 0x0 SWAP7 ADD CALLDATACOPY ADD ADD MSTORE JUMP JUMPDEST SWAP2 DUP2 PUSH1 0x1F DUP5 ADD SLT ISZERO PUSH2 0x134 JUMPI DUP3 CALLDATALOAD SWAP2 PUSH1 0x1 PUSH1 0x1 PUSH1 0x40 SHL SUB DUP4 GT PUSH2 0x134 JUMPI PUSH1 0x20 DUP4 DUP2 DUP7 ADD SWAP6 ADD ADD GT PUSH2 0x134 JUMPI JUMP JUMPDEST PUSH1 0x0 JUMPDEST DUP4 DUP2 LT PUSH2 0x1344 JUMPI POP POP PUSH1 0x0 SWAP2 ADD MSTORE JUMP JUMPDEST DUP2 DUP2 ADD MLOAD DUP4 DUP3 ADD MSTORE PUSH1 0x20 ADD PUSH2 0x1334 JUMP JUMPDEST MLOAD SWAP1 DUP2 ISZERO ISZERO DUP3 SUB PUSH2 0x134 JUMPI JUMP JUMPDEST SWAP1 DUP2 MSTORE PUSH1 0x1 PUSH1 0x1 PUSH1 0xA0 SHL SUB SWAP1 SWAP2 AND PUSH1 0x20 DUP3 ADD MSTORE PUSH1 0x40 ADD SWAP1 JUMP JUMPDEST RETURNDATASIZE ISZERO PUSH2 0x13A5 JUMPI RETURNDATASIZE SWAP1 PUSH2 0x138B DUP3 PUSH2 0x12B2 JUMP JUMPDEST SWAP2 PUSH2 0x1399 PUSH1 0x40 MLOAD SWAP4 DUP5 PUSH2 0x128F JUMP JUMPDEST DUP3 MSTORE RETURNDATASIZE PUSH1 0x0 PUSH1 0x20 DUP5 ADD RETURNDATACOPY JUMP JUMPDEST PUSH1 0x60 SWAP1 JUMP JUMPDEST SWAP1 PUSH1 0x8 SLOAD DUP3 LT PUSH2 0x1602 JUMPI PUSH1 0x0 DUP1 SLOAD PUSH1 0x40 DUP1 MLOAD PUSH4 0x5087A34F PUSH1 0xE1 SHL DUP1 DUP3 MSTORE PUSH1 0x4 SWAP7 SWAP3 SWAP5 SWAP4 SWAP1 SWAP3 PUSH1 0x20 SWAP3 PUSH1 0x1 PUSH1 0x1 PUSH1 0xA0 SHL SUB SWAP3 DUP4 AND SWAP1 DUP5 DUP2 DUP12 DUP2 DUP6 GAS STATICCALL SWAP1 DUP2 ISZERO PUSH2 0x15F8 JUMPI DUP6 SWAP2 DUP12 SWAP2 DUP10 SWAP2 PUSH2 0x15BF JUMPI JUMPDEST POP SWAP3 PUSH2 0x1418 SWAP4 DUP11 MLOAD DUP1 SWAP6 DUP2 SWAP5 DUP3 SWAP4 PUSH4 0x24745215 PUSH1 0xE2 SHL DUP5 MSTORE CALLER SWAP2 DUP5 ADD PUSH2 0x1361 JUMP JUMPDEST SUB SWAP2 GAS STATICCALL SWAP1 DUP2 ISZERO PUSH2 0x15B5 JUMPI DUP7 SWAP2 PUSH2 0x157C JUMPI JUMPDEST POP PUSH2 0x1546 JUMPI DUP5 DUP1 DUP1 DUP1 SWAP4 DUP6 PUSH1 0x1 SLOAD AND GAS CALL PUSH2 0x1443 PUSH2 0x137A JUMP JUMPDEST POP ISZERO PUSH2 0x14F9 JUMPI DUP4 SLOAD AND SWAP2 DUP5 MLOAD SWAP1 DUP2 MSTORE DUP2 DUP2 DUP9 DUP2 DUP7 GAS STATICCALL SWAP2 DUP3 ISZERO PUSH2 0x14EF JUMPI DUP5 SWAP3 PUSH2 0x14C1 JUMPI JUMPDEST POP POP DUP2 EXTCODESIZE ISZERO PUSH2 0x14BD JUMPI SWAP5 DUP3 SWAP2 PUSH2 0x1494 SWAP6 SWAP7 DUP4 DUP7 MLOAD DUP1 SWAP9 DUP2 SWAP6 DUP3 SWAP5 PUSH4 0x2F2FF15D PUSH1 0xE0 SHL DUP5 MSTORE CALLER SWAP2 DUP5 ADD PUSH2 0x1361 JUMP JUMPDEST SUB SWAP3 GAS CALL SWAP2 DUP3 ISZERO PUSH2 0x14B3 JUMPI POP POP PUSH2 0x14A8 JUMPI POP JUMP JUMPDEST PUSH2 0x14B1 SWAP1 PUSH2 0x1261 JUMP JUMPDEST JUMP JUMPDEST MLOAD SWAP1 RETURNDATASIZE SWAP1 DUP3 RETURNDATACOPY RETURNDATASIZE SWAP1 REVERT JUMPDEST DUP3 DUP1 REVERT JUMPDEST SWAP1 DUP1 SWAP3 POP DUP2 RETURNDATASIZE DUP4 GT PUSH2 0x14E8 JUMPI JUMPDEST PUSH2 0x14D8 DUP2 DUP4 PUSH2 0x128F JUMP JUMPDEST DUP2 ADD SUB SLT PUSH2 0x14BD JUMPI MLOAD CODESIZE DUP1 PUSH2 0x1467 JUMP JUMPDEST POP RETURNDATASIZE PUSH2 0x14CE JUMP JUMPDEST DUP6 MLOAD RETURNDATASIZE DUP7 DUP3 RETURNDATACOPY RETURNDATASIZE SWAP1 REVERT JUMPDEST DUP5 MLOAD PUSH3 0x461BCD PUSH1 0xE5 SHL DUP2 MSTORE DUP1 DUP9 ADD DUP4 SWAP1 MSTORE PUSH1 0x21 PUSH1 0x24 DUP3 ADD MSTORE PUSH32 0x4661696C656420746F2073656E6420656E7472792066656520746F207661756C PUSH1 0x44 DUP3 ADD MSTORE PUSH1 0x1D PUSH1 0xFA SHL PUSH1 0x64 DUP3 ADD MSTORE PUSH1 0x84 SWAP1 REVERT JUMPDEST DUP6 MLOAD PUSH3 0x461BCD PUSH1 0xE5 SHL DUP2 MSTORE DUP1 DUP10 ADD DUP5 SWAP1 MSTORE PUSH1 0x10 PUSH1 0x24 DUP3 ADD MSTORE PUSH16 0x20B63932B0B23C90309036B2B6B132B9 PUSH1 0x81 SHL PUSH1 0x44 DUP3 ADD MSTORE PUSH1 0x64 SWAP1 REVERT JUMPDEST SWAP1 POP DUP4 DUP2 DUP2 RETURNDATASIZE DUP4 GT PUSH2 0x15AE JUMPI JUMPDEST PUSH2 0x1593 DUP2 DUP4 PUSH2 0x128F JUMP JUMPDEST DUP2 ADD SUB SLT PUSH2 0x15AA JUMPI PUSH2 0x15A4 SWAP1 PUSH2 0x1354 JUMP JUMPDEST CODESIZE PUSH2 0x142A JUMP JUMPDEST DUP6 DUP1 REVERT JUMPDEST POP RETURNDATASIZE PUSH2 0x1589 JUMP JUMPDEST DUP8 MLOAD RETURNDATASIZE DUP9 DUP3 RETURNDATACOPY RETURNDATASIZE SWAP1 REVERT JUMPDEST SWAP3 DUP1 SWAP3 POP DUP4 SWAP2 POP RETURNDATASIZE DUP4 GT PUSH2 0x15F1 JUMPI JUMPDEST PUSH2 0x15D8 DUP2 DUP4 PUSH2 0x128F JUMP JUMPDEST DUP2 ADD SUB SLT PUSH2 0x15ED JUMPI MLOAD DUP5 SWAP1 DUP11 SWAP1 PUSH2 0x1418 PUSH2 0x13F7 JUMP JUMPDEST DUP7 DUP1 REVERT JUMPDEST POP RETURNDATASIZE PUSH2 0x15CE JUMP JUMPDEST DUP9 MLOAD RETURNDATASIZE DUP10 DUP3 RETURNDATACOPY RETURNDATASIZE SWAP1 REVERT JUMPDEST PUSH1 0x40 MLOAD PUSH3 0x461BCD PUSH1 0xE5 SHL DUP2 MSTORE PUSH1 0x20 PUSH1 0x4 DUP3 ADD MSTORE PUSH1 0x16 PUSH1 0x24 DUP3 ADD MSTORE PUSH22 0x496E73756666696369656E7420656E74727920666565 PUSH1 0x50 SHL PUSH1 0x44 DUP3 ADD MSTORE PUSH1 0x64 SWAP1 REVERT JUMPDEST SWAP1 PUSH1 0x20 SWAP2 PUSH2 0x1659 DUP2 MLOAD DUP1 SWAP3 DUP2 DUP6 MSTORE DUP6 DUP1 DUP7 ADD SWAP2 ADD PUSH2 0x1331 JUMP JUMPDEST PUSH1 0x1F ADD PUSH1 0x1F NOT AND ADD ADD SWAP1 JUMP JUMPDEST SWAP2 SWAP1 DUP3 ADD DUP1 SWAP3 GT PUSH2 0x1672 JUMPI JUMP JUMPDEST PUSH4 0x4E487B71 PUSH1 0xE0 SHL PUSH1 0x0 MSTORE PUSH1 0x11 PUSH1 0x4 MSTORE PUSH1 0x24 PUSH1 0x0 REVERT JUMPDEST DUP2 PUSH1 0x1F DUP3 ADD SLT ISZERO PUSH2 0x134 JUMPI DUP1 MLOAD PUSH2 0x169E DUP2 PUSH2 0x12B2 JUMP JUMPDEST SWAP3 PUSH2 0x16AC PUSH1 0x40 MLOAD SWAP5 DUP6 PUSH2 0x128F JUMP JUMPDEST DUP2 DUP5 MSTORE PUSH1 0x20 DUP3 DUP5 ADD ADD GT PUSH2 0x134 JUMPI PUSH2 0x16CA SWAP2 PUSH1 0x20 DUP1 DUP6 ADD SWAP2 ADD PUSH2 0x1331 JUMP JUMPDEST SWAP1 JUMP JUMPDEST MLOAD SWAP1 PUSH1 0x1 PUSH1 0x1 PUSH1 0xA0 SHL SUB DUP3 AND DUP3 SUB PUSH2 0x134 JUMPI JUMP JUMPDEST SWAP1 PUSH1 0x20 DUP3 DUP3 SUB SLT PUSH2 0x134 JUMPI DUP2 MLOAD PUSH1 0x1 PUSH1 0x1 PUSH1 0x40 SHL SUB SWAP3 DUP4 DUP3 GT PUSH2 0x134 JUMPI ADD SWAP1 PUSH2 0x1E0 SWAP3 DUP4 DUP4 DUP4 SUB SLT PUSH2 0x134 JUMPI PUSH1 0x40 MLOAD SWAP4 DUP5 ADD DUP5 DUP2 LT DUP3 DUP3 GT OR PUSH2 0x54A JUMPI PUSH1 0x40 MSTORE DUP3 MLOAD DUP2 DUP2 GT PUSH2 0x134 JUMPI DUP3 PUSH2 0x1736 SWAP2 DUP6 ADD PUSH2 0x1688 JUMP JUMPDEST DUP5 MSTORE PUSH1 0x20 DUP4 ADD MLOAD DUP2 DUP2 GT PUSH2 0x134 JUMPI DUP3 PUSH2 0x1750 SWAP2 DUP6 ADD PUSH2 0x1688 JUMP JUMPDEST PUSH1 0x20 DUP6 ADD MSTORE PUSH1 0x40 DUP4 DUP2 ADD MLOAD SWAP1 DUP6 ADD MSTORE PUSH1 0x60 DUP4 ADD MLOAD PUSH1 0x1 PUSH1 0x1 PUSH1 0xA0 SHL SUB DUP2 AND DUP2 SUB PUSH2 0x134 JUMPI PUSH1 0x60 DUP6 ADD MSTORE PUSH1 0x80 DUP4 ADD MLOAD PUSH1 0x4 DUP2 LT ISZERO PUSH2 0x134 JUMPI PUSH1 0x80 DUP6 ADD MSTORE PUSH1 0xA0 DUP4 ADD MLOAD PUSH1 0xA0 DUP6 ADD MSTORE PUSH1 0xC0 DUP4 ADD MLOAD PUSH1 0xC0 DUP6 ADD MSTORE PUSH1 0xE0 DUP4 ADD MLOAD PUSH1 0xE0 DUP6 ADD MSTORE PUSH2 0x100 DUP1 DUP5 ADD MLOAD SWAP1 DUP6 ADD MSTORE PUSH2 0x120 PUSH2 0x17C3 DUP2 DUP6 ADD PUSH2 0x16CD JUMP JUMPDEST SWAP1 DUP6 ADD MSTORE PUSH2 0x140 PUSH2 0x17D5 DUP2 DUP6 ADD PUSH2 0x1354 JUMP JUMPDEST SWAP1 DUP6 ADD MSTORE PUSH2 0x160 SWAP2 DUP3 DUP5 ADD MLOAD SWAP2 DUP3 GT PUSH2 0x134 JUMPI PUSH2 0x17F3 SWAP2 DUP5 ADD PUSH2 0x1688 JUMP JUMPDEST SWAP1 DUP4 ADD MSTORE PUSH2 0x180 DUP1 DUP3 ADD MLOAD SWAP1 DUP4 ADD MSTORE PUSH2 0x1A0 DUP1 DUP3 ADD MLOAD SWAP1 DUP4 ADD MSTORE PUSH2 0x181B PUSH2 0x1C0 DUP1 SWAP3 ADD PUSH2 0x16CD JUMP JUMPDEST SWAP1 DUP3 ADD MSTORE SWAP1 JUMP JUMPDEST SWAP1 PUSH1 0x20 SWAP1 DUP2 DUP4 DUP3 SUB SLT PUSH2 0x134 JUMPI DUP3 MLOAD PUSH1 0x1 PUSH1 0x1 PUSH1 0x40 SHL SUB SWAP4 DUP5 DUP3 GT PUSH2 0x134 JUMPI ADD DUP2 PUSH1 0x1F DUP3 ADD SLT ISZERO PUSH2 0x134 JUMPI DUP1 MLOAD SWAP4 DUP5 GT PUSH2 0x54A JUMPI DUP4 PUSH1 0x5 SHL SWAP1 PUSH1 0x40 MLOAD SWAP5 PUSH2 0x186B DUP6 DUP5 ADD DUP8 PUSH2 0x128F JUMP JUMPDEST DUP6 MSTORE DUP4 DUP1 DUP7 ADD SWAP3 DUP3 ADD ADD SWAP3 DUP4 GT PUSH2 0x134 JUMPI DUP4 ADD SWAP1 JUMPDEST DUP3 DUP3 LT PUSH2 0x188E JUMPI POP POP POP POP SWAP1 JUMP JUMPDEST DUP4 DUP1 SWAP2 PUSH2 0x189A DUP5 PUSH2 0x16CD JUMP JUMPDEST DUP2 MSTORE ADD SWAP2 ADD SWAP1 PUSH2 0x1880 JUMP JUMPDEST DUP1 MLOAD DUP3 LT ISZERO PUSH2 0x18B9 JUMPI PUSH1 0x20 SWAP2 PUSH1 0x5 SHL ADD ADD SWAP1 JUMP JUMPDEST PUSH4 0x4E487B71 PUSH1 0xE0 SHL PUSH1 0x0 MSTORE PUSH1 0x32 PUSH1 0x4 MSTORE PUSH1 0x24 PUSH1 0x0 REVERT JUMPDEST PUSH1 0x1 DUP1 PUSH1 0xA0 SHL SUB PUSH1 0x0 SWAP2 DUP2 DUP4 SLOAD AND SWAP2 PUSH1 0x24 DUP5 PUSH1 0x40 SWAP5 DUP6 MLOAD SWAP3 DUP4 DUP1 SWAP3 PUSH4 0x18FEEB15 PUSH1 0xE3 SHL DUP3 MSTORE DUP8 PUSH1 0x4 DUP4 ADD MSTORE GAS STATICCALL SWAP1 DUP2 ISZERO PUSH2 0x1D04 JUMPI DUP6 SWAP2 PUSH2 0x1CEA JUMPI JUMPDEST POP PUSH2 0x160 DUP2 ADD DUP1 MLOAD SWAP1 DUP6 MLOAD SWAP2 PUSH1 0x20 SWAP3 PUSH2 0x1932 DUP5 DUP3 DUP2 PUSH2 0x11AE DUP2 DUP4 ADD SWAP7 DUP8 DUP2 MLOAD SWAP4 DUP5 SWAP3 ADD PUSH2 0x1331 JUMP JUMPDEST MLOAD SWAP1 KECCAK256 DUP7 MLOAD DUP4 DUP2 ADD SWAP1 PUSH11 0x3A3932B0B9BAB93C96B4B7 PUSH1 0xA9 SHL DUP3 MSTORE PUSH1 0xB DUP2 MSTORE PUSH2 0x1959 DUP2 PUSH2 0x1274 JUMP JUMPDEST MLOAD SWAP1 KECCAK256 SUB PUSH2 0x19A2 JUMPI POP POP POP PUSH1 0x2 SLOAD AND SWAP1 DUP2 EXTCODESIZE ISZERO PUSH2 0x199E JUMPI DUP4 SWAP2 PUSH1 0x24 DUP4 SWAP3 DUP6 MLOAD SWAP7 DUP8 SWAP4 DUP5 SWAP3 PUSH4 0x7026E9FD PUSH1 0xE0 SHL DUP5 MSTORE PUSH1 0x4 DUP5 ADD MSTORE GAS CALL SWAP2 DUP3 ISZERO PUSH2 0x14B3 JUMPI POP POP PUSH2 0x14A8 JUMPI POP JUMP JUMPDEST DUP4 DUP1 REVERT JUMPDEST DUP1 MLOAD DUP7 MLOAD PUSH2 0x19BF DUP5 DUP3 DUP2 PUSH2 0x11AE DUP2 DUP4 ADD SWAP7 DUP8 DUP2 MLOAD SWAP4 DUP5 SWAP3 ADD PUSH2 0x1331 JUMP JUMPDEST MLOAD SWAP1 KECCAK256 DUP7 MLOAD DUP4 DUP2 ADD SWAP1 PUSH12 0x1D1C99585CDD5C9E4B5BDD5D PUSH1 0xA2 SHL DUP3 MSTORE PUSH1 0xC DUP2 MSTORE PUSH2 0x19E7 DUP2 PUSH2 0x1274 JUMP JUMPDEST MLOAD SWAP1 KECCAK256 SUB PUSH2 0x1A2C JUMPI POP POP POP PUSH1 0x2 SLOAD AND SWAP1 DUP2 EXTCODESIZE ISZERO PUSH2 0x199E JUMPI DUP4 SWAP2 PUSH1 0x24 DUP4 SWAP3 DUP6 MLOAD SWAP7 DUP8 SWAP4 DUP5 SWAP3 PUSH4 0x21814F9 PUSH1 0xE4 SHL DUP5 MSTORE PUSH1 0x4 DUP5 ADD MSTORE GAS CALL SWAP2 DUP3 ISZERO PUSH2 0x14B3 JUMPI POP POP PUSH2 0x14A8 JUMPI POP JUMP JUMPDEST SWAP6 SWAP3 SWAP1 SWAP4 SWAP2 SWAP6 MLOAD DUP6 MLOAD PUSH2 0x1A4E DUP7 DUP3 DUP2 PUSH2 0x11AE DUP2 DUP4 ADD SWAP7 DUP8 DUP2 MLOAD SWAP4 DUP5 SWAP3 ADD PUSH2 0x1331 JUMP JUMPDEST MLOAD SWAP1 KECCAK256 DUP6 MLOAD DUP6 DUP2 ADD SWAP1 PUSH11 0x72756C652D6368616E6765 PUSH1 0xA8 SHL DUP3 MSTORE PUSH1 0xB DUP2 MSTORE PUSH2 0x1A75 DUP2 PUSH2 0x1274 JUMP JUMPDEST MLOAD SWAP1 KECCAK256 EQ PUSH2 0x1A86 JUMPI JUMPDEST POP POP POP POP POP POP JUMP JUMPDEST PUSH1 0x2 SLOAD AND SWAP1 DUP2 EXTCODESIZE ISZERO PUSH2 0x14BD JUMPI DUP3 SWAP2 PUSH1 0x24 DUP4 SWAP3 DUP8 MLOAD SWAP6 DUP7 SWAP4 DUP5 SWAP3 PUSH4 0x6F0D949D PUSH1 0xE1 SHL DUP5 MSTORE PUSH1 0x4 DUP5 ADD MSTORE GAS CALL SWAP1 DUP2 ISZERO PUSH2 0x1CDF JUMPI POP PUSH2 0x1CD0 JUMPI JUMPDEST POP PUSH2 0x1A0 DUP4 MLOAD SWAP4 ADD MLOAD SWAP3 DUP3 MLOAD SWAP1 DUP3 DUP3 ADD DUP2 MLOAD SWAP3 PUSH2 0x1AE4 DUP6 DUP3 DUP2 DUP7 ADD SWAP7 PUSH2 0x11AE DUP2 DUP8 DUP11 PUSH2 0x1331 JUMP JUMPDEST MLOAD SWAP1 KECCAK256 DUP5 MLOAD DUP5 DUP2 ADD SWAP1 PUSH12 0x706173734372697465726961 PUSH1 0xA0 SHL DUP3 MSTORE PUSH1 0xC DUP2 MSTORE PUSH2 0x1B0C DUP2 PUSH2 0x1274 JUMP JUMPDEST MLOAD SWAP1 KECCAK256 SUB PUSH2 0x1B27 JUMPI POP POP POP POP PUSH1 0x3 SSTORE JUMPDEST CODESIZE DUP1 DUP1 DUP1 DUP1 DUP1 PUSH2 0x1A7E JUMP JUMPDEST DUP4 MLOAD DUP4 DUP2 ADD SWAP1 PUSH2 0x1B3F DUP6 DUP3 DUP6 MLOAD PUSH2 0x11AE DUP2 DUP8 DUP11 PUSH2 0x1331 JUMP JUMPDEST MLOAD SWAP1 KECCAK256 DUP5 MLOAD DUP5 DUP2 ADD SWAP1 PUSH14 0x3B37BA34B733A23AB930BA34B7B7 PUSH1 0x91 SHL DUP3 MSTORE PUSH1 0xE DUP2 MSTORE PUSH2 0x1B69 DUP2 PUSH2 0x1274 JUMP JUMPDEST MLOAD SWAP1 KECCAK256 SUB PUSH2 0x1B7D JUMPI POP POP POP POP PUSH1 0x4 SSTORE PUSH2 0x1B1C JUMP JUMPDEST DUP4 MLOAD DUP4 DUP2 ADD SWAP1 PUSH2 0x1B95 DUP6 DUP3 DUP6 MLOAD PUSH2 0x11AE DUP2 DUP8 DUP11 PUSH2 0x1331 JUMP JUMPDEST MLOAD SWAP1 KECCAK256 DUP5 MLOAD DUP5 DUP2 ADD SWAP1 PUSH13 0x616273656E7450656E616C7479 PUSH1 0x98 SHL DUP3 MSTORE PUSH1 0xD DUP2 MSTORE PUSH2 0x1BBE DUP2 PUSH2 0x1274 JUMP JUMPDEST MLOAD SWAP1 KECCAK256 SUB PUSH2 0x1BD2 JUMPI POP POP POP POP PUSH1 0x5 SSTORE PUSH2 0x1B1C JUMP JUMPDEST DUP4 MLOAD DUP4 DUP2 ADD SWAP1 PUSH2 0x1BEA DUP6 DUP3 DUP6 MLOAD PUSH2 0x11AE DUP2 DUP8 DUP11 PUSH2 0x1331 JUMP JUMPDEST MLOAD SWAP1 KECCAK256 DUP5 MLOAD DUP5 DUP2 ADD SWAP1 PUSH12 0x18DBDD5B9D151BD15E1C195B PUSH1 0xA2 SHL DUP3 MSTORE PUSH1 0xC DUP2 MSTORE PUSH2 0x1C12 DUP2 PUSH2 0x1274 JUMP JUMPDEST MLOAD SWAP1 KECCAK256 SUB PUSH2 0x1C26 JUMPI POP POP POP POP PUSH1 0x6 SSTORE PUSH2 0x1B1C JUMP JUMPDEST DUP4 MLOAD DUP4 DUP2 ADD SWAP1 PUSH2 0x1C3E DUP6 DUP3 DUP6 MLOAD PUSH2 0x11AE DUP2 DUP8 DUP11 PUSH2 0x1331 JUMP JUMPDEST MLOAD SWAP1 KECCAK256 DUP5 MLOAD DUP5 DUP2 ADD SWAP1 PUSH12 0x1CD8DBDC99551BD15E1C195B PUSH1 0xA2 SHL DUP3 MSTORE PUSH1 0xC DUP2 MSTORE PUSH2 0x1C66 DUP2 PUSH2 0x1274 JUMP JUMPDEST MLOAD SWAP1 KECCAK256 SUB PUSH2 0x1C7A JUMPI POP POP POP POP PUSH1 0x7 SSTORE PUSH2 0x1B1C JUMP JUMPDEST PUSH2 0x1C94 DUP4 DUP6 MLOAD DUP1 SWAP4 PUSH2 0x11AE DUP4 DUP4 ADD SWAP7 DUP8 SWAP3 MLOAD SWAP3 DUP4 SWAP2 PUSH2 0x1331 JUMP JUMPDEST MLOAD SWAP1 KECCAK256 SWAP2 MLOAD SWAP1 DUP2 ADD SWAP1 PUSH8 0x656E747279466565 PUSH1 0xC0 SHL DUP3 MSTORE PUSH1 0x8 DUP2 MSTORE PUSH2 0x1CB8 DUP2 PUSH2 0x1274 JUMP JUMPDEST MLOAD SWAP1 KECCAK256 EQ PUSH2 0x1CC7 JUMPI JUMPDEST POP PUSH2 0x1B1C JUMP JUMPDEST PUSH1 0x8 SSTORE CODESIZE PUSH2 0x1CC1 JUMP JUMPDEST PUSH2 0x1CD9 SWAP1 PUSH2 0x1261 JUMP JUMPDEST CODESIZE PUSH2 0x1ABD JUMP JUMPDEST DUP5 MLOAD SWAP1 RETURNDATASIZE SWAP1 DUP3 RETURNDATACOPY RETURNDATASIZE SWAP1 REVERT JUMPDEST PUSH2 0x1CFE SWAP2 POP RETURNDATASIZE DUP1 DUP8 DUP4 RETURNDATACOPY PUSH2 0xEDE DUP2 DUP4 PUSH2 0x128F JUMP JUMPDEST CODESIZE PUSH2 0x190A JUMP JUMPDEST DUP5 MLOAD RETURNDATASIZE DUP8 DUP3 RETURNDATACOPY RETURNDATASIZE SWAP1 REVERT INVALID LOG1 PUSH5 0x736F6C6343 STOP ADDMOD EQ STOP EXP "},"methodIdentifiers":{"absentPenalty()":"bdf91db5","countToExpel()":"9f1f43af","createProposal(string,string,uint256,address,bool,string,uint256,uint256,address)":"bc2914b5","entryFee()":"072ea61c","executionContract()":"e0e93244","finalizeProposal(uint256)":"5652077c","getAllMembers()":"7c0f6b35","getMemberCount()":"997072f7","getTreasuryBalance()":"9b5655dc","inviteCodeHash()":"cf5cbd69","isMember(address)":"a230c524","isPrivate()":"faff660e","joinDAO()":"f63d13d7","joinDAOWithCode(string)":"0043b3d8","passCriteria()":"0fd2e6f9","proposalContract()":"3aef3900","proposalDeadline(uint256)":"c01f9e37","proposalExecuted(uint256)":"103616e8","scoreToExpel()":"52bc9e82","vaultContract()":"2274346b","vote(uint256,uint8)":"943e8216","votingDuration()":"132002fc"}}}}}