{"contracts/DAOFactory.sol":{"DAOFactory":{"abi":[{"anonymous":false,"inputs":[{"indexed":true,"internalType":"address","name":"daoAddress","type":"address"},{"indexed":true,"internalType":"address","name":"creator","type":"address"},{"indexed":false,"internalType":"string","name":"name","type":"string"},{"indexed":false,"internalType":"string","name":"description","type":"string"},{"indexed":false,"internalType":"string","name":"category","type":"string"},{"indexed":false,"internalType":"bool","name":"isPrivate","type":"bool"}],"name":"DAOCreated","type":"event"},{"inputs":[{"internalType":"string","name":"_name","type":"string"},{"internalType":"string","name":"_description","type":"string"},{"internalType":"string","name":"_category","type":"string"},{"internalType":"address","name":"_owner","type":"address"},{"internalType":"bool","name":"_isPrivate","type":"bool"},{"internalType":"string","name":"_inviteCode","type":"string"},{"internalType":"uint256","name":"_passCriteria","type":"uint256"},{"internalType":"uint256","name":"_votingDurationInSeconds","type":"uint256"},{"internalType":"uint256","name":"_entryFeeInWei","type":"uint256"},{"internalType":"uint256","name":"_absentPenaltyInWei","type":"uint256"},{"internalType":"uint256","name":"_countToExpel","type":"uint256"},{"internalType":"uint256","name":"_scoreToExpel","type":"uint256"}],"name":"createDAO","outputs":[{"internalType":"address","name":"newDAOAddress","type":"address"}],"stateMutability":"nonpayable","type":"function"},{"inputs":[{"internalType":"uint256","name":"","type":"uint256"}],"name":"deployedDAOs","outputs":[{"internalType":"address","name":"","type":"address"}],"stateMutability":"view","type":"function"},{"inputs":[],"name":"getAllDAOs","outputs":[{"internalType":"address[]","name":"","type":"address[]"}],"stateMutability":"view","type":"function"},{"inputs":[],"name":"getDAO_Count","outputs":[{"internalType":"uint256","name":"","type":"uint256"}],"stateMutability":"view","type":"function"}],"evm":{"bytecode":{"linkReferences":{},"object":"6080806040523461001657615dc1908161001c8239f35b600080fdfe60808060405260043610156200001457600080fd5b600090813560e01c90816316f2878314620007c15750806319e0b28814620007795780633cb2c68a14620006cb576347e9a528146200005257600080fd5b34620006c857610180366003190112620006c8576004356001600160401b038111620006c4576200008890369060040162000859565b6024356001600160401b0381116200054157620000aa90369060040162000859565b906044356001600160401b038111620005e757620000cd90369060040162000859565b906064356001600160a01b0381169003620005e757608435918215158303620005805760a4356001600160401b03811162000532576200011290369060040162000859565b60405190949061092e6001600160401b0381830190811190831117620006b05781816060926200548783396064356001600160a01b0316908201908152602081018a905230604082015203019087f08015620006a5576040516123e4808201906001600160401b03821183831017620006725782916200019e91620030a38439309060643590620008b4565b039088f080156200069a576040516001600160a01b0392831692919091169061083d808201906001600160401b03821183831017620006865784848493620001ec93620028668639620008b4565b039089f0801562000667576040516001600160a01b0391909116976001600160401b03611f3c8301908111908311176200067257620002968291611f3c6200092a8439611f3c830185815260208101879052604081018c905260c435606082015260e43560808201526101243560a08201526101443560c08201526101643560e0820152610104356101008201528a151561012082015261016061014082018190520190620008ce565b039089f0801562000667576001600160a01b031696813b156200066357604051634d1e563560e11b815260048101899052898160248183875af1801562000658576200063e575b50604051631d384ca360e31b81528993929190602081600481865afa908115620005c457859162000603575b50823b156200058057848a62000335926040519384928392632f2ff15d60e01b84526004840162000910565b038183875af1908115620005c4578591620005eb575b5050803b15620005e757604051634d1e563560e11b8152600481018a9052848160248183865af1908115620005c4578591620005cf575b50506040516307bd026560e01b8152602081600481875afa908115620005c457859162000584575b50833b156200058057604051632f2ff15d60e01b815291859183918291620003d791906004840162000910565b038183875af19081156200055d57849162000568575b5050803b1562000541576040518381600481836348ee6ad560e11b968783525af19081156200055d57849162000545575b5050813b156200054157829160048392604051948593849283525af1801562000536576200051a575b5054600160401b81101562000506577fa049c93a9115f3f0e7d4f57cf90f70cdc8a30ba109c9475e1271c2f2203aa02292620004d5879593620004978460209b6001620004e497019055620007dd565b81549060031b9089821b9160018060a01b03901b1916179055620004c760405195608087526080870190620008ce565b908582038b870152620008ce565b908382036040850152620008ce565b93151560608201526064356001600160a01b03169381900390a3604051908152f35b634e487b7160e01b87526041600452602487fd5b62000525906200080b565b6200053257853862000447565b8580fd5b6040513d84823e3d90fd5b8280fd5b62000550906200080b565b620005415782386200041e565b6040513d86823e3d90fd5b62000573906200080b565b62000541578238620003ed565b8480fd5b9450506020843d602011620005bb575b81620005a36020938362000835565b81010312620005b65789935138620003aa565b600080fd5b3d915062000594565b6040513d87823e3d90fd5b620005da906200080b565b620005e757833862000382565b8380fd5b620005f6906200080b565b620005e75783386200034b565b9450506020843d60201162000635575b81620006226020938362000835565b81010312620005b6578993513862000309565b3d915062000613565b6200064e9099919392996200080b565b97909138620002dd565b6040513d8c823e3d90fd5b8880fd5b6040513d8a823e3d90fd5b634e487b7160e01b8a52604160045260248afd5b634e487b7160e01b8b52604160045260248bfd5b6040513d89823e3d90fd5b6040513d88823e3d90fd5b634e487b7160e01b88526041600452602488fd5b5080fd5b80fd5b5034620006c85780600319360112620006c85760405180918054908183526020809301809282805284832090835b8181106200075b57505050846200071291038562000835565b60405193838594850191818652518092526040850193925b8281106200073a57505050500390f35b83516001600160a01b0316855286955093810193928101926001016200072a565b82546001600160a01b031684529286019260019283019201620006f9565b5034620006c8576020366003190112620006c857600435908054821015620006c8576020620007a883620007dd565b905460405160039290921b1c6001600160a01b03168152f35b905034620006c45781600319360112620006c457602091548152f35b906000918254811015620007f75782805260208320019190565b634e487b7160e01b83526032600452602483fd5b6001600160401b0381116200081f57604052565b634e487b7160e01b600052604160045260246000fd5b601f909101601f19168101906001600160401b038211908210176200081f57604052565b81601f82011215620005b6578035906001600160401b0382116200081f576040519262000891601f8401601f19166020018562000835565b82845260208383010111620005b657816000926020809301838601378301015290565b6001600160a01b0391821681529116602082015260400190565b919082519283825260005b848110620008fb575050826000602080949584010152601f8019910116010190565b602081830181015184830182015201620008d9565b9081526001600160a01b0390911660208201526040019056fe60808060405234620001a75762001f3c908138038092620000218284620001c2565b8239610160818381010312620001a7576200003c81620001e6565b6200004a60208301620001e6565b6200005860408401620001e6565b916060840151608085015160a08601519060c08701519260e088015194610100890151966101208a0151988915158a03620001a7576101408b01519a6001600160401b03808d11620001a757818e01828e01601f011215620001a7578c820151908111620001ac576040519c60208e620000dc601f8501601f1916830182620001c2565b838152019e8301602083838601010111620001a75760208f9162000102940101620001fb565b60018060a01b0380928160018060a01b03199516856000541617600055168360015416176001551690600254161760025560035560045560055560065560075560085560ff196009541660ff82151516176009556200016c575b604051611d1b9081620002218239f35b62000199602060405180936200018b83830196879251928391620001fb565b8101038084520182620001c2565b519020600a5538806200015c565b600080fd5b634e487b7160e01b600052604160045260246000fd5b601f909101601f19168101906001600160401b03821190821017620001ac57604052565b51906001600160a01b0382168203620001a757565b60005b8381106200020f5750506000910152565b8181015183820152602001620001fe56fe6080604052600436101561001b575b361561001957600080fd5b005b60003560e01c806243b3d81461114a578063072ea61c1461112c5780630fd2e6f91461110e578063103616e8146110dd578063132002fc146110bf5780632274346b146110965780633aef39001461106d57806352bc9e821461104f5780635652077c14610a245780637c0f6b351461097a578063943e8216146107f7578063997072f7146107a85780639b5655dc146107275780639f1f43af14610709578063a230c52414610610578063bc2914b51461024a578063bdf91db51461022c578063c01f9e3714610200578063cf5cbd69146101e2578063e0e93244146101b9578063f63d13d7146101395763faff660e0361000e573461013457600036600319011261013457602060ff600954166040519015158152f35b600080fd5b60003660031901126101345760ff6009541661015857610019346113aa565b60405162461bcd60e51b815260206004820152603360248201527f54686973206973206120707269766174652044414f2e20557365206a6f696e4460448201527220a7abb4ba3421b7b2329034b739ba32b0b21760691b6064820152608490fd5b34610134576000366003190112610134576002546040516001600160a01b039091168152602090f35b34610134576000366003190112610134576020600a54604051908152f35b3461013457602036600319011261013457600435600052600b6020526020604060002054604051908152f35b34610134576000366003190112610134576020600554604051908152f35b3461013457610120366003190112610134576004356001600160401b0381116101345761027b903690600401611304565b906024356001600160401b0381116101345761029b903690600401611304565b9092909190606435906001600160a01b0382168203610134576084351515608435036101345760a4356001600160401b038111610134576102e0903690600401611304565b610104359291906001600160a01b038416840361013457600054604051635087a34f60e11b81526001600160a01b0390911695906020816004818a5afa90811561053e576000916105dd575b50602061034f9160405180938192632474521560e21b8352339060048401611361565b03818a5afa90811561053e576000916105a3575b501561056057604051966001600160401b0361012089019081119089111761054a576000996020996103a56103ae936103d9986101208d0160405236916112cd565b8a5236916112cd565b8789015260443560408801526001600160a01b031660608701526084351515608087015236916112cd565b60a084015260c43560c084015260e43560e084015260018060a01b0316610100830152604051809481809463664d54f560e11b82526040600483015261048a61043082516101206044860152610164850190611640565b61044b89840151916043199283878303016064880152611640565b6040840151608486015260608401516001600160a01b031660a48601526080840151151560c486015260a084015185820390920160e486015290611640565b60c082015161010484015260e0820151610124840152610100909101516001600160a01b031661014483015233602483015203925af1801561053e5760009061050b575b60209150608435156104fd576104e660045442611665565b81600052600b83526040600020555b604051908152f35b610506816118cf565b6104f5565b506020813d602011610536575b816105256020938361128f565b8101031261013457602090516104ce565b3d9150610518565b6040513d6000823e3d90fd5b634e487b7160e01b600052604160045260246000fd5b60405162461bcd60e51b815260206004820152601b60248201527a2220a79d1021b0b63632b91034b9903737ba10309036b2b6b132b960291b6044820152606490fd5b90506020813d6020116105d5575b816105be6020938361128f565b81010312610134576105cf90611354565b8a610363565b3d91506105b1565b90506020813d602011610608575b816105f86020938361128f565b810103126101345751602061032c565b3d91506105eb565b3461013457602080600319360112610134576004356001600160a01b03808216820361013457600054604051635087a34f60e11b81529116918382600481865afa801561053e5784926000916106d6575b509261068393604051809581948293632474521560e21b845260048401611361565b03915afa90811561053e576000916106a1575b506040519015158152f35b90508181813d83116106cf575b6106b8818361128f565b81010312610134576106c990611354565b82610696565b503d6106ae565b83819492503d8311610702575b6106ed818361128f565b81010312610134579051839190610683610661565b503d6106e3565b34610134576000366003190112610134576020600654604051908152f35b3461013457600036600319011261013457600154604051629032ff60e51b815290602090829060049082906001600160a01b03165afa801561053e57600090610776575b602090604051908152f35b506020813d82116107a0575b8161078f6020938361128f565b81010312610134576020905161076b565b3d9150610782565b346101345760003660031901126101345760005460405163997072f760e01b815290602090829060049082906001600160a01b03165afa801561053e5760009061077657602090604051908152f35b346101345760403660031901126101345760243560ff811680910361013457600054604051635087a34f60e11b81526001600160a01b0390911691906020908181600481875afa801561053e57829060009061094b575b604051632474521560e21b815292508290819061087090339060048401611361565b0381875afa90811561053e57600091610916575b50156108d55750813b1561013457600091606483926040519485938492630ce7fb8360e11b8452600435600485015260248401523360448401525af1801561053e576108cc57005b61001990611261565b6064906040519062461bcd60e51b82526004820152601a6024820152792220a79d21a0a62622a92fa4a9afa727aa2fa0afa6a2a6a122a960311b6044820152fd5b90508181813d8311610944575b61092d818361128f565b810103126101345761093e90611354565b84610884565b503d610923565b5081813d8311610973575b610960818361128f565b810103126101345781610870915161084e565b503d610956565b346101345760003660031901126101345760008054604051637c0f6b3560e01b81526001600160a01b039290918290600490829086165afa90811561053e57600091610a01575b506040519060208083018184528251809152816040850193019160005b8281106109eb5785850386f35b83518716855293810193928101926001016109de565b610a1e91503d806000833e610a16818361128f565b810190611822565b826109c1565b346101345760208060031936011261013457600080546040516318feeb1560e31b808252600480359083018190526024959490936001600160a01b0393908416929091828881865afa91821561053e57600092611032575b508161014081015115610ff65785600052600c875260ff60406000205416610fb5578060e0610ab760a0610ac094015160c084015190611665565b91015190611665565b9260405163997072f760e01b81528781600481855afa90811561053e57600091610f88575b508085109081159081610f7e575b508015610f55575b15610f1b5786600052600b8852604060002054908115159182610f11575b5081610f09575b50610c7f575b505081610c4d57505060005b60035411610bd2576000541692833b1561013457600160446000928360405197889485936332fa518560e21b85528860048601528401525af192831561053e57600c93610bc3575b50807fe36f8b7448daff4a52e2945db0d1d7a436279cc1d527a45c27835dcbd27f336d600080a2610baa816118cf565b600052526040600020600160ff19825416179055600080f35b610bcc90611261565b83610b7a565b6000541692833b1561013457600260446000928360405197889485936332fa518560e21b85528860048601528401525af192831561053e57600c93610c3e575b50807fd92fba445edb3153b571e6df782d7a66fd0ce668519273670820ee3a86da0ef4600080a2610baa565b610c4790611261565b83610c12565b60a00151606481029080820460641490151715610c6a5704610b32565b85634e487b7160e01b60005260116004526000fd5b60049493506000919695925060405194858092637c0f6b3560e01b82525afa92831561053e57600093610eec575b5060005b8351811015610e79578260005416610cec8685610cce85896118a5565b516040516362d4f89360e01b81529384928392168860048401611361565b0381855afa90811561053e57600091610e44575b5015610d2e575b506000198114610d1957600101610cb1565b86634e487b7160e01b60005260116004526000fd5b83610d3983876118a5565b5116813b15610134576000918983926040519485938492635d437b8560e11b845260048401525af1801561053e57610e35575b50826000541683610d7d83876118a5565b511690803b156101345760405163a462e50f60e01b8152916000918391829084908290610dae908a60048401611361565b03925af1801561053e57610e26575b5060008080808660015416600554905af1610dd661137a565b5015610de25787610d07565b60405162461bcd60e51b815260048101869052601f818901527f4661696c656420746f2073656e642070656e616c747920746f207661756c74006044820152606490fd5b610e2f90611261565b87610dbd565b610e3e90611261565b87610d6c565b90508681813d8311610e72575b610e5b818361128f565b8101031261013457610e6c90611354565b89610d00565b503d610e51565b50929390915060008281541691866040518094819382528760048301525afa90811561053e57600091610ec9575b50610ec18160e0610ab760a083015160c084015190611665565b908680610b26565b610ee691503d806000833e610ede818361128f565b8101906116e1565b85610ea7565b610f029193503d806000833e610a16818361128f565b9186610cad565b905089610b20565b421191508a610b19565b60405162461bcd60e51b8152600481018990526013818b01527210d85b9b9bdd08199a5b985b1a5e99481e595d606a1b6044820152606490fd5b5086600052600b88526040600020548015159081610f74575b50610afb565b905042118a610f6e565b905015158a610af3565b90508781813d8311610fae575b610f9f818361128f565b81010312610134575189610ae5565b503d610f95565b60405162461bcd60e51b815260048101889052601a818a015279141c9bdc1bdcd85b08185b1c9958591e48199a5b985b1a5e995960321b6044820152606490fd5b60405162461bcd60e51b8152600481018890526015818a015274139bdd0818481d9bdd1a5b99c81c1c9bdc1bdcd85b605a1b6044820152606490fd5b6110489192503d806000833e610ede818361128f565b9087610a7c565b34610134576000366003190112610134576020600754604051908152f35b34610134576000366003190112610134576000546040516001600160a01b039091168152602090f35b34610134576000366003190112610134576001546040516001600160a01b039091168152602090f35b34610134576000366003190112610134576020600454604051908152f35b3461013457602036600319011261013457600435600052600c602052602060ff604060002054166040519015158152f35b34610134576000366003190112610134576020600354604051908152f35b34610134576000366003190112610134576020600854604051908152f35b602080600319360112610134576004356001600160401b0381116101345736602382011215610134576111879036906024816004013591016112cd565b60ff6009541615611209576040516111bb8382816111ae8183019687815193849201611331565b810103808452018261128f565b519020600a54036111cf57610019346113aa565b6064906040519062461bcd60e51b825260048201526013602482015272496e76616c696420696e7669746520636f646560681b6044820152fd5b60405162461bcd60e51b815260048101839052602a60248201527f546869732069732061207075626c69632044414f2e20557365206a6f696e4441604482015269279034b739ba32b0b21760b11b6064820152608490fd5b6001600160401b03811161054a57604052565b604081019081106001600160401b0382111761054a57604052565b601f909101601f19168101906001600160401b0382119082101761054a57604052565b6001600160401b03811161054a57601f01601f191660200190565b9291926112d9826112b2565b916112e7604051938461128f565b829481845281830111610134578281602093846000960137010152565b9181601f84011215610134578235916001600160401b038311610134576020838186019501011161013457565b60005b8381106113445750506000910152565b8181015183820152602001611334565b5190811515820361013457565b9081526001600160a01b03909116602082015260400190565b3d156113a5573d9061138b826112b2565b91611399604051938461128f565b82523d6000602084013e565b606090565b906008548210611602576000805460408051635087a34f60e11b80825260049692949390926020926001600160a01b039283169084818b81855afa9081156115f85785918b9189916115bf575b5092611418938a51809581948293632474521560e21b845233918401611361565b03915afa9081156115b557869161157c575b5061154657848080809385600154165af161144361137a565b50156114f95783541691845190815281818881865afa9182156114ef5784926114c1575b5050813b156114bd579482916114949596838651809881958294632f2ff15d60e01b845233918401611361565b03925af19182156114b35750506114a85750565b6114b190611261565b565b51903d90823e3d90fd5b8280fd5b90809250813d83116114e8575b6114d8818361128f565b810103126114bd57513880611467565b503d6114ce565b85513d86823e3d90fd5b845162461bcd60e51b8152808801839052602160248201527f4661696c656420746f2073656e6420656e7472792066656520746f207661756c6044820152601d60fa1b6064820152608490fd5b855162461bcd60e51b8152808901849052601060248201526f20b63932b0b23c90309036b2b6b132b960811b6044820152606490fd5b90508381813d83116115ae575b611593818361128f565b810103126115aa576115a490611354565b3861142a565b8580fd5b503d611589565b87513d88823e3d90fd5b928092508391503d83116115f1575b6115d8818361128f565b810103126115ed575184908a906114186113f7565b8680fd5b503d6115ce565b88513d89823e3d90fd5b60405162461bcd60e51b8152602060048201526016602482015275496e73756666696369656e7420656e7472792066656560501b6044820152606490fd5b9060209161165981518092818552858086019101611331565b601f01601f1916010190565b9190820180921161167257565b634e487b7160e01b600052601160045260246000fd5b81601f8201121561013457805161169e816112b2565b926116ac604051948561128f565b81845260208284010111610134576116ca9160208085019101611331565b90565b51906001600160a01b038216820361013457565b906020828203126101345781516001600160401b03928382116101345701906101e0928383830312610134576040519384018481108282111761054a5760405282518181116101345782611736918501611688565b845260208301518181116101345782611750918501611688565b60208501526040838101519085015260608301516001600160a01b03811681036101345760608501526080830151600481101561013457608085015260a083015160a085015260c083015160c085015260e083015160e085015261010080840151908501526101206117c38185016116cd565b908501526101406117d5818501611354565b908501526101609182840151918211610134576117f3918401611688565b9083015261018080820151908301526101a0808201519083015261181b6101c08092016116cd565b9082015290565b9060209081838203126101345782516001600160401b0393848211610134570181601f8201121561013457805193841161054a578360051b906040519461186b8584018761128f565b85528380860192820101928311610134578301905b82821061188e575050505090565b83809161189a846116cd565b815201910190611880565b80518210156118b95760209160051b010190565b634e487b7160e01b600052603260045260246000fd5b60018060a01b0360009181835416916024846040948551928380926318feeb1560e31b82528760048301525afa908115611d04578591611cea575b5061016081018051908551916020926119328482816111ae8183019687815193849201611331565b5190208651838101906a3a3932b0b9bab93c96b4b760a91b8252600b815261195981611274565b519020036119a2575050506002541690813b1561199e5783916024839285519687938492637026e9fd60e01b845260048401525af19182156114b35750506114a85750565b8380fd5b805186516119bf8482816111ae8183019687815193849201611331565b5190208651838101906b1d1c99585cdd5c9e4b5bdd5d60a21b8252600c81526119e781611274565b51902003611a2c575050506002541690813b1561199e578391602483928551968793849263021814f960e41b845260048401525af19182156114b35750506114a85750565b959290939195518551611a4e8682816111ae8183019687815193849201611331565b5190208551858101906a72756c652d6368616e676560a81b8252600b8152611a7581611274565b51902014611a86575b505050505050565b6002541690813b156114bd5782916024839287519586938492636f0d949d60e11b845260048401525af1908115611cdf5750611cd0575b506101a0835193015192825190828201815192611ae48582818601966111ae81878a611331565b5190208451848101906b70617373437269746572696160a01b8252600c8152611b0c81611274565b51902003611b2757505050506003555b388080808080611a7e565b835183810190611b3f858285516111ae81878a611331565b5190208451848101906d3b37ba34b733a23ab930ba34b7b760911b8252600e8152611b6981611274565b51902003611b7d5750505050600455611b1c565b835183810190611b95858285516111ae81878a611331565b5190208451848101906c616273656e7450656e616c747960981b8252600d8152611bbe81611274565b51902003611bd25750505050600555611b1c565b835183810190611bea858285516111ae81878a611331565b5190208451848101906b18dbdd5b9d151bd15e1c195b60a21b8252600c8152611c1281611274565b51902003611c265750505050600655611b1c565b835183810190611c3e858285516111ae81878a611331565b5190208451848101906b1cd8dbdc99551bd15e1c195b60a21b8252600c8152611c6681611274565b51902003611c7a5750505050600755611b1c565b611c9483855180936111ae83830196879251928391611331565b51902091519081019067656e74727946656560c01b825260088152611cb881611274565b51902014611cc7575b50611b1c565b60085538611cc1565b611cd990611261565b38611abd565b8451903d90823e3d90fd5b611cfe91503d8087833e610ede818361128f565b3861190a565b84513d87823e3d90fdfea164736f6c6343000814000a60803461008d57601f61083d38819003918201601f19168301916001600160401b0383118484101761009257808492604094855283398101031261008d57610052602061004b836100a8565b92016100a8565b600080546001600160a01b039384166001600160a01b0319918216179091556001805492909316911617905560405161078090816100bd8239f35b600080fd5b634e487b7160e01b600052604160045260246000fd5b51906001600160a01b038216820361008d5756fe608060408181526004908136101561001657600080fd5b600092833560e01c9081632131c68c146104c35750806321814f901461033c5780632274346b146103135780633aef3900146102eb578381637026e9fd1461024c575080639a3cac6a146101c15763de1b293a1461007357600080fd5b34610181576020366003190112610181578282359260018060a01b0361009e816002541633146104e8565b825416908351946318feeb1560e31b865280828701528386602481865afa9586156101b7578496610193575b50823b1561018f576044849283875195869485936332fa518560e21b8552840152600360248401525af180156101855761016d575b50506080827f0c607c5751c330dfb1b02e97a8c6b40995b7c37f1247cb3ba0baa9308f3747ff93516101a06101808301519201518451948593606085526101558451809581606089015260208989019101610580565b6020850152830152601f01601f19168101030190a180f35b61017690610534565b6101815782386100ff565b8280fd5b83513d84823e3d90fd5b8380fd5b6101b09196503d8086833e6101a8818361055d565b810190610610565b94386100ca565b85513d86823e3d90fd5b5034610181576020366003190112610181576001600160a01b03823581811693919290849003610248576002549283166102085750506001600160a01b0319161760025580f35b906020606492519162461bcd60e51b8352820152601a602482015279111053c81859191c995cdcc81a5cc8185b1c9958591e481cd95d60321b6044820152fd5b8480fd5b828185346102de5760203660031901126102de5780359260018060a01b03610279816002541633146104e8565b83541691823b1561018f57846044859283855196879485936332fa518560e21b8552840152600360248401525af19081156102e257506102ca575b508060008051602061075483398151915291a280f35b6102d390610534565b6102de5781836102b4565b5080fd5b513d84823e3d90fd5b8382346102de57816003193601126102de57905490516001600160a01b039091168152602090f35b8382346102de57816003193601126102de5760015490516001600160a01b039091168152602090f35b5090346101815760203660031901126101815780359160018060a01b03610368816002541633146104e8565b602485828154168451928380926318feeb1560e31b825289898301525afa9081156104655786916104a9575b508160015416908131908481019182511161046f5760600151905187918416833b1561018157604490838751958694859363a9059cbb60e01b85528b85015260248401525af180156104655761044e575b509084929183541691823b1561018f57846044859283855196879485936332fa518560e21b8552840152600360248401525af19081156102e2575061043a57508060008051602061075483398151915291a280f35b61044390610534565b6102de5781386102b4565b61045c909591939295610534565b939091386103e5565b83513d88823e3d90fd5b845162461bcd60e51b81526020818801526014602482015273496e73756666696369656e742062616c616e636560601b6044820152606490fd5b6104bd91503d8088833e6101a8818361055d565b38610394565b8490346102de57816003193601126102de576002546001600160a01b03168152602090f35b156104ef57565b60405162461bcd60e51b815260206004820152601f60248201527f4f6e6c792044414f2063616e2063616c6c20746869732066756e6374696f6e006044820152606490fd5b6001600160401b03811161054757604052565b634e487b7160e01b600052604160045260246000fd5b601f909101601f19168101906001600160401b0382119082101761054757604052565b60005b8381106105935750506000910152565b8181015183820152602001610583565b81601f820112156105f75780516001600160401b03811161054757604051926105d6601f8301601f19166020018561055d565b818452602082840101116105f7576105f49160208085019101610580565b90565b600080fd5b51906001600160a01b03821682036105f757565b906020828203126105f75781516001600160401b03928382116105f75701906101e09283838303126105f757604051938401848110828211176105475760405282518181116105f757826106659185016105a3565b845260208301518181116105f7578261067f9185016105a3565b60208501526040838101519085015260608301516001600160a01b03811681036105f7576060850152608083015160048110156105f757608085015260a083015160a085015260c083015160c085015260e083015160e085015261010080840151908501526101206106f28185016105fc565b90850152610140808401519081151582036105f75785015261016091828401519182116105f7576107249184016105a3565b9083015261018080820151908301526101a0808201519083015261074c6101c08092016105fc565b908201529056fe712ae1383f79ac853f8d882153778e0260ef8f03b504e2866e0593e04d2b291fa164736f6c6343000814000a6080346200020c57620023e4601f38829003908101601f19168301906001600160401b038211848310176200021157808491604094859485528339810103126200020c576200004e8262000227565b906200005e602080940162000227565b926200006a836200023c565b506001600160a01b0393808516620001f9575b50600080516020620023c48339815191529260009484865285835260018487200154808752848720338852845260ff858820541615620001dc5750620000c382620002bc565b5060065468010000000000000000811015620001c8576001810180600655811015620001b457908693929160068552838520019116908160018060a01b031982541617905580835260078252838320600160ff19825416179055600482526032848420557fdb51946147af8f68f24b69cdb99d868cc4b53b75dce4e05d8f590bcf5281051c82855160328152a283825252600181842001917fbd79b86ffe0ab8e8776151514217cd7cacd52c909f66475c3af44e129f0b00ff8354927f3b5d4cc60d3ec3516ee8ae083bd60934f6eb2a6c54b1229985c41bfb092b2603809555519480a461205690816200034e8239f35b634e487b7160e01b87526032600452602487fd5b634e487b7160e01b87526041600452602487fd5b60449085519063e2517d3f60e01b82523360048301526024820152fd5b62000204906200023c565b50386200007d565b600080fd5b634e487b7160e01b600052604160045260246000fd5b51906001600160a01b03821682036200020c57565b6001600160a01b031660008181527fad3228b676f7d3cd4284a5443f17f1962b36e491b30a40b2405849e597ba5fb5602052604081205490919060ff16620002b857818052816020526040822081835260205260408220600160ff198254161790553391600080516020620023a48339815191528180a4600190565b5090565b6001600160a01b031660008181527f30710e496c9a8631e387d1ff5062c226d4ce9c9e008bff1f22ae157290ccbd626020526040812054909190600080516020620023c48339815191529060ff166200034857808352826020526040832082845260205260408320600160ff19825416179055600080516020620023a4833981519152339380a4600190565b50509056fe6080604052600436101561001257600080fd5b60003560e01c8063013cf08b146115e557806301ffc9a71461158f57806319cff706146113c05780631f56d126146113865780632131c68c1461135d578063248a9ca31461132e5780632b72ee511461123d5780632f2ff15d1461115057806336568abe146111095780634385963214610ff8578063488cba40146110875780635daf08ca1461104557806362d4f89314610ff85780637c0f6b3514610f4d57806391d1485414610f0057806391dcd5aa14610e83578063997072f714610e655780639a3cac6a14610de4578063a10f469e14610dbb578063a217fddf14610d9f578063a230c52414610d60578063a462e50f14610cb2578063a9330b0e14610c78578063ba86f70a14610ba6578063c7f758a814610af9578063cbe9461414610a87578063cc9aa9ea14610435578063cceb68f514610343578063d547741f146101945763e9c265181461016657600080fd5b3461018f57600036600319011261018f576020604051600080516020611f6a8339815191528152f35b600080fd5b3461018f57604036600319011261018f576004356101b06118d0565b90806000526000602052600080516020611fea8339815191526001916101dc8360406000200154611b89565b6101e68482611ad0565b501480610321575b6101f457005b6001600160a01b039182166000818152600760205260408120805460ff19169055909290825b610233575b505050600090815260036020526040812055005b600680548083101561031a5783908661024b856118e6565b939054600394851b1c161461026c5750505061026690611c8d565b8261021a565b909291945060001993848201918211610304576102ba9361028f61029b936118e6565b9054911b1c16916118e6565b90919082549060031b9160018060a01b03809116831b921b1916179055565b815480156102ee5701906102e56102d0836118e6565b81549060018060a01b039060031b1b19169055565b5581808061021f565b634e487b7160e01b600052603160045260246000fd5b634e487b7160e01b600052601160045260246000fd5b505061021f565b506001600160a01b03821660009081526007602052604090205460ff166101ee565b3461018f57600036600319011261018f57600180546001600160401b03811161041f579060405190602061037c818560051b01846117a4565b838352808301938483600052826000206000915b8383106103f85750505050604051928184019082855251809152604084019160408260051b86010195926000905b8382106103cb5786880387f35b909192939483806103e7839a603f198b82030186528951611901565b9997019594939190910191016103be565b94600d8582999761040b859a989a611e6e565b815201920192019190969496959395610390565b634e487b7160e01b600052604160045260246000fd5b3461018f5760031960403682011261018f576001600160401b036004351161018f57610120600435600401916004353603011261018f576104746118d0565b9061047d611b33565b6104878180611dd2565b919061049860246004350183611dd2565b909290919060043560640135906001600160a01b038216820361018f576084600435013590811515820361018f576104d69060a46004350190611dd2565b60043561010401359691949093916001600160a01b038816880361018f576105779661051361051c936040519b61050c8d611788565b3691611e04565b8a523691611e04565b60208801526004356044013560408801526001600160a01b03908116606088015260006080880181905260a0880181905260c0880181905260e088015242610100880152871661012087015215156101408601523691611e04565b61016083015260043560c481013561018084015260e401356101a08301526001600160a01b03166101c0820152600154600160401b81101561041f578060016105c39201600155611719565b610a7157815180519093906001600160401b03811161041f576105e6835461174e565b601f8111610a2d575b506020601f82116001146109c45781929394956000926109b9575b50508160011b916000199060031b1c19161782555b602083015180519093906001600160401b03811161041f57610644600185015461174e565b601f8111610972575b506020601f82116001146109035781929394956000926108f8575b50508160011b916000199060031b1c19161760018401555b6040810151600284015560608101516003840180546001600160a01b0319166001600160a01b0392909216919091179055608081015160048110156108e2576106cc9060038501611e4a565b60a081810151600485015560c0820151600585015560e0820151600685015561010082015160078501556101208201516008850180546101408501516001600160a81b03199091166001600160a01b03939093169290921791151590921b60ff60a01b1617905561016081015180519093906001600160401b03811161041f57610759600983015461174e565b601f811161089b575b506020601f821160011461082a578190600c94959660009261081f575b50508160011b916000199060031b1c19161760098201555b610180830151600a8201556101a0830151600b8201556101c090920151910180546001600160a01b0319166001600160a01b03929092169190911790556001546000198101919082116103045760405160209290916001600160a01b0316817fcd423cc1203c0af96b9b3d68d73b3064a69de2d14450bb7181c5e5df2132b358600080a38152f35b01519050868061077f565b601f198216956009840160005260206000209660005b818110610883575091600c9596979184600195941061086a575b505050811b016009820155610797565b015160001960f88460031b161c1916905586808061085a565b83830151895560019098019760209384019301610840565b600983016000526020600020601f830160051c8101602084106108db575b601f830160051c820181106108cf575050610762565b600081556001016108b9565b50806108b9565b634e487b7160e01b600052602160045260246000fd5b015190508580610668565b6001850160005260206000209060005b601f198416811061095a575060019394959683601f19811610610941575b505050811b016001840155610680565b015160001960f88460031b161c19169055858080610931565b9091602060018192858b015181550193019101610913565b600185016000526020600020601f830160051c8101602084106109b2575b601f830160051c820181106109a657505061064d565b60008155600101610990565b5080610990565b01519050858061060a565b8360005260206000209060005b601f1984168110610a15575060019394959683601f198116106109fc575b505050811b01825561061f565b015160001960f88460031b161c191690558580806109ef565b9091602060018192858b0151815501930191016109d1565b836000526020600020601f830160051c810160208410610a6a575b601f830160051c82018110610a5e5750506105ef565b60008155600101610a48565b5080610a48565b634e487b7160e01b600052600060045260246000fd5b3461018f57604036600319011261018f57600435602435600481101561018f5760207f3346abf262ac5179e9052765fb72484e0baab1f356f08442bb7a3054147631de91610ad3611b33565b610ae9816003610ae287611719565b5001611e4a565b610af660405180926118ad565ba2005b3461018f57602036600319011261018f5760006101c0604051610b1b81611788565b60608152606060208201528260408201528260608201528260808201528260a08201528260c08201528260e0820152826101008201528261012082015282610140820152606061016082015282610180820152826101a08201520152610ba2610b8e610b88600435611719565b50611e6e565b604051918291602083526020830190611901565b0390f35b3461018f5760208060031936011261018f57610bc06118ba565b90610bc9611b33565b6001600160a01b038281166000818152600384526040902080546001810191908210610304575560005260038252600482604060002054926005541660405192838092639f1f43af60e01b82525afa928315610c6c57600093610c3c575b50501015610c3157005b610c3a90611c9c565b005b9080929350813d8311610c65575b610c5481836117a4565b8101031261018f5751908380610c27565b503d610c4a565b6040513d6000823e3d90fd5b3461018f57602036600319011261018f576001600160a01b03610c996118ba565b1660005260036020526020604060002054604051908152f35b3461018f57604036600319011261018f57600435610cce6118d0565b90610cd7611b33565b610ce081611719565b5081600052600260205260406000209260018060a01b0316928360005260205260ff6040600020541615610d1057005b6006908260005260026020526040600020846000526020526040600020600160ff1982541617905501610d438154611c8d565b905560008051602061200a833981519152602060405160028152a3005b3461018f57602036600319011261018f576001600160a01b03610d816118ba565b166000526007602052602060ff604060002054166040519015158152f35b3461018f57600036600319011261018f57602060405160008152f35b3461018f57600036600319011261018f576020604051600080516020611fea8339815191528152f35b3461018f57602036600319011261018f57610dfd6118ba565b33600090815260008051602061202a833981519152602052604090205460ff1615610e4657600580546001600160a01b0319166001600160a01b038316179055610c3a90611baf565b60405163e2517d3f60e01b815233600482015260006024820152604490fd5b3461018f57600036600319011261018f576020600654604051908152f35b3461018f57600036600319011261018f5733600090815260008051602061202a833981519152602052604090205460ff1615610ec257610c3a336119da565b60405162461bcd60e51b815260206004820152601660248201527521b0b63632b91034b9903737ba1030b71030b236b4b760511b6044820152606490fd5b3461018f57604036600319011261018f57610f196118d0565b600435600052600060205260406000209060018060a01b0316600052602052602060ff604060002054166040519015158152f35b3461018f57600036600319011261018f5760405180600654808352602080930180916006600052846000209060005b86828210610fdb578686610f92828803836117a4565b604051928392818401908285525180915260408401929160005b828110610fbb57505050500390f35b83516001600160a01b031685528695509381019392810192600101610fac565b83546001600160a01b031685529093019260019283019201610f7c565b3461018f57604036600319011261018f576110116118d0565b600435600052600260205260406000209060018060a01b0316600052602052602060ff604060002054166040519015158152f35b3461018f57602036600319011261018f5760043560065481101561018f5761106e6020916118e6565b905460405160039290921b1c6001600160a01b03168152f35b3461018f57604036600319011261018f576110a06118ba565b6110a8611b33565b6001600160a01b03166000818152600460205260409020546024358101908110610304576020600080516020611faa83398151915291606481116000146111035760645b8460005260048352604060002055604051908152a2005b806110ec565b3461018f57604036600319011261018f576111226118d0565b336001600160a01b0382160361113e57610c3a90600435611ad0565b60405163334bd91960e11b8152600490fd5b3461018f57604036600319011261018f57600435600080516020611fea83398151915261117b6118d0565b91806000526000602052611196600160406000200154611b89565b6111a08382611c26565b50148061121a575b6111ae57005b600654600160401b81101561041f578161029b8260016111d194016006556118e6565b60018060a01b03168060005260076020526040600020600160ff1982541617905560046020526032604060002055600080516020611faa833981519152602060405160328152a2005b506001600160a01b03811660009081526007602052604090205460ff16156111a8565b3461018f57604036600319011261018f576112566118ba565b602435611261611b33565b6001600160a01b0382811660008181526004602090815260409091205490939192918481831061132057508103908111610304576004918491935b8060005283835284604060002055600080516020611faa83398151915283604051878152a2600554166040519283809263295e4f4160e11b82525afa928315610c6c576000936112f0575b505010610c3157005b9080929350813d8311611319575b61130881836117a4565b8101031261018f57519083806112e7565b503d6112fe565b91505060049160009361129c565b3461018f57602036600319011261018f5760043560005260006020526020600160406000200154604051908152f35b3461018f57600036600319011261018f576005546040516001600160a01b039091168152602090f35b3461018f57602036600319011261018f576001600160a01b036113a76118ba565b1660005260046020526020604060002054604051908152f35b3461018f57606036600319011261018f576004356024359060ff821680920361018f576044356001600160a01b038116929083900361018f57611401611b33565b61140a82611719565b509060ff600883015460a01c1615611554578260005260209160028352604060002085600052835260ff6040600020541661151f57600084815260028452604080822087835285529020805460ff191660011790558161148f5790600460008051602061200a8339815191529392016114838154611c8d565b90555b604051908152a3005b600182036114bd5790600560008051602061200a8339815191529392016114b68154611c8d565b9055611486565b600282036114e45790600660008051602061200a8339815191529392016114b68154611c8d565b60405162461bcd60e51b8152600481018490526013602482015272496e76616c696420766f74652063686f69636560681b6044820152606490fd5b60405162461bcd60e51b815260048101849052600d60248201526c105b1c9958591e481d9bdd1959609a1b6044820152606490fd5b60405162461bcd60e51b8152602060048201526013602482015272159bdd1a5b99c81b9bdd081c995c5d5a5c9959606a1b6044820152606490fd5b3461018f57602036600319011261018f5760043563ffffffff60e01b811680910361018f57602090637965db0b60e01b81149081156115d4575b506040519015158152f35b6301ffc9a760e01b149050826115c9565b3461018f57602036600319011261018f5760043560015481101561018f5761160c90611719565b50611616816117c7565b611622600183016117c7565b906002830154926003810154906004810154906005810154936006820154916007810154906008810154916009820161165a906117c7565b94600a83015498600b84015497600160a01b60019003600c8196015416996040519d8e9d8e996101e0808c528b016116919161186d565b8a810360208c01526116a29161186d565b98604001528c868216906060015260808d019060a01c60ff16906116c5916118ad565b60a08c015260c08b015260e08a0152610100890152811661012088015260a01c60ff1615156101408701528581036101608701526117029161186d565b926101808501526101a08401526101c08301520390f35b600154811015611738576001600052600d602060002091020190600090565b634e487b7160e01b600052603260045260246000fd5b90600182811c9216801561177e575b602083101461176857565b634e487b7160e01b600052602260045260246000fd5b91607f169161175d565b6101e081019081106001600160401b0382111761041f57604052565b601f909101601f19168101906001600160401b0382119082101761041f57604052565b90604051918260008254926117db8461174e565b90818452600194858116908160001461184a5750600114611807575b5050611805925003836117a4565b565b9093915060005260209081600020936000915b818310611832575050611805935082010138806117f7565b8554888401850152948501948794509183019161181a565b91505061180594506020925060ff191682840152151560051b82010138806117f7565b919082519283825260005b848110611899575050826000602080949584010152601f8019910116010190565b602081830181015184830182015201611878565b9060048210156108e25752565b600435906001600160a01b038216820361018f57565b602435906001600160a01b038216820361018f57565b60065481101561173857600660005260206000200190600090565b9061192a61191883516101e080855284019061186d565b6020840151838203602085015261186d565b91604081015160408301526119b560018060a01b039384606084015116606085015261195e608084015160808601906118ad565b60a083015160a085015260c083015160c085015260e083015160e08501526101008084015190850152610120858185015116908501526101408084015115159085015261016080840151908583039086015261186d565b9261018080830151908401526101a080830151908401526101c0809201511691015290565b6001600160a01b0316600081815260008051602061202a833981519152602052604081205490919060ff1615611a405781805281602052604082208183526020526040822060ff1981541690553391600080516020611fca8339815191528180a4600190565b5090565b6001600160a01b031660008181527f30710e496c9a8631e387d1ff5062c226d4ce9c9e008bff1f22ae157290ccbd626020526040812054909190600080516020611fea8339815191529060ff1615611acb5780835282602052604083208284526020526040832060ff198154169055600080516020611fca833981519152339380a4600190565b505090565b9060009180835282602052604083209160018060a01b03169182845260205260ff604084205416600014611acb5780835282602052604083208284526020526040832060ff198154169055600080516020611fca833981519152339380a4600190565b336000908152600080516020611f8a8339815191526020526040902054600080516020611f6a8339815191529060ff1615611b6b5750565b6044906040519063e2517d3f60e01b82523360048301526024820152fd5b80600052600060205260406000203360005260205260ff6040600020541615611b6b5750565b6001600160a01b03166000818152600080516020611f8a8339815191526020526040812054909190600080516020611f6a8339815191529060ff16611acb57808352826020526040832082845260205260408320600160ff19825416179055600080516020611f4a833981519152339380a4600190565b9060009180835282602052604083209160018060a01b03169182845260205260ff60408420541615600014611acb57808352826020526040832082845260205260408320600160ff19825416179055600080516020611f4a833981519152339380a4600190565b60001981146103045760010190565b6000600080516020611fea833981519152815280602052600191611cc583604084200154611b89565b611cce81611a44565b506001600160a01b03908116808352600760205260408320805491929160ff8116611cfc575b505050505050565b60ff1916905582845b611d24575b505081526003602052604081205550388080808080611cf4565b6006805480831015611dcb578385611d3b856118e6565b929054600393841b1c1614611d5c57505050611d5690611c8d565b84611d05565b9093919495965060001993848101908111611db7579161029b9161028f611d8395946118e6565b81548015611da3570190611d996102d0836118e6565b5581903880611d0a565b634e487b7160e01b85526031600452602485fd5b634e487b7160e01b88526011600452602488fd5b5050611d0a565b903590601e198136030182121561018f57018035906001600160401b03821161018f5760200191813603831361018f57565b9192916001600160401b03821161041f5760405191611e2d601f8201601f1916602001846117a4565b82948184528183011161018f578281602093846000960137010152565b9060048110156108e257815460ff60a01b191660a09190911b60ff60a01b16179055565b90604051611e7b81611788565b8092611e86816117c7565b8252611e94600182016117c7565b60208301526002810154604083015260038101546001600160a01b0380821660608501529060a01c60ff1660048110156108e2576101c092600c916080860152600481015460a0860152600581015460c0860152600681015460e0860152600781015461010086015260ff600882015484811661012088015260a01c161515610140860152611f25600982016117c7565b610160860152600a810154610180860152600b8101546101a086015201541691015256fe2f8788117e7eff1d82e926ec794901d17c78024a50270940304540a733656f0d3b5d4cc60d3ec3516ee8ae083bd60934f6eb2a6c54b1229985c41bfb092b2603c39f11a9300b508470eaed31f5842ba08c93181bcbe6a7fe34039aa7f2b80742db51946147af8f68f24b69cdb99d868cc4b53b75dce4e05d8f590bcf5281051cf6391f5c32d9c69d2a47ea670b442974b53935d1edc7fd64eb21e047a839171b829b824e2329e205435d941c9f13baf578548505283d29261236d8e6596d4636094f80829c509370abb2d421a078ba5926755d3de25d021dacf7bbd19853f7a2ad3228b676f7d3cd4284a5443f17f1962b36e491b30a40b2405849e597ba5fb5a164736f6c6343000814000a2f8788117e7eff1d82e926ec794901d17c78024a50270940304540a733656f0d829b824e2329e205435d941c9f13baf578548505283d29261236d8e6596d46366080346100bb57601f61092e38819003918201601f19168301916001600160401b038311848410176100c0578084926060946040528339810103126100bb57610047816100d6565b610072610062604061005b602086016100d6565b94016100d6565b9161006c816100ea565b50610168565b506001600160a01b03908082166100ab575b50811661009b575b60405161066a90816102a48239f35b6100a490610208565b503861008c565b6100b4906100ea565b5038610084565b600080fd5b634e487b7160e01b600052604160045260246000fd5b51906001600160a01b03821682036100bb57565b6001600160a01b031660008181527fad3228b676f7d3cd4284a5443f17f1962b36e491b30a40b2405849e597ba5fb5602052604081205490919060ff1661016457818052816020526040822081835260205260408220600160ff19825416179055339160008051602061090e8339815191528180a4600190565b5090565b6001600160a01b031660008181527f991c3211066600fc98d95d017c66f2884b1fa3d4cabc2576d000f3cc80931bda60205260408120549091907f3496e2e73c4d42b75d702e60d9e48102720b8691234415963a5a857b86425d079060ff1661020357808352826020526040832082845260205260408320600160ff1982541617905560008051602061090e833981519152339380a4600190565b505090565b6001600160a01b031660008181527fdae2aa361dfd1ca020a396615627d436107c35eff9fe7738a3512819782d706960205260408120549091907fd8aa0f3194971a2a116679f7c2090f6939c8d4e01a2a8d7e41d55e5351469e639060ff1661020357808352826020526040832082845260205260408320600160ff1982541617905560008051602061090e833981519152339380a460019056fe60806040908082526004908136101561004c575b5050361561002057600080fd5b513481527f2da466a7b24304f47e87fa2e1e5a81b9831ce54fec19055ce277ca2f39ba42c460203392a2005b600091823560e01c91826301ffc9a7146103fe5750816307bd0265146103d557816312065fe0146103ba578163248a9ca31461038f5781632f2ff15d1461037157816336568abe1461033657816391d14854146102fc57816391dcd5aa14610287578163a217fddf1461026c578163a9059cbb1461015357508063d547741f1461011e5763f0a3a97c146100e05780610013565b903461011a578160031936011261011a57602090517f3496e2e73c4d42b75d702e60d9e48102720b8691234415963a5a857b86425d078152f35b5080fd5b50903461011a57600161014f9161014a61013736610451565b939092838752866020528620015461047c565b6105ba565b5080f35b8391503461026857816003193601126102685780356001600160a01b0381169290839003610264576024359160008051602061063e8339815191528086528560205282862033875260205260ff83872054161561024957508247106102095750838284828215610200575b839283928392f1156101f7577f7084f5476618d8e60b11ef0d7d3f06914655adb8793e28ff7f018d4c76d505d59160209151908152a280f35b513d84823e3d90fd5b506108fc6101be565b6020606492519162461bcd60e51b8352820152601b60248201527a5661756c743a20696e73756666696369656e742062616c616e636560281b6044820152fd5b604492519163e2517d3f60e01b835233908301526024820152fd5b8380fd5b8280fd5b82843461011a578160031936011261011a5751908152602090f35b905082346102685782600319360112610268578280528260205280832033845260205260ff8184205416156102c0578261014f3361053e565b906020606492519162461bcd60e51b8352820152601660248201527521b0b63632b91034b9903737ba1030b71030b236b4b760511b6044820152fd5b82843461011a5760ff8160209361031236610451565b9082528186528282206001600160a01b039091168252855220549151911615158152f35b82843461011a5761034636610451565b91336001600160a01b0384160361036257509061014f916105ba565b5163334bd91960e11b81528490fd5b82843461011a57600161014f9161038a61013736610451565b6104c0565b8391503461026857602036600319011261026857816020936001923581528085522001549051908152f35b82843461011a578160031936011261011a5751478152602090f35b82843461011a578160031936011261011a576020905160008051602061063e8339815191528152f35b915034610268576020366003190112610268573563ffffffff60e01b81168091036102685760209250637965db0b60e01b8114908115610440575b5015158152f35b6301ffc9a760e01b14905083610439565b604090600319011261047757600435906024356001600160a01b03811681036104775790565b600080fd5b80600052600060205260406000203360005260205260ff60406000205416156104a25750565b6044906040519063e2517d3f60e01b82523360048301526024820152fd5b9060009180835282602052604083209160018060a01b03169182845260205260ff6040842054161560001461053957808352826020526040832082845260205260408320600160ff198254161790557f2f8788117e7eff1d82e926ec794901d17c78024a50270940304540a733656f0d339380a4600190565b505090565b6001600160a01b031660008181527fad3228b676f7d3cd4284a5443f17f1962b36e491b30a40b2405849e597ba5fb5602052604081205490919060ff16156105b65781805281602052604082208183526020526040822060ff198154169055339160008051602061061e8339815191528180a4600190565b5090565b9060009180835282602052604083209160018060a01b03169182845260205260ff6040842054166000146105395780835282602052604083208284526020526040832060ff19815416905560008051602061061e833981519152339380a460019056fef6391f5c32d9c69d2a47ea670b442974b53935d1edc7fd64eb21e047a839171bd8aa0f3194971a2a116679f7c2090f6939c8d4e01a2a8d7e41d55e5351469e63a164736f6c6343000814000a2f8788117e7eff1d82e926ec794901d17c78024a50270940304540a733656f0da164736f6c6343000814000a","opcodes":"PUSH1 0x80 DUP1 PUSH1 0x40 MSTORE CALLVALUE PUSH2 0x16 JUMPI PUSH2 0x5DC1 SWAP1 DUP2 PUSH2 0x1C DUP3 CODECOPY RETURN JUMPDEST PUSH1 0x0 DUP1 REVERT INVALID PUSH1 0x80 DUP1 PUSH1 0x40 MSTORE PUSH1 0x4 CALLDATASIZE LT ISZERO PUSH3 0x14 JUMPI PUSH1 0x0 DUP1 REVERT JUMPDEST PUSH1 0x0 SWAP1 DUP2 CALLDATALOAD PUSH1 0xE0 SHR SWAP1 DUP2 PUSH4 0x16F28783 EQ PUSH3 0x7C1 JUMPI POP DUP1 PUSH4 0x19E0B288 EQ PUSH3 0x779 JUMPI DUP1 PUSH4 0x3CB2C68A EQ PUSH3 0x6CB JUMPI PUSH4 0x47E9A528 EQ PUSH3 0x52 JUMPI PUSH1 0x0 DUP1 REVERT JUMPDEST CALLVALUE PUSH3 0x6C8 JUMPI PUSH2 0x180 CALLDATASIZE PUSH1 0x3 NOT ADD SLT PUSH3 0x6C8 JUMPI PUSH1 0x4 CALLDATALOAD PUSH1 0x1 PUSH1 0x1 PUSH1 0x40 SHL SUB DUP2 GT PUSH3 0x6C4 JUMPI PUSH3 0x88 SWAP1 CALLDATASIZE SWAP1 PUSH1 0x4 ADD PUSH3 0x859 JUMP JUMPDEST PUSH1 0x24 CALLDATALOAD PUSH1 0x1 PUSH1 0x1 PUSH1 0x40 SHL SUB DUP2 GT PUSH3 0x541 JUMPI PUSH3 0xAA SWAP1 CALLDATASIZE SWAP1 PUSH1 0x4 ADD PUSH3 0x859 JUMP JUMPDEST SWAP1 PUSH1 0x44 CALLDATALOAD PUSH1 0x1 PUSH1 0x1 PUSH1 0x40 SHL SUB DUP2 GT PUSH3 0x5E7 JUMPI PUSH3 0xCD SWAP1 CALLDATASIZE SWAP1 PUSH1 0x4 ADD PUSH3 0x859 JUMP JUMPDEST SWAP1 PUSH1 0x64 CALLDATALOAD PUSH1 0x1 PUSH1 0x1 PUSH1 0xA0 SHL SUB DUP2 AND SWAP1 SUB PUSH3 0x5E7 JUMPI PUSH1 0x84 CALLDATALOAD SWAP2 DUP3 ISZERO ISZERO DUP4 SUB PUSH3 0x580 JUMPI PUSH1 0xA4 CALLDATALOAD PUSH1 0x1 PUSH1 0x1 PUSH1 0x40 SHL SUB DUP2 GT PUSH3 0x532 JUMPI PUSH3 0x112 SWAP1 CALLDATASIZE SWAP1 PUSH1 0x4 ADD PUSH3 0x859 JUMP JUMPDEST PUSH1 0x40 MLOAD SWAP1 SWAP5 SWAP1 PUSH2 0x92E PUSH1 0x1 PUSH1 0x1 PUSH1 0x40 SHL SUB DUP2 DUP4 ADD SWAP1 DUP2 GT SWAP1 DUP4 GT OR PUSH3 0x6B0 JUMPI DUP2 DUP2 PUSH1 0x60 SWAP3 PUSH3 0x5487 DUP4 CODECOPY PUSH1 0x64 CALLDATALOAD PUSH1 0x1 PUSH1 0x1 PUSH1 0xA0 SHL SUB AND SWAP1 DUP3 ADD SWAP1 DUP2 MSTORE PUSH1 0x20 DUP2 ADD DUP11 SWAP1 MSTORE ADDRESS PUSH1 0x40 DUP3 ADD MSTORE SUB ADD SWAP1 DUP8 CREATE DUP1 ISZERO PUSH3 0x6A5 JUMPI PUSH1 0x40 MLOAD PUSH2 0x23E4 DUP1 DUP3 ADD SWAP1 PUSH1 0x1 PUSH1 0x1 PUSH1 0x40 SHL SUB DUP3 GT DUP4 DUP4 LT OR PUSH3 0x672 JUMPI DUP3 SWAP2 PUSH3 0x19E SWAP2 PUSH3 0x30A3 DUP5 CODECOPY ADDRESS SWAP1 PUSH1 0x64 CALLDATALOAD SWAP1 PUSH3 0x8B4 JUMP JUMPDEST SUB SWAP1 DUP9 CREATE DUP1 ISZERO PUSH3 0x69A JUMPI PUSH1 0x40 MLOAD PUSH1 0x1 PUSH1 0x1 PUSH1 0xA0 SHL SUB SWAP3 DUP4 AND SWAP3 SWAP2 SWAP1 SWAP2 AND SWAP1 PUSH2 0x83D DUP1 DUP3 ADD SWAP1 PUSH1 0x1 PUSH1 0x1 PUSH1 0x40 SHL SUB DUP3 GT DUP4 DUP4 LT OR PUSH3 0x686 JUMPI DUP5 DUP5 DUP5 SWAP4 PUSH3 0x1EC SWAP4 PUSH3 0x2866 DUP7 CODECOPY PUSH3 0x8B4 JUMP JUMPDEST SUB SWAP1 DUP10 CREATE DUP1 ISZERO PUSH3 0x667 JUMPI PUSH1 0x40 MLOAD PUSH1 0x1 PUSH1 0x1 PUSH1 0xA0 SHL SUB SWAP2 SWAP1 SWAP2 AND SWAP8 PUSH1 0x1 PUSH1 0x1 PUSH1 0x40 SHL SUB PUSH2 0x1F3C DUP4 ADD SWAP1 DUP2 GT SWAP1 DUP4 GT OR PUSH3 0x672 JUMPI PUSH3 0x296 DUP3 SWAP2 PUSH2 0x1F3C PUSH3 0x92A DUP5 CODECOPY PUSH2 0x1F3C DUP4 ADD DUP6 DUP2 MSTORE PUSH1 0x20 DUP2 ADD DUP8 SWAP1 MSTORE PUSH1 0x40 DUP2 ADD DUP13 SWAP1 MSTORE PUSH1 0xC4 CALLDATALOAD PUSH1 0x60 DUP3 ADD MSTORE PUSH1 0xE4 CALLDATALOAD PUSH1 0x80 DUP3 ADD MSTORE PUSH2 0x124 CALLDATALOAD PUSH1 0xA0 DUP3 ADD MSTORE PUSH2 0x144 CALLDATALOAD PUSH1 0xC0 DUP3 ADD MSTORE PUSH2 0x164 CALLDATALOAD PUSH1 0xE0 DUP3 ADD MSTORE PUSH2 0x104 CALLDATALOAD PUSH2 0x100 DUP3 ADD MSTORE DUP11 ISZERO ISZERO PUSH2 0x120 DUP3 ADD MSTORE PUSH2 0x160 PUSH2 0x140 DUP3 ADD DUP2 SWAP1 MSTORE ADD SWAP1 PUSH3 0x8CE JUMP JUMPDEST SUB SWAP1 DUP10 CREATE DUP1 ISZERO PUSH3 0x667 JUMPI PUSH1 0x1 PUSH1 0x1 PUSH1 0xA0 SHL SUB AND SWAP7 DUP2 EXTCODESIZE ISZERO PUSH3 0x663 JUMPI PUSH1 0x40 MLOAD PUSH4 0x4D1E5635 PUSH1 0xE1 SHL DUP2 MSTORE PUSH1 0x4 DUP2 ADD DUP10 SWAP1 MSTORE DUP10 DUP2 PUSH1 0x24 DUP2 DUP4 DUP8 GAS CALL DUP1 ISZERO PUSH3 0x658 JUMPI PUSH3 0x63E JUMPI JUMPDEST POP PUSH1 0x40 MLOAD PUSH4 0x1D384CA3 PUSH1 0xE3 SHL DUP2 MSTORE DUP10 SWAP4 SWAP3 SWAP2 SWAP1 PUSH1 0x20 DUP2 PUSH1 0x4 DUP2 DUP7 GAS STATICCALL SWAP1 DUP2 ISZERO PUSH3 0x5C4 JUMPI DUP6 SWAP2 PUSH3 0x603 JUMPI JUMPDEST POP DUP3 EXTCODESIZE ISZERO PUSH3 0x580 JUMPI DUP5 DUP11 PUSH3 0x335 SWAP3 PUSH1 0x40 MLOAD SWAP4 DUP5 SWAP3 DUP4 SWAP3 PUSH4 0x2F2FF15D PUSH1 0xE0 SHL DUP5 MSTORE PUSH1 0x4 DUP5 ADD PUSH3 0x910 JUMP JUMPDEST SUB DUP2 DUP4 DUP8 GAS CALL SWAP1 DUP2 ISZERO PUSH3 0x5C4 JUMPI DUP6 SWAP2 PUSH3 0x5EB JUMPI JUMPDEST POP POP DUP1 EXTCODESIZE ISZERO PUSH3 0x5E7 JUMPI PUSH1 0x40 MLOAD PUSH4 0x4D1E5635 PUSH1 0xE1 SHL DUP2 MSTORE PUSH1 0x4 DUP2 ADD DUP11 SWAP1 MSTORE DUP5 DUP2 PUSH1 0x24 DUP2 DUP4 DUP7 GAS CALL SWAP1 DUP2 ISZERO PUSH3 0x5C4 JUMPI DUP6 SWAP2 PUSH3 0x5CF JUMPI JUMPDEST POP POP PUSH1 0x40 MLOAD PUSH4 0x7BD0265 PUSH1 0xE0 SHL DUP2 MSTORE PUSH1 0x20 DUP2 PUSH1 0x4 DUP2 DUP8 GAS STATICCALL SWAP1 DUP2 ISZERO PUSH3 0x5C4 JUMPI DUP6 SWAP2 PUSH3 0x584 JUMPI JUMPDEST POP DUP4 EXTCODESIZE ISZERO PUSH3 0x580 JUMPI PUSH1 0x40 MLOAD PUSH4 0x2F2FF15D PUSH1 0xE0 SHL DUP2 MSTORE SWAP2 DUP6 SWAP2 DUP4 SWAP2 DUP3 SWAP2 PUSH3 0x3D7 SWAP2 SWAP1 PUSH1 0x4 DUP5 ADD PUSH3 0x910 JUMP JUMPDEST SUB DUP2 DUP4 DUP8 GAS CALL SWAP1 DUP2 ISZERO PUSH3 0x55D JUMPI DUP5 SWAP2 PUSH3 0x568 JUMPI JUMPDEST POP POP DUP1 EXTCODESIZE ISZERO PUSH3 0x541 JUMPI PUSH1 0x40 MLOAD DUP4 DUP2 PUSH1 0x4 DUP2 DUP4 PUSH4 0x48EE6AD5 PUSH1 0xE1 SHL SWAP7 DUP8 DUP4 MSTORE GAS CALL SWAP1 DUP2 ISZERO PUSH3 0x55D JUMPI DUP5 SWAP2 PUSH3 0x545 JUMPI JUMPDEST POP POP DUP2 EXTCODESIZE ISZERO PUSH3 0x541 JUMPI DUP3 SWAP2 PUSH1 0x4 DUP4 SWAP3 PUSH1 0x40 MLOAD SWAP5 DUP6 SWAP4 DUP5 SWAP3 DUP4 MSTORE GAS CALL DUP1 ISZERO PUSH3 0x536 JUMPI PUSH3 0x51A JUMPI JUMPDEST POP SLOAD PUSH1 0x1 PUSH1 0x40 SHL DUP2 LT ISZERO PUSH3 0x506 JUMPI PUSH32 0xA049C93A9115F3F0E7D4F57CF90F70CDC8A30BA109C9475E1271C2F2203AA022 SWAP3 PUSH3 0x4D5 DUP8 SWAP6 SWAP4 PUSH3 0x497 DUP5 PUSH1 0x20 SWAP12 PUSH1 0x1 PUSH3 0x4E4 SWAP8 ADD SWAP1 SSTORE PUSH3 0x7DD JUMP JUMPDEST DUP2 SLOAD SWAP1 PUSH1 0x3 SHL SWAP1 DUP10 DUP3 SHL SWAP2 PUSH1 0x1 DUP1 PUSH1 0xA0 SHL SUB SWAP1 SHL NOT AND OR SWAP1 SSTORE PUSH3 0x4C7 PUSH1 0x40 MLOAD SWAP6 PUSH1 0x80 DUP8 MSTORE PUSH1 0x80 DUP8 ADD SWAP1 PUSH3 0x8CE JUMP JUMPDEST SWAP1 DUP6 DUP3 SUB DUP12 DUP8 ADD MSTORE PUSH3 0x8CE JUMP JUMPDEST SWAP1 DUP4 DUP3 SUB PUSH1 0x40 DUP6 ADD MSTORE PUSH3 0x8CE JUMP JUMPDEST SWAP4 ISZERO ISZERO PUSH1 0x60 DUP3 ADD MSTORE PUSH1 0x64 CALLDATALOAD PUSH1 0x1 PUSH1 0x1 PUSH1 0xA0 SHL SUB AND SWAP4 DUP2 SWAP1 SUB SWAP1 LOG3 PUSH1 0x40 MLOAD SWAP1 DUP2 MSTORE RETURN JUMPDEST PUSH4 0x4E487B71 PUSH1 0xE0 SHL DUP8 MSTORE PUSH1 0x41 PUSH1 0x4 MSTORE PUSH1 0x24 DUP8 REVERT JUMPDEST PUSH3 0x525 SWAP1 PUSH3 0x80B JUMP JUMPDEST PUSH3 0x532 JUMPI DUP6 CODESIZE PUSH3 0x447 JUMP JUMPDEST DUP6 DUP1 REVERT JUMPDEST PUSH1 0x40 MLOAD RETURNDATASIZE DUP5 DUP3 RETURNDATACOPY RETURNDATASIZE SWAP1 REVERT JUMPDEST DUP3 DUP1 REVERT JUMPDEST PUSH3 0x550 SWAP1 PUSH3 0x80B JUMP JUMPDEST PUSH3 0x541 JUMPI DUP3 CODESIZE PUSH3 0x41E JUMP JUMPDEST PUSH1 0x40 MLOAD RETURNDATASIZE DUP7 DUP3 RETURNDATACOPY RETURNDATASIZE SWAP1 REVERT JUMPDEST PUSH3 0x573 SWAP1 PUSH3 0x80B JUMP JUMPDEST PUSH3 0x541 JUMPI DUP3 CODESIZE PUSH3 0x3ED JUMP JUMPDEST DUP5 DUP1 REVERT JUMPDEST SWAP5 POP POP PUSH1 0x20 DUP5 RETURNDATASIZE PUSH1 0x20 GT PUSH3 0x5BB JUMPI JUMPDEST DUP2 PUSH3 0x5A3 PUSH1 0x20 SWAP4 DUP4 PUSH3 0x835 JUMP JUMPDEST DUP2 ADD SUB SLT PUSH3 0x5B6 JUMPI DUP10 SWAP4 MLOAD CODESIZE PUSH3 0x3AA JUMP JUMPDEST PUSH1 0x0 DUP1 REVERT JUMPDEST RETURNDATASIZE SWAP2 POP PUSH3 0x594 JUMP JUMPDEST PUSH1 0x40 MLOAD RETURNDATASIZE DUP8 DUP3 RETURNDATACOPY RETURNDATASIZE SWAP1 REVERT JUMPDEST PUSH3 0x5DA SWAP1 PUSH3 0x80B JUMP JUMPDEST PUSH3 0x5E7 JUMPI DUP4 CODESIZE PUSH3 0x382 JUMP JUMPDEST DUP4 DUP1 REVERT JUMPDEST PUSH3 0x5F6 SWAP1 PUSH3 0x80B JUMP JUMPDEST PUSH3 0x5E7 JUMPI DUP4 CODESIZE PUSH3 0x34B JUMP JUMPDEST SWAP5 POP POP PUSH1 0x20 DUP5 RETURNDATASIZE PUSH1 0x20 GT PUSH3 0x635 JUMPI JUMPDEST DUP2 PUSH3 0x622 PUSH1 0x20 SWAP4 DUP4 PUSH3 0x835 JUMP JUMPDEST DUP2 ADD SUB SLT PUSH3 0x5B6 JUMPI DUP10 SWAP4 MLOAD CODESIZE PUSH3 0x309 JUMP JUMPDEST RETURNDATASIZE SWAP2 POP PUSH3 0x613 JUMP JUMPDEST PUSH3 0x64E SWAP1 SWAP10 SWAP2 SWAP4 SWAP3 SWAP10 PUSH3 0x80B JUMP JUMPDEST SWAP8 SWAP1 SWAP2 CODESIZE PUSH3 0x2DD JUMP JUMPDEST PUSH1 0x40 MLOAD RETURNDATASIZE DUP13 DUP3 RETURNDATACOPY RETURNDATASIZE SWAP1 REVERT JUMPDEST DUP9 DUP1 REVERT JUMPDEST PUSH1 0x40 MLOAD RETURNDATASIZE DUP11 DUP3 RETURNDATACOPY RETURNDATASIZE SWAP1 REVERT JUMPDEST PUSH4 0x4E487B71 PUSH1 0xE0 SHL DUP11 MSTORE PUSH1 0x41 PUSH1 0x4 MSTORE PUSH1 0x24 DUP11 REVERT JUMPDEST PUSH4 0x4E487B71 PUSH1 0xE0 SHL DUP12 MSTORE PUSH1 0x41 PUSH1 0x4 MSTORE PUSH1 0x24 DUP12 REVERT JUMPDEST PUSH1 0x40 MLOAD RETURNDATASIZE DUP10 DUP3 RETURNDATACOPY RETURNDATASIZE SWAP1 REVERT JUMPDEST PUSH1 0x40 MLOAD RETURNDATASIZE DUP9 DUP3 RETURNDATACOPY RETURNDATASIZE SWAP1 REVERT JUMPDEST PUSH4 0x4E487B71 PUSH1 0xE0 SHL DUP9 MSTORE PUSH1 0x41 PUSH1 0x4 MSTORE PUSH1 0x24 DUP9 REVERT JUMPDEST POP DUP1 REVERT JUMPDEST DUP1 REVERT JUMPDEST POP CALLVALUE PUSH3 0x6C8 JUMPI DUP1 PUSH1 0x3 NOT CALLDATASIZE ADD SLT PUSH3 0x6C8 JUMPI PUSH1 0x40 MLOAD DUP1 SWAP2 DUP1 SLOAD SWAP1 DUP2 DUP4 MSTORE PUSH1 0x20 DUP1 SWAP4 ADD DUP1 SWAP3 DUP3 DUP1 MSTORE DUP5 DUP4 KECCAK256 SWAP1 DUP4 JUMPDEST DUP2 DUP2 LT PUSH3 0x75B JUMPI POP POP POP DUP5 PUSH3 0x712 SWAP2 SUB DUP6 PUSH3 0x835 JUMP JUMPDEST PUSH1 0x40 MLOAD SWAP4 DUP4 DUP6 SWAP5 DUP6 ADD SWAP2 DUP2 DUP7 MSTORE MLOAD DUP1 SWAP3 MSTORE PUSH1 0x40 DUP6 ADD SWAP4 SWAP3 JUMPDEST DUP3 DUP2 LT PUSH3 0x73A JUMPI POP POP POP POP SUB SWAP1 RETURN JUMPDEST DUP4 MLOAD PUSH1 0x1 PUSH1 0x1 PUSH1 0xA0 SHL SUB AND DUP6 MSTORE DUP7 SWAP6 POP SWAP4 DUP2 ADD SWAP4 SWAP3 DUP2 ADD SWAP3 PUSH1 0x1 ADD PUSH3 0x72A JUMP JUMPDEST DUP3 SLOAD PUSH1 0x1 PUSH1 0x1 PUSH1 0xA0 SHL SUB AND DUP5 MSTORE SWAP3 DUP7 ADD SWAP3 PUSH1 0x1 SWAP3 DUP4 ADD SWAP3 ADD PUSH3 0x6F9 JUMP JUMPDEST POP CALLVALUE PUSH3 0x6C8 JUMPI PUSH1 0x20 CALLDATASIZE PUSH1 0x3 NOT ADD SLT PUSH3 0x6C8 JUMPI PUSH1 0x4 CALLDATALOAD SWAP1 DUP1 SLOAD DUP3 LT ISZERO PUSH3 0x6C8 JUMPI PUSH1 0x20 PUSH3 0x7A8 DUP4 PUSH3 0x7DD JUMP JUMPDEST SWAP1 SLOAD PUSH1 0x40 MLOAD PUSH1 0x3 SWAP3 SWAP1 SWAP3 SHL SHR PUSH1 0x1 PUSH1 0x1 PUSH1 0xA0 SHL SUB AND DUP2 MSTORE RETURN JUMPDEST SWAP1 POP CALLVALUE PUSH3 0x6C4 JUMPI DUP2 PUSH1 0x3 NOT CALLDATASIZE ADD SLT PUSH3 0x6C4 JUMPI PUSH1 0x20 SWAP2 SLOAD DUP2 MSTORE RETURN JUMPDEST SWAP1 PUSH1 0x0 SWAP2 DUP3 SLOAD DUP2 LT ISZERO PUSH3 0x7F7 JUMPI DUP3 DUP1 MSTORE PUSH1 0x20 DUP4 KECCAK256 ADD SWAP2 SWAP1 JUMP JUMPDEST PUSH4 0x4E487B71 PUSH1 0xE0 SHL DUP4 MSTORE PUSH1 0x32 PUSH1 0x4 MSTORE PUSH1 0x24 DUP4 REVERT JUMPDEST PUSH1 0x1 PUSH1 0x1 PUSH1 0x40 SHL SUB DUP2 GT PUSH3 0x81F JUMPI PUSH1 0x40 MSTORE JUMP JUMPDEST PUSH4 0x4E487B71 PUSH1 0xE0 SHL PUSH1 0x0 MSTORE PUSH1 0x41 PUSH1 0x4 MSTORE PUSH1 0x24 PUSH1 0x0 REVERT JUMPDEST PUSH1 0x1F SWAP1 SWAP2 ADD PUSH1 0x1F NOT AND DUP2 ADD SWAP1 PUSH1 0x1 PUSH1 0x1 PUSH1 0x40 SHL SUB DUP3 GT SWAP1 DUP3 LT OR PUSH3 0x81F JUMPI PUSH1 0x40 MSTORE JUMP JUMPDEST DUP2 PUSH1 0x1F DUP3 ADD SLT ISZERO PUSH3 0x5B6 JUMPI DUP1 CALLDATALOAD SWAP1 PUSH1 0x1 PUSH1 0x1 PUSH1 0x40 SHL SUB DUP3 GT PUSH3 0x81F JUMPI PUSH1 0x40 MLOAD SWAP3 PUSH3 0x891 PUSH1 0x1F DUP5 ADD PUSH1 0x1F NOT AND PUSH1 0x20 ADD DUP6 PUSH3 0x835 JUMP JUMPDEST DUP3 DUP5 MSTORE PUSH1 0x20 DUP4 DUP4 ADD ADD GT PUSH3 0x5B6 JUMPI DUP2 PUSH1 0x0 SWAP3 PUSH1 0x20 DUP1 SWAP4 ADD DUP4 DUP7 ADD CALLDATACOPY DUP4 ADD ADD MSTORE SWAP1 JUMP JUMPDEST PUSH1 0x1 PUSH1 0x1 PUSH1 0xA0 SHL SUB SWAP2 DUP3 AND DUP2 MSTORE SWAP2 AND PUSH1 0x20 DUP3 ADD MSTORE PUSH1 0x40 ADD SWAP1 JUMP JUMPDEST SWAP2 SWAP1 DUP3 MLOAD SWAP3 DUP4 DUP3 MSTORE PUSH1 0x0 JUMPDEST DUP5 DUP2 LT PUSH3 0x8FB JUMPI POP POP DUP3 PUSH1 0x0 PUSH1 0x20 DUP1 SWAP5 SWAP6 DUP5 ADD ADD MSTORE PUSH1 0x1F DUP1 NOT SWAP2 ADD AND ADD ADD SWAP1 JUMP JUMPDEST PUSH1 0x20 DUP2 DUP4 ADD DUP2 ADD MLOAD DUP5 DUP4 ADD DUP3 ADD MSTORE ADD PUSH3 0x8D9 JUMP JUMPDEST SWAP1 DUP2 MSTORE PUSH1 0x1 PUSH1 0x1 PUSH1 0xA0 SHL SUB SWAP1 SWAP2 AND PUSH1 0x20 DUP3 ADD MSTORE PUSH1 0x40 ADD SWAP1 JUMP INVALID PUSH1 0x80 DUP1 PUSH1 0x40 MSTORE CALLVALUE PUSH3 0x1A7 JUMPI PUSH3 0x1F3C SWAP1 DUP2 CODESIZE SUB DUP1 SWAP3 PUSH3 0x21 DUP3 DUP5 PUSH3 0x1C2 JUMP JUMPDEST DUP3 CODECOPY PUSH2 0x160 DUP2 DUP4 DUP2 ADD SUB SLT PUSH3 0x1A7 JUMPI PUSH3 0x3C DUP2 PUSH3 0x1E6 JUMP JUMPDEST PUSH3 0x4A PUSH1 0x20 DUP4 ADD PUSH3 0x1E6 JUMP JUMPDEST PUSH3 0x58 PUSH1 0x40 DUP5 ADD PUSH3 0x1E6 JUMP JUMPDEST SWAP2 PUSH1 0x60 DUP5 ADD MLOAD PUSH1 0x80 DUP6 ADD MLOAD PUSH1 0xA0 DUP7 ADD MLOAD SWAP1 PUSH1 0xC0 DUP8 ADD MLOAD SWAP3 PUSH1 0xE0 DUP9 ADD MLOAD SWAP5 PUSH2 0x100 DUP10 ADD MLOAD SWAP7 PUSH2 0x120 DUP11 ADD MLOAD SWAP9 DUP10 ISZERO ISZERO DUP11 SUB PUSH3 0x1A7 JUMPI PUSH2 0x140 DUP12 ADD MLOAD SWAP11 PUSH1 0x1 PUSH1 0x1 PUSH1 0x40 SHL SUB DUP1 DUP14 GT PUSH3 0x1A7 JUMPI DUP2 DUP15 ADD DUP3 DUP15 ADD PUSH1 0x1F ADD SLT ISZERO PUSH3 0x1A7 JUMPI DUP13 DUP3 ADD MLOAD SWAP1 DUP2 GT PUSH3 0x1AC JUMPI PUSH1 0x40 MLOAD SWAP13 PUSH1 0x20 DUP15 PUSH3 0xDC PUSH1 0x1F DUP6 ADD PUSH1 0x1F NOT AND DUP4 ADD DUP3 PUSH3 0x1C2 JUMP JUMPDEST DUP4 DUP2 MSTORE ADD SWAP15 DUP4 ADD PUSH1 0x20 DUP4 DUP4 DUP7 ADD ADD ADD GT PUSH3 0x1A7 JUMPI PUSH1 0x20 DUP16 SWAP2 PUSH3 0x102 SWAP5 ADD ADD PUSH3 0x1FB JUMP JUMPDEST PUSH1 0x1 DUP1 PUSH1 0xA0 SHL SUB DUP1 SWAP3 DUP2 PUSH1 0x1 DUP1 PUSH1 0xA0 SHL SUB NOT SWAP6 AND DUP6 PUSH1 0x0 SLOAD AND OR PUSH1 0x0 SSTORE AND DUP4 PUSH1 0x1 SLOAD AND OR PUSH1 0x1 SSTORE AND SWAP1 PUSH1 0x2 SLOAD AND OR PUSH1 0x2 SSTORE PUSH1 0x3 SSTORE PUSH1 0x4 SSTORE PUSH1 0x5 SSTORE PUSH1 0x6 SSTORE PUSH1 0x7 SSTORE PUSH1 0x8 SSTORE PUSH1 0xFF NOT PUSH1 0x9 SLOAD AND PUSH1 0xFF DUP3 ISZERO ISZERO AND OR PUSH1 0x9 SSTORE PUSH3 0x16C JUMPI JUMPDEST PUSH1 0x40 MLOAD PUSH2 0x1D1B SWAP1 DUP2 PUSH3 0x221 DUP3 CODECOPY RETURN JUMPDEST PUSH3 0x199 PUSH1 0x20 PUSH1 0x40 MLOAD DUP1 SWAP4 PUSH3 0x18B DUP4 DUP4 ADD SWAP7 DUP8 SWAP3 MLOAD SWAP3 DUP4 SWAP2 PUSH3 0x1FB JUMP JUMPDEST DUP2 ADD SUB DUP1 DUP5 MSTORE ADD DUP3 PUSH3 0x1C2 JUMP JUMPDEST MLOAD SWAP1 KECCAK256 PUSH1 0xA SSTORE CODESIZE DUP1 PUSH3 0x15C JUMP JUMPDEST PUSH1 0x0 DUP1 REVERT JUMPDEST PUSH4 0x4E487B71 PUSH1 0xE0 SHL PUSH1 0x0 MSTORE PUSH1 0x41 PUSH1 0x4 MSTORE PUSH1 0x24 PUSH1 0x0 REVERT JUMPDEST PUSH1 0x1F SWAP1 SWAP2 ADD PUSH1 0x1F NOT AND DUP2 ADD SWAP1 PUSH1 0x1 PUSH1 0x1 PUSH1 0x40 SHL SUB DUP3 GT SWAP1 DUP3 LT OR PUSH3 0x1AC JUMPI PUSH1 0x40 MSTORE JUMP JUMPDEST MLOAD SWAP1 PUSH1 0x1 PUSH1 0x1 PUSH1 0xA0 SHL SUB DUP3 AND DUP3 SUB PUSH3 0x1A7 JUMPI JUMP JUMPDEST PUSH1 0x0 JUMPDEST DUP4 DUP2 LT PUSH3 0x20F JUMPI POP POP PUSH1 0x0 SWAP2 ADD MSTORE JUMP JUMPDEST DUP2 DUP2 ADD MLOAD DUP4 DUP3 ADD MSTORE PUSH1 0x20 ADD PUSH3 0x1FE JUMP INVALID PUSH1 0x80 PUSH1 0x40 MSTORE PUSH1 0x4 CALLDATASIZE LT ISZERO PUSH2 0x1B JUMPI JUMPDEST CALLDATASIZE ISZERO PUSH2 0x19 JUMPI PUSH1 0x0 DUP1 REVERT JUMPDEST STOP JUMPDEST PUSH1 0x0 CALLDATALOAD PUSH1 0xE0 SHR DUP1 PUSH3 0x43B3D8 EQ PUSH2 0x114A JUMPI DUP1 PUSH4 0x72EA61C EQ PUSH2 0x112C JUMPI DUP1 PUSH4 0xFD2E6F9 EQ PUSH2 0x110E JUMPI DUP1 PUSH4 0x103616E8 EQ PUSH2 0x10DD JUMPI DUP1 PUSH4 0x132002FC EQ PUSH2 0x10BF JUMPI DUP1 PUSH4 0x2274346B EQ PUSH2 0x1096 JUMPI DUP1 PUSH4 0x3AEF3900 EQ PUSH2 0x106D JUMPI DUP1 PUSH4 0x52BC9E82 EQ PUSH2 0x104F JUMPI DUP1 PUSH4 0x5652077C EQ PUSH2 0xA24 JUMPI DUP1 PUSH4 0x7C0F6B35 EQ PUSH2 0x97A JUMPI DUP1 PUSH4 0x943E8216 EQ PUSH2 0x7F7 JUMPI DUP1 PUSH4 0x997072F7 EQ PUSH2 0x7A8 JUMPI DUP1 PUSH4 0x9B5655DC EQ PUSH2 0x727 JUMPI DUP1 PUSH4 0x9F1F43AF EQ PUSH2 0x709 JUMPI DUP1 PUSH4 0xA230C524 EQ PUSH2 0x610 JUMPI DUP1 PUSH4 0xBC2914B5 EQ PUSH2 0x24A JUMPI DUP1 PUSH4 0xBDF91DB5 EQ PUSH2 0x22C JUMPI DUP1 PUSH4 0xC01F9E37 EQ PUSH2 0x200 JUMPI DUP1 PUSH4 0xCF5CBD69 EQ PUSH2 0x1E2 JUMPI DUP1 PUSH4 0xE0E93244 EQ PUSH2 0x1B9 JUMPI DUP1 PUSH4 0xF63D13D7 EQ PUSH2 0x139 JUMPI PUSH4 0xFAFF660E SUB PUSH2 0xE JUMPI CALLVALUE PUSH2 0x134 JUMPI PUSH1 0x0 CALLDATASIZE PUSH1 0x3 NOT ADD SLT PUSH2 0x134 JUMPI PUSH1 0x20 PUSH1 0xFF PUSH1 0x9 SLOAD AND PUSH1 0x40 MLOAD SWAP1 ISZERO ISZERO DUP2 MSTORE RETURN JUMPDEST PUSH1 0x0 DUP1 REVERT JUMPDEST PUSH1 0x0 CALLDATASIZE PUSH1 0x3 NOT ADD SLT PUSH2 0x134 JUMPI PUSH1 0xFF PUSH1 0x9 SLOAD AND PUSH2 0x158 JUMPI PUSH2 0x19 CALLVALUE PUSH2 0x13AA JUMP JUMPDEST PUSH1 0x40 MLOAD PUSH3 0x461BCD PUSH1 0xE5 SHL DUP2 MSTORE PUSH1 0x20 PUSH1 0x4 DUP3 ADD MSTORE PUSH1 0x33 PUSH1 0x24 DUP3 ADD MSTORE PUSH32 0x54686973206973206120707269766174652044414F2E20557365206A6F696E44 PUSH1 0x44 DUP3 ADD MSTORE PUSH19 0x20A7ABB4BA3421B7B2329034B739BA32B0B217 PUSH1 0x69 SHL PUSH1 0x64 DUP3 ADD MSTORE PUSH1 0x84 SWAP1 REVERT JUMPDEST CALLVALUE PUSH2 0x134 JUMPI PUSH1 0x0 CALLDATASIZE PUSH1 0x3 NOT ADD SLT PUSH2 0x134 JUMPI PUSH1 0x2 SLOAD PUSH1 0x40 MLOAD PUSH1 0x1 PUSH1 0x1 PUSH1 0xA0 SHL SUB SWAP1 SWAP2 AND DUP2 MSTORE PUSH1 0x20 SWAP1 RETURN JUMPDEST CALLVALUE PUSH2 0x134 JUMPI PUSH1 0x0 CALLDATASIZE PUSH1 0x3 NOT ADD SLT PUSH2 0x134 JUMPI PUSH1 0x20 PUSH1 0xA SLOAD PUSH1 0x40 MLOAD SWAP1 DUP2 MSTORE RETURN JUMPDEST CALLVALUE PUSH2 0x134 JUMPI PUSH1 0x20 CALLDATASIZE PUSH1 0x3 NOT ADD SLT PUSH2 0x134 JUMPI PUSH1 0x4 CALLDATALOAD PUSH1 0x0 MSTORE PUSH1 0xB PUSH1 0x20 MSTORE PUSH1 0x20 PUSH1 0x40 PUSH1 0x0 KECCAK256 SLOAD PUSH1 0x40 MLOAD SWAP1 DUP2 MSTORE RETURN JUMPDEST CALLVALUE PUSH2 0x134 JUMPI PUSH1 0x0 CALLDATASIZE PUSH1 0x3 NOT ADD SLT PUSH2 0x134 JUMPI PUSH1 0x20 PUSH1 0x5 SLOAD PUSH1 0x40 MLOAD SWAP1 DUP2 MSTORE RETURN JUMPDEST CALLVALUE PUSH2 0x134 JUMPI PUSH2 0x120 CALLDATASIZE PUSH1 0x3 NOT ADD SLT PUSH2 0x134 JUMPI PUSH1 0x4 CALLDATALOAD PUSH1 0x1 PUSH1 0x1 PUSH1 0x40 SHL SUB DUP2 GT PUSH2 0x134 JUMPI PUSH2 0x27B SWAP1 CALLDATASIZE SWAP1 PUSH1 0x4 ADD PUSH2 0x1304 JUMP JUMPDEST SWAP1 PUSH1 0x24 CALLDATALOAD PUSH1 0x1 PUSH1 0x1 PUSH1 0x40 SHL SUB DUP2 GT PUSH2 0x134 JUMPI PUSH2 0x29B SWAP1 CALLDATASIZE SWAP1 PUSH1 0x4 ADD PUSH2 0x1304 JUMP JUMPDEST SWAP1 SWAP3 SWAP1 SWAP2 SWAP1 PUSH1 0x64 CALLDATALOAD SWAP1 PUSH1 0x1 PUSH1 0x1 PUSH1 0xA0 SHL SUB DUP3 AND DUP3 SUB PUSH2 0x134 JUMPI PUSH1 0x84 CALLDATALOAD ISZERO ISZERO PUSH1 0x84 CALLDATALOAD SUB PUSH2 0x134 JUMPI PUSH1 0xA4 CALLDATALOAD PUSH1 0x1 PUSH1 0x1 PUSH1 0x40 SHL SUB DUP2 GT PUSH2 0x134 JUMPI PUSH2 0x2E0 SWAP1 CALLDATASIZE SWAP1 PUSH1 0x4 ADD PUSH2 0x1304 JUMP JUMPDEST PUSH2 0x104 CALLDATALOAD SWAP3 SWAP2 SWAP1 PUSH1 0x1 PUSH1 0x1 PUSH1 0xA0 SHL SUB DUP5 AND DUP5 SUB PUSH2 0x134 JUMPI PUSH1 0x0 SLOAD PUSH1 0x40 MLOAD PUSH4 0x5087A34F PUSH1 0xE1 SHL DUP2 MSTORE PUSH1 0x1 PUSH1 0x1 PUSH1 0xA0 SHL SUB SWAP1 SWAP2 AND SWAP6 SWAP1 PUSH1 0x20 DUP2 PUSH1 0x4 DUP2 DUP11 GAS STATICCALL SWAP1 DUP2 ISZERO PUSH2 0x53E JUMPI PUSH1 0x0 SWAP2 PUSH2 0x5DD JUMPI JUMPDEST POP PUSH1 0x20 PUSH2 0x34F SWAP2 PUSH1 0x40 MLOAD DUP1 SWAP4 DUP2 SWAP3 PUSH4 0x24745215 PUSH1 0xE2 SHL DUP4 MSTORE CALLER SWAP1 PUSH1 0x4 DUP5 ADD PUSH2 0x1361 JUMP JUMPDEST SUB DUP2 DUP11 GAS STATICCALL SWAP1 DUP2 ISZERO PUSH2 0x53E JUMPI PUSH1 0x0 SWAP2 PUSH2 0x5A3 JUMPI JUMPDEST POP ISZERO PUSH2 0x560 JUMPI PUSH1 0x40 MLOAD SWAP7 PUSH1 0x1 PUSH1 0x1 PUSH1 0x40 SHL SUB PUSH2 0x120 DUP10 ADD SWAP1 DUP2 GT SWAP1 DUP10 GT OR PUSH2 0x54A JUMPI PUSH1 0x0 SWAP10 PUSH1 0x20 SWAP10 PUSH2 0x3A5 PUSH2 0x3AE SWAP4 PUSH2 0x3D9 SWAP9 PUSH2 0x120 DUP14 ADD PUSH1 0x40 MSTORE CALLDATASIZE SWAP2 PUSH2 0x12CD JUMP JUMPDEST DUP11 MSTORE CALLDATASIZE SWAP2 PUSH2 0x12CD JUMP JUMPDEST DUP8 DUP10 ADD MSTORE PUSH1 0x44 CALLDATALOAD PUSH1 0x40 DUP9 ADD MSTORE PUSH1 0x1 PUSH1 0x1 PUSH1 0xA0 SHL SUB AND PUSH1 0x60 DUP8 ADD MSTORE PUSH1 0x84 CALLDATALOAD ISZERO ISZERO PUSH1 0x80 DUP8 ADD MSTORE CALLDATASIZE SWAP2 PUSH2 0x12CD JUMP JUMPDEST PUSH1 0xA0 DUP5 ADD MSTORE PUSH1 0xC4 CALLDATALOAD PUSH1 0xC0 DUP5 ADD MSTORE PUSH1 0xE4 CALLDATALOAD PUSH1 0xE0 DUP5 ADD MSTORE PUSH1 0x1 DUP1 PUSH1 0xA0 SHL SUB AND PUSH2 0x100 DUP4 ADD MSTORE PUSH1 0x40 MLOAD DUP1 SWAP5 DUP2 DUP1 SWAP5 PUSH4 0x664D54F5 PUSH1 0xE1 SHL DUP3 MSTORE PUSH1 0x40 PUSH1 0x4 DUP4 ADD MSTORE PUSH2 0x48A PUSH2 0x430 DUP3 MLOAD PUSH2 0x120 PUSH1 0x44 DUP7 ADD MSTORE PUSH2 0x164 DUP6 ADD SWAP1 PUSH2 0x1640 JUMP JUMPDEST PUSH2 0x44B DUP10 DUP5 ADD MLOAD SWAP2 PUSH1 0x43 NOT SWAP3 DUP4 DUP8 DUP4 SUB ADD PUSH1 0x64 DUP9 ADD MSTORE PUSH2 0x1640 JUMP JUMPDEST PUSH1 0x40 DUP5 ADD MLOAD PUSH1 0x84 DUP7 ADD MSTORE PUSH1 0x60 DUP5 ADD MLOAD PUSH1 0x1 PUSH1 0x1 PUSH1 0xA0 SHL SUB AND PUSH1 0xA4 DUP7 ADD MSTORE PUSH1 0x80 DUP5 ADD MLOAD ISZERO ISZERO PUSH1 0xC4 DUP7 ADD MSTORE PUSH1 0xA0 DUP5 ADD MLOAD DUP6 DUP3 SUB SWAP1 SWAP3 ADD PUSH1 0xE4 DUP7 ADD MSTORE SWAP1 PUSH2 0x1640 JUMP JUMPDEST PUSH1 0xC0 DUP3 ADD MLOAD PUSH2 0x104 DUP5 ADD MSTORE PUSH1 0xE0 DUP3 ADD MLOAD PUSH2 0x124 DUP5 ADD MSTORE PUSH2 0x100 SWAP1 SWAP2 ADD MLOAD PUSH1 0x1 PUSH1 0x1 PUSH1 0xA0 SHL SUB AND PUSH2 0x144 DUP4 ADD MSTORE CALLER PUSH1 0x24 DUP4 ADD MSTORE SUB SWAP3 GAS CALL DUP1 ISZERO PUSH2 0x53E JUMPI PUSH1 0x0 SWAP1 PUSH2 0x50B JUMPI JUMPDEST PUSH1 0x20 SWAP2 POP PUSH1 0x84 CALLDATALOAD ISZERO PUSH2 0x4FD JUMPI PUSH2 0x4E6 PUSH1 0x4 SLOAD TIMESTAMP PUSH2 0x1665 JUMP JUMPDEST DUP2 PUSH1 0x0 MSTORE PUSH1 0xB DUP4 MSTORE PUSH1 0x40 PUSH1 0x0 KECCAK256 SSTORE JUMPDEST PUSH1 0x40 MLOAD SWAP1 DUP2 MSTORE RETURN JUMPDEST PUSH2 0x506 DUP2 PUSH2 0x18CF JUMP JUMPDEST PUSH2 0x4F5 JUMP JUMPDEST POP PUSH1 0x20 DUP2 RETURNDATASIZE PUSH1 0x20 GT PUSH2 0x536 JUMPI JUMPDEST DUP2 PUSH2 0x525 PUSH1 0x20 SWAP4 DUP4 PUSH2 0x128F JUMP JUMPDEST DUP2 ADD SUB SLT PUSH2 0x134 JUMPI PUSH1 0x20 SWAP1 MLOAD PUSH2 0x4CE JUMP JUMPDEST RETURNDATASIZE SWAP2 POP PUSH2 0x518 JUMP JUMPDEST PUSH1 0x40 MLOAD RETURNDATASIZE PUSH1 0x0 DUP3 RETURNDATACOPY RETURNDATASIZE SWAP1 REVERT JUMPDEST PUSH4 0x4E487B71 PUSH1 0xE0 SHL PUSH1 0x0 MSTORE PUSH1 0x41 PUSH1 0x4 MSTORE PUSH1 0x24 PUSH1 0x0 REVERT JUMPDEST PUSH1 0x40 MLOAD PUSH3 0x461BCD PUSH1 0xE5 SHL DUP2 MSTORE PUSH1 0x20 PUSH1 0x4 DUP3 ADD MSTORE PUSH1 0x1B PUSH1 0x24 DUP3 ADD MSTORE PUSH27 0x2220A79D1021B0B63632B91034B9903737BA10309036B2B6B132B9 PUSH1 0x29 SHL PUSH1 0x44 DUP3 ADD MSTORE PUSH1 0x64 SWAP1 REVERT JUMPDEST SWAP1 POP PUSH1 0x20 DUP2 RETURNDATASIZE PUSH1 0x20 GT PUSH2 0x5D5 JUMPI JUMPDEST DUP2 PUSH2 0x5BE PUSH1 0x20 SWAP4 DUP4 PUSH2 0x128F JUMP JUMPDEST DUP2 ADD SUB SLT PUSH2 0x134 JUMPI PUSH2 0x5CF SWAP1 PUSH2 0x1354 JUMP JUMPDEST DUP11 PUSH2 0x363 JUMP JUMPDEST RETURNDATASIZE SWAP2 POP PUSH2 0x5B1 JUMP JUMPDEST SWAP1 POP PUSH1 0x20 DUP2 RETURNDATASIZE PUSH1 0x20 GT PUSH2 0x608 JUMPI JUMPDEST DUP2 PUSH2 0x5F8 PUSH1 0x20 SWAP4 DUP4 PUSH2 0x128F JUMP JUMPDEST DUP2 ADD SUB SLT PUSH2 0x134 JUMPI MLOAD PUSH1 0x20 PUSH2 0x32C JUMP JUMPDEST RETURNDATASIZE SWAP2 POP PUSH2 0x5EB JUMP JUMPDEST CALLVALUE PUSH2 0x134 JUMPI PUSH1 0x20 DUP1 PUSH1 0x3 NOT CALLDATASIZE ADD SLT PUSH2 0x134 JUMPI PUSH1 0x4 CALLDATALOAD PUSH1 0x1 PUSH1 0x1 PUSH1 0xA0 SHL SUB DUP1 DUP3 AND DUP3 SUB PUSH2 0x134 JUMPI PUSH1 0x0 SLOAD PUSH1 0x40 MLOAD PUSH4 0x5087A34F PUSH1 0xE1 SHL DUP2 MSTORE SWAP2 AND SWAP2 DUP4 DUP3 PUSH1 0x4 DUP2 DUP7 GAS STATICCALL DUP1 ISZERO PUSH2 0x53E JUMPI DUP5 SWAP3 PUSH1 0x0 SWAP2 PUSH2 0x6D6 JUMPI JUMPDEST POP SWAP3 PUSH2 0x683 SWAP4 PUSH1 0x40 MLOAD DUP1 SWAP6 DUP2 SWAP5 DUP3 SWAP4 PUSH4 0x24745215 PUSH1 0xE2 SHL DUP5 MSTORE PUSH1 0x4 DUP5 ADD PUSH2 0x1361 JUMP JUMPDEST SUB SWAP2 GAS STATICCALL SWAP1 DUP2 ISZERO PUSH2 0x53E JUMPI PUSH1 0x0 SWAP2 PUSH2 0x6A1 JUMPI JUMPDEST POP PUSH1 0x40 MLOAD SWAP1 ISZERO ISZERO DUP2 MSTORE RETURN JUMPDEST SWAP1 POP DUP2 DUP2 DUP2 RETURNDATASIZE DUP4 GT PUSH2 0x6CF JUMPI JUMPDEST PUSH2 0x6B8 DUP2 DUP4 PUSH2 0x128F JUMP JUMPDEST DUP2 ADD SUB SLT PUSH2 0x134 JUMPI PUSH2 0x6C9 SWAP1 PUSH2 0x1354 JUMP JUMPDEST DUP3 PUSH2 0x696 JUMP JUMPDEST POP RETURNDATASIZE PUSH2 0x6AE JUMP JUMPDEST DUP4 DUP2 SWAP5 SWAP3 POP RETURNDATASIZE DUP4 GT PUSH2 0x702 JUMPI JUMPDEST PUSH2 0x6ED DUP2 DUP4 PUSH2 0x128F JUMP JUMPDEST DUP2 ADD SUB SLT PUSH2 0x134 JUMPI SWAP1 MLOAD DUP4 SWAP2 SWAP1 PUSH2 0x683 PUSH2 0x661 JUMP JUMPDEST POP RETURNDATASIZE PUSH2 0x6E3 JUMP JUMPDEST CALLVALUE PUSH2 0x134 JUMPI PUSH1 0x0 CALLDATASIZE PUSH1 0x3 NOT ADD SLT PUSH2 0x134 JUMPI PUSH1 0x20 PUSH1 0x6 SLOAD PUSH1 0x40 MLOAD SWAP1 DUP2 MSTORE RETURN JUMPDEST CALLVALUE PUSH2 0x134 JUMPI PUSH1 0x0 CALLDATASIZE PUSH1 0x3 NOT ADD SLT PUSH2 0x134 JUMPI PUSH1 0x1 SLOAD PUSH1 0x40 MLOAD PUSH3 0x9032FF PUSH1 0xE5 SHL DUP2 MSTORE SWAP1 PUSH1 0x20 SWAP1 DUP3 SWAP1 PUSH1 0x4 SWAP1 DUP3 SWAP1 PUSH1 0x1 PUSH1 0x1 PUSH1 0xA0 SHL SUB AND GAS STATICCALL DUP1 ISZERO PUSH2 0x53E JUMPI PUSH1 0x0 SWAP1 PUSH2 0x776 JUMPI JUMPDEST PUSH1 0x20 SWAP1 PUSH1 0x40 MLOAD SWAP1 DUP2 MSTORE RETURN JUMPDEST POP PUSH1 0x20 DUP2 RETURNDATASIZE DUP3 GT PUSH2 0x7A0 JUMPI JUMPDEST DUP2 PUSH2 0x78F PUSH1 0x20 SWAP4 DUP4 PUSH2 0x128F JUMP JUMPDEST DUP2 ADD SUB SLT PUSH2 0x134 JUMPI PUSH1 0x20 SWAP1 MLOAD PUSH2 0x76B JUMP JUMPDEST RETURNDATASIZE SWAP2 POP PUSH2 0x782 JUMP JUMPDEST CALLVALUE PUSH2 0x134 JUMPI PUSH1 0x0 CALLDATASIZE PUSH1 0x3 NOT ADD SLT PUSH2 0x134 JUMPI PUSH1 0x0 SLOAD PUSH1 0x40 MLOAD PUSH4 0x997072F7 PUSH1 0xE0 SHL DUP2 MSTORE SWAP1 PUSH1 0x20 SWAP1 DUP3 SWAP1 PUSH1 0x4 SWAP1 DUP3 SWAP1 PUSH1 0x1 PUSH1 0x1 PUSH1 0xA0 SHL SUB AND GAS STATICCALL DUP1 ISZERO PUSH2 0x53E JUMPI PUSH1 0x0 SWAP1 PUSH2 0x776 JUMPI PUSH1 0x20 SWAP1 PUSH1 0x40 MLOAD SWAP1 DUP2 MSTORE RETURN JUMPDEST CALLVALUE PUSH2 0x134 JUMPI PUSH1 0x40 CALLDATASIZE PUSH1 0x3 NOT ADD SLT PUSH2 0x134 JUMPI PUSH1 0x24 CALLDATALOAD PUSH1 0xFF DUP2 AND DUP1 SWAP2 SUB PUSH2 0x134 JUMPI PUSH1 0x0 SLOAD PUSH1 0x40 MLOAD PUSH4 0x5087A34F PUSH1 0xE1 SHL DUP2 MSTORE PUSH1 0x1 PUSH1 0x1 PUSH1 0xA0 SHL SUB SWAP1 SWAP2 AND SWAP2 SWAP1 PUSH1 0x20 SWAP1 DUP2 DUP2 PUSH1 0x4 DUP2 DUP8 GAS STATICCALL DUP1 ISZERO PUSH2 0x53E JUMPI DUP3 SWAP1 PUSH1 0x0 SWAP1 PUSH2 0x94B JUMPI JUMPDEST PUSH1 0x40 MLOAD PUSH4 0x24745215 PUSH1 0xE2 SHL DUP2 MSTORE SWAP3 POP DUP3 SWAP1 DUP2 SWAP1 PUSH2 0x870 SWAP1 CALLER SWAP1 PUSH1 0x4 DUP5 ADD PUSH2 0x1361 JUMP JUMPDEST SUB DUP2 DUP8 GAS STATICCALL SWAP1 DUP2 ISZERO PUSH2 0x53E JUMPI PUSH1 0x0 SWAP2 PUSH2 0x916 JUMPI JUMPDEST POP ISZERO PUSH2 0x8D5 JUMPI POP DUP2 EXTCODESIZE ISZERO PUSH2 0x134 JUMPI PUSH1 0x0 SWAP2 PUSH1 0x64 DUP4 SWAP3 PUSH1 0x40 MLOAD SWAP5 DUP6 SWAP4 DUP5 SWAP3 PUSH4 0xCE7FB83 PUSH1 0xE1 SHL DUP5 MSTORE PUSH1 0x4 CALLDATALOAD PUSH1 0x4 DUP6 ADD MSTORE PUSH1 0x24 DUP5 ADD MSTORE CALLER PUSH1 0x44 DUP5 ADD MSTORE GAS CALL DUP1 ISZERO PUSH2 0x53E JUMPI PUSH2 0x8CC JUMPI STOP JUMPDEST PUSH2 0x19 SWAP1 PUSH2 0x1261 JUMP JUMPDEST PUSH1 0x64 SWAP1 PUSH1 0x40 MLOAD SWAP1 PUSH3 0x461BCD PUSH1 0xE5 SHL DUP3 MSTORE PUSH1 0x4 DUP3 ADD MSTORE PUSH1 0x1A PUSH1 0x24 DUP3 ADD MSTORE PUSH26 0x2220A79D21A0A62622A92FA4A9AFA727AA2FA0AFA6A2A6A122A9 PUSH1 0x31 SHL PUSH1 0x44 DUP3 ADD MSTORE REVERT JUMPDEST SWAP1 POP DUP2 DUP2 DUP2 RETURNDATASIZE DUP4 GT PUSH2 0x944 JUMPI JUMPDEST PUSH2 0x92D DUP2 DUP4 PUSH2 0x128F JUMP JUMPDEST DUP2 ADD SUB SLT PUSH2 0x134 JUMPI PUSH2 0x93E SWAP1 PUSH2 0x1354 JUMP JUMPDEST DUP5 PUSH2 0x884 JUMP JUMPDEST POP RETURNDATASIZE PUSH2 0x923 JUMP JUMPDEST POP DUP2 DUP2 RETURNDATASIZE DUP4 GT PUSH2 0x973 JUMPI JUMPDEST PUSH2 0x960 DUP2 DUP4 PUSH2 0x128F JUMP JUMPDEST DUP2 ADD SUB SLT PUSH2 0x134 JUMPI DUP2 PUSH2 0x870 SWAP2 MLOAD PUSH2 0x84E JUMP JUMPDEST POP RETURNDATASIZE PUSH2 0x956 JUMP JUMPDEST CALLVALUE PUSH2 0x134 JUMPI PUSH1 0x0 CALLDATASIZE PUSH1 0x3 NOT ADD SLT PUSH2 0x134 JUMPI PUSH1 0x0 DUP1 SLOAD PUSH1 0x40 MLOAD PUSH4 0x7C0F6B35 PUSH1 0xE0 SHL DUP2 MSTORE PUSH1 0x1 PUSH1 0x1 PUSH1 0xA0 SHL SUB SWAP3 SWAP1 SWAP2 DUP3 SWAP1 PUSH1 0x4 SWAP1 DUP3 SWAP1 DUP7 AND GAS STATICCALL SWAP1 DUP2 ISZERO PUSH2 0x53E JUMPI PUSH1 0x0 SWAP2 PUSH2 0xA01 JUMPI JUMPDEST POP PUSH1 0x40 MLOAD SWAP1 PUSH1 0x20 DUP1 DUP4 ADD DUP2 DUP5 MSTORE DUP3 MLOAD DUP1 SWAP2 MSTORE DUP2 PUSH1 0x40 DUP6 ADD SWAP4 ADD SWAP2 PUSH1 0x0 JUMPDEST DUP3 DUP2 LT PUSH2 0x9EB JUMPI DUP6 DUP6 SUB DUP7 RETURN JUMPDEST DUP4 MLOAD DUP8 AND DUP6 MSTORE SWAP4 DUP2 ADD SWAP4 SWAP3 DUP2 ADD SWAP3 PUSH1 0x1 ADD PUSH2 0x9DE JUMP JUMPDEST PUSH2 0xA1E SWAP2 POP RETURNDATASIZE DUP1 PUSH1 0x0 DUP4 RETURNDATACOPY PUSH2 0xA16 DUP2 DUP4 PUSH2 0x128F JUMP JUMPDEST DUP2 ADD SWAP1 PUSH2 0x1822 JUMP JUMPDEST DUP3 PUSH2 0x9C1 JUMP JUMPDEST CALLVALUE PUSH2 0x134 JUMPI PUSH1 0x20 DUP1 PUSH1 0x3 NOT CALLDATASIZE ADD SLT PUSH2 0x134 JUMPI PUSH1 0x0 DUP1 SLOAD PUSH1 0x40 MLOAD PUSH4 0x18FEEB15 PUSH1 0xE3 SHL DUP1 DUP3 MSTORE PUSH1 0x4 DUP1 CALLDATALOAD SWAP1 DUP4 ADD DUP2 SWAP1 MSTORE PUSH1 0x24 SWAP6 SWAP5 SWAP1 SWAP4 PUSH1 0x1 PUSH1 0x1 PUSH1 0xA0 SHL SUB SWAP4 SWAP1 DUP5 AND SWAP3 SWAP1 SWAP2 DUP3 DUP9 DUP2 DUP7 GAS STATICCALL SWAP2 DUP3 ISZERO PUSH2 0x53E JUMPI PUSH1 0x0 SWAP3 PUSH2 0x1032 JUMPI JUMPDEST POP DUP2 PUSH2 0x140 DUP2 ADD MLOAD ISZERO PUSH2 0xFF6 JUMPI DUP6 PUSH1 0x0 MSTORE PUSH1 0xC DUP8 MSTORE PUSH1 0xFF PUSH1 0x40 PUSH1 0x0 KECCAK256 SLOAD AND PUSH2 0xFB5 JUMPI DUP1 PUSH1 0xE0 PUSH2 0xAB7 PUSH1 0xA0 PUSH2 0xAC0 SWAP5 ADD MLOAD PUSH1 0xC0 DUP5 ADD MLOAD SWAP1 PUSH2 0x1665 JUMP JUMPDEST SWAP2 ADD MLOAD SWAP1 PUSH2 0x1665 JUMP JUMPDEST SWAP3 PUSH1 0x40 MLOAD PUSH4 0x997072F7 PUSH1 0xE0 SHL DUP2 MSTORE DUP8 DUP2 PUSH1 0x4 DUP2 DUP6 GAS STATICCALL SWAP1 DUP2 ISZERO PUSH2 0x53E JUMPI PUSH1 0x0 SWAP2 PUSH2 0xF88 JUMPI JUMPDEST POP DUP1 DUP6 LT SWAP1 DUP2 ISZERO SWAP1 DUP2 PUSH2 0xF7E JUMPI JUMPDEST POP DUP1 ISZERO PUSH2 0xF55 JUMPI JUMPDEST ISZERO PUSH2 0xF1B JUMPI DUP7 PUSH1 0x0 MSTORE PUSH1 0xB DUP9 MSTORE PUSH1 0x40 PUSH1 0x0 KECCAK256 SLOAD SWAP1 DUP2 ISZERO ISZERO SWAP2 DUP3 PUSH2 0xF11 JUMPI JUMPDEST POP DUP2 PUSH2 0xF09 JUMPI JUMPDEST POP PUSH2 0xC7F JUMPI JUMPDEST POP POP DUP2 PUSH2 0xC4D JUMPI POP POP PUSH1 0x0 JUMPDEST PUSH1 0x3 SLOAD GT PUSH2 0xBD2 JUMPI PUSH1 0x0 SLOAD AND SWAP3 DUP4 EXTCODESIZE ISZERO PUSH2 0x134 JUMPI PUSH1 0x1 PUSH1 0x44 PUSH1 0x0 SWAP3 DUP4 PUSH1 0x40 MLOAD SWAP8 DUP9 SWAP5 DUP6 SWAP4 PUSH4 0x32FA5185 PUSH1 0xE2 SHL DUP6 MSTORE DUP9 PUSH1 0x4 DUP7 ADD MSTORE DUP5 ADD MSTORE GAS CALL SWAP3 DUP4 ISZERO PUSH2 0x53E JUMPI PUSH1 0xC SWAP4 PUSH2 0xBC3 JUMPI JUMPDEST POP DUP1 PUSH32 0xE36F8B7448DAFF4A52E2945DB0D1D7A436279CC1D527A45C27835DCBD27F336D PUSH1 0x0 DUP1 LOG2 PUSH2 0xBAA DUP2 PUSH2 0x18CF JUMP JUMPDEST PUSH1 0x0 MSTORE MSTORE PUSH1 0x40 PUSH1 0x0 KECCAK256 PUSH1 0x1 PUSH1 0xFF NOT DUP3 SLOAD AND OR SWAP1 SSTORE PUSH1 0x0 DUP1 RETURN JUMPDEST PUSH2 0xBCC SWAP1 PUSH2 0x1261 JUMP JUMPDEST DUP4 PUSH2 0xB7A JUMP JUMPDEST PUSH1 0x0 SLOAD AND SWAP3 DUP4 EXTCODESIZE ISZERO PUSH2 0x134 JUMPI PUSH1 0x2 PUSH1 0x44 PUSH1 0x0 SWAP3 DUP4 PUSH1 0x40 MLOAD SWAP8 DUP9 SWAP5 DUP6 SWAP4 PUSH4 0x32FA5185 PUSH1 0xE2 SHL DUP6 MSTORE DUP9 PUSH1 0x4 DUP7 ADD MSTORE DUP5 ADD MSTORE GAS CALL SWAP3 DUP4 ISZERO PUSH2 0x53E JUMPI PUSH1 0xC SWAP4 PUSH2 0xC3E JUMPI JUMPDEST POP DUP1 PUSH32 0xD92FBA445EDB3153B571E6DF782D7A66FD0CE668519273670820EE3A86DA0EF4 PUSH1 0x0 DUP1 LOG2 PUSH2 0xBAA JUMP JUMPDEST PUSH2 0xC47 SWAP1 PUSH2 0x1261 JUMP JUMPDEST DUP4 PUSH2 0xC12 JUMP JUMPDEST PUSH1 0xA0 ADD MLOAD PUSH1 0x64 DUP2 MUL SWAP1 DUP1 DUP3 DIV PUSH1 0x64 EQ SWAP1 ISZERO OR ISZERO PUSH2 0xC6A JUMPI DIV PUSH2 0xB32 JUMP JUMPDEST DUP6 PUSH4 0x4E487B71 PUSH1 0xE0 SHL PUSH1 0x0 MSTORE PUSH1 0x11 PUSH1 0x4 MSTORE PUSH1 0x0 REVERT JUMPDEST PUSH1 0x4 SWAP5 SWAP4 POP PUSH1 0x0 SWAP2 SWAP7 SWAP6 SWAP3 POP PUSH1 0x40 MLOAD SWAP5 DUP6 DUP1 SWAP3 PUSH4 0x7C0F6B35 PUSH1 0xE0 SHL DUP3 MSTORE GAS STATICCALL SWAP3 DUP4 ISZERO PUSH2 0x53E JUMPI PUSH1 0x0 SWAP4 PUSH2 0xEEC JUMPI JUMPDEST POP PUSH1 0x0 JUMPDEST DUP4 MLOAD DUP2 LT ISZERO PUSH2 0xE79 JUMPI DUP3 PUSH1 0x0 SLOAD AND PUSH2 0xCEC DUP7 DUP6 PUSH2 0xCCE DUP6 DUP10 PUSH2 0x18A5 JUMP JUMPDEST MLOAD PUSH1 0x40 MLOAD PUSH4 0x62D4F893 PUSH1 0xE0 SHL DUP2 MSTORE SWAP4 DUP5 SWAP3 DUP4 SWAP3 AND DUP9 PUSH1 0x4 DUP5 ADD PUSH2 0x1361 JUMP JUMPDEST SUB DUP2 DUP6 GAS STATICCALL SWAP1 DUP2 ISZERO PUSH2 0x53E JUMPI PUSH1 0x0 SWAP2 PUSH2 0xE44 JUMPI JUMPDEST POP ISZERO PUSH2 0xD2E JUMPI JUMPDEST POP PUSH1 0x0 NOT DUP2 EQ PUSH2 0xD19 JUMPI PUSH1 0x1 ADD PUSH2 0xCB1 JUMP JUMPDEST DUP7 PUSH4 0x4E487B71 PUSH1 0xE0 SHL PUSH1 0x0 MSTORE PUSH1 0x11 PUSH1 0x4 MSTORE PUSH1 0x0 REVERT JUMPDEST DUP4 PUSH2 0xD39 DUP4 DUP8 PUSH2 0x18A5 JUMP JUMPDEST MLOAD AND DUP2 EXTCODESIZE ISZERO PUSH2 0x134 JUMPI PUSH1 0x0 SWAP2 DUP10 DUP4 SWAP3 PUSH1 0x40 MLOAD SWAP5 DUP6 SWAP4 DUP5 SWAP3 PUSH4 0x5D437B85 PUSH1 0xE1 SHL DUP5 MSTORE PUSH1 0x4 DUP5 ADD MSTORE GAS CALL DUP1 ISZERO PUSH2 0x53E JUMPI PUSH2 0xE35 JUMPI JUMPDEST POP DUP3 PUSH1 0x0 SLOAD AND DUP4 PUSH2 0xD7D DUP4 DUP8 PUSH2 0x18A5 JUMP JUMPDEST MLOAD AND SWAP1 DUP1 EXTCODESIZE ISZERO PUSH2 0x134 JUMPI PUSH1 0x40 MLOAD PUSH4 0xA462E50F PUSH1 0xE0 SHL DUP2 MSTORE SWAP2 PUSH1 0x0 SWAP2 DUP4 SWAP2 DUP3 SWAP1 DUP5 SWAP1 DUP3 SWAP1 PUSH2 0xDAE SWAP1 DUP11 PUSH1 0x4 DUP5 ADD PUSH2 0x1361 JUMP JUMPDEST SUB SWAP3 GAS CALL DUP1 ISZERO PUSH2 0x53E JUMPI PUSH2 0xE26 JUMPI JUMPDEST POP PUSH1 0x0 DUP1 DUP1 DUP1 DUP7 PUSH1 0x1 SLOAD AND PUSH1 0x5 SLOAD SWAP1 GAS CALL PUSH2 0xDD6 PUSH2 0x137A JUMP JUMPDEST POP ISZERO PUSH2 0xDE2 JUMPI DUP8 PUSH2 0xD07 JUMP JUMPDEST PUSH1 0x40 MLOAD PUSH3 0x461BCD PUSH1 0xE5 SHL DUP2 MSTORE PUSH1 0x4 DUP2 ADD DUP7 SWAP1 MSTORE PUSH1 0x1F DUP2 DUP10 ADD MSTORE PUSH32 0x4661696C656420746F2073656E642070656E616C747920746F207661756C7400 PUSH1 0x44 DUP3 ADD MSTORE PUSH1 0x64 SWAP1 REVERT JUMPDEST PUSH2 0xE2F SWAP1 PUSH2 0x1261 JUMP JUMPDEST DUP8 PUSH2 0xDBD JUMP JUMPDEST PUSH2 0xE3E SWAP1 PUSH2 0x1261 JUMP JUMPDEST DUP8 PUSH2 0xD6C JUMP JUMPDEST SWAP1 POP DUP7 DUP2 DUP2 RETURNDATASIZE DUP4 GT PUSH2 0xE72 JUMPI JUMPDEST PUSH2 0xE5B DUP2 DUP4 PUSH2 0x128F JUMP JUMPDEST DUP2 ADD SUB SLT PUSH2 0x134 JUMPI PUSH2 0xE6C SWAP1 PUSH2 0x1354 JUMP JUMPDEST DUP10 PUSH2 0xD00 JUMP JUMPDEST POP RETURNDATASIZE PUSH2 0xE51 JUMP JUMPDEST POP SWAP3 SWAP4 SWAP1 SWAP2 POP PUSH1 0x0 DUP3 DUP2 SLOAD AND SWAP2 DUP7 PUSH1 0x40 MLOAD DUP1 SWAP5 DUP2 SWAP4 DUP3 MSTORE DUP8 PUSH1 0x4 DUP4 ADD MSTORE GAS STATICCALL SWAP1 DUP2 ISZERO PUSH2 0x53E JUMPI PUSH1 0x0 SWAP2 PUSH2 0xEC9 JUMPI JUMPDEST POP PUSH2 0xEC1 DUP2 PUSH1 0xE0 PUSH2 0xAB7 PUSH1 0xA0 DUP4 ADD MLOAD PUSH1 0xC0 DUP5 ADD MLOAD SWAP1 PUSH2 0x1665 JUMP JUMPDEST SWAP1 DUP7 DUP1 PUSH2 0xB26 JUMP JUMPDEST PUSH2 0xEE6 SWAP2 POP RETURNDATASIZE DUP1 PUSH1 0x0 DUP4 RETURNDATACOPY PUSH2 0xEDE DUP2 DUP4 PUSH2 0x128F JUMP JUMPDEST DUP2 ADD SWAP1 PUSH2 0x16E1 JUMP JUMPDEST DUP6 PUSH2 0xEA7 JUMP JUMPDEST PUSH2 0xF02 SWAP2 SWAP4 POP RETURNDATASIZE DUP1 PUSH1 0x0 DUP4 RETURNDATACOPY PUSH2 0xA16 DUP2 DUP4 PUSH2 0x128F JUMP JUMPDEST SWAP2 DUP7 PUSH2 0xCAD JUMP JUMPDEST SWAP1 POP DUP10 PUSH2 0xB20 JUMP JUMPDEST TIMESTAMP GT SWAP2 POP DUP11 PUSH2 0xB19 JUMP JUMPDEST PUSH1 0x40 MLOAD PUSH3 0x461BCD PUSH1 0xE5 SHL DUP2 MSTORE PUSH1 0x4 DUP2 ADD DUP10 SWAP1 MSTORE PUSH1 0x13 DUP2 DUP12 ADD MSTORE PUSH19 0x10D85B9B9BDD08199A5B985B1A5E99481E595D PUSH1 0x6A SHL PUSH1 0x44 DUP3 ADD MSTORE PUSH1 0x64 SWAP1 REVERT JUMPDEST POP DUP7 PUSH1 0x0 MSTORE PUSH1 0xB DUP9 MSTORE PUSH1 0x40 PUSH1 0x0 KECCAK256 SLOAD DUP1 ISZERO ISZERO SWAP1 DUP2 PUSH2 0xF74 JUMPI JUMPDEST POP PUSH2 0xAFB JUMP JUMPDEST SWAP1 POP TIMESTAMP GT DUP11 PUSH2 0xF6E JUMP JUMPDEST SWAP1 POP ISZERO ISZERO DUP11 PUSH2 0xAF3 JUMP JUMPDEST SWAP1 POP DUP8 DUP2 DUP2 RETURNDATASIZE DUP4 GT PUSH2 0xFAE JUMPI JUMPDEST PUSH2 0xF9F DUP2 DUP4 PUSH2 0x128F JUMP JUMPDEST DUP2 ADD SUB SLT PUSH2 0x134 JUMPI MLOAD DUP10 PUSH2 0xAE5 JUMP JUMPDEST POP RETURNDATASIZE PUSH2 0xF95 JUMP JUMPDEST PUSH1 0x40 MLOAD PUSH3 0x461BCD PUSH1 0xE5 SHL DUP2 MSTORE PUSH1 0x4 DUP2 ADD DUP9 SWAP1 MSTORE PUSH1 0x1A DUP2 DUP11 ADD MSTORE PUSH26 0x141C9BDC1BDCD85B08185B1C9958591E48199A5B985B1A5E9959 PUSH1 0x32 SHL PUSH1 0x44 DUP3 ADD MSTORE PUSH1 0x64 SWAP1 REVERT JUMPDEST PUSH1 0x40 MLOAD PUSH3 0x461BCD PUSH1 0xE5 SHL DUP2 MSTORE PUSH1 0x4 DUP2 ADD DUP9 SWAP1 MSTORE PUSH1 0x15 DUP2 DUP11 ADD MSTORE PUSH21 0x139BDD0818481D9BDD1A5B99C81C1C9BDC1BDCD85B PUSH1 0x5A SHL PUSH1 0x44 DUP3 ADD MSTORE PUSH1 0x64 SWAP1 REVERT JUMPDEST PUSH2 0x1048 SWAP2 SWAP3 POP RETURNDATASIZE DUP1 PUSH1 0x0 DUP4 RETURNDATACOPY PUSH2 0xEDE DUP2 DUP4 PUSH2 0x128F JUMP JUMPDEST SWAP1 DUP8 PUSH2 0xA7C JUMP JUMPDEST CALLVALUE PUSH2 0x134 JUMPI PUSH1 0x0 CALLDATASIZE PUSH1 0x3 NOT ADD SLT PUSH2 0x134 JUMPI PUSH1 0x20 PUSH1 0x7 SLOAD PUSH1 0x40 MLOAD SWAP1 DUP2 MSTORE RETURN JUMPDEST CALLVALUE PUSH2 0x134 JUMPI PUSH1 0x0 CALLDATASIZE PUSH1 0x3 NOT ADD SLT PUSH2 0x134 JUMPI PUSH1 0x0 SLOAD PUSH1 0x40 MLOAD PUSH1 0x1 PUSH1 0x1 PUSH1 0xA0 SHL SUB SWAP1 SWAP2 AND DUP2 MSTORE PUSH1 0x20 SWAP1 RETURN JUMPDEST CALLVALUE PUSH2 0x134 JUMPI PUSH1 0x0 CALLDATASIZE PUSH1 0x3 NOT ADD SLT PUSH2 0x134 JUMPI PUSH1 0x1 SLOAD PUSH1 0x40 MLOAD PUSH1 0x1 PUSH1 0x1 PUSH1 0xA0 SHL SUB SWAP1 SWAP2 AND DUP2 MSTORE PUSH1 0x20 SWAP1 RETURN JUMPDEST CALLVALUE PUSH2 0x134 JUMPI PUSH1 0x0 CALLDATASIZE PUSH1 0x3 NOT ADD SLT PUSH2 0x134 JUMPI PUSH1 0x20 PUSH1 0x4 SLOAD PUSH1 0x40 MLOAD SWAP1 DUP2 MSTORE RETURN JUMPDEST CALLVALUE PUSH2 0x134 JUMPI PUSH1 0x20 CALLDATASIZE PUSH1 0x3 NOT ADD SLT PUSH2 0x134 JUMPI PUSH1 0x4 CALLDATALOAD PUSH1 0x0 MSTORE PUSH1 0xC PUSH1 0x20 MSTORE PUSH1 0x20 PUSH1 0xFF PUSH1 0x40 PUSH1 0x0 KECCAK256 SLOAD AND PUSH1 0x40 MLOAD SWAP1 ISZERO ISZERO DUP2 MSTORE RETURN JUMPDEST CALLVALUE PUSH2 0x134 JUMPI PUSH1 0x0 CALLDATASIZE PUSH1 0x3 NOT ADD SLT PUSH2 0x134 JUMPI PUSH1 0x20 PUSH1 0x3 SLOAD PUSH1 0x40 MLOAD SWAP1 DUP2 MSTORE RETURN JUMPDEST CALLVALUE PUSH2 0x134 JUMPI PUSH1 0x0 CALLDATASIZE PUSH1 0x3 NOT ADD SLT PUSH2 0x134 JUMPI PUSH1 0x20 PUSH1 0x8 SLOAD PUSH1 0x40 MLOAD SWAP1 DUP2 MSTORE RETURN JUMPDEST PUSH1 0x20 DUP1 PUSH1 0x3 NOT CALLDATASIZE ADD SLT PUSH2 0x134 JUMPI PUSH1 0x4 CALLDATALOAD PUSH1 0x1 PUSH1 0x1 PUSH1 0x40 SHL SUB DUP2 GT PUSH2 0x134 JUMPI CALLDATASIZE PUSH1 0x23 DUP3 ADD SLT ISZERO PUSH2 0x134 JUMPI PUSH2 0x1187 SWAP1 CALLDATASIZE SWAP1 PUSH1 0x24 DUP2 PUSH1 0x4 ADD CALLDATALOAD SWAP2 ADD PUSH2 0x12CD JUMP JUMPDEST PUSH1 0xFF PUSH1 0x9 SLOAD AND ISZERO PUSH2 0x1209 JUMPI PUSH1 0x40 MLOAD PUSH2 0x11BB DUP4 DUP3 DUP2 PUSH2 0x11AE DUP2 DUP4 ADD SWAP7 DUP8 DUP2 MLOAD SWAP4 DUP5 SWAP3 ADD PUSH2 0x1331 JUMP JUMPDEST DUP2 ADD SUB DUP1 DUP5 MSTORE ADD DUP3 PUSH2 0x128F JUMP JUMPDEST MLOAD SWAP1 KECCAK256 PUSH1 0xA SLOAD SUB PUSH2 0x11CF JUMPI PUSH2 0x19 CALLVALUE PUSH2 0x13AA JUMP JUMPDEST PUSH1 0x64 SWAP1 PUSH1 0x40 MLOAD SWAP1 PUSH3 0x461BCD PUSH1 0xE5 SHL DUP3 MSTORE PUSH1 0x4 DUP3 ADD MSTORE PUSH1 0x13 PUSH1 0x24 DUP3 ADD MSTORE PUSH19 0x496E76616C696420696E7669746520636F6465 PUSH1 0x68 SHL PUSH1 0x44 DUP3 ADD MSTORE REVERT JUMPDEST PUSH1 0x40 MLOAD PUSH3 0x461BCD PUSH1 0xE5 SHL DUP2 MSTORE PUSH1 0x4 DUP2 ADD DUP4 SWAP1 MSTORE PUSH1 0x2A PUSH1 0x24 DUP3 ADD MSTORE PUSH32 0x546869732069732061207075626C69632044414F2E20557365206A6F696E4441 PUSH1 0x44 DUP3 ADD MSTORE PUSH10 0x279034B739BA32B0B217 PUSH1 0xB1 SHL PUSH1 0x64 DUP3 ADD MSTORE PUSH1 0x84 SWAP1 REVERT JUMPDEST PUSH1 0x1 PUSH1 0x1 PUSH1 0x40 SHL SUB DUP2 GT PUSH2 0x54A JUMPI PUSH1 0x40 MSTORE JUMP JUMPDEST PUSH1 0x40 DUP2 ADD SWAP1 DUP2 LT PUSH1 0x1 PUSH1 0x1 PUSH1 0x40 SHL SUB DUP3 GT OR PUSH2 0x54A JUMPI PUSH1 0x40 MSTORE JUMP JUMPDEST PUSH1 0x1F SWAP1 SWAP2 ADD PUSH1 0x1F NOT AND DUP2 ADD SWAP1 PUSH1 0x1 PUSH1 0x1 PUSH1 0x40 SHL SUB DUP3 GT SWAP1 DUP3 LT OR PUSH2 0x54A JUMPI PUSH1 0x40 MSTORE JUMP JUMPDEST PUSH1 0x1 PUSH1 0x1 PUSH1 0x40 SHL SUB DUP2 GT PUSH2 0x54A JUMPI PUSH1 0x1F ADD PUSH1 0x1F NOT AND PUSH1 0x20 ADD SWAP1 JUMP JUMPDEST SWAP3 SWAP2 SWAP3 PUSH2 0x12D9 DUP3 PUSH2 0x12B2 JUMP JUMPDEST SWAP2 PUSH2 0x12E7 PUSH1 0x40 MLOAD SWAP4 DUP5 PUSH2 0x128F JUMP JUMPDEST DUP3 SWAP5 DUP2 DUP5 MSTORE DUP2 DUP4 ADD GT PUSH2 0x134 JUMPI DUP3 DUP2 PUSH1 0x20 SWAP4 DUP5 PUSH1 0x0 SWAP7 ADD CALLDATACOPY ADD ADD MSTORE JUMP JUMPDEST SWAP2 DUP2 PUSH1 0x1F DUP5 ADD SLT ISZERO PUSH2 0x134 JUMPI DUP3 CALLDATALOAD SWAP2 PUSH1 0x1 PUSH1 0x1 PUSH1 0x40 SHL SUB DUP4 GT PUSH2 0x134 JUMPI PUSH1 0x20 DUP4 DUP2 DUP7 ADD SWAP6 ADD ADD GT PUSH2 0x134 JUMPI JUMP JUMPDEST PUSH1 0x0 JUMPDEST DUP4 DUP2 LT PUSH2 0x1344 JUMPI POP POP PUSH1 0x0 SWAP2 ADD MSTORE JUMP JUMPDEST DUP2 DUP2 ADD MLOAD DUP4 DUP3 ADD MSTORE PUSH1 0x20 ADD PUSH2 0x1334 JUMP JUMPDEST MLOAD SWAP1 DUP2 ISZERO ISZERO DUP3 SUB PUSH2 0x134 JUMPI JUMP JUMPDEST SWAP1 DUP2 MSTORE PUSH1 0x1 PUSH1 0x1 PUSH1 0xA0 SHL SUB SWAP1 SWAP2 AND PUSH1 0x20 DUP3 ADD MSTORE PUSH1 0x40 ADD SWAP1 JUMP JUMPDEST RETURNDATASIZE ISZERO PUSH2 0x13A5 JUMPI RETURNDATASIZE SWAP1 PUSH2 0x138B DUP3 PUSH2 0x12B2 JUMP JUMPDEST SWAP2 PUSH2 0x1399 PUSH1 0x40 MLOAD SWAP4 DUP5 PUSH2 0x128F JUMP JUMPDEST DUP3 MSTORE RETURNDATASIZE PUSH1 0x0 PUSH1 0x20 DUP5 ADD RETURNDATACOPY JUMP JUMPDEST PUSH1 0x60 SWAP1 JUMP JUMPDEST SWAP1 PUSH1 0x8 SLOAD DUP3 LT PUSH2 0x1602 JUMPI PUSH1 0x0 DUP1 SLOAD PUSH1 0x40 DUP1 MLOAD PUSH4 0x5087A34F PUSH1 0xE1 SHL DUP1 DUP3 MSTORE PUSH1 0x4 SWAP7 SWAP3 SWAP5 SWAP4 SWAP1 SWAP3 PUSH1 0x20 SWAP3 PUSH1 0x1 PUSH1 0x1 PUSH1 0xA0 SHL SUB SWAP3 DUP4 AND SWAP1 DUP5 DUP2 DUP12 DUP2 DUP6 GAS STATICCALL SWAP1 DUP2 ISZERO PUSH2 0x15F8 JUMPI DUP6 SWAP2 DUP12 SWAP2 DUP10 SWAP2 PUSH2 0x15BF JUMPI JUMPDEST POP SWAP3 PUSH2 0x1418 SWAP4 DUP11 MLOAD DUP1 SWAP6 DUP2 SWAP5 DUP3 SWAP4 PUSH4 0x24745215 PUSH1 0xE2 SHL DUP5 MSTORE CALLER SWAP2 DUP5 ADD PUSH2 0x1361 JUMP JUMPDEST SUB SWAP2 GAS STATICCALL SWAP1 DUP2 ISZERO PUSH2 0x15B5 JUMPI DUP7 SWAP2 PUSH2 0x157C JUMPI JUMPDEST POP PUSH2 0x1546 JUMPI DUP5 DUP1 DUP1 DUP1 SWAP4 DUP6 PUSH1 0x1 SLOAD AND GAS CALL PUSH2 0x1443 PUSH2 0x137A JUMP JUMPDEST POP ISZERO PUSH2 0x14F9 JUMPI DUP4 SLOAD AND SWAP2 DUP5 MLOAD SWAP1 DUP2 MSTORE DUP2 DUP2 DUP9 DUP2 DUP7 GAS STATICCALL SWAP2 DUP3 ISZERO PUSH2 0x14EF JUMPI DUP5 SWAP3 PUSH2 0x14C1 JUMPI JUMPDEST POP POP DUP2 EXTCODESIZE ISZERO PUSH2 0x14BD JUMPI SWAP5 DUP3 SWAP2 PUSH2 0x1494 SWAP6 SWAP7 DUP4 DUP7 MLOAD DUP1 SWAP9 DUP2 SWAP6 DUP3 SWAP5 PUSH4 0x2F2FF15D PUSH1 0xE0 SHL DUP5 MSTORE CALLER SWAP2 DUP5 ADD PUSH2 0x1361 JUMP JUMPDEST SUB SWAP3 GAS CALL SWAP2 DUP3 ISZERO PUSH2 0x14B3 JUMPI POP POP PUSH2 0x14A8 JUMPI POP JUMP JUMPDEST PUSH2 0x14B1 SWAP1 PUSH2 0x1261 JUMP JUMPDEST JUMP JUMPDEST MLOAD SWAP1 RETURNDATASIZE SWAP1 DUP3 RETURNDATACOPY RETURNDATASIZE SWAP1 REVERT JUMPDEST DUP3 DUP1 REVERT JUMPDEST SWAP1 DUP1 SWAP3 POP DUP2 RETURNDATASIZE DUP4 GT PUSH2 0x14E8 JUMPI JUMPDEST PUSH2 0x14D8 DUP2 DUP4 PUSH2 0x128F JUMP JUMPDEST DUP2 ADD SUB SLT PUSH2 0x14BD JUMPI MLOAD CODESIZE DUP1 PUSH2 0x1467 JUMP JUMPDEST POP RETURNDATASIZE PUSH2 0x14CE JUMP JUMPDEST DUP6 MLOAD RETURNDATASIZE DUP7 DUP3 RETURNDATACOPY RETURNDATASIZE SWAP1 REVERT JUMPDEST DUP5 MLOAD PUSH3 0x461BCD PUSH1 0xE5 SHL DUP2 MSTORE DUP1 DUP9 ADD DUP4 SWAP1 MSTORE PUSH1 0x21 PUSH1 0x24 DUP3 ADD MSTORE PUSH32 0x4661696C656420746F2073656E6420656E7472792066656520746F207661756C PUSH1 0x44 DUP3 ADD MSTORE PUSH1 0x1D PUSH1 0xFA SHL PUSH1 0x64 DUP3 ADD MSTORE PUSH1 0x84 SWAP1 REVERT JUMPDEST DUP6 MLOAD PUSH3 0x461BCD PUSH1 0xE5 SHL DUP2 MSTORE DUP1 DUP10 ADD DUP5 SWAP1 MSTORE PUSH1 0x10 PUSH1 0x24 DUP3 ADD MSTORE PUSH16 0x20B63932B0B23C90309036B2B6B132B9 PUSH1 0x81 SHL PUSH1 0x44 DUP3 ADD MSTORE PUSH1 0x64 SWAP1 REVERT JUMPDEST SWAP1 POP DUP4 DUP2 DUP2 RETURNDATASIZE DUP4 GT PUSH2 0x15AE JUMPI JUMPDEST PUSH2 0x1593 DUP2 DUP4 PUSH2 0x128F JUMP JUMPDEST DUP2 ADD SUB SLT PUSH2 0x15AA JUMPI PUSH2 0x15A4 SWAP1 PUSH2 0x1354 JUMP JUMPDEST CODESIZE PUSH2 0x142A JUMP JUMPDEST DUP6 DUP1 REVERT JUMPDEST POP RETURNDATASIZE PUSH2 0x1589 JUMP JUMPDEST DUP8 MLOAD RETURNDATASIZE DUP9 DUP3 RETURNDATACOPY RETURNDATASIZE SWAP1 REVERT JUMPDEST SWAP3 DUP1 SWAP3 POP DUP4 SWAP2 POP RETURNDATASIZE DUP4 GT PUSH2 0x15F1 JUMPI JUMPDEST PUSH2 0x15D8 DUP2 DUP4 PUSH2 0x128F JUMP JUMPDEST DUP2 ADD SUB SLT PUSH2 0x15ED JUMPI MLOAD DUP5 SWAP1 DUP11 SWAP1 PUSH2 0x1418 PUSH2 0x13F7 JUMP JUMPDEST DUP7 DUP1 REVERT JUMPDEST POP RETURNDATASIZE PUSH2 0x15CE JUMP JUMPDEST DUP9 MLOAD RETURNDATASIZE DUP10 DUP3 RETURNDATACOPY RETURNDATASIZE SWAP1 REVERT JUMPDEST PUSH1 0x40 MLOAD PUSH3 0x461BCD PUSH1 0xE5 SHL DUP2 MSTORE PUSH1 0x20 PUSH1 0x4 DUP3 ADD MSTORE PUSH1 0x16 PUSH1 0x24 DUP3 ADD MSTORE PUSH22 0x496E73756666696369656E7420656E74727920666565 PUSH1 0x50 SHL PUSH1 0x44 DUP3 ADD MSTORE PUSH1 0x64 SWAP1 REVERT JUMPDEST SWAP1 PUSH1 0x20 SWAP2 PUSH2 0x1659 DUP2 MLOAD DUP1 SWAP3 DUP2 DUP6 MSTORE DUP6 DUP1 DUP7 ADD SWAP2 ADD PUSH2 0x1331 JUMP JUMPDEST PUSH1 0x1F ADD PUSH1 0x1F NOT AND ADD ADD SWAP1 JUMP JUMPDEST SWAP2 SWAP1 DUP3 ADD DUP1 SWAP3 GT PUSH2 0x1672 JUMPI JUMP JUMPDEST PUSH4 0x4E487B71 PUSH1 0xE0 SHL PUSH1 0x0 MSTORE PUSH1 0x11 PUSH1 0x4 MSTORE PUSH1 0x24 PUSH1 0x0 REVERT JUMPDEST DUP2 PUSH1 0x1F DUP3 ADD SLT ISZERO PUSH2 0x134 JUMPI DUP1 MLOAD PUSH2 0x169E DUP2 PUSH2 0x12B2 JUMP JUMPDEST SWAP3 PUSH2 0x16AC PUSH1 0x40 MLOAD SWAP5 DUP6 PUSH2 0x128F JUMP JUMPDEST DUP2 DUP5 MSTORE PUSH1 0x20 DUP3 DUP5 ADD ADD GT PUSH2 0x134 JUMPI PUSH2 0x16CA SWAP2 PUSH1 0x20 DUP1 DUP6 ADD SWAP2 ADD PUSH2 0x1331 JUMP JUMPDEST SWAP1 JUMP JUMPDEST MLOAD SWAP1 PUSH1 0x1 PUSH1 0x1 PUSH1 0xA0 SHL SUB DUP3 AND DUP3 SUB PUSH2 0x134 JUMPI JUMP JUMPDEST SWAP1 PUSH1 0x20 DUP3 DUP3 SUB SLT PUSH2 0x134 JUMPI DUP2 MLOAD PUSH1 0x1 PUSH1 0x1 PUSH1 0x40 SHL SUB SWAP3 DUP4 DUP3 GT PUSH2 0x134 JUMPI ADD SWAP1 PUSH2 0x1E0 SWAP3 DUP4 DUP4 DUP4 SUB SLT PUSH2 0x134 JUMPI PUSH1 0x40 MLOAD SWAP4 DUP5 ADD DUP5 DUP2 LT DUP3 DUP3 GT OR PUSH2 0x54A JUMPI PUSH1 0x40 MSTORE DUP3 MLOAD DUP2 DUP2 GT PUSH2 0x134 JUMPI DUP3 PUSH2 0x1736 SWAP2 DUP6 ADD PUSH2 0x1688 JUMP JUMPDEST DUP5 MSTORE PUSH1 0x20 DUP4 ADD MLOAD DUP2 DUP2 GT PUSH2 0x134 JUMPI DUP3 PUSH2 0x1750 SWAP2 DUP6 ADD PUSH2 0x1688 JUMP JUMPDEST PUSH1 0x20 DUP6 ADD MSTORE PUSH1 0x40 DUP4 DUP2 ADD MLOAD SWAP1 DUP6 ADD MSTORE PUSH1 0x60 DUP4 ADD MLOAD PUSH1 0x1 PUSH1 0x1 PUSH1 0xA0 SHL SUB DUP2 AND DUP2 SUB PUSH2 0x134 JUMPI PUSH1 0x60 DUP6 ADD MSTORE PUSH1 0x80 DUP4 ADD MLOAD PUSH1 0x4 DUP2 LT ISZERO PUSH2 0x134 JUMPI PUSH1 0x80 DUP6 ADD MSTORE PUSH1 0xA0 DUP4 ADD MLOAD PUSH1 0xA0 DUP6 ADD MSTORE PUSH1 0xC0 DUP4 ADD MLOAD PUSH1 0xC0 DUP6 ADD MSTORE PUSH1 0xE0 DUP4 ADD MLOAD PUSH1 0xE0 DUP6 ADD MSTORE PUSH2 0x100 DUP1 DUP5 ADD MLOAD SWAP1 DUP6 ADD MSTORE PUSH2 0x120 PUSH2 0x17C3 DUP2 DUP6 ADD PUSH2 0x16CD JUMP JUMPDEST SWAP1 DUP6 ADD MSTORE PUSH2 0x140 PUSH2 0x17D5 DUP2 DUP6 ADD PUSH2 0x1354 JUMP JUMPDEST SWAP1 DUP6 ADD MSTORE PUSH2 0x160 SWAP2 DUP3 DUP5 ADD MLOAD SWAP2 DUP3 GT PUSH2 0x134 JUMPI PUSH2 0x17F3 SWAP2 DUP5 ADD PUSH2 0x1688 JUMP JUMPDEST SWAP1 DUP4 ADD MSTORE PUSH2 0x180 DUP1 DUP3 ADD MLOAD SWAP1 DUP4 ADD MSTORE PUSH2 0x1A0 DUP1 DUP3 ADD MLOAD SWAP1 DUP4 ADD MSTORE PUSH2 0x181B PUSH2 0x1C0 DUP1 SWAP3 ADD PUSH2 0x16CD JUMP JUMPDEST SWAP1 DUP3 ADD MSTORE SWAP1 JUMP JUMPDEST SWAP1 PUSH1 0x20 SWAP1 DUP2 DUP4 DUP3 SUB SLT PUSH2 0x134 JUMPI DUP3 MLOAD PUSH1 0x1 PUSH1 0x1 PUSH1 0x40 SHL SUB SWAP4 DUP5 DUP3 GT PUSH2 0x134 JUMPI ADD DUP2 PUSH1 0x1F DUP3 ADD SLT ISZERO PUSH2 0x134 JUMPI DUP1 MLOAD SWAP4 DUP5 GT PUSH2 0x54A JUMPI DUP4 PUSH1 0x5 SHL SWAP1 PUSH1 0x40 MLOAD SWAP5 PUSH2 0x186B DUP6 DUP5 ADD DUP8 PUSH2 0x128F JUMP JUMPDEST DUP6 MSTORE DUP4 DUP1 DUP7 ADD SWAP3 DUP3 ADD ADD SWAP3 DUP4 GT PUSH2 0x134 JUMPI DUP4 ADD SWAP1 JUMPDEST DUP3 DUP3 LT PUSH2 0x188E JUMPI POP POP POP POP SWAP1 JUMP JUMPDEST DUP4 DUP1 SWAP2 PUSH2 0x189A DUP5 PUSH2 0x16CD JUMP JUMPDEST DUP2 MSTORE ADD SWAP2 ADD SWAP1 PUSH2 0x1880 JUMP JUMPDEST DUP1 MLOAD DUP3 LT ISZERO PUSH2 0x18B9 JUMPI PUSH1 0x20 SWAP2 PUSH1 0x5 SHL ADD ADD SWAP1 JUMP JUMPDEST PUSH4 0x4E487B71 PUSH1 0xE0 SHL PUSH1 0x0 MSTORE PUSH1 0x32 PUSH1 0x4 MSTORE PUSH1 0x24 PUSH1 0x0 REVERT JUMPDEST PUSH1 0x1 DUP1 PUSH1 0xA0 SHL SUB PUSH1 0x0 SWAP2 DUP2 DUP4 SLOAD AND SWAP2 PUSH1 0x24 DUP5 PUSH1 0x40 SWAP5 DUP6 MLOAD SWAP3 DUP4 DUP1 SWAP3 PUSH4 0x18FEEB15 PUSH1 0xE3 SHL DUP3 MSTORE DUP8 PUSH1 0x4 DUP4 ADD MSTORE GAS STATICCALL SWAP1 DUP2 ISZERO PUSH2 0x1D04 JUMPI DUP6 SWAP2 PUSH2 0x1CEA JUMPI JUMPDEST POP PUSH2 0x160 DUP2 ADD DUP1 MLOAD SWAP1 DUP6 MLOAD SWAP2 PUSH1 0x20 SWAP3 PUSH2 0x1932 DUP5 DUP3 DUP2 PUSH2 0x11AE DUP2 DUP4 ADD SWAP7 DUP8 DUP2 MLOAD SWAP4 DUP5 SWAP3 ADD PUSH2 0x1331 JUMP JUMPDEST MLOAD SWAP1 KECCAK256 DUP7 MLOAD DUP4 DUP2 ADD SWAP1 PUSH11 0x3A3932B0B9BAB93C96B4B7 PUSH1 0xA9 SHL DUP3 MSTORE PUSH1 0xB DUP2 MSTORE PUSH2 0x1959 DUP2 PUSH2 0x1274 JUMP JUMPDEST MLOAD SWAP1 KECCAK256 SUB PUSH2 0x19A2 JUMPI POP POP POP PUSH1 0x2 SLOAD AND SWAP1 DUP2 EXTCODESIZE ISZERO PUSH2 0x199E JUMPI DUP4 SWAP2 PUSH1 0x24 DUP4 SWAP3 DUP6 MLOAD SWAP7 DUP8 SWAP4 DUP5 SWAP3 PUSH4 0x7026E9FD PUSH1 0xE0 SHL DUP5 MSTORE PUSH1 0x4 DUP5 ADD MSTORE GAS CALL SWAP2 DUP3 ISZERO PUSH2 0x14B3 JUMPI POP POP PUSH2 0x14A8 JUMPI POP JUMP JUMPDEST DUP4 DUP1 REVERT JUMPDEST DUP1 MLOAD DUP7 MLOAD PUSH2 0x19BF DUP5 DUP3 DUP2 PUSH2 0x11AE DUP2 DUP4 ADD SWAP7 DUP8 DUP2 MLOAD SWAP4 DUP5 SWAP3 ADD PUSH2 0x1331 JUMP JUMPDEST MLOAD SWAP1 KECCAK256 DUP7 MLOAD DUP4 DUP2 ADD SWAP1 PUSH12 0x1D1C99585CDD5C9E4B5BDD5D PUSH1 0xA2 SHL DUP3 MSTORE PUSH1 0xC DUP2 MSTORE PUSH2 0x19E7 DUP2 PUSH2 0x1274 JUMP JUMPDEST MLOAD SWAP1 KECCAK256 SUB PUSH2 0x1A2C JUMPI POP POP POP PUSH1 0x2 SLOAD AND SWAP1 DUP2 EXTCODESIZE ISZERO PUSH2 0x199E JUMPI DUP4 SWAP2 PUSH1 0x24 DUP4 SWAP3 DUP6 MLOAD SWAP7 DUP8 SWAP4 DUP5 SWAP3 PUSH4 0x21814F9 PUSH1 0xE4 SHL DUP5 MSTORE PUSH1 0x4 DUP5 ADD MSTORE GAS CALL SWAP2 DUP3 ISZERO PUSH2 0x14B3 JUMPI POP POP PUSH2 0x14A8 JUMPI POP JUMP JUMPDEST SWAP6 SWAP3 SWAP1 SWAP4 SWAP2 SWAP6 MLOAD DUP6 MLOAD PUSH2 0x1A4E DUP7 DUP3 DUP2 PUSH2 0x11AE DUP2 DUP4 ADD SWAP7 DUP8 DUP2 MLOAD SWAP4 DUP5 SWAP3 ADD PUSH2 0x1331 JUMP JUMPDEST MLOAD SWAP1 KECCAK256 DUP6 MLOAD DUP6 DUP2 ADD SWAP1 PUSH11 0x72756C652D6368616E6765 PUSH1 0xA8 SHL DUP3 MSTORE PUSH1 0xB DUP2 MSTORE PUSH2 0x1A75 DUP2 PUSH2 0x1274 JUMP JUMPDEST MLOAD SWAP1 KECCAK256 EQ PUSH2 0x1A86 JUMPI JUMPDEST POP POP POP POP POP POP JUMP JUMPDEST PUSH1 0x2 SLOAD AND SWAP1 DUP2 EXTCODESIZE ISZERO PUSH2 0x14BD JUMPI DUP3 SWAP2 PUSH1 0x24 DUP4 SWAP3 DUP8 MLOAD SWAP6 DUP7 SWAP4 DUP5 SWAP3 PUSH4 0x6F0D949D PUSH1 0xE1 SHL DUP5 MSTORE PUSH1 0x4 DUP5 ADD MSTORE GAS CALL SWAP1 DUP2 ISZERO PUSH2 0x1CDF JUMPI POP PUSH2 0x1CD0 JUMPI JUMPDEST POP PUSH2 0x1A0 DUP4 MLOAD SWAP4 ADD MLOAD SWAP3 DUP3 MLOAD SWAP1 DUP3 DUP3 ADD DUP2 MLOAD SWAP3 PUSH2 0x1AE4 DUP6 DUP3 DUP2 DUP7 ADD SWAP7 PUSH2 0x11AE DUP2 DUP8 DUP11 PUSH2 0x1331 JUMP JUMPDEST MLOAD SWAP1 KECCAK256 DUP5 MLOAD DUP5 DUP2 ADD SWAP1 PUSH12 0x706173734372697465726961 PUSH1 0xA0 SHL DUP3 MSTORE PUSH1 0xC DUP2 MSTORE PUSH2 0x1B0C DUP2 PUSH2 0x1274 JUMP JUMPDEST MLOAD SWAP1 KECCAK256 SUB PUSH2 0x1B27 JUMPI POP POP POP POP PUSH1 0x3 SSTORE JUMPDEST CODESIZE DUP1 DUP1 DUP1 DUP1 DUP1 PUSH2 0x1A7E JUMP JUMPDEST DUP4 MLOAD DUP4 DUP2 ADD SWAP1 PUSH2 0x1B3F DUP6 DUP3 DUP6 MLOAD PUSH2 0x11AE DUP2 DUP8 DUP11 PUSH2 0x1331 JUMP JUMPDEST MLOAD SWAP1 KECCAK256 DUP5 MLOAD DUP5 DUP2 ADD SWAP1 PUSH14 0x3B37BA34B733A23AB930BA34B7B7 PUSH1 0x91 SHL DUP3 MSTORE PUSH1 0xE DUP2 MSTORE PUSH2 0x1B69 DUP2 PUSH2 0x1274 JUMP JUMPDEST MLOAD SWAP1 KECCAK256 SUB PUSH2 0x1B7D JUMPI POP POP POP POP PUSH1 0x4 SSTORE PUSH2 0x1B1C JUMP JUMPDEST DUP4 MLOAD DUP4 DUP2 ADD SWAP1 PUSH2 0x1B95 DUP6 DUP3 DUP6 MLOAD PUSH2 0x11AE DUP2 DUP8 DUP11 PUSH2 0x1331 JUMP JUMPDEST MLOAD SWAP1 KECCAK256 DUP5 MLOAD DUP5 DUP2 ADD SWAP1 PUSH13 0x616273656E7450656E616C7479 PUSH1 0x98 SHL DUP3 MSTORE PUSH1 0xD DUP2 MSTORE PUSH2 0x1BBE DUP2 PUSH2 0x1274 JUMP JUMPDEST MLOAD SWAP1 KECCAK256 SUB PUSH2 0x1BD2 JUMPI POP POP POP POP PUSH1 0x5 SSTORE PUSH2 0x1B1C JUMP JUMPDEST DUP4 MLOAD DUP4 DUP2 ADD SWAP1 PUSH2 0x1BEA DUP6 DUP3 DUP6 MLOAD PUSH2 0x11AE DUP2 DUP8 DUP11 PUSH2 0x1331 JUMP JUMPDEST MLOAD SWAP1 KECCAK256 DUP5 MLOAD DUP5 DUP2 ADD SWAP1 PUSH12 0x18DBDD5B9D151BD15E1C195B PUSH1 0xA2 SHL DUP3 MSTORE PUSH1 0xC DUP2 MSTORE PUSH2 0x1C12 DUP2 PUSH2 0x1274 JUMP JUMPDEST MLOAD SWAP1 KECCAK256 SUB PUSH2 0x1C26 JUMPI POP POP POP POP PUSH1 0x6 SSTORE PUSH2 0x1B1C JUMP JUMPDEST DUP4 MLOAD DUP4 DUP2 ADD SWAP1 PUSH2 0x1C3E DUP6 DUP3 DUP6 MLOAD PUSH2 0x11AE DUP2 DUP8 DUP11 PUSH2 0x1331 JUMP JUMPDEST MLOAD SWAP1 KECCAK256 DUP5 MLOAD DUP5 DUP2 ADD SWAP1 PUSH12 0x1CD8DBDC99551BD15E1C195B PUSH1 0xA2 SHL DUP3 MSTORE PUSH1 0xC DUP2 MSTORE PUSH2 0x1C66 DUP2 PUSH2 0x1274 JUMP JUMPDEST MLOAD SWAP1 KECCAK256 SUB PUSH2 0x1C7A JUMPI POP POP POP POP PUSH1 0x7 SSTORE PUSH2 0x1B1C JUMP JUMPDEST PUSH2 0x1C94 DUP4 DUP6 MLOAD DUP1 SWAP4 PUSH2 0x11AE DUP4 DUP4 ADD SWAP7 DUP8 SWAP3 MLOAD SWAP3 DUP4 SWAP2 PUSH2 0x1331 JUMP JUMPDEST MLOAD SWAP1 KECCAK256 SWAP2 MLOAD SWAP1 DUP2 ADD SWAP1 PUSH8 0x656E747279466565 PUSH1 0xC0 SHL DUP3 MSTORE PUSH1 0x8 DUP2 MSTORE PUSH2 0x1CB8 DUP2 PUSH2 0x1274 JUMP JUMPDEST MLOAD SWAP1 KECCAK256 EQ PUSH2 0x1CC7 JUMPI JUMPDEST POP PUSH2 0x1B1C JUMP JUMPDEST PUSH1 0x8 SSTORE CODESIZE PUSH2 0x1CC1 JUMP JUMPDEST PUSH2 0x1CD9 SWAP1 PUSH2 0x1261 JUMP JUMPDEST CODESIZE PUSH2 0x1ABD JUMP JUMPDEST DUP5 MLOAD SWAP1 RETURNDATASIZE SWAP1 DUP3 RETURNDATACOPY RETURNDATASIZE SWAP1 REVERT JUMPDEST PUSH2 0x1CFE SWAP2 POP RETURNDATASIZE DUP1 DUP8 DUP4 RETURNDATACOPY PUSH2 0xEDE DUP2 DUP4 PUSH2 0x128F JUMP JUMPDEST CODESIZE PUSH2 0x190A JUMP JUMPDEST DUP5 MLOAD RETURNDATASIZE DUP8 DUP3 RETURNDATACOPY RETURNDATASIZE SWAP1 REVERT INVALID LOG1 PUSH5 0x736F6C6343 STOP ADDMOD EQ STOP EXP PUSH1 0x80 CALLVALUE PUSH2 0x8D JUMPI PUSH1 0x1F PUSH2 0x83D CODESIZE DUP2 SWAP1 SUB SWAP2 DUP3 ADD PUSH1 0x1F NOT AND DUP4 ADD SWAP2 PUSH1 0x1 PUSH1 0x1 PUSH1 0x40 SHL SUB DUP4 GT DUP5 DUP5 LT OR PUSH2 0x92 JUMPI DUP1 DUP5 SWAP3 PUSH1 0x40 SWAP5 DUP6 MSTORE DUP4 CODECOPY DUP2 ADD SUB SLT PUSH2 0x8D JUMPI PUSH2 0x52 PUSH1 0x20 PUSH2 0x4B DUP4 PUSH2 0xA8 JUMP JUMPDEST SWAP3 ADD PUSH2 0xA8 JUMP JUMPDEST PUSH1 0x0 DUP1 SLOAD PUSH1 0x1 PUSH1 0x1 PUSH1 0xA0 SHL SUB SWAP4 DUP5 AND PUSH1 0x1 PUSH1 0x1 PUSH1 0xA0 SHL SUB NOT SWAP2 DUP3 AND OR SWAP1 SWAP2 SSTORE PUSH1 0x1 DUP1 SLOAD SWAP3 SWAP1 SWAP4 AND SWAP2 AND OR SWAP1 SSTORE PUSH1 0x40 MLOAD PUSH2 0x780 SWAP1 DUP2 PUSH2 0xBD DUP3 CODECOPY RETURN JUMPDEST PUSH1 0x0 DUP1 REVERT JUMPDEST PUSH4 0x4E487B71 PUSH1 0xE0 SHL PUSH1 0x0 MSTORE PUSH1 0x41 PUSH1 0x4 MSTORE PUSH1 0x24 PUSH1 0x0 REVERT JUMPDEST MLOAD SWAP1 PUSH1 0x1 PUSH1 0x1 PUSH1 0xA0 SHL SUB DUP3 AND DUP3 SUB PUSH2 0x8D JUMPI JUMP INVALID PUSH1 0x80 PUSH1 0x40 DUP2 DUP2 MSTORE PUSH1 0x4 SWAP1 DUP2 CALLDATASIZE LT ISZERO PUSH2 0x16 JUMPI PUSH1 0x0 DUP1 REVERT JUMPDEST PUSH1 0x0 SWAP3 DUP4 CALLDATALOAD PUSH1 0xE0 SHR SWAP1 DUP2 PUSH4 0x2131C68C EQ PUSH2 0x4C3 JUMPI POP DUP1 PUSH4 0x21814F90 EQ PUSH2 0x33C JUMPI DUP1 PUSH4 0x2274346B EQ PUSH2 0x313 JUMPI DUP1 PUSH4 0x3AEF3900 EQ PUSH2 0x2EB JUMPI DUP4 DUP2 PUSH4 0x7026E9FD EQ PUSH2 0x24C JUMPI POP DUP1 PUSH4 0x9A3CAC6A EQ PUSH2 0x1C1 JUMPI PUSH4 0xDE1B293A EQ PUSH2 0x73 JUMPI PUSH1 0x0 DUP1 REVERT JUMPDEST CALLVALUE PUSH2 0x181 JUMPI PUSH1 0x20 CALLDATASIZE PUSH1 0x3 NOT ADD SLT PUSH2 0x181 JUMPI DUP3 DUP3 CALLDATALOAD SWAP3 PUSH1 0x1 DUP1 PUSH1 0xA0 SHL SUB PUSH2 0x9E DUP2 PUSH1 0x2 SLOAD AND CALLER EQ PUSH2 0x4E8 JUMP JUMPDEST DUP3 SLOAD AND SWAP1 DUP4 MLOAD SWAP5 PUSH4 0x18FEEB15 PUSH1 0xE3 SHL DUP7 MSTORE DUP1 DUP3 DUP8 ADD MSTORE DUP4 DUP7 PUSH1 0x24 DUP2 DUP7 GAS STATICCALL SWAP6 DUP7 ISZERO PUSH2 0x1B7 JUMPI DUP5 SWAP7 PUSH2 0x193 JUMPI JUMPDEST POP DUP3 EXTCODESIZE ISZERO PUSH2 0x18F JUMPI PUSH1 0x44 DUP5 SWAP3 DUP4 DUP8 MLOAD SWAP6 DUP7 SWAP5 DUP6 SWAP4 PUSH4 0x32FA5185 PUSH1 0xE2 SHL DUP6 MSTORE DUP5 ADD MSTORE PUSH1 0x3 PUSH1 0x24 DUP5 ADD MSTORE GAS CALL DUP1 ISZERO PUSH2 0x185 JUMPI PUSH2 0x16D JUMPI JUMPDEST POP POP PUSH1 0x80 DUP3 PUSH32 0xC607C5751C330DFB1B02E97A8C6B40995B7C37F1247CB3BA0BAA9308F3747FF SWAP4 MLOAD PUSH2 0x1A0 PUSH2 0x180 DUP4 ADD MLOAD SWAP3 ADD MLOAD DUP5 MLOAD SWAP5 DUP6 SWAP4 PUSH1 0x60 DUP6 MSTORE PUSH2 0x155 DUP5 MLOAD DUP1 SWAP6 DUP2 PUSH1 0x60 DUP10 ADD MSTORE PUSH1 0x20 DUP10 DUP10 ADD SWAP2 ADD PUSH2 0x580 JUMP JUMPDEST PUSH1 0x20 DUP6 ADD MSTORE DUP4 ADD MSTORE PUSH1 0x1F ADD PUSH1 0x1F NOT AND DUP2 ADD SUB ADD SWAP1 LOG1 DUP1 RETURN JUMPDEST PUSH2 0x176 SWAP1 PUSH2 0x534 JUMP JUMPDEST PUSH2 0x181 JUMPI DUP3 CODESIZE PUSH2 0xFF JUMP JUMPDEST DUP3 DUP1 REVERT JUMPDEST DUP4 MLOAD RETURNDATASIZE DUP5 DUP3 RETURNDATACOPY RETURNDATASIZE SWAP1 REVERT JUMPDEST DUP4 DUP1 REVERT JUMPDEST PUSH2 0x1B0 SWAP2 SWAP7 POP RETURNDATASIZE DUP1 DUP7 DUP4 RETURNDATACOPY PUSH2 0x1A8 DUP2 DUP4 PUSH2 0x55D JUMP JUMPDEST DUP2 ADD SWAP1 PUSH2 0x610 JUMP JUMPDEST SWAP5 CODESIZE PUSH2 0xCA JUMP JUMPDEST DUP6 MLOAD RETURNDATASIZE DUP7 DUP3 RETURNDATACOPY RETURNDATASIZE SWAP1 REVERT JUMPDEST POP CALLVALUE PUSH2 0x181 JUMPI PUSH1 0x20 CALLDATASIZE PUSH1 0x3 NOT ADD SLT PUSH2 0x181 JUMPI PUSH1 0x1 PUSH1 0x1 PUSH1 0xA0 SHL SUB DUP3 CALLDATALOAD DUP2 DUP2 AND SWAP4 SWAP2 SWAP3 SWAP1 DUP5 SWAP1 SUB PUSH2 0x248 JUMPI PUSH1 0x2 SLOAD SWAP3 DUP4 AND PUSH2 0x208 JUMPI POP POP PUSH1 0x1 PUSH1 0x1 PUSH1 0xA0 SHL SUB NOT AND OR PUSH1 0x2 SSTORE DUP1 RETURN JUMPDEST SWAP1 PUSH1 0x20 PUSH1 0x64 SWAP3 MLOAD SWAP2 PUSH3 0x461BCD PUSH1 0xE5 SHL DUP4 MSTORE DUP3 ADD MSTORE PUSH1 0x1A PUSH1 0x24 DUP3 ADD MSTORE PUSH26 0x111053C81859191C995CDCC81A5CC8185B1C9958591E481CD95D PUSH1 0x32 SHL PUSH1 0x44 DUP3 ADD MSTORE REVERT JUMPDEST DUP5 DUP1 REVERT JUMPDEST DUP3 DUP2 DUP6 CALLVALUE PUSH2 0x2DE JUMPI PUSH1 0x20 CALLDATASIZE PUSH1 0x3 NOT ADD SLT PUSH2 0x2DE JUMPI DUP1 CALLDATALOAD SWAP3 PUSH1 0x1 DUP1 PUSH1 0xA0 SHL SUB PUSH2 0x279 DUP2 PUSH1 0x2 SLOAD AND CALLER EQ PUSH2 0x4E8 JUMP JUMPDEST DUP4 SLOAD AND SWAP2 DUP3 EXTCODESIZE ISZERO PUSH2 0x18F JUMPI DUP5 PUSH1 0x44 DUP6 SWAP3 DUP4 DUP6 MLOAD SWAP7 DUP8 SWAP5 DUP6 SWAP4 PUSH4 0x32FA5185 PUSH1 0xE2 SHL DUP6 MSTORE DUP5 ADD MSTORE PUSH1 0x3 PUSH1 0x24 DUP5 ADD MSTORE GAS CALL SWAP1 DUP2 ISZERO PUSH2 0x2E2 JUMPI POP PUSH2 0x2CA JUMPI JUMPDEST POP DUP1 PUSH1 0x0 DUP1 MLOAD PUSH1 0x20 PUSH2 0x754 DUP4 CODECOPY DUP2 MLOAD SWAP2 MSTORE SWAP2 LOG2 DUP1 RETURN JUMPDEST PUSH2 0x2D3 SWAP1 PUSH2 0x534 JUMP JUMPDEST PUSH2 0x2DE JUMPI DUP2 DUP4 PUSH2 0x2B4 JUMP JUMPDEST POP DUP1 REVERT JUMPDEST MLOAD RETURNDATASIZE DUP5 DUP3 RETURNDATACOPY RETURNDATASIZE SWAP1 REVERT JUMPDEST DUP4 DUP3 CALLVALUE PUSH2 0x2DE JUMPI DUP2 PUSH1 0x3 NOT CALLDATASIZE ADD SLT PUSH2 0x2DE JUMPI SWAP1 SLOAD SWAP1 MLOAD PUSH1 0x1 PUSH1 0x1 PUSH1 0xA0 SHL SUB SWAP1 SWAP2 AND DUP2 MSTORE PUSH1 0x20 SWAP1 RETURN JUMPDEST DUP4 DUP3 CALLVALUE PUSH2 0x2DE JUMPI DUP2 PUSH1 0x3 NOT CALLDATASIZE ADD SLT PUSH2 0x2DE JUMPI PUSH1 0x1 SLOAD SWAP1 MLOAD PUSH1 0x1 PUSH1 0x1 PUSH1 0xA0 SHL SUB SWAP1 SWAP2 AND DUP2 MSTORE PUSH1 0x20 SWAP1 RETURN JUMPDEST POP SWAP1 CALLVALUE PUSH2 0x181 JUMPI PUSH1 0x20 CALLDATASIZE PUSH1 0x3 NOT ADD SLT PUSH2 0x181 JUMPI DUP1 CALLDATALOAD SWAP2 PUSH1 0x1 DUP1 PUSH1 0xA0 SHL SUB PUSH2 0x368 DUP2 PUSH1 0x2 SLOAD AND CALLER EQ PUSH2 0x4E8 JUMP JUMPDEST PUSH1 0x24 DUP6 DUP3 DUP2 SLOAD AND DUP5 MLOAD SWAP3 DUP4 DUP1 SWAP3 PUSH4 0x18FEEB15 PUSH1 0xE3 SHL DUP3 MSTORE DUP10 DUP10 DUP4 ADD MSTORE GAS STATICCALL SWAP1 DUP2 ISZERO PUSH2 0x465 JUMPI DUP7 SWAP2 PUSH2 0x4A9 JUMPI JUMPDEST POP DUP2 PUSH1 0x1 SLOAD AND SWAP1 DUP2 BALANCE SWAP1 DUP5 DUP2 ADD SWAP2 DUP3 MLOAD GT PUSH2 0x46F JUMPI PUSH1 0x60 ADD MLOAD SWAP1 MLOAD DUP8 SWAP2 DUP5 AND DUP4 EXTCODESIZE ISZERO PUSH2 0x181 JUMPI PUSH1 0x44 SWAP1 DUP4 DUP8 MLOAD SWAP6 DUP7 SWAP5 DUP6 SWAP4 PUSH4 0xA9059CBB PUSH1 0xE0 SHL DUP6 MSTORE DUP12 DUP6 ADD MSTORE PUSH1 0x24 DUP5 ADD MSTORE GAS CALL DUP1 ISZERO PUSH2 0x465 JUMPI PUSH2 0x44E JUMPI JUMPDEST POP SWAP1 DUP5 SWAP3 SWAP2 DUP4 SLOAD AND SWAP2 DUP3 EXTCODESIZE ISZERO PUSH2 0x18F JUMPI DUP5 PUSH1 0x44 DUP6 SWAP3 DUP4 DUP6 MLOAD SWAP7 DUP8 SWAP5 DUP6 SWAP4 PUSH4 0x32FA5185 PUSH1 0xE2 SHL DUP6 MSTORE DUP5 ADD MSTORE PUSH1 0x3 PUSH1 0x24 DUP5 ADD MSTORE GAS CALL SWAP1 DUP2 ISZERO PUSH2 0x2E2 JUMPI POP PUSH2 0x43A JUMPI POP DUP1 PUSH1 0x0 DUP1 MLOAD PUSH1 0x20 PUSH2 0x754 DUP4 CODECOPY DUP2 MLOAD SWAP2 MSTORE SWAP2 LOG2 DUP1 RETURN JUMPDEST PUSH2 0x443 SWAP1 PUSH2 0x534 JUMP JUMPDEST PUSH2 0x2DE JUMPI DUP2 CODESIZE PUSH2 0x2B4 JUMP JUMPDEST PUSH2 0x45C SWAP1 SWAP6 SWAP2 SWAP4 SWAP3 SWAP6 PUSH2 0x534 JUMP JUMPDEST SWAP4 SWAP1 SWAP2 CODESIZE PUSH2 0x3E5 JUMP JUMPDEST DUP4 MLOAD RETURNDATASIZE DUP9 DUP3 RETURNDATACOPY RETURNDATASIZE SWAP1 REVERT JUMPDEST DUP5 MLOAD PUSH3 0x461BCD PUSH1 0xE5 SHL DUP2 MSTORE PUSH1 0x20 DUP2 DUP9 ADD MSTORE PUSH1 0x14 PUSH1 0x24 DUP3 ADD MSTORE PUSH20 0x496E73756666696369656E742062616C616E6365 PUSH1 0x60 SHL PUSH1 0x44 DUP3 ADD MSTORE PUSH1 0x64 SWAP1 REVERT JUMPDEST PUSH2 0x4BD SWAP2 POP RETURNDATASIZE DUP1 DUP9 DUP4 RETURNDATACOPY PUSH2 0x1A8 DUP2 DUP4 PUSH2 0x55D JUMP JUMPDEST CODESIZE PUSH2 0x394 JUMP JUMPDEST DUP5 SWAP1 CALLVALUE PUSH2 0x2DE JUMPI DUP2 PUSH1 0x3 NOT CALLDATASIZE ADD SLT PUSH2 0x2DE JUMPI PUSH1 0x2 SLOAD PUSH1 0x1 PUSH1 0x1 PUSH1 0xA0 SHL SUB AND DUP2 MSTORE PUSH1 0x20 SWAP1 RETURN JUMPDEST ISZERO PUSH2 0x4EF JUMPI JUMP JUMPDEST PUSH1 0x40 MLOAD PUSH3 0x461BCD PUSH1 0xE5 SHL DUP2 MSTORE PUSH1 0x20 PUSH1 0x4 DUP3 ADD MSTORE PUSH1 0x1F PUSH1 0x24 DUP3 ADD MSTORE PUSH32 0x4F6E6C792044414F2063616E2063616C6C20746869732066756E6374696F6E00 PUSH1 0x44 DUP3 ADD MSTORE PUSH1 0x64 SWAP1 REVERT JUMPDEST PUSH1 0x1 PUSH1 0x1 PUSH1 0x40 SHL SUB DUP2 GT PUSH2 0x547 JUMPI PUSH1 0x40 MSTORE JUMP JUMPDEST PUSH4 0x4E487B71 PUSH1 0xE0 SHL PUSH1 0x0 MSTORE PUSH1 0x41 PUSH1 0x4 MSTORE PUSH1 0x24 PUSH1 0x0 REVERT JUMPDEST PUSH1 0x1F SWAP1 SWAP2 ADD PUSH1 0x1F NOT AND DUP2 ADD SWAP1 PUSH1 0x1 PUSH1 0x1 PUSH1 0x40 SHL SUB DUP3 GT SWAP1 DUP3 LT OR PUSH2 0x547 JUMPI PUSH1 0x40 MSTORE JUMP JUMPDEST PUSH1 0x0 JUMPDEST DUP4 DUP2 LT PUSH2 0x593 JUMPI POP POP PUSH1 0x0 SWAP2 ADD MSTORE JUMP JUMPDEST DUP2 DUP2 ADD MLOAD DUP4 DUP3 ADD MSTORE PUSH1 0x20 ADD PUSH2 0x583 JUMP JUMPDEST DUP2 PUSH1 0x1F DUP3 ADD SLT ISZERO PUSH2 0x5F7 JUMPI DUP1 MLOAD PUSH1 0x1 PUSH1 0x1 PUSH1 0x40 SHL SUB DUP2 GT PUSH2 0x547 JUMPI PUSH1 0x40 MLOAD SWAP3 PUSH2 0x5D6 PUSH1 0x1F DUP4 ADD PUSH1 0x1F NOT AND PUSH1 0x20 ADD DUP6 PUSH2 0x55D JUMP JUMPDEST DUP2 DUP5 MSTORE PUSH1 0x20 DUP3 DUP5 ADD ADD GT PUSH2 0x5F7 JUMPI PUSH2 0x5F4 SWAP2 PUSH1 0x20 DUP1 DUP6 ADD SWAP2 ADD PUSH2 0x580 JUMP JUMPDEST SWAP1 JUMP JUMPDEST PUSH1 0x0 DUP1 REVERT JUMPDEST MLOAD SWAP1 PUSH1 0x1 PUSH1 0x1 PUSH1 0xA0 SHL SUB DUP3 AND DUP3 SUB PUSH2 0x5F7 JUMPI JUMP JUMPDEST SWAP1 PUSH1 0x20 DUP3 DUP3 SUB SLT PUSH2 0x5F7 JUMPI DUP2 MLOAD PUSH1 0x1 PUSH1 0x1 PUSH1 0x40 SHL SUB SWAP3 DUP4 DUP3 GT PUSH2 0x5F7 JUMPI ADD SWAP1 PUSH2 0x1E0 SWAP3 DUP4 DUP4 DUP4 SUB SLT PUSH2 0x5F7 JUMPI PUSH1 0x40 MLOAD SWAP4 DUP5 ADD DUP5 DUP2 LT DUP3 DUP3 GT OR PUSH2 0x547 JUMPI PUSH1 0x40 MSTORE DUP3 MLOAD DUP2 DUP2 GT PUSH2 0x5F7 JUMPI DUP3 PUSH2 0x665 SWAP2 DUP6 ADD PUSH2 0x5A3 JUMP JUMPDEST DUP5 MSTORE PUSH1 0x20 DUP4 ADD MLOAD DUP2 DUP2 GT PUSH2 0x5F7 JUMPI DUP3 PUSH2 0x67F SWAP2 DUP6 ADD PUSH2 0x5A3 JUMP JUMPDEST PUSH1 0x20 DUP6 ADD MSTORE PUSH1 0x40 DUP4 DUP2 ADD MLOAD SWAP1 DUP6 ADD MSTORE PUSH1 0x60 DUP4 ADD MLOAD PUSH1 0x1 PUSH1 0x1 PUSH1 0xA0 SHL SUB DUP2 AND DUP2 SUB PUSH2 0x5F7 JUMPI PUSH1 0x60 DUP6 ADD MSTORE PUSH1 0x80 DUP4 ADD MLOAD PUSH1 0x4 DUP2 LT ISZERO PUSH2 0x5F7 JUMPI PUSH1 0x80 DUP6 ADD MSTORE PUSH1 0xA0 DUP4 ADD MLOAD PUSH1 0xA0 DUP6 ADD MSTORE PUSH1 0xC0 DUP4 ADD MLOAD PUSH1 0xC0 DUP6 ADD MSTORE PUSH1 0xE0 DUP4 ADD MLOAD PUSH1 0xE0 DUP6 ADD MSTORE PUSH2 0x100 DUP1 DUP5 ADD MLOAD SWAP1 DUP6 ADD MSTORE PUSH2 0x120 PUSH2 0x6F2 DUP2 DUP6 ADD PUSH2 0x5FC JUMP JUMPDEST SWAP1 DUP6 ADD MSTORE PUSH2 0x140 DUP1 DUP5 ADD MLOAD SWAP1 DUP2 ISZERO ISZERO DUP3 SUB PUSH2 0x5F7 JUMPI DUP6 ADD MSTORE PUSH2 0x160 SWAP2 DUP3 DUP5 ADD MLOAD SWAP2 DUP3 GT PUSH2 0x5F7 JUMPI PUSH2 0x724 SWAP2 DUP5 ADD PUSH2 0x5A3 JUMP JUMPDEST SWAP1 DUP4 ADD MSTORE PUSH2 0x180 DUP1 DUP3 ADD MLOAD SWAP1 DUP4 ADD MSTORE PUSH2 0x1A0 DUP1 DUP3 ADD MLOAD SWAP1 DUP4 ADD MSTORE PUSH2 0x74C PUSH2 0x1C0 DUP1 SWAP3 ADD PUSH2 0x5FC JUMP JUMPDEST SWAP1 DUP3 ADD MSTORE SWAP1 JUMP INVALID PUSH18 0x2AE1383F79AC853F8D882153778E0260EF8F SUB 0xB5 DIV 0xE2 DUP7 PUSH15 0x593E04D2B291FA164736F6C634300 ADDMOD EQ STOP EXP PUSH1 0x80 CALLVALUE PUSH3 0x20C JUMPI PUSH3 0x23E4 PUSH1 0x1F CODESIZE DUP3 SWAP1 SUB SWAP1 DUP2 ADD PUSH1 0x1F NOT AND DUP4 ADD SWAP1 PUSH1 0x1 PUSH1 0x1 PUSH1 0x40 SHL SUB DUP3 GT DUP5 DUP4 LT OR PUSH3 0x211 JUMPI DUP1 DUP5 SWAP2 PUSH1 0x40 SWAP5 DUP6 SWAP5 DUP6 MSTORE DUP4 CODECOPY DUP2 ADD SUB SLT PUSH3 0x20C JUMPI PUSH3 0x4E DUP3 PUSH3 0x227 JUMP JUMPDEST SWAP1 PUSH3 0x5E PUSH1 0x20 DUP1 SWAP5 ADD PUSH3 0x227 JUMP JUMPDEST SWAP3 PUSH3 0x6A DUP4 PUSH3 0x23C JUMP JUMPDEST POP PUSH1 0x1 PUSH1 0x1 PUSH1 0xA0 SHL SUB SWAP4 DUP1 DUP6 AND PUSH3 0x1F9 JUMPI JUMPDEST POP PUSH1 0x0 DUP1 MLOAD PUSH1 0x20 PUSH3 0x23C4 DUP4 CODECOPY DUP2 MLOAD SWAP2 MSTORE SWAP3 PUSH1 0x0 SWAP5 DUP5 DUP7 MSTORE DUP6 DUP4 MSTORE PUSH1 0x1 DUP5 DUP8 KECCAK256 ADD SLOAD DUP1 DUP8 MSTORE DUP5 DUP8 KECCAK256 CALLER DUP9 MSTORE DUP5 MSTORE PUSH1 0xFF DUP6 DUP9 KECCAK256 SLOAD AND ISZERO PUSH3 0x1DC JUMPI POP PUSH3 0xC3 DUP3 PUSH3 0x2BC JUMP JUMPDEST POP PUSH1 0x6 SLOAD PUSH9 0x10000000000000000 DUP2 LT ISZERO PUSH3 0x1C8 JUMPI PUSH1 0x1 DUP2 ADD DUP1 PUSH1 0x6 SSTORE DUP2 LT ISZERO PUSH3 0x1B4 JUMPI SWAP1 DUP7 SWAP4 SWAP3 SWAP2 PUSH1 0x6 DUP6 MSTORE DUP4 DUP6 KECCAK256 ADD SWAP2 AND SWAP1 DUP2 PUSH1 0x1 DUP1 PUSH1 0xA0 SHL SUB NOT DUP3 SLOAD AND OR SWAP1 SSTORE DUP1 DUP4 MSTORE PUSH1 0x7 DUP3 MSTORE DUP4 DUP4 KECCAK256 PUSH1 0x1 PUSH1 0xFF NOT DUP3 SLOAD AND OR SWAP1 SSTORE PUSH1 0x4 DUP3 MSTORE PUSH1 0x32 DUP5 DUP5 KECCAK256 SSTORE PUSH32 0xDB51946147AF8F68F24B69CDB99D868CC4B53B75DCE4E05D8F590BCF5281051C DUP3 DUP6 MLOAD PUSH1 0x32 DUP2 MSTORE LOG2 DUP4 DUP3 MSTORE MSTORE PUSH1 0x1 DUP2 DUP5 KECCAK256 ADD SWAP2 PUSH32 0xBD79B86FFE0AB8E8776151514217CD7CACD52C909F66475C3AF44E129F0B00FF DUP4 SLOAD SWAP3 PUSH32 0x3B5D4CC60D3EC3516EE8AE083BD60934F6EB2A6C54B1229985C41BFB092B2603 DUP1 SWAP6 SSTORE MLOAD SWAP5 DUP1 LOG4 PUSH2 0x2056 SWAP1 DUP2 PUSH3 0x34E DUP3 CODECOPY RETURN JUMPDEST PUSH4 0x4E487B71 PUSH1 0xE0 SHL DUP8 MSTORE PUSH1 0x32 PUSH1 0x4 MSTORE PUSH1 0x24 DUP8 REVERT JUMPDEST PUSH4 0x4E487B71 PUSH1 0xE0 SHL DUP8 MSTORE PUSH1 0x41 PUSH1 0x4 MSTORE PUSH1 0x24 DUP8 REVERT JUMPDEST PUSH1 0x44 SWAP1 DUP6 MLOAD SWAP1 PUSH4 0xE2517D3F PUSH1 0xE0 SHL DUP3 MSTORE CALLER PUSH1 0x4 DUP4 ADD MSTORE PUSH1 0x24 DUP3 ADD MSTORE REVERT JUMPDEST PUSH3 0x204 SWAP1 PUSH3 0x23C JUMP JUMPDEST POP CODESIZE PUSH3 0x7D JUMP JUMPDEST PUSH1 0x0 DUP1 REVERT JUMPDEST PUSH4 0x4E487B71 PUSH1 0xE0 SHL PUSH1 0x0 MSTORE PUSH1 0x41 PUSH1 0x4 MSTORE PUSH1 0x24 PUSH1 0x0 REVERT JUMPDEST MLOAD SWAP1 PUSH1 0x1 PUSH1 0x1 PUSH1 0xA0 SHL SUB DUP3 AND DUP3 SUB PUSH3 0x20C JUMPI JUMP JUMPDEST PUSH1 0x1 PUSH1 0x1 PUSH1 0xA0 SHL SUB AND PUSH1 0x0 DUP2 DUP2 MSTORE PUSH32 0xAD3228B676F7D3CD4284A5443F17F1962B36E491B30A40B2405849E597BA5FB5 PUSH1 0x20 MSTORE PUSH1 0x40 DUP2 KECCAK256 SLOAD SWAP1 SWAP2 SWAP1 PUSH1 0xFF AND PUSH3 0x2B8 JUMPI DUP2 DUP1 MSTORE DUP2 PUSH1 0x20 MSTORE PUSH1 0x40 DUP3 KECCAK256 DUP2 DUP4 MSTORE PUSH1 0x20 MSTORE PUSH1 0x40 DUP3 KECCAK256 PUSH1 0x1 PUSH1 0xFF NOT DUP3 SLOAD AND OR SWAP1 SSTORE CALLER SWAP2 PUSH1 0x0 DUP1 MLOAD PUSH1 0x20 PUSH3 0x23A4 DUP4 CODECOPY DUP2 MLOAD SWAP2 MSTORE DUP2 DUP1 LOG4 PUSH1 0x1 SWAP1 JUMP JUMPDEST POP SWAP1 JUMP JUMPDEST PUSH1 0x1 PUSH1 0x1 PUSH1 0xA0 SHL SUB AND PUSH1 0x0 DUP2 DUP2 MSTORE PUSH32 0x30710E496C9A8631E387D1FF5062C226D4CE9C9E008BFF1F22AE157290CCBD62 PUSH1 0x20 MSTORE PUSH1 0x40 DUP2 KECCAK256 SLOAD SWAP1 SWAP2 SWAP1 PUSH1 0x0 DUP1 MLOAD PUSH1 0x20 PUSH3 0x23C4 DUP4 CODECOPY DUP2 MLOAD SWAP2 MSTORE SWAP1 PUSH1 0xFF AND PUSH3 0x348 JUMPI DUP1 DUP4 MSTORE DUP3 PUSH1 0x20 MSTORE PUSH1 0x40 DUP4 KECCAK256 DUP3 DUP5 MSTORE PUSH1 0x20 MSTORE PUSH1 0x40 DUP4 KECCAK256 PUSH1 0x1 PUSH1 0xFF NOT DUP3 SLOAD AND OR SWAP1 SSTORE PUSH1 0x0 DUP1 MLOAD PUSH1 0x20 PUSH3 0x23A4 DUP4 CODECOPY DUP2 MLOAD SWAP2 MSTORE CALLER SWAP4 DUP1 LOG4 PUSH1 0x1 SWAP1 JUMP JUMPDEST POP POP SWAP1 JUMP INVALID PUSH1 0x80 PUSH1 0x40 MSTORE PUSH1 0x4 CALLDATASIZE LT ISZERO PUSH2 0x12 JUMPI PUSH1 0x0 DUP1 REVERT JUMPDEST PUSH1 0x0 CALLDATALOAD PUSH1 0xE0 SHR DUP1 PUSH4 0x13CF08B EQ PUSH2 0x15E5 JUMPI DUP1 PUSH4 0x1FFC9A7 EQ PUSH2 0x158F JUMPI DUP1 PUSH4 0x19CFF706 EQ PUSH2 0x13C0 JUMPI DUP1 PUSH4 0x1F56D126 EQ PUSH2 0x1386 JUMPI DUP1 PUSH4 0x2131C68C EQ PUSH2 0x135D JUMPI DUP1 PUSH4 0x248A9CA3 EQ PUSH2 0x132E JUMPI DUP1 PUSH4 0x2B72EE51 EQ PUSH2 0x123D JUMPI DUP1 PUSH4 0x2F2FF15D EQ PUSH2 0x1150 JUMPI DUP1 PUSH4 0x36568ABE EQ PUSH2 0x1109 JUMPI DUP1 PUSH4 0x43859632 EQ PUSH2 0xFF8 JUMPI DUP1 PUSH4 0x488CBA40 EQ PUSH2 0x1087 JUMPI DUP1 PUSH4 0x5DAF08CA EQ PUSH2 0x1045 JUMPI DUP1 PUSH4 0x62D4F893 EQ PUSH2 0xFF8 JUMPI DUP1 PUSH4 0x7C0F6B35 EQ PUSH2 0xF4D JUMPI DUP1 PUSH4 0x91D14854 EQ PUSH2 0xF00 JUMPI DUP1 PUSH4 0x91DCD5AA EQ PUSH2 0xE83 JUMPI DUP1 PUSH4 0x997072F7 EQ PUSH2 0xE65 JUMPI DUP1 PUSH4 0x9A3CAC6A EQ PUSH2 0xDE4 JUMPI DUP1 PUSH4 0xA10F469E EQ PUSH2 0xDBB JUMPI DUP1 PUSH4 0xA217FDDF EQ PUSH2 0xD9F JUMPI DUP1 PUSH4 0xA230C524 EQ PUSH2 0xD60 JUMPI DUP1 PUSH4 0xA462E50F EQ PUSH2 0xCB2 JUMPI DUP1 PUSH4 0xA9330B0E EQ PUSH2 0xC78 JUMPI DUP1 PUSH4 0xBA86F70A EQ PUSH2 0xBA6 JUMPI DUP1 PUSH4 0xC7F758A8 EQ PUSH2 0xAF9 JUMPI DUP1 PUSH4 0xCBE94614 EQ PUSH2 0xA87 JUMPI DUP1 PUSH4 0xCC9AA9EA EQ PUSH2 0x435 JUMPI DUP1 PUSH4 0xCCEB68F5 EQ PUSH2 0x343 JUMPI DUP1 PUSH4 0xD547741F EQ PUSH2 0x194 JUMPI PUSH4 0xE9C26518 EQ PUSH2 0x166 JUMPI PUSH1 0x0 DUP1 REVERT JUMPDEST CALLVALUE PUSH2 0x18F JUMPI PUSH1 0x0 CALLDATASIZE PUSH1 0x3 NOT ADD SLT PUSH2 0x18F JUMPI PUSH1 0x20 PUSH1 0x40 MLOAD PUSH1 0x0 DUP1 MLOAD PUSH1 0x20 PUSH2 0x1F6A DUP4 CODECOPY DUP2 MLOAD SWAP2 MSTORE DUP2 MSTORE RETURN JUMPDEST PUSH1 0x0 DUP1 REVERT JUMPDEST CALLVALUE PUSH2 0x18F JUMPI PUSH1 0x40 CALLDATASIZE PUSH1 0x3 NOT ADD SLT PUSH2 0x18F JUMPI PUSH1 0x4 CALLDATALOAD PUSH2 0x1B0 PUSH2 0x18D0 JUMP JUMPDEST SWAP1 DUP1 PUSH1 0x0 MSTORE PUSH1 0x0 PUSH1 0x20 MSTORE PUSH1 0x0 DUP1 MLOAD PUSH1 0x20 PUSH2 0x1FEA DUP4 CODECOPY DUP2 MLOAD SWAP2 MSTORE PUSH1 0x1 SWAP2 PUSH2 0x1DC DUP4 PUSH1 0x40 PUSH1 0x0 KECCAK256 ADD SLOAD PUSH2 0x1B89 JUMP JUMPDEST PUSH2 0x1E6 DUP5 DUP3 PUSH2 0x1AD0 JUMP JUMPDEST POP EQ DUP1 PUSH2 0x321 JUMPI JUMPDEST PUSH2 0x1F4 JUMPI STOP JUMPDEST PUSH1 0x1 PUSH1 0x1 PUSH1 0xA0 SHL SUB SWAP2 DUP3 AND PUSH1 0x0 DUP2 DUP2 MSTORE PUSH1 0x7 PUSH1 0x20 MSTORE PUSH1 0x40 DUP2 KECCAK256 DUP1 SLOAD PUSH1 0xFF NOT AND SWAP1 SSTORE SWAP1 SWAP3 SWAP1 DUP3 JUMPDEST PUSH2 0x233 JUMPI JUMPDEST POP POP POP PUSH1 0x0 SWAP1 DUP2 MSTORE PUSH1 0x3 PUSH1 0x20 MSTORE PUSH1 0x40 DUP2 KECCAK256 SSTORE STOP JUMPDEST PUSH1 0x6 DUP1 SLOAD DUP1 DUP4 LT ISZERO PUSH2 0x31A JUMPI DUP4 SWAP1 DUP7 PUSH2 0x24B DUP6 PUSH2 0x18E6 JUMP JUMPDEST SWAP4 SWAP1 SLOAD PUSH1 0x3 SWAP5 DUP6 SHL SHR AND EQ PUSH2 0x26C JUMPI POP POP POP PUSH2 0x266 SWAP1 PUSH2 0x1C8D JUMP JUMPDEST DUP3 PUSH2 0x21A JUMP JUMPDEST SWAP1 SWAP3 SWAP2 SWAP5 POP PUSH1 0x0 NOT SWAP4 DUP5 DUP3 ADD SWAP2 DUP3 GT PUSH2 0x304 JUMPI PUSH2 0x2BA SWAP4 PUSH2 0x28F PUSH2 0x29B SWAP4 PUSH2 0x18E6 JUMP JUMPDEST SWAP1 SLOAD SWAP2 SHL SHR AND SWAP2 PUSH2 0x18E6 JUMP JUMPDEST SWAP1 SWAP2 SWAP1 DUP3 SLOAD SWAP1 PUSH1 0x3 SHL SWAP2 PUSH1 0x1 DUP1 PUSH1 0xA0 SHL SUB DUP1 SWAP2 AND DUP4 SHL SWAP3 SHL NOT AND OR SWAP1 SSTORE JUMP JUMPDEST DUP2 SLOAD DUP1 ISZERO PUSH2 0x2EE JUMPI ADD SWAP1 PUSH2 0x2E5 PUSH2 0x2D0 DUP4 PUSH2 0x18E6 JUMP JUMPDEST DUP2 SLOAD SWAP1 PUSH1 0x1 DUP1 PUSH1 0xA0 SHL SUB SWAP1 PUSH1 0x3 SHL SHL NOT AND SWAP1 SSTORE JUMP JUMPDEST SSTORE DUP2 DUP1 DUP1 PUSH2 0x21F JUMP JUMPDEST PUSH4 0x4E487B71 PUSH1 0xE0 SHL PUSH1 0x0 MSTORE PUSH1 0x31 PUSH1 0x4 MSTORE PUSH1 0x24 PUSH1 0x0 REVERT JUMPDEST PUSH4 0x4E487B71 PUSH1 0xE0 SHL PUSH1 0x0 MSTORE PUSH1 0x11 PUSH1 0x4 MSTORE PUSH1 0x24 PUSH1 0x0 REVERT JUMPDEST POP POP PUSH2 0x21F JUMP JUMPDEST POP PUSH1 0x1 PUSH1 0x1 PUSH1 0xA0 SHL SUB DUP3 AND PUSH1 0x0 SWAP1 DUP2 MSTORE PUSH1 0x7 PUSH1 0x20 MSTORE PUSH1 0x40 SWAP1 KECCAK256 SLOAD PUSH1 0xFF AND PUSH2 0x1EE JUMP JUMPDEST CALLVALUE PUSH2 0x18F JUMPI PUSH1 0x0 CALLDATASIZE PUSH1 0x3 NOT ADD SLT PUSH2 0x18F JUMPI PUSH1 0x1 DUP1 SLOAD PUSH1 0x1 PUSH1 0x1 PUSH1 0x40 SHL SUB DUP2 GT PUSH2 0x41F JUMPI SWAP1 PUSH1 0x40 MLOAD SWAP1 PUSH1 0x20 PUSH2 0x37C DUP2 DUP6 PUSH1 0x5 SHL ADD DUP5 PUSH2 0x17A4 JUMP JUMPDEST DUP4 DUP4 MSTORE DUP1 DUP4 ADD SWAP4 DUP5 DUP4 PUSH1 0x0 MSTORE DUP3 PUSH1 0x0 KECCAK256 PUSH1 0x0 SWAP2 JUMPDEST DUP4 DUP4 LT PUSH2 0x3F8 JUMPI POP POP POP POP PUSH1 0x40 MLOAD SWAP3 DUP2 DUP5 ADD SWAP1 DUP3 DUP6 MSTORE MLOAD DUP1 SWAP2 MSTORE PUSH1 0x40 DUP5 ADD SWAP2 PUSH1 0x40 DUP3 PUSH1 0x5 SHL DUP7 ADD ADD SWAP6 SWAP3 PUSH1 0x0 SWAP1 JUMPDEST DUP4 DUP3 LT PUSH2 0x3CB JUMPI DUP7 DUP9 SUB DUP8 RETURN JUMPDEST SWAP1 SWAP2 SWAP3 SWAP4 SWAP5 DUP4 DUP1 PUSH2 0x3E7 DUP4 SWAP11 PUSH1 0x3F NOT DUP12 DUP3 SUB ADD DUP7 MSTORE DUP10 MLOAD PUSH2 0x1901 JUMP JUMPDEST SWAP10 SWAP8 ADD SWAP6 SWAP5 SWAP4 SWAP2 SWAP1 SWAP2 ADD SWAP2 ADD PUSH2 0x3BE JUMP JUMPDEST SWAP5 PUSH1 0xD DUP6 DUP3 SWAP10 SWAP8 PUSH2 0x40B DUP6 SWAP11 SWAP9 SWAP11 PUSH2 0x1E6E JUMP JUMPDEST DUP2 MSTORE ADD SWAP3 ADD SWAP3 ADD SWAP2 SWAP1 SWAP7 SWAP5 SWAP7 SWAP6 SWAP4 SWAP6 PUSH2 0x390 JUMP JUMPDEST PUSH4 0x4E487B71 PUSH1 0xE0 SHL PUSH1 0x0 MSTORE PUSH1 0x41 PUSH1 0x4 MSTORE PUSH1 0x24 PUSH1 0x0 REVERT JUMPDEST CALLVALUE PUSH2 0x18F JUMPI PUSH1 0x3 NOT PUSH1 0x40 CALLDATASIZE DUP3 ADD SLT PUSH2 0x18F JUMPI PUSH1 0x1 PUSH1 0x1 PUSH1 0x40 SHL SUB PUSH1 0x4 CALLDATALOAD GT PUSH2 0x18F JUMPI PUSH2 0x120 PUSH1 0x4 CALLDATALOAD PUSH1 0x4 ADD SWAP2 PUSH1 0x4 CALLDATALOAD CALLDATASIZE SUB ADD SLT PUSH2 0x18F JUMPI PUSH2 0x474 PUSH2 0x18D0 JUMP JUMPDEST SWAP1 PUSH2 0x47D PUSH2 0x1B33 JUMP JUMPDEST PUSH2 0x487 DUP2 DUP1 PUSH2 0x1DD2 JUMP JUMPDEST SWAP2 SWAP1 PUSH2 0x498 PUSH1 0x24 PUSH1 0x4 CALLDATALOAD ADD DUP4 PUSH2 0x1DD2 JUMP JUMPDEST SWAP1 SWAP3 SWAP1 SWAP2 SWAP1 PUSH1 0x4 CALLDATALOAD PUSH1 0x64 ADD CALLDATALOAD SWAP1 PUSH1 0x1 PUSH1 0x1 PUSH1 0xA0 SHL SUB DUP3 AND DUP3 SUB PUSH2 0x18F JUMPI PUSH1 0x84 PUSH1 0x4 CALLDATALOAD ADD CALLDATALOAD SWAP1 DUP2 ISZERO ISZERO DUP3 SUB PUSH2 0x18F JUMPI PUSH2 0x4D6 SWAP1 PUSH1 0xA4 PUSH1 0x4 CALLDATALOAD ADD SWAP1 PUSH2 0x1DD2 JUMP JUMPDEST PUSH1 0x4 CALLDATALOAD PUSH2 0x104 ADD CALLDATALOAD SWAP7 SWAP2 SWAP5 SWAP1 SWAP4 SWAP2 PUSH1 0x1 PUSH1 0x1 PUSH1 0xA0 SHL SUB DUP9 AND DUP9 SUB PUSH2 0x18F JUMPI PUSH2 0x577 SWAP7 PUSH2 0x513 PUSH2 0x51C SWAP4 PUSH1 0x40 MLOAD SWAP12 PUSH2 0x50C DUP14 PUSH2 0x1788 JUMP JUMPDEST CALLDATASIZE SWAP2 PUSH2 0x1E04 JUMP JUMPDEST DUP11 MSTORE CALLDATASIZE SWAP2 PUSH2 0x1E04 JUMP JUMPDEST PUSH1 0x20 DUP9 ADD MSTORE PUSH1 0x4 CALLDATALOAD PUSH1 0x44 ADD CALLDATALOAD PUSH1 0x40 DUP9 ADD MSTORE PUSH1 0x1 PUSH1 0x1 PUSH1 0xA0 SHL SUB SWAP1 DUP2 AND PUSH1 0x60 DUP9 ADD MSTORE PUSH1 0x0 PUSH1 0x80 DUP9 ADD DUP2 SWAP1 MSTORE PUSH1 0xA0 DUP9 ADD DUP2 SWAP1 MSTORE PUSH1 0xC0 DUP9 ADD DUP2 SWAP1 MSTORE PUSH1 0xE0 DUP9 ADD MSTORE TIMESTAMP PUSH2 0x100 DUP9 ADD MSTORE DUP8 AND PUSH2 0x120 DUP8 ADD MSTORE ISZERO ISZERO PUSH2 0x140 DUP7 ADD MSTORE CALLDATASIZE SWAP2 PUSH2 0x1E04 JUMP JUMPDEST PUSH2 0x160 DUP4 ADD MSTORE PUSH1 0x4 CALLDATALOAD PUSH1 0xC4 DUP2 ADD CALLDATALOAD PUSH2 0x180 DUP5 ADD MSTORE PUSH1 0xE4 ADD CALLDATALOAD PUSH2 0x1A0 DUP4 ADD MSTORE PUSH1 0x1 PUSH1 0x1 PUSH1 0xA0 SHL SUB AND PUSH2 0x1C0 DUP3 ADD MSTORE PUSH1 0x1 SLOAD PUSH1 0x1 PUSH1 0x40 SHL DUP2 LT ISZERO PUSH2 0x41F JUMPI DUP1 PUSH1 0x1 PUSH2 0x5C3 SWAP3 ADD PUSH1 0x1 SSTORE PUSH2 0x1719 JUMP JUMPDEST PUSH2 0xA71 JUMPI DUP2 MLOAD DUP1 MLOAD SWAP1 SWAP4 SWAP1 PUSH1 0x1 PUSH1 0x1 PUSH1 0x40 SHL SUB DUP2 GT PUSH2 0x41F JUMPI PUSH2 0x5E6 DUP4 SLOAD PUSH2 0x174E JUMP JUMPDEST PUSH1 0x1F DUP2 GT PUSH2 0xA2D JUMPI JUMPDEST POP PUSH1 0x20 PUSH1 0x1F DUP3 GT PUSH1 0x1 EQ PUSH2 0x9C4 JUMPI DUP2 SWAP3 SWAP4 SWAP5 SWAP6 PUSH1 0x0 SWAP3 PUSH2 0x9B9 JUMPI JUMPDEST POP POP DUP2 PUSH1 0x1 SHL SWAP2 PUSH1 0x0 NOT SWAP1 PUSH1 0x3 SHL SHR NOT AND OR DUP3 SSTORE JUMPDEST PUSH1 0x20 DUP4 ADD MLOAD DUP1 MLOAD SWAP1 SWAP4 SWAP1 PUSH1 0x1 PUSH1 0x1 PUSH1 0x40 SHL SUB DUP2 GT PUSH2 0x41F JUMPI PUSH2 0x644 PUSH1 0x1 DUP6 ADD SLOAD PUSH2 0x174E JUMP JUMPDEST PUSH1 0x1F DUP2 GT PUSH2 0x972 JUMPI JUMPDEST POP PUSH1 0x20 PUSH1 0x1F DUP3 GT PUSH1 0x1 EQ PUSH2 0x903 JUMPI DUP2 SWAP3 SWAP4 SWAP5 SWAP6 PUSH1 0x0 SWAP3 PUSH2 0x8F8 JUMPI JUMPDEST POP POP DUP2 PUSH1 0x1 SHL SWAP2 PUSH1 0x0 NOT SWAP1 PUSH1 0x3 SHL SHR NOT AND OR PUSH1 0x1 DUP5 ADD SSTORE JUMPDEST PUSH1 0x40 DUP2 ADD MLOAD PUSH1 0x2 DUP5 ADD SSTORE PUSH1 0x60 DUP2 ADD MLOAD PUSH1 0x3 DUP5 ADD DUP1 SLOAD PUSH1 0x1 PUSH1 0x1 PUSH1 0xA0 SHL SUB NOT AND PUSH1 0x1 PUSH1 0x1 PUSH1 0xA0 SHL SUB SWAP3 SWAP1 SWAP3 AND SWAP2 SWAP1 SWAP2 OR SWAP1 SSTORE PUSH1 0x80 DUP2 ADD MLOAD PUSH1 0x4 DUP2 LT ISZERO PUSH2 0x8E2 JUMPI PUSH2 0x6CC SWAP1 PUSH1 0x3 DUP6 ADD PUSH2 0x1E4A JUMP JUMPDEST PUSH1 0xA0 DUP2 DUP2 ADD MLOAD PUSH1 0x4 DUP6 ADD SSTORE PUSH1 0xC0 DUP3 ADD MLOAD PUSH1 0x5 DUP6 ADD SSTORE PUSH1 0xE0 DUP3 ADD MLOAD PUSH1 0x6 DUP6 ADD SSTORE PUSH2 0x100 DUP3 ADD MLOAD PUSH1 0x7 DUP6 ADD SSTORE PUSH2 0x120 DUP3 ADD MLOAD PUSH1 0x8 DUP6 ADD DUP1 SLOAD PUSH2 0x140 DUP6 ADD MLOAD PUSH1 0x1 PUSH1 0x1 PUSH1 0xA8 SHL SUB NOT SWAP1 SWAP2 AND PUSH1 0x1 PUSH1 0x1 PUSH1 0xA0 SHL SUB SWAP4 SWAP1 SWAP4 AND SWAP3 SWAP1 SWAP3 OR SWAP2 ISZERO ISZERO SWAP1 SWAP3 SHL PUSH1 0xFF PUSH1 0xA0 SHL AND OR SWAP1 SSTORE PUSH2 0x160 DUP2 ADD MLOAD DUP1 MLOAD SWAP1 SWAP4 SWAP1 PUSH1 0x1 PUSH1 0x1 PUSH1 0x40 SHL SUB DUP2 GT PUSH2 0x41F JUMPI PUSH2 0x759 PUSH1 0x9 DUP4 ADD SLOAD PUSH2 0x174E JUMP JUMPDEST PUSH1 0x1F DUP2 GT PUSH2 0x89B JUMPI JUMPDEST POP PUSH1 0x20 PUSH1 0x1F DUP3 GT PUSH1 0x1 EQ PUSH2 0x82A JUMPI DUP2 SWAP1 PUSH1 0xC SWAP5 SWAP6 SWAP7 PUSH1 0x0 SWAP3 PUSH2 0x81F JUMPI JUMPDEST POP POP DUP2 PUSH1 0x1 SHL SWAP2 PUSH1 0x0 NOT SWAP1 PUSH1 0x3 SHL SHR NOT AND OR PUSH1 0x9 DUP3 ADD SSTORE JUMPDEST PUSH2 0x180 DUP4 ADD MLOAD PUSH1 0xA DUP3 ADD SSTORE PUSH2 0x1A0 DUP4 ADD MLOAD PUSH1 0xB DUP3 ADD SSTORE PUSH2 0x1C0 SWAP1 SWAP3 ADD MLOAD SWAP2 ADD DUP1 SLOAD PUSH1 0x1 PUSH1 0x1 PUSH1 0xA0 SHL SUB NOT AND PUSH1 0x1 PUSH1 0x1 PUSH1 0xA0 SHL SUB SWAP3 SWAP1 SWAP3 AND SWAP2 SWAP1 SWAP2 OR SWAP1 SSTORE PUSH1 0x1 SLOAD PUSH1 0x0 NOT DUP2 ADD SWAP2 SWAP1 DUP3 GT PUSH2 0x304 JUMPI PUSH1 0x40 MLOAD PUSH1 0x20 SWAP3 SWAP1 SWAP2 PUSH1 0x1 PUSH1 0x1 PUSH1 0xA0 SHL SUB AND DUP2 PUSH32 0xCD423CC1203C0AF96B9B3D68D73B3064A69DE2D14450BB7181C5E5DF2132B358 PUSH1 0x0 DUP1 LOG3 DUP2 MSTORE RETURN JUMPDEST ADD MLOAD SWAP1 POP DUP7 DUP1 PUSH2 0x77F JUMP JUMPDEST PUSH1 0x1F NOT DUP3 AND SWAP6 PUSH1 0x9 DUP5 ADD PUSH1 0x0 MSTORE PUSH1 0x20 PUSH1 0x0 KECCAK256 SWAP7 PUSH1 0x0 JUMPDEST DUP2 DUP2 LT PUSH2 0x883 JUMPI POP SWAP2 PUSH1 0xC SWAP6 SWAP7 SWAP8 SWAP2 DUP5 PUSH1 0x1 SWAP6 SWAP5 LT PUSH2 0x86A JUMPI JUMPDEST POP POP POP DUP2 SHL ADD PUSH1 0x9 DUP3 ADD SSTORE PUSH2 0x797 JUMP JUMPDEST ADD MLOAD PUSH1 0x0 NOT PUSH1 0xF8 DUP5 PUSH1 0x3 SHL AND SHR NOT AND SWAP1 SSTORE DUP7 DUP1 DUP1 PUSH2 0x85A JUMP JUMPDEST DUP4 DUP4 ADD MLOAD DUP10 SSTORE PUSH1 0x1 SWAP1 SWAP9 ADD SWAP8 PUSH1 0x20 SWAP4 DUP5 ADD SWAP4 ADD PUSH2 0x840 JUMP JUMPDEST PUSH1 0x9 DUP4 ADD PUSH1 0x0 MSTORE PUSH1 0x20 PUSH1 0x0 KECCAK256 PUSH1 0x1F DUP4 ADD PUSH1 0x5 SHR DUP2 ADD PUSH1 0x20 DUP5 LT PUSH2 0x8DB JUMPI JUMPDEST PUSH1 0x1F DUP4 ADD PUSH1 0x5 SHR DUP3 ADD DUP2 LT PUSH2 0x8CF JUMPI POP POP PUSH2 0x762 JUMP JUMPDEST PUSH1 0x0 DUP2 SSTORE PUSH1 0x1 ADD PUSH2 0x8B9 JUMP JUMPDEST POP DUP1 PUSH2 0x8B9 JUMP JUMPDEST PUSH4 0x4E487B71 PUSH1 0xE0 SHL PUSH1 0x0 MSTORE PUSH1 0x21 PUSH1 0x4 MSTORE PUSH1 0x24 PUSH1 0x0 REVERT JUMPDEST ADD MLOAD SWAP1 POP DUP6 DUP1 PUSH2 0x668 JUMP JUMPDEST PUSH1 0x1 DUP6 ADD PUSH1 0x0 MSTORE PUSH1 0x20 PUSH1 0x0 KECCAK256 SWAP1 PUSH1 0x0 JUMPDEST PUSH1 0x1F NOT DUP5 AND DUP2 LT PUSH2 0x95A JUMPI POP PUSH1 0x1 SWAP4 SWAP5 SWAP6 SWAP7 DUP4 PUSH1 0x1F NOT DUP2 AND LT PUSH2 0x941 JUMPI JUMPDEST POP POP POP DUP2 SHL ADD PUSH1 0x1 DUP5 ADD SSTORE PUSH2 0x680 JUMP JUMPDEST ADD MLOAD PUSH1 0x0 NOT PUSH1 0xF8 DUP5 PUSH1 0x3 SHL AND SHR NOT AND SWAP1 SSTORE DUP6 DUP1 DUP1 PUSH2 0x931 JUMP JUMPDEST SWAP1 SWAP2 PUSH1 0x20 PUSH1 0x1 DUP2 SWAP3 DUP6 DUP12 ADD MLOAD DUP2 SSTORE ADD SWAP4 ADD SWAP2 ADD PUSH2 0x913 JUMP JUMPDEST PUSH1 0x1 DUP6 ADD PUSH1 0x0 MSTORE PUSH1 0x20 PUSH1 0x0 KECCAK256 PUSH1 0x1F DUP4 ADD PUSH1 0x5 SHR DUP2 ADD PUSH1 0x20 DUP5 LT PUSH2 0x9B2 JUMPI JUMPDEST PUSH1 0x1F DUP4 ADD PUSH1 0x5 SHR DUP3 ADD DUP2 LT PUSH2 0x9A6 JUMPI POP POP PUSH2 0x64D JUMP JUMPDEST PUSH1 0x0 DUP2 SSTORE PUSH1 0x1 ADD PUSH2 0x990 JUMP JUMPDEST POP DUP1 PUSH2 0x990 JUMP JUMPDEST ADD MLOAD SWAP1 POP DUP6 DUP1 PUSH2 0x60A JUMP JUMPDEST DUP4 PUSH1 0x0 MSTORE PUSH1 0x20 PUSH1 0x0 KECCAK256 SWAP1 PUSH1 0x0 JUMPDEST PUSH1 0x1F NOT DUP5 AND DUP2 LT PUSH2 0xA15 JUMPI POP PUSH1 0x1 SWAP4 SWAP5 SWAP6 SWAP7 DUP4 PUSH1 0x1F NOT DUP2 AND LT PUSH2 0x9FC JUMPI JUMPDEST POP POP POP DUP2 SHL ADD DUP3 SSTORE PUSH2 0x61F JUMP JUMPDEST ADD MLOAD PUSH1 0x0 NOT PUSH1 0xF8 DUP5 PUSH1 0x3 SHL AND SHR NOT AND SWAP1 SSTORE DUP6 DUP1 DUP1 PUSH2 0x9EF JUMP JUMPDEST SWAP1 SWAP2 PUSH1 0x20 PUSH1 0x1 DUP2 SWAP3 DUP6 DUP12 ADD MLOAD DUP2 SSTORE ADD SWAP4 ADD SWAP2 ADD PUSH2 0x9D1 JUMP JUMPDEST DUP4 PUSH1 0x0 MSTORE PUSH1 0x20 PUSH1 0x0 KECCAK256 PUSH1 0x1F DUP4 ADD PUSH1 0x5 SHR DUP2 ADD PUSH1 0x20 DUP5 LT PUSH2 0xA6A JUMPI JUMPDEST PUSH1 0x1F DUP4 ADD PUSH1 0x5 SHR DUP3 ADD DUP2 LT PUSH2 0xA5E JUMPI POP POP PUSH2 0x5EF JUMP JUMPDEST PUSH1 0x0 DUP2 SSTORE PUSH1 0x1 ADD PUSH2 0xA48 JUMP JUMPDEST POP DUP1 PUSH2 0xA48 JUMP JUMPDEST PUSH4 0x4E487B71 PUSH1 0xE0 SHL PUSH1 0x0 MSTORE PUSH1 0x0 PUSH1 0x4 MSTORE PUSH1 0x24 PUSH1 0x0 REVERT JUMPDEST CALLVALUE PUSH2 0x18F JUMPI PUSH1 0x40 CALLDATASIZE PUSH1 0x3 NOT ADD SLT PUSH2 0x18F JUMPI PUSH1 0x4 CALLDATALOAD PUSH1 0x24 CALLDATALOAD PUSH1 0x4 DUP2 LT ISZERO PUSH2 0x18F JUMPI PUSH1 0x20 PUSH32 0x3346ABF262AC5179E9052765FB72484E0BAAB1F356F08442BB7A3054147631DE SWAP2 PUSH2 0xAD3 PUSH2 0x1B33 JUMP JUMPDEST PUSH2 0xAE9 DUP2 PUSH1 0x3 PUSH2 0xAE2 DUP8 PUSH2 0x1719 JUMP JUMPDEST POP ADD PUSH2 0x1E4A JUMP JUMPDEST PUSH2 0xAF6 PUSH1 0x40 MLOAD DUP1 SWAP3 PUSH2 0x18AD JUMP JUMPDEST LOG2 STOP JUMPDEST CALLVALUE PUSH2 0x18F JUMPI PUSH1 0x20 CALLDATASIZE PUSH1 0x3 NOT ADD SLT PUSH2 0x18F JUMPI PUSH1 0x0 PUSH2 0x1C0 PUSH1 0x40 MLOAD PUSH2 0xB1B DUP2 PUSH2 0x1788 JUMP JUMPDEST PUSH1 0x60 DUP2 MSTORE PUSH1 0x60 PUSH1 0x20 DUP3 ADD MSTORE DUP3 PUSH1 0x40 DUP3 ADD MSTORE DUP3 PUSH1 0x60 DUP3 ADD MSTORE DUP3 PUSH1 0x80 DUP3 ADD MSTORE DUP3 PUSH1 0xA0 DUP3 ADD MSTORE DUP3 PUSH1 0xC0 DUP3 ADD MSTORE DUP3 PUSH1 0xE0 DUP3 ADD MSTORE DUP3 PUSH2 0x100 DUP3 ADD MSTORE DUP3 PUSH2 0x120 DUP3 ADD MSTORE DUP3 PUSH2 0x140 DUP3 ADD MSTORE PUSH1 0x60 PUSH2 0x160 DUP3 ADD MSTORE DUP3 PUSH2 0x180 DUP3 ADD MSTORE DUP3 PUSH2 0x1A0 DUP3 ADD MSTORE ADD MSTORE PUSH2 0xBA2 PUSH2 0xB8E PUSH2 0xB88 PUSH1 0x4 CALLDATALOAD PUSH2 0x1719 JUMP JUMPDEST POP PUSH2 0x1E6E JUMP JUMPDEST PUSH1 0x40 MLOAD SWAP2 DUP3 SWAP2 PUSH1 0x20 DUP4 MSTORE PUSH1 0x20 DUP4 ADD SWAP1 PUSH2 0x1901 JUMP JUMPDEST SUB SWAP1 RETURN JUMPDEST CALLVALUE PUSH2 0x18F JUMPI PUSH1 0x20 DUP1 PUSH1 0x3 NOT CALLDATASIZE ADD SLT PUSH2 0x18F JUMPI PUSH2 0xBC0 PUSH2 0x18BA JUMP JUMPDEST SWAP1 PUSH2 0xBC9 PUSH2 0x1B33 JUMP JUMPDEST PUSH1 0x1 PUSH1 0x1 PUSH1 0xA0 SHL SUB DUP3 DUP2 AND PUSH1 0x0 DUP2 DUP2 MSTORE PUSH1 0x3 DUP5 MSTORE PUSH1 0x40 SWAP1 KECCAK256 DUP1 SLOAD PUSH1 0x1 DUP2 ADD SWAP2 SWAP1 DUP3 LT PUSH2 0x304 JUMPI SSTORE PUSH1 0x0 MSTORE PUSH1 0x3 DUP3 MSTORE PUSH1 0x4 DUP3 PUSH1 0x40 PUSH1 0x0 KECCAK256 SLOAD SWAP3 PUSH1 0x5 SLOAD AND PUSH1 0x40 MLOAD SWAP3 DUP4 DUP1 SWAP3 PUSH4 0x9F1F43AF PUSH1 0xE0 SHL DUP3 MSTORE GAS STATICCALL SWAP3 DUP4 ISZERO PUSH2 0xC6C JUMPI PUSH1 0x0 SWAP4 PUSH2 0xC3C JUMPI JUMPDEST POP POP LT ISZERO PUSH2 0xC31 JUMPI STOP JUMPDEST PUSH2 0xC3A SWAP1 PUSH2 0x1C9C JUMP JUMPDEST STOP JUMPDEST SWAP1 DUP1 SWAP3 SWAP4 POP DUP2 RETURNDATASIZE DUP4 GT PUSH2 0xC65 JUMPI JUMPDEST PUSH2 0xC54 DUP2 DUP4 PUSH2 0x17A4 JUMP JUMPDEST DUP2 ADD SUB SLT PUSH2 0x18F JUMPI MLOAD SWAP1 DUP4 DUP1 PUSH2 0xC27 JUMP JUMPDEST POP RETURNDATASIZE PUSH2 0xC4A JUMP JUMPDEST PUSH1 0x40 MLOAD RETURNDATASIZE PUSH1 0x0 DUP3 RETURNDATACOPY RETURNDATASIZE SWAP1 REVERT JUMPDEST CALLVALUE PUSH2 0x18F JUMPI PUSH1 0x20 CALLDATASIZE PUSH1 0x3 NOT ADD SLT PUSH2 0x18F JUMPI PUSH1 0x1 PUSH1 0x1 PUSH1 0xA0 SHL SUB PUSH2 0xC99 PUSH2 0x18BA JUMP JUMPDEST AND PUSH1 0x0 MSTORE PUSH1 0x3 PUSH1 0x20 MSTORE PUSH1 0x20 PUSH1 0x40 PUSH1 0x0 KECCAK256 SLOAD PUSH1 0x40 MLOAD SWAP1 DUP2 MSTORE RETURN JUMPDEST CALLVALUE PUSH2 0x18F JUMPI PUSH1 0x40 CALLDATASIZE PUSH1 0x3 NOT ADD SLT PUSH2 0x18F JUMPI PUSH1 0x4 CALLDATALOAD PUSH2 0xCCE PUSH2 0x18D0 JUMP JUMPDEST SWAP1 PUSH2 0xCD7 PUSH2 0x1B33 JUMP JUMPDEST PUSH2 0xCE0 DUP2 PUSH2 0x1719 JUMP JUMPDEST POP DUP2 PUSH1 0x0 MSTORE PUSH1 0x2 PUSH1 0x20 MSTORE PUSH1 0x40 PUSH1 0x0 KECCAK256 SWAP3 PUSH1 0x1 DUP1 PUSH1 0xA0 SHL SUB AND SWAP3 DUP4 PUSH1 0x0 MSTORE PUSH1 0x20 MSTORE PUSH1 0xFF PUSH1 0x40 PUSH1 0x0 KECCAK256 SLOAD AND ISZERO PUSH2 0xD10 JUMPI STOP JUMPDEST PUSH1 0x6 SWAP1 DUP3 PUSH1 0x0 MSTORE PUSH1 0x2 PUSH1 0x20 MSTORE PUSH1 0x40 PUSH1 0x0 KECCAK256 DUP5 PUSH1 0x0 MSTORE PUSH1 0x20 MSTORE PUSH1 0x40 PUSH1 0x0 KECCAK256 PUSH1 0x1 PUSH1 0xFF NOT DUP3 SLOAD AND OR SWAP1 SSTORE ADD PUSH2 0xD43 DUP2 SLOAD PUSH2 0x1C8D JUMP JUMPDEST SWAP1 SSTORE PUSH1 0x0 DUP1 MLOAD PUSH1 0x20 PUSH2 0x200A DUP4 CODECOPY DUP2 MLOAD SWAP2 MSTORE PUSH1 0x20 PUSH1 0x40 MLOAD PUSH1 0x2 DUP2 MSTORE LOG3 STOP JUMPDEST CALLVALUE PUSH2 0x18F JUMPI PUSH1 0x20 CALLDATASIZE PUSH1 0x3 NOT ADD SLT PUSH2 0x18F JUMPI PUSH1 0x1 PUSH1 0x1 PUSH1 0xA0 SHL SUB PUSH2 0xD81 PUSH2 0x18BA JUMP JUMPDEST AND PUSH1 0x0 MSTORE PUSH1 0x7 PUSH1 0x20 MSTORE PUSH1 0x20 PUSH1 0xFF PUSH1 0x40 PUSH1 0x0 KECCAK256 SLOAD AND PUSH1 0x40 MLOAD SWAP1 ISZERO ISZERO DUP2 MSTORE RETURN JUMPDEST CALLVALUE PUSH2 0x18F JUMPI PUSH1 0x0 CALLDATASIZE PUSH1 0x3 NOT ADD SLT PUSH2 0x18F JUMPI PUSH1 0x20 PUSH1 0x40 MLOAD PUSH1 0x0 DUP2 MSTORE RETURN JUMPDEST CALLVALUE PUSH2 0x18F JUMPI PUSH1 0x0 CALLDATASIZE PUSH1 0x3 NOT ADD SLT PUSH2 0x18F JUMPI PUSH1 0x20 PUSH1 0x40 MLOAD PUSH1 0x0 DUP1 MLOAD PUSH1 0x20 PUSH2 0x1FEA DUP4 CODECOPY DUP2 MLOAD SWAP2 MSTORE DUP2 MSTORE RETURN JUMPDEST CALLVALUE PUSH2 0x18F JUMPI PUSH1 0x20 CALLDATASIZE PUSH1 0x3 NOT ADD SLT PUSH2 0x18F JUMPI PUSH2 0xDFD PUSH2 0x18BA JUMP JUMPDEST CALLER PUSH1 0x0 SWAP1 DUP2 MSTORE PUSH1 0x0 DUP1 MLOAD PUSH1 0x20 PUSH2 0x202A DUP4 CODECOPY DUP2 MLOAD SWAP2 MSTORE PUSH1 0x20 MSTORE PUSH1 0x40 SWAP1 KECCAK256 SLOAD PUSH1 0xFF AND ISZERO PUSH2 0xE46 JUMPI PUSH1 0x5 DUP1 SLOAD PUSH1 0x1 PUSH1 0x1 PUSH1 0xA0 SHL SUB NOT AND PUSH1 0x1 PUSH1 0x1 PUSH1 0xA0 SHL SUB DUP4 AND OR SWAP1 SSTORE PUSH2 0xC3A SWAP1 PUSH2 0x1BAF JUMP JUMPDEST PUSH1 0x40 MLOAD PUSH4 0xE2517D3F PUSH1 0xE0 SHL DUP2 MSTORE CALLER PUSH1 0x4 DUP3 ADD MSTORE PUSH1 0x0 PUSH1 0x24 DUP3 ADD MSTORE PUSH1 0x44 SWAP1 REVERT JUMPDEST CALLVALUE PUSH2 0x18F JUMPI PUSH1 0x0 CALLDATASIZE PUSH1 0x3 NOT ADD SLT PUSH2 0x18F JUMPI PUSH1 0x20 PUSH1 0x6 SLOAD PUSH1 0x40 MLOAD SWAP1 DUP2 MSTORE RETURN JUMPDEST CALLVALUE PUSH2 0x18F JUMPI PUSH1 0x0 CALLDATASIZE PUSH1 0x3 NOT ADD SLT PUSH2 0x18F JUMPI CALLER PUSH1 0x0 SWAP1 DUP2 MSTORE PUSH1 0x0 DUP1 MLOAD PUSH1 0x20 PUSH2 0x202A DUP4 CODECOPY DUP2 MLOAD SWAP2 MSTORE PUSH1 0x20 MSTORE PUSH1 0x40 SWAP1 KECCAK256 SLOAD PUSH1 0xFF AND ISZERO PUSH2 0xEC2 JUMPI PUSH2 0xC3A CALLER PUSH2 0x19DA JUMP JUMPDEST PUSH1 0x40 MLOAD PUSH3 0x461BCD PUSH1 0xE5 SHL DUP2 MSTORE PUSH1 0x20 PUSH1 0x4 DUP3 ADD MSTORE PUSH1 0x16 PUSH1 0x24 DUP3 ADD MSTORE PUSH22 0x21B0B63632B91034B9903737BA1030B71030B236B4B7 PUSH1 0x51 SHL PUSH1 0x44 DUP3 ADD MSTORE PUSH1 0x64 SWAP1 REVERT JUMPDEST CALLVALUE PUSH2 0x18F JUMPI PUSH1 0x40 CALLDATASIZE PUSH1 0x3 NOT ADD SLT PUSH2 0x18F JUMPI PUSH2 0xF19 PUSH2 0x18D0 JUMP JUMPDEST PUSH1 0x4 CALLDATALOAD PUSH1 0x0 MSTORE PUSH1 0x0 PUSH1 0x20 MSTORE PUSH1 0x40 PUSH1 0x0 KECCAK256 SWAP1 PUSH1 0x1 DUP1 PUSH1 0xA0 SHL SUB AND PUSH1 0x0 MSTORE PUSH1 0x20 MSTORE PUSH1 0x20 PUSH1 0xFF PUSH1 0x40 PUSH1 0x0 KECCAK256 SLOAD AND PUSH1 0x40 MLOAD SWAP1 ISZERO ISZERO DUP2 MSTORE RETURN JUMPDEST CALLVALUE PUSH2 0x18F JUMPI PUSH1 0x0 CALLDATASIZE PUSH1 0x3 NOT ADD SLT PUSH2 0x18F JUMPI PUSH1 0x40 MLOAD DUP1 PUSH1 0x6 SLOAD DUP1 DUP4 MSTORE PUSH1 0x20 DUP1 SWAP4 ADD DUP1 SWAP2 PUSH1 0x6 PUSH1 0x0 MSTORE DUP5 PUSH1 0x0 KECCAK256 SWAP1 PUSH1 0x0 JUMPDEST DUP7 DUP3 DUP3 LT PUSH2 0xFDB JUMPI DUP7 DUP7 PUSH2 0xF92 DUP3 DUP9 SUB DUP4 PUSH2 0x17A4 JUMP JUMPDEST PUSH1 0x40 MLOAD SWAP3 DUP4 SWAP3 DUP2 DUP5 ADD SWAP1 DUP3 DUP6 MSTORE MLOAD DUP1 SWAP2 MSTORE PUSH1 0x40 DUP5 ADD SWAP3 SWAP2 PUSH1 0x0 JUMPDEST DUP3 DUP2 LT PUSH2 0xFBB JUMPI POP POP POP POP SUB SWAP1 RETURN JUMPDEST DUP4 MLOAD PUSH1 0x1 PUSH1 0x1 PUSH1 0xA0 SHL SUB AND DUP6 MSTORE DUP7 SWAP6 POP SWAP4 DUP2 ADD SWAP4 SWAP3 DUP2 ADD SWAP3 PUSH1 0x1 ADD PUSH2 0xFAC JUMP JUMPDEST DUP4 SLOAD PUSH1 0x1 PUSH1 0x1 PUSH1 0xA0 SHL SUB AND DUP6 MSTORE SWAP1 SWAP4 ADD SWAP3 PUSH1 0x1 SWAP3 DUP4 ADD SWAP3 ADD PUSH2 0xF7C JUMP JUMPDEST CALLVALUE PUSH2 0x18F JUMPI PUSH1 0x40 CALLDATASIZE PUSH1 0x3 NOT ADD SLT PUSH2 0x18F JUMPI PUSH2 0x1011 PUSH2 0x18D0 JUMP JUMPDEST PUSH1 0x4 CALLDATALOAD PUSH1 0x0 MSTORE PUSH1 0x2 PUSH1 0x20 MSTORE PUSH1 0x40 PUSH1 0x0 KECCAK256 SWAP1 PUSH1 0x1 DUP1 PUSH1 0xA0 SHL SUB AND PUSH1 0x0 MSTORE PUSH1 0x20 MSTORE PUSH1 0x20 PUSH1 0xFF PUSH1 0x40 PUSH1 0x0 KECCAK256 SLOAD AND PUSH1 0x40 MLOAD SWAP1 ISZERO ISZERO DUP2 MSTORE RETURN JUMPDEST CALLVALUE PUSH2 0x18F JUMPI PUSH1 0x20 CALLDATASIZE PUSH1 0x3 NOT ADD SLT PUSH2 0x18F JUMPI PUSH1 0x4 CALLDATALOAD PUSH1 0x6 SLOAD DUP2 LT ISZERO PUSH2 0x18F JUMPI PUSH2 0x106E PUSH1 0x20 SWAP2 PUSH2 0x18E6 JUMP JUMPDEST SWAP1 SLOAD PUSH1 0x40 MLOAD PUSH1 0x3 SWAP3 SWAP1 SWAP3 SHL SHR PUSH1 0x1 PUSH1 0x1 PUSH1 0xA0 SHL SUB AND DUP2 MSTORE RETURN JUMPDEST CALLVALUE PUSH2 0x18F JUMPI PUSH1 0x40 CALLDATASIZE PUSH1 0x3 NOT ADD SLT PUSH2 0x18F JUMPI PUSH2 0x10A0 PUSH2 0x18BA JUMP JUMPDEST PUSH2 0x10A8 PUSH2 0x1B33 JUMP JUMPDEST PUSH1 0x1 PUSH1 0x1 PUSH1 0xA0 SHL SUB AND PUSH1 0x0 DUP2 DUP2 MSTORE PUSH1 0x4 PUSH1 0x20 MSTORE PUSH1 0x40 SWAP1 KECCAK256 SLOAD PUSH1 0x24 CALLDATALOAD DUP2 ADD SWAP1 DUP2 LT PUSH2 0x304 JUMPI PUSH1 0x20 PUSH1 0x0 DUP1 MLOAD PUSH1 0x20 PUSH2 0x1FAA DUP4 CODECOPY DUP2 MLOAD SWAP2 MSTORE SWAP2 PUSH1 0x64 DUP2 GT PUSH1 0x0 EQ PUSH2 0x1103 JUMPI PUSH1 0x64 JUMPDEST DUP5 PUSH1 0x0 MSTORE PUSH1 0x4 DUP4 MSTORE PUSH1 0x40 PUSH1 0x0 KECCAK256 SSTORE PUSH1 0x40 MLOAD SWAP1 DUP2 MSTORE LOG2 STOP JUMPDEST DUP1 PUSH2 0x10EC JUMP JUMPDEST CALLVALUE PUSH2 0x18F JUMPI PUSH1 0x40 CALLDATASIZE PUSH1 0x3 NOT ADD SLT PUSH2 0x18F JUMPI PUSH2 0x1122 PUSH2 0x18D0 JUMP JUMPDEST CALLER PUSH1 0x1 PUSH1 0x1 PUSH1 0xA0 SHL SUB DUP3 AND SUB PUSH2 0x113E JUMPI PUSH2 0xC3A SWAP1 PUSH1 0x4 CALLDATALOAD PUSH2 0x1AD0 JUMP JUMPDEST PUSH1 0x40 MLOAD PUSH4 0x334BD919 PUSH1 0xE1 SHL DUP2 MSTORE PUSH1 0x4 SWAP1 REVERT JUMPDEST CALLVALUE PUSH2 0x18F JUMPI PUSH1 0x40 CALLDATASIZE PUSH1 0x3 NOT ADD SLT PUSH2 0x18F JUMPI PUSH1 0x4 CALLDATALOAD PUSH1 0x0 DUP1 MLOAD PUSH1 0x20 PUSH2 0x1FEA DUP4 CODECOPY DUP2 MLOAD SWAP2 MSTORE PUSH2 0x117B PUSH2 0x18D0 JUMP JUMPDEST SWAP2 DUP1 PUSH1 0x0 MSTORE PUSH1 0x0 PUSH1 0x20 MSTORE PUSH2 0x1196 PUSH1 0x1 PUSH1 0x40 PUSH1 0x0 KECCAK256 ADD SLOAD PUSH2 0x1B89 JUMP JUMPDEST PUSH2 0x11A0 DUP4 DUP3 PUSH2 0x1C26 JUMP JUMPDEST POP EQ DUP1 PUSH2 0x121A JUMPI JUMPDEST PUSH2 0x11AE JUMPI STOP JUMPDEST PUSH1 0x6 SLOAD PUSH1 0x1 PUSH1 0x40 SHL DUP2 LT ISZERO PUSH2 0x41F JUMPI DUP2 PUSH2 0x29B DUP3 PUSH1 0x1 PUSH2 0x11D1 SWAP5 ADD PUSH1 0x6 SSTORE PUSH2 0x18E6 JUMP JUMPDEST PUSH1 0x1 DUP1 PUSH1 0xA0 SHL SUB AND DUP1 PUSH1 0x0 MSTORE PUSH1 0x7 PUSH1 0x20 MSTORE PUSH1 0x40 PUSH1 0x0 KECCAK256 PUSH1 0x1 PUSH1 0xFF NOT DUP3 SLOAD AND OR SWAP1 SSTORE PUSH1 0x4 PUSH1 0x20 MSTORE PUSH1 0x32 PUSH1 0x40 PUSH1 0x0 KECCAK256 SSTORE PUSH1 0x0 DUP1 MLOAD PUSH1 0x20 PUSH2 0x1FAA DUP4 CODECOPY DUP2 MLOAD SWAP2 MSTORE PUSH1 0x20 PUSH1 0x40 MLOAD PUSH1 0x32 DUP2 MSTORE LOG2 STOP JUMPDEST POP PUSH1 0x1 PUSH1 0x1 PUSH1 0xA0 SHL SUB DUP2 AND PUSH1 0x0 SWAP1 DUP2 MSTORE PUSH1 0x7 PUSH1 0x20 MSTORE PUSH1 0x40 SWAP1 KECCAK256 SLOAD PUSH1 0xFF AND ISZERO PUSH2 0x11A8 JUMP JUMPDEST CALLVALUE PUSH2 0x18F JUMPI PUSH1 0x40 CALLDATASIZE PUSH1 0x3 NOT ADD SLT PUSH2 0x18F JUMPI PUSH2 0x1256 PUSH2 0x18BA JUMP JUMPDEST PUSH1 0x24 CALLDATALOAD PUSH2 0x1261 PUSH2 0x1B33 JUMP JUMPDEST PUSH1 0x1 PUSH1 0x1 PUSH1 0xA0 SHL SUB DUP3 DUP2 AND PUSH1 0x0 DUP2 DUP2 MSTORE PUSH1 0x4 PUSH1 0x20 SWAP1 DUP2 MSTORE PUSH1 0x40 SWAP1 SWAP2 KECCAK256 SLOAD SWAP1 SWAP4 SWAP2 SWAP3 SWAP2 DUP5 DUP2 DUP4 LT PUSH2 0x1320 JUMPI POP DUP2 SUB SWAP1 DUP2 GT PUSH2 0x304 JUMPI PUSH1 0x4 SWAP2 DUP5 SWAP2 SWAP4 JUMPDEST DUP1 PUSH1 0x0 MSTORE DUP4 DUP4 MSTORE DUP5 PUSH1 0x40 PUSH1 0x0 KECCAK256 SSTORE PUSH1 0x0 DUP1 MLOAD PUSH1 0x20 PUSH2 0x1FAA DUP4 CODECOPY DUP2 MLOAD SWAP2 MSTORE DUP4 PUSH1 0x40 MLOAD DUP8 DUP2 MSTORE LOG2 PUSH1 0x5 SLOAD AND PUSH1 0x40 MLOAD SWAP3 DUP4 DUP1 SWAP3 PUSH4 0x295E4F41 PUSH1 0xE1 SHL DUP3 MSTORE GAS STATICCALL SWAP3 DUP4 ISZERO PUSH2 0xC6C JUMPI PUSH1 0x0 SWAP4 PUSH2 0x12F0 JUMPI JUMPDEST POP POP LT PUSH2 0xC31 JUMPI STOP JUMPDEST SWAP1 DUP1 SWAP3 SWAP4 POP DUP2 RETURNDATASIZE DUP4 GT PUSH2 0x1319 JUMPI JUMPDEST PUSH2 0x1308 DUP2 DUP4 PUSH2 0x17A4 JUMP JUMPDEST DUP2 ADD SUB SLT PUSH2 0x18F JUMPI MLOAD SWAP1 DUP4 DUP1 PUSH2 0x12E7 JUMP JUMPDEST POP RETURNDATASIZE PUSH2 0x12FE JUMP JUMPDEST SWAP2 POP POP PUSH1 0x4 SWAP2 PUSH1 0x0 SWAP4 PUSH2 0x129C JUMP JUMPDEST CALLVALUE PUSH2 0x18F JUMPI PUSH1 0x20 CALLDATASIZE PUSH1 0x3 NOT ADD SLT PUSH2 0x18F JUMPI PUSH1 0x4 CALLDATALOAD PUSH1 0x0 MSTORE PUSH1 0x0 PUSH1 0x20 MSTORE PUSH1 0x20 PUSH1 0x1 PUSH1 0x40 PUSH1 0x0 KECCAK256 ADD SLOAD PUSH1 0x40 MLOAD SWAP1 DUP2 MSTORE RETURN JUMPDEST CALLVALUE PUSH2 0x18F JUMPI PUSH1 0x0 CALLDATASIZE PUSH1 0x3 NOT ADD SLT PUSH2 0x18F JUMPI PUSH1 0x5 SLOAD PUSH1 0x40 MLOAD PUSH1 0x1 PUSH1 0x1 PUSH1 0xA0 SHL SUB SWAP1 SWAP2 AND DUP2 MSTORE PUSH1 0x20 SWAP1 RETURN JUMPDEST CALLVALUE PUSH2 0x18F JUMPI PUSH1 0x20 CALLDATASIZE PUSH1 0x3 NOT ADD SLT PUSH2 0x18F JUMPI PUSH1 0x1 PUSH1 0x1 PUSH1 0xA0 SHL SUB PUSH2 0x13A7 PUSH2 0x18BA JUMP JUMPDEST AND PUSH1 0x0 MSTORE PUSH1 0x4 PUSH1 0x20 MSTORE PUSH1 0x20 PUSH1 0x40 PUSH1 0x0 KECCAK256 SLOAD PUSH1 0x40 MLOAD SWAP1 DUP2 MSTORE RETURN JUMPDEST CALLVALUE PUSH2 0x18F JUMPI PUSH1 0x60 CALLDATASIZE PUSH1 0x3 NOT ADD SLT PUSH2 0x18F JUMPI PUSH1 0x4 CALLDATALOAD PUSH1 0x24 CALLDATALOAD SWAP1 PUSH1 0xFF DUP3 AND DUP1 SWAP3 SUB PUSH2 0x18F JUMPI PUSH1 0x44 CALLDATALOAD PUSH1 0x1 PUSH1 0x1 PUSH1 0xA0 SHL SUB DUP2 AND SWAP3 SWAP1 DUP4 SWAP1 SUB PUSH2 0x18F JUMPI PUSH2 0x1401 PUSH2 0x1B33 JUMP JUMPDEST PUSH2 0x140A DUP3 PUSH2 0x1719 JUMP JUMPDEST POP SWAP1 PUSH1 0xFF PUSH1 0x8 DUP4 ADD SLOAD PUSH1 0xA0 SHR AND ISZERO PUSH2 0x1554 JUMPI DUP3 PUSH1 0x0 MSTORE PUSH1 0x20 SWAP2 PUSH1 0x2 DUP4 MSTORE PUSH1 0x40 PUSH1 0x0 KECCAK256 DUP6 PUSH1 0x0 MSTORE DUP4 MSTORE PUSH1 0xFF PUSH1 0x40 PUSH1 0x0 KECCAK256 SLOAD AND PUSH2 0x151F JUMPI PUSH1 0x0 DUP5 DUP2 MSTORE PUSH1 0x2 DUP5 MSTORE PUSH1 0x40 DUP1 DUP3 KECCAK256 DUP8 DUP4 MSTORE DUP6 MSTORE SWAP1 KECCAK256 DUP1 SLOAD PUSH1 0xFF NOT AND PUSH1 0x1 OR SWAP1 SSTORE DUP2 PUSH2 0x148F JUMPI SWAP1 PUSH1 0x4 PUSH1 0x0 DUP1 MLOAD PUSH1 0x20 PUSH2 0x200A DUP4 CODECOPY DUP2 MLOAD SWAP2 MSTORE SWAP4 SWAP3 ADD PUSH2 0x1483 DUP2 SLOAD PUSH2 0x1C8D JUMP JUMPDEST SWAP1 SSTORE JUMPDEST PUSH1 0x40 MLOAD SWAP1 DUP2 MSTORE LOG3 STOP JUMPDEST PUSH1 0x1 DUP3 SUB PUSH2 0x14BD JUMPI SWAP1 PUSH1 0x5 PUSH1 0x0 DUP1 MLOAD PUSH1 0x20 PUSH2 0x200A DUP4 CODECOPY DUP2 MLOAD SWAP2 MSTORE SWAP4 SWAP3 ADD PUSH2 0x14B6 DUP2 SLOAD PUSH2 0x1C8D JUMP JUMPDEST SWAP1 SSTORE PUSH2 0x1486 JUMP JUMPDEST PUSH1 0x2 DUP3 SUB PUSH2 0x14E4 JUMPI SWAP1 PUSH1 0x6 PUSH1 0x0 DUP1 MLOAD PUSH1 0x20 PUSH2 0x200A DUP4 CODECOPY DUP2 MLOAD SWAP2 MSTORE SWAP4 SWAP3 ADD PUSH2 0x14B6 DUP2 SLOAD PUSH2 0x1C8D JUMP JUMPDEST PUSH1 0x40 MLOAD PUSH3 0x461BCD PUSH1 0xE5 SHL DUP2 MSTORE PUSH1 0x4 DUP2 ADD DUP5 SWAP1 MSTORE PUSH1 0x13 PUSH1 0x24 DUP3 ADD MSTORE PUSH19 0x496E76616C696420766F74652063686F696365 PUSH1 0x68 SHL PUSH1 0x44 DUP3 ADD MSTORE PUSH1 0x64 SWAP1 REVERT JUMPDEST PUSH1 0x40 MLOAD PUSH3 0x461BCD PUSH1 0xE5 SHL DUP2 MSTORE PUSH1 0x4 DUP2 ADD DUP5 SWAP1 MSTORE PUSH1 0xD PUSH1 0x24 DUP3 ADD MSTORE PUSH13 0x105B1C9958591E481D9BDD1959 PUSH1 0x9A SHL PUSH1 0x44 DUP3 ADD MSTORE PUSH1 0x64 SWAP1 REVERT JUMPDEST PUSH1 0x40 MLOAD PUSH3 0x461BCD PUSH1 0xE5 SHL DUP2 MSTORE PUSH1 0x20 PUSH1 0x4 DUP3 ADD MSTORE PUSH1 0x13 PUSH1 0x24 DUP3 ADD MSTORE PUSH19 0x159BDD1A5B99C81B9BDD081C995C5D5A5C9959 PUSH1 0x6A SHL PUSH1 0x44 DUP3 ADD MSTORE PUSH1 0x64 SWAP1 REVERT JUMPDEST CALLVALUE PUSH2 0x18F JUMPI PUSH1 0x20 CALLDATASIZE PUSH1 0x3 NOT ADD SLT PUSH2 0x18F JUMPI PUSH1 0x4 CALLDATALOAD PUSH4 0xFFFFFFFF PUSH1 0xE0 SHL DUP2 AND DUP1 SWAP2 SUB PUSH2 0x18F JUMPI PUSH1 0x20 SWAP1 PUSH4 0x7965DB0B PUSH1 0xE0 SHL DUP2 EQ SWAP1 DUP2 ISZERO PUSH2 0x15D4 JUMPI JUMPDEST POP PUSH1 0x40 MLOAD SWAP1 ISZERO ISZERO DUP2 MSTORE RETURN JUMPDEST PUSH4 0x1FFC9A7 PUSH1 0xE0 SHL EQ SWAP1 POP DUP3 PUSH2 0x15C9 JUMP JUMPDEST CALLVALUE PUSH2 0x18F JUMPI PUSH1 0x20 CALLDATASIZE PUSH1 0x3 NOT ADD SLT PUSH2 0x18F JUMPI PUSH1 0x4 CALLDATALOAD PUSH1 0x1 SLOAD DUP2 LT ISZERO PUSH2 0x18F JUMPI PUSH2 0x160C SWAP1 PUSH2 0x1719 JUMP JUMPDEST POP PUSH2 0x1616 DUP2 PUSH2 0x17C7 JUMP JUMPDEST PUSH2 0x1622 PUSH1 0x1 DUP4 ADD PUSH2 0x17C7 JUMP JUMPDEST SWAP1 PUSH1 0x2 DUP4 ADD SLOAD SWAP3 PUSH1 0x3 DUP2 ADD SLOAD SWAP1 PUSH1 0x4 DUP2 ADD SLOAD SWAP1 PUSH1 0x5 DUP2 ADD SLOAD SWAP4 PUSH1 0x6 DUP3 ADD SLOAD SWAP2 PUSH1 0x7 DUP2 ADD SLOAD SWAP1 PUSH1 0x8 DUP2 ADD SLOAD SWAP2 PUSH1 0x9 DUP3 ADD PUSH2 0x165A SWAP1 PUSH2 0x17C7 JUMP JUMPDEST SWAP5 PUSH1 0xA DUP4 ADD SLOAD SWAP9 PUSH1 0xB DUP5 ADD SLOAD SWAP8 PUSH1 0x1 PUSH1 0xA0 SHL PUSH1 0x1 SWAP1 SUB PUSH1 0xC DUP2 SWAP7 ADD SLOAD AND SWAP10 PUSH1 0x40 MLOAD SWAP14 DUP15 SWAP14 DUP15 SWAP10 PUSH2 0x1E0 DUP1 DUP13 MSTORE DUP12 ADD PUSH2 0x1691 SWAP2 PUSH2 0x186D JUMP JUMPDEST DUP11 DUP2 SUB PUSH1 0x20 DUP13 ADD MSTORE PUSH2 0x16A2 SWAP2 PUSH2 0x186D JUMP JUMPDEST SWAP9 PUSH1 0x40 ADD MSTORE DUP13 DUP7 DUP3 AND SWAP1 PUSH1 0x60 ADD MSTORE PUSH1 0x80 DUP14 ADD SWAP1 PUSH1 0xA0 SHR PUSH1 0xFF AND SWAP1 PUSH2 0x16C5 SWAP2 PUSH2 0x18AD JUMP JUMPDEST PUSH1 0xA0 DUP13 ADD MSTORE PUSH1 0xC0 DUP12 ADD MSTORE PUSH1 0xE0 DUP11 ADD MSTORE PUSH2 0x100 DUP10 ADD MSTORE DUP2 AND PUSH2 0x120 DUP9 ADD MSTORE PUSH1 0xA0 SHR PUSH1 0xFF AND ISZERO ISZERO PUSH2 0x140 DUP8 ADD MSTORE DUP6 DUP2 SUB PUSH2 0x160 DUP8 ADD MSTORE PUSH2 0x1702 SWAP2 PUSH2 0x186D JUMP JUMPDEST SWAP3 PUSH2 0x180 DUP6 ADD MSTORE PUSH2 0x1A0 DUP5 ADD MSTORE PUSH2 0x1C0 DUP4 ADD MSTORE SUB SWAP1 RETURN JUMPDEST PUSH1 0x1 SLOAD DUP2 LT ISZERO PUSH2 0x1738 JUMPI PUSH1 0x1 PUSH1 0x0 MSTORE PUSH1 0xD PUSH1 0x20 PUSH1 0x0 KECCAK256 SWAP2 MUL ADD SWAP1 PUSH1 0x0 SWAP1 JUMP JUMPDEST PUSH4 0x4E487B71 PUSH1 0xE0 SHL PUSH1 0x0 MSTORE PUSH1 0x32 PUSH1 0x4 MSTORE PUSH1 0x24 PUSH1 0x0 REVERT JUMPDEST SWAP1 PUSH1 0x1 DUP3 DUP2 SHR SWAP3 AND DUP1 ISZERO PUSH2 0x177E JUMPI JUMPDEST PUSH1 0x20 DUP4 LT EQ PUSH2 0x1768 JUMPI JUMP JUMPDEST PUSH4 0x4E487B71 PUSH1 0xE0 SHL PUSH1 0x0 MSTORE PUSH1 0x22 PUSH1 0x4 MSTORE PUSH1 0x24 PUSH1 0x0 REVERT JUMPDEST SWAP2 PUSH1 0x7F AND SWAP2 PUSH2 0x175D JUMP JUMPDEST PUSH2 0x1E0 DUP2 ADD SWAP1 DUP2 LT PUSH1 0x1 PUSH1 0x1 PUSH1 0x40 SHL SUB DUP3 GT OR PUSH2 0x41F JUMPI PUSH1 0x40 MSTORE JUMP JUMPDEST PUSH1 0x1F SWAP1 SWAP2 ADD PUSH1 0x1F NOT AND DUP2 ADD SWAP1 PUSH1 0x1 PUSH1 0x1 PUSH1 0x40 SHL SUB DUP3 GT SWAP1 DUP3 LT OR PUSH2 0x41F JUMPI PUSH1 0x40 MSTORE JUMP JUMPDEST SWAP1 PUSH1 0x40 MLOAD SWAP2 DUP3 PUSH1 0x0 DUP3 SLOAD SWAP3 PUSH2 0x17DB DUP5 PUSH2 0x174E JUMP JUMPDEST SWAP1 DUP2 DUP5 MSTORE PUSH1 0x1 SWAP5 DUP6 DUP2 AND SWAP1 DUP2 PUSH1 0x0 EQ PUSH2 0x184A JUMPI POP PUSH1 0x1 EQ PUSH2 0x1807 JUMPI JUMPDEST POP POP PUSH2 0x1805 SWAP3 POP SUB DUP4 PUSH2 0x17A4 JUMP JUMPDEST JUMP JUMPDEST SWAP1 SWAP4 SWAP2 POP PUSH1 0x0 MSTORE PUSH1 0x20 SWAP1 DUP2 PUSH1 0x0 KECCAK256 SWAP4 PUSH1 0x0 SWAP2 JUMPDEST DUP2 DUP4 LT PUSH2 0x1832 JUMPI POP POP PUSH2 0x1805 SWAP4 POP DUP3 ADD ADD CODESIZE DUP1 PUSH2 0x17F7 JUMP JUMPDEST DUP6 SLOAD DUP9 DUP5 ADD DUP6 ADD MSTORE SWAP5 DUP6 ADD SWAP5 DUP8 SWAP5 POP SWAP2 DUP4 ADD SWAP2 PUSH2 0x181A JUMP JUMPDEST SWAP2 POP POP PUSH2 0x1805 SWAP5 POP PUSH1 0x20 SWAP3 POP PUSH1 0xFF NOT AND DUP3 DUP5 ADD MSTORE ISZERO ISZERO PUSH1 0x5 SHL DUP3 ADD ADD CODESIZE DUP1 PUSH2 0x17F7 JUMP JUMPDEST SWAP2 SWAP1 DUP3 MLOAD SWAP3 DUP4 DUP3 MSTORE PUSH1 0x0 JUMPDEST DUP5 DUP2 LT PUSH2 0x1899 JUMPI POP POP DUP3 PUSH1 0x0 PUSH1 0x20 DUP1 SWAP5 SWAP6 DUP5 ADD ADD MSTORE PUSH1 0x1F DUP1 NOT SWAP2 ADD AND ADD ADD SWAP1 JUMP JUMPDEST PUSH1 0x20 DUP2 DUP4 ADD DUP2 ADD MLOAD DUP5 DUP4 ADD DUP3 ADD MSTORE ADD PUSH2 0x1878 JUMP JUMPDEST SWAP1 PUSH1 0x4 DUP3 LT ISZERO PUSH2 0x8E2 JUMPI MSTORE JUMP JUMPDEST PUSH1 0x4 CALLDATALOAD SWAP1 PUSH1 0x1 PUSH1 0x1 PUSH1 0xA0 SHL SUB DUP3 AND DUP3 SUB PUSH2 0x18F JUMPI JUMP JUMPDEST PUSH1 0x24 CALLDATALOAD SWAP1 PUSH1 0x1 PUSH1 0x1 PUSH1 0xA0 SHL SUB DUP3 AND DUP3 SUB PUSH2 0x18F JUMPI JUMP JUMPDEST PUSH1 0x6 SLOAD DUP2 LT ISZERO PUSH2 0x1738 JUMPI PUSH1 0x6 PUSH1 0x0 MSTORE PUSH1 0x20 PUSH1 0x0 KECCAK256 ADD SWAP1 PUSH1 0x0 SWAP1 JUMP JUMPDEST SWAP1 PUSH2 0x192A PUSH2 0x1918 DUP4 MLOAD PUSH2 0x1E0 DUP1 DUP6 MSTORE DUP5 ADD SWAP1 PUSH2 0x186D JUMP JUMPDEST PUSH1 0x20 DUP5 ADD MLOAD DUP4 DUP3 SUB PUSH1 0x20 DUP6 ADD MSTORE PUSH2 0x186D JUMP JUMPDEST SWAP2 PUSH1 0x40 DUP2 ADD MLOAD PUSH1 0x40 DUP4 ADD MSTORE PUSH2 0x19B5 PUSH1 0x1 DUP1 PUSH1 0xA0 SHL SUB SWAP4 DUP5 PUSH1 0x60 DUP5 ADD MLOAD AND PUSH1 0x60 DUP6 ADD MSTORE PUSH2 0x195E PUSH1 0x80 DUP5 ADD MLOAD PUSH1 0x80 DUP7 ADD SWAP1 PUSH2 0x18AD JUMP JUMPDEST PUSH1 0xA0 DUP4 ADD MLOAD PUSH1 0xA0 DUP6 ADD MSTORE PUSH1 0xC0 DUP4 ADD MLOAD PUSH1 0xC0 DUP6 ADD MSTORE PUSH1 0xE0 DUP4 ADD MLOAD PUSH1 0xE0 DUP6 ADD MSTORE PUSH2 0x100 DUP1 DUP5 ADD MLOAD SWAP1 DUP6 ADD MSTORE PUSH2 0x120 DUP6 DUP2 DUP6 ADD MLOAD AND SWAP1 DUP6 ADD MSTORE PUSH2 0x140 DUP1 DUP5 ADD MLOAD ISZERO ISZERO SWAP1 DUP6 ADD MSTORE PUSH2 0x160 DUP1 DUP5 ADD MLOAD SWAP1 DUP6 DUP4 SUB SWAP1 DUP7 ADD MSTORE PUSH2 0x186D JUMP JUMPDEST SWAP3 PUSH2 0x180 DUP1 DUP4 ADD MLOAD SWAP1 DUP5 ADD MSTORE PUSH2 0x1A0 DUP1 DUP4 ADD MLOAD SWAP1 DUP5 ADD MSTORE PUSH2 0x1C0 DUP1 SWAP3 ADD MLOAD AND SWAP2 ADD MSTORE SWAP1 JUMP JUMPDEST PUSH1 0x1 PUSH1 0x1 PUSH1 0xA0 SHL SUB AND PUSH1 0x0 DUP2 DUP2 MSTORE PUSH1 0x0 DUP1 MLOAD PUSH1 0x20 PUSH2 0x202A DUP4 CODECOPY DUP2 MLOAD SWAP2 MSTORE PUSH1 0x20 MSTORE PUSH1 0x40 DUP2 KECCAK256 SLOAD SWAP1 SWAP2 SWAP1 PUSH1 0xFF AND ISZERO PUSH2 0x1A40 JUMPI DUP2 DUP1 MSTORE DUP2 PUSH1 0x20 MSTORE PUSH1 0x40 DUP3 KECCAK256 DUP2 DUP4 MSTORE PUSH1 0x20 MSTORE PUSH1 0x40 DUP3 KECCAK256 PUSH1 0xFF NOT DUP2 SLOAD AND SWAP1 SSTORE CALLER SWAP2 PUSH1 0x0 DUP1 MLOAD PUSH1 0x20 PUSH2 0x1FCA DUP4 CODECOPY DUP2 MLOAD SWAP2 MSTORE DUP2 DUP1 LOG4 PUSH1 0x1 SWAP1 JUMP JUMPDEST POP SWAP1 JUMP JUMPDEST PUSH1 0x1 PUSH1 0x1 PUSH1 0xA0 SHL SUB AND PUSH1 0x0 DUP2 DUP2 MSTORE PUSH32 0x30710E496C9A8631E387D1FF5062C226D4CE9C9E008BFF1F22AE157290CCBD62 PUSH1 0x20 MSTORE PUSH1 0x40 DUP2 KECCAK256 SLOAD SWAP1 SWAP2 SWAP1 PUSH1 0x0 DUP1 MLOAD PUSH1 0x20 PUSH2 0x1FEA DUP4 CODECOPY DUP2 MLOAD SWAP2 MSTORE SWAP1 PUSH1 0xFF AND ISZERO PUSH2 0x1ACB JUMPI DUP1 DUP4 MSTORE DUP3 PUSH1 0x20 MSTORE PUSH1 0x40 DUP4 KECCAK256 DUP3 DUP5 MSTORE PUSH1 0x20 MSTORE PUSH1 0x40 DUP4 KECCAK256 PUSH1 0xFF NOT DUP2 SLOAD AND SWAP1 SSTORE PUSH1 0x0 DUP1 MLOAD PUSH1 0x20 PUSH2 0x1FCA DUP4 CODECOPY DUP2 MLOAD SWAP2 MSTORE CALLER SWAP4 DUP1 LOG4 PUSH1 0x1 SWAP1 JUMP JUMPDEST POP POP SWAP1 JUMP JUMPDEST SWAP1 PUSH1 0x0 SWAP2 DUP1 DUP4 MSTORE DUP3 PUSH1 0x20 MSTORE PUSH1 0x40 DUP4 KECCAK256 SWAP2 PUSH1 0x1 DUP1 PUSH1 0xA0 SHL SUB AND SWAP2 DUP3 DUP5 MSTORE PUSH1 0x20 MSTORE PUSH1 0xFF PUSH1 0x40 DUP5 KECCAK256 SLOAD AND PUSH1 0x0 EQ PUSH2 0x1ACB JUMPI DUP1 DUP4 MSTORE DUP3 PUSH1 0x20 MSTORE PUSH1 0x40 DUP4 KECCAK256 DUP3 DUP5 MSTORE PUSH1 0x20 MSTORE PUSH1 0x40 DUP4 KECCAK256 PUSH1 0xFF NOT DUP2 SLOAD AND SWAP1 SSTORE PUSH1 0x0 DUP1 MLOAD PUSH1 0x20 PUSH2 0x1FCA DUP4 CODECOPY DUP2 MLOAD SWAP2 MSTORE CALLER SWAP4 DUP1 LOG4 PUSH1 0x1 SWAP1 JUMP JUMPDEST CALLER PUSH1 0x0 SWAP1 DUP2 MSTORE PUSH1 0x0 DUP1 MLOAD PUSH1 0x20 PUSH2 0x1F8A DUP4 CODECOPY DUP2 MLOAD SWAP2 MSTORE PUSH1 0x20 MSTORE PUSH1 0x40 SWAP1 KECCAK256 SLOAD PUSH1 0x0 DUP1 MLOAD PUSH1 0x20 PUSH2 0x1F6A DUP4 CODECOPY DUP2 MLOAD SWAP2 MSTORE SWAP1 PUSH1 0xFF AND ISZERO PUSH2 0x1B6B JUMPI POP JUMP JUMPDEST PUSH1 0x44 SWAP1 PUSH1 0x40 MLOAD SWAP1 PUSH4 0xE2517D3F PUSH1 0xE0 SHL DUP3 MSTORE CALLER PUSH1 0x4 DUP4 ADD MSTORE PUSH1 0x24 DUP3 ADD MSTORE REVERT JUMPDEST DUP1 PUSH1 0x0 MSTORE PUSH1 0x0 PUSH1 0x20 MSTORE PUSH1 0x40 PUSH1 0x0 KECCAK256 CALLER PUSH1 0x0 MSTORE PUSH1 0x20 MSTORE PUSH1 0xFF PUSH1 0x40 PUSH1 0x0 KECCAK256 SLOAD AND ISZERO PUSH2 0x1B6B JUMPI POP JUMP JUMPDEST PUSH1 0x1 PUSH1 0x1 PUSH1 0xA0 SHL SUB AND PUSH1 0x0 DUP2 DUP2 MSTORE PUSH1 0x0 DUP1 MLOAD PUSH1 0x20 PUSH2 0x1F8A DUP4 CODECOPY DUP2 MLOAD SWAP2 MSTORE PUSH1 0x20 MSTORE PUSH1 0x40 DUP2 KECCAK256 SLOAD SWAP1 SWAP2 SWAP1 PUSH1 0x0 DUP1 MLOAD PUSH1 0x20 PUSH2 0x1F6A DUP4 CODECOPY DUP2 MLOAD SWAP2 MSTORE SWAP1 PUSH1 0xFF AND PUSH2 0x1ACB JUMPI DUP1 DUP4 MSTORE DUP3 PUSH1 0x20 MSTORE PUSH1 0x40 DUP4 KECCAK256 DUP3 DUP5 MSTORE PUSH1 0x20 MSTORE PUSH1 0x40 DUP4 KECCAK256 PUSH1 0x1 PUSH1 0xFF NOT DUP3 SLOAD AND OR SWAP1 SSTORE PUSH1 0x0 DUP1 MLOAD PUSH1 0x20 PUSH2 0x1F4A DUP4 CODECOPY DUP2 MLOAD SWAP2 MSTORE CALLER SWAP4 DUP1 LOG4 PUSH1 0x1 SWAP1 JUMP JUMPDEST SWAP1 PUSH1 0x0 SWAP2 DUP1 DUP4 MSTORE DUP3 PUSH1 0x20 MSTORE PUSH1 0x40 DUP4 KECCAK256 SWAP2 PUSH1 0x1 DUP1 PUSH1 0xA0 SHL SUB AND SWAP2 DUP3 DUP5 MSTORE PUSH1 0x20 MSTORE PUSH1 0xFF PUSH1 0x40 DUP5 KECCAK256 SLOAD AND ISZERO PUSH1 0x0 EQ PUSH2 0x1ACB JUMPI DUP1 DUP4 MSTORE DUP3 PUSH1 0x20 MSTORE PUSH1 0x40 DUP4 KECCAK256 DUP3 DUP5 MSTORE PUSH1 0x20 MSTORE PUSH1 0x40 DUP4 KECCAK256 PUSH1 0x1 PUSH1 0xFF NOT DUP3 SLOAD AND OR SWAP1 SSTORE PUSH1 0x0 DUP1 MLOAD PUSH1 0x20 PUSH2 0x1F4A DUP4 CODECOPY DUP2 MLOAD SWAP2 MSTORE CALLER SWAP4 DUP1 LOG4 PUSH1 0x1 SWAP1 JUMP JUMPDEST PUSH1 0x0 NOT DUP2 EQ PUSH2 0x304 JUMPI PUSH1 0x1 ADD SWAP1 JUMP JUMPDEST PUSH1 0x0 PUSH1 0x0 DUP1 MLOAD PUSH1 0x20 PUSH2 0x1FEA DUP4 CODECOPY DUP2 MLOAD SWAP2 MSTORE DUP2 MSTORE DUP1 PUSH1 0x20 MSTORE PUSH1 0x1 SWAP2 PUSH2 0x1CC5 DUP4 PUSH1 0x40 DUP5 KECCAK256 ADD SLOAD PUSH2 0x1B89 JUMP JUMPDEST PUSH2 0x1CCE DUP2 PUSH2 0x1A44 JUMP JUMPDEST POP PUSH1 0x1 PUSH1 0x1 PUSH1 0xA0 SHL SUB SWAP1 DUP2 AND DUP1 DUP4 MSTORE PUSH1 0x7 PUSH1 0x20 MSTORE PUSH1 0x40 DUP4 KECCAK256 DUP1 SLOAD SWAP2 SWAP3 SWAP2 PUSH1 0xFF DUP2 AND PUSH2 0x1CFC JUMPI JUMPDEST POP POP POP POP POP POP JUMP JUMPDEST PUSH1 0xFF NOT AND SWAP1 SSTORE DUP3 DUP5 JUMPDEST PUSH2 0x1D24 JUMPI JUMPDEST POP POP DUP2 MSTORE PUSH1 0x3 PUSH1 0x20 MSTORE PUSH1 0x40 DUP2 KECCAK256 SSTORE POP CODESIZE DUP1 DUP1 DUP1 DUP1 DUP1 PUSH2 0x1CF4 JUMP JUMPDEST PUSH1 0x6 DUP1 SLOAD DUP1 DUP4 LT ISZERO PUSH2 0x1DCB JUMPI DUP4 DUP6 PUSH2 0x1D3B DUP6 PUSH2 0x18E6 JUMP JUMPDEST SWAP3 SWAP1 SLOAD PUSH1 0x3 SWAP4 DUP5 SHL SHR AND EQ PUSH2 0x1D5C JUMPI POP POP POP PUSH2 0x1D56 SWAP1 PUSH2 0x1C8D JUMP JUMPDEST DUP5 PUSH2 0x1D05 JUMP JUMPDEST SWAP1 SWAP4 SWAP2 SWAP5 SWAP6 SWAP7 POP PUSH1 0x0 NOT SWAP4 DUP5 DUP2 ADD SWAP1 DUP2 GT PUSH2 0x1DB7 JUMPI SWAP2 PUSH2 0x29B SWAP2 PUSH2 0x28F PUSH2 0x1D83 SWAP6 SWAP5 PUSH2 0x18E6 JUMP JUMPDEST DUP2 SLOAD DUP1 ISZERO PUSH2 0x1DA3 JUMPI ADD SWAP1 PUSH2 0x1D99 PUSH2 0x2D0 DUP4 PUSH2 0x18E6 JUMP JUMPDEST SSTORE DUP2 SWAP1 CODESIZE DUP1 PUSH2 0x1D0A JUMP JUMPDEST PUSH4 0x4E487B71 PUSH1 0xE0 SHL DUP6 MSTORE PUSH1 0x31 PUSH1 0x4 MSTORE PUSH1 0x24 DUP6 REVERT JUMPDEST PUSH4 0x4E487B71 PUSH1 0xE0 SHL DUP9 MSTORE PUSH1 0x11 PUSH1 0x4 MSTORE PUSH1 0x24 DUP9 REVERT JUMPDEST POP POP PUSH2 0x1D0A JUMP JUMPDEST SWAP1 CALLDATALOAD SWAP1 PUSH1 0x1E NOT DUP2 CALLDATASIZE SUB ADD DUP3 SLT ISZERO PUSH2 0x18F JUMPI ADD DUP1 CALLDATALOAD SWAP1 PUSH1 0x1 PUSH1 0x1 PUSH1 0x40 SHL SUB DUP3 GT PUSH2 0x18F JUMPI PUSH1 0x20 ADD SWAP2 DUP2 CALLDATASIZE SUB DUP4 SGT PUSH2 0x18F JUMPI JUMP JUMPDEST SWAP2 SWAP3 SWAP2 PUSH1 0x1 PUSH1 0x1 PUSH1 0x40 SHL SUB DUP3 GT PUSH2 0x41F JUMPI PUSH1 0x40 MLOAD SWAP2 PUSH2 0x1E2D PUSH1 0x1F DUP3 ADD PUSH1 0x1F NOT AND PUSH1 0x20 ADD DUP5 PUSH2 0x17A4 JUMP JUMPDEST DUP3 SWAP5 DUP2 DUP5 MSTORE DUP2 DUP4 ADD GT PUSH2 0x18F JUMPI DUP3 DUP2 PUSH1 0x20 SWAP4 DUP5 PUSH1 0x0 SWAP7 ADD CALLDATACOPY ADD ADD MSTORE JUMP JUMPDEST SWAP1 PUSH1 0x4 DUP2 LT ISZERO PUSH2 0x8E2 JUMPI DUP2 SLOAD PUSH1 0xFF PUSH1 0xA0 SHL NOT AND PUSH1 0xA0 SWAP2 SWAP1 SWAP2 SHL PUSH1 0xFF PUSH1 0xA0 SHL AND OR SWAP1 SSTORE JUMP JUMPDEST SWAP1 PUSH1 0x40 MLOAD PUSH2 0x1E7B DUP2 PUSH2 0x1788 JUMP JUMPDEST DUP1 SWAP3 PUSH2 0x1E86 DUP2 PUSH2 0x17C7 JUMP JUMPDEST DUP3 MSTORE PUSH2 0x1E94 PUSH1 0x1 DUP3 ADD PUSH2 0x17C7 JUMP JUMPDEST PUSH1 0x20 DUP4 ADD MSTORE PUSH1 0x2 DUP2 ADD SLOAD PUSH1 0x40 DUP4 ADD MSTORE PUSH1 0x3 DUP2 ADD SLOAD PUSH1 0x1 PUSH1 0x1 PUSH1 0xA0 SHL SUB DUP1 DUP3 AND PUSH1 0x60 DUP6 ADD MSTORE SWAP1 PUSH1 0xA0 SHR PUSH1 0xFF AND PUSH1 0x4 DUP2 LT ISZERO PUSH2 0x8E2 JUMPI PUSH2 0x1C0 SWAP3 PUSH1 0xC SWAP2 PUSH1 0x80 DUP7 ADD MSTORE PUSH1 0x4 DUP2 ADD SLOAD PUSH1 0xA0 DUP7 ADD MSTORE PUSH1 0x5 DUP2 ADD SLOAD PUSH1 0xC0 DUP7 ADD MSTORE PUSH1 0x6 DUP2 ADD SLOAD PUSH1 0xE0 DUP7 ADD MSTORE PUSH1 0x7 DUP2 ADD SLOAD PUSH2 0x100 DUP7 ADD MSTORE PUSH1 0xFF PUSH1 0x8 DUP3 ADD SLOAD DUP5 DUP2 AND PUSH2 0x120 DUP9 ADD MSTORE PUSH1 0xA0 SHR AND ISZERO ISZERO PUSH2 0x140 DUP7 ADD MSTORE PUSH2 0x1F25 PUSH1 0x9 DUP3 ADD PUSH2 0x17C7 JUMP JUMPDEST PUSH2 0x160 DUP7 ADD MSTORE PUSH1 0xA DUP2 ADD SLOAD PUSH2 0x180 DUP7 ADD MSTORE PUSH1 0xB DUP2 ADD SLOAD PUSH2 0x1A0 DUP7 ADD MSTORE ADD SLOAD AND SWAP2 ADD MSTORE JUMP INVALID 0x2F DUP8 DUP9 GT PUSH31 0x7EFF1D82E926EC794901D17C78024A50270940304540A733656F0D3B5D4CC6 0xD RETURNDATACOPY 0xC3 MLOAD PUSH15 0xE8AE083BD60934F6EB2A6C54B12299 DUP6 0xC4 SHL 0xFB MULMOD 0x2B 0x26 SUB 0xC3 SWAP16 GT 0xA9 ADDRESS SIGNEXTEND POP DUP5 PUSH17 0xEAED31F5842BA08C93181BCBE6A7FE3403 SWAP11 0xA7 CALLCODE 0xB8 SMOD TIMESTAMP 0xDB MLOAD SWAP5 PUSH2 0x47AF DUP16 PUSH9 0xF24B69CDB99D868CC4 0xB5 EXTCODESIZE PUSH22 0xDCE4E05D8F590BCF5281051CF6391F5C32D9C69D2A47 0xEA PUSH8 0xB442974B53935D1 0xED 0xC7 REVERT PUSH5 0xEB21E047A8 CODECOPY OR SHL DUP3 SWAP12 DUP3 0x4E 0x23 0x29 0xE2 SDIV NUMBER 0x5D SWAP5 SHR SWAP16 SGT 0xBA CREATE2 PUSH25 0x548505283D29261236D8E6596D4636094F80829C509370ABB2 0xD4 0x21 LOG0 PUSH25 0xBA5926755D3DE25D021DACF7BBD19853F7A2AD3228B676F7D3 0xCD TIMESTAMP DUP5 0xA5 PREVRANDAO EXTCODEHASH OR CALL SWAP7 0x2B CALLDATASIZE 0xE4 SWAP2 0xB3 EXP BLOCKHASH 0xB2 BLOCKHASH PC 0x49 0xE5 SWAP8 0xBA PUSH0 0xB5 LOG1 PUSH5 0x736F6C6343 STOP ADDMOD EQ STOP EXP 0x2F DUP8 DUP9 GT PUSH31 0x7EFF1D82E926EC794901D17C78024A50270940304540A733656F0D829B824E 0x23 0x29 0xE2 SDIV NUMBER 0x5D SWAP5 SHR SWAP16 SGT 0xBA CREATE2 PUSH25 0x548505283D29261236D8E6596D46366080346100BB57601F61 MULMOD 0x2E CODESIZE DUP2 SWAP1 SUB SWAP2 DUP3 ADD PUSH1 0x1F NOT AND DUP4 ADD SWAP2 PUSH1 0x1 PUSH1 0x1 PUSH1 0x40 SHL SUB DUP4 GT DUP5 DUP5 LT OR PUSH2 0xC0 JUMPI DUP1 DUP5 SWAP3 PUSH1 0x60 SWAP5 PUSH1 0x40 MSTORE DUP4 CODECOPY DUP2 ADD SUB SLT PUSH2 0xBB JUMPI PUSH2 0x47 DUP2 PUSH2 0xD6 JUMP JUMPDEST PUSH2 0x72 PUSH2 0x62 PUSH1 0x40 PUSH2 0x5B PUSH1 0x20 DUP7 ADD PUSH2 0xD6 JUMP JUMPDEST SWAP5 ADD PUSH2 0xD6 JUMP JUMPDEST SWAP2 PUSH2 0x6C DUP2 PUSH2 0xEA JUMP JUMPDEST POP PUSH2 0x168 JUMP JUMPDEST POP PUSH1 0x1 PUSH1 0x1 PUSH1 0xA0 SHL SUB SWAP1 DUP1 DUP3 AND PUSH2 0xAB JUMPI JUMPDEST POP DUP2 AND PUSH2 0x9B JUMPI JUMPDEST PUSH1 0x40 MLOAD PUSH2 0x66A SWAP1 DUP2 PUSH2 0x2A4 DUP3 CODECOPY RETURN JUMPDEST PUSH2 0xA4 SWAP1 PUSH2 0x208 JUMP JUMPDEST POP CODESIZE PUSH2 0x8C JUMP JUMPDEST PUSH2 0xB4 SWAP1 PUSH2 0xEA JUMP JUMPDEST POP CODESIZE PUSH2 0x84 JUMP JUMPDEST PUSH1 0x0 DUP1 REVERT JUMPDEST PUSH4 0x4E487B71 PUSH1 0xE0 SHL PUSH1 0x0 MSTORE PUSH1 0x41 PUSH1 0x4 MSTORE PUSH1 0x24 PUSH1 0x0 REVERT JUMPDEST MLOAD SWAP1 PUSH1 0x1 PUSH1 0x1 PUSH1 0xA0 SHL SUB DUP3 AND DUP3 SUB PUSH2 0xBB JUMPI JUMP JUMPDEST PUSH1 0x1 PUSH1 0x1 PUSH1 0xA0 SHL SUB AND PUSH1 0x0 DUP2 DUP2 MSTORE PUSH32 0xAD3228B676F7D3CD4284A5443F17F1962B36E491B30A40B2405849E597BA5FB5 PUSH1 0x20 MSTORE PUSH1 0x40 DUP2 KECCAK256 SLOAD SWAP1 SWAP2 SWAP1 PUSH1 0xFF AND PUSH2 0x164 JUMPI DUP2 DUP1 MSTORE DUP2 PUSH1 0x20 MSTORE PUSH1 0x40 DUP3 KECCAK256 DUP2 DUP4 MSTORE PUSH1 0x20 MSTORE PUSH1 0x40 DUP3 KECCAK256 PUSH1 0x1 PUSH1 0xFF NOT DUP3 SLOAD AND OR SWAP1 SSTORE CALLER SWAP2 PUSH1 0x0 DUP1 MLOAD PUSH1 0x20 PUSH2 0x90E DUP4 CODECOPY DUP2 MLOAD SWAP2 MSTORE DUP2 DUP1 LOG4 PUSH1 0x1 SWAP1 JUMP JUMPDEST POP SWAP1 JUMP JUMPDEST PUSH1 0x1 PUSH1 0x1 PUSH1 0xA0 SHL SUB AND PUSH1 0x0 DUP2 DUP2 MSTORE PUSH32 0x991C3211066600FC98D95D017C66F2884B1FA3D4CABC2576D000F3CC80931BDA PUSH1 0x20 MSTORE PUSH1 0x40 DUP2 KECCAK256 SLOAD SWAP1 SWAP2 SWAP1 PUSH32 0x3496E2E73C4D42B75D702E60D9E48102720B8691234415963A5A857B86425D07 SWAP1 PUSH1 0xFF AND PUSH2 0x203 JUMPI DUP1 DUP4 MSTORE DUP3 PUSH1 0x20 MSTORE PUSH1 0x40 DUP4 KECCAK256 DUP3 DUP5 MSTORE PUSH1 0x20 MSTORE PUSH1 0x40 DUP4 KECCAK256 PUSH1 0x1 PUSH1 0xFF NOT DUP3 SLOAD AND OR SWAP1 SSTORE PUSH1 0x0 DUP1 MLOAD PUSH1 0x20 PUSH2 0x90E DUP4 CODECOPY DUP2 MLOAD SWAP2 MSTORE CALLER SWAP4 DUP1 LOG4 PUSH1 0x1 SWAP1 JUMP JUMPDEST POP POP SWAP1 JUMP JUMPDEST PUSH1 0x1 PUSH1 0x1 PUSH1 0xA0 SHL SUB AND PUSH1 0x0 DUP2 DUP2 MSTORE PUSH32 0xDAE2AA361DFD1CA020A396615627D436107C35EFF9FE7738A3512819782D7069 PUSH1 0x20 MSTORE PUSH1 0x40 DUP2 KECCAK256 SLOAD SWAP1 SWAP2 SWAP1 PUSH32 0xD8AA0F3194971A2A116679F7C2090F6939C8D4E01A2A8D7E41D55E5351469E63 SWAP1 PUSH1 0xFF AND PUSH2 0x203 JUMPI DUP1 DUP4 MSTORE DUP3 PUSH1 0x20 MSTORE PUSH1 0x40 DUP4 KECCAK256 DUP3 DUP5 MSTORE PUSH1 0x20 MSTORE PUSH1 0x40 DUP4 KECCAK256 PUSH1 0x1 PUSH1 0xFF NOT DUP3 SLOAD AND OR SWAP1 SSTORE PUSH1 0x0 DUP1 MLOAD PUSH1 0x20 PUSH2 0x90E DUP4 CODECOPY DUP2 MLOAD SWAP2 MSTORE CALLER SWAP4 DUP1 LOG4 PUSH1 0x1 SWAP1 JUMP INVALID PUSH1 0x80 PUSH1 0x40 SWAP1 DUP1 DUP3 MSTORE PUSH1 0x4 SWAP1 DUP2 CALLDATASIZE LT ISZERO PUSH2 0x4C JUMPI JUMPDEST POP POP CALLDATASIZE ISZERO PUSH2 0x20 JUMPI PUSH1 0x0 DUP1 REVERT JUMPDEST MLOAD CALLVALUE DUP2 MSTORE PUSH32 0x2DA466A7B24304F47E87FA2E1E5A81B9831CE54FEC19055CE277CA2F39BA42C4 PUSH1 0x20 CALLER SWAP3 LOG2 STOP JUMPDEST PUSH1 0x0 SWAP2 DUP3 CALLDATALOAD PUSH1 0xE0 SHR SWAP2 DUP3 PUSH4 0x1FFC9A7 EQ PUSH2 0x3FE JUMPI POP DUP2 PUSH4 0x7BD0265 EQ PUSH2 0x3D5 JUMPI DUP2 PUSH4 0x12065FE0 EQ PUSH2 0x3BA JUMPI DUP2 PUSH4 0x248A9CA3 EQ PUSH2 0x38F JUMPI DUP2 PUSH4 0x2F2FF15D EQ PUSH2 0x371 JUMPI DUP2 PUSH4 0x36568ABE EQ PUSH2 0x336 JUMPI DUP2 PUSH4 0x91D14854 EQ PUSH2 0x2FC JUMPI DUP2 PUSH4 0x91DCD5AA EQ PUSH2 0x287 JUMPI DUP2 PUSH4 0xA217FDDF EQ PUSH2 0x26C JUMPI DUP2 PUSH4 0xA9059CBB EQ PUSH2 0x153 JUMPI POP DUP1 PUSH4 0xD547741F EQ PUSH2 0x11E JUMPI PUSH4 0xF0A3A97C EQ PUSH2 0xE0 JUMPI DUP1 PUSH2 0x13 JUMP JUMPDEST SWAP1 CALLVALUE PUSH2 0x11A JUMPI DUP2 PUSH1 0x3 NOT CALLDATASIZE ADD SLT PUSH2 0x11A JUMPI PUSH1 0x20 SWAP1 MLOAD PUSH32 0x3496E2E73C4D42B75D702E60D9E48102720B8691234415963A5A857B86425D07 DUP2 MSTORE RETURN JUMPDEST POP DUP1 REVERT JUMPDEST POP SWAP1 CALLVALUE PUSH2 0x11A JUMPI PUSH1 0x1 PUSH2 0x14F SWAP2 PUSH2 0x14A PUSH2 0x137 CALLDATASIZE PUSH2 0x451 JUMP JUMPDEST SWAP4 SWAP1 SWAP3 DUP4 DUP8 MSTORE DUP7 PUSH1 0x20 MSTORE DUP7 KECCAK256 ADD SLOAD PUSH2 0x47C JUMP JUMPDEST PUSH2 0x5BA JUMP JUMPDEST POP DUP1 RETURN JUMPDEST DUP4 SWAP2 POP CALLVALUE PUSH2 0x268 JUMPI DUP2 PUSH1 0x3 NOT CALLDATASIZE ADD SLT PUSH2 0x268 JUMPI DUP1 CALLDATALOAD PUSH1 0x1 PUSH1 0x1 PUSH1 0xA0 SHL SUB DUP2 AND SWAP3 SWAP1 DUP4 SWAP1 SUB PUSH2 0x264 JUMPI PUSH1 0x24 CALLDATALOAD SWAP2 PUSH1 0x0 DUP1 MLOAD PUSH1 0x20 PUSH2 0x63E DUP4 CODECOPY DUP2 MLOAD SWAP2 MSTORE DUP1 DUP7 MSTORE DUP6 PUSH1 0x20 MSTORE DUP3 DUP7 KECCAK256 CALLER DUP8 MSTORE PUSH1 0x20 MSTORE PUSH1 0xFF DUP4 DUP8 KECCAK256 SLOAD AND ISZERO PUSH2 0x249 JUMPI POP DUP3 SELFBALANCE LT PUSH2 0x209 JUMPI POP DUP4 DUP3 DUP5 DUP3 DUP3 ISZERO PUSH2 0x200 JUMPI JUMPDEST DUP4 SWAP3 DUP4 SWAP3 DUP4 SWAP3 CALL ISZERO PUSH2 0x1F7 JUMPI PUSH32 0x7084F5476618D8E60B11EF0D7D3F06914655ADB8793E28FF7F018D4C76D505D5 SWAP2 PUSH1 0x20 SWAP2 MLOAD SWAP1 DUP2 MSTORE LOG2 DUP1 RETURN JUMPDEST MLOAD RETURNDATASIZE DUP5 DUP3 RETURNDATACOPY RETURNDATASIZE SWAP1 REVERT JUMPDEST POP PUSH2 0x8FC PUSH2 0x1BE JUMP JUMPDEST PUSH1 0x20 PUSH1 0x64 SWAP3 MLOAD SWAP2 PUSH3 0x461BCD PUSH1 0xE5 SHL DUP4 MSTORE DUP3 ADD MSTORE PUSH1 0x1B PUSH1 0x24 DUP3 ADD MSTORE PUSH27 0x5661756C743A20696E73756666696369656E742062616C616E6365 PUSH1 0x28 SHL PUSH1 0x44 DUP3 ADD MSTORE REVERT JUMPDEST PUSH1 0x44 SWAP3 MLOAD SWAP2 PUSH4 0xE2517D3F PUSH1 0xE0 SHL DUP4 MSTORE CALLER SWAP1 DUP4 ADD MSTORE PUSH1 0x24 DUP3 ADD MSTORE REVERT JUMPDEST DUP4 DUP1 REVERT JUMPDEST DUP3 DUP1 REVERT JUMPDEST DUP3 DUP5 CALLVALUE PUSH2 0x11A JUMPI DUP2 PUSH1 0x3 NOT CALLDATASIZE ADD SLT PUSH2 0x11A JUMPI MLOAD SWAP1 DUP2 MSTORE PUSH1 0x20 SWAP1 RETURN JUMPDEST SWAP1 POP DUP3 CALLVALUE PUSH2 0x268 JUMPI DUP3 PUSH1 0x3 NOT CALLDATASIZE ADD SLT PUSH2 0x268 JUMPI DUP3 DUP1 MSTORE DUP3 PUSH1 0x20 MSTORE DUP1 DUP4 KECCAK256 CALLER DUP5 MSTORE PUSH1 0x20 MSTORE PUSH1 0xFF DUP2 DUP5 KECCAK256 SLOAD AND ISZERO PUSH2 0x2C0 JUMPI DUP3 PUSH2 0x14F CALLER PUSH2 0x53E JUMP JUMPDEST SWAP1 PUSH1 0x20 PUSH1 0x64 SWAP3 MLOAD SWAP2 PUSH3 0x461BCD PUSH1 0xE5 SHL DUP4 MSTORE DUP3 ADD MSTORE PUSH1 0x16 PUSH1 0x24 DUP3 ADD MSTORE PUSH22 0x21B0B63632B91034B9903737BA1030B71030B236B4B7 PUSH1 0x51 SHL PUSH1 0x44 DUP3 ADD MSTORE REVERT JUMPDEST DUP3 DUP5 CALLVALUE PUSH2 0x11A JUMPI PUSH1 0xFF DUP2 PUSH1 0x20 SWAP4 PUSH2 0x312 CALLDATASIZE PUSH2 0x451 JUMP JUMPDEST SWAP1 DUP3 MSTORE DUP2 DUP7 MSTORE DUP3 DUP3 KECCAK256 PUSH1 0x1 PUSH1 0x1 PUSH1 0xA0 SHL SUB SWAP1 SWAP2 AND DUP3 MSTORE DUP6 MSTORE KECCAK256 SLOAD SWAP2 MLOAD SWAP2 AND ISZERO ISZERO DUP2 MSTORE RETURN JUMPDEST DUP3 DUP5 CALLVALUE PUSH2 0x11A JUMPI PUSH2 0x346 CALLDATASIZE PUSH2 0x451 JUMP JUMPDEST SWAP2 CALLER PUSH1 0x1 PUSH1 0x1 PUSH1 0xA0 SHL SUB DUP5 AND SUB PUSH2 0x362 JUMPI POP SWAP1 PUSH2 0x14F SWAP2 PUSH2 0x5BA JUMP JUMPDEST MLOAD PUSH4 0x334BD919 PUSH1 0xE1 SHL DUP2 MSTORE DUP5 SWAP1 REVERT JUMPDEST DUP3 DUP5 CALLVALUE PUSH2 0x11A JUMPI PUSH1 0x1 PUSH2 0x14F SWAP2 PUSH2 0x38A PUSH2 0x137 CALLDATASIZE PUSH2 0x451 JUMP JUMPDEST PUSH2 0x4C0 JUMP JUMPDEST DUP4 SWAP2 POP CALLVALUE PUSH2 0x268 JUMPI PUSH1 0x20 CALLDATASIZE PUSH1 0x3 NOT ADD SLT PUSH2 0x268 JUMPI DUP2 PUSH1 0x20 SWAP4 PUSH1 0x1 SWAP3 CALLDATALOAD DUP2 MSTORE DUP1 DUP6 MSTORE KECCAK256 ADD SLOAD SWAP1 MLOAD SWAP1 DUP2 MSTORE RETURN JUMPDEST DUP3 DUP5 CALLVALUE PUSH2 0x11A JUMPI DUP2 PUSH1 0x3 NOT CALLDATASIZE ADD SLT PUSH2 0x11A JUMPI MLOAD SELFBALANCE DUP2 MSTORE PUSH1 0x20 SWAP1 RETURN JUMPDEST DUP3 DUP5 CALLVALUE PUSH2 0x11A JUMPI DUP2 PUSH1 0x3 NOT CALLDATASIZE ADD SLT PUSH2 0x11A JUMPI PUSH1 0x20 SWAP1 MLOAD PUSH1 0x0 DUP1 MLOAD PUSH1 0x20 PUSH2 0x63E DUP4 CODECOPY DUP2 MLOAD SWAP2 MSTORE DUP2 MSTORE RETURN JUMPDEST SWAP2 POP CALLVALUE PUSH2 0x268 JUMPI PUSH1 0x20 CALLDATASIZE PUSH1 0x3 NOT ADD SLT PUSH2 0x268 JUMPI CALLDATALOAD PUSH4 0xFFFFFFFF PUSH1 0xE0 SHL DUP2 AND DUP1 SWAP2 SUB PUSH2 0x268 JUMPI PUSH1 0x20 SWAP3 POP PUSH4 0x7965DB0B PUSH1 0xE0 SHL DUP2 EQ SWAP1 DUP2 ISZERO PUSH2 0x440 JUMPI JUMPDEST POP ISZERO ISZERO DUP2 MSTORE RETURN JUMPDEST PUSH4 0x1FFC9A7 PUSH1 0xE0 SHL EQ SWAP1 POP DUP4 PUSH2 0x439 JUMP JUMPDEST PUSH1 0x40 SWAP1 PUSH1 0x3 NOT ADD SLT PUSH2 0x477 JUMPI PUSH1 0x4 CALLDATALOAD SWAP1 PUSH1 0x24 CALLDATALOAD PUSH1 0x1 PUSH1 0x1 PUSH1 0xA0 SHL SUB DUP2 AND DUP2 SUB PUSH2 0x477 JUMPI SWAP1 JUMP JUMPDEST PUSH1 0x0 DUP1 REVERT JUMPDEST DUP1 PUSH1 0x0 MSTORE PUSH1 0x0 PUSH1 0x20 MSTORE PUSH1 0x40 PUSH1 0x0 KECCAK256 CALLER PUSH1 0x0 MSTORE PUSH1 0x20 MSTORE PUSH1 0xFF PUSH1 0x40 PUSH1 0x0 KECCAK256 SLOAD AND ISZERO PUSH2 0x4A2 JUMPI POP JUMP JUMPDEST PUSH1 0x44 SWAP1 PUSH1 0x40 MLOAD SWAP1 PUSH4 0xE2517D3F PUSH1 0xE0 SHL DUP3 MSTORE CALLER PUSH1 0x4 DUP4 ADD MSTORE PUSH1 0x24 DUP3 ADD MSTORE REVERT JUMPDEST SWAP1 PUSH1 0x0 SWAP2 DUP1 DUP4 MSTORE DUP3 PUSH1 0x20 MSTORE PUSH1 0x40 DUP4 KECCAK256 SWAP2 PUSH1 0x1 DUP1 PUSH1 0xA0 SHL SUB AND SWAP2 DUP3 DUP5 MSTORE PUSH1 0x20 MSTORE PUSH1 0xFF PUSH1 0x40 DUP5 KECCAK256 SLOAD AND ISZERO PUSH1 0x0 EQ PUSH2 0x539 JUMPI DUP1 DUP4 MSTORE DUP3 PUSH1 0x20 MSTORE PUSH1 0x40 DUP4 KECCAK256 DUP3 DUP5 MSTORE PUSH1 0x20 MSTORE PUSH1 0x40 DUP4 KECCAK256 PUSH1 0x1 PUSH1 0xFF NOT DUP3 SLOAD AND OR SWAP1 SSTORE PUSH32 0x2F8788117E7EFF1D82E926EC794901D17C78024A50270940304540A733656F0D CALLER SWAP4 DUP1 LOG4 PUSH1 0x1 SWAP1 JUMP JUMPDEST POP POP SWAP1 JUMP JUMPDEST PUSH1 0x1 PUSH1 0x1 PUSH1 0xA0 SHL SUB AND PUSH1 0x0 DUP2 DUP2 MSTORE PUSH32 0xAD3228B676F7D3CD4284A5443F17F1962B36E491B30A40B2405849E597BA5FB5 PUSH1 0x20 MSTORE PUSH1 0x40 DUP2 KECCAK256 SLOAD SWAP1 SWAP2 SWAP1 PUSH1 0xFF AND ISZERO PUSH2 0x5B6 JUMPI DUP2 DUP1 MSTORE DUP2 PUSH1 0x20 MSTORE PUSH1 0x40 DUP3 KECCAK256 DUP2 DUP4 MSTORE PUSH1 0x20 MSTORE PUSH1 0x40 DUP3 KECCAK256 PUSH1 0xFF NOT DUP2 SLOAD AND SWAP1 SSTORE CALLER SWAP2 PUSH1 0x0 DUP1 MLOAD PUSH1 0x20 PUSH2 0x61E DUP4 CODECOPY DUP2 MLOAD SWAP2 MSTORE DUP2 DUP1 LOG4 PUSH1 0x1 SWAP1 JUMP JUMPDEST POP SWAP1 JUMP JUMPDEST SWAP1 PUSH1 0x0 SWAP2 DUP1 DUP4 MSTORE DUP3 PUSH1 0x20 MSTORE PUSH1 0x40 DUP4 KECCAK256 SWAP2 PUSH1 0x1 DUP1 PUSH1 0xA0 SHL SUB AND SWAP2 DUP3 DUP5 MSTORE PUSH1 0x20 MSTORE PUSH1 0xFF PUSH1 0x40 DUP5 KECCAK256 SLOAD AND PUSH1 0x0 EQ PUSH2 0x539 JUMPI DUP1 DUP4 MSTORE DUP3 PUSH1 0x20 MSTORE PUSH1 0x40 DUP4 KECCAK256 DUP3 DUP5 MSTORE PUSH1 0x20 MSTORE PUSH1 0x40 DUP4 KECCAK256 PUSH1 0xFF NOT DUP2 SLOAD AND SWAP1 SSTORE PUSH1 0x0 DUP1 MLOAD PUSH1 0x20 PUSH2 0x61E DUP4 CODECOPY DUP2 MLOAD SWAP2 MSTORE CALLER SWAP4 DUP1 LOG4 PUSH1 0x1 SWAP1 JUMP INVALID 0xF6 CODECOPY 0x1F 0x5C ORIGIN 0xD9 0xC6 SWAP14 0x2A SELFBALANCE 0xEA PUSH8 0xB442974B53935D1 0xED 0xC7 REVERT PUSH5 0xEB21E047A8 CODECOPY OR SHL 0xD8 0xAA 0xF BALANCE SWAP5 SWAP8 BYTE 0x2A GT PUSH7 0x79F7C2090F6939 0xC8 0xD4 0xE0 BYTE 0x2A DUP14 PUSH31 0x41D55E5351469E63A164736F6C6343000814000A2F8788117E7EFF1D82E926 0xEC PUSH26 0x4901D17C78024A50270940304540A733656F0DA164736F6C6343 STOP ADDMOD EQ STOP EXP "},"methodIdentifiers":{"createDAO(string,string,string,address,bool,string,uint256,uint256,uint256,uint256,uint256,uint256)":"47e9a528","deployedDAOs(uint256)":"19e0b288","getAllDAOs()":"3cb2c68a","getDAO_Count()":"16f28783"}}}}}