{"contracts/Proposal.sol":{"Proposal":{"abi":[{"inputs":[{"internalType":"address","name":"initialAdmin","type":"address"},{"internalType":"address","name":"factoryAddress","type":"address"}],"stateMutability":"nonpayable","type":"constructor"},{"inputs":[],"name":"AccessControlBadConfirmation","type":"error"},{"inputs":[{"internalType":"address","name":"account","type":"address"},{"internalType":"bytes32","name":"neededRole","type":"bytes32"}],"name":"AccessControlUnauthorizedAccount","type":"error"},{"anonymous":false,"inputs":[{"indexed":true,"internalType":"address","name":"member","type":"address"},{"indexed":false,"internalType":"uint256","name":"newScore","type":"uint256"}],"name":"GlassScoreChanged","type":"event"},{"anonymous":false,"inputs":[{"indexed":true,"internalType":"uint256","name":"id","type":"uint256"},{"indexed":true,"internalType":"address","name":"proposer","type":"address"}],"name":"ProposalCreated","type":"event"},{"anonymous":false,"inputs":[{"indexed":true,"internalType":"uint256","name":"id","type":"uint256"},{"indexed":false,"internalType":"enum Proposal.Status","name":"status","type":"uint8"}],"name":"ProposalStatusChanged","type":"event"},{"anonymous":false,"inputs":[{"indexed":true,"internalType":"bytes32","name":"role","type":"bytes32"},{"indexed":true,"internalType":"bytes32","name":"previousAdminRole","type":"bytes32"},{"indexed":true,"internalType":"bytes32","name":"newAdminRole","type":"bytes32"}],"name":"RoleAdminChanged","type":"event"},{"anonymous":false,"inputs":[{"indexed":true,"internalType":"bytes32","name":"role","type":"bytes32"},{"indexed":true,"internalType":"address","name":"account","type":"address"},{"indexed":true,"internalType":"address","name":"sender","type":"address"}],"name":"RoleGranted","type":"event"},{"anonymous":false,"inputs":[{"indexed":true,"internalType":"bytes32","name":"role","type":"bytes32"},{"indexed":true,"internalType":"address","name":"account","type":"address"},{"indexed":true,"internalType":"address","name":"sender","type":"address"}],"name":"RoleRevoked","type":"event"},{"anonymous":false,"inputs":[{"indexed":true,"internalType":"uint256","name":"proposalId","type":"uint256"},{"indexed":true,"internalType":"address","name":"voter","type":"address"},{"indexed":false,"internalType":"uint8","name":"choice","type":"uint8"}],"name":"Voted","type":"event"},{"inputs":[],"name":"DAO_ROLE","outputs":[{"internalType":"bytes32","name":"","type":"bytes32"}],"stateMutability":"view","type":"function"},{"inputs":[],"name":"DEFAULT_ADMIN_ROLE","outputs":[{"internalType":"bytes32","name":"","type":"bytes32"}],"stateMutability":"view","type":"function"},{"inputs":[],"name":"MEMBER_ROLE","outputs":[{"internalType":"bytes32","name":"","type":"bytes32"}],"stateMutability":"view","type":"function"},{"inputs":[{"internalType":"address","name":"member","type":"address"},{"internalType":"uint256","name":"amount","type":"uint256"}],"name":"addGlassScore","outputs":[],"stateMutability":"nonpayable","type":"function"},{"inputs":[{"internalType":"address","name":"member","type":"address"}],"name":"addPenaltyAndExpel","outputs":[],"stateMutability":"nonpayable","type":"function"},{"inputs":[{"components":[{"internalType":"string","name":"title","type":"string"},{"internalType":"string","name":"description","type":"string"},{"internalType":"uint256","name":"amount","type":"uint256"},{"internalType":"address payable","name":"recipient","type":"address"},{"internalType":"bool","name":"requireVote","type":"bool"},{"internalType":"string","name":"sanctionType","type":"string"},{"internalType":"uint256","name":"beforeValue","type":"uint256"},{"internalType":"uint256","name":"afterValue","type":"uint256"},{"internalType":"address","name":"targetMember","type":"address"}],"internalType":"struct Proposal.ProposalInput","name":"input","type":"tuple"},{"internalType":"address","name":"proposer","type":"address"}],"name":"createProposal","outputs":[{"internalType":"uint256","name":"","type":"uint256"}],"stateMutability":"nonpayable","type":"function"},{"inputs":[],"name":"daoAddress","outputs":[{"internalType":"address","name":"","type":"address"}],"stateMutability":"view","type":"function"},{"inputs":[{"internalType":"uint256","name":"proposalId","type":"uint256"},{"internalType":"address","name":"member","type":"address"}],"name":"forceAbstain","outputs":[],"stateMutability":"nonpayable","type":"function"},{"inputs":[],"name":"getAllMembers","outputs":[{"internalType":"address[]","name":"","type":"address[]"}],"stateMutability":"view","type":"function"},{"inputs":[],"name":"getAllProposals","outputs":[{"components":[{"internalType":"string","name":"title","type":"string"},{"internalType":"string","name":"description","type":"string"},{"internalType":"uint256","name":"amount","type":"uint256"},{"internalType":"address payable","name":"recipient","type":"address"},{"internalType":"enum Proposal.Status","name":"status","type":"uint8"},{"internalType":"uint256","name":"votesFor","type":"uint256"},{"internalType":"uint256","name":"votesAgainst","type":"uint256"},{"internalType":"uint256","name":"votesAbstain","type":"uint256"},{"internalType":"uint256","name":"startTime","type":"uint256"},{"internalType":"address","name":"proposer","type":"address"},{"internalType":"bool","name":"requireVote","type":"bool"},{"internalType":"string","name":"sanctionType","type":"string"},{"internalType":"uint256","name":"beforeValue","type":"uint256"},{"internalType":"uint256","name":"afterValue","type":"uint256"},{"internalType":"address","name":"targetMember","type":"address"}],"internalType":"struct Proposal.ProposalData[]","name":"","type":"tuple[]"}],"stateMutability":"view","type":"function"},{"inputs":[],"name":"getMemberCount","outputs":[{"internalType":"uint256","name":"","type":"uint256"}],"stateMutability":"view","type":"function"},{"inputs":[{"internalType":"uint256","name":"id","type":"uint256"}],"name":"getProposal","outputs":[{"components":[{"internalType":"string","name":"title","type":"string"},{"internalType":"string","name":"description","type":"string"},{"internalType":"uint256","name":"amount","type":"uint256"},{"internalType":"address payable","name":"recipient","type":"address"},{"internalType":"enum Proposal.Status","name":"status","type":"uint8"},{"internalType":"uint256","name":"votesFor","type":"uint256"},{"internalType":"uint256","name":"votesAgainst","type":"uint256"},{"internalType":"uint256","name":"votesAbstain","type":"uint256"},{"internalType":"uint256","name":"startTime","type":"uint256"},{"internalType":"address","name":"proposer","type":"address"},{"internalType":"bool","name":"requireVote","type":"bool"},{"internalType":"string","name":"sanctionType","type":"string"},{"internalType":"uint256","name":"beforeValue","type":"uint256"},{"internalType":"uint256","name":"afterValue","type":"uint256"},{"internalType":"address","name":"targetMember","type":"address"}],"internalType":"struct Proposal.ProposalData","name":"","type":"tuple"}],"stateMutability":"view","type":"function"},{"inputs":[{"internalType":"bytes32","name":"role","type":"bytes32"}],"name":"getRoleAdmin","outputs":[{"internalType":"bytes32","name":"","type":"bytes32"}],"stateMutability":"view","type":"function"},{"inputs":[{"internalType":"address","name":"","type":"address"}],"name":"glassScore","outputs":[{"internalType":"uint256","name":"","type":"uint256"}],"stateMutability":"view","type":"function"},{"inputs":[{"internalType":"bytes32","name":"role","type":"bytes32"},{"internalType":"address","name":"account","type":"address"}],"name":"grantRole","outputs":[],"stateMutability":"nonpayable","type":"function"},{"inputs":[{"internalType":"bytes32","name":"role","type":"bytes32"},{"internalType":"address","name":"account","type":"address"}],"name":"hasRole","outputs":[{"internalType":"bool","name":"","type":"bool"}],"stateMutability":"view","type":"function"},{"inputs":[{"internalType":"uint256","name":"","type":"uint256"},{"internalType":"address","name":"","type":"address"}],"name":"hasVoted","outputs":[{"internalType":"bool","name":"","type":"bool"}],"stateMutability":"view","type":"function"},{"inputs":[{"internalType":"uint256","name":"proposalId","type":"uint256"},{"internalType":"address","name":"voter","type":"address"}],"name":"hasVotedForProposal","outputs":[{"internalType":"bool","name":"","type":"bool"}],"stateMutability":"view","type":"function"},{"inputs":[{"internalType":"address","name":"","type":"address"}],"name":"isMember","outputs":[{"internalType":"bool","name":"","type":"bool"}],"stateMutability":"view","type":"function"},{"inputs":[{"internalType":"uint256","name":"","type":"uint256"}],"name":"members","outputs":[{"internalType":"address","name":"","type":"address"}],"stateMutability":"view","type":"function"},{"inputs":[{"internalType":"address","name":"","type":"address"}],"name":"penaltyCount","outputs":[{"internalType":"uint256","name":"","type":"uint256"}],"stateMutability":"view","type":"function"},{"inputs":[{"internalType":"uint256","name":"","type":"uint256"}],"name":"proposals","outputs":[{"internalType":"string","name":"title","type":"string"},{"internalType":"string","name":"description","type":"string"},{"internalType":"uint256","name":"amount","type":"uint256"},{"internalType":"address payable","name":"recipient","type":"address"},{"internalType":"enum Proposal.Status","name":"status","type":"uint8"},{"internalType":"uint256","name":"votesFor","type":"uint256"},{"internalType":"uint256","name":"votesAgainst","type":"uint256"},{"internalType":"uint256","name":"votesAbstain","type":"uint256"},{"internalType":"uint256","name":"startTime","type":"uint256"},{"internalType":"address","name":"proposer","type":"address"},{"internalType":"bool","name":"requireVote","type":"bool"},{"internalType":"string","name":"sanctionType","type":"string"},{"internalType":"uint256","name":"beforeValue","type":"uint256"},{"internalType":"uint256","name":"afterValue","type":"uint256"},{"internalType":"address","name":"targetMember","type":"address"}],"stateMutability":"view","type":"function"},{"inputs":[],"name":"renounceFactoryAdminRole","outputs":[],"stateMutability":"nonpayable","type":"function"},{"inputs":[{"internalType":"bytes32","name":"role","type":"bytes32"},{"internalType":"address","name":"callerConfirmation","type":"address"}],"name":"renounceRole","outputs":[],"stateMutability":"nonpayable","type":"function"},{"inputs":[{"internalType":"bytes32","name":"role","type":"bytes32"},{"internalType":"address","name":"account","type":"address"}],"name":"revokeRole","outputs":[],"stateMutability":"nonpayable","type":"function"},{"inputs":[{"internalType":"address","name":"_dao","type":"address"}],"name":"setDaoAddress","outputs":[],"stateMutability":"nonpayable","type":"function"},{"inputs":[{"internalType":"uint256","name":"id","type":"uint256"},{"internalType":"enum Proposal.Status","name":"status","type":"uint8"}],"name":"setProposalStatus","outputs":[],"stateMutability":"nonpayable","type":"function"},{"inputs":[{"internalType":"address","name":"member","type":"address"},{"internalType":"uint256","name":"amount","type":"uint256"}],"name":"subGlassScore","outputs":[],"stateMutability":"nonpayable","type":"function"},{"inputs":[{"internalType":"bytes4","name":"interfaceId","type":"bytes4"}],"name":"supportsInterface","outputs":[{"internalType":"bool","name":"","type":"bool"}],"stateMutability":"view","type":"function"},{"inputs":[{"internalType":"uint256","name":"proposalId","type":"uint256"},{"internalType":"uint8","name":"choice","type":"uint8"},{"internalType":"address","name":"voter","type":"address"}],"name":"vote","outputs":[],"stateMutability":"nonpayable","type":"function"}],"evm":{"bytecode":{"linkReferences":{},"object":"6080346200020c57620023e4601f38829003908101601f19168301906001600160401b038211848310176200021157808491604094859485528339810103126200020c576200004e8262000227565b906200005e602080940162000227565b926200006a836200023c565b506001600160a01b0393808516620001f9575b50600080516020620023c48339815191529260009484865285835260018487200154808752848720338852845260ff858820541615620001dc5750620000c382620002bc565b5060065468010000000000000000811015620001c8576001810180600655811015620001b457908693929160068552838520019116908160018060a01b031982541617905580835260078252838320600160ff19825416179055600482526032848420557fdb51946147af8f68f24b69cdb99d868cc4b53b75dce4e05d8f590bcf5281051c82855160328152a283825252600181842001917fbd79b86ffe0ab8e8776151514217cd7cacd52c909f66475c3af44e129f0b00ff8354927f3b5d4cc60d3ec3516ee8ae083bd60934f6eb2a6c54b1229985c41bfb092b2603809555519480a461205690816200034e8239f35b634e487b7160e01b87526032600452602487fd5b634e487b7160e01b87526041600452602487fd5b60449085519063e2517d3f60e01b82523360048301526024820152fd5b62000204906200023c565b50386200007d565b600080fd5b634e487b7160e01b600052604160045260246000fd5b51906001600160a01b03821682036200020c57565b6001600160a01b031660008181527fad3228b676f7d3cd4284a5443f17f1962b36e491b30a40b2405849e597ba5fb5602052604081205490919060ff16620002b857818052816020526040822081835260205260408220600160ff198254161790553391600080516020620023a48339815191528180a4600190565b5090565b6001600160a01b031660008181527f30710e496c9a8631e387d1ff5062c226d4ce9c9e008bff1f22ae157290ccbd626020526040812054909190600080516020620023c48339815191529060ff166200034857808352826020526040832082845260205260408320600160ff19825416179055600080516020620023a4833981519152339380a4600190565b50509056fe6080604052600436101561001257600080fd5b60003560e01c8063013cf08b146115e557806301ffc9a71461158f57806319cff706146113c05780631f56d126146113865780632131c68c1461135d578063248a9ca31461132e5780632b72ee511461123d5780632f2ff15d1461115057806336568abe146111095780634385963214610ff8578063488cba40146110875780635daf08ca1461104557806362d4f89314610ff85780637c0f6b3514610f4d57806391d1485414610f0057806391dcd5aa14610e83578063997072f714610e655780639a3cac6a14610de4578063a10f469e14610dbb578063a217fddf14610d9f578063a230c52414610d60578063a462e50f14610cb2578063a9330b0e14610c78578063ba86f70a14610ba6578063c7f758a814610af9578063cbe9461414610a87578063cc9aa9ea14610435578063cceb68f514610343578063d547741f146101945763e9c265181461016657600080fd5b3461018f57600036600319011261018f576020604051600080516020611f6a8339815191528152f35b600080fd5b3461018f57604036600319011261018f576004356101b06118d0565b90806000526000602052600080516020611fea8339815191526001916101dc8360406000200154611b89565b6101e68482611ad0565b501480610321575b6101f457005b6001600160a01b039182166000818152600760205260408120805460ff19169055909290825b610233575b505050600090815260036020526040812055005b600680548083101561031a5783908661024b856118e6565b939054600394851b1c161461026c5750505061026690611c8d565b8261021a565b909291945060001993848201918211610304576102ba9361028f61029b936118e6565b9054911b1c16916118e6565b90919082549060031b9160018060a01b03809116831b921b1916179055565b815480156102ee5701906102e56102d0836118e6565b81549060018060a01b039060031b1b19169055565b5581808061021f565b634e487b7160e01b600052603160045260246000fd5b634e487b7160e01b600052601160045260246000fd5b505061021f565b506001600160a01b03821660009081526007602052604090205460ff166101ee565b3461018f57600036600319011261018f57600180546001600160401b03811161041f579060405190602061037c818560051b01846117a4565b838352808301938483600052826000206000915b8383106103f85750505050604051928184019082855251809152604084019160408260051b86010195926000905b8382106103cb5786880387f35b909192939483806103e7839a603f198b82030186528951611901565b9997019594939190910191016103be565b94600d8582999761040b859a989a611e6e565b815201920192019190969496959395610390565b634e487b7160e01b600052604160045260246000fd5b3461018f5760031960403682011261018f576001600160401b036004351161018f57610120600435600401916004353603011261018f576104746118d0565b9061047d611b33565b6104878180611dd2565b919061049860246004350183611dd2565b909290919060043560640135906001600160a01b038216820361018f576084600435013590811515820361018f576104d69060a46004350190611dd2565b60043561010401359691949093916001600160a01b038816880361018f576105779661051361051c936040519b61050c8d611788565b3691611e04565b8a523691611e04565b60208801526004356044013560408801526001600160a01b03908116606088015260006080880181905260a0880181905260c0880181905260e088015242610100880152871661012087015215156101408601523691611e04565b61016083015260043560c481013561018084015260e401356101a08301526001600160a01b03166101c0820152600154600160401b81101561041f578060016105c39201600155611719565b610a7157815180519093906001600160401b03811161041f576105e6835461174e565b601f8111610a2d575b506020601f82116001146109c45781929394956000926109b9575b50508160011b916000199060031b1c19161782555b602083015180519093906001600160401b03811161041f57610644600185015461174e565b601f8111610972575b506020601f82116001146109035781929394956000926108f8575b50508160011b916000199060031b1c19161760018401555b6040810151600284015560608101516003840180546001600160a01b0319166001600160a01b0392909216919091179055608081015160048110156108e2576106cc9060038501611e4a565b60a081810151600485015560c0820151600585015560e0820151600685015561010082015160078501556101208201516008850180546101408501516001600160a81b03199091166001600160a01b03939093169290921791151590921b60ff60a01b1617905561016081015180519093906001600160401b03811161041f57610759600983015461174e565b601f811161089b575b506020601f821160011461082a578190600c94959660009261081f575b50508160011b916000199060031b1c19161760098201555b610180830151600a8201556101a0830151600b8201556101c090920151910180546001600160a01b0319166001600160a01b03929092169190911790556001546000198101919082116103045760405160209290916001600160a01b0316817fcd423cc1203c0af96b9b3d68d73b3064a69de2d14450bb7181c5e5df2132b358600080a38152f35b01519050868061077f565b601f198216956009840160005260206000209660005b818110610883575091600c9596979184600195941061086a575b505050811b016009820155610797565b015160001960f88460031b161c1916905586808061085a565b83830151895560019098019760209384019301610840565b600983016000526020600020601f830160051c8101602084106108db575b601f830160051c820181106108cf575050610762565b600081556001016108b9565b50806108b9565b634e487b7160e01b600052602160045260246000fd5b015190508580610668565b6001850160005260206000209060005b601f198416811061095a575060019394959683601f19811610610941575b505050811b016001840155610680565b015160001960f88460031b161c19169055858080610931565b9091602060018192858b015181550193019101610913565b600185016000526020600020601f830160051c8101602084106109b2575b601f830160051c820181106109a657505061064d565b60008155600101610990565b5080610990565b01519050858061060a565b8360005260206000209060005b601f1984168110610a15575060019394959683601f198116106109fc575b505050811b01825561061f565b015160001960f88460031b161c191690558580806109ef565b9091602060018192858b0151815501930191016109d1565b836000526020600020601f830160051c810160208410610a6a575b601f830160051c82018110610a5e5750506105ef565b60008155600101610a48565b5080610a48565b634e487b7160e01b600052600060045260246000fd5b3461018f57604036600319011261018f57600435602435600481101561018f5760207f3346abf262ac5179e9052765fb72484e0baab1f356f08442bb7a3054147631de91610ad3611b33565b610ae9816003610ae287611719565b5001611e4a565b610af660405180926118ad565ba2005b3461018f57602036600319011261018f5760006101c0604051610b1b81611788565b60608152606060208201528260408201528260608201528260808201528260a08201528260c08201528260e0820152826101008201528261012082015282610140820152606061016082015282610180820152826101a08201520152610ba2610b8e610b88600435611719565b50611e6e565b604051918291602083526020830190611901565b0390f35b3461018f5760208060031936011261018f57610bc06118ba565b90610bc9611b33565b6001600160a01b038281166000818152600384526040902080546001810191908210610304575560005260038252600482604060002054926005541660405192838092639f1f43af60e01b82525afa928315610c6c57600093610c3c575b50501015610c3157005b610c3a90611c9c565b005b9080929350813d8311610c65575b610c5481836117a4565b8101031261018f5751908380610c27565b503d610c4a565b6040513d6000823e3d90fd5b3461018f57602036600319011261018f576001600160a01b03610c996118ba565b1660005260036020526020604060002054604051908152f35b3461018f57604036600319011261018f57600435610cce6118d0565b90610cd7611b33565b610ce081611719565b5081600052600260205260406000209260018060a01b0316928360005260205260ff6040600020541615610d1057005b6006908260005260026020526040600020846000526020526040600020600160ff1982541617905501610d438154611c8d565b905560008051602061200a833981519152602060405160028152a3005b3461018f57602036600319011261018f576001600160a01b03610d816118ba565b166000526007602052602060ff604060002054166040519015158152f35b3461018f57600036600319011261018f57602060405160008152f35b3461018f57600036600319011261018f576020604051600080516020611fea8339815191528152f35b3461018f57602036600319011261018f57610dfd6118ba565b33600090815260008051602061202a833981519152602052604090205460ff1615610e4657600580546001600160a01b0319166001600160a01b038316179055610c3a90611baf565b60405163e2517d3f60e01b815233600482015260006024820152604490fd5b3461018f57600036600319011261018f576020600654604051908152f35b3461018f57600036600319011261018f5733600090815260008051602061202a833981519152602052604090205460ff1615610ec257610c3a336119da565b60405162461bcd60e51b815260206004820152601660248201527521b0b63632b91034b9903737ba1030b71030b236b4b760511b6044820152606490fd5b3461018f57604036600319011261018f57610f196118d0565b600435600052600060205260406000209060018060a01b0316600052602052602060ff604060002054166040519015158152f35b3461018f57600036600319011261018f5760405180600654808352602080930180916006600052846000209060005b86828210610fdb578686610f92828803836117a4565b604051928392818401908285525180915260408401929160005b828110610fbb57505050500390f35b83516001600160a01b031685528695509381019392810192600101610fac565b83546001600160a01b031685529093019260019283019201610f7c565b3461018f57604036600319011261018f576110116118d0565b600435600052600260205260406000209060018060a01b0316600052602052602060ff604060002054166040519015158152f35b3461018f57602036600319011261018f5760043560065481101561018f5761106e6020916118e6565b905460405160039290921b1c6001600160a01b03168152f35b3461018f57604036600319011261018f576110a06118ba565b6110a8611b33565b6001600160a01b03166000818152600460205260409020546024358101908110610304576020600080516020611faa83398151915291606481116000146111035760645b8460005260048352604060002055604051908152a2005b806110ec565b3461018f57604036600319011261018f576111226118d0565b336001600160a01b0382160361113e57610c3a90600435611ad0565b60405163334bd91960e11b8152600490fd5b3461018f57604036600319011261018f57600435600080516020611fea83398151915261117b6118d0565b91806000526000602052611196600160406000200154611b89565b6111a08382611c26565b50148061121a575b6111ae57005b600654600160401b81101561041f578161029b8260016111d194016006556118e6565b60018060a01b03168060005260076020526040600020600160ff1982541617905560046020526032604060002055600080516020611faa833981519152602060405160328152a2005b506001600160a01b03811660009081526007602052604090205460ff16156111a8565b3461018f57604036600319011261018f576112566118ba565b602435611261611b33565b6001600160a01b0382811660008181526004602090815260409091205490939192918481831061132057508103908111610304576004918491935b8060005283835284604060002055600080516020611faa83398151915283604051878152a2600554166040519283809263295e4f4160e11b82525afa928315610c6c576000936112f0575b505010610c3157005b9080929350813d8311611319575b61130881836117a4565b8101031261018f57519083806112e7565b503d6112fe565b91505060049160009361129c565b3461018f57602036600319011261018f5760043560005260006020526020600160406000200154604051908152f35b3461018f57600036600319011261018f576005546040516001600160a01b039091168152602090f35b3461018f57602036600319011261018f576001600160a01b036113a76118ba565b1660005260046020526020604060002054604051908152f35b3461018f57606036600319011261018f576004356024359060ff821680920361018f576044356001600160a01b038116929083900361018f57611401611b33565b61140a82611719565b509060ff600883015460a01c1615611554578260005260209160028352604060002085600052835260ff6040600020541661151f57600084815260028452604080822087835285529020805460ff191660011790558161148f5790600460008051602061200a8339815191529392016114838154611c8d565b90555b604051908152a3005b600182036114bd5790600560008051602061200a8339815191529392016114b68154611c8d565b9055611486565b600282036114e45790600660008051602061200a8339815191529392016114b68154611c8d565b60405162461bcd60e51b8152600481018490526013602482015272496e76616c696420766f74652063686f69636560681b6044820152606490fd5b60405162461bcd60e51b815260048101849052600d60248201526c105b1c9958591e481d9bdd1959609a1b6044820152606490fd5b60405162461bcd60e51b8152602060048201526013602482015272159bdd1a5b99c81b9bdd081c995c5d5a5c9959606a1b6044820152606490fd5b3461018f57602036600319011261018f5760043563ffffffff60e01b811680910361018f57602090637965db0b60e01b81149081156115d4575b506040519015158152f35b6301ffc9a760e01b149050826115c9565b3461018f57602036600319011261018f5760043560015481101561018f5761160c90611719565b50611616816117c7565b611622600183016117c7565b906002830154926003810154906004810154906005810154936006820154916007810154906008810154916009820161165a906117c7565b94600a83015498600b84015497600160a01b60019003600c8196015416996040519d8e9d8e996101e0808c528b016116919161186d565b8a810360208c01526116a29161186d565b98604001528c868216906060015260808d019060a01c60ff16906116c5916118ad565b60a08c015260c08b015260e08a0152610100890152811661012088015260a01c60ff1615156101408701528581036101608701526117029161186d565b926101808501526101a08401526101c08301520390f35b600154811015611738576001600052600d602060002091020190600090565b634e487b7160e01b600052603260045260246000fd5b90600182811c9216801561177e575b602083101461176857565b634e487b7160e01b600052602260045260246000fd5b91607f169161175d565b6101e081019081106001600160401b0382111761041f57604052565b601f909101601f19168101906001600160401b0382119082101761041f57604052565b90604051918260008254926117db8461174e565b90818452600194858116908160001461184a5750600114611807575b5050611805925003836117a4565b565b9093915060005260209081600020936000915b818310611832575050611805935082010138806117f7565b8554888401850152948501948794509183019161181a565b91505061180594506020925060ff191682840152151560051b82010138806117f7565b919082519283825260005b848110611899575050826000602080949584010152601f8019910116010190565b602081830181015184830182015201611878565b9060048210156108e25752565b600435906001600160a01b038216820361018f57565b602435906001600160a01b038216820361018f57565b60065481101561173857600660005260206000200190600090565b9061192a61191883516101e080855284019061186d565b6020840151838203602085015261186d565b91604081015160408301526119b560018060a01b039384606084015116606085015261195e608084015160808601906118ad565b60a083015160a085015260c083015160c085015260e083015160e08501526101008084015190850152610120858185015116908501526101408084015115159085015261016080840151908583039086015261186d565b9261018080830151908401526101a080830151908401526101c0809201511691015290565b6001600160a01b0316600081815260008051602061202a833981519152602052604081205490919060ff1615611a405781805281602052604082208183526020526040822060ff1981541690553391600080516020611fca8339815191528180a4600190565b5090565b6001600160a01b031660008181527f30710e496c9a8631e387d1ff5062c226d4ce9c9e008bff1f22ae157290ccbd626020526040812054909190600080516020611fea8339815191529060ff1615611acb5780835282602052604083208284526020526040832060ff198154169055600080516020611fca833981519152339380a4600190565b505090565b9060009180835282602052604083209160018060a01b03169182845260205260ff604084205416600014611acb5780835282602052604083208284526020526040832060ff198154169055600080516020611fca833981519152339380a4600190565b336000908152600080516020611f8a8339815191526020526040902054600080516020611f6a8339815191529060ff1615611b6b5750565b6044906040519063e2517d3f60e01b82523360048301526024820152fd5b80600052600060205260406000203360005260205260ff6040600020541615611b6b5750565b6001600160a01b03166000818152600080516020611f8a8339815191526020526040812054909190600080516020611f6a8339815191529060ff16611acb57808352826020526040832082845260205260408320600160ff19825416179055600080516020611f4a833981519152339380a4600190565b9060009180835282602052604083209160018060a01b03169182845260205260ff60408420541615600014611acb57808352826020526040832082845260205260408320600160ff19825416179055600080516020611f4a833981519152339380a4600190565b60001981146103045760010190565b6000600080516020611fea833981519152815280602052600191611cc583604084200154611b89565b611cce81611a44565b506001600160a01b03908116808352600760205260408320805491929160ff8116611cfc575b505050505050565b60ff1916905582845b611d24575b505081526003602052604081205550388080808080611cf4565b6006805480831015611dcb578385611d3b856118e6565b929054600393841b1c1614611d5c57505050611d5690611c8d565b84611d05565b9093919495965060001993848101908111611db7579161029b9161028f611d8395946118e6565b81548015611da3570190611d996102d0836118e6565b5581903880611d0a565b634e487b7160e01b85526031600452602485fd5b634e487b7160e01b88526011600452602488fd5b5050611d0a565b903590601e198136030182121561018f57018035906001600160401b03821161018f5760200191813603831361018f57565b9192916001600160401b03821161041f5760405191611e2d601f8201601f1916602001846117a4565b82948184528183011161018f578281602093846000960137010152565b9060048110156108e257815460ff60a01b191660a09190911b60ff60a01b16179055565b90604051611e7b81611788565b8092611e86816117c7565b8252611e94600182016117c7565b60208301526002810154604083015260038101546001600160a01b0380821660608501529060a01c60ff1660048110156108e2576101c092600c916080860152600481015460a0860152600581015460c0860152600681015460e0860152600781015461010086015260ff600882015484811661012088015260a01c161515610140860152611f25600982016117c7565b610160860152600a810154610180860152600b8101546101a086015201541691015256fe2f8788117e7eff1d82e926ec794901d17c78024a50270940304540a733656f0d3b5d4cc60d3ec3516ee8ae083bd60934f6eb2a6c54b1229985c41bfb092b2603c39f11a9300b508470eaed31f5842ba08c93181bcbe6a7fe34039aa7f2b80742db51946147af8f68f24b69cdb99d868cc4b53b75dce4e05d8f590bcf5281051cf6391f5c32d9c69d2a47ea670b442974b53935d1edc7fd64eb21e047a839171b829b824e2329e205435d941c9f13baf578548505283d29261236d8e6596d4636094f80829c509370abb2d421a078ba5926755d3de25d021dacf7bbd19853f7a2ad3228b676f7d3cd4284a5443f17f1962b36e491b30a40b2405849e597ba5fb5a164736f6c6343000814000a2f8788117e7eff1d82e926ec794901d17c78024a50270940304540a733656f0d829b824e2329e205435d941c9f13baf578548505283d29261236d8e6596d4636","opcodes":"PUSH1 0x80 CALLVALUE PUSH3 0x20C JUMPI PUSH3 0x23E4 PUSH1 0x1F CODESIZE DUP3 SWAP1 SUB SWAP1 DUP2 ADD PUSH1 0x1F NOT AND DUP4 ADD SWAP1 PUSH1 0x1 PUSH1 0x1 PUSH1 0x40 SHL SUB DUP3 GT DUP5 DUP4 LT OR PUSH3 0x211 JUMPI DUP1 DUP5 SWAP2 PUSH1 0x40 SWAP5 DUP6 SWAP5 DUP6 MSTORE DUP4 CODECOPY DUP2 ADD SUB SLT PUSH3 0x20C JUMPI PUSH3 0x4E DUP3 PUSH3 0x227 JUMP JUMPDEST SWAP1 PUSH3 0x5E PUSH1 0x20 DUP1 SWAP5 ADD PUSH3 0x227 JUMP JUMPDEST SWAP3 PUSH3 0x6A DUP4 PUSH3 0x23C JUMP JUMPDEST POP PUSH1 0x1 PUSH1 0x1 PUSH1 0xA0 SHL SUB SWAP4 DUP1 DUP6 AND PUSH3 0x1F9 JUMPI JUMPDEST POP PUSH1 0x0 DUP1 MLOAD PUSH1 0x20 PUSH3 0x23C4 DUP4 CODECOPY DUP2 MLOAD SWAP2 MSTORE SWAP3 PUSH1 0x0 SWAP5 DUP5 DUP7 MSTORE DUP6 DUP4 MSTORE PUSH1 0x1 DUP5 DUP8 KECCAK256 ADD SLOAD DUP1 DUP8 MSTORE DUP5 DUP8 KECCAK256 CALLER DUP9 MSTORE DUP5 MSTORE PUSH1 0xFF DUP6 DUP9 KECCAK256 SLOAD AND ISZERO PUSH3 0x1DC JUMPI POP PUSH3 0xC3 DUP3 PUSH3 0x2BC JUMP JUMPDEST POP PUSH1 0x6 SLOAD PUSH9 0x10000000000000000 DUP2 LT ISZERO PUSH3 0x1C8 JUMPI PUSH1 0x1 DUP2 ADD DUP1 PUSH1 0x6 SSTORE DUP2 LT ISZERO PUSH3 0x1B4 JUMPI SWAP1 DUP7 SWAP4 SWAP3 SWAP2 PUSH1 0x6 DUP6 MSTORE DUP4 DUP6 KECCAK256 ADD SWAP2 AND SWAP1 DUP2 PUSH1 0x1 DUP1 PUSH1 0xA0 SHL SUB NOT DUP3 SLOAD AND OR SWAP1 SSTORE DUP1 DUP4 MSTORE PUSH1 0x7 DUP3 MSTORE DUP4 DUP4 KECCAK256 PUSH1 0x1 PUSH1 0xFF NOT DUP3 SLOAD AND OR SWAP1 SSTORE PUSH1 0x4 DUP3 MSTORE PUSH1 0x32 DUP5 DUP5 KECCAK256 SSTORE PUSH32 0xDB51946147AF8F68F24B69CDB99D868CC4B53B75DCE4E05D8F590BCF5281051C DUP3 DUP6 MLOAD PUSH1 0x32 DUP2 MSTORE LOG2 DUP4 DUP3 MSTORE MSTORE PUSH1 0x1 DUP2 DUP5 KECCAK256 ADD SWAP2 PUSH32 0xBD79B86FFE0AB8E8776151514217CD7CACD52C909F66475C3AF44E129F0B00FF DUP4 SLOAD SWAP3 PUSH32 0x3B5D4CC60D3EC3516EE8AE083BD60934F6EB2A6C54B1229985C41BFB092B2603 DUP1 SWAP6 SSTORE MLOAD SWAP5 DUP1 LOG4 PUSH2 0x2056 SWAP1 DUP2 PUSH3 0x34E DUP3 CODECOPY RETURN JUMPDEST PUSH4 0x4E487B71 PUSH1 0xE0 SHL DUP8 MSTORE PUSH1 0x32 PUSH1 0x4 MSTORE PUSH1 0x24 DUP8 REVERT JUMPDEST PUSH4 0x4E487B71 PUSH1 0xE0 SHL DUP8 MSTORE PUSH1 0x41 PUSH1 0x4 MSTORE PUSH1 0x24 DUP8 REVERT JUMPDEST PUSH1 0x44 SWAP1 DUP6 MLOAD SWAP1 PUSH4 0xE2517D3F PUSH1 0xE0 SHL DUP3 MSTORE CALLER PUSH1 0x4 DUP4 ADD MSTORE PUSH1 0x24 DUP3 ADD MSTORE REVERT JUMPDEST PUSH3 0x204 SWAP1 PUSH3 0x23C JUMP JUMPDEST POP CODESIZE PUSH3 0x7D JUMP JUMPDEST PUSH1 0x0 DUP1 REVERT JUMPDEST PUSH4 0x4E487B71 PUSH1 0xE0 SHL PUSH1 0x0 MSTORE PUSH1 0x41 PUSH1 0x4 MSTORE PUSH1 0x24 PUSH1 0x0 REVERT JUMPDEST MLOAD SWAP1 PUSH1 0x1 PUSH1 0x1 PUSH1 0xA0 SHL SUB DUP3 AND DUP3 SUB PUSH3 0x20C JUMPI JUMP JUMPDEST PUSH1 0x1 PUSH1 0x1 PUSH1 0xA0 SHL SUB AND PUSH1 0x0 DUP2 DUP2 MSTORE PUSH32 0xAD3228B676F7D3CD4284A5443F17F1962B36E491B30A40B2405849E597BA5FB5 PUSH1 0x20 MSTORE PUSH1 0x40 DUP2 KECCAK256 SLOAD SWAP1 SWAP2 SWAP1 PUSH1 0xFF AND PUSH3 0x2B8 JUMPI DUP2 DUP1 MSTORE DUP2 PUSH1 0x20 MSTORE PUSH1 0x40 DUP3 KECCAK256 DUP2 DUP4 MSTORE PUSH1 0x20 MSTORE PUSH1 0x40 DUP3 KECCAK256 PUSH1 0x1 PUSH1 0xFF NOT DUP3 SLOAD AND OR SWAP1 SSTORE CALLER SWAP2 PUSH1 0x0 DUP1 MLOAD PUSH1 0x20 PUSH3 0x23A4 DUP4 CODECOPY DUP2 MLOAD SWAP2 MSTORE DUP2 DUP1 LOG4 PUSH1 0x1 SWAP1 JUMP JUMPDEST POP SWAP1 JUMP JUMPDEST PUSH1 0x1 PUSH1 0x1 PUSH1 0xA0 SHL SUB AND PUSH1 0x0 DUP2 DUP2 MSTORE PUSH32 0x30710E496C9A8631E387D1FF5062C226D4CE9C9E008BFF1F22AE157290CCBD62 PUSH1 0x20 MSTORE PUSH1 0x40 DUP2 KECCAK256 SLOAD SWAP1 SWAP2 SWAP1 PUSH1 0x0 DUP1 MLOAD PUSH1 0x20 PUSH3 0x23C4 DUP4 CODECOPY DUP2 MLOAD SWAP2 MSTORE SWAP1 PUSH1 0xFF AND PUSH3 0x348 JUMPI DUP1 DUP4 MSTORE DUP3 PUSH1 0x20 MSTORE PUSH1 0x40 DUP4 KECCAK256 DUP3 DUP5 MSTORE PUSH1 0x20 MSTORE PUSH1 0x40 DUP4 KECCAK256 PUSH1 0x1 PUSH1 0xFF NOT DUP3 SLOAD AND OR SWAP1 SSTORE PUSH1 0x0 DUP1 MLOAD PUSH1 0x20 PUSH3 0x23A4 DUP4 CODECOPY DUP2 MLOAD SWAP2 MSTORE CALLER SWAP4 DUP1 LOG4 PUSH1 0x1 SWAP1 JUMP JUMPDEST POP POP SWAP1 JUMP INVALID PUSH1 0x80 PUSH1 0x40 MSTORE PUSH1 0x4 CALLDATASIZE LT ISZERO PUSH2 0x12 JUMPI PUSH1 0x0 DUP1 REVERT JUMPDEST PUSH1 0x0 CALLDATALOAD PUSH1 0xE0 SHR DUP1 PUSH4 0x13CF08B EQ PUSH2 0x15E5 JUMPI DUP1 PUSH4 0x1FFC9A7 EQ PUSH2 0x158F JUMPI DUP1 PUSH4 0x19CFF706 EQ PUSH2 0x13C0 JUMPI DUP1 PUSH4 0x1F56D126 EQ PUSH2 0x1386 JUMPI DUP1 PUSH4 0x2131C68C EQ PUSH2 0x135D JUMPI DUP1 PUSH4 0x248A9CA3 EQ PUSH2 0x132E JUMPI DUP1 PUSH4 0x2B72EE51 EQ PUSH2 0x123D JUMPI DUP1 PUSH4 0x2F2FF15D EQ PUSH2 0x1150 JUMPI DUP1 PUSH4 0x36568ABE EQ PUSH2 0x1109 JUMPI DUP1 PUSH4 0x43859632 EQ PUSH2 0xFF8 JUMPI DUP1 PUSH4 0x488CBA40 EQ PUSH2 0x1087 JUMPI DUP1 PUSH4 0x5DAF08CA EQ PUSH2 0x1045 JUMPI DUP1 PUSH4 0x62D4F893 EQ PUSH2 0xFF8 JUMPI DUP1 PUSH4 0x7C0F6B35 EQ PUSH2 0xF4D JUMPI DUP1 PUSH4 0x91D14854 EQ PUSH2 0xF00 JUMPI DUP1 PUSH4 0x91DCD5AA EQ PUSH2 0xE83 JUMPI DUP1 PUSH4 0x997072F7 EQ PUSH2 0xE65 JUMPI DUP1 PUSH4 0x9A3CAC6A EQ PUSH2 0xDE4 JUMPI DUP1 PUSH4 0xA10F469E EQ PUSH2 0xDBB JUMPI DUP1 PUSH4 0xA217FDDF EQ PUSH2 0xD9F JUMPI DUP1 PUSH4 0xA230C524 EQ PUSH2 0xD60 JUMPI DUP1 PUSH4 0xA462E50F EQ PUSH2 0xCB2 JUMPI DUP1 PUSH4 0xA9330B0E EQ PUSH2 0xC78 JUMPI DUP1 PUSH4 0xBA86F70A EQ PUSH2 0xBA6 JUMPI DUP1 PUSH4 0xC7F758A8 EQ PUSH2 0xAF9 JUMPI DUP1 PUSH4 0xCBE94614 EQ PUSH2 0xA87 JUMPI DUP1 PUSH4 0xCC9AA9EA EQ PUSH2 0x435 JUMPI DUP1 PUSH4 0xCCEB68F5 EQ PUSH2 0x343 JUMPI DUP1 PUSH4 0xD547741F EQ PUSH2 0x194 JUMPI PUSH4 0xE9C26518 EQ PUSH2 0x166 JUMPI PUSH1 0x0 DUP1 REVERT JUMPDEST CALLVALUE PUSH2 0x18F JUMPI PUSH1 0x0 CALLDATASIZE PUSH1 0x3 NOT ADD SLT PUSH2 0x18F JUMPI PUSH1 0x20 PUSH1 0x40 MLOAD PUSH1 0x0 DUP1 MLOAD PUSH1 0x20 PUSH2 0x1F6A DUP4 CODECOPY DUP2 MLOAD SWAP2 MSTORE DUP2 MSTORE RETURN JUMPDEST PUSH1 0x0 DUP1 REVERT JUMPDEST CALLVALUE PUSH2 0x18F JUMPI PUSH1 0x40 CALLDATASIZE PUSH1 0x3 NOT ADD SLT PUSH2 0x18F JUMPI PUSH1 0x4 CALLDATALOAD PUSH2 0x1B0 PUSH2 0x18D0 JUMP JUMPDEST SWAP1 DUP1 PUSH1 0x0 MSTORE PUSH1 0x0 PUSH1 0x20 MSTORE PUSH1 0x0 DUP1 MLOAD PUSH1 0x20 PUSH2 0x1FEA DUP4 CODECOPY DUP2 MLOAD SWAP2 MSTORE PUSH1 0x1 SWAP2 PUSH2 0x1DC DUP4 PUSH1 0x40 PUSH1 0x0 KECCAK256 ADD SLOAD PUSH2 0x1B89 JUMP JUMPDEST PUSH2 0x1E6 DUP5 DUP3 PUSH2 0x1AD0 JUMP JUMPDEST POP EQ DUP1 PUSH2 0x321 JUMPI JUMPDEST PUSH2 0x1F4 JUMPI STOP JUMPDEST PUSH1 0x1 PUSH1 0x1 PUSH1 0xA0 SHL SUB SWAP2 DUP3 AND PUSH1 0x0 DUP2 DUP2 MSTORE PUSH1 0x7 PUSH1 0x20 MSTORE PUSH1 0x40 DUP2 KECCAK256 DUP1 SLOAD PUSH1 0xFF NOT AND SWAP1 SSTORE SWAP1 SWAP3 SWAP1 DUP3 JUMPDEST PUSH2 0x233 JUMPI JUMPDEST POP POP POP PUSH1 0x0 SWAP1 DUP2 MSTORE PUSH1 0x3 PUSH1 0x20 MSTORE PUSH1 0x40 DUP2 KECCAK256 SSTORE STOP JUMPDEST PUSH1 0x6 DUP1 SLOAD DUP1 DUP4 LT ISZERO PUSH2 0x31A JUMPI DUP4 SWAP1 DUP7 PUSH2 0x24B DUP6 PUSH2 0x18E6 JUMP JUMPDEST SWAP4 SWAP1 SLOAD PUSH1 0x3 SWAP5 DUP6 SHL SHR AND EQ PUSH2 0x26C JUMPI POP POP POP PUSH2 0x266 SWAP1 PUSH2 0x1C8D JUMP JUMPDEST DUP3 PUSH2 0x21A JUMP JUMPDEST SWAP1 SWAP3 SWAP2 SWAP5 POP PUSH1 0x0 NOT SWAP4 DUP5 DUP3 ADD SWAP2 DUP3 GT PUSH2 0x304 JUMPI PUSH2 0x2BA SWAP4 PUSH2 0x28F PUSH2 0x29B SWAP4 PUSH2 0x18E6 JUMP JUMPDEST SWAP1 SLOAD SWAP2 SHL SHR AND SWAP2 PUSH2 0x18E6 JUMP JUMPDEST SWAP1 SWAP2 SWAP1 DUP3 SLOAD SWAP1 PUSH1 0x3 SHL SWAP2 PUSH1 0x1 DUP1 PUSH1 0xA0 SHL SUB DUP1 SWAP2 AND DUP4 SHL SWAP3 SHL NOT AND OR SWAP1 SSTORE JUMP JUMPDEST DUP2 SLOAD DUP1 ISZERO PUSH2 0x2EE JUMPI ADD SWAP1 PUSH2 0x2E5 PUSH2 0x2D0 DUP4 PUSH2 0x18E6 JUMP JUMPDEST DUP2 SLOAD SWAP1 PUSH1 0x1 DUP1 PUSH1 0xA0 SHL SUB SWAP1 PUSH1 0x3 SHL SHL NOT AND SWAP1 SSTORE JUMP JUMPDEST SSTORE DUP2 DUP1 DUP1 PUSH2 0x21F JUMP JUMPDEST PUSH4 0x4E487B71 PUSH1 0xE0 SHL PUSH1 0x0 MSTORE PUSH1 0x31 PUSH1 0x4 MSTORE PUSH1 0x24 PUSH1 0x0 REVERT JUMPDEST PUSH4 0x4E487B71 PUSH1 0xE0 SHL PUSH1 0x0 MSTORE PUSH1 0x11 PUSH1 0x4 MSTORE PUSH1 0x24 PUSH1 0x0 REVERT JUMPDEST POP POP PUSH2 0x21F JUMP JUMPDEST POP PUSH1 0x1 PUSH1 0x1 PUSH1 0xA0 SHL SUB DUP3 AND PUSH1 0x0 SWAP1 DUP2 MSTORE PUSH1 0x7 PUSH1 0x20 MSTORE PUSH1 0x40 SWAP1 KECCAK256 SLOAD PUSH1 0xFF AND PUSH2 0x1EE JUMP JUMPDEST CALLVALUE PUSH2 0x18F JUMPI PUSH1 0x0 CALLDATASIZE PUSH1 0x3 NOT ADD SLT PUSH2 0x18F JUMPI PUSH1 0x1 DUP1 SLOAD PUSH1 0x1 PUSH1 0x1 PUSH1 0x40 SHL SUB DUP2 GT PUSH2 0x41F JUMPI SWAP1 PUSH1 0x40 MLOAD SWAP1 PUSH1 0x20 PUSH2 0x37C DUP2 DUP6 PUSH1 0x5 SHL ADD DUP5 PUSH2 0x17A4 JUMP JUMPDEST DUP4 DUP4 MSTORE DUP1 DUP4 ADD SWAP4 DUP5 DUP4 PUSH1 0x0 MSTORE DUP3 PUSH1 0x0 KECCAK256 PUSH1 0x0 SWAP2 JUMPDEST DUP4 DUP4 LT PUSH2 0x3F8 JUMPI POP POP POP POP PUSH1 0x40 MLOAD SWAP3 DUP2 DUP5 ADD SWAP1 DUP3 DUP6 MSTORE MLOAD DUP1 SWAP2 MSTORE PUSH1 0x40 DUP5 ADD SWAP2 PUSH1 0x40 DUP3 PUSH1 0x5 SHL DUP7 ADD ADD SWAP6 SWAP3 PUSH1 0x0 SWAP1 JUMPDEST DUP4 DUP3 LT PUSH2 0x3CB JUMPI DUP7 DUP9 SUB DUP8 RETURN JUMPDEST SWAP1 SWAP2 SWAP3 SWAP4 SWAP5 DUP4 DUP1 PUSH2 0x3E7 DUP4 SWAP11 PUSH1 0x3F NOT DUP12 DUP3 SUB ADD DUP7 MSTORE DUP10 MLOAD PUSH2 0x1901 JUMP JUMPDEST SWAP10 SWAP8 ADD SWAP6 SWAP5 SWAP4 SWAP2 SWAP1 SWAP2 ADD SWAP2 ADD PUSH2 0x3BE JUMP JUMPDEST SWAP5 PUSH1 0xD DUP6 DUP3 SWAP10 SWAP8 PUSH2 0x40B DUP6 SWAP11 SWAP9 SWAP11 PUSH2 0x1E6E JUMP JUMPDEST DUP2 MSTORE ADD SWAP3 ADD SWAP3 ADD SWAP2 SWAP1 SWAP7 SWAP5 SWAP7 SWAP6 SWAP4 SWAP6 PUSH2 0x390 JUMP JUMPDEST PUSH4 0x4E487B71 PUSH1 0xE0 SHL PUSH1 0x0 MSTORE PUSH1 0x41 PUSH1 0x4 MSTORE PUSH1 0x24 PUSH1 0x0 REVERT JUMPDEST CALLVALUE PUSH2 0x18F JUMPI PUSH1 0x3 NOT PUSH1 0x40 CALLDATASIZE DUP3 ADD SLT PUSH2 0x18F JUMPI PUSH1 0x1 PUSH1 0x1 PUSH1 0x40 SHL SUB PUSH1 0x4 CALLDATALOAD GT PUSH2 0x18F JUMPI PUSH2 0x120 PUSH1 0x4 CALLDATALOAD PUSH1 0x4 ADD SWAP2 PUSH1 0x4 CALLDATALOAD CALLDATASIZE SUB ADD SLT PUSH2 0x18F JUMPI PUSH2 0x474 PUSH2 0x18D0 JUMP JUMPDEST SWAP1 PUSH2 0x47D PUSH2 0x1B33 JUMP JUMPDEST PUSH2 0x487 DUP2 DUP1 PUSH2 0x1DD2 JUMP JUMPDEST SWAP2 SWAP1 PUSH2 0x498 PUSH1 0x24 PUSH1 0x4 CALLDATALOAD ADD DUP4 PUSH2 0x1DD2 JUMP JUMPDEST SWAP1 SWAP3 SWAP1 SWAP2 SWAP1 PUSH1 0x4 CALLDATALOAD PUSH1 0x64 ADD CALLDATALOAD SWAP1 PUSH1 0x1 PUSH1 0x1 PUSH1 0xA0 SHL SUB DUP3 AND DUP3 SUB PUSH2 0x18F JUMPI PUSH1 0x84 PUSH1 0x4 CALLDATALOAD ADD CALLDATALOAD SWAP1 DUP2 ISZERO ISZERO DUP3 SUB PUSH2 0x18F JUMPI PUSH2 0x4D6 SWAP1 PUSH1 0xA4 PUSH1 0x4 CALLDATALOAD ADD SWAP1 PUSH2 0x1DD2 JUMP JUMPDEST PUSH1 0x4 CALLDATALOAD PUSH2 0x104 ADD CALLDATALOAD SWAP7 SWAP2 SWAP5 SWAP1 SWAP4 SWAP2 PUSH1 0x1 PUSH1 0x1 PUSH1 0xA0 SHL SUB DUP9 AND DUP9 SUB PUSH2 0x18F JUMPI PUSH2 0x577 SWAP7 PUSH2 0x513 PUSH2 0x51C SWAP4 PUSH1 0x40 MLOAD SWAP12 PUSH2 0x50C DUP14 PUSH2 0x1788 JUMP JUMPDEST CALLDATASIZE SWAP2 PUSH2 0x1E04 JUMP JUMPDEST DUP11 MSTORE CALLDATASIZE SWAP2 PUSH2 0x1E04 JUMP JUMPDEST PUSH1 0x20 DUP9 ADD MSTORE PUSH1 0x4 CALLDATALOAD PUSH1 0x44 ADD CALLDATALOAD PUSH1 0x40 DUP9 ADD MSTORE PUSH1 0x1 PUSH1 0x1 PUSH1 0xA0 SHL SUB SWAP1 DUP2 AND PUSH1 0x60 DUP9 ADD MSTORE PUSH1 0x0 PUSH1 0x80 DUP9 ADD DUP2 SWAP1 MSTORE PUSH1 0xA0 DUP9 ADD DUP2 SWAP1 MSTORE PUSH1 0xC0 DUP9 ADD DUP2 SWAP1 MSTORE PUSH1 0xE0 DUP9 ADD MSTORE TIMESTAMP PUSH2 0x100 DUP9 ADD MSTORE DUP8 AND PUSH2 0x120 DUP8 ADD MSTORE ISZERO ISZERO PUSH2 0x140 DUP7 ADD MSTORE CALLDATASIZE SWAP2 PUSH2 0x1E04 JUMP JUMPDEST PUSH2 0x160 DUP4 ADD MSTORE PUSH1 0x4 CALLDATALOAD PUSH1 0xC4 DUP2 ADD CALLDATALOAD PUSH2 0x180 DUP5 ADD MSTORE PUSH1 0xE4 ADD CALLDATALOAD PUSH2 0x1A0 DUP4 ADD MSTORE PUSH1 0x1 PUSH1 0x1 PUSH1 0xA0 SHL SUB AND PUSH2 0x1C0 DUP3 ADD MSTORE PUSH1 0x1 SLOAD PUSH1 0x1 PUSH1 0x40 SHL DUP2 LT ISZERO PUSH2 0x41F JUMPI DUP1 PUSH1 0x1 PUSH2 0x5C3 SWAP3 ADD PUSH1 0x1 SSTORE PUSH2 0x1719 JUMP JUMPDEST PUSH2 0xA71 JUMPI DUP2 MLOAD DUP1 MLOAD SWAP1 SWAP4 SWAP1 PUSH1 0x1 PUSH1 0x1 PUSH1 0x40 SHL SUB DUP2 GT PUSH2 0x41F JUMPI PUSH2 0x5E6 DUP4 SLOAD PUSH2 0x174E JUMP JUMPDEST PUSH1 0x1F DUP2 GT PUSH2 0xA2D JUMPI JUMPDEST POP PUSH1 0x20 PUSH1 0x1F DUP3 GT PUSH1 0x1 EQ PUSH2 0x9C4 JUMPI DUP2 SWAP3 SWAP4 SWAP5 SWAP6 PUSH1 0x0 SWAP3 PUSH2 0x9B9 JUMPI JUMPDEST POP POP DUP2 PUSH1 0x1 SHL SWAP2 PUSH1 0x0 NOT SWAP1 PUSH1 0x3 SHL SHR NOT AND OR DUP3 SSTORE JUMPDEST PUSH1 0x20 DUP4 ADD MLOAD DUP1 MLOAD SWAP1 SWAP4 SWAP1 PUSH1 0x1 PUSH1 0x1 PUSH1 0x40 SHL SUB DUP2 GT PUSH2 0x41F JUMPI PUSH2 0x644 PUSH1 0x1 DUP6 ADD SLOAD PUSH2 0x174E JUMP JUMPDEST PUSH1 0x1F DUP2 GT PUSH2 0x972 JUMPI JUMPDEST POP PUSH1 0x20 PUSH1 0x1F DUP3 GT PUSH1 0x1 EQ PUSH2 0x903 JUMPI DUP2 SWAP3 SWAP4 SWAP5 SWAP6 PUSH1 0x0 SWAP3 PUSH2 0x8F8 JUMPI JUMPDEST POP POP DUP2 PUSH1 0x1 SHL SWAP2 PUSH1 0x0 NOT SWAP1 PUSH1 0x3 SHL SHR NOT AND OR PUSH1 0x1 DUP5 ADD SSTORE JUMPDEST PUSH1 0x40 DUP2 ADD MLOAD PUSH1 0x2 DUP5 ADD SSTORE PUSH1 0x60 DUP2 ADD MLOAD PUSH1 0x3 DUP5 ADD DUP1 SLOAD PUSH1 0x1 PUSH1 0x1 PUSH1 0xA0 SHL SUB NOT AND PUSH1 0x1 PUSH1 0x1 PUSH1 0xA0 SHL SUB SWAP3 SWAP1 SWAP3 AND SWAP2 SWAP1 SWAP2 OR SWAP1 SSTORE PUSH1 0x80 DUP2 ADD MLOAD PUSH1 0x4 DUP2 LT ISZERO PUSH2 0x8E2 JUMPI PUSH2 0x6CC SWAP1 PUSH1 0x3 DUP6 ADD PUSH2 0x1E4A JUMP JUMPDEST PUSH1 0xA0 DUP2 DUP2 ADD MLOAD PUSH1 0x4 DUP6 ADD SSTORE PUSH1 0xC0 DUP3 ADD MLOAD PUSH1 0x5 DUP6 ADD SSTORE PUSH1 0xE0 DUP3 ADD MLOAD PUSH1 0x6 DUP6 ADD SSTORE PUSH2 0x100 DUP3 ADD MLOAD PUSH1 0x7 DUP6 ADD SSTORE PUSH2 0x120 DUP3 ADD MLOAD PUSH1 0x8 DUP6 ADD DUP1 SLOAD PUSH2 0x140 DUP6 ADD MLOAD PUSH1 0x1 PUSH1 0x1 PUSH1 0xA8 SHL SUB NOT SWAP1 SWAP2 AND PUSH1 0x1 PUSH1 0x1 PUSH1 0xA0 SHL SUB SWAP4 SWAP1 SWAP4 AND SWAP3 SWAP1 SWAP3 OR SWAP2 ISZERO ISZERO SWAP1 SWAP3 SHL PUSH1 0xFF PUSH1 0xA0 SHL AND OR SWAP1 SSTORE PUSH2 0x160 DUP2 ADD MLOAD DUP1 MLOAD SWAP1 SWAP4 SWAP1 PUSH1 0x1 PUSH1 0x1 PUSH1 0x40 SHL SUB DUP2 GT PUSH2 0x41F JUMPI PUSH2 0x759 PUSH1 0x9 DUP4 ADD SLOAD PUSH2 0x174E JUMP JUMPDEST PUSH1 0x1F DUP2 GT PUSH2 0x89B JUMPI JUMPDEST POP PUSH1 0x20 PUSH1 0x1F DUP3 GT PUSH1 0x1 EQ PUSH2 0x82A JUMPI DUP2 SWAP1 PUSH1 0xC SWAP5 SWAP6 SWAP7 PUSH1 0x0 SWAP3 PUSH2 0x81F JUMPI JUMPDEST POP POP DUP2 PUSH1 0x1 SHL SWAP2 PUSH1 0x0 NOT SWAP1 PUSH1 0x3 SHL SHR NOT AND OR PUSH1 0x9 DUP3 ADD SSTORE JUMPDEST PUSH2 0x180 DUP4 ADD MLOAD PUSH1 0xA DUP3 ADD SSTORE PUSH2 0x1A0 DUP4 ADD MLOAD PUSH1 0xB DUP3 ADD SSTORE PUSH2 0x1C0 SWAP1 SWAP3 ADD MLOAD SWAP2 ADD DUP1 SLOAD PUSH1 0x1 PUSH1 0x1 PUSH1 0xA0 SHL SUB NOT AND PUSH1 0x1 PUSH1 0x1 PUSH1 0xA0 SHL SUB SWAP3 SWAP1 SWAP3 AND SWAP2 SWAP1 SWAP2 OR SWAP1 SSTORE PUSH1 0x1 SLOAD PUSH1 0x0 NOT DUP2 ADD SWAP2 SWAP1 DUP3 GT PUSH2 0x304 JUMPI PUSH1 0x40 MLOAD PUSH1 0x20 SWAP3 SWAP1 SWAP2 PUSH1 0x1 PUSH1 0x1 PUSH1 0xA0 SHL SUB AND DUP2 PUSH32 0xCD423CC1203C0AF96B9B3D68D73B3064A69DE2D14450BB7181C5E5DF2132B358 PUSH1 0x0 DUP1 LOG3 DUP2 MSTORE RETURN JUMPDEST ADD MLOAD SWAP1 POP DUP7 DUP1 PUSH2 0x77F JUMP JUMPDEST PUSH1 0x1F NOT DUP3 AND SWAP6 PUSH1 0x9 DUP5 ADD PUSH1 0x0 MSTORE PUSH1 0x20 PUSH1 0x0 KECCAK256 SWAP7 PUSH1 0x0 JUMPDEST DUP2 DUP2 LT PUSH2 0x883 JUMPI POP SWAP2 PUSH1 0xC SWAP6 SWAP7 SWAP8 SWAP2 DUP5 PUSH1 0x1 SWAP6 SWAP5 LT PUSH2 0x86A JUMPI JUMPDEST POP POP POP DUP2 SHL ADD PUSH1 0x9 DUP3 ADD SSTORE PUSH2 0x797 JUMP JUMPDEST ADD MLOAD PUSH1 0x0 NOT PUSH1 0xF8 DUP5 PUSH1 0x3 SHL AND SHR NOT AND SWAP1 SSTORE DUP7 DUP1 DUP1 PUSH2 0x85A JUMP JUMPDEST DUP4 DUP4 ADD MLOAD DUP10 SSTORE PUSH1 0x1 SWAP1 SWAP9 ADD SWAP8 PUSH1 0x20 SWAP4 DUP5 ADD SWAP4 ADD PUSH2 0x840 JUMP JUMPDEST PUSH1 0x9 DUP4 ADD PUSH1 0x0 MSTORE PUSH1 0x20 PUSH1 0x0 KECCAK256 PUSH1 0x1F DUP4 ADD PUSH1 0x5 SHR DUP2 ADD PUSH1 0x20 DUP5 LT PUSH2 0x8DB JUMPI JUMPDEST PUSH1 0x1F DUP4 ADD PUSH1 0x5 SHR DUP3 ADD DUP2 LT PUSH2 0x8CF JUMPI POP POP PUSH2 0x762 JUMP JUMPDEST PUSH1 0x0 DUP2 SSTORE PUSH1 0x1 ADD PUSH2 0x8B9 JUMP JUMPDEST POP DUP1 PUSH2 0x8B9 JUMP JUMPDEST PUSH4 0x4E487B71 PUSH1 0xE0 SHL PUSH1 0x0 MSTORE PUSH1 0x21 PUSH1 0x4 MSTORE PUSH1 0x24 PUSH1 0x0 REVERT JUMPDEST ADD MLOAD SWAP1 POP DUP6 DUP1 PUSH2 0x668 JUMP JUMPDEST PUSH1 0x1 DUP6 ADD PUSH1 0x0 MSTORE PUSH1 0x20 PUSH1 0x0 KECCAK256 SWAP1 PUSH1 0x0 JUMPDEST PUSH1 0x1F NOT DUP5 AND DUP2 LT PUSH2 0x95A JUMPI POP PUSH1 0x1 SWAP4 SWAP5 SWAP6 SWAP7 DUP4 PUSH1 0x1F NOT DUP2 AND LT PUSH2 0x941 JUMPI JUMPDEST POP POP POP DUP2 SHL ADD PUSH1 0x1 DUP5 ADD SSTORE PUSH2 0x680 JUMP JUMPDEST ADD MLOAD PUSH1 0x0 NOT PUSH1 0xF8 DUP5 PUSH1 0x3 SHL AND SHR NOT AND SWAP1 SSTORE DUP6 DUP1 DUP1 PUSH2 0x931 JUMP JUMPDEST SWAP1 SWAP2 PUSH1 0x20 PUSH1 0x1 DUP2 SWAP3 DUP6 DUP12 ADD MLOAD DUP2 SSTORE ADD SWAP4 ADD SWAP2 ADD PUSH2 0x913 JUMP JUMPDEST PUSH1 0x1 DUP6 ADD PUSH1 0x0 MSTORE PUSH1 0x20 PUSH1 0x0 KECCAK256 PUSH1 0x1F DUP4 ADD PUSH1 0x5 SHR DUP2 ADD PUSH1 0x20 DUP5 LT PUSH2 0x9B2 JUMPI JUMPDEST PUSH1 0x1F DUP4 ADD PUSH1 0x5 SHR DUP3 ADD DUP2 LT PUSH2 0x9A6 JUMPI POP POP PUSH2 0x64D JUMP JUMPDEST PUSH1 0x0 DUP2 SSTORE PUSH1 0x1 ADD PUSH2 0x990 JUMP JUMPDEST POP DUP1 PUSH2 0x990 JUMP JUMPDEST ADD MLOAD SWAP1 POP DUP6 DUP1 PUSH2 0x60A JUMP JUMPDEST DUP4 PUSH1 0x0 MSTORE PUSH1 0x20 PUSH1 0x0 KECCAK256 SWAP1 PUSH1 0x0 JUMPDEST PUSH1 0x1F NOT DUP5 AND DUP2 LT PUSH2 0xA15 JUMPI POP PUSH1 0x1 SWAP4 SWAP5 SWAP6 SWAP7 DUP4 PUSH1 0x1F NOT DUP2 AND LT PUSH2 0x9FC JUMPI JUMPDEST POP POP POP DUP2 SHL ADD DUP3 SSTORE PUSH2 0x61F JUMP JUMPDEST ADD MLOAD PUSH1 0x0 NOT PUSH1 0xF8 DUP5 PUSH1 0x3 SHL AND SHR NOT AND SWAP1 SSTORE DUP6 DUP1 DUP1 PUSH2 0x9EF JUMP JUMPDEST SWAP1 SWAP2 PUSH1 0x20 PUSH1 0x1 DUP2 SWAP3 DUP6 DUP12 ADD MLOAD DUP2 SSTORE ADD SWAP4 ADD SWAP2 ADD PUSH2 0x9D1 JUMP JUMPDEST DUP4 PUSH1 0x0 MSTORE PUSH1 0x20 PUSH1 0x0 KECCAK256 PUSH1 0x1F DUP4 ADD PUSH1 0x5 SHR DUP2 ADD PUSH1 0x20 DUP5 LT PUSH2 0xA6A JUMPI JUMPDEST PUSH1 0x1F DUP4 ADD PUSH1 0x5 SHR DUP3 ADD DUP2 LT PUSH2 0xA5E JUMPI POP POP PUSH2 0x5EF JUMP JUMPDEST PUSH1 0x0 DUP2 SSTORE PUSH1 0x1 ADD PUSH2 0xA48 JUMP JUMPDEST POP DUP1 PUSH2 0xA48 JUMP JUMPDEST PUSH4 0x4E487B71 PUSH1 0xE0 SHL PUSH1 0x0 MSTORE PUSH1 0x0 PUSH1 0x4 MSTORE PUSH1 0x24 PUSH1 0x0 REVERT JUMPDEST CALLVALUE PUSH2 0x18F JUMPI PUSH1 0x40 CALLDATASIZE PUSH1 0x3 NOT ADD SLT PUSH2 0x18F JUMPI PUSH1 0x4 CALLDATALOAD PUSH1 0x24 CALLDATALOAD PUSH1 0x4 DUP2 LT ISZERO PUSH2 0x18F JUMPI PUSH1 0x20 PUSH32 0x3346ABF262AC5179E9052765FB72484E0BAAB1F356F08442BB7A3054147631DE SWAP2 PUSH2 0xAD3 PUSH2 0x1B33 JUMP JUMPDEST PUSH2 0xAE9 DUP2 PUSH1 0x3 PUSH2 0xAE2 DUP8 PUSH2 0x1719 JUMP JUMPDEST POP ADD PUSH2 0x1E4A JUMP JUMPDEST PUSH2 0xAF6 PUSH1 0x40 MLOAD DUP1 SWAP3 PUSH2 0x18AD JUMP JUMPDEST LOG2 STOP JUMPDEST CALLVALUE PUSH2 0x18F JUMPI PUSH1 0x20 CALLDATASIZE PUSH1 0x3 NOT ADD SLT PUSH2 0x18F JUMPI PUSH1 0x0 PUSH2 0x1C0 PUSH1 0x40 MLOAD PUSH2 0xB1B DUP2 PUSH2 0x1788 JUMP JUMPDEST PUSH1 0x60 DUP2 MSTORE PUSH1 0x60 PUSH1 0x20 DUP3 ADD MSTORE DUP3 PUSH1 0x40 DUP3 ADD MSTORE DUP3 PUSH1 0x60 DUP3 ADD MSTORE DUP3 PUSH1 0x80 DUP3 ADD MSTORE DUP3 PUSH1 0xA0 DUP3 ADD MSTORE DUP3 PUSH1 0xC0 DUP3 ADD MSTORE DUP3 PUSH1 0xE0 DUP3 ADD MSTORE DUP3 PUSH2 0x100 DUP3 ADD MSTORE DUP3 PUSH2 0x120 DUP3 ADD MSTORE DUP3 PUSH2 0x140 DUP3 ADD MSTORE PUSH1 0x60 PUSH2 0x160 DUP3 ADD MSTORE DUP3 PUSH2 0x180 DUP3 ADD MSTORE DUP3 PUSH2 0x1A0 DUP3 ADD MSTORE ADD MSTORE PUSH2 0xBA2 PUSH2 0xB8E PUSH2 0xB88 PUSH1 0x4 CALLDATALOAD PUSH2 0x1719 JUMP JUMPDEST POP PUSH2 0x1E6E JUMP JUMPDEST PUSH1 0x40 MLOAD SWAP2 DUP3 SWAP2 PUSH1 0x20 DUP4 MSTORE PUSH1 0x20 DUP4 ADD SWAP1 PUSH2 0x1901 JUMP JUMPDEST SUB SWAP1 RETURN JUMPDEST CALLVALUE PUSH2 0x18F JUMPI PUSH1 0x20 DUP1 PUSH1 0x3 NOT CALLDATASIZE ADD SLT PUSH2 0x18F JUMPI PUSH2 0xBC0 PUSH2 0x18BA JUMP JUMPDEST SWAP1 PUSH2 0xBC9 PUSH2 0x1B33 JUMP JUMPDEST PUSH1 0x1 PUSH1 0x1 PUSH1 0xA0 SHL SUB DUP3 DUP2 AND PUSH1 0x0 DUP2 DUP2 MSTORE PUSH1 0x3 DUP5 MSTORE PUSH1 0x40 SWAP1 KECCAK256 DUP1 SLOAD PUSH1 0x1 DUP2 ADD SWAP2 SWAP1 DUP3 LT PUSH2 0x304 JUMPI SSTORE PUSH1 0x0 MSTORE PUSH1 0x3 DUP3 MSTORE PUSH1 0x4 DUP3 PUSH1 0x40 PUSH1 0x0 KECCAK256 SLOAD SWAP3 PUSH1 0x5 SLOAD AND PUSH1 0x40 MLOAD SWAP3 DUP4 DUP1 SWAP3 PUSH4 0x9F1F43AF PUSH1 0xE0 SHL DUP3 MSTORE GAS STATICCALL SWAP3 DUP4 ISZERO PUSH2 0xC6C JUMPI PUSH1 0x0 SWAP4 PUSH2 0xC3C JUMPI JUMPDEST POP POP LT ISZERO PUSH2 0xC31 JUMPI STOP JUMPDEST PUSH2 0xC3A SWAP1 PUSH2 0x1C9C JUMP JUMPDEST STOP JUMPDEST SWAP1 DUP1 SWAP3 SWAP4 POP DUP2 RETURNDATASIZE DUP4 GT PUSH2 0xC65 JUMPI JUMPDEST PUSH2 0xC54 DUP2 DUP4 PUSH2 0x17A4 JUMP JUMPDEST DUP2 ADD SUB SLT PUSH2 0x18F JUMPI MLOAD SWAP1 DUP4 DUP1 PUSH2 0xC27 JUMP JUMPDEST POP RETURNDATASIZE PUSH2 0xC4A JUMP JUMPDEST PUSH1 0x40 MLOAD RETURNDATASIZE PUSH1 0x0 DUP3 RETURNDATACOPY RETURNDATASIZE SWAP1 REVERT JUMPDEST CALLVALUE PUSH2 0x18F JUMPI PUSH1 0x20 CALLDATASIZE PUSH1 0x3 NOT ADD SLT PUSH2 0x18F JUMPI PUSH1 0x1 PUSH1 0x1 PUSH1 0xA0 SHL SUB PUSH2 0xC99 PUSH2 0x18BA JUMP JUMPDEST AND PUSH1 0x0 MSTORE PUSH1 0x3 PUSH1 0x20 MSTORE PUSH1 0x20 PUSH1 0x40 PUSH1 0x0 KECCAK256 SLOAD PUSH1 0x40 MLOAD SWAP1 DUP2 MSTORE RETURN JUMPDEST CALLVALUE PUSH2 0x18F JUMPI PUSH1 0x40 CALLDATASIZE PUSH1 0x3 NOT ADD SLT PUSH2 0x18F JUMPI PUSH1 0x4 CALLDATALOAD PUSH2 0xCCE PUSH2 0x18D0 JUMP JUMPDEST SWAP1 PUSH2 0xCD7 PUSH2 0x1B33 JUMP JUMPDEST PUSH2 0xCE0 DUP2 PUSH2 0x1719 JUMP JUMPDEST POP DUP2 PUSH1 0x0 MSTORE PUSH1 0x2 PUSH1 0x20 MSTORE PUSH1 0x40 PUSH1 0x0 KECCAK256 SWAP3 PUSH1 0x1 DUP1 PUSH1 0xA0 SHL SUB AND SWAP3 DUP4 PUSH1 0x0 MSTORE PUSH1 0x20 MSTORE PUSH1 0xFF PUSH1 0x40 PUSH1 0x0 KECCAK256 SLOAD AND ISZERO PUSH2 0xD10 JUMPI STOP JUMPDEST PUSH1 0x6 SWAP1 DUP3 PUSH1 0x0 MSTORE PUSH1 0x2 PUSH1 0x20 MSTORE PUSH1 0x40 PUSH1 0x0 KECCAK256 DUP5 PUSH1 0x0 MSTORE PUSH1 0x20 MSTORE PUSH1 0x40 PUSH1 0x0 KECCAK256 PUSH1 0x1 PUSH1 0xFF NOT DUP3 SLOAD AND OR SWAP1 SSTORE ADD PUSH2 0xD43 DUP2 SLOAD PUSH2 0x1C8D JUMP JUMPDEST SWAP1 SSTORE PUSH1 0x0 DUP1 MLOAD PUSH1 0x20 PUSH2 0x200A DUP4 CODECOPY DUP2 MLOAD SWAP2 MSTORE PUSH1 0x20 PUSH1 0x40 MLOAD PUSH1 0x2 DUP2 MSTORE LOG3 STOP JUMPDEST CALLVALUE PUSH2 0x18F JUMPI PUSH1 0x20 CALLDATASIZE PUSH1 0x3 NOT ADD SLT PUSH2 0x18F JUMPI PUSH1 0x1 PUSH1 0x1 PUSH1 0xA0 SHL SUB PUSH2 0xD81 PUSH2 0x18BA JUMP JUMPDEST AND PUSH1 0x0 MSTORE PUSH1 0x7 PUSH1 0x20 MSTORE PUSH1 0x20 PUSH1 0xFF PUSH1 0x40 PUSH1 0x0 KECCAK256 SLOAD AND PUSH1 0x40 MLOAD SWAP1 ISZERO ISZERO DUP2 MSTORE RETURN JUMPDEST CALLVALUE PUSH2 0x18F JUMPI PUSH1 0x0 CALLDATASIZE PUSH1 0x3 NOT ADD SLT PUSH2 0x18F JUMPI PUSH1 0x20 PUSH1 0x40 MLOAD PUSH1 0x0 DUP2 MSTORE RETURN JUMPDEST CALLVALUE PUSH2 0x18F JUMPI PUSH1 0x0 CALLDATASIZE PUSH1 0x3 NOT ADD SLT PUSH2 0x18F JUMPI PUSH1 0x20 PUSH1 0x40 MLOAD PUSH1 0x0 DUP1 MLOAD PUSH1 0x20 PUSH2 0x1FEA DUP4 CODECOPY DUP2 MLOAD SWAP2 MSTORE DUP2 MSTORE RETURN JUMPDEST CALLVALUE PUSH2 0x18F JUMPI PUSH1 0x20 CALLDATASIZE PUSH1 0x3 NOT ADD SLT PUSH2 0x18F JUMPI PUSH2 0xDFD PUSH2 0x18BA JUMP JUMPDEST CALLER PUSH1 0x0 SWAP1 DUP2 MSTORE PUSH1 0x0 DUP1 MLOAD PUSH1 0x20 PUSH2 0x202A DUP4 CODECOPY DUP2 MLOAD SWAP2 MSTORE PUSH1 0x20 MSTORE PUSH1 0x40 SWAP1 KECCAK256 SLOAD PUSH1 0xFF AND ISZERO PUSH2 0xE46 JUMPI PUSH1 0x5 DUP1 SLOAD PUSH1 0x1 PUSH1 0x1 PUSH1 0xA0 SHL SUB NOT AND PUSH1 0x1 PUSH1 0x1 PUSH1 0xA0 SHL SUB DUP4 AND OR SWAP1 SSTORE PUSH2 0xC3A SWAP1 PUSH2 0x1BAF JUMP JUMPDEST PUSH1 0x40 MLOAD PUSH4 0xE2517D3F PUSH1 0xE0 SHL DUP2 MSTORE CALLER PUSH1 0x4 DUP3 ADD MSTORE PUSH1 0x0 PUSH1 0x24 DUP3 ADD MSTORE PUSH1 0x44 SWAP1 REVERT JUMPDEST CALLVALUE PUSH2 0x18F JUMPI PUSH1 0x0 CALLDATASIZE PUSH1 0x3 NOT ADD SLT PUSH2 0x18F JUMPI PUSH1 0x20 PUSH1 0x6 SLOAD PUSH1 0x40 MLOAD SWAP1 DUP2 MSTORE RETURN JUMPDEST CALLVALUE PUSH2 0x18F JUMPI PUSH1 0x0 CALLDATASIZE PUSH1 0x3 NOT ADD SLT PUSH2 0x18F JUMPI CALLER PUSH1 0x0 SWAP1 DUP2 MSTORE PUSH1 0x0 DUP1 MLOAD PUSH1 0x20 PUSH2 0x202A DUP4 CODECOPY DUP2 MLOAD SWAP2 MSTORE PUSH1 0x20 MSTORE PUSH1 0x40 SWAP1 KECCAK256 SLOAD PUSH1 0xFF AND ISZERO PUSH2 0xEC2 JUMPI PUSH2 0xC3A CALLER PUSH2 0x19DA JUMP JUMPDEST PUSH1 0x40 MLOAD PUSH3 0x461BCD PUSH1 0xE5 SHL DUP2 MSTORE PUSH1 0x20 PUSH1 0x4 DUP3 ADD MSTORE PUSH1 0x16 PUSH1 0x24 DUP3 ADD MSTORE PUSH22 0x21B0B63632B91034B9903737BA1030B71030B236B4B7 PUSH1 0x51 SHL PUSH1 0x44 DUP3 ADD MSTORE PUSH1 0x64 SWAP1 REVERT JUMPDEST CALLVALUE PUSH2 0x18F JUMPI PUSH1 0x40 CALLDATASIZE PUSH1 0x3 NOT ADD SLT PUSH2 0x18F JUMPI PUSH2 0xF19 PUSH2 0x18D0 JUMP JUMPDEST PUSH1 0x4 CALLDATALOAD PUSH1 0x0 MSTORE PUSH1 0x0 PUSH1 0x20 MSTORE PUSH1 0x40 PUSH1 0x0 KECCAK256 SWAP1 PUSH1 0x1 DUP1 PUSH1 0xA0 SHL SUB AND PUSH1 0x0 MSTORE PUSH1 0x20 MSTORE PUSH1 0x20 PUSH1 0xFF PUSH1 0x40 PUSH1 0x0 KECCAK256 SLOAD AND PUSH1 0x40 MLOAD SWAP1 ISZERO ISZERO DUP2 MSTORE RETURN JUMPDEST CALLVALUE PUSH2 0x18F JUMPI PUSH1 0x0 CALLDATASIZE PUSH1 0x3 NOT ADD SLT PUSH2 0x18F JUMPI PUSH1 0x40 MLOAD DUP1 PUSH1 0x6 SLOAD DUP1 DUP4 MSTORE PUSH1 0x20 DUP1 SWAP4 ADD DUP1 SWAP2 PUSH1 0x6 PUSH1 0x0 MSTORE DUP5 PUSH1 0x0 KECCAK256 SWAP1 PUSH1 0x0 JUMPDEST DUP7 DUP3 DUP3 LT PUSH2 0xFDB JUMPI DUP7 DUP7 PUSH2 0xF92 DUP3 DUP9 SUB DUP4 PUSH2 0x17A4 JUMP JUMPDEST PUSH1 0x40 MLOAD SWAP3 DUP4 SWAP3 DUP2 DUP5 ADD SWAP1 DUP3 DUP6 MSTORE MLOAD DUP1 SWAP2 MSTORE PUSH1 0x40 DUP5 ADD SWAP3 SWAP2 PUSH1 0x0 JUMPDEST DUP3 DUP2 LT PUSH2 0xFBB JUMPI POP POP POP POP SUB SWAP1 RETURN JUMPDEST DUP4 MLOAD PUSH1 0x1 PUSH1 0x1 PUSH1 0xA0 SHL SUB AND DUP6 MSTORE DUP7 SWAP6 POP SWAP4 DUP2 ADD SWAP4 SWAP3 DUP2 ADD SWAP3 PUSH1 0x1 ADD PUSH2 0xFAC JUMP JUMPDEST DUP4 SLOAD PUSH1 0x1 PUSH1 0x1 PUSH1 0xA0 SHL SUB AND DUP6 MSTORE SWAP1 SWAP4 ADD SWAP3 PUSH1 0x1 SWAP3 DUP4 ADD SWAP3 ADD PUSH2 0xF7C JUMP JUMPDEST CALLVALUE PUSH2 0x18F JUMPI PUSH1 0x40 CALLDATASIZE PUSH1 0x3 NOT ADD SLT PUSH2 0x18F JUMPI PUSH2 0x1011 PUSH2 0x18D0 JUMP JUMPDEST PUSH1 0x4 CALLDATALOAD PUSH1 0x0 MSTORE PUSH1 0x2 PUSH1 0x20 MSTORE PUSH1 0x40 PUSH1 0x0 KECCAK256 SWAP1 PUSH1 0x1 DUP1 PUSH1 0xA0 SHL SUB AND PUSH1 0x0 MSTORE PUSH1 0x20 MSTORE PUSH1 0x20 PUSH1 0xFF PUSH1 0x40 PUSH1 0x0 KECCAK256 SLOAD AND PUSH1 0x40 MLOAD SWAP1 ISZERO ISZERO DUP2 MSTORE RETURN JUMPDEST CALLVALUE PUSH2 0x18F JUMPI PUSH1 0x20 CALLDATASIZE PUSH1 0x3 NOT ADD SLT PUSH2 0x18F JUMPI PUSH1 0x4 CALLDATALOAD PUSH1 0x6 SLOAD DUP2 LT ISZERO PUSH2 0x18F JUMPI PUSH2 0x106E PUSH1 0x20 SWAP2 PUSH2 0x18E6 JUMP JUMPDEST SWAP1 SLOAD PUSH1 0x40 MLOAD PUSH1 0x3 SWAP3 SWAP1 SWAP3 SHL SHR PUSH1 0x1 PUSH1 0x1 PUSH1 0xA0 SHL SUB AND DUP2 MSTORE RETURN JUMPDEST CALLVALUE PUSH2 0x18F JUMPI PUSH1 0x40 CALLDATASIZE PUSH1 0x3 NOT ADD SLT PUSH2 0x18F JUMPI PUSH2 0x10A0 PUSH2 0x18BA JUMP JUMPDEST PUSH2 0x10A8 PUSH2 0x1B33 JUMP JUMPDEST PUSH1 0x1 PUSH1 0x1 PUSH1 0xA0 SHL SUB AND PUSH1 0x0 DUP2 DUP2 MSTORE PUSH1 0x4 PUSH1 0x20 MSTORE PUSH1 0x40 SWAP1 KECCAK256 SLOAD PUSH1 0x24 CALLDATALOAD DUP2 ADD SWAP1 DUP2 LT PUSH2 0x304 JUMPI PUSH1 0x20 PUSH1 0x0 DUP1 MLOAD PUSH1 0x20 PUSH2 0x1FAA DUP4 CODECOPY DUP2 MLOAD SWAP2 MSTORE SWAP2 PUSH1 0x64 DUP2 GT PUSH1 0x0 EQ PUSH2 0x1103 JUMPI PUSH1 0x64 JUMPDEST DUP5 PUSH1 0x0 MSTORE PUSH1 0x4 DUP4 MSTORE PUSH1 0x40 PUSH1 0x0 KECCAK256 SSTORE PUSH1 0x40 MLOAD SWAP1 DUP2 MSTORE LOG2 STOP JUMPDEST DUP1 PUSH2 0x10EC JUMP JUMPDEST CALLVALUE PUSH2 0x18F JUMPI PUSH1 0x40 CALLDATASIZE PUSH1 0x3 NOT ADD SLT PUSH2 0x18F JUMPI PUSH2 0x1122 PUSH2 0x18D0 JUMP JUMPDEST CALLER PUSH1 0x1 PUSH1 0x1 PUSH1 0xA0 SHL SUB DUP3 AND SUB PUSH2 0x113E JUMPI PUSH2 0xC3A SWAP1 PUSH1 0x4 CALLDATALOAD PUSH2 0x1AD0 JUMP JUMPDEST PUSH1 0x40 MLOAD PUSH4 0x334BD919 PUSH1 0xE1 SHL DUP2 MSTORE PUSH1 0x4 SWAP1 REVERT JUMPDEST CALLVALUE PUSH2 0x18F JUMPI PUSH1 0x40 CALLDATASIZE PUSH1 0x3 NOT ADD SLT PUSH2 0x18F JUMPI PUSH1 0x4 CALLDATALOAD PUSH1 0x0 DUP1 MLOAD PUSH1 0x20 PUSH2 0x1FEA DUP4 CODECOPY DUP2 MLOAD SWAP2 MSTORE PUSH2 0x117B PUSH2 0x18D0 JUMP JUMPDEST SWAP2 DUP1 PUSH1 0x0 MSTORE PUSH1 0x0 PUSH1 0x20 MSTORE PUSH2 0x1196 PUSH1 0x1 PUSH1 0x40 PUSH1 0x0 KECCAK256 ADD SLOAD PUSH2 0x1B89 JUMP JUMPDEST PUSH2 0x11A0 DUP4 DUP3 PUSH2 0x1C26 JUMP JUMPDEST POP EQ DUP1 PUSH2 0x121A JUMPI JUMPDEST PUSH2 0x11AE JUMPI STOP JUMPDEST PUSH1 0x6 SLOAD PUSH1 0x1 PUSH1 0x40 SHL DUP2 LT ISZERO PUSH2 0x41F JUMPI DUP2 PUSH2 0x29B DUP3 PUSH1 0x1 PUSH2 0x11D1 SWAP5 ADD PUSH1 0x6 SSTORE PUSH2 0x18E6 JUMP JUMPDEST PUSH1 0x1 DUP1 PUSH1 0xA0 SHL SUB AND DUP1 PUSH1 0x0 MSTORE PUSH1 0x7 PUSH1 0x20 MSTORE PUSH1 0x40 PUSH1 0x0 KECCAK256 PUSH1 0x1 PUSH1 0xFF NOT DUP3 SLOAD AND OR SWAP1 SSTORE PUSH1 0x4 PUSH1 0x20 MSTORE PUSH1 0x32 PUSH1 0x40 PUSH1 0x0 KECCAK256 SSTORE PUSH1 0x0 DUP1 MLOAD PUSH1 0x20 PUSH2 0x1FAA DUP4 CODECOPY DUP2 MLOAD SWAP2 MSTORE PUSH1 0x20 PUSH1 0x40 MLOAD PUSH1 0x32 DUP2 MSTORE LOG2 STOP JUMPDEST POP PUSH1 0x1 PUSH1 0x1 PUSH1 0xA0 SHL SUB DUP2 AND PUSH1 0x0 SWAP1 DUP2 MSTORE PUSH1 0x7 PUSH1 0x20 MSTORE PUSH1 0x40 SWAP1 KECCAK256 SLOAD PUSH1 0xFF AND ISZERO PUSH2 0x11A8 JUMP JUMPDEST CALLVALUE PUSH2 0x18F JUMPI PUSH1 0x40 CALLDATASIZE PUSH1 0x3 NOT ADD SLT PUSH2 0x18F JUMPI PUSH2 0x1256 PUSH2 0x18BA JUMP JUMPDEST PUSH1 0x24 CALLDATALOAD PUSH2 0x1261 PUSH2 0x1B33 JUMP JUMPDEST PUSH1 0x1 PUSH1 0x1 PUSH1 0xA0 SHL SUB DUP3 DUP2 AND PUSH1 0x0 DUP2 DUP2 MSTORE PUSH1 0x4 PUSH1 0x20 SWAP1 DUP2 MSTORE PUSH1 0x40 SWAP1 SWAP2 KECCAK256 SLOAD SWAP1 SWAP4 SWAP2 SWAP3 SWAP2 DUP5 DUP2 DUP4 LT PUSH2 0x1320 JUMPI POP DUP2 SUB SWAP1 DUP2 GT PUSH2 0x304 JUMPI PUSH1 0x4 SWAP2 DUP5 SWAP2 SWAP4 JUMPDEST DUP1 PUSH1 0x0 MSTORE DUP4 DUP4 MSTORE DUP5 PUSH1 0x40 PUSH1 0x0 KECCAK256 SSTORE PUSH1 0x0 DUP1 MLOAD PUSH1 0x20 PUSH2 0x1FAA DUP4 CODECOPY DUP2 MLOAD SWAP2 MSTORE DUP4 PUSH1 0x40 MLOAD DUP8 DUP2 MSTORE LOG2 PUSH1 0x5 SLOAD AND PUSH1 0x40 MLOAD SWAP3 DUP4 DUP1 SWAP3 PUSH4 0x295E4F41 PUSH1 0xE1 SHL DUP3 MSTORE GAS STATICCALL SWAP3 DUP4 ISZERO PUSH2 0xC6C JUMPI PUSH1 0x0 SWAP4 PUSH2 0x12F0 JUMPI JUMPDEST POP POP LT PUSH2 0xC31 JUMPI STOP JUMPDEST SWAP1 DUP1 SWAP3 SWAP4 POP DUP2 RETURNDATASIZE DUP4 GT PUSH2 0x1319 JUMPI JUMPDEST PUSH2 0x1308 DUP2 DUP4 PUSH2 0x17A4 JUMP JUMPDEST DUP2 ADD SUB SLT PUSH2 0x18F JUMPI MLOAD SWAP1 DUP4 DUP1 PUSH2 0x12E7 JUMP JUMPDEST POP RETURNDATASIZE PUSH2 0x12FE JUMP JUMPDEST SWAP2 POP POP PUSH1 0x4 SWAP2 PUSH1 0x0 SWAP4 PUSH2 0x129C JUMP JUMPDEST CALLVALUE PUSH2 0x18F JUMPI PUSH1 0x20 CALLDATASIZE PUSH1 0x3 NOT ADD SLT PUSH2 0x18F JUMPI PUSH1 0x4 CALLDATALOAD PUSH1 0x0 MSTORE PUSH1 0x0 PUSH1 0x20 MSTORE PUSH1 0x20 PUSH1 0x1 PUSH1 0x40 PUSH1 0x0 KECCAK256 ADD SLOAD PUSH1 0x40 MLOAD SWAP1 DUP2 MSTORE RETURN JUMPDEST CALLVALUE PUSH2 0x18F JUMPI PUSH1 0x0 CALLDATASIZE PUSH1 0x3 NOT ADD SLT PUSH2 0x18F JUMPI PUSH1 0x5 SLOAD PUSH1 0x40 MLOAD PUSH1 0x1 PUSH1 0x1 PUSH1 0xA0 SHL SUB SWAP1 SWAP2 AND DUP2 MSTORE PUSH1 0x20 SWAP1 RETURN JUMPDEST CALLVALUE PUSH2 0x18F JUMPI PUSH1 0x20 CALLDATASIZE PUSH1 0x3 NOT ADD SLT PUSH2 0x18F JUMPI PUSH1 0x1 PUSH1 0x1 PUSH1 0xA0 SHL SUB PUSH2 0x13A7 PUSH2 0x18BA JUMP JUMPDEST AND PUSH1 0x0 MSTORE PUSH1 0x4 PUSH1 0x20 MSTORE PUSH1 0x20 PUSH1 0x40 PUSH1 0x0 KECCAK256 SLOAD PUSH1 0x40 MLOAD SWAP1 DUP2 MSTORE RETURN JUMPDEST CALLVALUE PUSH2 0x18F JUMPI PUSH1 0x60 CALLDATASIZE PUSH1 0x3 NOT ADD SLT PUSH2 0x18F JUMPI PUSH1 0x4 CALLDATALOAD PUSH1 0x24 CALLDATALOAD SWAP1 PUSH1 0xFF DUP3 AND DUP1 SWAP3 SUB PUSH2 0x18F JUMPI PUSH1 0x44 CALLDATALOAD PUSH1 0x1 PUSH1 0x1 PUSH1 0xA0 SHL SUB DUP2 AND SWAP3 SWAP1 DUP4 SWAP1 SUB PUSH2 0x18F JUMPI PUSH2 0x1401 PUSH2 0x1B33 JUMP JUMPDEST PUSH2 0x140A DUP3 PUSH2 0x1719 JUMP JUMPDEST POP SWAP1 PUSH1 0xFF PUSH1 0x8 DUP4 ADD SLOAD PUSH1 0xA0 SHR AND ISZERO PUSH2 0x1554 JUMPI DUP3 PUSH1 0x0 MSTORE PUSH1 0x20 SWAP2 PUSH1 0x2 DUP4 MSTORE PUSH1 0x40 PUSH1 0x0 KECCAK256 DUP6 PUSH1 0x0 MSTORE DUP4 MSTORE PUSH1 0xFF PUSH1 0x40 PUSH1 0x0 KECCAK256 SLOAD AND PUSH2 0x151F JUMPI PUSH1 0x0 DUP5 DUP2 MSTORE PUSH1 0x2 DUP5 MSTORE PUSH1 0x40 DUP1 DUP3 KECCAK256 DUP8 DUP4 MSTORE DUP6 MSTORE SWAP1 KECCAK256 DUP1 SLOAD PUSH1 0xFF NOT AND PUSH1 0x1 OR SWAP1 SSTORE DUP2 PUSH2 0x148F JUMPI SWAP1 PUSH1 0x4 PUSH1 0x0 DUP1 MLOAD PUSH1 0x20 PUSH2 0x200A DUP4 CODECOPY DUP2 MLOAD SWAP2 MSTORE SWAP4 SWAP3 ADD PUSH2 0x1483 DUP2 SLOAD PUSH2 0x1C8D JUMP JUMPDEST SWAP1 SSTORE JUMPDEST PUSH1 0x40 MLOAD SWAP1 DUP2 MSTORE LOG3 STOP JUMPDEST PUSH1 0x1 DUP3 SUB PUSH2 0x14BD JUMPI SWAP1 PUSH1 0x5 PUSH1 0x0 DUP1 MLOAD PUSH1 0x20 PUSH2 0x200A DUP4 CODECOPY DUP2 MLOAD SWAP2 MSTORE SWAP4 SWAP3 ADD PUSH2 0x14B6 DUP2 SLOAD PUSH2 0x1C8D JUMP JUMPDEST SWAP1 SSTORE PUSH2 0x1486 JUMP JUMPDEST PUSH1 0x2 DUP3 SUB PUSH2 0x14E4 JUMPI SWAP1 PUSH1 0x6 PUSH1 0x0 DUP1 MLOAD PUSH1 0x20 PUSH2 0x200A DUP4 CODECOPY DUP2 MLOAD SWAP2 MSTORE SWAP4 SWAP3 ADD PUSH2 0x14B6 DUP2 SLOAD PUSH2 0x1C8D JUMP JUMPDEST PUSH1 0x40 MLOAD PUSH3 0x461BCD PUSH1 0xE5 SHL DUP2 MSTORE PUSH1 0x4 DUP2 ADD DUP5 SWAP1 MSTORE PUSH1 0x13 PUSH1 0x24 DUP3 ADD MSTORE PUSH19 0x496E76616C696420766F74652063686F696365 PUSH1 0x68 SHL PUSH1 0x44 DUP3 ADD MSTORE PUSH1 0x64 SWAP1 REVERT JUMPDEST PUSH1 0x40 MLOAD PUSH3 0x461BCD PUSH1 0xE5 SHL DUP2 MSTORE PUSH1 0x4 DUP2 ADD DUP5 SWAP1 MSTORE PUSH1 0xD PUSH1 0x24 DUP3 ADD MSTORE PUSH13 0x105B1C9958591E481D9BDD1959 PUSH1 0x9A SHL PUSH1 0x44 DUP3 ADD MSTORE PUSH1 0x64 SWAP1 REVERT JUMPDEST PUSH1 0x40 MLOAD PUSH3 0x461BCD PUSH1 0xE5 SHL DUP2 MSTORE PUSH1 0x20 PUSH1 0x4 DUP3 ADD MSTORE PUSH1 0x13 PUSH1 0x24 DUP3 ADD MSTORE PUSH19 0x159BDD1A5B99C81B9BDD081C995C5D5A5C9959 PUSH1 0x6A SHL PUSH1 0x44 DUP3 ADD MSTORE PUSH1 0x64 SWAP1 REVERT JUMPDEST CALLVALUE PUSH2 0x18F JUMPI PUSH1 0x20 CALLDATASIZE PUSH1 0x3 NOT ADD SLT PUSH2 0x18F JUMPI PUSH1 0x4 CALLDATALOAD PUSH4 0xFFFFFFFF PUSH1 0xE0 SHL DUP2 AND DUP1 SWAP2 SUB PUSH2 0x18F JUMPI PUSH1 0x20 SWAP1 PUSH4 0x7965DB0B PUSH1 0xE0 SHL DUP2 EQ SWAP1 DUP2 ISZERO PUSH2 0x15D4 JUMPI JUMPDEST POP PUSH1 0x40 MLOAD SWAP1 ISZERO ISZERO DUP2 MSTORE RETURN JUMPDEST PUSH4 0x1FFC9A7 PUSH1 0xE0 SHL EQ SWAP1 POP DUP3 PUSH2 0x15C9 JUMP JUMPDEST CALLVALUE PUSH2 0x18F JUMPI PUSH1 0x20 CALLDATASIZE PUSH1 0x3 NOT ADD SLT PUSH2 0x18F JUMPI PUSH1 0x4 CALLDATALOAD PUSH1 0x1 SLOAD DUP2 LT ISZERO PUSH2 0x18F JUMPI PUSH2 0x160C SWAP1 PUSH2 0x1719 JUMP JUMPDEST POP PUSH2 0x1616 DUP2 PUSH2 0x17C7 JUMP JUMPDEST PUSH2 0x1622 PUSH1 0x1 DUP4 ADD PUSH2 0x17C7 JUMP JUMPDEST SWAP1 PUSH1 0x2 DUP4 ADD SLOAD SWAP3 PUSH1 0x3 DUP2 ADD SLOAD SWAP1 PUSH1 0x4 DUP2 ADD SLOAD SWAP1 PUSH1 0x5 DUP2 ADD SLOAD SWAP4 PUSH1 0x6 DUP3 ADD SLOAD SWAP2 PUSH1 0x7 DUP2 ADD SLOAD SWAP1 PUSH1 0x8 DUP2 ADD SLOAD SWAP2 PUSH1 0x9 DUP3 ADD PUSH2 0x165A SWAP1 PUSH2 0x17C7 JUMP JUMPDEST SWAP5 PUSH1 0xA DUP4 ADD SLOAD SWAP9 PUSH1 0xB DUP5 ADD SLOAD SWAP8 PUSH1 0x1 PUSH1 0xA0 SHL PUSH1 0x1 SWAP1 SUB PUSH1 0xC DUP2 SWAP7 ADD SLOAD AND SWAP10 PUSH1 0x40 MLOAD SWAP14 DUP15 SWAP14 DUP15 SWAP10 PUSH2 0x1E0 DUP1 DUP13 MSTORE DUP12 ADD PUSH2 0x1691 SWAP2 PUSH2 0x186D JUMP JUMPDEST DUP11 DUP2 SUB PUSH1 0x20 DUP13 ADD MSTORE PUSH2 0x16A2 SWAP2 PUSH2 0x186D JUMP JUMPDEST SWAP9 PUSH1 0x40 ADD MSTORE DUP13 DUP7 DUP3 AND SWAP1 PUSH1 0x60 ADD MSTORE PUSH1 0x80 DUP14 ADD SWAP1 PUSH1 0xA0 SHR PUSH1 0xFF AND SWAP1 PUSH2 0x16C5 SWAP2 PUSH2 0x18AD JUMP JUMPDEST PUSH1 0xA0 DUP13 ADD MSTORE PUSH1 0xC0 DUP12 ADD MSTORE PUSH1 0xE0 DUP11 ADD MSTORE PUSH2 0x100 DUP10 ADD MSTORE DUP2 AND PUSH2 0x120 DUP9 ADD MSTORE PUSH1 0xA0 SHR PUSH1 0xFF AND ISZERO ISZERO PUSH2 0x140 DUP8 ADD MSTORE DUP6 DUP2 SUB PUSH2 0x160 DUP8 ADD MSTORE PUSH2 0x1702 SWAP2 PUSH2 0x186D JUMP JUMPDEST SWAP3 PUSH2 0x180 DUP6 ADD MSTORE PUSH2 0x1A0 DUP5 ADD MSTORE PUSH2 0x1C0 DUP4 ADD MSTORE SUB SWAP1 RETURN JUMPDEST PUSH1 0x1 SLOAD DUP2 LT ISZERO PUSH2 0x1738 JUMPI PUSH1 0x1 PUSH1 0x0 MSTORE PUSH1 0xD PUSH1 0x20 PUSH1 0x0 KECCAK256 SWAP2 MUL ADD SWAP1 PUSH1 0x0 SWAP1 JUMP JUMPDEST PUSH4 0x4E487B71 PUSH1 0xE0 SHL PUSH1 0x0 MSTORE PUSH1 0x32 PUSH1 0x4 MSTORE PUSH1 0x24 PUSH1 0x0 REVERT JUMPDEST SWAP1 PUSH1 0x1 DUP3 DUP2 SHR SWAP3 AND DUP1 ISZERO PUSH2 0x177E JUMPI JUMPDEST PUSH1 0x20 DUP4 LT EQ PUSH2 0x1768 JUMPI JUMP JUMPDEST PUSH4 0x4E487B71 PUSH1 0xE0 SHL PUSH1 0x0 MSTORE PUSH1 0x22 PUSH1 0x4 MSTORE PUSH1 0x24 PUSH1 0x0 REVERT JUMPDEST SWAP2 PUSH1 0x7F AND SWAP2 PUSH2 0x175D JUMP JUMPDEST PUSH2 0x1E0 DUP2 ADD SWAP1 DUP2 LT PUSH1 0x1 PUSH1 0x1 PUSH1 0x40 SHL SUB DUP3 GT OR PUSH2 0x41F JUMPI PUSH1 0x40 MSTORE JUMP JUMPDEST PUSH1 0x1F SWAP1 SWAP2 ADD PUSH1 0x1F NOT AND DUP2 ADD SWAP1 PUSH1 0x1 PUSH1 0x1 PUSH1 0x40 SHL SUB DUP3 GT SWAP1 DUP3 LT OR PUSH2 0x41F JUMPI PUSH1 0x40 MSTORE JUMP JUMPDEST SWAP1 PUSH1 0x40 MLOAD SWAP2 DUP3 PUSH1 0x0 DUP3 SLOAD SWAP3 PUSH2 0x17DB DUP5 PUSH2 0x174E JUMP JUMPDEST SWAP1 DUP2 DUP5 MSTORE PUSH1 0x1 SWAP5 DUP6 DUP2 AND SWAP1 DUP2 PUSH1 0x0 EQ PUSH2 0x184A JUMPI POP PUSH1 0x1 EQ PUSH2 0x1807 JUMPI JUMPDEST POP POP PUSH2 0x1805 SWAP3 POP SUB DUP4 PUSH2 0x17A4 JUMP JUMPDEST JUMP JUMPDEST SWAP1 SWAP4 SWAP2 POP PUSH1 0x0 MSTORE PUSH1 0x20 SWAP1 DUP2 PUSH1 0x0 KECCAK256 SWAP4 PUSH1 0x0 SWAP2 JUMPDEST DUP2 DUP4 LT PUSH2 0x1832 JUMPI POP POP PUSH2 0x1805 SWAP4 POP DUP3 ADD ADD CODESIZE DUP1 PUSH2 0x17F7 JUMP JUMPDEST DUP6 SLOAD DUP9 DUP5 ADD DUP6 ADD MSTORE SWAP5 DUP6 ADD SWAP5 DUP8 SWAP5 POP SWAP2 DUP4 ADD SWAP2 PUSH2 0x181A JUMP JUMPDEST SWAP2 POP POP PUSH2 0x1805 SWAP5 POP PUSH1 0x20 SWAP3 POP PUSH1 0xFF NOT AND DUP3 DUP5 ADD MSTORE ISZERO ISZERO PUSH1 0x5 SHL DUP3 ADD ADD CODESIZE DUP1 PUSH2 0x17F7 JUMP JUMPDEST SWAP2 SWAP1 DUP3 MLOAD SWAP3 DUP4 DUP3 MSTORE PUSH1 0x0 JUMPDEST DUP5 DUP2 LT PUSH2 0x1899 JUMPI POP POP DUP3 PUSH1 0x0 PUSH1 0x20 DUP1 SWAP5 SWAP6 DUP5 ADD ADD MSTORE PUSH1 0x1F DUP1 NOT SWAP2 ADD AND ADD ADD SWAP1 JUMP JUMPDEST PUSH1 0x20 DUP2 DUP4 ADD DUP2 ADD MLOAD DUP5 DUP4 ADD DUP3 ADD MSTORE ADD PUSH2 0x1878 JUMP JUMPDEST SWAP1 PUSH1 0x4 DUP3 LT ISZERO PUSH2 0x8E2 JUMPI MSTORE JUMP JUMPDEST PUSH1 0x4 CALLDATALOAD SWAP1 PUSH1 0x1 PUSH1 0x1 PUSH1 0xA0 SHL SUB DUP3 AND DUP3 SUB PUSH2 0x18F JUMPI JUMP JUMPDEST PUSH1 0x24 CALLDATALOAD SWAP1 PUSH1 0x1 PUSH1 0x1 PUSH1 0xA0 SHL SUB DUP3 AND DUP3 SUB PUSH2 0x18F JUMPI JUMP JUMPDEST PUSH1 0x6 SLOAD DUP2 LT ISZERO PUSH2 0x1738 JUMPI PUSH1 0x6 PUSH1 0x0 MSTORE PUSH1 0x20 PUSH1 0x0 KECCAK256 ADD SWAP1 PUSH1 0x0 SWAP1 JUMP JUMPDEST SWAP1 PUSH2 0x192A PUSH2 0x1918 DUP4 MLOAD PUSH2 0x1E0 DUP1 DUP6 MSTORE DUP5 ADD SWAP1 PUSH2 0x186D JUMP JUMPDEST PUSH1 0x20 DUP5 ADD MLOAD DUP4 DUP3 SUB PUSH1 0x20 DUP6 ADD MSTORE PUSH2 0x186D JUMP JUMPDEST SWAP2 PUSH1 0x40 DUP2 ADD MLOAD PUSH1 0x40 DUP4 ADD MSTORE PUSH2 0x19B5 PUSH1 0x1 DUP1 PUSH1 0xA0 SHL SUB SWAP4 DUP5 PUSH1 0x60 DUP5 ADD MLOAD AND PUSH1 0x60 DUP6 ADD MSTORE PUSH2 0x195E PUSH1 0x80 DUP5 ADD MLOAD PUSH1 0x80 DUP7 ADD SWAP1 PUSH2 0x18AD JUMP JUMPDEST PUSH1 0xA0 DUP4 ADD MLOAD PUSH1 0xA0 DUP6 ADD MSTORE PUSH1 0xC0 DUP4 ADD MLOAD PUSH1 0xC0 DUP6 ADD MSTORE PUSH1 0xE0 DUP4 ADD MLOAD PUSH1 0xE0 DUP6 ADD MSTORE PUSH2 0x100 DUP1 DUP5 ADD MLOAD SWAP1 DUP6 ADD MSTORE PUSH2 0x120 DUP6 DUP2 DUP6 ADD MLOAD AND SWAP1 DUP6 ADD MSTORE PUSH2 0x140 DUP1 DUP5 ADD MLOAD ISZERO ISZERO SWAP1 DUP6 ADD MSTORE PUSH2 0x160 DUP1 DUP5 ADD MLOAD SWAP1 DUP6 DUP4 SUB SWAP1 DUP7 ADD MSTORE PUSH2 0x186D JUMP JUMPDEST SWAP3 PUSH2 0x180 DUP1 DUP4 ADD MLOAD SWAP1 DUP5 ADD MSTORE PUSH2 0x1A0 DUP1 DUP4 ADD MLOAD SWAP1 DUP5 ADD MSTORE PUSH2 0x1C0 DUP1 SWAP3 ADD MLOAD AND SWAP2 ADD MSTORE SWAP1 JUMP JUMPDEST PUSH1 0x1 PUSH1 0x1 PUSH1 0xA0 SHL SUB AND PUSH1 0x0 DUP2 DUP2 MSTORE PUSH1 0x0 DUP1 MLOAD PUSH1 0x20 PUSH2 0x202A DUP4 CODECOPY DUP2 MLOAD SWAP2 MSTORE PUSH1 0x20 MSTORE PUSH1 0x40 DUP2 KECCAK256 SLOAD SWAP1 SWAP2 SWAP1 PUSH1 0xFF AND ISZERO PUSH2 0x1A40 JUMPI DUP2 DUP1 MSTORE DUP2 PUSH1 0x20 MSTORE PUSH1 0x40 DUP3 KECCAK256 DUP2 DUP4 MSTORE PUSH1 0x20 MSTORE PUSH1 0x40 DUP3 KECCAK256 PUSH1 0xFF NOT DUP2 SLOAD AND SWAP1 SSTORE CALLER SWAP2 PUSH1 0x0 DUP1 MLOAD PUSH1 0x20 PUSH2 0x1FCA DUP4 CODECOPY DUP2 MLOAD SWAP2 MSTORE DUP2 DUP1 LOG4 PUSH1 0x1 SWAP1 JUMP JUMPDEST POP SWAP1 JUMP JUMPDEST PUSH1 0x1 PUSH1 0x1 PUSH1 0xA0 SHL SUB AND PUSH1 0x0 DUP2 DUP2 MSTORE PUSH32 0x30710E496C9A8631E387D1FF5062C226D4CE9C9E008BFF1F22AE157290CCBD62 PUSH1 0x20 MSTORE PUSH1 0x40 DUP2 KECCAK256 SLOAD SWAP1 SWAP2 SWAP1 PUSH1 0x0 DUP1 MLOAD PUSH1 0x20 PUSH2 0x1FEA DUP4 CODECOPY DUP2 MLOAD SWAP2 MSTORE SWAP1 PUSH1 0xFF AND ISZERO PUSH2 0x1ACB JUMPI DUP1 DUP4 MSTORE DUP3 PUSH1 0x20 MSTORE PUSH1 0x40 DUP4 KECCAK256 DUP3 DUP5 MSTORE PUSH1 0x20 MSTORE PUSH1 0x40 DUP4 KECCAK256 PUSH1 0xFF NOT DUP2 SLOAD AND SWAP1 SSTORE PUSH1 0x0 DUP1 MLOAD PUSH1 0x20 PUSH2 0x1FCA DUP4 CODECOPY DUP2 MLOAD SWAP2 MSTORE CALLER SWAP4 DUP1 LOG4 PUSH1 0x1 SWAP1 JUMP JUMPDEST POP POP SWAP1 JUMP JUMPDEST SWAP1 PUSH1 0x0 SWAP2 DUP1 DUP4 MSTORE DUP3 PUSH1 0x20 MSTORE PUSH1 0x40 DUP4 KECCAK256 SWAP2 PUSH1 0x1 DUP1 PUSH1 0xA0 SHL SUB AND SWAP2 DUP3 DUP5 MSTORE PUSH1 0x20 MSTORE PUSH1 0xFF PUSH1 0x40 DUP5 KECCAK256 SLOAD AND PUSH1 0x0 EQ PUSH2 0x1ACB JUMPI DUP1 DUP4 MSTORE DUP3 PUSH1 0x20 MSTORE PUSH1 0x40 DUP4 KECCAK256 DUP3 DUP5 MSTORE PUSH1 0x20 MSTORE PUSH1 0x40 DUP4 KECCAK256 PUSH1 0xFF NOT DUP2 SLOAD AND SWAP1 SSTORE PUSH1 0x0 DUP1 MLOAD PUSH1 0x20 PUSH2 0x1FCA DUP4 CODECOPY DUP2 MLOAD SWAP2 MSTORE CALLER SWAP4 DUP1 LOG4 PUSH1 0x1 SWAP1 JUMP JUMPDEST CALLER PUSH1 0x0 SWAP1 DUP2 MSTORE PUSH1 0x0 DUP1 MLOAD PUSH1 0x20 PUSH2 0x1F8A DUP4 CODECOPY DUP2 MLOAD SWAP2 MSTORE PUSH1 0x20 MSTORE PUSH1 0x40 SWAP1 KECCAK256 SLOAD PUSH1 0x0 DUP1 MLOAD PUSH1 0x20 PUSH2 0x1F6A DUP4 CODECOPY DUP2 MLOAD SWAP2 MSTORE SWAP1 PUSH1 0xFF AND ISZERO PUSH2 0x1B6B JUMPI POP JUMP JUMPDEST PUSH1 0x44 SWAP1 PUSH1 0x40 MLOAD SWAP1 PUSH4 0xE2517D3F PUSH1 0xE0 SHL DUP3 MSTORE CALLER PUSH1 0x4 DUP4 ADD MSTORE PUSH1 0x24 DUP3 ADD MSTORE REVERT JUMPDEST DUP1 PUSH1 0x0 MSTORE PUSH1 0x0 PUSH1 0x20 MSTORE PUSH1 0x40 PUSH1 0x0 KECCAK256 CALLER PUSH1 0x0 MSTORE PUSH1 0x20 MSTORE PUSH1 0xFF PUSH1 0x40 PUSH1 0x0 KECCAK256 SLOAD AND ISZERO PUSH2 0x1B6B JUMPI POP JUMP JUMPDEST PUSH1 0x1 PUSH1 0x1 PUSH1 0xA0 SHL SUB AND PUSH1 0x0 DUP2 DUP2 MSTORE PUSH1 0x0 DUP1 MLOAD PUSH1 0x20 PUSH2 0x1F8A DUP4 CODECOPY DUP2 MLOAD SWAP2 MSTORE PUSH1 0x20 MSTORE PUSH1 0x40 DUP2 KECCAK256 SLOAD SWAP1 SWAP2 SWAP1 PUSH1 0x0 DUP1 MLOAD PUSH1 0x20 PUSH2 0x1F6A DUP4 CODECOPY DUP2 MLOAD SWAP2 MSTORE SWAP1 PUSH1 0xFF AND PUSH2 0x1ACB JUMPI DUP1 DUP4 MSTORE DUP3 PUSH1 0x20 MSTORE PUSH1 0x40 DUP4 KECCAK256 DUP3 DUP5 MSTORE PUSH1 0x20 MSTORE PUSH1 0x40 DUP4 KECCAK256 PUSH1 0x1 PUSH1 0xFF NOT DUP3 SLOAD AND OR SWAP1 SSTORE PUSH1 0x0 DUP1 MLOAD PUSH1 0x20 PUSH2 0x1F4A DUP4 CODECOPY DUP2 MLOAD SWAP2 MSTORE CALLER SWAP4 DUP1 LOG4 PUSH1 0x1 SWAP1 JUMP JUMPDEST SWAP1 PUSH1 0x0 SWAP2 DUP1 DUP4 MSTORE DUP3 PUSH1 0x20 MSTORE PUSH1 0x40 DUP4 KECCAK256 SWAP2 PUSH1 0x1 DUP1 PUSH1 0xA0 SHL SUB AND SWAP2 DUP3 DUP5 MSTORE PUSH1 0x20 MSTORE PUSH1 0xFF PUSH1 0x40 DUP5 KECCAK256 SLOAD AND ISZERO PUSH1 0x0 EQ PUSH2 0x1ACB JUMPI DUP1 DUP4 MSTORE DUP3 PUSH1 0x20 MSTORE PUSH1 0x40 DUP4 KECCAK256 DUP3 DUP5 MSTORE PUSH1 0x20 MSTORE PUSH1 0x40 DUP4 KECCAK256 PUSH1 0x1 PUSH1 0xFF NOT DUP3 SLOAD AND OR SWAP1 SSTORE PUSH1 0x0 DUP1 MLOAD PUSH1 0x20 PUSH2 0x1F4A DUP4 CODECOPY DUP2 MLOAD SWAP2 MSTORE CALLER SWAP4 DUP1 LOG4 PUSH1 0x1 SWAP1 JUMP JUMPDEST PUSH1 0x0 NOT DUP2 EQ PUSH2 0x304 JUMPI PUSH1 0x1 ADD SWAP1 JUMP JUMPDEST PUSH1 0x0 PUSH1 0x0 DUP1 MLOAD PUSH1 0x20 PUSH2 0x1FEA DUP4 CODECOPY DUP2 MLOAD SWAP2 MSTORE DUP2 MSTORE DUP1 PUSH1 0x20 MSTORE PUSH1 0x1 SWAP2 PUSH2 0x1CC5 DUP4 PUSH1 0x40 DUP5 KECCAK256 ADD SLOAD PUSH2 0x1B89 JUMP JUMPDEST PUSH2 0x1CCE DUP2 PUSH2 0x1A44 JUMP JUMPDEST POP PUSH1 0x1 PUSH1 0x1 PUSH1 0xA0 SHL SUB SWAP1 DUP2 AND DUP1 DUP4 MSTORE PUSH1 0x7 PUSH1 0x20 MSTORE PUSH1 0x40 DUP4 KECCAK256 DUP1 SLOAD SWAP2 SWAP3 SWAP2 PUSH1 0xFF DUP2 AND PUSH2 0x1CFC JUMPI JUMPDEST POP POP POP POP POP POP JUMP JUMPDEST PUSH1 0xFF NOT AND SWAP1 SSTORE DUP3 DUP5 JUMPDEST PUSH2 0x1D24 JUMPI JUMPDEST POP POP DUP2 MSTORE PUSH1 0x3 PUSH1 0x20 MSTORE PUSH1 0x40 DUP2 KECCAK256 SSTORE POP CODESIZE DUP1 DUP1 DUP1 DUP1 DUP1 PUSH2 0x1CF4 JUMP JUMPDEST PUSH1 0x6 DUP1 SLOAD DUP1 DUP4 LT ISZERO PUSH2 0x1DCB JUMPI DUP4 DUP6 PUSH2 0x1D3B DUP6 PUSH2 0x18E6 JUMP JUMPDEST SWAP3 SWAP1 SLOAD PUSH1 0x3 SWAP4 DUP5 SHL SHR AND EQ PUSH2 0x1D5C JUMPI POP POP POP PUSH2 0x1D56 SWAP1 PUSH2 0x1C8D JUMP JUMPDEST DUP5 PUSH2 0x1D05 JUMP JUMPDEST SWAP1 SWAP4 SWAP2 SWAP5 SWAP6 SWAP7 POP PUSH1 0x0 NOT SWAP4 DUP5 DUP2 ADD SWAP1 DUP2 GT PUSH2 0x1DB7 JUMPI SWAP2 PUSH2 0x29B SWAP2 PUSH2 0x28F PUSH2 0x1D83 SWAP6 SWAP5 PUSH2 0x18E6 JUMP JUMPDEST DUP2 SLOAD DUP1 ISZERO PUSH2 0x1DA3 JUMPI ADD SWAP1 PUSH2 0x1D99 PUSH2 0x2D0 DUP4 PUSH2 0x18E6 JUMP JUMPDEST SSTORE DUP2 SWAP1 CODESIZE DUP1 PUSH2 0x1D0A JUMP JUMPDEST PUSH4 0x4E487B71 PUSH1 0xE0 SHL DUP6 MSTORE PUSH1 0x31 PUSH1 0x4 MSTORE PUSH1 0x24 DUP6 REVERT JUMPDEST PUSH4 0x4E487B71 PUSH1 0xE0 SHL DUP9 MSTORE PUSH1 0x11 PUSH1 0x4 MSTORE PUSH1 0x24 DUP9 REVERT JUMPDEST POP POP PUSH2 0x1D0A JUMP JUMPDEST SWAP1 CALLDATALOAD SWAP1 PUSH1 0x1E NOT DUP2 CALLDATASIZE SUB ADD DUP3 SLT ISZERO PUSH2 0x18F JUMPI ADD DUP1 CALLDATALOAD SWAP1 PUSH1 0x1 PUSH1 0x1 PUSH1 0x40 SHL SUB DUP3 GT PUSH2 0x18F JUMPI PUSH1 0x20 ADD SWAP2 DUP2 CALLDATASIZE SUB DUP4 SGT PUSH2 0x18F JUMPI JUMP JUMPDEST SWAP2 SWAP3 SWAP2 PUSH1 0x1 PUSH1 0x1 PUSH1 0x40 SHL SUB DUP3 GT PUSH2 0x41F JUMPI PUSH1 0x40 MLOAD SWAP2 PUSH2 0x1E2D PUSH1 0x1F DUP3 ADD PUSH1 0x1F NOT AND PUSH1 0x20 ADD DUP5 PUSH2 0x17A4 JUMP JUMPDEST DUP3 SWAP5 DUP2 DUP5 MSTORE DUP2 DUP4 ADD GT PUSH2 0x18F JUMPI DUP3 DUP2 PUSH1 0x20 SWAP4 DUP5 PUSH1 0x0 SWAP7 ADD CALLDATACOPY ADD ADD MSTORE JUMP JUMPDEST SWAP1 PUSH1 0x4 DUP2 LT ISZERO PUSH2 0x8E2 JUMPI DUP2 SLOAD PUSH1 0xFF PUSH1 0xA0 SHL NOT AND PUSH1 0xA0 SWAP2 SWAP1 SWAP2 SHL PUSH1 0xFF PUSH1 0xA0 SHL AND OR SWAP1 SSTORE JUMP JUMPDEST SWAP1 PUSH1 0x40 MLOAD PUSH2 0x1E7B DUP2 PUSH2 0x1788 JUMP JUMPDEST DUP1 SWAP3 PUSH2 0x1E86 DUP2 PUSH2 0x17C7 JUMP JUMPDEST DUP3 MSTORE PUSH2 0x1E94 PUSH1 0x1 DUP3 ADD PUSH2 0x17C7 JUMP JUMPDEST PUSH1 0x20 DUP4 ADD MSTORE PUSH1 0x2 DUP2 ADD SLOAD PUSH1 0x40 DUP4 ADD MSTORE PUSH1 0x3 DUP2 ADD SLOAD PUSH1 0x1 PUSH1 0x1 PUSH1 0xA0 SHL SUB DUP1 DUP3 AND PUSH1 0x60 DUP6 ADD MSTORE SWAP1 PUSH1 0xA0 SHR PUSH1 0xFF AND PUSH1 0x4 DUP2 LT ISZERO PUSH2 0x8E2 JUMPI PUSH2 0x1C0 SWAP3 PUSH1 0xC SWAP2 PUSH1 0x80 DUP7 ADD MSTORE PUSH1 0x4 DUP2 ADD SLOAD PUSH1 0xA0 DUP7 ADD MSTORE PUSH1 0x5 DUP2 ADD SLOAD PUSH1 0xC0 DUP7 ADD MSTORE PUSH1 0x6 DUP2 ADD SLOAD PUSH1 0xE0 DUP7 ADD MSTORE PUSH1 0x7 DUP2 ADD SLOAD PUSH2 0x100 DUP7 ADD MSTORE PUSH1 0xFF PUSH1 0x8 DUP3 ADD SLOAD DUP5 DUP2 AND PUSH2 0x120 DUP9 ADD MSTORE PUSH1 0xA0 SHR AND ISZERO ISZERO PUSH2 0x140 DUP7 ADD MSTORE PUSH2 0x1F25 PUSH1 0x9 DUP3 ADD PUSH2 0x17C7 JUMP JUMPDEST PUSH2 0x160 DUP7 ADD MSTORE PUSH1 0xA DUP2 ADD SLOAD PUSH2 0x180 DUP7 ADD MSTORE PUSH1 0xB DUP2 ADD SLOAD PUSH2 0x1A0 DUP7 ADD MSTORE ADD SLOAD AND SWAP2 ADD MSTORE JUMP INVALID 0x2F DUP8 DUP9 GT PUSH31 0x7EFF1D82E926EC794901D17C78024A50270940304540A733656F0D3B5D4CC6 0xD RETURNDATACOPY 0xC3 MLOAD PUSH15 0xE8AE083BD60934F6EB2A6C54B12299 DUP6 0xC4 SHL 0xFB MULMOD 0x2B 0x26 SUB 0xC3 SWAP16 GT 0xA9 ADDRESS SIGNEXTEND POP DUP5 PUSH17 0xEAED31F5842BA08C93181BCBE6A7FE3403 SWAP11 0xA7 CALLCODE 0xB8 SMOD TIMESTAMP 0xDB MLOAD SWAP5 PUSH2 0x47AF DUP16 PUSH9 0xF24B69CDB99D868CC4 0xB5 EXTCODESIZE PUSH22 0xDCE4E05D8F590BCF5281051CF6391F5C32D9C69D2A47 0xEA PUSH8 0xB442974B53935D1 0xED 0xC7 REVERT PUSH5 0xEB21E047A8 CODECOPY OR SHL DUP3 SWAP12 DUP3 0x4E 0x23 0x29 0xE2 SDIV NUMBER 0x5D SWAP5 SHR SWAP16 SGT 0xBA CREATE2 PUSH25 0x548505283D29261236D8E6596D4636094F80829C509370ABB2 0xD4 0x21 LOG0 PUSH25 0xBA5926755D3DE25D021DACF7BBD19853F7A2AD3228B676F7D3 0xCD TIMESTAMP DUP5 0xA5 PREVRANDAO EXTCODEHASH OR CALL SWAP7 0x2B CALLDATASIZE 0xE4 SWAP2 0xB3 EXP BLOCKHASH 0xB2 BLOCKHASH PC 0x49 0xE5 SWAP8 0xBA PUSH0 0xB5 LOG1 PUSH5 0x736F6C6343 STOP ADDMOD EQ STOP EXP 0x2F DUP8 DUP9 GT PUSH31 0x7EFF1D82E926EC794901D17C78024A50270940304540A733656F0D829B824E 0x23 0x29 0xE2 SDIV NUMBER 0x5D SWAP5 SHR SWAP16 SGT 0xBA CREATE2 PUSH25 0x548505283D29261236D8E6596D463600000000000000000000 "},"methodIdentifiers":{"DAO_ROLE()":"e9c26518","DEFAULT_ADMIN_ROLE()":"a217fddf","MEMBER_ROLE()":"a10f469e","addGlassScore(address,uint256)":"488cba40","addPenaltyAndExpel(address)":"ba86f70a","createProposal((string,string,uint256,address,bool,string,uint256,uint256,address),address)":"cc9aa9ea","daoAddress()":"2131c68c","forceAbstain(uint256,address)":"a462e50f","getAllMembers()":"7c0f6b35","getAllProposals()":"cceb68f5","getMemberCount()":"997072f7","getProposal(uint256)":"c7f758a8","getRoleAdmin(bytes32)":"248a9ca3","glassScore(address)":"1f56d126","grantRole(bytes32,address)":"2f2ff15d","hasRole(bytes32,address)":"91d14854","hasVoted(uint256,address)":"43859632","hasVotedForProposal(uint256,address)":"62d4f893","isMember(address)":"a230c524","members(uint256)":"5daf08ca","penaltyCount(address)":"a9330b0e","proposals(uint256)":"013cf08b","renounceFactoryAdminRole()":"91dcd5aa","renounceRole(bytes32,address)":"36568abe","revokeRole(bytes32,address)":"d547741f","setDaoAddress(address)":"9a3cac6a","setProposalStatus(uint256,uint8)":"cbe94614","subGlassScore(address,uint256)":"2b72ee51","supportsInterface(bytes4)":"01ffc9a7","vote(uint256,uint8,address)":"19cff706"}}}}}