{"contracts/Execution.sol":{"Execution":{"abi":[{"inputs":[{"internalType":"address","name":"_proposal","type":"address"},{"internalType":"address","name":"_vault","type":"address"},{"internalType":"address","name":"_dao","type":"address"}],"stateMutability":"nonpayable","type":"constructor"},{"anonymous":false,"inputs":[{"indexed":true,"internalType":"address","name":"member","type":"address"}],"name":"MemberExpelled","type":"event"},{"anonymous":false,"inputs":[{"indexed":true,"internalType":"uint256","name":"proposalId","type":"uint256"}],"name":"ProposalExecuted","type":"event"},{"anonymous":false,"inputs":[{"indexed":false,"internalType":"string","name":"rule","type":"string"},{"indexed":false,"internalType":"uint256","name":"beforeValue","type":"uint256"},{"indexed":false,"internalType":"uint256","name":"afterValue","type":"uint256"}],"name":"RuleChanged","type":"event"},{"inputs":[],"name":"daoAddress","outputs":[{"internalType":"address","name":"","type":"address"}],"stateMutability":"view","type":"function"},{"inputs":[{"internalType":"uint256","name":"proposalId","type":"uint256"}],"name":"executeDeposit","outputs":[],"stateMutability":"nonpayable","type":"function"},{"inputs":[{"internalType":"uint256","name":"proposalId","type":"uint256"}],"name":"executePayout","outputs":[],"stateMutability":"nonpayable","type":"function"},{"inputs":[{"internalType":"uint256","name":"proposalId","type":"uint256"}],"name":"executeRuleChange","outputs":[],"stateMutability":"nonpayable","type":"function"},{"inputs":[],"name":"proposalContract","outputs":[{"internalType":"contract Proposal","name":"","type":"address"}],"stateMutability":"view","type":"function"},{"inputs":[],"name":"vaultContract","outputs":[{"internalType":"contract Vault","name":"","type":"address"}],"stateMutability":"view","type":"function"}],"evm":{"bytecode":{"linkReferences":{},"object":"6080346100a057601f610adc38819003918201601f19168301916001600160401b038311848410176100a5578084926060946040528339810103126100a057610047816100bb565b906100606040610059602084016100bb565b92016100bb565b60018060a01b0380928160018060a01b031995168560005416176000551683600154161760015516906002541617600255604051610a0c90816100d08239f35b600080fd5b634e487b7160e01b600052604160045260246000fd5b51906001600160a01b03821682036100a05756fe6080604081815260048036101561001557600080fd5b600092833560e01c9081632131c68c146106d3575083816321814f9014610496575080632274346b1461046d5780633aef3900146104455780637026e9fd146102835763de1b293a1461006757600080fd5b3461027f576020806003193601126101f757813560018060a01b03610091816002541633146106f8565b8554168451936318feeb1560e31b855282818601528685602481855afa948515610275578795610251575b5060808501518181101561023e5760016100d69114610994565b6101608501927f3263cae112f9b06c4fe976e1e563a8899e0058acad03a56562786e4496d29f6b84518681519101206a72756c652d6368616e676560a81b878a5161012081610781565b600b81520152036101fb5790829188933b156101f75760448492838a5195869485936332fa518560e21b8552840152600360248401525af180156101ed576101d1575b5050907f0c607c5751c330dfb1b02e97a8c6b40995b7c37f1247cb3ba0baa9308f3747ff9360809251906101a0610180860151950151908051958694606086526101bb855180968160608a0152838a8a0191016107bf565b850152830152601f01601f19168101030190a180f35b6101dd90939293610757565b6101e957908438610163565b8480fd5b86513d84823e3d90fd5b8380fd5b865162461bcd60e51b8152808301869052601a60248201527f4e6f7420612072756c652d6368616e67652070726f706f73616c0000000000006044820152606490fd5b634e487b7160e01b885260218252602488fd5b61026e9195503d8089833e610266818361079d565b810190610850565b93386100bc565b86513d89823e3d90fd5b8280fd5b503461027f57602036600319011261027f5780359160018060a01b036102ae816002541633146106f8565b8454169181516318feeb1560e31b815284828201528581602481875afa90811561043b578691610421575b5060808101518281101561040e577f407aa5060640b5b11bd7a646d2a67db16d0d8062f0162ee0107d6c4df9647d0b9161031860016101609314610994565b0151602081519101206a3a3932b0b9bab93c96b4b760a91b6020855161033d81610781565b600b81520152036103cc5790829185933b156101f757846044859283855196879485936332fa518560e21b8552840152600360248401525af19081156103c357506103ab575b50807f712ae1383f79ac853f8d882153778e0260ef8f03b504e2866e0593e04d2b291f91a280f35b6103b490610757565b6103bf578138610383565b5080fd5b513d84823e3d90fd5b6020606492519162461bcd60e51b8352820152601a60248201527f4e6f7420612074726561737572792d696e2070726f706f73616c0000000000006044820152fd5b634e487b7160e01b875260218352602487fd5b61043591503d8088833e610266818361079d565b386102d9565b83513d88823e3d90fd5b5050346103bf57816003193601126103bf57905490516001600160a01b039091168152602090f35b5050346103bf57816003193601126103bf5760015490516001600160a01b039091168152602090f35b808484346106cf5760203660031901126106cf5780359160018060a01b03916104c4836002541633146106f8565b82855416928251968780956318feeb1560e31b8252878583015260249687915afa96871561043b5786976106b3575b506080870151828110156106a157600161050d9114610994565b8287018051156106695781600154169788318251116106305760600182815116156105ff57519051908216883b156105fb5790604488928387519b8c94859363a9059cbb60e01b8552898501528a8401525af1801561043b576105e5575b858097509495541690813b156101e957604486918680946003875198899687956332fa518560e21b87528601528401525af19081156103c357506105d15750807f712ae1383f79ac853f8d882153778e0260ef8f03b504e2866e0593e04d2b291f91a280f35b6105da90610757565b6103bf578183610383565b939490956105f290610757565b9392859061056b565b8780fd5b845162461bcd60e51b8152602081860152600c818801526b139bc81c9958da5c1a595b9d60a21b6044820152606490fd5b845162461bcd60e51b815260208186015260148188015273496e73756666696369656e742062616c616e636560601b6044820152606490fd5b835162461bcd60e51b815260208185015260138187015272139bc8185b5bdd5b9d081cdc1958da599a5959606a1b6044820152606490fd5b634e487b7160e01b8752602183528487fd5b6106c89197503d8088833e610266818361079d565b95876104f3565b5050fd5b8490346103bf57816003193601126103bf576002546001600160a01b03168152602090f35b156106ff57565b60405162461bcd60e51b815260206004820152602a60248201527f457865637574696f6e3a206f6e6c792044414f2063616e2063616c6c207468696044820152693990333ab731ba34b7b760b11b6064820152608490fd5b67ffffffffffffffff811161076b57604052565b634e487b7160e01b600052604160045260246000fd5b6040810190811067ffffffffffffffff82111761076b57604052565b90601f8019910116810190811067ffffffffffffffff82111761076b57604052565b60005b8381106107d25750506000910152565b81810151838201526020016107c2565b81601f8201121561083757805167ffffffffffffffff811161076b5760405192610816601f8301601f19166020018561079d565b818452602082840101116108375761083491602080850191016107bf565b90565b600080fd5b51906001600160a01b038216820361083757565b9060208282031261083757815167ffffffffffffffff928382116108375701906101e0928383830312610837576040519384018481108282111761076b57604052825181811161083757826108a69185016107e2565b8452602083015181811161083757826108c09185016107e2565b60208501526040838101519085015260608301516001600160a01b03811681036108375760608501526080830151600481101561083757608085015260a083015160a085015260c083015160c085015260e083015160e0850152610100808401519085015261012061093381850161083c565b9085015261014080840151908115158203610837578501526101609182840151918211610837576109659184016107e2565b9083015261018080820151908301526101a0808201519083015261098d6101c080920161083c565b9082015290565b1561099b57565b60405162461bcd60e51b8152602060048201526013602482015272141c9bdc1bdcd85b081b9bdd081c185cdcd959606a1b6044820152606490fdfea2646970667358221220ab9e83cbc7416560b7bff0b143e2994f6c7447ebaac8d912bdaba70a0a912ef564736f6c63430008140033","opcodes":"PUSH1 0x80 CALLVALUE PUSH2 0xA0 JUMPI PUSH1 0x1F PUSH2 0xADC CODESIZE DUP2 SWAP1 SUB SWAP2 DUP3 ADD PUSH1 0x1F NOT AND DUP4 ADD SWAP2 PUSH1 0x1 PUSH1 0x1 PUSH1 0x40 SHL SUB DUP4 GT DUP5 DUP5 LT OR PUSH2 0xA5 JUMPI DUP1 DUP5 SWAP3 PUSH1 0x60 SWAP5 PUSH1 0x40 MSTORE DUP4 CODECOPY DUP2 ADD SUB SLT PUSH2 0xA0 JUMPI PUSH2 0x47 DUP2 PUSH2 0xBB JUMP JUMPDEST SWAP1 PUSH2 0x60 PUSH1 0x40 PUSH2 0x59 PUSH1 0x20 DUP5 ADD PUSH2 0xBB JUMP JUMPDEST SWAP3 ADD PUSH2 0xBB JUMP JUMPDEST PUSH1 0x1 DUP1 PUSH1 0xA0 SHL SUB DUP1 SWAP3 DUP2 PUSH1 0x1 DUP1 PUSH1 0xA0 SHL SUB NOT SWAP6 AND DUP6 PUSH1 0x0 SLOAD AND OR PUSH1 0x0 SSTORE AND DUP4 PUSH1 0x1 SLOAD AND OR PUSH1 0x1 SSTORE AND SWAP1 PUSH1 0x2 SLOAD AND OR PUSH1 0x2 SSTORE PUSH1 0x40 MLOAD PUSH2 0xA0C SWAP1 DUP2 PUSH2 0xD0 DUP3 CODECOPY RETURN JUMPDEST PUSH1 0x0 DUP1 REVERT JUMPDEST PUSH4 0x4E487B71 PUSH1 0xE0 SHL PUSH1 0x0 MSTORE PUSH1 0x41 PUSH1 0x4 MSTORE PUSH1 0x24 PUSH1 0x0 REVERT JUMPDEST MLOAD SWAP1 PUSH1 0x1 PUSH1 0x1 PUSH1 0xA0 SHL SUB DUP3 AND DUP3 SUB PUSH2 0xA0 JUMPI JUMP INVALID PUSH1 0x80 PUSH1 0x40 DUP2 DUP2 MSTORE PUSH1 0x4 DUP1 CALLDATASIZE LT ISZERO PUSH2 0x15 JUMPI PUSH1 0x0 DUP1 REVERT JUMPDEST PUSH1 0x0 SWAP3 DUP4 CALLDATALOAD PUSH1 0xE0 SHR SWAP1 DUP2 PUSH4 0x2131C68C EQ PUSH2 0x6D3 JUMPI POP DUP4 DUP2 PUSH4 0x21814F90 EQ PUSH2 0x496 JUMPI POP DUP1 PUSH4 0x2274346B EQ PUSH2 0x46D JUMPI DUP1 PUSH4 0x3AEF3900 EQ PUSH2 0x445 JUMPI DUP1 PUSH4 0x7026E9FD EQ PUSH2 0x283 JUMPI PUSH4 0xDE1B293A EQ PUSH2 0x67 JUMPI PUSH1 0x0 DUP1 REVERT JUMPDEST CALLVALUE PUSH2 0x27F JUMPI PUSH1 0x20 DUP1 PUSH1 0x3 NOT CALLDATASIZE ADD SLT PUSH2 0x1F7 JUMPI DUP2 CALLDATALOAD PUSH1 0x1 DUP1 PUSH1 0xA0 SHL SUB PUSH2 0x91 DUP2 PUSH1 0x2 SLOAD AND CALLER EQ PUSH2 0x6F8 JUMP JUMPDEST DUP6 SLOAD AND DUP5 MLOAD SWAP4 PUSH4 0x18FEEB15 PUSH1 0xE3 SHL DUP6 MSTORE DUP3 DUP2 DUP7 ADD MSTORE DUP7 DUP6 PUSH1 0x24 DUP2 DUP6 GAS STATICCALL SWAP5 DUP6 ISZERO PUSH2 0x275 JUMPI DUP8 SWAP6 PUSH2 0x251 JUMPI JUMPDEST POP PUSH1 0x80 DUP6 ADD MLOAD DUP2 DUP2 LT ISZERO PUSH2 0x23E JUMPI PUSH1 0x1 PUSH2 0xD6 SWAP2 EQ PUSH2 0x994 JUMP JUMPDEST PUSH2 0x160 DUP6 ADD SWAP3 PUSH32 0x3263CAE112F9B06C4FE976E1E563A8899E0058ACAD03A56562786E4496D29F6B DUP5 MLOAD DUP7 DUP2 MLOAD SWAP2 ADD KECCAK256 PUSH11 0x72756C652D6368616E6765 PUSH1 0xA8 SHL DUP8 DUP11 MLOAD PUSH2 0x120 DUP2 PUSH2 0x781 JUMP JUMPDEST PUSH1 0xB DUP2 MSTORE ADD MSTORE SUB PUSH2 0x1FB JUMPI SWAP1 DUP3 SWAP2 DUP9 SWAP4 EXTCODESIZE ISZERO PUSH2 0x1F7 JUMPI PUSH1 0x44 DUP5 SWAP3 DUP4 DUP11 MLOAD SWAP6 DUP7 SWAP5 DUP6 SWAP4 PUSH4 0x32FA5185 PUSH1 0xE2 SHL DUP6 MSTORE DUP5 ADD MSTORE PUSH1 0x3 PUSH1 0x24 DUP5 ADD MSTORE GAS CALL DUP1 ISZERO PUSH2 0x1ED JUMPI PUSH2 0x1D1 JUMPI JUMPDEST POP POP SWAP1 PUSH32 0xC607C5751C330DFB1B02E97A8C6B40995B7C37F1247CB3BA0BAA9308F3747FF SWAP4 PUSH1 0x80 SWAP3 MLOAD SWAP1 PUSH2 0x1A0 PUSH2 0x180 DUP7 ADD MLOAD SWAP6 ADD MLOAD SWAP1 DUP1 MLOAD SWAP6 DUP7 SWAP5 PUSH1 0x60 DUP7 MSTORE PUSH2 0x1BB DUP6 MLOAD DUP1 SWAP7 DUP2 PUSH1 0x60 DUP11 ADD MSTORE DUP4 DUP11 DUP11 ADD SWAP2 ADD PUSH2 0x7BF JUMP JUMPDEST DUP6 ADD MSTORE DUP4 ADD MSTORE PUSH1 0x1F ADD PUSH1 0x1F NOT AND DUP2 ADD SUB ADD SWAP1 LOG1 DUP1 RETURN JUMPDEST PUSH2 0x1DD SWAP1 SWAP4 SWAP3 SWAP4 PUSH2 0x757 JUMP JUMPDEST PUSH2 0x1E9 JUMPI SWAP1 DUP5 CODESIZE PUSH2 0x163 JUMP JUMPDEST DUP5 DUP1 REVERT JUMPDEST DUP7 MLOAD RETURNDATASIZE DUP5 DUP3 RETURNDATACOPY RETURNDATASIZE SWAP1 REVERT JUMPDEST DUP4 DUP1 REVERT JUMPDEST DUP7 MLOAD PUSH3 0x461BCD PUSH1 0xE5 SHL DUP2 MSTORE DUP1 DUP4 ADD DUP7 SWAP1 MSTORE PUSH1 0x1A PUSH1 0x24 DUP3 ADD MSTORE PUSH32 0x4E6F7420612072756C652D6368616E67652070726F706F73616C000000000000 PUSH1 0x44 DUP3 ADD MSTORE PUSH1 0x64 SWAP1 REVERT JUMPDEST PUSH4 0x4E487B71 PUSH1 0xE0 SHL DUP9 MSTORE PUSH1 0x21 DUP3 MSTORE PUSH1 0x24 DUP9 REVERT JUMPDEST PUSH2 0x26E SWAP2 SWAP6 POP RETURNDATASIZE DUP1 DUP10 DUP4 RETURNDATACOPY PUSH2 0x266 DUP2 DUP4 PUSH2 0x79D JUMP JUMPDEST DUP2 ADD SWAP1 PUSH2 0x850 JUMP JUMPDEST SWAP4 CODESIZE PUSH2 0xBC JUMP JUMPDEST DUP7 MLOAD RETURNDATASIZE DUP10 DUP3 RETURNDATACOPY RETURNDATASIZE SWAP1 REVERT JUMPDEST DUP3 DUP1 REVERT JUMPDEST POP CALLVALUE PUSH2 0x27F JUMPI PUSH1 0x20 CALLDATASIZE PUSH1 0x3 NOT ADD SLT PUSH2 0x27F JUMPI DUP1 CALLDATALOAD SWAP2 PUSH1 0x1 DUP1 PUSH1 0xA0 SHL SUB PUSH2 0x2AE DUP2 PUSH1 0x2 SLOAD AND CALLER EQ PUSH2 0x6F8 JUMP JUMPDEST DUP5 SLOAD AND SWAP2 DUP2 MLOAD PUSH4 0x18FEEB15 PUSH1 0xE3 SHL DUP2 MSTORE DUP5 DUP3 DUP3 ADD MSTORE DUP6 DUP2 PUSH1 0x24 DUP2 DUP8 GAS STATICCALL SWAP1 DUP2 ISZERO PUSH2 0x43B JUMPI DUP7 SWAP2 PUSH2 0x421 JUMPI JUMPDEST POP PUSH1 0x80 DUP2 ADD MLOAD DUP3 DUP2 LT ISZERO PUSH2 0x40E JUMPI PUSH32 0x407AA5060640B5B11BD7A646D2A67DB16D0D8062F0162EE0107D6C4DF9647D0B SWAP2 PUSH2 0x318 PUSH1 0x1 PUSH2 0x160 SWAP4 EQ PUSH2 0x994 JUMP JUMPDEST ADD MLOAD PUSH1 0x20 DUP2 MLOAD SWAP2 ADD KECCAK256 PUSH11 0x3A3932B0B9BAB93C96B4B7 PUSH1 0xA9 SHL PUSH1 0x20 DUP6 MLOAD PUSH2 0x33D DUP2 PUSH2 0x781 JUMP JUMPDEST PUSH1 0xB DUP2 MSTORE ADD MSTORE SUB PUSH2 0x3CC JUMPI SWAP1 DUP3 SWAP2 DUP6 SWAP4 EXTCODESIZE ISZERO PUSH2 0x1F7 JUMPI DUP5 PUSH1 0x44 DUP6 SWAP3 DUP4 DUP6 MLOAD SWAP7 DUP8 SWAP5 DUP6 SWAP4 PUSH4 0x32FA5185 PUSH1 0xE2 SHL DUP6 MSTORE DUP5 ADD MSTORE PUSH1 0x3 PUSH1 0x24 DUP5 ADD MSTORE GAS CALL SWAP1 DUP2 ISZERO PUSH2 0x3C3 JUMPI POP PUSH2 0x3AB JUMPI JUMPDEST POP DUP1 PUSH32 0x712AE1383F79AC853F8D882153778E0260EF8F03B504E2866E0593E04D2B291F SWAP2 LOG2 DUP1 RETURN JUMPDEST PUSH2 0x3B4 SWAP1 PUSH2 0x757 JUMP JUMPDEST PUSH2 0x3BF JUMPI DUP2 CODESIZE PUSH2 0x383 JUMP JUMPDEST POP DUP1 REVERT JUMPDEST MLOAD RETURNDATASIZE DUP5 DUP3 RETURNDATACOPY RETURNDATASIZE SWAP1 REVERT JUMPDEST PUSH1 0x20 PUSH1 0x64 SWAP3 MLOAD SWAP2 PUSH3 0x461BCD PUSH1 0xE5 SHL DUP4 MSTORE DUP3 ADD MSTORE PUSH1 0x1A PUSH1 0x24 DUP3 ADD MSTORE PUSH32 0x4E6F7420612074726561737572792D696E2070726F706F73616C000000000000 PUSH1 0x44 DUP3 ADD MSTORE REVERT JUMPDEST PUSH4 0x4E487B71 PUSH1 0xE0 SHL DUP8 MSTORE PUSH1 0x21 DUP4 MSTORE PUSH1 0x24 DUP8 REVERT JUMPDEST PUSH2 0x435 SWAP2 POP RETURNDATASIZE DUP1 DUP9 DUP4 RETURNDATACOPY PUSH2 0x266 DUP2 DUP4 PUSH2 0x79D JUMP JUMPDEST CODESIZE PUSH2 0x2D9 JUMP JUMPDEST DUP4 MLOAD RETURNDATASIZE DUP9 DUP3 RETURNDATACOPY RETURNDATASIZE SWAP1 REVERT JUMPDEST POP POP CALLVALUE PUSH2 0x3BF JUMPI DUP2 PUSH1 0x3 NOT CALLDATASIZE ADD SLT PUSH2 0x3BF JUMPI SWAP1 SLOAD SWAP1 MLOAD PUSH1 0x1 PUSH1 0x1 PUSH1 0xA0 SHL SUB SWAP1 SWAP2 AND DUP2 MSTORE PUSH1 0x20 SWAP1 RETURN JUMPDEST POP POP CALLVALUE PUSH2 0x3BF JUMPI DUP2 PUSH1 0x3 NOT CALLDATASIZE ADD SLT PUSH2 0x3BF JUMPI PUSH1 0x1 SLOAD SWAP1 MLOAD PUSH1 0x1 PUSH1 0x1 PUSH1 0xA0 SHL SUB SWAP1 SWAP2 AND DUP2 MSTORE PUSH1 0x20 SWAP1 RETURN JUMPDEST DUP1 DUP5 DUP5 CALLVALUE PUSH2 0x6CF JUMPI PUSH1 0x20 CALLDATASIZE PUSH1 0x3 NOT ADD SLT PUSH2 0x6CF JUMPI DUP1 CALLDATALOAD SWAP2 PUSH1 0x1 DUP1 PUSH1 0xA0 SHL SUB SWAP2 PUSH2 0x4C4 DUP4 PUSH1 0x2 SLOAD AND CALLER EQ PUSH2 0x6F8 JUMP JUMPDEST DUP3 DUP6 SLOAD AND SWAP3 DUP3 MLOAD SWAP7 DUP8 DUP1 SWAP6 PUSH4 0x18FEEB15 PUSH1 0xE3 SHL DUP3 MSTORE DUP8 DUP6 DUP4 ADD MSTORE PUSH1 0x24 SWAP7 DUP8 SWAP2 GAS STATICCALL SWAP7 DUP8 ISZERO PUSH2 0x43B JUMPI DUP7 SWAP8 PUSH2 0x6B3 JUMPI JUMPDEST POP PUSH1 0x80 DUP8 ADD MLOAD DUP3 DUP2 LT ISZERO PUSH2 0x6A1 JUMPI PUSH1 0x1 PUSH2 0x50D SWAP2 EQ PUSH2 0x994 JUMP JUMPDEST DUP3 DUP8 ADD DUP1 MLOAD ISZERO PUSH2 0x669 JUMPI DUP2 PUSH1 0x1 SLOAD AND SWAP8 DUP9 BALANCE DUP3 MLOAD GT PUSH2 0x630 JUMPI PUSH1 0x60 ADD DUP3 DUP2 MLOAD AND ISZERO PUSH2 0x5FF JUMPI MLOAD SWAP1 MLOAD SWAP1 DUP3 AND DUP9 EXTCODESIZE ISZERO PUSH2 0x5FB JUMPI SWAP1 PUSH1 0x44 DUP9 SWAP3 DUP4 DUP8 MLOAD SWAP12 DUP13 SWAP5 DUP6 SWAP4 PUSH4 0xA9059CBB PUSH1 0xE0 SHL DUP6 MSTORE DUP10 DUP6 ADD MSTORE DUP11 DUP5 ADD MSTORE GAS CALL DUP1 ISZERO PUSH2 0x43B JUMPI PUSH2 0x5E5 JUMPI JUMPDEST DUP6 DUP1 SWAP8 POP SWAP5 SWAP6 SLOAD AND SWAP1 DUP2 EXTCODESIZE ISZERO PUSH2 0x1E9 JUMPI PUSH1 0x44 DUP7 SWAP2 DUP7 DUP1 SWAP5 PUSH1 0x3 DUP8 MLOAD SWAP9 DUP10 SWAP7 DUP8 SWAP6 PUSH4 0x32FA5185 PUSH1 0xE2 SHL DUP8 MSTORE DUP7 ADD MSTORE DUP5 ADD MSTORE GAS CALL SWAP1 DUP2 ISZERO PUSH2 0x3C3 JUMPI POP PUSH2 0x5D1 JUMPI POP DUP1 PUSH32 0x712AE1383F79AC853F8D882153778E0260EF8F03B504E2866E0593E04D2B291F SWAP2 LOG2 DUP1 RETURN JUMPDEST PUSH2 0x5DA SWAP1 PUSH2 0x757 JUMP JUMPDEST PUSH2 0x3BF JUMPI DUP2 DUP4 PUSH2 0x383 JUMP JUMPDEST SWAP4 SWAP5 SWAP1 SWAP6 PUSH2 0x5F2 SWAP1 PUSH2 0x757 JUMP JUMPDEST SWAP4 SWAP3 DUP6 SWAP1 PUSH2 0x56B JUMP JUMPDEST DUP8 DUP1 REVERT JUMPDEST DUP5 MLOAD PUSH3 0x461BCD PUSH1 0xE5 SHL DUP2 MSTORE PUSH1 0x20 DUP2 DUP7 ADD MSTORE PUSH1 0xC DUP2 DUP9 ADD MSTORE PUSH12 0x139BC81C9958DA5C1A595B9D PUSH1 0xA2 SHL PUSH1 0x44 DUP3 ADD MSTORE PUSH1 0x64 SWAP1 REVERT JUMPDEST DUP5 MLOAD PUSH3 0x461BCD PUSH1 0xE5 SHL DUP2 MSTORE PUSH1 0x20 DUP2 DUP7 ADD MSTORE PUSH1 0x14 DUP2 DUP9 ADD MSTORE PUSH20 0x496E73756666696369656E742062616C616E6365 PUSH1 0x60 SHL PUSH1 0x44 DUP3 ADD MSTORE PUSH1 0x64 SWAP1 REVERT JUMPDEST DUP4 MLOAD PUSH3 0x461BCD PUSH1 0xE5 SHL DUP2 MSTORE PUSH1 0x20 DUP2 DUP6 ADD MSTORE PUSH1 0x13 DUP2 DUP8 ADD MSTORE PUSH19 0x139BC8185B5BDD5B9D081CDC1958DA599A5959 PUSH1 0x6A SHL PUSH1 0x44 DUP3 ADD MSTORE PUSH1 0x64 SWAP1 REVERT JUMPDEST PUSH4 0x4E487B71 PUSH1 0xE0 SHL DUP8 MSTORE PUSH1 0x21 DUP4 MSTORE DUP5 DUP8 REVERT JUMPDEST PUSH2 0x6C8 SWAP2 SWAP8 POP RETURNDATASIZE DUP1 DUP9 DUP4 RETURNDATACOPY PUSH2 0x266 DUP2 DUP4 PUSH2 0x79D JUMP JUMPDEST SWAP6 DUP8 PUSH2 0x4F3 JUMP JUMPDEST POP POP REVERT JUMPDEST DUP5 SWAP1 CALLVALUE PUSH2 0x3BF JUMPI DUP2 PUSH1 0x3 NOT CALLDATASIZE ADD SLT PUSH2 0x3BF JUMPI PUSH1 0x2 SLOAD PUSH1 0x1 PUSH1 0x1 PUSH1 0xA0 SHL SUB AND DUP2 MSTORE PUSH1 0x20 SWAP1 RETURN JUMPDEST ISZERO PUSH2 0x6FF JUMPI JUMP JUMPDEST PUSH1 0x40 MLOAD PUSH3 0x461BCD PUSH1 0xE5 SHL DUP2 MSTORE PUSH1 0x20 PUSH1 0x4 DUP3 ADD MSTORE PUSH1 0x2A PUSH1 0x24 DUP3 ADD MSTORE PUSH32 0x457865637574696F6E3A206F6E6C792044414F2063616E2063616C6C20746869 PUSH1 0x44 DUP3 ADD MSTORE PUSH10 0x3990333AB731BA34B7B7 PUSH1 0xB1 SHL PUSH1 0x64 DUP3 ADD MSTORE PUSH1 0x84 SWAP1 REVERT JUMPDEST PUSH8 0xFFFFFFFFFFFFFFFF DUP2 GT PUSH2 0x76B JUMPI PUSH1 0x40 MSTORE JUMP JUMPDEST PUSH4 0x4E487B71 PUSH1 0xE0 SHL PUSH1 0x0 MSTORE PUSH1 0x41 PUSH1 0x4 MSTORE PUSH1 0x24 PUSH1 0x0 REVERT JUMPDEST PUSH1 0x40 DUP2 ADD SWAP1 DUP2 LT PUSH8 0xFFFFFFFFFFFFFFFF DUP3 GT OR PUSH2 0x76B JUMPI PUSH1 0x40 MSTORE JUMP JUMPDEST SWAP1 PUSH1 0x1F DUP1 NOT SWAP2 ADD AND DUP2 ADD SWAP1 DUP2 LT PUSH8 0xFFFFFFFFFFFFFFFF DUP3 GT OR PUSH2 0x76B JUMPI PUSH1 0x40 MSTORE JUMP JUMPDEST PUSH1 0x0 JUMPDEST DUP4 DUP2 LT PUSH2 0x7D2 JUMPI POP POP PUSH1 0x0 SWAP2 ADD MSTORE JUMP JUMPDEST DUP2 DUP2 ADD MLOAD DUP4 DUP3 ADD MSTORE PUSH1 0x20 ADD PUSH2 0x7C2 JUMP JUMPDEST DUP2 PUSH1 0x1F DUP3 ADD SLT ISZERO PUSH2 0x837 JUMPI DUP1 MLOAD PUSH8 0xFFFFFFFFFFFFFFFF DUP2 GT PUSH2 0x76B JUMPI PUSH1 0x40 MLOAD SWAP3 PUSH2 0x816 PUSH1 0x1F DUP4 ADD PUSH1 0x1F NOT AND PUSH1 0x20 ADD DUP6 PUSH2 0x79D JUMP JUMPDEST DUP2 DUP5 MSTORE PUSH1 0x20 DUP3 DUP5 ADD ADD GT PUSH2 0x837 JUMPI PUSH2 0x834 SWAP2 PUSH1 0x20 DUP1 DUP6 ADD SWAP2 ADD PUSH2 0x7BF JUMP JUMPDEST SWAP1 JUMP JUMPDEST PUSH1 0x0 DUP1 REVERT JUMPDEST MLOAD SWAP1 PUSH1 0x1 PUSH1 0x1 PUSH1 0xA0 SHL SUB DUP3 AND DUP3 SUB PUSH2 0x837 JUMPI JUMP JUMPDEST SWAP1 PUSH1 0x20 DUP3 DUP3 SUB SLT PUSH2 0x837 JUMPI DUP2 MLOAD PUSH8 0xFFFFFFFFFFFFFFFF SWAP3 DUP4 DUP3 GT PUSH2 0x837 JUMPI ADD SWAP1 PUSH2 0x1E0 SWAP3 DUP4 DUP4 DUP4 SUB SLT PUSH2 0x837 JUMPI PUSH1 0x40 MLOAD SWAP4 DUP5 ADD DUP5 DUP2 LT DUP3 DUP3 GT OR PUSH2 0x76B JUMPI PUSH1 0x40 MSTORE DUP3 MLOAD DUP2 DUP2 GT PUSH2 0x837 JUMPI DUP3 PUSH2 0x8A6 SWAP2 DUP6 ADD PUSH2 0x7E2 JUMP JUMPDEST DUP5 MSTORE PUSH1 0x20 DUP4 ADD MLOAD DUP2 DUP2 GT PUSH2 0x837 JUMPI DUP3 PUSH2 0x8C0 SWAP2 DUP6 ADD PUSH2 0x7E2 JUMP JUMPDEST PUSH1 0x20 DUP6 ADD MSTORE PUSH1 0x40 DUP4 DUP2 ADD MLOAD SWAP1 DUP6 ADD MSTORE PUSH1 0x60 DUP4 ADD MLOAD PUSH1 0x1 PUSH1 0x1 PUSH1 0xA0 SHL SUB DUP2 AND DUP2 SUB PUSH2 0x837 JUMPI PUSH1 0x60 DUP6 ADD MSTORE PUSH1 0x80 DUP4 ADD MLOAD PUSH1 0x4 DUP2 LT ISZERO PUSH2 0x837 JUMPI PUSH1 0x80 DUP6 ADD MSTORE PUSH1 0xA0 DUP4 ADD MLOAD PUSH1 0xA0 DUP6 ADD MSTORE PUSH1 0xC0 DUP4 ADD MLOAD PUSH1 0xC0 DUP6 ADD MSTORE PUSH1 0xE0 DUP4 ADD MLOAD PUSH1 0xE0 DUP6 ADD MSTORE PUSH2 0x100 DUP1 DUP5 ADD MLOAD SWAP1 DUP6 ADD MSTORE PUSH2 0x120 PUSH2 0x933 DUP2 DUP6 ADD PUSH2 0x83C JUMP JUMPDEST SWAP1 DUP6 ADD MSTORE PUSH2 0x140 DUP1 DUP5 ADD MLOAD SWAP1 DUP2 ISZERO ISZERO DUP3 SUB PUSH2 0x837 JUMPI DUP6 ADD MSTORE PUSH2 0x160 SWAP2 DUP3 DUP5 ADD MLOAD SWAP2 DUP3 GT PUSH2 0x837 JUMPI PUSH2 0x965 SWAP2 DUP5 ADD PUSH2 0x7E2 JUMP JUMPDEST SWAP1 DUP4 ADD MSTORE PUSH2 0x180 DUP1 DUP3 ADD MLOAD SWAP1 DUP4 ADD MSTORE PUSH2 0x1A0 DUP1 DUP3 ADD MLOAD SWAP1 DUP4 ADD MSTORE PUSH2 0x98D PUSH2 0x1C0 DUP1 SWAP3 ADD PUSH2 0x83C JUMP JUMPDEST SWAP1 DUP3 ADD MSTORE SWAP1 JUMP JUMPDEST ISZERO PUSH2 0x99B JUMPI JUMP JUMPDEST PUSH1 0x40 MLOAD PUSH3 0x461BCD PUSH1 0xE5 SHL DUP2 MSTORE PUSH1 0x20 PUSH1 0x4 DUP3 ADD MSTORE PUSH1 0x13 PUSH1 0x24 DUP3 ADD MSTORE PUSH19 0x141C9BDC1BDCD85B081B9BDD081C185CDCD959 PUSH1 0x6A SHL PUSH1 0x44 DUP3 ADD MSTORE PUSH1 0x64 SWAP1 REVERT INVALID LOG2 PUSH5 0x6970667358 0x22 SLT KECCAK256 0xAB SWAP15 DUP4 0xCB 0xC7 COINBASE PUSH6 0x60B7BFF0B143 0xE2 SWAP10 0x4F PUSH13 0x7447EBAAC8D912BDABA70A0A91 0x2E CREATE2 PUSH5 0x736F6C6343 STOP ADDMOD EQ STOP CALLER "},"methodIdentifiers":{"daoAddress()":"2131c68c","executeDeposit(uint256)":"7026e9fd","executePayout(uint256)":"21814f90","executeRuleChange(uint256)":"de1b293a","proposalContract()":"3aef3900","vaultContract()":"2274346b"}}}}}