{"contracts/Proposal.sol":{"Proposal":{"abi":[{"inputs":[{"internalType":"address","name":"admin","type":"address"},{"internalType":"address","name":"dao","type":"address"}],"stateMutability":"nonpayable","type":"constructor"},{"inputs":[],"name":"AccessControlBadConfirmation","type":"error"},{"inputs":[{"internalType":"address","name":"account","type":"address"},{"internalType":"bytes32","name":"neededRole","type":"bytes32"}],"name":"AccessControlUnauthorizedAccount","type":"error"},{"anonymous":false,"inputs":[{"indexed":true,"internalType":"address","name":"member","type":"address"},{"indexed":false,"internalType":"uint256","name":"newScore","type":"uint256"}],"name":"GlassScoreChanged","type":"event"},{"anonymous":false,"inputs":[{"indexed":true,"internalType":"uint256","name":"id","type":"uint256"},{"indexed":true,"internalType":"address","name":"proposer","type":"address"}],"name":"ProposalCreated","type":"event"},{"anonymous":false,"inputs":[{"indexed":true,"internalType":"uint256","name":"id","type":"uint256"},{"indexed":false,"internalType":"enum Proposal.Status","name":"status","type":"uint8"}],"name":"ProposalStatusChanged","type":"event"},{"anonymous":false,"inputs":[{"indexed":true,"internalType":"bytes32","name":"role","type":"bytes32"},{"indexed":true,"internalType":"bytes32","name":"previousAdminRole","type":"bytes32"},{"indexed":true,"internalType":"bytes32","name":"newAdminRole","type":"bytes32"}],"name":"RoleAdminChanged","type":"event"},{"anonymous":false,"inputs":[{"indexed":true,"internalType":"bytes32","name":"role","type":"bytes32"},{"indexed":true,"internalType":"address","name":"account","type":"address"},{"indexed":true,"internalType":"address","name":"sender","type":"address"}],"name":"RoleGranted","type":"event"},{"anonymous":false,"inputs":[{"indexed":true,"internalType":"bytes32","name":"role","type":"bytes32"},{"indexed":true,"internalType":"address","name":"account","type":"address"},{"indexed":true,"internalType":"address","name":"sender","type":"address"}],"name":"RoleRevoked","type":"event"},{"anonymous":false,"inputs":[{"indexed":true,"internalType":"uint256","name":"proposalId","type":"uint256"},{"indexed":true,"internalType":"address","name":"voter","type":"address"},{"indexed":false,"internalType":"uint8","name":"choice","type":"uint8"}],"name":"Voted","type":"event"},{"inputs":[],"name":"DAO_ROLE","outputs":[{"internalType":"bytes32","name":"","type":"bytes32"}],"stateMutability":"view","type":"function"},{"inputs":[],"name":"DEFAULT_ADMIN_ROLE","outputs":[{"internalType":"bytes32","name":"","type":"bytes32"}],"stateMutability":"view","type":"function"},{"inputs":[],"name":"MEMBER_ROLE","outputs":[{"internalType":"bytes32","name":"","type":"bytes32"}],"stateMutability":"view","type":"function"},{"inputs":[{"internalType":"address","name":"member","type":"address"},{"internalType":"uint256","name":"amount","type":"uint256"}],"name":"addGlassScore","outputs":[],"stateMutability":"nonpayable","type":"function"},{"inputs":[{"internalType":"address","name":"member","type":"address"}],"name":"addPenaltyAndExpel","outputs":[],"stateMutability":"nonpayable","type":"function"},{"inputs":[{"components":[{"internalType":"string","name":"title","type":"string"},{"internalType":"string","name":"description","type":"string"},{"internalType":"uint256","name":"amount","type":"uint256"},{"internalType":"address payable","name":"recipient","type":"address"},{"internalType":"bool","name":"requireVote","type":"bool"},{"internalType":"string","name":"sanctionType","type":"string"},{"internalType":"uint256","name":"beforeValue","type":"uint256"},{"internalType":"uint256","name":"afterValue","type":"uint256"},{"internalType":"address","name":"targetMember","type":"address"}],"internalType":"struct Proposal.ProposalInput","name":"input","type":"tuple"}],"name":"createProposal","outputs":[{"internalType":"uint256","name":"","type":"uint256"}],"stateMutability":"nonpayable","type":"function"},{"inputs":[],"name":"daoAddress","outputs":[{"internalType":"address","name":"","type":"address"}],"stateMutability":"view","type":"function"},{"inputs":[{"internalType":"uint256","name":"proposalId","type":"uint256"},{"internalType":"address","name":"member","type":"address"}],"name":"forceAbstain","outputs":[],"stateMutability":"nonpayable","type":"function"},{"inputs":[],"name":"getAllMembers","outputs":[{"internalType":"address[]","name":"","type":"address[]"}],"stateMutability":"view","type":"function"},{"inputs":[],"name":"getAllProposals","outputs":[{"components":[{"internalType":"string","name":"title","type":"string"},{"internalType":"string","name":"description","type":"string"},{"internalType":"uint256","name":"amount","type":"uint256"},{"internalType":"address payable","name":"recipient","type":"address"},{"internalType":"enum Proposal.Status","name":"status","type":"uint8"},{"internalType":"uint256","name":"votesFor","type":"uint256"},{"internalType":"uint256","name":"votesAgainst","type":"uint256"},{"internalType":"uint256","name":"votesAbstain","type":"uint256"},{"internalType":"uint256","name":"startTime","type":"uint256"},{"internalType":"address","name":"proposer","type":"address"},{"internalType":"bool","name":"requireVote","type":"bool"},{"internalType":"string","name":"sanctionType","type":"string"},{"internalType":"uint256","name":"beforeValue","type":"uint256"},{"internalType":"uint256","name":"afterValue","type":"uint256"},{"internalType":"address","name":"targetMember","type":"address"}],"internalType":"struct Proposal.ProposalData[]","name":"","type":"tuple[]"}],"stateMutability":"view","type":"function"},{"inputs":[],"name":"getMemberCount","outputs":[{"internalType":"uint256","name":"","type":"uint256"}],"stateMutability":"view","type":"function"},{"inputs":[{"internalType":"uint256","name":"id","type":"uint256"}],"name":"getProposal","outputs":[{"components":[{"internalType":"string","name":"title","type":"string"},{"internalType":"string","name":"description","type":"string"},{"internalType":"uint256","name":"amount","type":"uint256"},{"internalType":"address payable","name":"recipient","type":"address"},{"internalType":"enum Proposal.Status","name":"status","type":"uint8"},{"internalType":"uint256","name":"votesFor","type":"uint256"},{"internalType":"uint256","name":"votesAgainst","type":"uint256"},{"internalType":"uint256","name":"votesAbstain","type":"uint256"},{"internalType":"uint256","name":"startTime","type":"uint256"},{"internalType":"address","name":"proposer","type":"address"},{"internalType":"bool","name":"requireVote","type":"bool"},{"internalType":"string","name":"sanctionType","type":"string"},{"internalType":"uint256","name":"beforeValue","type":"uint256"},{"internalType":"uint256","name":"afterValue","type":"uint256"},{"internalType":"address","name":"targetMember","type":"address"}],"internalType":"struct Proposal.ProposalData","name":"","type":"tuple"}],"stateMutability":"view","type":"function"},{"inputs":[{"internalType":"bytes32","name":"role","type":"bytes32"}],"name":"getRoleAdmin","outputs":[{"internalType":"bytes32","name":"","type":"bytes32"}],"stateMutability":"view","type":"function"},{"inputs":[{"internalType":"uint256","name":"proposalId","type":"uint256"}],"name":"getVotes","outputs":[{"internalType":"uint256","name":"forVotes","type":"uint256"},{"internalType":"uint256","name":"againstVotes","type":"uint256"},{"internalType":"uint256","name":"abstainVotes","type":"uint256"}],"stateMutability":"view","type":"function"},{"inputs":[{"internalType":"address","name":"","type":"address"}],"name":"glassScore","outputs":[{"internalType":"uint256","name":"","type":"uint256"}],"stateMutability":"view","type":"function"},{"inputs":[{"internalType":"bytes32","name":"role","type":"bytes32"},{"internalType":"address","name":"account","type":"address"}],"name":"grantRole","outputs":[],"stateMutability":"nonpayable","type":"function"},{"inputs":[{"internalType":"bytes32","name":"role","type":"bytes32"},{"internalType":"address","name":"account","type":"address"}],"name":"hasRole","outputs":[{"internalType":"bool","name":"","type":"bool"}],"stateMutability":"view","type":"function"},{"inputs":[{"internalType":"uint256","name":"","type":"uint256"},{"internalType":"address","name":"","type":"address"}],"name":"hasVoted","outputs":[{"internalType":"bool","name":"","type":"bool"}],"stateMutability":"view","type":"function"},{"inputs":[{"internalType":"uint256","name":"proposalId","type":"uint256"},{"internalType":"address","name":"voter","type":"address"}],"name":"hasVotedForProposal","outputs":[{"internalType":"bool","name":"","type":"bool"}],"stateMutability":"view","type":"function"},{"inputs":[{"internalType":"address","name":"","type":"address"}],"name":"isMember","outputs":[{"internalType":"bool","name":"","type":"bool"}],"stateMutability":"view","type":"function"},{"inputs":[{"internalType":"uint256","name":"","type":"uint256"}],"name":"members","outputs":[{"internalType":"address","name":"","type":"address"}],"stateMutability":"view","type":"function"},{"inputs":[{"internalType":"address","name":"","type":"address"}],"name":"penaltyCount","outputs":[{"internalType":"uint256","name":"","type":"uint256"}],"stateMutability":"view","type":"function"},{"inputs":[{"internalType":"uint256","name":"","type":"uint256"}],"name":"proposals","outputs":[{"internalType":"string","name":"title","type":"string"},{"internalType":"string","name":"description","type":"string"},{"internalType":"uint256","name":"amount","type":"uint256"},{"internalType":"address payable","name":"recipient","type":"address"},{"internalType":"enum Proposal.Status","name":"status","type":"uint8"},{"internalType":"uint256","name":"votesFor","type":"uint256"},{"internalType":"uint256","name":"votesAgainst","type":"uint256"},{"internalType":"uint256","name":"votesAbstain","type":"uint256"},{"internalType":"uint256","name":"startTime","type":"uint256"},{"internalType":"address","name":"proposer","type":"address"},{"internalType":"bool","name":"requireVote","type":"bool"},{"internalType":"string","name":"sanctionType","type":"string"},{"internalType":"uint256","name":"beforeValue","type":"uint256"},{"internalType":"uint256","name":"afterValue","type":"uint256"},{"internalType":"address","name":"targetMember","type":"address"}],"stateMutability":"view","type":"function"},{"inputs":[{"internalType":"bytes32","name":"role","type":"bytes32"},{"internalType":"address","name":"callerConfirmation","type":"address"}],"name":"renounceRole","outputs":[],"stateMutability":"nonpayable","type":"function"},{"inputs":[{"internalType":"bytes32","name":"role","type":"bytes32"},{"internalType":"address","name":"account","type":"address"}],"name":"revokeRole","outputs":[],"stateMutability":"nonpayable","type":"function"},{"inputs":[{"internalType":"uint256","name":"id","type":"uint256"},{"internalType":"enum Proposal.Status","name":"status","type":"uint8"}],"name":"setProposalStatus","outputs":[],"stateMutability":"nonpayable","type":"function"},{"inputs":[{"internalType":"address","name":"member","type":"address"},{"internalType":"uint256","name":"amount","type":"uint256"}],"name":"subGlassScore","outputs":[],"stateMutability":"nonpayable","type":"function"},{"inputs":[{"internalType":"bytes4","name":"interfaceId","type":"bytes4"}],"name":"supportsInterface","outputs":[{"internalType":"bool","name":"","type":"bool"}],"stateMutability":"view","type":"function"},{"inputs":[{"internalType":"uint256","name":"proposalId","type":"uint256"},{"internalType":"uint8","name":"choice","type":"uint8"}],"name":"vote","outputs":[],"stateMutability":"nonpayable","type":"function"}],"evm":{"bytecode":{"linkReferences":{},"object":"6080346200018d57620026c1601f38829003908101601f19168301906001600160401b038211848310176200019257808491604094859485528339810103126200018d576200005c60206200005484620001a8565b9301620001a8565b906200006883620001bd565b5062000074836200023d565b506200008082620002ce565b50600080516020620026a183398151915291600090838252816020526001838320018054600080516020620026818339815191528092558451957fbd79b86ffe0ab8e8776151514217cd7cacd52c909f66475c3af44e129f0b00ff8580a4600580546001600160a01b03199081166001600160a01b039384161790915560065495909168010000000000000000871015620001795760018701806006558710156200016557603295966006855260208520019116809282541617905581526007602052818120600160ff198254161790556004602052205561230690816200035b8239f35b634e487b7160e01b84526032600452602484fd5b634e487b7160e01b84526041600452602484fd5b600080fd5b634e487b7160e01b600052604160045260246000fd5b51906001600160a01b03821682036200018d57565b6001600160a01b031660008181527fad3228b676f7d3cd4284a5443f17f1962b36e491b30a40b2405849e597ba5fb5602052604081205490919060ff166200023957818052816020526040822081835260205260408220600160ff198254161790553391600080516020620026618339815191528180a4600190565b5090565b6001600160a01b031660008181527f30710e496c9a8631e387d1ff5062c226d4ce9c9e008bff1f22ae157290ccbd626020526040812054909190600080516020620026a18339815191529060ff16620002c957808352826020526040832082845260205260408320600160ff1982541617905560008051602062002661833981519152339380a4600190565b505090565b6001600160a01b031660008181527fc39f11a9300b508470eaed31f5842ba08c93181bcbe6a7fe34039aa7f2b807426020526040812054909190600080516020620026818339815191529060ff16620002c957808352826020526040832082845260205260408320600160ff1982541617905560008051602062002661833981519152339380a460019056fe6080604052600436101561001257600080fd5b60003560e01c8063013cf08b146119e557806301ffc9a71461198f5780631f56d126146119555780632131c68c1461192c578063248a9ca3146118fd5780632b72ee511461165a5780632f2ff15d1461155657806336568abe1461150f5780634385963214611400578063488cba401461148f5780635daf08ca1461144d57806362d4f893146114005780637c0f6b351461133857806391d14854146112eb578063943e821614610f5e578063997072f714610f40578063a10f469e14610f17578063a217fddf14610efb578063a230c52414610ebc578063a462e50f14610e0e578063a7a36b4f146107dd578063a9330b0e146107a3578063ba86f70a14610573578063c7f758a8146104c6578063cbe9461414610454578063cceb68f514610344578063d547741f146101dd578063e9c26518146101a25763ff9810991461015b57600080fd5b3461019d57602036600319011261019d576060610179600435611b19565b50600481015490600660058201549101549060405192835260208301526040820152f35b600080fd5b3461019d57600036600319011261019d5760206040517f3b5d4cc60d3ec3516ee8ae083bd60934f6eb2a6c54b1229985c41bfb092b26038152f35b3461019d57604036600319011261019d576004356101f9611d08565b908060005260006020526000805160206122918339815191526001916102258360406000200154612005565b80600052600060205261023e8360406000200154612005565b6102488482611ecc565b501480610322575b61025657005b6001600160a01b039182166000818152600760205260408120805460ff19169055825b610280575b005b6006548082101561027e5784908361029784611d1e565b939054600394851b1c16146102b75750506102b1906120a4565b82610279565b909491935060001981019250821161030c57610304936102d96102e593611d1e565b9054911b1c1691611d1e565b90919082549060031b9160018060a01b03809116831b921b1916179055565b61027e6120b3565b634e487b7160e01b600052601160045260246000fd5b506001600160a01b03821660009081526007602052604090205460ff16610250565b3461019d57600036600319011261019d576001805467ffffffffffffffff811161043e579060405190602061037e818560051b0184611bdd565b8383528083019384836000527fb10e2d527612073b26eecdfd717e6a320cf44b4afac2b0732d9fcbe2b7fa0cf66000915b8383106104175750505050604051928184019082855251809152604084019160408260051b86010195926000905b8382106103ea5786880387f35b90919293948380610406839a603f198b82030186528951611d55565b9997019594939190910191016103dd565b94600d8582999761042a859a989a612195565b8152019201920191909694969593956103af565b634e487b7160e01b600052604160045260246000fd5b3461019d57604036600319011261019d57600435602435600481101561019d5760207f3346abf262ac5179e9052765fb72484e0baab1f356f08442bb7a3054147631de916104a0611f41565b6104b68160036104af87611b19565b5001612171565b6104c36040518092611ce5565ba2005b3461019d57602036600319011261019d5760006101c06040516104e881611ba4565b60608152606060208201528260408201528260608201528260808201528260a08201528260c08201528260e0820152826101008201528261012082015282610140820152606061016082015282610180820152826101a0820152015261056f61055b610555600435611b19565b50612195565b604051918291602083526020830190611d55565b0390f35b3461019d5760208060031936011261019d5761058d611cf2565b9060018060a01b039182811680600052600393848452604060002093845460019586820180921161030c5755600481836005541660405192838092639f1f43af60e01b82525afa9081156107975760009161076a575b508360005286825260406000205410156105f957005b610641859460008051602061229183398151915280600052600084526106258760406000200154612005565b6000526000835261063c8660406000200154612005565b611e2e565b5082600052600781526040600020805460ff81166106db575b5050826007929394506000528581526000604081205552604060002060ff198154169055826000905b61068957005b6006548082101561027e57838361069f84611d1e565b905490891b1c16146106bb57506106b5906120a4565b83610683565b90935060001981019250821161030c57610304936102d96102e593611d1e565b60ff191690556000845b6106f0575b8061065a565b6006548082101561076457848461070684611d1e565b9054908b1b1c1614610722575061071c906120a4565b846106e5565b9394509192600019810190811161030c576007926102e58561074661075394611d1e565b9054908b1b1c1691611d1e565b61075b6120b3565b849392916106ea565b506106ea565b90508181813d8311610790575b6107818183611bdd565b8101031261019d5751876105e3565b503d610777565b6040513d6000823e3d90fd5b3461019d57602036600319011261019d576001600160a01b036107c4611cf2565b1660005260036020526020604060002054604051908152f35b3461019d5760031960203682011261019d5767ffffffffffffffff6004351161019d57610120600435600401916004353603011261019d5761081d611fbb565b61082781806120f7565b9190610838602460043501836120f7565b909290919060043560640135906001600160a01b038216820361019d576084600435013590811515820361019d576108769060a460043501906120f7565b60043561010401359691949093916001600160a01b038816880361019d57610914966108b36108bc936040519b6108ac8d611ba4565b369161212a565b8a52369161212a565b60208801526004356044013560408801526001600160a01b0316606087015260006080870181905260a0870181905260c0870181905260e087015242610100870152336101208701521515610140860152369161212a565b61016083015260043560c481013561018084015260e401356101a08301526001600160a01b03166101c0820152600154600160401b81101561043e578060016109609201600155611b19565b610df857815191825167ffffffffffffffff811161043e576109828354611b6a565b601f8111610db4575b506020601f8211600114610d4c5781929394600092610d41575b50508160011b916000199060031b1c19161782555b602081015191825167ffffffffffffffff811161043e576109de6001830154611b6a565b601f8111610cfa575b506020601f8211600114610c8c5781929394600092610c81575b50508160011b916000199060031b1c19161760018201555b6040820151600282015560608201516003820180546001600160a01b0319166001600160a01b039290921691909117905560808201516004811015610c6b57610a659060038301612171565b60a0820151600482015560c0820151600582015560e0820151600682015561010082015160078201556008810160018060a01b036101208401511681549060ff60a01b610140860151151560a01b16916affffffffffffffffffffff60a81b161717905561016082015180519067ffffffffffffffff821161043e57610aee6009840154611b6a565b601f8111610c24575b50602090601f8311600114610bb357600c93929160009183610ba8575b50508160011b916000199060031b1c19161760098201555b610180830151600a8201556101a0830151600b82015501906101c060018060a01b03910151166bffffffffffffffffffffffff60a01b825416179055600154600019810190811161030c5760405160209133817fcd423cc1203c0af96b9b3d68d73b3064a69de2d14450bb7181c5e5df2132b358600080a38152f35b015190508580610b14565b90601f198316916009850160005260206000209260005b818110610c0c5750916001939185600c97969410610bf3575b505050811b016009820155610b2c565b015160001960f88460031b161c19169055858080610be3565b92936020600181928786015181550195019301610bca565b600984016000526020600020601f840160051c810160208510610c64575b601f830160051c82018110610c58575050610af7565b60008155600101610c42565b5080610c42565b634e487b7160e01b600052602160045260246000fd5b015190508480610a01565b6001830160005260206000209060005b601f1984168110610ce25750600193949583601f19811610610cc9575b505050811b016001820155610a19565b015160001960f88460031b161c19169055848080610cb9565b9091602060018192858a015181550193019101610c9c565b600183016000526020600020601f830160051c810160208410610d3a575b601f830160051c82018110610d2e5750506109e7565b60008155600101610d18565b5080610d18565b0151905084806109a5565b8360005260206000209060005b601f1984168110610d9c5750600193949583601f19811610610d83575b505050811b0182556109ba565b015160001960f88460031b161c19169055848080610d76565b9091602060018192858a015181550193019101610d59565b836000526020600020601f830160051c810160208410610df1575b601f830160051c82018110610de557505061098b565b60008155600101610dcf565b5080610dcf565b634e487b7160e01b600052600060045260246000fd5b3461019d57604036600319011261019d57600435610e2a611d08565b90610e33611f41565b610e3c81611b19565b5081600052600260205260406000209260018060a01b0316928360005260205260ff6040600020541615610e6c57005b6006908260005260026020526040600020846000526020526040600020600160ff1982541617905501610e9f81546120a4565b90556000805160206122b1833981519152602060405160028152a3005b3461019d57602036600319011261019d576001600160a01b03610edd611cf2565b166000526007602052602060ff604060002054166040519015158152f35b3461019d57600036600319011261019d57602060405160008152f35b3461019d57600036600319011261019d5760206040516000805160206122918339815191528152f35b3461019d57600036600319011261019d576020600654604051908152f35b3461019d57604036600319011261019d5760043560249081359160ff831680930361019d57610f8b611fbb565b610f9482611b19565b5060ff600882015460a01c1615611299578260005260209160028352604060002033600052835260ff6040600020541661125e57600080604051610fd781611bc1565b600b81526a1d9bdd194818d85b1b195960aa1b868201526040518280826110148a82019563104c13eb60e21b87528b8a8401526044830190611ca5565b0392611028601f1994858101835282611bdd565b516a636f6e736f6c652e6c6f6794855afa5082808660406110998b8d611087845161105281611bc1565b600a8152691c1c9bdc1bdcd85b125960b21b848201528551958694850197632d839cb360e21b89528501526064840190611ca5565b90604483015203868101835282611bdd565b5190855afa5082806040516110ad81611bc1565b600a81526936b9b39739b2b73232b960b11b8a8201526040516110fd816110eb8d82019463319af33360e01b865260408d8401526064830190611ca5565b33604483015203868101835282611bdd565b5190855afa508783526002875260408320338452875260ff6040842054166111796040519261112b84611bc1565b60088452671a185cd59bdd195960c21b8a85015260405180936111658c83019663c3b5563560e01b885260408c8501526064840190611ca5565b901515604483015203908101835282611bdd565b51915afa50600084815260028452604080822033835285529020805460ff19166001179055846111d057509060046000805160206122b183398151915292016111c281546120a4565b90555b6040519384523393a3005b600185036111fe57509060056000805160206122b183398151915292016111f781546120a4565b90556111c5565b6002850361122557509060066000805160206122b183398151915292016111f781546120a4565b8260136064926040519262461bcd60e51b8452600484015282015272496e76616c696420766f74652063686f69636560681b6044820152fd5b8260156064926040519262461bcd60e51b8452600484015282015274159bdd1a5b99ce88185b1c9958591e481d9bdd1959605a1b6044820152fd5b60405162461bcd60e51b8152602060048201526025818401527f566f74696e67206e6f7420726571756972656420666f7220746869732070726f6044820152641c1bdcd85b60da1b6064820152608490fd5b3461019d57604036600319011261019d57611304611d08565b600435600052600060205260406000209060018060a01b0316600052602052602060ff604060002054166040519015158152f35b3461019d57600036600319011261019d57604051806006548083526020809301809160066000527ff652222313e28459528d920b65115c16c04f3efc82aaedc97be59f3f377c0d3f9060005b868282106113e357868661139a82880383611bdd565b604051928392818401908285525180915260408401929160005b8281106113c357505050500390f35b83516001600160a01b0316855286955093810193928101926001016113b4565b83546001600160a01b031685529093019260019283019201611384565b3461019d57604036600319011261019d57611419611d08565b600435600052600260205260406000209060018060a01b0316600052602052602060ff604060002054166040519015158152f35b3461019d57602036600319011261019d5760043560065481101561019d57611476602091611d1e565b905460405160039290921b1c6001600160a01b03168152f35b3461019d57604036600319011261019d576114a8611cf2565b6114b0611f41565b6001600160a01b0316600081815260046020526040902054602435810190811061030c5760648111611507575b602060008051602061227183398151915291836000526004825280604060002055604051908152a2005b5060646114dd565b3461019d57604036600319011261019d57611528611d08565b336001600160a01b038216036115445761027e90600435611ecc565b60405163334bd91960e11b8152600490fd5b3461019d57604036600319011261019d57600435611572611d08565b816000526000805160206122918339815191526020926000845261159d600160406000200154612005565b80600052600084526115b6600160406000200154612005565b6115c0838261202b565b501480611638575b6115ce57005b60065490600160401b82101561043e57611601816102e58460016000805160206122718339815191529601600655611d1e565b60018060a01b03169182600052600781526040600020600160ff1982541617905560048152603260406000205560405160328152a2005b506001600160a01b038116600090815260078352604090205460ff16156115c8565b3461019d57604036600319011261019d57611673611cf2565b6024908135611680611f41565b60018060a01b0392838316908160005260209260048452604060002054908082116000146118e35781039081116118ce576000805160206122718339815191528484925b836000526004825280604060002055604051908152a260048386600554166040519283809263295e4f4160e11b82525afa908115610797576000916118a1575b5082600052600484526040600020541061171a57005b61175f6000805160206122918339815191529485600052600085526001956117488760406000200154612005565b6000526000855261063c8660406000200154612005565b5081600052600783526040600020805460ff811661180e575b50508160005260076003938481526000604081205552604060002060ff198154169055836000905b6117a657005b6006548082101561027e5783876117bc84611d1e565b905490881b1c16146117d857506117d2906120a4565b846117a0565b9094506000198101925082116117fa5750926102e5916102d961030495611d1e565b634e487b7160e01b60009081526011600452fd5b60ff19169055836000815b1561177857866006548083101561189a578561183484611d1e565b939054600394851b1c161461185457505061184e906120a4565b81611819565b919250906000198101908111611885578761187693926102d96102e593611d1e565b61187e6120b3565b8386611778565b83634e487b7160e01b60005260116004526000fd5b5050611778565b90508381813d83116118c7575b6118b88183611bdd565b8101031261019d575186611704565b503d6118ae565b50634e487b7160e01b60009081526011600452fd5b5050816000805160206122718339815191528460006116c4565b3461019d57602036600319011261019d5760043560005260006020526020600160406000200154604051908152f35b3461019d57600036600319011261019d576005546040516001600160a01b039091168152602090f35b3461019d57602036600319011261019d576001600160a01b03611976611cf2565b1660005260046020526020604060002054604051908152f35b3461019d57602036600319011261019d5760043563ffffffff60e01b811680910361019d57602090637965db0b60e01b81149081156119d4575b506040519015158152f35b6301ffc9a760e01b149050826119c9565b3461019d57602036600319011261019d5760043560015481101561019d57611a0c90611b19565b50611a1681611bff565b611a2260018301611bff565b9060028301549260038101549060048101549060058101549360068201549160078101549060088101549160098201611a5a90611bff565b94600a83015498600b84015497600160a01b60019003600c8196015416996040519d8e9d8e996101e0808c528b01611a9191611ca5565b8a810360208c0152611aa291611ca5565b98604001528c868216906060015260808d019060a01c60ff1690611ac591611ce5565b60a08c015260c08b015260e08a0152610100890152811661012088015260a01c60ff161515610140870152858103610160870152611b0291611ca5565b926101808501526101a08401526101c08301520390f35b600154811015611b5457600d906001600052027fb10e2d527612073b26eecdfd717e6a320cf44b4afac2b0732d9fcbe2b7fa0cf60190600090565b634e487b7160e01b600052603260045260246000fd5b90600182811c92168015611b9a575b6020831014611b8457565b634e487b7160e01b600052602260045260246000fd5b91607f1691611b79565b6101e0810190811067ffffffffffffffff82111761043e57604052565b6040810190811067ffffffffffffffff82111761043e57604052565b90601f8019910116810190811067ffffffffffffffff82111761043e57604052565b9060405191826000825492611c1384611b6a565b908184526001948581169081600014611c825750600114611c3f575b5050611c3d92500383611bdd565b565b9093915060005260209081600020936000915b818310611c6a575050611c3d93508201013880611c2f565b85548884018501529485019487945091830191611c52565b915050611c3d94506020925060ff191682840152151560051b8201013880611c2f565b919082519283825260005b848110611cd1575050826000602080949584010152601f8019910116010190565b602081830181015184830182015201611cb0565b906004821015610c6b5752565b600435906001600160a01b038216820361019d57565b602435906001600160a01b038216820361019d57565b600654811015611b545760066000527ff652222313e28459528d920b65115c16c04f3efc82aaedc97be59f3f377c0d3f0190600090565b90611d7e611d6c83516101e0808552840190611ca5565b60208401518382036020850152611ca5565b9160408101516040830152611e0960018060a01b0393846060840151166060850152611db260808401516080860190611ce5565b60a083015160a085015260c083015160c085015260e083015160e085015261010080840151908501526101208581850151169085015261014080840151151590850152610160808401519085830390860152611ca5565b9261018080830151908401526101a080830151908401526101c0809201511691015290565b6001600160a01b031660008181527f30710e496c9a8631e387d1ff5062c226d4ce9c9e008bff1f22ae157290ccbd6260205260408120549091906000805160206122918339815191529060ff1615611ec75780835282602052604083208284526020526040832060ff1981541690557ff6391f5c32d9c69d2a47ea670b442974b53935d1edc7fd64eb21e047a839171b339380a4600190565b505090565b9060009180835282602052604083209160018060a01b03169182845260205260ff604084205416600014611ec75780835282602052604083208284526020526040832060ff1981541690557ff6391f5c32d9c69d2a47ea670b442974b53935d1edc7fd64eb21e047a839171b339380a4600190565b3360009081527fc39f11a9300b508470eaed31f5842ba08c93181bcbe6a7fe34039aa7f2b8074260205260409020547f3b5d4cc60d3ec3516ee8ae083bd60934f6eb2a6c54b1229985c41bfb092b26039060ff1615611f9d5750565b6044906040519063e2517d3f60e01b82523360048301526024820152fd5b3360009081527f30710e496c9a8631e387d1ff5062c226d4ce9c9e008bff1f22ae157290ccbd6260205260409020546000805160206122918339815191529060ff1615611f9d5750565b80600052600060205260406000203360005260205260ff6040600020541615611f9d5750565b9060009180835282602052604083209160018060a01b03169182845260205260ff60408420541615600014611ec757808352826020526040832082845260205260408320600160ff198254161790557f2f8788117e7eff1d82e926ec794901d17c78024a50270940304540a733656f0d339380a4600190565b600019811461030c5760010190565b60065480156120e157600019016120c981611d1e565b81549060018060a01b039060031b1b19169055600655565b634e487b7160e01b600052603160045260246000fd5b903590601e198136030182121561019d570180359067ffffffffffffffff821161019d5760200191813603831361019d57565b92919267ffffffffffffffff821161043e5760405191612154601f8201601f191660200184611bdd565b82948184528183011161019d578281602093846000960137010152565b906004811015610c6b57815460ff60a01b191660a09190911b60ff60a01b16179055565b906040516121a281611ba4565b80926121ad81611bff565b82526121bb60018201611bff565b60208301526002810154604083015260038101546001600160a01b0380821660608501529060a01c60ff166004811015610c6b576101c092600c916080860152600481015460a0860152600581015460c0860152600681015460e0860152600781015461010086015260ff600882015484811661012088015260a01c16151561014086015261224c60098201611bff565b610160860152600a810154610180860152600b8101546101a086015201541691015256fedb51946147af8f68f24b69cdb99d868cc4b53b75dce4e05d8f590bcf5281051c829b824e2329e205435d941c9f13baf578548505283d29261236d8e6596d4636094f80829c509370abb2d421a078ba5926755d3de25d021dacf7bbd19853f7a2a26469706673582212201c2563727492812d505cee0616fac542c30838dba8d7202e576cf34b2923d04e64736f6c634300081400332f8788117e7eff1d82e926ec794901d17c78024a50270940304540a733656f0d3b5d4cc60d3ec3516ee8ae083bd60934f6eb2a6c54b1229985c41bfb092b2603829b824e2329e205435d941c9f13baf578548505283d29261236d8e6596d4636","opcodes":"PUSH1 0x80 CALLVALUE PUSH3 0x18D JUMPI PUSH3 0x26C1 PUSH1 0x1F CODESIZE DUP3 SWAP1 SUB SWAP1 DUP2 ADD PUSH1 0x1F NOT AND DUP4 ADD SWAP1 PUSH1 0x1 PUSH1 0x1 PUSH1 0x40 SHL SUB DUP3 GT DUP5 DUP4 LT OR PUSH3 0x192 JUMPI DUP1 DUP5 SWAP2 PUSH1 0x40 SWAP5 DUP6 SWAP5 DUP6 MSTORE DUP4 CODECOPY DUP2 ADD SUB SLT PUSH3 0x18D JUMPI PUSH3 0x5C PUSH1 0x20 PUSH3 0x54 DUP5 PUSH3 0x1A8 JUMP JUMPDEST SWAP4 ADD PUSH3 0x1A8 JUMP JUMPDEST SWAP1 PUSH3 0x68 DUP4 PUSH3 0x1BD JUMP JUMPDEST POP PUSH3 0x74 DUP4 PUSH3 0x23D JUMP JUMPDEST POP PUSH3 0x80 DUP3 PUSH3 0x2CE JUMP JUMPDEST POP PUSH1 0x0 DUP1 MLOAD PUSH1 0x20 PUSH3 0x26A1 DUP4 CODECOPY DUP2 MLOAD SWAP2 MSTORE SWAP2 PUSH1 0x0 SWAP1 DUP4 DUP3 MSTORE DUP2 PUSH1 0x20 MSTORE PUSH1 0x1 DUP4 DUP4 KECCAK256 ADD DUP1 SLOAD PUSH1 0x0 DUP1 MLOAD PUSH1 0x20 PUSH3 0x2681 DUP4 CODECOPY DUP2 MLOAD SWAP2 MSTORE DUP1 SWAP3 SSTORE DUP5 MLOAD SWAP6 PUSH32 0xBD79B86FFE0AB8E8776151514217CD7CACD52C909F66475C3AF44E129F0B00FF DUP6 DUP1 LOG4 PUSH1 0x5 DUP1 SLOAD PUSH1 0x1 PUSH1 0x1 PUSH1 0xA0 SHL SUB NOT SWAP1 DUP2 AND PUSH1 0x1 PUSH1 0x1 PUSH1 0xA0 SHL SUB SWAP4 DUP5 AND OR SWAP1 SWAP2 SSTORE PUSH1 0x6 SLOAD SWAP6 SWAP1 SWAP2 PUSH9 0x10000000000000000 DUP8 LT ISZERO PUSH3 0x179 JUMPI PUSH1 0x1 DUP8 ADD DUP1 PUSH1 0x6 SSTORE DUP8 LT ISZERO PUSH3 0x165 JUMPI PUSH1 0x32 SWAP6 SWAP7 PUSH1 0x6 DUP6 MSTORE PUSH1 0x20 DUP6 KECCAK256 ADD SWAP2 AND DUP1 SWAP3 DUP3 SLOAD AND OR SWAP1 SSTORE DUP2 MSTORE PUSH1 0x7 PUSH1 0x20 MSTORE DUP2 DUP2 KECCAK256 PUSH1 0x1 PUSH1 0xFF NOT DUP3 SLOAD AND OR SWAP1 SSTORE PUSH1 0x4 PUSH1 0x20 MSTORE KECCAK256 SSTORE PUSH2 0x2306 SWAP1 DUP2 PUSH3 0x35B DUP3 CODECOPY RETURN JUMPDEST PUSH4 0x4E487B71 PUSH1 0xE0 SHL DUP5 MSTORE PUSH1 0x32 PUSH1 0x4 MSTORE PUSH1 0x24 DUP5 REVERT JUMPDEST PUSH4 0x4E487B71 PUSH1 0xE0 SHL DUP5 MSTORE PUSH1 0x41 PUSH1 0x4 MSTORE PUSH1 0x24 DUP5 REVERT JUMPDEST PUSH1 0x0 DUP1 REVERT JUMPDEST PUSH4 0x4E487B71 PUSH1 0xE0 SHL PUSH1 0x0 MSTORE PUSH1 0x41 PUSH1 0x4 MSTORE PUSH1 0x24 PUSH1 0x0 REVERT JUMPDEST MLOAD SWAP1 PUSH1 0x1 PUSH1 0x1 PUSH1 0xA0 SHL SUB DUP3 AND DUP3 SUB PUSH3 0x18D JUMPI JUMP JUMPDEST PUSH1 0x1 PUSH1 0x1 PUSH1 0xA0 SHL SUB AND PUSH1 0x0 DUP2 DUP2 MSTORE PUSH32 0xAD3228B676F7D3CD4284A5443F17F1962B36E491B30A40B2405849E597BA5FB5 PUSH1 0x20 MSTORE PUSH1 0x40 DUP2 KECCAK256 SLOAD SWAP1 SWAP2 SWAP1 PUSH1 0xFF AND PUSH3 0x239 JUMPI DUP2 DUP1 MSTORE DUP2 PUSH1 0x20 MSTORE PUSH1 0x40 DUP3 KECCAK256 DUP2 DUP4 MSTORE PUSH1 0x20 MSTORE PUSH1 0x40 DUP3 KECCAK256 PUSH1 0x1 PUSH1 0xFF NOT DUP3 SLOAD AND OR SWAP1 SSTORE CALLER SWAP2 PUSH1 0x0 DUP1 MLOAD PUSH1 0x20 PUSH3 0x2661 DUP4 CODECOPY DUP2 MLOAD SWAP2 MSTORE DUP2 DUP1 LOG4 PUSH1 0x1 SWAP1 JUMP JUMPDEST POP SWAP1 JUMP JUMPDEST PUSH1 0x1 PUSH1 0x1 PUSH1 0xA0 SHL SUB AND PUSH1 0x0 DUP2 DUP2 MSTORE PUSH32 0x30710E496C9A8631E387D1FF5062C226D4CE9C9E008BFF1F22AE157290CCBD62 PUSH1 0x20 MSTORE PUSH1 0x40 DUP2 KECCAK256 SLOAD SWAP1 SWAP2 SWAP1 PUSH1 0x0 DUP1 MLOAD PUSH1 0x20 PUSH3 0x26A1 DUP4 CODECOPY DUP2 MLOAD SWAP2 MSTORE SWAP1 PUSH1 0xFF AND PUSH3 0x2C9 JUMPI DUP1 DUP4 MSTORE DUP3 PUSH1 0x20 MSTORE PUSH1 0x40 DUP4 KECCAK256 DUP3 DUP5 MSTORE PUSH1 0x20 MSTORE PUSH1 0x40 DUP4 KECCAK256 PUSH1 0x1 PUSH1 0xFF NOT DUP3 SLOAD AND OR SWAP1 SSTORE PUSH1 0x0 DUP1 MLOAD PUSH1 0x20 PUSH3 0x2661 DUP4 CODECOPY DUP2 MLOAD SWAP2 MSTORE CALLER SWAP4 DUP1 LOG4 PUSH1 0x1 SWAP1 JUMP JUMPDEST POP POP SWAP1 JUMP JUMPDEST PUSH1 0x1 PUSH1 0x1 PUSH1 0xA0 SHL SUB AND PUSH1 0x0 DUP2 DUP2 MSTORE PUSH32 0xC39F11A9300B508470EAED31F5842BA08C93181BCBE6A7FE34039AA7F2B80742 PUSH1 0x20 MSTORE PUSH1 0x40 DUP2 KECCAK256 SLOAD SWAP1 SWAP2 SWAP1 PUSH1 0x0 DUP1 MLOAD PUSH1 0x20 PUSH3 0x2681 DUP4 CODECOPY DUP2 MLOAD SWAP2 MSTORE SWAP1 PUSH1 0xFF AND PUSH3 0x2C9 JUMPI DUP1 DUP4 MSTORE DUP3 PUSH1 0x20 MSTORE PUSH1 0x40 DUP4 KECCAK256 DUP3 DUP5 MSTORE PUSH1 0x20 MSTORE PUSH1 0x40 DUP4 KECCAK256 PUSH1 0x1 PUSH1 0xFF NOT DUP3 SLOAD AND OR SWAP1 SSTORE PUSH1 0x0 DUP1 MLOAD PUSH1 0x20 PUSH3 0x2661 DUP4 CODECOPY DUP2 MLOAD SWAP2 MSTORE CALLER SWAP4 DUP1 LOG4 PUSH1 0x1 SWAP1 JUMP INVALID PUSH1 0x80 PUSH1 0x40 MSTORE PUSH1 0x4 CALLDATASIZE LT ISZERO PUSH2 0x12 JUMPI PUSH1 0x0 DUP1 REVERT JUMPDEST PUSH1 0x0 CALLDATALOAD PUSH1 0xE0 SHR DUP1 PUSH4 0x13CF08B EQ PUSH2 0x19E5 JUMPI DUP1 PUSH4 0x1FFC9A7 EQ PUSH2 0x198F JUMPI DUP1 PUSH4 0x1F56D126 EQ PUSH2 0x1955 JUMPI DUP1 PUSH4 0x2131C68C EQ PUSH2 0x192C JUMPI DUP1 PUSH4 0x248A9CA3 EQ PUSH2 0x18FD JUMPI DUP1 PUSH4 0x2B72EE51 EQ PUSH2 0x165A JUMPI DUP1 PUSH4 0x2F2FF15D EQ PUSH2 0x1556 JUMPI DUP1 PUSH4 0x36568ABE EQ PUSH2 0x150F JUMPI DUP1 PUSH4 0x43859632 EQ PUSH2 0x1400 JUMPI DUP1 PUSH4 0x488CBA40 EQ PUSH2 0x148F JUMPI DUP1 PUSH4 0x5DAF08CA EQ PUSH2 0x144D JUMPI DUP1 PUSH4 0x62D4F893 EQ PUSH2 0x1400 JUMPI DUP1 PUSH4 0x7C0F6B35 EQ PUSH2 0x1338 JUMPI DUP1 PUSH4 0x91D14854 EQ PUSH2 0x12EB JUMPI DUP1 PUSH4 0x943E8216 EQ PUSH2 0xF5E JUMPI DUP1 PUSH4 0x997072F7 EQ PUSH2 0xF40 JUMPI DUP1 PUSH4 0xA10F469E EQ PUSH2 0xF17 JUMPI DUP1 PUSH4 0xA217FDDF EQ PUSH2 0xEFB JUMPI DUP1 PUSH4 0xA230C524 EQ PUSH2 0xEBC JUMPI DUP1 PUSH4 0xA462E50F EQ PUSH2 0xE0E JUMPI DUP1 PUSH4 0xA7A36B4F EQ PUSH2 0x7DD JUMPI DUP1 PUSH4 0xA9330B0E EQ PUSH2 0x7A3 JUMPI DUP1 PUSH4 0xBA86F70A EQ PUSH2 0x573 JUMPI DUP1 PUSH4 0xC7F758A8 EQ PUSH2 0x4C6 JUMPI DUP1 PUSH4 0xCBE94614 EQ PUSH2 0x454 JUMPI DUP1 PUSH4 0xCCEB68F5 EQ PUSH2 0x344 JUMPI DUP1 PUSH4 0xD547741F EQ PUSH2 0x1DD JUMPI DUP1 PUSH4 0xE9C26518 EQ PUSH2 0x1A2 JUMPI PUSH4 0xFF981099 EQ PUSH2 0x15B JUMPI PUSH1 0x0 DUP1 REVERT JUMPDEST CALLVALUE PUSH2 0x19D JUMPI PUSH1 0x20 CALLDATASIZE PUSH1 0x3 NOT ADD SLT PUSH2 0x19D JUMPI PUSH1 0x60 PUSH2 0x179 PUSH1 0x4 CALLDATALOAD PUSH2 0x1B19 JUMP JUMPDEST POP PUSH1 0x4 DUP2 ADD SLOAD SWAP1 PUSH1 0x6 PUSH1 0x5 DUP3 ADD SLOAD SWAP2 ADD SLOAD SWAP1 PUSH1 0x40 MLOAD SWAP3 DUP4 MSTORE PUSH1 0x20 DUP4 ADD MSTORE PUSH1 0x40 DUP3 ADD MSTORE RETURN JUMPDEST PUSH1 0x0 DUP1 REVERT JUMPDEST CALLVALUE PUSH2 0x19D JUMPI PUSH1 0x0 CALLDATASIZE PUSH1 0x3 NOT ADD SLT PUSH2 0x19D JUMPI PUSH1 0x20 PUSH1 0x40 MLOAD PUSH32 0x3B5D4CC60D3EC3516EE8AE083BD60934F6EB2A6C54B1229985C41BFB092B2603 DUP2 MSTORE RETURN JUMPDEST CALLVALUE PUSH2 0x19D JUMPI PUSH1 0x40 CALLDATASIZE PUSH1 0x3 NOT ADD SLT PUSH2 0x19D JUMPI PUSH1 0x4 CALLDATALOAD PUSH2 0x1F9 PUSH2 0x1D08 JUMP JUMPDEST SWAP1 DUP1 PUSH1 0x0 MSTORE PUSH1 0x0 PUSH1 0x20 MSTORE PUSH1 0x0 DUP1 MLOAD PUSH1 0x20 PUSH2 0x2291 DUP4 CODECOPY DUP2 MLOAD SWAP2 MSTORE PUSH1 0x1 SWAP2 PUSH2 0x225 DUP4 PUSH1 0x40 PUSH1 0x0 KECCAK256 ADD SLOAD PUSH2 0x2005 JUMP JUMPDEST DUP1 PUSH1 0x0 MSTORE PUSH1 0x0 PUSH1 0x20 MSTORE PUSH2 0x23E DUP4 PUSH1 0x40 PUSH1 0x0 KECCAK256 ADD SLOAD PUSH2 0x2005 JUMP JUMPDEST PUSH2 0x248 DUP5 DUP3 PUSH2 0x1ECC JUMP JUMPDEST POP EQ DUP1 PUSH2 0x322 JUMPI JUMPDEST PUSH2 0x256 JUMPI STOP JUMPDEST PUSH1 0x1 PUSH1 0x1 PUSH1 0xA0 SHL SUB SWAP2 DUP3 AND PUSH1 0x0 DUP2 DUP2 MSTORE PUSH1 0x7 PUSH1 0x20 MSTORE PUSH1 0x40 DUP2 KECCAK256 DUP1 SLOAD PUSH1 0xFF NOT AND SWAP1 SSTORE DUP3 JUMPDEST PUSH2 0x280 JUMPI JUMPDEST STOP JUMPDEST PUSH1 0x6 SLOAD DUP1 DUP3 LT ISZERO PUSH2 0x27E JUMPI DUP5 SWAP1 DUP4 PUSH2 0x297 DUP5 PUSH2 0x1D1E JUMP JUMPDEST SWAP4 SWAP1 SLOAD PUSH1 0x3 SWAP5 DUP6 SHL SHR AND EQ PUSH2 0x2B7 JUMPI POP POP PUSH2 0x2B1 SWAP1 PUSH2 0x20A4 JUMP JUMPDEST DUP3 PUSH2 0x279 JUMP JUMPDEST SWAP1 SWAP5 SWAP2 SWAP4 POP PUSH1 0x0 NOT DUP2 ADD SWAP3 POP DUP3 GT PUSH2 0x30C JUMPI PUSH2 0x304 SWAP4 PUSH2 0x2D9 PUSH2 0x2E5 SWAP4 PUSH2 0x1D1E JUMP JUMPDEST SWAP1 SLOAD SWAP2 SHL SHR AND SWAP2 PUSH2 0x1D1E JUMP JUMPDEST SWAP1 SWAP2 SWAP1 DUP3 SLOAD SWAP1 PUSH1 0x3 SHL SWAP2 PUSH1 0x1 DUP1 PUSH1 0xA0 SHL SUB DUP1 SWAP2 AND DUP4 SHL SWAP3 SHL NOT AND OR SWAP1 SSTORE JUMP JUMPDEST PUSH2 0x27E PUSH2 0x20B3 JUMP JUMPDEST PUSH4 0x4E487B71 PUSH1 0xE0 SHL PUSH1 0x0 MSTORE PUSH1 0x11 PUSH1 0x4 MSTORE PUSH1 0x24 PUSH1 0x0 REVERT JUMPDEST POP PUSH1 0x1 PUSH1 0x1 PUSH1 0xA0 SHL SUB DUP3 AND PUSH1 0x0 SWAP1 DUP2 MSTORE PUSH1 0x7 PUSH1 0x20 MSTORE PUSH1 0x40 SWAP1 KECCAK256 SLOAD PUSH1 0xFF AND PUSH2 0x250 JUMP JUMPDEST CALLVALUE PUSH2 0x19D JUMPI PUSH1 0x0 CALLDATASIZE PUSH1 0x3 NOT ADD SLT PUSH2 0x19D JUMPI PUSH1 0x1 DUP1 SLOAD PUSH8 0xFFFFFFFFFFFFFFFF DUP2 GT PUSH2 0x43E JUMPI SWAP1 PUSH1 0x40 MLOAD SWAP1 PUSH1 0x20 PUSH2 0x37E DUP2 DUP6 PUSH1 0x5 SHL ADD DUP5 PUSH2 0x1BDD JUMP JUMPDEST DUP4 DUP4 MSTORE DUP1 DUP4 ADD SWAP4 DUP5 DUP4 PUSH1 0x0 MSTORE PUSH32 0xB10E2D527612073B26EECDFD717E6A320CF44B4AFAC2B0732D9FCBE2B7FA0CF6 PUSH1 0x0 SWAP2 JUMPDEST DUP4 DUP4 LT PUSH2 0x417 JUMPI POP POP POP POP PUSH1 0x40 MLOAD SWAP3 DUP2 DUP5 ADD SWAP1 DUP3 DUP6 MSTORE MLOAD DUP1 SWAP2 MSTORE PUSH1 0x40 DUP5 ADD SWAP2 PUSH1 0x40 DUP3 PUSH1 0x5 SHL DUP7 ADD ADD SWAP6 SWAP3 PUSH1 0x0 SWAP1 JUMPDEST DUP4 DUP3 LT PUSH2 0x3EA JUMPI DUP7 DUP9 SUB DUP8 RETURN JUMPDEST SWAP1 SWAP2 SWAP3 SWAP4 SWAP5 DUP4 DUP1 PUSH2 0x406 DUP4 SWAP11 PUSH1 0x3F NOT DUP12 DUP3 SUB ADD DUP7 MSTORE DUP10 MLOAD PUSH2 0x1D55 JUMP JUMPDEST SWAP10 SWAP8 ADD SWAP6 SWAP5 SWAP4 SWAP2 SWAP1 SWAP2 ADD SWAP2 ADD PUSH2 0x3DD JUMP JUMPDEST SWAP5 PUSH1 0xD DUP6 DUP3 SWAP10 SWAP8 PUSH2 0x42A DUP6 SWAP11 SWAP9 SWAP11 PUSH2 0x2195 JUMP JUMPDEST DUP2 MSTORE ADD SWAP3 ADD SWAP3 ADD SWAP2 SWAP1 SWAP7 SWAP5 SWAP7 SWAP6 SWAP4 SWAP6 PUSH2 0x3AF JUMP JUMPDEST PUSH4 0x4E487B71 PUSH1 0xE0 SHL PUSH1 0x0 MSTORE PUSH1 0x41 PUSH1 0x4 MSTORE PUSH1 0x24 PUSH1 0x0 REVERT JUMPDEST CALLVALUE PUSH2 0x19D JUMPI PUSH1 0x40 CALLDATASIZE PUSH1 0x3 NOT ADD SLT PUSH2 0x19D JUMPI PUSH1 0x4 CALLDATALOAD PUSH1 0x24 CALLDATALOAD PUSH1 0x4 DUP2 LT ISZERO PUSH2 0x19D JUMPI PUSH1 0x20 PUSH32 0x3346ABF262AC5179E9052765FB72484E0BAAB1F356F08442BB7A3054147631DE SWAP2 PUSH2 0x4A0 PUSH2 0x1F41 JUMP JUMPDEST PUSH2 0x4B6 DUP2 PUSH1 0x3 PUSH2 0x4AF DUP8 PUSH2 0x1B19 JUMP JUMPDEST POP ADD PUSH2 0x2171 JUMP JUMPDEST PUSH2 0x4C3 PUSH1 0x40 MLOAD DUP1 SWAP3 PUSH2 0x1CE5 JUMP JUMPDEST LOG2 STOP JUMPDEST CALLVALUE PUSH2 0x19D JUMPI PUSH1 0x20 CALLDATASIZE PUSH1 0x3 NOT ADD SLT PUSH2 0x19D JUMPI PUSH1 0x0 PUSH2 0x1C0 PUSH1 0x40 MLOAD PUSH2 0x4E8 DUP2 PUSH2 0x1BA4 JUMP JUMPDEST PUSH1 0x60 DUP2 MSTORE PUSH1 0x60 PUSH1 0x20 DUP3 ADD MSTORE DUP3 PUSH1 0x40 DUP3 ADD MSTORE DUP3 PUSH1 0x60 DUP3 ADD MSTORE DUP3 PUSH1 0x80 DUP3 ADD MSTORE DUP3 PUSH1 0xA0 DUP3 ADD MSTORE DUP3 PUSH1 0xC0 DUP3 ADD MSTORE DUP3 PUSH1 0xE0 DUP3 ADD MSTORE DUP3 PUSH2 0x100 DUP3 ADD MSTORE DUP3 PUSH2 0x120 DUP3 ADD MSTORE DUP3 PUSH2 0x140 DUP3 ADD MSTORE PUSH1 0x60 PUSH2 0x160 DUP3 ADD MSTORE DUP3 PUSH2 0x180 DUP3 ADD MSTORE DUP3 PUSH2 0x1A0 DUP3 ADD MSTORE ADD MSTORE PUSH2 0x56F PUSH2 0x55B PUSH2 0x555 PUSH1 0x4 CALLDATALOAD PUSH2 0x1B19 JUMP JUMPDEST POP PUSH2 0x2195 JUMP JUMPDEST PUSH1 0x40 MLOAD SWAP2 DUP3 SWAP2 PUSH1 0x20 DUP4 MSTORE PUSH1 0x20 DUP4 ADD SWAP1 PUSH2 0x1D55 JUMP JUMPDEST SUB SWAP1 RETURN JUMPDEST CALLVALUE PUSH2 0x19D JUMPI PUSH1 0x20 DUP1 PUSH1 0x3 NOT CALLDATASIZE ADD SLT PUSH2 0x19D JUMPI PUSH2 0x58D PUSH2 0x1CF2 JUMP JUMPDEST SWAP1 PUSH1 0x1 DUP1 PUSH1 0xA0 SHL SUB SWAP2 DUP3 DUP2 AND DUP1 PUSH1 0x0 MSTORE PUSH1 0x3 SWAP4 DUP5 DUP5 MSTORE PUSH1 0x40 PUSH1 0x0 KECCAK256 SWAP4 DUP5 SLOAD PUSH1 0x1 SWAP6 DUP7 DUP3 ADD DUP1 SWAP3 GT PUSH2 0x30C JUMPI SSTORE PUSH1 0x4 DUP2 DUP4 PUSH1 0x5 SLOAD AND PUSH1 0x40 MLOAD SWAP3 DUP4 DUP1 SWAP3 PUSH4 0x9F1F43AF PUSH1 0xE0 SHL DUP3 MSTORE GAS STATICCALL SWAP1 DUP2 ISZERO PUSH2 0x797 JUMPI PUSH1 0x0 SWAP2 PUSH2 0x76A JUMPI JUMPDEST POP DUP4 PUSH1 0x0 MSTORE DUP7 DUP3 MSTORE PUSH1 0x40 PUSH1 0x0 KECCAK256 SLOAD LT ISZERO PUSH2 0x5F9 JUMPI STOP JUMPDEST PUSH2 0x641 DUP6 SWAP5 PUSH1 0x0 DUP1 MLOAD PUSH1 0x20 PUSH2 0x2291 DUP4 CODECOPY DUP2 MLOAD SWAP2 MSTORE DUP1 PUSH1 0x0 MSTORE PUSH1 0x0 DUP5 MSTORE PUSH2 0x625 DUP8 PUSH1 0x40 PUSH1 0x0 KECCAK256 ADD SLOAD PUSH2 0x2005 JUMP JUMPDEST PUSH1 0x0 MSTORE PUSH1 0x0 DUP4 MSTORE PUSH2 0x63C DUP7 PUSH1 0x40 PUSH1 0x0 KECCAK256 ADD SLOAD PUSH2 0x2005 JUMP JUMPDEST PUSH2 0x1E2E JUMP JUMPDEST POP DUP3 PUSH1 0x0 MSTORE PUSH1 0x7 DUP2 MSTORE PUSH1 0x40 PUSH1 0x0 KECCAK256 DUP1 SLOAD PUSH1 0xFF DUP2 AND PUSH2 0x6DB JUMPI JUMPDEST POP POP DUP3 PUSH1 0x7 SWAP3 SWAP4 SWAP5 POP PUSH1 0x0 MSTORE DUP6 DUP2 MSTORE PUSH1 0x0 PUSH1 0x40 DUP2 KECCAK256 SSTORE MSTORE PUSH1 0x40 PUSH1 0x0 KECCAK256 PUSH1 0xFF NOT DUP2 SLOAD AND SWAP1 SSTORE DUP3 PUSH1 0x0 SWAP1 JUMPDEST PUSH2 0x689 JUMPI STOP JUMPDEST PUSH1 0x6 SLOAD DUP1 DUP3 LT ISZERO PUSH2 0x27E JUMPI DUP4 DUP4 PUSH2 0x69F DUP5 PUSH2 0x1D1E JUMP JUMPDEST SWAP1 SLOAD SWAP1 DUP10 SHL SHR AND EQ PUSH2 0x6BB JUMPI POP PUSH2 0x6B5 SWAP1 PUSH2 0x20A4 JUMP JUMPDEST DUP4 PUSH2 0x683 JUMP JUMPDEST SWAP1 SWAP4 POP PUSH1 0x0 NOT DUP2 ADD SWAP3 POP DUP3 GT PUSH2 0x30C JUMPI PUSH2 0x304 SWAP4 PUSH2 0x2D9 PUSH2 0x2E5 SWAP4 PUSH2 0x1D1E JUMP JUMPDEST PUSH1 0xFF NOT AND SWAP1 SSTORE PUSH1 0x0 DUP5 JUMPDEST PUSH2 0x6F0 JUMPI JUMPDEST DUP1 PUSH2 0x65A JUMP JUMPDEST PUSH1 0x6 SLOAD DUP1 DUP3 LT ISZERO PUSH2 0x764 JUMPI DUP5 DUP5 PUSH2 0x706 DUP5 PUSH2 0x1D1E JUMP JUMPDEST SWAP1 SLOAD SWAP1 DUP12 SHL SHR AND EQ PUSH2 0x722 JUMPI POP PUSH2 0x71C SWAP1 PUSH2 0x20A4 JUMP JUMPDEST DUP5 PUSH2 0x6E5 JUMP JUMPDEST SWAP4 SWAP5 POP SWAP2 SWAP3 PUSH1 0x0 NOT DUP2 ADD SWAP1 DUP2 GT PUSH2 0x30C JUMPI PUSH1 0x7 SWAP3 PUSH2 0x2E5 DUP6 PUSH2 0x746 PUSH2 0x753 SWAP5 PUSH2 0x1D1E JUMP JUMPDEST SWAP1 SLOAD SWAP1 DUP12 SHL SHR AND SWAP2 PUSH2 0x1D1E JUMP JUMPDEST PUSH2 0x75B PUSH2 0x20B3 JUMP JUMPDEST DUP5 SWAP4 SWAP3 SWAP2 PUSH2 0x6EA JUMP JUMPDEST POP PUSH2 0x6EA JUMP JUMPDEST SWAP1 POP DUP2 DUP2 DUP2 RETURNDATASIZE DUP4 GT PUSH2 0x790 JUMPI JUMPDEST PUSH2 0x781 DUP2 DUP4 PUSH2 0x1BDD JUMP JUMPDEST DUP2 ADD SUB SLT PUSH2 0x19D JUMPI MLOAD DUP8 PUSH2 0x5E3 JUMP JUMPDEST POP RETURNDATASIZE PUSH2 0x777 JUMP JUMPDEST PUSH1 0x40 MLOAD RETURNDATASIZE PUSH1 0x0 DUP3 RETURNDATACOPY RETURNDATASIZE SWAP1 REVERT JUMPDEST CALLVALUE PUSH2 0x19D JUMPI PUSH1 0x20 CALLDATASIZE PUSH1 0x3 NOT ADD SLT PUSH2 0x19D JUMPI PUSH1 0x1 PUSH1 0x1 PUSH1 0xA0 SHL SUB PUSH2 0x7C4 PUSH2 0x1CF2 JUMP JUMPDEST AND PUSH1 0x0 MSTORE PUSH1 0x3 PUSH1 0x20 MSTORE PUSH1 0x20 PUSH1 0x40 PUSH1 0x0 KECCAK256 SLOAD PUSH1 0x40 MLOAD SWAP1 DUP2 MSTORE RETURN JUMPDEST CALLVALUE PUSH2 0x19D JUMPI PUSH1 0x3 NOT PUSH1 0x20 CALLDATASIZE DUP3 ADD SLT PUSH2 0x19D JUMPI PUSH8 0xFFFFFFFFFFFFFFFF PUSH1 0x4 CALLDATALOAD GT PUSH2 0x19D JUMPI PUSH2 0x120 PUSH1 0x4 CALLDATALOAD PUSH1 0x4 ADD SWAP2 PUSH1 0x4 CALLDATALOAD CALLDATASIZE SUB ADD SLT PUSH2 0x19D JUMPI PUSH2 0x81D PUSH2 0x1FBB JUMP JUMPDEST PUSH2 0x827 DUP2 DUP1 PUSH2 0x20F7 JUMP JUMPDEST SWAP2 SWAP1 PUSH2 0x838 PUSH1 0x24 PUSH1 0x4 CALLDATALOAD ADD DUP4 PUSH2 0x20F7 JUMP JUMPDEST SWAP1 SWAP3 SWAP1 SWAP2 SWAP1 PUSH1 0x4 CALLDATALOAD PUSH1 0x64 ADD CALLDATALOAD SWAP1 PUSH1 0x1 PUSH1 0x1 PUSH1 0xA0 SHL SUB DUP3 AND DUP3 SUB PUSH2 0x19D JUMPI PUSH1 0x84 PUSH1 0x4 CALLDATALOAD ADD CALLDATALOAD SWAP1 DUP2 ISZERO ISZERO DUP3 SUB PUSH2 0x19D JUMPI PUSH2 0x876 SWAP1 PUSH1 0xA4 PUSH1 0x4 CALLDATALOAD ADD SWAP1 PUSH2 0x20F7 JUMP JUMPDEST PUSH1 0x4 CALLDATALOAD PUSH2 0x104 ADD CALLDATALOAD SWAP7 SWAP2 SWAP5 SWAP1 SWAP4 SWAP2 PUSH1 0x1 PUSH1 0x1 PUSH1 0xA0 SHL SUB DUP9 AND DUP9 SUB PUSH2 0x19D JUMPI PUSH2 0x914 SWAP7 PUSH2 0x8B3 PUSH2 0x8BC SWAP4 PUSH1 0x40 MLOAD SWAP12 PUSH2 0x8AC DUP14 PUSH2 0x1BA4 JUMP JUMPDEST CALLDATASIZE SWAP2 PUSH2 0x212A JUMP JUMPDEST DUP11 MSTORE CALLDATASIZE SWAP2 PUSH2 0x212A JUMP JUMPDEST PUSH1 0x20 DUP9 ADD MSTORE PUSH1 0x4 CALLDATALOAD PUSH1 0x44 ADD CALLDATALOAD PUSH1 0x40 DUP9 ADD MSTORE PUSH1 0x1 PUSH1 0x1 PUSH1 0xA0 SHL SUB AND PUSH1 0x60 DUP8 ADD MSTORE PUSH1 0x0 PUSH1 0x80 DUP8 ADD DUP2 SWAP1 MSTORE PUSH1 0xA0 DUP8 ADD DUP2 SWAP1 MSTORE PUSH1 0xC0 DUP8 ADD DUP2 SWAP1 MSTORE PUSH1 0xE0 DUP8 ADD MSTORE TIMESTAMP PUSH2 0x100 DUP8 ADD MSTORE CALLER PUSH2 0x120 DUP8 ADD MSTORE ISZERO ISZERO PUSH2 0x140 DUP7 ADD MSTORE CALLDATASIZE SWAP2 PUSH2 0x212A JUMP JUMPDEST PUSH2 0x160 DUP4 ADD MSTORE PUSH1 0x4 CALLDATALOAD PUSH1 0xC4 DUP2 ADD CALLDATALOAD PUSH2 0x180 DUP5 ADD MSTORE PUSH1 0xE4 ADD CALLDATALOAD PUSH2 0x1A0 DUP4 ADD MSTORE PUSH1 0x1 PUSH1 0x1 PUSH1 0xA0 SHL SUB AND PUSH2 0x1C0 DUP3 ADD MSTORE PUSH1 0x1 SLOAD PUSH1 0x1 PUSH1 0x40 SHL DUP2 LT ISZERO PUSH2 0x43E JUMPI DUP1 PUSH1 0x1 PUSH2 0x960 SWAP3 ADD PUSH1 0x1 SSTORE PUSH2 0x1B19 JUMP JUMPDEST PUSH2 0xDF8 JUMPI DUP2 MLOAD SWAP2 DUP3 MLOAD PUSH8 0xFFFFFFFFFFFFFFFF DUP2 GT PUSH2 0x43E JUMPI PUSH2 0x982 DUP4 SLOAD PUSH2 0x1B6A JUMP JUMPDEST PUSH1 0x1F DUP2 GT PUSH2 0xDB4 JUMPI JUMPDEST POP PUSH1 0x20 PUSH1 0x1F DUP3 GT PUSH1 0x1 EQ PUSH2 0xD4C JUMPI DUP2 SWAP3 SWAP4 SWAP5 PUSH1 0x0 SWAP3 PUSH2 0xD41 JUMPI JUMPDEST POP POP DUP2 PUSH1 0x1 SHL SWAP2 PUSH1 0x0 NOT SWAP1 PUSH1 0x3 SHL SHR NOT AND OR DUP3 SSTORE JUMPDEST PUSH1 0x20 DUP2 ADD MLOAD SWAP2 DUP3 MLOAD PUSH8 0xFFFFFFFFFFFFFFFF DUP2 GT PUSH2 0x43E JUMPI PUSH2 0x9DE PUSH1 0x1 DUP4 ADD SLOAD PUSH2 0x1B6A JUMP JUMPDEST PUSH1 0x1F DUP2 GT PUSH2 0xCFA JUMPI JUMPDEST POP PUSH1 0x20 PUSH1 0x1F DUP3 GT PUSH1 0x1 EQ PUSH2 0xC8C JUMPI DUP2 SWAP3 SWAP4 SWAP5 PUSH1 0x0 SWAP3 PUSH2 0xC81 JUMPI JUMPDEST POP POP DUP2 PUSH1 0x1 SHL SWAP2 PUSH1 0x0 NOT SWAP1 PUSH1 0x3 SHL SHR NOT AND OR PUSH1 0x1 DUP3 ADD SSTORE JUMPDEST PUSH1 0x40 DUP3 ADD MLOAD PUSH1 0x2 DUP3 ADD SSTORE PUSH1 0x60 DUP3 ADD MLOAD PUSH1 0x3 DUP3 ADD DUP1 SLOAD PUSH1 0x1 PUSH1 0x1 PUSH1 0xA0 SHL SUB NOT AND PUSH1 0x1 PUSH1 0x1 PUSH1 0xA0 SHL SUB SWAP3 SWAP1 SWAP3 AND SWAP2 SWAP1 SWAP2 OR SWAP1 SSTORE PUSH1 0x80 DUP3 ADD MLOAD PUSH1 0x4 DUP2 LT ISZERO PUSH2 0xC6B JUMPI PUSH2 0xA65 SWAP1 PUSH1 0x3 DUP4 ADD PUSH2 0x2171 JUMP JUMPDEST PUSH1 0xA0 DUP3 ADD MLOAD PUSH1 0x4 DUP3 ADD SSTORE PUSH1 0xC0 DUP3 ADD MLOAD PUSH1 0x5 DUP3 ADD SSTORE PUSH1 0xE0 DUP3 ADD MLOAD PUSH1 0x6 DUP3 ADD SSTORE PUSH2 0x100 DUP3 ADD MLOAD PUSH1 0x7 DUP3 ADD SSTORE PUSH1 0x8 DUP2 ADD PUSH1 0x1 DUP1 PUSH1 0xA0 SHL SUB PUSH2 0x120 DUP5 ADD MLOAD AND DUP2 SLOAD SWAP1 PUSH1 0xFF PUSH1 0xA0 SHL PUSH2 0x140 DUP7 ADD MLOAD ISZERO ISZERO PUSH1 0xA0 SHL AND SWAP2 PUSH11 0xFFFFFFFFFFFFFFFFFFFFFF PUSH1 0xA8 SHL AND OR OR SWAP1 SSTORE PUSH2 0x160 DUP3 ADD MLOAD DUP1 MLOAD SWAP1 PUSH8 0xFFFFFFFFFFFFFFFF DUP3 GT PUSH2 0x43E JUMPI PUSH2 0xAEE PUSH1 0x9 DUP5 ADD SLOAD PUSH2 0x1B6A JUMP JUMPDEST PUSH1 0x1F DUP2 GT PUSH2 0xC24 JUMPI JUMPDEST POP PUSH1 0x20 SWAP1 PUSH1 0x1F DUP4 GT PUSH1 0x1 EQ PUSH2 0xBB3 JUMPI PUSH1 0xC SWAP4 SWAP3 SWAP2 PUSH1 0x0 SWAP2 DUP4 PUSH2 0xBA8 JUMPI JUMPDEST POP POP DUP2 PUSH1 0x1 SHL SWAP2 PUSH1 0x0 NOT SWAP1 PUSH1 0x3 SHL SHR NOT AND OR PUSH1 0x9 DUP3 ADD SSTORE JUMPDEST PUSH2 0x180 DUP4 ADD MLOAD PUSH1 0xA DUP3 ADD SSTORE PUSH2 0x1A0 DUP4 ADD MLOAD PUSH1 0xB DUP3 ADD SSTORE ADD SWAP1 PUSH2 0x1C0 PUSH1 0x1 DUP1 PUSH1 0xA0 SHL SUB SWAP2 ADD MLOAD AND PUSH12 0xFFFFFFFFFFFFFFFFFFFFFFFF PUSH1 0xA0 SHL DUP3 SLOAD AND OR SWAP1 SSTORE PUSH1 0x1 SLOAD PUSH1 0x0 NOT DUP2 ADD SWAP1 DUP2 GT PUSH2 0x30C JUMPI PUSH1 0x40 MLOAD PUSH1 0x20 SWAP2 CALLER DUP2 PUSH32 0xCD423CC1203C0AF96B9B3D68D73B3064A69DE2D14450BB7181C5E5DF2132B358 PUSH1 0x0 DUP1 LOG3 DUP2 MSTORE RETURN JUMPDEST ADD MLOAD SWAP1 POP DUP6 DUP1 PUSH2 0xB14 JUMP JUMPDEST SWAP1 PUSH1 0x1F NOT DUP4 AND SWAP2 PUSH1 0x9 DUP6 ADD PUSH1 0x0 MSTORE PUSH1 0x20 PUSH1 0x0 KECCAK256 SWAP3 PUSH1 0x0 JUMPDEST DUP2 DUP2 LT PUSH2 0xC0C JUMPI POP SWAP2 PUSH1 0x1 SWAP4 SWAP2 DUP6 PUSH1 0xC SWAP8 SWAP7 SWAP5 LT PUSH2 0xBF3 JUMPI JUMPDEST POP POP POP DUP2 SHL ADD PUSH1 0x9 DUP3 ADD SSTORE PUSH2 0xB2C JUMP JUMPDEST ADD MLOAD PUSH1 0x0 NOT PUSH1 0xF8 DUP5 PUSH1 0x3 SHL AND SHR NOT AND SWAP1 SSTORE DUP6 DUP1 DUP1 PUSH2 0xBE3 JUMP JUMPDEST SWAP3 SWAP4 PUSH1 0x20 PUSH1 0x1 DUP2 SWAP3 DUP8 DUP7 ADD MLOAD DUP2 SSTORE ADD SWAP6 ADD SWAP4 ADD PUSH2 0xBCA JUMP JUMPDEST PUSH1 0x9 DUP5 ADD PUSH1 0x0 MSTORE PUSH1 0x20 PUSH1 0x0 KECCAK256 PUSH1 0x1F DUP5 ADD PUSH1 0x5 SHR DUP2 ADD PUSH1 0x20 DUP6 LT PUSH2 0xC64 JUMPI JUMPDEST PUSH1 0x1F DUP4 ADD PUSH1 0x5 SHR DUP3 ADD DUP2 LT PUSH2 0xC58 JUMPI POP POP PUSH2 0xAF7 JUMP JUMPDEST PUSH1 0x0 DUP2 SSTORE PUSH1 0x1 ADD PUSH2 0xC42 JUMP JUMPDEST POP DUP1 PUSH2 0xC42 JUMP JUMPDEST PUSH4 0x4E487B71 PUSH1 0xE0 SHL PUSH1 0x0 MSTORE PUSH1 0x21 PUSH1 0x4 MSTORE PUSH1 0x24 PUSH1 0x0 REVERT JUMPDEST ADD MLOAD SWAP1 POP DUP5 DUP1 PUSH2 0xA01 JUMP JUMPDEST PUSH1 0x1 DUP4 ADD PUSH1 0x0 MSTORE PUSH1 0x20 PUSH1 0x0 KECCAK256 SWAP1 PUSH1 0x0 JUMPDEST PUSH1 0x1F NOT DUP5 AND DUP2 LT PUSH2 0xCE2 JUMPI POP PUSH1 0x1 SWAP4 SWAP5 SWAP6 DUP4 PUSH1 0x1F NOT DUP2 AND LT PUSH2 0xCC9 JUMPI JUMPDEST POP POP POP DUP2 SHL ADD PUSH1 0x1 DUP3 ADD SSTORE PUSH2 0xA19 JUMP JUMPDEST ADD MLOAD PUSH1 0x0 NOT PUSH1 0xF8 DUP5 PUSH1 0x3 SHL AND SHR NOT AND SWAP1 SSTORE DUP5 DUP1 DUP1 PUSH2 0xCB9 JUMP JUMPDEST SWAP1 SWAP2 PUSH1 0x20 PUSH1 0x1 DUP2 SWAP3 DUP6 DUP11 ADD MLOAD DUP2 SSTORE ADD SWAP4 ADD SWAP2 ADD PUSH2 0xC9C JUMP JUMPDEST PUSH1 0x1 DUP4 ADD PUSH1 0x0 MSTORE PUSH1 0x20 PUSH1 0x0 KECCAK256 PUSH1 0x1F DUP4 ADD PUSH1 0x5 SHR DUP2 ADD PUSH1 0x20 DUP5 LT PUSH2 0xD3A JUMPI JUMPDEST PUSH1 0x1F DUP4 ADD PUSH1 0x5 SHR DUP3 ADD DUP2 LT PUSH2 0xD2E JUMPI POP POP PUSH2 0x9E7 JUMP JUMPDEST PUSH1 0x0 DUP2 SSTORE PUSH1 0x1 ADD PUSH2 0xD18 JUMP JUMPDEST POP DUP1 PUSH2 0xD18 JUMP JUMPDEST ADD MLOAD SWAP1 POP DUP5 DUP1 PUSH2 0x9A5 JUMP JUMPDEST DUP4 PUSH1 0x0 MSTORE PUSH1 0x20 PUSH1 0x0 KECCAK256 SWAP1 PUSH1 0x0 JUMPDEST PUSH1 0x1F NOT DUP5 AND DUP2 LT PUSH2 0xD9C JUMPI POP PUSH1 0x1 SWAP4 SWAP5 SWAP6 DUP4 PUSH1 0x1F NOT DUP2 AND LT PUSH2 0xD83 JUMPI JUMPDEST POP POP POP DUP2 SHL ADD DUP3 SSTORE PUSH2 0x9BA JUMP JUMPDEST ADD MLOAD PUSH1 0x0 NOT PUSH1 0xF8 DUP5 PUSH1 0x3 SHL AND SHR NOT AND SWAP1 SSTORE DUP5 DUP1 DUP1 PUSH2 0xD76 JUMP JUMPDEST SWAP1 SWAP2 PUSH1 0x20 PUSH1 0x1 DUP2 SWAP3 DUP6 DUP11 ADD MLOAD DUP2 SSTORE ADD SWAP4 ADD SWAP2 ADD PUSH2 0xD59 JUMP JUMPDEST DUP4 PUSH1 0x0 MSTORE PUSH1 0x20 PUSH1 0x0 KECCAK256 PUSH1 0x1F DUP4 ADD PUSH1 0x5 SHR DUP2 ADD PUSH1 0x20 DUP5 LT PUSH2 0xDF1 JUMPI JUMPDEST PUSH1 0x1F DUP4 ADD PUSH1 0x5 SHR DUP3 ADD DUP2 LT PUSH2 0xDE5 JUMPI POP POP PUSH2 0x98B JUMP JUMPDEST PUSH1 0x0 DUP2 SSTORE PUSH1 0x1 ADD PUSH2 0xDCF JUMP JUMPDEST POP DUP1 PUSH2 0xDCF JUMP JUMPDEST PUSH4 0x4E487B71 PUSH1 0xE0 SHL PUSH1 0x0 MSTORE PUSH1 0x0 PUSH1 0x4 MSTORE PUSH1 0x24 PUSH1 0x0 REVERT JUMPDEST CALLVALUE PUSH2 0x19D JUMPI PUSH1 0x40 CALLDATASIZE PUSH1 0x3 NOT ADD SLT PUSH2 0x19D JUMPI PUSH1 0x4 CALLDATALOAD PUSH2 0xE2A PUSH2 0x1D08 JUMP JUMPDEST SWAP1 PUSH2 0xE33 PUSH2 0x1F41 JUMP JUMPDEST PUSH2 0xE3C DUP2 PUSH2 0x1B19 JUMP JUMPDEST POP DUP2 PUSH1 0x0 MSTORE PUSH1 0x2 PUSH1 0x20 MSTORE PUSH1 0x40 PUSH1 0x0 KECCAK256 SWAP3 PUSH1 0x1 DUP1 PUSH1 0xA0 SHL SUB AND SWAP3 DUP4 PUSH1 0x0 MSTORE PUSH1 0x20 MSTORE PUSH1 0xFF PUSH1 0x40 PUSH1 0x0 KECCAK256 SLOAD AND ISZERO PUSH2 0xE6C JUMPI STOP JUMPDEST PUSH1 0x6 SWAP1 DUP3 PUSH1 0x0 MSTORE PUSH1 0x2 PUSH1 0x20 MSTORE PUSH1 0x40 PUSH1 0x0 KECCAK256 DUP5 PUSH1 0x0 MSTORE PUSH1 0x20 MSTORE PUSH1 0x40 PUSH1 0x0 KECCAK256 PUSH1 0x1 PUSH1 0xFF NOT DUP3 SLOAD AND OR SWAP1 SSTORE ADD PUSH2 0xE9F DUP2 SLOAD PUSH2 0x20A4 JUMP JUMPDEST SWAP1 SSTORE PUSH1 0x0 DUP1 MLOAD PUSH1 0x20 PUSH2 0x22B1 DUP4 CODECOPY DUP2 MLOAD SWAP2 MSTORE PUSH1 0x20 PUSH1 0x40 MLOAD PUSH1 0x2 DUP2 MSTORE LOG3 STOP JUMPDEST CALLVALUE PUSH2 0x19D JUMPI PUSH1 0x20 CALLDATASIZE PUSH1 0x3 NOT ADD SLT PUSH2 0x19D JUMPI PUSH1 0x1 PUSH1 0x1 PUSH1 0xA0 SHL SUB PUSH2 0xEDD PUSH2 0x1CF2 JUMP JUMPDEST AND PUSH1 0x0 MSTORE PUSH1 0x7 PUSH1 0x20 MSTORE PUSH1 0x20 PUSH1 0xFF PUSH1 0x40 PUSH1 0x0 KECCAK256 SLOAD AND PUSH1 0x40 MLOAD SWAP1 ISZERO ISZERO DUP2 MSTORE RETURN JUMPDEST CALLVALUE PUSH2 0x19D JUMPI PUSH1 0x0 CALLDATASIZE PUSH1 0x3 NOT ADD SLT PUSH2 0x19D JUMPI PUSH1 0x20 PUSH1 0x40 MLOAD PUSH1 0x0 DUP2 MSTORE RETURN JUMPDEST CALLVALUE PUSH2 0x19D JUMPI PUSH1 0x0 CALLDATASIZE PUSH1 0x3 NOT ADD SLT PUSH2 0x19D JUMPI PUSH1 0x20 PUSH1 0x40 MLOAD PUSH1 0x0 DUP1 MLOAD PUSH1 0x20 PUSH2 0x2291 DUP4 CODECOPY DUP2 MLOAD SWAP2 MSTORE DUP2 MSTORE RETURN JUMPDEST CALLVALUE PUSH2 0x19D JUMPI PUSH1 0x0 CALLDATASIZE PUSH1 0x3 NOT ADD SLT PUSH2 0x19D JUMPI PUSH1 0x20 PUSH1 0x6 SLOAD PUSH1 0x40 MLOAD SWAP1 DUP2 MSTORE RETURN JUMPDEST CALLVALUE PUSH2 0x19D JUMPI PUSH1 0x40 CALLDATASIZE PUSH1 0x3 NOT ADD SLT PUSH2 0x19D JUMPI PUSH1 0x4 CALLDATALOAD PUSH1 0x24 SWAP1 DUP2 CALLDATALOAD SWAP2 PUSH1 0xFF DUP4 AND DUP1 SWAP4 SUB PUSH2 0x19D JUMPI PUSH2 0xF8B PUSH2 0x1FBB JUMP JUMPDEST PUSH2 0xF94 DUP3 PUSH2 0x1B19 JUMP JUMPDEST POP PUSH1 0xFF PUSH1 0x8 DUP3 ADD SLOAD PUSH1 0xA0 SHR AND ISZERO PUSH2 0x1299 JUMPI DUP3 PUSH1 0x0 MSTORE PUSH1 0x20 SWAP2 PUSH1 0x2 DUP4 MSTORE PUSH1 0x40 PUSH1 0x0 KECCAK256 CALLER PUSH1 0x0 MSTORE DUP4 MSTORE PUSH1 0xFF PUSH1 0x40 PUSH1 0x0 KECCAK256 SLOAD AND PUSH2 0x125E JUMPI PUSH1 0x0 DUP1 PUSH1 0x40 MLOAD PUSH2 0xFD7 DUP2 PUSH2 0x1BC1 JUMP JUMPDEST PUSH1 0xB DUP2 MSTORE PUSH11 0x1D9BDD194818D85B1B1959 PUSH1 0xAA SHL DUP7 DUP3 ADD MSTORE PUSH1 0x40 MLOAD DUP3 DUP1 DUP3 PUSH2 0x1014 DUP11 DUP3 ADD SWAP6 PUSH4 0x104C13EB PUSH1 0xE2 SHL DUP8 MSTORE DUP12 DUP11 DUP5 ADD MSTORE PUSH1 0x44 DUP4 ADD SWAP1 PUSH2 0x1CA5 JUMP JUMPDEST SUB SWAP3 PUSH2 0x1028 PUSH1 0x1F NOT SWAP5 DUP6 DUP2 ADD DUP4 MSTORE DUP3 PUSH2 0x1BDD JUMP JUMPDEST MLOAD PUSH11 0x636F6E736F6C652E6C6F67 SWAP5 DUP6 GAS STATICCALL POP DUP3 DUP1 DUP7 PUSH1 0x40 PUSH2 0x1099 DUP12 DUP14 PUSH2 0x1087 DUP5 MLOAD PUSH2 0x1052 DUP2 PUSH2 0x1BC1 JUMP JUMPDEST PUSH1 0xA DUP2 MSTORE PUSH10 0x1C1C9BDC1BDCD85B1259 PUSH1 0xB2 SHL DUP5 DUP3 ADD MSTORE DUP6 MLOAD SWAP6 DUP7 SWAP5 DUP6 ADD SWAP8 PUSH4 0x2D839CB3 PUSH1 0xE2 SHL DUP10 MSTORE DUP6 ADD MSTORE PUSH1 0x64 DUP5 ADD SWAP1 PUSH2 0x1CA5 JUMP JUMPDEST SWAP1 PUSH1 0x44 DUP4 ADD MSTORE SUB DUP7 DUP2 ADD DUP4 MSTORE DUP3 PUSH2 0x1BDD JUMP JUMPDEST MLOAD SWAP1 DUP6 GAS STATICCALL POP DUP3 DUP1 PUSH1 0x40 MLOAD PUSH2 0x10AD DUP2 PUSH2 0x1BC1 JUMP JUMPDEST PUSH1 0xA DUP2 MSTORE PUSH10 0x36B9B39739B2B73232B9 PUSH1 0xB1 SHL DUP11 DUP3 ADD MSTORE PUSH1 0x40 MLOAD PUSH2 0x10FD DUP2 PUSH2 0x10EB DUP14 DUP3 ADD SWAP5 PUSH4 0x319AF333 PUSH1 0xE0 SHL DUP7 MSTORE PUSH1 0x40 DUP14 DUP5 ADD MSTORE PUSH1 0x64 DUP4 ADD SWAP1 PUSH2 0x1CA5 JUMP JUMPDEST CALLER PUSH1 0x44 DUP4 ADD MSTORE SUB DUP7 DUP2 ADD DUP4 MSTORE DUP3 PUSH2 0x1BDD JUMP JUMPDEST MLOAD SWAP1 DUP6 GAS STATICCALL POP DUP8 DUP4 MSTORE PUSH1 0x2 DUP8 MSTORE PUSH1 0x40 DUP4 KECCAK256 CALLER DUP5 MSTORE DUP8 MSTORE PUSH1 0xFF PUSH1 0x40 DUP5 KECCAK256 SLOAD AND PUSH2 0x1179 PUSH1 0x40 MLOAD SWAP3 PUSH2 0x112B DUP5 PUSH2 0x1BC1 JUMP JUMPDEST PUSH1 0x8 DUP5 MSTORE PUSH8 0x1A185CD59BDD1959 PUSH1 0xC2 SHL DUP11 DUP6 ADD MSTORE PUSH1 0x40 MLOAD DUP1 SWAP4 PUSH2 0x1165 DUP13 DUP4 ADD SWAP7 PUSH4 0xC3B55635 PUSH1 0xE0 SHL DUP9 MSTORE PUSH1 0x40 DUP13 DUP6 ADD MSTORE PUSH1 0x64 DUP5 ADD SWAP1 PUSH2 0x1CA5 JUMP JUMPDEST SWAP1 ISZERO ISZERO PUSH1 0x44 DUP4 ADD MSTORE SUB SWAP1 DUP2 ADD DUP4 MSTORE DUP3 PUSH2 0x1BDD JUMP JUMPDEST MLOAD SWAP2 GAS STATICCALL POP PUSH1 0x0 DUP5 DUP2 MSTORE PUSH1 0x2 DUP5 MSTORE PUSH1 0x40 DUP1 DUP3 KECCAK256 CALLER DUP4 MSTORE DUP6 MSTORE SWAP1 KECCAK256 DUP1 SLOAD PUSH1 0xFF NOT AND PUSH1 0x1 OR SWAP1 SSTORE DUP5 PUSH2 0x11D0 JUMPI POP SWAP1 PUSH1 0x4 PUSH1 0x0 DUP1 MLOAD PUSH1 0x20 PUSH2 0x22B1 DUP4 CODECOPY DUP2 MLOAD SWAP2 MSTORE SWAP3 ADD PUSH2 0x11C2 DUP2 SLOAD PUSH2 0x20A4 JUMP JUMPDEST SWAP1 SSTORE JUMPDEST PUSH1 0x40 MLOAD SWAP4 DUP5 MSTORE CALLER SWAP4 LOG3 STOP JUMPDEST PUSH1 0x1 DUP6 SUB PUSH2 0x11FE JUMPI POP SWAP1 PUSH1 0x5 PUSH1 0x0 DUP1 MLOAD PUSH1 0x20 PUSH2 0x22B1 DUP4 CODECOPY DUP2 MLOAD SWAP2 MSTORE SWAP3 ADD PUSH2 0x11F7 DUP2 SLOAD PUSH2 0x20A4 JUMP JUMPDEST SWAP1 SSTORE PUSH2 0x11C5 JUMP JUMPDEST PUSH1 0x2 DUP6 SUB PUSH2 0x1225 JUMPI POP SWAP1 PUSH1 0x6 PUSH1 0x0 DUP1 MLOAD PUSH1 0x20 PUSH2 0x22B1 DUP4 CODECOPY DUP2 MLOAD SWAP2 MSTORE SWAP3 ADD PUSH2 0x11F7 DUP2 SLOAD PUSH2 0x20A4 JUMP JUMPDEST DUP3 PUSH1 0x13 PUSH1 0x64 SWAP3 PUSH1 0x40 MLOAD SWAP3 PUSH3 0x461BCD PUSH1 0xE5 SHL DUP5 MSTORE PUSH1 0x4 DUP5 ADD MSTORE DUP3 ADD MSTORE PUSH19 0x496E76616C696420766F74652063686F696365 PUSH1 0x68 SHL PUSH1 0x44 DUP3 ADD MSTORE REVERT JUMPDEST DUP3 PUSH1 0x15 PUSH1 0x64 SWAP3 PUSH1 0x40 MLOAD SWAP3 PUSH3 0x461BCD PUSH1 0xE5 SHL DUP5 MSTORE PUSH1 0x4 DUP5 ADD MSTORE DUP3 ADD MSTORE PUSH21 0x159BDD1A5B99CE88185B1C9958591E481D9BDD1959 PUSH1 0x5A SHL PUSH1 0x44 DUP3 ADD MSTORE REVERT JUMPDEST PUSH1 0x40 MLOAD PUSH3 0x461BCD PUSH1 0xE5 SHL DUP2 MSTORE PUSH1 0x20 PUSH1 0x4 DUP3 ADD MSTORE PUSH1 0x25 DUP2 DUP5 ADD MSTORE PUSH32 0x566F74696E67206E6F7420726571756972656420666F7220746869732070726F PUSH1 0x44 DUP3 ADD MSTORE PUSH5 0x1C1BDCD85B PUSH1 0xDA SHL PUSH1 0x64 DUP3 ADD MSTORE PUSH1 0x84 SWAP1 REVERT JUMPDEST CALLVALUE PUSH2 0x19D JUMPI PUSH1 0x40 CALLDATASIZE PUSH1 0x3 NOT ADD SLT PUSH2 0x19D JUMPI PUSH2 0x1304 PUSH2 0x1D08 JUMP JUMPDEST PUSH1 0x4 CALLDATALOAD PUSH1 0x0 MSTORE PUSH1 0x0 PUSH1 0x20 MSTORE PUSH1 0x40 PUSH1 0x0 KECCAK256 SWAP1 PUSH1 0x1 DUP1 PUSH1 0xA0 SHL SUB AND PUSH1 0x0 MSTORE PUSH1 0x20 MSTORE PUSH1 0x20 PUSH1 0xFF PUSH1 0x40 PUSH1 0x0 KECCAK256 SLOAD AND PUSH1 0x40 MLOAD SWAP1 ISZERO ISZERO DUP2 MSTORE RETURN JUMPDEST CALLVALUE PUSH2 0x19D JUMPI PUSH1 0x0 CALLDATASIZE PUSH1 0x3 NOT ADD SLT PUSH2 0x19D JUMPI PUSH1 0x40 MLOAD DUP1 PUSH1 0x6 SLOAD DUP1 DUP4 MSTORE PUSH1 0x20 DUP1 SWAP4 ADD DUP1 SWAP2 PUSH1 0x6 PUSH1 0x0 MSTORE PUSH32 0xF652222313E28459528D920B65115C16C04F3EFC82AAEDC97BE59F3F377C0D3F SWAP1 PUSH1 0x0 JUMPDEST DUP7 DUP3 DUP3 LT PUSH2 0x13E3 JUMPI DUP7 DUP7 PUSH2 0x139A DUP3 DUP9 SUB DUP4 PUSH2 0x1BDD JUMP JUMPDEST PUSH1 0x40 MLOAD SWAP3 DUP4 SWAP3 DUP2 DUP5 ADD SWAP1 DUP3 DUP6 MSTORE MLOAD DUP1 SWAP2 MSTORE PUSH1 0x40 DUP5 ADD SWAP3 SWAP2 PUSH1 0x0 JUMPDEST DUP3 DUP2 LT PUSH2 0x13C3 JUMPI POP POP POP POP SUB SWAP1 RETURN JUMPDEST DUP4 MLOAD PUSH1 0x1 PUSH1 0x1 PUSH1 0xA0 SHL SUB AND DUP6 MSTORE DUP7 SWAP6 POP SWAP4 DUP2 ADD SWAP4 SWAP3 DUP2 ADD SWAP3 PUSH1 0x1 ADD PUSH2 0x13B4 JUMP JUMPDEST DUP4 SLOAD PUSH1 0x1 PUSH1 0x1 PUSH1 0xA0 SHL SUB AND DUP6 MSTORE SWAP1 SWAP4 ADD SWAP3 PUSH1 0x1 SWAP3 DUP4 ADD SWAP3 ADD PUSH2 0x1384 JUMP JUMPDEST CALLVALUE PUSH2 0x19D JUMPI PUSH1 0x40 CALLDATASIZE PUSH1 0x3 NOT ADD SLT PUSH2 0x19D JUMPI PUSH2 0x1419 PUSH2 0x1D08 JUMP JUMPDEST PUSH1 0x4 CALLDATALOAD PUSH1 0x0 MSTORE PUSH1 0x2 PUSH1 0x20 MSTORE PUSH1 0x40 PUSH1 0x0 KECCAK256 SWAP1 PUSH1 0x1 DUP1 PUSH1 0xA0 SHL SUB AND PUSH1 0x0 MSTORE PUSH1 0x20 MSTORE PUSH1 0x20 PUSH1 0xFF PUSH1 0x40 PUSH1 0x0 KECCAK256 SLOAD AND PUSH1 0x40 MLOAD SWAP1 ISZERO ISZERO DUP2 MSTORE RETURN JUMPDEST CALLVALUE PUSH2 0x19D JUMPI PUSH1 0x20 CALLDATASIZE PUSH1 0x3 NOT ADD SLT PUSH2 0x19D JUMPI PUSH1 0x4 CALLDATALOAD PUSH1 0x6 SLOAD DUP2 LT ISZERO PUSH2 0x19D JUMPI PUSH2 0x1476 PUSH1 0x20 SWAP2 PUSH2 0x1D1E JUMP JUMPDEST SWAP1 SLOAD PUSH1 0x40 MLOAD PUSH1 0x3 SWAP3 SWAP1 SWAP3 SHL SHR PUSH1 0x1 PUSH1 0x1 PUSH1 0xA0 SHL SUB AND DUP2 MSTORE RETURN JUMPDEST CALLVALUE PUSH2 0x19D JUMPI PUSH1 0x40 CALLDATASIZE PUSH1 0x3 NOT ADD SLT PUSH2 0x19D JUMPI PUSH2 0x14A8 PUSH2 0x1CF2 JUMP JUMPDEST PUSH2 0x14B0 PUSH2 0x1F41 JUMP JUMPDEST PUSH1 0x1 PUSH1 0x1 PUSH1 0xA0 SHL SUB AND PUSH1 0x0 DUP2 DUP2 MSTORE PUSH1 0x4 PUSH1 0x20 MSTORE PUSH1 0x40 SWAP1 KECCAK256 SLOAD PUSH1 0x24 CALLDATALOAD DUP2 ADD SWAP1 DUP2 LT PUSH2 0x30C JUMPI PUSH1 0x64 DUP2 GT PUSH2 0x1507 JUMPI JUMPDEST PUSH1 0x20 PUSH1 0x0 DUP1 MLOAD PUSH1 0x20 PUSH2 0x2271 DUP4 CODECOPY DUP2 MLOAD SWAP2 MSTORE SWAP2 DUP4 PUSH1 0x0 MSTORE PUSH1 0x4 DUP3 MSTORE DUP1 PUSH1 0x40 PUSH1 0x0 KECCAK256 SSTORE PUSH1 0x40 MLOAD SWAP1 DUP2 MSTORE LOG2 STOP JUMPDEST POP PUSH1 0x64 PUSH2 0x14DD JUMP JUMPDEST CALLVALUE PUSH2 0x19D JUMPI PUSH1 0x40 CALLDATASIZE PUSH1 0x3 NOT ADD SLT PUSH2 0x19D JUMPI PUSH2 0x1528 PUSH2 0x1D08 JUMP JUMPDEST CALLER PUSH1 0x1 PUSH1 0x1 PUSH1 0xA0 SHL SUB DUP3 AND SUB PUSH2 0x1544 JUMPI PUSH2 0x27E SWAP1 PUSH1 0x4 CALLDATALOAD PUSH2 0x1ECC JUMP JUMPDEST PUSH1 0x40 MLOAD PUSH4 0x334BD919 PUSH1 0xE1 SHL DUP2 MSTORE PUSH1 0x4 SWAP1 REVERT JUMPDEST CALLVALUE PUSH2 0x19D JUMPI PUSH1 0x40 CALLDATASIZE PUSH1 0x3 NOT ADD SLT PUSH2 0x19D JUMPI PUSH1 0x4 CALLDATALOAD PUSH2 0x1572 PUSH2 0x1D08 JUMP JUMPDEST DUP2 PUSH1 0x0 MSTORE PUSH1 0x0 DUP1 MLOAD PUSH1 0x20 PUSH2 0x2291 DUP4 CODECOPY DUP2 MLOAD SWAP2 MSTORE PUSH1 0x20 SWAP3 PUSH1 0x0 DUP5 MSTORE PUSH2 0x159D PUSH1 0x1 PUSH1 0x40 PUSH1 0x0 KECCAK256 ADD SLOAD PUSH2 0x2005 JUMP JUMPDEST DUP1 PUSH1 0x0 MSTORE PUSH1 0x0 DUP5 MSTORE PUSH2 0x15B6 PUSH1 0x1 PUSH1 0x40 PUSH1 0x0 KECCAK256 ADD SLOAD PUSH2 0x2005 JUMP JUMPDEST PUSH2 0x15C0 DUP4 DUP3 PUSH2 0x202B JUMP JUMPDEST POP EQ DUP1 PUSH2 0x1638 JUMPI JUMPDEST PUSH2 0x15CE JUMPI STOP JUMPDEST PUSH1 0x6 SLOAD SWAP1 PUSH1 0x1 PUSH1 0x40 SHL DUP3 LT ISZERO PUSH2 0x43E JUMPI PUSH2 0x1601 DUP2 PUSH2 0x2E5 DUP5 PUSH1 0x1 PUSH1 0x0 DUP1 MLOAD PUSH1 0x20 PUSH2 0x2271 DUP4 CODECOPY DUP2 MLOAD SWAP2 MSTORE SWAP7 ADD PUSH1 0x6 SSTORE PUSH2 0x1D1E JUMP JUMPDEST PUSH1 0x1 DUP1 PUSH1 0xA0 SHL SUB AND SWAP2 DUP3 PUSH1 0x0 MSTORE PUSH1 0x7 DUP2 MSTORE PUSH1 0x40 PUSH1 0x0 KECCAK256 PUSH1 0x1 PUSH1 0xFF NOT DUP3 SLOAD AND OR SWAP1 SSTORE PUSH1 0x4 DUP2 MSTORE PUSH1 0x32 PUSH1 0x40 PUSH1 0x0 KECCAK256 SSTORE PUSH1 0x40 MLOAD PUSH1 0x32 DUP2 MSTORE LOG2 STOP JUMPDEST POP PUSH1 0x1 PUSH1 0x1 PUSH1 0xA0 SHL SUB DUP2 AND PUSH1 0x0 SWAP1 DUP2 MSTORE PUSH1 0x7 DUP4 MSTORE PUSH1 0x40 SWAP1 KECCAK256 SLOAD PUSH1 0xFF AND ISZERO PUSH2 0x15C8 JUMP JUMPDEST CALLVALUE PUSH2 0x19D JUMPI PUSH1 0x40 CALLDATASIZE PUSH1 0x3 NOT ADD SLT PUSH2 0x19D JUMPI PUSH2 0x1673 PUSH2 0x1CF2 JUMP JUMPDEST PUSH1 0x24 SWAP1 DUP2 CALLDATALOAD PUSH2 0x1680 PUSH2 0x1F41 JUMP JUMPDEST PUSH1 0x1 DUP1 PUSH1 0xA0 SHL SUB SWAP3 DUP4 DUP4 AND SWAP1 DUP2 PUSH1 0x0 MSTORE PUSH1 0x20 SWAP3 PUSH1 0x4 DUP5 MSTORE PUSH1 0x40 PUSH1 0x0 KECCAK256 SLOAD SWAP1 DUP1 DUP3 GT PUSH1 0x0 EQ PUSH2 0x18E3 JUMPI DUP2 SUB SWAP1 DUP2 GT PUSH2 0x18CE JUMPI PUSH1 0x0 DUP1 MLOAD PUSH1 0x20 PUSH2 0x2271 DUP4 CODECOPY DUP2 MLOAD SWAP2 MSTORE DUP5 DUP5 SWAP3 JUMPDEST DUP4 PUSH1 0x0 MSTORE PUSH1 0x4 DUP3 MSTORE DUP1 PUSH1 0x40 PUSH1 0x0 KECCAK256 SSTORE PUSH1 0x40 MLOAD SWAP1 DUP2 MSTORE LOG2 PUSH1 0x4 DUP4 DUP7 PUSH1 0x5 SLOAD AND PUSH1 0x40 MLOAD SWAP3 DUP4 DUP1 SWAP3 PUSH4 0x295E4F41 PUSH1 0xE1 SHL DUP3 MSTORE GAS STATICCALL SWAP1 DUP2 ISZERO PUSH2 0x797 JUMPI PUSH1 0x0 SWAP2 PUSH2 0x18A1 JUMPI JUMPDEST POP DUP3 PUSH1 0x0 MSTORE PUSH1 0x4 DUP5 MSTORE PUSH1 0x40 PUSH1 0x0 KECCAK256 SLOAD LT PUSH2 0x171A JUMPI STOP JUMPDEST PUSH2 0x175F PUSH1 0x0 DUP1 MLOAD PUSH1 0x20 PUSH2 0x2291 DUP4 CODECOPY DUP2 MLOAD SWAP2 MSTORE SWAP5 DUP6 PUSH1 0x0 MSTORE PUSH1 0x0 DUP6 MSTORE PUSH1 0x1 SWAP6 PUSH2 0x1748 DUP8 PUSH1 0x40 PUSH1 0x0 KECCAK256 ADD SLOAD PUSH2 0x2005 JUMP JUMPDEST PUSH1 0x0 MSTORE PUSH1 0x0 DUP6 MSTORE PUSH2 0x63C DUP7 PUSH1 0x40 PUSH1 0x0 KECCAK256 ADD SLOAD PUSH2 0x2005 JUMP JUMPDEST POP DUP2 PUSH1 0x0 MSTORE PUSH1 0x7 DUP4 MSTORE PUSH1 0x40 PUSH1 0x0 KECCAK256 DUP1 SLOAD PUSH1 0xFF DUP2 AND PUSH2 0x180E JUMPI JUMPDEST POP POP DUP2 PUSH1 0x0 MSTORE PUSH1 0x7 PUSH1 0x3 SWAP4 DUP5 DUP2 MSTORE PUSH1 0x0 PUSH1 0x40 DUP2 KECCAK256 SSTORE MSTORE PUSH1 0x40 PUSH1 0x0 KECCAK256 PUSH1 0xFF NOT DUP2 SLOAD AND SWAP1 SSTORE DUP4 PUSH1 0x0 SWAP1 JUMPDEST PUSH2 0x17A6 JUMPI STOP JUMPDEST PUSH1 0x6 SLOAD DUP1 DUP3 LT ISZERO PUSH2 0x27E JUMPI DUP4 DUP8 PUSH2 0x17BC DUP5 PUSH2 0x1D1E JUMP JUMPDEST SWAP1 SLOAD SWAP1 DUP9 SHL SHR AND EQ PUSH2 0x17D8 JUMPI POP PUSH2 0x17D2 SWAP1 PUSH2 0x20A4 JUMP JUMPDEST DUP5 PUSH2 0x17A0 JUMP JUMPDEST SWAP1 SWAP5 POP PUSH1 0x0 NOT DUP2 ADD SWAP3 POP DUP3 GT PUSH2 0x17FA JUMPI POP SWAP3 PUSH2 0x2E5 SWAP2 PUSH2 0x2D9 PUSH2 0x304 SWAP6 PUSH2 0x1D1E JUMP JUMPDEST PUSH4 0x4E487B71 PUSH1 0xE0 SHL PUSH1 0x0 SWAP1 DUP2 MSTORE PUSH1 0x11 PUSH1 0x4 MSTORE REVERT JUMPDEST PUSH1 0xFF NOT AND SWAP1 SSTORE DUP4 PUSH1 0x0 DUP2 JUMPDEST ISZERO PUSH2 0x1778 JUMPI DUP7 PUSH1 0x6 SLOAD DUP1 DUP4 LT ISZERO PUSH2 0x189A JUMPI DUP6 PUSH2 0x1834 DUP5 PUSH2 0x1D1E JUMP JUMPDEST SWAP4 SWAP1 SLOAD PUSH1 0x3 SWAP5 DUP6 SHL SHR AND EQ PUSH2 0x1854 JUMPI POP POP PUSH2 0x184E SWAP1 PUSH2 0x20A4 JUMP JUMPDEST DUP2 PUSH2 0x1819 JUMP JUMPDEST SWAP2 SWAP3 POP SWAP1 PUSH1 0x0 NOT DUP2 ADD SWAP1 DUP2 GT PUSH2 0x1885 JUMPI DUP8 PUSH2 0x1876 SWAP4 SWAP3 PUSH2 0x2D9 PUSH2 0x2E5 SWAP4 PUSH2 0x1D1E JUMP JUMPDEST PUSH2 0x187E PUSH2 0x20B3 JUMP JUMPDEST DUP4 DUP7 PUSH2 0x1778 JUMP JUMPDEST DUP4 PUSH4 0x4E487B71 PUSH1 0xE0 SHL PUSH1 0x0 MSTORE PUSH1 0x11 PUSH1 0x4 MSTORE PUSH1 0x0 REVERT JUMPDEST POP POP PUSH2 0x1778 JUMP JUMPDEST SWAP1 POP DUP4 DUP2 DUP2 RETURNDATASIZE DUP4 GT PUSH2 0x18C7 JUMPI JUMPDEST PUSH2 0x18B8 DUP2 DUP4 PUSH2 0x1BDD JUMP JUMPDEST DUP2 ADD SUB SLT PUSH2 0x19D JUMPI MLOAD DUP7 PUSH2 0x1704 JUMP JUMPDEST POP RETURNDATASIZE PUSH2 0x18AE JUMP JUMPDEST POP PUSH4 0x4E487B71 PUSH1 0xE0 SHL PUSH1 0x0 SWAP1 DUP2 MSTORE PUSH1 0x11 PUSH1 0x4 MSTORE REVERT JUMPDEST POP POP DUP2 PUSH1 0x0 DUP1 MLOAD PUSH1 0x20 PUSH2 0x2271 DUP4 CODECOPY DUP2 MLOAD SWAP2 MSTORE DUP5 PUSH1 0x0 PUSH2 0x16C4 JUMP JUMPDEST CALLVALUE PUSH2 0x19D JUMPI PUSH1 0x20 CALLDATASIZE PUSH1 0x3 NOT ADD SLT PUSH2 0x19D JUMPI PUSH1 0x4 CALLDATALOAD PUSH1 0x0 MSTORE PUSH1 0x0 PUSH1 0x20 MSTORE PUSH1 0x20 PUSH1 0x1 PUSH1 0x40 PUSH1 0x0 KECCAK256 ADD SLOAD PUSH1 0x40 MLOAD SWAP1 DUP2 MSTORE RETURN JUMPDEST CALLVALUE PUSH2 0x19D JUMPI PUSH1 0x0 CALLDATASIZE PUSH1 0x3 NOT ADD SLT PUSH2 0x19D JUMPI PUSH1 0x5 SLOAD PUSH1 0x40 MLOAD PUSH1 0x1 PUSH1 0x1 PUSH1 0xA0 SHL SUB SWAP1 SWAP2 AND DUP2 MSTORE PUSH1 0x20 SWAP1 RETURN JUMPDEST CALLVALUE PUSH2 0x19D JUMPI PUSH1 0x20 CALLDATASIZE PUSH1 0x3 NOT ADD SLT PUSH2 0x19D JUMPI PUSH1 0x1 PUSH1 0x1 PUSH1 0xA0 SHL SUB PUSH2 0x1976 PUSH2 0x1CF2 JUMP JUMPDEST AND PUSH1 0x0 MSTORE PUSH1 0x4 PUSH1 0x20 MSTORE PUSH1 0x20 PUSH1 0x40 PUSH1 0x0 KECCAK256 SLOAD PUSH1 0x40 MLOAD SWAP1 DUP2 MSTORE RETURN JUMPDEST CALLVALUE PUSH2 0x19D JUMPI PUSH1 0x20 CALLDATASIZE PUSH1 0x3 NOT ADD SLT PUSH2 0x19D JUMPI PUSH1 0x4 CALLDATALOAD PUSH4 0xFFFFFFFF PUSH1 0xE0 SHL DUP2 AND DUP1 SWAP2 SUB PUSH2 0x19D JUMPI PUSH1 0x20 SWAP1 PUSH4 0x7965DB0B PUSH1 0xE0 SHL DUP2 EQ SWAP1 DUP2 ISZERO PUSH2 0x19D4 JUMPI JUMPDEST POP PUSH1 0x40 MLOAD SWAP1 ISZERO ISZERO DUP2 MSTORE RETURN JUMPDEST PUSH4 0x1FFC9A7 PUSH1 0xE0 SHL EQ SWAP1 POP DUP3 PUSH2 0x19C9 JUMP JUMPDEST CALLVALUE PUSH2 0x19D JUMPI PUSH1 0x20 CALLDATASIZE PUSH1 0x3 NOT ADD SLT PUSH2 0x19D JUMPI PUSH1 0x4 CALLDATALOAD PUSH1 0x1 SLOAD DUP2 LT ISZERO PUSH2 0x19D JUMPI PUSH2 0x1A0C SWAP1 PUSH2 0x1B19 JUMP JUMPDEST POP PUSH2 0x1A16 DUP2 PUSH2 0x1BFF JUMP JUMPDEST PUSH2 0x1A22 PUSH1 0x1 DUP4 ADD PUSH2 0x1BFF JUMP JUMPDEST SWAP1 PUSH1 0x2 DUP4 ADD SLOAD SWAP3 PUSH1 0x3 DUP2 ADD SLOAD SWAP1 PUSH1 0x4 DUP2 ADD SLOAD SWAP1 PUSH1 0x5 DUP2 ADD SLOAD SWAP4 PUSH1 0x6 DUP3 ADD SLOAD SWAP2 PUSH1 0x7 DUP2 ADD SLOAD SWAP1 PUSH1 0x8 DUP2 ADD SLOAD SWAP2 PUSH1 0x9 DUP3 ADD PUSH2 0x1A5A SWAP1 PUSH2 0x1BFF JUMP JUMPDEST SWAP5 PUSH1 0xA DUP4 ADD SLOAD SWAP9 PUSH1 0xB DUP5 ADD SLOAD SWAP8 PUSH1 0x1 PUSH1 0xA0 SHL PUSH1 0x1 SWAP1 SUB PUSH1 0xC DUP2 SWAP7 ADD SLOAD AND SWAP10 PUSH1 0x40 MLOAD SWAP14 DUP15 SWAP14 DUP15 SWAP10 PUSH2 0x1E0 DUP1 DUP13 MSTORE DUP12 ADD PUSH2 0x1A91 SWAP2 PUSH2 0x1CA5 JUMP JUMPDEST DUP11 DUP2 SUB PUSH1 0x20 DUP13 ADD MSTORE PUSH2 0x1AA2 SWAP2 PUSH2 0x1CA5 JUMP JUMPDEST SWAP9 PUSH1 0x40 ADD MSTORE DUP13 DUP7 DUP3 AND SWAP1 PUSH1 0x60 ADD MSTORE PUSH1 0x80 DUP14 ADD SWAP1 PUSH1 0xA0 SHR PUSH1 0xFF AND SWAP1 PUSH2 0x1AC5 SWAP2 PUSH2 0x1CE5 JUMP JUMPDEST PUSH1 0xA0 DUP13 ADD MSTORE PUSH1 0xC0 DUP12 ADD MSTORE PUSH1 0xE0 DUP11 ADD MSTORE PUSH2 0x100 DUP10 ADD MSTORE DUP2 AND PUSH2 0x120 DUP9 ADD MSTORE PUSH1 0xA0 SHR PUSH1 0xFF AND ISZERO ISZERO PUSH2 0x140 DUP8 ADD MSTORE DUP6 DUP2 SUB PUSH2 0x160 DUP8 ADD MSTORE PUSH2 0x1B02 SWAP2 PUSH2 0x1CA5 JUMP JUMPDEST SWAP3 PUSH2 0x180 DUP6 ADD MSTORE PUSH2 0x1A0 DUP5 ADD MSTORE PUSH2 0x1C0 DUP4 ADD MSTORE SUB SWAP1 RETURN JUMPDEST PUSH1 0x1 SLOAD DUP2 LT ISZERO PUSH2 0x1B54 JUMPI PUSH1 0xD SWAP1 PUSH1 0x1 PUSH1 0x0 MSTORE MUL PUSH32 0xB10E2D527612073B26EECDFD717E6A320CF44B4AFAC2B0732D9FCBE2B7FA0CF6 ADD SWAP1 PUSH1 0x0 SWAP1 JUMP JUMPDEST PUSH4 0x4E487B71 PUSH1 0xE0 SHL PUSH1 0x0 MSTORE PUSH1 0x32 PUSH1 0x4 MSTORE PUSH1 0x24 PUSH1 0x0 REVERT JUMPDEST SWAP1 PUSH1 0x1 DUP3 DUP2 SHR SWAP3 AND DUP1 ISZERO PUSH2 0x1B9A JUMPI JUMPDEST PUSH1 0x20 DUP4 LT EQ PUSH2 0x1B84 JUMPI JUMP JUMPDEST PUSH4 0x4E487B71 PUSH1 0xE0 SHL PUSH1 0x0 MSTORE PUSH1 0x22 PUSH1 0x4 MSTORE PUSH1 0x24 PUSH1 0x0 REVERT JUMPDEST SWAP2 PUSH1 0x7F AND SWAP2 PUSH2 0x1B79 JUMP JUMPDEST PUSH2 0x1E0 DUP2 ADD SWAP1 DUP2 LT PUSH8 0xFFFFFFFFFFFFFFFF DUP3 GT OR PUSH2 0x43E JUMPI PUSH1 0x40 MSTORE JUMP JUMPDEST PUSH1 0x40 DUP2 ADD SWAP1 DUP2 LT PUSH8 0xFFFFFFFFFFFFFFFF DUP3 GT OR PUSH2 0x43E JUMPI PUSH1 0x40 MSTORE JUMP JUMPDEST SWAP1 PUSH1 0x1F DUP1 NOT SWAP2 ADD AND DUP2 ADD SWAP1 DUP2 LT PUSH8 0xFFFFFFFFFFFFFFFF DUP3 GT OR PUSH2 0x43E JUMPI PUSH1 0x40 MSTORE JUMP JUMPDEST SWAP1 PUSH1 0x40 MLOAD SWAP2 DUP3 PUSH1 0x0 DUP3 SLOAD SWAP3 PUSH2 0x1C13 DUP5 PUSH2 0x1B6A JUMP JUMPDEST SWAP1 DUP2 DUP5 MSTORE PUSH1 0x1 SWAP5 DUP6 DUP2 AND SWAP1 DUP2 PUSH1 0x0 EQ PUSH2 0x1C82 JUMPI POP PUSH1 0x1 EQ PUSH2 0x1C3F JUMPI JUMPDEST POP POP PUSH2 0x1C3D SWAP3 POP SUB DUP4 PUSH2 0x1BDD JUMP JUMPDEST JUMP JUMPDEST SWAP1 SWAP4 SWAP2 POP PUSH1 0x0 MSTORE PUSH1 0x20 SWAP1 DUP2 PUSH1 0x0 KECCAK256 SWAP4 PUSH1 0x0 SWAP2 JUMPDEST DUP2 DUP4 LT PUSH2 0x1C6A JUMPI POP POP PUSH2 0x1C3D SWAP4 POP DUP3 ADD ADD CODESIZE DUP1 PUSH2 0x1C2F JUMP JUMPDEST DUP6 SLOAD DUP9 DUP5 ADD DUP6 ADD MSTORE SWAP5 DUP6 ADD SWAP5 DUP8 SWAP5 POP SWAP2 DUP4 ADD SWAP2 PUSH2 0x1C52 JUMP JUMPDEST SWAP2 POP POP PUSH2 0x1C3D SWAP5 POP PUSH1 0x20 SWAP3 POP PUSH1 0xFF NOT AND DUP3 DUP5 ADD MSTORE ISZERO ISZERO PUSH1 0x5 SHL DUP3 ADD ADD CODESIZE DUP1 PUSH2 0x1C2F JUMP JUMPDEST SWAP2 SWAP1 DUP3 MLOAD SWAP3 DUP4 DUP3 MSTORE PUSH1 0x0 JUMPDEST DUP5 DUP2 LT PUSH2 0x1CD1 JUMPI POP POP DUP3 PUSH1 0x0 PUSH1 0x20 DUP1 SWAP5 SWAP6 DUP5 ADD ADD MSTORE PUSH1 0x1F DUP1 NOT SWAP2 ADD AND ADD ADD SWAP1 JUMP JUMPDEST PUSH1 0x20 DUP2 DUP4 ADD DUP2 ADD MLOAD DUP5 DUP4 ADD DUP3 ADD MSTORE ADD PUSH2 0x1CB0 JUMP JUMPDEST SWAP1 PUSH1 0x4 DUP3 LT ISZERO PUSH2 0xC6B JUMPI MSTORE JUMP JUMPDEST PUSH1 0x4 CALLDATALOAD SWAP1 PUSH1 0x1 PUSH1 0x1 PUSH1 0xA0 SHL SUB DUP3 AND DUP3 SUB PUSH2 0x19D JUMPI JUMP JUMPDEST PUSH1 0x24 CALLDATALOAD SWAP1 PUSH1 0x1 PUSH1 0x1 PUSH1 0xA0 SHL SUB DUP3 AND DUP3 SUB PUSH2 0x19D JUMPI JUMP JUMPDEST PUSH1 0x6 SLOAD DUP2 LT ISZERO PUSH2 0x1B54 JUMPI PUSH1 0x6 PUSH1 0x0 MSTORE PUSH32 0xF652222313E28459528D920B65115C16C04F3EFC82AAEDC97BE59F3F377C0D3F ADD SWAP1 PUSH1 0x0 SWAP1 JUMP JUMPDEST SWAP1 PUSH2 0x1D7E PUSH2 0x1D6C DUP4 MLOAD PUSH2 0x1E0 DUP1 DUP6 MSTORE DUP5 ADD SWAP1 PUSH2 0x1CA5 JUMP JUMPDEST PUSH1 0x20 DUP5 ADD MLOAD DUP4 DUP3 SUB PUSH1 0x20 DUP6 ADD MSTORE PUSH2 0x1CA5 JUMP JUMPDEST SWAP2 PUSH1 0x40 DUP2 ADD MLOAD PUSH1 0x40 DUP4 ADD MSTORE PUSH2 0x1E09 PUSH1 0x1 DUP1 PUSH1 0xA0 SHL SUB SWAP4 DUP5 PUSH1 0x60 DUP5 ADD MLOAD AND PUSH1 0x60 DUP6 ADD MSTORE PUSH2 0x1DB2 PUSH1 0x80 DUP5 ADD MLOAD PUSH1 0x80 DUP7 ADD SWAP1 PUSH2 0x1CE5 JUMP JUMPDEST PUSH1 0xA0 DUP4 ADD MLOAD PUSH1 0xA0 DUP6 ADD MSTORE PUSH1 0xC0 DUP4 ADD MLOAD PUSH1 0xC0 DUP6 ADD MSTORE PUSH1 0xE0 DUP4 ADD MLOAD PUSH1 0xE0 DUP6 ADD MSTORE PUSH2 0x100 DUP1 DUP5 ADD MLOAD SWAP1 DUP6 ADD MSTORE PUSH2 0x120 DUP6 DUP2 DUP6 ADD MLOAD AND SWAP1 DUP6 ADD MSTORE PUSH2 0x140 DUP1 DUP5 ADD MLOAD ISZERO ISZERO SWAP1 DUP6 ADD MSTORE PUSH2 0x160 DUP1 DUP5 ADD MLOAD SWAP1 DUP6 DUP4 SUB SWAP1 DUP7 ADD MSTORE PUSH2 0x1CA5 JUMP JUMPDEST SWAP3 PUSH2 0x180 DUP1 DUP4 ADD MLOAD SWAP1 DUP5 ADD MSTORE PUSH2 0x1A0 DUP1 DUP4 ADD MLOAD SWAP1 DUP5 ADD MSTORE PUSH2 0x1C0 DUP1 SWAP3 ADD MLOAD AND SWAP2 ADD MSTORE SWAP1 JUMP JUMPDEST PUSH1 0x1 PUSH1 0x1 PUSH1 0xA0 SHL SUB AND PUSH1 0x0 DUP2 DUP2 MSTORE PUSH32 0x30710E496C9A8631E387D1FF5062C226D4CE9C9E008BFF1F22AE157290CCBD62 PUSH1 0x20 MSTORE PUSH1 0x40 DUP2 KECCAK256 SLOAD SWAP1 SWAP2 SWAP1 PUSH1 0x0 DUP1 MLOAD PUSH1 0x20 PUSH2 0x2291 DUP4 CODECOPY DUP2 MLOAD SWAP2 MSTORE SWAP1 PUSH1 0xFF AND ISZERO PUSH2 0x1EC7 JUMPI DUP1 DUP4 MSTORE DUP3 PUSH1 0x20 MSTORE PUSH1 0x40 DUP4 KECCAK256 DUP3 DUP5 MSTORE PUSH1 0x20 MSTORE PUSH1 0x40 DUP4 KECCAK256 PUSH1 0xFF NOT DUP2 SLOAD AND SWAP1 SSTORE PUSH32 0xF6391F5C32D9C69D2A47EA670B442974B53935D1EDC7FD64EB21E047A839171B CALLER SWAP4 DUP1 LOG4 PUSH1 0x1 SWAP1 JUMP JUMPDEST POP POP SWAP1 JUMP JUMPDEST SWAP1 PUSH1 0x0 SWAP2 DUP1 DUP4 MSTORE DUP3 PUSH1 0x20 MSTORE PUSH1 0x40 DUP4 KECCAK256 SWAP2 PUSH1 0x1 DUP1 PUSH1 0xA0 SHL SUB AND SWAP2 DUP3 DUP5 MSTORE PUSH1 0x20 MSTORE PUSH1 0xFF PUSH1 0x40 DUP5 KECCAK256 SLOAD AND PUSH1 0x0 EQ PUSH2 0x1EC7 JUMPI DUP1 DUP4 MSTORE DUP3 PUSH1 0x20 MSTORE PUSH1 0x40 DUP4 KECCAK256 DUP3 DUP5 MSTORE PUSH1 0x20 MSTORE PUSH1 0x40 DUP4 KECCAK256 PUSH1 0xFF NOT DUP2 SLOAD AND SWAP1 SSTORE PUSH32 0xF6391F5C32D9C69D2A47EA670B442974B53935D1EDC7FD64EB21E047A839171B CALLER SWAP4 DUP1 LOG4 PUSH1 0x1 SWAP1 JUMP JUMPDEST CALLER PUSH1 0x0 SWAP1 DUP2 MSTORE PUSH32 0xC39F11A9300B508470EAED31F5842BA08C93181BCBE6A7FE34039AA7F2B80742 PUSH1 0x20 MSTORE PUSH1 0x40 SWAP1 KECCAK256 SLOAD PUSH32 0x3B5D4CC60D3EC3516EE8AE083BD60934F6EB2A6C54B1229985C41BFB092B2603 SWAP1 PUSH1 0xFF AND ISZERO PUSH2 0x1F9D JUMPI POP JUMP JUMPDEST PUSH1 0x44 SWAP1 PUSH1 0x40 MLOAD SWAP1 PUSH4 0xE2517D3F PUSH1 0xE0 SHL DUP3 MSTORE CALLER PUSH1 0x4 DUP4 ADD MSTORE PUSH1 0x24 DUP3 ADD MSTORE REVERT JUMPDEST CALLER PUSH1 0x0 SWAP1 DUP2 MSTORE PUSH32 0x30710E496C9A8631E387D1FF5062C226D4CE9C9E008BFF1F22AE157290CCBD62 PUSH1 0x20 MSTORE PUSH1 0x40 SWAP1 KECCAK256 SLOAD PUSH1 0x0 DUP1 MLOAD PUSH1 0x20 PUSH2 0x2291 DUP4 CODECOPY DUP2 MLOAD SWAP2 MSTORE SWAP1 PUSH1 0xFF AND ISZERO PUSH2 0x1F9D JUMPI POP JUMP JUMPDEST DUP1 PUSH1 0x0 MSTORE PUSH1 0x0 PUSH1 0x20 MSTORE PUSH1 0x40 PUSH1 0x0 KECCAK256 CALLER PUSH1 0x0 MSTORE PUSH1 0x20 MSTORE PUSH1 0xFF PUSH1 0x40 PUSH1 0x0 KECCAK256 SLOAD AND ISZERO PUSH2 0x1F9D JUMPI POP JUMP JUMPDEST SWAP1 PUSH1 0x0 SWAP2 DUP1 DUP4 MSTORE DUP3 PUSH1 0x20 MSTORE PUSH1 0x40 DUP4 KECCAK256 SWAP2 PUSH1 0x1 DUP1 PUSH1 0xA0 SHL SUB AND SWAP2 DUP3 DUP5 MSTORE PUSH1 0x20 MSTORE PUSH1 0xFF PUSH1 0x40 DUP5 KECCAK256 SLOAD AND ISZERO PUSH1 0x0 EQ PUSH2 0x1EC7 JUMPI DUP1 DUP4 MSTORE DUP3 PUSH1 0x20 MSTORE PUSH1 0x40 DUP4 KECCAK256 DUP3 DUP5 MSTORE PUSH1 0x20 MSTORE PUSH1 0x40 DUP4 KECCAK256 PUSH1 0x1 PUSH1 0xFF NOT DUP3 SLOAD AND OR SWAP1 SSTORE PUSH32 0x2F8788117E7EFF1D82E926EC794901D17C78024A50270940304540A733656F0D CALLER SWAP4 DUP1 LOG4 PUSH1 0x1 SWAP1 JUMP JUMPDEST PUSH1 0x0 NOT DUP2 EQ PUSH2 0x30C JUMPI PUSH1 0x1 ADD SWAP1 JUMP JUMPDEST PUSH1 0x6 SLOAD DUP1 ISZERO PUSH2 0x20E1 JUMPI PUSH1 0x0 NOT ADD PUSH2 0x20C9 DUP2 PUSH2 0x1D1E JUMP JUMPDEST DUP2 SLOAD SWAP1 PUSH1 0x1 DUP1 PUSH1 0xA0 SHL SUB SWAP1 PUSH1 0x3 SHL SHL NOT AND SWAP1 SSTORE PUSH1 0x6 SSTORE JUMP JUMPDEST PUSH4 0x4E487B71 PUSH1 0xE0 SHL PUSH1 0x0 MSTORE PUSH1 0x31 PUSH1 0x4 MSTORE PUSH1 0x24 PUSH1 0x0 REVERT JUMPDEST SWAP1 CALLDATALOAD SWAP1 PUSH1 0x1E NOT DUP2 CALLDATASIZE SUB ADD DUP3 SLT ISZERO PUSH2 0x19D JUMPI ADD DUP1 CALLDATALOAD SWAP1 PUSH8 0xFFFFFFFFFFFFFFFF DUP3 GT PUSH2 0x19D JUMPI PUSH1 0x20 ADD SWAP2 DUP2 CALLDATASIZE SUB DUP4 SGT PUSH2 0x19D JUMPI JUMP JUMPDEST SWAP3 SWAP2 SWAP3 PUSH8 0xFFFFFFFFFFFFFFFF DUP3 GT PUSH2 0x43E JUMPI PUSH1 0x40 MLOAD SWAP2 PUSH2 0x2154 PUSH1 0x1F DUP3 ADD PUSH1 0x1F NOT AND PUSH1 0x20 ADD DUP5 PUSH2 0x1BDD JUMP JUMPDEST DUP3 SWAP5 DUP2 DUP5 MSTORE DUP2 DUP4 ADD GT PUSH2 0x19D JUMPI DUP3 DUP2 PUSH1 0x20 SWAP4 DUP5 PUSH1 0x0 SWAP7 ADD CALLDATACOPY ADD ADD MSTORE JUMP JUMPDEST SWAP1 PUSH1 0x4 DUP2 LT ISZERO PUSH2 0xC6B JUMPI DUP2 SLOAD PUSH1 0xFF PUSH1 0xA0 SHL NOT AND PUSH1 0xA0 SWAP2 SWAP1 SWAP2 SHL PUSH1 0xFF PUSH1 0xA0 SHL AND OR SWAP1 SSTORE JUMP JUMPDEST SWAP1 PUSH1 0x40 MLOAD PUSH2 0x21A2 DUP2 PUSH2 0x1BA4 JUMP JUMPDEST DUP1 SWAP3 PUSH2 0x21AD DUP2 PUSH2 0x1BFF JUMP JUMPDEST DUP3 MSTORE PUSH2 0x21BB PUSH1 0x1 DUP3 ADD PUSH2 0x1BFF JUMP JUMPDEST PUSH1 0x20 DUP4 ADD MSTORE PUSH1 0x2 DUP2 ADD SLOAD PUSH1 0x40 DUP4 ADD MSTORE PUSH1 0x3 DUP2 ADD SLOAD PUSH1 0x1 PUSH1 0x1 PUSH1 0xA0 SHL SUB DUP1 DUP3 AND PUSH1 0x60 DUP6 ADD MSTORE SWAP1 PUSH1 0xA0 SHR PUSH1 0xFF AND PUSH1 0x4 DUP2 LT ISZERO PUSH2 0xC6B JUMPI PUSH2 0x1C0 SWAP3 PUSH1 0xC SWAP2 PUSH1 0x80 DUP7 ADD MSTORE PUSH1 0x4 DUP2 ADD SLOAD PUSH1 0xA0 DUP7 ADD MSTORE PUSH1 0x5 DUP2 ADD SLOAD PUSH1 0xC0 DUP7 ADD MSTORE PUSH1 0x6 DUP2 ADD SLOAD PUSH1 0xE0 DUP7 ADD MSTORE PUSH1 0x7 DUP2 ADD SLOAD PUSH2 0x100 DUP7 ADD MSTORE PUSH1 0xFF PUSH1 0x8 DUP3 ADD SLOAD DUP5 DUP2 AND PUSH2 0x120 DUP9 ADD MSTORE PUSH1 0xA0 SHR AND ISZERO ISZERO PUSH2 0x140 DUP7 ADD MSTORE PUSH2 0x224C PUSH1 0x9 DUP3 ADD PUSH2 0x1BFF JUMP JUMPDEST PUSH2 0x160 DUP7 ADD MSTORE PUSH1 0xA DUP2 ADD SLOAD PUSH2 0x180 DUP7 ADD MSTORE PUSH1 0xB DUP2 ADD SLOAD PUSH2 0x1A0 DUP7 ADD MSTORE ADD SLOAD AND SWAP2 ADD MSTORE JUMP INVALID 0xDB MLOAD SWAP5 PUSH2 0x47AF DUP16 PUSH9 0xF24B69CDB99D868CC4 0xB5 EXTCODESIZE PUSH22 0xDCE4E05D8F590BCF5281051C829B824E2329E205435D SWAP5 SHR SWAP16 SGT 0xBA CREATE2 PUSH25 0x548505283D29261236D8E6596D4636094F80829C509370ABB2 0xD4 0x21 LOG0 PUSH25 0xBA5926755D3DE25D021DACF7BBD19853F7A2A2646970667358 0x22 SLT KECCAK256 SHR 0x25 PUSH4 0x72749281 0x2D POP 0x5C 0xEE MOD AND STATICCALL 0xC5 TIMESTAMP 0xC3 ADDMOD CODESIZE 0xDB 0xA8 0xD7 KECCAK256 0x2E JUMPI PUSH13 0xF34B2923D04E64736F6C634300 ADDMOD EQ STOP CALLER 0x2F DUP8 DUP9 GT PUSH31 0x7EFF1D82E926EC794901D17C78024A50270940304540A733656F0D3B5D4CC6 0xD RETURNDATACOPY 0xC3 MLOAD PUSH15 0xE8AE083BD60934F6EB2A6C54B12299 DUP6 0xC4 SHL 0xFB MULMOD 0x2B 0x26 SUB DUP3 SWAP12 DUP3 0x4E 0x23 0x29 0xE2 SDIV NUMBER 0x5D SWAP5 SHR SWAP16 SGT 0xBA CREATE2 PUSH25 0x548505283D29261236D8E6596D463600000000000000000000 "},"methodIdentifiers":{"DAO_ROLE()":"e9c26518","DEFAULT_ADMIN_ROLE()":"a217fddf","MEMBER_ROLE()":"a10f469e","addGlassScore(address,uint256)":"488cba40","addPenaltyAndExpel(address)":"ba86f70a","createProposal((string,string,uint256,address,bool,string,uint256,uint256,address))":"a7a36b4f","daoAddress()":"2131c68c","forceAbstain(uint256,address)":"a462e50f","getAllMembers()":"7c0f6b35","getAllProposals()":"cceb68f5","getMemberCount()":"997072f7","getProposal(uint256)":"c7f758a8","getRoleAdmin(bytes32)":"248a9ca3","getVotes(uint256)":"ff981099","glassScore(address)":"1f56d126","grantRole(bytes32,address)":"2f2ff15d","hasRole(bytes32,address)":"91d14854","hasVoted(uint256,address)":"43859632","hasVotedForProposal(uint256,address)":"62d4f893","isMember(address)":"a230c524","members(uint256)":"5daf08ca","penaltyCount(address)":"a9330b0e","proposals(uint256)":"013cf08b","renounceRole(bytes32,address)":"36568abe","revokeRole(bytes32,address)":"d547741f","setProposalStatus(uint256,uint8)":"cbe94614","subGlassScore(address,uint256)":"2b72ee51","supportsInterface(bytes4)":"01ffc9a7","vote(uint256,uint8)":"943e8216"}}}}}