{"contracts/DAO.sol":{"DAO":{"abi":[{"inputs":[{"internalType":"address","name":"_proposal","type":"address"},{"internalType":"address","name":"_vault","type":"address"},{"internalType":"address","name":"_execution","type":"address"}],"stateMutability":"nonpayable","type":"constructor"},{"anonymous":false,"inputs":[{"indexed":true,"internalType":"uint256","name":"proposalId","type":"uint256"}],"name":"ProposalPassed","type":"event"},{"anonymous":false,"inputs":[{"indexed":true,"internalType":"uint256","name":"proposalId","type":"uint256"}],"name":"ProposalRejected","type":"event"},{"inputs":[],"name":"absentPenalty","outputs":[{"internalType":"uint256","name":"","type":"uint256"}],"stateMutability":"view","type":"function"},{"inputs":[{"internalType":"address","name":"member","type":"address"},{"internalType":"uint256","name":"amount","type":"uint256"}],"name":"adminSubGlassScore","outputs":[],"stateMutability":"nonpayable","type":"function"},{"inputs":[],"name":"countToExpel","outputs":[{"internalType":"uint256","name":"","type":"uint256"}],"stateMutability":"view","type":"function"},{"inputs":[{"internalType":"string","name":"title","type":"string"},{"internalType":"string","name":"description","type":"string"},{"internalType":"uint256","name":"amount","type":"uint256"},{"internalType":"address payable","name":"recipient","type":"address"},{"internalType":"bool","name":"requireVote","type":"bool"},{"internalType":"string","name":"sanctionType","type":"string"},{"internalType":"uint256","name":"beforeValue","type":"uint256"},{"internalType":"uint256","name":"afterValue","type":"uint256"},{"internalType":"address","name":"targetMember","type":"address"}],"name":"createProposal","outputs":[{"internalType":"uint256","name":"","type":"uint256"}],"stateMutability":"nonpayable","type":"function"},{"inputs":[],"name":"entryFee","outputs":[{"internalType":"uint256","name":"","type":"uint256"}],"stateMutability":"view","type":"function"},{"inputs":[],"name":"executionContract","outputs":[{"internalType":"contract Execution","name":"","type":"address"}],"stateMutability":"view","type":"function"},{"inputs":[{"internalType":"uint256","name":"proposalId","type":"uint256"}],"name":"finalizeProposal","outputs":[],"stateMutability":"nonpayable","type":"function"},{"inputs":[],"name":"getAllMembers","outputs":[{"internalType":"address[]","name":"","type":"address[]"}],"stateMutability":"view","type":"function"},{"inputs":[],"name":"getMemberCount","outputs":[{"internalType":"uint256","name":"","type":"uint256"}],"stateMutability":"view","type":"function"},{"inputs":[],"name":"getTreasuryBalance","outputs":[{"internalType":"uint256","name":"","type":"uint256"}],"stateMutability":"view","type":"function"},{"inputs":[{"internalType":"address","name":"user","type":"address"}],"name":"isMember","outputs":[{"internalType":"bool","name":"","type":"bool"}],"stateMutability":"view","type":"function"},{"inputs":[],"name":"joinDAO","outputs":[],"stateMutability":"payable","type":"function"},{"inputs":[],"name":"passCriteria","outputs":[{"internalType":"uint256","name":"","type":"uint256"}],"stateMutability":"view","type":"function"},{"inputs":[],"name":"proposalContract","outputs":[{"internalType":"contract Proposal","name":"","type":"address"}],"stateMutability":"view","type":"function"},{"inputs":[{"internalType":"uint256","name":"","type":"uint256"}],"name":"proposalDeadline","outputs":[{"internalType":"uint256","name":"","type":"uint256"}],"stateMutability":"view","type":"function"},{"inputs":[{"internalType":"uint256","name":"","type":"uint256"}],"name":"proposalExecuted","outputs":[{"internalType":"bool","name":"","type":"bool"}],"stateMutability":"view","type":"function"},{"inputs":[],"name":"scoreToExpel","outputs":[{"internalType":"uint256","name":"","type":"uint256"}],"stateMutability":"view","type":"function"},{"inputs":[],"name":"vaultContract","outputs":[{"internalType":"contract Vault","name":"","type":"address"}],"stateMutability":"view","type":"function"},{"inputs":[{"internalType":"uint256","name":"proposalId","type":"uint256"},{"internalType":"uint8","name":"choice","type":"uint8"}],"name":"vote","outputs":[],"stateMutability":"nonpayable","type":"function"},{"inputs":[],"name":"votingDuration","outputs":[{"internalType":"uint256","name":"","type":"uint256"}],"stateMutability":"view","type":"function"},{"stateMutability":"payable","type":"receive"}],"evm":{"bytecode":{"linkReferences":{},"object":"608034620000d757601f620020df38819003918201601f19168301916001600160401b03831184841017620000dc57808492606094604052833981010312620000d7576200004d81620000f2565b906200006a60406200006260208401620000f2565b9201620000f2565b60326003556203f48060045566038d7ea4c680006005556005600655601460075566b1a2bc2ec5000060085560018060a01b0380928160018060a01b031995168560005416176000551683600154161760015516906002541617600255604051611fd79081620001088239f35b600080fd5b634e487b7160e01b600052604160045260246000fd5b51906001600160a01b0382168203620000d75756fe608080604052600436101561001d575b50361561001b57600080fd5b005b60003560e01c908163072ea61c14611613575080630fd2e6f9146115f5578063103616e8146115c4578063132002fc146115a65780632274346b1461157d5780633aef39001461155457806352bc9e82146115365780635652077c14610c9657806357cce7d414610b365780637c0f6b3514610a8c578063943e821614610906578063997072f7146108b75780639b5655dc146108365780639f1f43af14610818578063a230c52414610714578063bc2914b5146103e8578063bdf91db5146103ca578063c01f9e371461039e578063e0e93244146103755763f63d13d714610106573861000f565b600036600319011261022357600054604051635087a34f60e11b80825260209290916001600160a01b03918216908481600481855afa8015610217578591600091610344575b50604051632474521560e21b815260048101919091523360248201529182908180604481015b03915afa9081156102175760009161030f575b506102d757600854340361029d5760008080803485600154165af16101a861170a565b50156102585760005416906040519081528281600481855afa92831561021757600093610228575b5050803b1561022357604051632f2ff15d60e01b815260048101839052336024820152906000908290604490829084905af180156102175761020e57005b61001b90611672565b6040513d6000823e3d90fd5b600080fd5b9080929350813d8311610251575b61024081836116bf565b8101031261022357519038806101d0565b503d610236565b60405162461bcd60e51b815260048101849052601d60248201527f4661696c656420746f2073656e6420457468657220746f207661756c740000006044820152606490fd5b60405162461bcd60e51b8152600481018490526012602482015271496e636f7272656374206a6f696e2066656560701b6044820152606490fd5b60405162461bcd60e51b815260048101849052601060248201526f20b63932b0b23c90309036b2b6b132b960811b6044820152606490fd5b90508381813d831161033d575b61032681836116bf565b8101031261022357610337906116e1565b38610185565b503d61031c565b82819392503d831161036e575b61035b81836116bf565b810103126102235751849061017261014c565b503d610351565b34610223576000366003190112610223576002546040516001600160a01b039091168152602090f35b346102235760203660031901126102235760043560005260096020526020604060002054604051908152f35b34610223576000366003190112610223576020600554604051908152f35b34610223576101203660031901126102235767ffffffffffffffff6004358181116102235761041b903690600401611644565b909160243581811161022357610435903690600401611644565b91606435906001600160a01b0382168203610223576084351515608435036102235760a4359081116102235761046f903690600401611644565b610104359491939092916001600160a01b038616860361022357600054604051635087a34f60e11b81526001600160a01b0390911698906020816004818d5afa908115610217576000916106e1575b50604051632474521560e21b815260048101919091523360248201526020816044818d5afa90811561021757600091610679575b509361053261055d9460009b989461052960209c99956105156105a19d9a61173a565b6040519a6105228c611686565b3691611786565b89523691611786565b868a015260443560408701526001600160a01b03166060860152608435151560808601523691611786565b60a083015260c43560c083015260e43560e08301526001600160a01b031661010082015260405163664d54f560e11b81529485938492839190339060048401611805565b03925af190811561021757600091610647575b506000546001600160a01b031690813b15610223576000809260446040518095819363012232e960e61b8352336004840152600360248401525af191821561021757602092610638575b506084351561062a57610613600454426118b2565b81600052600983526040600020555b604051908152f35b61063381611b33565b610622565b61064190611672565b826105fe565b90506020813d602011610671575b81610662602093836116bf565b810103126102235751816105b4565b3d9150610655565b93989591999692979490506020843d6020116106d9575b8161069d602093836116bf565b81010312610223576105326020996105a19961052960009d6105156106c461055d9a6116e1565b969a9d505095999c505094989b5094506104f2565b3d9150610690565b90506020813d60201161070c575b816106fc602093836116bf565b81010312610223575160206104be565b3d91506106ef565b34610223576020806003193601126102235761072e61162e565b600054604051635087a34f60e11b81526001600160a01b03909116918382600481865afa80156102175784926000916107e5575b50604051632474521560e21b815260048101919091526001600160a01b0390911660248201529182908180604481015b03915afa908115610217576000916107b0575b506040519015158152f35b90508181813d83116107de575b6107c781836116bf565b81010312610223576107d8906116e1565b826107a5565b503d6107bd565b83819492503d8311610811575b6107fc81836116bf565b81010312610223579051839190610792610762565b503d6107f2565b34610223576000366003190112610223576020600654604051908152f35b3461022357600036600319011261022357600154604051629032ff60e51b815290602090829060049082906001600160a01b03165afa801561021757600090610885575b602090604051908152f35b506020813d82116108af575b8161089e602093836116bf565b81010312610223576020905161087a565b3d9150610891565b346102235760003660031901126102235760005460405163997072f760e01b815290602090829060049082906001600160a01b03165afa80156102175760009061088557602090604051908152f35b346102235760403660031901126102235760243560ff811680910361022357600054604051635087a34f60e11b81526001600160a01b039182169060208082600481865afa91821561021757600092610a5d575b50604051632474521560e21b815260048101929092523360248301528082604481865afa90811561021757600091610a26575b50610998915061173a565b803b15610223576000809160446040518094819363012232e960e61b8352336004840152600160248401525af1801561021757610a17575b506000541690813b1561022357600091606483926040519485938492630ce7fb8360e11b8452600435600485015260248401523360448401525af180156102175761020e57005b610a2090611672565b826109d0565b905081813d8311610a56575b610a3c81836116bf565b8101031261022357610a50610998916116e1565b8561098d565b503d610a32565b91508082813d8311610a85575b610a7481836116bf565b81010312610223579051908061095a565b503d610a6a565b346102235760003660031901126102235760008054604051637c0f6b3560e01b81526001600160a01b039290918290600490829086165afa90811561021757600091610b13575b506040519060208083018184528251809152816040850193019160005b828110610afd5785850386f35b8351871685529381019392810192600101610af0565b610b3091503d806000833e610b2881836116bf565b810190611a5a565b82610ad3565b3461022357604036600319011261022357610b4f61162e565b60005460405163a217fddf60e01b81526001600160a01b039182169291906020908181600481885afa8015610217578290600090610c67575b604051632474521560e21b8152600481019190915233602482015291508180604481015b0381885afa90811561021757600091610c32575b5015610c025750823b15610223576044600092836040519586948593632b72ee5160e01b855216600484015260243560248401525af180156102175761020e57005b6064906040519062461bcd60e51b8252600482015260096024820152682737ba1030b236b4b760b91b6044820152fd5b90508181813d8311610c60575b610c4981836116bf565b8101031261022357610c5a906116e1565b85610bc0565b503d610c3f565b5081813d8311610c8f575b610c7c81836116bf565b810103126102235781610bac9151610b88565b503d610c72565b3461022357602036600319011261022357600080546040516318feeb1560e31b8082526004803590830152926001600160a01b039092169181602481855afa8015610217576101409160009161151b575b500151156114de57600435600052600960205260406000205442111561149957600435600052600a60205260ff6040600020541661145457600060049160405192838092637c0f6b3560e01b82525afa90811561021757600091611439575b5060005b8151811015610fb7576000546001600160a01b0390811690610da590602090610d738587611ade565b516040516362d4f89360e01b8152600480359082015291166001600160a01b0316602482015291829081906044820190565b0381855afa90811561021757600091610f7d575b5015610de8575b506000198114610dd257600101610d4a565b634e487b7160e01b600052601160045260246000fd5b6001600160a01b03610dfa8385611ade565b5116813b1561022357600091602483926040519485938492635d437b8560e11b845260048401525af1801561021757610f6e575b506000546001600160a01b0390811690610e488385611ade565b511690803b156102235760405163a462e50f60e01b815260048035908201526001600160a01b039290921660248301526000908290604490829084905af1801561021757610f5f575b506000546001600160a01b0390811690610eab8385611ade565b511690803b156102235760008092604051928391632b72ee5160e01b83526004830152600360248301528160449586925af1801561021757610f50575b50600080808060018060a01b0360015416600554905af1610f0761170a565b50610dc0576064907f4661696c656420746f2073656e642070656e616c747920746f207661756c74006040519162461bcd60e51b835260206004840152601f6024840152820152fd5b610f5990611672565b84610ee8565b610f6890611672565b83610e91565b610f7790611672565b83610e2e565b90506020813d602011610faf575b81610f98602093836116bf565b8101031261022357610fa9906116e1565b85610db9565b3d9150610f8b565b8260018060a01b03600054166040519182526004356004830152600082602481845afa91821561021757600092611414575b5060a0820161100c611001825160c0860151906118b2565b60e0850151906118b2565b90816113f95750506000905b600354821061138257506000546001600160a01b0316803b1561022357600080916044604051809481936332fa518560e21b83526004356004840152600160248401525af1801561021757611373575b506004357fe36f8b7448daff4a52e2945db0d1d7a436279cc1d527a45c27835dcbd27f336d600080a261109c600435611b33565b610160820151602081519101206110b1611b08565b60208151910120036111a6575b600435600052600a6020526040600020600160ff19825416179055610160820151602081519101206110ee611b08565b60208151910120146110fc57005b60035411611155576000546101c0909101516001600160a01b039182169116813b156102235760009160448392604051948593849263012232e960e61b84526004840152600460248401525af180156102175761020e57005b6000546101c0909101516001600160a01b039182169116813b1561022357600091604483926040519485938492632b72ee5160e01b84526004840152600a60248401525af180156102175761020e57005b81516111ef6031604051809370022bc32b1baba34b7b71021b432b1b59d1607d1b60208301526111df81518092602086860191016117bd565b81010360118101845201826116bf565b60405180608081011067ffffffffffffffff60808301111761135d576112f781600093608060209401604052604782527f566f74652059455320696620746865206f726967696e616c2070726f706f7361848301527f6c2077617320657865637574656420636f72726563746c792c204e4f206f746860408301526632b93bb4b9b29760c91b606083015260018060a01b038554169160018060a01b036101208901511690604051926112a184611686565b835285830152856040830152856060830152600160808301526112c2611b08565b60a08301528560c08301528560e083015261010082015260405194858094819363664d54f560e11b8352309060048401611805565b03925af19081156102175760009161132b575b50611317600454426118b2565b9060005260096020526040600020556110be565b90506020813d602011611355575b81611346602093836116bf565b8101031261022357518361130a565b3d9150611339565b634e487b7160e01b600052604160045260246000fd5b61137c90611672565b82611068565b803b1561022357600080916044604051809481936332fa518560e21b83526004356004840152600260248401525af18015610217576113ea575b506004357fd92fba445edb3153b571e6df782d7a66fd0ce668519273670820ee3a86da0ef4600080a26110be565b6113f390611672565b826113bc565b51606481029080820460641490151715610dd2570490611018565b6114329192503d806000833e61142a81836116bf565b810190611918565b9082610fe9565b61144e91503d806000833e610b2881836116bf565b82610d46565b60405162461bcd60e51b815260206004820152601a60248201527f50726f706f73616c20616c72656164792066696e616c697a65640000000000006044820152606490fd5b60405162461bcd60e51b815260206004820152601760248201527f566f74696e6720706572696f64206e6f7420656e6465640000000000000000006044820152606490fd5b60405162461bcd60e51b8152602060048201526015602482015274139bdd0818481d9bdd1a5b99c81c1c9bdc1bdcd85b605a1b6044820152606490fd5b61153091503d806000833e61142a81836116bf565b84610ce7565b34610223576000366003190112610223576020600754604051908152f35b34610223576000366003190112610223576000546040516001600160a01b039091168152602090f35b34610223576000366003190112610223576001546040516001600160a01b039091168152602090f35b34610223576000366003190112610223576020600454604051908152f35b3461022357602036600319011261022357600435600052600a602052602060ff604060002054166040519015158152f35b34610223576000366003190112610223576020600354604051908152f35b34610223576000366003190112610223576020906008548152f35b600435906001600160a01b038216820361022357565b9181601f840112156102235782359167ffffffffffffffff8311610223576020838186019501011161022357565b67ffffffffffffffff811161135d57604052565b610120810190811067ffffffffffffffff82111761135d57604052565b6040810190811067ffffffffffffffff82111761135d57604052565b90601f8019910116810190811067ffffffffffffffff82111761135d57604052565b5190811515820361022357565b67ffffffffffffffff811161135d57601f01601f191660200190565b3d15611735573d9061171b826116ee565b9161172960405193846116bf565b82523d6000602084013e565b606090565b1561174157565b60405162461bcd60e51b815260206004820152601b60248201527f44414f3a2043616c6c6572206973206e6f742061206d656d62657200000000006044820152606490fd5b929192611792826116ee565b916117a060405193846116bf565b829481845281830111610223578281602093846000960137010152565b60005b8381106117d05750506000910152565b81810151838201526020016117c0565b906020916117f9815180928185528580860191016117bd565b601f01601f1916010190565b906020909392936040835280519061182b610120928360408701526101608601906117e0565b6118468483015191603f1992838883030160608901526117e0565b926040830151608087015261188a60018060a01b039485938460608701511660a08a01526080860151151560c08a015260a0860151908983030160e08a01526117e0565b9260c081015191610100928389015260e0820151908801520151166101408501529416910152565b91908201809211610dd257565b81601f820112156102235780516118d5816116ee565b926118e360405194856116bf565b818452602082840101116102235761190191602080850191016117bd565b90565b51906001600160a01b038216820361022357565b9060208282031261022357815167ffffffffffffffff928382116102235701906101e0928383830312610223576040519384018481108282111761135d576040528251818111610223578261196e9185016118bf565b8452602083015181811161022357826119889185016118bf565b60208501526040838101519085015260608301516001600160a01b03811681036102235760608501526080830151600481101561022357608085015260a083015160a085015260c083015160c085015260e083015160e085015261010080840151908501526101206119fb818501611904565b90850152610140611a0d8185016116e1565b90850152610160918284015191821161022357611a2b9184016118bf565b9083015261018080820151908301526101a08082015190830152611a536101c0809201611904565b9082015290565b90602090818382031261022357825167ffffffffffffffff93848211610223570181601f8201121561022357805193841161135d578360051b9060405194611aa4858401876116bf565b85528380860192820101928311610223578301905b828210611ac7575050505090565b838091611ad384611904565b815201910190611ab9565b8051821015611af25760209160051b010190565b634e487b7160e01b600052603260045260246000fd5b60405190611b15826116a3565b600f82526e657865637574696f6e2d636865636b60881b6020830152565b60018060a01b0360009181835416916024846040948551928380926318feeb1560e31b82528760048301525afa908115611f97578591611f7d575b506101608101518051906020917f064209fe56a5ba1791fac474c27dc1b9a6a4977f861d5d2396f722fcf844be9f8383019182206b1d1c99585cdd5c9e4b5bdd5d60a21b858a51611bbe816116a3565b600c8152015203611c2057505050506002541690813b15611c1c578391602483928551968793849263021814f960e41b845260048401525af1918215611c12575050611c075750565b611c1090611672565b565b51903d90823e3d90fd5b8380fd5b7f407aa5060640b5b11bd7a646d2a67db16d0d8062f0162ee0107d6c4df9647d0b825182206a3a3932b0b9bab93c96b4b760a91b858a51611c60816116a3565b600b8152015203611ca957505050506002541690813b15611c1c5783916024839285519687938492637026e9fd60e01b845260048401525af1918215611c12575050611c075750565b7f3263cae112f9b06c4fe976e1e563a8899e0058acad03a56562786e4496d29f6b915190206a72756c652d6368616e676560a81b838851611ce9816116a3565b600b8152015214611cfd575b505050505050565b81518051907f8d7cbff25736090ef6444f570ee8941e761e0637e76a2b77e283ff85ec26489d8382019283206b70617373437269746572696160a01b858a51611d45816116a3565b600c8152015203611dad575050506101a001516003555b6002541690813b15611c1c5783916024839285519687938492636f0d949d60e11b845260048401525af1918215611c12575050611d9e575b8080808080611cf5565b611da790611672565b38611d94565b7fabbfab0bf365e6c544c4bdc8c27846b398ef85deeb99659a1bd1cbbfddbc69a1815183206d3b37ba34b733a23ab930ba34b7b760911b858a51611df0816116a3565b600e8152015203611e0b575050506101a00151600455611d5c565b7f5b1a74ca49fc06542ef79783aa6db8771703259f73767276192f168bbdfaf8cb815183206c616273656e7450656e616c747960981b858a51611e4d816116a3565b600d8152015203611e68575050506101a00151600555611d5c565b7f343f1cee2704e73b1859bb1bdd73f8fce853b1f06ea40bd99f16c5c103e913188151832067656e74727946656560c01b858a51611ea5816116a3565b60088152015203611ec0575050506101a00151600855611d5c565b7f806b2ce9432a34cfc9fdab6b94db5bfcfdd69b0eaa656d83bea17439bebe142d815183206b18dbdd5b9d151bd15e1c195b60a21b858a51611f01816116a3565b600c8152015203611f1c575050506101a00151600655611d5c565b51902085517f7433394719dfd8fcf3f7ef7662d3d256ff5523945834c1c05aad0d14d49b75b4926b1cd8dbdc99551bd15e1c195b60a21b91611f5d816116a3565b600c8152015214611f6f575b50611d5c565b6101a0015160075538611f69565b611f9191503d8087833e61142a81836116bf565b38611b6e565b84513d87823e3d90fdfea26469706673582212200a5497e1286d87abc62fba1f076d3fb53a98c8b401df29c9f3aaef999d16f01464736f6c63430008140033","opcodes":"PUSH1 0x80 CALLVALUE PUSH3 0xD7 JUMPI PUSH1 0x1F PUSH3 0x20DF CODESIZE DUP2 SWAP1 SUB SWAP2 DUP3 ADD PUSH1 0x1F NOT AND DUP4 ADD SWAP2 PUSH1 0x1 PUSH1 0x1 PUSH1 0x40 SHL SUB DUP4 GT DUP5 DUP5 LT OR PUSH3 0xDC JUMPI DUP1 DUP5 SWAP3 PUSH1 0x60 SWAP5 PUSH1 0x40 MSTORE DUP4 CODECOPY DUP2 ADD SUB SLT PUSH3 0xD7 JUMPI PUSH3 0x4D DUP2 PUSH3 0xF2 JUMP JUMPDEST SWAP1 PUSH3 0x6A PUSH1 0x40 PUSH3 0x62 PUSH1 0x20 DUP5 ADD PUSH3 0xF2 JUMP JUMPDEST SWAP3 ADD PUSH3 0xF2 JUMP JUMPDEST PUSH1 0x32 PUSH1 0x3 SSTORE PUSH3 0x3F480 PUSH1 0x4 SSTORE PUSH7 0x38D7EA4C68000 PUSH1 0x5 SSTORE PUSH1 0x5 PUSH1 0x6 SSTORE PUSH1 0x14 PUSH1 0x7 SSTORE PUSH7 0xB1A2BC2EC50000 PUSH1 0x8 SSTORE PUSH1 0x1 DUP1 PUSH1 0xA0 SHL SUB DUP1 SWAP3 DUP2 PUSH1 0x1 DUP1 PUSH1 0xA0 SHL SUB NOT SWAP6 AND DUP6 PUSH1 0x0 SLOAD AND OR PUSH1 0x0 SSTORE AND DUP4 PUSH1 0x1 SLOAD AND OR PUSH1 0x1 SSTORE AND SWAP1 PUSH1 0x2 SLOAD AND OR PUSH1 0x2 SSTORE PUSH1 0x40 MLOAD PUSH2 0x1FD7 SWAP1 DUP2 PUSH3 0x108 DUP3 CODECOPY RETURN JUMPDEST PUSH1 0x0 DUP1 REVERT JUMPDEST PUSH4 0x4E487B71 PUSH1 0xE0 SHL PUSH1 0x0 MSTORE PUSH1 0x41 PUSH1 0x4 MSTORE PUSH1 0x24 PUSH1 0x0 REVERT JUMPDEST MLOAD SWAP1 PUSH1 0x1 PUSH1 0x1 PUSH1 0xA0 SHL SUB DUP3 AND DUP3 SUB PUSH3 0xD7 JUMPI JUMP INVALID PUSH1 0x80 DUP1 PUSH1 0x40 MSTORE PUSH1 0x4 CALLDATASIZE LT ISZERO PUSH2 0x1D JUMPI JUMPDEST POP CALLDATASIZE ISZERO PUSH2 0x1B JUMPI PUSH1 0x0 DUP1 REVERT JUMPDEST STOP JUMPDEST PUSH1 0x0 CALLDATALOAD PUSH1 0xE0 SHR SWAP1 DUP2 PUSH4 0x72EA61C EQ PUSH2 0x1613 JUMPI POP DUP1 PUSH4 0xFD2E6F9 EQ PUSH2 0x15F5 JUMPI DUP1 PUSH4 0x103616E8 EQ PUSH2 0x15C4 JUMPI DUP1 PUSH4 0x132002FC EQ PUSH2 0x15A6 JUMPI DUP1 PUSH4 0x2274346B EQ PUSH2 0x157D JUMPI DUP1 PUSH4 0x3AEF3900 EQ PUSH2 0x1554 JUMPI DUP1 PUSH4 0x52BC9E82 EQ PUSH2 0x1536 JUMPI DUP1 PUSH4 0x5652077C EQ PUSH2 0xC96 JUMPI DUP1 PUSH4 0x57CCE7D4 EQ PUSH2 0xB36 JUMPI DUP1 PUSH4 0x7C0F6B35 EQ PUSH2 0xA8C JUMPI DUP1 PUSH4 0x943E8216 EQ PUSH2 0x906 JUMPI DUP1 PUSH4 0x997072F7 EQ PUSH2 0x8B7 JUMPI DUP1 PUSH4 0x9B5655DC EQ PUSH2 0x836 JUMPI DUP1 PUSH4 0x9F1F43AF EQ PUSH2 0x818 JUMPI DUP1 PUSH4 0xA230C524 EQ PUSH2 0x714 JUMPI DUP1 PUSH4 0xBC2914B5 EQ PUSH2 0x3E8 JUMPI DUP1 PUSH4 0xBDF91DB5 EQ PUSH2 0x3CA JUMPI DUP1 PUSH4 0xC01F9E37 EQ PUSH2 0x39E JUMPI DUP1 PUSH4 0xE0E93244 EQ PUSH2 0x375 JUMPI PUSH4 0xF63D13D7 EQ PUSH2 0x106 JUMPI CODESIZE PUSH2 0xF JUMP JUMPDEST PUSH1 0x0 CALLDATASIZE PUSH1 0x3 NOT ADD SLT PUSH2 0x223 JUMPI PUSH1 0x0 SLOAD PUSH1 0x40 MLOAD PUSH4 0x5087A34F PUSH1 0xE1 SHL DUP1 DUP3 MSTORE PUSH1 0x20 SWAP3 SWAP1 SWAP2 PUSH1 0x1 PUSH1 0x1 PUSH1 0xA0 SHL SUB SWAP2 DUP3 AND SWAP1 DUP5 DUP2 PUSH1 0x4 DUP2 DUP6 GAS STATICCALL DUP1 ISZERO PUSH2 0x217 JUMPI DUP6 SWAP2 PUSH1 0x0 SWAP2 PUSH2 0x344 JUMPI JUMPDEST POP PUSH1 0x40 MLOAD PUSH4 0x24745215 PUSH1 0xE2 SHL DUP2 MSTORE PUSH1 0x4 DUP2 ADD SWAP2 SWAP1 SWAP2 MSTORE CALLER PUSH1 0x24 DUP3 ADD MSTORE SWAP2 DUP3 SWAP1 DUP2 DUP1 PUSH1 0x44 DUP2 ADD JUMPDEST SUB SWAP2 GAS STATICCALL SWAP1 DUP2 ISZERO PUSH2 0x217 JUMPI PUSH1 0x0 SWAP2 PUSH2 0x30F JUMPI JUMPDEST POP PUSH2 0x2D7 JUMPI PUSH1 0x8 SLOAD CALLVALUE SUB PUSH2 0x29D JUMPI PUSH1 0x0 DUP1 DUP1 DUP1 CALLVALUE DUP6 PUSH1 0x1 SLOAD AND GAS CALL PUSH2 0x1A8 PUSH2 0x170A JUMP JUMPDEST POP ISZERO PUSH2 0x258 JUMPI PUSH1 0x0 SLOAD AND SWAP1 PUSH1 0x40 MLOAD SWAP1 DUP2 MSTORE DUP3 DUP2 PUSH1 0x4 DUP2 DUP6 GAS STATICCALL SWAP3 DUP4 ISZERO PUSH2 0x217 JUMPI PUSH1 0x0 SWAP4 PUSH2 0x228 JUMPI JUMPDEST POP POP DUP1 EXTCODESIZE ISZERO PUSH2 0x223 JUMPI PUSH1 0x40 MLOAD PUSH4 0x2F2FF15D PUSH1 0xE0 SHL DUP2 MSTORE PUSH1 0x4 DUP2 ADD DUP4 SWAP1 MSTORE CALLER PUSH1 0x24 DUP3 ADD MSTORE SWAP1 PUSH1 0x0 SWAP1 DUP3 SWAP1 PUSH1 0x44 SWAP1 DUP3 SWAP1 DUP5 SWAP1 GAS CALL DUP1 ISZERO PUSH2 0x217 JUMPI PUSH2 0x20E JUMPI STOP JUMPDEST PUSH2 0x1B SWAP1 PUSH2 0x1672 JUMP JUMPDEST PUSH1 0x40 MLOAD RETURNDATASIZE PUSH1 0x0 DUP3 RETURNDATACOPY RETURNDATASIZE SWAP1 REVERT JUMPDEST PUSH1 0x0 DUP1 REVERT JUMPDEST SWAP1 DUP1 SWAP3 SWAP4 POP DUP2 RETURNDATASIZE DUP4 GT PUSH2 0x251 JUMPI JUMPDEST PUSH2 0x240 DUP2 DUP4 PUSH2 0x16BF JUMP JUMPDEST DUP2 ADD SUB SLT PUSH2 0x223 JUMPI MLOAD SWAP1 CODESIZE DUP1 PUSH2 0x1D0 JUMP JUMPDEST POP RETURNDATASIZE PUSH2 0x236 JUMP JUMPDEST PUSH1 0x40 MLOAD PUSH3 0x461BCD PUSH1 0xE5 SHL DUP2 MSTORE PUSH1 0x4 DUP2 ADD DUP5 SWAP1 MSTORE PUSH1 0x1D PUSH1 0x24 DUP3 ADD MSTORE PUSH32 0x4661696C656420746F2073656E6420457468657220746F207661756C74000000 PUSH1 0x44 DUP3 ADD MSTORE PUSH1 0x64 SWAP1 REVERT JUMPDEST PUSH1 0x40 MLOAD PUSH3 0x461BCD PUSH1 0xE5 SHL DUP2 MSTORE PUSH1 0x4 DUP2 ADD DUP5 SWAP1 MSTORE PUSH1 0x12 PUSH1 0x24 DUP3 ADD MSTORE PUSH18 0x496E636F7272656374206A6F696E20666565 PUSH1 0x70 SHL PUSH1 0x44 DUP3 ADD MSTORE PUSH1 0x64 SWAP1 REVERT JUMPDEST PUSH1 0x40 MLOAD PUSH3 0x461BCD PUSH1 0xE5 SHL DUP2 MSTORE PUSH1 0x4 DUP2 ADD DUP5 SWAP1 MSTORE PUSH1 0x10 PUSH1 0x24 DUP3 ADD MSTORE PUSH16 0x20B63932B0B23C90309036B2B6B132B9 PUSH1 0x81 SHL PUSH1 0x44 DUP3 ADD MSTORE PUSH1 0x64 SWAP1 REVERT JUMPDEST SWAP1 POP DUP4 DUP2 DUP2 RETURNDATASIZE DUP4 GT PUSH2 0x33D JUMPI JUMPDEST PUSH2 0x326 DUP2 DUP4 PUSH2 0x16BF JUMP JUMPDEST DUP2 ADD SUB SLT PUSH2 0x223 JUMPI PUSH2 0x337 SWAP1 PUSH2 0x16E1 JUMP JUMPDEST CODESIZE PUSH2 0x185 JUMP JUMPDEST POP RETURNDATASIZE PUSH2 0x31C JUMP JUMPDEST DUP3 DUP2 SWAP4 SWAP3 POP RETURNDATASIZE DUP4 GT PUSH2 0x36E JUMPI JUMPDEST PUSH2 0x35B DUP2 DUP4 PUSH2 0x16BF JUMP JUMPDEST DUP2 ADD SUB SLT PUSH2 0x223 JUMPI MLOAD DUP5 SWAP1 PUSH2 0x172 PUSH2 0x14C JUMP JUMPDEST POP RETURNDATASIZE PUSH2 0x351 JUMP JUMPDEST CALLVALUE PUSH2 0x223 JUMPI PUSH1 0x0 CALLDATASIZE PUSH1 0x3 NOT ADD SLT PUSH2 0x223 JUMPI PUSH1 0x2 SLOAD PUSH1 0x40 MLOAD PUSH1 0x1 PUSH1 0x1 PUSH1 0xA0 SHL SUB SWAP1 SWAP2 AND DUP2 MSTORE PUSH1 0x20 SWAP1 RETURN JUMPDEST CALLVALUE PUSH2 0x223 JUMPI PUSH1 0x20 CALLDATASIZE PUSH1 0x3 NOT ADD SLT PUSH2 0x223 JUMPI PUSH1 0x4 CALLDATALOAD PUSH1 0x0 MSTORE PUSH1 0x9 PUSH1 0x20 MSTORE PUSH1 0x20 PUSH1 0x40 PUSH1 0x0 KECCAK256 SLOAD PUSH1 0x40 MLOAD SWAP1 DUP2 MSTORE RETURN JUMPDEST CALLVALUE PUSH2 0x223 JUMPI PUSH1 0x0 CALLDATASIZE PUSH1 0x3 NOT ADD SLT PUSH2 0x223 JUMPI PUSH1 0x20 PUSH1 0x5 SLOAD PUSH1 0x40 MLOAD SWAP1 DUP2 MSTORE RETURN JUMPDEST CALLVALUE PUSH2 0x223 JUMPI PUSH2 0x120 CALLDATASIZE PUSH1 0x3 NOT ADD SLT PUSH2 0x223 JUMPI PUSH8 0xFFFFFFFFFFFFFFFF PUSH1 0x4 CALLDATALOAD DUP2 DUP2 GT PUSH2 0x223 JUMPI PUSH2 0x41B SWAP1 CALLDATASIZE SWAP1 PUSH1 0x4 ADD PUSH2 0x1644 JUMP JUMPDEST SWAP1 SWAP2 PUSH1 0x24 CALLDATALOAD DUP2 DUP2 GT PUSH2 0x223 JUMPI PUSH2 0x435 SWAP1 CALLDATASIZE SWAP1 PUSH1 0x4 ADD PUSH2 0x1644 JUMP JUMPDEST SWAP2 PUSH1 0x64 CALLDATALOAD SWAP1 PUSH1 0x1 PUSH1 0x1 PUSH1 0xA0 SHL SUB DUP3 AND DUP3 SUB PUSH2 0x223 JUMPI PUSH1 0x84 CALLDATALOAD ISZERO ISZERO PUSH1 0x84 CALLDATALOAD SUB PUSH2 0x223 JUMPI PUSH1 0xA4 CALLDATALOAD SWAP1 DUP2 GT PUSH2 0x223 JUMPI PUSH2 0x46F SWAP1 CALLDATASIZE SWAP1 PUSH1 0x4 ADD PUSH2 0x1644 JUMP JUMPDEST PUSH2 0x104 CALLDATALOAD SWAP5 SWAP2 SWAP4 SWAP1 SWAP3 SWAP2 PUSH1 0x1 PUSH1 0x1 PUSH1 0xA0 SHL SUB DUP7 AND DUP7 SUB PUSH2 0x223 JUMPI PUSH1 0x0 SLOAD PUSH1 0x40 MLOAD PUSH4 0x5087A34F PUSH1 0xE1 SHL DUP2 MSTORE PUSH1 0x1 PUSH1 0x1 PUSH1 0xA0 SHL SUB SWAP1 SWAP2 AND SWAP9 SWAP1 PUSH1 0x20 DUP2 PUSH1 0x4 DUP2 DUP14 GAS STATICCALL SWAP1 DUP2 ISZERO PUSH2 0x217 JUMPI PUSH1 0x0 SWAP2 PUSH2 0x6E1 JUMPI JUMPDEST POP PUSH1 0x40 MLOAD PUSH4 0x24745215 PUSH1 0xE2 SHL DUP2 MSTORE PUSH1 0x4 DUP2 ADD SWAP2 SWAP1 SWAP2 MSTORE CALLER PUSH1 0x24 DUP3 ADD MSTORE PUSH1 0x20 DUP2 PUSH1 0x44 DUP2 DUP14 GAS STATICCALL SWAP1 DUP2 ISZERO PUSH2 0x217 JUMPI PUSH1 0x0 SWAP2 PUSH2 0x679 JUMPI JUMPDEST POP SWAP4 PUSH2 0x532 PUSH2 0x55D SWAP5 PUSH1 0x0 SWAP12 SWAP9 SWAP5 PUSH2 0x529 PUSH1 0x20 SWAP13 SWAP10 SWAP6 PUSH2 0x515 PUSH2 0x5A1 SWAP14 SWAP11 PUSH2 0x173A JUMP JUMPDEST PUSH1 0x40 MLOAD SWAP11 PUSH2 0x522 DUP13 PUSH2 0x1686 JUMP JUMPDEST CALLDATASIZE SWAP2 PUSH2 0x1786 JUMP JUMPDEST DUP10 MSTORE CALLDATASIZE SWAP2 PUSH2 0x1786 JUMP JUMPDEST DUP7 DUP11 ADD MSTORE PUSH1 0x44 CALLDATALOAD PUSH1 0x40 DUP8 ADD MSTORE PUSH1 0x1 PUSH1 0x1 PUSH1 0xA0 SHL SUB AND PUSH1 0x60 DUP7 ADD MSTORE PUSH1 0x84 CALLDATALOAD ISZERO ISZERO PUSH1 0x80 DUP7 ADD MSTORE CALLDATASIZE SWAP2 PUSH2 0x1786 JUMP JUMPDEST PUSH1 0xA0 DUP4 ADD MSTORE PUSH1 0xC4 CALLDATALOAD PUSH1 0xC0 DUP4 ADD MSTORE PUSH1 0xE4 CALLDATALOAD PUSH1 0xE0 DUP4 ADD MSTORE PUSH1 0x1 PUSH1 0x1 PUSH1 0xA0 SHL SUB AND PUSH2 0x100 DUP3 ADD MSTORE PUSH1 0x40 MLOAD PUSH4 0x664D54F5 PUSH1 0xE1 SHL DUP2 MSTORE SWAP5 DUP6 SWAP4 DUP5 SWAP3 DUP4 SWAP2 SWAP1 CALLER SWAP1 PUSH1 0x4 DUP5 ADD PUSH2 0x1805 JUMP JUMPDEST SUB SWAP3 GAS CALL SWAP1 DUP2 ISZERO PUSH2 0x217 JUMPI PUSH1 0x0 SWAP2 PUSH2 0x647 JUMPI JUMPDEST POP PUSH1 0x0 SLOAD PUSH1 0x1 PUSH1 0x1 PUSH1 0xA0 SHL SUB AND SWAP1 DUP2 EXTCODESIZE ISZERO PUSH2 0x223 JUMPI PUSH1 0x0 DUP1 SWAP3 PUSH1 0x44 PUSH1 0x40 MLOAD DUP1 SWAP6 DUP2 SWAP4 PUSH4 0x12232E9 PUSH1 0xE6 SHL DUP4 MSTORE CALLER PUSH1 0x4 DUP5 ADD MSTORE PUSH1 0x3 PUSH1 0x24 DUP5 ADD MSTORE GAS CALL SWAP2 DUP3 ISZERO PUSH2 0x217 JUMPI PUSH1 0x20 SWAP3 PUSH2 0x638 JUMPI JUMPDEST POP PUSH1 0x84 CALLDATALOAD ISZERO PUSH2 0x62A JUMPI PUSH2 0x613 PUSH1 0x4 SLOAD TIMESTAMP PUSH2 0x18B2 JUMP JUMPDEST DUP2 PUSH1 0x0 MSTORE PUSH1 0x9 DUP4 MSTORE PUSH1 0x40 PUSH1 0x0 KECCAK256 SSTORE JUMPDEST PUSH1 0x40 MLOAD SWAP1 DUP2 MSTORE RETURN JUMPDEST PUSH2 0x633 DUP2 PUSH2 0x1B33 JUMP JUMPDEST PUSH2 0x622 JUMP JUMPDEST PUSH2 0x641 SWAP1 PUSH2 0x1672 JUMP JUMPDEST DUP3 PUSH2 0x5FE JUMP JUMPDEST SWAP1 POP PUSH1 0x20 DUP2 RETURNDATASIZE PUSH1 0x20 GT PUSH2 0x671 JUMPI JUMPDEST DUP2 PUSH2 0x662 PUSH1 0x20 SWAP4 DUP4 PUSH2 0x16BF JUMP JUMPDEST DUP2 ADD SUB SLT PUSH2 0x223 JUMPI MLOAD DUP2 PUSH2 0x5B4 JUMP JUMPDEST RETURNDATASIZE SWAP2 POP PUSH2 0x655 JUMP JUMPDEST SWAP4 SWAP9 SWAP6 SWAP2 SWAP10 SWAP7 SWAP3 SWAP8 SWAP5 SWAP1 POP PUSH1 0x20 DUP5 RETURNDATASIZE PUSH1 0x20 GT PUSH2 0x6D9 JUMPI JUMPDEST DUP2 PUSH2 0x69D PUSH1 0x20 SWAP4 DUP4 PUSH2 0x16BF JUMP JUMPDEST DUP2 ADD SUB SLT PUSH2 0x223 JUMPI PUSH2 0x532 PUSH1 0x20 SWAP10 PUSH2 0x5A1 SWAP10 PUSH2 0x529 PUSH1 0x0 SWAP14 PUSH2 0x515 PUSH2 0x6C4 PUSH2 0x55D SWAP11 PUSH2 0x16E1 JUMP JUMPDEST SWAP7 SWAP11 SWAP14 POP POP SWAP6 SWAP10 SWAP13 POP POP SWAP5 SWAP9 SWAP12 POP SWAP5 POP PUSH2 0x4F2 JUMP JUMPDEST RETURNDATASIZE SWAP2 POP PUSH2 0x690 JUMP JUMPDEST SWAP1 POP PUSH1 0x20 DUP2 RETURNDATASIZE PUSH1 0x20 GT PUSH2 0x70C JUMPI JUMPDEST DUP2 PUSH2 0x6FC PUSH1 0x20 SWAP4 DUP4 PUSH2 0x16BF JUMP JUMPDEST DUP2 ADD SUB SLT PUSH2 0x223 JUMPI MLOAD PUSH1 0x20 PUSH2 0x4BE JUMP JUMPDEST RETURNDATASIZE SWAP2 POP PUSH2 0x6EF JUMP JUMPDEST CALLVALUE PUSH2 0x223 JUMPI PUSH1 0x20 DUP1 PUSH1 0x3 NOT CALLDATASIZE ADD SLT PUSH2 0x223 JUMPI PUSH2 0x72E PUSH2 0x162E JUMP JUMPDEST PUSH1 0x0 SLOAD PUSH1 0x40 MLOAD PUSH4 0x5087A34F PUSH1 0xE1 SHL DUP2 MSTORE PUSH1 0x1 PUSH1 0x1 PUSH1 0xA0 SHL SUB SWAP1 SWAP2 AND SWAP2 DUP4 DUP3 PUSH1 0x4 DUP2 DUP7 GAS STATICCALL DUP1 ISZERO PUSH2 0x217 JUMPI DUP5 SWAP3 PUSH1 0x0 SWAP2 PUSH2 0x7E5 JUMPI JUMPDEST POP PUSH1 0x40 MLOAD PUSH4 0x24745215 PUSH1 0xE2 SHL DUP2 MSTORE PUSH1 0x4 DUP2 ADD SWAP2 SWAP1 SWAP2 MSTORE PUSH1 0x1 PUSH1 0x1 PUSH1 0xA0 SHL SUB SWAP1 SWAP2 AND PUSH1 0x24 DUP3 ADD MSTORE SWAP2 DUP3 SWAP1 DUP2 DUP1 PUSH1 0x44 DUP2 ADD JUMPDEST SUB SWAP2 GAS STATICCALL SWAP1 DUP2 ISZERO PUSH2 0x217 JUMPI PUSH1 0x0 SWAP2 PUSH2 0x7B0 JUMPI JUMPDEST POP PUSH1 0x40 MLOAD SWAP1 ISZERO ISZERO DUP2 MSTORE RETURN JUMPDEST SWAP1 POP DUP2 DUP2 DUP2 RETURNDATASIZE DUP4 GT PUSH2 0x7DE JUMPI JUMPDEST PUSH2 0x7C7 DUP2 DUP4 PUSH2 0x16BF JUMP JUMPDEST DUP2 ADD SUB SLT PUSH2 0x223 JUMPI PUSH2 0x7D8 SWAP1 PUSH2 0x16E1 JUMP JUMPDEST DUP3 PUSH2 0x7A5 JUMP JUMPDEST POP RETURNDATASIZE PUSH2 0x7BD JUMP JUMPDEST DUP4 DUP2 SWAP5 SWAP3 POP RETURNDATASIZE DUP4 GT PUSH2 0x811 JUMPI JUMPDEST PUSH2 0x7FC DUP2 DUP4 PUSH2 0x16BF JUMP JUMPDEST DUP2 ADD SUB SLT PUSH2 0x223 JUMPI SWAP1 MLOAD DUP4 SWAP2 SWAP1 PUSH2 0x792 PUSH2 0x762 JUMP JUMPDEST POP RETURNDATASIZE PUSH2 0x7F2 JUMP JUMPDEST CALLVALUE PUSH2 0x223 JUMPI PUSH1 0x0 CALLDATASIZE PUSH1 0x3 NOT ADD SLT PUSH2 0x223 JUMPI PUSH1 0x20 PUSH1 0x6 SLOAD PUSH1 0x40 MLOAD SWAP1 DUP2 MSTORE RETURN JUMPDEST CALLVALUE PUSH2 0x223 JUMPI PUSH1 0x0 CALLDATASIZE PUSH1 0x3 NOT ADD SLT PUSH2 0x223 JUMPI PUSH1 0x1 SLOAD PUSH1 0x40 MLOAD PUSH3 0x9032FF PUSH1 0xE5 SHL DUP2 MSTORE SWAP1 PUSH1 0x20 SWAP1 DUP3 SWAP1 PUSH1 0x4 SWAP1 DUP3 SWAP1 PUSH1 0x1 PUSH1 0x1 PUSH1 0xA0 SHL SUB AND GAS STATICCALL DUP1 ISZERO PUSH2 0x217 JUMPI PUSH1 0x0 SWAP1 PUSH2 0x885 JUMPI JUMPDEST PUSH1 0x20 SWAP1 PUSH1 0x40 MLOAD SWAP1 DUP2 MSTORE RETURN JUMPDEST POP PUSH1 0x20 DUP2 RETURNDATASIZE DUP3 GT PUSH2 0x8AF JUMPI JUMPDEST DUP2 PUSH2 0x89E PUSH1 0x20 SWAP4 DUP4 PUSH2 0x16BF JUMP JUMPDEST DUP2 ADD SUB SLT PUSH2 0x223 JUMPI PUSH1 0x20 SWAP1 MLOAD PUSH2 0x87A JUMP JUMPDEST RETURNDATASIZE SWAP2 POP PUSH2 0x891 JUMP JUMPDEST CALLVALUE PUSH2 0x223 JUMPI PUSH1 0x0 CALLDATASIZE PUSH1 0x3 NOT ADD SLT PUSH2 0x223 JUMPI PUSH1 0x0 SLOAD PUSH1 0x40 MLOAD PUSH4 0x997072F7 PUSH1 0xE0 SHL DUP2 MSTORE SWAP1 PUSH1 0x20 SWAP1 DUP3 SWAP1 PUSH1 0x4 SWAP1 DUP3 SWAP1 PUSH1 0x1 PUSH1 0x1 PUSH1 0xA0 SHL SUB AND GAS STATICCALL DUP1 ISZERO PUSH2 0x217 JUMPI PUSH1 0x0 SWAP1 PUSH2 0x885 JUMPI PUSH1 0x20 SWAP1 PUSH1 0x40 MLOAD SWAP1 DUP2 MSTORE RETURN JUMPDEST CALLVALUE PUSH2 0x223 JUMPI PUSH1 0x40 CALLDATASIZE PUSH1 0x3 NOT ADD SLT PUSH2 0x223 JUMPI PUSH1 0x24 CALLDATALOAD PUSH1 0xFF DUP2 AND DUP1 SWAP2 SUB PUSH2 0x223 JUMPI PUSH1 0x0 SLOAD PUSH1 0x40 MLOAD PUSH4 0x5087A34F PUSH1 0xE1 SHL DUP2 MSTORE PUSH1 0x1 PUSH1 0x1 PUSH1 0xA0 SHL SUB SWAP2 DUP3 AND SWAP1 PUSH1 0x20 DUP1 DUP3 PUSH1 0x4 DUP2 DUP7 GAS STATICCALL SWAP2 DUP3 ISZERO PUSH2 0x217 JUMPI PUSH1 0x0 SWAP3 PUSH2 0xA5D JUMPI JUMPDEST POP PUSH1 0x40 MLOAD PUSH4 0x24745215 PUSH1 0xE2 SHL DUP2 MSTORE PUSH1 0x4 DUP2 ADD SWAP3 SWAP1 SWAP3 MSTORE CALLER PUSH1 0x24 DUP4 ADD MSTORE DUP1 DUP3 PUSH1 0x44 DUP2 DUP7 GAS STATICCALL SWAP1 DUP2 ISZERO PUSH2 0x217 JUMPI PUSH1 0x0 SWAP2 PUSH2 0xA26 JUMPI JUMPDEST POP PUSH2 0x998 SWAP2 POP PUSH2 0x173A JUMP JUMPDEST DUP1 EXTCODESIZE ISZERO PUSH2 0x223 JUMPI PUSH1 0x0 DUP1 SWAP2 PUSH1 0x44 PUSH1 0x40 MLOAD DUP1 SWAP5 DUP2 SWAP4 PUSH4 0x12232E9 PUSH1 0xE6 SHL DUP4 MSTORE CALLER PUSH1 0x4 DUP5 ADD MSTORE PUSH1 0x1 PUSH1 0x24 DUP5 ADD MSTORE GAS CALL DUP1 ISZERO PUSH2 0x217 JUMPI PUSH2 0xA17 JUMPI JUMPDEST POP PUSH1 0x0 SLOAD AND SWAP1 DUP2 EXTCODESIZE ISZERO PUSH2 0x223 JUMPI PUSH1 0x0 SWAP2 PUSH1 0x64 DUP4 SWAP3 PUSH1 0x40 MLOAD SWAP5 DUP6 SWAP4 DUP5 SWAP3 PUSH4 0xCE7FB83 PUSH1 0xE1 SHL DUP5 MSTORE PUSH1 0x4 CALLDATALOAD PUSH1 0x4 DUP6 ADD MSTORE PUSH1 0x24 DUP5 ADD MSTORE CALLER PUSH1 0x44 DUP5 ADD MSTORE GAS CALL DUP1 ISZERO PUSH2 0x217 JUMPI PUSH2 0x20E JUMPI STOP JUMPDEST PUSH2 0xA20 SWAP1 PUSH2 0x1672 JUMP JUMPDEST DUP3 PUSH2 0x9D0 JUMP JUMPDEST SWAP1 POP DUP2 DUP2 RETURNDATASIZE DUP4 GT PUSH2 0xA56 JUMPI JUMPDEST PUSH2 0xA3C DUP2 DUP4 PUSH2 0x16BF JUMP JUMPDEST DUP2 ADD SUB SLT PUSH2 0x223 JUMPI PUSH2 0xA50 PUSH2 0x998 SWAP2 PUSH2 0x16E1 JUMP JUMPDEST DUP6 PUSH2 0x98D JUMP JUMPDEST POP RETURNDATASIZE PUSH2 0xA32 JUMP JUMPDEST SWAP2 POP DUP1 DUP3 DUP2 RETURNDATASIZE DUP4 GT PUSH2 0xA85 JUMPI JUMPDEST PUSH2 0xA74 DUP2 DUP4 PUSH2 0x16BF JUMP JUMPDEST DUP2 ADD SUB SLT PUSH2 0x223 JUMPI SWAP1 MLOAD SWAP1 DUP1 PUSH2 0x95A JUMP JUMPDEST POP RETURNDATASIZE PUSH2 0xA6A JUMP JUMPDEST CALLVALUE PUSH2 0x223 JUMPI PUSH1 0x0 CALLDATASIZE PUSH1 0x3 NOT ADD SLT PUSH2 0x223 JUMPI PUSH1 0x0 DUP1 SLOAD PUSH1 0x40 MLOAD PUSH4 0x7C0F6B35 PUSH1 0xE0 SHL DUP2 MSTORE PUSH1 0x1 PUSH1 0x1 PUSH1 0xA0 SHL SUB SWAP3 SWAP1 SWAP2 DUP3 SWAP1 PUSH1 0x4 SWAP1 DUP3 SWAP1 DUP7 AND GAS STATICCALL SWAP1 DUP2 ISZERO PUSH2 0x217 JUMPI PUSH1 0x0 SWAP2 PUSH2 0xB13 JUMPI JUMPDEST POP PUSH1 0x40 MLOAD SWAP1 PUSH1 0x20 DUP1 DUP4 ADD DUP2 DUP5 MSTORE DUP3 MLOAD DUP1 SWAP2 MSTORE DUP2 PUSH1 0x40 DUP6 ADD SWAP4 ADD SWAP2 PUSH1 0x0 JUMPDEST DUP3 DUP2 LT PUSH2 0xAFD JUMPI DUP6 DUP6 SUB DUP7 RETURN JUMPDEST DUP4 MLOAD DUP8 AND DUP6 MSTORE SWAP4 DUP2 ADD SWAP4 SWAP3 DUP2 ADD SWAP3 PUSH1 0x1 ADD PUSH2 0xAF0 JUMP JUMPDEST PUSH2 0xB30 SWAP2 POP RETURNDATASIZE DUP1 PUSH1 0x0 DUP4 RETURNDATACOPY PUSH2 0xB28 DUP2 DUP4 PUSH2 0x16BF JUMP JUMPDEST DUP2 ADD SWAP1 PUSH2 0x1A5A JUMP JUMPDEST DUP3 PUSH2 0xAD3 JUMP JUMPDEST CALLVALUE PUSH2 0x223 JUMPI PUSH1 0x40 CALLDATASIZE PUSH1 0x3 NOT ADD SLT PUSH2 0x223 JUMPI PUSH2 0xB4F PUSH2 0x162E JUMP JUMPDEST PUSH1 0x0 SLOAD PUSH1 0x40 MLOAD PUSH4 0xA217FDDF PUSH1 0xE0 SHL DUP2 MSTORE PUSH1 0x1 PUSH1 0x1 PUSH1 0xA0 SHL SUB SWAP2 DUP3 AND SWAP3 SWAP2 SWAP1 PUSH1 0x20 SWAP1 DUP2 DUP2 PUSH1 0x4 DUP2 DUP9 GAS STATICCALL DUP1 ISZERO PUSH2 0x217 JUMPI DUP3 SWAP1 PUSH1 0x0 SWAP1 PUSH2 0xC67 JUMPI JUMPDEST PUSH1 0x40 MLOAD PUSH4 0x24745215 PUSH1 0xE2 SHL DUP2 MSTORE PUSH1 0x4 DUP2 ADD SWAP2 SWAP1 SWAP2 MSTORE CALLER PUSH1 0x24 DUP3 ADD MSTORE SWAP2 POP DUP2 DUP1 PUSH1 0x44 DUP2 ADD JUMPDEST SUB DUP2 DUP9 GAS STATICCALL SWAP1 DUP2 ISZERO PUSH2 0x217 JUMPI PUSH1 0x0 SWAP2 PUSH2 0xC32 JUMPI JUMPDEST POP ISZERO PUSH2 0xC02 JUMPI POP DUP3 EXTCODESIZE ISZERO PUSH2 0x223 JUMPI PUSH1 0x44 PUSH1 0x0 SWAP3 DUP4 PUSH1 0x40 MLOAD SWAP6 DUP7 SWAP5 DUP6 SWAP4 PUSH4 0x2B72EE51 PUSH1 0xE0 SHL DUP6 MSTORE AND PUSH1 0x4 DUP5 ADD MSTORE PUSH1 0x24 CALLDATALOAD PUSH1 0x24 DUP5 ADD MSTORE GAS CALL DUP1 ISZERO PUSH2 0x217 JUMPI PUSH2 0x20E JUMPI STOP JUMPDEST PUSH1 0x64 SWAP1 PUSH1 0x40 MLOAD SWAP1 PUSH3 0x461BCD PUSH1 0xE5 SHL DUP3 MSTORE PUSH1 0x4 DUP3 ADD MSTORE PUSH1 0x9 PUSH1 0x24 DUP3 ADD MSTORE PUSH9 0x2737BA1030B236B4B7 PUSH1 0xB9 SHL PUSH1 0x44 DUP3 ADD MSTORE REVERT JUMPDEST SWAP1 POP DUP2 DUP2 DUP2 RETURNDATASIZE DUP4 GT PUSH2 0xC60 JUMPI JUMPDEST PUSH2 0xC49 DUP2 DUP4 PUSH2 0x16BF JUMP JUMPDEST DUP2 ADD SUB SLT PUSH2 0x223 JUMPI PUSH2 0xC5A SWAP1 PUSH2 0x16E1 JUMP JUMPDEST DUP6 PUSH2 0xBC0 JUMP JUMPDEST POP RETURNDATASIZE PUSH2 0xC3F JUMP JUMPDEST POP DUP2 DUP2 RETURNDATASIZE DUP4 GT PUSH2 0xC8F JUMPI JUMPDEST PUSH2 0xC7C DUP2 DUP4 PUSH2 0x16BF JUMP JUMPDEST DUP2 ADD SUB SLT PUSH2 0x223 JUMPI DUP2 PUSH2 0xBAC SWAP2 MLOAD PUSH2 0xB88 JUMP JUMPDEST POP RETURNDATASIZE PUSH2 0xC72 JUMP JUMPDEST CALLVALUE PUSH2 0x223 JUMPI PUSH1 0x20 CALLDATASIZE PUSH1 0x3 NOT ADD SLT PUSH2 0x223 JUMPI PUSH1 0x0 DUP1 SLOAD PUSH1 0x40 MLOAD PUSH4 0x18FEEB15 PUSH1 0xE3 SHL DUP1 DUP3 MSTORE PUSH1 0x4 DUP1 CALLDATALOAD SWAP1 DUP4 ADD MSTORE SWAP3 PUSH1 0x1 PUSH1 0x1 PUSH1 0xA0 SHL SUB SWAP1 SWAP3 AND SWAP2 DUP2 PUSH1 0x24 DUP2 DUP6 GAS STATICCALL DUP1 ISZERO PUSH2 0x217 JUMPI PUSH2 0x140 SWAP2 PUSH1 0x0 SWAP2 PUSH2 0x151B JUMPI JUMPDEST POP ADD MLOAD ISZERO PUSH2 0x14DE JUMPI PUSH1 0x4 CALLDATALOAD PUSH1 0x0 MSTORE PUSH1 0x9 PUSH1 0x20 MSTORE PUSH1 0x40 PUSH1 0x0 KECCAK256 SLOAD TIMESTAMP GT ISZERO PUSH2 0x1499 JUMPI PUSH1 0x4 CALLDATALOAD PUSH1 0x0 MSTORE PUSH1 0xA PUSH1 0x20 MSTORE PUSH1 0xFF PUSH1 0x40 PUSH1 0x0 KECCAK256 SLOAD AND PUSH2 0x1454 JUMPI PUSH1 0x0 PUSH1 0x4 SWAP2 PUSH1 0x40 MLOAD SWAP3 DUP4 DUP1 SWAP3 PUSH4 0x7C0F6B35 PUSH1 0xE0 SHL DUP3 MSTORE GAS STATICCALL SWAP1 DUP2 ISZERO PUSH2 0x217 JUMPI PUSH1 0x0 SWAP2 PUSH2 0x1439 JUMPI JUMPDEST POP PUSH1 0x0 JUMPDEST DUP2 MLOAD DUP2 LT ISZERO PUSH2 0xFB7 JUMPI PUSH1 0x0 SLOAD PUSH1 0x1 PUSH1 0x1 PUSH1 0xA0 SHL SUB SWAP1 DUP2 AND SWAP1 PUSH2 0xDA5 SWAP1 PUSH1 0x20 SWAP1 PUSH2 0xD73 DUP6 DUP8 PUSH2 0x1ADE JUMP JUMPDEST MLOAD PUSH1 0x40 MLOAD PUSH4 0x62D4F893 PUSH1 0xE0 SHL DUP2 MSTORE PUSH1 0x4 DUP1 CALLDATALOAD SWAP1 DUP3 ADD MSTORE SWAP2 AND PUSH1 0x1 PUSH1 0x1 PUSH1 0xA0 SHL SUB AND PUSH1 0x24 DUP3 ADD MSTORE SWAP2 DUP3 SWAP1 DUP2 SWAP1 PUSH1 0x44 DUP3 ADD SWAP1 JUMP JUMPDEST SUB DUP2 DUP6 GAS STATICCALL SWAP1 DUP2 ISZERO PUSH2 0x217 JUMPI PUSH1 0x0 SWAP2 PUSH2 0xF7D JUMPI JUMPDEST POP ISZERO PUSH2 0xDE8 JUMPI JUMPDEST POP PUSH1 0x0 NOT DUP2 EQ PUSH2 0xDD2 JUMPI PUSH1 0x1 ADD PUSH2 0xD4A JUMP JUMPDEST PUSH4 0x4E487B71 PUSH1 0xE0 SHL PUSH1 0x0 MSTORE PUSH1 0x11 PUSH1 0x4 MSTORE PUSH1 0x24 PUSH1 0x0 REVERT JUMPDEST PUSH1 0x1 PUSH1 0x1 PUSH1 0xA0 SHL SUB PUSH2 0xDFA DUP4 DUP6 PUSH2 0x1ADE JUMP JUMPDEST MLOAD AND DUP2 EXTCODESIZE ISZERO PUSH2 0x223 JUMPI PUSH1 0x0 SWAP2 PUSH1 0x24 DUP4 SWAP3 PUSH1 0x40 MLOAD SWAP5 DUP6 SWAP4 DUP5 SWAP3 PUSH4 0x5D437B85 PUSH1 0xE1 SHL DUP5 MSTORE PUSH1 0x4 DUP5 ADD MSTORE GAS CALL DUP1 ISZERO PUSH2 0x217 JUMPI PUSH2 0xF6E JUMPI JUMPDEST POP PUSH1 0x0 SLOAD PUSH1 0x1 PUSH1 0x1 PUSH1 0xA0 SHL SUB SWAP1 DUP2 AND SWAP1 PUSH2 0xE48 DUP4 DUP6 PUSH2 0x1ADE JUMP JUMPDEST MLOAD AND SWAP1 DUP1 EXTCODESIZE ISZERO PUSH2 0x223 JUMPI PUSH1 0x40 MLOAD PUSH4 0xA462E50F PUSH1 0xE0 SHL DUP2 MSTORE PUSH1 0x4 DUP1 CALLDATALOAD SWAP1 DUP3 ADD MSTORE PUSH1 0x1 PUSH1 0x1 PUSH1 0xA0 SHL SUB SWAP3 SWAP1 SWAP3 AND PUSH1 0x24 DUP4 ADD MSTORE PUSH1 0x0 SWAP1 DUP3 SWAP1 PUSH1 0x44 SWAP1 DUP3 SWAP1 DUP5 SWAP1 GAS CALL DUP1 ISZERO PUSH2 0x217 JUMPI PUSH2 0xF5F JUMPI JUMPDEST POP PUSH1 0x0 SLOAD PUSH1 0x1 PUSH1 0x1 PUSH1 0xA0 SHL SUB SWAP1 DUP2 AND SWAP1 PUSH2 0xEAB DUP4 DUP6 PUSH2 0x1ADE JUMP JUMPDEST MLOAD AND SWAP1 DUP1 EXTCODESIZE ISZERO PUSH2 0x223 JUMPI PUSH1 0x0 DUP1 SWAP3 PUSH1 0x40 MLOAD SWAP3 DUP4 SWAP2 PUSH4 0x2B72EE51 PUSH1 0xE0 SHL DUP4 MSTORE PUSH1 0x4 DUP4 ADD MSTORE PUSH1 0x3 PUSH1 0x24 DUP4 ADD MSTORE DUP2 PUSH1 0x44 SWAP6 DUP7 SWAP3 GAS CALL DUP1 ISZERO PUSH2 0x217 JUMPI PUSH2 0xF50 JUMPI JUMPDEST POP PUSH1 0x0 DUP1 DUP1 DUP1 PUSH1 0x1 DUP1 PUSH1 0xA0 SHL SUB PUSH1 0x1 SLOAD AND PUSH1 0x5 SLOAD SWAP1 GAS CALL PUSH2 0xF07 PUSH2 0x170A JUMP JUMPDEST POP PUSH2 0xDC0 JUMPI PUSH1 0x64 SWAP1 PUSH32 0x4661696C656420746F2073656E642070656E616C747920746F207661756C7400 PUSH1 0x40 MLOAD SWAP2 PUSH3 0x461BCD PUSH1 0xE5 SHL DUP4 MSTORE PUSH1 0x20 PUSH1 0x4 DUP5 ADD MSTORE PUSH1 0x1F PUSH1 0x24 DUP5 ADD MSTORE DUP3 ADD MSTORE REVERT JUMPDEST PUSH2 0xF59 SWAP1 PUSH2 0x1672 JUMP JUMPDEST DUP5 PUSH2 0xEE8 JUMP JUMPDEST PUSH2 0xF68 SWAP1 PUSH2 0x1672 JUMP JUMPDEST DUP4 PUSH2 0xE91 JUMP JUMPDEST PUSH2 0xF77 SWAP1 PUSH2 0x1672 JUMP JUMPDEST DUP4 PUSH2 0xE2E JUMP JUMPDEST SWAP1 POP PUSH1 0x20 DUP2 RETURNDATASIZE PUSH1 0x20 GT PUSH2 0xFAF JUMPI JUMPDEST DUP2 PUSH2 0xF98 PUSH1 0x20 SWAP4 DUP4 PUSH2 0x16BF JUMP JUMPDEST DUP2 ADD SUB SLT PUSH2 0x223 JUMPI PUSH2 0xFA9 SWAP1 PUSH2 0x16E1 JUMP JUMPDEST DUP6 PUSH2 0xDB9 JUMP JUMPDEST RETURNDATASIZE SWAP2 POP PUSH2 0xF8B JUMP JUMPDEST DUP3 PUSH1 0x1 DUP1 PUSH1 0xA0 SHL SUB PUSH1 0x0 SLOAD AND PUSH1 0x40 MLOAD SWAP2 DUP3 MSTORE PUSH1 0x4 CALLDATALOAD PUSH1 0x4 DUP4 ADD MSTORE PUSH1 0x0 DUP3 PUSH1 0x24 DUP2 DUP5 GAS STATICCALL SWAP2 DUP3 ISZERO PUSH2 0x217 JUMPI PUSH1 0x0 SWAP3 PUSH2 0x1414 JUMPI JUMPDEST POP PUSH1 0xA0 DUP3 ADD PUSH2 0x100C PUSH2 0x1001 DUP3 MLOAD PUSH1 0xC0 DUP7 ADD MLOAD SWAP1 PUSH2 0x18B2 JUMP JUMPDEST PUSH1 0xE0 DUP6 ADD MLOAD SWAP1 PUSH2 0x18B2 JUMP JUMPDEST SWAP1 DUP2 PUSH2 0x13F9 JUMPI POP POP PUSH1 0x0 SWAP1 JUMPDEST PUSH1 0x3 SLOAD DUP3 LT PUSH2 0x1382 JUMPI POP PUSH1 0x0 SLOAD PUSH1 0x1 PUSH1 0x1 PUSH1 0xA0 SHL SUB AND DUP1 EXTCODESIZE ISZERO PUSH2 0x223 JUMPI PUSH1 0x0 DUP1 SWAP2 PUSH1 0x44 PUSH1 0x40 MLOAD DUP1 SWAP5 DUP2 SWAP4 PUSH4 0x32FA5185 PUSH1 0xE2 SHL DUP4 MSTORE PUSH1 0x4 CALLDATALOAD PUSH1 0x4 DUP5 ADD MSTORE PUSH1 0x1 PUSH1 0x24 DUP5 ADD MSTORE GAS CALL DUP1 ISZERO PUSH2 0x217 JUMPI PUSH2 0x1373 JUMPI JUMPDEST POP PUSH1 0x4 CALLDATALOAD PUSH32 0xE36F8B7448DAFF4A52E2945DB0D1D7A436279CC1D527A45C27835DCBD27F336D PUSH1 0x0 DUP1 LOG2 PUSH2 0x109C PUSH1 0x4 CALLDATALOAD PUSH2 0x1B33 JUMP JUMPDEST PUSH2 0x160 DUP3 ADD MLOAD PUSH1 0x20 DUP2 MLOAD SWAP2 ADD KECCAK256 PUSH2 0x10B1 PUSH2 0x1B08 JUMP JUMPDEST PUSH1 0x20 DUP2 MLOAD SWAP2 ADD KECCAK256 SUB PUSH2 0x11A6 JUMPI JUMPDEST PUSH1 0x4 CALLDATALOAD PUSH1 0x0 MSTORE PUSH1 0xA PUSH1 0x20 MSTORE PUSH1 0x40 PUSH1 0x0 KECCAK256 PUSH1 0x1 PUSH1 0xFF NOT DUP3 SLOAD AND OR SWAP1 SSTORE PUSH2 0x160 DUP3 ADD MLOAD PUSH1 0x20 DUP2 MLOAD SWAP2 ADD KECCAK256 PUSH2 0x10EE PUSH2 0x1B08 JUMP JUMPDEST PUSH1 0x20 DUP2 MLOAD SWAP2 ADD KECCAK256 EQ PUSH2 0x10FC JUMPI STOP JUMPDEST PUSH1 0x3 SLOAD GT PUSH2 0x1155 JUMPI PUSH1 0x0 SLOAD PUSH2 0x1C0 SWAP1 SWAP2 ADD MLOAD PUSH1 0x1 PUSH1 0x1 PUSH1 0xA0 SHL SUB SWAP2 DUP3 AND SWAP2 AND DUP2 EXTCODESIZE ISZERO PUSH2 0x223 JUMPI PUSH1 0x0 SWAP2 PUSH1 0x44 DUP4 SWAP3 PUSH1 0x40 MLOAD SWAP5 DUP6 SWAP4 DUP5 SWAP3 PUSH4 0x12232E9 PUSH1 0xE6 SHL DUP5 MSTORE PUSH1 0x4 DUP5 ADD MSTORE PUSH1 0x4 PUSH1 0x24 DUP5 ADD MSTORE GAS CALL DUP1 ISZERO PUSH2 0x217 JUMPI PUSH2 0x20E JUMPI STOP JUMPDEST PUSH1 0x0 SLOAD PUSH2 0x1C0 SWAP1 SWAP2 ADD MLOAD PUSH1 0x1 PUSH1 0x1 PUSH1 0xA0 SHL SUB SWAP2 DUP3 AND SWAP2 AND DUP2 EXTCODESIZE ISZERO PUSH2 0x223 JUMPI PUSH1 0x0 SWAP2 PUSH1 0x44 DUP4 SWAP3 PUSH1 0x40 MLOAD SWAP5 DUP6 SWAP4 DUP5 SWAP3 PUSH4 0x2B72EE51 PUSH1 0xE0 SHL DUP5 MSTORE PUSH1 0x4 DUP5 ADD MSTORE PUSH1 0xA PUSH1 0x24 DUP5 ADD MSTORE GAS CALL DUP1 ISZERO PUSH2 0x217 JUMPI PUSH2 0x20E JUMPI STOP JUMPDEST DUP2 MLOAD PUSH2 0x11EF PUSH1 0x31 PUSH1 0x40 MLOAD DUP1 SWAP4 PUSH17 0x22BC32B1BABA34B7B71021B432B1B59D1 PUSH1 0x7D SHL PUSH1 0x20 DUP4 ADD MSTORE PUSH2 0x11DF DUP2 MLOAD DUP1 SWAP3 PUSH1 0x20 DUP7 DUP7 ADD SWAP2 ADD PUSH2 0x17BD JUMP JUMPDEST DUP2 ADD SUB PUSH1 0x11 DUP2 ADD DUP5 MSTORE ADD DUP3 PUSH2 0x16BF JUMP JUMPDEST PUSH1 0x40 MLOAD DUP1 PUSH1 0x80 DUP2 ADD LT PUSH8 0xFFFFFFFFFFFFFFFF PUSH1 0x80 DUP4 ADD GT OR PUSH2 0x135D JUMPI PUSH2 0x12F7 DUP2 PUSH1 0x0 SWAP4 PUSH1 0x80 PUSH1 0x20 SWAP5 ADD PUSH1 0x40 MSTORE PUSH1 0x47 DUP3 MSTORE PUSH32 0x566F74652059455320696620746865206F726967696E616C2070726F706F7361 DUP5 DUP4 ADD MSTORE PUSH32 0x6C2077617320657865637574656420636F72726563746C792C204E4F206F7468 PUSH1 0x40 DUP4 ADD MSTORE PUSH7 0x32B93BB4B9B297 PUSH1 0xC9 SHL PUSH1 0x60 DUP4 ADD MSTORE PUSH1 0x1 DUP1 PUSH1 0xA0 SHL SUB DUP6 SLOAD AND SWAP2 PUSH1 0x1 DUP1 PUSH1 0xA0 SHL SUB PUSH2 0x120 DUP10 ADD MLOAD AND SWAP1 PUSH1 0x40 MLOAD SWAP3 PUSH2 0x12A1 DUP5 PUSH2 0x1686 JUMP JUMPDEST DUP4 MSTORE DUP6 DUP4 ADD MSTORE DUP6 PUSH1 0x40 DUP4 ADD MSTORE DUP6 PUSH1 0x60 DUP4 ADD MSTORE PUSH1 0x1 PUSH1 0x80 DUP4 ADD MSTORE PUSH2 0x12C2 PUSH2 0x1B08 JUMP JUMPDEST PUSH1 0xA0 DUP4 ADD MSTORE DUP6 PUSH1 0xC0 DUP4 ADD MSTORE DUP6 PUSH1 0xE0 DUP4 ADD MSTORE PUSH2 0x100 DUP3 ADD MSTORE PUSH1 0x40 MLOAD SWAP5 DUP6 DUP1 SWAP5 DUP2 SWAP4 PUSH4 0x664D54F5 PUSH1 0xE1 SHL DUP4 MSTORE ADDRESS SWAP1 PUSH1 0x4 DUP5 ADD PUSH2 0x1805 JUMP JUMPDEST SUB SWAP3 GAS CALL SWAP1 DUP2 ISZERO PUSH2 0x217 JUMPI PUSH1 0x0 SWAP2 PUSH2 0x132B JUMPI JUMPDEST POP PUSH2 0x1317 PUSH1 0x4 SLOAD TIMESTAMP PUSH2 0x18B2 JUMP JUMPDEST SWAP1 PUSH1 0x0 MSTORE PUSH1 0x9 PUSH1 0x20 MSTORE PUSH1 0x40 PUSH1 0x0 KECCAK256 SSTORE PUSH2 0x10BE JUMP JUMPDEST SWAP1 POP PUSH1 0x20 DUP2 RETURNDATASIZE PUSH1 0x20 GT PUSH2 0x1355 JUMPI JUMPDEST DUP2 PUSH2 0x1346 PUSH1 0x20 SWAP4 DUP4 PUSH2 0x16BF JUMP JUMPDEST DUP2 ADD SUB SLT PUSH2 0x223 JUMPI MLOAD DUP4 PUSH2 0x130A JUMP JUMPDEST RETURNDATASIZE SWAP2 POP PUSH2 0x1339 JUMP JUMPDEST PUSH4 0x4E487B71 PUSH1 0xE0 SHL PUSH1 0x0 MSTORE PUSH1 0x41 PUSH1 0x4 MSTORE PUSH1 0x24 PUSH1 0x0 REVERT JUMPDEST PUSH2 0x137C SWAP1 PUSH2 0x1672 JUMP JUMPDEST DUP3 PUSH2 0x1068 JUMP JUMPDEST DUP1 EXTCODESIZE ISZERO PUSH2 0x223 JUMPI PUSH1 0x0 DUP1 SWAP2 PUSH1 0x44 PUSH1 0x40 MLOAD DUP1 SWAP5 DUP2 SWAP4 PUSH4 0x32FA5185 PUSH1 0xE2 SHL DUP4 MSTORE PUSH1 0x4 CALLDATALOAD PUSH1 0x4 DUP5 ADD MSTORE PUSH1 0x2 PUSH1 0x24 DUP5 ADD MSTORE GAS CALL DUP1 ISZERO PUSH2 0x217 JUMPI PUSH2 0x13EA JUMPI JUMPDEST POP PUSH1 0x4 CALLDATALOAD PUSH32 0xD92FBA445EDB3153B571E6DF782D7A66FD0CE668519273670820EE3A86DA0EF4 PUSH1 0x0 DUP1 LOG2 PUSH2 0x10BE JUMP JUMPDEST PUSH2 0x13F3 SWAP1 PUSH2 0x1672 JUMP JUMPDEST DUP3 PUSH2 0x13BC JUMP JUMPDEST MLOAD PUSH1 0x64 DUP2 MUL SWAP1 DUP1 DUP3 DIV PUSH1 0x64 EQ SWAP1 ISZERO OR ISZERO PUSH2 0xDD2 JUMPI DIV SWAP1 PUSH2 0x1018 JUMP JUMPDEST PUSH2 0x1432 SWAP2 SWAP3 POP RETURNDATASIZE DUP1 PUSH1 0x0 DUP4 RETURNDATACOPY PUSH2 0x142A DUP2 DUP4 PUSH2 0x16BF JUMP JUMPDEST DUP2 ADD SWAP1 PUSH2 0x1918 JUMP JUMPDEST SWAP1 DUP3 PUSH2 0xFE9 JUMP JUMPDEST PUSH2 0x144E SWAP2 POP RETURNDATASIZE DUP1 PUSH1 0x0 DUP4 RETURNDATACOPY PUSH2 0xB28 DUP2 DUP4 PUSH2 0x16BF JUMP JUMPDEST DUP3 PUSH2 0xD46 JUMP JUMPDEST PUSH1 0x40 MLOAD PUSH3 0x461BCD PUSH1 0xE5 SHL DUP2 MSTORE PUSH1 0x20 PUSH1 0x4 DUP3 ADD MSTORE PUSH1 0x1A PUSH1 0x24 DUP3 ADD MSTORE PUSH32 0x50726F706F73616C20616C72656164792066696E616C697A6564000000000000 PUSH1 0x44 DUP3 ADD MSTORE PUSH1 0x64 SWAP1 REVERT JUMPDEST PUSH1 0x40 MLOAD PUSH3 0x461BCD PUSH1 0xE5 SHL DUP2 MSTORE PUSH1 0x20 PUSH1 0x4 DUP3 ADD MSTORE PUSH1 0x17 PUSH1 0x24 DUP3 ADD MSTORE PUSH32 0x566F74696E6720706572696F64206E6F7420656E646564000000000000000000 PUSH1 0x44 DUP3 ADD MSTORE PUSH1 0x64 SWAP1 REVERT JUMPDEST PUSH1 0x40 MLOAD PUSH3 0x461BCD PUSH1 0xE5 SHL DUP2 MSTORE PUSH1 0x20 PUSH1 0x4 DUP3 ADD MSTORE PUSH1 0x15 PUSH1 0x24 DUP3 ADD MSTORE PUSH21 0x139BDD0818481D9BDD1A5B99C81C1C9BDC1BDCD85B PUSH1 0x5A SHL PUSH1 0x44 DUP3 ADD MSTORE PUSH1 0x64 SWAP1 REVERT JUMPDEST PUSH2 0x1530 SWAP2 POP RETURNDATASIZE DUP1 PUSH1 0x0 DUP4 RETURNDATACOPY PUSH2 0x142A DUP2 DUP4 PUSH2 0x16BF JUMP JUMPDEST DUP5 PUSH2 0xCE7 JUMP JUMPDEST CALLVALUE PUSH2 0x223 JUMPI PUSH1 0x0 CALLDATASIZE PUSH1 0x3 NOT ADD SLT PUSH2 0x223 JUMPI PUSH1 0x20 PUSH1 0x7 SLOAD PUSH1 0x40 MLOAD SWAP1 DUP2 MSTORE RETURN JUMPDEST CALLVALUE PUSH2 0x223 JUMPI PUSH1 0x0 CALLDATASIZE PUSH1 0x3 NOT ADD SLT PUSH2 0x223 JUMPI PUSH1 0x0 SLOAD PUSH1 0x40 MLOAD PUSH1 0x1 PUSH1 0x1 PUSH1 0xA0 SHL SUB SWAP1 SWAP2 AND DUP2 MSTORE PUSH1 0x20 SWAP1 RETURN JUMPDEST CALLVALUE PUSH2 0x223 JUMPI PUSH1 0x0 CALLDATASIZE PUSH1 0x3 NOT ADD SLT PUSH2 0x223 JUMPI PUSH1 0x1 SLOAD PUSH1 0x40 MLOAD PUSH1 0x1 PUSH1 0x1 PUSH1 0xA0 SHL SUB SWAP1 SWAP2 AND DUP2 MSTORE PUSH1 0x20 SWAP1 RETURN JUMPDEST CALLVALUE PUSH2 0x223 JUMPI PUSH1 0x0 CALLDATASIZE PUSH1 0x3 NOT ADD SLT PUSH2 0x223 JUMPI PUSH1 0x20 PUSH1 0x4 SLOAD PUSH1 0x40 MLOAD SWAP1 DUP2 MSTORE RETURN JUMPDEST CALLVALUE PUSH2 0x223 JUMPI PUSH1 0x20 CALLDATASIZE PUSH1 0x3 NOT ADD SLT PUSH2 0x223 JUMPI PUSH1 0x4 CALLDATALOAD PUSH1 0x0 MSTORE PUSH1 0xA PUSH1 0x20 MSTORE PUSH1 0x20 PUSH1 0xFF PUSH1 0x40 PUSH1 0x0 KECCAK256 SLOAD AND PUSH1 0x40 MLOAD SWAP1 ISZERO ISZERO DUP2 MSTORE RETURN JUMPDEST CALLVALUE PUSH2 0x223 JUMPI PUSH1 0x0 CALLDATASIZE PUSH1 0x3 NOT ADD SLT PUSH2 0x223 JUMPI PUSH1 0x20 PUSH1 0x3 SLOAD PUSH1 0x40 MLOAD SWAP1 DUP2 MSTORE RETURN JUMPDEST CALLVALUE PUSH2 0x223 JUMPI PUSH1 0x0 CALLDATASIZE PUSH1 0x3 NOT ADD SLT PUSH2 0x223 JUMPI PUSH1 0x20 SWAP1 PUSH1 0x8 SLOAD DUP2 MSTORE RETURN JUMPDEST PUSH1 0x4 CALLDATALOAD SWAP1 PUSH1 0x1 PUSH1 0x1 PUSH1 0xA0 SHL SUB DUP3 AND DUP3 SUB PUSH2 0x223 JUMPI JUMP JUMPDEST SWAP2 DUP2 PUSH1 0x1F DUP5 ADD SLT ISZERO PUSH2 0x223 JUMPI DUP3 CALLDATALOAD SWAP2 PUSH8 0xFFFFFFFFFFFFFFFF DUP4 GT PUSH2 0x223 JUMPI PUSH1 0x20 DUP4 DUP2 DUP7 ADD SWAP6 ADD ADD GT PUSH2 0x223 JUMPI JUMP JUMPDEST PUSH8 0xFFFFFFFFFFFFFFFF DUP2 GT PUSH2 0x135D JUMPI PUSH1 0x40 MSTORE JUMP JUMPDEST PUSH2 0x120 DUP2 ADD SWAP1 DUP2 LT PUSH8 0xFFFFFFFFFFFFFFFF DUP3 GT OR PUSH2 0x135D JUMPI PUSH1 0x40 MSTORE JUMP JUMPDEST PUSH1 0x40 DUP2 ADD SWAP1 DUP2 LT PUSH8 0xFFFFFFFFFFFFFFFF DUP3 GT OR PUSH2 0x135D JUMPI PUSH1 0x40 MSTORE JUMP JUMPDEST SWAP1 PUSH1 0x1F DUP1 NOT SWAP2 ADD AND DUP2 ADD SWAP1 DUP2 LT PUSH8 0xFFFFFFFFFFFFFFFF DUP3 GT OR PUSH2 0x135D JUMPI PUSH1 0x40 MSTORE JUMP JUMPDEST MLOAD SWAP1 DUP2 ISZERO ISZERO DUP3 SUB PUSH2 0x223 JUMPI JUMP JUMPDEST PUSH8 0xFFFFFFFFFFFFFFFF DUP2 GT PUSH2 0x135D JUMPI PUSH1 0x1F ADD PUSH1 0x1F NOT AND PUSH1 0x20 ADD SWAP1 JUMP JUMPDEST RETURNDATASIZE ISZERO PUSH2 0x1735 JUMPI RETURNDATASIZE SWAP1 PUSH2 0x171B DUP3 PUSH2 0x16EE JUMP JUMPDEST SWAP2 PUSH2 0x1729 PUSH1 0x40 MLOAD SWAP4 DUP5 PUSH2 0x16BF JUMP JUMPDEST DUP3 MSTORE RETURNDATASIZE PUSH1 0x0 PUSH1 0x20 DUP5 ADD RETURNDATACOPY JUMP JUMPDEST PUSH1 0x60 SWAP1 JUMP JUMPDEST ISZERO PUSH2 0x1741 JUMPI JUMP JUMPDEST PUSH1 0x40 MLOAD PUSH3 0x461BCD PUSH1 0xE5 SHL DUP2 MSTORE PUSH1 0x20 PUSH1 0x4 DUP3 ADD MSTORE PUSH1 0x1B PUSH1 0x24 DUP3 ADD MSTORE PUSH32 0x44414F3A2043616C6C6572206973206E6F742061206D656D6265720000000000 PUSH1 0x44 DUP3 ADD MSTORE PUSH1 0x64 SWAP1 REVERT JUMPDEST SWAP3 SWAP2 SWAP3 PUSH2 0x1792 DUP3 PUSH2 0x16EE JUMP JUMPDEST SWAP2 PUSH2 0x17A0 PUSH1 0x40 MLOAD SWAP4 DUP5 PUSH2 0x16BF JUMP JUMPDEST DUP3 SWAP5 DUP2 DUP5 MSTORE DUP2 DUP4 ADD GT PUSH2 0x223 JUMPI DUP3 DUP2 PUSH1 0x20 SWAP4 DUP5 PUSH1 0x0 SWAP7 ADD CALLDATACOPY ADD ADD MSTORE JUMP JUMPDEST PUSH1 0x0 JUMPDEST DUP4 DUP2 LT PUSH2 0x17D0 JUMPI POP POP PUSH1 0x0 SWAP2 ADD MSTORE JUMP JUMPDEST DUP2 DUP2 ADD MLOAD DUP4 DUP3 ADD MSTORE PUSH1 0x20 ADD PUSH2 0x17C0 JUMP JUMPDEST SWAP1 PUSH1 0x20 SWAP2 PUSH2 0x17F9 DUP2 MLOAD DUP1 SWAP3 DUP2 DUP6 MSTORE DUP6 DUP1 DUP7 ADD SWAP2 ADD PUSH2 0x17BD JUMP JUMPDEST PUSH1 0x1F ADD PUSH1 0x1F NOT AND ADD ADD SWAP1 JUMP JUMPDEST SWAP1 PUSH1 0x20 SWAP1 SWAP4 SWAP3 SWAP4 PUSH1 0x40 DUP4 MSTORE DUP1 MLOAD SWAP1 PUSH2 0x182B PUSH2 0x120 SWAP3 DUP4 PUSH1 0x40 DUP8 ADD MSTORE PUSH2 0x160 DUP7 ADD SWAP1 PUSH2 0x17E0 JUMP JUMPDEST PUSH2 0x1846 DUP5 DUP4 ADD MLOAD SWAP2 PUSH1 0x3F NOT SWAP3 DUP4 DUP9 DUP4 SUB ADD PUSH1 0x60 DUP10 ADD MSTORE PUSH2 0x17E0 JUMP JUMPDEST SWAP3 PUSH1 0x40 DUP4 ADD MLOAD PUSH1 0x80 DUP8 ADD MSTORE PUSH2 0x188A PUSH1 0x1 DUP1 PUSH1 0xA0 SHL SUB SWAP5 DUP6 SWAP4 DUP5 PUSH1 0x60 DUP8 ADD MLOAD AND PUSH1 0xA0 DUP11 ADD MSTORE PUSH1 0x80 DUP7 ADD MLOAD ISZERO ISZERO PUSH1 0xC0 DUP11 ADD MSTORE PUSH1 0xA0 DUP7 ADD MLOAD SWAP1 DUP10 DUP4 SUB ADD PUSH1 0xE0 DUP11 ADD MSTORE PUSH2 0x17E0 JUMP JUMPDEST SWAP3 PUSH1 0xC0 DUP2 ADD MLOAD SWAP2 PUSH2 0x100 SWAP3 DUP4 DUP10 ADD MSTORE PUSH1 0xE0 DUP3 ADD MLOAD SWAP1 DUP9 ADD MSTORE ADD MLOAD AND PUSH2 0x140 DUP6 ADD MSTORE SWAP5 AND SWAP2 ADD MSTORE JUMP JUMPDEST SWAP2 SWAP1 DUP3 ADD DUP1 SWAP3 GT PUSH2 0xDD2 JUMPI JUMP JUMPDEST DUP2 PUSH1 0x1F DUP3 ADD SLT ISZERO PUSH2 0x223 JUMPI DUP1 MLOAD PUSH2 0x18D5 DUP2 PUSH2 0x16EE JUMP JUMPDEST SWAP3 PUSH2 0x18E3 PUSH1 0x40 MLOAD SWAP5 DUP6 PUSH2 0x16BF JUMP JUMPDEST DUP2 DUP5 MSTORE PUSH1 0x20 DUP3 DUP5 ADD ADD GT PUSH2 0x223 JUMPI PUSH2 0x1901 SWAP2 PUSH1 0x20 DUP1 DUP6 ADD SWAP2 ADD PUSH2 0x17BD JUMP JUMPDEST SWAP1 JUMP JUMPDEST MLOAD SWAP1 PUSH1 0x1 PUSH1 0x1 PUSH1 0xA0 SHL SUB DUP3 AND DUP3 SUB PUSH2 0x223 JUMPI JUMP JUMPDEST SWAP1 PUSH1 0x20 DUP3 DUP3 SUB SLT PUSH2 0x223 JUMPI DUP2 MLOAD PUSH8 0xFFFFFFFFFFFFFFFF SWAP3 DUP4 DUP3 GT PUSH2 0x223 JUMPI ADD SWAP1 PUSH2 0x1E0 SWAP3 DUP4 DUP4 DUP4 SUB SLT PUSH2 0x223 JUMPI PUSH1 0x40 MLOAD SWAP4 DUP5 ADD DUP5 DUP2 LT DUP3 DUP3 GT OR PUSH2 0x135D JUMPI PUSH1 0x40 MSTORE DUP3 MLOAD DUP2 DUP2 GT PUSH2 0x223 JUMPI DUP3 PUSH2 0x196E SWAP2 DUP6 ADD PUSH2 0x18BF JUMP JUMPDEST DUP5 MSTORE PUSH1 0x20 DUP4 ADD MLOAD DUP2 DUP2 GT PUSH2 0x223 JUMPI DUP3 PUSH2 0x1988 SWAP2 DUP6 ADD PUSH2 0x18BF JUMP JUMPDEST PUSH1 0x20 DUP6 ADD MSTORE PUSH1 0x40 DUP4 DUP2 ADD MLOAD SWAP1 DUP6 ADD MSTORE PUSH1 0x60 DUP4 ADD MLOAD PUSH1 0x1 PUSH1 0x1 PUSH1 0xA0 SHL SUB DUP2 AND DUP2 SUB PUSH2 0x223 JUMPI PUSH1 0x60 DUP6 ADD MSTORE PUSH1 0x80 DUP4 ADD MLOAD PUSH1 0x4 DUP2 LT ISZERO PUSH2 0x223 JUMPI PUSH1 0x80 DUP6 ADD MSTORE PUSH1 0xA0 DUP4 ADD MLOAD PUSH1 0xA0 DUP6 ADD MSTORE PUSH1 0xC0 DUP4 ADD MLOAD PUSH1 0xC0 DUP6 ADD MSTORE PUSH1 0xE0 DUP4 ADD MLOAD PUSH1 0xE0 DUP6 ADD MSTORE PUSH2 0x100 DUP1 DUP5 ADD MLOAD SWAP1 DUP6 ADD MSTORE PUSH2 0x120 PUSH2 0x19FB DUP2 DUP6 ADD PUSH2 0x1904 JUMP JUMPDEST SWAP1 DUP6 ADD MSTORE PUSH2 0x140 PUSH2 0x1A0D DUP2 DUP6 ADD PUSH2 0x16E1 JUMP JUMPDEST SWAP1 DUP6 ADD MSTORE PUSH2 0x160 SWAP2 DUP3 DUP5 ADD MLOAD SWAP2 DUP3 GT PUSH2 0x223 JUMPI PUSH2 0x1A2B SWAP2 DUP5 ADD PUSH2 0x18BF JUMP JUMPDEST SWAP1 DUP4 ADD MSTORE PUSH2 0x180 DUP1 DUP3 ADD MLOAD SWAP1 DUP4 ADD MSTORE PUSH2 0x1A0 DUP1 DUP3 ADD MLOAD SWAP1 DUP4 ADD MSTORE PUSH2 0x1A53 PUSH2 0x1C0 DUP1 SWAP3 ADD PUSH2 0x1904 JUMP JUMPDEST SWAP1 DUP3 ADD MSTORE SWAP1 JUMP JUMPDEST SWAP1 PUSH1 0x20 SWAP1 DUP2 DUP4 DUP3 SUB SLT PUSH2 0x223 JUMPI DUP3 MLOAD PUSH8 0xFFFFFFFFFFFFFFFF SWAP4 DUP5 DUP3 GT PUSH2 0x223 JUMPI ADD DUP2 PUSH1 0x1F DUP3 ADD SLT ISZERO PUSH2 0x223 JUMPI DUP1 MLOAD SWAP4 DUP5 GT PUSH2 0x135D JUMPI DUP4 PUSH1 0x5 SHL SWAP1 PUSH1 0x40 MLOAD SWAP5 PUSH2 0x1AA4 DUP6 DUP5 ADD DUP8 PUSH2 0x16BF JUMP JUMPDEST DUP6 MSTORE DUP4 DUP1 DUP7 ADD SWAP3 DUP3 ADD ADD SWAP3 DUP4 GT PUSH2 0x223 JUMPI DUP4 ADD SWAP1 JUMPDEST DUP3 DUP3 LT PUSH2 0x1AC7 JUMPI POP POP POP POP SWAP1 JUMP JUMPDEST DUP4 DUP1 SWAP2 PUSH2 0x1AD3 DUP5 PUSH2 0x1904 JUMP JUMPDEST DUP2 MSTORE ADD SWAP2 ADD SWAP1 PUSH2 0x1AB9 JUMP JUMPDEST DUP1 MLOAD DUP3 LT ISZERO PUSH2 0x1AF2 JUMPI PUSH1 0x20 SWAP2 PUSH1 0x5 SHL ADD ADD SWAP1 JUMP JUMPDEST PUSH4 0x4E487B71 PUSH1 0xE0 SHL PUSH1 0x0 MSTORE PUSH1 0x32 PUSH1 0x4 MSTORE PUSH1 0x24 PUSH1 0x0 REVERT JUMPDEST PUSH1 0x40 MLOAD SWAP1 PUSH2 0x1B15 DUP3 PUSH2 0x16A3 JUMP JUMPDEST PUSH1 0xF DUP3 MSTORE PUSH15 0x657865637574696F6E2D636865636B PUSH1 0x88 SHL PUSH1 0x20 DUP4 ADD MSTORE JUMP JUMPDEST PUSH1 0x1 DUP1 PUSH1 0xA0 SHL SUB PUSH1 0x0 SWAP2 DUP2 DUP4 SLOAD AND SWAP2 PUSH1 0x24 DUP5 PUSH1 0x40 SWAP5 DUP6 MLOAD SWAP3 DUP4 DUP1 SWAP3 PUSH4 0x18FEEB15 PUSH1 0xE3 SHL DUP3 MSTORE DUP8 PUSH1 0x4 DUP4 ADD MSTORE GAS STATICCALL SWAP1 DUP2 ISZERO PUSH2 0x1F97 JUMPI DUP6 SWAP2 PUSH2 0x1F7D JUMPI JUMPDEST POP PUSH2 0x160 DUP2 ADD MLOAD DUP1 MLOAD SWAP1 PUSH1 0x20 SWAP2 PUSH32 0x64209FE56A5BA1791FAC474C27DC1B9A6A4977F861D5D2396F722FCF844BE9F DUP4 DUP4 ADD SWAP2 DUP3 KECCAK256 PUSH12 0x1D1C99585CDD5C9E4B5BDD5D PUSH1 0xA2 SHL DUP6 DUP11 MLOAD PUSH2 0x1BBE DUP2 PUSH2 0x16A3 JUMP JUMPDEST PUSH1 0xC DUP2 MSTORE ADD MSTORE SUB PUSH2 0x1C20 JUMPI POP POP POP POP PUSH1 0x2 SLOAD AND SWAP1 DUP2 EXTCODESIZE ISZERO PUSH2 0x1C1C JUMPI DUP4 SWAP2 PUSH1 0x24 DUP4 SWAP3 DUP6 MLOAD SWAP7 DUP8 SWAP4 DUP5 SWAP3 PUSH4 0x21814F9 PUSH1 0xE4 SHL DUP5 MSTORE PUSH1 0x4 DUP5 ADD MSTORE GAS CALL SWAP2 DUP3 ISZERO PUSH2 0x1C12 JUMPI POP POP PUSH2 0x1C07 JUMPI POP JUMP JUMPDEST PUSH2 0x1C10 SWAP1 PUSH2 0x1672 JUMP JUMPDEST JUMP JUMPDEST MLOAD SWAP1 RETURNDATASIZE SWAP1 DUP3 RETURNDATACOPY RETURNDATASIZE SWAP1 REVERT JUMPDEST DUP4 DUP1 REVERT JUMPDEST PUSH32 0x407AA5060640B5B11BD7A646D2A67DB16D0D8062F0162EE0107D6C4DF9647D0B DUP3 MLOAD DUP3 KECCAK256 PUSH11 0x3A3932B0B9BAB93C96B4B7 PUSH1 0xA9 SHL DUP6 DUP11 MLOAD PUSH2 0x1C60 DUP2 PUSH2 0x16A3 JUMP JUMPDEST PUSH1 0xB DUP2 MSTORE ADD MSTORE SUB PUSH2 0x1CA9 JUMPI POP POP POP POP PUSH1 0x2 SLOAD AND SWAP1 DUP2 EXTCODESIZE ISZERO PUSH2 0x1C1C JUMPI DUP4 SWAP2 PUSH1 0x24 DUP4 SWAP3 DUP6 MLOAD SWAP7 DUP8 SWAP4 DUP5 SWAP3 PUSH4 0x7026E9FD PUSH1 0xE0 SHL DUP5 MSTORE PUSH1 0x4 DUP5 ADD MSTORE GAS CALL SWAP2 DUP3 ISZERO PUSH2 0x1C12 JUMPI POP POP PUSH2 0x1C07 JUMPI POP JUMP JUMPDEST PUSH32 0x3263CAE112F9B06C4FE976E1E563A8899E0058ACAD03A56562786E4496D29F6B SWAP2 MLOAD SWAP1 KECCAK256 PUSH11 0x72756C652D6368616E6765 PUSH1 0xA8 SHL DUP4 DUP9 MLOAD PUSH2 0x1CE9 DUP2 PUSH2 0x16A3 JUMP JUMPDEST PUSH1 0xB DUP2 MSTORE ADD MSTORE EQ PUSH2 0x1CFD JUMPI JUMPDEST POP POP POP POP POP POP JUMP JUMPDEST DUP2 MLOAD DUP1 MLOAD SWAP1 PUSH32 0x8D7CBFF25736090EF6444F570EE8941E761E0637E76A2B77E283FF85EC26489D DUP4 DUP3 ADD SWAP3 DUP4 KECCAK256 PUSH12 0x706173734372697465726961 PUSH1 0xA0 SHL DUP6 DUP11 MLOAD PUSH2 0x1D45 DUP2 PUSH2 0x16A3 JUMP JUMPDEST PUSH1 0xC DUP2 MSTORE ADD MSTORE SUB PUSH2 0x1DAD JUMPI POP POP POP PUSH2 0x1A0 ADD MLOAD PUSH1 0x3 SSTORE JUMPDEST PUSH1 0x2 SLOAD AND SWAP1 DUP2 EXTCODESIZE ISZERO PUSH2 0x1C1C JUMPI DUP4 SWAP2 PUSH1 0x24 DUP4 SWAP3 DUP6 MLOAD SWAP7 DUP8 SWAP4 DUP5 SWAP3 PUSH4 0x6F0D949D PUSH1 0xE1 SHL DUP5 MSTORE PUSH1 0x4 DUP5 ADD MSTORE GAS CALL SWAP2 DUP3 ISZERO PUSH2 0x1C12 JUMPI POP POP PUSH2 0x1D9E JUMPI JUMPDEST DUP1 DUP1 DUP1 DUP1 DUP1 PUSH2 0x1CF5 JUMP JUMPDEST PUSH2 0x1DA7 SWAP1 PUSH2 0x1672 JUMP JUMPDEST CODESIZE PUSH2 0x1D94 JUMP JUMPDEST PUSH32 0xABBFAB0BF365E6C544C4BDC8C27846B398EF85DEEB99659A1BD1CBBFDDBC69A1 DUP2 MLOAD DUP4 KECCAK256 PUSH14 0x3B37BA34B733A23AB930BA34B7B7 PUSH1 0x91 SHL DUP6 DUP11 MLOAD PUSH2 0x1DF0 DUP2 PUSH2 0x16A3 JUMP JUMPDEST PUSH1 0xE DUP2 MSTORE ADD MSTORE SUB PUSH2 0x1E0B JUMPI POP POP POP PUSH2 0x1A0 ADD MLOAD PUSH1 0x4 SSTORE PUSH2 0x1D5C JUMP JUMPDEST PUSH32 0x5B1A74CA49FC06542EF79783AA6DB8771703259F73767276192F168BBDFAF8CB DUP2 MLOAD DUP4 KECCAK256 PUSH13 0x616273656E7450656E616C7479 PUSH1 0x98 SHL DUP6 DUP11 MLOAD PUSH2 0x1E4D DUP2 PUSH2 0x16A3 JUMP JUMPDEST PUSH1 0xD DUP2 MSTORE ADD MSTORE SUB PUSH2 0x1E68 JUMPI POP POP POP PUSH2 0x1A0 ADD MLOAD PUSH1 0x5 SSTORE PUSH2 0x1D5C JUMP JUMPDEST PUSH32 0x343F1CEE2704E73B1859BB1BDD73F8FCE853B1F06EA40BD99F16C5C103E91318 DUP2 MLOAD DUP4 KECCAK256 PUSH8 0x656E747279466565 PUSH1 0xC0 SHL DUP6 DUP11 MLOAD PUSH2 0x1EA5 DUP2 PUSH2 0x16A3 JUMP JUMPDEST PUSH1 0x8 DUP2 MSTORE ADD MSTORE SUB PUSH2 0x1EC0 JUMPI POP POP POP PUSH2 0x1A0 ADD MLOAD PUSH1 0x8 SSTORE PUSH2 0x1D5C JUMP JUMPDEST PUSH32 0x806B2CE9432A34CFC9FDAB6B94DB5BFCFDD69B0EAA656D83BEA17439BEBE142D DUP2 MLOAD DUP4 KECCAK256 PUSH12 0x18DBDD5B9D151BD15E1C195B PUSH1 0xA2 SHL DUP6 DUP11 MLOAD PUSH2 0x1F01 DUP2 PUSH2 0x16A3 JUMP JUMPDEST PUSH1 0xC DUP2 MSTORE ADD MSTORE SUB PUSH2 0x1F1C JUMPI POP POP POP PUSH2 0x1A0 ADD MLOAD PUSH1 0x6 SSTORE PUSH2 0x1D5C JUMP JUMPDEST MLOAD SWAP1 KECCAK256 DUP6 MLOAD PUSH32 0x7433394719DFD8FCF3F7EF7662D3D256FF5523945834C1C05AAD0D14D49B75B4 SWAP3 PUSH12 0x1CD8DBDC99551BD15E1C195B PUSH1 0xA2 SHL SWAP2 PUSH2 0x1F5D DUP2 PUSH2 0x16A3 JUMP JUMPDEST PUSH1 0xC DUP2 MSTORE ADD MSTORE EQ PUSH2 0x1F6F JUMPI JUMPDEST POP PUSH2 0x1D5C JUMP JUMPDEST PUSH2 0x1A0 ADD MLOAD PUSH1 0x7 SSTORE CODESIZE PUSH2 0x1F69 JUMP JUMPDEST PUSH2 0x1F91 SWAP2 POP RETURNDATASIZE DUP1 DUP8 DUP4 RETURNDATACOPY PUSH2 0x142A DUP2 DUP4 PUSH2 0x16BF JUMP JUMPDEST CODESIZE PUSH2 0x1B6E JUMP JUMPDEST DUP5 MLOAD RETURNDATASIZE DUP8 DUP3 RETURNDATACOPY RETURNDATASIZE SWAP1 REVERT INVALID LOG2 PUSH5 0x6970667358 0x22 SLT KECCAK256 EXP SLOAD SWAP8 0xE1 0x28 PUSH14 0x87ABC62FBA1F076D3FB53A98C8B4 ADD 0xDF 0x29 0xC9 RETURN 0xAA 0xEF SWAP10 SWAP14 AND CREATE EQ PUSH5 0x736F6C6343 STOP ADDMOD EQ STOP CALLER "},"methodIdentifiers":{"absentPenalty()":"bdf91db5","adminSubGlassScore(address,uint256)":"57cce7d4","countToExpel()":"9f1f43af","createProposal(string,string,uint256,address,bool,string,uint256,uint256,address)":"bc2914b5","entryFee()":"072ea61c","executionContract()":"e0e93244","finalizeProposal(uint256)":"5652077c","getAllMembers()":"7c0f6b35","getMemberCount()":"997072f7","getTreasuryBalance()":"9b5655dc","isMember(address)":"a230c524","joinDAO()":"f63d13d7","passCriteria()":"0fd2e6f9","proposalContract()":"3aef3900","proposalDeadline(uint256)":"c01f9e37","proposalExecuted(uint256)":"103616e8","scoreToExpel()":"52bc9e82","vaultContract()":"2274346b","vote(uint256,uint8)":"943e8216","votingDuration()":"132002fc"}}}}}