{"contracts/Execution.sol":{"Execution":{"abi":[{"inputs":[{"internalType":"address","name":"_proposal","type":"address"},{"internalType":"address","name":"_vault","type":"address"}],"stateMutability":"nonpayable","type":"constructor"},{"anonymous":false,"inputs":[{"indexed":true,"internalType":"uint256","name":"proposalId","type":"uint256"}],"name":"ProposalExecuted","type":"event"},{"anonymous":false,"inputs":[{"indexed":false,"internalType":"string","name":"rule","type":"string"},{"indexed":false,"internalType":"uint256","name":"beforeValue","type":"uint256"},{"indexed":false,"internalType":"uint256","name":"afterValue","type":"uint256"}],"name":"RuleChanged","type":"event"},{"inputs":[],"name":"daoAddress","outputs":[{"internalType":"address","name":"","type":"address"}],"stateMutability":"view","type":"function"},{"inputs":[{"internalType":"uint256","name":"proposalId","type":"uint256"}],"name":"executeDeposit","outputs":[],"stateMutability":"nonpayable","type":"function"},{"inputs":[{"internalType":"uint256","name":"proposalId","type":"uint256"}],"name":"executePayout","outputs":[],"stateMutability":"nonpayable","type":"function"},{"inputs":[{"internalType":"uint256","name":"proposalId","type":"uint256"}],"name":"executeRuleChange","outputs":[],"stateMutability":"nonpayable","type":"function"},{"inputs":[],"name":"proposalContract","outputs":[{"internalType":"contract Proposal","name":"","type":"address"}],"stateMutability":"view","type":"function"},{"inputs":[{"internalType":"address","name":"_dao","type":"address"}],"name":"setDaoAddress","outputs":[],"stateMutability":"nonpayable","type":"function"},{"inputs":[],"name":"vaultContract","outputs":[{"internalType":"contract Vault","name":"","type":"address"}],"stateMutability":"view","type":"function"}],"evm":{"bytecode":{"linkReferences":{},"object":"60803461008d57601f61086f38819003918201601f19168301916001600160401b0383118484101761009257808492604094855283398101031261008d57610052602061004b836100a8565b92016100a8565b600080546001600160a01b039384166001600160a01b031991821617909155600180549290931691161790556040516107b290816100bd8239f35b600080fd5b634e487b7160e01b600052604160045260246000fd5b51906001600160a01b038216820361008d5756fe608060408181526004908136101561001657600080fd5b600092833560e01c9081632131c68c146104ea5750806321814f90146103515780632274346b146103285780633aef390014610300578381637026e9fd1461024f575080639a3cac6a146101c15763de1b293a1461007357600080fd5b34610181576020366003190112610181578282359260018060a01b0361009e8160025416331461050f565b825416908351946318feeb1560e31b865280828701528386602481865afa9586156101b7578496610193575b50823b1561018f576044849283875195869485936332fa518560e21b8552840152600360248401525af180156101855761016d575b50506080827f0c607c5751c330dfb1b02e97a8c6b40995b7c37f1247cb3ba0baa9308f3747ff93516101a061018083015192015184519485936060855261015584518095816060890152602089890191016105a7565b6020850152830152601f01601f19168101030190a180f35b6101769061055b565b6101815782386100ff565b8280fd5b83513d84823e3d90fd5b8380fd5b6101b09196503d8086833e6101a88183610585565b810190610638565b94386100ca565b85513d86823e3d90fd5b5034610181576020366003190112610181576001600160a01b0382358181169391929084900361024b576002549283166102085750506001600160a01b0319161760025580f35b906020606492519162461bcd60e51b8352820152601a60248201527f44414f206164647265737320697320616c7265616479207365740000000000006044820152fd5b8480fd5b828185346102f35760203660031901126102f35780359260018060a01b0361027c8160025416331461050f565b83541691823b1561018f57846044859283855196879485936332fa518560e21b8552840152600360248401525af19081156102f757506102df575b50807f712ae1383f79ac853f8d882153778e0260ef8f03b504e2866e0593e04d2b291f91a280f35b6102e89061055b565b6102f35781836102b7565b5080fd5b513d84823e3d90fd5b8382346102f357816003193601126102f357905490516001600160a01b039091168152602090f35b8382346102f357816003193601126102f35760015490516001600160a01b039091168152602090f35b5090346101815760203660031901126101815780359160018060a01b0361037d8160025416331461050f565b602485828154168451928380926318feeb1560e31b825289898301525afa90811561048c5786916104d0575b50816001541690813190848101918251116104965760600151905187918416833b1561018157604490838751958694859363a9059cbb60e01b85528b85015260248401525af1801561048c57610475575b509084929183541691823b1561018f57846044859283855196879485936332fa518560e21b8552840152600360248401525af19081156102f757506104615750807f712ae1383f79ac853f8d882153778e0260ef8f03b504e2866e0593e04d2b291f91a280f35b61046a9061055b565b6102f35781386102b7565b61048390959193929561055b565b939091386103fa565b83513d88823e3d90fd5b845162461bcd60e51b81526020818801526014602482015273496e73756666696369656e742062616c616e636560601b6044820152606490fd5b6104e491503d8088833e6101a88183610585565b386103a9565b8490346102f357816003193601126102f3576002546001600160a01b03168152602090f35b1561051657565b60405162461bcd60e51b815260206004820152601f60248201527f4f6e6c792044414f2063616e2063616c6c20746869732066756e6374696f6e006044820152606490fd5b67ffffffffffffffff811161056f57604052565b634e487b7160e01b600052604160045260246000fd5b90601f8019910116810190811067ffffffffffffffff82111761056f57604052565b60005b8381106105ba5750506000910152565b81810151838201526020016105aa565b81601f8201121561061f57805167ffffffffffffffff811161056f57604051926105fe601f8301601f191660200185610585565b8184526020828401011161061f5761061c91602080850191016105a7565b90565b600080fd5b51906001600160a01b038216820361061f57565b9060208282031261061f57815167ffffffffffffffff9283821161061f5701906101e092838383031261061f576040519384018481108282111761056f57604052825181811161061f578261068e9185016105ca565b8452602083015181811161061f57826106a89185016105ca565b60208501526040838101519085015260608301516001600160a01b038116810361061f5760608501526080830151600481101561061f57608085015260a083015160a085015260c083015160c085015260e083015160e0850152610100808401519085015261012061071b818501610624565b908501526101408084015190811515820361061f57850152610160918284015191821161061f5761074d9184016105ca565b9083015261018080820151908301526101a080820151908301526107756101c0809201610624565b908201529056fea264697066735822122077fa1c6fffdf835d4b7ebfe90bdf33d84f4b99c6ea1a9c73da3ee27726e9271564736f6c63430008140033","opcodes":"PUSH1 0x80 CALLVALUE PUSH2 0x8D JUMPI PUSH1 0x1F PUSH2 0x86F CODESIZE DUP2 SWAP1 SUB SWAP2 DUP3 ADD PUSH1 0x1F NOT AND DUP4 ADD SWAP2 PUSH1 0x1 PUSH1 0x1 PUSH1 0x40 SHL SUB DUP4 GT DUP5 DUP5 LT OR PUSH2 0x92 JUMPI DUP1 DUP5 SWAP3 PUSH1 0x40 SWAP5 DUP6 MSTORE DUP4 CODECOPY DUP2 ADD SUB SLT PUSH2 0x8D JUMPI PUSH2 0x52 PUSH1 0x20 PUSH2 0x4B DUP4 PUSH2 0xA8 JUMP JUMPDEST SWAP3 ADD PUSH2 0xA8 JUMP JUMPDEST PUSH1 0x0 DUP1 SLOAD PUSH1 0x1 PUSH1 0x1 PUSH1 0xA0 SHL SUB SWAP4 DUP5 AND PUSH1 0x1 PUSH1 0x1 PUSH1 0xA0 SHL SUB NOT SWAP2 DUP3 AND OR SWAP1 SWAP2 SSTORE PUSH1 0x1 DUP1 SLOAD SWAP3 SWAP1 SWAP4 AND SWAP2 AND OR SWAP1 SSTORE PUSH1 0x40 MLOAD PUSH2 0x7B2 SWAP1 DUP2 PUSH2 0xBD DUP3 CODECOPY RETURN JUMPDEST PUSH1 0x0 DUP1 REVERT JUMPDEST PUSH4 0x4E487B71 PUSH1 0xE0 SHL PUSH1 0x0 MSTORE PUSH1 0x41 PUSH1 0x4 MSTORE PUSH1 0x24 PUSH1 0x0 REVERT JUMPDEST MLOAD SWAP1 PUSH1 0x1 PUSH1 0x1 PUSH1 0xA0 SHL SUB DUP3 AND DUP3 SUB PUSH2 0x8D JUMPI JUMP INVALID PUSH1 0x80 PUSH1 0x40 DUP2 DUP2 MSTORE PUSH1 0x4 SWAP1 DUP2 CALLDATASIZE LT ISZERO PUSH2 0x16 JUMPI PUSH1 0x0 DUP1 REVERT JUMPDEST PUSH1 0x0 SWAP3 DUP4 CALLDATALOAD PUSH1 0xE0 SHR SWAP1 DUP2 PUSH4 0x2131C68C EQ PUSH2 0x4EA JUMPI POP DUP1 PUSH4 0x21814F90 EQ PUSH2 0x351 JUMPI DUP1 PUSH4 0x2274346B EQ PUSH2 0x328 JUMPI DUP1 PUSH4 0x3AEF3900 EQ PUSH2 0x300 JUMPI DUP4 DUP2 PUSH4 0x7026E9FD EQ PUSH2 0x24F JUMPI POP DUP1 PUSH4 0x9A3CAC6A EQ PUSH2 0x1C1 JUMPI PUSH4 0xDE1B293A EQ PUSH2 0x73 JUMPI PUSH1 0x0 DUP1 REVERT JUMPDEST CALLVALUE PUSH2 0x181 JUMPI PUSH1 0x20 CALLDATASIZE PUSH1 0x3 NOT ADD SLT PUSH2 0x181 JUMPI DUP3 DUP3 CALLDATALOAD SWAP3 PUSH1 0x1 DUP1 PUSH1 0xA0 SHL SUB PUSH2 0x9E DUP2 PUSH1 0x2 SLOAD AND CALLER EQ PUSH2 0x50F JUMP JUMPDEST DUP3 SLOAD AND SWAP1 DUP4 MLOAD SWAP5 PUSH4 0x18FEEB15 PUSH1 0xE3 SHL DUP7 MSTORE DUP1 DUP3 DUP8 ADD MSTORE DUP4 DUP7 PUSH1 0x24 DUP2 DUP7 GAS STATICCALL SWAP6 DUP7 ISZERO PUSH2 0x1B7 JUMPI DUP5 SWAP7 PUSH2 0x193 JUMPI JUMPDEST POP DUP3 EXTCODESIZE ISZERO PUSH2 0x18F JUMPI PUSH1 0x44 DUP5 SWAP3 DUP4 DUP8 MLOAD SWAP6 DUP7 SWAP5 DUP6 SWAP4 PUSH4 0x32FA5185 PUSH1 0xE2 SHL DUP6 MSTORE DUP5 ADD MSTORE PUSH1 0x3 PUSH1 0x24 DUP5 ADD MSTORE GAS CALL DUP1 ISZERO PUSH2 0x185 JUMPI PUSH2 0x16D JUMPI JUMPDEST POP POP PUSH1 0x80 DUP3 PUSH32 0xC607C5751C330DFB1B02E97A8C6B40995B7C37F1247CB3BA0BAA9308F3747FF SWAP4 MLOAD PUSH2 0x1A0 PUSH2 0x180 DUP4 ADD MLOAD SWAP3 ADD MLOAD DUP5 MLOAD SWAP5 DUP6 SWAP4 PUSH1 0x60 DUP6 MSTORE PUSH2 0x155 DUP5 MLOAD DUP1 SWAP6 DUP2 PUSH1 0x60 DUP10 ADD MSTORE PUSH1 0x20 DUP10 DUP10 ADD SWAP2 ADD PUSH2 0x5A7 JUMP JUMPDEST PUSH1 0x20 DUP6 ADD MSTORE DUP4 ADD MSTORE PUSH1 0x1F ADD PUSH1 0x1F NOT AND DUP2 ADD SUB ADD SWAP1 LOG1 DUP1 RETURN JUMPDEST PUSH2 0x176 SWAP1 PUSH2 0x55B JUMP JUMPDEST PUSH2 0x181 JUMPI DUP3 CODESIZE PUSH2 0xFF JUMP JUMPDEST DUP3 DUP1 REVERT JUMPDEST DUP4 MLOAD RETURNDATASIZE DUP5 DUP3 RETURNDATACOPY RETURNDATASIZE SWAP1 REVERT JUMPDEST DUP4 DUP1 REVERT JUMPDEST PUSH2 0x1B0 SWAP2 SWAP7 POP RETURNDATASIZE DUP1 DUP7 DUP4 RETURNDATACOPY PUSH2 0x1A8 DUP2 DUP4 PUSH2 0x585 JUMP JUMPDEST DUP2 ADD SWAP1 PUSH2 0x638 JUMP JUMPDEST SWAP5 CODESIZE PUSH2 0xCA JUMP JUMPDEST DUP6 MLOAD RETURNDATASIZE DUP7 DUP3 RETURNDATACOPY RETURNDATASIZE SWAP1 REVERT JUMPDEST POP CALLVALUE PUSH2 0x181 JUMPI PUSH1 0x20 CALLDATASIZE PUSH1 0x3 NOT ADD SLT PUSH2 0x181 JUMPI PUSH1 0x1 PUSH1 0x1 PUSH1 0xA0 SHL SUB DUP3 CALLDATALOAD DUP2 DUP2 AND SWAP4 SWAP2 SWAP3 SWAP1 DUP5 SWAP1 SUB PUSH2 0x24B JUMPI PUSH1 0x2 SLOAD SWAP3 DUP4 AND PUSH2 0x208 JUMPI POP POP PUSH1 0x1 PUSH1 0x1 PUSH1 0xA0 SHL SUB NOT AND OR PUSH1 0x2 SSTORE DUP1 RETURN JUMPDEST SWAP1 PUSH1 0x20 PUSH1 0x64 SWAP3 MLOAD SWAP2 PUSH3 0x461BCD PUSH1 0xE5 SHL DUP4 MSTORE DUP3 ADD MSTORE PUSH1 0x1A PUSH1 0x24 DUP3 ADD MSTORE PUSH32 0x44414F206164647265737320697320616C726561647920736574000000000000 PUSH1 0x44 DUP3 ADD MSTORE REVERT JUMPDEST DUP5 DUP1 REVERT JUMPDEST DUP3 DUP2 DUP6 CALLVALUE PUSH2 0x2F3 JUMPI PUSH1 0x20 CALLDATASIZE PUSH1 0x3 NOT ADD SLT PUSH2 0x2F3 JUMPI DUP1 CALLDATALOAD SWAP3 PUSH1 0x1 DUP1 PUSH1 0xA0 SHL SUB PUSH2 0x27C DUP2 PUSH1 0x2 SLOAD AND CALLER EQ PUSH2 0x50F JUMP JUMPDEST DUP4 SLOAD AND SWAP2 DUP3 EXTCODESIZE ISZERO PUSH2 0x18F JUMPI DUP5 PUSH1 0x44 DUP6 SWAP3 DUP4 DUP6 MLOAD SWAP7 DUP8 SWAP5 DUP6 SWAP4 PUSH4 0x32FA5185 PUSH1 0xE2 SHL DUP6 MSTORE DUP5 ADD MSTORE PUSH1 0x3 PUSH1 0x24 DUP5 ADD MSTORE GAS CALL SWAP1 DUP2 ISZERO PUSH2 0x2F7 JUMPI POP PUSH2 0x2DF JUMPI JUMPDEST POP DUP1 PUSH32 0x712AE1383F79AC853F8D882153778E0260EF8F03B504E2866E0593E04D2B291F SWAP2 LOG2 DUP1 RETURN JUMPDEST PUSH2 0x2E8 SWAP1 PUSH2 0x55B JUMP JUMPDEST PUSH2 0x2F3 JUMPI DUP2 DUP4 PUSH2 0x2B7 JUMP JUMPDEST POP DUP1 REVERT JUMPDEST MLOAD RETURNDATASIZE DUP5 DUP3 RETURNDATACOPY RETURNDATASIZE SWAP1 REVERT JUMPDEST DUP4 DUP3 CALLVALUE PUSH2 0x2F3 JUMPI DUP2 PUSH1 0x3 NOT CALLDATASIZE ADD SLT PUSH2 0x2F3 JUMPI SWAP1 SLOAD SWAP1 MLOAD PUSH1 0x1 PUSH1 0x1 PUSH1 0xA0 SHL SUB SWAP1 SWAP2 AND DUP2 MSTORE PUSH1 0x20 SWAP1 RETURN JUMPDEST DUP4 DUP3 CALLVALUE PUSH2 0x2F3 JUMPI DUP2 PUSH1 0x3 NOT CALLDATASIZE ADD SLT PUSH2 0x2F3 JUMPI PUSH1 0x1 SLOAD SWAP1 MLOAD PUSH1 0x1 PUSH1 0x1 PUSH1 0xA0 SHL SUB SWAP1 SWAP2 AND DUP2 MSTORE PUSH1 0x20 SWAP1 RETURN JUMPDEST POP SWAP1 CALLVALUE PUSH2 0x181 JUMPI PUSH1 0x20 CALLDATASIZE PUSH1 0x3 NOT ADD SLT PUSH2 0x181 JUMPI DUP1 CALLDATALOAD SWAP2 PUSH1 0x1 DUP1 PUSH1 0xA0 SHL SUB PUSH2 0x37D DUP2 PUSH1 0x2 SLOAD AND CALLER EQ PUSH2 0x50F JUMP JUMPDEST PUSH1 0x24 DUP6 DUP3 DUP2 SLOAD AND DUP5 MLOAD SWAP3 DUP4 DUP1 SWAP3 PUSH4 0x18FEEB15 PUSH1 0xE3 SHL DUP3 MSTORE DUP10 DUP10 DUP4 ADD MSTORE GAS STATICCALL SWAP1 DUP2 ISZERO PUSH2 0x48C JUMPI DUP7 SWAP2 PUSH2 0x4D0 JUMPI JUMPDEST POP DUP2 PUSH1 0x1 SLOAD AND SWAP1 DUP2 BALANCE SWAP1 DUP5 DUP2 ADD SWAP2 DUP3 MLOAD GT PUSH2 0x496 JUMPI PUSH1 0x60 ADD MLOAD SWAP1 MLOAD DUP8 SWAP2 DUP5 AND DUP4 EXTCODESIZE ISZERO PUSH2 0x181 JUMPI PUSH1 0x44 SWAP1 DUP4 DUP8 MLOAD SWAP6 DUP7 SWAP5 DUP6 SWAP4 PUSH4 0xA9059CBB PUSH1 0xE0 SHL DUP6 MSTORE DUP12 DUP6 ADD MSTORE PUSH1 0x24 DUP5 ADD MSTORE GAS CALL DUP1 ISZERO PUSH2 0x48C JUMPI PUSH2 0x475 JUMPI JUMPDEST POP SWAP1 DUP5 SWAP3 SWAP2 DUP4 SLOAD AND SWAP2 DUP3 EXTCODESIZE ISZERO PUSH2 0x18F JUMPI DUP5 PUSH1 0x44 DUP6 SWAP3 DUP4 DUP6 MLOAD SWAP7 DUP8 SWAP5 DUP6 SWAP4 PUSH4 0x32FA5185 PUSH1 0xE2 SHL DUP6 MSTORE DUP5 ADD MSTORE PUSH1 0x3 PUSH1 0x24 DUP5 ADD MSTORE GAS CALL SWAP1 DUP2 ISZERO PUSH2 0x2F7 JUMPI POP PUSH2 0x461 JUMPI POP DUP1 PUSH32 0x712AE1383F79AC853F8D882153778E0260EF8F03B504E2866E0593E04D2B291F SWAP2 LOG2 DUP1 RETURN JUMPDEST PUSH2 0x46A SWAP1 PUSH2 0x55B JUMP JUMPDEST PUSH2 0x2F3 JUMPI DUP2 CODESIZE PUSH2 0x2B7 JUMP JUMPDEST PUSH2 0x483 SWAP1 SWAP6 SWAP2 SWAP4 SWAP3 SWAP6 PUSH2 0x55B JUMP JUMPDEST SWAP4 SWAP1 SWAP2 CODESIZE PUSH2 0x3FA JUMP JUMPDEST DUP4 MLOAD RETURNDATASIZE DUP9 DUP3 RETURNDATACOPY RETURNDATASIZE SWAP1 REVERT JUMPDEST DUP5 MLOAD PUSH3 0x461BCD PUSH1 0xE5 SHL DUP2 MSTORE PUSH1 0x20 DUP2 DUP9 ADD MSTORE PUSH1 0x14 PUSH1 0x24 DUP3 ADD MSTORE PUSH20 0x496E73756666696369656E742062616C616E6365 PUSH1 0x60 SHL PUSH1 0x44 DUP3 ADD MSTORE PUSH1 0x64 SWAP1 REVERT JUMPDEST PUSH2 0x4E4 SWAP2 POP RETURNDATASIZE DUP1 DUP9 DUP4 RETURNDATACOPY PUSH2 0x1A8 DUP2 DUP4 PUSH2 0x585 JUMP JUMPDEST CODESIZE PUSH2 0x3A9 JUMP JUMPDEST DUP5 SWAP1 CALLVALUE PUSH2 0x2F3 JUMPI DUP2 PUSH1 0x3 NOT CALLDATASIZE ADD SLT PUSH2 0x2F3 JUMPI PUSH1 0x2 SLOAD PUSH1 0x1 PUSH1 0x1 PUSH1 0xA0 SHL SUB AND DUP2 MSTORE PUSH1 0x20 SWAP1 RETURN JUMPDEST ISZERO PUSH2 0x516 JUMPI JUMP JUMPDEST PUSH1 0x40 MLOAD PUSH3 0x461BCD PUSH1 0xE5 SHL DUP2 MSTORE PUSH1 0x20 PUSH1 0x4 DUP3 ADD MSTORE PUSH1 0x1F PUSH1 0x24 DUP3 ADD MSTORE PUSH32 0x4F6E6C792044414F2063616E2063616C6C20746869732066756E6374696F6E00 PUSH1 0x44 DUP3 ADD MSTORE PUSH1 0x64 SWAP1 REVERT JUMPDEST PUSH8 0xFFFFFFFFFFFFFFFF DUP2 GT PUSH2 0x56F JUMPI PUSH1 0x40 MSTORE JUMP JUMPDEST PUSH4 0x4E487B71 PUSH1 0xE0 SHL PUSH1 0x0 MSTORE PUSH1 0x41 PUSH1 0x4 MSTORE PUSH1 0x24 PUSH1 0x0 REVERT JUMPDEST SWAP1 PUSH1 0x1F DUP1 NOT SWAP2 ADD AND DUP2 ADD SWAP1 DUP2 LT PUSH8 0xFFFFFFFFFFFFFFFF DUP3 GT OR PUSH2 0x56F JUMPI PUSH1 0x40 MSTORE JUMP JUMPDEST PUSH1 0x0 JUMPDEST DUP4 DUP2 LT PUSH2 0x5BA JUMPI POP POP PUSH1 0x0 SWAP2 ADD MSTORE JUMP JUMPDEST DUP2 DUP2 ADD MLOAD DUP4 DUP3 ADD MSTORE PUSH1 0x20 ADD PUSH2 0x5AA JUMP JUMPDEST DUP2 PUSH1 0x1F DUP3 ADD SLT ISZERO PUSH2 0x61F JUMPI DUP1 MLOAD PUSH8 0xFFFFFFFFFFFFFFFF DUP2 GT PUSH2 0x56F JUMPI PUSH1 0x40 MLOAD SWAP3 PUSH2 0x5FE PUSH1 0x1F DUP4 ADD PUSH1 0x1F NOT AND PUSH1 0x20 ADD DUP6 PUSH2 0x585 JUMP JUMPDEST DUP2 DUP5 MSTORE PUSH1 0x20 DUP3 DUP5 ADD ADD GT PUSH2 0x61F JUMPI PUSH2 0x61C SWAP2 PUSH1 0x20 DUP1 DUP6 ADD SWAP2 ADD PUSH2 0x5A7 JUMP JUMPDEST SWAP1 JUMP JUMPDEST PUSH1 0x0 DUP1 REVERT JUMPDEST MLOAD SWAP1 PUSH1 0x1 PUSH1 0x1 PUSH1 0xA0 SHL SUB DUP3 AND DUP3 SUB PUSH2 0x61F JUMPI JUMP JUMPDEST SWAP1 PUSH1 0x20 DUP3 DUP3 SUB SLT PUSH2 0x61F JUMPI DUP2 MLOAD PUSH8 0xFFFFFFFFFFFFFFFF SWAP3 DUP4 DUP3 GT PUSH2 0x61F JUMPI ADD SWAP1 PUSH2 0x1E0 SWAP3 DUP4 DUP4 DUP4 SUB SLT PUSH2 0x61F JUMPI PUSH1 0x40 MLOAD SWAP4 DUP5 ADD DUP5 DUP2 LT DUP3 DUP3 GT OR PUSH2 0x56F JUMPI PUSH1 0x40 MSTORE DUP3 MLOAD DUP2 DUP2 GT PUSH2 0x61F JUMPI DUP3 PUSH2 0x68E SWAP2 DUP6 ADD PUSH2 0x5CA JUMP JUMPDEST DUP5 MSTORE PUSH1 0x20 DUP4 ADD MLOAD DUP2 DUP2 GT PUSH2 0x61F JUMPI DUP3 PUSH2 0x6A8 SWAP2 DUP6 ADD PUSH2 0x5CA JUMP JUMPDEST PUSH1 0x20 DUP6 ADD MSTORE PUSH1 0x40 DUP4 DUP2 ADD MLOAD SWAP1 DUP6 ADD MSTORE PUSH1 0x60 DUP4 ADD MLOAD PUSH1 0x1 PUSH1 0x1 PUSH1 0xA0 SHL SUB DUP2 AND DUP2 SUB PUSH2 0x61F JUMPI PUSH1 0x60 DUP6 ADD MSTORE PUSH1 0x80 DUP4 ADD MLOAD PUSH1 0x4 DUP2 LT ISZERO PUSH2 0x61F JUMPI PUSH1 0x80 DUP6 ADD MSTORE PUSH1 0xA0 DUP4 ADD MLOAD PUSH1 0xA0 DUP6 ADD MSTORE PUSH1 0xC0 DUP4 ADD MLOAD PUSH1 0xC0 DUP6 ADD MSTORE PUSH1 0xE0 DUP4 ADD MLOAD PUSH1 0xE0 DUP6 ADD MSTORE PUSH2 0x100 DUP1 DUP5 ADD MLOAD SWAP1 DUP6 ADD MSTORE PUSH2 0x120 PUSH2 0x71B DUP2 DUP6 ADD PUSH2 0x624 JUMP JUMPDEST SWAP1 DUP6 ADD MSTORE PUSH2 0x140 DUP1 DUP5 ADD MLOAD SWAP1 DUP2 ISZERO ISZERO DUP3 SUB PUSH2 0x61F JUMPI DUP6 ADD MSTORE PUSH2 0x160 SWAP2 DUP3 DUP5 ADD MLOAD SWAP2 DUP3 GT PUSH2 0x61F JUMPI PUSH2 0x74D SWAP2 DUP5 ADD PUSH2 0x5CA JUMP JUMPDEST SWAP1 DUP4 ADD MSTORE PUSH2 0x180 DUP1 DUP3 ADD MLOAD SWAP1 DUP4 ADD MSTORE PUSH2 0x1A0 DUP1 DUP3 ADD MLOAD SWAP1 DUP4 ADD MSTORE PUSH2 0x775 PUSH2 0x1C0 DUP1 SWAP3 ADD PUSH2 0x624 JUMP JUMPDEST SWAP1 DUP3 ADD MSTORE SWAP1 JUMP INVALID LOG2 PUSH5 0x6970667358 0x22 SLT KECCAK256 PUSH24 0xFA1C6FFFDF835D4B7EBFE90BDF33D84F4B99C6EA1A9C73DA RETURNDATACOPY 0xE2 PUSH24 0x26E9271564736F6C63430008140033000000000000000000 "},"methodIdentifiers":{"daoAddress()":"2131c68c","executeDeposit(uint256)":"7026e9fd","executePayout(uint256)":"21814f90","executeRuleChange(uint256)":"de1b293a","proposalContract()":"3aef3900","setDaoAddress(address)":"9a3cac6a","vaultContract()":"2274346b"}}}}}