{"contracts/DAO.sol":{"DAO":{"abi":[{"inputs":[{"internalType":"address","name":"_proposal","type":"address"},{"internalType":"address","name":"_vault","type":"address"},{"internalType":"address","name":"_execution","type":"address"}],"stateMutability":"nonpayable","type":"constructor"},{"anonymous":false,"inputs":[{"indexed":true,"internalType":"uint256","name":"proposalId","type":"uint256"}],"name":"ProposalPassed","type":"event"},{"anonymous":false,"inputs":[{"indexed":true,"internalType":"uint256","name":"proposalId","type":"uint256"}],"name":"ProposalRejected","type":"event"},{"inputs":[],"name":"absentPenalty","outputs":[{"internalType":"uint256","name":"","type":"uint256"}],"stateMutability":"view","type":"function"},{"inputs":[{"internalType":"address","name":"member","type":"address"},{"internalType":"uint256","name":"amount","type":"uint256"}],"name":"adminSubGlassScore","outputs":[],"stateMutability":"nonpayable","type":"function"},{"inputs":[],"name":"countToExpel","outputs":[{"internalType":"uint256","name":"","type":"uint256"}],"stateMutability":"view","type":"function"},{"inputs":[{"internalType":"string","name":"title","type":"string"},{"internalType":"string","name":"description","type":"string"},{"internalType":"uint256","name":"amount","type":"uint256"},{"internalType":"address payable","name":"recipient","type":"address"},{"internalType":"bool","name":"requireVote","type":"bool"},{"internalType":"string","name":"sanctionType","type":"string"},{"internalType":"uint256","name":"beforeValue","type":"uint256"},{"internalType":"uint256","name":"afterValue","type":"uint256"},{"internalType":"address","name":"targetMember","type":"address"}],"name":"createProposal","outputs":[{"internalType":"uint256","name":"","type":"uint256"}],"stateMutability":"nonpayable","type":"function"},{"inputs":[],"name":"entryFee","outputs":[{"internalType":"uint256","name":"","type":"uint256"}],"stateMutability":"view","type":"function"},{"inputs":[],"name":"executionContract","outputs":[{"internalType":"contract Execution","name":"","type":"address"}],"stateMutability":"view","type":"function"},{"inputs":[{"internalType":"uint256","name":"proposalId","type":"uint256"}],"name":"finalizeProposal","outputs":[],"stateMutability":"nonpayable","type":"function"},{"inputs":[],"name":"getAllMembers","outputs":[{"internalType":"address[]","name":"","type":"address[]"}],"stateMutability":"view","type":"function"},{"inputs":[],"name":"getMemberCount","outputs":[{"internalType":"uint256","name":"","type":"uint256"}],"stateMutability":"view","type":"function"},{"inputs":[],"name":"getTreasuryBalance","outputs":[{"internalType":"uint256","name":"","type":"uint256"}],"stateMutability":"view","type":"function"},{"inputs":[],"name":"joinDAO","outputs":[],"stateMutability":"payable","type":"function"},{"inputs":[],"name":"passCriteria","outputs":[{"internalType":"uint256","name":"","type":"uint256"}],"stateMutability":"view","type":"function"},{"inputs":[],"name":"proposalContract","outputs":[{"internalType":"contract Proposal","name":"","type":"address"}],"stateMutability":"view","type":"function"},{"inputs":[{"internalType":"uint256","name":"","type":"uint256"}],"name":"proposalDeadline","outputs":[{"internalType":"uint256","name":"","type":"uint256"}],"stateMutability":"view","type":"function"},{"inputs":[{"internalType":"uint256","name":"","type":"uint256"}],"name":"proposalExecuted","outputs":[{"internalType":"bool","name":"","type":"bool"}],"stateMutability":"view","type":"function"},{"inputs":[],"name":"scoreToExpel","outputs":[{"internalType":"uint256","name":"","type":"uint256"}],"stateMutability":"view","type":"function"},{"inputs":[],"name":"vaultContract","outputs":[{"internalType":"contract Vault","name":"","type":"address"}],"stateMutability":"view","type":"function"},{"inputs":[{"internalType":"uint256","name":"proposalId","type":"uint256"},{"internalType":"uint8","name":"choice","type":"uint8"}],"name":"vote","outputs":[],"stateMutability":"nonpayable","type":"function"},{"inputs":[],"name":"votingDuration","outputs":[{"internalType":"uint256","name":"","type":"uint256"}],"stateMutability":"view","type":"function"},{"stateMutability":"payable","type":"receive"}],"evm":{"bytecode":{"linkReferences":{},"object":"608034620000d157601f62001fb638819003918201601f19168301916001600160401b03831184841017620000d657808492606094604052833981010312620000d1576200004d81620000ec565b906200006a60406200006260208401620000ec565b9201620000ec565b60326003556203f48060045566038d7ea4c6800060055560056006556014600755600060085560018060a01b0380928160018060a01b031995168560005416176000551683600154161760015516906002541617600255604051611eb49081620001028239f35b600080fd5b634e487b7160e01b600052604160045260246000fd5b51906001600160a01b0382168203620000d15756fe608080604052600436101561001d575b50361561001b57600080fd5b005b60003560e01c908163072ea61c14611506575080630fd2e6f9146114e8578063103616e8146114b7578063132002fc146114995780632274346b146114705780633aef39001461144757806352bc9e82146114295780635652077c14610b8957806357cce7d414610a275780637c0f6b351461097d578063943e8216146107f7578063997072f7146107a85780639b5655dc146107275780639f1f43af14610709578063bc2914b5146103dd578063bdf91db5146103bf578063c01f9e3714610393578063e0e932441461036a5763f63d13d7146100fb573861000f565b600036600319011261021857600054604051635087a34f60e11b80825260209290916001600160a01b03918216908481600481855afa801561020c578591600091610339575b50604051632474521560e21b815260048101919091523360248201529182908180604481015b03915afa90811561020c57600091610304575b506102cc5760085434036102925760008080803485600154165af161019d6115e7565b501561024d5760005416906040519081528281600481855afa92831561020c5760009361021d575b5050803b1561021857604051632f2ff15d60e01b815260048101839052336024820152906000908290604490829084905af1801561020c5761020357005b61001b9061154f565b6040513d6000823e3d90fd5b600080fd5b9080929350813d8311610246575b610235818361159c565b8101031261021857519038806101c5565b503d61022b565b60405162461bcd60e51b815260048101849052601d60248201527f4661696c656420746f2073656e6420457468657220746f207661756c740000006044820152606490fd5b60405162461bcd60e51b8152600481018490526012602482015271496e636f7272656374206a6f696e2066656560701b6044820152606490fd5b60405162461bcd60e51b815260048101849052601060248201526f20b63932b0b23c90309036b2b6b132b960811b6044820152606490fd5b90508381813d8311610332575b61031b818361159c565b810103126102185761032c906115be565b3861017a565b503d610311565b82819392503d8311610363575b610350818361159c565b8101031261021857518490610167610141565b503d610346565b34610218576000366003190112610218576002546040516001600160a01b039091168152602090f35b346102185760203660031901126102185760043560005260096020526020604060002054604051908152f35b34610218576000366003190112610218576020600554604051908152f35b34610218576101203660031901126102185767ffffffffffffffff60043581811161021857610410903690600401611521565b90916024358181116102185761042a903690600401611521565b91606435906001600160a01b0382168203610218576084351515608435036102185760a43590811161021857610464903690600401611521565b610104359491939092916001600160a01b038616860361021857600054604051635087a34f60e11b81526001600160a01b0390911698906020816004818d5afa90811561020c576000916106d6575b50604051632474521560e21b815260048101919091523360248201526020816044818d5afa90811561020c5760009161066e575b50936105276105529460009b989461051e60209c999561050a6105969d9a611617565b6040519a6105178c611563565b3691611663565b89523691611663565b868a015260443560408701526001600160a01b03166060860152608435151560808601523691611663565b60a083015260c43560c083015260e43560e08301526001600160a01b031661010082015260405163664d54f560e11b815294859384928391903390600484016116e2565b03925af190811561020c5760009161063c575b506000546001600160a01b031690813b15610218576000809260446040518095819363012232e960e61b8352336004840152600360248401525af191821561020c5760209261062d575b506084351561061f576106086004544261178f565b81600052600983526040600020555b604051908152f35b61062881611a10565b610617565b6106369061154f565b826105f3565b90506020813d602011610666575b816106576020938361159c565b810103126102185751816105a9565b3d915061064a565b93989591999692979490506020843d6020116106ce575b816106926020938361159c565b81010312610218576105276020996105969961051e60009d61050a6106b96105529a6115be565b969a9d505095999c505094989b5094506104e7565b3d9150610685565b90506020813d602011610701575b816106f16020938361159c565b81010312610218575160206104b3565b3d91506106e4565b34610218576000366003190112610218576020600654604051908152f35b3461021857600036600319011261021857600154604051629032ff60e51b815290602090829060049082906001600160a01b03165afa801561020c57600090610776575b602090604051908152f35b506020813d82116107a0575b8161078f6020938361159c565b81010312610218576020905161076b565b3d9150610782565b346102185760003660031901126102185760005460405163997072f760e01b815290602090829060049082906001600160a01b03165afa801561020c5760009061077657602090604051908152f35b346102185760403660031901126102185760243560ff811680910361021857600054604051635087a34f60e11b81526001600160a01b039182169060208082600481865afa91821561020c5760009261094e575b50604051632474521560e21b815260048101929092523360248301528082604481865afa90811561020c57600091610917575b506108899150611617565b803b15610218576000809160446040518094819363012232e960e61b8352336004840152600160248401525af1801561020c57610908575b506000541690813b1561021857600091606483926040519485938492630ce7fb8360e11b8452600435600485015260248401523360448401525af1801561020c5761020357005b6109119061154f565b826108c1565b905081813d8311610947575b61092d818361159c565b8101031261021857610941610889916115be565b8561087e565b503d610923565b91508082813d8311610976575b610965818361159c565b81010312610218579051908061084b565b503d61095b565b346102185760003660031901126102185760008054604051637c0f6b3560e01b81526001600160a01b039290918290600490829086165afa90811561020c57600091610a04575b506040519060208083018184528251809152816040850193019160005b8281106109ee5785850386f35b83518716855293810193928101926001016109e1565b610a2191503d806000833e610a19818361159c565b810190611937565b826109c4565b34610218576040366003190112610218576004356001600160a01b038181169182900361021857600054169060405163a217fddf60e01b81526020908181600481875afa801561020c578290600090610b5a575b604051632474521560e21b8152600481019190915233602482015291508180604481015b0381875afa90811561020c57600091610b25575b5015610af55750813b1561021857600091604483926040519485938492632b72ee5160e01b8452600484015260243560248401525af1801561020c5761020357005b6064906040519062461bcd60e51b8252600482015260096024820152682737ba1030b236b4b760b91b6044820152fd5b90508181813d8311610b53575b610b3c818361159c565b8101031261021857610b4d906115be565b84610ab3565b503d610b32565b5081813d8311610b82575b610b6f818361159c565b810103126102185781610a9f9151610a7b565b503d610b65565b3461021857602036600319011261021857600080546040516318feeb1560e31b8082526004803590830152926001600160a01b039092169181602481855afa801561020c576101409160009161140e575b500151156113d157600435600052600960205260406000205442111561138c57600435600052600a60205260ff6040600020541661134757600060049160405192838092637c0f6b3560e01b82525afa90811561020c5760009161132c575b5060005b8151811015610eaa576000546001600160a01b0390811690610c9890602090610c6685876119bb565b516040516362d4f89360e01b8152600480359082015291166001600160a01b0316602482015291829081906044820190565b0381855afa90811561020c57600091610e70575b5015610cdb575b506000198114610cc557600101610c3d565b634e487b7160e01b600052601160045260246000fd5b6001600160a01b03610ced83856119bb565b5116813b1561021857600091602483926040519485938492635d437b8560e11b845260048401525af1801561020c57610e61575b506000546001600160a01b0390811690610d3b83856119bb565b511690803b156102185760405163a462e50f60e01b815260048035908201526001600160a01b039290921660248301526000908290604490829084905af1801561020c57610e52575b506000546001600160a01b0390811690610d9e83856119bb565b511690803b156102185760008092604051928391632b72ee5160e01b83526004830152600360248301528160449586925af1801561020c57610e43575b50600080808060018060a01b0360015416600554905af1610dfa6115e7565b50610cb3576064907f4661696c656420746f2073656e642070656e616c747920746f207661756c74006040519162461bcd60e51b835260206004840152601f6024840152820152fd5b610e4c9061154f565b84610ddb565b610e5b9061154f565b83610d84565b610e6a9061154f565b83610d21565b90506020813d602011610ea2575b81610e8b6020938361159c565b8101031261021857610e9c906115be565b85610cac565b3d9150610e7e565b8260018060a01b03600054166040519182526004356004830152600082602481845afa91821561020c57600092611307575b5060a08201610eff610ef4825160c08601519061178f565b60e08501519061178f565b90816112ec5750506000905b600354821061127557506000546001600160a01b0316803b1561021857600080916044604051809481936332fa518560e21b83526004356004840152600160248401525af1801561020c57611266575b506004357fe36f8b7448daff4a52e2945db0d1d7a436279cc1d527a45c27835dcbd27f336d600080a2610f8f600435611a10565b61016082015160208151910120610fa46119e5565b6020815191012003611099575b600435600052600a6020526040600020600160ff1982541617905561016082015160208151910120610fe16119e5565b6020815191012014610fef57005b60035411611048576000546101c0909101516001600160a01b039182169116813b156102185760009160448392604051948593849263012232e960e61b84526004840152600460248401525af1801561020c5761020357005b6000546101c0909101516001600160a01b039182169116813b1561021857600091604483926040519485938492632b72ee5160e01b84526004840152600a60248401525af1801561020c5761020357005b81516110e26031604051809370022bc32b1baba34b7b71021b432b1b59d1607d1b60208301526110d2815180926020868601910161169a565b810103601181018452018261159c565b60405180608081011067ffffffffffffffff608083011117611250576111ea81600093608060209401604052604782527f566f74652059455320696620746865206f726967696e616c2070726f706f7361848301527f6c2077617320657865637574656420636f72726563746c792c204e4f206f746860408301526632b93bb4b9b29760c91b606083015260018060a01b038554169160018060a01b0361012089015116906040519261119484611563565b835285830152856040830152856060830152600160808301526111b56119e5565b60a08301528560c08301528560e083015261010082015260405194858094819363664d54f560e11b83523090600484016116e2565b03925af190811561020c5760009161121e575b5061120a6004544261178f565b906000526009602052604060002055610fb1565b90506020813d602011611248575b816112396020938361159c565b810103126102185751836111fd565b3d915061122c565b634e487b7160e01b600052604160045260246000fd5b61126f9061154f565b82610f5b565b803b1561021857600080916044604051809481936332fa518560e21b83526004356004840152600260248401525af1801561020c576112dd575b506004357fd92fba445edb3153b571e6df782d7a66fd0ce668519273670820ee3a86da0ef4600080a2610fb1565b6112e69061154f565b826112af565b51606481029080820460641490151715610cc5570490610f0b565b6113259192503d806000833e61131d818361159c565b8101906117f5565b9082610edc565b61134191503d806000833e610a19818361159c565b82610c39565b60405162461bcd60e51b815260206004820152601a60248201527f50726f706f73616c20616c72656164792066696e616c697a65640000000000006044820152606490fd5b60405162461bcd60e51b815260206004820152601760248201527f566f74696e6720706572696f64206e6f7420656e6465640000000000000000006044820152606490fd5b60405162461bcd60e51b8152602060048201526015602482015274139bdd0818481d9bdd1a5b99c81c1c9bdc1bdcd85b605a1b6044820152606490fd5b61142391503d806000833e61131d818361159c565b84610bda565b34610218576000366003190112610218576020600754604051908152f35b34610218576000366003190112610218576000546040516001600160a01b039091168152602090f35b34610218576000366003190112610218576001546040516001600160a01b039091168152602090f35b34610218576000366003190112610218576020600454604051908152f35b3461021857602036600319011261021857600435600052600a602052602060ff604060002054166040519015158152f35b34610218576000366003190112610218576020600354604051908152f35b34610218576000366003190112610218576020906008548152f35b9181601f840112156102185782359167ffffffffffffffff8311610218576020838186019501011161021857565b67ffffffffffffffff811161125057604052565b610120810190811067ffffffffffffffff82111761125057604052565b6040810190811067ffffffffffffffff82111761125057604052565b90601f8019910116810190811067ffffffffffffffff82111761125057604052565b5190811515820361021857565b67ffffffffffffffff811161125057601f01601f191660200190565b3d15611612573d906115f8826115cb565b91611606604051938461159c565b82523d6000602084013e565b606090565b1561161e57565b60405162461bcd60e51b815260206004820152601b60248201527f44414f3a2043616c6c6572206973206e6f742061206d656d62657200000000006044820152606490fd5b92919261166f826115cb565b9161167d604051938461159c565b829481845281830111610218578281602093846000960137010152565b60005b8381106116ad5750506000910152565b818101518382015260200161169d565b906020916116d68151809281855285808601910161169a565b601f01601f1916010190565b9060209093929360408352805190611708610120928360408701526101608601906116bd565b6117238483015191603f1992838883030160608901526116bd565b926040830151608087015261176760018060a01b039485938460608701511660a08a01526080860151151560c08a015260a0860151908983030160e08a01526116bd565b9260c081015191610100928389015260e0820151908801520151166101408501529416910152565b91908201809211610cc557565b81601f820112156102185780516117b2816115cb565b926117c0604051948561159c565b81845260208284010111610218576117de916020808501910161169a565b90565b51906001600160a01b038216820361021857565b9060208282031261021857815167ffffffffffffffff928382116102185701906101e09283838303126102185760405193840184811082821117611250576040528251818111610218578261184b91850161179c565b84526020830151818111610218578261186591850161179c565b60208501526040838101519085015260608301516001600160a01b03811681036102185760608501526080830151600481101561021857608085015260a083015160a085015260c083015160c085015260e083015160e085015261010080840151908501526101206118d88185016117e1565b908501526101406118ea8185016115be565b9085015261016091828401519182116102185761190891840161179c565b9083015261018080820151908301526101a080820151908301526119306101c08092016117e1565b9082015290565b90602090818382031261021857825167ffffffffffffffff93848211610218570181601f82011215610218578051938411611250578360051b90604051946119818584018761159c565b85528380860192820101928311610218578301905b8282106119a4575050505090565b8380916119b0846117e1565b815201910190611996565b80518210156119cf5760209160051b010190565b634e487b7160e01b600052603260045260246000fd5b604051906119f282611580565b600f82526e657865637574696f6e2d636865636b60881b6020830152565b60018060a01b0360009181835416916024846040948551928380926318feeb1560e31b82528760048301525afa908115611e74578591611e5a575b506101608101518051906020917f064209fe56a5ba1791fac474c27dc1b9a6a4977f861d5d2396f722fcf844be9f8383019182206b1d1c99585cdd5c9e4b5bdd5d60a21b858a51611a9b81611580565b600c8152015203611afd57505050506002541690813b15611af9578391602483928551968793849263021814f960e41b845260048401525af1918215611aef575050611ae45750565b611aed9061154f565b565b51903d90823e3d90fd5b8380fd5b7f407aa5060640b5b11bd7a646d2a67db16d0d8062f0162ee0107d6c4df9647d0b825182206a3a3932b0b9bab93c96b4b760a91b858a51611b3d81611580565b600b8152015203611b8657505050506002541690813b15611af95783916024839285519687938492637026e9fd60e01b845260048401525af1918215611aef575050611ae45750565b7f3263cae112f9b06c4fe976e1e563a8899e0058acad03a56562786e4496d29f6b915190206a72756c652d6368616e676560a81b838851611bc681611580565b600b8152015214611bda575b505050505050565b81518051907f8d7cbff25736090ef6444f570ee8941e761e0637e76a2b77e283ff85ec26489d8382019283206b70617373437269746572696160a01b858a51611c2281611580565b600c8152015203611c8a575050506101a001516003555b6002541690813b15611af95783916024839285519687938492636f0d949d60e11b845260048401525af1918215611aef575050611c7b575b8080808080611bd2565b611c849061154f565b38611c71565b7fabbfab0bf365e6c544c4bdc8c27846b398ef85deeb99659a1bd1cbbfddbc69a1815183206d3b37ba34b733a23ab930ba34b7b760911b858a51611ccd81611580565b600e8152015203611ce8575050506101a00151600455611c39565b7f5b1a74ca49fc06542ef79783aa6db8771703259f73767276192f168bbdfaf8cb815183206c616273656e7450656e616c747960981b858a51611d2a81611580565b600d8152015203611d45575050506101a00151600555611c39565b7f343f1cee2704e73b1859bb1bdd73f8fce853b1f06ea40bd99f16c5c103e913188151832067656e74727946656560c01b858a51611d8281611580565b60088152015203611d9d575050506101a00151600855611c39565b7f806b2ce9432a34cfc9fdab6b94db5bfcfdd69b0eaa656d83bea17439bebe142d815183206b18dbdd5b9d151bd15e1c195b60a21b858a51611dde81611580565b600c8152015203611df9575050506101a00151600655611c39565b51902085517f7433394719dfd8fcf3f7ef7662d3d256ff5523945834c1c05aad0d14d49b75b4926b1cd8dbdc99551bd15e1c195b60a21b91611e3a81611580565b600c8152015214611e4c575b50611c39565b6101a0015160075538611e46565b611e6e91503d8087833e61131d818361159c565b38611a4b565b84513d87823e3d90fdfea26469706673582212206c3912527c60a91fbcd964be2b94ccebb8eafbd045aba04f145b829c626a1b5c64736f6c63430008140033","opcodes":"PUSH1 0x80 CALLVALUE PUSH3 0xD1 JUMPI PUSH1 0x1F PUSH3 0x1FB6 CODESIZE DUP2 SWAP1 SUB SWAP2 DUP3 ADD PUSH1 0x1F NOT AND DUP4 ADD SWAP2 PUSH1 0x1 PUSH1 0x1 PUSH1 0x40 SHL SUB DUP4 GT DUP5 DUP5 LT OR PUSH3 0xD6 JUMPI DUP1 DUP5 SWAP3 PUSH1 0x60 SWAP5 PUSH1 0x40 MSTORE DUP4 CODECOPY DUP2 ADD SUB SLT PUSH3 0xD1 JUMPI PUSH3 0x4D DUP2 PUSH3 0xEC JUMP JUMPDEST SWAP1 PUSH3 0x6A PUSH1 0x40 PUSH3 0x62 PUSH1 0x20 DUP5 ADD PUSH3 0xEC JUMP JUMPDEST SWAP3 ADD PUSH3 0xEC JUMP JUMPDEST PUSH1 0x32 PUSH1 0x3 SSTORE PUSH3 0x3F480 PUSH1 0x4 SSTORE PUSH7 0x38D7EA4C68000 PUSH1 0x5 SSTORE PUSH1 0x5 PUSH1 0x6 SSTORE PUSH1 0x14 PUSH1 0x7 SSTORE PUSH1 0x0 PUSH1 0x8 SSTORE PUSH1 0x1 DUP1 PUSH1 0xA0 SHL SUB DUP1 SWAP3 DUP2 PUSH1 0x1 DUP1 PUSH1 0xA0 SHL SUB NOT SWAP6 AND DUP6 PUSH1 0x0 SLOAD AND OR PUSH1 0x0 SSTORE AND DUP4 PUSH1 0x1 SLOAD AND OR PUSH1 0x1 SSTORE AND SWAP1 PUSH1 0x2 SLOAD AND OR PUSH1 0x2 SSTORE PUSH1 0x40 MLOAD PUSH2 0x1EB4 SWAP1 DUP2 PUSH3 0x102 DUP3 CODECOPY RETURN JUMPDEST PUSH1 0x0 DUP1 REVERT JUMPDEST PUSH4 0x4E487B71 PUSH1 0xE0 SHL PUSH1 0x0 MSTORE PUSH1 0x41 PUSH1 0x4 MSTORE PUSH1 0x24 PUSH1 0x0 REVERT JUMPDEST MLOAD SWAP1 PUSH1 0x1 PUSH1 0x1 PUSH1 0xA0 SHL SUB DUP3 AND DUP3 SUB PUSH3 0xD1 JUMPI JUMP INVALID PUSH1 0x80 DUP1 PUSH1 0x40 MSTORE PUSH1 0x4 CALLDATASIZE LT ISZERO PUSH2 0x1D JUMPI JUMPDEST POP CALLDATASIZE ISZERO PUSH2 0x1B JUMPI PUSH1 0x0 DUP1 REVERT JUMPDEST STOP JUMPDEST PUSH1 0x0 CALLDATALOAD PUSH1 0xE0 SHR SWAP1 DUP2 PUSH4 0x72EA61C EQ PUSH2 0x1506 JUMPI POP DUP1 PUSH4 0xFD2E6F9 EQ PUSH2 0x14E8 JUMPI DUP1 PUSH4 0x103616E8 EQ PUSH2 0x14B7 JUMPI DUP1 PUSH4 0x132002FC EQ PUSH2 0x1499 JUMPI DUP1 PUSH4 0x2274346B EQ PUSH2 0x1470 JUMPI DUP1 PUSH4 0x3AEF3900 EQ PUSH2 0x1447 JUMPI DUP1 PUSH4 0x52BC9E82 EQ PUSH2 0x1429 JUMPI DUP1 PUSH4 0x5652077C EQ PUSH2 0xB89 JUMPI DUP1 PUSH4 0x57CCE7D4 EQ PUSH2 0xA27 JUMPI DUP1 PUSH4 0x7C0F6B35 EQ PUSH2 0x97D JUMPI DUP1 PUSH4 0x943E8216 EQ PUSH2 0x7F7 JUMPI DUP1 PUSH4 0x997072F7 EQ PUSH2 0x7A8 JUMPI DUP1 PUSH4 0x9B5655DC EQ PUSH2 0x727 JUMPI DUP1 PUSH4 0x9F1F43AF EQ PUSH2 0x709 JUMPI DUP1 PUSH4 0xBC2914B5 EQ PUSH2 0x3DD JUMPI DUP1 PUSH4 0xBDF91DB5 EQ PUSH2 0x3BF JUMPI DUP1 PUSH4 0xC01F9E37 EQ PUSH2 0x393 JUMPI DUP1 PUSH4 0xE0E93244 EQ PUSH2 0x36A JUMPI PUSH4 0xF63D13D7 EQ PUSH2 0xFB JUMPI CODESIZE PUSH2 0xF JUMP JUMPDEST PUSH1 0x0 CALLDATASIZE PUSH1 0x3 NOT ADD SLT PUSH2 0x218 JUMPI PUSH1 0x0 SLOAD PUSH1 0x40 MLOAD PUSH4 0x5087A34F PUSH1 0xE1 SHL DUP1 DUP3 MSTORE PUSH1 0x20 SWAP3 SWAP1 SWAP2 PUSH1 0x1 PUSH1 0x1 PUSH1 0xA0 SHL SUB SWAP2 DUP3 AND SWAP1 DUP5 DUP2 PUSH1 0x4 DUP2 DUP6 GAS STATICCALL DUP1 ISZERO PUSH2 0x20C JUMPI DUP6 SWAP2 PUSH1 0x0 SWAP2 PUSH2 0x339 JUMPI JUMPDEST POP PUSH1 0x40 MLOAD PUSH4 0x24745215 PUSH1 0xE2 SHL DUP2 MSTORE PUSH1 0x4 DUP2 ADD SWAP2 SWAP1 SWAP2 MSTORE CALLER PUSH1 0x24 DUP3 ADD MSTORE SWAP2 DUP3 SWAP1 DUP2 DUP1 PUSH1 0x44 DUP2 ADD JUMPDEST SUB SWAP2 GAS STATICCALL SWAP1 DUP2 ISZERO PUSH2 0x20C JUMPI PUSH1 0x0 SWAP2 PUSH2 0x304 JUMPI JUMPDEST POP PUSH2 0x2CC JUMPI PUSH1 0x8 SLOAD CALLVALUE SUB PUSH2 0x292 JUMPI PUSH1 0x0 DUP1 DUP1 DUP1 CALLVALUE DUP6 PUSH1 0x1 SLOAD AND GAS CALL PUSH2 0x19D PUSH2 0x15E7 JUMP JUMPDEST POP ISZERO PUSH2 0x24D JUMPI PUSH1 0x0 SLOAD AND SWAP1 PUSH1 0x40 MLOAD SWAP1 DUP2 MSTORE DUP3 DUP2 PUSH1 0x4 DUP2 DUP6 GAS STATICCALL SWAP3 DUP4 ISZERO PUSH2 0x20C JUMPI PUSH1 0x0 SWAP4 PUSH2 0x21D JUMPI JUMPDEST POP POP DUP1 EXTCODESIZE ISZERO PUSH2 0x218 JUMPI PUSH1 0x40 MLOAD PUSH4 0x2F2FF15D PUSH1 0xE0 SHL DUP2 MSTORE PUSH1 0x4 DUP2 ADD DUP4 SWAP1 MSTORE CALLER PUSH1 0x24 DUP3 ADD MSTORE SWAP1 PUSH1 0x0 SWAP1 DUP3 SWAP1 PUSH1 0x44 SWAP1 DUP3 SWAP1 DUP5 SWAP1 GAS CALL DUP1 ISZERO PUSH2 0x20C JUMPI PUSH2 0x203 JUMPI STOP JUMPDEST PUSH2 0x1B SWAP1 PUSH2 0x154F JUMP JUMPDEST PUSH1 0x40 MLOAD RETURNDATASIZE PUSH1 0x0 DUP3 RETURNDATACOPY RETURNDATASIZE SWAP1 REVERT JUMPDEST PUSH1 0x0 DUP1 REVERT JUMPDEST SWAP1 DUP1 SWAP3 SWAP4 POP DUP2 RETURNDATASIZE DUP4 GT PUSH2 0x246 JUMPI JUMPDEST PUSH2 0x235 DUP2 DUP4 PUSH2 0x159C JUMP JUMPDEST DUP2 ADD SUB SLT PUSH2 0x218 JUMPI MLOAD SWAP1 CODESIZE DUP1 PUSH2 0x1C5 JUMP JUMPDEST POP RETURNDATASIZE PUSH2 0x22B JUMP JUMPDEST PUSH1 0x40 MLOAD PUSH3 0x461BCD PUSH1 0xE5 SHL DUP2 MSTORE PUSH1 0x4 DUP2 ADD DUP5 SWAP1 MSTORE PUSH1 0x1D PUSH1 0x24 DUP3 ADD MSTORE PUSH32 0x4661696C656420746F2073656E6420457468657220746F207661756C74000000 PUSH1 0x44 DUP3 ADD MSTORE PUSH1 0x64 SWAP1 REVERT JUMPDEST PUSH1 0x40 MLOAD PUSH3 0x461BCD PUSH1 0xE5 SHL DUP2 MSTORE PUSH1 0x4 DUP2 ADD DUP5 SWAP1 MSTORE PUSH1 0x12 PUSH1 0x24 DUP3 ADD MSTORE PUSH18 0x496E636F7272656374206A6F696E20666565 PUSH1 0x70 SHL PUSH1 0x44 DUP3 ADD MSTORE PUSH1 0x64 SWAP1 REVERT JUMPDEST PUSH1 0x40 MLOAD PUSH3 0x461BCD PUSH1 0xE5 SHL DUP2 MSTORE PUSH1 0x4 DUP2 ADD DUP5 SWAP1 MSTORE PUSH1 0x10 PUSH1 0x24 DUP3 ADD MSTORE PUSH16 0x20B63932B0B23C90309036B2B6B132B9 PUSH1 0x81 SHL PUSH1 0x44 DUP3 ADD MSTORE PUSH1 0x64 SWAP1 REVERT JUMPDEST SWAP1 POP DUP4 DUP2 DUP2 RETURNDATASIZE DUP4 GT PUSH2 0x332 JUMPI JUMPDEST PUSH2 0x31B DUP2 DUP4 PUSH2 0x159C JUMP JUMPDEST DUP2 ADD SUB SLT PUSH2 0x218 JUMPI PUSH2 0x32C SWAP1 PUSH2 0x15BE JUMP JUMPDEST CODESIZE PUSH2 0x17A JUMP JUMPDEST POP RETURNDATASIZE PUSH2 0x311 JUMP JUMPDEST DUP3 DUP2 SWAP4 SWAP3 POP RETURNDATASIZE DUP4 GT PUSH2 0x363 JUMPI JUMPDEST PUSH2 0x350 DUP2 DUP4 PUSH2 0x159C JUMP JUMPDEST DUP2 ADD SUB SLT PUSH2 0x218 JUMPI MLOAD DUP5 SWAP1 PUSH2 0x167 PUSH2 0x141 JUMP JUMPDEST POP RETURNDATASIZE PUSH2 0x346 JUMP JUMPDEST CALLVALUE PUSH2 0x218 JUMPI PUSH1 0x0 CALLDATASIZE PUSH1 0x3 NOT ADD SLT PUSH2 0x218 JUMPI PUSH1 0x2 SLOAD PUSH1 0x40 MLOAD PUSH1 0x1 PUSH1 0x1 PUSH1 0xA0 SHL SUB SWAP1 SWAP2 AND DUP2 MSTORE PUSH1 0x20 SWAP1 RETURN JUMPDEST CALLVALUE PUSH2 0x218 JUMPI PUSH1 0x20 CALLDATASIZE PUSH1 0x3 NOT ADD SLT PUSH2 0x218 JUMPI PUSH1 0x4 CALLDATALOAD PUSH1 0x0 MSTORE PUSH1 0x9 PUSH1 0x20 MSTORE PUSH1 0x20 PUSH1 0x40 PUSH1 0x0 KECCAK256 SLOAD PUSH1 0x40 MLOAD SWAP1 DUP2 MSTORE RETURN JUMPDEST CALLVALUE PUSH2 0x218 JUMPI PUSH1 0x0 CALLDATASIZE PUSH1 0x3 NOT ADD SLT PUSH2 0x218 JUMPI PUSH1 0x20 PUSH1 0x5 SLOAD PUSH1 0x40 MLOAD SWAP1 DUP2 MSTORE RETURN JUMPDEST CALLVALUE PUSH2 0x218 JUMPI PUSH2 0x120 CALLDATASIZE PUSH1 0x3 NOT ADD SLT PUSH2 0x218 JUMPI PUSH8 0xFFFFFFFFFFFFFFFF PUSH1 0x4 CALLDATALOAD DUP2 DUP2 GT PUSH2 0x218 JUMPI PUSH2 0x410 SWAP1 CALLDATASIZE SWAP1 PUSH1 0x4 ADD PUSH2 0x1521 JUMP JUMPDEST SWAP1 SWAP2 PUSH1 0x24 CALLDATALOAD DUP2 DUP2 GT PUSH2 0x218 JUMPI PUSH2 0x42A SWAP1 CALLDATASIZE SWAP1 PUSH1 0x4 ADD PUSH2 0x1521 JUMP JUMPDEST SWAP2 PUSH1 0x64 CALLDATALOAD SWAP1 PUSH1 0x1 PUSH1 0x1 PUSH1 0xA0 SHL SUB DUP3 AND DUP3 SUB PUSH2 0x218 JUMPI PUSH1 0x84 CALLDATALOAD ISZERO ISZERO PUSH1 0x84 CALLDATALOAD SUB PUSH2 0x218 JUMPI PUSH1 0xA4 CALLDATALOAD SWAP1 DUP2 GT PUSH2 0x218 JUMPI PUSH2 0x464 SWAP1 CALLDATASIZE SWAP1 PUSH1 0x4 ADD PUSH2 0x1521 JUMP JUMPDEST PUSH2 0x104 CALLDATALOAD SWAP5 SWAP2 SWAP4 SWAP1 SWAP3 SWAP2 PUSH1 0x1 PUSH1 0x1 PUSH1 0xA0 SHL SUB DUP7 AND DUP7 SUB PUSH2 0x218 JUMPI PUSH1 0x0 SLOAD PUSH1 0x40 MLOAD PUSH4 0x5087A34F PUSH1 0xE1 SHL DUP2 MSTORE PUSH1 0x1 PUSH1 0x1 PUSH1 0xA0 SHL SUB SWAP1 SWAP2 AND SWAP9 SWAP1 PUSH1 0x20 DUP2 PUSH1 0x4 DUP2 DUP14 GAS STATICCALL SWAP1 DUP2 ISZERO PUSH2 0x20C JUMPI PUSH1 0x0 SWAP2 PUSH2 0x6D6 JUMPI JUMPDEST POP PUSH1 0x40 MLOAD PUSH4 0x24745215 PUSH1 0xE2 SHL DUP2 MSTORE PUSH1 0x4 DUP2 ADD SWAP2 SWAP1 SWAP2 MSTORE CALLER PUSH1 0x24 DUP3 ADD MSTORE PUSH1 0x20 DUP2 PUSH1 0x44 DUP2 DUP14 GAS STATICCALL SWAP1 DUP2 ISZERO PUSH2 0x20C JUMPI PUSH1 0x0 SWAP2 PUSH2 0x66E JUMPI JUMPDEST POP SWAP4 PUSH2 0x527 PUSH2 0x552 SWAP5 PUSH1 0x0 SWAP12 SWAP9 SWAP5 PUSH2 0x51E PUSH1 0x20 SWAP13 SWAP10 SWAP6 PUSH2 0x50A PUSH2 0x596 SWAP14 SWAP11 PUSH2 0x1617 JUMP JUMPDEST PUSH1 0x40 MLOAD SWAP11 PUSH2 0x517 DUP13 PUSH2 0x1563 JUMP JUMPDEST CALLDATASIZE SWAP2 PUSH2 0x1663 JUMP JUMPDEST DUP10 MSTORE CALLDATASIZE SWAP2 PUSH2 0x1663 JUMP JUMPDEST DUP7 DUP11 ADD MSTORE PUSH1 0x44 CALLDATALOAD PUSH1 0x40 DUP8 ADD MSTORE PUSH1 0x1 PUSH1 0x1 PUSH1 0xA0 SHL SUB AND PUSH1 0x60 DUP7 ADD MSTORE PUSH1 0x84 CALLDATALOAD ISZERO ISZERO PUSH1 0x80 DUP7 ADD MSTORE CALLDATASIZE SWAP2 PUSH2 0x1663 JUMP JUMPDEST PUSH1 0xA0 DUP4 ADD MSTORE PUSH1 0xC4 CALLDATALOAD PUSH1 0xC0 DUP4 ADD MSTORE PUSH1 0xE4 CALLDATALOAD PUSH1 0xE0 DUP4 ADD MSTORE PUSH1 0x1 PUSH1 0x1 PUSH1 0xA0 SHL SUB AND PUSH2 0x100 DUP3 ADD MSTORE PUSH1 0x40 MLOAD PUSH4 0x664D54F5 PUSH1 0xE1 SHL DUP2 MSTORE SWAP5 DUP6 SWAP4 DUP5 SWAP3 DUP4 SWAP2 SWAP1 CALLER SWAP1 PUSH1 0x4 DUP5 ADD PUSH2 0x16E2 JUMP JUMPDEST SUB SWAP3 GAS CALL SWAP1 DUP2 ISZERO PUSH2 0x20C JUMPI PUSH1 0x0 SWAP2 PUSH2 0x63C JUMPI JUMPDEST POP PUSH1 0x0 SLOAD PUSH1 0x1 PUSH1 0x1 PUSH1 0xA0 SHL SUB AND SWAP1 DUP2 EXTCODESIZE ISZERO PUSH2 0x218 JUMPI PUSH1 0x0 DUP1 SWAP3 PUSH1 0x44 PUSH1 0x40 MLOAD DUP1 SWAP6 DUP2 SWAP4 PUSH4 0x12232E9 PUSH1 0xE6 SHL DUP4 MSTORE CALLER PUSH1 0x4 DUP5 ADD MSTORE PUSH1 0x3 PUSH1 0x24 DUP5 ADD MSTORE GAS CALL SWAP2 DUP3 ISZERO PUSH2 0x20C JUMPI PUSH1 0x20 SWAP3 PUSH2 0x62D JUMPI JUMPDEST POP PUSH1 0x84 CALLDATALOAD ISZERO PUSH2 0x61F JUMPI PUSH2 0x608 PUSH1 0x4 SLOAD TIMESTAMP PUSH2 0x178F JUMP JUMPDEST DUP2 PUSH1 0x0 MSTORE PUSH1 0x9 DUP4 MSTORE PUSH1 0x40 PUSH1 0x0 KECCAK256 SSTORE JUMPDEST PUSH1 0x40 MLOAD SWAP1 DUP2 MSTORE RETURN JUMPDEST PUSH2 0x628 DUP2 PUSH2 0x1A10 JUMP JUMPDEST PUSH2 0x617 JUMP JUMPDEST PUSH2 0x636 SWAP1 PUSH2 0x154F JUMP JUMPDEST DUP3 PUSH2 0x5F3 JUMP JUMPDEST SWAP1 POP PUSH1 0x20 DUP2 RETURNDATASIZE PUSH1 0x20 GT PUSH2 0x666 JUMPI JUMPDEST DUP2 PUSH2 0x657 PUSH1 0x20 SWAP4 DUP4 PUSH2 0x159C JUMP JUMPDEST DUP2 ADD SUB SLT PUSH2 0x218 JUMPI MLOAD DUP2 PUSH2 0x5A9 JUMP JUMPDEST RETURNDATASIZE SWAP2 POP PUSH2 0x64A JUMP JUMPDEST SWAP4 SWAP9 SWAP6 SWAP2 SWAP10 SWAP7 SWAP3 SWAP8 SWAP5 SWAP1 POP PUSH1 0x20 DUP5 RETURNDATASIZE PUSH1 0x20 GT PUSH2 0x6CE JUMPI JUMPDEST DUP2 PUSH2 0x692 PUSH1 0x20 SWAP4 DUP4 PUSH2 0x159C JUMP JUMPDEST DUP2 ADD SUB SLT PUSH2 0x218 JUMPI PUSH2 0x527 PUSH1 0x20 SWAP10 PUSH2 0x596 SWAP10 PUSH2 0x51E PUSH1 0x0 SWAP14 PUSH2 0x50A PUSH2 0x6B9 PUSH2 0x552 SWAP11 PUSH2 0x15BE JUMP JUMPDEST SWAP7 SWAP11 SWAP14 POP POP SWAP6 SWAP10 SWAP13 POP POP SWAP5 SWAP9 SWAP12 POP SWAP5 POP PUSH2 0x4E7 JUMP JUMPDEST RETURNDATASIZE SWAP2 POP PUSH2 0x685 JUMP JUMPDEST SWAP1 POP PUSH1 0x20 DUP2 RETURNDATASIZE PUSH1 0x20 GT PUSH2 0x701 JUMPI JUMPDEST DUP2 PUSH2 0x6F1 PUSH1 0x20 SWAP4 DUP4 PUSH2 0x159C JUMP JUMPDEST DUP2 ADD SUB SLT PUSH2 0x218 JUMPI MLOAD PUSH1 0x20 PUSH2 0x4B3 JUMP JUMPDEST RETURNDATASIZE SWAP2 POP PUSH2 0x6E4 JUMP JUMPDEST CALLVALUE PUSH2 0x218 JUMPI PUSH1 0x0 CALLDATASIZE PUSH1 0x3 NOT ADD SLT PUSH2 0x218 JUMPI PUSH1 0x20 PUSH1 0x6 SLOAD PUSH1 0x40 MLOAD SWAP1 DUP2 MSTORE RETURN JUMPDEST CALLVALUE PUSH2 0x218 JUMPI PUSH1 0x0 CALLDATASIZE PUSH1 0x3 NOT ADD SLT PUSH2 0x218 JUMPI PUSH1 0x1 SLOAD PUSH1 0x40 MLOAD PUSH3 0x9032FF PUSH1 0xE5 SHL DUP2 MSTORE SWAP1 PUSH1 0x20 SWAP1 DUP3 SWAP1 PUSH1 0x4 SWAP1 DUP3 SWAP1 PUSH1 0x1 PUSH1 0x1 PUSH1 0xA0 SHL SUB AND GAS STATICCALL DUP1 ISZERO PUSH2 0x20C JUMPI PUSH1 0x0 SWAP1 PUSH2 0x776 JUMPI JUMPDEST PUSH1 0x20 SWAP1 PUSH1 0x40 MLOAD SWAP1 DUP2 MSTORE RETURN JUMPDEST POP PUSH1 0x20 DUP2 RETURNDATASIZE DUP3 GT PUSH2 0x7A0 JUMPI JUMPDEST DUP2 PUSH2 0x78F PUSH1 0x20 SWAP4 DUP4 PUSH2 0x159C JUMP JUMPDEST DUP2 ADD SUB SLT PUSH2 0x218 JUMPI PUSH1 0x20 SWAP1 MLOAD PUSH2 0x76B JUMP JUMPDEST RETURNDATASIZE SWAP2 POP PUSH2 0x782 JUMP JUMPDEST CALLVALUE PUSH2 0x218 JUMPI PUSH1 0x0 CALLDATASIZE PUSH1 0x3 NOT ADD SLT PUSH2 0x218 JUMPI PUSH1 0x0 SLOAD PUSH1 0x40 MLOAD PUSH4 0x997072F7 PUSH1 0xE0 SHL DUP2 MSTORE SWAP1 PUSH1 0x20 SWAP1 DUP3 SWAP1 PUSH1 0x4 SWAP1 DUP3 SWAP1 PUSH1 0x1 PUSH1 0x1 PUSH1 0xA0 SHL SUB AND GAS STATICCALL DUP1 ISZERO PUSH2 0x20C JUMPI PUSH1 0x0 SWAP1 PUSH2 0x776 JUMPI PUSH1 0x20 SWAP1 PUSH1 0x40 MLOAD SWAP1 DUP2 MSTORE RETURN JUMPDEST CALLVALUE PUSH2 0x218 JUMPI PUSH1 0x40 CALLDATASIZE PUSH1 0x3 NOT ADD SLT PUSH2 0x218 JUMPI PUSH1 0x24 CALLDATALOAD PUSH1 0xFF DUP2 AND DUP1 SWAP2 SUB PUSH2 0x218 JUMPI PUSH1 0x0 SLOAD PUSH1 0x40 MLOAD PUSH4 0x5087A34F PUSH1 0xE1 SHL DUP2 MSTORE PUSH1 0x1 PUSH1 0x1 PUSH1 0xA0 SHL SUB SWAP2 DUP3 AND SWAP1 PUSH1 0x20 DUP1 DUP3 PUSH1 0x4 DUP2 DUP7 GAS STATICCALL SWAP2 DUP3 ISZERO PUSH2 0x20C JUMPI PUSH1 0x0 SWAP3 PUSH2 0x94E JUMPI JUMPDEST POP PUSH1 0x40 MLOAD PUSH4 0x24745215 PUSH1 0xE2 SHL DUP2 MSTORE PUSH1 0x4 DUP2 ADD SWAP3 SWAP1 SWAP3 MSTORE CALLER PUSH1 0x24 DUP4 ADD MSTORE DUP1 DUP3 PUSH1 0x44 DUP2 DUP7 GAS STATICCALL SWAP1 DUP2 ISZERO PUSH2 0x20C JUMPI PUSH1 0x0 SWAP2 PUSH2 0x917 JUMPI JUMPDEST POP PUSH2 0x889 SWAP2 POP PUSH2 0x1617 JUMP JUMPDEST DUP1 EXTCODESIZE ISZERO PUSH2 0x218 JUMPI PUSH1 0x0 DUP1 SWAP2 PUSH1 0x44 PUSH1 0x40 MLOAD DUP1 SWAP5 DUP2 SWAP4 PUSH4 0x12232E9 PUSH1 0xE6 SHL DUP4 MSTORE CALLER PUSH1 0x4 DUP5 ADD MSTORE PUSH1 0x1 PUSH1 0x24 DUP5 ADD MSTORE GAS CALL DUP1 ISZERO PUSH2 0x20C JUMPI PUSH2 0x908 JUMPI JUMPDEST POP PUSH1 0x0 SLOAD AND SWAP1 DUP2 EXTCODESIZE ISZERO PUSH2 0x218 JUMPI PUSH1 0x0 SWAP2 PUSH1 0x64 DUP4 SWAP3 PUSH1 0x40 MLOAD SWAP5 DUP6 SWAP4 DUP5 SWAP3 PUSH4 0xCE7FB83 PUSH1 0xE1 SHL DUP5 MSTORE PUSH1 0x4 CALLDATALOAD PUSH1 0x4 DUP6 ADD MSTORE PUSH1 0x24 DUP5 ADD MSTORE CALLER PUSH1 0x44 DUP5 ADD MSTORE GAS CALL DUP1 ISZERO PUSH2 0x20C JUMPI PUSH2 0x203 JUMPI STOP JUMPDEST PUSH2 0x911 SWAP1 PUSH2 0x154F JUMP JUMPDEST DUP3 PUSH2 0x8C1 JUMP JUMPDEST SWAP1 POP DUP2 DUP2 RETURNDATASIZE DUP4 GT PUSH2 0x947 JUMPI JUMPDEST PUSH2 0x92D DUP2 DUP4 PUSH2 0x159C JUMP JUMPDEST DUP2 ADD SUB SLT PUSH2 0x218 JUMPI PUSH2 0x941 PUSH2 0x889 SWAP2 PUSH2 0x15BE JUMP JUMPDEST DUP6 PUSH2 0x87E JUMP JUMPDEST POP RETURNDATASIZE PUSH2 0x923 JUMP JUMPDEST SWAP2 POP DUP1 DUP3 DUP2 RETURNDATASIZE DUP4 GT PUSH2 0x976 JUMPI JUMPDEST PUSH2 0x965 DUP2 DUP4 PUSH2 0x159C JUMP JUMPDEST DUP2 ADD SUB SLT PUSH2 0x218 JUMPI SWAP1 MLOAD SWAP1 DUP1 PUSH2 0x84B JUMP JUMPDEST POP RETURNDATASIZE PUSH2 0x95B JUMP JUMPDEST CALLVALUE PUSH2 0x218 JUMPI PUSH1 0x0 CALLDATASIZE PUSH1 0x3 NOT ADD SLT PUSH2 0x218 JUMPI PUSH1 0x0 DUP1 SLOAD PUSH1 0x40 MLOAD PUSH4 0x7C0F6B35 PUSH1 0xE0 SHL DUP2 MSTORE PUSH1 0x1 PUSH1 0x1 PUSH1 0xA0 SHL SUB SWAP3 SWAP1 SWAP2 DUP3 SWAP1 PUSH1 0x4 SWAP1 DUP3 SWAP1 DUP7 AND GAS STATICCALL SWAP1 DUP2 ISZERO PUSH2 0x20C JUMPI PUSH1 0x0 SWAP2 PUSH2 0xA04 JUMPI JUMPDEST POP PUSH1 0x40 MLOAD SWAP1 PUSH1 0x20 DUP1 DUP4 ADD DUP2 DUP5 MSTORE DUP3 MLOAD DUP1 SWAP2 MSTORE DUP2 PUSH1 0x40 DUP6 ADD SWAP4 ADD SWAP2 PUSH1 0x0 JUMPDEST DUP3 DUP2 LT PUSH2 0x9EE JUMPI DUP6 DUP6 SUB DUP7 RETURN JUMPDEST DUP4 MLOAD DUP8 AND DUP6 MSTORE SWAP4 DUP2 ADD SWAP4 SWAP3 DUP2 ADD SWAP3 PUSH1 0x1 ADD PUSH2 0x9E1 JUMP JUMPDEST PUSH2 0xA21 SWAP2 POP RETURNDATASIZE DUP1 PUSH1 0x0 DUP4 RETURNDATACOPY PUSH2 0xA19 DUP2 DUP4 PUSH2 0x159C JUMP JUMPDEST DUP2 ADD SWAP1 PUSH2 0x1937 JUMP JUMPDEST DUP3 PUSH2 0x9C4 JUMP JUMPDEST CALLVALUE PUSH2 0x218 JUMPI PUSH1 0x40 CALLDATASIZE PUSH1 0x3 NOT ADD SLT PUSH2 0x218 JUMPI PUSH1 0x4 CALLDATALOAD PUSH1 0x1 PUSH1 0x1 PUSH1 0xA0 SHL SUB DUP2 DUP2 AND SWAP2 DUP3 SWAP1 SUB PUSH2 0x218 JUMPI PUSH1 0x0 SLOAD AND SWAP1 PUSH1 0x40 MLOAD PUSH4 0xA217FDDF PUSH1 0xE0 SHL DUP2 MSTORE PUSH1 0x20 SWAP1 DUP2 DUP2 PUSH1 0x4 DUP2 DUP8 GAS STATICCALL DUP1 ISZERO PUSH2 0x20C JUMPI DUP3 SWAP1 PUSH1 0x0 SWAP1 PUSH2 0xB5A JUMPI JUMPDEST PUSH1 0x40 MLOAD PUSH4 0x24745215 PUSH1 0xE2 SHL DUP2 MSTORE PUSH1 0x4 DUP2 ADD SWAP2 SWAP1 SWAP2 MSTORE CALLER PUSH1 0x24 DUP3 ADD MSTORE SWAP2 POP DUP2 DUP1 PUSH1 0x44 DUP2 ADD JUMPDEST SUB DUP2 DUP8 GAS STATICCALL SWAP1 DUP2 ISZERO PUSH2 0x20C JUMPI PUSH1 0x0 SWAP2 PUSH2 0xB25 JUMPI JUMPDEST POP ISZERO PUSH2 0xAF5 JUMPI POP DUP2 EXTCODESIZE ISZERO PUSH2 0x218 JUMPI PUSH1 0x0 SWAP2 PUSH1 0x44 DUP4 SWAP3 PUSH1 0x40 MLOAD SWAP5 DUP6 SWAP4 DUP5 SWAP3 PUSH4 0x2B72EE51 PUSH1 0xE0 SHL DUP5 MSTORE PUSH1 0x4 DUP5 ADD MSTORE PUSH1 0x24 CALLDATALOAD PUSH1 0x24 DUP5 ADD MSTORE GAS CALL DUP1 ISZERO PUSH2 0x20C JUMPI PUSH2 0x203 JUMPI STOP JUMPDEST PUSH1 0x64 SWAP1 PUSH1 0x40 MLOAD SWAP1 PUSH3 0x461BCD PUSH1 0xE5 SHL DUP3 MSTORE PUSH1 0x4 DUP3 ADD MSTORE PUSH1 0x9 PUSH1 0x24 DUP3 ADD MSTORE PUSH9 0x2737BA1030B236B4B7 PUSH1 0xB9 SHL PUSH1 0x44 DUP3 ADD MSTORE REVERT JUMPDEST SWAP1 POP DUP2 DUP2 DUP2 RETURNDATASIZE DUP4 GT PUSH2 0xB53 JUMPI JUMPDEST PUSH2 0xB3C DUP2 DUP4 PUSH2 0x159C JUMP JUMPDEST DUP2 ADD SUB SLT PUSH2 0x218 JUMPI PUSH2 0xB4D SWAP1 PUSH2 0x15BE JUMP JUMPDEST DUP5 PUSH2 0xAB3 JUMP JUMPDEST POP RETURNDATASIZE PUSH2 0xB32 JUMP JUMPDEST POP DUP2 DUP2 RETURNDATASIZE DUP4 GT PUSH2 0xB82 JUMPI JUMPDEST PUSH2 0xB6F DUP2 DUP4 PUSH2 0x159C JUMP JUMPDEST DUP2 ADD SUB SLT PUSH2 0x218 JUMPI DUP2 PUSH2 0xA9F SWAP2 MLOAD PUSH2 0xA7B JUMP JUMPDEST POP RETURNDATASIZE PUSH2 0xB65 JUMP JUMPDEST CALLVALUE PUSH2 0x218 JUMPI PUSH1 0x20 CALLDATASIZE PUSH1 0x3 NOT ADD SLT PUSH2 0x218 JUMPI PUSH1 0x0 DUP1 SLOAD PUSH1 0x40 MLOAD PUSH4 0x18FEEB15 PUSH1 0xE3 SHL DUP1 DUP3 MSTORE PUSH1 0x4 DUP1 CALLDATALOAD SWAP1 DUP4 ADD MSTORE SWAP3 PUSH1 0x1 PUSH1 0x1 PUSH1 0xA0 SHL SUB SWAP1 SWAP3 AND SWAP2 DUP2 PUSH1 0x24 DUP2 DUP6 GAS STATICCALL DUP1 ISZERO PUSH2 0x20C JUMPI PUSH2 0x140 SWAP2 PUSH1 0x0 SWAP2 PUSH2 0x140E JUMPI JUMPDEST POP ADD MLOAD ISZERO PUSH2 0x13D1 JUMPI PUSH1 0x4 CALLDATALOAD PUSH1 0x0 MSTORE PUSH1 0x9 PUSH1 0x20 MSTORE PUSH1 0x40 PUSH1 0x0 KECCAK256 SLOAD TIMESTAMP GT ISZERO PUSH2 0x138C JUMPI PUSH1 0x4 CALLDATALOAD PUSH1 0x0 MSTORE PUSH1 0xA PUSH1 0x20 MSTORE PUSH1 0xFF PUSH1 0x40 PUSH1 0x0 KECCAK256 SLOAD AND PUSH2 0x1347 JUMPI PUSH1 0x0 PUSH1 0x4 SWAP2 PUSH1 0x40 MLOAD SWAP3 DUP4 DUP1 SWAP3 PUSH4 0x7C0F6B35 PUSH1 0xE0 SHL DUP3 MSTORE GAS STATICCALL SWAP1 DUP2 ISZERO PUSH2 0x20C JUMPI PUSH1 0x0 SWAP2 PUSH2 0x132C JUMPI JUMPDEST POP PUSH1 0x0 JUMPDEST DUP2 MLOAD DUP2 LT ISZERO PUSH2 0xEAA JUMPI PUSH1 0x0 SLOAD PUSH1 0x1 PUSH1 0x1 PUSH1 0xA0 SHL SUB SWAP1 DUP2 AND SWAP1 PUSH2 0xC98 SWAP1 PUSH1 0x20 SWAP1 PUSH2 0xC66 DUP6 DUP8 PUSH2 0x19BB JUMP JUMPDEST MLOAD PUSH1 0x40 MLOAD PUSH4 0x62D4F893 PUSH1 0xE0 SHL DUP2 MSTORE PUSH1 0x4 DUP1 CALLDATALOAD SWAP1 DUP3 ADD MSTORE SWAP2 AND PUSH1 0x1 PUSH1 0x1 PUSH1 0xA0 SHL SUB AND PUSH1 0x24 DUP3 ADD MSTORE SWAP2 DUP3 SWAP1 DUP2 SWAP1 PUSH1 0x44 DUP3 ADD SWAP1 JUMP JUMPDEST SUB DUP2 DUP6 GAS STATICCALL SWAP1 DUP2 ISZERO PUSH2 0x20C JUMPI PUSH1 0x0 SWAP2 PUSH2 0xE70 JUMPI JUMPDEST POP ISZERO PUSH2 0xCDB JUMPI JUMPDEST POP PUSH1 0x0 NOT DUP2 EQ PUSH2 0xCC5 JUMPI PUSH1 0x1 ADD PUSH2 0xC3D JUMP JUMPDEST PUSH4 0x4E487B71 PUSH1 0xE0 SHL PUSH1 0x0 MSTORE PUSH1 0x11 PUSH1 0x4 MSTORE PUSH1 0x24 PUSH1 0x0 REVERT JUMPDEST PUSH1 0x1 PUSH1 0x1 PUSH1 0xA0 SHL SUB PUSH2 0xCED DUP4 DUP6 PUSH2 0x19BB JUMP JUMPDEST MLOAD AND DUP2 EXTCODESIZE ISZERO PUSH2 0x218 JUMPI PUSH1 0x0 SWAP2 PUSH1 0x24 DUP4 SWAP3 PUSH1 0x40 MLOAD SWAP5 DUP6 SWAP4 DUP5 SWAP3 PUSH4 0x5D437B85 PUSH1 0xE1 SHL DUP5 MSTORE PUSH1 0x4 DUP5 ADD MSTORE GAS CALL DUP1 ISZERO PUSH2 0x20C JUMPI PUSH2 0xE61 JUMPI JUMPDEST POP PUSH1 0x0 SLOAD PUSH1 0x1 PUSH1 0x1 PUSH1 0xA0 SHL SUB SWAP1 DUP2 AND SWAP1 PUSH2 0xD3B DUP4 DUP6 PUSH2 0x19BB JUMP JUMPDEST MLOAD AND SWAP1 DUP1 EXTCODESIZE ISZERO PUSH2 0x218 JUMPI PUSH1 0x40 MLOAD PUSH4 0xA462E50F PUSH1 0xE0 SHL DUP2 MSTORE PUSH1 0x4 DUP1 CALLDATALOAD SWAP1 DUP3 ADD MSTORE PUSH1 0x1 PUSH1 0x1 PUSH1 0xA0 SHL SUB SWAP3 SWAP1 SWAP3 AND PUSH1 0x24 DUP4 ADD MSTORE PUSH1 0x0 SWAP1 DUP3 SWAP1 PUSH1 0x44 SWAP1 DUP3 SWAP1 DUP5 SWAP1 GAS CALL DUP1 ISZERO PUSH2 0x20C JUMPI PUSH2 0xE52 JUMPI JUMPDEST POP PUSH1 0x0 SLOAD PUSH1 0x1 PUSH1 0x1 PUSH1 0xA0 SHL SUB SWAP1 DUP2 AND SWAP1 PUSH2 0xD9E DUP4 DUP6 PUSH2 0x19BB JUMP JUMPDEST MLOAD AND SWAP1 DUP1 EXTCODESIZE ISZERO PUSH2 0x218 JUMPI PUSH1 0x0 DUP1 SWAP3 PUSH1 0x40 MLOAD SWAP3 DUP4 SWAP2 PUSH4 0x2B72EE51 PUSH1 0xE0 SHL DUP4 MSTORE PUSH1 0x4 DUP4 ADD MSTORE PUSH1 0x3 PUSH1 0x24 DUP4 ADD MSTORE DUP2 PUSH1 0x44 SWAP6 DUP7 SWAP3 GAS CALL DUP1 ISZERO PUSH2 0x20C JUMPI PUSH2 0xE43 JUMPI JUMPDEST POP PUSH1 0x0 DUP1 DUP1 DUP1 PUSH1 0x1 DUP1 PUSH1 0xA0 SHL SUB PUSH1 0x1 SLOAD AND PUSH1 0x5 SLOAD SWAP1 GAS CALL PUSH2 0xDFA PUSH2 0x15E7 JUMP JUMPDEST POP PUSH2 0xCB3 JUMPI PUSH1 0x64 SWAP1 PUSH32 0x4661696C656420746F2073656E642070656E616C747920746F207661756C7400 PUSH1 0x40 MLOAD SWAP2 PUSH3 0x461BCD PUSH1 0xE5 SHL DUP4 MSTORE PUSH1 0x20 PUSH1 0x4 DUP5 ADD MSTORE PUSH1 0x1F PUSH1 0x24 DUP5 ADD MSTORE DUP3 ADD MSTORE REVERT JUMPDEST PUSH2 0xE4C SWAP1 PUSH2 0x154F JUMP JUMPDEST DUP5 PUSH2 0xDDB JUMP JUMPDEST PUSH2 0xE5B SWAP1 PUSH2 0x154F JUMP JUMPDEST DUP4 PUSH2 0xD84 JUMP JUMPDEST PUSH2 0xE6A SWAP1 PUSH2 0x154F JUMP JUMPDEST DUP4 PUSH2 0xD21 JUMP JUMPDEST SWAP1 POP PUSH1 0x20 DUP2 RETURNDATASIZE PUSH1 0x20 GT PUSH2 0xEA2 JUMPI JUMPDEST DUP2 PUSH2 0xE8B PUSH1 0x20 SWAP4 DUP4 PUSH2 0x159C JUMP JUMPDEST DUP2 ADD SUB SLT PUSH2 0x218 JUMPI PUSH2 0xE9C SWAP1 PUSH2 0x15BE JUMP JUMPDEST DUP6 PUSH2 0xCAC JUMP JUMPDEST RETURNDATASIZE SWAP2 POP PUSH2 0xE7E JUMP JUMPDEST DUP3 PUSH1 0x1 DUP1 PUSH1 0xA0 SHL SUB PUSH1 0x0 SLOAD AND PUSH1 0x40 MLOAD SWAP2 DUP3 MSTORE PUSH1 0x4 CALLDATALOAD PUSH1 0x4 DUP4 ADD MSTORE PUSH1 0x0 DUP3 PUSH1 0x24 DUP2 DUP5 GAS STATICCALL SWAP2 DUP3 ISZERO PUSH2 0x20C JUMPI PUSH1 0x0 SWAP3 PUSH2 0x1307 JUMPI JUMPDEST POP PUSH1 0xA0 DUP3 ADD PUSH2 0xEFF PUSH2 0xEF4 DUP3 MLOAD PUSH1 0xC0 DUP7 ADD MLOAD SWAP1 PUSH2 0x178F JUMP JUMPDEST PUSH1 0xE0 DUP6 ADD MLOAD SWAP1 PUSH2 0x178F JUMP JUMPDEST SWAP1 DUP2 PUSH2 0x12EC JUMPI POP POP PUSH1 0x0 SWAP1 JUMPDEST PUSH1 0x3 SLOAD DUP3 LT PUSH2 0x1275 JUMPI POP PUSH1 0x0 SLOAD PUSH1 0x1 PUSH1 0x1 PUSH1 0xA0 SHL SUB AND DUP1 EXTCODESIZE ISZERO PUSH2 0x218 JUMPI PUSH1 0x0 DUP1 SWAP2 PUSH1 0x44 PUSH1 0x40 MLOAD DUP1 SWAP5 DUP2 SWAP4 PUSH4 0x32FA5185 PUSH1 0xE2 SHL DUP4 MSTORE PUSH1 0x4 CALLDATALOAD PUSH1 0x4 DUP5 ADD MSTORE PUSH1 0x1 PUSH1 0x24 DUP5 ADD MSTORE GAS CALL DUP1 ISZERO PUSH2 0x20C JUMPI PUSH2 0x1266 JUMPI JUMPDEST POP PUSH1 0x4 CALLDATALOAD PUSH32 0xE36F8B7448DAFF4A52E2945DB0D1D7A436279CC1D527A45C27835DCBD27F336D PUSH1 0x0 DUP1 LOG2 PUSH2 0xF8F PUSH1 0x4 CALLDATALOAD PUSH2 0x1A10 JUMP JUMPDEST PUSH2 0x160 DUP3 ADD MLOAD PUSH1 0x20 DUP2 MLOAD SWAP2 ADD KECCAK256 PUSH2 0xFA4 PUSH2 0x19E5 JUMP JUMPDEST PUSH1 0x20 DUP2 MLOAD SWAP2 ADD KECCAK256 SUB PUSH2 0x1099 JUMPI JUMPDEST PUSH1 0x4 CALLDATALOAD PUSH1 0x0 MSTORE PUSH1 0xA PUSH1 0x20 MSTORE PUSH1 0x40 PUSH1 0x0 KECCAK256 PUSH1 0x1 PUSH1 0xFF NOT DUP3 SLOAD AND OR SWAP1 SSTORE PUSH2 0x160 DUP3 ADD MLOAD PUSH1 0x20 DUP2 MLOAD SWAP2 ADD KECCAK256 PUSH2 0xFE1 PUSH2 0x19E5 JUMP JUMPDEST PUSH1 0x20 DUP2 MLOAD SWAP2 ADD KECCAK256 EQ PUSH2 0xFEF JUMPI STOP JUMPDEST PUSH1 0x3 SLOAD GT PUSH2 0x1048 JUMPI PUSH1 0x0 SLOAD PUSH2 0x1C0 SWAP1 SWAP2 ADD MLOAD PUSH1 0x1 PUSH1 0x1 PUSH1 0xA0 SHL SUB SWAP2 DUP3 AND SWAP2 AND DUP2 EXTCODESIZE ISZERO PUSH2 0x218 JUMPI PUSH1 0x0 SWAP2 PUSH1 0x44 DUP4 SWAP3 PUSH1 0x40 MLOAD SWAP5 DUP6 SWAP4 DUP5 SWAP3 PUSH4 0x12232E9 PUSH1 0xE6 SHL DUP5 MSTORE PUSH1 0x4 DUP5 ADD MSTORE PUSH1 0x4 PUSH1 0x24 DUP5 ADD MSTORE GAS CALL DUP1 ISZERO PUSH2 0x20C JUMPI PUSH2 0x203 JUMPI STOP JUMPDEST PUSH1 0x0 SLOAD PUSH2 0x1C0 SWAP1 SWAP2 ADD MLOAD PUSH1 0x1 PUSH1 0x1 PUSH1 0xA0 SHL SUB SWAP2 DUP3 AND SWAP2 AND DUP2 EXTCODESIZE ISZERO PUSH2 0x218 JUMPI PUSH1 0x0 SWAP2 PUSH1 0x44 DUP4 SWAP3 PUSH1 0x40 MLOAD SWAP5 DUP6 SWAP4 DUP5 SWAP3 PUSH4 0x2B72EE51 PUSH1 0xE0 SHL DUP5 MSTORE PUSH1 0x4 DUP5 ADD MSTORE PUSH1 0xA PUSH1 0x24 DUP5 ADD MSTORE GAS CALL DUP1 ISZERO PUSH2 0x20C JUMPI PUSH2 0x203 JUMPI STOP JUMPDEST DUP2 MLOAD PUSH2 0x10E2 PUSH1 0x31 PUSH1 0x40 MLOAD DUP1 SWAP4 PUSH17 0x22BC32B1BABA34B7B71021B432B1B59D1 PUSH1 0x7D SHL PUSH1 0x20 DUP4 ADD MSTORE PUSH2 0x10D2 DUP2 MLOAD DUP1 SWAP3 PUSH1 0x20 DUP7 DUP7 ADD SWAP2 ADD PUSH2 0x169A JUMP JUMPDEST DUP2 ADD SUB PUSH1 0x11 DUP2 ADD DUP5 MSTORE ADD DUP3 PUSH2 0x159C JUMP JUMPDEST PUSH1 0x40 MLOAD DUP1 PUSH1 0x80 DUP2 ADD LT PUSH8 0xFFFFFFFFFFFFFFFF PUSH1 0x80 DUP4 ADD GT OR PUSH2 0x1250 JUMPI PUSH2 0x11EA DUP2 PUSH1 0x0 SWAP4 PUSH1 0x80 PUSH1 0x20 SWAP5 ADD PUSH1 0x40 MSTORE PUSH1 0x47 DUP3 MSTORE PUSH32 0x566F74652059455320696620746865206F726967696E616C2070726F706F7361 DUP5 DUP4 ADD MSTORE PUSH32 0x6C2077617320657865637574656420636F72726563746C792C204E4F206F7468 PUSH1 0x40 DUP4 ADD MSTORE PUSH7 0x32B93BB4B9B297 PUSH1 0xC9 SHL PUSH1 0x60 DUP4 ADD MSTORE PUSH1 0x1 DUP1 PUSH1 0xA0 SHL SUB DUP6 SLOAD AND SWAP2 PUSH1 0x1 DUP1 PUSH1 0xA0 SHL SUB PUSH2 0x120 DUP10 ADD MLOAD AND SWAP1 PUSH1 0x40 MLOAD SWAP3 PUSH2 0x1194 DUP5 PUSH2 0x1563 JUMP JUMPDEST DUP4 MSTORE DUP6 DUP4 ADD MSTORE DUP6 PUSH1 0x40 DUP4 ADD MSTORE DUP6 PUSH1 0x60 DUP4 ADD MSTORE PUSH1 0x1 PUSH1 0x80 DUP4 ADD MSTORE PUSH2 0x11B5 PUSH2 0x19E5 JUMP JUMPDEST PUSH1 0xA0 DUP4 ADD MSTORE DUP6 PUSH1 0xC0 DUP4 ADD MSTORE DUP6 PUSH1 0xE0 DUP4 ADD MSTORE PUSH2 0x100 DUP3 ADD MSTORE PUSH1 0x40 MLOAD SWAP5 DUP6 DUP1 SWAP5 DUP2 SWAP4 PUSH4 0x664D54F5 PUSH1 0xE1 SHL DUP4 MSTORE ADDRESS SWAP1 PUSH1 0x4 DUP5 ADD PUSH2 0x16E2 JUMP JUMPDEST SUB SWAP3 GAS CALL SWAP1 DUP2 ISZERO PUSH2 0x20C JUMPI PUSH1 0x0 SWAP2 PUSH2 0x121E JUMPI JUMPDEST POP PUSH2 0x120A PUSH1 0x4 SLOAD TIMESTAMP PUSH2 0x178F JUMP JUMPDEST SWAP1 PUSH1 0x0 MSTORE PUSH1 0x9 PUSH1 0x20 MSTORE PUSH1 0x40 PUSH1 0x0 KECCAK256 SSTORE PUSH2 0xFB1 JUMP JUMPDEST SWAP1 POP PUSH1 0x20 DUP2 RETURNDATASIZE PUSH1 0x20 GT PUSH2 0x1248 JUMPI JUMPDEST DUP2 PUSH2 0x1239 PUSH1 0x20 SWAP4 DUP4 PUSH2 0x159C JUMP JUMPDEST DUP2 ADD SUB SLT PUSH2 0x218 JUMPI MLOAD DUP4 PUSH2 0x11FD JUMP JUMPDEST RETURNDATASIZE SWAP2 POP PUSH2 0x122C JUMP JUMPDEST PUSH4 0x4E487B71 PUSH1 0xE0 SHL PUSH1 0x0 MSTORE PUSH1 0x41 PUSH1 0x4 MSTORE PUSH1 0x24 PUSH1 0x0 REVERT JUMPDEST PUSH2 0x126F SWAP1 PUSH2 0x154F JUMP JUMPDEST DUP3 PUSH2 0xF5B JUMP JUMPDEST DUP1 EXTCODESIZE ISZERO PUSH2 0x218 JUMPI PUSH1 0x0 DUP1 SWAP2 PUSH1 0x44 PUSH1 0x40 MLOAD DUP1 SWAP5 DUP2 SWAP4 PUSH4 0x32FA5185 PUSH1 0xE2 SHL DUP4 MSTORE PUSH1 0x4 CALLDATALOAD PUSH1 0x4 DUP5 ADD MSTORE PUSH1 0x2 PUSH1 0x24 DUP5 ADD MSTORE GAS CALL DUP1 ISZERO PUSH2 0x20C JUMPI PUSH2 0x12DD JUMPI JUMPDEST POP PUSH1 0x4 CALLDATALOAD PUSH32 0xD92FBA445EDB3153B571E6DF782D7A66FD0CE668519273670820EE3A86DA0EF4 PUSH1 0x0 DUP1 LOG2 PUSH2 0xFB1 JUMP JUMPDEST PUSH2 0x12E6 SWAP1 PUSH2 0x154F JUMP JUMPDEST DUP3 PUSH2 0x12AF JUMP JUMPDEST MLOAD PUSH1 0x64 DUP2 MUL SWAP1 DUP1 DUP3 DIV PUSH1 0x64 EQ SWAP1 ISZERO OR ISZERO PUSH2 0xCC5 JUMPI DIV SWAP1 PUSH2 0xF0B JUMP JUMPDEST PUSH2 0x1325 SWAP2 SWAP3 POP RETURNDATASIZE DUP1 PUSH1 0x0 DUP4 RETURNDATACOPY PUSH2 0x131D DUP2 DUP4 PUSH2 0x159C JUMP JUMPDEST DUP2 ADD SWAP1 PUSH2 0x17F5 JUMP JUMPDEST SWAP1 DUP3 PUSH2 0xEDC JUMP JUMPDEST PUSH2 0x1341 SWAP2 POP RETURNDATASIZE DUP1 PUSH1 0x0 DUP4 RETURNDATACOPY PUSH2 0xA19 DUP2 DUP4 PUSH2 0x159C JUMP JUMPDEST DUP3 PUSH2 0xC39 JUMP JUMPDEST PUSH1 0x40 MLOAD PUSH3 0x461BCD PUSH1 0xE5 SHL DUP2 MSTORE PUSH1 0x20 PUSH1 0x4 DUP3 ADD MSTORE PUSH1 0x1A PUSH1 0x24 DUP3 ADD MSTORE PUSH32 0x50726F706F73616C20616C72656164792066696E616C697A6564000000000000 PUSH1 0x44 DUP3 ADD MSTORE PUSH1 0x64 SWAP1 REVERT JUMPDEST PUSH1 0x40 MLOAD PUSH3 0x461BCD PUSH1 0xE5 SHL DUP2 MSTORE PUSH1 0x20 PUSH1 0x4 DUP3 ADD MSTORE PUSH1 0x17 PUSH1 0x24 DUP3 ADD MSTORE PUSH32 0x566F74696E6720706572696F64206E6F7420656E646564000000000000000000 PUSH1 0x44 DUP3 ADD MSTORE PUSH1 0x64 SWAP1 REVERT JUMPDEST PUSH1 0x40 MLOAD PUSH3 0x461BCD PUSH1 0xE5 SHL DUP2 MSTORE PUSH1 0x20 PUSH1 0x4 DUP3 ADD MSTORE PUSH1 0x15 PUSH1 0x24 DUP3 ADD MSTORE PUSH21 0x139BDD0818481D9BDD1A5B99C81C1C9BDC1BDCD85B PUSH1 0x5A SHL PUSH1 0x44 DUP3 ADD MSTORE PUSH1 0x64 SWAP1 REVERT JUMPDEST PUSH2 0x1423 SWAP2 POP RETURNDATASIZE DUP1 PUSH1 0x0 DUP4 RETURNDATACOPY PUSH2 0x131D DUP2 DUP4 PUSH2 0x159C JUMP JUMPDEST DUP5 PUSH2 0xBDA JUMP JUMPDEST CALLVALUE PUSH2 0x218 JUMPI PUSH1 0x0 CALLDATASIZE PUSH1 0x3 NOT ADD SLT PUSH2 0x218 JUMPI PUSH1 0x20 PUSH1 0x7 SLOAD PUSH1 0x40 MLOAD SWAP1 DUP2 MSTORE RETURN JUMPDEST CALLVALUE PUSH2 0x218 JUMPI PUSH1 0x0 CALLDATASIZE PUSH1 0x3 NOT ADD SLT PUSH2 0x218 JUMPI PUSH1 0x0 SLOAD PUSH1 0x40 MLOAD PUSH1 0x1 PUSH1 0x1 PUSH1 0xA0 SHL SUB SWAP1 SWAP2 AND DUP2 MSTORE PUSH1 0x20 SWAP1 RETURN JUMPDEST CALLVALUE PUSH2 0x218 JUMPI PUSH1 0x0 CALLDATASIZE PUSH1 0x3 NOT ADD SLT PUSH2 0x218 JUMPI PUSH1 0x1 SLOAD PUSH1 0x40 MLOAD PUSH1 0x1 PUSH1 0x1 PUSH1 0xA0 SHL SUB SWAP1 SWAP2 AND DUP2 MSTORE PUSH1 0x20 SWAP1 RETURN JUMPDEST CALLVALUE PUSH2 0x218 JUMPI PUSH1 0x0 CALLDATASIZE PUSH1 0x3 NOT ADD SLT PUSH2 0x218 JUMPI PUSH1 0x20 PUSH1 0x4 SLOAD PUSH1 0x40 MLOAD SWAP1 DUP2 MSTORE RETURN JUMPDEST CALLVALUE PUSH2 0x218 JUMPI PUSH1 0x20 CALLDATASIZE PUSH1 0x3 NOT ADD SLT PUSH2 0x218 JUMPI PUSH1 0x4 CALLDATALOAD PUSH1 0x0 MSTORE PUSH1 0xA PUSH1 0x20 MSTORE PUSH1 0x20 PUSH1 0xFF PUSH1 0x40 PUSH1 0x0 KECCAK256 SLOAD AND PUSH1 0x40 MLOAD SWAP1 ISZERO ISZERO DUP2 MSTORE RETURN JUMPDEST CALLVALUE PUSH2 0x218 JUMPI PUSH1 0x0 CALLDATASIZE PUSH1 0x3 NOT ADD SLT PUSH2 0x218 JUMPI PUSH1 0x20 PUSH1 0x3 SLOAD PUSH1 0x40 MLOAD SWAP1 DUP2 MSTORE RETURN JUMPDEST CALLVALUE PUSH2 0x218 JUMPI PUSH1 0x0 CALLDATASIZE PUSH1 0x3 NOT ADD SLT PUSH2 0x218 JUMPI PUSH1 0x20 SWAP1 PUSH1 0x8 SLOAD DUP2 MSTORE RETURN JUMPDEST SWAP2 DUP2 PUSH1 0x1F DUP5 ADD SLT ISZERO PUSH2 0x218 JUMPI DUP3 CALLDATALOAD SWAP2 PUSH8 0xFFFFFFFFFFFFFFFF DUP4 GT PUSH2 0x218 JUMPI PUSH1 0x20 DUP4 DUP2 DUP7 ADD SWAP6 ADD ADD GT PUSH2 0x218 JUMPI JUMP JUMPDEST PUSH8 0xFFFFFFFFFFFFFFFF DUP2 GT PUSH2 0x1250 JUMPI PUSH1 0x40 MSTORE JUMP JUMPDEST PUSH2 0x120 DUP2 ADD SWAP1 DUP2 LT PUSH8 0xFFFFFFFFFFFFFFFF DUP3 GT OR PUSH2 0x1250 JUMPI PUSH1 0x40 MSTORE JUMP JUMPDEST PUSH1 0x40 DUP2 ADD SWAP1 DUP2 LT PUSH8 0xFFFFFFFFFFFFFFFF DUP3 GT OR PUSH2 0x1250 JUMPI PUSH1 0x40 MSTORE JUMP JUMPDEST SWAP1 PUSH1 0x1F DUP1 NOT SWAP2 ADD AND DUP2 ADD SWAP1 DUP2 LT PUSH8 0xFFFFFFFFFFFFFFFF DUP3 GT OR PUSH2 0x1250 JUMPI PUSH1 0x40 MSTORE JUMP JUMPDEST MLOAD SWAP1 DUP2 ISZERO ISZERO DUP3 SUB PUSH2 0x218 JUMPI JUMP JUMPDEST PUSH8 0xFFFFFFFFFFFFFFFF DUP2 GT PUSH2 0x1250 JUMPI PUSH1 0x1F ADD PUSH1 0x1F NOT AND PUSH1 0x20 ADD SWAP1 JUMP JUMPDEST RETURNDATASIZE ISZERO PUSH2 0x1612 JUMPI RETURNDATASIZE SWAP1 PUSH2 0x15F8 DUP3 PUSH2 0x15CB JUMP JUMPDEST SWAP2 PUSH2 0x1606 PUSH1 0x40 MLOAD SWAP4 DUP5 PUSH2 0x159C JUMP JUMPDEST DUP3 MSTORE RETURNDATASIZE PUSH1 0x0 PUSH1 0x20 DUP5 ADD RETURNDATACOPY JUMP JUMPDEST PUSH1 0x60 SWAP1 JUMP JUMPDEST ISZERO PUSH2 0x161E JUMPI JUMP JUMPDEST PUSH1 0x40 MLOAD PUSH3 0x461BCD PUSH1 0xE5 SHL DUP2 MSTORE PUSH1 0x20 PUSH1 0x4 DUP3 ADD MSTORE PUSH1 0x1B PUSH1 0x24 DUP3 ADD MSTORE PUSH32 0x44414F3A2043616C6C6572206973206E6F742061206D656D6265720000000000 PUSH1 0x44 DUP3 ADD MSTORE PUSH1 0x64 SWAP1 REVERT JUMPDEST SWAP3 SWAP2 SWAP3 PUSH2 0x166F DUP3 PUSH2 0x15CB JUMP JUMPDEST SWAP2 PUSH2 0x167D PUSH1 0x40 MLOAD SWAP4 DUP5 PUSH2 0x159C JUMP JUMPDEST DUP3 SWAP5 DUP2 DUP5 MSTORE DUP2 DUP4 ADD GT PUSH2 0x218 JUMPI DUP3 DUP2 PUSH1 0x20 SWAP4 DUP5 PUSH1 0x0 SWAP7 ADD CALLDATACOPY ADD ADD MSTORE JUMP JUMPDEST PUSH1 0x0 JUMPDEST DUP4 DUP2 LT PUSH2 0x16AD JUMPI POP POP PUSH1 0x0 SWAP2 ADD MSTORE JUMP JUMPDEST DUP2 DUP2 ADD MLOAD DUP4 DUP3 ADD MSTORE PUSH1 0x20 ADD PUSH2 0x169D JUMP JUMPDEST SWAP1 PUSH1 0x20 SWAP2 PUSH2 0x16D6 DUP2 MLOAD DUP1 SWAP3 DUP2 DUP6 MSTORE DUP6 DUP1 DUP7 ADD SWAP2 ADD PUSH2 0x169A JUMP JUMPDEST PUSH1 0x1F ADD PUSH1 0x1F NOT AND ADD ADD SWAP1 JUMP JUMPDEST SWAP1 PUSH1 0x20 SWAP1 SWAP4 SWAP3 SWAP4 PUSH1 0x40 DUP4 MSTORE DUP1 MLOAD SWAP1 PUSH2 0x1708 PUSH2 0x120 SWAP3 DUP4 PUSH1 0x40 DUP8 ADD MSTORE PUSH2 0x160 DUP7 ADD SWAP1 PUSH2 0x16BD JUMP JUMPDEST PUSH2 0x1723 DUP5 DUP4 ADD MLOAD SWAP2 PUSH1 0x3F NOT SWAP3 DUP4 DUP9 DUP4 SUB ADD PUSH1 0x60 DUP10 ADD MSTORE PUSH2 0x16BD JUMP JUMPDEST SWAP3 PUSH1 0x40 DUP4 ADD MLOAD PUSH1 0x80 DUP8 ADD MSTORE PUSH2 0x1767 PUSH1 0x1 DUP1 PUSH1 0xA0 SHL SUB SWAP5 DUP6 SWAP4 DUP5 PUSH1 0x60 DUP8 ADD MLOAD AND PUSH1 0xA0 DUP11 ADD MSTORE PUSH1 0x80 DUP7 ADD MLOAD ISZERO ISZERO PUSH1 0xC0 DUP11 ADD MSTORE PUSH1 0xA0 DUP7 ADD MLOAD SWAP1 DUP10 DUP4 SUB ADD PUSH1 0xE0 DUP11 ADD MSTORE PUSH2 0x16BD JUMP JUMPDEST SWAP3 PUSH1 0xC0 DUP2 ADD MLOAD SWAP2 PUSH2 0x100 SWAP3 DUP4 DUP10 ADD MSTORE PUSH1 0xE0 DUP3 ADD MLOAD SWAP1 DUP9 ADD MSTORE ADD MLOAD AND PUSH2 0x140 DUP6 ADD MSTORE SWAP5 AND SWAP2 ADD MSTORE JUMP JUMPDEST SWAP2 SWAP1 DUP3 ADD DUP1 SWAP3 GT PUSH2 0xCC5 JUMPI JUMP JUMPDEST DUP2 PUSH1 0x1F DUP3 ADD SLT ISZERO PUSH2 0x218 JUMPI DUP1 MLOAD PUSH2 0x17B2 DUP2 PUSH2 0x15CB JUMP JUMPDEST SWAP3 PUSH2 0x17C0 PUSH1 0x40 MLOAD SWAP5 DUP6 PUSH2 0x159C JUMP JUMPDEST DUP2 DUP5 MSTORE PUSH1 0x20 DUP3 DUP5 ADD ADD GT PUSH2 0x218 JUMPI PUSH2 0x17DE SWAP2 PUSH1 0x20 DUP1 DUP6 ADD SWAP2 ADD PUSH2 0x169A JUMP JUMPDEST SWAP1 JUMP JUMPDEST MLOAD SWAP1 PUSH1 0x1 PUSH1 0x1 PUSH1 0xA0 SHL SUB DUP3 AND DUP3 SUB PUSH2 0x218 JUMPI JUMP JUMPDEST SWAP1 PUSH1 0x20 DUP3 DUP3 SUB SLT PUSH2 0x218 JUMPI DUP2 MLOAD PUSH8 0xFFFFFFFFFFFFFFFF SWAP3 DUP4 DUP3 GT PUSH2 0x218 JUMPI ADD SWAP1 PUSH2 0x1E0 SWAP3 DUP4 DUP4 DUP4 SUB SLT PUSH2 0x218 JUMPI PUSH1 0x40 MLOAD SWAP4 DUP5 ADD DUP5 DUP2 LT DUP3 DUP3 GT OR PUSH2 0x1250 JUMPI PUSH1 0x40 MSTORE DUP3 MLOAD DUP2 DUP2 GT PUSH2 0x218 JUMPI DUP3 PUSH2 0x184B SWAP2 DUP6 ADD PUSH2 0x179C JUMP JUMPDEST DUP5 MSTORE PUSH1 0x20 DUP4 ADD MLOAD DUP2 DUP2 GT PUSH2 0x218 JUMPI DUP3 PUSH2 0x1865 SWAP2 DUP6 ADD PUSH2 0x179C JUMP JUMPDEST PUSH1 0x20 DUP6 ADD MSTORE PUSH1 0x40 DUP4 DUP2 ADD MLOAD SWAP1 DUP6 ADD MSTORE PUSH1 0x60 DUP4 ADD MLOAD PUSH1 0x1 PUSH1 0x1 PUSH1 0xA0 SHL SUB DUP2 AND DUP2 SUB PUSH2 0x218 JUMPI PUSH1 0x60 DUP6 ADD MSTORE PUSH1 0x80 DUP4 ADD MLOAD PUSH1 0x4 DUP2 LT ISZERO PUSH2 0x218 JUMPI PUSH1 0x80 DUP6 ADD MSTORE PUSH1 0xA0 DUP4 ADD MLOAD PUSH1 0xA0 DUP6 ADD MSTORE PUSH1 0xC0 DUP4 ADD MLOAD PUSH1 0xC0 DUP6 ADD MSTORE PUSH1 0xE0 DUP4 ADD MLOAD PUSH1 0xE0 DUP6 ADD MSTORE PUSH2 0x100 DUP1 DUP5 ADD MLOAD SWAP1 DUP6 ADD MSTORE PUSH2 0x120 PUSH2 0x18D8 DUP2 DUP6 ADD PUSH2 0x17E1 JUMP JUMPDEST SWAP1 DUP6 ADD MSTORE PUSH2 0x140 PUSH2 0x18EA DUP2 DUP6 ADD PUSH2 0x15BE JUMP JUMPDEST SWAP1 DUP6 ADD MSTORE PUSH2 0x160 SWAP2 DUP3 DUP5 ADD MLOAD SWAP2 DUP3 GT PUSH2 0x218 JUMPI PUSH2 0x1908 SWAP2 DUP5 ADD PUSH2 0x179C JUMP JUMPDEST SWAP1 DUP4 ADD MSTORE PUSH2 0x180 DUP1 DUP3 ADD MLOAD SWAP1 DUP4 ADD MSTORE PUSH2 0x1A0 DUP1 DUP3 ADD MLOAD SWAP1 DUP4 ADD MSTORE PUSH2 0x1930 PUSH2 0x1C0 DUP1 SWAP3 ADD PUSH2 0x17E1 JUMP JUMPDEST SWAP1 DUP3 ADD MSTORE SWAP1 JUMP JUMPDEST SWAP1 PUSH1 0x20 SWAP1 DUP2 DUP4 DUP3 SUB SLT PUSH2 0x218 JUMPI DUP3 MLOAD PUSH8 0xFFFFFFFFFFFFFFFF SWAP4 DUP5 DUP3 GT PUSH2 0x218 JUMPI ADD DUP2 PUSH1 0x1F DUP3 ADD SLT ISZERO PUSH2 0x218 JUMPI DUP1 MLOAD SWAP4 DUP5 GT PUSH2 0x1250 JUMPI DUP4 PUSH1 0x5 SHL SWAP1 PUSH1 0x40 MLOAD SWAP5 PUSH2 0x1981 DUP6 DUP5 ADD DUP8 PUSH2 0x159C JUMP JUMPDEST DUP6 MSTORE DUP4 DUP1 DUP7 ADD SWAP3 DUP3 ADD ADD SWAP3 DUP4 GT PUSH2 0x218 JUMPI DUP4 ADD SWAP1 JUMPDEST DUP3 DUP3 LT PUSH2 0x19A4 JUMPI POP POP POP POP SWAP1 JUMP JUMPDEST DUP4 DUP1 SWAP2 PUSH2 0x19B0 DUP5 PUSH2 0x17E1 JUMP JUMPDEST DUP2 MSTORE ADD SWAP2 ADD SWAP1 PUSH2 0x1996 JUMP JUMPDEST DUP1 MLOAD DUP3 LT ISZERO PUSH2 0x19CF JUMPI PUSH1 0x20 SWAP2 PUSH1 0x5 SHL ADD ADD SWAP1 JUMP JUMPDEST PUSH4 0x4E487B71 PUSH1 0xE0 SHL PUSH1 0x0 MSTORE PUSH1 0x32 PUSH1 0x4 MSTORE PUSH1 0x24 PUSH1 0x0 REVERT JUMPDEST PUSH1 0x40 MLOAD SWAP1 PUSH2 0x19F2 DUP3 PUSH2 0x1580 JUMP JUMPDEST PUSH1 0xF DUP3 MSTORE PUSH15 0x657865637574696F6E2D636865636B PUSH1 0x88 SHL PUSH1 0x20 DUP4 ADD MSTORE JUMP JUMPDEST PUSH1 0x1 DUP1 PUSH1 0xA0 SHL SUB PUSH1 0x0 SWAP2 DUP2 DUP4 SLOAD AND SWAP2 PUSH1 0x24 DUP5 PUSH1 0x40 SWAP5 DUP6 MLOAD SWAP3 DUP4 DUP1 SWAP3 PUSH4 0x18FEEB15 PUSH1 0xE3 SHL DUP3 MSTORE DUP8 PUSH1 0x4 DUP4 ADD MSTORE GAS STATICCALL SWAP1 DUP2 ISZERO PUSH2 0x1E74 JUMPI DUP6 SWAP2 PUSH2 0x1E5A JUMPI JUMPDEST POP PUSH2 0x160 DUP2 ADD MLOAD DUP1 MLOAD SWAP1 PUSH1 0x20 SWAP2 PUSH32 0x64209FE56A5BA1791FAC474C27DC1B9A6A4977F861D5D2396F722FCF844BE9F DUP4 DUP4 ADD SWAP2 DUP3 KECCAK256 PUSH12 0x1D1C99585CDD5C9E4B5BDD5D PUSH1 0xA2 SHL DUP6 DUP11 MLOAD PUSH2 0x1A9B DUP2 PUSH2 0x1580 JUMP JUMPDEST PUSH1 0xC DUP2 MSTORE ADD MSTORE SUB PUSH2 0x1AFD JUMPI POP POP POP POP PUSH1 0x2 SLOAD AND SWAP1 DUP2 EXTCODESIZE ISZERO PUSH2 0x1AF9 JUMPI DUP4 SWAP2 PUSH1 0x24 DUP4 SWAP3 DUP6 MLOAD SWAP7 DUP8 SWAP4 DUP5 SWAP3 PUSH4 0x21814F9 PUSH1 0xE4 SHL DUP5 MSTORE PUSH1 0x4 DUP5 ADD MSTORE GAS CALL SWAP2 DUP3 ISZERO PUSH2 0x1AEF JUMPI POP POP PUSH2 0x1AE4 JUMPI POP JUMP JUMPDEST PUSH2 0x1AED SWAP1 PUSH2 0x154F JUMP JUMPDEST JUMP JUMPDEST MLOAD SWAP1 RETURNDATASIZE SWAP1 DUP3 RETURNDATACOPY RETURNDATASIZE SWAP1 REVERT JUMPDEST DUP4 DUP1 REVERT JUMPDEST PUSH32 0x407AA5060640B5B11BD7A646D2A67DB16D0D8062F0162EE0107D6C4DF9647D0B DUP3 MLOAD DUP3 KECCAK256 PUSH11 0x3A3932B0B9BAB93C96B4B7 PUSH1 0xA9 SHL DUP6 DUP11 MLOAD PUSH2 0x1B3D DUP2 PUSH2 0x1580 JUMP JUMPDEST PUSH1 0xB DUP2 MSTORE ADD MSTORE SUB PUSH2 0x1B86 JUMPI POP POP POP POP PUSH1 0x2 SLOAD AND SWAP1 DUP2 EXTCODESIZE ISZERO PUSH2 0x1AF9 JUMPI DUP4 SWAP2 PUSH1 0x24 DUP4 SWAP3 DUP6 MLOAD SWAP7 DUP8 SWAP4 DUP5 SWAP3 PUSH4 0x7026E9FD PUSH1 0xE0 SHL DUP5 MSTORE PUSH1 0x4 DUP5 ADD MSTORE GAS CALL SWAP2 DUP3 ISZERO PUSH2 0x1AEF JUMPI POP POP PUSH2 0x1AE4 JUMPI POP JUMP JUMPDEST PUSH32 0x3263CAE112F9B06C4FE976E1E563A8899E0058ACAD03A56562786E4496D29F6B SWAP2 MLOAD SWAP1 KECCAK256 PUSH11 0x72756C652D6368616E6765 PUSH1 0xA8 SHL DUP4 DUP9 MLOAD PUSH2 0x1BC6 DUP2 PUSH2 0x1580 JUMP JUMPDEST PUSH1 0xB DUP2 MSTORE ADD MSTORE EQ PUSH2 0x1BDA JUMPI JUMPDEST POP POP POP POP POP POP JUMP JUMPDEST DUP2 MLOAD DUP1 MLOAD SWAP1 PUSH32 0x8D7CBFF25736090EF6444F570EE8941E761E0637E76A2B77E283FF85EC26489D DUP4 DUP3 ADD SWAP3 DUP4 KECCAK256 PUSH12 0x706173734372697465726961 PUSH1 0xA0 SHL DUP6 DUP11 MLOAD PUSH2 0x1C22 DUP2 PUSH2 0x1580 JUMP JUMPDEST PUSH1 0xC DUP2 MSTORE ADD MSTORE SUB PUSH2 0x1C8A JUMPI POP POP POP PUSH2 0x1A0 ADD MLOAD PUSH1 0x3 SSTORE JUMPDEST PUSH1 0x2 SLOAD AND SWAP1 DUP2 EXTCODESIZE ISZERO PUSH2 0x1AF9 JUMPI DUP4 SWAP2 PUSH1 0x24 DUP4 SWAP3 DUP6 MLOAD SWAP7 DUP8 SWAP4 DUP5 SWAP3 PUSH4 0x6F0D949D PUSH1 0xE1 SHL DUP5 MSTORE PUSH1 0x4 DUP5 ADD MSTORE GAS CALL SWAP2 DUP3 ISZERO PUSH2 0x1AEF JUMPI POP POP PUSH2 0x1C7B JUMPI JUMPDEST DUP1 DUP1 DUP1 DUP1 DUP1 PUSH2 0x1BD2 JUMP JUMPDEST PUSH2 0x1C84 SWAP1 PUSH2 0x154F JUMP JUMPDEST CODESIZE PUSH2 0x1C71 JUMP JUMPDEST PUSH32 0xABBFAB0BF365E6C544C4BDC8C27846B398EF85DEEB99659A1BD1CBBFDDBC69A1 DUP2 MLOAD DUP4 KECCAK256 PUSH14 0x3B37BA34B733A23AB930BA34B7B7 PUSH1 0x91 SHL DUP6 DUP11 MLOAD PUSH2 0x1CCD DUP2 PUSH2 0x1580 JUMP JUMPDEST PUSH1 0xE DUP2 MSTORE ADD MSTORE SUB PUSH2 0x1CE8 JUMPI POP POP POP PUSH2 0x1A0 ADD MLOAD PUSH1 0x4 SSTORE PUSH2 0x1C39 JUMP JUMPDEST PUSH32 0x5B1A74CA49FC06542EF79783AA6DB8771703259F73767276192F168BBDFAF8CB DUP2 MLOAD DUP4 KECCAK256 PUSH13 0x616273656E7450656E616C7479 PUSH1 0x98 SHL DUP6 DUP11 MLOAD PUSH2 0x1D2A DUP2 PUSH2 0x1580 JUMP JUMPDEST PUSH1 0xD DUP2 MSTORE ADD MSTORE SUB PUSH2 0x1D45 JUMPI POP POP POP PUSH2 0x1A0 ADD MLOAD PUSH1 0x5 SSTORE PUSH2 0x1C39 JUMP JUMPDEST PUSH32 0x343F1CEE2704E73B1859BB1BDD73F8FCE853B1F06EA40BD99F16C5C103E91318 DUP2 MLOAD DUP4 KECCAK256 PUSH8 0x656E747279466565 PUSH1 0xC0 SHL DUP6 DUP11 MLOAD PUSH2 0x1D82 DUP2 PUSH2 0x1580 JUMP JUMPDEST PUSH1 0x8 DUP2 MSTORE ADD MSTORE SUB PUSH2 0x1D9D JUMPI POP POP POP PUSH2 0x1A0 ADD MLOAD PUSH1 0x8 SSTORE PUSH2 0x1C39 JUMP JUMPDEST PUSH32 0x806B2CE9432A34CFC9FDAB6B94DB5BFCFDD69B0EAA656D83BEA17439BEBE142D DUP2 MLOAD DUP4 KECCAK256 PUSH12 0x18DBDD5B9D151BD15E1C195B PUSH1 0xA2 SHL DUP6 DUP11 MLOAD PUSH2 0x1DDE DUP2 PUSH2 0x1580 JUMP JUMPDEST PUSH1 0xC DUP2 MSTORE ADD MSTORE SUB PUSH2 0x1DF9 JUMPI POP POP POP PUSH2 0x1A0 ADD MLOAD PUSH1 0x6 SSTORE PUSH2 0x1C39 JUMP JUMPDEST MLOAD SWAP1 KECCAK256 DUP6 MLOAD PUSH32 0x7433394719DFD8FCF3F7EF7662D3D256FF5523945834C1C05AAD0D14D49B75B4 SWAP3 PUSH12 0x1CD8DBDC99551BD15E1C195B PUSH1 0xA2 SHL SWAP2 PUSH2 0x1E3A DUP2 PUSH2 0x1580 JUMP JUMPDEST PUSH1 0xC DUP2 MSTORE ADD MSTORE EQ PUSH2 0x1E4C JUMPI JUMPDEST POP PUSH2 0x1C39 JUMP JUMPDEST PUSH2 0x1A0 ADD MLOAD PUSH1 0x7 SSTORE CODESIZE PUSH2 0x1E46 JUMP JUMPDEST PUSH2 0x1E6E SWAP2 POP RETURNDATASIZE DUP1 DUP8 DUP4 RETURNDATACOPY PUSH2 0x131D DUP2 DUP4 PUSH2 0x159C JUMP JUMPDEST CODESIZE PUSH2 0x1A4B JUMP JUMPDEST DUP5 MLOAD RETURNDATASIZE DUP8 DUP3 RETURNDATACOPY RETURNDATASIZE SWAP1 REVERT INVALID LOG2 PUSH5 0x6970667358 0x22 SLT KECCAK256 PUSH13 0x3912527C60A91FBCD964BE2B94 0xCC 0xEB 0xB8 0xEA 0xFB 0xD0 GASLIMIT 0xAB LOG0 0x4F EQ JUMPDEST DUP3 SWAP13 PUSH3 0x6A1B5C PUSH5 0x736F6C6343 STOP ADDMOD EQ STOP CALLER "},"methodIdentifiers":{"absentPenalty()":"bdf91db5","adminSubGlassScore(address,uint256)":"57cce7d4","countToExpel()":"9f1f43af","createProposal(string,string,uint256,address,bool,string,uint256,uint256,address)":"bc2914b5","entryFee()":"072ea61c","executionContract()":"e0e93244","finalizeProposal(uint256)":"5652077c","getAllMembers()":"7c0f6b35","getMemberCount()":"997072f7","getTreasuryBalance()":"9b5655dc","joinDAO()":"f63d13d7","passCriteria()":"0fd2e6f9","proposalContract()":"3aef3900","proposalDeadline(uint256)":"c01f9e37","proposalExecuted(uint256)":"103616e8","scoreToExpel()":"52bc9e82","vaultContract()":"2274346b","vote(uint256,uint8)":"943e8216","votingDuration()":"132002fc"}}}}}