{"contracts/DAO.sol":{"DAO":{"abi":[{"inputs":[{"internalType":"address","name":"_proposal","type":"address"},{"internalType":"address","name":"_vault","type":"address"},{"internalType":"address","name":"_execution","type":"address"},{"internalType":"uint256","name":"_passCriteria","type":"uint256"},{"internalType":"uint256","name":"_votingDurationInSeconds","type":"uint256"},{"internalType":"uint256","name":"_absentPenaltyInWei","type":"uint256"},{"internalType":"uint256","name":"_countToExpel","type":"uint256"},{"internalType":"uint256","name":"_scoreToExpel","type":"uint256"},{"internalType":"uint256","name":"_entryFeeInWei","type":"uint256"},{"internalType":"bool","name":"_isPrivate","type":"bool"},{"internalType":"string","name":"_inviteCode","type":"string"}],"stateMutability":"nonpayable","type":"constructor"},{"anonymous":false,"inputs":[{"indexed":true,"internalType":"uint256","name":"proposalId","type":"uint256"}],"name":"ProposalPassed","type":"event"},{"anonymous":false,"inputs":[{"indexed":true,"internalType":"uint256","name":"proposalId","type":"uint256"}],"name":"ProposalRejected","type":"event"},{"inputs":[],"name":"absentPenalty","outputs":[{"internalType":"uint256","name":"","type":"uint256"}],"stateMutability":"view","type":"function"},{"inputs":[],"name":"countToExpel","outputs":[{"internalType":"uint256","name":"","type":"uint256"}],"stateMutability":"view","type":"function"},{"inputs":[{"internalType":"string","name":"title","type":"string"},{"internalType":"string","name":"description","type":"string"},{"internalType":"uint256","name":"amount","type":"uint256"},{"internalType":"address payable","name":"recipient","type":"address"},{"internalType":"bool","name":"requireVote","type":"bool"},{"internalType":"string","name":"sanctionType","type":"string"},{"internalType":"uint256","name":"beforeValue","type":"uint256"},{"internalType":"uint256","name":"afterValue","type":"uint256"},{"internalType":"address","name":"targetMember","type":"address"}],"name":"createProposal","outputs":[{"internalType":"uint256","name":"","type":"uint256"}],"stateMutability":"nonpayable","type":"function"},{"inputs":[],"name":"entryFee","outputs":[{"internalType":"uint256","name":"","type":"uint256"}],"stateMutability":"view","type":"function"},{"inputs":[],"name":"executionContract","outputs":[{"internalType":"contract Execution","name":"","type":"address"}],"stateMutability":"view","type":"function"},{"inputs":[{"internalType":"uint256","name":"proposalId","type":"uint256"}],"name":"finalizeProposal","outputs":[],"stateMutability":"nonpayable","type":"function"},{"inputs":[],"name":"getAllMembers","outputs":[{"internalType":"address[]","name":"","type":"address[]"}],"stateMutability":"view","type":"function"},{"inputs":[],"name":"getMemberCount","outputs":[{"internalType":"uint256","name":"","type":"uint256"}],"stateMutability":"view","type":"function"},{"inputs":[],"name":"getTreasuryBalance","outputs":[{"internalType":"uint256","name":"","type":"uint256"}],"stateMutability":"view","type":"function"},{"inputs":[],"name":"inviteCodeHash","outputs":[{"internalType":"bytes32","name":"","type":"bytes32"}],"stateMutability":"view","type":"function"},{"inputs":[{"internalType":"address","name":"user","type":"address"}],"name":"isMember","outputs":[{"internalType":"bool","name":"","type":"bool"}],"stateMutability":"view","type":"function"},{"inputs":[],"name":"isPrivate","outputs":[{"internalType":"bool","name":"","type":"bool"}],"stateMutability":"view","type":"function"},{"inputs":[],"name":"joinDAO","outputs":[],"stateMutability":"payable","type":"function"},{"inputs":[{"internalType":"string","name":"_inviteCode","type":"string"}],"name":"joinDAOWithCode","outputs":[],"stateMutability":"payable","type":"function"},{"inputs":[],"name":"passCriteria","outputs":[{"internalType":"uint256","name":"","type":"uint256"}],"stateMutability":"view","type":"function"},{"inputs":[],"name":"proposalContract","outputs":[{"internalType":"contract Proposal","name":"","type":"address"}],"stateMutability":"view","type":"function"},{"inputs":[{"internalType":"uint256","name":"","type":"uint256"}],"name":"proposalDeadline","outputs":[{"internalType":"uint256","name":"","type":"uint256"}],"stateMutability":"view","type":"function"},{"inputs":[{"internalType":"uint256","name":"","type":"uint256"}],"name":"proposalExecuted","outputs":[{"internalType":"bool","name":"","type":"bool"}],"stateMutability":"view","type":"function"},{"inputs":[],"name":"scoreToExpel","outputs":[{"internalType":"uint256","name":"","type":"uint256"}],"stateMutability":"view","type":"function"},{"inputs":[],"name":"vaultContract","outputs":[{"internalType":"contract Vault","name":"","type":"address"}],"stateMutability":"view","type":"function"},{"inputs":[{"internalType":"uint256","name":"proposalId","type":"uint256"},{"internalType":"uint8","name":"choice","type":"uint8"}],"name":"vote","outputs":[],"stateMutability":"nonpayable","type":"function"},{"inputs":[],"name":"votingDuration","outputs":[{"internalType":"uint256","name":"","type":"uint256"}],"stateMutability":"view","type":"function"},{"stateMutability":"payable","type":"receive"}],"evm":{"bytecode":{"linkReferences":{},"object":"60808060405234620001a75762001b73908138038092620000218284620001c2565b8239610160818381010312620001a7576200003c81620001e6565b6200004a60208301620001e6565b6200005860408401620001e6565b916060840151608085015160a08601519060c08701519260e088015194610100890151966101208a0151988915158a03620001a7576101408b01519a6001600160401b03808d11620001a757818e01828e01601f011215620001a7578c820151908111620001ac576040519c60208e620000dc601f8501601f1916830182620001c2565b838152019e8301602083838601010111620001a75760208f9162000102940101620001fb565b60018060a01b0380928160018060a01b03199516856000541617600055168360015416176001551690600254161760025560035560045560055560065560075560085560ff196009541660ff82151516176009556200016c575b6040516119529081620002218239f35b62000199602060405180936200018b83830196879251928391620001fb565b8101038084520182620001c2565b519020600a5538806200015c565b600080fd5b634e487b7160e01b600052604160045260246000fd5b601f909101601f19168101906001600160401b03821190821017620001ac57604052565b51906001600160a01b0382168203620001a757565b60005b8381106200020f5750506000910152565b8181015183820152602001620001fe56fe6080604052600436101561001b575b361561001957600080fd5b005b60003560e01c806243b3d8146110fc578063072ea61c146110de5780630fd2e6f9146110c0578063103616e81461108f578063132002fc146110715780632274346b146110485780633aef39001461101f57806352bc9e82146110015780635652077c146109b25780637c0f6b3514610908578063943e821614610785578063997072f7146107365780639b5655dc146106b55780639f1f43af14610697578063a230c5241461059e578063bc2914b5146101d8578063bdf91db5146101ba578063c01f9e371461018e578063cf5cbd6914610170578063e0e9324414610147578063f63d13d7146101395763faff660e0361000e573461013457600036600319011261013457602060ff600954166040519015158152f35b600080fd5b600036600319011261013457005b34610134576000366003190112610134576002546040516001600160a01b039091168152602090f35b34610134576000366003190112610134576020600a54604051908152f35b3461013457602036600319011261013457600435600052600b6020526020604060002054604051908152f35b34610134576000366003190112610134576020600554604051908152f35b3461013457610120366003190112610134576004356001600160401b038111610134576102099036906004016111db565b906024356001600160401b038111610134576102299036906004016111db565b9092909190606435906001600160a01b0382168203610134576084351515608435036101345760a4356001600160401b0381116101345761026e9036906004016111db565b610104359291906001600160a01b038416840361013457600054604051635087a34f60e11b81526001600160a01b0390911695906020816004818a5afa9081156104cc5760009161056b575b5060206102dd9160405180938192632474521560e21b8352339060048401611215565b03818a5afa9081156104cc57600091610531575b50156104ee57604051966001600160401b036101208901908111908911176104d85760009960209961033361033c93610367986101208d0160405236916111a4565b8a5236916111a4565b8789015260443560408801526001600160a01b031660608701526084351515608087015236916111a4565b60a084015260c43560c084015260e43560e084015260018060a01b0316610100830152604051809481809463664d54f560e11b8252604060048301526104186103be82516101206044860152610164850190611251565b6103d989840151916043199283878303016064880152611251565b6040840151608486015260608401516001600160a01b031660a48601526080840151151560c486015260a084015185820390920160e486015290611251565b60c082015161010484015260e0820151610124840152610100909101516001600160a01b031661014483015233602483015203925af180156104cc57600090610499575b602091506084351561048b5761047460045442611276565b81600052600b83526040600020555b604051908152f35b610494816114e0565b610483565b506020813d6020116104c4575b816104b360209383611166565b81010312610134576020905161045c565b3d91506104a6565b6040513d6000823e3d90fd5b634e487b7160e01b600052604160045260246000fd5b60405162461bcd60e51b815260206004820152601b60248201527a2220a79d1021b0b63632b91034b9903737ba10309036b2b6b132b960291b6044820152606490fd5b90506020813d602011610563575b8161054c60209383611166565b810103126101345761055d90611208565b8a6102f1565b3d915061053f565b90506020813d602011610596575b8161058660209383611166565b81010312610134575160206102ba565b3d9150610579565b3461013457602080600319360112610134576004356001600160a01b03808216820361013457600054604051635087a34f60e11b81529116918382600481865afa80156104cc578492600091610664575b509261061193604051809581948293632474521560e21b845260048401611215565b03915afa9081156104cc5760009161062f575b506040519015158152f35b90508181813d831161065d575b6106468183611166565b810103126101345761065790611208565b82610624565b503d61063c565b83819492503d8311610690575b61067b8183611166565b810103126101345790518391906106116105ef565b503d610671565b34610134576000366003190112610134576020600654604051908152f35b3461013457600036600319011261013457600154604051629032ff60e51b815290602090829060049082906001600160a01b03165afa80156104cc57600090610704575b602090604051908152f35b506020813d821161072e575b8161071d60209383611166565b8101031261013457602090516106f9565b3d9150610710565b346101345760003660031901126101345760005460405163997072f760e01b815290602090829060049082906001600160a01b03165afa80156104cc5760009061070457602090604051908152f35b346101345760403660031901126101345760243560ff811680910361013457600054604051635087a34f60e11b81526001600160a01b0390911691906020908181600481875afa80156104cc5782906000906108d9575b604051632474521560e21b81529250829081906107fe90339060048401611215565b0381875afa9081156104cc576000916108a4575b50156108635750813b1561013457600091606483926040519485938492630ce7fb8360e11b8452600435600485015260248401523360448401525af180156104cc5761085a57005b61001990611138565b6064906040519062461bcd60e51b82526004820152601a6024820152792220a79d21a0a62622a92fa4a9afa727aa2fa0afa6a2a6a122a960311b6044820152fd5b90508181813d83116108d2575b6108bb8183611166565b81010312610134576108cc90611208565b84610812565b503d6108b1565b5081813d8311610901575b6108ee8183611166565b8101031261013457816107fe91516107dc565b503d6108e4565b346101345760003660031901126101345760008054604051637c0f6b3560e01b81526001600160a01b039290918290600490829086165afa9081156104cc5760009161098f575b506040519060208083018184528251809152816040850193019160005b8281106109795785850386f35b835187168552938101939281019260010161096c565b6109ac91503d806000833e6109a48183611166565b810190611433565b8261094f565b346101345760208060031936011261013457600080546040516318feeb1560e31b808252600480359083018190526024959490936001600160a01b0393908416929091828881865afa9182156104cc57600092610fe4575b508161014081015115610fa85785600052600c875260ff60406000205416610f67578060e0610a4560a0610a4e94015160c084015190611276565b91015190611276565b9260405163997072f760e01b81528781600481855afa9081156104cc57600091610f3a575b508085109081159081610f30575b508015610f07575b15610ecd5786600052600b8852604060002054908115159182610ec3575b5081610ebb575b50610c0d575b505081610bdb57505060005b60035411610b60576000541692833b1561013457600160446000928360405197889485936332fa518560e21b85528860048601528401525af19283156104cc57600c93610b51575b50807fe36f8b7448daff4a52e2945db0d1d7a436279cc1d527a45c27835dcbd27f336d600080a2610b38816114e0565b600052526040600020600160ff19825416179055600080f35b610b5a90611138565b83610b08565b6000541692833b1561013457600260446000928360405197889485936332fa518560e21b85528860048601528401525af19283156104cc57600c93610bcc575b50807fd92fba445edb3153b571e6df782d7a66fd0ce668519273670820ee3a86da0ef4600080a2610b38565b610bd590611138565b83610ba0565b60a00151606481029080820460641490151715610bf85704610ac0565b85634e487b7160e01b60005260116004526000fd5b60049493506000919695925060405194858092637c0f6b3560e01b82525afa9283156104cc57600093610e9e575b5060005b8351811015610e2b578260005416610c7a8685610c5c85896114b6565b516040516362d4f89360e01b81529384928392168860048401611215565b0381855afa9081156104cc57600091610df6575b5015610cbc575b506000198114610ca757600101610c3f565b86634e487b7160e01b60005260116004526000fd5b83610cc783876114b6565b5116813b15610134576000918983926040519485938492635d437b8560e11b845260048401525af180156104cc57610de7575b50826000541683610d0b83876114b6565b511690803b156101345760405163a462e50f60e01b8152916000918391829084908290610d3c908a60048401611215565b03925af180156104cc57610dd8575b5060008080808660015416600554905af13d15610dd3573d610d6c81611189565b90610d7a6040519283611166565b81526000873d92013e5b15610d8f5787610c95565b60405162461bcd60e51b815260048101869052601f818901527f4661696c656420746f2073656e642070656e616c747920746f207661756c74006044820152606490fd5b610d84565b610de190611138565b87610d4b565b610df090611138565b87610cfa565b90508681813d8311610e24575b610e0d8183611166565b8101031261013457610e1e90611208565b89610c8e565b503d610e03565b50929390915060008281541691866040518094819382528760048301525afa9081156104cc57600091610e7b575b50610e738160e0610a4560a083015160c084015190611276565b908680610ab4565b610e9891503d806000833e610e908183611166565b8101906112f2565b85610e59565b610eb49193503d806000833e6109a48183611166565b9186610c3b565b905089610aae565b421191508a610aa7565b60405162461bcd60e51b8152600481018990526013818b01527210d85b9b9bdd08199a5b985b1a5e99481e595d606a1b6044820152606490fd5b5086600052600b88526040600020548015159081610f26575b50610a89565b905042118a610f20565b905015158a610a81565b90508781813d8311610f60575b610f518183611166565b81010312610134575189610a73565b503d610f47565b60405162461bcd60e51b815260048101889052601a818a015279141c9bdc1bdcd85b08185b1c9958591e48199a5b985b1a5e995960321b6044820152606490fd5b60405162461bcd60e51b8152600481018890526015818a015274139bdd0818481d9bdd1a5b99c81c1c9bdc1bdcd85b605a1b6044820152606490fd5b610ffa9192503d806000833e610e908183611166565b9087610a0a565b34610134576000366003190112610134576020600754604051908152f35b34610134576000366003190112610134576000546040516001600160a01b039091168152602090f35b34610134576000366003190112610134576001546040516001600160a01b039091168152602090f35b34610134576000366003190112610134576020600454604051908152f35b3461013457602036600319011261013457600435600052600c602052602060ff604060002054166040519015158152f35b34610134576000366003190112610134576020600354604051908152f35b34610134576000366003190112610134576020600854604051908152f35b6020366003190112610134576004356001600160401b0381116101345736602382011215610134576100199036906024816004013591016111a4565b6001600160401b0381116104d857604052565b604081019081106001600160401b038211176104d857604052565b601f909101601f19168101906001600160401b038211908210176104d857604052565b6001600160401b0381116104d857601f01601f191660200190565b9291926111b082611189565b916111be6040519384611166565b829481845281830111610134578281602093846000960137010152565b9181601f84011215610134578235916001600160401b038311610134576020838186019501011161013457565b5190811515820361013457565b9081526001600160a01b03909116602082015260400190565b60005b8381106112415750506000910152565b8181015183820152602001611231565b9060209161126a8151809281855285808601910161122e565b601f01601f1916010190565b9190820180921161128357565b634e487b7160e01b600052601160045260246000fd5b81601f820112156101345780516112af81611189565b926112bd6040519485611166565b81845260208284010111610134576112db916020808501910161122e565b90565b51906001600160a01b038216820361013457565b906020828203126101345781516001600160401b03928382116101345701906101e092838383031261013457604051938401848110828211176104d85760405282518181116101345782611347918501611299565b845260208301518181116101345782611361918501611299565b60208501526040838101519085015260608301516001600160a01b03811681036101345760608501526080830151600481101561013457608085015260a083015160a085015260c083015160c085015260e083015160e085015261010080840151908501526101206113d48185016112de565b908501526101406113e6818501611208565b90850152610160918284015191821161013457611404918401611299565b9083015261018080820151908301526101a0808201519083015261142c6101c08092016112de565b9082015290565b9060209081838203126101345782516001600160401b0393848211610134570181601f820112156101345780519384116104d8578360051b906040519461147c85840187611166565b85528380860192820101928311610134578301905b82821061149f575050505090565b8380916114ab846112de565b815201910190611491565b80518210156114ca5760209160051b010190565b634e487b7160e01b600052603260045260246000fd5b60018060a01b0360009181835416916024846040948551928380926318feeb1560e31b82528760048301525afa90811561193b578591611921575b506101608101805190855191602092611550848281611543818301968781519384920161122e565b8101038084520182611166565b5190208651838101906a3a3932b0b9bab93c96b4b760a91b8252600b81526115778161114b565b519020036115d5575050506002541690813b156115d15783916024839285519687938492637026e9fd60e01b845260048401525af19182156115c75750506115bc5750565b6115c590611138565b565b51903d90823e3d90fd5b8380fd5b805186516115f2848281611543818301968781519384920161122e565b5190208651838101906b1d1c99585cdd5c9e4b5bdd5d60a21b8252600c815261161a8161114b565b5190200361165f575050506002541690813b156115d1578391602483928551968793849263021814f960e41b845260048401525af19182156115c75750506115bc5750565b959290939195518551611681868281611543818301968781519384920161122e565b5190208551858101906a72756c652d6368616e676560a81b8252600b81526116a88161114b565b519020146116b9575b505050505050565b6002541690813b1561191d5782916024839287519586938492636f0d949d60e11b845260048401525af19081156119125750611903575b506101a083519301519282519082820181519261171785828186019661154381878a61122e565b5190208451848101906b70617373437269746572696160a01b8252600c815261173f8161114b565b5190200361175a57505050506003555b3880808080806116b1565b8351838101906117728582855161154381878a61122e565b5190208451848101906d3b37ba34b733a23ab930ba34b7b760911b8252600e815261179c8161114b565b519020036117b0575050505060045561174f565b8351838101906117c88582855161154381878a61122e565b5190208451848101906c616273656e7450656e616c747960981b8252600d81526117f18161114b565b51902003611805575050505060055561174f565b83518381019061181d8582855161154381878a61122e565b5190208451848101906b18dbdd5b9d151bd15e1c195b60a21b8252600c81526118458161114b565b51902003611859575050505060065561174f565b8351838101906118718582855161154381878a61122e565b5190208451848101906b1cd8dbdc99551bd15e1c195b60a21b8252600c81526118998161114b565b519020036118ad575050505060075561174f565b6118c783855180936115438383019687925192839161122e565b51902091519081019067656e74727946656560c01b8252600881526118eb8161114b565b519020146118fa575b5061174f565b600855386118f4565b61190c90611138565b386116f0565b8451903d90823e3d90fd5b8280fd5b61193591503d8087833e610e908183611166565b3861151b565b84513d87823e3d90fdfea164736f6c6343000814000a","opcodes":"PUSH1 0x80 DUP1 PUSH1 0x40 MSTORE CALLVALUE PUSH3 0x1A7 JUMPI PUSH3 0x1B73 SWAP1 DUP2 CODESIZE SUB DUP1 SWAP3 PUSH3 0x21 DUP3 DUP5 PUSH3 0x1C2 JUMP JUMPDEST DUP3 CODECOPY PUSH2 0x160 DUP2 DUP4 DUP2 ADD SUB SLT PUSH3 0x1A7 JUMPI PUSH3 0x3C DUP2 PUSH3 0x1E6 JUMP JUMPDEST PUSH3 0x4A PUSH1 0x20 DUP4 ADD PUSH3 0x1E6 JUMP JUMPDEST PUSH3 0x58 PUSH1 0x40 DUP5 ADD PUSH3 0x1E6 JUMP JUMPDEST SWAP2 PUSH1 0x60 DUP5 ADD MLOAD PUSH1 0x80 DUP6 ADD MLOAD PUSH1 0xA0 DUP7 ADD MLOAD SWAP1 PUSH1 0xC0 DUP8 ADD MLOAD SWAP3 PUSH1 0xE0 DUP9 ADD MLOAD SWAP5 PUSH2 0x100 DUP10 ADD MLOAD SWAP7 PUSH2 0x120 DUP11 ADD MLOAD SWAP9 DUP10 ISZERO ISZERO DUP11 SUB PUSH3 0x1A7 JUMPI PUSH2 0x140 DUP12 ADD MLOAD SWAP11 PUSH1 0x1 PUSH1 0x1 PUSH1 0x40 SHL SUB DUP1 DUP14 GT PUSH3 0x1A7 JUMPI DUP2 DUP15 ADD DUP3 DUP15 ADD PUSH1 0x1F ADD SLT ISZERO PUSH3 0x1A7 JUMPI DUP13 DUP3 ADD MLOAD SWAP1 DUP2 GT PUSH3 0x1AC JUMPI PUSH1 0x40 MLOAD SWAP13 PUSH1 0x20 DUP15 PUSH3 0xDC PUSH1 0x1F DUP6 ADD PUSH1 0x1F NOT AND DUP4 ADD DUP3 PUSH3 0x1C2 JUMP JUMPDEST DUP4 DUP2 MSTORE ADD SWAP15 DUP4 ADD PUSH1 0x20 DUP4 DUP4 DUP7 ADD ADD ADD GT PUSH3 0x1A7 JUMPI PUSH1 0x20 DUP16 SWAP2 PUSH3 0x102 SWAP5 ADD ADD PUSH3 0x1FB JUMP JUMPDEST PUSH1 0x1 DUP1 PUSH1 0xA0 SHL SUB DUP1 SWAP3 DUP2 PUSH1 0x1 DUP1 PUSH1 0xA0 SHL SUB NOT SWAP6 AND DUP6 PUSH1 0x0 SLOAD AND OR PUSH1 0x0 SSTORE AND DUP4 PUSH1 0x1 SLOAD AND OR PUSH1 0x1 SSTORE AND SWAP1 PUSH1 0x2 SLOAD AND OR PUSH1 0x2 SSTORE PUSH1 0x3 SSTORE PUSH1 0x4 SSTORE PUSH1 0x5 SSTORE PUSH1 0x6 SSTORE PUSH1 0x7 SSTORE PUSH1 0x8 SSTORE PUSH1 0xFF NOT PUSH1 0x9 SLOAD AND PUSH1 0xFF DUP3 ISZERO ISZERO AND OR PUSH1 0x9 SSTORE PUSH3 0x16C JUMPI JUMPDEST PUSH1 0x40 MLOAD PUSH2 0x1952 SWAP1 DUP2 PUSH3 0x221 DUP3 CODECOPY RETURN JUMPDEST PUSH3 0x199 PUSH1 0x20 PUSH1 0x40 MLOAD DUP1 SWAP4 PUSH3 0x18B DUP4 DUP4 ADD SWAP7 DUP8 SWAP3 MLOAD SWAP3 DUP4 SWAP2 PUSH3 0x1FB JUMP JUMPDEST DUP2 ADD SUB DUP1 DUP5 MSTORE ADD DUP3 PUSH3 0x1C2 JUMP JUMPDEST MLOAD SWAP1 KECCAK256 PUSH1 0xA SSTORE CODESIZE DUP1 PUSH3 0x15C JUMP JUMPDEST PUSH1 0x0 DUP1 REVERT JUMPDEST PUSH4 0x4E487B71 PUSH1 0xE0 SHL PUSH1 0x0 MSTORE PUSH1 0x41 PUSH1 0x4 MSTORE PUSH1 0x24 PUSH1 0x0 REVERT JUMPDEST PUSH1 0x1F SWAP1 SWAP2 ADD PUSH1 0x1F NOT AND DUP2 ADD SWAP1 PUSH1 0x1 PUSH1 0x1 PUSH1 0x40 SHL SUB DUP3 GT SWAP1 DUP3 LT OR PUSH3 0x1AC JUMPI PUSH1 0x40 MSTORE JUMP JUMPDEST MLOAD SWAP1 PUSH1 0x1 PUSH1 0x1 PUSH1 0xA0 SHL SUB DUP3 AND DUP3 SUB PUSH3 0x1A7 JUMPI JUMP JUMPDEST PUSH1 0x0 JUMPDEST DUP4 DUP2 LT PUSH3 0x20F JUMPI POP POP PUSH1 0x0 SWAP2 ADD MSTORE JUMP JUMPDEST DUP2 DUP2 ADD MLOAD DUP4 DUP3 ADD MSTORE PUSH1 0x20 ADD PUSH3 0x1FE JUMP INVALID PUSH1 0x80 PUSH1 0x40 MSTORE PUSH1 0x4 CALLDATASIZE LT ISZERO PUSH2 0x1B JUMPI JUMPDEST CALLDATASIZE ISZERO PUSH2 0x19 JUMPI PUSH1 0x0 DUP1 REVERT JUMPDEST STOP JUMPDEST PUSH1 0x0 CALLDATALOAD PUSH1 0xE0 SHR DUP1 PUSH3 0x43B3D8 EQ PUSH2 0x10FC JUMPI DUP1 PUSH4 0x72EA61C EQ PUSH2 0x10DE JUMPI DUP1 PUSH4 0xFD2E6F9 EQ PUSH2 0x10C0 JUMPI DUP1 PUSH4 0x103616E8 EQ PUSH2 0x108F JUMPI DUP1 PUSH4 0x132002FC EQ PUSH2 0x1071 JUMPI DUP1 PUSH4 0x2274346B EQ PUSH2 0x1048 JUMPI DUP1 PUSH4 0x3AEF3900 EQ PUSH2 0x101F JUMPI DUP1 PUSH4 0x52BC9E82 EQ PUSH2 0x1001 JUMPI DUP1 PUSH4 0x5652077C EQ PUSH2 0x9B2 JUMPI DUP1 PUSH4 0x7C0F6B35 EQ PUSH2 0x908 JUMPI DUP1 PUSH4 0x943E8216 EQ PUSH2 0x785 JUMPI DUP1 PUSH4 0x997072F7 EQ PUSH2 0x736 JUMPI DUP1 PUSH4 0x9B5655DC EQ PUSH2 0x6B5 JUMPI DUP1 PUSH4 0x9F1F43AF EQ PUSH2 0x697 JUMPI DUP1 PUSH4 0xA230C524 EQ PUSH2 0x59E JUMPI DUP1 PUSH4 0xBC2914B5 EQ PUSH2 0x1D8 JUMPI DUP1 PUSH4 0xBDF91DB5 EQ PUSH2 0x1BA JUMPI DUP1 PUSH4 0xC01F9E37 EQ PUSH2 0x18E JUMPI DUP1 PUSH4 0xCF5CBD69 EQ PUSH2 0x170 JUMPI DUP1 PUSH4 0xE0E93244 EQ PUSH2 0x147 JUMPI DUP1 PUSH4 0xF63D13D7 EQ PUSH2 0x139 JUMPI PUSH4 0xFAFF660E SUB PUSH2 0xE JUMPI CALLVALUE PUSH2 0x134 JUMPI PUSH1 0x0 CALLDATASIZE PUSH1 0x3 NOT ADD SLT PUSH2 0x134 JUMPI PUSH1 0x20 PUSH1 0xFF PUSH1 0x9 SLOAD AND PUSH1 0x40 MLOAD SWAP1 ISZERO ISZERO DUP2 MSTORE RETURN JUMPDEST PUSH1 0x0 DUP1 REVERT JUMPDEST PUSH1 0x0 CALLDATASIZE PUSH1 0x3 NOT ADD SLT PUSH2 0x134 JUMPI STOP JUMPDEST CALLVALUE PUSH2 0x134 JUMPI PUSH1 0x0 CALLDATASIZE PUSH1 0x3 NOT ADD SLT PUSH2 0x134 JUMPI PUSH1 0x2 SLOAD PUSH1 0x40 MLOAD PUSH1 0x1 PUSH1 0x1 PUSH1 0xA0 SHL SUB SWAP1 SWAP2 AND DUP2 MSTORE PUSH1 0x20 SWAP1 RETURN JUMPDEST CALLVALUE PUSH2 0x134 JUMPI PUSH1 0x0 CALLDATASIZE PUSH1 0x3 NOT ADD SLT PUSH2 0x134 JUMPI PUSH1 0x20 PUSH1 0xA SLOAD PUSH1 0x40 MLOAD SWAP1 DUP2 MSTORE RETURN JUMPDEST CALLVALUE PUSH2 0x134 JUMPI PUSH1 0x20 CALLDATASIZE PUSH1 0x3 NOT ADD SLT PUSH2 0x134 JUMPI PUSH1 0x4 CALLDATALOAD PUSH1 0x0 MSTORE PUSH1 0xB PUSH1 0x20 MSTORE PUSH1 0x20 PUSH1 0x40 PUSH1 0x0 KECCAK256 SLOAD PUSH1 0x40 MLOAD SWAP1 DUP2 MSTORE RETURN JUMPDEST CALLVALUE PUSH2 0x134 JUMPI PUSH1 0x0 CALLDATASIZE PUSH1 0x3 NOT ADD SLT PUSH2 0x134 JUMPI PUSH1 0x20 PUSH1 0x5 SLOAD PUSH1 0x40 MLOAD SWAP1 DUP2 MSTORE RETURN JUMPDEST CALLVALUE PUSH2 0x134 JUMPI PUSH2 0x120 CALLDATASIZE PUSH1 0x3 NOT ADD SLT PUSH2 0x134 JUMPI PUSH1 0x4 CALLDATALOAD PUSH1 0x1 PUSH1 0x1 PUSH1 0x40 SHL SUB DUP2 GT PUSH2 0x134 JUMPI PUSH2 0x209 SWAP1 CALLDATASIZE SWAP1 PUSH1 0x4 ADD PUSH2 0x11DB JUMP JUMPDEST SWAP1 PUSH1 0x24 CALLDATALOAD PUSH1 0x1 PUSH1 0x1 PUSH1 0x40 SHL SUB DUP2 GT PUSH2 0x134 JUMPI PUSH2 0x229 SWAP1 CALLDATASIZE SWAP1 PUSH1 0x4 ADD PUSH2 0x11DB JUMP JUMPDEST SWAP1 SWAP3 SWAP1 SWAP2 SWAP1 PUSH1 0x64 CALLDATALOAD SWAP1 PUSH1 0x1 PUSH1 0x1 PUSH1 0xA0 SHL SUB DUP3 AND DUP3 SUB PUSH2 0x134 JUMPI PUSH1 0x84 CALLDATALOAD ISZERO ISZERO PUSH1 0x84 CALLDATALOAD SUB PUSH2 0x134 JUMPI PUSH1 0xA4 CALLDATALOAD PUSH1 0x1 PUSH1 0x1 PUSH1 0x40 SHL SUB DUP2 GT PUSH2 0x134 JUMPI PUSH2 0x26E SWAP1 CALLDATASIZE SWAP1 PUSH1 0x4 ADD PUSH2 0x11DB JUMP JUMPDEST PUSH2 0x104 CALLDATALOAD SWAP3 SWAP2 SWAP1 PUSH1 0x1 PUSH1 0x1 PUSH1 0xA0 SHL SUB DUP5 AND DUP5 SUB PUSH2 0x134 JUMPI PUSH1 0x0 SLOAD PUSH1 0x40 MLOAD PUSH4 0x5087A34F PUSH1 0xE1 SHL DUP2 MSTORE PUSH1 0x1 PUSH1 0x1 PUSH1 0xA0 SHL SUB SWAP1 SWAP2 AND SWAP6 SWAP1 PUSH1 0x20 DUP2 PUSH1 0x4 DUP2 DUP11 GAS STATICCALL SWAP1 DUP2 ISZERO PUSH2 0x4CC JUMPI PUSH1 0x0 SWAP2 PUSH2 0x56B JUMPI JUMPDEST POP PUSH1 0x20 PUSH2 0x2DD SWAP2 PUSH1 0x40 MLOAD DUP1 SWAP4 DUP2 SWAP3 PUSH4 0x24745215 PUSH1 0xE2 SHL DUP4 MSTORE CALLER SWAP1 PUSH1 0x4 DUP5 ADD PUSH2 0x1215 JUMP JUMPDEST SUB DUP2 DUP11 GAS STATICCALL SWAP1 DUP2 ISZERO PUSH2 0x4CC JUMPI PUSH1 0x0 SWAP2 PUSH2 0x531 JUMPI JUMPDEST POP ISZERO PUSH2 0x4EE JUMPI PUSH1 0x40 MLOAD SWAP7 PUSH1 0x1 PUSH1 0x1 PUSH1 0x40 SHL SUB PUSH2 0x120 DUP10 ADD SWAP1 DUP2 GT SWAP1 DUP10 GT OR PUSH2 0x4D8 JUMPI PUSH1 0x0 SWAP10 PUSH1 0x20 SWAP10 PUSH2 0x333 PUSH2 0x33C SWAP4 PUSH2 0x367 SWAP9 PUSH2 0x120 DUP14 ADD PUSH1 0x40 MSTORE CALLDATASIZE SWAP2 PUSH2 0x11A4 JUMP JUMPDEST DUP11 MSTORE CALLDATASIZE SWAP2 PUSH2 0x11A4 JUMP JUMPDEST DUP8 DUP10 ADD MSTORE PUSH1 0x44 CALLDATALOAD PUSH1 0x40 DUP9 ADD MSTORE PUSH1 0x1 PUSH1 0x1 PUSH1 0xA0 SHL SUB AND PUSH1 0x60 DUP8 ADD MSTORE PUSH1 0x84 CALLDATALOAD ISZERO ISZERO PUSH1 0x80 DUP8 ADD MSTORE CALLDATASIZE SWAP2 PUSH2 0x11A4 JUMP JUMPDEST PUSH1 0xA0 DUP5 ADD MSTORE PUSH1 0xC4 CALLDATALOAD PUSH1 0xC0 DUP5 ADD MSTORE PUSH1 0xE4 CALLDATALOAD PUSH1 0xE0 DUP5 ADD MSTORE PUSH1 0x1 DUP1 PUSH1 0xA0 SHL SUB AND PUSH2 0x100 DUP4 ADD MSTORE PUSH1 0x40 MLOAD DUP1 SWAP5 DUP2 DUP1 SWAP5 PUSH4 0x664D54F5 PUSH1 0xE1 SHL DUP3 MSTORE PUSH1 0x40 PUSH1 0x4 DUP4 ADD MSTORE PUSH2 0x418 PUSH2 0x3BE DUP3 MLOAD PUSH2 0x120 PUSH1 0x44 DUP7 ADD MSTORE PUSH2 0x164 DUP6 ADD SWAP1 PUSH2 0x1251 JUMP JUMPDEST PUSH2 0x3D9 DUP10 DUP5 ADD MLOAD SWAP2 PUSH1 0x43 NOT SWAP3 DUP4 DUP8 DUP4 SUB ADD PUSH1 0x64 DUP9 ADD MSTORE PUSH2 0x1251 JUMP JUMPDEST PUSH1 0x40 DUP5 ADD MLOAD PUSH1 0x84 DUP7 ADD MSTORE PUSH1 0x60 DUP5 ADD MLOAD PUSH1 0x1 PUSH1 0x1 PUSH1 0xA0 SHL SUB AND PUSH1 0xA4 DUP7 ADD MSTORE PUSH1 0x80 DUP5 ADD MLOAD ISZERO ISZERO PUSH1 0xC4 DUP7 ADD MSTORE PUSH1 0xA0 DUP5 ADD MLOAD DUP6 DUP3 SUB SWAP1 SWAP3 ADD PUSH1 0xE4 DUP7 ADD MSTORE SWAP1 PUSH2 0x1251 JUMP JUMPDEST PUSH1 0xC0 DUP3 ADD MLOAD PUSH2 0x104 DUP5 ADD MSTORE PUSH1 0xE0 DUP3 ADD MLOAD PUSH2 0x124 DUP5 ADD MSTORE PUSH2 0x100 SWAP1 SWAP2 ADD MLOAD PUSH1 0x1 PUSH1 0x1 PUSH1 0xA0 SHL SUB AND PUSH2 0x144 DUP4 ADD MSTORE CALLER PUSH1 0x24 DUP4 ADD MSTORE SUB SWAP3 GAS CALL DUP1 ISZERO PUSH2 0x4CC JUMPI PUSH1 0x0 SWAP1 PUSH2 0x499 JUMPI JUMPDEST PUSH1 0x20 SWAP2 POP PUSH1 0x84 CALLDATALOAD ISZERO PUSH2 0x48B JUMPI PUSH2 0x474 PUSH1 0x4 SLOAD TIMESTAMP PUSH2 0x1276 JUMP JUMPDEST DUP2 PUSH1 0x0 MSTORE PUSH1 0xB DUP4 MSTORE PUSH1 0x40 PUSH1 0x0 KECCAK256 SSTORE JUMPDEST PUSH1 0x40 MLOAD SWAP1 DUP2 MSTORE RETURN JUMPDEST PUSH2 0x494 DUP2 PUSH2 0x14E0 JUMP JUMPDEST PUSH2 0x483 JUMP JUMPDEST POP PUSH1 0x20 DUP2 RETURNDATASIZE PUSH1 0x20 GT PUSH2 0x4C4 JUMPI JUMPDEST DUP2 PUSH2 0x4B3 PUSH1 0x20 SWAP4 DUP4 PUSH2 0x1166 JUMP JUMPDEST DUP2 ADD SUB SLT PUSH2 0x134 JUMPI PUSH1 0x20 SWAP1 MLOAD PUSH2 0x45C JUMP JUMPDEST RETURNDATASIZE SWAP2 POP PUSH2 0x4A6 JUMP JUMPDEST PUSH1 0x40 MLOAD RETURNDATASIZE PUSH1 0x0 DUP3 RETURNDATACOPY RETURNDATASIZE SWAP1 REVERT JUMPDEST PUSH4 0x4E487B71 PUSH1 0xE0 SHL PUSH1 0x0 MSTORE PUSH1 0x41 PUSH1 0x4 MSTORE PUSH1 0x24 PUSH1 0x0 REVERT JUMPDEST PUSH1 0x40 MLOAD PUSH3 0x461BCD PUSH1 0xE5 SHL DUP2 MSTORE PUSH1 0x20 PUSH1 0x4 DUP3 ADD MSTORE PUSH1 0x1B PUSH1 0x24 DUP3 ADD MSTORE PUSH27 0x2220A79D1021B0B63632B91034B9903737BA10309036B2B6B132B9 PUSH1 0x29 SHL PUSH1 0x44 DUP3 ADD MSTORE PUSH1 0x64 SWAP1 REVERT JUMPDEST SWAP1 POP PUSH1 0x20 DUP2 RETURNDATASIZE PUSH1 0x20 GT PUSH2 0x563 JUMPI JUMPDEST DUP2 PUSH2 0x54C PUSH1 0x20 SWAP4 DUP4 PUSH2 0x1166 JUMP JUMPDEST DUP2 ADD SUB SLT PUSH2 0x134 JUMPI PUSH2 0x55D SWAP1 PUSH2 0x1208 JUMP JUMPDEST DUP11 PUSH2 0x2F1 JUMP JUMPDEST RETURNDATASIZE SWAP2 POP PUSH2 0x53F JUMP JUMPDEST SWAP1 POP PUSH1 0x20 DUP2 RETURNDATASIZE PUSH1 0x20 GT PUSH2 0x596 JUMPI JUMPDEST DUP2 PUSH2 0x586 PUSH1 0x20 SWAP4 DUP4 PUSH2 0x1166 JUMP JUMPDEST DUP2 ADD SUB SLT PUSH2 0x134 JUMPI MLOAD PUSH1 0x20 PUSH2 0x2BA JUMP JUMPDEST RETURNDATASIZE SWAP2 POP PUSH2 0x579 JUMP JUMPDEST CALLVALUE PUSH2 0x134 JUMPI PUSH1 0x20 DUP1 PUSH1 0x3 NOT CALLDATASIZE ADD SLT PUSH2 0x134 JUMPI PUSH1 0x4 CALLDATALOAD PUSH1 0x1 PUSH1 0x1 PUSH1 0xA0 SHL SUB DUP1 DUP3 AND DUP3 SUB PUSH2 0x134 JUMPI PUSH1 0x0 SLOAD PUSH1 0x40 MLOAD PUSH4 0x5087A34F PUSH1 0xE1 SHL DUP2 MSTORE SWAP2 AND SWAP2 DUP4 DUP3 PUSH1 0x4 DUP2 DUP7 GAS STATICCALL DUP1 ISZERO PUSH2 0x4CC JUMPI DUP5 SWAP3 PUSH1 0x0 SWAP2 PUSH2 0x664 JUMPI JUMPDEST POP SWAP3 PUSH2 0x611 SWAP4 PUSH1 0x40 MLOAD DUP1 SWAP6 DUP2 SWAP5 DUP3 SWAP4 PUSH4 0x24745215 PUSH1 0xE2 SHL DUP5 MSTORE PUSH1 0x4 DUP5 ADD PUSH2 0x1215 JUMP JUMPDEST SUB SWAP2 GAS STATICCALL SWAP1 DUP2 ISZERO PUSH2 0x4CC JUMPI PUSH1 0x0 SWAP2 PUSH2 0x62F JUMPI JUMPDEST POP PUSH1 0x40 MLOAD SWAP1 ISZERO ISZERO DUP2 MSTORE RETURN JUMPDEST SWAP1 POP DUP2 DUP2 DUP2 RETURNDATASIZE DUP4 GT PUSH2 0x65D JUMPI JUMPDEST PUSH2 0x646 DUP2 DUP4 PUSH2 0x1166 JUMP JUMPDEST DUP2 ADD SUB SLT PUSH2 0x134 JUMPI PUSH2 0x657 SWAP1 PUSH2 0x1208 JUMP JUMPDEST DUP3 PUSH2 0x624 JUMP JUMPDEST POP RETURNDATASIZE PUSH2 0x63C JUMP JUMPDEST DUP4 DUP2 SWAP5 SWAP3 POP RETURNDATASIZE DUP4 GT PUSH2 0x690 JUMPI JUMPDEST PUSH2 0x67B DUP2 DUP4 PUSH2 0x1166 JUMP JUMPDEST DUP2 ADD SUB SLT PUSH2 0x134 JUMPI SWAP1 MLOAD DUP4 SWAP2 SWAP1 PUSH2 0x611 PUSH2 0x5EF JUMP JUMPDEST POP RETURNDATASIZE PUSH2 0x671 JUMP JUMPDEST CALLVALUE PUSH2 0x134 JUMPI PUSH1 0x0 CALLDATASIZE PUSH1 0x3 NOT ADD SLT PUSH2 0x134 JUMPI PUSH1 0x20 PUSH1 0x6 SLOAD PUSH1 0x40 MLOAD SWAP1 DUP2 MSTORE RETURN JUMPDEST CALLVALUE PUSH2 0x134 JUMPI PUSH1 0x0 CALLDATASIZE PUSH1 0x3 NOT ADD SLT PUSH2 0x134 JUMPI PUSH1 0x1 SLOAD PUSH1 0x40 MLOAD PUSH3 0x9032FF PUSH1 0xE5 SHL DUP2 MSTORE SWAP1 PUSH1 0x20 SWAP1 DUP3 SWAP1 PUSH1 0x4 SWAP1 DUP3 SWAP1 PUSH1 0x1 PUSH1 0x1 PUSH1 0xA0 SHL SUB AND GAS STATICCALL DUP1 ISZERO PUSH2 0x4CC JUMPI PUSH1 0x0 SWAP1 PUSH2 0x704 JUMPI JUMPDEST PUSH1 0x20 SWAP1 PUSH1 0x40 MLOAD SWAP1 DUP2 MSTORE RETURN JUMPDEST POP PUSH1 0x20 DUP2 RETURNDATASIZE DUP3 GT PUSH2 0x72E JUMPI JUMPDEST DUP2 PUSH2 0x71D PUSH1 0x20 SWAP4 DUP4 PUSH2 0x1166 JUMP JUMPDEST DUP2 ADD SUB SLT PUSH2 0x134 JUMPI PUSH1 0x20 SWAP1 MLOAD PUSH2 0x6F9 JUMP JUMPDEST RETURNDATASIZE SWAP2 POP PUSH2 0x710 JUMP JUMPDEST CALLVALUE PUSH2 0x134 JUMPI PUSH1 0x0 CALLDATASIZE PUSH1 0x3 NOT ADD SLT PUSH2 0x134 JUMPI PUSH1 0x0 SLOAD PUSH1 0x40 MLOAD PUSH4 0x997072F7 PUSH1 0xE0 SHL DUP2 MSTORE SWAP1 PUSH1 0x20 SWAP1 DUP3 SWAP1 PUSH1 0x4 SWAP1 DUP3 SWAP1 PUSH1 0x1 PUSH1 0x1 PUSH1 0xA0 SHL SUB AND GAS STATICCALL DUP1 ISZERO PUSH2 0x4CC JUMPI PUSH1 0x0 SWAP1 PUSH2 0x704 JUMPI PUSH1 0x20 SWAP1 PUSH1 0x40 MLOAD SWAP1 DUP2 MSTORE RETURN JUMPDEST CALLVALUE PUSH2 0x134 JUMPI PUSH1 0x40 CALLDATASIZE PUSH1 0x3 NOT ADD SLT PUSH2 0x134 JUMPI PUSH1 0x24 CALLDATALOAD PUSH1 0xFF DUP2 AND DUP1 SWAP2 SUB PUSH2 0x134 JUMPI PUSH1 0x0 SLOAD PUSH1 0x40 MLOAD PUSH4 0x5087A34F PUSH1 0xE1 SHL DUP2 MSTORE PUSH1 0x1 PUSH1 0x1 PUSH1 0xA0 SHL SUB SWAP1 SWAP2 AND SWAP2 SWAP1 PUSH1 0x20 SWAP1 DUP2 DUP2 PUSH1 0x4 DUP2 DUP8 GAS STATICCALL DUP1 ISZERO PUSH2 0x4CC JUMPI DUP3 SWAP1 PUSH1 0x0 SWAP1 PUSH2 0x8D9 JUMPI JUMPDEST PUSH1 0x40 MLOAD PUSH4 0x24745215 PUSH1 0xE2 SHL DUP2 MSTORE SWAP3 POP DUP3 SWAP1 DUP2 SWAP1 PUSH2 0x7FE SWAP1 CALLER SWAP1 PUSH1 0x4 DUP5 ADD PUSH2 0x1215 JUMP JUMPDEST SUB DUP2 DUP8 GAS STATICCALL SWAP1 DUP2 ISZERO PUSH2 0x4CC JUMPI PUSH1 0x0 SWAP2 PUSH2 0x8A4 JUMPI JUMPDEST POP ISZERO PUSH2 0x863 JUMPI POP DUP2 EXTCODESIZE ISZERO PUSH2 0x134 JUMPI PUSH1 0x0 SWAP2 PUSH1 0x64 DUP4 SWAP3 PUSH1 0x40 MLOAD SWAP5 DUP6 SWAP4 DUP5 SWAP3 PUSH4 0xCE7FB83 PUSH1 0xE1 SHL DUP5 MSTORE PUSH1 0x4 CALLDATALOAD PUSH1 0x4 DUP6 ADD MSTORE PUSH1 0x24 DUP5 ADD MSTORE CALLER PUSH1 0x44 DUP5 ADD MSTORE GAS CALL DUP1 ISZERO PUSH2 0x4CC JUMPI PUSH2 0x85A JUMPI STOP JUMPDEST PUSH2 0x19 SWAP1 PUSH2 0x1138 JUMP JUMPDEST PUSH1 0x64 SWAP1 PUSH1 0x40 MLOAD SWAP1 PUSH3 0x461BCD PUSH1 0xE5 SHL DUP3 MSTORE PUSH1 0x4 DUP3 ADD MSTORE PUSH1 0x1A PUSH1 0x24 DUP3 ADD MSTORE PUSH26 0x2220A79D21A0A62622A92FA4A9AFA727AA2FA0AFA6A2A6A122A9 PUSH1 0x31 SHL PUSH1 0x44 DUP3 ADD MSTORE REVERT JUMPDEST SWAP1 POP DUP2 DUP2 DUP2 RETURNDATASIZE DUP4 GT PUSH2 0x8D2 JUMPI JUMPDEST PUSH2 0x8BB DUP2 DUP4 PUSH2 0x1166 JUMP JUMPDEST DUP2 ADD SUB SLT PUSH2 0x134 JUMPI PUSH2 0x8CC SWAP1 PUSH2 0x1208 JUMP JUMPDEST DUP5 PUSH2 0x812 JUMP JUMPDEST POP RETURNDATASIZE PUSH2 0x8B1 JUMP JUMPDEST POP DUP2 DUP2 RETURNDATASIZE DUP4 GT PUSH2 0x901 JUMPI JUMPDEST PUSH2 0x8EE DUP2 DUP4 PUSH2 0x1166 JUMP JUMPDEST DUP2 ADD SUB SLT PUSH2 0x134 JUMPI DUP2 PUSH2 0x7FE SWAP2 MLOAD PUSH2 0x7DC JUMP JUMPDEST POP RETURNDATASIZE PUSH2 0x8E4 JUMP JUMPDEST CALLVALUE PUSH2 0x134 JUMPI PUSH1 0x0 CALLDATASIZE PUSH1 0x3 NOT ADD SLT PUSH2 0x134 JUMPI PUSH1 0x0 DUP1 SLOAD PUSH1 0x40 MLOAD PUSH4 0x7C0F6B35 PUSH1 0xE0 SHL DUP2 MSTORE PUSH1 0x1 PUSH1 0x1 PUSH1 0xA0 SHL SUB SWAP3 SWAP1 SWAP2 DUP3 SWAP1 PUSH1 0x4 SWAP1 DUP3 SWAP1 DUP7 AND GAS STATICCALL SWAP1 DUP2 ISZERO PUSH2 0x4CC JUMPI PUSH1 0x0 SWAP2 PUSH2 0x98F JUMPI JUMPDEST POP PUSH1 0x40 MLOAD SWAP1 PUSH1 0x20 DUP1 DUP4 ADD DUP2 DUP5 MSTORE DUP3 MLOAD DUP1 SWAP2 MSTORE DUP2 PUSH1 0x40 DUP6 ADD SWAP4 ADD SWAP2 PUSH1 0x0 JUMPDEST DUP3 DUP2 LT PUSH2 0x979 JUMPI DUP6 DUP6 SUB DUP7 RETURN JUMPDEST DUP4 MLOAD DUP8 AND DUP6 MSTORE SWAP4 DUP2 ADD SWAP4 SWAP3 DUP2 ADD SWAP3 PUSH1 0x1 ADD PUSH2 0x96C JUMP JUMPDEST PUSH2 0x9AC SWAP2 POP RETURNDATASIZE DUP1 PUSH1 0x0 DUP4 RETURNDATACOPY PUSH2 0x9A4 DUP2 DUP4 PUSH2 0x1166 JUMP JUMPDEST DUP2 ADD SWAP1 PUSH2 0x1433 JUMP JUMPDEST DUP3 PUSH2 0x94F JUMP JUMPDEST CALLVALUE PUSH2 0x134 JUMPI PUSH1 0x20 DUP1 PUSH1 0x3 NOT CALLDATASIZE ADD SLT PUSH2 0x134 JUMPI PUSH1 0x0 DUP1 SLOAD PUSH1 0x40 MLOAD PUSH4 0x18FEEB15 PUSH1 0xE3 SHL DUP1 DUP3 MSTORE PUSH1 0x4 DUP1 CALLDATALOAD SWAP1 DUP4 ADD DUP2 SWAP1 MSTORE PUSH1 0x24 SWAP6 SWAP5 SWAP1 SWAP4 PUSH1 0x1 PUSH1 0x1 PUSH1 0xA0 SHL SUB SWAP4 SWAP1 DUP5 AND SWAP3 SWAP1 SWAP2 DUP3 DUP9 DUP2 DUP7 GAS STATICCALL SWAP2 DUP3 ISZERO PUSH2 0x4CC JUMPI PUSH1 0x0 SWAP3 PUSH2 0xFE4 JUMPI JUMPDEST POP DUP2 PUSH2 0x140 DUP2 ADD MLOAD ISZERO PUSH2 0xFA8 JUMPI DUP6 PUSH1 0x0 MSTORE PUSH1 0xC DUP8 MSTORE PUSH1 0xFF PUSH1 0x40 PUSH1 0x0 KECCAK256 SLOAD AND PUSH2 0xF67 JUMPI DUP1 PUSH1 0xE0 PUSH2 0xA45 PUSH1 0xA0 PUSH2 0xA4E SWAP5 ADD MLOAD PUSH1 0xC0 DUP5 ADD MLOAD SWAP1 PUSH2 0x1276 JUMP JUMPDEST SWAP2 ADD MLOAD SWAP1 PUSH2 0x1276 JUMP JUMPDEST SWAP3 PUSH1 0x40 MLOAD PUSH4 0x997072F7 PUSH1 0xE0 SHL DUP2 MSTORE DUP8 DUP2 PUSH1 0x4 DUP2 DUP6 GAS STATICCALL SWAP1 DUP2 ISZERO PUSH2 0x4CC JUMPI PUSH1 0x0 SWAP2 PUSH2 0xF3A JUMPI JUMPDEST POP DUP1 DUP6 LT SWAP1 DUP2 ISZERO SWAP1 DUP2 PUSH2 0xF30 JUMPI JUMPDEST POP DUP1 ISZERO PUSH2 0xF07 JUMPI JUMPDEST ISZERO PUSH2 0xECD JUMPI DUP7 PUSH1 0x0 MSTORE PUSH1 0xB DUP9 MSTORE PUSH1 0x40 PUSH1 0x0 KECCAK256 SLOAD SWAP1 DUP2 ISZERO ISZERO SWAP2 DUP3 PUSH2 0xEC3 JUMPI JUMPDEST POP DUP2 PUSH2 0xEBB JUMPI JUMPDEST POP PUSH2 0xC0D JUMPI JUMPDEST POP POP DUP2 PUSH2 0xBDB JUMPI POP POP PUSH1 0x0 JUMPDEST PUSH1 0x3 SLOAD GT PUSH2 0xB60 JUMPI PUSH1 0x0 SLOAD AND SWAP3 DUP4 EXTCODESIZE ISZERO PUSH2 0x134 JUMPI PUSH1 0x1 PUSH1 0x44 PUSH1 0x0 SWAP3 DUP4 PUSH1 0x40 MLOAD SWAP8 DUP9 SWAP5 DUP6 SWAP4 PUSH4 0x32FA5185 PUSH1 0xE2 SHL DUP6 MSTORE DUP9 PUSH1 0x4 DUP7 ADD MSTORE DUP5 ADD MSTORE GAS CALL SWAP3 DUP4 ISZERO PUSH2 0x4CC JUMPI PUSH1 0xC SWAP4 PUSH2 0xB51 JUMPI JUMPDEST POP DUP1 PUSH32 0xE36F8B7448DAFF4A52E2945DB0D1D7A436279CC1D527A45C27835DCBD27F336D PUSH1 0x0 DUP1 LOG2 PUSH2 0xB38 DUP2 PUSH2 0x14E0 JUMP JUMPDEST PUSH1 0x0 MSTORE MSTORE PUSH1 0x40 PUSH1 0x0 KECCAK256 PUSH1 0x1 PUSH1 0xFF NOT DUP3 SLOAD AND OR SWAP1 SSTORE PUSH1 0x0 DUP1 RETURN JUMPDEST PUSH2 0xB5A SWAP1 PUSH2 0x1138 JUMP JUMPDEST DUP4 PUSH2 0xB08 JUMP JUMPDEST PUSH1 0x0 SLOAD AND SWAP3 DUP4 EXTCODESIZE ISZERO PUSH2 0x134 JUMPI PUSH1 0x2 PUSH1 0x44 PUSH1 0x0 SWAP3 DUP4 PUSH1 0x40 MLOAD SWAP8 DUP9 SWAP5 DUP6 SWAP4 PUSH4 0x32FA5185 PUSH1 0xE2 SHL DUP6 MSTORE DUP9 PUSH1 0x4 DUP7 ADD MSTORE DUP5 ADD MSTORE GAS CALL SWAP3 DUP4 ISZERO PUSH2 0x4CC JUMPI PUSH1 0xC SWAP4 PUSH2 0xBCC JUMPI JUMPDEST POP DUP1 PUSH32 0xD92FBA445EDB3153B571E6DF782D7A66FD0CE668519273670820EE3A86DA0EF4 PUSH1 0x0 DUP1 LOG2 PUSH2 0xB38 JUMP JUMPDEST PUSH2 0xBD5 SWAP1 PUSH2 0x1138 JUMP JUMPDEST DUP4 PUSH2 0xBA0 JUMP JUMPDEST PUSH1 0xA0 ADD MLOAD PUSH1 0x64 DUP2 MUL SWAP1 DUP1 DUP3 DIV PUSH1 0x64 EQ SWAP1 ISZERO OR ISZERO PUSH2 0xBF8 JUMPI DIV PUSH2 0xAC0 JUMP JUMPDEST DUP6 PUSH4 0x4E487B71 PUSH1 0xE0 SHL PUSH1 0x0 MSTORE PUSH1 0x11 PUSH1 0x4 MSTORE PUSH1 0x0 REVERT JUMPDEST PUSH1 0x4 SWAP5 SWAP4 POP PUSH1 0x0 SWAP2 SWAP7 SWAP6 SWAP3 POP PUSH1 0x40 MLOAD SWAP5 DUP6 DUP1 SWAP3 PUSH4 0x7C0F6B35 PUSH1 0xE0 SHL DUP3 MSTORE GAS STATICCALL SWAP3 DUP4 ISZERO PUSH2 0x4CC JUMPI PUSH1 0x0 SWAP4 PUSH2 0xE9E JUMPI JUMPDEST POP PUSH1 0x0 JUMPDEST DUP4 MLOAD DUP2 LT ISZERO PUSH2 0xE2B JUMPI DUP3 PUSH1 0x0 SLOAD AND PUSH2 0xC7A DUP7 DUP6 PUSH2 0xC5C DUP6 DUP10 PUSH2 0x14B6 JUMP JUMPDEST MLOAD PUSH1 0x40 MLOAD PUSH4 0x62D4F893 PUSH1 0xE0 SHL DUP2 MSTORE SWAP4 DUP5 SWAP3 DUP4 SWAP3 AND DUP9 PUSH1 0x4 DUP5 ADD PUSH2 0x1215 JUMP JUMPDEST SUB DUP2 DUP6 GAS STATICCALL SWAP1 DUP2 ISZERO PUSH2 0x4CC JUMPI PUSH1 0x0 SWAP2 PUSH2 0xDF6 JUMPI JUMPDEST POP ISZERO PUSH2 0xCBC JUMPI JUMPDEST POP PUSH1 0x0 NOT DUP2 EQ PUSH2 0xCA7 JUMPI PUSH1 0x1 ADD PUSH2 0xC3F JUMP JUMPDEST DUP7 PUSH4 0x4E487B71 PUSH1 0xE0 SHL PUSH1 0x0 MSTORE PUSH1 0x11 PUSH1 0x4 MSTORE PUSH1 0x0 REVERT JUMPDEST DUP4 PUSH2 0xCC7 DUP4 DUP8 PUSH2 0x14B6 JUMP JUMPDEST MLOAD AND DUP2 EXTCODESIZE ISZERO PUSH2 0x134 JUMPI PUSH1 0x0 SWAP2 DUP10 DUP4 SWAP3 PUSH1 0x40 MLOAD SWAP5 DUP6 SWAP4 DUP5 SWAP3 PUSH4 0x5D437B85 PUSH1 0xE1 SHL DUP5 MSTORE PUSH1 0x4 DUP5 ADD MSTORE GAS CALL DUP1 ISZERO PUSH2 0x4CC JUMPI PUSH2 0xDE7 JUMPI JUMPDEST POP DUP3 PUSH1 0x0 SLOAD AND DUP4 PUSH2 0xD0B DUP4 DUP8 PUSH2 0x14B6 JUMP JUMPDEST MLOAD AND SWAP1 DUP1 EXTCODESIZE ISZERO PUSH2 0x134 JUMPI PUSH1 0x40 MLOAD PUSH4 0xA462E50F PUSH1 0xE0 SHL DUP2 MSTORE SWAP2 PUSH1 0x0 SWAP2 DUP4 SWAP2 DUP3 SWAP1 DUP5 SWAP1 DUP3 SWAP1 PUSH2 0xD3C SWAP1 DUP11 PUSH1 0x4 DUP5 ADD PUSH2 0x1215 JUMP JUMPDEST SUB SWAP3 GAS CALL DUP1 ISZERO PUSH2 0x4CC JUMPI PUSH2 0xDD8 JUMPI JUMPDEST POP PUSH1 0x0 DUP1 DUP1 DUP1 DUP7 PUSH1 0x1 SLOAD AND PUSH1 0x5 SLOAD SWAP1 GAS CALL RETURNDATASIZE ISZERO PUSH2 0xDD3 JUMPI RETURNDATASIZE PUSH2 0xD6C DUP2 PUSH2 0x1189 JUMP JUMPDEST SWAP1 PUSH2 0xD7A PUSH1 0x40 MLOAD SWAP3 DUP4 PUSH2 0x1166 JUMP JUMPDEST DUP2 MSTORE PUSH1 0x0 DUP8 RETURNDATASIZE SWAP3 ADD RETURNDATACOPY JUMPDEST ISZERO PUSH2 0xD8F JUMPI DUP8 PUSH2 0xC95 JUMP JUMPDEST PUSH1 0x40 MLOAD PUSH3 0x461BCD PUSH1 0xE5 SHL DUP2 MSTORE PUSH1 0x4 DUP2 ADD DUP7 SWAP1 MSTORE PUSH1 0x1F DUP2 DUP10 ADD MSTORE PUSH32 0x4661696C656420746F2073656E642070656E616C747920746F207661756C7400 PUSH1 0x44 DUP3 ADD MSTORE PUSH1 0x64 SWAP1 REVERT JUMPDEST PUSH2 0xD84 JUMP JUMPDEST PUSH2 0xDE1 SWAP1 PUSH2 0x1138 JUMP JUMPDEST DUP8 PUSH2 0xD4B JUMP JUMPDEST PUSH2 0xDF0 SWAP1 PUSH2 0x1138 JUMP JUMPDEST DUP8 PUSH2 0xCFA JUMP JUMPDEST SWAP1 POP DUP7 DUP2 DUP2 RETURNDATASIZE DUP4 GT PUSH2 0xE24 JUMPI JUMPDEST PUSH2 0xE0D DUP2 DUP4 PUSH2 0x1166 JUMP JUMPDEST DUP2 ADD SUB SLT PUSH2 0x134 JUMPI PUSH2 0xE1E SWAP1 PUSH2 0x1208 JUMP JUMPDEST DUP10 PUSH2 0xC8E JUMP JUMPDEST POP RETURNDATASIZE PUSH2 0xE03 JUMP JUMPDEST POP SWAP3 SWAP4 SWAP1 SWAP2 POP PUSH1 0x0 DUP3 DUP2 SLOAD AND SWAP2 DUP7 PUSH1 0x40 MLOAD DUP1 SWAP5 DUP2 SWAP4 DUP3 MSTORE DUP8 PUSH1 0x4 DUP4 ADD MSTORE GAS STATICCALL SWAP1 DUP2 ISZERO PUSH2 0x4CC JUMPI PUSH1 0x0 SWAP2 PUSH2 0xE7B JUMPI JUMPDEST POP PUSH2 0xE73 DUP2 PUSH1 0xE0 PUSH2 0xA45 PUSH1 0xA0 DUP4 ADD MLOAD PUSH1 0xC0 DUP5 ADD MLOAD SWAP1 PUSH2 0x1276 JUMP JUMPDEST SWAP1 DUP7 DUP1 PUSH2 0xAB4 JUMP JUMPDEST PUSH2 0xE98 SWAP2 POP RETURNDATASIZE DUP1 PUSH1 0x0 DUP4 RETURNDATACOPY PUSH2 0xE90 DUP2 DUP4 PUSH2 0x1166 JUMP JUMPDEST DUP2 ADD SWAP1 PUSH2 0x12F2 JUMP JUMPDEST DUP6 PUSH2 0xE59 JUMP JUMPDEST PUSH2 0xEB4 SWAP2 SWAP4 POP RETURNDATASIZE DUP1 PUSH1 0x0 DUP4 RETURNDATACOPY PUSH2 0x9A4 DUP2 DUP4 PUSH2 0x1166 JUMP JUMPDEST SWAP2 DUP7 PUSH2 0xC3B JUMP JUMPDEST SWAP1 POP DUP10 PUSH2 0xAAE JUMP JUMPDEST TIMESTAMP GT SWAP2 POP DUP11 PUSH2 0xAA7 JUMP JUMPDEST PUSH1 0x40 MLOAD PUSH3 0x461BCD PUSH1 0xE5 SHL DUP2 MSTORE PUSH1 0x4 DUP2 ADD DUP10 SWAP1 MSTORE PUSH1 0x13 DUP2 DUP12 ADD MSTORE PUSH19 0x10D85B9B9BDD08199A5B985B1A5E99481E595D PUSH1 0x6A SHL PUSH1 0x44 DUP3 ADD MSTORE PUSH1 0x64 SWAP1 REVERT JUMPDEST POP DUP7 PUSH1 0x0 MSTORE PUSH1 0xB DUP9 MSTORE PUSH1 0x40 PUSH1 0x0 KECCAK256 SLOAD DUP1 ISZERO ISZERO SWAP1 DUP2 PUSH2 0xF26 JUMPI JUMPDEST POP PUSH2 0xA89 JUMP JUMPDEST SWAP1 POP TIMESTAMP GT DUP11 PUSH2 0xF20 JUMP JUMPDEST SWAP1 POP ISZERO ISZERO DUP11 PUSH2 0xA81 JUMP JUMPDEST SWAP1 POP DUP8 DUP2 DUP2 RETURNDATASIZE DUP4 GT PUSH2 0xF60 JUMPI JUMPDEST PUSH2 0xF51 DUP2 DUP4 PUSH2 0x1166 JUMP JUMPDEST DUP2 ADD SUB SLT PUSH2 0x134 JUMPI MLOAD DUP10 PUSH2 0xA73 JUMP JUMPDEST POP RETURNDATASIZE PUSH2 0xF47 JUMP JUMPDEST PUSH1 0x40 MLOAD PUSH3 0x461BCD PUSH1 0xE5 SHL DUP2 MSTORE PUSH1 0x4 DUP2 ADD DUP9 SWAP1 MSTORE PUSH1 0x1A DUP2 DUP11 ADD MSTORE PUSH26 0x141C9BDC1BDCD85B08185B1C9958591E48199A5B985B1A5E9959 PUSH1 0x32 SHL PUSH1 0x44 DUP3 ADD MSTORE PUSH1 0x64 SWAP1 REVERT JUMPDEST PUSH1 0x40 MLOAD PUSH3 0x461BCD PUSH1 0xE5 SHL DUP2 MSTORE PUSH1 0x4 DUP2 ADD DUP9 SWAP1 MSTORE PUSH1 0x15 DUP2 DUP11 ADD MSTORE PUSH21 0x139BDD0818481D9BDD1A5B99C81C1C9BDC1BDCD85B PUSH1 0x5A SHL PUSH1 0x44 DUP3 ADD MSTORE PUSH1 0x64 SWAP1 REVERT JUMPDEST PUSH2 0xFFA SWAP2 SWAP3 POP RETURNDATASIZE DUP1 PUSH1 0x0 DUP4 RETURNDATACOPY PUSH2 0xE90 DUP2 DUP4 PUSH2 0x1166 JUMP JUMPDEST SWAP1 DUP8 PUSH2 0xA0A JUMP JUMPDEST CALLVALUE PUSH2 0x134 JUMPI PUSH1 0x0 CALLDATASIZE PUSH1 0x3 NOT ADD SLT PUSH2 0x134 JUMPI PUSH1 0x20 PUSH1 0x7 SLOAD PUSH1 0x40 MLOAD SWAP1 DUP2 MSTORE RETURN JUMPDEST CALLVALUE PUSH2 0x134 JUMPI PUSH1 0x0 CALLDATASIZE PUSH1 0x3 NOT ADD SLT PUSH2 0x134 JUMPI PUSH1 0x0 SLOAD PUSH1 0x40 MLOAD PUSH1 0x1 PUSH1 0x1 PUSH1 0xA0 SHL SUB SWAP1 SWAP2 AND DUP2 MSTORE PUSH1 0x20 SWAP1 RETURN JUMPDEST CALLVALUE PUSH2 0x134 JUMPI PUSH1 0x0 CALLDATASIZE PUSH1 0x3 NOT ADD SLT PUSH2 0x134 JUMPI PUSH1 0x1 SLOAD PUSH1 0x40 MLOAD PUSH1 0x1 PUSH1 0x1 PUSH1 0xA0 SHL SUB SWAP1 SWAP2 AND DUP2 MSTORE PUSH1 0x20 SWAP1 RETURN JUMPDEST CALLVALUE PUSH2 0x134 JUMPI PUSH1 0x0 CALLDATASIZE PUSH1 0x3 NOT ADD SLT PUSH2 0x134 JUMPI PUSH1 0x20 PUSH1 0x4 SLOAD PUSH1 0x40 MLOAD SWAP1 DUP2 MSTORE RETURN JUMPDEST CALLVALUE PUSH2 0x134 JUMPI PUSH1 0x20 CALLDATASIZE PUSH1 0x3 NOT ADD SLT PUSH2 0x134 JUMPI PUSH1 0x4 CALLDATALOAD PUSH1 0x0 MSTORE PUSH1 0xC PUSH1 0x20 MSTORE PUSH1 0x20 PUSH1 0xFF PUSH1 0x40 PUSH1 0x0 KECCAK256 SLOAD AND PUSH1 0x40 MLOAD SWAP1 ISZERO ISZERO DUP2 MSTORE RETURN JUMPDEST CALLVALUE PUSH2 0x134 JUMPI PUSH1 0x0 CALLDATASIZE PUSH1 0x3 NOT ADD SLT PUSH2 0x134 JUMPI PUSH1 0x20 PUSH1 0x3 SLOAD PUSH1 0x40 MLOAD SWAP1 DUP2 MSTORE RETURN JUMPDEST CALLVALUE PUSH2 0x134 JUMPI PUSH1 0x0 CALLDATASIZE PUSH1 0x3 NOT ADD SLT PUSH2 0x134 JUMPI PUSH1 0x20 PUSH1 0x8 SLOAD PUSH1 0x40 MLOAD SWAP1 DUP2 MSTORE RETURN JUMPDEST PUSH1 0x20 CALLDATASIZE PUSH1 0x3 NOT ADD SLT PUSH2 0x134 JUMPI PUSH1 0x4 CALLDATALOAD PUSH1 0x1 PUSH1 0x1 PUSH1 0x40 SHL SUB DUP2 GT PUSH2 0x134 JUMPI CALLDATASIZE PUSH1 0x23 DUP3 ADD SLT ISZERO PUSH2 0x134 JUMPI PUSH2 0x19 SWAP1 CALLDATASIZE SWAP1 PUSH1 0x24 DUP2 PUSH1 0x4 ADD CALLDATALOAD SWAP2 ADD PUSH2 0x11A4 JUMP JUMPDEST PUSH1 0x1 PUSH1 0x1 PUSH1 0x40 SHL SUB DUP2 GT PUSH2 0x4D8 JUMPI PUSH1 0x40 MSTORE JUMP JUMPDEST PUSH1 0x40 DUP2 ADD SWAP1 DUP2 LT PUSH1 0x1 PUSH1 0x1 PUSH1 0x40 SHL SUB DUP3 GT OR PUSH2 0x4D8 JUMPI PUSH1 0x40 MSTORE JUMP JUMPDEST PUSH1 0x1F SWAP1 SWAP2 ADD PUSH1 0x1F NOT AND DUP2 ADD SWAP1 PUSH1 0x1 PUSH1 0x1 PUSH1 0x40 SHL SUB DUP3 GT SWAP1 DUP3 LT OR PUSH2 0x4D8 JUMPI PUSH1 0x40 MSTORE JUMP JUMPDEST PUSH1 0x1 PUSH1 0x1 PUSH1 0x40 SHL SUB DUP2 GT PUSH2 0x4D8 JUMPI PUSH1 0x1F ADD PUSH1 0x1F NOT AND PUSH1 0x20 ADD SWAP1 JUMP JUMPDEST SWAP3 SWAP2 SWAP3 PUSH2 0x11B0 DUP3 PUSH2 0x1189 JUMP JUMPDEST SWAP2 PUSH2 0x11BE PUSH1 0x40 MLOAD SWAP4 DUP5 PUSH2 0x1166 JUMP JUMPDEST DUP3 SWAP5 DUP2 DUP5 MSTORE DUP2 DUP4 ADD GT PUSH2 0x134 JUMPI DUP3 DUP2 PUSH1 0x20 SWAP4 DUP5 PUSH1 0x0 SWAP7 ADD CALLDATACOPY ADD ADD MSTORE JUMP JUMPDEST SWAP2 DUP2 PUSH1 0x1F DUP5 ADD SLT ISZERO PUSH2 0x134 JUMPI DUP3 CALLDATALOAD SWAP2 PUSH1 0x1 PUSH1 0x1 PUSH1 0x40 SHL SUB DUP4 GT PUSH2 0x134 JUMPI PUSH1 0x20 DUP4 DUP2 DUP7 ADD SWAP6 ADD ADD GT PUSH2 0x134 JUMPI JUMP JUMPDEST MLOAD SWAP1 DUP2 ISZERO ISZERO DUP3 SUB PUSH2 0x134 JUMPI JUMP JUMPDEST SWAP1 DUP2 MSTORE PUSH1 0x1 PUSH1 0x1 PUSH1 0xA0 SHL SUB SWAP1 SWAP2 AND PUSH1 0x20 DUP3 ADD MSTORE PUSH1 0x40 ADD SWAP1 JUMP JUMPDEST PUSH1 0x0 JUMPDEST DUP4 DUP2 LT PUSH2 0x1241 JUMPI POP POP PUSH1 0x0 SWAP2 ADD MSTORE JUMP JUMPDEST DUP2 DUP2 ADD MLOAD DUP4 DUP3 ADD MSTORE PUSH1 0x20 ADD PUSH2 0x1231 JUMP JUMPDEST SWAP1 PUSH1 0x20 SWAP2 PUSH2 0x126A DUP2 MLOAD DUP1 SWAP3 DUP2 DUP6 MSTORE DUP6 DUP1 DUP7 ADD SWAP2 ADD PUSH2 0x122E JUMP JUMPDEST PUSH1 0x1F ADD PUSH1 0x1F NOT AND ADD ADD SWAP1 JUMP JUMPDEST SWAP2 SWAP1 DUP3 ADD DUP1 SWAP3 GT PUSH2 0x1283 JUMPI JUMP JUMPDEST PUSH4 0x4E487B71 PUSH1 0xE0 SHL PUSH1 0x0 MSTORE PUSH1 0x11 PUSH1 0x4 MSTORE PUSH1 0x24 PUSH1 0x0 REVERT JUMPDEST DUP2 PUSH1 0x1F DUP3 ADD SLT ISZERO PUSH2 0x134 JUMPI DUP1 MLOAD PUSH2 0x12AF DUP2 PUSH2 0x1189 JUMP JUMPDEST SWAP3 PUSH2 0x12BD PUSH1 0x40 MLOAD SWAP5 DUP6 PUSH2 0x1166 JUMP JUMPDEST DUP2 DUP5 MSTORE PUSH1 0x20 DUP3 DUP5 ADD ADD GT PUSH2 0x134 JUMPI PUSH2 0x12DB SWAP2 PUSH1 0x20 DUP1 DUP6 ADD SWAP2 ADD PUSH2 0x122E JUMP JUMPDEST SWAP1 JUMP JUMPDEST MLOAD SWAP1 PUSH1 0x1 PUSH1 0x1 PUSH1 0xA0 SHL SUB DUP3 AND DUP3 SUB PUSH2 0x134 JUMPI JUMP JUMPDEST SWAP1 PUSH1 0x20 DUP3 DUP3 SUB SLT PUSH2 0x134 JUMPI DUP2 MLOAD PUSH1 0x1 PUSH1 0x1 PUSH1 0x40 SHL SUB SWAP3 DUP4 DUP3 GT PUSH2 0x134 JUMPI ADD SWAP1 PUSH2 0x1E0 SWAP3 DUP4 DUP4 DUP4 SUB SLT PUSH2 0x134 JUMPI PUSH1 0x40 MLOAD SWAP4 DUP5 ADD DUP5 DUP2 LT DUP3 DUP3 GT OR PUSH2 0x4D8 JUMPI PUSH1 0x40 MSTORE DUP3 MLOAD DUP2 DUP2 GT PUSH2 0x134 JUMPI DUP3 PUSH2 0x1347 SWAP2 DUP6 ADD PUSH2 0x1299 JUMP JUMPDEST DUP5 MSTORE PUSH1 0x20 DUP4 ADD MLOAD DUP2 DUP2 GT PUSH2 0x134 JUMPI DUP3 PUSH2 0x1361 SWAP2 DUP6 ADD PUSH2 0x1299 JUMP JUMPDEST PUSH1 0x20 DUP6 ADD MSTORE PUSH1 0x40 DUP4 DUP2 ADD MLOAD SWAP1 DUP6 ADD MSTORE PUSH1 0x60 DUP4 ADD MLOAD PUSH1 0x1 PUSH1 0x1 PUSH1 0xA0 SHL SUB DUP2 AND DUP2 SUB PUSH2 0x134 JUMPI PUSH1 0x60 DUP6 ADD MSTORE PUSH1 0x80 DUP4 ADD MLOAD PUSH1 0x4 DUP2 LT ISZERO PUSH2 0x134 JUMPI PUSH1 0x80 DUP6 ADD MSTORE PUSH1 0xA0 DUP4 ADD MLOAD PUSH1 0xA0 DUP6 ADD MSTORE PUSH1 0xC0 DUP4 ADD MLOAD PUSH1 0xC0 DUP6 ADD MSTORE PUSH1 0xE0 DUP4 ADD MLOAD PUSH1 0xE0 DUP6 ADD MSTORE PUSH2 0x100 DUP1 DUP5 ADD MLOAD SWAP1 DUP6 ADD MSTORE PUSH2 0x120 PUSH2 0x13D4 DUP2 DUP6 ADD PUSH2 0x12DE JUMP JUMPDEST SWAP1 DUP6 ADD MSTORE PUSH2 0x140 PUSH2 0x13E6 DUP2 DUP6 ADD PUSH2 0x1208 JUMP JUMPDEST SWAP1 DUP6 ADD MSTORE PUSH2 0x160 SWAP2 DUP3 DUP5 ADD MLOAD SWAP2 DUP3 GT PUSH2 0x134 JUMPI PUSH2 0x1404 SWAP2 DUP5 ADD PUSH2 0x1299 JUMP JUMPDEST SWAP1 DUP4 ADD MSTORE PUSH2 0x180 DUP1 DUP3 ADD MLOAD SWAP1 DUP4 ADD MSTORE PUSH2 0x1A0 DUP1 DUP3 ADD MLOAD SWAP1 DUP4 ADD MSTORE PUSH2 0x142C PUSH2 0x1C0 DUP1 SWAP3 ADD PUSH2 0x12DE JUMP JUMPDEST SWAP1 DUP3 ADD MSTORE SWAP1 JUMP JUMPDEST SWAP1 PUSH1 0x20 SWAP1 DUP2 DUP4 DUP3 SUB SLT PUSH2 0x134 JUMPI DUP3 MLOAD PUSH1 0x1 PUSH1 0x1 PUSH1 0x40 SHL SUB SWAP4 DUP5 DUP3 GT PUSH2 0x134 JUMPI ADD DUP2 PUSH1 0x1F DUP3 ADD SLT ISZERO PUSH2 0x134 JUMPI DUP1 MLOAD SWAP4 DUP5 GT PUSH2 0x4D8 JUMPI DUP4 PUSH1 0x5 SHL SWAP1 PUSH1 0x40 MLOAD SWAP5 PUSH2 0x147C DUP6 DUP5 ADD DUP8 PUSH2 0x1166 JUMP JUMPDEST DUP6 MSTORE DUP4 DUP1 DUP7 ADD SWAP3 DUP3 ADD ADD SWAP3 DUP4 GT PUSH2 0x134 JUMPI DUP4 ADD SWAP1 JUMPDEST DUP3 DUP3 LT PUSH2 0x149F JUMPI POP POP POP POP SWAP1 JUMP JUMPDEST DUP4 DUP1 SWAP2 PUSH2 0x14AB DUP5 PUSH2 0x12DE JUMP JUMPDEST DUP2 MSTORE ADD SWAP2 ADD SWAP1 PUSH2 0x1491 JUMP JUMPDEST DUP1 MLOAD DUP3 LT ISZERO PUSH2 0x14CA JUMPI PUSH1 0x20 SWAP2 PUSH1 0x5 SHL ADD ADD SWAP1 JUMP JUMPDEST PUSH4 0x4E487B71 PUSH1 0xE0 SHL PUSH1 0x0 MSTORE PUSH1 0x32 PUSH1 0x4 MSTORE PUSH1 0x24 PUSH1 0x0 REVERT JUMPDEST PUSH1 0x1 DUP1 PUSH1 0xA0 SHL SUB PUSH1 0x0 SWAP2 DUP2 DUP4 SLOAD AND SWAP2 PUSH1 0x24 DUP5 PUSH1 0x40 SWAP5 DUP6 MLOAD SWAP3 DUP4 DUP1 SWAP3 PUSH4 0x18FEEB15 PUSH1 0xE3 SHL DUP3 MSTORE DUP8 PUSH1 0x4 DUP4 ADD MSTORE GAS STATICCALL SWAP1 DUP2 ISZERO PUSH2 0x193B JUMPI DUP6 SWAP2 PUSH2 0x1921 JUMPI JUMPDEST POP PUSH2 0x160 DUP2 ADD DUP1 MLOAD SWAP1 DUP6 MLOAD SWAP2 PUSH1 0x20 SWAP3 PUSH2 0x1550 DUP5 DUP3 DUP2 PUSH2 0x1543 DUP2 DUP4 ADD SWAP7 DUP8 DUP2 MLOAD SWAP4 DUP5 SWAP3 ADD PUSH2 0x122E JUMP JUMPDEST DUP2 ADD SUB DUP1 DUP5 MSTORE ADD DUP3 PUSH2 0x1166 JUMP JUMPDEST MLOAD SWAP1 KECCAK256 DUP7 MLOAD DUP4 DUP2 ADD SWAP1 PUSH11 0x3A3932B0B9BAB93C96B4B7 PUSH1 0xA9 SHL DUP3 MSTORE PUSH1 0xB DUP2 MSTORE PUSH2 0x1577 DUP2 PUSH2 0x114B JUMP JUMPDEST MLOAD SWAP1 KECCAK256 SUB PUSH2 0x15D5 JUMPI POP POP POP PUSH1 0x2 SLOAD AND SWAP1 DUP2 EXTCODESIZE ISZERO PUSH2 0x15D1 JUMPI DUP4 SWAP2 PUSH1 0x24 DUP4 SWAP3 DUP6 MLOAD SWAP7 DUP8 SWAP4 DUP5 SWAP3 PUSH4 0x7026E9FD PUSH1 0xE0 SHL DUP5 MSTORE PUSH1 0x4 DUP5 ADD MSTORE GAS CALL SWAP2 DUP3 ISZERO PUSH2 0x15C7 JUMPI POP POP PUSH2 0x15BC JUMPI POP JUMP JUMPDEST PUSH2 0x15C5 SWAP1 PUSH2 0x1138 JUMP JUMPDEST JUMP JUMPDEST MLOAD SWAP1 RETURNDATASIZE SWAP1 DUP3 RETURNDATACOPY RETURNDATASIZE SWAP1 REVERT JUMPDEST DUP4 DUP1 REVERT JUMPDEST DUP1 MLOAD DUP7 MLOAD PUSH2 0x15F2 DUP5 DUP3 DUP2 PUSH2 0x1543 DUP2 DUP4 ADD SWAP7 DUP8 DUP2 MLOAD SWAP4 DUP5 SWAP3 ADD PUSH2 0x122E JUMP JUMPDEST MLOAD SWAP1 KECCAK256 DUP7 MLOAD DUP4 DUP2 ADD SWAP1 PUSH12 0x1D1C99585CDD5C9E4B5BDD5D PUSH1 0xA2 SHL DUP3 MSTORE PUSH1 0xC DUP2 MSTORE PUSH2 0x161A DUP2 PUSH2 0x114B JUMP JUMPDEST MLOAD SWAP1 KECCAK256 SUB PUSH2 0x165F JUMPI POP POP POP PUSH1 0x2 SLOAD AND SWAP1 DUP2 EXTCODESIZE ISZERO PUSH2 0x15D1 JUMPI DUP4 SWAP2 PUSH1 0x24 DUP4 SWAP3 DUP6 MLOAD SWAP7 DUP8 SWAP4 DUP5 SWAP3 PUSH4 0x21814F9 PUSH1 0xE4 SHL DUP5 MSTORE PUSH1 0x4 DUP5 ADD MSTORE GAS CALL SWAP2 DUP3 ISZERO PUSH2 0x15C7 JUMPI POP POP PUSH2 0x15BC JUMPI POP JUMP JUMPDEST SWAP6 SWAP3 SWAP1 SWAP4 SWAP2 SWAP6 MLOAD DUP6 MLOAD PUSH2 0x1681 DUP7 DUP3 DUP2 PUSH2 0x1543 DUP2 DUP4 ADD SWAP7 DUP8 DUP2 MLOAD SWAP4 DUP5 SWAP3 ADD PUSH2 0x122E JUMP JUMPDEST MLOAD SWAP1 KECCAK256 DUP6 MLOAD DUP6 DUP2 ADD SWAP1 PUSH11 0x72756C652D6368616E6765 PUSH1 0xA8 SHL DUP3 MSTORE PUSH1 0xB DUP2 MSTORE PUSH2 0x16A8 DUP2 PUSH2 0x114B JUMP JUMPDEST MLOAD SWAP1 KECCAK256 EQ PUSH2 0x16B9 JUMPI JUMPDEST POP POP POP POP POP POP JUMP JUMPDEST PUSH1 0x2 SLOAD AND SWAP1 DUP2 EXTCODESIZE ISZERO PUSH2 0x191D JUMPI DUP3 SWAP2 PUSH1 0x24 DUP4 SWAP3 DUP8 MLOAD SWAP6 DUP7 SWAP4 DUP5 SWAP3 PUSH4 0x6F0D949D PUSH1 0xE1 SHL DUP5 MSTORE PUSH1 0x4 DUP5 ADD MSTORE GAS CALL SWAP1 DUP2 ISZERO PUSH2 0x1912 JUMPI POP PUSH2 0x1903 JUMPI JUMPDEST POP PUSH2 0x1A0 DUP4 MLOAD SWAP4 ADD MLOAD SWAP3 DUP3 MLOAD SWAP1 DUP3 DUP3 ADD DUP2 MLOAD SWAP3 PUSH2 0x1717 DUP6 DUP3 DUP2 DUP7 ADD SWAP7 PUSH2 0x1543 DUP2 DUP8 DUP11 PUSH2 0x122E JUMP JUMPDEST MLOAD SWAP1 KECCAK256 DUP5 MLOAD DUP5 DUP2 ADD SWAP1 PUSH12 0x706173734372697465726961 PUSH1 0xA0 SHL DUP3 MSTORE PUSH1 0xC DUP2 MSTORE PUSH2 0x173F DUP2 PUSH2 0x114B JUMP JUMPDEST MLOAD SWAP1 KECCAK256 SUB PUSH2 0x175A JUMPI POP POP POP POP PUSH1 0x3 SSTORE JUMPDEST CODESIZE DUP1 DUP1 DUP1 DUP1 DUP1 PUSH2 0x16B1 JUMP JUMPDEST DUP4 MLOAD DUP4 DUP2 ADD SWAP1 PUSH2 0x1772 DUP6 DUP3 DUP6 MLOAD PUSH2 0x1543 DUP2 DUP8 DUP11 PUSH2 0x122E JUMP JUMPDEST MLOAD SWAP1 KECCAK256 DUP5 MLOAD DUP5 DUP2 ADD SWAP1 PUSH14 0x3B37BA34B733A23AB930BA34B7B7 PUSH1 0x91 SHL DUP3 MSTORE PUSH1 0xE DUP2 MSTORE PUSH2 0x179C DUP2 PUSH2 0x114B JUMP JUMPDEST MLOAD SWAP1 KECCAK256 SUB PUSH2 0x17B0 JUMPI POP POP POP POP PUSH1 0x4 SSTORE PUSH2 0x174F JUMP JUMPDEST DUP4 MLOAD DUP4 DUP2 ADD SWAP1 PUSH2 0x17C8 DUP6 DUP3 DUP6 MLOAD PUSH2 0x1543 DUP2 DUP8 DUP11 PUSH2 0x122E JUMP JUMPDEST MLOAD SWAP1 KECCAK256 DUP5 MLOAD DUP5 DUP2 ADD SWAP1 PUSH13 0x616273656E7450656E616C7479 PUSH1 0x98 SHL DUP3 MSTORE PUSH1 0xD DUP2 MSTORE PUSH2 0x17F1 DUP2 PUSH2 0x114B JUMP JUMPDEST MLOAD SWAP1 KECCAK256 SUB PUSH2 0x1805 JUMPI POP POP POP POP PUSH1 0x5 SSTORE PUSH2 0x174F JUMP JUMPDEST DUP4 MLOAD DUP4 DUP2 ADD SWAP1 PUSH2 0x181D DUP6 DUP3 DUP6 MLOAD PUSH2 0x1543 DUP2 DUP8 DUP11 PUSH2 0x122E JUMP JUMPDEST MLOAD SWAP1 KECCAK256 DUP5 MLOAD DUP5 DUP2 ADD SWAP1 PUSH12 0x18DBDD5B9D151BD15E1C195B PUSH1 0xA2 SHL DUP3 MSTORE PUSH1 0xC DUP2 MSTORE PUSH2 0x1845 DUP2 PUSH2 0x114B JUMP JUMPDEST MLOAD SWAP1 KECCAK256 SUB PUSH2 0x1859 JUMPI POP POP POP POP PUSH1 0x6 SSTORE PUSH2 0x174F JUMP JUMPDEST DUP4 MLOAD DUP4 DUP2 ADD SWAP1 PUSH2 0x1871 DUP6 DUP3 DUP6 MLOAD PUSH2 0x1543 DUP2 DUP8 DUP11 PUSH2 0x122E JUMP JUMPDEST MLOAD SWAP1 KECCAK256 DUP5 MLOAD DUP5 DUP2 ADD SWAP1 PUSH12 0x1CD8DBDC99551BD15E1C195B PUSH1 0xA2 SHL DUP3 MSTORE PUSH1 0xC DUP2 MSTORE PUSH2 0x1899 DUP2 PUSH2 0x114B JUMP JUMPDEST MLOAD SWAP1 KECCAK256 SUB PUSH2 0x18AD JUMPI POP POP POP POP PUSH1 0x7 SSTORE PUSH2 0x174F JUMP JUMPDEST PUSH2 0x18C7 DUP4 DUP6 MLOAD DUP1 SWAP4 PUSH2 0x1543 DUP4 DUP4 ADD SWAP7 DUP8 SWAP3 MLOAD SWAP3 DUP4 SWAP2 PUSH2 0x122E JUMP JUMPDEST MLOAD SWAP1 KECCAK256 SWAP2 MLOAD SWAP1 DUP2 ADD SWAP1 PUSH8 0x656E747279466565 PUSH1 0xC0 SHL DUP3 MSTORE PUSH1 0x8 DUP2 MSTORE PUSH2 0x18EB DUP2 PUSH2 0x114B JUMP JUMPDEST MLOAD SWAP1 KECCAK256 EQ PUSH2 0x18FA JUMPI JUMPDEST POP PUSH2 0x174F JUMP JUMPDEST PUSH1 0x8 SSTORE CODESIZE PUSH2 0x18F4 JUMP JUMPDEST PUSH2 0x190C SWAP1 PUSH2 0x1138 JUMP JUMPDEST CODESIZE PUSH2 0x16F0 JUMP JUMPDEST DUP5 MLOAD SWAP1 RETURNDATASIZE SWAP1 DUP3 RETURNDATACOPY RETURNDATASIZE SWAP1 REVERT JUMPDEST DUP3 DUP1 REVERT JUMPDEST PUSH2 0x1935 SWAP2 POP RETURNDATASIZE DUP1 DUP8 DUP4 RETURNDATACOPY PUSH2 0xE90 DUP2 DUP4 PUSH2 0x1166 JUMP JUMPDEST CODESIZE PUSH2 0x151B JUMP JUMPDEST DUP5 MLOAD RETURNDATASIZE DUP8 DUP3 RETURNDATACOPY RETURNDATASIZE SWAP1 REVERT INVALID LOG1 PUSH5 0x736F6C6343 STOP ADDMOD EQ STOP EXP "},"methodIdentifiers":{"absentPenalty()":"bdf91db5","countToExpel()":"9f1f43af","createProposal(string,string,uint256,address,bool,string,uint256,uint256,address)":"bc2914b5","entryFee()":"072ea61c","executionContract()":"e0e93244","finalizeProposal(uint256)":"5652077c","getAllMembers()":"7c0f6b35","getMemberCount()":"997072f7","getTreasuryBalance()":"9b5655dc","inviteCodeHash()":"cf5cbd69","isMember(address)":"a230c524","isPrivate()":"faff660e","joinDAO()":"f63d13d7","joinDAOWithCode(string)":"0043b3d8","passCriteria()":"0fd2e6f9","proposalContract()":"3aef3900","proposalDeadline(uint256)":"c01f9e37","proposalExecuted(uint256)":"103616e8","scoreToExpel()":"52bc9e82","vaultContract()":"2274346b","vote(uint256,uint8)":"943e8216","votingDuration()":"132002fc"}}}}}