{"contracts/CorruptionMonitor.sol":{"CorruptionMonitor":{"abi":[{"anonymous":false,"inputs":[{"indexed":false,"internalType":"uint256","name":"index","type":"uint256"}],"name":"CorruptionIndexUpdated","type":"event"},{"inputs":[],"name":"getCorruptionIndex","outputs":[{"internalType":"uint256","name":"","type":"uint256"}],"stateMutability":"view","type":"function"},{"inputs":[],"name":"metrics","outputs":[{"internalType":"uint256","name":"emergencyTransfers","type":"uint256"},{"internalType":"uint256","name":"lowParticipation","type":"uint256"},{"internalType":"uint256","name":"dominantActions","type":"uint256"},{"internalType":"uint256","name":"untrackedTransfers","type":"uint256"},{"internalType":"uint256","name":"gasWaste","type":"uint256"},{"internalType":"uint256","name":"proposalConcentration","type":"uint256"}],"stateMutability":"view","type":"function"},{"inputs":[{"internalType":"uint256","name":"emergency","type":"uint256"},{"internalType":"uint256","name":"lowPart","type":"uint256"},{"internalType":"uint256","name":"dominant","type":"uint256"},{"internalType":"uint256","name":"untracked","type":"uint256"},{"internalType":"uint256","name":"gas","type":"uint256"},{"internalType":"uint256","name":"concentration","type":"uint256"}],"name":"updateMetrics","outputs":[],"stateMutability":"nonpayable","type":"function"}],"evm":{"bytecode":{"linkReferences":{},"object":"608060405234801561001057600080fd5b50610457806100206000396000f3fe608060405234801561001057600080fd5b50600436106100415760003560e01c80630e77131c146100465780631c264aa114610064578063a04748f614610080575b600080fd5b61004e6100a3565b60405161005b9190610242565b60405180910390f35b61007e6004803603810190610079919061028e565b61014c565b005b6100886101ff565b60405161009a9695949392919061031b565b60405180910390f35b60008060036000600501546100b891906103ab565b60016000600401546100ca91906103ab565b60046000600301546100dc91906103ab565b60026000600201546100ee91906103ab565b600360006001015461010091906103ab565b6002600080015461011191906103ab565b61011b91906103ed565b61012591906103ed565b61012f91906103ed565b61013991906103ed565b61014391906103ed565b90508091505090565b6040518060c001604052808781526020018681526020018581526020018481526020018381526020018281525060008082015181600001556020820151816001015560408201518160020155606082015181600301556080820151816004015560a082015181600501559050507f73a4a1a7dbf979b2a2f805e29c116bad6194fa512960adcd09f532e2dad608986101e26100a3565b6040516101ef9190610242565b60405180910390a1505050505050565b60008060000154908060010154908060020154908060030154908060040154908060050154905086565b6000819050919050565b61023c81610229565b82525050565b60006020820190506102576000830184610233565b92915050565b600080fd5b61026b81610229565b811461027657600080fd5b50565b60008135905061028881610262565b92915050565b60008060008060008060c087890312156102ab576102aa61025d565b5b60006102b989828a01610279565b96505060206102ca89828a01610279565b95505060406102db89828a01610279565b94505060606102ec89828a01610279565b93505060806102fd89828a01610279565b92505060a061030e89828a01610279565b9150509295509295509295565b600060c0820190506103306000830189610233565b61033d6020830188610233565b61034a6040830187610233565b6103576060830186610233565b6103646080830185610233565b61037160a0830184610233565b979650505050505050565b7f4e487b7100000000000000000000000000000000000000000000000000000000600052601160045260246000fd5b60006103b682610229565b91506103c183610229565b92508282026103cf81610229565b915082820484148315176103e6576103e561037c565b5b5092915050565b60006103f882610229565b915061040383610229565b925082820190508082111561041b5761041a61037c565b5b9291505056fea2646970667358221220cfe4467191548c21309c19844830eb642e7db2c8ace78251c8cc8482fa7b885964736f6c63430008140033","opcodes":"PUSH1 0x80 PUSH1 0x40 MSTORE CALLVALUE DUP1 ISZERO PUSH2 0x10 JUMPI PUSH1 0x0 DUP1 REVERT JUMPDEST POP PUSH2 0x457 DUP1 PUSH2 0x20 PUSH1 0x0 CODECOPY PUSH1 0x0 RETURN INVALID PUSH1 0x80 PUSH1 0x40 MSTORE CALLVALUE DUP1 ISZERO PUSH2 0x10 JUMPI PUSH1 0x0 DUP1 REVERT JUMPDEST POP PUSH1 0x4 CALLDATASIZE LT PUSH2 0x41 JUMPI PUSH1 0x0 CALLDATALOAD PUSH1 0xE0 SHR DUP1 PUSH4 0xE77131C EQ PUSH2 0x46 JUMPI DUP1 PUSH4 0x1C264AA1 EQ PUSH2 0x64 JUMPI DUP1 PUSH4 0xA04748F6 EQ PUSH2 0x80 JUMPI JUMPDEST PUSH1 0x0 DUP1 REVERT JUMPDEST PUSH2 0x4E PUSH2 0xA3 JUMP JUMPDEST PUSH1 0x40 MLOAD PUSH2 0x5B SWAP2 SWAP1 PUSH2 0x242 JUMP JUMPDEST PUSH1 0x40 MLOAD DUP1 SWAP2 SUB SWAP1 RETURN JUMPDEST PUSH2 0x7E PUSH1 0x4 DUP1 CALLDATASIZE SUB DUP2 ADD SWAP1 PUSH2 0x79 SWAP2 SWAP1 PUSH2 0x28E JUMP JUMPDEST PUSH2 0x14C JUMP JUMPDEST STOP JUMPDEST PUSH2 0x88 PUSH2 0x1FF JUMP JUMPDEST PUSH1 0x40 MLOAD PUSH2 0x9A SWAP7 SWAP6 SWAP5 SWAP4 SWAP3 SWAP2 SWAP1 PUSH2 0x31B JUMP JUMPDEST PUSH1 0x40 MLOAD DUP1 SWAP2 SUB SWAP1 RETURN JUMPDEST PUSH1 0x0 DUP1 PUSH1 0x3 PUSH1 0x0 PUSH1 0x5 ADD SLOAD PUSH2 0xB8 SWAP2 SWAP1 PUSH2 0x3AB JUMP JUMPDEST PUSH1 0x1 PUSH1 0x0 PUSH1 0x4 ADD SLOAD PUSH2 0xCA SWAP2 SWAP1 PUSH2 0x3AB JUMP JUMPDEST PUSH1 0x4 PUSH1 0x0 PUSH1 0x3 ADD SLOAD PUSH2 0xDC SWAP2 SWAP1 PUSH2 0x3AB JUMP JUMPDEST PUSH1 0x2 PUSH1 0x0 PUSH1 0x2 ADD SLOAD PUSH2 0xEE SWAP2 SWAP1 PUSH2 0x3AB JUMP JUMPDEST PUSH1 0x3 PUSH1 0x0 PUSH1 0x1 ADD SLOAD PUSH2 0x100 SWAP2 SWAP1 PUSH2 0x3AB JUMP JUMPDEST PUSH1 0x2 PUSH1 0x0 DUP1 ADD SLOAD PUSH2 0x111 SWAP2 SWAP1 PUSH2 0x3AB JUMP JUMPDEST PUSH2 0x11B SWAP2 SWAP1 PUSH2 0x3ED JUMP JUMPDEST PUSH2 0x125 SWAP2 SWAP1 PUSH2 0x3ED JUMP JUMPDEST PUSH2 0x12F SWAP2 SWAP1 PUSH2 0x3ED JUMP JUMPDEST PUSH2 0x139 SWAP2 SWAP1 PUSH2 0x3ED JUMP JUMPDEST PUSH2 0x143 SWAP2 SWAP1 PUSH2 0x3ED JUMP JUMPDEST SWAP1 POP DUP1 SWAP2 POP POP SWAP1 JUMP JUMPDEST PUSH1 0x40 MLOAD DUP1 PUSH1 0xC0 ADD PUSH1 0x40 MSTORE DUP1 DUP8 DUP2 MSTORE PUSH1 0x20 ADD DUP7 DUP2 MSTORE PUSH1 0x20 ADD DUP6 DUP2 MSTORE PUSH1 0x20 ADD DUP5 DUP2 MSTORE PUSH1 0x20 ADD DUP4 DUP2 MSTORE PUSH1 0x20 ADD DUP3 DUP2 MSTORE POP PUSH1 0x0 DUP1 DUP3 ADD MLOAD DUP2 PUSH1 0x0 ADD SSTORE PUSH1 0x20 DUP3 ADD MLOAD DUP2 PUSH1 0x1 ADD SSTORE PUSH1 0x40 DUP3 ADD MLOAD DUP2 PUSH1 0x2 ADD SSTORE PUSH1 0x60 DUP3 ADD MLOAD DUP2 PUSH1 0x3 ADD SSTORE PUSH1 0x80 DUP3 ADD MLOAD DUP2 PUSH1 0x4 ADD SSTORE PUSH1 0xA0 DUP3 ADD MLOAD DUP2 PUSH1 0x5 ADD SSTORE SWAP1 POP POP PUSH32 0x73A4A1A7DBF979B2A2F805E29C116BAD6194FA512960ADCD09F532E2DAD60898 PUSH2 0x1E2 PUSH2 0xA3 JUMP JUMPDEST PUSH1 0x40 MLOAD PUSH2 0x1EF SWAP2 SWAP1 PUSH2 0x242 JUMP JUMPDEST PUSH1 0x40 MLOAD DUP1 SWAP2 SUB SWAP1 LOG1 POP POP POP POP POP POP JUMP JUMPDEST PUSH1 0x0 DUP1 PUSH1 0x0 ADD SLOAD SWAP1 DUP1 PUSH1 0x1 ADD SLOAD SWAP1 DUP1 PUSH1 0x2 ADD SLOAD SWAP1 DUP1 PUSH1 0x3 ADD SLOAD SWAP1 DUP1 PUSH1 0x4 ADD SLOAD SWAP1 DUP1 PUSH1 0x5 ADD SLOAD SWAP1 POP DUP7 JUMP JUMPDEST PUSH1 0x0 DUP2 SWAP1 POP SWAP2 SWAP1 POP JUMP JUMPDEST PUSH2 0x23C DUP2 PUSH2 0x229 JUMP JUMPDEST DUP3 MSTORE POP POP JUMP JUMPDEST PUSH1 0x0 PUSH1 0x20 DUP3 ADD SWAP1 POP PUSH2 0x257 PUSH1 0x0 DUP4 ADD DUP5 PUSH2 0x233 JUMP JUMPDEST SWAP3 SWAP2 POP POP JUMP JUMPDEST PUSH1 0x0 DUP1 REVERT JUMPDEST PUSH2 0x26B DUP2 PUSH2 0x229 JUMP JUMPDEST DUP2 EQ PUSH2 0x276 JUMPI PUSH1 0x0 DUP1 REVERT JUMPDEST POP JUMP JUMPDEST PUSH1 0x0 DUP2 CALLDATALOAD SWAP1 POP PUSH2 0x288 DUP2 PUSH2 0x262 JUMP JUMPDEST SWAP3 SWAP2 POP POP JUMP JUMPDEST PUSH1 0x0 DUP1 PUSH1 0x0 DUP1 PUSH1 0x0 DUP1 PUSH1 0xC0 DUP8 DUP10 SUB SLT ISZERO PUSH2 0x2AB JUMPI PUSH2 0x2AA PUSH2 0x25D JUMP JUMPDEST JUMPDEST PUSH1 0x0 PUSH2 0x2B9 DUP10 DUP3 DUP11 ADD PUSH2 0x279 JUMP JUMPDEST SWAP7 POP POP PUSH1 0x20 PUSH2 0x2CA DUP10 DUP3 DUP11 ADD PUSH2 0x279 JUMP JUMPDEST SWAP6 POP POP PUSH1 0x40 PUSH2 0x2DB DUP10 DUP3 DUP11 ADD PUSH2 0x279 JUMP JUMPDEST SWAP5 POP POP PUSH1 0x60 PUSH2 0x2EC DUP10 DUP3 DUP11 ADD PUSH2 0x279 JUMP JUMPDEST SWAP4 POP POP PUSH1 0x80 PUSH2 0x2FD DUP10 DUP3 DUP11 ADD PUSH2 0x279 JUMP JUMPDEST SWAP3 POP POP PUSH1 0xA0 PUSH2 0x30E DUP10 DUP3 DUP11 ADD PUSH2 0x279 JUMP JUMPDEST SWAP2 POP POP SWAP3 SWAP6 POP SWAP3 SWAP6 POP SWAP3 SWAP6 JUMP JUMPDEST PUSH1 0x0 PUSH1 0xC0 DUP3 ADD SWAP1 POP PUSH2 0x330 PUSH1 0x0 DUP4 ADD DUP10 PUSH2 0x233 JUMP JUMPDEST PUSH2 0x33D PUSH1 0x20 DUP4 ADD DUP9 PUSH2 0x233 JUMP JUMPDEST PUSH2 0x34A PUSH1 0x40 DUP4 ADD DUP8 PUSH2 0x233 JUMP JUMPDEST PUSH2 0x357 PUSH1 0x60 DUP4 ADD DUP7 PUSH2 0x233 JUMP JUMPDEST PUSH2 0x364 PUSH1 0x80 DUP4 ADD DUP6 PUSH2 0x233 JUMP JUMPDEST PUSH2 0x371 PUSH1 0xA0 DUP4 ADD DUP5 PUSH2 0x233 JUMP JUMPDEST SWAP8 SWAP7 POP POP POP POP POP POP POP JUMP JUMPDEST PUSH32 0x4E487B7100000000000000000000000000000000000000000000000000000000 PUSH1 0x0 MSTORE PUSH1 0x11 PUSH1 0x4 MSTORE PUSH1 0x24 PUSH1 0x0 REVERT JUMPDEST PUSH1 0x0 PUSH2 0x3B6 DUP3 PUSH2 0x229 JUMP JUMPDEST SWAP2 POP PUSH2 0x3C1 DUP4 PUSH2 0x229 JUMP JUMPDEST SWAP3 POP DUP3 DUP3 MUL PUSH2 0x3CF DUP2 PUSH2 0x229 JUMP JUMPDEST SWAP2 POP DUP3 DUP3 DIV DUP5 EQ DUP4 ISZERO OR PUSH2 0x3E6 JUMPI PUSH2 0x3E5 PUSH2 0x37C JUMP JUMPDEST JUMPDEST POP SWAP3 SWAP2 POP POP JUMP JUMPDEST PUSH1 0x0 PUSH2 0x3F8 DUP3 PUSH2 0x229 JUMP JUMPDEST SWAP2 POP PUSH2 0x403 DUP4 PUSH2 0x229 JUMP JUMPDEST SWAP3 POP DUP3 DUP3 ADD SWAP1 POP DUP1 DUP3 GT ISZERO PUSH2 0x41B JUMPI PUSH2 0x41A PUSH2 0x37C JUMP JUMPDEST JUMPDEST SWAP3 SWAP2 POP POP JUMP INVALID LOG2 PUSH5 0x6970667358 0x22 SLT KECCAK256 0xCF 0xE4 CHAINID PUSH18 0x91548C21309C19844830EB642E7DB2C8ACE7 DUP3 MLOAD 0xC8 0xCC DUP5 DUP3 STATICCALL PUSH28 0x885964736F6C63430008140033000000000000000000000000000000 "},"methodIdentifiers":{"getCorruptionIndex()":"0e77131c","metrics()":"a04748f6","updateMetrics(uint256,uint256,uint256,uint256,uint256,uint256)":"1c264aa1"}}}}}