{
  "_format": "hh-sol-artifact-1",
  "contractName": "DAOFactory",
  "sourceName": "contracts/DAOFactory.sol",
  "abi": [
    {
      "anonymous": false,
      "inputs": [
        {
          "indexed": true,
          "internalType": "address",
          "name": "daoAddress",
          "type": "address"
        },
        {
          "indexed": true,
          "internalType": "address",
          "name": "creator",
          "type": "address"
        },
        {
          "indexed": false,
          "internalType": "string",
          "name": "name",
          "type": "string"
        },
        {
          "indexed": false,
          "internalType": "string",
          "name": "description",
          "type": "string"
        },
        {
          "indexed": false,
          "internalType": "string",
          "name": "category",
          "type": "string"
        },
        {
          "indexed": false,
          "internalType": "bool",
          "name": "isPrivate",
          "type": "bool"
        }
      ],
      "name": "DAOCreated",
      "type": "event"
    },
    {
      "inputs": [
        {
          "internalType": "string",
          "name": "_name",
          "type": "string"
        },
        {
          "internalType": "string",
          "name": "_description",
          "type": "string"
        },
        {
          "internalType": "string",
          "name": "_category",
          "type": "string"
        },
        {
          "internalType": "address",
          "name": "_owner",
          "type": "address"
        },
        {
          "internalType": "bool",
          "name": "_isPrivate",
          "type": "bool"
        },
        {
          "internalType": "string",
          "name": "_inviteCode",
          "type": "string"
        },
        {
          "internalType": "uint256",
          "name": "_passCriteria",
          "type": "uint256"
        },
        {
          "internalType": "uint256",
          "name": "_votingDurationInSeconds",
          "type": "uint256"
        },
        {
          "internalType": "uint256",
          "name": "_entryFeeInWei",
          "type": "uint256"
        },
        {
          "internalType": "uint256",
          "name": "_absentPenaltyInWei",
          "type": "uint256"
        },
        {
          "internalType": "uint256",
          "name": "_countToExpel",
          "type": "uint256"
        },
        {
          "internalType": "uint256",
          "name": "_scoreToExpel",
          "type": "uint256"
        }
      ],
      "name": "createDAO",
      "outputs": [
        {
          "internalType": "address",
          "name": "newDAOAddress",
          "type": "address"
        }
      ],
      "stateMutability": "nonpayable",
      "type": "function"
    },
    {
      "inputs": [
        {
          "internalType": "uint256",
          "name": "",
          "type": "uint256"
        }
      ],
      "name": "deployedDAOs",
      "outputs": [
        {
          "internalType": "address",
          "name": "",
          "type": "address"
        }
      ],
      "stateMutability": "view",
      "type": "function"
    },
    {
      "inputs": [],
      "name": "getAllDAOs",
      "outputs": [
        {
          "internalType": "address[]",
          "name": "",
          "type": "address[]"
        }
      ],
      "stateMutability": "view",
      "type": "function"
    },
    {
      "inputs": [],
      "name": "getDAO_Count",
      "outputs": [
        {
          "internalType": "uint256",
          "name": "",
          "type": "uint256"
        }
      ],
      "stateMutability": "view",
      "type": "function"
    }
  ],
  "bytecode": "0x6080806040523461001657615dc1908161001c8239f35b600080fdfe60808060405260043610156200001457600080fd5b600090813560e01c90816316f2878314620007c15750806319e0b28814620007795780633cb2c68a14620006cb576347e9a528146200005257600080fd5b34620006c857610180366003190112620006c8576004356001600160401b038111620006c4576200008890369060040162000859565b6024356001600160401b0381116200054157620000aa90369060040162000859565b906044356001600160401b038111620005e757620000cd90369060040162000859565b906064356001600160a01b0381169003620005e757608435918215158303620005805760a4356001600160401b03811162000532576200011290369060040162000859565b60405190949061092e6001600160401b0381830190811190831117620006b05781816060926200548783396064356001600160a01b0316908201908152602081018a905230604082015203019087f08015620006a5576040516123e4808201906001600160401b03821183831017620006725782916200019e91620030a38439309060643590620008b4565b039088f080156200069a576040516001600160a01b0392831692919091169061083d808201906001600160401b03821183831017620006865784848493620001ec93620028668639620008b4565b039089f0801562000667576040516001600160a01b0391909116976001600160401b03611f3c8301908111908311176200067257620002968291611f3c6200092a8439611f3c830185815260208101879052604081018c905260c435606082015260e43560808201526101243560a08201526101443560c08201526101643560e0820152610104356101008201528a151561012082015261016061014082018190520190620008ce565b039089f0801562000667576001600160a01b031696813b156200066357604051634d1e563560e11b815260048101899052898160248183875af1801562000658576200063e575b50604051631d384ca360e31b81528993929190602081600481865afa908115620005c457859162000603575b50823b156200058057848a62000335926040519384928392632f2ff15d60e01b84526004840162000910565b038183875af1908115620005c4578591620005eb575b5050803b15620005e757604051634d1e563560e11b8152600481018a9052848160248183865af1908115620005c4578591620005cf575b50506040516307bd026560e01b8152602081600481875afa908115620005c457859162000584575b50833b156200058057604051632f2ff15d60e01b815291859183918291620003d791906004840162000910565b038183875af19081156200055d57849162000568575b5050803b1562000541576040518381600481836348ee6ad560e11b968783525af19081156200055d57849162000545575b5050813b156200054157829160048392604051948593849283525af1801562000536576200051a575b5054600160401b81101562000506577fa049c93a9115f3f0e7d4f57cf90f70cdc8a30ba109c9475e1271c2f2203aa02292620004d5879593620004978460209b6001620004e497019055620007dd565b81549060031b9089821b9160018060a01b03901b1916179055620004c760405195608087526080870190620008ce565b908582038b870152620008ce565b908382036040850152620008ce565b93151560608201526064356001600160a01b03169381900390a3604051908152f35b634e487b7160e01b87526041600452602487fd5b62000525906200080b565b6200053257853862000447565b8580fd5b6040513d84823e3d90fd5b8280fd5b62000550906200080b565b620005415782386200041e565b6040513d86823e3d90fd5b62000573906200080b565b62000541578238620003ed565b8480fd5b9450506020843d602011620005bb575b81620005a36020938362000835565b81010312620005b65789935138620003aa565b600080fd5b3d915062000594565b6040513d87823e3d90fd5b620005da906200080b565b620005e757833862000382565b8380fd5b620005f6906200080b565b620005e75783386200034b565b9450506020843d60201162000635575b81620006226020938362000835565b81010312620005b6578993513862000309565b3d915062000613565b6200064e9099919392996200080b565b97909138620002dd565b6040513d8c823e3d90fd5b8880fd5b6040513d8a823e3d90fd5b634e487b7160e01b8a52604160045260248afd5b634e487b7160e01b8b52604160045260248bfd5b6040513d89823e3d90fd5b6040513d88823e3d90fd5b634e487b7160e01b88526041600452602488fd5b5080fd5b80fd5b5034620006c85780600319360112620006c85760405180918054908183526020809301809282805284832090835b8181106200075b57505050846200071291038562000835565b60405193838594850191818652518092526040850193925b8281106200073a57505050500390f35b83516001600160a01b0316855286955093810193928101926001016200072a565b82546001600160a01b031684529286019260019283019201620006f9565b5034620006c8576020366003190112620006c857600435908054821015620006c8576020620007a883620007dd565b905460405160039290921b1c6001600160a01b03168152f35b905034620006c45781600319360112620006c457602091548152f35b906000918254811015620007f75782805260208320019190565b634e487b7160e01b83526032600452602483fd5b6001600160401b0381116200081f57604052565b634e487b7160e01b600052604160045260246000fd5b601f909101601f19168101906001600160401b038211908210176200081f57604052565b81601f82011215620005b6578035906001600160401b0382116200081f576040519262000891601f8401601f19166020018562000835565b82845260208383010111620005b657816000926020809301838601378301015290565b6001600160a01b0391821681529116602082015260400190565b919082519283825260005b848110620008fb575050826000602080949584010152601f8019910116010190565b602081830181015184830182015201620008d9565b9081526001600160a01b0390911660208201526040019056fe60808060405234620001a75762001f3c908138038092620000218284620001c2565b8239610160818381010312620001a7576200003c81620001e6565b6200004a60208301620001e6565b6200005860408401620001e6565b916060840151608085015160a08601519060c08701519260e088015194610100890151966101208a0151988915158a03620001a7576101408b01519a6001600160401b03808d11620001a757818e01828e01601f011215620001a7578c820151908111620001ac576040519c60208e620000dc601f8501601f1916830182620001c2565b838152019e8301602083838601010111620001a75760208f9162000102940101620001fb565b60018060a01b0380928160018060a01b03199516856000541617600055168360015416176001551690600254161760025560035560045560055560065560075560085560ff196009541660ff82151516176009556200016c575b604051611d1b9081620002218239f35b62000199602060405180936200018b83830196879251928391620001fb565b8101038084520182620001c2565b519020600a5538806200015c565b600080fd5b634e487b7160e01b600052604160045260246000fd5b601f909101601f19168101906001600160401b03821190821017620001ac57604052565b51906001600160a01b0382168203620001a757565b60005b8381106200020f5750506000910152565b8181015183820152602001620001fe56fe6080604052600436101561001b575b361561001957600080fd5b005b60003560e01c806243b3d81461114a578063072ea61c1461112c5780630fd2e6f91461110e578063103616e8146110dd578063132002fc146110bf5780632274346b146110965780633aef39001461106d57806352bc9e821461104f5780635652077c14610a245780637c0f6b351461097a578063943e8216146107f7578063997072f7146107a85780639b5655dc146107275780639f1f43af14610709578063a230c52414610610578063bc2914b51461024a578063bdf91db51461022c578063c01f9e3714610200578063cf5cbd69146101e2578063e0e93244146101b9578063f63d13d7146101395763faff660e0361000e573461013457600036600319011261013457602060ff600954166040519015158152f35b600080fd5b60003660031901126101345760ff6009541661015857610019346113aa565b60405162461bcd60e51b815260206004820152603360248201527f54686973206973206120707269766174652044414f2e20557365206a6f696e4460448201527220a7abb4ba3421b7b2329034b739ba32b0b21760691b6064820152608490fd5b34610134576000366003190112610134576002546040516001600160a01b039091168152602090f35b34610134576000366003190112610134576020600a54604051908152f35b3461013457602036600319011261013457600435600052600b6020526020604060002054604051908152f35b34610134576000366003190112610134576020600554604051908152f35b3461013457610120366003190112610134576004356001600160401b0381116101345761027b903690600401611304565b906024356001600160401b0381116101345761029b903690600401611304565b9092909190606435906001600160a01b0382168203610134576084351515608435036101345760a4356001600160401b038111610134576102e0903690600401611304565b610104359291906001600160a01b038416840361013457600054604051635087a34f60e11b81526001600160a01b0390911695906020816004818a5afa90811561053e576000916105dd575b50602061034f9160405180938192632474521560e21b8352339060048401611361565b03818a5afa90811561053e576000916105a3575b501561056057604051966001600160401b0361012089019081119089111761054a576000996020996103a56103ae936103d9986101208d0160405236916112cd565b8a5236916112cd565b8789015260443560408801526001600160a01b031660608701526084351515608087015236916112cd565b60a084015260c43560c084015260e43560e084015260018060a01b0316610100830152604051809481809463664d54f560e11b82526040600483015261048a61043082516101206044860152610164850190611640565b61044b89840151916043199283878303016064880152611640565b6040840151608486015260608401516001600160a01b031660a48601526080840151151560c486015260a084015185820390920160e486015290611640565b60c082015161010484015260e0820151610124840152610100909101516001600160a01b031661014483015233602483015203925af1801561053e5760009061050b575b60209150608435156104fd576104e660045442611665565b81600052600b83526040600020555b604051908152f35b610506816118cf565b6104f5565b506020813d602011610536575b816105256020938361128f565b8101031261013457602090516104ce565b3d9150610518565b6040513d6000823e3d90fd5b634e487b7160e01b600052604160045260246000fd5b60405162461bcd60e51b815260206004820152601b60248201527a2220a79d1021b0b63632b91034b9903737ba10309036b2b6b132b960291b6044820152606490fd5b90506020813d6020116105d5575b816105be6020938361128f565b81010312610134576105cf90611354565b8a610363565b3d91506105b1565b90506020813d602011610608575b816105f86020938361128f565b810103126101345751602061032c565b3d91506105eb565b3461013457602080600319360112610134576004356001600160a01b03808216820361013457600054604051635087a34f60e11b81529116918382600481865afa801561053e5784926000916106d6575b509261068393604051809581948293632474521560e21b845260048401611361565b03915afa90811561053e576000916106a1575b506040519015158152f35b90508181813d83116106cf575b6106b8818361128f565b81010312610134576106c990611354565b82610696565b503d6106ae565b83819492503d8311610702575b6106ed818361128f565b81010312610134579051839190610683610661565b503d6106e3565b34610134576000366003190112610134576020600654604051908152f35b3461013457600036600319011261013457600154604051629032ff60e51b815290602090829060049082906001600160a01b03165afa801561053e57600090610776575b602090604051908152f35b506020813d82116107a0575b8161078f6020938361128f565b81010312610134576020905161076b565b3d9150610782565b346101345760003660031901126101345760005460405163997072f760e01b815290602090829060049082906001600160a01b03165afa801561053e5760009061077657602090604051908152f35b346101345760403660031901126101345760243560ff811680910361013457600054604051635087a34f60e11b81526001600160a01b0390911691906020908181600481875afa801561053e57829060009061094b575b604051632474521560e21b815292508290819061087090339060048401611361565b0381875afa90811561053e57600091610916575b50156108d55750813b1561013457600091606483926040519485938492630ce7fb8360e11b8452600435600485015260248401523360448401525af1801561053e576108cc57005b61001990611261565b6064906040519062461bcd60e51b82526004820152601a6024820152792220a79d21a0a62622a92fa4a9afa727aa2fa0afa6a2a6a122a960311b6044820152fd5b90508181813d8311610944575b61092d818361128f565b810103126101345761093e90611354565b84610884565b503d610923565b5081813d8311610973575b610960818361128f565b810103126101345781610870915161084e565b503d610956565b346101345760003660031901126101345760008054604051637c0f6b3560e01b81526001600160a01b039290918290600490829086165afa90811561053e57600091610a01575b506040519060208083018184528251809152816040850193019160005b8281106109eb5785850386f35b83518716855293810193928101926001016109de565b610a1e91503d806000833e610a16818361128f565b810190611822565b826109c1565b346101345760208060031936011261013457600080546040516318feeb1560e31b808252600480359083018190526024959490936001600160a01b0393908416929091828881865afa91821561053e57600092611032575b508161014081015115610ff65785600052600c875260ff60406000205416610fb5578060e0610ab760a0610ac094015160c084015190611665565b91015190611665565b9260405163997072f760e01b81528781600481855afa90811561053e57600091610f88575b508085109081159081610f7e575b508015610f55575b15610f1b5786600052600b8852604060002054908115159182610f11575b5081610f09575b50610c7f575b505081610c4d57505060005b60035411610bd2576000541692833b1561013457600160446000928360405197889485936332fa518560e21b85528860048601528401525af192831561053e57600c93610bc3575b50807fe36f8b7448daff4a52e2945db0d1d7a436279cc1d527a45c27835dcbd27f336d600080a2610baa816118cf565b600052526040600020600160ff19825416179055600080f35b610bcc90611261565b83610b7a565b6000541692833b1561013457600260446000928360405197889485936332fa518560e21b85528860048601528401525af192831561053e57600c93610c3e575b50807fd92fba445edb3153b571e6df782d7a66fd0ce668519273670820ee3a86da0ef4600080a2610baa565b610c4790611261565b83610c12565b60a00151606481029080820460641490151715610c6a5704610b32565b85634e487b7160e01b60005260116004526000fd5b60049493506000919695925060405194858092637c0f6b3560e01b82525afa92831561053e57600093610eec575b5060005b8351811015610e79578260005416610cec8685610cce85896118a5565b516040516362d4f89360e01b81529384928392168860048401611361565b0381855afa90811561053e57600091610e44575b5015610d2e575b506000198114610d1957600101610cb1565b86634e487b7160e01b60005260116004526000fd5b83610d3983876118a5565b5116813b15610134576000918983926040519485938492635d437b8560e11b845260048401525af1801561053e57610e35575b50826000541683610d7d83876118a5565b511690803b156101345760405163a462e50f60e01b8152916000918391829084908290610dae908a60048401611361565b03925af1801561053e57610e26575b5060008080808660015416600554905af1610dd661137a565b5015610de25787610d07565b60405162461bcd60e51b815260048101869052601f818901527f4661696c656420746f2073656e642070656e616c747920746f207661756c74006044820152606490fd5b610e2f90611261565b87610dbd565b610e3e90611261565b87610d6c565b90508681813d8311610e72575b610e5b818361128f565b8101031261013457610e6c90611354565b89610d00565b503d610e51565b50929390915060008281541691866040518094819382528760048301525afa90811561053e57600091610ec9575b50610ec18160e0610ab760a083015160c084015190611665565b908680610b26565b610ee691503d806000833e610ede818361128f565b8101906116e1565b85610ea7565b610f029193503d806000833e610a16818361128f565b9186610cad565b905089610b20565b421191508a610b19565b60405162461bcd60e51b8152600481018990526013818b01527210d85b9b9bdd08199a5b985b1a5e99481e595d606a1b6044820152606490fd5b5086600052600b88526040600020548015159081610f74575b50610afb565b905042118a610f6e565b905015158a610af3565b90508781813d8311610fae575b610f9f818361128f565b81010312610134575189610ae5565b503d610f95565b60405162461bcd60e51b815260048101889052601a818a015279141c9bdc1bdcd85b08185b1c9958591e48199a5b985b1a5e995960321b6044820152606490fd5b60405162461bcd60e51b8152600481018890526015818a015274139bdd0818481d9bdd1a5b99c81c1c9bdc1bdcd85b605a1b6044820152606490fd5b6110489192503d806000833e610ede818361128f565b9087610a7c565b34610134576000366003190112610134576020600754604051908152f35b34610134576000366003190112610134576000546040516001600160a01b039091168152602090f35b34610134576000366003190112610134576001546040516001600160a01b039091168152602090f35b34610134576000366003190112610134576020600454604051908152f35b3461013457602036600319011261013457600435600052600c602052602060ff604060002054166040519015158152f35b34610134576000366003190112610134576020600354604051908152f35b34610134576000366003190112610134576020600854604051908152f35b602080600319360112610134576004356001600160401b0381116101345736602382011215610134576111879036906024816004013591016112cd565b60ff6009541615611209576040516111bb8382816111ae8183019687815193849201611331565b810103808452018261128f565b519020600a54036111cf57610019346113aa565b6064906040519062461bcd60e51b825260048201526013602482015272496e76616c696420696e7669746520636f646560681b6044820152fd5b60405162461bcd60e51b815260048101839052602a60248201527f546869732069732061207075626c69632044414f2e20557365206a6f696e4441604482015269279034b739ba32b0b21760b11b6064820152608490fd5b6001600160401b03811161054a57604052565b604081019081106001600160401b0382111761054a57604052565b601f909101601f19168101906001600160401b0382119082101761054a57604052565b6001600160401b03811161054a57601f01601f191660200190565b9291926112d9826112b2565b916112e7604051938461128f565b829481845281830111610134578281602093846000960137010152565b9181601f84011215610134578235916001600160401b038311610134576020838186019501011161013457565b60005b8381106113445750506000910152565b8181015183820152602001611334565b5190811515820361013457565b9081526001600160a01b03909116602082015260400190565b3d156113a5573d9061138b826112b2565b91611399604051938461128f565b82523d6000602084013e565b606090565b906008548210611602576000805460408051635087a34f60e11b80825260049692949390926020926001600160a01b039283169084818b81855afa9081156115f85785918b9189916115bf575b5092611418938a51809581948293632474521560e21b845233918401611361565b03915afa9081156115b557869161157c575b5061154657848080809385600154165af161144361137a565b50156114f95783541691845190815281818881865afa9182156114ef5784926114c1575b5050813b156114bd579482916114949596838651809881958294632f2ff15d60e01b845233918401611361565b03925af19182156114b35750506114a85750565b6114b190611261565b565b51903d90823e3d90fd5b8280fd5b90809250813d83116114e8575b6114d8818361128f565b810103126114bd57513880611467565b503d6114ce565b85513d86823e3d90fd5b845162461bcd60e51b8152808801839052602160248201527f4661696c656420746f2073656e6420656e7472792066656520746f207661756c6044820152601d60fa1b6064820152608490fd5b855162461bcd60e51b8152808901849052601060248201526f20b63932b0b23c90309036b2b6b132b960811b6044820152606490fd5b90508381813d83116115ae575b611593818361128f565b810103126115aa576115a490611354565b3861142a565b8580fd5b503d611589565b87513d88823e3d90fd5b928092508391503d83116115f1575b6115d8818361128f565b810103126115ed575184908a906114186113f7565b8680fd5b503d6115ce565b88513d89823e3d90fd5b60405162461bcd60e51b8152602060048201526016602482015275496e73756666696369656e7420656e7472792066656560501b6044820152606490fd5b9060209161165981518092818552858086019101611331565b601f01601f1916010190565b9190820180921161167257565b634e487b7160e01b600052601160045260246000fd5b81601f8201121561013457805161169e816112b2565b926116ac604051948561128f565b81845260208284010111610134576116ca9160208085019101611331565b90565b51906001600160a01b038216820361013457565b906020828203126101345781516001600160401b03928382116101345701906101e0928383830312610134576040519384018481108282111761054a5760405282518181116101345782611736918501611688565b845260208301518181116101345782611750918501611688565b60208501526040838101519085015260608301516001600160a01b03811681036101345760608501526080830151600481101561013457608085015260a083015160a085015260c083015160c085015260e083015160e085015261010080840151908501526101206117c38185016116cd565b908501526101406117d5818501611354565b908501526101609182840151918211610134576117f3918401611688565b9083015261018080820151908301526101a0808201519083015261181b6101c08092016116cd565b9082015290565b9060209081838203126101345782516001600160401b0393848211610134570181601f8201121561013457805193841161054a578360051b906040519461186b8584018761128f565b85528380860192820101928311610134578301905b82821061188e575050505090565b83809161189a846116cd565b815201910190611880565b80518210156118b95760209160051b010190565b634e487b7160e01b600052603260045260246000fd5b60018060a01b0360009181835416916024846040948551928380926318feeb1560e31b82528760048301525afa908115611d04578591611cea575b5061016081018051908551916020926119328482816111ae8183019687815193849201611331565b5190208651838101906a3a3932b0b9bab93c96b4b760a91b8252600b815261195981611274565b519020036119a2575050506002541690813b1561199e5783916024839285519687938492637026e9fd60e01b845260048401525af19182156114b35750506114a85750565b8380fd5b805186516119bf8482816111ae8183019687815193849201611331565b5190208651838101906b1d1c99585cdd5c9e4b5bdd5d60a21b8252600c81526119e781611274565b51902003611a2c575050506002541690813b1561199e578391602483928551968793849263021814f960e41b845260048401525af19182156114b35750506114a85750565b959290939195518551611a4e8682816111ae8183019687815193849201611331565b5190208551858101906a72756c652d6368616e676560a81b8252600b8152611a7581611274565b51902014611a86575b505050505050565b6002541690813b156114bd5782916024839287519586938492636f0d949d60e11b845260048401525af1908115611cdf5750611cd0575b506101a0835193015192825190828201815192611ae48582818601966111ae81878a611331565b5190208451848101906b70617373437269746572696160a01b8252600c8152611b0c81611274565b51902003611b2757505050506003555b388080808080611a7e565b835183810190611b3f858285516111ae81878a611331565b5190208451848101906d3b37ba34b733a23ab930ba34b7b760911b8252600e8152611b6981611274565b51902003611b7d5750505050600455611b1c565b835183810190611b95858285516111ae81878a611331565b5190208451848101906c616273656e7450656e616c747960981b8252600d8152611bbe81611274565b51902003611bd25750505050600555611b1c565b835183810190611bea858285516111ae81878a611331565b5190208451848101906b18dbdd5b9d151bd15e1c195b60a21b8252600c8152611c1281611274565b51902003611c265750505050600655611b1c565b835183810190611c3e858285516111ae81878a611331565b5190208451848101906b1cd8dbdc99551bd15e1c195b60a21b8252600c8152611c6681611274565b51902003611c7a5750505050600755611b1c565b611c9483855180936111ae83830196879251928391611331565b51902091519081019067656e74727946656560c01b825260088152611cb881611274565b51902014611cc7575b50611b1c565b60085538611cc1565b611cd990611261565b38611abd565b8451903d90823e3d90fd5b611cfe91503d8087833e610ede818361128f565b3861190a565b84513d87823e3d90fdfea164736f6c6343000814000a60803461008d57601f61083d38819003918201601f19168301916001600160401b0383118484101761009257808492604094855283398101031261008d57610052602061004b836100a8565b92016100a8565b600080546001600160a01b039384166001600160a01b0319918216179091556001805492909316911617905560405161078090816100bd8239f35b600080fd5b634e487b7160e01b600052604160045260246000fd5b51906001600160a01b038216820361008d5756fe608060408181526004908136101561001657600080fd5b600092833560e01c9081632131c68c146104c35750806321814f901461033c5780632274346b146103135780633aef3900146102eb578381637026e9fd1461024c575080639a3cac6a146101c15763de1b293a1461007357600080fd5b34610181576020366003190112610181578282359260018060a01b0361009e816002541633146104e8565b825416908351946318feeb1560e31b865280828701528386602481865afa9586156101b7578496610193575b50823b1561018f576044849283875195869485936332fa518560e21b8552840152600360248401525af180156101855761016d575b50506080827f0c607c5751c330dfb1b02e97a8c6b40995b7c37f1247cb3ba0baa9308f3747ff93516101a06101808301519201518451948593606085526101558451809581606089015260208989019101610580565b6020850152830152601f01601f19168101030190a180f35b61017690610534565b6101815782386100ff565b8280fd5b83513d84823e3d90fd5b8380fd5b6101b09196503d8086833e6101a8818361055d565b810190610610565b94386100ca565b85513d86823e3d90fd5b5034610181576020366003190112610181576001600160a01b03823581811693919290849003610248576002549283166102085750506001600160a01b0319161760025580f35b906020606492519162461bcd60e51b8352820152601a602482015279111053c81859191c995cdcc81a5cc8185b1c9958591e481cd95d60321b6044820152fd5b8480fd5b828185346102de5760203660031901126102de5780359260018060a01b03610279816002541633146104e8565b83541691823b1561018f57846044859283855196879485936332fa518560e21b8552840152600360248401525af19081156102e257506102ca575b508060008051602061075483398151915291a280f35b6102d390610534565b6102de5781836102b4565b5080fd5b513d84823e3d90fd5b8382346102de57816003193601126102de57905490516001600160a01b039091168152602090f35b8382346102de57816003193601126102de5760015490516001600160a01b039091168152602090f35b5090346101815760203660031901126101815780359160018060a01b03610368816002541633146104e8565b602485828154168451928380926318feeb1560e31b825289898301525afa9081156104655786916104a9575b508160015416908131908481019182511161046f5760600151905187918416833b1561018157604490838751958694859363a9059cbb60e01b85528b85015260248401525af180156104655761044e575b509084929183541691823b1561018f57846044859283855196879485936332fa518560e21b8552840152600360248401525af19081156102e2575061043a57508060008051602061075483398151915291a280f35b61044390610534565b6102de5781386102b4565b61045c909591939295610534565b939091386103e5565b83513d88823e3d90fd5b845162461bcd60e51b81526020818801526014602482015273496e73756666696369656e742062616c616e636560601b6044820152606490fd5b6104bd91503d8088833e6101a8818361055d565b38610394565b8490346102de57816003193601126102de576002546001600160a01b03168152602090f35b156104ef57565b60405162461bcd60e51b815260206004820152601f60248201527f4f6e6c792044414f2063616e2063616c6c20746869732066756e6374696f6e006044820152606490fd5b6001600160401b03811161054757604052565b634e487b7160e01b600052604160045260246000fd5b601f909101601f19168101906001600160401b0382119082101761054757604052565b60005b8381106105935750506000910152565b8181015183820152602001610583565b81601f820112156105f75780516001600160401b03811161054757604051926105d6601f8301601f19166020018561055d565b818452602082840101116105f7576105f49160208085019101610580565b90565b600080fd5b51906001600160a01b03821682036105f757565b906020828203126105f75781516001600160401b03928382116105f75701906101e09283838303126105f757604051938401848110828211176105475760405282518181116105f757826106659185016105a3565b845260208301518181116105f7578261067f9185016105a3565b60208501526040838101519085015260608301516001600160a01b03811681036105f7576060850152608083015160048110156105f757608085015260a083015160a085015260c083015160c085015260e083015160e085015261010080840151908501526101206106f28185016105fc565b90850152610140808401519081151582036105f75785015261016091828401519182116105f7576107249184016105a3565b9083015261018080820151908301526101a0808201519083015261074c6101c08092016105fc565b908201529056fe712ae1383f79ac853f8d882153778e0260ef8f03b504e2866e0593e04d2b291fa164736f6c6343000814000a6080346200020c57620023e4601f38829003908101601f19168301906001600160401b038211848310176200021157808491604094859485528339810103126200020c576200004e8262000227565b906200005e602080940162000227565b926200006a836200023c565b506001600160a01b0393808516620001f9575b50600080516020620023c48339815191529260009484865285835260018487200154808752848720338852845260ff858820541615620001dc5750620000c382620002bc565b5060065468010000000000000000811015620001c8576001810180600655811015620001b457908693929160068552838520019116908160018060a01b031982541617905580835260078252838320600160ff19825416179055600482526032848420557fdb51946147af8f68f24b69cdb99d868cc4b53b75dce4e05d8f590bcf5281051c82855160328152a283825252600181842001917fbd79b86ffe0ab8e8776151514217cd7cacd52c909f66475c3af44e129f0b00ff8354927f3b5d4cc60d3ec3516ee8ae083bd60934f6eb2a6c54b1229985c41bfb092b2603809555519480a461205690816200034e8239f35b634e487b7160e01b87526032600452602487fd5b634e487b7160e01b87526041600452602487fd5b60449085519063e2517d3f60e01b82523360048301526024820152fd5b62000204906200023c565b50386200007d565b600080fd5b634e487b7160e01b600052604160045260246000fd5b51906001600160a01b03821682036200020c57565b6001600160a01b031660008181527fad3228b676f7d3cd4284a5443f17f1962b36e491b30a40b2405849e597ba5fb5602052604081205490919060ff16620002b857818052816020526040822081835260205260408220600160ff198254161790553391600080516020620023a48339815191528180a4600190565b5090565b6001600160a01b031660008181527f30710e496c9a8631e387d1ff5062c226d4ce9c9e008bff1f22ae157290ccbd626020526040812054909190600080516020620023c48339815191529060ff166200034857808352826020526040832082845260205260408320600160ff19825416179055600080516020620023a4833981519152339380a4600190565b50509056fe6080604052600436101561001257600080fd5b60003560e01c8063013cf08b146115e557806301ffc9a71461158f57806319cff706146113c05780631f56d126146113865780632131c68c1461135d578063248a9ca31461132e5780632b72ee511461123d5780632f2ff15d1461115057806336568abe146111095780634385963214610ff8578063488cba40146110875780635daf08ca1461104557806362d4f89314610ff85780637c0f6b3514610f4d57806391d1485414610f0057806391dcd5aa14610e83578063997072f714610e655780639a3cac6a14610de4578063a10f469e14610dbb578063a217fddf14610d9f578063a230c52414610d60578063a462e50f14610cb2578063a9330b0e14610c78578063ba86f70a14610ba6578063c7f758a814610af9578063cbe9461414610a87578063cc9aa9ea14610435578063cceb68f514610343578063d547741f146101945763e9c265181461016657600080fd5b3461018f57600036600319011261018f576020604051600080516020611f6a8339815191528152f35b600080fd5b3461018f57604036600319011261018f576004356101b06118d0565b90806000526000602052600080516020611fea8339815191526001916101dc8360406000200154611b89565b6101e68482611ad0565b501480610321575b6101f457005b6001600160a01b039182166000818152600760205260408120805460ff19169055909290825b610233575b505050600090815260036020526040812055005b600680548083101561031a5783908661024b856118e6565b939054600394851b1c161461026c5750505061026690611c8d565b8261021a565b909291945060001993848201918211610304576102ba9361028f61029b936118e6565b9054911b1c16916118e6565b90919082549060031b9160018060a01b03809116831b921b1916179055565b815480156102ee5701906102e56102d0836118e6565b81549060018060a01b039060031b1b19169055565b5581808061021f565b634e487b7160e01b600052603160045260246000fd5b634e487b7160e01b600052601160045260246000fd5b505061021f565b506001600160a01b03821660009081526007602052604090205460ff166101ee565b3461018f57600036600319011261018f57600180546001600160401b03811161041f579060405190602061037c818560051b01846117a4565b838352808301938483600052826000206000915b8383106103f85750505050604051928184019082855251809152604084019160408260051b86010195926000905b8382106103cb5786880387f35b909192939483806103e7839a603f198b82030186528951611901565b9997019594939190910191016103be565b94600d8582999761040b859a989a611e6e565b815201920192019190969496959395610390565b634e487b7160e01b600052604160045260246000fd5b3461018f5760031960403682011261018f576001600160401b036004351161018f57610120600435600401916004353603011261018f576104746118d0565b9061047d611b33565b6104878180611dd2565b919061049860246004350183611dd2565b909290919060043560640135906001600160a01b038216820361018f576084600435013590811515820361018f576104d69060a46004350190611dd2565b60043561010401359691949093916001600160a01b038816880361018f576105779661051361051c936040519b61050c8d611788565b3691611e04565b8a523691611e04565b60208801526004356044013560408801526001600160a01b03908116606088015260006080880181905260a0880181905260c0880181905260e088015242610100880152871661012087015215156101408601523691611e04565b61016083015260043560c481013561018084015260e401356101a08301526001600160a01b03166101c0820152600154600160401b81101561041f578060016105c39201600155611719565b610a7157815180519093906001600160401b03811161041f576105e6835461174e565b601f8111610a2d575b506020601f82116001146109c45781929394956000926109b9575b50508160011b916000199060031b1c19161782555b602083015180519093906001600160401b03811161041f57610644600185015461174e565b601f8111610972575b506020601f82116001146109035781929394956000926108f8575b50508160011b916000199060031b1c19161760018401555b6040810151600284015560608101516003840180546001600160a01b0319166001600160a01b0392909216919091179055608081015160048110156108e2576106cc9060038501611e4a565b60a081810151600485015560c0820151600585015560e0820151600685015561010082015160078501556101208201516008850180546101408501516001600160a81b03199091166001600160a01b03939093169290921791151590921b60ff60a01b1617905561016081015180519093906001600160401b03811161041f57610759600983015461174e565b601f811161089b575b506020601f821160011461082a578190600c94959660009261081f575b50508160011b916000199060031b1c19161760098201555b610180830151600a8201556101a0830151600b8201556101c090920151910180546001600160a01b0319166001600160a01b03929092169190911790556001546000198101919082116103045760405160209290916001600160a01b0316817fcd423cc1203c0af96b9b3d68d73b3064a69de2d14450bb7181c5e5df2132b358600080a38152f35b01519050868061077f565b601f198216956009840160005260206000209660005b818110610883575091600c9596979184600195941061086a575b505050811b016009820155610797565b015160001960f88460031b161c1916905586808061085a565b83830151895560019098019760209384019301610840565b600983016000526020600020601f830160051c8101602084106108db575b601f830160051c820181106108cf575050610762565b600081556001016108b9565b50806108b9565b634e487b7160e01b600052602160045260246000fd5b015190508580610668565b6001850160005260206000209060005b601f198416811061095a575060019394959683601f19811610610941575b505050811b016001840155610680565b015160001960f88460031b161c19169055858080610931565b9091602060018192858b015181550193019101610913565b600185016000526020600020601f830160051c8101602084106109b2575b601f830160051c820181106109a657505061064d565b60008155600101610990565b5080610990565b01519050858061060a565b8360005260206000209060005b601f1984168110610a15575060019394959683601f198116106109fc575b505050811b01825561061f565b015160001960f88460031b161c191690558580806109ef565b9091602060018192858b0151815501930191016109d1565b836000526020600020601f830160051c810160208410610a6a575b601f830160051c82018110610a5e5750506105ef565b60008155600101610a48565b5080610a48565b634e487b7160e01b600052600060045260246000fd5b3461018f57604036600319011261018f57600435602435600481101561018f5760207f3346abf262ac5179e9052765fb72484e0baab1f356f08442bb7a3054147631de91610ad3611b33565b610ae9816003610ae287611719565b5001611e4a565b610af660405180926118ad565ba2005b3461018f57602036600319011261018f5760006101c0604051610b1b81611788565b60608152606060208201528260408201528260608201528260808201528260a08201528260c08201528260e0820152826101008201528261012082015282610140820152606061016082015282610180820152826101a08201520152610ba2610b8e610b88600435611719565b50611e6e565b604051918291602083526020830190611901565b0390f35b3461018f5760208060031936011261018f57610bc06118ba565b90610bc9611b33565b6001600160a01b038281166000818152600384526040902080546001810191908210610304575560005260038252600482604060002054926005541660405192838092639f1f43af60e01b82525afa928315610c6c57600093610c3c575b50501015610c3157005b610c3a90611c9c565b005b9080929350813d8311610c65575b610c5481836117a4565b8101031261018f5751908380610c27565b503d610c4a565b6040513d6000823e3d90fd5b3461018f57602036600319011261018f576001600160a01b03610c996118ba565b1660005260036020526020604060002054604051908152f35b3461018f57604036600319011261018f57600435610cce6118d0565b90610cd7611b33565b610ce081611719565b5081600052600260205260406000209260018060a01b0316928360005260205260ff6040600020541615610d1057005b6006908260005260026020526040600020846000526020526040600020600160ff1982541617905501610d438154611c8d565b905560008051602061200a833981519152602060405160028152a3005b3461018f57602036600319011261018f576001600160a01b03610d816118ba565b166000526007602052602060ff604060002054166040519015158152f35b3461018f57600036600319011261018f57602060405160008152f35b3461018f57600036600319011261018f576020604051600080516020611fea8339815191528152f35b3461018f57602036600319011261018f57610dfd6118ba565b33600090815260008051602061202a833981519152602052604090205460ff1615610e4657600580546001600160a01b0319166001600160a01b038316179055610c3a90611baf565b60405163e2517d3f60e01b815233600482015260006024820152604490fd5b3461018f57600036600319011261018f576020600654604051908152f35b3461018f57600036600319011261018f5733600090815260008051602061202a833981519152602052604090205460ff1615610ec257610c3a336119da565b60405162461bcd60e51b815260206004820152601660248201527521b0b63632b91034b9903737ba1030b71030b236b4b760511b6044820152606490fd5b3461018f57604036600319011261018f57610f196118d0565b600435600052600060205260406000209060018060a01b0316600052602052602060ff604060002054166040519015158152f35b3461018f57600036600319011261018f5760405180600654808352602080930180916006600052846000209060005b86828210610fdb578686610f92828803836117a4565b604051928392818401908285525180915260408401929160005b828110610fbb57505050500390f35b83516001600160a01b031685528695509381019392810192600101610fac565b83546001600160a01b031685529093019260019283019201610f7c565b3461018f57604036600319011261018f576110116118d0565b600435600052600260205260406000209060018060a01b0316600052602052602060ff604060002054166040519015158152f35b3461018f57602036600319011261018f5760043560065481101561018f5761106e6020916118e6565b905460405160039290921b1c6001600160a01b03168152f35b3461018f57604036600319011261018f576110a06118ba565b6110a8611b33565b6001600160a01b03166000818152600460205260409020546024358101908110610304576020600080516020611faa83398151915291606481116000146111035760645b8460005260048352604060002055604051908152a2005b806110ec565b3461018f57604036600319011261018f576111226118d0565b336001600160a01b0382160361113e57610c3a90600435611ad0565b60405163334bd91960e11b8152600490fd5b3461018f57604036600319011261018f57600435600080516020611fea83398151915261117b6118d0565b91806000526000602052611196600160406000200154611b89565b6111a08382611c26565b50148061121a575b6111ae57005b600654600160401b81101561041f578161029b8260016111d194016006556118e6565b60018060a01b03168060005260076020526040600020600160ff1982541617905560046020526032604060002055600080516020611faa833981519152602060405160328152a2005b506001600160a01b03811660009081526007602052604090205460ff16156111a8565b3461018f57604036600319011261018f576112566118ba565b602435611261611b33565b6001600160a01b0382811660008181526004602090815260409091205490939192918481831061132057508103908111610304576004918491935b8060005283835284604060002055600080516020611faa83398151915283604051878152a2600554166040519283809263295e4f4160e11b82525afa928315610c6c576000936112f0575b505010610c3157005b9080929350813d8311611319575b61130881836117a4565b8101031261018f57519083806112e7565b503d6112fe565b91505060049160009361129c565b3461018f57602036600319011261018f5760043560005260006020526020600160406000200154604051908152f35b3461018f57600036600319011261018f576005546040516001600160a01b039091168152602090f35b3461018f57602036600319011261018f576001600160a01b036113a76118ba565b1660005260046020526020604060002054604051908152f35b3461018f57606036600319011261018f576004356024359060ff821680920361018f576044356001600160a01b038116929083900361018f57611401611b33565b61140a82611719565b509060ff600883015460a01c1615611554578260005260209160028352604060002085600052835260ff6040600020541661151f57600084815260028452604080822087835285529020805460ff191660011790558161148f5790600460008051602061200a8339815191529392016114838154611c8d565b90555b604051908152a3005b600182036114bd5790600560008051602061200a8339815191529392016114b68154611c8d565b9055611486565b600282036114e45790600660008051602061200a8339815191529392016114b68154611c8d565b60405162461bcd60e51b8152600481018490526013602482015272496e76616c696420766f74652063686f69636560681b6044820152606490fd5b60405162461bcd60e51b815260048101849052600d60248201526c105b1c9958591e481d9bdd1959609a1b6044820152606490fd5b60405162461bcd60e51b8152602060048201526013602482015272159bdd1a5b99c81b9bdd081c995c5d5a5c9959606a1b6044820152606490fd5b3461018f57602036600319011261018f5760043563ffffffff60e01b811680910361018f57602090637965db0b60e01b81149081156115d4575b506040519015158152f35b6301ffc9a760e01b149050826115c9565b3461018f57602036600319011261018f5760043560015481101561018f5761160c90611719565b50611616816117c7565b611622600183016117c7565b906002830154926003810154906004810154906005810154936006820154916007810154906008810154916009820161165a906117c7565b94600a83015498600b84015497600160a01b60019003600c8196015416996040519d8e9d8e996101e0808c528b016116919161186d565b8a810360208c01526116a29161186d565b98604001528c868216906060015260808d019060a01c60ff16906116c5916118ad565b60a08c015260c08b015260e08a0152610100890152811661012088015260a01c60ff1615156101408701528581036101608701526117029161186d565b926101808501526101a08401526101c08301520390f35b600154811015611738576001600052600d602060002091020190600090565b634e487b7160e01b600052603260045260246000fd5b90600182811c9216801561177e575b602083101461176857565b634e487b7160e01b600052602260045260246000fd5b91607f169161175d565b6101e081019081106001600160401b0382111761041f57604052565b601f909101601f19168101906001600160401b0382119082101761041f57604052565b90604051918260008254926117db8461174e565b90818452600194858116908160001461184a5750600114611807575b5050611805925003836117a4565b565b9093915060005260209081600020936000915b818310611832575050611805935082010138806117f7565b8554888401850152948501948794509183019161181a565b91505061180594506020925060ff191682840152151560051b82010138806117f7565b919082519283825260005b848110611899575050826000602080949584010152601f8019910116010190565b602081830181015184830182015201611878565b9060048210156108e25752565b600435906001600160a01b038216820361018f57565b602435906001600160a01b038216820361018f57565b60065481101561173857600660005260206000200190600090565b9061192a61191883516101e080855284019061186d565b6020840151838203602085015261186d565b91604081015160408301526119b560018060a01b039384606084015116606085015261195e608084015160808601906118ad565b60a083015160a085015260c083015160c085015260e083015160e08501526101008084015190850152610120858185015116908501526101408084015115159085015261016080840151908583039086015261186d565b9261018080830151908401526101a080830151908401526101c0809201511691015290565b6001600160a01b0316600081815260008051602061202a833981519152602052604081205490919060ff1615611a405781805281602052604082208183526020526040822060ff1981541690553391600080516020611fca8339815191528180a4600190565b5090565b6001600160a01b031660008181527f30710e496c9a8631e387d1ff5062c226d4ce9c9e008bff1f22ae157290ccbd626020526040812054909190600080516020611fea8339815191529060ff1615611acb5780835282602052604083208284526020526040832060ff198154169055600080516020611fca833981519152339380a4600190565b505090565b9060009180835282602052604083209160018060a01b03169182845260205260ff604084205416600014611acb5780835282602052604083208284526020526040832060ff198154169055600080516020611fca833981519152339380a4600190565b336000908152600080516020611f8a8339815191526020526040902054600080516020611f6a8339815191529060ff1615611b6b5750565b6044906040519063e2517d3f60e01b82523360048301526024820152fd5b80600052600060205260406000203360005260205260ff6040600020541615611b6b5750565b6001600160a01b03166000818152600080516020611f8a8339815191526020526040812054909190600080516020611f6a8339815191529060ff16611acb57808352826020526040832082845260205260408320600160ff19825416179055600080516020611f4a833981519152339380a4600190565b9060009180835282602052604083209160018060a01b03169182845260205260ff60408420541615600014611acb57808352826020526040832082845260205260408320600160ff19825416179055600080516020611f4a833981519152339380a4600190565b60001981146103045760010190565b6000600080516020611fea833981519152815280602052600191611cc583604084200154611b89565b611cce81611a44565b506001600160a01b03908116808352600760205260408320805491929160ff8116611cfc575b505050505050565b60ff1916905582845b611d24575b505081526003602052604081205550388080808080611cf4565b6006805480831015611dcb578385611d3b856118e6565b929054600393841b1c1614611d5c57505050611d5690611c8d565b84611d05565b9093919495965060001993848101908111611db7579161029b9161028f611d8395946118e6565b81548015611da3570190611d996102d0836118e6565b5581903880611d0a565b634e487b7160e01b85526031600452602485fd5b634e487b7160e01b88526011600452602488fd5b5050611d0a565b903590601e198136030182121561018f57018035906001600160401b03821161018f5760200191813603831361018f57565b9192916001600160401b03821161041f5760405191611e2d601f8201601f1916602001846117a4565b82948184528183011161018f578281602093846000960137010152565b9060048110156108e257815460ff60a01b191660a09190911b60ff60a01b16179055565b90604051611e7b81611788565b8092611e86816117c7565b8252611e94600182016117c7565b60208301526002810154604083015260038101546001600160a01b0380821660608501529060a01c60ff1660048110156108e2576101c092600c916080860152600481015460a0860152600581015460c0860152600681015460e0860152600781015461010086015260ff600882015484811661012088015260a01c161515610140860152611f25600982016117c7565b610160860152600a810154610180860152600b8101546101a086015201541691015256fe2f8788117e7eff1d82e926ec794901d17c78024a50270940304540a733656f0d3b5d4cc60d3ec3516ee8ae083bd60934f6eb2a6c54b1229985c41bfb092b2603c39f11a9300b508470eaed31f5842ba08c93181bcbe6a7fe34039aa7f2b80742db51946147af8f68f24b69cdb99d868cc4b53b75dce4e05d8f590bcf5281051cf6391f5c32d9c69d2a47ea670b442974b53935d1edc7fd64eb21e047a839171b829b824e2329e205435d941c9f13baf578548505283d29261236d8e6596d4636094f80829c509370abb2d421a078ba5926755d3de25d021dacf7bbd19853f7a2ad3228b676f7d3cd4284a5443f17f1962b36e491b30a40b2405849e597ba5fb5a164736f6c6343000814000a2f8788117e7eff1d82e926ec794901d17c78024a50270940304540a733656f0d829b824e2329e205435d941c9f13baf578548505283d29261236d8e6596d46366080346100bb57601f61092e38819003918201601f19168301916001600160401b038311848410176100c0578084926060946040528339810103126100bb57610047816100d6565b610072610062604061005b602086016100d6565b94016100d6565b9161006c816100ea565b50610168565b506001600160a01b03908082166100ab575b50811661009b575b60405161066a90816102a48239f35b6100a490610208565b503861008c565b6100b4906100ea565b5038610084565b600080fd5b634e487b7160e01b600052604160045260246000fd5b51906001600160a01b03821682036100bb57565b6001600160a01b031660008181527fad3228b676f7d3cd4284a5443f17f1962b36e491b30a40b2405849e597ba5fb5602052604081205490919060ff1661016457818052816020526040822081835260205260408220600160ff19825416179055339160008051602061090e8339815191528180a4600190565b5090565b6001600160a01b031660008181527f991c3211066600fc98d95d017c66f2884b1fa3d4cabc2576d000f3cc80931bda60205260408120549091907f3496e2e73c4d42b75d702e60d9e48102720b8691234415963a5a857b86425d079060ff1661020357808352826020526040832082845260205260408320600160ff1982541617905560008051602061090e833981519152339380a4600190565b505090565b6001600160a01b031660008181527fdae2aa361dfd1ca020a396615627d436107c35eff9fe7738a3512819782d706960205260408120549091907fd8aa0f3194971a2a116679f7c2090f6939c8d4e01a2a8d7e41d55e5351469e639060ff1661020357808352826020526040832082845260205260408320600160ff1982541617905560008051602061090e833981519152339380a460019056fe60806040908082526004908136101561004c575b5050361561002057600080fd5b513481527f2da466a7b24304f47e87fa2e1e5a81b9831ce54fec19055ce277ca2f39ba42c460203392a2005b600091823560e01c91826301ffc9a7146103fe5750816307bd0265146103d557816312065fe0146103ba578163248a9ca31461038f5781632f2ff15d1461037157816336568abe1461033657816391d14854146102fc57816391dcd5aa14610287578163a217fddf1461026c578163a9059cbb1461015357508063d547741f1461011e5763f0a3a97c146100e05780610013565b903461011a578160031936011261011a57602090517f3496e2e73c4d42b75d702e60d9e48102720b8691234415963a5a857b86425d078152f35b5080fd5b50903461011a57600161014f9161014a61013736610451565b939092838752866020528620015461047c565b6105ba565b5080f35b8391503461026857816003193601126102685780356001600160a01b0381169290839003610264576024359160008051602061063e8339815191528086528560205282862033875260205260ff83872054161561024957508247106102095750838284828215610200575b839283928392f1156101f7577f7084f5476618d8e60b11ef0d7d3f06914655adb8793e28ff7f018d4c76d505d59160209151908152a280f35b513d84823e3d90fd5b506108fc6101be565b6020606492519162461bcd60e51b8352820152601b60248201527a5661756c743a20696e73756666696369656e742062616c616e636560281b6044820152fd5b604492519163e2517d3f60e01b835233908301526024820152fd5b8380fd5b8280fd5b82843461011a578160031936011261011a5751908152602090f35b905082346102685782600319360112610268578280528260205280832033845260205260ff8184205416156102c0578261014f3361053e565b906020606492519162461bcd60e51b8352820152601660248201527521b0b63632b91034b9903737ba1030b71030b236b4b760511b6044820152fd5b82843461011a5760ff8160209361031236610451565b9082528186528282206001600160a01b039091168252855220549151911615158152f35b82843461011a5761034636610451565b91336001600160a01b0384160361036257509061014f916105ba565b5163334bd91960e11b81528490fd5b82843461011a57600161014f9161038a61013736610451565b6104c0565b8391503461026857602036600319011261026857816020936001923581528085522001549051908152f35b82843461011a578160031936011261011a5751478152602090f35b82843461011a578160031936011261011a576020905160008051602061063e8339815191528152f35b915034610268576020366003190112610268573563ffffffff60e01b81168091036102685760209250637965db0b60e01b8114908115610440575b5015158152f35b6301ffc9a760e01b14905083610439565b604090600319011261047757600435906024356001600160a01b03811681036104775790565b600080fd5b80600052600060205260406000203360005260205260ff60406000205416156104a25750565b6044906040519063e2517d3f60e01b82523360048301526024820152fd5b9060009180835282602052604083209160018060a01b03169182845260205260ff6040842054161560001461053957808352826020526040832082845260205260408320600160ff198254161790557f2f8788117e7eff1d82e926ec794901d17c78024a50270940304540a733656f0d339380a4600190565b505090565b6001600160a01b031660008181527fad3228b676f7d3cd4284a5443f17f1962b36e491b30a40b2405849e597ba5fb5602052604081205490919060ff16156105b65781805281602052604082208183526020526040822060ff198154169055339160008051602061061e8339815191528180a4600190565b5090565b9060009180835282602052604083209160018060a01b03169182845260205260ff6040842054166000146105395780835282602052604083208284526020526040832060ff19815416905560008051602061061e833981519152339380a460019056fef6391f5c32d9c69d2a47ea670b442974b53935d1edc7fd64eb21e047a839171bd8aa0f3194971a2a116679f7c2090f6939c8d4e01a2a8d7e41d55e5351469e63a164736f6c6343000814000a2f8788117e7eff1d82e926ec794901d17c78024a50270940304540a733656f0da164736f6c6343000814000a",
  "linkReferences": {},
  "deployedLinkReferences": {}
}