{
  "_format": "hh-sol-artifact-1",
  "contractName": "DAO",
  "sourceName": "contracts/DAO.sol",
  "abi": [
    {
      "inputs": [
        {
          "internalType": "address",
          "name": "_proposal",
          "type": "address"
        },
        {
          "internalType": "address",
          "name": "_vault",
          "type": "address"
        },
        {
          "internalType": "address",
          "name": "_execution",
          "type": "address"
        },
        {
          "internalType": "uint256",
          "name": "_passCriteria",
          "type": "uint256"
        },
        {
          "internalType": "uint256",
          "name": "_votingDurationInSeconds",
          "type": "uint256"
        },
        {
          "internalType": "uint256",
          "name": "_absentPenaltyInWei",
          "type": "uint256"
        },
        {
          "internalType": "uint256",
          "name": "_countToExpel",
          "type": "uint256"
        },
        {
          "internalType": "uint256",
          "name": "_scoreToExpel",
          "type": "uint256"
        },
        {
          "internalType": "uint256",
          "name": "_entryFeeInWei",
          "type": "uint256"
        },
        {
          "internalType": "bool",
          "name": "_isPrivate",
          "type": "bool"
        },
        {
          "internalType": "string",
          "name": "_inviteCode",
          "type": "string"
        }
      ],
      "stateMutability": "nonpayable",
      "type": "constructor"
    },
    {
      "anonymous": false,
      "inputs": [
        {
          "indexed": true,
          "internalType": "uint256",
          "name": "proposalId",
          "type": "uint256"
        }
      ],
      "name": "ProposalPassed",
      "type": "event"
    },
    {
      "anonymous": false,
      "inputs": [
        {
          "indexed": true,
          "internalType": "uint256",
          "name": "proposalId",
          "type": "uint256"
        }
      ],
      "name": "ProposalRejected",
      "type": "event"
    },
    {
      "inputs": [],
      "name": "absentPenalty",
      "outputs": [
        {
          "internalType": "uint256",
          "name": "",
          "type": "uint256"
        }
      ],
      "stateMutability": "view",
      "type": "function"
    },
    {
      "inputs": [],
      "name": "countToExpel",
      "outputs": [
        {
          "internalType": "uint256",
          "name": "",
          "type": "uint256"
        }
      ],
      "stateMutability": "view",
      "type": "function"
    },
    {
      "inputs": [
        {
          "internalType": "string",
          "name": "title",
          "type": "string"
        },
        {
          "internalType": "string",
          "name": "description",
          "type": "string"
        },
        {
          "internalType": "uint256",
          "name": "amount",
          "type": "uint256"
        },
        {
          "internalType": "address payable",
          "name": "recipient",
          "type": "address"
        },
        {
          "internalType": "bool",
          "name": "requireVote",
          "type": "bool"
        },
        {
          "internalType": "string",
          "name": "sanctionType",
          "type": "string"
        },
        {
          "internalType": "uint256",
          "name": "beforeValue",
          "type": "uint256"
        },
        {
          "internalType": "uint256",
          "name": "afterValue",
          "type": "uint256"
        },
        {
          "internalType": "address",
          "name": "targetMember",
          "type": "address"
        }
      ],
      "name": "createProposal",
      "outputs": [
        {
          "internalType": "uint256",
          "name": "",
          "type": "uint256"
        }
      ],
      "stateMutability": "nonpayable",
      "type": "function"
    },
    {
      "inputs": [],
      "name": "entryFee",
      "outputs": [
        {
          "internalType": "uint256",
          "name": "",
          "type": "uint256"
        }
      ],
      "stateMutability": "view",
      "type": "function"
    },
    {
      "inputs": [],
      "name": "executionContract",
      "outputs": [
        {
          "internalType": "contract Execution",
          "name": "",
          "type": "address"
        }
      ],
      "stateMutability": "view",
      "type": "function"
    },
    {
      "inputs": [
        {
          "internalType": "uint256",
          "name": "proposalId",
          "type": "uint256"
        }
      ],
      "name": "finalizeProposal",
      "outputs": [],
      "stateMutability": "nonpayable",
      "type": "function"
    },
    {
      "inputs": [],
      "name": "getAllMembers",
      "outputs": [
        {
          "internalType": "address[]",
          "name": "",
          "type": "address[]"
        }
      ],
      "stateMutability": "view",
      "type": "function"
    },
    {
      "inputs": [],
      "name": "getMemberCount",
      "outputs": [
        {
          "internalType": "uint256",
          "name": "",
          "type": "uint256"
        }
      ],
      "stateMutability": "view",
      "type": "function"
    },
    {
      "inputs": [],
      "name": "getTreasuryBalance",
      "outputs": [
        {
          "internalType": "uint256",
          "name": "",
          "type": "uint256"
        }
      ],
      "stateMutability": "view",
      "type": "function"
    },
    {
      "inputs": [],
      "name": "inviteCodeHash",
      "outputs": [
        {
          "internalType": "bytes32",
          "name": "",
          "type": "bytes32"
        }
      ],
      "stateMutability": "view",
      "type": "function"
    },
    {
      "inputs": [
        {
          "internalType": "address",
          "name": "user",
          "type": "address"
        }
      ],
      "name": "isMember",
      "outputs": [
        {
          "internalType": "bool",
          "name": "",
          "type": "bool"
        }
      ],
      "stateMutability": "view",
      "type": "function"
    },
    {
      "inputs": [],
      "name": "isPrivate",
      "outputs": [
        {
          "internalType": "bool",
          "name": "",
          "type": "bool"
        }
      ],
      "stateMutability": "view",
      "type": "function"
    },
    {
      "inputs": [],
      "name": "joinDAO",
      "outputs": [],
      "stateMutability": "payable",
      "type": "function"
    },
    {
      "inputs": [
        {
          "internalType": "string",
          "name": "_inviteCode",
          "type": "string"
        }
      ],
      "name": "joinDAOWithCode",
      "outputs": [],
      "stateMutability": "payable",
      "type": "function"
    },
    {
      "inputs": [],
      "name": "passCriteria",
      "outputs": [
        {
          "internalType": "uint256",
          "name": "",
          "type": "uint256"
        }
      ],
      "stateMutability": "view",
      "type": "function"
    },
    {
      "inputs": [],
      "name": "proposalContract",
      "outputs": [
        {
          "internalType": "contract Proposal",
          "name": "",
          "type": "address"
        }
      ],
      "stateMutability": "view",
      "type": "function"
    },
    {
      "inputs": [
        {
          "internalType": "uint256",
          "name": "",
          "type": "uint256"
        }
      ],
      "name": "proposalDeadline",
      "outputs": [
        {
          "internalType": "uint256",
          "name": "",
          "type": "uint256"
        }
      ],
      "stateMutability": "view",
      "type": "function"
    },
    {
      "inputs": [
        {
          "internalType": "uint256",
          "name": "",
          "type": "uint256"
        }
      ],
      "name": "proposalExecuted",
      "outputs": [
        {
          "internalType": "bool",
          "name": "",
          "type": "bool"
        }
      ],
      "stateMutability": "view",
      "type": "function"
    },
    {
      "inputs": [],
      "name": "scoreToExpel",
      "outputs": [
        {
          "internalType": "uint256",
          "name": "",
          "type": "uint256"
        }
      ],
      "stateMutability": "view",
      "type": "function"
    },
    {
      "inputs": [],
      "name": "vaultContract",
      "outputs": [
        {
          "internalType": "contract Vault",
          "name": "",
          "type": "address"
        }
      ],
      "stateMutability": "view",
      "type": "function"
    },
    {
      "inputs": [
        {
          "internalType": "uint256",
          "name": "proposalId",
          "type": "uint256"
        },
        {
          "internalType": "uint8",
          "name": "choice",
          "type": "uint8"
        }
      ],
      "name": "vote",
      "outputs": [],
      "stateMutability": "nonpayable",
      "type": "function"
    },
    {
      "inputs": [],
      "name": "votingDuration",
      "outputs": [
        {
          "internalType": "uint256",
          "name": "",
          "type": "uint256"
        }
      ],
      "stateMutability": "view",
      "type": "function"
    },
    {
      "stateMutability": "payable",
      "type": "receive"
    }
  ],
  "bytecode": "0x60808060405234620001a75762001b73908138038092620000218284620001c2565b8239610160818381010312620001a7576200003c81620001e6565b6200004a60208301620001e6565b6200005860408401620001e6565b916060840151608085015160a08601519060c08701519260e088015194610100890151966101208a0151988915158a03620001a7576101408b01519a6001600160401b03808d11620001a757818e01828e01601f011215620001a7578c820151908111620001ac576040519c60208e620000dc601f8501601f1916830182620001c2565b838152019e8301602083838601010111620001a75760208f9162000102940101620001fb565b60018060a01b0380928160018060a01b03199516856000541617600055168360015416176001551690600254161760025560035560045560055560065560075560085560ff196009541660ff82151516176009556200016c575b6040516119529081620002218239f35b62000199602060405180936200018b83830196879251928391620001fb565b8101038084520182620001c2565b519020600a5538806200015c565b600080fd5b634e487b7160e01b600052604160045260246000fd5b601f909101601f19168101906001600160401b03821190821017620001ac57604052565b51906001600160a01b0382168203620001a757565b60005b8381106200020f5750506000910152565b8181015183820152602001620001fe56fe6080604052600436101561001b575b361561001957600080fd5b005b60003560e01c806243b3d8146110fc578063072ea61c146110de5780630fd2e6f9146110c0578063103616e81461108f578063132002fc146110715780632274346b146110485780633aef39001461101f57806352bc9e82146110015780635652077c146109b25780637c0f6b3514610908578063943e821614610785578063997072f7146107365780639b5655dc146106b55780639f1f43af14610697578063a230c5241461059e578063bc2914b5146101d8578063bdf91db5146101ba578063c01f9e371461018e578063cf5cbd6914610170578063e0e9324414610147578063f63d13d7146101395763faff660e0361000e573461013457600036600319011261013457602060ff600954166040519015158152f35b600080fd5b600036600319011261013457005b34610134576000366003190112610134576002546040516001600160a01b039091168152602090f35b34610134576000366003190112610134576020600a54604051908152f35b3461013457602036600319011261013457600435600052600b6020526020604060002054604051908152f35b34610134576000366003190112610134576020600554604051908152f35b3461013457610120366003190112610134576004356001600160401b038111610134576102099036906004016111db565b906024356001600160401b038111610134576102299036906004016111db565b9092909190606435906001600160a01b0382168203610134576084351515608435036101345760a4356001600160401b0381116101345761026e9036906004016111db565b610104359291906001600160a01b038416840361013457600054604051635087a34f60e11b81526001600160a01b0390911695906020816004818a5afa9081156104cc5760009161056b575b5060206102dd9160405180938192632474521560e21b8352339060048401611215565b03818a5afa9081156104cc57600091610531575b50156104ee57604051966001600160401b036101208901908111908911176104d85760009960209961033361033c93610367986101208d0160405236916111a4565b8a5236916111a4565b8789015260443560408801526001600160a01b031660608701526084351515608087015236916111a4565b60a084015260c43560c084015260e43560e084015260018060a01b0316610100830152604051809481809463664d54f560e11b8252604060048301526104186103be82516101206044860152610164850190611251565b6103d989840151916043199283878303016064880152611251565b6040840151608486015260608401516001600160a01b031660a48601526080840151151560c486015260a084015185820390920160e486015290611251565b60c082015161010484015260e0820151610124840152610100909101516001600160a01b031661014483015233602483015203925af180156104cc57600090610499575b602091506084351561048b5761047460045442611276565b81600052600b83526040600020555b604051908152f35b610494816114e0565b610483565b506020813d6020116104c4575b816104b360209383611166565b81010312610134576020905161045c565b3d91506104a6565b6040513d6000823e3d90fd5b634e487b7160e01b600052604160045260246000fd5b60405162461bcd60e51b815260206004820152601b60248201527a2220a79d1021b0b63632b91034b9903737ba10309036b2b6b132b960291b6044820152606490fd5b90506020813d602011610563575b8161054c60209383611166565b810103126101345761055d90611208565b8a6102f1565b3d915061053f565b90506020813d602011610596575b8161058660209383611166565b81010312610134575160206102ba565b3d9150610579565b3461013457602080600319360112610134576004356001600160a01b03808216820361013457600054604051635087a34f60e11b81529116918382600481865afa80156104cc578492600091610664575b509261061193604051809581948293632474521560e21b845260048401611215565b03915afa9081156104cc5760009161062f575b506040519015158152f35b90508181813d831161065d575b6106468183611166565b810103126101345761065790611208565b82610624565b503d61063c565b83819492503d8311610690575b61067b8183611166565b810103126101345790518391906106116105ef565b503d610671565b34610134576000366003190112610134576020600654604051908152f35b3461013457600036600319011261013457600154604051629032ff60e51b815290602090829060049082906001600160a01b03165afa80156104cc57600090610704575b602090604051908152f35b506020813d821161072e575b8161071d60209383611166565b8101031261013457602090516106f9565b3d9150610710565b346101345760003660031901126101345760005460405163997072f760e01b815290602090829060049082906001600160a01b03165afa80156104cc5760009061070457602090604051908152f35b346101345760403660031901126101345760243560ff811680910361013457600054604051635087a34f60e11b81526001600160a01b0390911691906020908181600481875afa80156104cc5782906000906108d9575b604051632474521560e21b81529250829081906107fe90339060048401611215565b0381875afa9081156104cc576000916108a4575b50156108635750813b1561013457600091606483926040519485938492630ce7fb8360e11b8452600435600485015260248401523360448401525af180156104cc5761085a57005b61001990611138565b6064906040519062461bcd60e51b82526004820152601a6024820152792220a79d21a0a62622a92fa4a9afa727aa2fa0afa6a2a6a122a960311b6044820152fd5b90508181813d83116108d2575b6108bb8183611166565b81010312610134576108cc90611208565b84610812565b503d6108b1565b5081813d8311610901575b6108ee8183611166565b8101031261013457816107fe91516107dc565b503d6108e4565b346101345760003660031901126101345760008054604051637c0f6b3560e01b81526001600160a01b039290918290600490829086165afa9081156104cc5760009161098f575b506040519060208083018184528251809152816040850193019160005b8281106109795785850386f35b835187168552938101939281019260010161096c565b6109ac91503d806000833e6109a48183611166565b810190611433565b8261094f565b346101345760208060031936011261013457600080546040516318feeb1560e31b808252600480359083018190526024959490936001600160a01b0393908416929091828881865afa9182156104cc57600092610fe4575b508161014081015115610fa85785600052600c875260ff60406000205416610f67578060e0610a4560a0610a4e94015160c084015190611276565b91015190611276565b9260405163997072f760e01b81528781600481855afa9081156104cc57600091610f3a575b508085109081159081610f30575b508015610f07575b15610ecd5786600052600b8852604060002054908115159182610ec3575b5081610ebb575b50610c0d575b505081610bdb57505060005b60035411610b60576000541692833b1561013457600160446000928360405197889485936332fa518560e21b85528860048601528401525af19283156104cc57600c93610b51575b50807fe36f8b7448daff4a52e2945db0d1d7a436279cc1d527a45c27835dcbd27f336d600080a2610b38816114e0565b600052526040600020600160ff19825416179055600080f35b610b5a90611138565b83610b08565b6000541692833b1561013457600260446000928360405197889485936332fa518560e21b85528860048601528401525af19283156104cc57600c93610bcc575b50807fd92fba445edb3153b571e6df782d7a66fd0ce668519273670820ee3a86da0ef4600080a2610b38565b610bd590611138565b83610ba0565b60a00151606481029080820460641490151715610bf85704610ac0565b85634e487b7160e01b60005260116004526000fd5b60049493506000919695925060405194858092637c0f6b3560e01b82525afa9283156104cc57600093610e9e575b5060005b8351811015610e2b578260005416610c7a8685610c5c85896114b6565b516040516362d4f89360e01b81529384928392168860048401611215565b0381855afa9081156104cc57600091610df6575b5015610cbc575b506000198114610ca757600101610c3f565b86634e487b7160e01b60005260116004526000fd5b83610cc783876114b6565b5116813b15610134576000918983926040519485938492635d437b8560e11b845260048401525af180156104cc57610de7575b50826000541683610d0b83876114b6565b511690803b156101345760405163a462e50f60e01b8152916000918391829084908290610d3c908a60048401611215565b03925af180156104cc57610dd8575b5060008080808660015416600554905af13d15610dd3573d610d6c81611189565b90610d7a6040519283611166565b81526000873d92013e5b15610d8f5787610c95565b60405162461bcd60e51b815260048101869052601f818901527f4661696c656420746f2073656e642070656e616c747920746f207661756c74006044820152606490fd5b610d84565b610de190611138565b87610d4b565b610df090611138565b87610cfa565b90508681813d8311610e24575b610e0d8183611166565b8101031261013457610e1e90611208565b89610c8e565b503d610e03565b50929390915060008281541691866040518094819382528760048301525afa9081156104cc57600091610e7b575b50610e738160e0610a4560a083015160c084015190611276565b908680610ab4565b610e9891503d806000833e610e908183611166565b8101906112f2565b85610e59565b610eb49193503d806000833e6109a48183611166565b9186610c3b565b905089610aae565b421191508a610aa7565b60405162461bcd60e51b8152600481018990526013818b01527210d85b9b9bdd08199a5b985b1a5e99481e595d606a1b6044820152606490fd5b5086600052600b88526040600020548015159081610f26575b50610a89565b905042118a610f20565b905015158a610a81565b90508781813d8311610f60575b610f518183611166565b81010312610134575189610a73565b503d610f47565b60405162461bcd60e51b815260048101889052601a818a015279141c9bdc1bdcd85b08185b1c9958591e48199a5b985b1a5e995960321b6044820152606490fd5b60405162461bcd60e51b8152600481018890526015818a015274139bdd0818481d9bdd1a5b99c81c1c9bdc1bdcd85b605a1b6044820152606490fd5b610ffa9192503d806000833e610e908183611166565b9087610a0a565b34610134576000366003190112610134576020600754604051908152f35b34610134576000366003190112610134576000546040516001600160a01b039091168152602090f35b34610134576000366003190112610134576001546040516001600160a01b039091168152602090f35b34610134576000366003190112610134576020600454604051908152f35b3461013457602036600319011261013457600435600052600c602052602060ff604060002054166040519015158152f35b34610134576000366003190112610134576020600354604051908152f35b34610134576000366003190112610134576020600854604051908152f35b6020366003190112610134576004356001600160401b0381116101345736602382011215610134576100199036906024816004013591016111a4565b6001600160401b0381116104d857604052565b604081019081106001600160401b038211176104d857604052565b601f909101601f19168101906001600160401b038211908210176104d857604052565b6001600160401b0381116104d857601f01601f191660200190565b9291926111b082611189565b916111be6040519384611166565b829481845281830111610134578281602093846000960137010152565b9181601f84011215610134578235916001600160401b038311610134576020838186019501011161013457565b5190811515820361013457565b9081526001600160a01b03909116602082015260400190565b60005b8381106112415750506000910152565b8181015183820152602001611231565b9060209161126a8151809281855285808601910161122e565b601f01601f1916010190565b9190820180921161128357565b634e487b7160e01b600052601160045260246000fd5b81601f820112156101345780516112af81611189565b926112bd6040519485611166565b81845260208284010111610134576112db916020808501910161122e565b90565b51906001600160a01b038216820361013457565b906020828203126101345781516001600160401b03928382116101345701906101e092838383031261013457604051938401848110828211176104d85760405282518181116101345782611347918501611299565b845260208301518181116101345782611361918501611299565b60208501526040838101519085015260608301516001600160a01b03811681036101345760608501526080830151600481101561013457608085015260a083015160a085015260c083015160c085015260e083015160e085015261010080840151908501526101206113d48185016112de565b908501526101406113e6818501611208565b90850152610160918284015191821161013457611404918401611299565b9083015261018080820151908301526101a0808201519083015261142c6101c08092016112de565b9082015290565b9060209081838203126101345782516001600160401b0393848211610134570181601f820112156101345780519384116104d8578360051b906040519461147c85840187611166565b85528380860192820101928311610134578301905b82821061149f575050505090565b8380916114ab846112de565b815201910190611491565b80518210156114ca5760209160051b010190565b634e487b7160e01b600052603260045260246000fd5b60018060a01b0360009181835416916024846040948551928380926318feeb1560e31b82528760048301525afa90811561193b578591611921575b506101608101805190855191602092611550848281611543818301968781519384920161122e565b8101038084520182611166565b5190208651838101906a3a3932b0b9bab93c96b4b760a91b8252600b81526115778161114b565b519020036115d5575050506002541690813b156115d15783916024839285519687938492637026e9fd60e01b845260048401525af19182156115c75750506115bc5750565b6115c590611138565b565b51903d90823e3d90fd5b8380fd5b805186516115f2848281611543818301968781519384920161122e565b5190208651838101906b1d1c99585cdd5c9e4b5bdd5d60a21b8252600c815261161a8161114b565b5190200361165f575050506002541690813b156115d1578391602483928551968793849263021814f960e41b845260048401525af19182156115c75750506115bc5750565b959290939195518551611681868281611543818301968781519384920161122e565b5190208551858101906a72756c652d6368616e676560a81b8252600b81526116a88161114b565b519020146116b9575b505050505050565b6002541690813b1561191d5782916024839287519586938492636f0d949d60e11b845260048401525af19081156119125750611903575b506101a083519301519282519082820181519261171785828186019661154381878a61122e565b5190208451848101906b70617373437269746572696160a01b8252600c815261173f8161114b565b5190200361175a57505050506003555b3880808080806116b1565b8351838101906117728582855161154381878a61122e565b5190208451848101906d3b37ba34b733a23ab930ba34b7b760911b8252600e815261179c8161114b565b519020036117b0575050505060045561174f565b8351838101906117c88582855161154381878a61122e565b5190208451848101906c616273656e7450656e616c747960981b8252600d81526117f18161114b565b51902003611805575050505060055561174f565b83518381019061181d8582855161154381878a61122e565b5190208451848101906b18dbdd5b9d151bd15e1c195b60a21b8252600c81526118458161114b565b51902003611859575050505060065561174f565b8351838101906118718582855161154381878a61122e565b5190208451848101906b1cd8dbdc99551bd15e1c195b60a21b8252600c81526118998161114b565b519020036118ad575050505060075561174f565b6118c783855180936115438383019687925192839161122e565b51902091519081019067656e74727946656560c01b8252600881526118eb8161114b565b519020146118fa575b5061174f565b600855386118f4565b61190c90611138565b386116f0565b8451903d90823e3d90fd5b8280fd5b61193591503d8087833e610e908183611166565b3861151b565b84513d87823e3d90fdfea164736f6c6343000814000a",
  "linkReferences": {},
  "deployedLinkReferences": {}
}