{
  "_format": "hh-sol-artifact-1",
  "contractName": "DAO",
  "sourceName": "contracts/DAO.sol",
  "abi": [
    {
      "inputs": [
        {
          "internalType": "address",
          "name": "_proposal",
          "type": "address"
        },
        {
          "internalType": "address",
          "name": "_vault",
          "type": "address"
        },
        {
          "internalType": "address",
          "name": "_execution",
          "type": "address"
        }
      ],
      "stateMutability": "nonpayable",
      "type": "constructor"
    },
    {
      "anonymous": false,
      "inputs": [
        {
          "indexed": true,
          "internalType": "uint256",
          "name": "proposalId",
          "type": "uint256"
        }
      ],
      "name": "ProposalPassed",
      "type": "event"
    },
    {
      "anonymous": false,
      "inputs": [
        {
          "indexed": true,
          "internalType": "uint256",
          "name": "proposalId",
          "type": "uint256"
        }
      ],
      "name": "ProposalRejected",
      "type": "event"
    },
    {
      "inputs": [],
      "name": "absentPenalty",
      "outputs": [
        {
          "internalType": "uint256",
          "name": "",
          "type": "uint256"
        }
      ],
      "stateMutability": "view",
      "type": "function"
    },
    {
      "inputs": [
        {
          "internalType": "address",
          "name": "member",
          "type": "address"
        },
        {
          "internalType": "uint256",
          "name": "amount",
          "type": "uint256"
        }
      ],
      "name": "adminSubGlassScore",
      "outputs": [],
      "stateMutability": "nonpayable",
      "type": "function"
    },
    {
      "inputs": [],
      "name": "countToExpel",
      "outputs": [
        {
          "internalType": "uint256",
          "name": "",
          "type": "uint256"
        }
      ],
      "stateMutability": "view",
      "type": "function"
    },
    {
      "inputs": [
        {
          "internalType": "string",
          "name": "title",
          "type": "string"
        },
        {
          "internalType": "string",
          "name": "description",
          "type": "string"
        },
        {
          "internalType": "uint256",
          "name": "amount",
          "type": "uint256"
        },
        {
          "internalType": "address payable",
          "name": "recipient",
          "type": "address"
        },
        {
          "internalType": "bool",
          "name": "requireVote",
          "type": "bool"
        },
        {
          "internalType": "string",
          "name": "sanctionType",
          "type": "string"
        },
        {
          "internalType": "uint256",
          "name": "beforeValue",
          "type": "uint256"
        },
        {
          "internalType": "uint256",
          "name": "afterValue",
          "type": "uint256"
        },
        {
          "internalType": "address",
          "name": "targetMember",
          "type": "address"
        }
      ],
      "name": "createProposal",
      "outputs": [
        {
          "internalType": "uint256",
          "name": "",
          "type": "uint256"
        }
      ],
      "stateMutability": "nonpayable",
      "type": "function"
    },
    {
      "inputs": [],
      "name": "entryFee",
      "outputs": [
        {
          "internalType": "uint256",
          "name": "",
          "type": "uint256"
        }
      ],
      "stateMutability": "view",
      "type": "function"
    },
    {
      "inputs": [],
      "name": "executionContract",
      "outputs": [
        {
          "internalType": "contract Execution",
          "name": "",
          "type": "address"
        }
      ],
      "stateMutability": "view",
      "type": "function"
    },
    {
      "inputs": [
        {
          "internalType": "uint256",
          "name": "proposalId",
          "type": "uint256"
        }
      ],
      "name": "finalizeProposal",
      "outputs": [],
      "stateMutability": "nonpayable",
      "type": "function"
    },
    {
      "inputs": [],
      "name": "getAllMembers",
      "outputs": [
        {
          "internalType": "address[]",
          "name": "",
          "type": "address[]"
        }
      ],
      "stateMutability": "view",
      "type": "function"
    },
    {
      "inputs": [],
      "name": "getMemberCount",
      "outputs": [
        {
          "internalType": "uint256",
          "name": "",
          "type": "uint256"
        }
      ],
      "stateMutability": "view",
      "type": "function"
    },
    {
      "inputs": [],
      "name": "getTreasuryBalance",
      "outputs": [
        {
          "internalType": "uint256",
          "name": "",
          "type": "uint256"
        }
      ],
      "stateMutability": "view",
      "type": "function"
    },
    {
      "inputs": [],
      "name": "joinDAO",
      "outputs": [],
      "stateMutability": "payable",
      "type": "function"
    },
    {
      "inputs": [],
      "name": "passCriteria",
      "outputs": [
        {
          "internalType": "uint256",
          "name": "",
          "type": "uint256"
        }
      ],
      "stateMutability": "view",
      "type": "function"
    },
    {
      "inputs": [],
      "name": "proposalContract",
      "outputs": [
        {
          "internalType": "contract Proposal",
          "name": "",
          "type": "address"
        }
      ],
      "stateMutability": "view",
      "type": "function"
    },
    {
      "inputs": [
        {
          "internalType": "uint256",
          "name": "",
          "type": "uint256"
        }
      ],
      "name": "proposalDeadline",
      "outputs": [
        {
          "internalType": "uint256",
          "name": "",
          "type": "uint256"
        }
      ],
      "stateMutability": "view",
      "type": "function"
    },
    {
      "inputs": [
        {
          "internalType": "uint256",
          "name": "",
          "type": "uint256"
        }
      ],
      "name": "proposalExecuted",
      "outputs": [
        {
          "internalType": "bool",
          "name": "",
          "type": "bool"
        }
      ],
      "stateMutability": "view",
      "type": "function"
    },
    {
      "inputs": [],
      "name": "scoreToExpel",
      "outputs": [
        {
          "internalType": "uint256",
          "name": "",
          "type": "uint256"
        }
      ],
      "stateMutability": "view",
      "type": "function"
    },
    {
      "inputs": [],
      "name": "vaultContract",
      "outputs": [
        {
          "internalType": "contract Vault",
          "name": "",
          "type": "address"
        }
      ],
      "stateMutability": "view",
      "type": "function"
    },
    {
      "inputs": [
        {
          "internalType": "uint256",
          "name": "proposalId",
          "type": "uint256"
        },
        {
          "internalType": "uint8",
          "name": "choice",
          "type": "uint8"
        }
      ],
      "name": "vote",
      "outputs": [],
      "stateMutability": "nonpayable",
      "type": "function"
    },
    {
      "inputs": [],
      "name": "votingDuration",
      "outputs": [
        {
          "internalType": "uint256",
          "name": "",
          "type": "uint256"
        }
      ],
      "stateMutability": "view",
      "type": "function"
    },
    {
      "stateMutability": "payable",
      "type": "receive"
    }
  ],
  "bytecode": "0x608034620000d757601f62001fbc38819003918201601f19168301916001600160401b03831184841017620000dc57808492606094604052833981010312620000d7576200004d81620000f2565b906200006a60406200006260208401620000f2565b9201620000f2565b60326003556203f48060045566038d7ea4c680006005556005600655601460075566b1a2bc2ec5000060085560018060a01b0380928160018060a01b031995168560005416176000551683600154161760015516906002541617600255604051611eb49081620001088239f35b600080fd5b634e487b7160e01b600052604160045260246000fd5b51906001600160a01b0382168203620000d75756fe608080604052600436101561001d575b50361561001b57600080fd5b005b60003560e01c908163072ea61c14611506575080630fd2e6f9146114e8578063103616e8146114b7578063132002fc146114995780632274346b146114705780633aef39001461144757806352bc9e82146114295780635652077c14610b8957806357cce7d414610a275780637c0f6b351461097d578063943e8216146107f7578063997072f7146107a85780639b5655dc146107275780639f1f43af14610709578063bc2914b5146103dd578063bdf91db5146103bf578063c01f9e3714610393578063e0e932441461036a5763f63d13d7146100fb573861000f565b600036600319011261021857600054604051635087a34f60e11b80825260209290916001600160a01b03918216908481600481855afa801561020c578591600091610339575b50604051632474521560e21b815260048101919091523360248201529182908180604481015b03915afa90811561020c57600091610304575b506102cc5760085434036102925760008080803485600154165af161019d6115e7565b501561024d5760005416906040519081528281600481855afa92831561020c5760009361021d575b5050803b1561021857604051632f2ff15d60e01b815260048101839052336024820152906000908290604490829084905af1801561020c5761020357005b61001b9061154f565b6040513d6000823e3d90fd5b600080fd5b9080929350813d8311610246575b610235818361159c565b8101031261021857519038806101c5565b503d61022b565b60405162461bcd60e51b815260048101849052601d60248201527f4661696c656420746f2073656e6420457468657220746f207661756c740000006044820152606490fd5b60405162461bcd60e51b8152600481018490526012602482015271496e636f7272656374206a6f696e2066656560701b6044820152606490fd5b60405162461bcd60e51b815260048101849052601060248201526f20b63932b0b23c90309036b2b6b132b960811b6044820152606490fd5b90508381813d8311610332575b61031b818361159c565b810103126102185761032c906115be565b3861017a565b503d610311565b82819392503d8311610363575b610350818361159c565b8101031261021857518490610167610141565b503d610346565b34610218576000366003190112610218576002546040516001600160a01b039091168152602090f35b346102185760203660031901126102185760043560005260096020526020604060002054604051908152f35b34610218576000366003190112610218576020600554604051908152f35b34610218576101203660031901126102185767ffffffffffffffff60043581811161021857610410903690600401611521565b90916024358181116102185761042a903690600401611521565b91606435906001600160a01b0382168203610218576084351515608435036102185760a43590811161021857610464903690600401611521565b610104359491939092916001600160a01b038616860361021857600054604051635087a34f60e11b81526001600160a01b0390911698906020816004818d5afa90811561020c576000916106d6575b50604051632474521560e21b815260048101919091523360248201526020816044818d5afa90811561020c5760009161066e575b50936105276105529460009b989461051e60209c999561050a6105969d9a611617565b6040519a6105178c611563565b3691611663565b89523691611663565b868a015260443560408701526001600160a01b03166060860152608435151560808601523691611663565b60a083015260c43560c083015260e43560e08301526001600160a01b031661010082015260405163664d54f560e11b815294859384928391903390600484016116e2565b03925af190811561020c5760009161063c575b506000546001600160a01b031690813b15610218576000809260446040518095819363012232e960e61b8352336004840152600360248401525af191821561020c5760209261062d575b506084351561061f576106086004544261178f565b81600052600983526040600020555b604051908152f35b61062881611a10565b610617565b6106369061154f565b826105f3565b90506020813d602011610666575b816106576020938361159c565b810103126102185751816105a9565b3d915061064a565b93989591999692979490506020843d6020116106ce575b816106926020938361159c565b81010312610218576105276020996105969961051e60009d61050a6106b96105529a6115be565b969a9d505095999c505094989b5094506104e7565b3d9150610685565b90506020813d602011610701575b816106f16020938361159c565b81010312610218575160206104b3565b3d91506106e4565b34610218576000366003190112610218576020600654604051908152f35b3461021857600036600319011261021857600154604051629032ff60e51b815290602090829060049082906001600160a01b03165afa801561020c57600090610776575b602090604051908152f35b506020813d82116107a0575b8161078f6020938361159c565b81010312610218576020905161076b565b3d9150610782565b346102185760003660031901126102185760005460405163997072f760e01b815290602090829060049082906001600160a01b03165afa801561020c5760009061077657602090604051908152f35b346102185760403660031901126102185760243560ff811680910361021857600054604051635087a34f60e11b81526001600160a01b039182169060208082600481865afa91821561020c5760009261094e575b50604051632474521560e21b815260048101929092523360248301528082604481865afa90811561020c57600091610917575b506108899150611617565b803b15610218576000809160446040518094819363012232e960e61b8352336004840152600160248401525af1801561020c57610908575b506000541690813b1561021857600091606483926040519485938492630ce7fb8360e11b8452600435600485015260248401523360448401525af1801561020c5761020357005b6109119061154f565b826108c1565b905081813d8311610947575b61092d818361159c565b8101031261021857610941610889916115be565b8561087e565b503d610923565b91508082813d8311610976575b610965818361159c565b81010312610218579051908061084b565b503d61095b565b346102185760003660031901126102185760008054604051637c0f6b3560e01b81526001600160a01b039290918290600490829086165afa90811561020c57600091610a04575b506040519060208083018184528251809152816040850193019160005b8281106109ee5785850386f35b83518716855293810193928101926001016109e1565b610a2191503d806000833e610a19818361159c565b810190611937565b826109c4565b34610218576040366003190112610218576004356001600160a01b038181169182900361021857600054169060405163a217fddf60e01b81526020908181600481875afa801561020c578290600090610b5a575b604051632474521560e21b8152600481019190915233602482015291508180604481015b0381875afa90811561020c57600091610b25575b5015610af55750813b1561021857600091604483926040519485938492632b72ee5160e01b8452600484015260243560248401525af1801561020c5761020357005b6064906040519062461bcd60e51b8252600482015260096024820152682737ba1030b236b4b760b91b6044820152fd5b90508181813d8311610b53575b610b3c818361159c565b8101031261021857610b4d906115be565b84610ab3565b503d610b32565b5081813d8311610b82575b610b6f818361159c565b810103126102185781610a9f9151610a7b565b503d610b65565b3461021857602036600319011261021857600080546040516318feeb1560e31b8082526004803590830152926001600160a01b039092169181602481855afa801561020c576101409160009161140e575b500151156113d157600435600052600960205260406000205442111561138c57600435600052600a60205260ff6040600020541661134757600060049160405192838092637c0f6b3560e01b82525afa90811561020c5760009161132c575b5060005b8151811015610eaa576000546001600160a01b0390811690610c9890602090610c6685876119bb565b516040516362d4f89360e01b8152600480359082015291166001600160a01b0316602482015291829081906044820190565b0381855afa90811561020c57600091610e70575b5015610cdb575b506000198114610cc557600101610c3d565b634e487b7160e01b600052601160045260246000fd5b6001600160a01b03610ced83856119bb565b5116813b1561021857600091602483926040519485938492635d437b8560e11b845260048401525af1801561020c57610e61575b506000546001600160a01b0390811690610d3b83856119bb565b511690803b156102185760405163a462e50f60e01b815260048035908201526001600160a01b039290921660248301526000908290604490829084905af1801561020c57610e52575b506000546001600160a01b0390811690610d9e83856119bb565b511690803b156102185760008092604051928391632b72ee5160e01b83526004830152600360248301528160449586925af1801561020c57610e43575b50600080808060018060a01b0360015416600554905af1610dfa6115e7565b50610cb3576064907f4661696c656420746f2073656e642070656e616c747920746f207661756c74006040519162461bcd60e51b835260206004840152601f6024840152820152fd5b610e4c9061154f565b84610ddb565b610e5b9061154f565b83610d84565b610e6a9061154f565b83610d21565b90506020813d602011610ea2575b81610e8b6020938361159c565b8101031261021857610e9c906115be565b85610cac565b3d9150610e7e565b8260018060a01b03600054166040519182526004356004830152600082602481845afa91821561020c57600092611307575b5060a08201610eff610ef4825160c08601519061178f565b60e08501519061178f565b90816112ec5750506000905b600354821061127557506000546001600160a01b0316803b1561021857600080916044604051809481936332fa518560e21b83526004356004840152600160248401525af1801561020c57611266575b506004357fe36f8b7448daff4a52e2945db0d1d7a436279cc1d527a45c27835dcbd27f336d600080a2610f8f600435611a10565b61016082015160208151910120610fa46119e5565b6020815191012003611099575b600435600052600a6020526040600020600160ff1982541617905561016082015160208151910120610fe16119e5565b6020815191012014610fef57005b60035411611048576000546101c0909101516001600160a01b039182169116813b156102185760009160448392604051948593849263012232e960e61b84526004840152600460248401525af1801561020c5761020357005b6000546101c0909101516001600160a01b039182169116813b1561021857600091604483926040519485938492632b72ee5160e01b84526004840152600a60248401525af1801561020c5761020357005b81516110e26031604051809370022bc32b1baba34b7b71021b432b1b59d1607d1b60208301526110d2815180926020868601910161169a565b810103601181018452018261159c565b60405180608081011067ffffffffffffffff608083011117611250576111ea81600093608060209401604052604782527f566f74652059455320696620746865206f726967696e616c2070726f706f7361848301527f6c2077617320657865637574656420636f72726563746c792c204e4f206f746860408301526632b93bb4b9b29760c91b606083015260018060a01b038554169160018060a01b0361012089015116906040519261119484611563565b835285830152856040830152856060830152600160808301526111b56119e5565b60a08301528560c08301528560e083015261010082015260405194858094819363664d54f560e11b83523090600484016116e2565b03925af190811561020c5760009161121e575b5061120a6004544261178f565b906000526009602052604060002055610fb1565b90506020813d602011611248575b816112396020938361159c565b810103126102185751836111fd565b3d915061122c565b634e487b7160e01b600052604160045260246000fd5b61126f9061154f565b82610f5b565b803b1561021857600080916044604051809481936332fa518560e21b83526004356004840152600260248401525af1801561020c576112dd575b506004357fd92fba445edb3153b571e6df782d7a66fd0ce668519273670820ee3a86da0ef4600080a2610fb1565b6112e69061154f565b826112af565b51606481029080820460641490151715610cc5570490610f0b565b6113259192503d806000833e61131d818361159c565b8101906117f5565b9082610edc565b61134191503d806000833e610a19818361159c565b82610c39565b60405162461bcd60e51b815260206004820152601a60248201527f50726f706f73616c20616c72656164792066696e616c697a65640000000000006044820152606490fd5b60405162461bcd60e51b815260206004820152601760248201527f566f74696e6720706572696f64206e6f7420656e6465640000000000000000006044820152606490fd5b60405162461bcd60e51b8152602060048201526015602482015274139bdd0818481d9bdd1a5b99c81c1c9bdc1bdcd85b605a1b6044820152606490fd5b61142391503d806000833e61131d818361159c565b84610bda565b34610218576000366003190112610218576020600754604051908152f35b34610218576000366003190112610218576000546040516001600160a01b039091168152602090f35b34610218576000366003190112610218576001546040516001600160a01b039091168152602090f35b34610218576000366003190112610218576020600454604051908152f35b3461021857602036600319011261021857600435600052600a602052602060ff604060002054166040519015158152f35b34610218576000366003190112610218576020600354604051908152f35b34610218576000366003190112610218576020906008548152f35b9181601f840112156102185782359167ffffffffffffffff8311610218576020838186019501011161021857565b67ffffffffffffffff811161125057604052565b610120810190811067ffffffffffffffff82111761125057604052565b6040810190811067ffffffffffffffff82111761125057604052565b90601f8019910116810190811067ffffffffffffffff82111761125057604052565b5190811515820361021857565b67ffffffffffffffff811161125057601f01601f191660200190565b3d15611612573d906115f8826115cb565b91611606604051938461159c565b82523d6000602084013e565b606090565b1561161e57565b60405162461bcd60e51b815260206004820152601b60248201527f44414f3a2043616c6c6572206973206e6f742061206d656d62657200000000006044820152606490fd5b92919261166f826115cb565b9161167d604051938461159c565b829481845281830111610218578281602093846000960137010152565b60005b8381106116ad5750506000910152565b818101518382015260200161169d565b906020916116d68151809281855285808601910161169a565b601f01601f1916010190565b9060209093929360408352805190611708610120928360408701526101608601906116bd565b6117238483015191603f1992838883030160608901526116bd565b926040830151608087015261176760018060a01b039485938460608701511660a08a01526080860151151560c08a015260a0860151908983030160e08a01526116bd565b9260c081015191610100928389015260e0820151908801520151166101408501529416910152565b91908201809211610cc557565b81601f820112156102185780516117b2816115cb565b926117c0604051948561159c565b81845260208284010111610218576117de916020808501910161169a565b90565b51906001600160a01b038216820361021857565b9060208282031261021857815167ffffffffffffffff928382116102185701906101e09283838303126102185760405193840184811082821117611250576040528251818111610218578261184b91850161179c565b84526020830151818111610218578261186591850161179c565b60208501526040838101519085015260608301516001600160a01b03811681036102185760608501526080830151600481101561021857608085015260a083015160a085015260c083015160c085015260e083015160e085015261010080840151908501526101206118d88185016117e1565b908501526101406118ea8185016115be565b9085015261016091828401519182116102185761190891840161179c565b9083015261018080820151908301526101a080820151908301526119306101c08092016117e1565b9082015290565b90602090818382031261021857825167ffffffffffffffff93848211610218570181601f82011215610218578051938411611250578360051b90604051946119818584018761159c565b85528380860192820101928311610218578301905b8282106119a4575050505090565b8380916119b0846117e1565b815201910190611996565b80518210156119cf5760209160051b010190565b634e487b7160e01b600052603260045260246000fd5b604051906119f282611580565b600f82526e657865637574696f6e2d636865636b60881b6020830152565b60018060a01b0360009181835416916024846040948551928380926318feeb1560e31b82528760048301525afa908115611e74578591611e5a575b506101608101518051906020917f064209fe56a5ba1791fac474c27dc1b9a6a4977f861d5d2396f722fcf844be9f8383019182206b1d1c99585cdd5c9e4b5bdd5d60a21b858a51611a9b81611580565b600c8152015203611afd57505050506002541690813b15611af9578391602483928551968793849263021814f960e41b845260048401525af1918215611aef575050611ae45750565b611aed9061154f565b565b51903d90823e3d90fd5b8380fd5b7f407aa5060640b5b11bd7a646d2a67db16d0d8062f0162ee0107d6c4df9647d0b825182206a3a3932b0b9bab93c96b4b760a91b858a51611b3d81611580565b600b8152015203611b8657505050506002541690813b15611af95783916024839285519687938492637026e9fd60e01b845260048401525af1918215611aef575050611ae45750565b7f3263cae112f9b06c4fe976e1e563a8899e0058acad03a56562786e4496d29f6b915190206a72756c652d6368616e676560a81b838851611bc681611580565b600b8152015214611bda575b505050505050565b81518051907f8d7cbff25736090ef6444f570ee8941e761e0637e76a2b77e283ff85ec26489d8382019283206b70617373437269746572696160a01b858a51611c2281611580565b600c8152015203611c8a575050506101a001516003555b6002541690813b15611af95783916024839285519687938492636f0d949d60e11b845260048401525af1918215611aef575050611c7b575b8080808080611bd2565b611c849061154f565b38611c71565b7fabbfab0bf365e6c544c4bdc8c27846b398ef85deeb99659a1bd1cbbfddbc69a1815183206d3b37ba34b733a23ab930ba34b7b760911b858a51611ccd81611580565b600e8152015203611ce8575050506101a00151600455611c39565b7f5b1a74ca49fc06542ef79783aa6db8771703259f73767276192f168bbdfaf8cb815183206c616273656e7450656e616c747960981b858a51611d2a81611580565b600d8152015203611d45575050506101a00151600555611c39565b7f343f1cee2704e73b1859bb1bdd73f8fce853b1f06ea40bd99f16c5c103e913188151832067656e74727946656560c01b858a51611d8281611580565b60088152015203611d9d575050506101a00151600855611c39565b7f806b2ce9432a34cfc9fdab6b94db5bfcfdd69b0eaa656d83bea17439bebe142d815183206b18dbdd5b9d151bd15e1c195b60a21b858a51611dde81611580565b600c8152015203611df9575050506101a00151600655611c39565b51902085517f7433394719dfd8fcf3f7ef7662d3d256ff5523945834c1c05aad0d14d49b75b4926b1cd8dbdc99551bd15e1c195b60a21b91611e3a81611580565b600c8152015214611e4c575b50611c39565b6101a0015160075538611e46565b611e6e91503d8087833e61131d818361159c565b38611a4b565b84513d87823e3d90fdfea26469706673582212201e39d574e33f64899a1f4ad3f1402c99ea57e49b9cbf50f2dc139b826b6a149d64736f6c63430008140033",
  "linkReferences": {},
  "deployedLinkReferences": {}
}