{
  "_format": "hh-sol-artifact-1",
  "contractName": "DAO",
  "sourceName": "contracts/DAO.sol",
  "abi": [
    {
      "inputs": [
        {
          "internalType": "address",
          "name": "_proposal",
          "type": "address"
        },
        {
          "internalType": "address",
          "name": "_vault",
          "type": "address"
        },
        {
          "internalType": "address",
          "name": "_execution",
          "type": "address"
        }
      ],
      "stateMutability": "nonpayable",
      "type": "constructor"
    },
    {
      "anonymous": false,
      "inputs": [
        {
          "indexed": true,
          "internalType": "uint256",
          "name": "proposalId",
          "type": "uint256"
        }
      ],
      "name": "ProposalPassed",
      "type": "event"
    },
    {
      "anonymous": false,
      "inputs": [
        {
          "indexed": true,
          "internalType": "uint256",
          "name": "proposalId",
          "type": "uint256"
        }
      ],
      "name": "ProposalRejected",
      "type": "event"
    },
    {
      "inputs": [],
      "name": "absentPenalty",
      "outputs": [
        {
          "internalType": "uint256",
          "name": "",
          "type": "uint256"
        }
      ],
      "stateMutability": "view",
      "type": "function"
    },
    {
      "inputs": [
        {
          "internalType": "address",
          "name": "member",
          "type": "address"
        },
        {
          "internalType": "uint256",
          "name": "amount",
          "type": "uint256"
        }
      ],
      "name": "adminSubGlassScore",
      "outputs": [],
      "stateMutability": "nonpayable",
      "type": "function"
    },
    {
      "inputs": [],
      "name": "countToExpel",
      "outputs": [
        {
          "internalType": "uint256",
          "name": "",
          "type": "uint256"
        }
      ],
      "stateMutability": "view",
      "type": "function"
    },
    {
      "inputs": [
        {
          "internalType": "string",
          "name": "title",
          "type": "string"
        },
        {
          "internalType": "string",
          "name": "description",
          "type": "string"
        },
        {
          "internalType": "uint256",
          "name": "amount",
          "type": "uint256"
        },
        {
          "internalType": "address payable",
          "name": "recipient",
          "type": "address"
        },
        {
          "internalType": "bool",
          "name": "requireVote",
          "type": "bool"
        },
        {
          "internalType": "string",
          "name": "sanctionType",
          "type": "string"
        },
        {
          "internalType": "uint256",
          "name": "beforeValue",
          "type": "uint256"
        },
        {
          "internalType": "uint256",
          "name": "afterValue",
          "type": "uint256"
        },
        {
          "internalType": "address",
          "name": "targetMember",
          "type": "address"
        }
      ],
      "name": "createProposal",
      "outputs": [
        {
          "internalType": "uint256",
          "name": "",
          "type": "uint256"
        }
      ],
      "stateMutability": "nonpayable",
      "type": "function"
    },
    {
      "inputs": [],
      "name": "entryFee",
      "outputs": [
        {
          "internalType": "uint256",
          "name": "",
          "type": "uint256"
        }
      ],
      "stateMutability": "view",
      "type": "function"
    },
    {
      "inputs": [],
      "name": "executionContract",
      "outputs": [
        {
          "internalType": "contract Execution",
          "name": "",
          "type": "address"
        }
      ],
      "stateMutability": "view",
      "type": "function"
    },
    {
      "inputs": [
        {
          "internalType": "uint256",
          "name": "proposalId",
          "type": "uint256"
        }
      ],
      "name": "finalizeProposal",
      "outputs": [],
      "stateMutability": "nonpayable",
      "type": "function"
    },
    {
      "inputs": [],
      "name": "getAllMembers",
      "outputs": [
        {
          "internalType": "address[]",
          "name": "",
          "type": "address[]"
        }
      ],
      "stateMutability": "view",
      "type": "function"
    },
    {
      "inputs": [],
      "name": "getMemberCount",
      "outputs": [
        {
          "internalType": "uint256",
          "name": "",
          "type": "uint256"
        }
      ],
      "stateMutability": "view",
      "type": "function"
    },
    {
      "inputs": [],
      "name": "getTreasuryBalance",
      "outputs": [
        {
          "internalType": "uint256",
          "name": "",
          "type": "uint256"
        }
      ],
      "stateMutability": "view",
      "type": "function"
    },
    {
      "inputs": [
        {
          "internalType": "address",
          "name": "user",
          "type": "address"
        }
      ],
      "name": "isMember",
      "outputs": [
        {
          "internalType": "bool",
          "name": "",
          "type": "bool"
        }
      ],
      "stateMutability": "view",
      "type": "function"
    },
    {
      "inputs": [],
      "name": "joinDAO",
      "outputs": [],
      "stateMutability": "payable",
      "type": "function"
    },
    {
      "inputs": [],
      "name": "passCriteria",
      "outputs": [
        {
          "internalType": "uint256",
          "name": "",
          "type": "uint256"
        }
      ],
      "stateMutability": "view",
      "type": "function"
    },
    {
      "inputs": [],
      "name": "proposalContract",
      "outputs": [
        {
          "internalType": "contract Proposal",
          "name": "",
          "type": "address"
        }
      ],
      "stateMutability": "view",
      "type": "function"
    },
    {
      "inputs": [
        {
          "internalType": "uint256",
          "name": "",
          "type": "uint256"
        }
      ],
      "name": "proposalDeadline",
      "outputs": [
        {
          "internalType": "uint256",
          "name": "",
          "type": "uint256"
        }
      ],
      "stateMutability": "view",
      "type": "function"
    },
    {
      "inputs": [
        {
          "internalType": "uint256",
          "name": "",
          "type": "uint256"
        }
      ],
      "name": "proposalExecuted",
      "outputs": [
        {
          "internalType": "bool",
          "name": "",
          "type": "bool"
        }
      ],
      "stateMutability": "view",
      "type": "function"
    },
    {
      "inputs": [],
      "name": "scoreToExpel",
      "outputs": [
        {
          "internalType": "uint256",
          "name": "",
          "type": "uint256"
        }
      ],
      "stateMutability": "view",
      "type": "function"
    },
    {
      "inputs": [],
      "name": "vaultContract",
      "outputs": [
        {
          "internalType": "contract Vault",
          "name": "",
          "type": "address"
        }
      ],
      "stateMutability": "view",
      "type": "function"
    },
    {
      "inputs": [
        {
          "internalType": "uint256",
          "name": "proposalId",
          "type": "uint256"
        },
        {
          "internalType": "uint8",
          "name": "choice",
          "type": "uint8"
        }
      ],
      "name": "vote",
      "outputs": [],
      "stateMutability": "nonpayable",
      "type": "function"
    },
    {
      "inputs": [],
      "name": "votingDuration",
      "outputs": [
        {
          "internalType": "uint256",
          "name": "",
          "type": "uint256"
        }
      ],
      "stateMutability": "view",
      "type": "function"
    },
    {
      "stateMutability": "payable",
      "type": "receive"
    }
  ],
  "bytecode": "0x608034620000d757601f620020df38819003918201601f19168301916001600160401b03831184841017620000dc57808492606094604052833981010312620000d7576200004d81620000f2565b906200006a60406200006260208401620000f2565b9201620000f2565b60326003556203f48060045566038d7ea4c680006005556005600655601460075566b1a2bc2ec5000060085560018060a01b0380928160018060a01b031995168560005416176000551683600154161760015516906002541617600255604051611fd79081620001088239f35b600080fd5b634e487b7160e01b600052604160045260246000fd5b51906001600160a01b0382168203620000d75756fe608080604052600436101561001d575b50361561001b57600080fd5b005b60003560e01c908163072ea61c14611613575080630fd2e6f9146115f5578063103616e8146115c4578063132002fc146115a65780632274346b1461157d5780633aef39001461155457806352bc9e82146115365780635652077c14610c9657806357cce7d414610b365780637c0f6b3514610a8c578063943e821614610906578063997072f7146108b75780639b5655dc146108365780639f1f43af14610818578063a230c52414610714578063bc2914b5146103e8578063bdf91db5146103ca578063c01f9e371461039e578063e0e93244146103755763f63d13d714610106573861000f565b600036600319011261022357600054604051635087a34f60e11b80825260209290916001600160a01b03918216908481600481855afa8015610217578591600091610344575b50604051632474521560e21b815260048101919091523360248201529182908180604481015b03915afa9081156102175760009161030f575b506102d757600854340361029d5760008080803485600154165af16101a861170a565b50156102585760005416906040519081528281600481855afa92831561021757600093610228575b5050803b1561022357604051632f2ff15d60e01b815260048101839052336024820152906000908290604490829084905af180156102175761020e57005b61001b90611672565b6040513d6000823e3d90fd5b600080fd5b9080929350813d8311610251575b61024081836116bf565b8101031261022357519038806101d0565b503d610236565b60405162461bcd60e51b815260048101849052601d60248201527f4661696c656420746f2073656e6420457468657220746f207661756c740000006044820152606490fd5b60405162461bcd60e51b8152600481018490526012602482015271496e636f7272656374206a6f696e2066656560701b6044820152606490fd5b60405162461bcd60e51b815260048101849052601060248201526f20b63932b0b23c90309036b2b6b132b960811b6044820152606490fd5b90508381813d831161033d575b61032681836116bf565b8101031261022357610337906116e1565b38610185565b503d61031c565b82819392503d831161036e575b61035b81836116bf565b810103126102235751849061017261014c565b503d610351565b34610223576000366003190112610223576002546040516001600160a01b039091168152602090f35b346102235760203660031901126102235760043560005260096020526020604060002054604051908152f35b34610223576000366003190112610223576020600554604051908152f35b34610223576101203660031901126102235767ffffffffffffffff6004358181116102235761041b903690600401611644565b909160243581811161022357610435903690600401611644565b91606435906001600160a01b0382168203610223576084351515608435036102235760a4359081116102235761046f903690600401611644565b610104359491939092916001600160a01b038616860361022357600054604051635087a34f60e11b81526001600160a01b0390911698906020816004818d5afa908115610217576000916106e1575b50604051632474521560e21b815260048101919091523360248201526020816044818d5afa90811561021757600091610679575b509361053261055d9460009b989461052960209c99956105156105a19d9a61173a565b6040519a6105228c611686565b3691611786565b89523691611786565b868a015260443560408701526001600160a01b03166060860152608435151560808601523691611786565b60a083015260c43560c083015260e43560e08301526001600160a01b031661010082015260405163664d54f560e11b81529485938492839190339060048401611805565b03925af190811561021757600091610647575b506000546001600160a01b031690813b15610223576000809260446040518095819363012232e960e61b8352336004840152600360248401525af191821561021757602092610638575b506084351561062a57610613600454426118b2565b81600052600983526040600020555b604051908152f35b61063381611b33565b610622565b61064190611672565b826105fe565b90506020813d602011610671575b81610662602093836116bf565b810103126102235751816105b4565b3d9150610655565b93989591999692979490506020843d6020116106d9575b8161069d602093836116bf565b81010312610223576105326020996105a19961052960009d6105156106c461055d9a6116e1565b969a9d505095999c505094989b5094506104f2565b3d9150610690565b90506020813d60201161070c575b816106fc602093836116bf565b81010312610223575160206104be565b3d91506106ef565b34610223576020806003193601126102235761072e61162e565b600054604051635087a34f60e11b81526001600160a01b03909116918382600481865afa80156102175784926000916107e5575b50604051632474521560e21b815260048101919091526001600160a01b0390911660248201529182908180604481015b03915afa908115610217576000916107b0575b506040519015158152f35b90508181813d83116107de575b6107c781836116bf565b81010312610223576107d8906116e1565b826107a5565b503d6107bd565b83819492503d8311610811575b6107fc81836116bf565b81010312610223579051839190610792610762565b503d6107f2565b34610223576000366003190112610223576020600654604051908152f35b3461022357600036600319011261022357600154604051629032ff60e51b815290602090829060049082906001600160a01b03165afa801561021757600090610885575b602090604051908152f35b506020813d82116108af575b8161089e602093836116bf565b81010312610223576020905161087a565b3d9150610891565b346102235760003660031901126102235760005460405163997072f760e01b815290602090829060049082906001600160a01b03165afa80156102175760009061088557602090604051908152f35b346102235760403660031901126102235760243560ff811680910361022357600054604051635087a34f60e11b81526001600160a01b039182169060208082600481865afa91821561021757600092610a5d575b50604051632474521560e21b815260048101929092523360248301528082604481865afa90811561021757600091610a26575b50610998915061173a565b803b15610223576000809160446040518094819363012232e960e61b8352336004840152600160248401525af1801561021757610a17575b506000541690813b1561022357600091606483926040519485938492630ce7fb8360e11b8452600435600485015260248401523360448401525af180156102175761020e57005b610a2090611672565b826109d0565b905081813d8311610a56575b610a3c81836116bf565b8101031261022357610a50610998916116e1565b8561098d565b503d610a32565b91508082813d8311610a85575b610a7481836116bf565b81010312610223579051908061095a565b503d610a6a565b346102235760003660031901126102235760008054604051637c0f6b3560e01b81526001600160a01b039290918290600490829086165afa90811561021757600091610b13575b506040519060208083018184528251809152816040850193019160005b828110610afd5785850386f35b8351871685529381019392810192600101610af0565b610b3091503d806000833e610b2881836116bf565b810190611a5a565b82610ad3565b3461022357604036600319011261022357610b4f61162e565b60005460405163a217fddf60e01b81526001600160a01b039182169291906020908181600481885afa8015610217578290600090610c67575b604051632474521560e21b8152600481019190915233602482015291508180604481015b0381885afa90811561021757600091610c32575b5015610c025750823b15610223576044600092836040519586948593632b72ee5160e01b855216600484015260243560248401525af180156102175761020e57005b6064906040519062461bcd60e51b8252600482015260096024820152682737ba1030b236b4b760b91b6044820152fd5b90508181813d8311610c60575b610c4981836116bf565b8101031261022357610c5a906116e1565b85610bc0565b503d610c3f565b5081813d8311610c8f575b610c7c81836116bf565b810103126102235781610bac9151610b88565b503d610c72565b3461022357602036600319011261022357600080546040516318feeb1560e31b8082526004803590830152926001600160a01b039092169181602481855afa8015610217576101409160009161151b575b500151156114de57600435600052600960205260406000205442111561149957600435600052600a60205260ff6040600020541661145457600060049160405192838092637c0f6b3560e01b82525afa90811561021757600091611439575b5060005b8151811015610fb7576000546001600160a01b0390811690610da590602090610d738587611ade565b516040516362d4f89360e01b8152600480359082015291166001600160a01b0316602482015291829081906044820190565b0381855afa90811561021757600091610f7d575b5015610de8575b506000198114610dd257600101610d4a565b634e487b7160e01b600052601160045260246000fd5b6001600160a01b03610dfa8385611ade565b5116813b1561022357600091602483926040519485938492635d437b8560e11b845260048401525af1801561021757610f6e575b506000546001600160a01b0390811690610e488385611ade565b511690803b156102235760405163a462e50f60e01b815260048035908201526001600160a01b039290921660248301526000908290604490829084905af1801561021757610f5f575b506000546001600160a01b0390811690610eab8385611ade565b511690803b156102235760008092604051928391632b72ee5160e01b83526004830152600360248301528160449586925af1801561021757610f50575b50600080808060018060a01b0360015416600554905af1610f0761170a565b50610dc0576064907f4661696c656420746f2073656e642070656e616c747920746f207661756c74006040519162461bcd60e51b835260206004840152601f6024840152820152fd5b610f5990611672565b84610ee8565b610f6890611672565b83610e91565b610f7790611672565b83610e2e565b90506020813d602011610faf575b81610f98602093836116bf565b8101031261022357610fa9906116e1565b85610db9565b3d9150610f8b565b8260018060a01b03600054166040519182526004356004830152600082602481845afa91821561021757600092611414575b5060a0820161100c611001825160c0860151906118b2565b60e0850151906118b2565b90816113f95750506000905b600354821061138257506000546001600160a01b0316803b1561022357600080916044604051809481936332fa518560e21b83526004356004840152600160248401525af1801561021757611373575b506004357fe36f8b7448daff4a52e2945db0d1d7a436279cc1d527a45c27835dcbd27f336d600080a261109c600435611b33565b610160820151602081519101206110b1611b08565b60208151910120036111a6575b600435600052600a6020526040600020600160ff19825416179055610160820151602081519101206110ee611b08565b60208151910120146110fc57005b60035411611155576000546101c0909101516001600160a01b039182169116813b156102235760009160448392604051948593849263012232e960e61b84526004840152600460248401525af180156102175761020e57005b6000546101c0909101516001600160a01b039182169116813b1561022357600091604483926040519485938492632b72ee5160e01b84526004840152600a60248401525af180156102175761020e57005b81516111ef6031604051809370022bc32b1baba34b7b71021b432b1b59d1607d1b60208301526111df81518092602086860191016117bd565b81010360118101845201826116bf565b60405180608081011067ffffffffffffffff60808301111761135d576112f781600093608060209401604052604782527f566f74652059455320696620746865206f726967696e616c2070726f706f7361848301527f6c2077617320657865637574656420636f72726563746c792c204e4f206f746860408301526632b93bb4b9b29760c91b606083015260018060a01b038554169160018060a01b036101208901511690604051926112a184611686565b835285830152856040830152856060830152600160808301526112c2611b08565b60a08301528560c08301528560e083015261010082015260405194858094819363664d54f560e11b8352309060048401611805565b03925af19081156102175760009161132b575b50611317600454426118b2565b9060005260096020526040600020556110be565b90506020813d602011611355575b81611346602093836116bf565b8101031261022357518361130a565b3d9150611339565b634e487b7160e01b600052604160045260246000fd5b61137c90611672565b82611068565b803b1561022357600080916044604051809481936332fa518560e21b83526004356004840152600260248401525af18015610217576113ea575b506004357fd92fba445edb3153b571e6df782d7a66fd0ce668519273670820ee3a86da0ef4600080a26110be565b6113f390611672565b826113bc565b51606481029080820460641490151715610dd2570490611018565b6114329192503d806000833e61142a81836116bf565b810190611918565b9082610fe9565b61144e91503d806000833e610b2881836116bf565b82610d46565b60405162461bcd60e51b815260206004820152601a60248201527f50726f706f73616c20616c72656164792066696e616c697a65640000000000006044820152606490fd5b60405162461bcd60e51b815260206004820152601760248201527f566f74696e6720706572696f64206e6f7420656e6465640000000000000000006044820152606490fd5b60405162461bcd60e51b8152602060048201526015602482015274139bdd0818481d9bdd1a5b99c81c1c9bdc1bdcd85b605a1b6044820152606490fd5b61153091503d806000833e61142a81836116bf565b84610ce7565b34610223576000366003190112610223576020600754604051908152f35b34610223576000366003190112610223576000546040516001600160a01b039091168152602090f35b34610223576000366003190112610223576001546040516001600160a01b039091168152602090f35b34610223576000366003190112610223576020600454604051908152f35b3461022357602036600319011261022357600435600052600a602052602060ff604060002054166040519015158152f35b34610223576000366003190112610223576020600354604051908152f35b34610223576000366003190112610223576020906008548152f35b600435906001600160a01b038216820361022357565b9181601f840112156102235782359167ffffffffffffffff8311610223576020838186019501011161022357565b67ffffffffffffffff811161135d57604052565b610120810190811067ffffffffffffffff82111761135d57604052565b6040810190811067ffffffffffffffff82111761135d57604052565b90601f8019910116810190811067ffffffffffffffff82111761135d57604052565b5190811515820361022357565b67ffffffffffffffff811161135d57601f01601f191660200190565b3d15611735573d9061171b826116ee565b9161172960405193846116bf565b82523d6000602084013e565b606090565b1561174157565b60405162461bcd60e51b815260206004820152601b60248201527f44414f3a2043616c6c6572206973206e6f742061206d656d62657200000000006044820152606490fd5b929192611792826116ee565b916117a060405193846116bf565b829481845281830111610223578281602093846000960137010152565b60005b8381106117d05750506000910152565b81810151838201526020016117c0565b906020916117f9815180928185528580860191016117bd565b601f01601f1916010190565b906020909392936040835280519061182b610120928360408701526101608601906117e0565b6118468483015191603f1992838883030160608901526117e0565b926040830151608087015261188a60018060a01b039485938460608701511660a08a01526080860151151560c08a015260a0860151908983030160e08a01526117e0565b9260c081015191610100928389015260e0820151908801520151166101408501529416910152565b91908201809211610dd257565b81601f820112156102235780516118d5816116ee565b926118e360405194856116bf565b818452602082840101116102235761190191602080850191016117bd565b90565b51906001600160a01b038216820361022357565b9060208282031261022357815167ffffffffffffffff928382116102235701906101e0928383830312610223576040519384018481108282111761135d576040528251818111610223578261196e9185016118bf565b8452602083015181811161022357826119889185016118bf565b60208501526040838101519085015260608301516001600160a01b03811681036102235760608501526080830151600481101561022357608085015260a083015160a085015260c083015160c085015260e083015160e085015261010080840151908501526101206119fb818501611904565b90850152610140611a0d8185016116e1565b90850152610160918284015191821161022357611a2b9184016118bf565b9083015261018080820151908301526101a08082015190830152611a536101c0809201611904565b9082015290565b90602090818382031261022357825167ffffffffffffffff93848211610223570181601f8201121561022357805193841161135d578360051b9060405194611aa4858401876116bf565b85528380860192820101928311610223578301905b828210611ac7575050505090565b838091611ad384611904565b815201910190611ab9565b8051821015611af25760209160051b010190565b634e487b7160e01b600052603260045260246000fd5b60405190611b15826116a3565b600f82526e657865637574696f6e2d636865636b60881b6020830152565b60018060a01b0360009181835416916024846040948551928380926318feeb1560e31b82528760048301525afa908115611f97578591611f7d575b506101608101518051906020917f064209fe56a5ba1791fac474c27dc1b9a6a4977f861d5d2396f722fcf844be9f8383019182206b1d1c99585cdd5c9e4b5bdd5d60a21b858a51611bbe816116a3565b600c8152015203611c2057505050506002541690813b15611c1c578391602483928551968793849263021814f960e41b845260048401525af1918215611c12575050611c075750565b611c1090611672565b565b51903d90823e3d90fd5b8380fd5b7f407aa5060640b5b11bd7a646d2a67db16d0d8062f0162ee0107d6c4df9647d0b825182206a3a3932b0b9bab93c96b4b760a91b858a51611c60816116a3565b600b8152015203611ca957505050506002541690813b15611c1c5783916024839285519687938492637026e9fd60e01b845260048401525af1918215611c12575050611c075750565b7f3263cae112f9b06c4fe976e1e563a8899e0058acad03a56562786e4496d29f6b915190206a72756c652d6368616e676560a81b838851611ce9816116a3565b600b8152015214611cfd575b505050505050565b81518051907f8d7cbff25736090ef6444f570ee8941e761e0637e76a2b77e283ff85ec26489d8382019283206b70617373437269746572696160a01b858a51611d45816116a3565b600c8152015203611dad575050506101a001516003555b6002541690813b15611c1c5783916024839285519687938492636f0d949d60e11b845260048401525af1918215611c12575050611d9e575b8080808080611cf5565b611da790611672565b38611d94565b7fabbfab0bf365e6c544c4bdc8c27846b398ef85deeb99659a1bd1cbbfddbc69a1815183206d3b37ba34b733a23ab930ba34b7b760911b858a51611df0816116a3565b600e8152015203611e0b575050506101a00151600455611d5c565b7f5b1a74ca49fc06542ef79783aa6db8771703259f73767276192f168bbdfaf8cb815183206c616273656e7450656e616c747960981b858a51611e4d816116a3565b600d8152015203611e68575050506101a00151600555611d5c565b7f343f1cee2704e73b1859bb1bdd73f8fce853b1f06ea40bd99f16c5c103e913188151832067656e74727946656560c01b858a51611ea5816116a3565b60088152015203611ec0575050506101a00151600855611d5c565b7f806b2ce9432a34cfc9fdab6b94db5bfcfdd69b0eaa656d83bea17439bebe142d815183206b18dbdd5b9d151bd15e1c195b60a21b858a51611f01816116a3565b600c8152015203611f1c575050506101a00151600655611d5c565b51902085517f7433394719dfd8fcf3f7ef7662d3d256ff5523945834c1c05aad0d14d49b75b4926b1cd8dbdc99551bd15e1c195b60a21b91611f5d816116a3565b600c8152015214611f6f575b50611d5c565b6101a0015160075538611f69565b611f9191503d8087833e61142a81836116bf565b38611b6e565b84513d87823e3d90fdfea26469706673582212200a5497e1286d87abc62fba1f076d3fb53a98c8b401df29c9f3aaef999d16f01464736f6c63430008140033",
  "linkReferences": {},
  "deployedLinkReferences": {}
}