{
  "_format": "hh-sol-artifact-1",
  "contractName": "Vault",
  "sourceName": "contracts/Vault.sol",
  "abi": [
    {
      "inputs": [
        {
          "internalType": "address",
          "name": "initialAdmin",
          "type": "address"
        },
        {
          "internalType": "address",
          "name": "executor",
          "type": "address"
        },
        {
          "internalType": "address",
          "name": "factoryAddress",
          "type": "address"
        }
      ],
      "stateMutability": "nonpayable",
      "type": "constructor"
    },
    {
      "inputs": [],
      "name": "AccessControlBadConfirmation",
      "type": "error"
    },
    {
      "inputs": [
        {
          "internalType": "address",
          "name": "account",
          "type": "address"
        },
        {
          "internalType": "bytes32",
          "name": "neededRole",
          "type": "bytes32"
        }
      ],
      "name": "AccessControlUnauthorizedAccount",
      "type": "error"
    },
    {
      "anonymous": false,
      "inputs": [
        {
          "indexed": true,
          "internalType": "address",
          "name": "from",
          "type": "address"
        },
        {
          "indexed": false,
          "internalType": "uint256",
          "name": "amount",
          "type": "uint256"
        }
      ],
      "name": "Deposited",
      "type": "event"
    },
    {
      "anonymous": false,
      "inputs": [
        {
          "indexed": true,
          "internalType": "bytes32",
          "name": "role",
          "type": "bytes32"
        },
        {
          "indexed": true,
          "internalType": "bytes32",
          "name": "previousAdminRole",
          "type": "bytes32"
        },
        {
          "indexed": true,
          "internalType": "bytes32",
          "name": "newAdminRole",
          "type": "bytes32"
        }
      ],
      "name": "RoleAdminChanged",
      "type": "event"
    },
    {
      "anonymous": false,
      "inputs": [
        {
          "indexed": true,
          "internalType": "bytes32",
          "name": "role",
          "type": "bytes32"
        },
        {
          "indexed": true,
          "internalType": "address",
          "name": "account",
          "type": "address"
        },
        {
          "indexed": true,
          "internalType": "address",
          "name": "sender",
          "type": "address"
        }
      ],
      "name": "RoleGranted",
      "type": "event"
    },
    {
      "anonymous": false,
      "inputs": [
        {
          "indexed": true,
          "internalType": "bytes32",
          "name": "role",
          "type": "bytes32"
        },
        {
          "indexed": true,
          "internalType": "address",
          "name": "account",
          "type": "address"
        },
        {
          "indexed": true,
          "internalType": "address",
          "name": "sender",
          "type": "address"
        }
      ],
      "name": "RoleRevoked",
      "type": "event"
    },
    {
      "anonymous": false,
      "inputs": [
        {
          "indexed": true,
          "internalType": "address",
          "name": "to",
          "type": "address"
        },
        {
          "indexed": false,
          "internalType": "uint256",
          "name": "amount",
          "type": "uint256"
        }
      ],
      "name": "Withdrawn",
      "type": "event"
    },
    {
      "inputs": [],
      "name": "DEFAULT_ADMIN_ROLE",
      "outputs": [
        {
          "internalType": "bytes32",
          "name": "",
          "type": "bytes32"
        }
      ],
      "stateMutability": "view",
      "type": "function"
    },
    {
      "inputs": [],
      "name": "EXECUTOR_ROLE",
      "outputs": [
        {
          "internalType": "bytes32",
          "name": "",
          "type": "bytes32"
        }
      ],
      "stateMutability": "view",
      "type": "function"
    },
    {
      "inputs": [],
      "name": "TREASURER_ROLE",
      "outputs": [
        {
          "internalType": "bytes32",
          "name": "",
          "type": "bytes32"
        }
      ],
      "stateMutability": "view",
      "type": "function"
    },
    {
      "inputs": [],
      "name": "getBalance",
      "outputs": [
        {
          "internalType": "uint256",
          "name": "",
          "type": "uint256"
        }
      ],
      "stateMutability": "view",
      "type": "function"
    },
    {
      "inputs": [
        {
          "internalType": "bytes32",
          "name": "role",
          "type": "bytes32"
        }
      ],
      "name": "getRoleAdmin",
      "outputs": [
        {
          "internalType": "bytes32",
          "name": "",
          "type": "bytes32"
        }
      ],
      "stateMutability": "view",
      "type": "function"
    },
    {
      "inputs": [
        {
          "internalType": "bytes32",
          "name": "role",
          "type": "bytes32"
        },
        {
          "internalType": "address",
          "name": "account",
          "type": "address"
        }
      ],
      "name": "grantRole",
      "outputs": [],
      "stateMutability": "nonpayable",
      "type": "function"
    },
    {
      "inputs": [
        {
          "internalType": "bytes32",
          "name": "role",
          "type": "bytes32"
        },
        {
          "internalType": "address",
          "name": "account",
          "type": "address"
        }
      ],
      "name": "hasRole",
      "outputs": [
        {
          "internalType": "bool",
          "name": "",
          "type": "bool"
        }
      ],
      "stateMutability": "view",
      "type": "function"
    },
    {
      "inputs": [],
      "name": "renounceFactoryAdminRole",
      "outputs": [],
      "stateMutability": "nonpayable",
      "type": "function"
    },
    {
      "inputs": [
        {
          "internalType": "bytes32",
          "name": "role",
          "type": "bytes32"
        },
        {
          "internalType": "address",
          "name": "callerConfirmation",
          "type": "address"
        }
      ],
      "name": "renounceRole",
      "outputs": [],
      "stateMutability": "nonpayable",
      "type": "function"
    },
    {
      "inputs": [
        {
          "internalType": "bytes32",
          "name": "role",
          "type": "bytes32"
        },
        {
          "internalType": "address",
          "name": "account",
          "type": "address"
        }
      ],
      "name": "revokeRole",
      "outputs": [],
      "stateMutability": "nonpayable",
      "type": "function"
    },
    {
      "inputs": [
        {
          "internalType": "bytes4",
          "name": "interfaceId",
          "type": "bytes4"
        }
      ],
      "name": "supportsInterface",
      "outputs": [
        {
          "internalType": "bool",
          "name": "",
          "type": "bool"
        }
      ],
      "stateMutability": "view",
      "type": "function"
    },
    {
      "inputs": [
        {
          "internalType": "address payable",
          "name": "to",
          "type": "address"
        },
        {
          "internalType": "uint256",
          "name": "amount",
          "type": "uint256"
        }
      ],
      "name": "transfer",
      "outputs": [],
      "stateMutability": "nonpayable",
      "type": "function"
    },
    {
      "stateMutability": "payable",
      "type": "receive"
    }
  ],
  "bytecode": "0x6080346100bb57601f61092e38819003918201601f19168301916001600160401b038311848410176100c0578084926060946040528339810103126100bb57610047816100d6565b610072610062604061005b602086016100d6565b94016100d6565b9161006c816100ea565b50610168565b506001600160a01b03908082166100ab575b50811661009b575b60405161066a90816102a48239f35b6100a490610208565b503861008c565b6100b4906100ea565b5038610084565b600080fd5b634e487b7160e01b600052604160045260246000fd5b51906001600160a01b03821682036100bb57565b6001600160a01b031660008181527fad3228b676f7d3cd4284a5443f17f1962b36e491b30a40b2405849e597ba5fb5602052604081205490919060ff1661016457818052816020526040822081835260205260408220600160ff19825416179055339160008051602061090e8339815191528180a4600190565b5090565b6001600160a01b031660008181527f991c3211066600fc98d95d017c66f2884b1fa3d4cabc2576d000f3cc80931bda60205260408120549091907f3496e2e73c4d42b75d702e60d9e48102720b8691234415963a5a857b86425d079060ff1661020357808352826020526040832082845260205260408320600160ff1982541617905560008051602061090e833981519152339380a4600190565b505090565b6001600160a01b031660008181527fdae2aa361dfd1ca020a396615627d436107c35eff9fe7738a3512819782d706960205260408120549091907fd8aa0f3194971a2a116679f7c2090f6939c8d4e01a2a8d7e41d55e5351469e639060ff1661020357808352826020526040832082845260205260408320600160ff1982541617905560008051602061090e833981519152339380a460019056fe60806040908082526004908136101561004c575b5050361561002057600080fd5b513481527f2da466a7b24304f47e87fa2e1e5a81b9831ce54fec19055ce277ca2f39ba42c460203392a2005b600091823560e01c91826301ffc9a7146103fe5750816307bd0265146103d557816312065fe0146103ba578163248a9ca31461038f5781632f2ff15d1461037157816336568abe1461033657816391d14854146102fc57816391dcd5aa14610287578163a217fddf1461026c578163a9059cbb1461015357508063d547741f1461011e5763f0a3a97c146100e05780610013565b903461011a578160031936011261011a57602090517f3496e2e73c4d42b75d702e60d9e48102720b8691234415963a5a857b86425d078152f35b5080fd5b50903461011a57600161014f9161014a61013736610451565b939092838752866020528620015461047c565b6105ba565b5080f35b8391503461026857816003193601126102685780356001600160a01b0381169290839003610264576024359160008051602061063e8339815191528086528560205282862033875260205260ff83872054161561024957508247106102095750838284828215610200575b839283928392f1156101f7577f7084f5476618d8e60b11ef0d7d3f06914655adb8793e28ff7f018d4c76d505d59160209151908152a280f35b513d84823e3d90fd5b506108fc6101be565b6020606492519162461bcd60e51b8352820152601b60248201527a5661756c743a20696e73756666696369656e742062616c616e636560281b6044820152fd5b604492519163e2517d3f60e01b835233908301526024820152fd5b8380fd5b8280fd5b82843461011a578160031936011261011a5751908152602090f35b905082346102685782600319360112610268578280528260205280832033845260205260ff8184205416156102c0578261014f3361053e565b906020606492519162461bcd60e51b8352820152601660248201527521b0b63632b91034b9903737ba1030b71030b236b4b760511b6044820152fd5b82843461011a5760ff8160209361031236610451565b9082528186528282206001600160a01b039091168252855220549151911615158152f35b82843461011a5761034636610451565b91336001600160a01b0384160361036257509061014f916105ba565b5163334bd91960e11b81528490fd5b82843461011a57600161014f9161038a61013736610451565b6104c0565b8391503461026857602036600319011261026857816020936001923581528085522001549051908152f35b82843461011a578160031936011261011a5751478152602090f35b82843461011a578160031936011261011a576020905160008051602061063e8339815191528152f35b915034610268576020366003190112610268573563ffffffff60e01b81168091036102685760209250637965db0b60e01b8114908115610440575b5015158152f35b6301ffc9a760e01b14905083610439565b604090600319011261047757600435906024356001600160a01b03811681036104775790565b600080fd5b80600052600060205260406000203360005260205260ff60406000205416156104a25750565b6044906040519063e2517d3f60e01b82523360048301526024820152fd5b9060009180835282602052604083209160018060a01b03169182845260205260ff6040842054161560001461053957808352826020526040832082845260205260408320600160ff198254161790557f2f8788117e7eff1d82e926ec794901d17c78024a50270940304540a733656f0d339380a4600190565b505090565b6001600160a01b031660008181527fad3228b676f7d3cd4284a5443f17f1962b36e491b30a40b2405849e597ba5fb5602052604081205490919060ff16156105b65781805281602052604082208183526020526040822060ff198154169055339160008051602061061e8339815191528180a4600190565b5090565b9060009180835282602052604083209160018060a01b03169182845260205260ff6040842054166000146105395780835282602052604083208284526020526040832060ff19815416905560008051602061061e833981519152339380a460019056fef6391f5c32d9c69d2a47ea670b442974b53935d1edc7fd64eb21e047a839171bd8aa0f3194971a2a116679f7c2090f6939c8d4e01a2a8d7e41d55e5351469e63a164736f6c6343000814000a2f8788117e7eff1d82e926ec794901d17c78024a50270940304540a733656f0d",
  "linkReferences": {},
  "deployedLinkReferences": {}
}