{
  "_format": "hh-sol-artifact-1",
  "contractName": "Vault",
  "sourceName": "contracts/Vault.sol",
  "abi": [
    {
      "inputs": [
        {
          "internalType": "address",
          "name": "admin",
          "type": "address"
        }
      ],
      "stateMutability": "nonpayable",
      "type": "constructor"
    },
    {
      "inputs": [],
      "name": "AccessControlBadConfirmation",
      "type": "error"
    },
    {
      "inputs": [
        {
          "internalType": "address",
          "name": "account",
          "type": "address"
        },
        {
          "internalType": "bytes32",
          "name": "neededRole",
          "type": "bytes32"
        }
      ],
      "name": "AccessControlUnauthorizedAccount",
      "type": "error"
    },
    {
      "anonymous": false,
      "inputs": [
        {
          "indexed": true,
          "internalType": "bytes32",
          "name": "role",
          "type": "bytes32"
        },
        {
          "indexed": true,
          "internalType": "bytes32",
          "name": "previousAdminRole",
          "type": "bytes32"
        },
        {
          "indexed": true,
          "internalType": "bytes32",
          "name": "newAdminRole",
          "type": "bytes32"
        }
      ],
      "name": "RoleAdminChanged",
      "type": "event"
    },
    {
      "anonymous": false,
      "inputs": [
        {
          "indexed": true,
          "internalType": "bytes32",
          "name": "role",
          "type": "bytes32"
        },
        {
          "indexed": true,
          "internalType": "address",
          "name": "account",
          "type": "address"
        },
        {
          "indexed": true,
          "internalType": "address",
          "name": "sender",
          "type": "address"
        }
      ],
      "name": "RoleGranted",
      "type": "event"
    },
    {
      "anonymous": false,
      "inputs": [
        {
          "indexed": true,
          "internalType": "bytes32",
          "name": "role",
          "type": "bytes32"
        },
        {
          "indexed": true,
          "internalType": "address",
          "name": "account",
          "type": "address"
        },
        {
          "indexed": true,
          "internalType": "address",
          "name": "sender",
          "type": "address"
        }
      ],
      "name": "RoleRevoked",
      "type": "event"
    },
    {
      "inputs": [],
      "name": "DEFAULT_ADMIN_ROLE",
      "outputs": [
        {
          "internalType": "bytes32",
          "name": "",
          "type": "bytes32"
        }
      ],
      "stateMutability": "view",
      "type": "function"
    },
    {
      "inputs": [],
      "name": "TREASURER_ROLE",
      "outputs": [
        {
          "internalType": "bytes32",
          "name": "",
          "type": "bytes32"
        }
      ],
      "stateMutability": "view",
      "type": "function"
    },
    {
      "inputs": [],
      "name": "getBalance",
      "outputs": [
        {
          "internalType": "uint256",
          "name": "",
          "type": "uint256"
        }
      ],
      "stateMutability": "view",
      "type": "function"
    },
    {
      "inputs": [
        {
          "internalType": "bytes32",
          "name": "role",
          "type": "bytes32"
        }
      ],
      "name": "getRoleAdmin",
      "outputs": [
        {
          "internalType": "bytes32",
          "name": "",
          "type": "bytes32"
        }
      ],
      "stateMutability": "view",
      "type": "function"
    },
    {
      "inputs": [
        {
          "internalType": "bytes32",
          "name": "role",
          "type": "bytes32"
        },
        {
          "internalType": "address",
          "name": "account",
          "type": "address"
        }
      ],
      "name": "grantRole",
      "outputs": [],
      "stateMutability": "nonpayable",
      "type": "function"
    },
    {
      "inputs": [
        {
          "internalType": "bytes32",
          "name": "role",
          "type": "bytes32"
        },
        {
          "internalType": "address",
          "name": "account",
          "type": "address"
        }
      ],
      "name": "hasRole",
      "outputs": [
        {
          "internalType": "bool",
          "name": "",
          "type": "bool"
        }
      ],
      "stateMutability": "view",
      "type": "function"
    },
    {
      "inputs": [
        {
          "internalType": "bytes32",
          "name": "role",
          "type": "bytes32"
        },
        {
          "internalType": "address",
          "name": "callerConfirmation",
          "type": "address"
        }
      ],
      "name": "renounceRole",
      "outputs": [],
      "stateMutability": "nonpayable",
      "type": "function"
    },
    {
      "inputs": [
        {
          "internalType": "bytes32",
          "name": "role",
          "type": "bytes32"
        },
        {
          "internalType": "address",
          "name": "account",
          "type": "address"
        }
      ],
      "name": "revokeRole",
      "outputs": [],
      "stateMutability": "nonpayable",
      "type": "function"
    },
    {
      "inputs": [
        {
          "internalType": "bytes4",
          "name": "interfaceId",
          "type": "bytes4"
        }
      ],
      "name": "supportsInterface",
      "outputs": [
        {
          "internalType": "bool",
          "name": "",
          "type": "bool"
        }
      ],
      "stateMutability": "view",
      "type": "function"
    },
    {
      "inputs": [
        {
          "internalType": "address payable",
          "name": "to",
          "type": "address"
        },
        {
          "internalType": "uint256",
          "name": "amount",
          "type": "uint256"
        }
      ],
      "name": "transfer",
      "outputs": [],
      "stateMutability": "nonpayable",
      "type": "function"
    },
    {
      "stateMutability": "payable",
      "type": "receive"
    }
  ],
  "bytecode": "0x60806040523480156200001157600080fd5b5060405162000e4138038062000e41833981810160405281019062000037919062000266565b6200004c6000801b826200008760201b60201c565b506200007f7f3496e2e73c4d42b75d702e60d9e48102720b8691234415963a5a857b86425d07826200008760201b60201c565b505062000298565b60006200009b83836200018a60201b60201c565b6200017f57600160008085815260200190815260200160002060000160008473ffffffffffffffffffffffffffffffffffffffff1673ffffffffffffffffffffffffffffffffffffffff16815260200190815260200160002060006101000a81548160ff0219169083151502179055506200011b620001f460201b60201c565b73ffffffffffffffffffffffffffffffffffffffff168273ffffffffffffffffffffffffffffffffffffffff16847f2f8788117e7eff1d82e926ec794901d17c78024a50270940304540a733656f0d60405160405180910390a46001905062000184565b600090505b92915050565b600080600084815260200190815260200160002060000160008373ffffffffffffffffffffffffffffffffffffffff1673ffffffffffffffffffffffffffffffffffffffff16815260200190815260200160002060009054906101000a900460ff16905092915050565b600033905090565b600080fd5b600073ffffffffffffffffffffffffffffffffffffffff82169050919050565b60006200022e8262000201565b9050919050565b620002408162000221565b81146200024c57600080fd5b50565b600081519050620002608162000235565b92915050565b6000602082840312156200027f576200027e620001fc565b5b60006200028f848285016200024f565b91505092915050565b610b9980620002a86000396000f3fe6080604052600436106100955760003560e01c806391d148541161005957806391d1485414610198578063a217fddf146101d5578063a9059cbb14610200578063d547741f14610229578063f0a3a97c146102525761009c565b806301ffc9a7146100a157806312065fe0146100de578063248a9ca3146101095780632f2ff15d1461014657806336568abe1461016f5761009c565b3661009c57005b600080fd5b3480156100ad57600080fd5b506100c860048036038101906100c39190610842565b61027d565b6040516100d5919061088a565b60405180910390f35b3480156100ea57600080fd5b506100f36102f7565b60405161010091906108be565b60405180910390f35b34801561011557600080fd5b50610130600480360381019061012b919061090f565b6102ff565b60405161013d919061094b565b60405180910390f35b34801561015257600080fd5b5061016d600480360381019061016891906109c4565b61031e565b005b34801561017b57600080fd5b50610196600480360381019061019191906109c4565b610340565b005b3480156101a457600080fd5b506101bf60048036038101906101ba91906109c4565b6103bb565b6040516101cc919061088a565b60405180910390f35b3480156101e157600080fd5b506101ea610425565b6040516101f7919061094b565b60405180910390f35b34801561020c57600080fd5b5061022760048036038101906102229190610a6e565b61042c565b005b34801561023557600080fd5b50610250600480360381019061024b91906109c4565b6104e5565b005b34801561025e57600080fd5b50610267610507565b604051610274919061094b565b60405180910390f35b60007f7965db0b000000000000000000000000000000000000000000000000000000007bffffffffffffffffffffffffffffffffffffffffffffffffffffffff1916827bffffffffffffffffffffffffffffffffffffffffffffffffffffffff191614806102f057506102ef8261052b565b5b9050919050565b600047905090565b6000806000838152602001908152602001600020600101549050919050565b610327826102ff565b61033081610595565b61033a83836105a9565b50505050565b61034861069a565b73ffffffffffffffffffffffffffffffffffffffff168173ffffffffffffffffffffffffffffffffffffffff16146103ac576040517f6697b23200000000000000000000000000000000000000000000000000000000815260040160405180910390fd5b6103b682826106a2565b505050565b600080600084815260200190815260200160002060000160008373ffffffffffffffffffffffffffffffffffffffff1673ffffffffffffffffffffffffffffffffffffffff16815260200190815260200160002060009054906101000a900460ff16905092915050565b6000801b81565b7f3496e2e73c4d42b75d702e60d9e48102720b8691234415963a5a857b86425d0761045681610595565b81471015610499576040517f08c379a000000000000000000000000000000000000000000000000000000000815260040161049090610b0b565b60405180910390fd5b8273ffffffffffffffffffffffffffffffffffffffff166108fc839081150290604051600060405180830381858888f193505050501580156104df573d6000803e3d6000fd5b50505050565b6104ee826102ff565b6104f781610595565b61050183836106a2565b50505050565b7f3496e2e73c4d42b75d702e60d9e48102720b8691234415963a5a857b86425d0781565b60007f01ffc9a7000000000000000000000000000000000000000000000000000000007bffffffffffffffffffffffffffffffffffffffffffffffffffffffff1916827bffffffffffffffffffffffffffffffffffffffffffffffffffffffff1916149050919050565b6105a6816105a161069a565b610794565b50565b60006105b583836103bb565b61068f57600160008085815260200190815260200160002060000160008473ffffffffffffffffffffffffffffffffffffffff1673ffffffffffffffffffffffffffffffffffffffff16815260200190815260200160002060006101000a81548160ff02191690831515021790555061062c61069a565b73ffffffffffffffffffffffffffffffffffffffff168273ffffffffffffffffffffffffffffffffffffffff16847f2f8788117e7eff1d82e926ec794901d17c78024a50270940304540a733656f0d60405160405180910390a460019050610694565b600090505b92915050565b600033905090565b60006106ae83836103bb565b1561078957600080600085815260200190815260200160002060000160008473ffffffffffffffffffffffffffffffffffffffff1673ffffffffffffffffffffffffffffffffffffffff16815260200190815260200160002060006101000a81548160ff02191690831515021790555061072661069a565b73ffffffffffffffffffffffffffffffffffffffff168273ffffffffffffffffffffffffffffffffffffffff16847ff6391f5c32d9c69d2a47ea670b442974b53935d1edc7fd64eb21e047a839171b60405160405180910390a46001905061078e565b600090505b92915050565b61079e82826103bb565b6107e15780826040517fe2517d3f0000000000000000000000000000000000000000000000000000000081526004016107d8929190610b3a565b60405180910390fd5b5050565b600080fd5b60007fffffffff0000000000000000000000000000000000000000000000000000000082169050919050565b61081f816107ea565b811461082a57600080fd5b50565b60008135905061083c81610816565b92915050565b600060208284031215610858576108576107e5565b5b60006108668482850161082d565b91505092915050565b60008115159050919050565b6108848161086f565b82525050565b600060208201905061089f600083018461087b565b92915050565b6000819050919050565b6108b8816108a5565b82525050565b60006020820190506108d360008301846108af565b92915050565b6000819050919050565b6108ec816108d9565b81146108f757600080fd5b50565b600081359050610909816108e3565b92915050565b600060208284031215610925576109246107e5565b5b6000610933848285016108fa565b91505092915050565b610945816108d9565b82525050565b6000602082019050610960600083018461093c565b92915050565b600073ffffffffffffffffffffffffffffffffffffffff82169050919050565b600061099182610966565b9050919050565b6109a181610986565b81146109ac57600080fd5b50565b6000813590506109be81610998565b92915050565b600080604083850312156109db576109da6107e5565b5b60006109e9858286016108fa565b92505060206109fa858286016109af565b9150509250929050565b6000610a0f82610966565b9050919050565b610a1f81610a04565b8114610a2a57600080fd5b50565b600081359050610a3c81610a16565b92915050565b610a4b816108a5565b8114610a5657600080fd5b50565b600081359050610a6881610a42565b92915050565b60008060408385031215610a8557610a846107e5565b5b6000610a9385828601610a2d565b9250506020610aa485828601610a59565b9150509250929050565b600082825260208201905092915050565b7f5661756c743a20696e73756666696369656e742062616c616e63650000000000600082015250565b6000610af5601b83610aae565b9150610b0082610abf565b602082019050919050565b60006020820190508181036000830152610b2481610ae8565b9050919050565b610b3481610986565b82525050565b6000604082019050610b4f6000830185610b2b565b610b5c602083018461093c565b939250505056fea26469706673582212204587f208ce4d78c93bda16693a9a57b9580894f626ac2e25276d584c9f80c2ac64736f6c63430008140033",
  "linkReferences": {},
  "deployedLinkReferences": {}
}