{
  "_format": "hh-sol-artifact-1",
  "contractName": "CorruptionMonitor",
  "sourceName": "contracts/CorruptionMonitor.sol",
  "abi": [
    {
      "anonymous": false,
      "inputs": [
        {
          "indexed": false,
          "internalType": "uint256",
          "name": "index",
          "type": "uint256"
        }
      ],
      "name": "CorruptionIndexUpdated",
      "type": "event"
    },
    {
      "inputs": [],
      "name": "getCorruptionIndex",
      "outputs": [
        {
          "internalType": "uint256",
          "name": "",
          "type": "uint256"
        }
      ],
      "stateMutability": "view",
      "type": "function"
    },
    {
      "inputs": [],
      "name": "metrics",
      "outputs": [
        {
          "internalType": "uint256",
          "name": "emergencyTransfers",
          "type": "uint256"
        },
        {
          "internalType": "uint256",
          "name": "lowParticipation",
          "type": "uint256"
        },
        {
          "internalType": "uint256",
          "name": "dominantActions",
          "type": "uint256"
        },
        {
          "internalType": "uint256",
          "name": "untrackedTransfers",
          "type": "uint256"
        },
        {
          "internalType": "uint256",
          "name": "gasWaste",
          "type": "uint256"
        },
        {
          "internalType": "uint256",
          "name": "proposalConcentration",
          "type": "uint256"
        }
      ],
      "stateMutability": "view",
      "type": "function"
    },
    {
      "inputs": [
        {
          "internalType": "uint256",
          "name": "emergency",
          "type": "uint256"
        },
        {
          "internalType": "uint256",
          "name": "lowPart",
          "type": "uint256"
        },
        {
          "internalType": "uint256",
          "name": "dominant",
          "type": "uint256"
        },
        {
          "internalType": "uint256",
          "name": "untracked",
          "type": "uint256"
        },
        {
          "internalType": "uint256",
          "name": "gas",
          "type": "uint256"
        },
        {
          "internalType": "uint256",
          "name": "concentration",
          "type": "uint256"
        }
      ],
      "name": "updateMetrics",
      "outputs": [],
      "stateMutability": "nonpayable",
      "type": "function"
    }
  ],
  "bytecode": "0x608060405234801561001057600080fd5b50610457806100206000396000f3fe608060405234801561001057600080fd5b50600436106100415760003560e01c80630e77131c146100465780631c264aa114610064578063a04748f614610080575b600080fd5b61004e6100a3565b60405161005b9190610242565b60405180910390f35b61007e6004803603810190610079919061028e565b61014c565b005b6100886101ff565b60405161009a9695949392919061031b565b60405180910390f35b60008060036000600501546100b891906103ab565b60016000600401546100ca91906103ab565b60046000600301546100dc91906103ab565b60026000600201546100ee91906103ab565b600360006001015461010091906103ab565b6002600080015461011191906103ab565b61011b91906103ed565b61012591906103ed565b61012f91906103ed565b61013991906103ed565b61014391906103ed565b90508091505090565b6040518060c001604052808781526020018681526020018581526020018481526020018381526020018281525060008082015181600001556020820151816001015560408201518160020155606082015181600301556080820151816004015560a082015181600501559050507f73a4a1a7dbf979b2a2f805e29c116bad6194fa512960adcd09f532e2dad608986101e26100a3565b6040516101ef9190610242565b60405180910390a1505050505050565b60008060000154908060010154908060020154908060030154908060040154908060050154905086565b6000819050919050565b61023c81610229565b82525050565b60006020820190506102576000830184610233565b92915050565b600080fd5b61026b81610229565b811461027657600080fd5b50565b60008135905061028881610262565b92915050565b60008060008060008060c087890312156102ab576102aa61025d565b5b60006102b989828a01610279565b96505060206102ca89828a01610279565b95505060406102db89828a01610279565b94505060606102ec89828a01610279565b93505060806102fd89828a01610279565b92505060a061030e89828a01610279565b9150509295509295509295565b600060c0820190506103306000830189610233565b61033d6020830188610233565b61034a6040830187610233565b6103576060830186610233565b6103646080830185610233565b61037160a0830184610233565b979650505050505050565b7f4e487b7100000000000000000000000000000000000000000000000000000000600052601160045260246000fd5b60006103b682610229565b91506103c183610229565b92508282026103cf81610229565b915082820484148315176103e6576103e561037c565b5b5092915050565b60006103f882610229565b915061040383610229565b925082820190508082111561041b5761041a61037c565b5b9291505056fea2646970667358221220cfe4467191548c21309c19844830eb642e7db2c8ace78251c8cc8482fa7b885964736f6c63430008140033",
  "linkReferences": {},
  "deployedLinkReferences": {}
}