{
  "_format": "hh-sol-artifact-1",
  "contractName": "AutoExecution",
  "sourceName": "contracts/AutoExecution.sol",
  "abi": [
    {
      "inputs": [
        {
          "internalType": "address",
          "name": "_proposalContract",
          "type": "address"
        },
        {
          "internalType": "address payable",
          "name": "_vaultContract",
          "type": "address"
        },
        {
          "internalType": "address",
          "name": "_governanceToken",
          "type": "address"
        },
        {
          "internalType": "address",
          "name": "admin",
          "type": "address"
        }
      ],
      "stateMutability": "nonpayable",
      "type": "constructor"
    },
    {
      "inputs": [],
      "name": "AccessControlBadConfirmation",
      "type": "error"
    },
    {
      "inputs": [
        {
          "internalType": "address",
          "name": "account",
          "type": "address"
        },
        {
          "internalType": "bytes32",
          "name": "neededRole",
          "type": "bytes32"
        }
      ],
      "name": "AccessControlUnauthorizedAccount",
      "type": "error"
    },
    {
      "inputs": [],
      "name": "ReentrancyGuardReentrantCall",
      "type": "error"
    },
    {
      "anonymous": false,
      "inputs": [
        {
          "indexed": true,
          "internalType": "uint256",
          "name": "proposalId",
          "type": "uint256"
        },
        {
          "indexed": true,
          "internalType": "address",
          "name": "canceller",
          "type": "address"
        }
      ],
      "name": "ExecutionCancelled",
      "type": "event"
    },
    {
      "anonymous": false,
      "inputs": [
        {
          "indexed": true,
          "internalType": "uint256",
          "name": "proposalId",
          "type": "uint256"
        },
        {
          "indexed": true,
          "internalType": "address",
          "name": "executor",
          "type": "address"
        }
      ],
      "name": "ExecutionExecuted",
      "type": "event"
    },
    {
      "anonymous": false,
      "inputs": [
        {
          "indexed": true,
          "internalType": "uint256",
          "name": "proposalId",
          "type": "uint256"
        },
        {
          "indexed": false,
          "internalType": "uint256",
          "name": "scheduledTime",
          "type": "uint256"
        }
      ],
      "name": "ExecutionScheduled",
      "type": "event"
    },
    {
      "anonymous": false,
      "inputs": [
        {
          "indexed": false,
          "internalType": "uint256",
          "name": "requiredSignatures",
          "type": "uint256"
        },
        {
          "indexed": false,
          "internalType": "uint256",
          "name": "executionDelay",
          "type": "uint256"
        }
      ],
      "name": "MultiSigConfigUpdated",
      "type": "event"
    },
    {
      "anonymous": false,
      "inputs": [
        {
          "indexed": true,
          "internalType": "uint256",
          "name": "proposalId",
          "type": "uint256"
        },
        {
          "indexed": true,
          "internalType": "address",
          "name": "signer",
          "type": "address"
        }
      ],
      "name": "MultiSigSignatureAdded",
      "type": "event"
    },
    {
      "anonymous": false,
      "inputs": [
        {
          "indexed": true,
          "internalType": "bytes32",
          "name": "role",
          "type": "bytes32"
        },
        {
          "indexed": true,
          "internalType": "bytes32",
          "name": "previousAdminRole",
          "type": "bytes32"
        },
        {
          "indexed": true,
          "internalType": "bytes32",
          "name": "newAdminRole",
          "type": "bytes32"
        }
      ],
      "name": "RoleAdminChanged",
      "type": "event"
    },
    {
      "anonymous": false,
      "inputs": [
        {
          "indexed": true,
          "internalType": "bytes32",
          "name": "role",
          "type": "bytes32"
        },
        {
          "indexed": true,
          "internalType": "address",
          "name": "account",
          "type": "address"
        },
        {
          "indexed": true,
          "internalType": "address",
          "name": "sender",
          "type": "address"
        }
      ],
      "name": "RoleGranted",
      "type": "event"
    },
    {
      "anonymous": false,
      "inputs": [
        {
          "indexed": true,
          "internalType": "bytes32",
          "name": "role",
          "type": "bytes32"
        },
        {
          "indexed": true,
          "internalType": "address",
          "name": "account",
          "type": "address"
        },
        {
          "indexed": true,
          "internalType": "address",
          "name": "sender",
          "type": "address"
        }
      ],
      "name": "RoleRevoked",
      "type": "event"
    },
    {
      "inputs": [],
      "name": "DEFAULT_ADMIN_ROLE",
      "outputs": [
        {
          "internalType": "bytes32",
          "name": "",
          "type": "bytes32"
        }
      ],
      "stateMutability": "view",
      "type": "function"
    },
    {
      "inputs": [],
      "name": "EMERGENCY_ROLE",
      "outputs": [
        {
          "internalType": "bytes32",
          "name": "",
          "type": "bytes32"
        }
      ],
      "stateMutability": "view",
      "type": "function"
    },
    {
      "inputs": [],
      "name": "EXECUTOR_ROLE",
      "outputs": [
        {
          "internalType": "bytes32",
          "name": "",
          "type": "bytes32"
        }
      ],
      "stateMutability": "view",
      "type": "function"
    },
    {
      "inputs": [],
      "name": "MAX_EXECUTION_DELAY",
      "outputs": [
        {
          "internalType": "uint256",
          "name": "",
          "type": "uint256"
        }
      ],
      "stateMutability": "view",
      "type": "function"
    },
    {
      "inputs": [],
      "name": "MIN_EXECUTION_DELAY",
      "outputs": [
        {
          "internalType": "uint256",
          "name": "",
          "type": "uint256"
        }
      ],
      "stateMutability": "view",
      "type": "function"
    },
    {
      "inputs": [
        {
          "internalType": "address",
          "name": "signer",
          "type": "address"
        }
      ],
      "name": "addMultiSigSigner",
      "outputs": [],
      "stateMutability": "nonpayable",
      "type": "function"
    },
    {
      "inputs": [
        {
          "internalType": "uint256",
          "name": "proposalId",
          "type": "uint256"
        }
      ],
      "name": "addSignature",
      "outputs": [],
      "stateMutability": "nonpayable",
      "type": "function"
    },
    {
      "inputs": [
        {
          "internalType": "uint256",
          "name": "proposalId",
          "type": "uint256"
        }
      ],
      "name": "cancelExecution",
      "outputs": [],
      "stateMutability": "nonpayable",
      "type": "function"
    },
    {
      "inputs": [
        {
          "internalType": "uint256",
          "name": "proposalId",
          "type": "uint256"
        }
      ],
      "name": "emergencyExecute",
      "outputs": [],
      "stateMutability": "nonpayable",
      "type": "function"
    },
    {
      "inputs": [],
      "name": "executeScheduledProposals",
      "outputs": [],
      "stateMutability": "nonpayable",
      "type": "function"
    },
    {
      "inputs": [
        {
          "internalType": "uint256",
          "name": "",
          "type": "uint256"
        }
      ],
      "name": "executionQueue",
      "outputs": [
        {
          "internalType": "uint256",
          "name": "proposalId",
          "type": "uint256"
        },
        {
          "internalType": "uint256",
          "name": "scheduledTime",
          "type": "uint256"
        },
        {
          "internalType": "bool",
          "name": "isExecuted",
          "type": "bool"
        },
        {
          "internalType": "address",
          "name": "executor",
          "type": "address"
        }
      ],
      "stateMutability": "view",
      "type": "function"
    },
    {
      "inputs": [
        {
          "internalType": "uint256",
          "name": "index",
          "type": "uint256"
        }
      ],
      "name": "getExecutionQueue",
      "outputs": [
        {
          "components": [
            {
              "internalType": "uint256",
              "name": "proposalId",
              "type": "uint256"
            },
            {
              "internalType": "uint256",
              "name": "scheduledTime",
              "type": "uint256"
            },
            {
              "internalType": "bool",
              "name": "isExecuted",
              "type": "bool"
            },
            {
              "internalType": "address",
              "name": "executor",
              "type": "address"
            }
          ],
          "internalType": "struct AutoExecution.ExecutionQueue",
          "name": "",
          "type": "tuple"
        }
      ],
      "stateMutability": "view",
      "type": "function"
    },
    {
      "inputs": [],
      "name": "getMultiSigConfig",
      "outputs": [
        {
          "internalType": "uint256",
          "name": "requiredSignatures",
          "type": "uint256"
        },
        {
          "internalType": "uint256",
          "name": "executionDelay",
          "type": "uint256"
        }
      ],
      "stateMutability": "view",
      "type": "function"
    },
    {
      "inputs": [
        {
          "internalType": "uint256",
          "name": "proposalId",
          "type": "uint256"
        }
      ],
      "name": "getProposalSignatures",
      "outputs": [
        {
          "internalType": "uint256",
          "name": "",
          "type": "uint256"
        }
      ],
      "stateMutability": "view",
      "type": "function"
    },
    {
      "inputs": [
        {
          "internalType": "bytes32",
          "name": "role",
          "type": "bytes32"
        }
      ],
      "name": "getRoleAdmin",
      "outputs": [
        {
          "internalType": "bytes32",
          "name": "",
          "type": "bytes32"
        }
      ],
      "stateMutability": "view",
      "type": "function"
    },
    {
      "inputs": [],
      "name": "governanceToken",
      "outputs": [
        {
          "internalType": "contract GovernanceToken",
          "name": "",
          "type": "address"
        }
      ],
      "stateMutability": "view",
      "type": "function"
    },
    {
      "inputs": [
        {
          "internalType": "bytes32",
          "name": "role",
          "type": "bytes32"
        },
        {
          "internalType": "address",
          "name": "account",
          "type": "address"
        }
      ],
      "name": "grantRole",
      "outputs": [],
      "stateMutability": "nonpayable",
      "type": "function"
    },
    {
      "inputs": [
        {
          "internalType": "bytes32",
          "name": "role",
          "type": "bytes32"
        },
        {
          "internalType": "address",
          "name": "account",
          "type": "address"
        }
      ],
      "name": "hasRole",
      "outputs": [
        {
          "internalType": "bool",
          "name": "",
          "type": "bool"
        }
      ],
      "stateMutability": "view",
      "type": "function"
    },
    {
      "inputs": [
        {
          "internalType": "uint256",
          "name": "proposalId",
          "type": "uint256"
        }
      ],
      "name": "isExecutable",
      "outputs": [
        {
          "internalType": "bool",
          "name": "",
          "type": "bool"
        }
      ],
      "stateMutability": "view",
      "type": "function"
    },
    {
      "inputs": [
        {
          "internalType": "address",
          "name": "signer",
          "type": "address"
        }
      ],
      "name": "isSigner",
      "outputs": [
        {
          "internalType": "bool",
          "name": "",
          "type": "bool"
        }
      ],
      "stateMutability": "view",
      "type": "function"
    },
    {
      "inputs": [],
      "name": "multiSigConfig",
      "outputs": [
        {
          "internalType": "uint256",
          "name": "requiredSignatures",
          "type": "uint256"
        },
        {
          "internalType": "uint256",
          "name": "executionDelay",
          "type": "uint256"
        }
      ],
      "stateMutability": "view",
      "type": "function"
    },
    {
      "inputs": [],
      "name": "proposalContract",
      "outputs": [
        {
          "internalType": "contract EnhancedProposal",
          "name": "",
          "type": "address"
        }
      ],
      "stateMutability": "view",
      "type": "function"
    },
    {
      "inputs": [
        {
          "internalType": "uint256",
          "name": "",
          "type": "uint256"
        }
      ],
      "name": "proposalSignatureCount",
      "outputs": [
        {
          "internalType": "uint256",
          "name": "",
          "type": "uint256"
        }
      ],
      "stateMutability": "view",
      "type": "function"
    },
    {
      "inputs": [
        {
          "internalType": "uint256",
          "name": "",
          "type": "uint256"
        },
        {
          "internalType": "address",
          "name": "",
          "type": "address"
        }
      ],
      "name": "proposalSignatures",
      "outputs": [
        {
          "internalType": "bool",
          "name": "",
          "type": "bool"
        }
      ],
      "stateMutability": "view",
      "type": "function"
    },
    {
      "inputs": [],
      "name": "queueCount",
      "outputs": [
        {
          "internalType": "uint256",
          "name": "",
          "type": "uint256"
        }
      ],
      "stateMutability": "view",
      "type": "function"
    },
    {
      "inputs": [
        {
          "internalType": "address",
          "name": "signer",
          "type": "address"
        }
      ],
      "name": "removeMultiSigSigner",
      "outputs": [],
      "stateMutability": "nonpayable",
      "type": "function"
    },
    {
      "inputs": [
        {
          "internalType": "bytes32",
          "name": "role",
          "type": "bytes32"
        },
        {
          "internalType": "address",
          "name": "callerConfirmation",
          "type": "address"
        }
      ],
      "name": "renounceRole",
      "outputs": [],
      "stateMutability": "nonpayable",
      "type": "function"
    },
    {
      "inputs": [
        {
          "internalType": "bytes32",
          "name": "role",
          "type": "bytes32"
        },
        {
          "internalType": "address",
          "name": "account",
          "type": "address"
        }
      ],
      "name": "revokeRole",
      "outputs": [],
      "stateMutability": "nonpayable",
      "type": "function"
    },
    {
      "inputs": [
        {
          "internalType": "uint256",
          "name": "proposalId",
          "type": "uint256"
        },
        {
          "internalType": "uint256",
          "name": "delay",
          "type": "uint256"
        }
      ],
      "name": "scheduleExecution",
      "outputs": [],
      "stateMutability": "nonpayable",
      "type": "function"
    },
    {
      "inputs": [
        {
          "internalType": "bytes4",
          "name": "interfaceId",
          "type": "bytes4"
        }
      ],
      "name": "supportsInterface",
      "outputs": [
        {
          "internalType": "bool",
          "name": "",
          "type": "bool"
        }
      ],
      "stateMutability": "view",
      "type": "function"
    },
    {
      "inputs": [
        {
          "internalType": "uint256",
          "name": "requiredSignatures",
          "type": "uint256"
        },
        {
          "internalType": "uint256",
          "name": "executionDelay",
          "type": "uint256"
        }
      ],
      "name": "updateMultiSigConfig",
      "outputs": [],
      "stateMutability": "nonpayable",
      "type": "function"
    },
    {
      "inputs": [],
      "name": "vaultContract",
      "outputs": [
        {
          "internalType": "contract Vault",
          "name": "",
          "type": "address"
        }
      ],
      "stateMutability": "view",
      "type": "function"
    }
  ],
  "bytecode": "0x6080346200010b57601f62001b3838819003918201601f19168301916001600160401b0383118484101762000110578084926080946040528339810103126200010b576200004d8162000126565b60208201516001600160a01b039283821692918390036200010b57806200008660606200007e604088950162000126565b920162000126565b93600180558260018060a01b0319941684600254161760025583600354161760035516906004541617600455620000bd816200013b565b50620000c981620001bb565b50620000d5816200025d565b5060026008556201518060095516600052600a6020526040600020600160ff1982541617905560405161181d9081620002fb8239f35b600080fd5b634e487b7160e01b600052604160045260246000fd5b51906001600160a01b03821682036200010b57565b6001600160a01b031660008181527fad3228b676f7d3cd4284a5443f17f1962b36e491b30a40b2405849e597ba5fb5602052604081205490919060ff16620001b757818052816020526040822081835260205260408220600160ff19825416179055339160008051602062001b188339815191528180a4600190565b5090565b6001600160a01b031660008181527fdae2aa361dfd1ca020a396615627d436107c35eff9fe7738a3512819782d706960205260408120549091907fd8aa0f3194971a2a116679f7c2090f6939c8d4e01a2a8d7e41d55e5351469e639060ff166200025857808352826020526040832082845260205260408320600160ff1982541617905560008051602062001b18833981519152339380a4600190565b505090565b6001600160a01b031660008181527f3c1b1854ab1360abbb06c8d4c6b2672d4b8cedc5eff522ab19e51d5cb8fdbd4660205260408120549091907fbf233dd2aafeb4d50879c4aa5c81e96d92f6e6945c906a58f9f2d1c1631b4b269060ff166200025857808352826020526040832082845260205260408320600160ff1982541617905560008051602062001b18833981519152339380a460019056fe6080604081815260048036101561001557600080fd5b600092833560e01c90816301ffc9a714610d645750806307bd026514610d295780630faaa3c814610cd457806316f2d7c0146105835780631a3dd6531461070e5780631f55f75314610c9157806320df435914610c565780632274346b14610c2d578063248a9ca314610c045780632f2ff15d14610bdb5780632f8d0cd0146109b9578063307d5c5d1461091d57806336568abe146108d65780633aef3900146108ad5780633c3453351461075f5780634e395e2a14610736578063568d9c2e1461070e5780637df73e27146106d057806391d148541461068b5780639ef36bd11461066c578063a217fddf14610651578063a2d8a997146105aa578063a3fe6cb814610583578063b6877b7914610543578063bc03d28014610525578063bcbde21214610508578063c78682b71461047f578063d547741f14610441578063dcf24fb114610374578063e8d9510a146101f3578063f96dae0a146101cc5763fdf6b9111461018357600080fd5b346101c857816003193601126101c8578160209360ff926101a2610dd3565b90358252600686528282206001600160a01b039091168252855220549151911615158152f35b8280fd5b50346101c857826003193601126101c8575490516001600160a01b03909116815260209150f35b50919034610370576020366003190112610370578235907fbf233dd2aafeb4d50879c4aa5c81e96d92f6e6945c906a58f9f2d1c1631b4b268084528360205281842033855260205260ff828520541615610352575060249061025361129e565b60025481516318feeb1560e31b815286810185905292859184919082906001600160a01b03165afa918215610348578492610324575b50610180820151156102d4575060a001519260078410156102c157506102b560026102ba939414611215565b61134d565b6001805580f35b634e487b7160e01b835260219052602482fd5b5162461bcd60e51b8152602081860152602560248201527f4175746f457865637574696f6e3a206e6f7420656d657267656e63792070726f6044820152641c1bdcd85b60da1b6064820152608490fd5b6103419192503d8086833e610339818361104e565b8101906110ee565b9038610289565b81513d86823e3d90fd5b905163e2517d3f60e01b815233818601526024810191909152604490fd5b5080fd5b509190346103705761038536610de9565b9361038e610dff565b81156103eb5750836103c6610e107f7f40c2fd33df3c3cc0624908bc87b6a333ba84d7678ed839f9f57b4306b128dd95961015610f70565b6103d562093a80821115610fbc565b816008558060095582519182526020820152a180f35b608490602084519162461bcd60e51b8352820152602a60248201527f4175746f457865637574696f6e3a20696e76616c6964207265717569726564206044820152697369676e61747572657360b01b6064820152fd5b5090346101c857806003193601126101c85761047b91356104766001610465610dd3565b938387528660205286200154610e57565b610efb565b5080f35b50503461037057816003193601126103705761049961129e565b815b600b5481101561050057806104d19184526005602052828420600281019060ff82541615806104f2575b6104d6575b505061128f565b61049b565b6104e0905461134d565b805460ff1916600117905538806104ca565b5060018101544210156104c5565b826001805580f35b50503461037057816003193601126103705760209051610e108152f35b5050346103705781600319360112610370576020905162093a808152f35b5050346103705760203660031901126103705761055e610db8565b610566610dff565b6001600160a01b03168252600a6020528120805460ff1916905580f35b50346101c85760203660031901126101c85760209282913581526007845220549051908152f35b5090346101c8576020918260031936011261064d5735906105c9610dff565b835b600b5481101561064657808552600584528185208381541480610637575b6105fc57506105f79061128f565b6105cb565b600201805460ff19166001179055503392507fb3561580f18bc98b1b1bc1bc05c5da8eaf05dc833173eb5924b7eec2a3cc50f990508380a380f35b5060ff600282015416156105e9565b5050505080f35b8380fd5b50503461037057816003193601126103705751908152602090f35b505034610370578160031936011261037057602090600b549051908152f35b50346101c857816003193601126101c8578160209360ff926106ab610dd3565b903582528186528282206001600160a01b039091168252855220549151911615158152f35b5050346103705760203660031901126103705760209160ff9082906001600160a01b036106fb610db8565b168152600a855220541690519015158152f35b8284346107335780600319360112610733575060085460095482519182526020820152f35b80fd5b509134610733576020366003190112610733575061075660209235611691565b90519015158152f35b5090346101c85760208060031936011261064d57823592338552600a825260ff8386205416156108605783855260068252828520338652825260ff838620541661081f5750600790838552600681528285203386528152828520600160ff198254161790558385528181528285206107d7815461128f565b905533847ff85734e96c43975e5e4ac2dc156acb47126a8a56e5b1963e6d5e78b3f39e1c3f8780a3838552528220546008541115610813575080f35b61081c9061134d565b80f35b915162461bcd60e51b815291820152601d60248201527f4175746f457865637574696f6e3a20616c7265616479207369676e65640000006044820152606490fd5b915162461bcd60e51b8152918201526024808201527f4175746f457865637574696f6e3a206e6f7420617574686f72697a656420736960448201526333b732b960e11b6064820152608490fd5b50503461037057816003193601126103705760025490516001600160a01b039091168152602090f35b509190346103705780600319360112610370576108f1610dd3565b90336001600160a01b0383160361090e575061047b919235610efb565b5163334bd91960e11b81528390fd5b50346101c85760203660031901126101c8578282916080946060845161094281611008565b8281528260208201528286820152015235815260056020522081519061096782611008565b80549283835260026001830154926020850193845201549260608282019160ff861615158352019260018060a01b03809560081c16845282519586525160208601525115159084015251166060820152f35b50346101c8576109c836610de9565b7fd8aa0f3194971a2a116679f7c2090f6939c8d4e01a2a8d7e41d55e5351469e6393919392838652602093868552838720338852855260ff848820541615610bbe5750610a1361129e565b60025483516318feeb1560e31b8152828101879052908790829060249082906001600160a01b03165afa908115610bb4578791610b9a575b5060a08101516007811015610b875790610a6a60026101209314611215565b01514210610b44575090610abd82610aa8610e107fb955d14fc889e8b8eb0ae7dd49e70e8e9982b7eb46e72f4b74917c8581fff7e696951015610f70565b610ab762093a80821115610fbc565b4261126c565b908051610ac981611008565b8581528381018381526002838301928984526060810192338452600b548b5260058852858b209151825551600182015501915115159060ff835491610100600160a81b03905160081b169216906affffffffffffffffffffff60a81b161717905551908152a2610b3a600b5461128f565b600b556001805580f35b825162461bcd60e51b8152908101849052601f60248201527f4175746f457865637574696f6e3a20766f74696e67206e6f7420656e646564006044820152606490fd5b634e487b7160e01b885260218352602488fd5b610bae91503d8089833e610339818361104e565b38610a4b565b84513d89823e3d90fd5b6044925083519163e2517d3f60e01b835233908301526024820152fd5b5090346101c857806003193601126101c85761047b9135610bff6001610465610dd3565b610e7d565b50346101c85760203660031901126101c857816020936001923581528085522001549051908152f35b50503461037057816003193601126103705760035490516001600160a01b039091168152602090f35b505034610370578160031936011261037057602090517fbf233dd2aafeb4d50879c4aa5c81e96d92f6e6945c906a58f9f2d1c1631b4b268152f35b50503461037057602036600319011261037057610cac610db8565b610cb4610dff565b6001600160a01b03168252600a6020528120805460ff1916600117905580f35b50346101c85760203660031901126101c857608092829135815260056020522080549160026001830154920154918151938452602084015260ff821615159083015260018060a01b039060081c166060820152f35b505034610370578160031936011261037057602090517fd8aa0f3194971a2a116679f7c2090f6939c8d4e01a2a8d7e41d55e5351469e638152f35b925050346101c85760203660031901126101c8573563ffffffff60e01b81168091036101c85760209250637965db0b60e01b8114908115610da7575b5015158152f35b6301ffc9a760e01b14905038610da0565b600435906001600160a01b0382168203610dce57565b600080fd5b602435906001600160a01b0382168203610dce57565b6040906003190112610dce576004359060243590565b3360009081527fad3228b676f7d3cd4284a5443f17f1962b36e491b30a40b2405849e597ba5fb5602052604081205460ff1615610e395750565b6044906040519063e2517d3f60e01b82523360048301526024820152fd5b80600052600060205260406000203360005260205260ff6040600020541615610e395750565b9060009180835282602052604083209160018060a01b03169182845260205260ff60408420541615600014610ef657808352826020526040832082845260205260408320600160ff198254161790557f2f8788117e7eff1d82e926ec794901d17c78024a50270940304540a733656f0d339380a4600190565b505090565b9060009180835282602052604083209160018060a01b03169182845260205260ff604084205416600014610ef65780835282602052604083208284526020526040832060ff1981541690557ff6391f5c32d9c69d2a47ea670b442974b53935d1edc7fd64eb21e047a839171b339380a4600190565b15610f7757565b60405162461bcd60e51b815260206004820152601e60248201527f4175746f457865637574696f6e3a2064656c617920746f6f2073686f727400006044820152606490fd5b15610fc357565b60405162461bcd60e51b815260206004820152601d60248201527f4175746f457865637574696f6e3a2064656c617920746f6f206c6f6e670000006044820152606490fd5b6080810190811067ffffffffffffffff82111761102457604052565b634e487b7160e01b600052604160045260246000fd5b67ffffffffffffffff811161102457604052565b90601f8019910116810190811067ffffffffffffffff82111761102457604052565b919080601f84011215610dce5782519067ffffffffffffffff821161102457604051916020916110a9601f8301601f191684018561104e565b818452828287010111610dce5760005b8181106110ce57508260009394955001015290565b85810183015184820184015282016110b9565b51908115158203610dce57565b602081830312610dce57805167ffffffffffffffff91828211610dce5701906101c0928383820312610dce5760405193840184811083821117611024576040528251828111610dce5781611143918501611070565b84526020830151918211610dce5761115c918301611070565b60208301526040818101519083015260608101516001600160a01b03908181168103610dce57606084015260808201516005811015610dce57608084015260a08201516007811015610dce5760a084015260c082015160c084015260e082015160e084015261010080830151908401526101208083015190840152610140808301519182168203610dce5783015261016080820151908301526101806112038183016110e1565b908301526101a0809101519082015290565b1561121c57565b60405162461bcd60e51b815260206004820152602260248201527f4175746f457865637574696f6e3a2070726f706f73616c206e6f742070617373604482015261195960f21b6064820152608490fd5b9190820180921161127957565b634e487b7160e01b600052601160045260246000fd5b60001981146112795760010190565b6002600154146112af576002600155565b604051633ee5aeb560e01b8152600490fd5b81156112cb570490565b634e487b7160e01b600052601260045260246000fd5b90816080910312610dce5761131c6060604051926112fe84611008565b805184526020810151602085015260408101516040850152016110e1565b606082015290565b9190602083019260058210156113375752565b634e487b7160e01b600052602160045260246000fd5b600254604080516318feeb1560e31b81526004808201859052919491936024936000926001600160a01b0391821684828881845afa91821561168757859261166b575b5060a082015160078110156116595760026113ab9114611215565b60c08201805160e08401908151101561160a57815190516113cb9161126c565b90516064810290808204606414901517156115f857906113ea916112c1565b9060808301519060058210156115e65761141b916080918b8d5180958194829363084b060160e01b84528301611324565b03915afa9081156115dc579060209187916115ae575b5001511161156257816003541690888360608301511691015191803b1561154b57906044898780948d51968795869463a9059cbb60e01b86528501528c8401525af1908161154f575b506114c157865162461bcd60e51b8152602081880152601e818701527f4175746f457865637574696f6e3a207472616e73666572206661696c656400006044820152606490fd5b600296929591949396541692833b1561154b57906044869283855196879485936332fa518560e21b85528a828601528401525af1908115611542575090839161152e575b50507f6de04e7e88d1ae6758aee584436259c87078a026a033ca9b79411d119d985f52339280a3565b6115379061103a565b610370578138611505565b513d85823e3d90fd5b8580fd5b61155b9094919461103a565b923861147a565b875162461bcd60e51b81526020818901526021818801527f4175746f457865637574696f6e3a2071756f72756d206e6f74207265616368656044820152601960fa1b6064820152608490fd5b6115cf915060803d81116115d5575b6115c7818361104e565b8101906112e1565b38611431565b503d6115bd565b8a513d88823e3d90fd5b634e487b7160e01b875260218a528887fd5b634e487b7160e01b875260118a528887fd5b8a5162461bcd60e51b81526020818c0152808a018a90527f4175746f457865637574696f6e3a2070726f706f73616c206e6f7420617070726044820152631bdd995960e21b6064820152608490fd5b634e487b7160e01b8652602189528786fd5b6116809192503d8087833e610339818361104e565b9038611390565b89513d87823e3d90fd5b6002546040516318feeb1560e31b8152600481019290925260009291906001600160a01b03168382602481845afa91821561178d5784926117cb575b5060a08201516007811015611798576002036117c75760c08201805160e084015190818111156117c057906117019161126c565b90516064810290808204606414901517156117ac57608091611722916112c1565b9201519060058210156117985761175191608091604051808095819463084b060160e01b835260048301611324565b03915afa90811561178d5760209293949161176f575b500151111590565b611787915060803d81116115d5576115c7818361104e565b38611767565b6040513d86823e3d90fd5b634e487b7160e01b85526021600452602485fd5b634e487b7160e01b86526011600452602486fd5b5050505050565b5050565b6117e09192503d8086833e610339818361104e565b90386116cd56fea2646970667358221220dbb491f69e13b798d69d177d189d05d3239a4dfcf1e6d055a55c933232aec93164736f6c634300081400332f8788117e7eff1d82e926ec794901d17c78024a50270940304540a733656f0d",
  "linkReferences": {},
  "deployedLinkReferences": {}
}