{
  "_format": "hh-sol-artifact-1",
  "contractName": "CorruptionMonitor",
  "sourceName": "contracts/CorruptionMonitor.sol",
  "abi": [
    {
      "anonymous": false,
      "inputs": [
        {
          "indexed": false,
          "internalType": "uint256",
          "name": "index",
          "type": "uint256"
        }
      ],
      "name": "CorruptionIndexUpdated",
      "type": "event"
    },
    {
      "inputs": [],
      "name": "getCorruptionIndex",
      "outputs": [
        {
          "internalType": "uint256",
          "name": "",
          "type": "uint256"
        }
      ],
      "stateMutability": "view",
      "type": "function"
    },
    {
      "inputs": [],
      "name": "metrics",
      "outputs": [
        {
          "internalType": "uint256",
          "name": "emergencyTransfers",
          "type": "uint256"
        },
        {
          "internalType": "uint256",
          "name": "lowParticipation",
          "type": "uint256"
        },
        {
          "internalType": "uint256",
          "name": "dominantActions",
          "type": "uint256"
        },
        {
          "internalType": "uint256",
          "name": "untrackedTransfers",
          "type": "uint256"
        },
        {
          "internalType": "uint256",
          "name": "gasWaste",
          "type": "uint256"
        },
        {
          "internalType": "uint256",
          "name": "proposalConcentration",
          "type": "uint256"
        }
      ],
      "stateMutability": "view",
      "type": "function"
    },
    {
      "inputs": [
        {
          "internalType": "uint256",
          "name": "emergency",
          "type": "uint256"
        },
        {
          "internalType": "uint256",
          "name": "lowPart",
          "type": "uint256"
        },
        {
          "internalType": "uint256",
          "name": "dominant",
          "type": "uint256"
        },
        {
          "internalType": "uint256",
          "name": "untracked",
          "type": "uint256"
        },
        {
          "internalType": "uint256",
          "name": "gas",
          "type": "uint256"
        },
        {
          "internalType": "uint256",
          "name": "concentration",
          "type": "uint256"
        }
      ],
      "name": "updateMetrics",
      "outputs": [],
      "stateMutability": "nonpayable",
      "type": "function"
    }
  ],
  "bytecode": "0x60808060405234610016576102ac908161001c8239f35b600080fdfe604060808152600436101561001357600080fd5b600090813560e01c80630e77131c1461014c5780631c264aa11461008a5763a04748f61461004057600080fd5b3461008657816003193601126100865760c091549060015490600254600354906004549260055494815196875260208701528501526060840152608083015260a0820152f35b5080fd5b50346100865760c036600319011261008657600435602435604435606435906084359260a43594865160c0810181811067ffffffffffffffff82111761013857918760a06020999795938b9997957f73a4a1a7dbf979b2a2f805e29c116bad6194fa512960adcd09f532e2dad608989c52838152848b820152858a8201528660608201528760808201520152895560015560025560035560045560055561012f610192565b9051908152a180f35b634e487b7160e01b8a52604160045260248afd5b5034610086578160031936011261008657602090610168610192565b9051908152f35b9190820180921161017c57565b634e487b7160e01b600052601160045260246000fd5b60009081548060011b9080820460021490151715610262576001549060038202918083046003149015171561024e57906101cb9161016f565b600254908160011b918083046002149015171561024e57906101ec9161016f565b600354908160021b918083046004149015171561024e579061020d9161016f565b600454908180046001148215171561024e57906102299161016f565b6005549060038202918083046003149015171561024e5761024b92935061016f565b90565b634e487b7160e01b84526011600452602484fd5b634e487b7160e01b83526011600452602483fdfea26469706673582212208084a1e4cff1bc923625580e5b68aee6d2133ece3ded6e0ba8d3ab830fce261764736f6c63430008140033",
  "linkReferences": {},
  "deployedLinkReferences": {}
}