{
  "_format": "hh-sol-artifact-1",
  "contractName": "DAO",
  "sourceName": "contracts/DAO.sol",
  "abi": [
    {
      "inputs": [
        {
          "internalType": "address",
          "name": "_proposal",
          "type": "address"
        },
        {
          "internalType": "address",
          "name": "_vault",
          "type": "address"
        },
        {
          "internalType": "address",
          "name": "_execution",
          "type": "address"
        }
      ],
      "stateMutability": "nonpayable",
      "type": "constructor"
    },
    {
      "anonymous": false,
      "inputs": [
        {
          "indexed": true,
          "internalType": "uint256",
          "name": "proposalId",
          "type": "uint256"
        }
      ],
      "name": "ProposalPassed",
      "type": "event"
    },
    {
      "anonymous": false,
      "inputs": [
        {
          "indexed": true,
          "internalType": "uint256",
          "name": "proposalId",
          "type": "uint256"
        }
      ],
      "name": "ProposalRejected",
      "type": "event"
    },
    {
      "inputs": [],
      "name": "absentPenalty",
      "outputs": [
        {
          "internalType": "uint256",
          "name": "",
          "type": "uint256"
        }
      ],
      "stateMutability": "view",
      "type": "function"
    },
    {
      "inputs": [
        {
          "internalType": "address",
          "name": "member",
          "type": "address"
        },
        {
          "internalType": "uint256",
          "name": "amount",
          "type": "uint256"
        }
      ],
      "name": "adminSubGlassScore",
      "outputs": [],
      "stateMutability": "nonpayable",
      "type": "function"
    },
    {
      "inputs": [],
      "name": "countToExpel",
      "outputs": [
        {
          "internalType": "uint256",
          "name": "",
          "type": "uint256"
        }
      ],
      "stateMutability": "view",
      "type": "function"
    },
    {
      "inputs": [
        {
          "internalType": "string",
          "name": "title",
          "type": "string"
        },
        {
          "internalType": "string",
          "name": "description",
          "type": "string"
        },
        {
          "internalType": "uint256",
          "name": "amount",
          "type": "uint256"
        },
        {
          "internalType": "address payable",
          "name": "recipient",
          "type": "address"
        },
        {
          "internalType": "bool",
          "name": "requireVote",
          "type": "bool"
        },
        {
          "internalType": "string",
          "name": "sanctionType",
          "type": "string"
        },
        {
          "internalType": "uint256",
          "name": "beforeValue",
          "type": "uint256"
        },
        {
          "internalType": "uint256",
          "name": "afterValue",
          "type": "uint256"
        },
        {
          "internalType": "address",
          "name": "targetMember",
          "type": "address"
        }
      ],
      "name": "createProposal",
      "outputs": [
        {
          "internalType": "uint256",
          "name": "",
          "type": "uint256"
        }
      ],
      "stateMutability": "nonpayable",
      "type": "function"
    },
    {
      "inputs": [],
      "name": "entryFee",
      "outputs": [
        {
          "internalType": "uint256",
          "name": "",
          "type": "uint256"
        }
      ],
      "stateMutability": "view",
      "type": "function"
    },
    {
      "inputs": [],
      "name": "executionContract",
      "outputs": [
        {
          "internalType": "contract Execution",
          "name": "",
          "type": "address"
        }
      ],
      "stateMutability": "view",
      "type": "function"
    },
    {
      "inputs": [
        {
          "internalType": "uint256",
          "name": "proposalId",
          "type": "uint256"
        }
      ],
      "name": "finalizeProposal",
      "outputs": [],
      "stateMutability": "nonpayable",
      "type": "function"
    },
    {
      "inputs": [],
      "name": "getAllMembers",
      "outputs": [
        {
          "internalType": "address[]",
          "name": "",
          "type": "address[]"
        }
      ],
      "stateMutability": "view",
      "type": "function"
    },
    {
      "inputs": [],
      "name": "getMemberCount",
      "outputs": [
        {
          "internalType": "uint256",
          "name": "",
          "type": "uint256"
        }
      ],
      "stateMutability": "view",
      "type": "function"
    },
    {
      "inputs": [],
      "name": "getTreasuryBalance",
      "outputs": [
        {
          "internalType": "uint256",
          "name": "",
          "type": "uint256"
        }
      ],
      "stateMutability": "view",
      "type": "function"
    },
    {
      "inputs": [
        {
          "internalType": "address",
          "name": "user",
          "type": "address"
        }
      ],
      "name": "isMember",
      "outputs": [
        {
          "internalType": "bool",
          "name": "",
          "type": "bool"
        }
      ],
      "stateMutability": "view",
      "type": "function"
    },
    {
      "inputs": [],
      "name": "joinDAO",
      "outputs": [],
      "stateMutability": "payable",
      "type": "function"
    },
    {
      "inputs": [],
      "name": "leaveDAO",
      "outputs": [],
      "stateMutability": "nonpayable",
      "type": "function"
    },
    {
      "inputs": [],
      "name": "passCriteria",
      "outputs": [
        {
          "internalType": "uint256",
          "name": "",
          "type": "uint256"
        }
      ],
      "stateMutability": "view",
      "type": "function"
    },
    {
      "inputs": [],
      "name": "proposalContract",
      "outputs": [
        {
          "internalType": "contract Proposal",
          "name": "",
          "type": "address"
        }
      ],
      "stateMutability": "view",
      "type": "function"
    },
    {
      "inputs": [
        {
          "internalType": "uint256",
          "name": "",
          "type": "uint256"
        }
      ],
      "name": "proposalDeadline",
      "outputs": [
        {
          "internalType": "uint256",
          "name": "",
          "type": "uint256"
        }
      ],
      "stateMutability": "view",
      "type": "function"
    },
    {
      "inputs": [
        {
          "internalType": "uint256",
          "name": "",
          "type": "uint256"
        }
      ],
      "name": "proposalExecuted",
      "outputs": [
        {
          "internalType": "bool",
          "name": "",
          "type": "bool"
        }
      ],
      "stateMutability": "view",
      "type": "function"
    },
    {
      "inputs": [],
      "name": "scoreToExpel",
      "outputs": [
        {
          "internalType": "uint256",
          "name": "",
          "type": "uint256"
        }
      ],
      "stateMutability": "view",
      "type": "function"
    },
    {
      "inputs": [],
      "name": "vaultContract",
      "outputs": [
        {
          "internalType": "contract Vault",
          "name": "",
          "type": "address"
        }
      ],
      "stateMutability": "view",
      "type": "function"
    },
    {
      "inputs": [
        {
          "internalType": "uint256",
          "name": "proposalId",
          "type": "uint256"
        },
        {
          "internalType": "uint8",
          "name": "choice",
          "type": "uint8"
        }
      ],
      "name": "vote",
      "outputs": [],
      "stateMutability": "nonpayable",
      "type": "function"
    },
    {
      "inputs": [],
      "name": "votingDuration",
      "outputs": [
        {
          "internalType": "uint256",
          "name": "",
          "type": "uint256"
        }
      ],
      "stateMutability": "view",
      "type": "function"
    },
    {
      "stateMutability": "payable",
      "type": "receive"
    }
  ],
  "bytecode": "0x608034620000d757601f6200232b38819003918201601f19168301916001600160401b03831184841017620000dc57808492606094604052833981010312620000d7576200004d81620000f2565b906200006a60406200006260208401620000f2565b9201620000f2565b60326003556203f48060045566038d7ea4c680006005556005600655601460075566071afd498d000060085560018060a01b0380928160018060a01b0319951685600054161760005516836001541617600155169060025416176002556040516122239081620001088239f35b600080fd5b634e487b7160e01b600052604160045260246000fd5b51906001600160a01b0382168203620000d75756fe608080604052600436101561001d575b50361561001b57600080fd5b005b600090813560e01c908163072ea61c14611836575080630fd2e6f914611818578063103616e8146117e9578063132002fc146117cb5780631de7df41146116185780632274346b146115ef5780633aef3900146115c857806352bc9e82146115aa5780635652077c14610d1557806357cce7d414610bb35780637c0f6b3514610b0d578063943e82161461096a578063997072f71461091c5780639b5655dc1461089b5780639f1f43af1461087d578063a230c52414610766578063bc2914b514610414578063bdf91db5146103f6578063c01f9e37146103cc578063e0e93244146103a35763f63d13d70361000f5780600319360112610222578054604051635087a34f60e11b8082526001600160a01b039392602092908516908381600481855afa908115610398579084918691610367575b50604051632474521560e21b815260048101919091523360248201529182908180604481015b03915afa90811561026c57849161032e575b506102f65760085434036102bc57828080803488600154165af16101ac611944565b5015610277578293835416906040519081528281600481855afa92831561026c578493610234575b5050803b1561023057604051632f2ff15d60e01b8152600481019290925233602483015282908290604490829084905af18015610225576102125750f35b61021b90611896565b6102225780f35b80fd5b6040513d84823e3d90fd5b5050fd5b819450809293503d8311610265575b61024d81836118f9565b81010312610260578291519038806101d4565b600080fd5b503d610243565b6040513d86823e3d90fd5b60405162461bcd60e51b815260048101839052601d60248201527f4661696c656420746f2073656e6420457468657220746f207661756c740000006044820152606490fd5b60405162461bcd60e51b8152600481018390526012602482015271496e636f7272656374206a6f696e2066656560701b6044820152606490fd5b60405162461bcd60e51b815260048101839052601060248201526f20b63932b0b23c90309036b2b6b132b960811b6044820152606490fd5b90508281813d8311610360575b61034581836118f9565b8101031261035c576103569061191b565b3861018a565b8380fd5b503d61033b565b82819392503d8311610391575b61037e81836118f9565b8101031261026057518390610178610152565b503d610374565b6040513d87823e3d90fd5b50346102225780600319360112610222576002546040516001600160a01b039091168152602090f35b50346102225760203660031901126102225760406020916004358152600983522054604051908152f35b50346102225780600319360112610222576020600554604051908152f35b5034610222576101203660031901126102225767ffffffffffffffff60043581811161076257610448903690600401611868565b919060243582811161075e57610462903690600401611868565b939092606435906001600160a01b038216820361075a5760843515156084350361075a5760a43590811161075a5761049e903690600401611868565b61010435926001600160a01b0384168403610260578854604051635087a34f60e11b81528a996001600160a01b0390921697906020816004818c5afa908115610717578b91610722575b50604051632474521560e21b815260048101919091523360248201526020816044818c5afa908115610717578b916106af575b5060209961058495936105506105c89b9a9998969461053c61055995611974565b6040519a6105498c6118c0565b36916119c0565b895236916119c0565b868a015260443560408701526001600160a01b031660608601526084351515608086015236916119c0565b60a083015260c43560c083015260e43560e08301526001600160a01b031661010082015260405163664d54f560e11b81529485938492839190339060048401611a3f565b03925af190811561022557829161067d575b50815482906001600160a01b0316803b1561066e57819060446040518094819363012232e960e61b8352336004840152600360248401525af180156106725761065a575b506020916084351561064b57604061063860045442611aec565b918381526009855220555b604051908152f35b5061065581611d83565b610643565b6106648391611896565b61066e573861061e565b5080fd5b6040513d85823e3d90fd5b90506020813d6020116106a7575b81610698602093836118f9565b810103126102605751386105da565b3d915061068b565b949298979695939190506020853d60201161070f575b816106d2602093836118f9565b8101031261070b576020996105c8996105506105599361053c6106f76105849a61191b565b955050949698999a9b50509395509961051b565b8a80fd5b3d91506106c5565b6040513d8d823e3d90fd5b9a505060208a3d602011610752575b8161073e602093836118f9565b810103126102605798518a999060206104e8565b3d9150610731565b8680fd5b8480fd5b8280fd5b5034610222576020908160031936011261022257610782611852565b8154604051635087a34f60e11b81526001600160a01b0390911691908481600481865afa90811561026c5790859291859161084a575b50604051632474521560e21b815260048101919091526001600160a01b0390911660248201529182908180604481015b03915afa91821561083e578092610806575b50506040519015158152f35b9091508282813d8311610837575b61081e81836118f9565b8101031261022257506108309061191b565b38806107fa565b503d610814565b604051903d90823e3d90fd5b83819492503d8311610876575b61086181836118f9565b810103126102605790518491906107e86107b8565b503d610857565b50346102225780600319360112610222576020600654604051908152f35b5034610222578060031936011261022257600154604051629032ff60e51b81529190602090839060049082906001600160a01b03165afa90811561083e57906108ea575b602090604051908152f35b506020813d8211610914575b81610903602093836118f9565b8101031261026057602090516108df565b3d91506108f6565b5034610222578060031936011261022257805460405163997072f760e01b81529190602090839060049082906001600160a01b03165afa90811561083e57906108ea57602090604051908152f35b5034610222576040366003190112610222578060243560ff8116809103610b0a578154604051635087a34f60e11b81526001600160a01b03918216906020908181600481865afa908115610acc578691610ad7575b50604051632474521560e21b81526004810191909152336024820152908082604481865afa908115610acc578691610a95575b506109fd9150611974565b803b15610a905783809160446040518094819363012232e960e61b8352336004840152600160248401525af190811561026c578491610a7c575b50541690813b15610230578291606483926040519485938492630ce7fb8360e11b8452600435600485015260248401523360448401525af18015610225576102125750f35b610a8590611896565b610230578238610a37565b505050fd5b905081813d8311610ac5575b610aab81836118f9565b8101031261075e57610abf6109fd9161191b565b386109f2565b503d610aa1565b6040513d88823e3d90fd5b82809750819392503d8311610b03575b610af181836118f9565b810103126102605751859490816109bf565b503d610ae7565b50fd5b50346102225780600319360112610222578054604051637c0f6b3560e01b81526001600160a01b03929182908290600490829087165afa908115610225578291610b91575b5060405191602080840190808552835180925280604086019401925b828110610b7b5785850386f35b8351871685529381019392810192600101610b6e565b610bad91503d8084833e610ba581836118f9565b810190611caa565b38610b52565b503461022257604036600319011261022257610bcd611852565b815460405163a217fddf60e01b8152602093926001600160a01b039283169290918581600481875afa80156103985786908690610ce6575b604051632474521560e21b8152600481019190915233602482015291508180604481015b0381875afa908115610398578591610cb1575b5015610c8057839450823b15610a905760448492836040519586948593632b72ee5160e01b855216600484015260243560248401525af18015610225576102125750f35b60405162461bcd60e51b81526004810186905260096024820152682737ba1030b236b4b760b91b6044820152606490fd5b90508581813d8311610cdf575b610cc881836118f9565b8101031261075e57610cd99061191b565b38610c3c565b503d610cbe565b5081813d8311610d0e575b610cfb81836118f9565b810103126102605785610c299151610c05565b503d610cf1565b50346102225760208060031936011261066e5781546040516318feeb1560e31b808252600480359083018190526024959194919391926001600160a01b039283169085818981855afa908115610acc5790610140918791611590575b500151156115545781855260098452604085205442111561151057818552600a845260ff6040862054166114cc57908460049260405193848092637c0f6b3560e01b82525afa9182156103985785926114b0575b50845b82518110156110275783865416610e158686610de48588611d2e565b516040516362d4f89360e01b81526004810188905291166001600160a01b0316602482015291829081906044820190565b0381855afa908115610fac578891610ff2575b5015610e54575b506000198114610e4157600101610dc8565b634e487b7160e01b865260116004528786fd5b84610e5f8386611d2e565b5116813b15610fb75787918a83926040519485938492635d437b8560e11b845260048401525af18015610fd357908791610fde575b5054841684610ea38386611d2e565b5116813b15610fb75760405163a462e50f60e01b8152600481018590526001600160a01b039190911660248201529087908290604490829084905af18015610fd357908791610fbb575b5054841684610efc8386611d2e565b5116813b15610fb75790878092604051928391632b72ee5160e01b8352600483015260038d8301528160449586925af18015610fac57908891610f98575b508080808860015416600554905af1610f51611944565b50610e2f57857f4661696c656420746f2073656e642070656e616c747920746f207661756c7400606492601f8c6040519462461bcd60e51b86526004860152840152820152fd5b610fa190611896565b61075a578638610f3a565b6040513d8a823e3d90fd5b8780fd5b610fc490611896565b610fcf578538610eed565b8580fd5b6040513d89823e3d90fd5b610fe790611896565b610fcf578538610e94565b90508681813d8311611020575b61100981836118f9565b81010312610fb75761101a9061191b565b38610e28565b503d610fff565b508486888587818554169060405194855286600486015285858581855afa948515610acc57869561148c575b5060a0850161107661106b825160c089015190611aec565b60e088015190611aec565b908161145e57505085915b60035483106113e3575082865416803b1561075a578680916044604051809481936332fa518560e21b83528d600484015260018b8401525af18015610fd3579087916113cf575b507fe36f8b7448daff4a52e2945db0d1d7a436279cc1d527a45c27835dcbd27f336d818992a26110f787611d83565b61016085015181815191012061110b611d58565b82815191012003611218575b85965b8652600a815260408620805460ff1916600117905561016085015180519082012090611144611d58565b805191012014611152578480f35b600354116111bb576101c0818554169301511690823b15610a90576044849283600495604051968795869463012232e960e61b8652828601528401525af18015610225576111a7575b50505b80828080808480f35b6111b090611896565b61022257808261119b565b6101c0818554169301511690823b15610a90576044849283600a956040519687958694632b72ee5160e01b865260048601528401525af1801561022557611204575b505061119e565b61120d90611896565b6102225780826111fd565b8451966112606031604051809a70022bc32b1baba34b7b71021b432b1b59d1607d1b86830152611250815180928886860191016119f7565b810103601181018b5201896118f9565b604051976080890189811067ffffffffffffffff8211176113ba57611357899a8a938693604052604782527f566f74652059455320696620746865206f726967696e616c2070726f706f7361848301527f6c2077617320657865637574656420636f72726563746c792c204e4f206f746860408301526632b93bb4b9b29760c91b60608301528885541691896101208d0151169060405192611301846118c0565b83528583015285604083015285606083015260016080830152611322611d58565b60a08301528560c08301528560e083015261010082015260405194858094819363664d54f560e11b8352309060048401611a3f565b03925af1908115610fac578891611389575b5061137660045442611aec565b9088526009835260408820559650611117565b809850838092503d83116113b3575b6113a281836118f9565b810103126102605787965189611369565b503d611398565b86634e487b7160e01b60005260416004526000fd5b6113d890611896565b610fcf5785886110c8565b968787983b15610fb7578780916044604051809481936332fa518560e21b835287600484015260028c8401525af1908115610fac57889161144a575b507fd92fba445edb3153b571e6df782d7a66fd0ce668519273670820ee3a86da0ef4818392a261111a565b61145390611896565b61075a57868961141f565b51606481029080820460641490151715611479570491611081565b634e487b7160e01b885260116004528588fd5b6114a99195503d8088833e6114a181836118f9565b810190611b68565b9387611053565b6114c59192503d8087833e610ba581836118f9565b9038610dc5565b60405162461bcd60e51b815260048101859052601a818901527f50726f706f73616c20616c72656164792066696e616c697a65640000000000006044820152606490fd5b60405162461bcd60e51b8152600481018590526017818901527f566f74696e6720706572696f64206e6f7420656e6465640000000000000000006044820152606490fd5b60405162461bcd60e51b81526004810185905260158189015274139bdd0818481d9bdd1a5b99c81c1c9bdc1bdcd85b605a1b6044820152606490fd5b6115a491503d8089833e6114a181836118f9565b38610d71565b50346102225780600319360112610222576020600754604051908152f35b5034610222578060031936011261022257546040516001600160a01b039091168152602090f35b50346102225780600319360112610222576001546040516001600160a01b039091168152602090f35b50346102225780600319360112610222578054604051635087a34f60e11b808252602093926001600160a01b0316918481600481865afa801561026c578590859061179c575b604051632474521560e21b8152600481019190915233602482015291508180604481015b0381865afa90811561026c578491611767575b5015611733579282936040519081528181600481865afa91821561026c578492611705575b5050813b156102305760405163d547741f60e01b8152600481019190915233602482015291908290604490829084905af18015610225576116f9575080f35b61170290611896565b80f35b90809250813d831161172c575b61171c81836118f9565b81010312610230575138806116ba565b503d611712565b60405162461bcd60e51b815260048101859052600c60248201526b2737ba10309036b2b6b132b960a11b6044820152606490fd5b90508481813d8311611795575b61177e81836118f9565b8101031261035c5761178f9061191b565b38611695565b503d611774565b5081813d83116117c4575b6117b181836118f9565b8101031261035c5784611682915161165e565b503d6117a7565b50346102225780600319360112610222576020600454604051908152f35b50346102225760203660031901126102225760ff60406020926004358152600a84522054166040519015158152f35b50346102225780600319360112610222576020600354604051908152f35b90503461066e578160031936011261066e576020906008548152f35b600435906001600160a01b038216820361026057565b9181601f840112156102605782359167ffffffffffffffff8311610260576020838186019501011161026057565b67ffffffffffffffff81116118aa57604052565b634e487b7160e01b600052604160045260246000fd5b610120810190811067ffffffffffffffff8211176118aa57604052565b6040810190811067ffffffffffffffff8211176118aa57604052565b90601f8019910116810190811067ffffffffffffffff8211176118aa57604052565b5190811515820361026057565b67ffffffffffffffff81116118aa57601f01601f191660200190565b3d1561196f573d9061195582611928565b9161196360405193846118f9565b82523d6000602084013e565b606090565b1561197b57565b60405162461bcd60e51b815260206004820152601b60248201527f44414f3a2043616c6c6572206973206e6f742061206d656d62657200000000006044820152606490fd5b9291926119cc82611928565b916119da60405193846118f9565b829481845281830111610260578281602093846000960137010152565b60005b838110611a0a5750506000910152565b81810151838201526020016119fa565b90602091611a33815180928185528580860191016119f7565b601f01601f1916010190565b9060209093929360408352805190611a6561012092836040870152610160860190611a1a565b611a808483015191603f199283888303016060890152611a1a565b9260408301516080870152611ac460018060a01b039485938460608701511660a08a01526080860151151560c08a015260a0860151908983030160e08a0152611a1a565b9260c081015191610100928389015260e0820151908801520151166101408501529416910152565b91908201809211611af957565b634e487b7160e01b600052601160045260246000fd5b81601f82011215610260578051611b2581611928565b92611b3360405194856118f9565b8184526020828401011161026057611b5191602080850191016119f7565b90565b51906001600160a01b038216820361026057565b9060208282031261026057815167ffffffffffffffff928382116102605701906101e092838383031261026057604051938401848110828211176118aa5760405282518181116102605782611bbe918501611b0f565b845260208301518181116102605782611bd8918501611b0f565b60208501526040838101519085015260608301516001600160a01b03811681036102605760608501526080830151600481101561026057608085015260a083015160a085015260c083015160c085015260e083015160e08501526101008084015190850152610120611c4b818501611b54565b90850152610140611c5d81850161191b565b90850152610160918284015191821161026057611c7b918401611b0f565b9083015261018080820151908301526101a08082015190830152611ca36101c0809201611b54565b9082015290565b90602090818382031261026057825167ffffffffffffffff93848211610260570181601f820112156102605780519384116118aa578360051b9060405194611cf4858401876118f9565b85528380860192820101928311610260578301905b828210611d17575050505090565b838091611d2384611b54565b815201910190611d09565b8051821015611d425760209160051b010190565b634e487b7160e01b600052603260045260246000fd5b60405190611d65826118dd565b600f82526e657865637574696f6e2d636865636b60881b6020830152565b60018060a01b0360009181835416916024846040948551928380926318feeb1560e31b82528760048301525afa9081156121e35785916121c9575b506101608101518051906020917f064209fe56a5ba1791fac474c27dc1b9a6a4977f861d5d2396f722fcf844be9f8383019182206b1d1c99585cdd5c9e4b5bdd5d60a21b858a51611e0e816118dd565b600c8152015203611e6c57505050506002541690813b1561035c578391602483928551968793849263021814f960e41b845260048401525af1918215611e62575050611e575750565b611e6090611896565b565b51903d90823e3d90fd5b7f407aa5060640b5b11bd7a646d2a67db16d0d8062f0162ee0107d6c4df9647d0b825182206a3a3932b0b9bab93c96b4b760a91b858a51611eac816118dd565b600b8152015203611ef557505050506002541690813b1561035c5783916024839285519687938492637026e9fd60e01b845260048401525af1918215611e62575050611e575750565b7f3263cae112f9b06c4fe976e1e563a8899e0058acad03a56562786e4496d29f6b915190206a72756c652d6368616e676560a81b838851611f35816118dd565b600b8152015214611f49575b505050505050565b81518051907f8d7cbff25736090ef6444f570ee8941e761e0637e76a2b77e283ff85ec26489d8382019283206b70617373437269746572696160a01b858a51611f91816118dd565b600c8152015203611ff9575050506101a001516003555b6002541690813b1561035c5783916024839285519687938492636f0d949d60e11b845260048401525af1918215611e62575050611fea575b8080808080611f41565b611ff390611896565b38611fe0565b7fabbfab0bf365e6c544c4bdc8c27846b398ef85deeb99659a1bd1cbbfddbc69a1815183206d3b37ba34b733a23ab930ba34b7b760911b858a5161203c816118dd565b600e8152015203612057575050506101a00151600455611fa8565b7f5b1a74ca49fc06542ef79783aa6db8771703259f73767276192f168bbdfaf8cb815183206c616273656e7450656e616c747960981b858a51612099816118dd565b600d81520152036120b4575050506101a00151600555611fa8565b7f343f1cee2704e73b1859bb1bdd73f8fce853b1f06ea40bd99f16c5c103e913188151832067656e74727946656560c01b858a516120f1816118dd565b6008815201520361210c575050506101a00151600855611fa8565b7f806b2ce9432a34cfc9fdab6b94db5bfcfdd69b0eaa656d83bea17439bebe142d815183206b18dbdd5b9d151bd15e1c195b60a21b858a5161214d816118dd565b600c8152015203612168575050506101a00151600655611fa8565b51902085517f7433394719dfd8fcf3f7ef7662d3d256ff5523945834c1c05aad0d14d49b75b4926b1cd8dbdc99551bd15e1c195b60a21b916121a9816118dd565b600c81520152146121bb575b50611fa8565b6101a00151600755386121b5565b6121dd91503d8087833e6114a181836118f9565b38611dbe565b84513d87823e3d90fdfea2646970667358221220d794925d69d849f5db4a3699f15f4de7b37294dd90871dd5ae83ca4c7f7a68ca64736f6c63430008140033",
  "linkReferences": {},
  "deployedLinkReferences": {}
}