{
  "_format": "hh-sol-artifact-1",
  "contractName": "DAO",
  "sourceName": "contracts/DAO.sol",
  "abi": [
    {
      "inputs": [
        {
          "internalType": "address",
          "name": "_proposal",
          "type": "address"
        },
        {
          "internalType": "address",
          "name": "_vault",
          "type": "address"
        },
        {
          "internalType": "address",
          "name": "_execution",
          "type": "address"
        },
        {
          "internalType": "uint256",
          "name": "_passCriteria",
          "type": "uint256"
        },
        {
          "internalType": "uint256",
          "name": "_votingDurationInSeconds",
          "type": "uint256"
        },
        {
          "internalType": "uint256",
          "name": "_absentPenaltyInWei",
          "type": "uint256"
        },
        {
          "internalType": "uint256",
          "name": "_countToExpel",
          "type": "uint256"
        },
        {
          "internalType": "uint256",
          "name": "_scoreToExpel",
          "type": "uint256"
        },
        {
          "internalType": "uint256",
          "name": "_entryFeeInWei",
          "type": "uint256"
        },
        {
          "internalType": "bool",
          "name": "_isPrivate",
          "type": "bool"
        },
        {
          "internalType": "string",
          "name": "_inviteCode",
          "type": "string"
        }
      ],
      "stateMutability": "nonpayable",
      "type": "constructor"
    },
    {
      "anonymous": false,
      "inputs": [
        {
          "indexed": true,
          "internalType": "uint256",
          "name": "proposalId",
          "type": "uint256"
        }
      ],
      "name": "ProposalPassed",
      "type": "event"
    },
    {
      "anonymous": false,
      "inputs": [
        {
          "indexed": true,
          "internalType": "uint256",
          "name": "proposalId",
          "type": "uint256"
        }
      ],
      "name": "ProposalRejected",
      "type": "event"
    },
    {
      "inputs": [],
      "name": "absentPenalty",
      "outputs": [
        {
          "internalType": "uint256",
          "name": "",
          "type": "uint256"
        }
      ],
      "stateMutability": "view",
      "type": "function"
    },
    {
      "inputs": [],
      "name": "countToExpel",
      "outputs": [
        {
          "internalType": "uint256",
          "name": "",
          "type": "uint256"
        }
      ],
      "stateMutability": "view",
      "type": "function"
    },
    {
      "inputs": [
        {
          "internalType": "string",
          "name": "title",
          "type": "string"
        },
        {
          "internalType": "string",
          "name": "description",
          "type": "string"
        },
        {
          "internalType": "uint256",
          "name": "amount",
          "type": "uint256"
        },
        {
          "internalType": "address payable",
          "name": "recipient",
          "type": "address"
        },
        {
          "internalType": "bool",
          "name": "requireVote",
          "type": "bool"
        },
        {
          "internalType": "string",
          "name": "sanctionType",
          "type": "string"
        },
        {
          "internalType": "uint256",
          "name": "beforeValue",
          "type": "uint256"
        },
        {
          "internalType": "uint256",
          "name": "afterValue",
          "type": "uint256"
        },
        {
          "internalType": "address",
          "name": "targetMember",
          "type": "address"
        }
      ],
      "name": "createProposal",
      "outputs": [
        {
          "internalType": "uint256",
          "name": "",
          "type": "uint256"
        }
      ],
      "stateMutability": "nonpayable",
      "type": "function"
    },
    {
      "inputs": [],
      "name": "entryFee",
      "outputs": [
        {
          "internalType": "uint256",
          "name": "",
          "type": "uint256"
        }
      ],
      "stateMutability": "view",
      "type": "function"
    },
    {
      "inputs": [],
      "name": "executionContract",
      "outputs": [
        {
          "internalType": "contract Execution",
          "name": "",
          "type": "address"
        }
      ],
      "stateMutability": "view",
      "type": "function"
    },
    {
      "inputs": [
        {
          "internalType": "uint256",
          "name": "proposalId",
          "type": "uint256"
        }
      ],
      "name": "finalizeProposal",
      "outputs": [],
      "stateMutability": "nonpayable",
      "type": "function"
    },
    {
      "inputs": [],
      "name": "getAllMembers",
      "outputs": [
        {
          "internalType": "address[]",
          "name": "",
          "type": "address[]"
        }
      ],
      "stateMutability": "view",
      "type": "function"
    },
    {
      "inputs": [],
      "name": "getMemberCount",
      "outputs": [
        {
          "internalType": "uint256",
          "name": "",
          "type": "uint256"
        }
      ],
      "stateMutability": "view",
      "type": "function"
    },
    {
      "inputs": [],
      "name": "getTreasuryBalance",
      "outputs": [
        {
          "internalType": "uint256",
          "name": "",
          "type": "uint256"
        }
      ],
      "stateMutability": "view",
      "type": "function"
    },
    {
      "inputs": [],
      "name": "inviteCodeHash",
      "outputs": [
        {
          "internalType": "bytes32",
          "name": "",
          "type": "bytes32"
        }
      ],
      "stateMutability": "view",
      "type": "function"
    },
    {
      "inputs": [
        {
          "internalType": "address",
          "name": "user",
          "type": "address"
        }
      ],
      "name": "isMember",
      "outputs": [
        {
          "internalType": "bool",
          "name": "",
          "type": "bool"
        }
      ],
      "stateMutability": "view",
      "type": "function"
    },
    {
      "inputs": [],
      "name": "isPrivate",
      "outputs": [
        {
          "internalType": "bool",
          "name": "",
          "type": "bool"
        }
      ],
      "stateMutability": "view",
      "type": "function"
    },
    {
      "inputs": [],
      "name": "joinDAO",
      "outputs": [],
      "stateMutability": "payable",
      "type": "function"
    },
    {
      "inputs": [
        {
          "internalType": "string",
          "name": "_inviteCode",
          "type": "string"
        }
      ],
      "name": "joinDAOWithCode",
      "outputs": [],
      "stateMutability": "payable",
      "type": "function"
    },
    {
      "inputs": [],
      "name": "passCriteria",
      "outputs": [
        {
          "internalType": "uint256",
          "name": "",
          "type": "uint256"
        }
      ],
      "stateMutability": "view",
      "type": "function"
    },
    {
      "inputs": [],
      "name": "proposalContract",
      "outputs": [
        {
          "internalType": "contract Proposal",
          "name": "",
          "type": "address"
        }
      ],
      "stateMutability": "view",
      "type": "function"
    },
    {
      "inputs": [
        {
          "internalType": "uint256",
          "name": "",
          "type": "uint256"
        }
      ],
      "name": "proposalDeadline",
      "outputs": [
        {
          "internalType": "uint256",
          "name": "",
          "type": "uint256"
        }
      ],
      "stateMutability": "view",
      "type": "function"
    },
    {
      "inputs": [
        {
          "internalType": "uint256",
          "name": "",
          "type": "uint256"
        }
      ],
      "name": "proposalExecuted",
      "outputs": [
        {
          "internalType": "bool",
          "name": "",
          "type": "bool"
        }
      ],
      "stateMutability": "view",
      "type": "function"
    },
    {
      "inputs": [],
      "name": "scoreToExpel",
      "outputs": [
        {
          "internalType": "uint256",
          "name": "",
          "type": "uint256"
        }
      ],
      "stateMutability": "view",
      "type": "function"
    },
    {
      "inputs": [],
      "name": "vaultContract",
      "outputs": [
        {
          "internalType": "contract Vault",
          "name": "",
          "type": "address"
        }
      ],
      "stateMutability": "view",
      "type": "function"
    },
    {
      "inputs": [
        {
          "internalType": "uint256",
          "name": "proposalId",
          "type": "uint256"
        },
        {
          "internalType": "uint8",
          "name": "choice",
          "type": "uint8"
        }
      ],
      "name": "vote",
      "outputs": [],
      "stateMutability": "nonpayable",
      "type": "function"
    },
    {
      "inputs": [],
      "name": "votingDuration",
      "outputs": [
        {
          "internalType": "uint256",
          "name": "",
          "type": "uint256"
        }
      ],
      "stateMutability": "view",
      "type": "function"
    },
    {
      "stateMutability": "payable",
      "type": "receive"
    }
  ],
  "bytecode": "0x60808060405234620001a75762001f3c908138038092620000218284620001c2565b8239610160818381010312620001a7576200003c81620001e6565b6200004a60208301620001e6565b6200005860408401620001e6565b916060840151608085015160a08601519060c08701519260e088015194610100890151966101208a0151988915158a03620001a7576101408b01519a6001600160401b03808d11620001a757818e01828e01601f011215620001a7578c820151908111620001ac576040519c60208e620000dc601f8501601f1916830182620001c2565b838152019e8301602083838601010111620001a75760208f9162000102940101620001fb565b60018060a01b0380928160018060a01b03199516856000541617600055168360015416176001551690600254161760025560035560045560055560065560075560085560ff196009541660ff82151516176009556200016c575b604051611d1b9081620002218239f35b62000199602060405180936200018b83830196879251928391620001fb565b8101038084520182620001c2565b519020600a5538806200015c565b600080fd5b634e487b7160e01b600052604160045260246000fd5b601f909101601f19168101906001600160401b03821190821017620001ac57604052565b51906001600160a01b0382168203620001a757565b60005b8381106200020f5750506000910152565b8181015183820152602001620001fe56fe6080604052600436101561001b575b361561001957600080fd5b005b60003560e01c806243b3d81461114a578063072ea61c1461112c5780630fd2e6f91461110e578063103616e8146110dd578063132002fc146110bf5780632274346b146110965780633aef39001461106d57806352bc9e821461104f5780635652077c14610a245780637c0f6b351461097a578063943e8216146107f7578063997072f7146107a85780639b5655dc146107275780639f1f43af14610709578063a230c52414610610578063bc2914b51461024a578063bdf91db51461022c578063c01f9e3714610200578063cf5cbd69146101e2578063e0e93244146101b9578063f63d13d7146101395763faff660e0361000e573461013457600036600319011261013457602060ff600954166040519015158152f35b600080fd5b60003660031901126101345760ff6009541661015857610019346113aa565b60405162461bcd60e51b815260206004820152603360248201527f54686973206973206120707269766174652044414f2e20557365206a6f696e4460448201527220a7abb4ba3421b7b2329034b739ba32b0b21760691b6064820152608490fd5b34610134576000366003190112610134576002546040516001600160a01b039091168152602090f35b34610134576000366003190112610134576020600a54604051908152f35b3461013457602036600319011261013457600435600052600b6020526020604060002054604051908152f35b34610134576000366003190112610134576020600554604051908152f35b3461013457610120366003190112610134576004356001600160401b0381116101345761027b903690600401611304565b906024356001600160401b0381116101345761029b903690600401611304565b9092909190606435906001600160a01b0382168203610134576084351515608435036101345760a4356001600160401b038111610134576102e0903690600401611304565b610104359291906001600160a01b038416840361013457600054604051635087a34f60e11b81526001600160a01b0390911695906020816004818a5afa90811561053e576000916105dd575b50602061034f9160405180938192632474521560e21b8352339060048401611361565b03818a5afa90811561053e576000916105a3575b501561056057604051966001600160401b0361012089019081119089111761054a576000996020996103a56103ae936103d9986101208d0160405236916112cd565b8a5236916112cd565b8789015260443560408801526001600160a01b031660608701526084351515608087015236916112cd565b60a084015260c43560c084015260e43560e084015260018060a01b0316610100830152604051809481809463664d54f560e11b82526040600483015261048a61043082516101206044860152610164850190611640565b61044b89840151916043199283878303016064880152611640565b6040840151608486015260608401516001600160a01b031660a48601526080840151151560c486015260a084015185820390920160e486015290611640565b60c082015161010484015260e0820151610124840152610100909101516001600160a01b031661014483015233602483015203925af1801561053e5760009061050b575b60209150608435156104fd576104e660045442611665565b81600052600b83526040600020555b604051908152f35b610506816118cf565b6104f5565b506020813d602011610536575b816105256020938361128f565b8101031261013457602090516104ce565b3d9150610518565b6040513d6000823e3d90fd5b634e487b7160e01b600052604160045260246000fd5b60405162461bcd60e51b815260206004820152601b60248201527a2220a79d1021b0b63632b91034b9903737ba10309036b2b6b132b960291b6044820152606490fd5b90506020813d6020116105d5575b816105be6020938361128f565b81010312610134576105cf90611354565b8a610363565b3d91506105b1565b90506020813d602011610608575b816105f86020938361128f565b810103126101345751602061032c565b3d91506105eb565b3461013457602080600319360112610134576004356001600160a01b03808216820361013457600054604051635087a34f60e11b81529116918382600481865afa801561053e5784926000916106d6575b509261068393604051809581948293632474521560e21b845260048401611361565b03915afa90811561053e576000916106a1575b506040519015158152f35b90508181813d83116106cf575b6106b8818361128f565b81010312610134576106c990611354565b82610696565b503d6106ae565b83819492503d8311610702575b6106ed818361128f565b81010312610134579051839190610683610661565b503d6106e3565b34610134576000366003190112610134576020600654604051908152f35b3461013457600036600319011261013457600154604051629032ff60e51b815290602090829060049082906001600160a01b03165afa801561053e57600090610776575b602090604051908152f35b506020813d82116107a0575b8161078f6020938361128f565b81010312610134576020905161076b565b3d9150610782565b346101345760003660031901126101345760005460405163997072f760e01b815290602090829060049082906001600160a01b03165afa801561053e5760009061077657602090604051908152f35b346101345760403660031901126101345760243560ff811680910361013457600054604051635087a34f60e11b81526001600160a01b0390911691906020908181600481875afa801561053e57829060009061094b575b604051632474521560e21b815292508290819061087090339060048401611361565b0381875afa90811561053e57600091610916575b50156108d55750813b1561013457600091606483926040519485938492630ce7fb8360e11b8452600435600485015260248401523360448401525af1801561053e576108cc57005b61001990611261565b6064906040519062461bcd60e51b82526004820152601a6024820152792220a79d21a0a62622a92fa4a9afa727aa2fa0afa6a2a6a122a960311b6044820152fd5b90508181813d8311610944575b61092d818361128f565b810103126101345761093e90611354565b84610884565b503d610923565b5081813d8311610973575b610960818361128f565b810103126101345781610870915161084e565b503d610956565b346101345760003660031901126101345760008054604051637c0f6b3560e01b81526001600160a01b039290918290600490829086165afa90811561053e57600091610a01575b506040519060208083018184528251809152816040850193019160005b8281106109eb5785850386f35b83518716855293810193928101926001016109de565b610a1e91503d806000833e610a16818361128f565b810190611822565b826109c1565b346101345760208060031936011261013457600080546040516318feeb1560e31b808252600480359083018190526024959490936001600160a01b0393908416929091828881865afa91821561053e57600092611032575b508161014081015115610ff65785600052600c875260ff60406000205416610fb5578060e0610ab760a0610ac094015160c084015190611665565b91015190611665565b9260405163997072f760e01b81528781600481855afa90811561053e57600091610f88575b508085109081159081610f7e575b508015610f55575b15610f1b5786600052600b8852604060002054908115159182610f11575b5081610f09575b50610c7f575b505081610c4d57505060005b60035411610bd2576000541692833b1561013457600160446000928360405197889485936332fa518560e21b85528860048601528401525af192831561053e57600c93610bc3575b50807fe36f8b7448daff4a52e2945db0d1d7a436279cc1d527a45c27835dcbd27f336d600080a2610baa816118cf565b600052526040600020600160ff19825416179055600080f35b610bcc90611261565b83610b7a565b6000541692833b1561013457600260446000928360405197889485936332fa518560e21b85528860048601528401525af192831561053e57600c93610c3e575b50807fd92fba445edb3153b571e6df782d7a66fd0ce668519273670820ee3a86da0ef4600080a2610baa565b610c4790611261565b83610c12565b60a00151606481029080820460641490151715610c6a5704610b32565b85634e487b7160e01b60005260116004526000fd5b60049493506000919695925060405194858092637c0f6b3560e01b82525afa92831561053e57600093610eec575b5060005b8351811015610e79578260005416610cec8685610cce85896118a5565b516040516362d4f89360e01b81529384928392168860048401611361565b0381855afa90811561053e57600091610e44575b5015610d2e575b506000198114610d1957600101610cb1565b86634e487b7160e01b60005260116004526000fd5b83610d3983876118a5565b5116813b15610134576000918983926040519485938492635d437b8560e11b845260048401525af1801561053e57610e35575b50826000541683610d7d83876118a5565b511690803b156101345760405163a462e50f60e01b8152916000918391829084908290610dae908a60048401611361565b03925af1801561053e57610e26575b5060008080808660015416600554905af1610dd661137a565b5015610de25787610d07565b60405162461bcd60e51b815260048101869052601f818901527f4661696c656420746f2073656e642070656e616c747920746f207661756c74006044820152606490fd5b610e2f90611261565b87610dbd565b610e3e90611261565b87610d6c565b90508681813d8311610e72575b610e5b818361128f565b8101031261013457610e6c90611354565b89610d00565b503d610e51565b50929390915060008281541691866040518094819382528760048301525afa90811561053e57600091610ec9575b50610ec18160e0610ab760a083015160c084015190611665565b908680610b26565b610ee691503d806000833e610ede818361128f565b8101906116e1565b85610ea7565b610f029193503d806000833e610a16818361128f565b9186610cad565b905089610b20565b421191508a610b19565b60405162461bcd60e51b8152600481018990526013818b01527210d85b9b9bdd08199a5b985b1a5e99481e595d606a1b6044820152606490fd5b5086600052600b88526040600020548015159081610f74575b50610afb565b905042118a610f6e565b905015158a610af3565b90508781813d8311610fae575b610f9f818361128f565b81010312610134575189610ae5565b503d610f95565b60405162461bcd60e51b815260048101889052601a818a015279141c9bdc1bdcd85b08185b1c9958591e48199a5b985b1a5e995960321b6044820152606490fd5b60405162461bcd60e51b8152600481018890526015818a015274139bdd0818481d9bdd1a5b99c81c1c9bdc1bdcd85b605a1b6044820152606490fd5b6110489192503d806000833e610ede818361128f565b9087610a7c565b34610134576000366003190112610134576020600754604051908152f35b34610134576000366003190112610134576000546040516001600160a01b039091168152602090f35b34610134576000366003190112610134576001546040516001600160a01b039091168152602090f35b34610134576000366003190112610134576020600454604051908152f35b3461013457602036600319011261013457600435600052600c602052602060ff604060002054166040519015158152f35b34610134576000366003190112610134576020600354604051908152f35b34610134576000366003190112610134576020600854604051908152f35b602080600319360112610134576004356001600160401b0381116101345736602382011215610134576111879036906024816004013591016112cd565b60ff6009541615611209576040516111bb8382816111ae8183019687815193849201611331565b810103808452018261128f565b519020600a54036111cf57610019346113aa565b6064906040519062461bcd60e51b825260048201526013602482015272496e76616c696420696e7669746520636f646560681b6044820152fd5b60405162461bcd60e51b815260048101839052602a60248201527f546869732069732061207075626c69632044414f2e20557365206a6f696e4441604482015269279034b739ba32b0b21760b11b6064820152608490fd5b6001600160401b03811161054a57604052565b604081019081106001600160401b0382111761054a57604052565b601f909101601f19168101906001600160401b0382119082101761054a57604052565b6001600160401b03811161054a57601f01601f191660200190565b9291926112d9826112b2565b916112e7604051938461128f565b829481845281830111610134578281602093846000960137010152565b9181601f84011215610134578235916001600160401b038311610134576020838186019501011161013457565b60005b8381106113445750506000910152565b8181015183820152602001611334565b5190811515820361013457565b9081526001600160a01b03909116602082015260400190565b3d156113a5573d9061138b826112b2565b91611399604051938461128f565b82523d6000602084013e565b606090565b906008548210611602576000805460408051635087a34f60e11b80825260049692949390926020926001600160a01b039283169084818b81855afa9081156115f85785918b9189916115bf575b5092611418938a51809581948293632474521560e21b845233918401611361565b03915afa9081156115b557869161157c575b5061154657848080809385600154165af161144361137a565b50156114f95783541691845190815281818881865afa9182156114ef5784926114c1575b5050813b156114bd579482916114949596838651809881958294632f2ff15d60e01b845233918401611361565b03925af19182156114b35750506114a85750565b6114b190611261565b565b51903d90823e3d90fd5b8280fd5b90809250813d83116114e8575b6114d8818361128f565b810103126114bd57513880611467565b503d6114ce565b85513d86823e3d90fd5b845162461bcd60e51b8152808801839052602160248201527f4661696c656420746f2073656e6420656e7472792066656520746f207661756c6044820152601d60fa1b6064820152608490fd5b855162461bcd60e51b8152808901849052601060248201526f20b63932b0b23c90309036b2b6b132b960811b6044820152606490fd5b90508381813d83116115ae575b611593818361128f565b810103126115aa576115a490611354565b3861142a565b8580fd5b503d611589565b87513d88823e3d90fd5b928092508391503d83116115f1575b6115d8818361128f565b810103126115ed575184908a906114186113f7565b8680fd5b503d6115ce565b88513d89823e3d90fd5b60405162461bcd60e51b8152602060048201526016602482015275496e73756666696369656e7420656e7472792066656560501b6044820152606490fd5b9060209161165981518092818552858086019101611331565b601f01601f1916010190565b9190820180921161167257565b634e487b7160e01b600052601160045260246000fd5b81601f8201121561013457805161169e816112b2565b926116ac604051948561128f565b81845260208284010111610134576116ca9160208085019101611331565b90565b51906001600160a01b038216820361013457565b906020828203126101345781516001600160401b03928382116101345701906101e0928383830312610134576040519384018481108282111761054a5760405282518181116101345782611736918501611688565b845260208301518181116101345782611750918501611688565b60208501526040838101519085015260608301516001600160a01b03811681036101345760608501526080830151600481101561013457608085015260a083015160a085015260c083015160c085015260e083015160e085015261010080840151908501526101206117c38185016116cd565b908501526101406117d5818501611354565b908501526101609182840151918211610134576117f3918401611688565b9083015261018080820151908301526101a0808201519083015261181b6101c08092016116cd565b9082015290565b9060209081838203126101345782516001600160401b0393848211610134570181601f8201121561013457805193841161054a578360051b906040519461186b8584018761128f565b85528380860192820101928311610134578301905b82821061188e575050505090565b83809161189a846116cd565b815201910190611880565b80518210156118b95760209160051b010190565b634e487b7160e01b600052603260045260246000fd5b60018060a01b0360009181835416916024846040948551928380926318feeb1560e31b82528760048301525afa908115611d04578591611cea575b5061016081018051908551916020926119328482816111ae8183019687815193849201611331565b5190208651838101906a3a3932b0b9bab93c96b4b760a91b8252600b815261195981611274565b519020036119a2575050506002541690813b1561199e5783916024839285519687938492637026e9fd60e01b845260048401525af19182156114b35750506114a85750565b8380fd5b805186516119bf8482816111ae8183019687815193849201611331565b5190208651838101906b1d1c99585cdd5c9e4b5bdd5d60a21b8252600c81526119e781611274565b51902003611a2c575050506002541690813b1561199e578391602483928551968793849263021814f960e41b845260048401525af19182156114b35750506114a85750565b959290939195518551611a4e8682816111ae8183019687815193849201611331565b5190208551858101906a72756c652d6368616e676560a81b8252600b8152611a7581611274565b51902014611a86575b505050505050565b6002541690813b156114bd5782916024839287519586938492636f0d949d60e11b845260048401525af1908115611cdf5750611cd0575b506101a0835193015192825190828201815192611ae48582818601966111ae81878a611331565b5190208451848101906b70617373437269746572696160a01b8252600c8152611b0c81611274565b51902003611b2757505050506003555b388080808080611a7e565b835183810190611b3f858285516111ae81878a611331565b5190208451848101906d3b37ba34b733a23ab930ba34b7b760911b8252600e8152611b6981611274565b51902003611b7d5750505050600455611b1c565b835183810190611b95858285516111ae81878a611331565b5190208451848101906c616273656e7450656e616c747960981b8252600d8152611bbe81611274565b51902003611bd25750505050600555611b1c565b835183810190611bea858285516111ae81878a611331565b5190208451848101906b18dbdd5b9d151bd15e1c195b60a21b8252600c8152611c1281611274565b51902003611c265750505050600655611b1c565b835183810190611c3e858285516111ae81878a611331565b5190208451848101906b1cd8dbdc99551bd15e1c195b60a21b8252600c8152611c6681611274565b51902003611c7a5750505050600755611b1c565b611c9483855180936111ae83830196879251928391611331565b51902091519081019067656e74727946656560c01b825260088152611cb881611274565b51902014611cc7575b50611b1c565b60085538611cc1565b611cd990611261565b38611abd565b8451903d90823e3d90fd5b611cfe91503d8087833e610ede818361128f565b3861190a565b84513d87823e3d90fdfea164736f6c6343000814000a",
  "linkReferences": {},
  "deployedLinkReferences": {}
}