{
  "_format": "hh-sol-artifact-1",
  "contractName": "DAO",
  "sourceName": "contracts/DAO.sol",
  "abi": [
    {
      "inputs": [
        {
          "internalType": "address",
          "name": "_proposal",
          "type": "address"
        },
        {
          "internalType": "address",
          "name": "_vault",
          "type": "address"
        },
        {
          "internalType": "address",
          "name": "_execution",
          "type": "address"
        },
        {
          "internalType": "uint256",
          "name": "_passCriteria",
          "type": "uint256"
        },
        {
          "internalType": "uint256",
          "name": "_votingDurationInSeconds",
          "type": "uint256"
        },
        {
          "internalType": "uint256",
          "name": "_absentPenaltyInWei",
          "type": "uint256"
        },
        {
          "internalType": "uint256",
          "name": "_countToExpel",
          "type": "uint256"
        },
        {
          "internalType": "uint256",
          "name": "_scoreToExpel",
          "type": "uint256"
        },
        {
          "internalType": "uint256",
          "name": "_entryFeeInWei",
          "type": "uint256"
        },
        {
          "internalType": "bool",
          "name": "_isPrivate",
          "type": "bool"
        },
        {
          "internalType": "string",
          "name": "_inviteCode",
          "type": "string"
        }
      ],
      "stateMutability": "nonpayable",
      "type": "constructor"
    },
    {
      "anonymous": false,
      "inputs": [
        {
          "indexed": true,
          "internalType": "uint256",
          "name": "proposalId",
          "type": "uint256"
        }
      ],
      "name": "ProposalPassed",
      "type": "event"
    },
    {
      "anonymous": false,
      "inputs": [
        {
          "indexed": true,
          "internalType": "uint256",
          "name": "proposalId",
          "type": "uint256"
        }
      ],
      "name": "ProposalRejected",
      "type": "event"
    },
    {
      "inputs": [],
      "name": "absentPenalty",
      "outputs": [
        {
          "internalType": "uint256",
          "name": "",
          "type": "uint256"
        }
      ],
      "stateMutability": "view",
      "type": "function"
    },
    {
      "inputs": [
        {
          "internalType": "address",
          "name": "member",
          "type": "address"
        },
        {
          "internalType": "uint256",
          "name": "amount",
          "type": "uint256"
        }
      ],
      "name": "adminSubGlassScore",
      "outputs": [],
      "stateMutability": "nonpayable",
      "type": "function"
    },
    {
      "inputs": [],
      "name": "countToExpel",
      "outputs": [
        {
          "internalType": "uint256",
          "name": "",
          "type": "uint256"
        }
      ],
      "stateMutability": "view",
      "type": "function"
    },
    {
      "inputs": [
        {
          "internalType": "string",
          "name": "title",
          "type": "string"
        },
        {
          "internalType": "string",
          "name": "description",
          "type": "string"
        },
        {
          "internalType": "uint256",
          "name": "amount",
          "type": "uint256"
        },
        {
          "internalType": "address payable",
          "name": "recipient",
          "type": "address"
        },
        {
          "internalType": "bool",
          "name": "requireVote",
          "type": "bool"
        },
        {
          "internalType": "string",
          "name": "sanctionType",
          "type": "string"
        },
        {
          "internalType": "uint256",
          "name": "beforeValue",
          "type": "uint256"
        },
        {
          "internalType": "uint256",
          "name": "afterValue",
          "type": "uint256"
        },
        {
          "internalType": "address",
          "name": "targetMember",
          "type": "address"
        }
      ],
      "name": "createProposal",
      "outputs": [
        {
          "internalType": "uint256",
          "name": "",
          "type": "uint256"
        }
      ],
      "stateMutability": "nonpayable",
      "type": "function"
    },
    {
      "inputs": [],
      "name": "entryFee",
      "outputs": [
        {
          "internalType": "uint256",
          "name": "",
          "type": "uint256"
        }
      ],
      "stateMutability": "view",
      "type": "function"
    },
    {
      "inputs": [],
      "name": "executionContract",
      "outputs": [
        {
          "internalType": "contract Execution",
          "name": "",
          "type": "address"
        }
      ],
      "stateMutability": "view",
      "type": "function"
    },
    {
      "inputs": [
        {
          "internalType": "uint256",
          "name": "proposalId",
          "type": "uint256"
        }
      ],
      "name": "finalizeProposal",
      "outputs": [],
      "stateMutability": "nonpayable",
      "type": "function"
    },
    {
      "inputs": [],
      "name": "getAllMembers",
      "outputs": [
        {
          "internalType": "address[]",
          "name": "",
          "type": "address[]"
        }
      ],
      "stateMutability": "view",
      "type": "function"
    },
    {
      "inputs": [],
      "name": "getMemberCount",
      "outputs": [
        {
          "internalType": "uint256",
          "name": "",
          "type": "uint256"
        }
      ],
      "stateMutability": "view",
      "type": "function"
    },
    {
      "inputs": [],
      "name": "getTreasuryBalance",
      "outputs": [
        {
          "internalType": "uint256",
          "name": "",
          "type": "uint256"
        }
      ],
      "stateMutability": "view",
      "type": "function"
    },
    {
      "inputs": [],
      "name": "inviteCodeHash",
      "outputs": [
        {
          "internalType": "bytes32",
          "name": "",
          "type": "bytes32"
        }
      ],
      "stateMutability": "view",
      "type": "function"
    },
    {
      "inputs": [
        {
          "internalType": "address",
          "name": "user",
          "type": "address"
        }
      ],
      "name": "isMember",
      "outputs": [
        {
          "internalType": "bool",
          "name": "",
          "type": "bool"
        }
      ],
      "stateMutability": "view",
      "type": "function"
    },
    {
      "inputs": [],
      "name": "isPrivate",
      "outputs": [
        {
          "internalType": "bool",
          "name": "",
          "type": "bool"
        }
      ],
      "stateMutability": "view",
      "type": "function"
    },
    {
      "inputs": [],
      "name": "joinDAO",
      "outputs": [],
      "stateMutability": "payable",
      "type": "function"
    },
    {
      "inputs": [
        {
          "internalType": "string",
          "name": "_inviteCode",
          "type": "string"
        }
      ],
      "name": "joinDAOWithCode",
      "outputs": [],
      "stateMutability": "payable",
      "type": "function"
    },
    {
      "inputs": [],
      "name": "passCriteria",
      "outputs": [
        {
          "internalType": "uint256",
          "name": "",
          "type": "uint256"
        }
      ],
      "stateMutability": "view",
      "type": "function"
    },
    {
      "inputs": [],
      "name": "proposalContract",
      "outputs": [
        {
          "internalType": "contract Proposal",
          "name": "",
          "type": "address"
        }
      ],
      "stateMutability": "view",
      "type": "function"
    },
    {
      "inputs": [
        {
          "internalType": "uint256",
          "name": "",
          "type": "uint256"
        }
      ],
      "name": "proposalDeadline",
      "outputs": [
        {
          "internalType": "uint256",
          "name": "",
          "type": "uint256"
        }
      ],
      "stateMutability": "view",
      "type": "function"
    },
    {
      "inputs": [
        {
          "internalType": "uint256",
          "name": "",
          "type": "uint256"
        }
      ],
      "name": "proposalExecuted",
      "outputs": [
        {
          "internalType": "bool",
          "name": "",
          "type": "bool"
        }
      ],
      "stateMutability": "view",
      "type": "function"
    },
    {
      "inputs": [],
      "name": "scoreToExpel",
      "outputs": [
        {
          "internalType": "uint256",
          "name": "",
          "type": "uint256"
        }
      ],
      "stateMutability": "view",
      "type": "function"
    },
    {
      "inputs": [],
      "name": "vaultContract",
      "outputs": [
        {
          "internalType": "contract Vault",
          "name": "",
          "type": "address"
        }
      ],
      "stateMutability": "view",
      "type": "function"
    },
    {
      "inputs": [
        {
          "internalType": "uint256",
          "name": "proposalId",
          "type": "uint256"
        },
        {
          "internalType": "uint8",
          "name": "choice",
          "type": "uint8"
        }
      ],
      "name": "vote",
      "outputs": [],
      "stateMutability": "nonpayable",
      "type": "function"
    },
    {
      "inputs": [],
      "name": "votingDuration",
      "outputs": [
        {
          "internalType": "uint256",
          "name": "",
          "type": "uint256"
        }
      ],
      "stateMutability": "view",
      "type": "function"
    },
    {
      "stateMutability": "payable",
      "type": "receive"
    }
  ],
  "bytecode": "0x60808060405234620001a75762002400908138038092620000218284620001c2565b8239610160818381010312620001a7576200003c81620001e6565b6200004a60208301620001e6565b6200005860408401620001e6565b916060840151608085015160a08601519060c08701519260e088015194610100890151966101208a0151988915158a03620001a7576101408b01519a6001600160401b03808d11620001a757818e01828e01601f011215620001a7578c820151908111620001ac576040519c60208e620000dc601f8501601f1916830182620001c2565b838152019e8301602083838601010111620001a75760208f9162000102940101620001fb565b60018060a01b0380928160018060a01b03199516856000541617600055168360015416176001551690600254161760025560035560045560055560065560075560085560ff196009541660ff82151516176009556200016c575b6040516121df9081620002218239f35b62000199602060405180936200018b83830196879251928391620001fb565b8101038084520182620001c2565b519020600a5538806200015c565b600080fd5b634e487b7160e01b600052604160045260246000fd5b601f909101601f19168101906001600160401b03821190821017620001ac57604052565b51906001600160a01b0382168203620001a757565b60005b8381106200020f5750506000910152565b8181015183820152602001620001fe56fe6080604052600436101561001b575b361561001957600080fd5b005b60003560e01c806243b3d8146114b0578063072ea61c146114925780630fd2e6f914611474578063103616e814611443578063132002fc146114255780632274346b146113fc5780633aef3900146113d357806352bc9e82146113b55780635652077c14610b1557806357cce7d4146109b55780637c0f6b351461090b578063943e82161461077c578063997072f71461072d5780639b5655dc146106ac5780639f1f43af1461068e578063a230c5241461058a578063bc2914b514610252578063bdf91db514610234578063c01f9e3714610208578063cf5cbd69146101ea578063e0e93244146101c1578063f63d13d7146101445763faff660e0361000e573461013f57600036600319011261013f57602060ff600954166040519015158152f35b600080fd5b600036600319011261013f5760ff600954166101635761001934611723565b60405162461bcd60e51b815260206004820152603060248201527f44414f3a20557365206a6f696e44414f57697468436f646520666f722070726960448201526f7661746520636f6c6c6563746976657360801b6064820152608490fd5b3461013f57600036600319011261013f576002546040516001600160a01b039091168152602090f35b3461013f57600036600319011261013f576020600a54604051908152f35b3461013f57602036600319011261013f57600435600052600b6020526020604060002054604051908152f35b3461013f57600036600319011261013f576020600554604051908152f35b3461013f5761012036600319011261013f5767ffffffffffffffff60043581811161013f57610285903690600401611695565b909160243581811161013f5761029f903690600401611695565b91606435906001600160a01b038216820361013f5760843515156084350361013f5760a43590811161013f576102d9903690600401611695565b610104359491939092916001600160a01b038616860361013f57600054604051635087a34f60e11b81526001600160a01b0390911698906020816004818d5afa9081156104b157600091610557575b50604051632474521560e21b815260048101919091523360248201526020816044818d5afa9081156104b1576000916104ef575b509361039c6103c79460009b989461039360209c999561037f61040b9d9a6119b1565b6040519a61038c8c6115d1565b3691611648565b89523691611648565b868a015260443560408701526001600160a01b03166060860152608435151560808601523691611648565b60a083015260c43560c083015260e43560e08301526001600160a01b031661010082015260405163664d54f560e11b81529485938492839190339060048401611a22565b03925af19081156104b1576000916104bd575b506000546001600160a01b031690813b1561013f576000809260446040518095819363012232e960e61b8352336004840152600360248401525af19182156104b1576020926104a2575b50608435156104945761047d60045442611acf565b81600052600b83526040600020555b604051908152f35b61049d81611d50565b61048c565b6104ab906115bd565b82610468565b6040513d6000823e3d90fd5b90506020813d6020116104e7575b816104d86020938361160a565b8101031261013f57518161041e565b3d91506104cb565b93989591999692979490506020843d60201161054f575b816105136020938361160a565b8101031261013f5761039c60209961040b9961039360009d61037f61053a6103c79a6116e6565b969a9d505095999c505094989b50945061035c565b3d9150610506565b90506020813d602011610582575b816105726020938361160a565b8101031261013f57516020610328565b3d9150610565565b3461013f5760208060031936011261013f576105a461167f565b600054604051635087a34f60e11b81526001600160a01b03909116918382600481865afa80156104b157849260009161065b575b50604051632474521560e21b815260048101919091526001600160a01b0390911660248201529182908180604481015b03915afa9081156104b157600091610626575b506040519015158152f35b90508181813d8311610654575b61063d818361160a565b8101031261013f5761064e906116e6565b8261061b565b503d610633565b83819492503d8311610687575b610672818361160a565b8101031261013f5790518391906106086105d8565b503d610668565b3461013f57600036600319011261013f576020600654604051908152f35b3461013f57600036600319011261013f57600154604051629032ff60e51b815290602090829060049082906001600160a01b03165afa80156104b1576000906106fb575b602090604051908152f35b506020813d8211610725575b816107146020938361160a565b8101031261013f57602090516106f0565b3d9150610707565b3461013f57600036600319011261013f5760005460405163997072f760e01b815290602090829060049082906001600160a01b03165afa80156104b1576000906106fb57602090604051908152f35b3461013f57604036600319011261013f5760243560ff811680910361013f57600054604051635087a34f60e11b81526001600160a01b039182169060208082600481865afa9182156104b1576000926108dc575b50604051632474521560e21b815260048101929092523360248301528082604481865afa9081156104b1576000916108a5575b5061080e91506119b1565b803b1561013f576000809160446040518094819363012232e960e61b8352336004840152600160248401525af180156104b157610896575b506000541690813b1561013f57600091606483926040519485938492630ce7fb8360e11b8452600435600485015260248401523360448401525af180156104b15761088d57005b610019906115bd565b61089f906115bd565b82610846565b905081813d83116108d5575b6108bb818361160a565b8101031261013f576108cf61080e916116e6565b85610803565b503d6108b1565b91508082813d8311610904575b6108f3818361160a565b8101031261013f57905190806107d0565b503d6108e9565b3461013f57600036600319011261013f5760008054604051637c0f6b3560e01b81526001600160a01b039290918290600490829086165afa9081156104b157600091610992575b506040519060208083018184528251809152816040850193019160005b82811061097c5785850386f35b835187168552938101939281019260010161096f565b6109af91503d806000833e6109a7818361160a565b810190611c77565b82610952565b3461013f57604036600319011261013f576109ce61167f565b60005460405163a217fddf60e01b81526001600160a01b039182169291906020908181600481885afa80156104b1578290600090610ae6575b604051632474521560e21b8152600481019190915233602482015291508180604481015b0381885afa9081156104b157600091610ab1575b5015610a815750823b1561013f576044600092836040519586948593632b72ee5160e01b855216600484015260243560248401525af180156104b15761088d57005b6064906040519062461bcd60e51b8252600482015260096024820152682737ba1030b236b4b760b91b6044820152fd5b90508181813d8311610adf575b610ac8818361160a565b8101031261013f57610ad9906116e6565b85610a3f565b503d610abe565b5081813d8311610b0e575b610afb818361160a565b8101031261013f5781610a2b9151610a07565b503d610af1565b3461013f57602036600319011261013f57600080546040516318feeb1560e31b8082526004803590830152926001600160a01b039092169181602481855afa80156104b1576101409160009161139a575b5001511561135d57600435600052600b60205260406000205442111561131857600435600052600c60205260ff604060002054166112d357600060049160405192838092637c0f6b3560e01b82525afa9081156104b1576000916112b8575b5060005b8151811015610e36576000546001600160a01b0390811690610c2490602090610bf28587611cfb565b516040516362d4f89360e01b8152600480359082015291166001600160a01b0316602482015291829081906044820190565b0381855afa9081156104b157600091610dfc575b5015610c67575b506000198114610c5157600101610bc9565b634e487b7160e01b600052601160045260246000fd5b6001600160a01b03610c798385611cfb565b5116813b1561013f57600091602483926040519485938492635d437b8560e11b845260048401525af180156104b157610ded575b506000546001600160a01b0390811690610cc78385611cfb565b511690803b1561013f5760405163a462e50f60e01b815260048035908201526001600160a01b039290921660248301526000908290604490829084905af180156104b157610dde575b506000546001600160a01b0390811690610d2a8385611cfb565b511690803b1561013f5760008092604051928391632b72ee5160e01b83526004830152600360248301528160449586925af180156104b157610dcf575b50600080808060018060a01b0360015416600554905af1610d866116f3565b50610c3f576064907f4661696c656420746f2073656e642070656e616c747920746f207661756c74006040519162461bcd60e51b835260206004840152601f6024840152820152fd5b610dd8906115bd565b84610d67565b610de7906115bd565b83610d10565b610df6906115bd565b83610cad565b90506020813d602011610e2e575b81610e176020938361160a565b8101031261013f57610e28906116e6565b85610c38565b3d9150610e0a565b8260018060a01b03600054166040519182526004356004830152600082602481845afa9182156104b157600092611293575b5060a08201610e8b610e80825160c086015190611acf565b60e085015190611acf565b90816112785750506000905b600354821061120157506000546001600160a01b0316803b1561013f57600080916044604051809481936332fa518560e21b83526004356004840152600160248401525af180156104b1576111f2575b506004357fe36f8b7448daff4a52e2945db0d1d7a436279cc1d527a45c27835dcbd27f336d600080a2610f1b600435611d50565b61016082015160208151910120610f30611d25565b6020815191012003611025575b600435600052600c6020526040600020600160ff1982541617905561016082015160208151910120610f6d611d25565b6020815191012014610f7b57005b60035411610fd4576000546101c0909101516001600160a01b039182169116813b1561013f5760009160448392604051948593849263012232e960e61b84526004840152600460248401525af180156104b15761088d57005b6000546101c0909101516001600160a01b039182169116813b1561013f57600091604483926040519485938492632b72ee5160e01b84526004840152600a60248401525af180156104b15761088d57005b815161106e6031604051809370022bc32b1baba34b7b71021b432b1b59d1607d1b602083015261105e81518092602086860191016116c3565b810103601181018452018261160a565b60405180608081011067ffffffffffffffff6080830111176111dc5761117681600093608060209401604052604782527f566f74652059455320696620746865206f726967696e616c2070726f706f7361848301527f6c2077617320657865637574656420636f72726563746c792c204e4f206f746860408301526632b93bb4b9b29760c91b606083015260018060a01b038554169160018060a01b03610120890151169060405192611120846115d1565b83528583015285604083015285606083015260016080830152611141611d25565b60a08301528560c08301528560e083015261010082015260405194858094819363664d54f560e11b8352309060048401611a22565b03925af19081156104b1576000916111aa575b5061119660045442611acf565b90600052600b602052604060002055610f3d565b90506020813d6020116111d4575b816111c56020938361160a565b8101031261013f575183611189565b3d91506111b8565b634e487b7160e01b600052604160045260246000fd5b6111fb906115bd565b82610ee7565b803b1561013f57600080916044604051809481936332fa518560e21b83526004356004840152600260248401525af180156104b157611269575b506004357fd92fba445edb3153b571e6df782d7a66fd0ce668519273670820ee3a86da0ef4600080a2610f3d565b611272906115bd565b8261123b565b51606481029080820460641490151715610c51570490610e97565b6112b19192503d806000833e6112a9818361160a565b810190611b35565b9082610e68565b6112cd91503d806000833e6109a7818361160a565b82610bc5565b60405162461bcd60e51b815260206004820152601a60248201527f50726f706f73616c20616c72656164792066696e616c697a65640000000000006044820152606490fd5b60405162461bcd60e51b815260206004820152601760248201527f566f74696e6720706572696f64206e6f7420656e6465640000000000000000006044820152606490fd5b60405162461bcd60e51b8152602060048201526015602482015274139bdd0818481d9bdd1a5b99c81c1c9bdc1bdcd85b605a1b6044820152606490fd5b6113af91503d806000833e6112a9818361160a565b84610b66565b3461013f57600036600319011261013f576020600754604051908152f35b3461013f57600036600319011261013f576000546040516001600160a01b039091168152602090f35b3461013f57600036600319011261013f576001546040516001600160a01b039091168152602090f35b3461013f57600036600319011261013f576020600454604051908152f35b3461013f57602036600319011261013f57600435600052600c602052602060ff604060002054166040519015158152f35b3461013f57600036600319011261013f576020600354604051908152f35b3461013f57600036600319011261013f576020600854604051908152f35b60208060031936011261013f5760043567ffffffffffffffff811161013f573660238201121561013f576114ee903690602481600401359101611648565b60ff600954161561157a5760405161152283828161151581830196878151938492016116c3565b810103808452018261160a565b519020600a54036115365761001934611723565b6064906040519062461bcd60e51b82526004820152601860248201527f44414f3a20496e76616c696420696e7669746520636f646500000000000000006044820152fd5b6064826040519062461bcd60e51b825280600483015260248201527f44414f3a20546869732069732061207075626c696320636f6c6c6563746976656044820152fd5b67ffffffffffffffff81116111dc57604052565b610120810190811067ffffffffffffffff8211176111dc57604052565b6040810190811067ffffffffffffffff8211176111dc57604052565b90601f8019910116810190811067ffffffffffffffff8211176111dc57604052565b67ffffffffffffffff81116111dc57601f01601f191660200190565b9291926116548261162c565b91611662604051938461160a565b82948184528183011161013f578281602093846000960137010152565b600435906001600160a01b038216820361013f57565b9181601f8401121561013f5782359167ffffffffffffffff831161013f576020838186019501011161013f57565b60005b8381106116d65750506000910152565b81810151838201526020016116c6565b5190811515820361013f57565b3d1561171e573d906117048261162c565b91611712604051938461160a565b82523d6000602084013e565b606090565b6000805460408051635087a34f60e11b8082526004969592949390926020926001600160a01b039283169084818b81855afa9081156119a75785918b91899161196e575b508951632474521560e21b815291820190815233602082015290928391829081906040015b03915afa90811561196457869161192b575b506118f55760085481036118bd57848080809385600154165af16117c06116f3565b501561187a5783541691845190815281818881865afa918215611870578492611842575b5050813b1561183e578351632f2ff15d60e01b81529586019081523360208201529394938291859182908490829060400103925af19182156118345750506118295750565b611832906115bd565b565b51903d90823e3d90fd5b8280fd5b90809250813d8311611869575b611859818361160a565b8101031261183e575138806117e4565b503d61184f565b85513d86823e3d90fd5b845162461bcd60e51b8152808801839052601d60248201527f4661696c656420746f2073656e6420457468657220746f207661756c740000006044820152606490fd5b855162461bcd60e51b81528089018490526012602482015271496e636f7272656374206a6f696e2066656560701b6044820152606490fd5b855162461bcd60e51b8152808901849052601060248201526f20b63932b0b23c90309036b2b6b132b960811b6044820152606490fd5b90508381813d831161195d575b611942818361160a565b8101031261195957611953906116e6565b3861179e565b8580fd5b503d611938565b87513d88823e3d90fd5b928092508391503d83116119a0575b611987818361160a565b8101031261199c575184908a9061178c611767565b8680fd5b503d61197d565b88513d89823e3d90fd5b156119b857565b60405162461bcd60e51b815260206004820152601b60248201527f44414f3a2043616c6c6572206973206e6f742061206d656d62657200000000006044820152606490fd5b90602091611a16815180928185528580860191016116c3565b601f01601f1916010190565b9060209093929360408352805190611a48610120928360408701526101608601906119fd565b611a638483015191603f1992838883030160608901526119fd565b9260408301516080870152611aa760018060a01b039485938460608701511660a08a01526080860151151560c08a015260a0860151908983030160e08a01526119fd565b9260c081015191610100928389015260e0820151908801520151166101408501529416910152565b91908201809211610c5157565b81601f8201121561013f578051611af28161162c565b92611b00604051948561160a565b8184526020828401011161013f57611b1e91602080850191016116c3565b90565b51906001600160a01b038216820361013f57565b9060208282031261013f57815167ffffffffffffffff9283821161013f5701906101e092838383031261013f57604051938401848110828211176111dc57604052825181811161013f5782611b8b918501611adc565b8452602083015181811161013f5782611ba5918501611adc565b60208501526040838101519085015260608301516001600160a01b038116810361013f5760608501526080830151600481101561013f57608085015260a083015160a085015260c083015160c085015260e083015160e08501526101008084015190850152610120611c18818501611b21565b90850152610140611c2a8185016116e6565b90850152610160918284015191821161013f57611c48918401611adc565b9083015261018080820151908301526101a08082015190830152611c706101c0809201611b21565b9082015290565b90602090818382031261013f57825167ffffffffffffffff9384821161013f570181601f8201121561013f5780519384116111dc578360051b9060405194611cc18584018761160a565b8552838086019282010192831161013f578301905b828210611ce4575050505090565b838091611cf084611b21565b815201910190611cd6565b8051821015611d0f5760209160051b010190565b634e487b7160e01b600052603260045260246000fd5b60405190611d32826115ee565b600f82526e657865637574696f6e2d636865636b60881b6020830152565b60018060a01b0360009181835416916024846040948551928380926318feeb1560e31b82528760048301525afa90811561219f578591612185575b506101608101518051906020917f064209fe56a5ba1791fac474c27dc1b9a6a4977f861d5d2396f722fcf844be9f8383019182206b1d1c99585cdd5c9e4b5bdd5d60a21b858a51611ddb816115ee565b600c8152015203611e2857505050506002541690813b15611e24578391602483928551968793849263021814f960e41b845260048401525af19182156118345750506118295750565b8380fd5b7f407aa5060640b5b11bd7a646d2a67db16d0d8062f0162ee0107d6c4df9647d0b825182206a3a3932b0b9bab93c96b4b760a91b858a51611e68816115ee565b600b8152015203611eb157505050506002541690813b15611e245783916024839285519687938492637026e9fd60e01b845260048401525af19182156118345750506118295750565b7f3263cae112f9b06c4fe976e1e563a8899e0058acad03a56562786e4496d29f6b915190206a72756c652d6368616e676560a81b838851611ef1816115ee565b600b8152015214611f05575b505050505050565b81518051907f8d7cbff25736090ef6444f570ee8941e761e0637e76a2b77e283ff85ec26489d8382019283206b70617373437269746572696160a01b858a51611f4d816115ee565b600c8152015203611fb5575050506101a001516003555b6002541690813b15611e245783916024839285519687938492636f0d949d60e11b845260048401525af1918215611834575050611fa6575b8080808080611efd565b611faf906115bd565b38611f9c565b7fabbfab0bf365e6c544c4bdc8c27846b398ef85deeb99659a1bd1cbbfddbc69a1815183206d3b37ba34b733a23ab930ba34b7b760911b858a51611ff8816115ee565b600e8152015203612013575050506101a00151600455611f64565b7f5b1a74ca49fc06542ef79783aa6db8771703259f73767276192f168bbdfaf8cb815183206c616273656e7450656e616c747960981b858a51612055816115ee565b600d8152015203612070575050506101a00151600555611f64565b7f343f1cee2704e73b1859bb1bdd73f8fce853b1f06ea40bd99f16c5c103e913188151832067656e74727946656560c01b858a516120ad816115ee565b600881520152036120c8575050506101a00151600855611f64565b7f806b2ce9432a34cfc9fdab6b94db5bfcfdd69b0eaa656d83bea17439bebe142d815183206b18dbdd5b9d151bd15e1c195b60a21b858a51612109816115ee565b600c8152015203612124575050506101a00151600655611f64565b51902085517f7433394719dfd8fcf3f7ef7662d3d256ff5523945834c1c05aad0d14d49b75b4926b1cd8dbdc99551bd15e1c195b60a21b91612165816115ee565b600c8152015214612177575b50611f64565b6101a0015160075538612171565b61219991503d8087833e6112a9818361160a565b38611d8b565b84513d87823e3d90fdfea264697066735822122061c58f8db9e2b0de270faa6989c9c05b97eec868a415bd582a355b7a9505085d64736f6c63430008140033",
  "linkReferences": {},
  "deployedLinkReferences": {}
}