{
  "_format": "hh-sol-artifact-1",
  "contractName": "DAOFactory",
  "sourceName": "contracts/DAOFactory.sol",
  "abi": [
    {
      "anonymous": false,
      "inputs": [
        {
          "indexed": true,
          "internalType": "address",
          "name": "daoAddress",
          "type": "address"
        },
        {
          "indexed": true,
          "internalType": "address",
          "name": "creator",
          "type": "address"
        },
        {
          "indexed": false,
          "internalType": "string",
          "name": "name",
          "type": "string"
        },
        {
          "indexed": false,
          "internalType": "string",
          "name": "description",
          "type": "string"
        },
        {
          "indexed": false,
          "internalType": "string",
          "name": "category",
          "type": "string"
        },
        {
          "indexed": false,
          "internalType": "bool",
          "name": "isPrivate",
          "type": "bool"
        }
      ],
      "name": "DAOCreated",
      "type": "event"
    },
    {
      "inputs": [
        {
          "internalType": "string",
          "name": "_name",
          "type": "string"
        },
        {
          "internalType": "string",
          "name": "_description",
          "type": "string"
        },
        {
          "internalType": "string",
          "name": "_category",
          "type": "string"
        },
        {
          "internalType": "address",
          "name": "_owner",
          "type": "address"
        },
        {
          "internalType": "bool",
          "name": "_isPrivate",
          "type": "bool"
        },
        {
          "internalType": "string",
          "name": "_inviteCode",
          "type": "string"
        },
        {
          "internalType": "uint256",
          "name": "_passCriteria",
          "type": "uint256"
        },
        {
          "internalType": "uint256",
          "name": "_votingDurationInSeconds",
          "type": "uint256"
        },
        {
          "internalType": "uint256",
          "name": "_entryFeeInWei",
          "type": "uint256"
        },
        {
          "internalType": "uint256",
          "name": "_absentPenaltyInWei",
          "type": "uint256"
        },
        {
          "internalType": "uint256",
          "name": "_countToExpel",
          "type": "uint256"
        },
        {
          "internalType": "uint256",
          "name": "_scoreToExpel",
          "type": "uint256"
        }
      ],
      "name": "createDAO",
      "outputs": [
        {
          "internalType": "address",
          "name": "newDAOAddress",
          "type": "address"
        }
      ],
      "stateMutability": "nonpayable",
      "type": "function"
    },
    {
      "inputs": [
        {
          "internalType": "uint256",
          "name": "",
          "type": "uint256"
        }
      ],
      "name": "deployedDAOs",
      "outputs": [
        {
          "internalType": "address",
          "name": "",
          "type": "address"
        }
      ],
      "stateMutability": "view",
      "type": "function"
    },
    {
      "inputs": [],
      "name": "getAllDAOs",
      "outputs": [
        {
          "internalType": "address[]",
          "name": "",
          "type": "address[]"
        }
      ],
      "stateMutability": "view",
      "type": "function"
    },
    {
      "inputs": [],
      "name": "getDAO_Count",
      "outputs": [
        {
          "internalType": "uint256",
          "name": "",
          "type": "uint256"
        }
      ],
      "stateMutability": "view",
      "type": "function"
    }
  ],
  "bytecode": "0x60808060405234610016576160e4908161001c8239f35b600080fdfe60808060405260043610156200001457600080fd5b600090813560e01c90816316f2878314620007835750806319e0b288146200073b5780633cb2c68a146200066f576347e9a528146200005257600080fd5b346200066c576101803660031901126200066c5760043567ffffffffffffffff811162000668576200008990369060040162000838565b60243567ffffffffffffffff81116200057657620000ac90369060040162000838565b9060443567ffffffffffffffff81116200050d57620000d090369060040162000838565b906064356001600160a01b03811681036200059257608435928315158403620006645760a43567ffffffffffffffff8111620004fe576200011690369060040162000838565b9460405161082c8082019082821067ffffffffffffffff831117620006265760409183916200588383396001600160a01b0387168152602081018b905203019088f0801562000659576040518061233d81011067ffffffffffffffff61233d83011117620006455761233d6200354682396001600160a01b03851661233d82019081528190036020019089f080156200063a5760018060a01b031696604051918261086f81011067ffffffffffffffff61086f85011117620006265761086f62002cd7843961086f83018981526001600160a01b0391909116602082018190529290819003604001908af080156200060757604051908161240081011067ffffffffffffffff612400840111176200061257620002ad8291612400620008d7843961240083018c8152602081018790526001600160a01b03919091166040820181905260c435606083015260e43560808301526101243560a08301526101443560c08301526101643560e0830152610104356101008301528b15156101208301526101606101408301819052909591019062000894565b03908af0801562000607576001600160a01b031697803b156200060357604051634d1e563560e11b8152600481018a90528a8160248183865af18015620005f857620005de575b50604051631d384ca360e31b81528a939291602082600481845afa918215620005d357859262000596575b50803b156200059257604051632f2ff15d60e01b815260048101929092526001600160a01b038b16602483015284908290604490829084905af1908115620005535784916200057a575b5050803b156200057657604051634d1e563560e11b8152600481018a9052838160248183865af1908115620005535784916200055e575b50506040516307bd026560e01b815290602082600481865afa9182156200055357849262000511575b50823b156200050d57604051632f2ff15d60e01b815260048101929092526001600160a01b031660248201529082908290604490829084905af180156200050257620004e6575b505468010000000000000000811015620004d25792620004b56200049893620004a68997946200046a8860209d60017fa049c93a9115f3f0e7d4f57cf90f70cdc8a30ba109c9475e1271c2f2203aa0229b0190556200079f565b81549060031b908b821b9160018060a01b03901b191617905560405196879660808852608088019062000894565b908682038d88015262000894565b90848203604086015262000894565b95151560608301526001600160a01b0316940390a3604051908152f35b634e487b7160e01b88526041600452602488fd5b620004f190620007ea565b620004fe57863862000410565b8680fd5b6040513d84823e3d90fd5b8380fd5b935090506020833d6020116200054a575b81620005316020938362000815565b8101031262000545578992519038620003c9565b600080fd5b3d915062000522565b6040513d86823e3d90fd5b6200056990620007ea565b62000576578238620003a0565b8280fd5b6200058590620007ea565b6200057657823862000369565b8480fd5b945090506020843d602011620005ca575b81620005b66020938362000815565b8101031262000545578a935190386200031f565b3d9150620005a7565b6040513d87823e3d90fd5b620005ee909a9193929a620007ea565b98909138620002f4565b6040513d8d823e3d90fd5b8980fd5b6040513d8b823e3d90fd5b634e487b7160e01b8b52604160045260248bfd5b634e487b7160e01b8a52604160045260248afd5b6040513d8a823e3d90fd5b634e487b7160e01b89526041600452602489fd5b6040513d89823e3d90fd5b8580fd5b5080fd5b80fd5b50346200066c57806003193601126200066c576040518091805490818352602080930180928280527f290decd9548b62a8d60345a988386fc84ba6bc95484008f6362f93160ef3e56390835b8181106200071d5750505084620006d491038562000815565b60405193838594850191818652518092526040850193925b828110620006fc57505050500390f35b83516001600160a01b031685528695509381019392810192600101620006ec565b82546001600160a01b031684529286019260019283019201620006bb565b50346200066c5760203660031901126200066c576004359080548210156200066c5760206200076a836200079f565b905460405160039290921b1c6001600160a01b03168152f35b9050346200066857816003193601126200066857602091548152f35b906000918254811015620007d6578280527f290decd9548b62a8d60345a988386fc84ba6bc95484008f6362f93160ef3e563019190565b634e487b7160e01b83526032600452602483fd5b67ffffffffffffffff8111620007ff57604052565b634e487b7160e01b600052604160045260246000fd5b90601f8019910116810190811067ffffffffffffffff821117620007ff57604052565b81601f82011215620005455780359067ffffffffffffffff8211620007ff576040519262000871601f8401601f19166020018562000815565b828452602083830101116200054557816000926020809301838601378301015290565b919082519283825260005b848110620008c1575050826000602080949584010152601f8019910116010190565b6020818301810151848301820152016200089f56fe60808060405234620001a75762002400908138038092620000218284620001c2565b8239610160818381010312620001a7576200003c81620001e6565b6200004a60208301620001e6565b6200005860408401620001e6565b916060840151608085015160a08601519060c08701519260e088015194610100890151966101208a0151988915158a03620001a7576101408b01519a6001600160401b03808d11620001a757818e01828e01601f011215620001a7578c820151908111620001ac576040519c60208e620000dc601f8501601f1916830182620001c2565b838152019e8301602083838601010111620001a75760208f9162000102940101620001fb565b60018060a01b0380928160018060a01b03199516856000541617600055168360015416176001551690600254161760025560035560045560055560065560075560085560ff196009541660ff82151516176009556200016c575b6040516121df9081620002218239f35b62000199602060405180936200018b83830196879251928391620001fb565b8101038084520182620001c2565b519020600a5538806200015c565b600080fd5b634e487b7160e01b600052604160045260246000fd5b601f909101601f19168101906001600160401b03821190821017620001ac57604052565b51906001600160a01b0382168203620001a757565b60005b8381106200020f5750506000910152565b8181015183820152602001620001fe56fe6080604052600436101561001b575b361561001957600080fd5b005b60003560e01c806243b3d8146114b0578063072ea61c146114925780630fd2e6f914611474578063103616e814611443578063132002fc146114255780632274346b146113fc5780633aef3900146113d357806352bc9e82146113b55780635652077c14610b1557806357cce7d4146109b55780637c0f6b351461090b578063943e82161461077c578063997072f71461072d5780639b5655dc146106ac5780639f1f43af1461068e578063a230c5241461058a578063bc2914b514610252578063bdf91db514610234578063c01f9e3714610208578063cf5cbd69146101ea578063e0e93244146101c1578063f63d13d7146101445763faff660e0361000e573461013f57600036600319011261013f57602060ff600954166040519015158152f35b600080fd5b600036600319011261013f5760ff600954166101635761001934611723565b60405162461bcd60e51b815260206004820152603060248201527f44414f3a20557365206a6f696e44414f57697468436f646520666f722070726960448201526f7661746520636f6c6c6563746976657360801b6064820152608490fd5b3461013f57600036600319011261013f576002546040516001600160a01b039091168152602090f35b3461013f57600036600319011261013f576020600a54604051908152f35b3461013f57602036600319011261013f57600435600052600b6020526020604060002054604051908152f35b3461013f57600036600319011261013f576020600554604051908152f35b3461013f5761012036600319011261013f5767ffffffffffffffff60043581811161013f57610285903690600401611695565b909160243581811161013f5761029f903690600401611695565b91606435906001600160a01b038216820361013f5760843515156084350361013f5760a43590811161013f576102d9903690600401611695565b610104359491939092916001600160a01b038616860361013f57600054604051635087a34f60e11b81526001600160a01b0390911698906020816004818d5afa9081156104b157600091610557575b50604051632474521560e21b815260048101919091523360248201526020816044818d5afa9081156104b1576000916104ef575b509361039c6103c79460009b989461039360209c999561037f61040b9d9a6119b1565b6040519a61038c8c6115d1565b3691611648565b89523691611648565b868a015260443560408701526001600160a01b03166060860152608435151560808601523691611648565b60a083015260c43560c083015260e43560e08301526001600160a01b031661010082015260405163664d54f560e11b81529485938492839190339060048401611a22565b03925af19081156104b1576000916104bd575b506000546001600160a01b031690813b1561013f576000809260446040518095819363012232e960e61b8352336004840152600360248401525af19182156104b1576020926104a2575b50608435156104945761047d60045442611acf565b81600052600b83526040600020555b604051908152f35b61049d81611d50565b61048c565b6104ab906115bd565b82610468565b6040513d6000823e3d90fd5b90506020813d6020116104e7575b816104d86020938361160a565b8101031261013f57518161041e565b3d91506104cb565b93989591999692979490506020843d60201161054f575b816105136020938361160a565b8101031261013f5761039c60209961040b9961039360009d61037f61053a6103c79a6116e6565b969a9d505095999c505094989b50945061035c565b3d9150610506565b90506020813d602011610582575b816105726020938361160a565b8101031261013f57516020610328565b3d9150610565565b3461013f5760208060031936011261013f576105a461167f565b600054604051635087a34f60e11b81526001600160a01b03909116918382600481865afa80156104b157849260009161065b575b50604051632474521560e21b815260048101919091526001600160a01b0390911660248201529182908180604481015b03915afa9081156104b157600091610626575b506040519015158152f35b90508181813d8311610654575b61063d818361160a565b8101031261013f5761064e906116e6565b8261061b565b503d610633565b83819492503d8311610687575b610672818361160a565b8101031261013f5790518391906106086105d8565b503d610668565b3461013f57600036600319011261013f576020600654604051908152f35b3461013f57600036600319011261013f57600154604051629032ff60e51b815290602090829060049082906001600160a01b03165afa80156104b1576000906106fb575b602090604051908152f35b506020813d8211610725575b816107146020938361160a565b8101031261013f57602090516106f0565b3d9150610707565b3461013f57600036600319011261013f5760005460405163997072f760e01b815290602090829060049082906001600160a01b03165afa80156104b1576000906106fb57602090604051908152f35b3461013f57604036600319011261013f5760243560ff811680910361013f57600054604051635087a34f60e11b81526001600160a01b039182169060208082600481865afa9182156104b1576000926108dc575b50604051632474521560e21b815260048101929092523360248301528082604481865afa9081156104b1576000916108a5575b5061080e91506119b1565b803b1561013f576000809160446040518094819363012232e960e61b8352336004840152600160248401525af180156104b157610896575b506000541690813b1561013f57600091606483926040519485938492630ce7fb8360e11b8452600435600485015260248401523360448401525af180156104b15761088d57005b610019906115bd565b61089f906115bd565b82610846565b905081813d83116108d5575b6108bb818361160a565b8101031261013f576108cf61080e916116e6565b85610803565b503d6108b1565b91508082813d8311610904575b6108f3818361160a565b8101031261013f57905190806107d0565b503d6108e9565b3461013f57600036600319011261013f5760008054604051637c0f6b3560e01b81526001600160a01b039290918290600490829086165afa9081156104b157600091610992575b506040519060208083018184528251809152816040850193019160005b82811061097c5785850386f35b835187168552938101939281019260010161096f565b6109af91503d806000833e6109a7818361160a565b810190611c77565b82610952565b3461013f57604036600319011261013f576109ce61167f565b60005460405163a217fddf60e01b81526001600160a01b039182169291906020908181600481885afa80156104b1578290600090610ae6575b604051632474521560e21b8152600481019190915233602482015291508180604481015b0381885afa9081156104b157600091610ab1575b5015610a815750823b1561013f576044600092836040519586948593632b72ee5160e01b855216600484015260243560248401525af180156104b15761088d57005b6064906040519062461bcd60e51b8252600482015260096024820152682737ba1030b236b4b760b91b6044820152fd5b90508181813d8311610adf575b610ac8818361160a565b8101031261013f57610ad9906116e6565b85610a3f565b503d610abe565b5081813d8311610b0e575b610afb818361160a565b8101031261013f5781610a2b9151610a07565b503d610af1565b3461013f57602036600319011261013f57600080546040516318feeb1560e31b8082526004803590830152926001600160a01b039092169181602481855afa80156104b1576101409160009161139a575b5001511561135d57600435600052600b60205260406000205442111561131857600435600052600c60205260ff604060002054166112d357600060049160405192838092637c0f6b3560e01b82525afa9081156104b1576000916112b8575b5060005b8151811015610e36576000546001600160a01b0390811690610c2490602090610bf28587611cfb565b516040516362d4f89360e01b8152600480359082015291166001600160a01b0316602482015291829081906044820190565b0381855afa9081156104b157600091610dfc575b5015610c67575b506000198114610c5157600101610bc9565b634e487b7160e01b600052601160045260246000fd5b6001600160a01b03610c798385611cfb565b5116813b1561013f57600091602483926040519485938492635d437b8560e11b845260048401525af180156104b157610ded575b506000546001600160a01b0390811690610cc78385611cfb565b511690803b1561013f5760405163a462e50f60e01b815260048035908201526001600160a01b039290921660248301526000908290604490829084905af180156104b157610dde575b506000546001600160a01b0390811690610d2a8385611cfb565b511690803b1561013f5760008092604051928391632b72ee5160e01b83526004830152600360248301528160449586925af180156104b157610dcf575b50600080808060018060a01b0360015416600554905af1610d866116f3565b50610c3f576064907f4661696c656420746f2073656e642070656e616c747920746f207661756c74006040519162461bcd60e51b835260206004840152601f6024840152820152fd5b610dd8906115bd565b84610d67565b610de7906115bd565b83610d10565b610df6906115bd565b83610cad565b90506020813d602011610e2e575b81610e176020938361160a565b8101031261013f57610e28906116e6565b85610c38565b3d9150610e0a565b8260018060a01b03600054166040519182526004356004830152600082602481845afa9182156104b157600092611293575b5060a08201610e8b610e80825160c086015190611acf565b60e085015190611acf565b90816112785750506000905b600354821061120157506000546001600160a01b0316803b1561013f57600080916044604051809481936332fa518560e21b83526004356004840152600160248401525af180156104b1576111f2575b506004357fe36f8b7448daff4a52e2945db0d1d7a436279cc1d527a45c27835dcbd27f336d600080a2610f1b600435611d50565b61016082015160208151910120610f30611d25565b6020815191012003611025575b600435600052600c6020526040600020600160ff1982541617905561016082015160208151910120610f6d611d25565b6020815191012014610f7b57005b60035411610fd4576000546101c0909101516001600160a01b039182169116813b1561013f5760009160448392604051948593849263012232e960e61b84526004840152600460248401525af180156104b15761088d57005b6000546101c0909101516001600160a01b039182169116813b1561013f57600091604483926040519485938492632b72ee5160e01b84526004840152600a60248401525af180156104b15761088d57005b815161106e6031604051809370022bc32b1baba34b7b71021b432b1b59d1607d1b602083015261105e81518092602086860191016116c3565b810103601181018452018261160a565b60405180608081011067ffffffffffffffff6080830111176111dc5761117681600093608060209401604052604782527f566f74652059455320696620746865206f726967696e616c2070726f706f7361848301527f6c2077617320657865637574656420636f72726563746c792c204e4f206f746860408301526632b93bb4b9b29760c91b606083015260018060a01b038554169160018060a01b03610120890151169060405192611120846115d1565b83528583015285604083015285606083015260016080830152611141611d25565b60a08301528560c08301528560e083015261010082015260405194858094819363664d54f560e11b8352309060048401611a22565b03925af19081156104b1576000916111aa575b5061119660045442611acf565b90600052600b602052604060002055610f3d565b90506020813d6020116111d4575b816111c56020938361160a565b8101031261013f575183611189565b3d91506111b8565b634e487b7160e01b600052604160045260246000fd5b6111fb906115bd565b82610ee7565b803b1561013f57600080916044604051809481936332fa518560e21b83526004356004840152600260248401525af180156104b157611269575b506004357fd92fba445edb3153b571e6df782d7a66fd0ce668519273670820ee3a86da0ef4600080a2610f3d565b611272906115bd565b8261123b565b51606481029080820460641490151715610c51570490610e97565b6112b19192503d806000833e6112a9818361160a565b810190611b35565b9082610e68565b6112cd91503d806000833e6109a7818361160a565b82610bc5565b60405162461bcd60e51b815260206004820152601a60248201527f50726f706f73616c20616c72656164792066696e616c697a65640000000000006044820152606490fd5b60405162461bcd60e51b815260206004820152601760248201527f566f74696e6720706572696f64206e6f7420656e6465640000000000000000006044820152606490fd5b60405162461bcd60e51b8152602060048201526015602482015274139bdd0818481d9bdd1a5b99c81c1c9bdc1bdcd85b605a1b6044820152606490fd5b6113af91503d806000833e6112a9818361160a565b84610b66565b3461013f57600036600319011261013f576020600754604051908152f35b3461013f57600036600319011261013f576000546040516001600160a01b039091168152602090f35b3461013f57600036600319011261013f576001546040516001600160a01b039091168152602090f35b3461013f57600036600319011261013f576020600454604051908152f35b3461013f57602036600319011261013f57600435600052600c602052602060ff604060002054166040519015158152f35b3461013f57600036600319011261013f576020600354604051908152f35b3461013f57600036600319011261013f576020600854604051908152f35b60208060031936011261013f5760043567ffffffffffffffff811161013f573660238201121561013f576114ee903690602481600401359101611648565b60ff600954161561157a5760405161152283828161151581830196878151938492016116c3565b810103808452018261160a565b519020600a54036115365761001934611723565b6064906040519062461bcd60e51b82526004820152601860248201527f44414f3a20496e76616c696420696e7669746520636f646500000000000000006044820152fd5b6064826040519062461bcd60e51b825280600483015260248201527f44414f3a20546869732069732061207075626c696320636f6c6c6563746976656044820152fd5b67ffffffffffffffff81116111dc57604052565b610120810190811067ffffffffffffffff8211176111dc57604052565b6040810190811067ffffffffffffffff8211176111dc57604052565b90601f8019910116810190811067ffffffffffffffff8211176111dc57604052565b67ffffffffffffffff81116111dc57601f01601f191660200190565b9291926116548261162c565b91611662604051938461160a565b82948184528183011161013f578281602093846000960137010152565b600435906001600160a01b038216820361013f57565b9181601f8401121561013f5782359167ffffffffffffffff831161013f576020838186019501011161013f57565b60005b8381106116d65750506000910152565b81810151838201526020016116c6565b5190811515820361013f57565b3d1561171e573d906117048261162c565b91611712604051938461160a565b82523d6000602084013e565b606090565b6000805460408051635087a34f60e11b8082526004969592949390926020926001600160a01b039283169084818b81855afa9081156119a75785918b91899161196e575b508951632474521560e21b815291820190815233602082015290928391829081906040015b03915afa90811561196457869161192b575b506118f55760085481036118bd57848080809385600154165af16117c06116f3565b501561187a5783541691845190815281818881865afa918215611870578492611842575b5050813b1561183e578351632f2ff15d60e01b81529586019081523360208201529394938291859182908490829060400103925af19182156118345750506118295750565b611832906115bd565b565b51903d90823e3d90fd5b8280fd5b90809250813d8311611869575b611859818361160a565b8101031261183e575138806117e4565b503d61184f565b85513d86823e3d90fd5b845162461bcd60e51b8152808801839052601d60248201527f4661696c656420746f2073656e6420457468657220746f207661756c740000006044820152606490fd5b855162461bcd60e51b81528089018490526012602482015271496e636f7272656374206a6f696e2066656560701b6044820152606490fd5b855162461bcd60e51b8152808901849052601060248201526f20b63932b0b23c90309036b2b6b132b960811b6044820152606490fd5b90508381813d831161195d575b611942818361160a565b8101031261195957611953906116e6565b3861179e565b8580fd5b503d611938565b87513d88823e3d90fd5b928092508391503d83116119a0575b611987818361160a565b8101031261199c575184908a9061178c611767565b8680fd5b503d61197d565b88513d89823e3d90fd5b156119b857565b60405162461bcd60e51b815260206004820152601b60248201527f44414f3a2043616c6c6572206973206e6f742061206d656d62657200000000006044820152606490fd5b90602091611a16815180928185528580860191016116c3565b601f01601f1916010190565b9060209093929360408352805190611a48610120928360408701526101608601906119fd565b611a638483015191603f1992838883030160608901526119fd565b9260408301516080870152611aa760018060a01b039485938460608701511660a08a01526080860151151560c08a015260a0860151908983030160e08a01526119fd565b9260c081015191610100928389015260e0820151908801520151166101408501529416910152565b91908201809211610c5157565b81601f8201121561013f578051611af28161162c565b92611b00604051948561160a565b8184526020828401011161013f57611b1e91602080850191016116c3565b90565b51906001600160a01b038216820361013f57565b9060208282031261013f57815167ffffffffffffffff9283821161013f5701906101e092838383031261013f57604051938401848110828211176111dc57604052825181811161013f5782611b8b918501611adc565b8452602083015181811161013f5782611ba5918501611adc565b60208501526040838101519085015260608301516001600160a01b038116810361013f5760608501526080830151600481101561013f57608085015260a083015160a085015260c083015160c085015260e083015160e08501526101008084015190850152610120611c18818501611b21565b90850152610140611c2a8185016116e6565b90850152610160918284015191821161013f57611c48918401611adc565b9083015261018080820151908301526101a08082015190830152611c706101c0809201611b21565b9082015290565b90602090818382031261013f57825167ffffffffffffffff9384821161013f570181601f8201121561013f5780519384116111dc578360051b9060405194611cc18584018761160a565b8552838086019282010192831161013f578301905b828210611ce4575050505090565b838091611cf084611b21565b815201910190611cd6565b8051821015611d0f5760209160051b010190565b634e487b7160e01b600052603260045260246000fd5b60405190611d32826115ee565b600f82526e657865637574696f6e2d636865636b60881b6020830152565b60018060a01b0360009181835416916024846040948551928380926318feeb1560e31b82528760048301525afa90811561219f578591612185575b506101608101518051906020917f064209fe56a5ba1791fac474c27dc1b9a6a4977f861d5d2396f722fcf844be9f8383019182206b1d1c99585cdd5c9e4b5bdd5d60a21b858a51611ddb816115ee565b600c8152015203611e2857505050506002541690813b15611e24578391602483928551968793849263021814f960e41b845260048401525af19182156118345750506118295750565b8380fd5b7f407aa5060640b5b11bd7a646d2a67db16d0d8062f0162ee0107d6c4df9647d0b825182206a3a3932b0b9bab93c96b4b760a91b858a51611e68816115ee565b600b8152015203611eb157505050506002541690813b15611e245783916024839285519687938492637026e9fd60e01b845260048401525af19182156118345750506118295750565b7f3263cae112f9b06c4fe976e1e563a8899e0058acad03a56562786e4496d29f6b915190206a72756c652d6368616e676560a81b838851611ef1816115ee565b600b8152015214611f05575b505050505050565b81518051907f8d7cbff25736090ef6444f570ee8941e761e0637e76a2b77e283ff85ec26489d8382019283206b70617373437269746572696160a01b858a51611f4d816115ee565b600c8152015203611fb5575050506101a001516003555b6002541690813b15611e245783916024839285519687938492636f0d949d60e11b845260048401525af1918215611834575050611fa6575b8080808080611efd565b611faf906115bd565b38611f9c565b7fabbfab0bf365e6c544c4bdc8c27846b398ef85deeb99659a1bd1cbbfddbc69a1815183206d3b37ba34b733a23ab930ba34b7b760911b858a51611ff8816115ee565b600e8152015203612013575050506101a00151600455611f64565b7f5b1a74ca49fc06542ef79783aa6db8771703259f73767276192f168bbdfaf8cb815183206c616273656e7450656e616c747960981b858a51612055816115ee565b600d8152015203612070575050506101a00151600555611f64565b7f343f1cee2704e73b1859bb1bdd73f8fce853b1f06ea40bd99f16c5c103e913188151832067656e74727946656560c01b858a516120ad816115ee565b600881520152036120c8575050506101a00151600855611f64565b7f806b2ce9432a34cfc9fdab6b94db5bfcfdd69b0eaa656d83bea17439bebe142d815183206b18dbdd5b9d151bd15e1c195b60a21b858a51612109816115ee565b600c8152015203612124575050506101a00151600655611f64565b51902085517f7433394719dfd8fcf3f7ef7662d3d256ff5523945834c1c05aad0d14d49b75b4926b1cd8dbdc99551bd15e1c195b60a21b91612165816115ee565b600c8152015214612177575b50611f64565b6101a0015160075538612171565b61219991503d8087833e6112a9818361160a565b38611d8b565b84513d87823e3d90fdfea264697066735822122061c58f8db9e2b0de270faa6989c9c05b97eec868a415bd582a355b7a9505085d64736f6c6343000814003360803461008d57601f61086f38819003918201601f19168301916001600160401b0383118484101761009257808492604094855283398101031261008d57610052602061004b836100a8565b92016100a8565b600080546001600160a01b039384166001600160a01b031991821617909155600180549290931691161790556040516107b290816100bd8239f35b600080fd5b634e487b7160e01b600052604160045260246000fd5b51906001600160a01b038216820361008d5756fe608060408181526004908136101561001657600080fd5b600092833560e01c9081632131c68c146104ea5750806321814f90146103515780632274346b146103285780633aef390014610300578381637026e9fd1461024f575080639a3cac6a146101c15763de1b293a1461007357600080fd5b34610181576020366003190112610181578282359260018060a01b0361009e8160025416331461050f565b825416908351946318feeb1560e31b865280828701528386602481865afa9586156101b7578496610193575b50823b1561018f576044849283875195869485936332fa518560e21b8552840152600360248401525af180156101855761016d575b50506080827f0c607c5751c330dfb1b02e97a8c6b40995b7c37f1247cb3ba0baa9308f3747ff93516101a061018083015192015184519485936060855261015584518095816060890152602089890191016105a7565b6020850152830152601f01601f19168101030190a180f35b6101769061055b565b6101815782386100ff565b8280fd5b83513d84823e3d90fd5b8380fd5b6101b09196503d8086833e6101a88183610585565b810190610638565b94386100ca565b85513d86823e3d90fd5b5034610181576020366003190112610181576001600160a01b0382358181169391929084900361024b576002549283166102085750506001600160a01b0319161760025580f35b906020606492519162461bcd60e51b8352820152601a60248201527f44414f206164647265737320697320616c7265616479207365740000000000006044820152fd5b8480fd5b828185346102f35760203660031901126102f35780359260018060a01b0361027c8160025416331461050f565b83541691823b1561018f57846044859283855196879485936332fa518560e21b8552840152600360248401525af19081156102f757506102df575b50807f712ae1383f79ac853f8d882153778e0260ef8f03b504e2866e0593e04d2b291f91a280f35b6102e89061055b565b6102f35781836102b7565b5080fd5b513d84823e3d90fd5b8382346102f357816003193601126102f357905490516001600160a01b039091168152602090f35b8382346102f357816003193601126102f35760015490516001600160a01b039091168152602090f35b5090346101815760203660031901126101815780359160018060a01b0361037d8160025416331461050f565b602485828154168451928380926318feeb1560e31b825289898301525afa90811561048c5786916104d0575b50816001541690813190848101918251116104965760600151905187918416833b1561018157604490838751958694859363a9059cbb60e01b85528b85015260248401525af1801561048c57610475575b509084929183541691823b1561018f57846044859283855196879485936332fa518560e21b8552840152600360248401525af19081156102f757506104615750807f712ae1383f79ac853f8d882153778e0260ef8f03b504e2866e0593e04d2b291f91a280f35b61046a9061055b565b6102f35781386102b7565b61048390959193929561055b565b939091386103fa565b83513d88823e3d90fd5b845162461bcd60e51b81526020818801526014602482015273496e73756666696369656e742062616c616e636560601b6044820152606490fd5b6104e491503d8088833e6101a88183610585565b386103a9565b8490346102f357816003193601126102f3576002546001600160a01b03168152602090f35b1561051657565b60405162461bcd60e51b815260206004820152601f60248201527f4f6e6c792044414f2063616e2063616c6c20746869732066756e6374696f6e006044820152606490fd5b67ffffffffffffffff811161056f57604052565b634e487b7160e01b600052604160045260246000fd5b90601f8019910116810190811067ffffffffffffffff82111761056f57604052565b60005b8381106105ba5750506000910152565b81810151838201526020016105aa565b81601f8201121561061f57805167ffffffffffffffff811161056f57604051926105fe601f8301601f191660200185610585565b8184526020828401011161061f5761061c91602080850191016105a7565b90565b600080fd5b51906001600160a01b038216820361061f57565b9060208282031261061f57815167ffffffffffffffff9283821161061f5701906101e092838383031261061f576040519384018481108282111761056f57604052825181811161061f578261068e9185016105ca565b8452602083015181811161061f57826106a89185016105ca565b60208501526040838101519085015260608301516001600160a01b038116810361061f5760608501526080830151600481101561061f57608085015260a083015160a085015260c083015160c085015260e083015160e0850152610100808401519085015261012061071b818501610624565b908501526101408084015190811515820361061f57850152610160918284015191821161061f5761074d9184016105ca565b9083015261018080820151908301526101a080820151908301526107756101c0809201610624565b908201529056fea2646970667358221220e3fa9a9be8809b74a0ee79251bb8a8c1dcf47e23fc06ababacea81bd580dfe5664736f6c63430008140033608034620001aa57601f6200233d38819003918201601f19168301916001600160401b03831184841017620001af57808492602094604052833981010312620001aa57516001600160a01b03811690818103620001aa5780620000666200006d92620001c5565b5062000245565b506000805160206200231d833981519152600081815260208190527f30710e496c9a8631e387d1ff5062c226d4ce9c9e008bff1f22ae157290ccbd6380547f3b5d4cc60d3ec3516ee8ae083bd60934f6eb2a6c54b1229985c41bfb092b2603918290556040519492937fbd79b86ffe0ab8e8776151514217cd7cacd52c909f66475c3af44e129f0b00ff8580a4600654680100000000000000008110156200019657600181018060065581101562000182577ff652222313e28459528d920b65115c16c04f3efc82aaedc97be59f3f377c0d3f0180546001600160a01b031916821790558152600760209081526040808320805460ff1916600117905560049091529020603290556120269081620002d78239f35b634e487b7160e01b83526032600452602483fd5b634e487b7160e01b83526041600452602483fd5b600080fd5b634e487b7160e01b600052604160045260246000fd5b6001600160a01b031660008181527fad3228b676f7d3cd4284a5443f17f1962b36e491b30a40b2405849e597ba5fb5602052604081205490919060ff166200024157818052816020526040822081835260205260408220600160ff198254161790553391600080516020620022fd8339815191528180a4600190565b5090565b6001600160a01b031660008181527f30710e496c9a8631e387d1ff5062c226d4ce9c9e008bff1f22ae157290ccbd6260205260408120549091906000805160206200231d8339815191529060ff16620002d157808352826020526040832082845260205260408320600160ff19825416179055600080516020620022fd833981519152339380a4600190565b50509056fe6080604052600436101561001257600080fd5b60003560e01c8063013cf08b146115ec57806301ffc9a71461159657806319cff706146113c75780631f56d1261461138d5780632131c68c14611364578063248a9ca3146113355780632b72ee51146112325780632f2ff15d1461113357806336568abe146110ec5780634385963214610fc9578063488cba40146110585780635daf08ca1461101657806362d4f89314610fc95780637c0f6b3514610f0157806391d1485414610eb4578063997072f714610e965780639a3cac6a14610e03578063a10f469e14610dda578063a217fddf14610dbe578063a230c52414610d7f578063a462e50f14610cd1578063a9330b0e14610c97578063ba86f70a14610bc5578063c7f758a814610b18578063cbe9461414610aa6578063cc9aa9ea1461045a578063cceb68f51461034a578063d547741f1461019b5763e9c265181461015b57600080fd5b346101965760003660031901126101965760206040517f3b5d4cc60d3ec3516ee8ae083bd60934f6eb2a6c54b1229985c41bfb092b26038152f35b600080fd5b34610196576040366003190112610196576004356101b76118f3565b90806000526000602052600080516020611fb18339815191526001916101e38360406000200154611ba6565b6101ed8482611ab7565b501480610328575b6101fb57005b6001600160a01b039182166000818152600760205260408120805460ff19169055909290825b61023a575b505050600090815260036020526040812055005b60068054808310156103215783908661025285611909565b939054600394851b1c16146102735750505061026d90611cf2565b82610221565b90929194506000199384820191821161030b576102c1936102966102a293611909565b9054911b1c1691611909565b90919082549060031b9160018060a01b03809116831b921b1916179055565b815480156102f55701906102ec6102d783611909565b81549060018060a01b039060031b1b19169055565b55818080610226565b634e487b7160e01b600052603160045260246000fd5b634e487b7160e01b600052601160045260246000fd5b5050610226565b506001600160a01b03821660009081526007602052604090205460ff166101f5565b34610196576000366003190112610196576001805467ffffffffffffffff81116104445790604051906020610384818560051b01846117c8565b8383528083019384836000527fb10e2d527612073b26eecdfd717e6a320cf44b4afac2b0732d9fcbe2b7fa0cf66000915b83831061041d5750505050604051928184019082855251809152604084019160408260051b86010195926000905b8382106103f05786880387f35b9091929394838061040c839a603f198b82030186528951611940565b9997019594939190910191016103e3565b94600d85829997610430859a989a611ed5565b8152019201920191909694969593956103b5565b634e487b7160e01b600052604160045260246000fd5b34610196576003196040368201126101965767ffffffffffffffff600435116101965761012060043560040191600435360301126101965761049a6118f3565b906104a3611b2c565b6104ad8180611e37565b91906104be60246004350183611e37565b909290919060043560640135906001600160a01b03821682036101965760846004350135908115158203610196576104fc9060a46004350190611e37565b60043561010401359691949093916001600160a01b03881688036101965761059d96610539610542936040519b6105328d6117ab565b3691611e6a565b8a523691611e6a565b60208801526004356044013560408801526001600160a01b03908116606088015260006080880181905260a0880181905260c0880181905260e088015242610100880152871661012087015215156101408601523691611e6a565b61016083015260043560c481013561018084015260e401356101a08301526001600160a01b03166101c0820152600154600160401b811015610444578060016105e99201600155611720565b610a9057815192835167ffffffffffffffff81116104445761060b8354611771565b601f8111610a4c575b506020601f82116001146109e35781929394956000926109d8575b50508160011b916000199060031b1c19161782555b602083015192835167ffffffffffffffff8111610444576106686001850154611771565b601f8111610991575b506020601f8211600114610922578192939495600092610917575b50508160011b916000199060031b1c19161760018401555b6040810151600284015560608101516003840180546001600160a01b0319166001600160a01b039290921691909117905560808101516004811015610901576106f09060038501611eb1565b60a0810151600484015560c0810151600584015560e0810151600684015561010081015160078401556008830160018060a01b036101208301511681549060ff60a01b610140850151151560a01b16916affffffffffffffffffffff60a81b161717905561016081015192835167ffffffffffffffff8111610444576107796009830154611771565b601f81116108ba575b506020601f8211600114610849578190600c94959660009261083e575b50508160011b916000199060031b1c19161760098201555b610180830151600a8201556101a0830151600b82015501906101c060018060a01b03910151166bffffffffffffffffffffffff60a01b82541617905560015490600019820191821161030b5760405160209290916001600160a01b0316817fcd423cc1203c0af96b9b3d68d73b3064a69de2d14450bb7181c5e5df2132b358600080a38152f35b01519050868061079f565b601f198216956009840160005260206000209660005b8181106108a2575091600c95969791846001959410610889575b505050811b0160098201556107b7565b015160001960f88460031b161c19169055868080610879565b8383015189556001909801976020938401930161085f565b600983016000526020600020601f830160051c8101602084106108fa575b601f830160051c820181106108ee575050610782565b600081556001016108d8565b50806108d8565b634e487b7160e01b600052602160045260246000fd5b01519050858061068c565b6001850160005260206000209060005b601f1984168110610979575060019394959683601f19811610610960575b505050811b0160018401556106a4565b015160001960f88460031b161c19169055858080610950565b9091602060018192858b015181550193019101610932565b600185016000526020600020601f830160051c8101602084106109d1575b601f830160051c820181106109c5575050610671565b600081556001016109af565b50806109af565b01519050858061062f565b8360005260206000209060005b601f1984168110610a34575060019394959683601f19811610610a1b575b505050811b018255610644565b015160001960f88460031b161c19169055858080610a0e565b9091602060018192858b0151815501930191016109f0565b836000526020600020601f830160051c810160208410610a89575b601f830160051c82018110610a7d575050610614565b60008155600101610a67565b5080610a67565b634e487b7160e01b600052600060045260246000fd5b346101965760403660031901126101965760043560243560048110156101965760207f3346abf262ac5179e9052765fb72484e0baab1f356f08442bb7a3054147631de91610af2611b2c565b610b08816003610b0187611720565b5001611eb1565b610b1560405180926118d0565ba2005b346101965760203660031901126101965760006101c0604051610b3a816117ab565b60608152606060208201528260408201528260608201528260808201528260a08201528260c08201528260e0820152826101008201528261012082015282610140820152606061016082015282610180820152826101a08201520152610bc1610bad610ba7600435611720565b50611ed5565b604051918291602083526020830190611940565b0390f35b346101965760208060031936011261019657610bdf6118dd565b90610be8611b2c565b6001600160a01b03828116600081815260038452604090208054600181019190821061030b575560005260038252600482604060002054926005541660405192838092639f1f43af60e01b82525afa928315610c8b57600093610c5b575b50501015610c5057005b610c5990611d01565b005b9080929350813d8311610c84575b610c7381836117c8565b810103126101965751908380610c46565b503d610c69565b6040513d6000823e3d90fd5b34610196576020366003190112610196576001600160a01b03610cb86118dd565b1660005260036020526020604060002054604051908152f35b3461019657604036600319011261019657600435610ced6118f3565b90610cf6611b2c565b610cff81611720565b5081600052600260205260406000209260018060a01b0316928360005260205260ff6040600020541615610d2f57005b6006908260005260026020526040600020846000526020526040600020600160ff1982541617905501610d628154611cf2565b9055600080516020611fd1833981519152602060405160028152a3005b34610196576020366003190112610196576001600160a01b03610da06118dd565b166000526007602052602060ff604060002054166040519015158152f35b3461019657600036600319011261019657602060405160008152f35b34610196576000366003190112610196576020604051600080516020611fb18339815191528152f35b3461019657602036600319011261019657610e1c6118dd565b3360009081527fad3228b676f7d3cd4284a5443f17f1962b36e491b30a40b2405849e597ba5fb5602052604090205460ff1615610e7757600580546001600160a01b0319166001600160a01b038316179055610c5990611bcc565b60405163e2517d3f60e01b815233600482015260006024820152604490fd5b34610196576000366003190112610196576020600654604051908152f35b3461019657604036600319011261019657610ecd6118f3565b600435600052600060205260406000209060018060a01b0316600052602052602060ff604060002054166040519015158152f35b3461019657600036600319011261019657604051806006548083526020809301809160066000527ff652222313e28459528d920b65115c16c04f3efc82aaedc97be59f3f377c0d3f9060005b86828210610fac578686610f63828803836117c8565b604051928392818401908285525180915260408401929160005b828110610f8c57505050500390f35b83516001600160a01b031685528695509381019392810192600101610f7d565b83546001600160a01b031685529093019260019283019201610f4d565b3461019657604036600319011261019657610fe26118f3565b600435600052600260205260406000209060018060a01b0316600052602052602060ff604060002054166040519015158152f35b34610196576020366003190112610196576004356006548110156101965761103f602091611909565b905460405160039290921b1c6001600160a01b03168152f35b34610196576040366003190112610196576110716118dd565b611079611b2c565b6001600160a01b0316600081815260046020526040902054602435810190811061030b5760207fdb51946147af8f68f24b69cdb99d868cc4b53b75dce4e05d8f590bcf5281051c91606481116000146110e65760645b8460005260048352604060002055604051908152a2005b806110cf565b34610196576040366003190112610196576111056118f3565b336001600160a01b0382160361112157610c5990600435611ab7565b60405163334bd91960e11b8152600490fd5b3461019657604036600319011261019657600435600080516020611fb183398151915261115e6118f3565b91806000526000602052611179600160406000200154611ba6565b6111838382611c79565b50148061120f575b61119157005b600654600160401b81101561044457816102a28260016111b49401600655611909565b60018060a01b03168060005260076020526040600020600160ff19825416179055600460205260326040600020557fdb51946147af8f68f24b69cdb99d868cc4b53b75dce4e05d8f590bcf5281051c602060405160328152a2005b506001600160a01b03811660009081526007602052604090205460ff161561118b565b346101965760403660031901126101965761124b6118dd565b602435611256611b2c565b6001600160a01b038281166000818152600460209081526040909120549093919291848183106113275750810390811161030b576004918491935b80600052838352846040600020557fdb51946147af8f68f24b69cdb99d868cc4b53b75dce4e05d8f590bcf5281051c83604051878152a2600554166040519283809263295e4f4160e11b82525afa928315610c8b576000936112f7575b505010610c5057005b9080929350813d8311611320575b61130f81836117c8565b8101031261019657519083806112ee565b503d611305565b915050600491600093611291565b346101965760203660031901126101965760043560005260006020526020600160406000200154604051908152f35b34610196576000366003190112610196576005546040516001600160a01b039091168152602090f35b34610196576020366003190112610196576001600160a01b036113ae6118dd565b1660005260046020526020604060002054604051908152f35b34610196576060366003190112610196576004356024359060ff8216809203610196576044356001600160a01b038116929083900361019657611408611b2c565b61141182611720565b509060ff600883015460a01c161561155b578260005260209160028352604060002085600052835260ff6040600020541661152657600084815260028452604080822087835285529020805460ff191660011790558161149657906004600080516020611fd183398151915293920161148a8154611cf2565b90555b604051908152a3005b600182036114c457906005600080516020611fd18339815191529392016114bd8154611cf2565b905561148d565b600282036114eb57906006600080516020611fd18339815191529392016114bd8154611cf2565b60405162461bcd60e51b8152600481018490526013602482015272496e76616c696420766f74652063686f69636560681b6044820152606490fd5b60405162461bcd60e51b815260048101849052600d60248201526c105b1c9958591e481d9bdd1959609a1b6044820152606490fd5b60405162461bcd60e51b8152602060048201526013602482015272159bdd1a5b99c81b9bdd081c995c5d5a5c9959606a1b6044820152606490fd5b346101965760203660031901126101965760043563ffffffff60e01b811680910361019657602090637965db0b60e01b81149081156115db575b506040519015158152f35b6301ffc9a760e01b149050826115d0565b34610196576020366003190112610196576004356001548110156101965761161390611720565b5061161d816117ea565b611629600183016117ea565b9060028301549260038101549060048101549060058101549360068201549160078101549060088101549160098201611661906117ea565b94600a83015498600b84015497600160a01b60019003600c8196015416996040519d8e9d8e996101e0808c528b0161169891611890565b8a810360208c01526116a991611890565b98604001528c868216906060015260808d019060a01c60ff16906116cc916118d0565b60a08c015260c08b015260e08a0152610100890152811661012088015260a01c60ff16151561014087015285810361016087015261170991611890565b926101808501526101a08401526101c08301520390f35b60015481101561175b57600d906001600052027fb10e2d527612073b26eecdfd717e6a320cf44b4afac2b0732d9fcbe2b7fa0cf60190600090565b634e487b7160e01b600052603260045260246000fd5b90600182811c921680156117a1575b602083101461178b57565b634e487b7160e01b600052602260045260246000fd5b91607f1691611780565b6101e0810190811067ffffffffffffffff82111761044457604052565b90601f8019910116810190811067ffffffffffffffff82111761044457604052565b90604051918260008254926117fe84611771565b90818452600194858116908160001461186d575060011461182a575b5050611828925003836117c8565b565b9093915060005260209081600020936000915b8183106118555750506118289350820101388061181a565b8554888401850152948501948794509183019161183d565b91505061182894506020925060ff191682840152151560051b820101388061181a565b919082519283825260005b8481106118bc575050826000602080949584010152601f8019910116010190565b60208183018101518483018201520161189b565b9060048210156109015752565b600435906001600160a01b038216820361019657565b602435906001600160a01b038216820361019657565b60065481101561175b5760066000527ff652222313e28459528d920b65115c16c04f3efc82aaedc97be59f3f377c0d3f0190600090565b9061196961195783516101e0808552840190611890565b60208401518382036020850152611890565b91604081015160408301526119f460018060a01b039384606084015116606085015261199d608084015160808601906118d0565b60a083015160a085015260c083015160c085015260e083015160e085015261010080840151908501526101208581850151169085015261014080840151151590850152610160808401519085830390860152611890565b9261018080830151908401526101a080830151908401526101c0809201511691015290565b6001600160a01b031660008181527f30710e496c9a8631e387d1ff5062c226d4ce9c9e008bff1f22ae157290ccbd626020526040812054909190600080516020611fb18339815191529060ff1615611ab25780835282602052604083208284526020526040832060ff1981541690557ff6391f5c32d9c69d2a47ea670b442974b53935d1edc7fd64eb21e047a839171b339380a4600190565b505090565b9060009180835282602052604083209160018060a01b03169182845260205260ff604084205416600014611ab25780835282602052604083208284526020526040832060ff1981541690557ff6391f5c32d9c69d2a47ea670b442974b53935d1edc7fd64eb21e047a839171b339380a4600190565b3360009081527fc39f11a9300b508470eaed31f5842ba08c93181bcbe6a7fe34039aa7f2b8074260205260409020547f3b5d4cc60d3ec3516ee8ae083bd60934f6eb2a6c54b1229985c41bfb092b26039060ff1615611b885750565b6044906040519063e2517d3f60e01b82523360048301526024820152fd5b80600052600060205260406000203360005260205260ff6040600020541615611b885750565b6001600160a01b031660008181527fc39f11a9300b508470eaed31f5842ba08c93181bcbe6a7fe34039aa7f2b8074260205260408120549091907f3b5d4cc60d3ec3516ee8ae083bd60934f6eb2a6c54b1229985c41bfb092b26039060ff16611ab257808352826020526040832082845260205260408320600160ff198254161790557f2f8788117e7eff1d82e926ec794901d17c78024a50270940304540a733656f0d339380a4600190565b9060009180835282602052604083209160018060a01b03169182845260205260ff60408420541615600014611ab257808352826020526040832082845260205260408320600160ff198254161790557f2f8788117e7eff1d82e926ec794901d17c78024a50270940304540a733656f0d339380a4600190565b600019811461030b5760010190565b6000600080516020611fb1833981519152815280602052600191611d2a83604084200154611ba6565b611d3381611a19565b506001600160a01b03908116808352600760205260408320805491929160ff8116611d61575b505050505050565b60ff1916905582845b611d89575b505081526003602052604081205550388080808080611d59565b6006805480831015611e30578385611da085611909565b929054600393841b1c1614611dc157505050611dbb90611cf2565b84611d6a565b9093919495965060001993848101908111611e1c57916102a291610296611de89594611909565b81548015611e08570190611dfe6102d783611909565b5581903880611d6f565b634e487b7160e01b85526031600452602485fd5b634e487b7160e01b88526011600452602488fd5b5050611d6f565b903590601e1981360301821215610196570180359067ffffffffffffffff82116101965760200191813603831361019657565b92919267ffffffffffffffff82116104445760405191611e94601f8201601f1916602001846117c8565b829481845281830111610196578281602093846000960137010152565b90600481101561090157815460ff60a01b191660a09190911b60ff60a01b16179055565b90604051611ee2816117ab565b8092611eed816117ea565b8252611efb600182016117ea565b60208301526002810154604083015260038101546001600160a01b0380821660608501529060a01c60ff166004811015610901576101c092600c916080860152600481015460a0860152600581015460c0860152600681015460e0860152600781015461010086015260ff600882015484811661012088015260a01c161515610140860152611f8c600982016117ea565b610160860152600a810154610180860152600b8101546101a086015201541691015256fe829b824e2329e205435d941c9f13baf578548505283d29261236d8e6596d4636094f80829c509370abb2d421a078ba5926755d3de25d021dacf7bbd19853f7a2a26469706673582212201ac0d094395febf34dc0c0c6a77ae3f5862e09679d244bdb0f3d53cc56e2ee7f64736f6c634300081400332f8788117e7eff1d82e926ec794901d17c78024a50270940304540a733656f0d829b824e2329e205435d941c9f13baf578548505283d29261236d8e6596d463660803461009457601f61082c38819003918201601f19168301916001600160401b0383118484101761009957808492604094855283398101031261009457610065610055602061004e846100af565b93016100af565b9161005f816100c3565b50610141565b506001600160a01b038116610084575b60405161058f908161027d8239f35b61008d906101e1565b5038610075565b600080fd5b634e487b7160e01b600052604160045260246000fd5b51906001600160a01b038216820361009457565b6001600160a01b031660008181527fad3228b676f7d3cd4284a5443f17f1962b36e491b30a40b2405849e597ba5fb5602052604081205490919060ff1661013d57818052816020526040822081835260205260408220600160ff19825416179055339160008051602061080c8339815191528180a4600190565b5090565b6001600160a01b031660008181527f991c3211066600fc98d95d017c66f2884b1fa3d4cabc2576d000f3cc80931bda60205260408120549091907f3496e2e73c4d42b75d702e60d9e48102720b8691234415963a5a857b86425d079060ff166101dc57808352826020526040832082845260205260408320600160ff1982541617905560008051602061080c833981519152339380a4600190565b505090565b6001600160a01b031660008181527fdae2aa361dfd1ca020a396615627d436107c35eff9fe7738a3512819782d706960205260408120549091907fd8aa0f3194971a2a116679f7c2090f6939c8d4e01a2a8d7e41d55e5351469e639060ff166101dc57808352826020526040832082845260205260408320600160ff1982541617905560008051602061080c833981519152339380a460019056fe60806040908082526004908136101561004c575b5050361561002057600080fd5b513481527f2da466a7b24304f47e87fa2e1e5a81b9831ce54fec19055ce277ca2f39ba42c460203392a2005b600091823560e01c91826301ffc9a7146103a45750816307bd02651461036957816312065fe01461034e578163248a9ca3146103235781632f2ff15d1461030557816336568abe146102ca57816391d1485414610290578163a217fddf14610275578163a9059cbb1461014857508063d547741f146101135763f0a3a97c146100d55780610013565b903461010f578160031936011261010f57602090517f3496e2e73c4d42b75d702e60d9e48102720b8691234415963a5a857b86425d078152f35b5080fd5b50903461010f5760016101449161013f61012c366103f7565b9390928387528660205286200154610422565b6104e4565b5080f35b8391503461027157816003193601126102715780356001600160a01b038116929083900361026d57602435917fd8aa0f3194971a2a116679f7c2090f6939c8d4e01a2a8d7e41d55e5351469e638086528560205282862033875260205260ff83872054161561025257508247106102105750838284828215610207575b839283928392f1156101fe577f7084f5476618d8e60b11ef0d7d3f06914655adb8793e28ff7f018d4c76d505d59160209151908152a280f35b513d84823e3d90fd5b506108fc6101c5565b6020606492519162461bcd60e51b8352820152601b60248201527f5661756c743a20696e73756666696369656e742062616c616e636500000000006044820152fd5b604492519163e2517d3f60e01b835233908301526024820152fd5b8380fd5b8280fd5b82843461010f578160031936011261010f5751908152602090f35b82843461010f5760ff816020936102a6366103f7565b9082528186528282206001600160a01b039091168252855220549151911615158152f35b82843461010f576102da366103f7565b91336001600160a01b038416036102f6575090610144916104e4565b5163334bd91960e11b81528490fd5b82843461010f5760016101449161031e61012c366103f7565b610466565b8391503461027157602036600319011261027157816020936001923581528085522001549051908152f35b82843461010f578160031936011261010f5751478152602090f35b82843461010f578160031936011261010f57602090517fd8aa0f3194971a2a116679f7c2090f6939c8d4e01a2a8d7e41d55e5351469e638152f35b915034610271576020366003190112610271573563ffffffff60e01b81168091036102715760209250637965db0b60e01b81149081156103e6575b5015158152f35b6301ffc9a760e01b149050836103df565b604090600319011261041d57600435906024356001600160a01b038116810361041d5790565b600080fd5b80600052600060205260406000203360005260205260ff60406000205416156104485750565b6044906040519063e2517d3f60e01b82523360048301526024820152fd5b9060009180835282602052604083209160018060a01b03169182845260205260ff604084205416156000146104df57808352826020526040832082845260205260408320600160ff198254161790557f2f8788117e7eff1d82e926ec794901d17c78024a50270940304540a733656f0d339380a4600190565b505090565b9060009180835282602052604083209160018060a01b03169182845260205260ff6040842054166000146104df5780835282602052604083208284526020526040832060ff1981541690557ff6391f5c32d9c69d2a47ea670b442974b53935d1edc7fd64eb21e047a839171b339380a460019056fea264697066735822122073e9798c44e87fa6c2adb7706b1bcc7e6d1953c7d5e9c0db2c1aff549f9884fc64736f6c634300081400332f8788117e7eff1d82e926ec794901d17c78024a50270940304540a733656f0da26469706673582212206c69d92e2ada8a40121faef40c907dcb68ffd8d41634fecfa94e7c3980d04d4364736f6c63430008140033",
  "linkReferences": {},
  "deployedLinkReferences": {}
}