{
  "_format": "hh-sol-artifact-1",
  "contractName": "Execution",
  "sourceName": "contracts/Execution.sol",
  "abi": [
    {
      "inputs": [
        {
          "internalType": "address",
          "name": "_proposal",
          "type": "address"
        },
        {
          "internalType": "address",
          "name": "_vault",
          "type": "address"
        }
      ],
      "stateMutability": "nonpayable",
      "type": "constructor"
    },
    {
      "anonymous": false,
      "inputs": [
        {
          "indexed": true,
          "internalType": "uint256",
          "name": "proposalId",
          "type": "uint256"
        }
      ],
      "name": "ProposalExecuted",
      "type": "event"
    },
    {
      "anonymous": false,
      "inputs": [
        {
          "indexed": false,
          "internalType": "string",
          "name": "rule",
          "type": "string"
        },
        {
          "indexed": false,
          "internalType": "uint256",
          "name": "beforeValue",
          "type": "uint256"
        },
        {
          "indexed": false,
          "internalType": "uint256",
          "name": "afterValue",
          "type": "uint256"
        }
      ],
      "name": "RuleChanged",
      "type": "event"
    },
    {
      "inputs": [],
      "name": "daoAddress",
      "outputs": [
        {
          "internalType": "address",
          "name": "",
          "type": "address"
        }
      ],
      "stateMutability": "view",
      "type": "function"
    },
    {
      "inputs": [
        {
          "internalType": "uint256",
          "name": "proposalId",
          "type": "uint256"
        }
      ],
      "name": "executeDeposit",
      "outputs": [],
      "stateMutability": "nonpayable",
      "type": "function"
    },
    {
      "inputs": [
        {
          "internalType": "uint256",
          "name": "proposalId",
          "type": "uint256"
        }
      ],
      "name": "executePayout",
      "outputs": [],
      "stateMutability": "nonpayable",
      "type": "function"
    },
    {
      "inputs": [
        {
          "internalType": "uint256",
          "name": "proposalId",
          "type": "uint256"
        }
      ],
      "name": "executeRuleChange",
      "outputs": [],
      "stateMutability": "nonpayable",
      "type": "function"
    },
    {
      "inputs": [],
      "name": "proposalContract",
      "outputs": [
        {
          "internalType": "contract Proposal",
          "name": "",
          "type": "address"
        }
      ],
      "stateMutability": "view",
      "type": "function"
    },
    {
      "inputs": [
        {
          "internalType": "address",
          "name": "_dao",
          "type": "address"
        }
      ],
      "name": "setDaoAddress",
      "outputs": [],
      "stateMutability": "nonpayable",
      "type": "function"
    },
    {
      "inputs": [],
      "name": "vaultContract",
      "outputs": [
        {
          "internalType": "contract Vault",
          "name": "",
          "type": "address"
        }
      ],
      "stateMutability": "view",
      "type": "function"
    }
  ],
  "bytecode": "0x60803461008d57601f61086f38819003918201601f19168301916001600160401b0383118484101761009257808492604094855283398101031261008d57610052602061004b836100a8565b92016100a8565b600080546001600160a01b039384166001600160a01b031991821617909155600180549290931691161790556040516107b290816100bd8239f35b600080fd5b634e487b7160e01b600052604160045260246000fd5b51906001600160a01b038216820361008d5756fe608060408181526004908136101561001657600080fd5b600092833560e01c9081632131c68c146104ea5750806321814f90146103515780632274346b146103285780633aef390014610300578381637026e9fd1461024f575080639a3cac6a146101c15763de1b293a1461007357600080fd5b34610181576020366003190112610181578282359260018060a01b0361009e8160025416331461050f565b825416908351946318feeb1560e31b865280828701528386602481865afa9586156101b7578496610193575b50823b1561018f576044849283875195869485936332fa518560e21b8552840152600360248401525af180156101855761016d575b50506080827f0c607c5751c330dfb1b02e97a8c6b40995b7c37f1247cb3ba0baa9308f3747ff93516101a061018083015192015184519485936060855261015584518095816060890152602089890191016105a7565b6020850152830152601f01601f19168101030190a180f35b6101769061055b565b6101815782386100ff565b8280fd5b83513d84823e3d90fd5b8380fd5b6101b09196503d8086833e6101a88183610585565b810190610638565b94386100ca565b85513d86823e3d90fd5b5034610181576020366003190112610181576001600160a01b0382358181169391929084900361024b576002549283166102085750506001600160a01b0319161760025580f35b906020606492519162461bcd60e51b8352820152601a60248201527f44414f206164647265737320697320616c7265616479207365740000000000006044820152fd5b8480fd5b828185346102f35760203660031901126102f35780359260018060a01b0361027c8160025416331461050f565b83541691823b1561018f57846044859283855196879485936332fa518560e21b8552840152600360248401525af19081156102f757506102df575b50807f712ae1383f79ac853f8d882153778e0260ef8f03b504e2866e0593e04d2b291f91a280f35b6102e89061055b565b6102f35781836102b7565b5080fd5b513d84823e3d90fd5b8382346102f357816003193601126102f357905490516001600160a01b039091168152602090f35b8382346102f357816003193601126102f35760015490516001600160a01b039091168152602090f35b5090346101815760203660031901126101815780359160018060a01b0361037d8160025416331461050f565b602485828154168451928380926318feeb1560e31b825289898301525afa90811561048c5786916104d0575b50816001541690813190848101918251116104965760600151905187918416833b1561018157604490838751958694859363a9059cbb60e01b85528b85015260248401525af1801561048c57610475575b509084929183541691823b1561018f57846044859283855196879485936332fa518560e21b8552840152600360248401525af19081156102f757506104615750807f712ae1383f79ac853f8d882153778e0260ef8f03b504e2866e0593e04d2b291f91a280f35b61046a9061055b565b6102f35781386102b7565b61048390959193929561055b565b939091386103fa565b83513d88823e3d90fd5b845162461bcd60e51b81526020818801526014602482015273496e73756666696369656e742062616c616e636560601b6044820152606490fd5b6104e491503d8088833e6101a88183610585565b386103a9565b8490346102f357816003193601126102f3576002546001600160a01b03168152602090f35b1561051657565b60405162461bcd60e51b815260206004820152601f60248201527f4f6e6c792044414f2063616e2063616c6c20746869732066756e6374696f6e006044820152606490fd5b67ffffffffffffffff811161056f57604052565b634e487b7160e01b600052604160045260246000fd5b90601f8019910116810190811067ffffffffffffffff82111761056f57604052565b60005b8381106105ba5750506000910152565b81810151838201526020016105aa565b81601f8201121561061f57805167ffffffffffffffff811161056f57604051926105fe601f8301601f191660200185610585565b8184526020828401011161061f5761061c91602080850191016105a7565b90565b600080fd5b51906001600160a01b038216820361061f57565b9060208282031261061f57815167ffffffffffffffff9283821161061f5701906101e092838383031261061f576040519384018481108282111761056f57604052825181811161061f578261068e9185016105ca565b8452602083015181811161061f57826106a89185016105ca565b60208501526040838101519085015260608301516001600160a01b038116810361061f5760608501526080830151600481101561061f57608085015260a083015160a085015260c083015160c085015260e083015160e0850152610100808401519085015261012061071b818501610624565b908501526101408084015190811515820361061f57850152610160918284015191821161061f5761074d9184016105ca565b9083015261018080820151908301526101a080820151908301526107756101c0809201610624565b908201529056fea2646970667358221220e3794fc50c5b552c780c69bd9320c0b75301d6cc59665b6c1838791161217fd264736f6c63430008140033",
  "linkReferences": {},
  "deployedLinkReferences": {}
}