{
  "_format": "hh-sol-artifact-1",
  "contractName": "Execution",
  "sourceName": "contracts/Execution.sol",
  "abi": [
    {
      "inputs": [
        {
          "internalType": "address",
          "name": "_proposal",
          "type": "address"
        },
        {
          "internalType": "address",
          "name": "_voting",
          "type": "address"
        },
        {
          "internalType": "address payable",
          "name": "_vault",
          "type": "address"
        }
      ],
      "stateMutability": "nonpayable",
      "type": "constructor"
    },
    {
      "anonymous": false,
      "inputs": [
        {
          "indexed": true,
          "internalType": "uint256",
          "name": "proposalId",
          "type": "uint256"
        }
      ],
      "name": "ProposalExecuted",
      "type": "event"
    },
    {
      "inputs": [
        {
          "internalType": "uint256",
          "name": "proposalId",
          "type": "uint256"
        }
      ],
      "name": "executeProposal",
      "outputs": [],
      "stateMutability": "nonpayable",
      "type": "function"
    },
    {
      "inputs": [
        {
          "internalType": "uint256",
          "name": "proposalId",
          "type": "uint256"
        }
      ],
      "name": "isExecutable",
      "outputs": [
        {
          "internalType": "bool",
          "name": "",
          "type": "bool"
        }
      ],
      "stateMutability": "view",
      "type": "function"
    },
    {
      "inputs": [],
      "name": "proposalContract",
      "outputs": [
        {
          "internalType": "contract Proposal",
          "name": "",
          "type": "address"
        }
      ],
      "stateMutability": "view",
      "type": "function"
    },
    {
      "inputs": [],
      "name": "quorumPercent",
      "outputs": [
        {
          "internalType": "uint256",
          "name": "",
          "type": "uint256"
        }
      ],
      "stateMutability": "view",
      "type": "function"
    },
    {
      "inputs": [],
      "name": "vaultContract",
      "outputs": [
        {
          "internalType": "contract Vault",
          "name": "",
          "type": "address"
        }
      ],
      "stateMutability": "view",
      "type": "function"
    },
    {
      "inputs": [],
      "name": "votingContract",
      "outputs": [
        {
          "internalType": "contract Voting",
          "name": "",
          "type": "address"
        }
      ],
      "stateMutability": "view",
      "type": "function"
    }
  ],
  "bytecode": "0x6080346100a757601f6106be38819003918201601f19168301916001600160401b038311848410176100ac578084926060946040528339810103126100a757610047816100c2565b6040610055602084016100c2565b9201516001600160a01b038082169390918490036100a75760326003558160018060a01b031993168360005416176000551681600154161760015560025416176002556040516105e790816100d78239f35b600080fd5b634e487b7160e01b600052604160045260246000fd5b51906001600160a01b03821682036100a75756fe6040608081526004908136101561001557600080fd5b600091823560e01c9081630d61b5191461012b5781632274346b146101025781633aef3900146100da5781634e395e2a146100ae57508063c1fc006a146100865763f81cbd261461006557600080fd5b346100825781600319360112610082576020906003549051908152f35b5080fd5b503461008257816003193601126100825760015490516001600160a01b039091168152602090f35b8284346100d75760203660031901126100d757506100ce60209235610476565b90519015158152f35b80fd5b505034610082578160031936011261008257905490516001600160a01b039091168152602090f35b50503461008257816003193601126100825760025490516001600160a01b039091168152602090f35b83915034610082576020806003193601126104265781359161014c83610476565b156103e557835485516318feeb1560e31b8152808301859052956024939092916001600160a01b039190879089908790829086165afa9788156103db5787986102e7575b506080880151838110156102d5576102945750806002541696838260608301511691015190883b156102905790604488928387519b8c94859363a9059cbb60e01b8552898501528a8401525af1801561028657610270575b858097509495541690813b1561026c57604486918680946003875198899687956332fa518560e21b87528601528401525af1908115610263575061024f575b50807f712ae1383f79ac853f8d882153778e0260ef8f03b504e2866e0593e04d2b291f91a280f35b6102589061042a565b610082578183610227565b513d84823e3d90fd5b8480fd5b9394909561027d9061042a565b939285906101e8565b83513d88823e3d90fd5b8780fd5b8260198660649387519362461bcd60e51b85528401528201527f457865637574696f6e3a20696e76616c696420737461747573000000000000006044820152fd5b634e487b7160e01b8852602184528588fd5b9097503d8088833e6102f98183610454565b8101888282031261029057815167ffffffffffffffff928382116103c15701906101009283838303126103c1578651938401848110828211176103c957875282518181116103c5578261034d91850161053b565b84528a8301519081116103c1579061036691830161053b565b898301528481015185830152606081015183811681036103bd5760608301526080810151848110156103bd579060e091608084015260a081015160a084015260c081015160c0840152015160e08201529688610190565b8880fd5b8980fd5b8a80fd5b634e487b7160e01b8b5260418752888bfd5b84513d89823e3d90fd5b60649185519162461bcd60e51b8352820152601d60248201527f457865637574696f6e3a2071756f72756d206e6f7420726561636865640000006044820152fd5b8280fd5b67ffffffffffffffff811161043e57604052565b634e487b7160e01b600052604160045260246000fd5b90601f8019910116810190811067ffffffffffffffff82111761043e57604052565b60018060a01b036001541660408092602482518094819363ff98109960e01b835260048301525afa9081156105305760009283926104fa575b505081018082116104dd5780156104f3576064820291808304606414901517156104dd576003549104101590565b634e487b7160e01b600052601160045260246000fd5b5050600090565b9080939250813d8311610529575b6105128183610454565b810103126100d757506020815191015138806104af565b503d610508565b82513d6000823e3d90fd5b919080601f840112156105ac5782519067ffffffffffffffff821161043e5760405191602091610574601f8301601f1916840185610454565b8184528282870101116105ac5760005b81811061059957508260009394955001015290565b8581018301518482018401528201610584565b600080fdfea2646970667358221220f40d1c53cf5adceaddd1c5b1382f93073c23a4a4bf48b5269d7e2cc1a764527c64736f6c63430008140033",
  "linkReferences": {},
  "deployedLinkReferences": {}
}