{
  "_format": "hh-sol-artifact-1",
  "contractName": "GovernanceToken",
  "sourceName": "contracts/GovernanceToken.sol",
  "abi": [
    {
      "inputs": [
        {
          "internalType": "string",
          "name": "name",
          "type": "string"
        },
        {
          "internalType": "string",
          "name": "symbol",
          "type": "string"
        },
        {
          "internalType": "address",
          "name": "admin",
          "type": "address"
        }
      ],
      "stateMutability": "nonpayable",
      "type": "constructor"
    },
    {
      "inputs": [],
      "name": "AccessControlBadConfirmation",
      "type": "error"
    },
    {
      "inputs": [
        {
          "internalType": "address",
          "name": "account",
          "type": "address"
        },
        {
          "internalType": "bytes32",
          "name": "neededRole",
          "type": "bytes32"
        }
      ],
      "name": "AccessControlUnauthorizedAccount",
      "type": "error"
    },
    {
      "inputs": [
        {
          "internalType": "address",
          "name": "spender",
          "type": "address"
        },
        {
          "internalType": "uint256",
          "name": "allowance",
          "type": "uint256"
        },
        {
          "internalType": "uint256",
          "name": "needed",
          "type": "uint256"
        }
      ],
      "name": "ERC20InsufficientAllowance",
      "type": "error"
    },
    {
      "inputs": [
        {
          "internalType": "address",
          "name": "sender",
          "type": "address"
        },
        {
          "internalType": "uint256",
          "name": "balance",
          "type": "uint256"
        },
        {
          "internalType": "uint256",
          "name": "needed",
          "type": "uint256"
        }
      ],
      "name": "ERC20InsufficientBalance",
      "type": "error"
    },
    {
      "inputs": [
        {
          "internalType": "address",
          "name": "approver",
          "type": "address"
        }
      ],
      "name": "ERC20InvalidApprover",
      "type": "error"
    },
    {
      "inputs": [
        {
          "internalType": "address",
          "name": "receiver",
          "type": "address"
        }
      ],
      "name": "ERC20InvalidReceiver",
      "type": "error"
    },
    {
      "inputs": [
        {
          "internalType": "address",
          "name": "sender",
          "type": "address"
        }
      ],
      "name": "ERC20InvalidSender",
      "type": "error"
    },
    {
      "inputs": [
        {
          "internalType": "address",
          "name": "spender",
          "type": "address"
        }
      ],
      "name": "ERC20InvalidSpender",
      "type": "error"
    },
    {
      "anonymous": false,
      "inputs": [
        {
          "indexed": true,
          "internalType": "address",
          "name": "owner",
          "type": "address"
        },
        {
          "indexed": true,
          "internalType": "address",
          "name": "spender",
          "type": "address"
        },
        {
          "indexed": false,
          "internalType": "uint256",
          "name": "value",
          "type": "uint256"
        }
      ],
      "name": "Approval",
      "type": "event"
    },
    {
      "anonymous": false,
      "inputs": [
        {
          "indexed": false,
          "internalType": "uint8",
          "name": "tier",
          "type": "uint8"
        },
        {
          "indexed": false,
          "internalType": "uint256",
          "name": "minAmount",
          "type": "uint256"
        }
      ],
      "name": "MemberTierUpdated",
      "type": "event"
    },
    {
      "anonymous": false,
      "inputs": [
        {
          "indexed": true,
          "internalType": "address",
          "name": "user",
          "type": "address"
        },
        {
          "indexed": false,
          "internalType": "uint256",
          "name": "amount",
          "type": "uint256"
        }
      ],
      "name": "RewardsClaimed",
      "type": "event"
    },
    {
      "anonymous": false,
      "inputs": [
        {
          "indexed": true,
          "internalType": "bytes32",
          "name": "role",
          "type": "bytes32"
        },
        {
          "indexed": true,
          "internalType": "bytes32",
          "name": "previousAdminRole",
          "type": "bytes32"
        },
        {
          "indexed": true,
          "internalType": "bytes32",
          "name": "newAdminRole",
          "type": "bytes32"
        }
      ],
      "name": "RoleAdminChanged",
      "type": "event"
    },
    {
      "anonymous": false,
      "inputs": [
        {
          "indexed": true,
          "internalType": "bytes32",
          "name": "role",
          "type": "bytes32"
        },
        {
          "indexed": true,
          "internalType": "address",
          "name": "account",
          "type": "address"
        },
        {
          "indexed": true,
          "internalType": "address",
          "name": "sender",
          "type": "address"
        }
      ],
      "name": "RoleGranted",
      "type": "event"
    },
    {
      "anonymous": false,
      "inputs": [
        {
          "indexed": true,
          "internalType": "bytes32",
          "name": "role",
          "type": "bytes32"
        },
        {
          "indexed": true,
          "internalType": "address",
          "name": "account",
          "type": "address"
        },
        {
          "indexed": true,
          "internalType": "address",
          "name": "sender",
          "type": "address"
        }
      ],
      "name": "RoleRevoked",
      "type": "event"
    },
    {
      "anonymous": false,
      "inputs": [
        {
          "indexed": true,
          "internalType": "address",
          "name": "user",
          "type": "address"
        },
        {
          "indexed": false,
          "internalType": "uint256",
          "name": "amount",
          "type": "uint256"
        }
      ],
      "name": "TokensStaked",
      "type": "event"
    },
    {
      "anonymous": false,
      "inputs": [
        {
          "indexed": true,
          "internalType": "address",
          "name": "user",
          "type": "address"
        },
        {
          "indexed": false,
          "internalType": "uint256",
          "name": "amount",
          "type": "uint256"
        }
      ],
      "name": "TokensUnstaked",
      "type": "event"
    },
    {
      "anonymous": false,
      "inputs": [
        {
          "indexed": true,
          "internalType": "address",
          "name": "from",
          "type": "address"
        },
        {
          "indexed": true,
          "internalType": "address",
          "name": "to",
          "type": "address"
        },
        {
          "indexed": false,
          "internalType": "uint256",
          "name": "value",
          "type": "uint256"
        }
      ],
      "name": "Transfer",
      "type": "event"
    },
    {
      "inputs": [],
      "name": "DEFAULT_ADMIN_ROLE",
      "outputs": [
        {
          "internalType": "bytes32",
          "name": "",
          "type": "bytes32"
        }
      ],
      "stateMutability": "view",
      "type": "function"
    },
    {
      "inputs": [],
      "name": "GOVERNANCE_ROLE",
      "outputs": [
        {
          "internalType": "bytes32",
          "name": "",
          "type": "bytes32"
        }
      ],
      "stateMutability": "view",
      "type": "function"
    },
    {
      "inputs": [],
      "name": "LOCK_PERIOD",
      "outputs": [
        {
          "internalType": "uint256",
          "name": "",
          "type": "uint256"
        }
      ],
      "stateMutability": "view",
      "type": "function"
    },
    {
      "inputs": [],
      "name": "MINTER_ROLE",
      "outputs": [
        {
          "internalType": "bytes32",
          "name": "",
          "type": "bytes32"
        }
      ],
      "stateMutability": "view",
      "type": "function"
    },
    {
      "inputs": [],
      "name": "MIN_STAKE_AMOUNT",
      "outputs": [
        {
          "internalType": "uint256",
          "name": "",
          "type": "uint256"
        }
      ],
      "stateMutability": "view",
      "type": "function"
    },
    {
      "inputs": [],
      "name": "REWARD_RATE",
      "outputs": [
        {
          "internalType": "uint256",
          "name": "",
          "type": "uint256"
        }
      ],
      "stateMutability": "view",
      "type": "function"
    },
    {
      "inputs": [
        {
          "internalType": "address",
          "name": "owner",
          "type": "address"
        },
        {
          "internalType": "address",
          "name": "spender",
          "type": "address"
        }
      ],
      "name": "allowance",
      "outputs": [
        {
          "internalType": "uint256",
          "name": "",
          "type": "uint256"
        }
      ],
      "stateMutability": "view",
      "type": "function"
    },
    {
      "inputs": [
        {
          "internalType": "address",
          "name": "spender",
          "type": "address"
        },
        {
          "internalType": "uint256",
          "name": "value",
          "type": "uint256"
        }
      ],
      "name": "approve",
      "outputs": [
        {
          "internalType": "bool",
          "name": "",
          "type": "bool"
        }
      ],
      "stateMutability": "nonpayable",
      "type": "function"
    },
    {
      "inputs": [
        {
          "internalType": "address",
          "name": "account",
          "type": "address"
        }
      ],
      "name": "balanceOf",
      "outputs": [
        {
          "internalType": "uint256",
          "name": "",
          "type": "uint256"
        }
      ],
      "stateMutability": "view",
      "type": "function"
    },
    {
      "inputs": [
        {
          "internalType": "address",
          "name": "user",
          "type": "address"
        }
      ],
      "name": "calculateRewards",
      "outputs": [
        {
          "internalType": "uint256",
          "name": "",
          "type": "uint256"
        }
      ],
      "stateMutability": "view",
      "type": "function"
    },
    {
      "inputs": [],
      "name": "claimRewards",
      "outputs": [],
      "stateMutability": "nonpayable",
      "type": "function"
    },
    {
      "inputs": [],
      "name": "decimals",
      "outputs": [
        {
          "internalType": "uint8",
          "name": "",
          "type": "uint8"
        }
      ],
      "stateMutability": "view",
      "type": "function"
    },
    {
      "inputs": [
        {
          "internalType": "address",
          "name": "user",
          "type": "address"
        }
      ],
      "name": "getMemberTier",
      "outputs": [
        {
          "internalType": "uint8",
          "name": "",
          "type": "uint8"
        }
      ],
      "stateMutability": "view",
      "type": "function"
    },
    {
      "inputs": [
        {
          "internalType": "bytes32",
          "name": "role",
          "type": "bytes32"
        }
      ],
      "name": "getRoleAdmin",
      "outputs": [
        {
          "internalType": "bytes32",
          "name": "",
          "type": "bytes32"
        }
      ],
      "stateMutability": "view",
      "type": "function"
    },
    {
      "inputs": [
        {
          "internalType": "address",
          "name": "user",
          "type": "address"
        }
      ],
      "name": "getStakingStartTime",
      "outputs": [
        {
          "internalType": "uint256",
          "name": "",
          "type": "uint256"
        }
      ],
      "stateMutability": "view",
      "type": "function"
    },
    {
      "inputs": [
        {
          "internalType": "address",
          "name": "user",
          "type": "address"
        }
      ],
      "name": "getVotingPower",
      "outputs": [
        {
          "internalType": "uint256",
          "name": "",
          "type": "uint256"
        }
      ],
      "stateMutability": "view",
      "type": "function"
    },
    {
      "inputs": [
        {
          "internalType": "bytes32",
          "name": "role",
          "type": "bytes32"
        },
        {
          "internalType": "address",
          "name": "account",
          "type": "address"
        }
      ],
      "name": "grantRole",
      "outputs": [],
      "stateMutability": "nonpayable",
      "type": "function"
    },
    {
      "inputs": [
        {
          "internalType": "bytes32",
          "name": "role",
          "type": "bytes32"
        },
        {
          "internalType": "address",
          "name": "account",
          "type": "address"
        }
      ],
      "name": "hasRole",
      "outputs": [
        {
          "internalType": "bool",
          "name": "",
          "type": "bool"
        }
      ],
      "stateMutability": "view",
      "type": "function"
    },
    {
      "inputs": [
        {
          "internalType": "uint8",
          "name": "",
          "type": "uint8"
        }
      ],
      "name": "memberTiers",
      "outputs": [
        {
          "internalType": "uint256",
          "name": "",
          "type": "uint256"
        }
      ],
      "stateMutability": "view",
      "type": "function"
    },
    {
      "inputs": [
        {
          "internalType": "address",
          "name": "to",
          "type": "address"
        },
        {
          "internalType": "uint256",
          "name": "amount",
          "type": "uint256"
        }
      ],
      "name": "mint",
      "outputs": [],
      "stateMutability": "nonpayable",
      "type": "function"
    },
    {
      "inputs": [],
      "name": "name",
      "outputs": [
        {
          "internalType": "string",
          "name": "",
          "type": "string"
        }
      ],
      "stateMutability": "view",
      "type": "function"
    },
    {
      "inputs": [
        {
          "internalType": "bytes32",
          "name": "role",
          "type": "bytes32"
        },
        {
          "internalType": "address",
          "name": "callerConfirmation",
          "type": "address"
        }
      ],
      "name": "renounceRole",
      "outputs": [],
      "stateMutability": "nonpayable",
      "type": "function"
    },
    {
      "inputs": [
        {
          "internalType": "bytes32",
          "name": "role",
          "type": "bytes32"
        },
        {
          "internalType": "address",
          "name": "account",
          "type": "address"
        }
      ],
      "name": "revokeRole",
      "outputs": [],
      "stateMutability": "nonpayable",
      "type": "function"
    },
    {
      "inputs": [
        {
          "internalType": "uint8",
          "name": "tier",
          "type": "uint8"
        },
        {
          "internalType": "uint256",
          "name": "minAmount",
          "type": "uint256"
        }
      ],
      "name": "setMemberTier",
      "outputs": [],
      "stateMutability": "nonpayable",
      "type": "function"
    },
    {
      "inputs": [
        {
          "internalType": "uint256",
          "name": "amount",
          "type": "uint256"
        }
      ],
      "name": "stake",
      "outputs": [],
      "stateMutability": "nonpayable",
      "type": "function"
    },
    {
      "inputs": [
        {
          "internalType": "address",
          "name": "user",
          "type": "address"
        }
      ],
      "name": "stakedBalanceOf",
      "outputs": [
        {
          "internalType": "uint256",
          "name": "",
          "type": "uint256"
        }
      ],
      "stateMutability": "view",
      "type": "function"
    },
    {
      "inputs": [
        {
          "internalType": "address",
          "name": "",
          "type": "address"
        }
      ],
      "name": "stakingInfo",
      "outputs": [
        {
          "internalType": "uint256",
          "name": "stakedAmount",
          "type": "uint256"
        },
        {
          "internalType": "uint256",
          "name": "stakingStartTime",
          "type": "uint256"
        },
        {
          "internalType": "uint256",
          "name": "lastRewardTime",
          "type": "uint256"
        }
      ],
      "stateMutability": "view",
      "type": "function"
    },
    {
      "inputs": [
        {
          "internalType": "bytes4",
          "name": "interfaceId",
          "type": "bytes4"
        }
      ],
      "name": "supportsInterface",
      "outputs": [
        {
          "internalType": "bool",
          "name": "",
          "type": "bool"
        }
      ],
      "stateMutability": "view",
      "type": "function"
    },
    {
      "inputs": [],
      "name": "symbol",
      "outputs": [
        {
          "internalType": "string",
          "name": "",
          "type": "string"
        }
      ],
      "stateMutability": "view",
      "type": "function"
    },
    {
      "inputs": [],
      "name": "totalSupply",
      "outputs": [
        {
          "internalType": "uint256",
          "name": "",
          "type": "uint256"
        }
      ],
      "stateMutability": "view",
      "type": "function"
    },
    {
      "inputs": [
        {
          "internalType": "address",
          "name": "to",
          "type": "address"
        },
        {
          "internalType": "uint256",
          "name": "value",
          "type": "uint256"
        }
      ],
      "name": "transfer",
      "outputs": [
        {
          "internalType": "bool",
          "name": "",
          "type": "bool"
        }
      ],
      "stateMutability": "nonpayable",
      "type": "function"
    },
    {
      "inputs": [
        {
          "internalType": "address",
          "name": "from",
          "type": "address"
        },
        {
          "internalType": "address",
          "name": "to",
          "type": "address"
        },
        {
          "internalType": "uint256",
          "name": "value",
          "type": "uint256"
        }
      ],
      "name": "transferFrom",
      "outputs": [
        {
          "internalType": "bool",
          "name": "",
          "type": "bool"
        }
      ],
      "stateMutability": "nonpayable",
      "type": "function"
    },
    {
      "inputs": [
        {
          "internalType": "uint256",
          "name": "amount",
          "type": "uint256"
        }
      ],
      "name": "unstake",
      "outputs": [],
      "stateMutability": "nonpayable",
      "type": "function"
    }
  ],
  "bytecode": "0x60406080815234620003a9576200199d803803806200001e81620003ae565b9283398101606082820312620003a95781516001600160401b039190828111620003a9578162000050918501620003d4565b60209182850151848111620003a95786916200006e918701620003d4565b9401516001600160a01b0381168103620003a957815193808511620002a9576003948554906001948583811c931680156200039e575b8784101462000388578190601f9384811162000332575b508790848311600114620002cb57600092620002bf575b505060001982891b1c191690851b1786555b8651918211620002a95760049687548581811c911680156200029e575b8782101462000289578281116200023e575b5085918311600114620001cd5791806006969594926200016694600092620001c1575b505060001982891b1c191690841b1787555b620001538162000446565b506200015f81620004c7565b506200056a565b506000525268056bc75e2d6310000083600020556002600052681b1ae4d6e2ef5000008360002055600052683635c9adc5dea00000826000205560005269010f0cf064dd592000008160002055516113749081620006098239f35b01519050388062000136565b90601f1983169188600052866000209260005b81811062000228575092869593928592620001669660069a9995106200020f575b505050811b01875562000148565b0151600019838b1b60f8161c1916905538808062000201565b82840151855593870193928801928801620001e0565b88600052866000208380860160051c8201928987106200027f575b0160051c019086905b8281106200027257505062000113565b6000815501869062000262565b9250819262000259565b602289634e487b7160e01b6000525260246000fd5b90607f169062000101565b634e487b7160e01b600052604160045260246000fd5b015190503880620000d2565b90879350601f198316918a600052896000209260005b8b8282106200031b575050841162000302575b505050811b018655620000e4565b0151600019838b1b60f8161c19169055388080620002f4565b8385015186558b97909501949384019301620002e1565b90915088600052876000208480850160051c8201928a86106200037e575b918991869594930160051c01915b8281106200036e575050620000bb565b600081558594508991016200035e565b9250819262000350565b634e487b7160e01b600052602260045260246000fd5b92607f1692620000a4565b600080fd5b6040519190601f01601f191682016001600160401b03811183821017620002a957604052565b919080601f84011215620003a95782516001600160401b038111620002a9576020906200040a601f8201601f19168301620003ae565b92818452828287010111620003a95760005b8181106200043257508260009394955001015290565b85810183015184820184015282016200041c565b6001600160a01b031660008181527f05b8ccbb9d4d8fb16ea74ce3c29a41f1b461fbdaff4714a0d9a8eb05499746bc602052604081205490919060ff16620004c35781805260056020526040822081835260205260408220600160ff1982541617905533916000805160206200197d8339815191528180a4600190565b5090565b6001600160a01b031660008181527f15a28d26fa1bf736cf7edc9922607171ccb09c3c73b808e7772a3013e068a52260205260408120549091907f9f2df0fed2c77648de5860a4cc508cd0818c85b8b8a1ab4ceeef8d981c8956a69060ff16620005655780835260056020526040832082845260205260408320600160ff198254161790556000805160206200197d833981519152339380a4600190565b505090565b6001600160a01b031660008181527fa102ac9d4b71019c4c6719b27c9397e050b8ff78c88a44788b9e59eee4b9718160205260408120549091907f71840dc4906352362b0cdaf79870196c8e42acafade72d5d5a6d59291253ceb19060ff16620005655780835260056020526040832082845260205260408320600160ff198254161790556000805160206200197d833981519152339380a460019056fe608060408181526004918236101561001657600080fd5b600092833560e01c91826301ffc9a714610e1d5750816306fdde0314610d28578163095ea7b314610c7e5781631676539114610c4657816318160ddd14610c275781631820cabb14610c0957816323b872dd14610b15578163248a9ca314610aea57816327ed718814610ac65781632e17de78146109d85781632f2ff15d146109ae578163313ce5671461099257816336568abe1461094c578163372500ab1461089257816340c10f191461080c5781635997bb37146107f05781635d8648fb146107bf57816364ab86751461079957816370a08231146107625781638b3e97071461073257816391d14854146106eb57816394eecb501461069d57816395d89b411461059a578163a217fddf1461057f578163a694fc3a14610417578163a9059cbb146103e6578163b89d8144146103aa578163bb4d443614610330578163c3f601dc14610294578163d539139314610259578163d547741f1461021557508063dd62ed3e146101cd5763f36c8f5c1461019057600080fd5b346101c957816003193601126101c957602090517f71840dc4906352362b0cdaf79870196c8e42acafade72d5d5a6d59291253ceb18152f35b5080fd5b50346101c957806003193601126101c957806020926101ea610eb9565b6101f2610ed4565b6001600160a01b0391821683526001865283832091168252845220549051908152f35b91905034610255578060031936011261025557610251913561024c600161023a610ed4565b93838752600560205286200154610efa565b610fbe565b5080f35b8280fd5b5050346101c957816003193601126101c957602090517f9f2df0fed2c77648de5860a4cc508cd0818c85b8b8a1ab4ceeef8d981c8956a68152f35b8383346101c957806003193601126101c9576102ae610eea565b9260243590838052600560205282842033855260205260ff838520541615610313575060ff7fe133a88b3f4dd1c3ccf825c638c3c70fbbaa1adcd2e17942f77ba2d45c313c16939416908185526006602052808386205582519182526020820152a180f35b6044908484519163e2517d3f60e01b835233908301526024820152fd5b8284346103a75760203660031901126103a7576001600160a01b03610353610eb9565b168152806020528181205490600760205282812054906003820291808304600314901517156103945760208461038d858560011c9061114b565b9051908152f35b634e487b7160e01b815260118552602490fd5b80fd5b5050346101c95760203660031901126101c95760209160019082906001600160a01b036103d5610eb9565b168152600785522001549051908152f35b5050346101c957806003193601126101c957602090610410610406610eb9565b602435903361106d565b5160018152f35b91905034610255576020908160031936011261057b5782359268056bc75e2d631000008410610527573385528483528382862054106104d85750907fb539ca1e5c8d398ddf1c41c30166f33404941683be4683319b57669a93dad4ef913385526007825280852080546104ad575b61049085303361106d565b61049b85825461114b565b8155600142910155519283523392a280f35b6104b6336111d9565b806104c2575b50610485565b6104cc903361116e565b426002820155386104bc565b82608492519162461bcd60e51b8352820152602560248201527f476f7665726e616e6365546f6b656e3a20696e73756666696369656e742062616044820152646c616e636560d81b6064820152fd5b82608492519162461bcd60e51b8352820152602a60248201527f476f7665726e616e6365546f6b656e3a20696e73756666696369656e74207374604482015269185ad948185b5bdd5b9d60b21b6064820152fd5b8380fd5b5050346101c957816003193601126101c95751908152602090f35b8383346101c957816003193601126101c957805191809380549160019083821c92828516948515610693575b60209586861081146106805785895290811561065c5750600114610604575b61060087876105f6828c0383611035565b5191829182610e70565b0390f35b81529295507f8a35acfbc15ff81a39ae7d344fd709f28e8600b4aa8c65c6b64bfe7fe36bd19b5b8284106106495750505082610600946105f6928201019486806105e5565b805486850188015292860192810161062b565b60ff19168887015250505050151560051b83010192506105f68261060086806105e5565b634e487b7160e01b845260228352602484fd5b93607f16936105c6565b5050346101c95760203660031901126101c95760609181906001600160a01b036106c5610eb9565b168152600760205220805491600260018301549201549181519384526020840152820152f35b9050346102555781600319360112610255578160209360ff9261070c610ed4565b90358252600586528282206001600160a01b039091168252855220549151911615158152f35b5050346101c95760203660031901126101c95760209060ff61075a610755610eb9565b611263565b915191168152f35b5050346101c95760203660031901126101c95760209181906001600160a01b0361078a610eb9565b16815280845220549051908152f35b5050346101c95760203660031901126101c95760209061038d6107ba610eb9565b6111d9565b5050346101c95760203660031901126101c9578060209260ff6107e0610eea565b1681526006845220549051908152f35b5050346101c957816003193601126101c9576020905160058152f35b905034610255578160031936011261025557610826610eb9565b917f9f2df0fed2c77648de5860a4cc508cd0818c85b8b8a1ab4ceeef8d981c8956a690818552600560205280852033865260205260ff81862054161561087657846108736024358661116e565b80f35b60449350519163e2517d3f60e01b835233908301526024820152fd5b919050346102555782600319360112610255576108ae336111d9565b9182156108fe575033835260076020528083206002429101556108d1823361116e565b519081527ffc30cddea38e2bf4d6ea7d3f9ed3b6ad7f176419f4963bd81318067a4aee73fe60203392a280f35b6020608492519162461bcd60e51b83528201526024808201527f476f7665726e616e6365546f6b656e3a206e6f207265776172647320746f20636044820152636c61696d60e01b6064820152fd5b8383346101c957806003193601126101c957610966610ed4565b90336001600160a01b038316036109835750610251919235610fbe565b5163334bd91960e11b81528390fd5b5050346101c957816003193601126101c9576020905160128152f35b9190503461025557806003193601126102555761025191356109d3600161023a610ed4565b610f3e565b919050346102555760203660031901126102555781359133845260076020528184209083825410610a6f5750610a0d336111d9565b80610a59575b50610a1f8382546111cc565b9055610a2c82333061106d565b519081527f9845e367b683334e5c0b12d7b81721ac518e649376fa65e3d68324e8f34f267960203392a280f35b610a63903361116e565b42600282015538610a13565b608490602084519162461bcd60e51b8352820152602b60248201527f476f7665726e616e6365546f6b656e3a20696e73756666696369656e7420737460448201526a185ad95908185b5bdd5b9d60aa1b6064820152fd5b5050346101c957816003193601126101c9576020905168056bc75e2d631000008152f35b9050346102555760203660031901126102555781602093600192358152600585522001549051908152f35b905082346103a75760603660031901126103a757610b31610eb9565b610b39610ed4565b916044359360018060a01b038316808352600160205286832033845260205286832054916000198310610b75575b60208861041089898961106d565b868310610bdd578115610bc6573315610baf5750825260016020908152868320338452815291869020908590039055829061041087610b67565b8751634a1406b160e11b8152908101849052602490fd5b875163e602df0560e01b8152908101849052602490fd5b8751637dc7a0d960e11b8152339181019182526020820193909352604081018790528291506060010390fd5b5050346101c957816003193601126101c9576020905162278d008152f35b5050346101c957816003193601126101c9576020906002549051908152f35b5050346101c95760203660031901126101c95760209181906001600160a01b03610c6e610eb9565b1681526007845220549051908152f35b905034610255578160031936011261025557610c98610eb9565b602435903315610d11576001600160a01b0316918215610cfa57508083602095338152600187528181208582528752205582519081527f8c5be1e5ebec7d5bd14f71427d1e84f3dd0314c0f7b2291e5b200ac8c7c3b925843392a35160018152f35b8351634a1406b160e11b8152908101859052602490fd5b835163e602df0560e01b8152808401869052602490fd5b91905034610255578260031936011261025557805191836003549060019082821c928281168015610e13575b6020958686108214610e005750848852908115610dde5750600114610d85575b61060086866105f6828b0383611035565b929550600383527fc2575a0e9e593c00f959f8c92f12db2869c3395a3b0502d05e2516446f71f85b5b828410610dcb5750505082610600946105f6928201019438610d74565b8054868501880152928601928101610dae565b60ff191687860152505050151560051b83010192506105f68261060038610d74565b634e487b7160e01b845260229052602483fd5b93607f1693610d54565b849134610255576020366003190112610255573563ffffffff60e01b81168091036102555760209250637965db0b60e01b8114908115610e5f575b5015158152f35b6301ffc9a760e01b14905083610e58565b6020808252825181830181905290939260005b828110610ea557505060409293506000838284010152601f8019910116010190565b818101860151848201604001528501610e83565b600435906001600160a01b0382168203610ecf57565b600080fd5b602435906001600160a01b0382168203610ecf57565b6004359060ff82168203610ecf57565b80600052600560205260406000203360005260205260ff6040600020541615610f205750565b6044906040519063e2517d3f60e01b82523360048301526024820152fd5b906000918083526005602052604083209160018060a01b03169182845260205260ff60408420541615600014610fb95780835260056020526040832082845260205260408320600160ff198254161790557f2f8788117e7eff1d82e926ec794901d17c78024a50270940304540a733656f0d339380a4600190565b505090565b906000918083526005602052604083209160018060a01b03169182845260205260ff604084205416600014610fb9578083526005602052604083208284526020526040832060ff1981541690557ff6391f5c32d9c69d2a47ea670b442974b53935d1edc7fd64eb21e047a839171b339380a4600190565b90601f8019910116810190811067ffffffffffffffff82111761105757604052565b634e487b7160e01b600052604160045260246000fd5b916001600160a01b03808416928315611132571692831561111957600090838252816020526040822054908382106110e7575091604082827fddf252ad1be2c89b69c2b068fc378daa952ba7f163c4a11628f55a4df523b3ef958760209652828652038282205586815220818154019055604051908152a3565b60405163391434e360e21b81526001600160a01b03919091166004820152602481019190915260448101839052606490fd5b60405163ec442f0560e01b815260006004820152602490fd5b604051634b637e8f60e11b815260006004820152602490fd5b9190820180921161115857565b634e487b7160e01b600052601160045260246000fd5b6001600160a01b0316908115611119577fddf252ad1be2c89b69c2b068fc378daa952ba7f163c4a11628f55a4df523b3ef6020826111b060009460025461114b565b60025584845283825260408420818154019055604051908152a3565b9190820391821161115857565b6001600160a01b0316600090815260076020526040812080549190821561125d576002611208910154426111cc565b916005810290808204600503611249578302600502928115918404141715611235575063bbf81e00900490565b634e487b7160e01b81526011600452602490fd5b634e487b7160e01b83526011600452602483fd5b50905090565b60408051635da6a21b60e11b81526001600160a01b039092166004830152602082602481305afa91821561133357600092611300575b506004600052600660205280600020548210156112f957600360005280600020548210156112f257600260005280600020548210156112eb5760016000526000205411156112e657600090565b600190565b5050600290565b5050600390565b5050600490565b90916020823d821161132b575b8161131a60209383611035565b810103126103a75750519038611299565b3d915061130d565b50513d6000823e3d90fdfea264697066735822122090bc1049b152e9e4e9087caf82c6dd89844ec8edb3069c2b5a80c5c435b958c964736f6c634300081400332f8788117e7eff1d82e926ec794901d17c78024a50270940304540a733656f0d",
  "linkReferences": {},
  "deployedLinkReferences": {}
}