{
  "_format": "hh-sol-artifact-1",
  "contractName": "Proposal",
  "sourceName": "contracts/Proposal.sol",
  "abi": [
    {
      "inputs": [
        {
          "internalType": "address",
          "name": "admin",
          "type": "address"
        }
      ],
      "stateMutability": "nonpayable",
      "type": "constructor"
    },
    {
      "inputs": [],
      "name": "AccessControlBadConfirmation",
      "type": "error"
    },
    {
      "inputs": [
        {
          "internalType": "address",
          "name": "account",
          "type": "address"
        },
        {
          "internalType": "bytes32",
          "name": "neededRole",
          "type": "bytes32"
        }
      ],
      "name": "AccessControlUnauthorizedAccount",
      "type": "error"
    },
    {
      "anonymous": false,
      "inputs": [
        {
          "indexed": true,
          "internalType": "uint256",
          "name": "id",
          "type": "uint256"
        },
        {
          "indexed": true,
          "internalType": "address",
          "name": "proposer",
          "type": "address"
        }
      ],
      "name": "ProposalCreated",
      "type": "event"
    },
    {
      "anonymous": false,
      "inputs": [
        {
          "indexed": true,
          "internalType": "uint256",
          "name": "id",
          "type": "uint256"
        },
        {
          "indexed": false,
          "internalType": "enum Proposal.Status",
          "name": "status",
          "type": "uint8"
        }
      ],
      "name": "ProposalStatusChanged",
      "type": "event"
    },
    {
      "anonymous": false,
      "inputs": [
        {
          "indexed": true,
          "internalType": "bytes32",
          "name": "role",
          "type": "bytes32"
        },
        {
          "indexed": true,
          "internalType": "bytes32",
          "name": "previousAdminRole",
          "type": "bytes32"
        },
        {
          "indexed": true,
          "internalType": "bytes32",
          "name": "newAdminRole",
          "type": "bytes32"
        }
      ],
      "name": "RoleAdminChanged",
      "type": "event"
    },
    {
      "anonymous": false,
      "inputs": [
        {
          "indexed": true,
          "internalType": "bytes32",
          "name": "role",
          "type": "bytes32"
        },
        {
          "indexed": true,
          "internalType": "address",
          "name": "account",
          "type": "address"
        },
        {
          "indexed": true,
          "internalType": "address",
          "name": "sender",
          "type": "address"
        }
      ],
      "name": "RoleGranted",
      "type": "event"
    },
    {
      "anonymous": false,
      "inputs": [
        {
          "indexed": true,
          "internalType": "bytes32",
          "name": "role",
          "type": "bytes32"
        },
        {
          "indexed": true,
          "internalType": "address",
          "name": "account",
          "type": "address"
        },
        {
          "indexed": true,
          "internalType": "address",
          "name": "sender",
          "type": "address"
        }
      ],
      "name": "RoleRevoked",
      "type": "event"
    },
    {
      "inputs": [],
      "name": "DEFAULT_ADMIN_ROLE",
      "outputs": [
        {
          "internalType": "bytes32",
          "name": "",
          "type": "bytes32"
        }
      ],
      "stateMutability": "view",
      "type": "function"
    },
    {
      "inputs": [],
      "name": "MEMBER_ROLE",
      "outputs": [
        {
          "internalType": "bytes32",
          "name": "",
          "type": "bytes32"
        }
      ],
      "stateMutability": "view",
      "type": "function"
    },
    {
      "inputs": [
        {
          "internalType": "string",
          "name": "title",
          "type": "string"
        },
        {
          "internalType": "string",
          "name": "description",
          "type": "string"
        },
        {
          "internalType": "uint256",
          "name": "amount",
          "type": "uint256"
        },
        {
          "internalType": "address payable",
          "name": "recipient",
          "type": "address"
        }
      ],
      "name": "createProposal",
      "outputs": [
        {
          "internalType": "uint256",
          "name": "",
          "type": "uint256"
        }
      ],
      "stateMutability": "nonpayable",
      "type": "function"
    },
    {
      "inputs": [],
      "name": "getAllProposals",
      "outputs": [
        {
          "components": [
            {
              "internalType": "string",
              "name": "title",
              "type": "string"
            },
            {
              "internalType": "string",
              "name": "description",
              "type": "string"
            },
            {
              "internalType": "uint256",
              "name": "amount",
              "type": "uint256"
            },
            {
              "internalType": "address payable",
              "name": "recipient",
              "type": "address"
            },
            {
              "internalType": "enum Proposal.Status",
              "name": "status",
              "type": "uint8"
            },
            {
              "internalType": "uint256",
              "name": "votesFor",
              "type": "uint256"
            },
            {
              "internalType": "uint256",
              "name": "votesAgainst",
              "type": "uint256"
            },
            {
              "internalType": "uint256",
              "name": "startTime",
              "type": "uint256"
            }
          ],
          "internalType": "struct Proposal.ProposalData[]",
          "name": "",
          "type": "tuple[]"
        }
      ],
      "stateMutability": "view",
      "type": "function"
    },
    {
      "inputs": [
        {
          "internalType": "uint256",
          "name": "id",
          "type": "uint256"
        }
      ],
      "name": "getProposal",
      "outputs": [
        {
          "components": [
            {
              "internalType": "string",
              "name": "title",
              "type": "string"
            },
            {
              "internalType": "string",
              "name": "description",
              "type": "string"
            },
            {
              "internalType": "uint256",
              "name": "amount",
              "type": "uint256"
            },
            {
              "internalType": "address payable",
              "name": "recipient",
              "type": "address"
            },
            {
              "internalType": "enum Proposal.Status",
              "name": "status",
              "type": "uint8"
            },
            {
              "internalType": "uint256",
              "name": "votesFor",
              "type": "uint256"
            },
            {
              "internalType": "uint256",
              "name": "votesAgainst",
              "type": "uint256"
            },
            {
              "internalType": "uint256",
              "name": "startTime",
              "type": "uint256"
            }
          ],
          "internalType": "struct Proposal.ProposalData",
          "name": "",
          "type": "tuple"
        }
      ],
      "stateMutability": "view",
      "type": "function"
    },
    {
      "inputs": [
        {
          "internalType": "bytes32",
          "name": "role",
          "type": "bytes32"
        }
      ],
      "name": "getRoleAdmin",
      "outputs": [
        {
          "internalType": "bytes32",
          "name": "",
          "type": "bytes32"
        }
      ],
      "stateMutability": "view",
      "type": "function"
    },
    {
      "inputs": [
        {
          "internalType": "bytes32",
          "name": "role",
          "type": "bytes32"
        },
        {
          "internalType": "address",
          "name": "account",
          "type": "address"
        }
      ],
      "name": "grantRole",
      "outputs": [],
      "stateMutability": "nonpayable",
      "type": "function"
    },
    {
      "inputs": [
        {
          "internalType": "bytes32",
          "name": "role",
          "type": "bytes32"
        },
        {
          "internalType": "address",
          "name": "account",
          "type": "address"
        }
      ],
      "name": "hasRole",
      "outputs": [
        {
          "internalType": "bool",
          "name": "",
          "type": "bool"
        }
      ],
      "stateMutability": "view",
      "type": "function"
    },
    {
      "inputs": [
        {
          "internalType": "uint256",
          "name": "",
          "type": "uint256"
        }
      ],
      "name": "proposals",
      "outputs": [
        {
          "internalType": "string",
          "name": "title",
          "type": "string"
        },
        {
          "internalType": "string",
          "name": "description",
          "type": "string"
        },
        {
          "internalType": "uint256",
          "name": "amount",
          "type": "uint256"
        },
        {
          "internalType": "address payable",
          "name": "recipient",
          "type": "address"
        },
        {
          "internalType": "enum Proposal.Status",
          "name": "status",
          "type": "uint8"
        },
        {
          "internalType": "uint256",
          "name": "votesFor",
          "type": "uint256"
        },
        {
          "internalType": "uint256",
          "name": "votesAgainst",
          "type": "uint256"
        },
        {
          "internalType": "uint256",
          "name": "startTime",
          "type": "uint256"
        }
      ],
      "stateMutability": "view",
      "type": "function"
    },
    {
      "inputs": [
        {
          "internalType": "bytes32",
          "name": "role",
          "type": "bytes32"
        },
        {
          "internalType": "address",
          "name": "callerConfirmation",
          "type": "address"
        }
      ],
      "name": "renounceRole",
      "outputs": [],
      "stateMutability": "nonpayable",
      "type": "function"
    },
    {
      "inputs": [
        {
          "internalType": "bytes32",
          "name": "role",
          "type": "bytes32"
        },
        {
          "internalType": "address",
          "name": "account",
          "type": "address"
        }
      ],
      "name": "revokeRole",
      "outputs": [],
      "stateMutability": "nonpayable",
      "type": "function"
    },
    {
      "inputs": [
        {
          "internalType": "uint256",
          "name": "id",
          "type": "uint256"
        },
        {
          "internalType": "enum Proposal.Status",
          "name": "status",
          "type": "uint8"
        }
      ],
      "name": "setProposalStatus",
      "outputs": [],
      "stateMutability": "nonpayable",
      "type": "function"
    },
    {
      "inputs": [
        {
          "internalType": "bytes4",
          "name": "interfaceId",
          "type": "bytes4"
        }
      ],
      "name": "supportsInterface",
      "outputs": [
        {
          "internalType": "bool",
          "name": "",
          "type": "bool"
        }
      ],
      "stateMutability": "view",
      "type": "function"
    }
  ],
  "bytecode": "0x60806040523480156200001157600080fd5b506040516200205e3803806200205e833981810160405281019062000037919062000266565b6200004c6000801b826200008760201b60201c565b506200007f7f829b824e2329e205435d941c9f13baf578548505283d29261236d8e6596d4636826200008760201b60201c565b505062000298565b60006200009b83836200018a60201b60201c565b6200017f57600160008085815260200190815260200160002060000160008473ffffffffffffffffffffffffffffffffffffffff1673ffffffffffffffffffffffffffffffffffffffff16815260200190815260200160002060006101000a81548160ff0219169083151502179055506200011b620001f460201b60201c565b73ffffffffffffffffffffffffffffffffffffffff168273ffffffffffffffffffffffffffffffffffffffff16847f2f8788117e7eff1d82e926ec794901d17c78024a50270940304540a733656f0d60405160405180910390a46001905062000184565b600090505b92915050565b600080600084815260200190815260200160002060000160008373ffffffffffffffffffffffffffffffffffffffff1673ffffffffffffffffffffffffffffffffffffffff16815260200190815260200160002060009054906101000a900460ff16905092915050565b600033905090565b600080fd5b600073ffffffffffffffffffffffffffffffffffffffff82169050919050565b60006200022e8262000201565b9050919050565b620002408162000221565b81146200024c57600080fd5b50565b600081519050620002608162000235565b92915050565b6000602082840312156200027f576200027e620001fc565b5b60006200028f848285016200024f565b91505092915050565b611db680620002a86000396000f3fe608060405234801561001057600080fd5b50600436106100cf5760003560e01c8063a10f469e1161008c578063cbe9461411610066578063cbe946141461023f578063cceb68f51461025b578063d547741f14610279578063e5ee89cc14610295576100cf565b8063a10f469e146101d3578063a217fddf146101f1578063c7f758a81461020f576100cf565b8063013cf08b146100d457806301ffc9a71461010b578063248a9ca31461013b5780632f2ff15d1461016b57806336568abe1461018757806391d14854146101a3575b600080fd5b6100ee60048036038101906100e99190611115565b6102c5565b604051610102989796959493929190611299565b60405180910390f35b6101256004803603810190610120919061137d565b61045a565b60405161013291906113c5565b60405180910390f35b61015560048036038101906101509190611416565b6104d4565b6040516101629190611452565b60405180910390f35b610185600480360381019061018091906114ab565b6104f3565b005b6101a1600480360381019061019c91906114ab565b610515565b005b6101bd60048036038101906101b891906114ab565b610590565b6040516101ca91906113c5565b60405180910390f35b6101db6105fa565b6040516101e89190611452565b60405180910390f35b6101f961061e565b6040516102069190611452565b60405180910390f35b61022960048036038101906102249190611115565b610625565b6040516102369190611619565b60405180910390f35b61025960048036038101906102549190611660565b61083f565b005b6102636108d6565b6040516102709190611819565b60405180910390f35b610293600480360381019061028e91906114ab565b610b13565b005b6102af60048036038101906102aa91906118cc565b610b35565b6040516102bc9190611973565b60405180910390f35b600181815481106102d557600080fd5b90600052602060002090600702016000915090508060000180546102f8906119bd565b80601f0160208091040260200160405190810160405280929190818152602001828054610324906119bd565b80156103715780601f1061034657610100808354040283529160200191610371565b820191906000526020600020905b81548152906001019060200180831161035457829003601f168201915b505050505090806001018054610386906119bd565b80601f01602080910402602001604051908101604052809291908181526020018280546103b2906119bd565b80156103ff5780601f106103d4576101008083540402835291602001916103ff565b820191906000526020600020905b8154815290600101906020018083116103e257829003601f168201915b5050505050908060020154908060030160009054906101000a900473ffffffffffffffffffffffffffffffffffffffff16908060030160149054906101000a900460ff16908060040154908060050154908060060154905088565b60007f7965db0b000000000000000000000000000000000000000000000000000000007bffffffffffffffffffffffffffffffffffffffffffffffffffffffff1916827bffffffffffffffffffffffffffffffffffffffffffffffffffffffff191614806104cd57506104cc82610dae565b5b9050919050565b6000806000838152602001908152602001600020600101549050919050565b6104fc826104d4565b61050581610e18565b61050f8383610e2c565b50505050565b61051d610f1d565b73ffffffffffffffffffffffffffffffffffffffff168173ffffffffffffffffffffffffffffffffffffffff1614610581576040517f6697b23200000000000000000000000000000000000000000000000000000000815260040160405180910390fd5b61058b8282610f25565b505050565b600080600084815260200190815260200160002060000160008373ffffffffffffffffffffffffffffffffffffffff1673ffffffffffffffffffffffffffffffffffffffff16815260200190815260200160002060009054906101000a900460ff16905092915050565b7f829b824e2329e205435d941c9f13baf578548505283d29261236d8e6596d463681565b6000801b81565b61062d611068565b60018281548110610641576106406119ee565b5b90600052602060002090600702016040518061010001604052908160008201805461066b906119bd565b80601f0160208091040260200160405190810160405280929190818152602001828054610697906119bd565b80156106e45780601f106106b9576101008083540402835291602001916106e4565b820191906000526020600020905b8154815290600101906020018083116106c757829003601f168201915b505050505081526020016001820180546106fd906119bd565b80601f0160208091040260200160405190810160405280929190818152602001828054610729906119bd565b80156107765780601f1061074b57610100808354040283529160200191610776565b820191906000526020600020905b81548152906001019060200180831161075957829003601f168201915b50505050508152602001600282015481526020016003820160009054906101000a900473ffffffffffffffffffffffffffffffffffffffff1673ffffffffffffffffffffffffffffffffffffffff1673ffffffffffffffffffffffffffffffffffffffff1681526020016003820160149054906101000a900460ff16600381111561080457610803611222565b5b600381111561081657610815611222565b5b815260200160048201548152602001600582015481526020016006820154815250509050919050565b6000801b61084c81610e18565b8160018481548110610861576108606119ee565b5b906000526020600020906007020160030160146101000a81548160ff0219169083600381111561089457610893611222565b5b0217905550827f3346abf262ac5179e9052765fb72484e0baab1f356f08442bb7a3054147631de836040516108c99190611a1d565b60405180910390a2505050565b60606001805480602002602001604051908101604052809291908181526020016000905b82821015610b0a57838290600052602060002090600702016040518061010001604052908160008201805461092e906119bd565b80601f016020809104026020016040519081016040528092919081815260200182805461095a906119bd565b80156109a75780601f1061097c576101008083540402835291602001916109a7565b820191906000526020600020905b81548152906001019060200180831161098a57829003601f168201915b505050505081526020016001820180546109c0906119bd565b80601f01602080910402602001604051908101604052809291908181526020018280546109ec906119bd565b8015610a395780601f10610a0e57610100808354040283529160200191610a39565b820191906000526020600020905b815481529060010190602001808311610a1c57829003601f168201915b50505050508152602001600282015481526020016003820160009054906101000a900473ffffffffffffffffffffffffffffffffffffffff1673ffffffffffffffffffffffffffffffffffffffff1673ffffffffffffffffffffffffffffffffffffffff1681526020016003820160149054906101000a900460ff166003811115610ac757610ac6611222565b5b6003811115610ad957610ad8611222565b5b81526020016004820154815260200160058201548152602001600682015481525050815260200190600101906108fa565b50505050905090565b610b1c826104d4565b610b2581610e18565b610b2f8383610f25565b50505050565b60007f829b824e2329e205435d941c9f13baf578548505283d29261236d8e6596d4636610b6181610e18565b60016040518061010001604052808a8a8080601f016020809104026020016040519081016040528093929190818152602001838380828437600081840152601f19601f82011690508083019250505050505050815260200188888080601f016020809104026020016040519081016040528093929190818152602001838380828437600081840152601f19601f8201169050808301925050505050505081526020018681526020018573ffffffffffffffffffffffffffffffffffffffff16815260200160006003811115610c3957610c38611222565b5b815260200160008152602001600081526020014281525090806001815401808255809150506001900390600052602060002090600702016000909190919091506000820151816000019081610c8e9190611c13565b506020820151816001019081610ca49190611c13565b506040820151816002015560608201518160030160006101000a81548173ffffffffffffffffffffffffffffffffffffffff021916908373ffffffffffffffffffffffffffffffffffffffff16021790555060808201518160030160146101000a81548160ff02191690836003811115610d2157610d20611222565b5b021790555060a0820151816004015560c0820151816005015560e082015181600601555050600060018080549050610d599190611d14565b90503373ffffffffffffffffffffffffffffffffffffffff16817fcd423cc1203c0af96b9b3d68d73b3064a69de2d14450bb7181c5e5df2132b35860405160405180910390a380925050509695505050505050565b60007f01ffc9a7000000000000000000000000000000000000000000000000000000007bffffffffffffffffffffffffffffffffffffffffffffffffffffffff1916827bffffffffffffffffffffffffffffffffffffffffffffffffffffffff1916149050919050565b610e2981610e24610f1d565b611017565b50565b6000610e388383610590565b610f1257600160008085815260200190815260200160002060000160008473ffffffffffffffffffffffffffffffffffffffff1673ffffffffffffffffffffffffffffffffffffffff16815260200190815260200160002060006101000a81548160ff021916908315150217905550610eaf610f1d565b73ffffffffffffffffffffffffffffffffffffffff168273ffffffffffffffffffffffffffffffffffffffff16847f2f8788117e7eff1d82e926ec794901d17c78024a50270940304540a733656f0d60405160405180910390a460019050610f17565b600090505b92915050565b600033905090565b6000610f318383610590565b1561100c57600080600085815260200190815260200160002060000160008473ffffffffffffffffffffffffffffffffffffffff1673ffffffffffffffffffffffffffffffffffffffff16815260200190815260200160002060006101000a81548160ff021916908315150217905550610fa9610f1d565b73ffffffffffffffffffffffffffffffffffffffff168273ffffffffffffffffffffffffffffffffffffffff16847ff6391f5c32d9c69d2a47ea670b442974b53935d1edc7fd64eb21e047a839171b60405160405180910390a460019050611011565b600090505b92915050565b6110218282610590565b6110645780826040517fe2517d3f00000000000000000000000000000000000000000000000000000000815260040161105b929190611d57565b60405180910390fd5b5050565b604051806101000160405280606081526020016060815260200160008152602001600073ffffffffffffffffffffffffffffffffffffffff168152602001600060038111156110ba576110b9611222565b5b81526020016000815260200160008152602001600081525090565b600080fd5b600080fd5b6000819050919050565b6110f2816110df565b81146110fd57600080fd5b50565b60008135905061110f816110e9565b92915050565b60006020828403121561112b5761112a6110d5565b5b600061113984828501611100565b91505092915050565b600081519050919050565b600082825260208201905092915050565b60005b8381101561117c578082015181840152602081019050611161565b60008484015250505050565b6000601f19601f8301169050919050565b60006111a482611142565b6111ae818561114d565b93506111be81856020860161115e565b6111c781611188565b840191505092915050565b6111db816110df565b82525050565b600073ffffffffffffffffffffffffffffffffffffffff82169050919050565b600061120c826111e1565b9050919050565b61121c81611201565b82525050565b7f4e487b7100000000000000000000000000000000000000000000000000000000600052602160045260246000fd5b6004811061126257611261611222565b5b50565b600081905061127382611251565b919050565b600061128382611265565b9050919050565b61129381611278565b82525050565b60006101008201905081810360008301526112b4818b611199565b905081810360208301526112c8818a611199565b90506112d760408301896111d2565b6112e46060830188611213565b6112f1608083018761128a565b6112fe60a08301866111d2565b61130b60c08301856111d2565b61131860e08301846111d2565b9998505050505050505050565b60007fffffffff0000000000000000000000000000000000000000000000000000000082169050919050565b61135a81611325565b811461136557600080fd5b50565b60008135905061137781611351565b92915050565b600060208284031215611393576113926110d5565b5b60006113a184828501611368565b91505092915050565b60008115159050919050565b6113bf816113aa565b82525050565b60006020820190506113da60008301846113b6565b92915050565b6000819050919050565b6113f3816113e0565b81146113fe57600080fd5b50565b600081359050611410816113ea565b92915050565b60006020828403121561142c5761142b6110d5565b5b600061143a84828501611401565b91505092915050565b61144c816113e0565b82525050565b60006020820190506114676000830184611443565b92915050565b6000611478826111e1565b9050919050565b6114888161146d565b811461149357600080fd5b50565b6000813590506114a58161147f565b92915050565b600080604083850312156114c2576114c16110d5565b5b60006114d085828601611401565b92505060206114e185828601611496565b9150509250929050565b600082825260208201905092915050565b600061150782611142565b61151181856114eb565b935061152181856020860161115e565b61152a81611188565b840191505092915050565b61153e816110df565b82525050565b61154d81611201565b82525050565b61155c81611278565b82525050565b600061010083016000830151848203600086015261158082826114fc565b9150506020830151848203602086015261159a82826114fc565b91505060408301516115af6040860182611535565b5060608301516115c26060860182611544565b5060808301516115d56080860182611553565b5060a08301516115e860a0860182611535565b5060c08301516115fb60c0860182611535565b5060e083015161160e60e0860182611535565b508091505092915050565b600060208201905081810360008301526116338184611562565b905092915050565b6004811061164857600080fd5b50565b60008135905061165a8161163b565b92915050565b60008060408385031215611677576116766110d5565b5b600061168585828601611100565b92505060206116968582860161164b565b9150509250929050565b600081519050919050565b600082825260208201905092915050565b6000819050602082019050919050565b60006101008301600083015184820360008601526116ea82826114fc565b9150506020830151848203602086015261170482826114fc565b91505060408301516117196040860182611535565b50606083015161172c6060860182611544565b50608083015161173f6080860182611553565b5060a083015161175260a0860182611535565b5060c083015161176560c0860182611535565b5060e083015161177860e0860182611535565b508091505092915050565b600061178f83836116cc565b905092915050565b6000602082019050919050565b60006117af826116a0565b6117b981856116ab565b9350836020820285016117cb856116bc565b8060005b8581101561180757848403895281516117e88582611783565b94506117f383611797565b925060208a019950506001810190506117cf565b50829750879550505050505092915050565b6000602082019050818103600083015261183381846117a4565b905092915050565b600080fd5b600080fd5b600080fd5b60008083601f8401126118605761185f61183b565b5b8235905067ffffffffffffffff81111561187d5761187c611840565b5b60208301915083600182028301111561189957611898611845565b5b9250929050565b6118a981611201565b81146118b457600080fd5b50565b6000813590506118c6816118a0565b92915050565b600080600080600080608087890312156118e9576118e86110d5565b5b600087013567ffffffffffffffff811115611907576119066110da565b5b61191389828a0161184a565b9650965050602087013567ffffffffffffffff811115611936576119356110da565b5b61194289828a0161184a565b9450945050604061195589828a01611100565b925050606061196689828a016118b7565b9150509295509295509295565b600060208201905061198860008301846111d2565b92915050565b7f4e487b7100000000000000000000000000000000000000000000000000000000600052602260045260246000fd5b600060028204905060018216806119d557607f821691505b6020821081036119e8576119e761198e565b5b50919050565b7f4e487b7100000000000000000000000000000000000000000000000000000000600052603260045260246000fd5b6000602082019050611a32600083018461128a565b92915050565b7f4e487b7100000000000000000000000000000000000000000000000000000000600052604160045260246000fd5b60008190508160005260206000209050919050565b60006020601f8301049050919050565b600082821b905092915050565b600060088302611ac97fffffffffffffffffffffffffffffffffffffffffffffffffffffffffffffffff82611a8c565b611ad38683611a8c565b95508019841693508086168417925050509392505050565b6000819050919050565b6000611b10611b0b611b06846110df565b611aeb565b6110df565b9050919050565b6000819050919050565b611b2a83611af5565b611b3e611b3682611b17565b848454611a99565b825550505050565b600090565b611b53611b46565b611b5e818484611b21565b505050565b5b81811015611b8257611b77600082611b4b565b600181019050611b64565b5050565b601f821115611bc757611b9881611a67565b611ba184611a7c565b81016020851015611bb0578190505b611bc4611bbc85611a7c565b830182611b63565b50505b505050565b600082821c905092915050565b6000611bea60001984600802611bcc565b1980831691505092915050565b6000611c038383611bd9565b9150826002028217905092915050565b611c1c82611142565b67ffffffffffffffff811115611c3557611c34611a38565b5b611c3f82546119bd565b611c4a828285611b86565b600060209050601f831160018114611c7d5760008415611c6b578287015190505b611c758582611bf7565b865550611cdd565b601f198416611c8b86611a67565b60005b82811015611cb357848901518255600182019150602085019450602081019050611c8e565b86831015611cd05784890151611ccc601f891682611bd9565b8355505b6001600288020188555050505b505050505050565b7f4e487b7100000000000000000000000000000000000000000000000000000000600052601160045260246000fd5b6000611d1f826110df565b9150611d2a836110df565b9250828203905081811115611d4257611d41611ce5565b5b92915050565b611d518161146d565b82525050565b6000604082019050611d6c6000830185611d48565b611d796020830184611443565b939250505056fea2646970667358221220f7d0dd9327162225f3277bd679de22510e7b2dc16bfdfa3c8930cb4b7027ab6164736f6c63430008140033",
  "linkReferences": {},
  "deployedLinkReferences": {}
}