{
  "_format": "hh-sol-artifact-1",
  "contractName": "Proposal",
  "sourceName": "contracts/Proposal.sol",
  "abi": [
    {
      "inputs": [
        {
          "internalType": "address",
          "name": "admin",
          "type": "address"
        }
      ],
      "stateMutability": "nonpayable",
      "type": "constructor"
    },
    {
      "inputs": [],
      "name": "AccessControlBadConfirmation",
      "type": "error"
    },
    {
      "inputs": [
        {
          "internalType": "address",
          "name": "account",
          "type": "address"
        },
        {
          "internalType": "bytes32",
          "name": "neededRole",
          "type": "bytes32"
        }
      ],
      "name": "AccessControlUnauthorizedAccount",
      "type": "error"
    },
    {
      "anonymous": false,
      "inputs": [
        {
          "indexed": true,
          "internalType": "uint256",
          "name": "id",
          "type": "uint256"
        },
        {
          "indexed": true,
          "internalType": "address",
          "name": "proposer",
          "type": "address"
        }
      ],
      "name": "ProposalCreated",
      "type": "event"
    },
    {
      "anonymous": false,
      "inputs": [
        {
          "indexed": true,
          "internalType": "uint256",
          "name": "id",
          "type": "uint256"
        },
        {
          "indexed": false,
          "internalType": "enum Proposal.Status",
          "name": "status",
          "type": "uint8"
        }
      ],
      "name": "ProposalStatusChanged",
      "type": "event"
    },
    {
      "anonymous": false,
      "inputs": [
        {
          "indexed": true,
          "internalType": "bytes32",
          "name": "role",
          "type": "bytes32"
        },
        {
          "indexed": true,
          "internalType": "bytes32",
          "name": "previousAdminRole",
          "type": "bytes32"
        },
        {
          "indexed": true,
          "internalType": "bytes32",
          "name": "newAdminRole",
          "type": "bytes32"
        }
      ],
      "name": "RoleAdminChanged",
      "type": "event"
    },
    {
      "anonymous": false,
      "inputs": [
        {
          "indexed": true,
          "internalType": "bytes32",
          "name": "role",
          "type": "bytes32"
        },
        {
          "indexed": true,
          "internalType": "address",
          "name": "account",
          "type": "address"
        },
        {
          "indexed": true,
          "internalType": "address",
          "name": "sender",
          "type": "address"
        }
      ],
      "name": "RoleGranted",
      "type": "event"
    },
    {
      "anonymous": false,
      "inputs": [
        {
          "indexed": true,
          "internalType": "bytes32",
          "name": "role",
          "type": "bytes32"
        },
        {
          "indexed": true,
          "internalType": "address",
          "name": "account",
          "type": "address"
        },
        {
          "indexed": true,
          "internalType": "address",
          "name": "sender",
          "type": "address"
        }
      ],
      "name": "RoleRevoked",
      "type": "event"
    },
    {
      "inputs": [],
      "name": "DEFAULT_ADMIN_ROLE",
      "outputs": [
        {
          "internalType": "bytes32",
          "name": "",
          "type": "bytes32"
        }
      ],
      "stateMutability": "view",
      "type": "function"
    },
    {
      "inputs": [],
      "name": "MEMBER_ROLE",
      "outputs": [
        {
          "internalType": "bytes32",
          "name": "",
          "type": "bytes32"
        }
      ],
      "stateMutability": "view",
      "type": "function"
    },
    {
      "inputs": [
        {
          "internalType": "string",
          "name": "title",
          "type": "string"
        },
        {
          "internalType": "string",
          "name": "description",
          "type": "string"
        },
        {
          "internalType": "uint256",
          "name": "amount",
          "type": "uint256"
        },
        {
          "internalType": "address payable",
          "name": "recipient",
          "type": "address"
        }
      ],
      "name": "createProposal",
      "outputs": [
        {
          "internalType": "uint256",
          "name": "",
          "type": "uint256"
        }
      ],
      "stateMutability": "nonpayable",
      "type": "function"
    },
    {
      "inputs": [],
      "name": "getAllProposals",
      "outputs": [
        {
          "components": [
            {
              "internalType": "string",
              "name": "title",
              "type": "string"
            },
            {
              "internalType": "string",
              "name": "description",
              "type": "string"
            },
            {
              "internalType": "uint256",
              "name": "amount",
              "type": "uint256"
            },
            {
              "internalType": "address payable",
              "name": "recipient",
              "type": "address"
            },
            {
              "internalType": "enum Proposal.Status",
              "name": "status",
              "type": "uint8"
            },
            {
              "internalType": "uint256",
              "name": "votesFor",
              "type": "uint256"
            },
            {
              "internalType": "uint256",
              "name": "votesAgainst",
              "type": "uint256"
            },
            {
              "internalType": "uint256",
              "name": "startTime",
              "type": "uint256"
            }
          ],
          "internalType": "struct Proposal.ProposalData[]",
          "name": "",
          "type": "tuple[]"
        }
      ],
      "stateMutability": "view",
      "type": "function"
    },
    {
      "inputs": [
        {
          "internalType": "uint256",
          "name": "id",
          "type": "uint256"
        }
      ],
      "name": "getProposal",
      "outputs": [
        {
          "components": [
            {
              "internalType": "string",
              "name": "title",
              "type": "string"
            },
            {
              "internalType": "string",
              "name": "description",
              "type": "string"
            },
            {
              "internalType": "uint256",
              "name": "amount",
              "type": "uint256"
            },
            {
              "internalType": "address payable",
              "name": "recipient",
              "type": "address"
            },
            {
              "internalType": "enum Proposal.Status",
              "name": "status",
              "type": "uint8"
            },
            {
              "internalType": "uint256",
              "name": "votesFor",
              "type": "uint256"
            },
            {
              "internalType": "uint256",
              "name": "votesAgainst",
              "type": "uint256"
            },
            {
              "internalType": "uint256",
              "name": "startTime",
              "type": "uint256"
            }
          ],
          "internalType": "struct Proposal.ProposalData",
          "name": "",
          "type": "tuple"
        }
      ],
      "stateMutability": "view",
      "type": "function"
    },
    {
      "inputs": [
        {
          "internalType": "bytes32",
          "name": "role",
          "type": "bytes32"
        }
      ],
      "name": "getRoleAdmin",
      "outputs": [
        {
          "internalType": "bytes32",
          "name": "",
          "type": "bytes32"
        }
      ],
      "stateMutability": "view",
      "type": "function"
    },
    {
      "inputs": [
        {
          "internalType": "bytes32",
          "name": "role",
          "type": "bytes32"
        },
        {
          "internalType": "address",
          "name": "account",
          "type": "address"
        }
      ],
      "name": "grantRole",
      "outputs": [],
      "stateMutability": "nonpayable",
      "type": "function"
    },
    {
      "inputs": [
        {
          "internalType": "bytes32",
          "name": "role",
          "type": "bytes32"
        },
        {
          "internalType": "address",
          "name": "account",
          "type": "address"
        }
      ],
      "name": "hasRole",
      "outputs": [
        {
          "internalType": "bool",
          "name": "",
          "type": "bool"
        }
      ],
      "stateMutability": "view",
      "type": "function"
    },
    {
      "inputs": [
        {
          "internalType": "uint256",
          "name": "",
          "type": "uint256"
        }
      ],
      "name": "proposals",
      "outputs": [
        {
          "internalType": "string",
          "name": "title",
          "type": "string"
        },
        {
          "internalType": "string",
          "name": "description",
          "type": "string"
        },
        {
          "internalType": "uint256",
          "name": "amount",
          "type": "uint256"
        },
        {
          "internalType": "address payable",
          "name": "recipient",
          "type": "address"
        },
        {
          "internalType": "enum Proposal.Status",
          "name": "status",
          "type": "uint8"
        },
        {
          "internalType": "uint256",
          "name": "votesFor",
          "type": "uint256"
        },
        {
          "internalType": "uint256",
          "name": "votesAgainst",
          "type": "uint256"
        },
        {
          "internalType": "uint256",
          "name": "startTime",
          "type": "uint256"
        }
      ],
      "stateMutability": "view",
      "type": "function"
    },
    {
      "inputs": [
        {
          "internalType": "bytes32",
          "name": "role",
          "type": "bytes32"
        },
        {
          "internalType": "address",
          "name": "callerConfirmation",
          "type": "address"
        }
      ],
      "name": "renounceRole",
      "outputs": [],
      "stateMutability": "nonpayable",
      "type": "function"
    },
    {
      "inputs": [
        {
          "internalType": "bytes32",
          "name": "role",
          "type": "bytes32"
        },
        {
          "internalType": "address",
          "name": "account",
          "type": "address"
        }
      ],
      "name": "revokeRole",
      "outputs": [],
      "stateMutability": "nonpayable",
      "type": "function"
    },
    {
      "inputs": [
        {
          "internalType": "uint256",
          "name": "id",
          "type": "uint256"
        },
        {
          "internalType": "enum Proposal.Status",
          "name": "status",
          "type": "uint8"
        }
      ],
      "name": "setProposalStatus",
      "outputs": [],
      "stateMutability": "nonpayable",
      "type": "function"
    },
    {
      "inputs": [
        {
          "internalType": "bytes4",
          "name": "interfaceId",
          "type": "bytes4"
        }
      ],
      "name": "supportsInterface",
      "outputs": [
        {
          "internalType": "bool",
          "name": "",
          "type": "bool"
        }
      ],
      "stateMutability": "view",
      "type": "function"
    }
  ],
  "bytecode": "0x60803461007257601f61107338819003918201601f19168301916001600160401b038311848410176100775780849260209460405283398101031261007257516001600160a01b0381168103610072578061005c6100629261008d565b5061010b565b50604051610ea790816101ac8239f35b600080fd5b634e487b7160e01b600052604160045260246000fd5b6001600160a01b031660008181527fad3228b676f7d3cd4284a5443f17f1962b36e491b30a40b2405849e597ba5fb5602052604081205490919060ff1661010757818052816020526040822081835260205260408220600160ff1982541617905533916000805160206110538339815191528180a4600190565b5090565b6001600160a01b031660008181527f30710e496c9a8631e387d1ff5062c226d4ce9c9e008bff1f22ae157290ccbd6260205260408120549091907f829b824e2329e205435d941c9f13baf578548505283d29261236d8e6596d46369060ff166101a657808352826020526040832082845260205260408320600160ff19825416179055600080516020611053833981519152339380a4600190565b50509056fe6080604052600436101561001257600080fd5b60003560e01c8063013cf08b1461092857806301ffc9a7146108d2578063248a9ca3146108a35780632f2ff15d1461087257806336568abe1461083957806391d14854146107f9578063a10f469e146107be578063a217fddf146107a2578063c7f758a814610727578063cbe9461414610667578063cceb68f51461056d578063d547741f1461053a5763e5ee89cc146100ab57600080fd5b346105355760803660031901126105355760043567ffffffffffffffff8111610535576100dc903690600401610c41565b9060243567ffffffffffffffff8111610535576100fd903690600401610c41565b6064356001600160a01b0381169390849003610535573360009081527f30710e496c9a8631e387d1ff5062c226d4ce9c9e008bff1f22ae157290ccbd6260205260409020547f829b824e2329e205435d941c9f13baf578548505283d29261236d8e6596d46369060ff161561051757509061018a61019393926040519661018388610a72565b3691610d88565b85523691610d88565b60208301526044356040830152606082015260006080820152600060a0820152600060c08201524260e082015260015468010000000000000000811015610434578060016101e492016001556109e7565b91909161050157805191825167ffffffffffffffff8111610434576102098254610a38565b601f81116104bd575b506020601f8211600114610455578192939460009261044a575b50508160011b916000199060031b1c19161781555b602082015191825167ffffffffffffffff8111610434576102656001840154610a38565b601f81116103ed575b506020601f821160011461037f5781929394600092610374575b50508160011b916000199060031b1c19161760018301555b60408101516002830155600382019060018060a01b036060820151166bffffffffffffffffffffffff60a01b835416178255608081015190600482101561035e576102ef60e092600694610dcf565b60a0810151600485015560c08101516005850155015191015560015460001981019081116103485760405160209133817fcd423cc1203c0af96b9b3d68d73b3064a69de2d14450bb7181c5e5df2132b358600080a38152f35b634e487b7160e01b600052601160045260246000fd5b634e487b7160e01b600052602160045260246000fd5b015190503880610288565b6001840160005260206000209060005b601f19841681106103d55750600193949583601f198116106103bc575b505050811b0160018301556102a0565b015160001960f88460031b161c191690553880806103ac565b9091602060018192858a01518155019301910161038f565b600184016000526020600020601f830160051c81016020841061042d575b601f830160051c8201811061042157505061026e565b6000815560010161040b565b508061040b565b634e487b7160e01b600052604160045260246000fd5b01519050388061022c565b8260005260206000209060005b601f19841681106104a55750600193949583601f1981161061048c575b505050811b018155610241565b015160001960f88460031b161c1916905538808061047f565b9091602060018192858a015181550193019101610462565b826000526020600020601f830160051c8101602084106104fa575b601f830160051c820181106104ee575050610212565b600081556001016104d8565b50806104d8565b634e487b7160e01b600052600060045260246000fd5b6044906040519063e2517d3f60e01b82523360048301526024820152fd5b600080fd5b346105355761056b61054b36610ba4565b90806000526000602052610566600160406000200154610c6f565b610d13565b005b34610535576000366003190112610535576001805467ffffffffffffffff811161043457906040519060206105a7818560051b0184610a8f565b8383528083019384836000527fb10e2d527612073b26eecdfd717e6a320cf44b4afac2b0732d9fcbe2b7fa0cf66000915b8383106106405750505050604051928184019082855251809152604084019160408260051b86010195926000905b8382106106135786880387f35b9091929394838061062f839a603f198b82030186528951610bca565b999701959493919091019101610606565b94600785829997610653859a989a610df3565b8152019201920191909694969593956105d8565b34610535576040366003190112610535576004356024356004811015610535573360009081527fad3228b676f7d3cd4284a5443f17f1962b36e491b30a40b2405849e597ba5fb5602052604090205460ff1615610708576020816106f87f3346abf262ac5179e9052765fb72484e0baab1f356f08442bb7a3054147631de9360036106f1876109e7565b5001610dcf565b6107056040518092610b97565ba2005b60405163e2517d3f60e01b815233600482015260006024820152604490fd5b3461053557602036600319011261053557600060e060405161074881610a72565b60608152606060208201528260408201528260608201528260808201528260a08201528260c0820152015261079e61078a6107846004356109e7565b50610df3565b604051918291602083526020830190610bca565b0390f35b3461053557600036600319011261053557602060405160008152f35b346105355760003660031901126105355760206040517f829b824e2329e205435d941c9f13baf578548505283d29261236d8e6596d46368152f35b346105355761080736610ba4565b90600052600060205260406000209060018060a01b0316600052602052602060ff604060002054166040519015158152f35b346105355761084736610ba4565b336001600160a01b038216036108605761056b91610d13565b60405163334bd91960e11b8152600490fd5b346105355761056b61088336610ba4565b9080600052600060205261089e600160406000200154610c6f565b610c95565b346105355760203660031901126105355760043560005260006020526020600160406000200154604051908152f35b346105355760203660031901126105355760043563ffffffff60e01b811680910361053557602090637965db0b60e01b8114908115610917575b506040519015158152f35b6301ffc9a760e01b1490508261090c565b34610535576020366003190112610535576004356001548110156105355761095261099f916109e7565b5061095c81610ab1565b9061096960018201610ab1565b60028201549160038101546109d46004830154916109ad6006600586015495015495604051998a99610100808c528b0190610b57565b9089820360208b0152610b57565b60408801969096526001600160a01b0381166060880152608087019060a01c60ff16610b97565b60a085015260c084015260e08301520390f35b600154811015610a22576007906001600052027fb10e2d527612073b26eecdfd717e6a320cf44b4afac2b0732d9fcbe2b7fa0cf60190600090565b634e487b7160e01b600052603260045260246000fd5b90600182811c92168015610a68575b6020831014610a5257565b634e487b7160e01b600052602260045260246000fd5b91607f1691610a47565b610100810190811067ffffffffffffffff82111761043457604052565b90601f8019910116810190811067ffffffffffffffff82111761043457604052565b9060405191826000825492610ac584610a38565b908184526001948581169081600014610b345750600114610af1575b5050610aef92500383610a8f565b565b9093915060005260209081600020936000915b818310610b1c575050610aef93508201013880610ae1565b85548884018501529485019487945091830191610b04565b915050610aef94506020925060ff191682840152151560051b8201013880610ae1565b919082519283825260005b848110610b83575050826000602080949584010152601f8019910116010190565b602081830181015184830182015201610b62565b90600482101561035e5752565b604090600319011261053557600435906024356001600160a01b03811681036105355790565b9060e080610bf6610be48551610100808752860190610b57565b60208601518582036020870152610b57565b936040810151604085015260018060a01b036060820151166060850152610c2560808201516080860190610b97565b60a081015160a085015260c081015160c0850152015191015290565b9181601f840112156105355782359167ffffffffffffffff8311610535576020838186019501011161053557565b80600052600060205260406000203360005260205260ff60406000205416156105175750565b9060009180835282602052604083209160018060a01b03169182845260205260ff60408420541615600014610d0e57808352826020526040832082845260205260408320600160ff198254161790557f2f8788117e7eff1d82e926ec794901d17c78024a50270940304540a733656f0d339380a4600190565b505090565b9060009180835282602052604083209160018060a01b03169182845260205260ff604084205416600014610d0e5780835282602052604083208284526020526040832060ff1981541690557ff6391f5c32d9c69d2a47ea670b442974b53935d1edc7fd64eb21e047a839171b339380a4600190565b92919267ffffffffffffffff82116104345760405191610db2601f8201601f191660200184610a8f565b829481845281830111610535578281602093846000960137010152565b90600481101561035e57815460ff60a01b191660a09190911b60ff60a01b16179055565b90604051610e0081610a72565b8092610e0b81610ab1565b8252610e1960018201610ab1565b60208301526002810154604083015260038101546001600160a01b038116606084015260a01c60ff16600481101561035e5760e0916006916080850152600481015460a0850152600581015460c0850152015491015256fea26469706673582212209bac03192fb3b6156c1713ca4f1cb5345c9f6006d809d76478001fc16cace1e664736f6c634300081400332f8788117e7eff1d82e926ec794901d17c78024a50270940304540a733656f0d",
  "linkReferences": {},
  "deployedLinkReferences": {}
}