{
  "_format": "hh-sol-artifact-1",
  "contractName": "Proposal",
  "sourceName": "contracts/Proposal.sol",
  "abi": [
    {
      "inputs": [
        {
          "internalType": "address",
          "name": "initialAdmin",
          "type": "address"
        },
        {
          "internalType": "address",
          "name": "factoryAddress",
          "type": "address"
        }
      ],
      "stateMutability": "nonpayable",
      "type": "constructor"
    },
    {
      "inputs": [],
      "name": "AccessControlBadConfirmation",
      "type": "error"
    },
    {
      "inputs": [
        {
          "internalType": "address",
          "name": "account",
          "type": "address"
        },
        {
          "internalType": "bytes32",
          "name": "neededRole",
          "type": "bytes32"
        }
      ],
      "name": "AccessControlUnauthorizedAccount",
      "type": "error"
    },
    {
      "anonymous": false,
      "inputs": [
        {
          "indexed": true,
          "internalType": "address",
          "name": "member",
          "type": "address"
        },
        {
          "indexed": false,
          "internalType": "uint256",
          "name": "newScore",
          "type": "uint256"
        }
      ],
      "name": "GlassScoreChanged",
      "type": "event"
    },
    {
      "anonymous": false,
      "inputs": [
        {
          "indexed": true,
          "internalType": "uint256",
          "name": "id",
          "type": "uint256"
        },
        {
          "indexed": true,
          "internalType": "address",
          "name": "proposer",
          "type": "address"
        }
      ],
      "name": "ProposalCreated",
      "type": "event"
    },
    {
      "anonymous": false,
      "inputs": [
        {
          "indexed": true,
          "internalType": "uint256",
          "name": "id",
          "type": "uint256"
        },
        {
          "indexed": false,
          "internalType": "enum Proposal.Status",
          "name": "status",
          "type": "uint8"
        }
      ],
      "name": "ProposalStatusChanged",
      "type": "event"
    },
    {
      "anonymous": false,
      "inputs": [
        {
          "indexed": true,
          "internalType": "bytes32",
          "name": "role",
          "type": "bytes32"
        },
        {
          "indexed": true,
          "internalType": "bytes32",
          "name": "previousAdminRole",
          "type": "bytes32"
        },
        {
          "indexed": true,
          "internalType": "bytes32",
          "name": "newAdminRole",
          "type": "bytes32"
        }
      ],
      "name": "RoleAdminChanged",
      "type": "event"
    },
    {
      "anonymous": false,
      "inputs": [
        {
          "indexed": true,
          "internalType": "bytes32",
          "name": "role",
          "type": "bytes32"
        },
        {
          "indexed": true,
          "internalType": "address",
          "name": "account",
          "type": "address"
        },
        {
          "indexed": true,
          "internalType": "address",
          "name": "sender",
          "type": "address"
        }
      ],
      "name": "RoleGranted",
      "type": "event"
    },
    {
      "anonymous": false,
      "inputs": [
        {
          "indexed": true,
          "internalType": "bytes32",
          "name": "role",
          "type": "bytes32"
        },
        {
          "indexed": true,
          "internalType": "address",
          "name": "account",
          "type": "address"
        },
        {
          "indexed": true,
          "internalType": "address",
          "name": "sender",
          "type": "address"
        }
      ],
      "name": "RoleRevoked",
      "type": "event"
    },
    {
      "anonymous": false,
      "inputs": [
        {
          "indexed": true,
          "internalType": "uint256",
          "name": "proposalId",
          "type": "uint256"
        },
        {
          "indexed": true,
          "internalType": "address",
          "name": "voter",
          "type": "address"
        },
        {
          "indexed": false,
          "internalType": "uint8",
          "name": "choice",
          "type": "uint8"
        }
      ],
      "name": "Voted",
      "type": "event"
    },
    {
      "inputs": [],
      "name": "DAO_ROLE",
      "outputs": [
        {
          "internalType": "bytes32",
          "name": "",
          "type": "bytes32"
        }
      ],
      "stateMutability": "view",
      "type": "function"
    },
    {
      "inputs": [],
      "name": "DEFAULT_ADMIN_ROLE",
      "outputs": [
        {
          "internalType": "bytes32",
          "name": "",
          "type": "bytes32"
        }
      ],
      "stateMutability": "view",
      "type": "function"
    },
    {
      "inputs": [],
      "name": "MEMBER_ROLE",
      "outputs": [
        {
          "internalType": "bytes32",
          "name": "",
          "type": "bytes32"
        }
      ],
      "stateMutability": "view",
      "type": "function"
    },
    {
      "inputs": [
        {
          "internalType": "address",
          "name": "member",
          "type": "address"
        },
        {
          "internalType": "uint256",
          "name": "amount",
          "type": "uint256"
        }
      ],
      "name": "addGlassScore",
      "outputs": [],
      "stateMutability": "nonpayable",
      "type": "function"
    },
    {
      "inputs": [
        {
          "internalType": "address",
          "name": "member",
          "type": "address"
        }
      ],
      "name": "addPenaltyAndExpel",
      "outputs": [],
      "stateMutability": "nonpayable",
      "type": "function"
    },
    {
      "inputs": [
        {
          "components": [
            {
              "internalType": "string",
              "name": "title",
              "type": "string"
            },
            {
              "internalType": "string",
              "name": "description",
              "type": "string"
            },
            {
              "internalType": "uint256",
              "name": "amount",
              "type": "uint256"
            },
            {
              "internalType": "address payable",
              "name": "recipient",
              "type": "address"
            },
            {
              "internalType": "bool",
              "name": "requireVote",
              "type": "bool"
            },
            {
              "internalType": "string",
              "name": "sanctionType",
              "type": "string"
            },
            {
              "internalType": "uint256",
              "name": "beforeValue",
              "type": "uint256"
            },
            {
              "internalType": "uint256",
              "name": "afterValue",
              "type": "uint256"
            },
            {
              "internalType": "address",
              "name": "targetMember",
              "type": "address"
            }
          ],
          "internalType": "struct Proposal.ProposalInput",
          "name": "input",
          "type": "tuple"
        },
        {
          "internalType": "address",
          "name": "proposer",
          "type": "address"
        }
      ],
      "name": "createProposal",
      "outputs": [
        {
          "internalType": "uint256",
          "name": "",
          "type": "uint256"
        }
      ],
      "stateMutability": "nonpayable",
      "type": "function"
    },
    {
      "inputs": [],
      "name": "daoAddress",
      "outputs": [
        {
          "internalType": "address",
          "name": "",
          "type": "address"
        }
      ],
      "stateMutability": "view",
      "type": "function"
    },
    {
      "inputs": [
        {
          "internalType": "uint256",
          "name": "proposalId",
          "type": "uint256"
        },
        {
          "internalType": "address",
          "name": "member",
          "type": "address"
        }
      ],
      "name": "forceAbstain",
      "outputs": [],
      "stateMutability": "nonpayable",
      "type": "function"
    },
    {
      "inputs": [],
      "name": "getAllMembers",
      "outputs": [
        {
          "internalType": "address[]",
          "name": "",
          "type": "address[]"
        }
      ],
      "stateMutability": "view",
      "type": "function"
    },
    {
      "inputs": [],
      "name": "getAllProposals",
      "outputs": [
        {
          "components": [
            {
              "internalType": "string",
              "name": "title",
              "type": "string"
            },
            {
              "internalType": "string",
              "name": "description",
              "type": "string"
            },
            {
              "internalType": "uint256",
              "name": "amount",
              "type": "uint256"
            },
            {
              "internalType": "address payable",
              "name": "recipient",
              "type": "address"
            },
            {
              "internalType": "enum Proposal.Status",
              "name": "status",
              "type": "uint8"
            },
            {
              "internalType": "uint256",
              "name": "votesFor",
              "type": "uint256"
            },
            {
              "internalType": "uint256",
              "name": "votesAgainst",
              "type": "uint256"
            },
            {
              "internalType": "uint256",
              "name": "votesAbstain",
              "type": "uint256"
            },
            {
              "internalType": "uint256",
              "name": "startTime",
              "type": "uint256"
            },
            {
              "internalType": "address",
              "name": "proposer",
              "type": "address"
            },
            {
              "internalType": "bool",
              "name": "requireVote",
              "type": "bool"
            },
            {
              "internalType": "string",
              "name": "sanctionType",
              "type": "string"
            },
            {
              "internalType": "uint256",
              "name": "beforeValue",
              "type": "uint256"
            },
            {
              "internalType": "uint256",
              "name": "afterValue",
              "type": "uint256"
            },
            {
              "internalType": "address",
              "name": "targetMember",
              "type": "address"
            }
          ],
          "internalType": "struct Proposal.ProposalData[]",
          "name": "",
          "type": "tuple[]"
        }
      ],
      "stateMutability": "view",
      "type": "function"
    },
    {
      "inputs": [],
      "name": "getMemberCount",
      "outputs": [
        {
          "internalType": "uint256",
          "name": "",
          "type": "uint256"
        }
      ],
      "stateMutability": "view",
      "type": "function"
    },
    {
      "inputs": [
        {
          "internalType": "uint256",
          "name": "id",
          "type": "uint256"
        }
      ],
      "name": "getProposal",
      "outputs": [
        {
          "components": [
            {
              "internalType": "string",
              "name": "title",
              "type": "string"
            },
            {
              "internalType": "string",
              "name": "description",
              "type": "string"
            },
            {
              "internalType": "uint256",
              "name": "amount",
              "type": "uint256"
            },
            {
              "internalType": "address payable",
              "name": "recipient",
              "type": "address"
            },
            {
              "internalType": "enum Proposal.Status",
              "name": "status",
              "type": "uint8"
            },
            {
              "internalType": "uint256",
              "name": "votesFor",
              "type": "uint256"
            },
            {
              "internalType": "uint256",
              "name": "votesAgainst",
              "type": "uint256"
            },
            {
              "internalType": "uint256",
              "name": "votesAbstain",
              "type": "uint256"
            },
            {
              "internalType": "uint256",
              "name": "startTime",
              "type": "uint256"
            },
            {
              "internalType": "address",
              "name": "proposer",
              "type": "address"
            },
            {
              "internalType": "bool",
              "name": "requireVote",
              "type": "bool"
            },
            {
              "internalType": "string",
              "name": "sanctionType",
              "type": "string"
            },
            {
              "internalType": "uint256",
              "name": "beforeValue",
              "type": "uint256"
            },
            {
              "internalType": "uint256",
              "name": "afterValue",
              "type": "uint256"
            },
            {
              "internalType": "address",
              "name": "targetMember",
              "type": "address"
            }
          ],
          "internalType": "struct Proposal.ProposalData",
          "name": "",
          "type": "tuple"
        }
      ],
      "stateMutability": "view",
      "type": "function"
    },
    {
      "inputs": [
        {
          "internalType": "bytes32",
          "name": "role",
          "type": "bytes32"
        }
      ],
      "name": "getRoleAdmin",
      "outputs": [
        {
          "internalType": "bytes32",
          "name": "",
          "type": "bytes32"
        }
      ],
      "stateMutability": "view",
      "type": "function"
    },
    {
      "inputs": [
        {
          "internalType": "address",
          "name": "",
          "type": "address"
        }
      ],
      "name": "glassScore",
      "outputs": [
        {
          "internalType": "uint256",
          "name": "",
          "type": "uint256"
        }
      ],
      "stateMutability": "view",
      "type": "function"
    },
    {
      "inputs": [
        {
          "internalType": "bytes32",
          "name": "role",
          "type": "bytes32"
        },
        {
          "internalType": "address",
          "name": "account",
          "type": "address"
        }
      ],
      "name": "grantRole",
      "outputs": [],
      "stateMutability": "nonpayable",
      "type": "function"
    },
    {
      "inputs": [
        {
          "internalType": "bytes32",
          "name": "role",
          "type": "bytes32"
        },
        {
          "internalType": "address",
          "name": "account",
          "type": "address"
        }
      ],
      "name": "hasRole",
      "outputs": [
        {
          "internalType": "bool",
          "name": "",
          "type": "bool"
        }
      ],
      "stateMutability": "view",
      "type": "function"
    },
    {
      "inputs": [
        {
          "internalType": "uint256",
          "name": "",
          "type": "uint256"
        },
        {
          "internalType": "address",
          "name": "",
          "type": "address"
        }
      ],
      "name": "hasVoted",
      "outputs": [
        {
          "internalType": "bool",
          "name": "",
          "type": "bool"
        }
      ],
      "stateMutability": "view",
      "type": "function"
    },
    {
      "inputs": [
        {
          "internalType": "uint256",
          "name": "proposalId",
          "type": "uint256"
        },
        {
          "internalType": "address",
          "name": "voter",
          "type": "address"
        }
      ],
      "name": "hasVotedForProposal",
      "outputs": [
        {
          "internalType": "bool",
          "name": "",
          "type": "bool"
        }
      ],
      "stateMutability": "view",
      "type": "function"
    },
    {
      "inputs": [
        {
          "internalType": "address",
          "name": "",
          "type": "address"
        }
      ],
      "name": "isMember",
      "outputs": [
        {
          "internalType": "bool",
          "name": "",
          "type": "bool"
        }
      ],
      "stateMutability": "view",
      "type": "function"
    },
    {
      "inputs": [
        {
          "internalType": "uint256",
          "name": "",
          "type": "uint256"
        }
      ],
      "name": "members",
      "outputs": [
        {
          "internalType": "address",
          "name": "",
          "type": "address"
        }
      ],
      "stateMutability": "view",
      "type": "function"
    },
    {
      "inputs": [
        {
          "internalType": "address",
          "name": "",
          "type": "address"
        }
      ],
      "name": "penaltyCount",
      "outputs": [
        {
          "internalType": "uint256",
          "name": "",
          "type": "uint256"
        }
      ],
      "stateMutability": "view",
      "type": "function"
    },
    {
      "inputs": [
        {
          "internalType": "uint256",
          "name": "",
          "type": "uint256"
        }
      ],
      "name": "proposals",
      "outputs": [
        {
          "internalType": "string",
          "name": "title",
          "type": "string"
        },
        {
          "internalType": "string",
          "name": "description",
          "type": "string"
        },
        {
          "internalType": "uint256",
          "name": "amount",
          "type": "uint256"
        },
        {
          "internalType": "address payable",
          "name": "recipient",
          "type": "address"
        },
        {
          "internalType": "enum Proposal.Status",
          "name": "status",
          "type": "uint8"
        },
        {
          "internalType": "uint256",
          "name": "votesFor",
          "type": "uint256"
        },
        {
          "internalType": "uint256",
          "name": "votesAgainst",
          "type": "uint256"
        },
        {
          "internalType": "uint256",
          "name": "votesAbstain",
          "type": "uint256"
        },
        {
          "internalType": "uint256",
          "name": "startTime",
          "type": "uint256"
        },
        {
          "internalType": "address",
          "name": "proposer",
          "type": "address"
        },
        {
          "internalType": "bool",
          "name": "requireVote",
          "type": "bool"
        },
        {
          "internalType": "string",
          "name": "sanctionType",
          "type": "string"
        },
        {
          "internalType": "uint256",
          "name": "beforeValue",
          "type": "uint256"
        },
        {
          "internalType": "uint256",
          "name": "afterValue",
          "type": "uint256"
        },
        {
          "internalType": "address",
          "name": "targetMember",
          "type": "address"
        }
      ],
      "stateMutability": "view",
      "type": "function"
    },
    {
      "inputs": [],
      "name": "renounceFactoryAdminRole",
      "outputs": [],
      "stateMutability": "nonpayable",
      "type": "function"
    },
    {
      "inputs": [
        {
          "internalType": "bytes32",
          "name": "role",
          "type": "bytes32"
        },
        {
          "internalType": "address",
          "name": "callerConfirmation",
          "type": "address"
        }
      ],
      "name": "renounceRole",
      "outputs": [],
      "stateMutability": "nonpayable",
      "type": "function"
    },
    {
      "inputs": [
        {
          "internalType": "bytes32",
          "name": "role",
          "type": "bytes32"
        },
        {
          "internalType": "address",
          "name": "account",
          "type": "address"
        }
      ],
      "name": "revokeRole",
      "outputs": [],
      "stateMutability": "nonpayable",
      "type": "function"
    },
    {
      "inputs": [
        {
          "internalType": "address",
          "name": "_dao",
          "type": "address"
        }
      ],
      "name": "setDaoAddress",
      "outputs": [],
      "stateMutability": "nonpayable",
      "type": "function"
    },
    {
      "inputs": [
        {
          "internalType": "uint256",
          "name": "id",
          "type": "uint256"
        },
        {
          "internalType": "enum Proposal.Status",
          "name": "status",
          "type": "uint8"
        }
      ],
      "name": "setProposalStatus",
      "outputs": [],
      "stateMutability": "nonpayable",
      "type": "function"
    },
    {
      "inputs": [
        {
          "internalType": "address",
          "name": "member",
          "type": "address"
        },
        {
          "internalType": "uint256",
          "name": "amount",
          "type": "uint256"
        }
      ],
      "name": "subGlassScore",
      "outputs": [],
      "stateMutability": "nonpayable",
      "type": "function"
    },
    {
      "inputs": [
        {
          "internalType": "bytes4",
          "name": "interfaceId",
          "type": "bytes4"
        }
      ],
      "name": "supportsInterface",
      "outputs": [
        {
          "internalType": "bool",
          "name": "",
          "type": "bool"
        }
      ],
      "stateMutability": "view",
      "type": "function"
    },
    {
      "inputs": [
        {
          "internalType": "uint256",
          "name": "proposalId",
          "type": "uint256"
        },
        {
          "internalType": "uint8",
          "name": "choice",
          "type": "uint8"
        },
        {
          "internalType": "address",
          "name": "voter",
          "type": "address"
        }
      ],
      "name": "vote",
      "outputs": [],
      "stateMutability": "nonpayable",
      "type": "function"
    }
  ],
  "bytecode": "0x6080346200020c57620023e4601f38829003908101601f19168301906001600160401b038211848310176200021157808491604094859485528339810103126200020c576200004e8262000227565b906200005e602080940162000227565b926200006a836200023c565b506001600160a01b0393808516620001f9575b50600080516020620023c48339815191529260009484865285835260018487200154808752848720338852845260ff858820541615620001dc5750620000c382620002bc565b5060065468010000000000000000811015620001c8576001810180600655811015620001b457908693929160068552838520019116908160018060a01b031982541617905580835260078252838320600160ff19825416179055600482526032848420557fdb51946147af8f68f24b69cdb99d868cc4b53b75dce4e05d8f590bcf5281051c82855160328152a283825252600181842001917fbd79b86ffe0ab8e8776151514217cd7cacd52c909f66475c3af44e129f0b00ff8354927f3b5d4cc60d3ec3516ee8ae083bd60934f6eb2a6c54b1229985c41bfb092b2603809555519480a461205690816200034e8239f35b634e487b7160e01b87526032600452602487fd5b634e487b7160e01b87526041600452602487fd5b60449085519063e2517d3f60e01b82523360048301526024820152fd5b62000204906200023c565b50386200007d565b600080fd5b634e487b7160e01b600052604160045260246000fd5b51906001600160a01b03821682036200020c57565b6001600160a01b031660008181527fad3228b676f7d3cd4284a5443f17f1962b36e491b30a40b2405849e597ba5fb5602052604081205490919060ff16620002b857818052816020526040822081835260205260408220600160ff198254161790553391600080516020620023a48339815191528180a4600190565b5090565b6001600160a01b031660008181527f30710e496c9a8631e387d1ff5062c226d4ce9c9e008bff1f22ae157290ccbd626020526040812054909190600080516020620023c48339815191529060ff166200034857808352826020526040832082845260205260408320600160ff19825416179055600080516020620023a4833981519152339380a4600190565b50509056fe6080604052600436101561001257600080fd5b60003560e01c8063013cf08b146115e557806301ffc9a71461158f57806319cff706146113c05780631f56d126146113865780632131c68c1461135d578063248a9ca31461132e5780632b72ee511461123d5780632f2ff15d1461115057806336568abe146111095780634385963214610ff8578063488cba40146110875780635daf08ca1461104557806362d4f89314610ff85780637c0f6b3514610f4d57806391d1485414610f0057806391dcd5aa14610e83578063997072f714610e655780639a3cac6a14610de4578063a10f469e14610dbb578063a217fddf14610d9f578063a230c52414610d60578063a462e50f14610cb2578063a9330b0e14610c78578063ba86f70a14610ba6578063c7f758a814610af9578063cbe9461414610a87578063cc9aa9ea14610435578063cceb68f514610343578063d547741f146101945763e9c265181461016657600080fd5b3461018f57600036600319011261018f576020604051600080516020611f6a8339815191528152f35b600080fd5b3461018f57604036600319011261018f576004356101b06118d0565b90806000526000602052600080516020611fea8339815191526001916101dc8360406000200154611b89565b6101e68482611ad0565b501480610321575b6101f457005b6001600160a01b039182166000818152600760205260408120805460ff19169055909290825b610233575b505050600090815260036020526040812055005b600680548083101561031a5783908661024b856118e6565b939054600394851b1c161461026c5750505061026690611c8d565b8261021a565b909291945060001993848201918211610304576102ba9361028f61029b936118e6565b9054911b1c16916118e6565b90919082549060031b9160018060a01b03809116831b921b1916179055565b815480156102ee5701906102e56102d0836118e6565b81549060018060a01b039060031b1b19169055565b5581808061021f565b634e487b7160e01b600052603160045260246000fd5b634e487b7160e01b600052601160045260246000fd5b505061021f565b506001600160a01b03821660009081526007602052604090205460ff166101ee565b3461018f57600036600319011261018f57600180546001600160401b03811161041f579060405190602061037c818560051b01846117a4565b838352808301938483600052826000206000915b8383106103f85750505050604051928184019082855251809152604084019160408260051b86010195926000905b8382106103cb5786880387f35b909192939483806103e7839a603f198b82030186528951611901565b9997019594939190910191016103be565b94600d8582999761040b859a989a611e6e565b815201920192019190969496959395610390565b634e487b7160e01b600052604160045260246000fd5b3461018f5760031960403682011261018f576001600160401b036004351161018f57610120600435600401916004353603011261018f576104746118d0565b9061047d611b33565b6104878180611dd2565b919061049860246004350183611dd2565b909290919060043560640135906001600160a01b038216820361018f576084600435013590811515820361018f576104d69060a46004350190611dd2565b60043561010401359691949093916001600160a01b038816880361018f576105779661051361051c936040519b61050c8d611788565b3691611e04565b8a523691611e04565b60208801526004356044013560408801526001600160a01b03908116606088015260006080880181905260a0880181905260c0880181905260e088015242610100880152871661012087015215156101408601523691611e04565b61016083015260043560c481013561018084015260e401356101a08301526001600160a01b03166101c0820152600154600160401b81101561041f578060016105c39201600155611719565b610a7157815180519093906001600160401b03811161041f576105e6835461174e565b601f8111610a2d575b506020601f82116001146109c45781929394956000926109b9575b50508160011b916000199060031b1c19161782555b602083015180519093906001600160401b03811161041f57610644600185015461174e565b601f8111610972575b506020601f82116001146109035781929394956000926108f8575b50508160011b916000199060031b1c19161760018401555b6040810151600284015560608101516003840180546001600160a01b0319166001600160a01b0392909216919091179055608081015160048110156108e2576106cc9060038501611e4a565b60a081810151600485015560c0820151600585015560e0820151600685015561010082015160078501556101208201516008850180546101408501516001600160a81b03199091166001600160a01b03939093169290921791151590921b60ff60a01b1617905561016081015180519093906001600160401b03811161041f57610759600983015461174e565b601f811161089b575b506020601f821160011461082a578190600c94959660009261081f575b50508160011b916000199060031b1c19161760098201555b610180830151600a8201556101a0830151600b8201556101c090920151910180546001600160a01b0319166001600160a01b03929092169190911790556001546000198101919082116103045760405160209290916001600160a01b0316817fcd423cc1203c0af96b9b3d68d73b3064a69de2d14450bb7181c5e5df2132b358600080a38152f35b01519050868061077f565b601f198216956009840160005260206000209660005b818110610883575091600c9596979184600195941061086a575b505050811b016009820155610797565b015160001960f88460031b161c1916905586808061085a565b83830151895560019098019760209384019301610840565b600983016000526020600020601f830160051c8101602084106108db575b601f830160051c820181106108cf575050610762565b600081556001016108b9565b50806108b9565b634e487b7160e01b600052602160045260246000fd5b015190508580610668565b6001850160005260206000209060005b601f198416811061095a575060019394959683601f19811610610941575b505050811b016001840155610680565b015160001960f88460031b161c19169055858080610931565b9091602060018192858b015181550193019101610913565b600185016000526020600020601f830160051c8101602084106109b2575b601f830160051c820181106109a657505061064d565b60008155600101610990565b5080610990565b01519050858061060a565b8360005260206000209060005b601f1984168110610a15575060019394959683601f198116106109fc575b505050811b01825561061f565b015160001960f88460031b161c191690558580806109ef565b9091602060018192858b0151815501930191016109d1565b836000526020600020601f830160051c810160208410610a6a575b601f830160051c82018110610a5e5750506105ef565b60008155600101610a48565b5080610a48565b634e487b7160e01b600052600060045260246000fd5b3461018f57604036600319011261018f57600435602435600481101561018f5760207f3346abf262ac5179e9052765fb72484e0baab1f356f08442bb7a3054147631de91610ad3611b33565b610ae9816003610ae287611719565b5001611e4a565b610af660405180926118ad565ba2005b3461018f57602036600319011261018f5760006101c0604051610b1b81611788565b60608152606060208201528260408201528260608201528260808201528260a08201528260c08201528260e0820152826101008201528261012082015282610140820152606061016082015282610180820152826101a08201520152610ba2610b8e610b88600435611719565b50611e6e565b604051918291602083526020830190611901565b0390f35b3461018f5760208060031936011261018f57610bc06118ba565b90610bc9611b33565b6001600160a01b038281166000818152600384526040902080546001810191908210610304575560005260038252600482604060002054926005541660405192838092639f1f43af60e01b82525afa928315610c6c57600093610c3c575b50501015610c3157005b610c3a90611c9c565b005b9080929350813d8311610c65575b610c5481836117a4565b8101031261018f5751908380610c27565b503d610c4a565b6040513d6000823e3d90fd5b3461018f57602036600319011261018f576001600160a01b03610c996118ba565b1660005260036020526020604060002054604051908152f35b3461018f57604036600319011261018f57600435610cce6118d0565b90610cd7611b33565b610ce081611719565b5081600052600260205260406000209260018060a01b0316928360005260205260ff6040600020541615610d1057005b6006908260005260026020526040600020846000526020526040600020600160ff1982541617905501610d438154611c8d565b905560008051602061200a833981519152602060405160028152a3005b3461018f57602036600319011261018f576001600160a01b03610d816118ba565b166000526007602052602060ff604060002054166040519015158152f35b3461018f57600036600319011261018f57602060405160008152f35b3461018f57600036600319011261018f576020604051600080516020611fea8339815191528152f35b3461018f57602036600319011261018f57610dfd6118ba565b33600090815260008051602061202a833981519152602052604090205460ff1615610e4657600580546001600160a01b0319166001600160a01b038316179055610c3a90611baf565b60405163e2517d3f60e01b815233600482015260006024820152604490fd5b3461018f57600036600319011261018f576020600654604051908152f35b3461018f57600036600319011261018f5733600090815260008051602061202a833981519152602052604090205460ff1615610ec257610c3a336119da565b60405162461bcd60e51b815260206004820152601660248201527521b0b63632b91034b9903737ba1030b71030b236b4b760511b6044820152606490fd5b3461018f57604036600319011261018f57610f196118d0565b600435600052600060205260406000209060018060a01b0316600052602052602060ff604060002054166040519015158152f35b3461018f57600036600319011261018f5760405180600654808352602080930180916006600052846000209060005b86828210610fdb578686610f92828803836117a4565b604051928392818401908285525180915260408401929160005b828110610fbb57505050500390f35b83516001600160a01b031685528695509381019392810192600101610fac565b83546001600160a01b031685529093019260019283019201610f7c565b3461018f57604036600319011261018f576110116118d0565b600435600052600260205260406000209060018060a01b0316600052602052602060ff604060002054166040519015158152f35b3461018f57602036600319011261018f5760043560065481101561018f5761106e6020916118e6565b905460405160039290921b1c6001600160a01b03168152f35b3461018f57604036600319011261018f576110a06118ba565b6110a8611b33565b6001600160a01b03166000818152600460205260409020546024358101908110610304576020600080516020611faa83398151915291606481116000146111035760645b8460005260048352604060002055604051908152a2005b806110ec565b3461018f57604036600319011261018f576111226118d0565b336001600160a01b0382160361113e57610c3a90600435611ad0565b60405163334bd91960e11b8152600490fd5b3461018f57604036600319011261018f57600435600080516020611fea83398151915261117b6118d0565b91806000526000602052611196600160406000200154611b89565b6111a08382611c26565b50148061121a575b6111ae57005b600654600160401b81101561041f578161029b8260016111d194016006556118e6565b60018060a01b03168060005260076020526040600020600160ff1982541617905560046020526032604060002055600080516020611faa833981519152602060405160328152a2005b506001600160a01b03811660009081526007602052604090205460ff16156111a8565b3461018f57604036600319011261018f576112566118ba565b602435611261611b33565b6001600160a01b0382811660008181526004602090815260409091205490939192918481831061132057508103908111610304576004918491935b8060005283835284604060002055600080516020611faa83398151915283604051878152a2600554166040519283809263295e4f4160e11b82525afa928315610c6c576000936112f0575b505010610c3157005b9080929350813d8311611319575b61130881836117a4565b8101031261018f57519083806112e7565b503d6112fe565b91505060049160009361129c565b3461018f57602036600319011261018f5760043560005260006020526020600160406000200154604051908152f35b3461018f57600036600319011261018f576005546040516001600160a01b039091168152602090f35b3461018f57602036600319011261018f576001600160a01b036113a76118ba565b1660005260046020526020604060002054604051908152f35b3461018f57606036600319011261018f576004356024359060ff821680920361018f576044356001600160a01b038116929083900361018f57611401611b33565b61140a82611719565b509060ff600883015460a01c1615611554578260005260209160028352604060002085600052835260ff6040600020541661151f57600084815260028452604080822087835285529020805460ff191660011790558161148f5790600460008051602061200a8339815191529392016114838154611c8d565b90555b604051908152a3005b600182036114bd5790600560008051602061200a8339815191529392016114b68154611c8d565b9055611486565b600282036114e45790600660008051602061200a8339815191529392016114b68154611c8d565b60405162461bcd60e51b8152600481018490526013602482015272496e76616c696420766f74652063686f69636560681b6044820152606490fd5b60405162461bcd60e51b815260048101849052600d60248201526c105b1c9958591e481d9bdd1959609a1b6044820152606490fd5b60405162461bcd60e51b8152602060048201526013602482015272159bdd1a5b99c81b9bdd081c995c5d5a5c9959606a1b6044820152606490fd5b3461018f57602036600319011261018f5760043563ffffffff60e01b811680910361018f57602090637965db0b60e01b81149081156115d4575b506040519015158152f35b6301ffc9a760e01b149050826115c9565b3461018f57602036600319011261018f5760043560015481101561018f5761160c90611719565b50611616816117c7565b611622600183016117c7565b906002830154926003810154906004810154906005810154936006820154916007810154906008810154916009820161165a906117c7565b94600a83015498600b84015497600160a01b60019003600c8196015416996040519d8e9d8e996101e0808c528b016116919161186d565b8a810360208c01526116a29161186d565b98604001528c868216906060015260808d019060a01c60ff16906116c5916118ad565b60a08c015260c08b015260e08a0152610100890152811661012088015260a01c60ff1615156101408701528581036101608701526117029161186d565b926101808501526101a08401526101c08301520390f35b600154811015611738576001600052600d602060002091020190600090565b634e487b7160e01b600052603260045260246000fd5b90600182811c9216801561177e575b602083101461176857565b634e487b7160e01b600052602260045260246000fd5b91607f169161175d565b6101e081019081106001600160401b0382111761041f57604052565b601f909101601f19168101906001600160401b0382119082101761041f57604052565b90604051918260008254926117db8461174e565b90818452600194858116908160001461184a5750600114611807575b5050611805925003836117a4565b565b9093915060005260209081600020936000915b818310611832575050611805935082010138806117f7565b8554888401850152948501948794509183019161181a565b91505061180594506020925060ff191682840152151560051b82010138806117f7565b919082519283825260005b848110611899575050826000602080949584010152601f8019910116010190565b602081830181015184830182015201611878565b9060048210156108e25752565b600435906001600160a01b038216820361018f57565b602435906001600160a01b038216820361018f57565b60065481101561173857600660005260206000200190600090565b9061192a61191883516101e080855284019061186d565b6020840151838203602085015261186d565b91604081015160408301526119b560018060a01b039384606084015116606085015261195e608084015160808601906118ad565b60a083015160a085015260c083015160c085015260e083015160e08501526101008084015190850152610120858185015116908501526101408084015115159085015261016080840151908583039086015261186d565b9261018080830151908401526101a080830151908401526101c0809201511691015290565b6001600160a01b0316600081815260008051602061202a833981519152602052604081205490919060ff1615611a405781805281602052604082208183526020526040822060ff1981541690553391600080516020611fca8339815191528180a4600190565b5090565b6001600160a01b031660008181527f30710e496c9a8631e387d1ff5062c226d4ce9c9e008bff1f22ae157290ccbd626020526040812054909190600080516020611fea8339815191529060ff1615611acb5780835282602052604083208284526020526040832060ff198154169055600080516020611fca833981519152339380a4600190565b505090565b9060009180835282602052604083209160018060a01b03169182845260205260ff604084205416600014611acb5780835282602052604083208284526020526040832060ff198154169055600080516020611fca833981519152339380a4600190565b336000908152600080516020611f8a8339815191526020526040902054600080516020611f6a8339815191529060ff1615611b6b5750565b6044906040519063e2517d3f60e01b82523360048301526024820152fd5b80600052600060205260406000203360005260205260ff6040600020541615611b6b5750565b6001600160a01b03166000818152600080516020611f8a8339815191526020526040812054909190600080516020611f6a8339815191529060ff16611acb57808352826020526040832082845260205260408320600160ff19825416179055600080516020611f4a833981519152339380a4600190565b9060009180835282602052604083209160018060a01b03169182845260205260ff60408420541615600014611acb57808352826020526040832082845260205260408320600160ff19825416179055600080516020611f4a833981519152339380a4600190565b60001981146103045760010190565b6000600080516020611fea833981519152815280602052600191611cc583604084200154611b89565b611cce81611a44565b506001600160a01b03908116808352600760205260408320805491929160ff8116611cfc575b505050505050565b60ff1916905582845b611d24575b505081526003602052604081205550388080808080611cf4565b6006805480831015611dcb578385611d3b856118e6565b929054600393841b1c1614611d5c57505050611d5690611c8d565b84611d05565b9093919495965060001993848101908111611db7579161029b9161028f611d8395946118e6565b81548015611da3570190611d996102d0836118e6565b5581903880611d0a565b634e487b7160e01b85526031600452602485fd5b634e487b7160e01b88526011600452602488fd5b5050611d0a565b903590601e198136030182121561018f57018035906001600160401b03821161018f5760200191813603831361018f57565b9192916001600160401b03821161041f5760405191611e2d601f8201601f1916602001846117a4565b82948184528183011161018f578281602093846000960137010152565b9060048110156108e257815460ff60a01b191660a09190911b60ff60a01b16179055565b90604051611e7b81611788565b8092611e86816117c7565b8252611e94600182016117c7565b60208301526002810154604083015260038101546001600160a01b0380821660608501529060a01c60ff1660048110156108e2576101c092600c916080860152600481015460a0860152600581015460c0860152600681015460e0860152600781015461010086015260ff600882015484811661012088015260a01c161515610140860152611f25600982016117c7565b610160860152600a810154610180860152600b8101546101a086015201541691015256fe2f8788117e7eff1d82e926ec794901d17c78024a50270940304540a733656f0d3b5d4cc60d3ec3516ee8ae083bd60934f6eb2a6c54b1229985c41bfb092b2603c39f11a9300b508470eaed31f5842ba08c93181bcbe6a7fe34039aa7f2b80742db51946147af8f68f24b69cdb99d868cc4b53b75dce4e05d8f590bcf5281051cf6391f5c32d9c69d2a47ea670b442974b53935d1edc7fd64eb21e047a839171b829b824e2329e205435d941c9f13baf578548505283d29261236d8e6596d4636094f80829c509370abb2d421a078ba5926755d3de25d021dacf7bbd19853f7a2ad3228b676f7d3cd4284a5443f17f1962b36e491b30a40b2405849e597ba5fb5a164736f6c6343000814000a2f8788117e7eff1d82e926ec794901d17c78024a50270940304540a733656f0d829b824e2329e205435d941c9f13baf578548505283d29261236d8e6596d4636",
  "linkReferences": {},
  "deployedLinkReferences": {}
}