{
  "_format": "hh-sol-artifact-1",
  "contractName": "Voting",
  "sourceName": "contracts/Voting.sol",
  "abi": [
    {
      "inputs": [
        {
          "internalType": "address",
          "name": "_governanceToken",
          "type": "address"
        },
        {
          "internalType": "address",
          "name": "admin",
          "type": "address"
        }
      ],
      "stateMutability": "nonpayable",
      "type": "constructor"
    },
    {
      "inputs": [],
      "name": "AccessControlBadConfirmation",
      "type": "error"
    },
    {
      "inputs": [
        {
          "internalType": "address",
          "name": "account",
          "type": "address"
        },
        {
          "internalType": "bytes32",
          "name": "neededRole",
          "type": "bytes32"
        }
      ],
      "name": "AccessControlUnauthorizedAccount",
      "type": "error"
    },
    {
      "anonymous": false,
      "inputs": [
        {
          "indexed": true,
          "internalType": "bytes32",
          "name": "role",
          "type": "bytes32"
        },
        {
          "indexed": true,
          "internalType": "bytes32",
          "name": "previousAdminRole",
          "type": "bytes32"
        },
        {
          "indexed": true,
          "internalType": "bytes32",
          "name": "newAdminRole",
          "type": "bytes32"
        }
      ],
      "name": "RoleAdminChanged",
      "type": "event"
    },
    {
      "anonymous": false,
      "inputs": [
        {
          "indexed": true,
          "internalType": "bytes32",
          "name": "role",
          "type": "bytes32"
        },
        {
          "indexed": true,
          "internalType": "address",
          "name": "account",
          "type": "address"
        },
        {
          "indexed": true,
          "internalType": "address",
          "name": "sender",
          "type": "address"
        }
      ],
      "name": "RoleGranted",
      "type": "event"
    },
    {
      "anonymous": false,
      "inputs": [
        {
          "indexed": true,
          "internalType": "bytes32",
          "name": "role",
          "type": "bytes32"
        },
        {
          "indexed": true,
          "internalType": "address",
          "name": "account",
          "type": "address"
        },
        {
          "indexed": true,
          "internalType": "address",
          "name": "sender",
          "type": "address"
        }
      ],
      "name": "RoleRevoked",
      "type": "event"
    },
    {
      "anonymous": false,
      "inputs": [
        {
          "indexed": true,
          "internalType": "uint256",
          "name": "proposalId",
          "type": "uint256"
        },
        {
          "indexed": true,
          "internalType": "address",
          "name": "voter",
          "type": "address"
        },
        {
          "indexed": false,
          "internalType": "bool",
          "name": "support",
          "type": "bool"
        }
      ],
      "name": "Voted",
      "type": "event"
    },
    {
      "inputs": [],
      "name": "DEFAULT_ADMIN_ROLE",
      "outputs": [
        {
          "internalType": "bytes32",
          "name": "",
          "type": "bytes32"
        }
      ],
      "stateMutability": "view",
      "type": "function"
    },
    {
      "inputs": [],
      "name": "MEMBER_ROLE",
      "outputs": [
        {
          "internalType": "bytes32",
          "name": "",
          "type": "bytes32"
        }
      ],
      "stateMutability": "view",
      "type": "function"
    },
    {
      "inputs": [
        {
          "internalType": "bytes32",
          "name": "role",
          "type": "bytes32"
        }
      ],
      "name": "getRoleAdmin",
      "outputs": [
        {
          "internalType": "bytes32",
          "name": "",
          "type": "bytes32"
        }
      ],
      "stateMutability": "view",
      "type": "function"
    },
    {
      "inputs": [
        {
          "internalType": "uint256",
          "name": "proposalId",
          "type": "uint256"
        }
      ],
      "name": "getVotes",
      "outputs": [
        {
          "internalType": "uint256",
          "name": "forVotes",
          "type": "uint256"
        },
        {
          "internalType": "uint256",
          "name": "againstVotes",
          "type": "uint256"
        }
      ],
      "stateMutability": "view",
      "type": "function"
    },
    {
      "inputs": [],
      "name": "governanceToken",
      "outputs": [
        {
          "internalType": "contract GovernanceToken",
          "name": "",
          "type": "address"
        }
      ],
      "stateMutability": "view",
      "type": "function"
    },
    {
      "inputs": [
        {
          "internalType": "bytes32",
          "name": "role",
          "type": "bytes32"
        },
        {
          "internalType": "address",
          "name": "account",
          "type": "address"
        }
      ],
      "name": "grantRole",
      "outputs": [],
      "stateMutability": "nonpayable",
      "type": "function"
    },
    {
      "inputs": [
        {
          "internalType": "bytes32",
          "name": "role",
          "type": "bytes32"
        },
        {
          "internalType": "address",
          "name": "account",
          "type": "address"
        }
      ],
      "name": "hasRole",
      "outputs": [
        {
          "internalType": "bool",
          "name": "",
          "type": "bool"
        }
      ],
      "stateMutability": "view",
      "type": "function"
    },
    {
      "inputs": [
        {
          "internalType": "uint256",
          "name": "proposalId",
          "type": "uint256"
        },
        {
          "internalType": "address",
          "name": "voter",
          "type": "address"
        }
      ],
      "name": "hasVoted",
      "outputs": [
        {
          "internalType": "bool",
          "name": "",
          "type": "bool"
        }
      ],
      "stateMutability": "view",
      "type": "function"
    },
    {
      "inputs": [
        {
          "internalType": "bytes32",
          "name": "role",
          "type": "bytes32"
        },
        {
          "internalType": "address",
          "name": "callerConfirmation",
          "type": "address"
        }
      ],
      "name": "renounceRole",
      "outputs": [],
      "stateMutability": "nonpayable",
      "type": "function"
    },
    {
      "inputs": [
        {
          "internalType": "bytes32",
          "name": "role",
          "type": "bytes32"
        },
        {
          "internalType": "address",
          "name": "account",
          "type": "address"
        }
      ],
      "name": "revokeRole",
      "outputs": [],
      "stateMutability": "nonpayable",
      "type": "function"
    },
    {
      "inputs": [
        {
          "internalType": "uint256",
          "name": "proposalId",
          "type": "uint256"
        }
      ],
      "name": "startVoting",
      "outputs": [],
      "stateMutability": "nonpayable",
      "type": "function"
    },
    {
      "inputs": [
        {
          "internalType": "bytes4",
          "name": "interfaceId",
          "type": "bytes4"
        }
      ],
      "name": "supportsInterface",
      "outputs": [
        {
          "internalType": "bool",
          "name": "",
          "type": "bool"
        }
      ],
      "stateMutability": "view",
      "type": "function"
    },
    {
      "inputs": [
        {
          "internalType": "uint256",
          "name": "proposalId",
          "type": "uint256"
        },
        {
          "internalType": "bool",
          "name": "support",
          "type": "bool"
        }
      ],
      "name": "vote",
      "outputs": [],
      "stateMutability": "nonpayable",
      "type": "function"
    },
    {
      "inputs": [
        {
          "internalType": "uint256",
          "name": "",
          "type": "uint256"
        }
      ],
      "name": "voteRecords",
      "outputs": [
        {
          "internalType": "uint256",
          "name": "votesFor",
          "type": "uint256"
        },
        {
          "internalType": "uint256",
          "name": "votesAgainst",
          "type": "uint256"
        },
        {
          "internalType": "uint256",
          "name": "endTime",
          "type": "uint256"
        }
      ],
      "stateMutability": "view",
      "type": "function"
    },
    {
      "inputs": [],
      "name": "votingDuration",
      "outputs": [
        {
          "internalType": "uint256",
          "name": "",
          "type": "uint256"
        }
      ],
      "stateMutability": "view",
      "type": "function"
    }
  ],
  "bytecode": "0x60803461009c57601f610a2d38819003918201601f19168301916001600160401b038311848410176100a157808492604094855283398101031261009c5780610056602061004f61008c946100b7565b92016100b7565b6203f480600355600180546001600160a01b0319166001600160a01b0390931692909217909155610086816100cb565b50610149565b5060405161082390816101ea8239f35b600080fd5b634e487b7160e01b600052604160045260246000fd5b51906001600160a01b038216820361009c57565b6001600160a01b031660008181527fad3228b676f7d3cd4284a5443f17f1962b36e491b30a40b2405849e597ba5fb5602052604081205490919060ff1661014557818052816020526040822081835260205260408220600160ff198254161790553391600080516020610a0d8339815191528180a4600190565b5090565b6001600160a01b031660008181527f30710e496c9a8631e387d1ff5062c226d4ce9c9e008bff1f22ae157290ccbd6260205260408120549091907f829b824e2329e205435d941c9f13baf578548505283d29261236d8e6596d46369060ff166101e457808352826020526040832082845260205260408320600160ff19825416179055600080516020610a0d833981519152339380a4600190565b50509056fe6080604081815260048036101561001557600080fd5b600092833560e01c90816301ffc9a71461062457508063132002fc14610605578063248a9ca3146105dc578063268b8c691461059c5780632f2ff15d1461057357806336568abe1461052c5780633d2f5bda146104c3578063438596321461047d57806391d1485414610438578063a10f469e146103fd578063a217fddf146103e2578063c9d27afe1461016a578063d547741f1461012c578063f96dae0a146100ff5763ff981099146100c857600080fd5b346100fb5760203660031901126100fb579181923581526002602052206002600182015491015482519182526020820152f35b8280fd5b50503461012857816003193601126101285760015490516001600160a01b039091168152602090f35b5080fd5b5090346100fb57806003193601126100fb5761016691356101616001610150610678565b938387528660205286200154610693565b610755565b5080f35b508290346101285782600319360112610128578035602491823594851515938487036103de577f829b824e2329e205435d941c9f13baf578548505283d29261236d8e6596d463692838752602093878552838820338952855260ff8489205416156103c4575084875260028452828720906003820154421161038b5733885281855260ff8489205416610351576001548451635da6a21b60e11b81523383820152939086908590839082906001600160a01b03165afa9384156103475789946102eb575b5083156102a95750507ff2913dbe661ee2acc4a046d8fbcdc792373bda34c41c6086484b5345e5785e5f94959697338952818552838920600160ff1982541617905560001461029357600161028691019182546107ca565b90555b519384523393a380f35b60026102a291019182546107ca565b9055610289565b845162461bcd60e51b81529182018690526017908201527f566f74696e673a206e6f20766f74696e6720706f7765720000000000000000006044820152606490fd5b909350853d8711610340575b601f8101601f1916820167ffffffffffffffff81118382101761032e578791839188528101031261032a5751928a61022e565b8880fd5b634e487b7160e01b8b5260418452858bfd5b503d6102f7565b85513d8b823e3d90fd5b835162461bcd60e51b815290810185905260158184015274159bdd1a5b99ce88185b1c9958591e481d9bdd1959605a1b6044820152606490fd5b835162461bcd60e51b815290810185905260148184015273159bdd1a5b99ce881c195c9a5bd908195b99195960621b6044820152606490fd5b60449284519263e2517d3f60e01b84523390840152820152fd5b8580fd5b50503461012857816003193601126101285751908152602090f35b505034610128578160031936011261012857602090517f829b824e2329e205435d941c9f13baf578548505283d29261236d8e6596d46368152f35b50346100fb57816003193601126100fb578160209360ff92610458610678565b903582528186528282206001600160a01b039091168252855220549151911615158152f35b50346100fb57816003193601126100fb578160209360ff9261049d610678565b90358252600286528282206001600160a01b039091168252855220549151911615158152f35b5090346100fb5760203660031901126100fb578280528260205280832033845260205260ff818420541615610510576003906105008254426107ca565b9235845260026020528320015580f35b91604492519163e2517d3f60e01b835233908301526024820152fd5b50919034610128578060031936011261012857610547610678565b90336001600160a01b038316036105645750610166919235610755565b5163334bd91960e11b81528390fd5b5090346100fb57806003193601126100fb5761016691356105976001610150610678565b6106d7565b50346100fb5760203660031901126100fb576060928291358152600260205220600181015491600360028301549201549181519384526020840152820152f35b50346100fb5760203660031901126100fb57816020936001923581528085522001549051908152f35b5050346101285781600319360112610128576020906003549051908152f35b925050346100fb5760203660031901126100fb573563ffffffff60e01b81168091036100fb5760209250637965db0b60e01b8114908115610667575b5015158152f35b6301ffc9a760e01b14905038610660565b602435906001600160a01b038216820361068e57565b600080fd5b80600052600060205260406000203360005260205260ff60406000205416156106b95750565b6044906040519063e2517d3f60e01b82523360048301526024820152fd5b9060009180835282602052604083209160018060a01b03169182845260205260ff6040842054161560001461075057808352826020526040832082845260205260408320600160ff198254161790557f2f8788117e7eff1d82e926ec794901d17c78024a50270940304540a733656f0d339380a4600190565b505090565b9060009180835282602052604083209160018060a01b03169182845260205260ff6040842054166000146107505780835282602052604083208284526020526040832060ff1981541690557ff6391f5c32d9c69d2a47ea670b442974b53935d1edc7fd64eb21e047a839171b339380a4600190565b919082018092116107d757565b634e487b7160e01b600052601160045260246000fdfea2646970667358221220a900e6c7588e2f9d5ca1864c3e811c1697ba6e0607bf4da15d15504c7dab9fdc64736f6c634300081400332f8788117e7eff1d82e926ec794901d17c78024a50270940304540a733656f0d",
  "linkReferences": {},
  "deployedLinkReferences": {}
}