{
  "_format": "hh-sol-artifact-1",
  "contractName": "Execution",
  "sourceName": "contracts/Execution.sol",
  "abi": [
    {
      "inputs": [
        {
          "internalType": "address",
          "name": "_proposal",
          "type": "address"
        },
        {
          "internalType": "address",
          "name": "_voting",
          "type": "address"
        },
        {
          "internalType": "address payable",
          "name": "_vault",
          "type": "address"
        }
      ],
      "stateMutability": "nonpayable",
      "type": "constructor"
    },
    {
      "anonymous": false,
      "inputs": [
        {
          "indexed": true,
          "internalType": "uint256",
          "name": "proposalId",
          "type": "uint256"
        }
      ],
      "name": "ProposalExecuted",
      "type": "event"
    },
    {
      "inputs": [
        {
          "internalType": "uint256",
          "name": "proposalId",
          "type": "uint256"
        }
      ],
      "name": "executeProposal",
      "outputs": [],
      "stateMutability": "nonpayable",
      "type": "function"
    },
    {
      "inputs": [
        {
          "internalType": "uint256",
          "name": "proposalId",
          "type": "uint256"
        }
      ],
      "name": "isExecutable",
      "outputs": [
        {
          "internalType": "bool",
          "name": "",
          "type": "bool"
        }
      ],
      "stateMutability": "view",
      "type": "function"
    },
    {
      "inputs": [],
      "name": "proposalContract",
      "outputs": [
        {
          "internalType": "contract Proposal",
          "name": "",
          "type": "address"
        }
      ],
      "stateMutability": "view",
      "type": "function"
    },
    {
      "inputs": [],
      "name": "quorumPercent",
      "outputs": [
        {
          "internalType": "uint256",
          "name": "",
          "type": "uint256"
        }
      ],
      "stateMutability": "view",
      "type": "function"
    },
    {
      "inputs": [],
      "name": "vaultContract",
      "outputs": [
        {
          "internalType": "contract Vault",
          "name": "",
          "type": "address"
        }
      ],
      "stateMutability": "view",
      "type": "function"
    },
    {
      "inputs": [],
      "name": "votingContract",
      "outputs": [
        {
          "internalType": "contract Voting",
          "name": "",
          "type": "address"
        }
      ],
      "stateMutability": "view",
      "type": "function"
    }
  ],
  "bytecode": "0x608060405260326003553480156200001657600080fd5b5060405162000fc538038062000fc583398181016040528101906200003c9190620001b6565b826000806101000a81548173ffffffffffffffffffffffffffffffffffffffff021916908373ffffffffffffffffffffffffffffffffffffffff16021790555081600160006101000a81548173ffffffffffffffffffffffffffffffffffffffff021916908373ffffffffffffffffffffffffffffffffffffffff16021790555080600260006101000a81548173ffffffffffffffffffffffffffffffffffffffff021916908373ffffffffffffffffffffffffffffffffffffffff16021790555050505062000212565b600080fd5b600073ffffffffffffffffffffffffffffffffffffffff82169050919050565b600062000139826200010c565b9050919050565b6200014b816200012c565b81146200015757600080fd5b50565b6000815190506200016b8162000140565b92915050565b60006200017e826200010c565b9050919050565b620001908162000171565b81146200019c57600080fd5b50565b600081519050620001b08162000185565b92915050565b600080600060608486031215620001d257620001d162000107565b5b6000620001e2868287016200015a565b9350506020620001f5868287016200015a565b925050604062000208868287016200019f565b9150509250925092565b610da380620002226000396000f3fe608060405234801561001057600080fd5b50600436106100625760003560e01c80630d61b519146100675780632274346b146100835780633aef3900146100a15780634e395e2a146100bf578063c1fc006a146100ef578063f81cbd261461010d575b600080fd5b610081600480360381019061007c9190610588565b61012b565b005b61008b6103d8565b6040516100989190610634565b60405180910390f35b6100a96103fe565b6040516100b69190610682565b60405180910390f35b6100d960048036038101906100d49190610588565b610422565b6040516100e691906106b8565b60405180910390f35b6100f7610512565b60405161010491906106f4565b60405180910390f35b610115610538565b604051610122919061071e565b60405180910390f35b61013481610422565b610173576040517f08c379a000000000000000000000000000000000000000000000000000000000815260040161016a90610796565b60405180910390fd5b60008060009054906101000a900473ffffffffffffffffffffffffffffffffffffffff1673ffffffffffffffffffffffffffffffffffffffff1663c7f758a8836040518263ffffffff1660e01b81526004016101cf919061071e565b600060405180830381865afa1580156101ec573d6000803e3d6000fd5b505050506040513d6000823e3d601f19601f820116820180604052508101906102159190610a9b565b90506000600381111561022b5761022a610ae4565b5b8160800151600381111561024257610241610ae4565b5b14610282576040517f08c379a000000000000000000000000000000000000000000000000000000000815260040161027990610b5f565b60405180910390fd5b600260009054906101000a900473ffffffffffffffffffffffffffffffffffffffff1673ffffffffffffffffffffffffffffffffffffffff1663a9059cbb826060015183604001516040518363ffffffff1660e01b81526004016102e7929190610b8e565b600060405180830381600087803b15801561030157600080fd5b505af1158015610315573d6000803e3d6000fd5b5050505060008054906101000a900473ffffffffffffffffffffffffffffffffffffffff1673ffffffffffffffffffffffffffffffffffffffff1663cbe946148360036040518363ffffffff1660e01b8152600401610375929190610bff565b600060405180830381600087803b15801561038f57600080fd5b505af11580156103a3573d6000803e3d6000fd5b50505050817f712ae1383f79ac853f8d882153778e0260ef8f03b504e2866e0593e04d2b291f60405160405180910390a25050565b600260009054906101000a900473ffffffffffffffffffffffffffffffffffffffff1681565b60008054906101000a900473ffffffffffffffffffffffffffffffffffffffff1681565b6000806000600160009054906101000a900473ffffffffffffffffffffffffffffffffffffffff1673ffffffffffffffffffffffffffffffffffffffff1663ff981099856040518263ffffffff1660e01b8152600401610482919061071e565b6040805180830381865afa15801561049e573d6000803e3d6000fd5b505050506040513d601f19601f820116820180604052508101906104c29190610c28565b91509150600081836104d49190610c97565b9050600081036104ea576000935050505061050d565b600354816064856104fb9190610ccb565b6105059190610d3c565b101593505050505b919050565b600160009054906101000a900473ffffffffffffffffffffffffffffffffffffffff1681565b60035481565b6000604051905090565b600080fd5b600080fd5b6000819050919050565b61056581610552565b811461057057600080fd5b50565b6000813590506105828161055c565b92915050565b60006020828403121561059e5761059d610548565b5b60006105ac84828501610573565b91505092915050565b600073ffffffffffffffffffffffffffffffffffffffff82169050919050565b6000819050919050565b60006105fa6105f56105f0846105b5565b6105d5565b6105b5565b9050919050565b600061060c826105df565b9050919050565b600061061e82610601565b9050919050565b61062e81610613565b82525050565b60006020820190506106496000830184610625565b92915050565b600061065a826105df565b9050919050565b600061066c8261064f565b9050919050565b61067c81610661565b82525050565b60006020820190506106976000830184610673565b92915050565b60008115159050919050565b6106b28161069d565b82525050565b60006020820190506106cd60008301846106a9565b92915050565b60006106de8261064f565b9050919050565b6106ee816106d3565b82525050565b600060208201905061070960008301846106e5565b92915050565b61071881610552565b82525050565b6000602082019050610733600083018461070f565b92915050565b600082825260208201905092915050565b7f457865637574696f6e3a2071756f72756d206e6f742072656163686564000000600082015250565b6000610780601d83610739565b915061078b8261074a565b602082019050919050565b600060208201905081810360008301526107af81610773565b9050919050565b600080fd5b6000601f19601f8301169050919050565b7f4e487b7100000000000000000000000000000000000000000000000000000000600052604160045260246000fd5b610804826107bb565b810181811067ffffffffffffffff82111715610823576108226107cc565b5b80604052505050565b600061083661053e565b905061084282826107fb565b919050565b600080fd5b600080fd5b600080fd5b600067ffffffffffffffff821115610871576108706107cc565b5b61087a826107bb565b9050602081019050919050565b60005b838110156108a557808201518184015260208101905061088a565b60008484015250505050565b60006108c46108bf84610856565b61082c565b9050828152602081018484840111156108e0576108df610851565b5b6108eb848285610887565b509392505050565b600082601f8301126109085761090761084c565b5b81516109188482602086016108b1565b91505092915050565b6000815190506109308161055c565b92915050565b6000610941826105b5565b9050919050565b61095181610936565b811461095c57600080fd5b50565b60008151905061096e81610948565b92915050565b6004811061098157600080fd5b50565b60008151905061099381610974565b92915050565b600061010082840312156109b0576109af6107b6565b5b6109bb61010061082c565b9050600082015167ffffffffffffffff8111156109db576109da610847565b5b6109e7848285016108f3565b600083015250602082015167ffffffffffffffff811115610a0b57610a0a610847565b5b610a17848285016108f3565b6020830152506040610a2b84828501610921565b6040830152506060610a3f8482850161095f565b6060830152506080610a5384828501610984565b60808301525060a0610a6784828501610921565b60a08301525060c0610a7b84828501610921565b60c08301525060e0610a8f84828501610921565b60e08301525092915050565b600060208284031215610ab157610ab0610548565b5b600082015167ffffffffffffffff811115610acf57610ace61054d565b5b610adb84828501610999565b91505092915050565b7f4e487b7100000000000000000000000000000000000000000000000000000000600052602160045260246000fd5b7f457865637574696f6e3a20696e76616c69642073746174757300000000000000600082015250565b6000610b49601983610739565b9150610b5482610b13565b602082019050919050565b60006020820190508181036000830152610b7881610b3c565b9050919050565b610b8881610936565b82525050565b6000604082019050610ba36000830185610b7f565b610bb0602083018461070f565b9392505050565b60048110610bc857610bc7610ae4565b5b50565b6000819050610bd982610bb7565b919050565b6000610be982610bcb565b9050919050565b610bf981610bde565b82525050565b6000604082019050610c14600083018561070f565b610c216020830184610bf0565b9392505050565b60008060408385031215610c3f57610c3e610548565b5b6000610c4d85828601610921565b9250506020610c5e85828601610921565b9150509250929050565b7f4e487b7100000000000000000000000000000000000000000000000000000000600052601160045260246000fd5b6000610ca282610552565b9150610cad83610552565b9250828201905080821115610cc557610cc4610c68565b5b92915050565b6000610cd682610552565b9150610ce183610552565b9250828202610cef81610552565b91508282048414831517610d0657610d05610c68565b5b5092915050565b7f4e487b7100000000000000000000000000000000000000000000000000000000600052601260045260246000fd5b6000610d4782610552565b9150610d5283610552565b925082610d6257610d61610d0d565b5b82820490509291505056fea2646970667358221220f85270c6a8d7eb785996a5d4347f71a0214820e057f57baadd6f47c7f8c9a0a964736f6c63430008140033",
  "linkReferences": {},
  "deployedLinkReferences": {}
}