{
  "_format": "hh-sol-artifact-1",
  "contractName": "Execution",
  "sourceName": "contracts/Execution.sol",
  "abi": [
    {
      "inputs": [
        {
          "internalType": "address",
          "name": "_proposal",
          "type": "address"
        },
        {
          "internalType": "address",
          "name": "_vault",
          "type": "address"
        }
      ],
      "stateMutability": "nonpayable",
      "type": "constructor"
    },
    {
      "anonymous": false,
      "inputs": [
        {
          "indexed": true,
          "internalType": "uint256",
          "name": "proposalId",
          "type": "uint256"
        }
      ],
      "name": "ProposalExecuted",
      "type": "event"
    },
    {
      "anonymous": false,
      "inputs": [
        {
          "indexed": false,
          "internalType": "string",
          "name": "rule",
          "type": "string"
        },
        {
          "indexed": false,
          "internalType": "uint256",
          "name": "beforeValue",
          "type": "uint256"
        },
        {
          "indexed": false,
          "internalType": "uint256",
          "name": "afterValue",
          "type": "uint256"
        }
      ],
      "name": "RuleChanged",
      "type": "event"
    },
    {
      "inputs": [],
      "name": "daoAddress",
      "outputs": [
        {
          "internalType": "address",
          "name": "",
          "type": "address"
        }
      ],
      "stateMutability": "view",
      "type": "function"
    },
    {
      "inputs": [
        {
          "internalType": "uint256",
          "name": "proposalId",
          "type": "uint256"
        }
      ],
      "name": "executeDeposit",
      "outputs": [],
      "stateMutability": "nonpayable",
      "type": "function"
    },
    {
      "inputs": [
        {
          "internalType": "uint256",
          "name": "proposalId",
          "type": "uint256"
        }
      ],
      "name": "executePayout",
      "outputs": [],
      "stateMutability": "nonpayable",
      "type": "function"
    },
    {
      "inputs": [
        {
          "internalType": "uint256",
          "name": "proposalId",
          "type": "uint256"
        }
      ],
      "name": "executeRuleChange",
      "outputs": [],
      "stateMutability": "nonpayable",
      "type": "function"
    },
    {
      "inputs": [],
      "name": "proposalContract",
      "outputs": [
        {
          "internalType": "contract Proposal",
          "name": "",
          "type": "address"
        }
      ],
      "stateMutability": "view",
      "type": "function"
    },
    {
      "inputs": [
        {
          "internalType": "address",
          "name": "_dao",
          "type": "address"
        }
      ],
      "name": "setDaoAddress",
      "outputs": [],
      "stateMutability": "nonpayable",
      "type": "function"
    },
    {
      "inputs": [],
      "name": "vaultContract",
      "outputs": [
        {
          "internalType": "contract Vault",
          "name": "",
          "type": "address"
        }
      ],
      "stateMutability": "view",
      "type": "function"
    }
  ],
  "bytecode": "0x60803461008d57601f61083d38819003918201601f19168301916001600160401b0383118484101761009257808492604094855283398101031261008d57610052602061004b836100a8565b92016100a8565b600080546001600160a01b039384166001600160a01b0319918216179091556001805492909316911617905560405161078090816100bd8239f35b600080fd5b634e487b7160e01b600052604160045260246000fd5b51906001600160a01b038216820361008d5756fe608060408181526004908136101561001657600080fd5b600092833560e01c9081632131c68c146104c35750806321814f901461033c5780632274346b146103135780633aef3900146102eb578381637026e9fd1461024c575080639a3cac6a146101c15763de1b293a1461007357600080fd5b34610181576020366003190112610181578282359260018060a01b0361009e816002541633146104e8565b825416908351946318feeb1560e31b865280828701528386602481865afa9586156101b7578496610193575b50823b1561018f576044849283875195869485936332fa518560e21b8552840152600360248401525af180156101855761016d575b50506080827f0c607c5751c330dfb1b02e97a8c6b40995b7c37f1247cb3ba0baa9308f3747ff93516101a06101808301519201518451948593606085526101558451809581606089015260208989019101610580565b6020850152830152601f01601f19168101030190a180f35b61017690610534565b6101815782386100ff565b8280fd5b83513d84823e3d90fd5b8380fd5b6101b09196503d8086833e6101a8818361055d565b810190610610565b94386100ca565b85513d86823e3d90fd5b5034610181576020366003190112610181576001600160a01b03823581811693919290849003610248576002549283166102085750506001600160a01b0319161760025580f35b906020606492519162461bcd60e51b8352820152601a602482015279111053c81859191c995cdcc81a5cc8185b1c9958591e481cd95d60321b6044820152fd5b8480fd5b828185346102de5760203660031901126102de5780359260018060a01b03610279816002541633146104e8565b83541691823b1561018f57846044859283855196879485936332fa518560e21b8552840152600360248401525af19081156102e257506102ca575b508060008051602061075483398151915291a280f35b6102d390610534565b6102de5781836102b4565b5080fd5b513d84823e3d90fd5b8382346102de57816003193601126102de57905490516001600160a01b039091168152602090f35b8382346102de57816003193601126102de5760015490516001600160a01b039091168152602090f35b5090346101815760203660031901126101815780359160018060a01b03610368816002541633146104e8565b602485828154168451928380926318feeb1560e31b825289898301525afa9081156104655786916104a9575b508160015416908131908481019182511161046f5760600151905187918416833b1561018157604490838751958694859363a9059cbb60e01b85528b85015260248401525af180156104655761044e575b509084929183541691823b1561018f57846044859283855196879485936332fa518560e21b8552840152600360248401525af19081156102e2575061043a57508060008051602061075483398151915291a280f35b61044390610534565b6102de5781386102b4565b61045c909591939295610534565b939091386103e5565b83513d88823e3d90fd5b845162461bcd60e51b81526020818801526014602482015273496e73756666696369656e742062616c616e636560601b6044820152606490fd5b6104bd91503d8088833e6101a8818361055d565b38610394565b8490346102de57816003193601126102de576002546001600160a01b03168152602090f35b156104ef57565b60405162461bcd60e51b815260206004820152601f60248201527f4f6e6c792044414f2063616e2063616c6c20746869732066756e6374696f6e006044820152606490fd5b6001600160401b03811161054757604052565b634e487b7160e01b600052604160045260246000fd5b601f909101601f19168101906001600160401b0382119082101761054757604052565b60005b8381106105935750506000910152565b8181015183820152602001610583565b81601f820112156105f75780516001600160401b03811161054757604051926105d6601f8301601f19166020018561055d565b818452602082840101116105f7576105f49160208085019101610580565b90565b600080fd5b51906001600160a01b03821682036105f757565b906020828203126105f75781516001600160401b03928382116105f75701906101e09283838303126105f757604051938401848110828211176105475760405282518181116105f757826106659185016105a3565b845260208301518181116105f7578261067f9185016105a3565b60208501526040838101519085015260608301516001600160a01b03811681036105f7576060850152608083015160048110156105f757608085015260a083015160a085015260c083015160c085015260e083015160e085015261010080840151908501526101206106f28185016105fc565b90850152610140808401519081151582036105f75785015261016091828401519182116105f7576107249184016105a3565b9083015261018080820151908301526101a0808201519083015261074c6101c08092016105fc565b908201529056fe712ae1383f79ac853f8d882153778e0260ef8f03b504e2866e0593e04d2b291fa164736f6c6343000814000a",
  "linkReferences": {},
  "deployedLinkReferences": {}
}